{
	"docs.chain.link/samples/APIRequests/AEthereumConsumer.sol": {
		"ATestnetConsumer": {
			"abi": [
				{
					"inputs": [],
					"stateMutability": "nonpayable",
					"type": "constructor"
				},
				{
					"anonymous": false,
					"inputs": [
						{
							"indexed": true,
							"internalType": "bytes32",
							"name": "id",
							"type": "bytes32"
						}
					],
					"name": "ChainlinkCancelled",
					"type": "event"
				},
				{
					"anonymous": false,
					"inputs": [
						{
							"indexed": true,
							"internalType": "bytes32",
							"name": "id",
							"type": "bytes32"
						}
					],
					"name": "ChainlinkFulfilled",
					"type": "event"
				},
				{
					"anonymous": false,
					"inputs": [
						{
							"indexed": true,
							"internalType": "bytes32",
							"name": "id",
							"type": "bytes32"
						}
					],
					"name": "ChainlinkRequested",
					"type": "event"
				},
				{
					"anonymous": false,
					"inputs": [
						{
							"indexed": true,
							"internalType": "address",
							"name": "from",
							"type": "address"
						},
						{
							"indexed": true,
							"internalType": "address",
							"name": "to",
							"type": "address"
						}
					],
					"name": "OwnershipTransferRequested",
					"type": "event"
				},
				{
					"anonymous": false,
					"inputs": [
						{
							"indexed": true,
							"internalType": "address",
							"name": "from",
							"type": "address"
						},
						{
							"indexed": true,
							"internalType": "address",
							"name": "to",
							"type": "address"
						}
					],
					"name": "OwnershipTransferred",
					"type": "event"
				},
				{
					"anonymous": false,
					"inputs": [
						{
							"indexed": true,
							"internalType": "bytes32",
							"name": "requestId",
							"type": "bytes32"
						},
						{
							"indexed": true,
							"internalType": "int256",
							"name": "change",
							"type": "int256"
						}
					],
					"name": "RequestEthereumChangeFulfilled",
					"type": "event"
				},
				{
					"anonymous": false,
					"inputs": [
						{
							"indexed": true,
							"internalType": "bytes32",
							"name": "requestId",
							"type": "bytes32"
						},
						{
							"indexed": true,
							"internalType": "bytes32",
							"name": "market",
							"type": "bytes32"
						}
					],
					"name": "RequestEthereumLastMarket",
					"type": "event"
				},
				{
					"anonymous": false,
					"inputs": [
						{
							"indexed": true,
							"internalType": "bytes32",
							"name": "requestId",
							"type": "bytes32"
						},
						{
							"indexed": true,
							"internalType": "uint256",
							"name": "price",
							"type": "uint256"
						}
					],
					"name": "RequestEthereumPriceFulfilled",
					"type": "event"
				},
				{
					"inputs": [],
					"name": "acceptOwnership",
					"outputs": [],
					"stateMutability": "nonpayable",
					"type": "function"
				},
				{
					"inputs": [
						{
							"internalType": "bytes32",
							"name": "_requestId",
							"type": "bytes32"
						},
						{
							"internalType": "uint256",
							"name": "_payment",
							"type": "uint256"
						},
						{
							"internalType": "bytes4",
							"name": "_callbackFunctionId",
							"type": "bytes4"
						},
						{
							"internalType": "uint256",
							"name": "_expiration",
							"type": "uint256"
						}
					],
					"name": "cancelRequest",
					"outputs": [],
					"stateMutability": "nonpayable",
					"type": "function"
				},
				{
					"inputs": [],
					"name": "changeDay",
					"outputs": [
						{
							"internalType": "int256",
							"name": "",
							"type": "int256"
						}
					],
					"stateMutability": "view",
					"type": "function"
				},
				{
					"inputs": [],
					"name": "currentPrice",
					"outputs": [
						{
							"internalType": "uint256",
							"name": "",
							"type": "uint256"
						}
					],
					"stateMutability": "view",
					"type": "function"
				},
				{
					"inputs": [
						{
							"internalType": "bytes32",
							"name": "_requestId",
							"type": "bytes32"
						},
						{
							"internalType": "int256",
							"name": "_change",
							"type": "int256"
						}
					],
					"name": "fulfillEthereumChange",
					"outputs": [],
					"stateMutability": "nonpayable",
					"type": "function"
				},
				{
					"inputs": [
						{
							"internalType": "bytes32",
							"name": "_requestId",
							"type": "bytes32"
						},
						{
							"internalType": "bytes32",
							"name": "_market",
							"type": "bytes32"
						}
					],
					"name": "fulfillEthereumLastMarket",
					"outputs": [],
					"stateMutability": "nonpayable",
					"type": "function"
				},
				{
					"inputs": [
						{
							"internalType": "bytes32",
							"name": "_requestId",
							"type": "bytes32"
						},
						{
							"internalType": "uint256",
							"name": "_price",
							"type": "uint256"
						}
					],
					"name": "fulfillEthereumPrice",
					"outputs": [],
					"stateMutability": "nonpayable",
					"type": "function"
				},
				{
					"inputs": [],
					"name": "getChainlinkToken",
					"outputs": [
						{
							"internalType": "address",
							"name": "",
							"type": "address"
						}
					],
					"stateMutability": "view",
					"type": "function"
				},
				{
					"inputs": [],
					"name": "lastMarket",
					"outputs": [
						{
							"internalType": "bytes32",
							"name": "",
							"type": "bytes32"
						}
					],
					"stateMutability": "view",
					"type": "function"
				},
				{
					"inputs": [],
					"name": "owner",
					"outputs": [
						{
							"internalType": "address",
							"name": "",
							"type": "address"
						}
					],
					"stateMutability": "view",
					"type": "function"
				},
				{
					"inputs": [
						{
							"internalType": "address",
							"name": "_oracle",
							"type": "address"
						},
						{
							"internalType": "string",
							"name": "_jobId",
							"type": "string"
						}
					],
					"name": "requestEthereumChange",
					"outputs": [],
					"stateMutability": "nonpayable",
					"type": "function"
				},
				{
					"inputs": [
						{
							"internalType": "address",
							"name": "_oracle",
							"type": "address"
						},
						{
							"internalType": "string",
							"name": "_jobId",
							"type": "string"
						}
					],
					"name": "requestEthereumLastMarket",
					"outputs": [],
					"stateMutability": "nonpayable",
					"type": "function"
				},
				{
					"inputs": [
						{
							"internalType": "address",
							"name": "_oracle",
							"type": "address"
						},
						{
							"internalType": "string",
							"name": "_jobId",
							"type": "string"
						}
					],
					"name": "requestEthereumPrice",
					"outputs": [],
					"stateMutability": "nonpayable",
					"type": "function"
				},
				{
					"inputs": [
						{
							"internalType": "address",
							"name": "to",
							"type": "address"
						}
					],
					"name": "transferOwnership",
					"outputs": [],
					"stateMutability": "nonpayable",
					"type": "function"
				},
				{
					"inputs": [],
					"name": "withdrawLink",
					"outputs": [],
					"stateMutability": "nonpayable",
					"type": "function"
				}
			],
			"devdoc": {
				"kind": "dev",
				"methods": {
					"constructor": {
						"details": "LINK address in Goerli network: 0x326C977E6efc84E512bB9C30f76E30c160eD06FBCheck https://docs.chain.link/docs/link-token-contracts/ for LINK address for the right network"
					}
				},
				"version": 1
			},
			"evm": {
				"assembly": "    /* \"docs.chain.link/samples/APIRequests/AEthereumConsumer.sol\":294:4833  contract ATestnetConsumer is ChainlinkClient, ConfirmedOwner {\r... */\n  mstore(0x40, 0x80)\n    /* \"@chainlink/contracts/src/v0.8/ChainlinkClient.sol\":1291:1292  1 */\n  0x01\n    /* \"@chainlink/contracts/src/v0.8/ChainlinkClient.sol\":1258:1292  uint256 private s_requestCount = 1 */\n  0x04\n  sstore\n    /* \"docs.chain.link/samples/APIRequests/AEthereumConsumer.sol\":1100:1221  constructor() ConfirmedOwner(msg.sender) {\r... */\n  callvalue\n  dup1\n  iszero\n  tag_1\n  jumpi\n  0x00\n  dup1\n  revert\ntag_1:\n  pop\n    /* \"docs.chain.link/samples/APIRequests/AEthereumConsumer.sol\":1129:1139  msg.sender */\n  caller\n    /* \"@chainlink/contracts/src/v0.8/ConfirmedOwner.sol\":327:335  newOwner */\n  dup1\n    /* \"@chainlink/contracts/src/v0.8/ConfirmedOwner.sol\":345:346  0 */\n  0x00\n    /* \"@chainlink/contracts/src/v0.8/ConfirmedOwnerWithProposal.sol\":572:573  0 */\n  dup1\n    /* \"@chainlink/contracts/src/v0.8/ConfirmedOwnerWithProposal.sol\":552:574  newOwner != address(0) */\n  0xffffffffffffffffffffffffffffffffffffffff\n  and\n    /* \"@chainlink/contracts/src/v0.8/ConfirmedOwnerWithProposal.sol\":552:560  newOwner */\n  dup3\n    /* \"@chainlink/contracts/src/v0.8/ConfirmedOwnerWithProposal.sol\":552:574  newOwner != address(0) */\n  0xffffffffffffffffffffffffffffffffffffffff\n  and\n  eq\n  iszero\n    /* \"@chainlink/contracts/src/v0.8/ConfirmedOwnerWithProposal.sol\":544:603  require(newOwner != address(0), \"Cannot set owner to zero\") */\n  tag_6\n  jumpi\n  mload(0x40)\n  0x08c379a000000000000000000000000000000000000000000000000000000000\n  dup2\n  mstore\n  0x04\n  add\n  tag_7\n  swap1\n  tag_8\n  jump\t// in\ntag_7:\n  mload(0x40)\n  dup1\n  swap2\n  sub\n  swap1\n  revert\ntag_6:\n    /* \"@chainlink/contracts/src/v0.8/ConfirmedOwnerWithProposal.sol\":620:628  newOwner */\n  dup2\n    /* \"@chainlink/contracts/src/v0.8/ConfirmedOwnerWithProposal.sol\":610:617  s_owner */\n  0x06\n  0x00\n    /* \"@chainlink/contracts/src/v0.8/ConfirmedOwnerWithProposal.sol\":610:628  s_owner = newOwner */\n  0x0100\n  exp\n  dup2\n  sload\n  dup2\n  0xffffffffffffffffffffffffffffffffffffffff\n  mul\n  not\n  and\n  swap1\n  dup4\n  0xffffffffffffffffffffffffffffffffffffffff\n  and\n  mul\n  or\n  swap1\n  sstore\n  pop\n    /* \"@chainlink/contracts/src/v0.8/ConfirmedOwnerWithProposal.sol\":662:663  0 */\n  0x00\n    /* \"@chainlink/contracts/src/v0.8/ConfirmedOwnerWithProposal.sol\":638:664  pendingOwner != address(0) */\n  0xffffffffffffffffffffffffffffffffffffffff\n  and\n    /* \"@chainlink/contracts/src/v0.8/ConfirmedOwnerWithProposal.sol\":638:650  pendingOwner */\n  dup2\n    /* \"@chainlink/contracts/src/v0.8/ConfirmedOwnerWithProposal.sol\":638:664  pendingOwner != address(0) */\n  0xffffffffffffffffffffffffffffffffffffffff\n  and\n  eq\n    /* \"@chainlink/contracts/src/v0.8/ConfirmedOwnerWithProposal.sol\":634:713  if (pendingOwner != address(0)) {... */\n  tag_9\n  jumpi\n    /* \"@chainlink/contracts/src/v0.8/ConfirmedOwnerWithProposal.sol\":674:706  _transferOwnership(pendingOwner) */\n  tag_10\n    /* \"@chainlink/contracts/src/v0.8/ConfirmedOwnerWithProposal.sol\":693:705  pendingOwner */\n  dup2\n    /* \"@chainlink/contracts/src/v0.8/ConfirmedOwnerWithProposal.sol\":674:692  _transferOwnership */\n  shl(0x20, tag_11)\n    /* \"@chainlink/contracts/src/v0.8/ConfirmedOwnerWithProposal.sol\":674:706  _transferOwnership(pendingOwner) */\n  0x20\n  shr\n  jump\t// in\ntag_10:\n    /* \"@chainlink/contracts/src/v0.8/ConfirmedOwnerWithProposal.sol\":634:713  if (pendingOwner != address(0)) {... */\ntag_9:\n    /* \"@chainlink/contracts/src/v0.8/ConfirmedOwnerWithProposal.sol\":486:717  constructor(address newOwner, address pendingOwner) {... */\n  pop\n  pop\n    /* \"@chainlink/contracts/src/v0.8/ConfirmedOwner.sol\":270:351  constructor(address newOwner) ConfirmedOwnerWithProposal(newOwner, address(0)) {} */\n  pop\n    /* \"docs.chain.link/samples/APIRequests/AEthereumConsumer.sol\":1152:1213  setChainlinkToken(0x326C977E6efc84E512bB9C30f76E30c160eD06FB) */\n  tag_14\n    /* \"docs.chain.link/samples/APIRequests/AEthereumConsumer.sol\":1170:1212  0x326C977E6efc84E512bB9C30f76E30c160eD06FB */\n  0x326c977e6efc84e512bb9c30f76e30c160ed06fb\n    /* \"docs.chain.link/samples/APIRequests/AEthereumConsumer.sol\":1152:1169  setChainlinkToken */\n  shl(0x20, tag_15)\n    /* \"docs.chain.link/samples/APIRequests/AEthereumConsumer.sol\":1152:1213  setChainlinkToken(0x326C977E6efc84E512bB9C30f76E30c160eD06FB) */\n  0x20\n  shr\n  jump\t// in\ntag_14:\n    /* \"docs.chain.link/samples/APIRequests/AEthereumConsumer.sol\":294:4833  contract ATestnetConsumer is ChainlinkClient, ConfirmedOwner {\r... */\n  jump(tag_16)\n    /* \"@chainlink/contracts/src/v0.8/ConfirmedOwnerWithProposal.sol\":1497:1685  function _transferOwnership(address to) private {... */\ntag_11:\n    /* \"@chainlink/contracts/src/v0.8/ConfirmedOwnerWithProposal.sol\":1565:1575  msg.sender */\n  caller\n    /* \"@chainlink/contracts/src/v0.8/ConfirmedOwnerWithProposal.sol\":1559:1575  to != msg.sender */\n  0xffffffffffffffffffffffffffffffffffffffff\n  and\n    /* \"@chainlink/contracts/src/v0.8/ConfirmedOwnerWithProposal.sol\":1559:1561  to */\n  dup2\n    /* \"@chainlink/contracts/src/v0.8/ConfirmedOwnerWithProposal.sol\":1559:1575  to != msg.sender */\n  0xffffffffffffffffffffffffffffffffffffffff\n  and\n  eq\n  iszero\n    /* \"@chainlink/contracts/src/v0.8/ConfirmedOwnerWithProposal.sol\":1551:1603  require(to != msg.sender, \"Cannot transfer to self\") */\n  tag_18\n  jumpi\n  mload(0x40)\n  0x08c379a000000000000000000000000000000000000000000000000000000000\n  dup2\n  mstore\n  0x04\n  add\n  tag_19\n  swap1\n  tag_20\n  jump\t// in\ntag_19:\n  mload(0x40)\n  dup1\n  swap2\n  sub\n  swap1\n  revert\ntag_18:\n    /* \"@chainlink/contracts/src/v0.8/ConfirmedOwnerWithProposal.sol\":1627:1629  to */\n  dup1\n    /* \"@chainlink/contracts/src/v0.8/ConfirmedOwnerWithProposal.sol\":1610:1624  s_pendingOwner */\n  0x07\n  0x00\n    /* \"@chainlink/contracts/src/v0.8/ConfirmedOwnerWithProposal.sol\":1610:1629  s_pendingOwner = to */\n  0x0100\n  exp\n  dup2\n  sload\n  dup2\n  0xffffffffffffffffffffffffffffffffffffffff\n  mul\n  not\n  and\n  swap1\n  dup4\n  0xffffffffffffffffffffffffffffffffffffffff\n  and\n  mul\n  or\n  swap1\n  sstore\n  pop\n    /* \"@chainlink/contracts/src/v0.8/ConfirmedOwnerWithProposal.sol\":1677:1679  to */\n  dup1\n    /* \"@chainlink/contracts/src/v0.8/ConfirmedOwnerWithProposal.sol\":1641:1680  OwnershipTransferRequested(s_owner, to) */\n  0xffffffffffffffffffffffffffffffffffffffff\n  and\n    /* \"@chainlink/contracts/src/v0.8/ConfirmedOwnerWithProposal.sol\":1668:1675  s_owner */\n  0x06\n  0x00\n  swap1\n  sload\n  swap1\n  0x0100\n  exp\n  swap1\n  div\n  0xffffffffffffffffffffffffffffffffffffffff\n  and\n    /* \"@chainlink/contracts/src/v0.8/ConfirmedOwnerWithProposal.sol\":1641:1680  OwnershipTransferRequested(s_owner, to) */\n  0xffffffffffffffffffffffffffffffffffffffff\n  and\n  0xed8889f560326eb138920d842192f0eb3dd22b4f139c87a2c57538e05bae1278\n  mload(0x40)\n  mload(0x40)\n  dup1\n  swap2\n  sub\n  swap1\n  log3\n    /* \"@chainlink/contracts/src/v0.8/ConfirmedOwnerWithProposal.sol\":1497:1685  function _transferOwnership(address to) private {... */\n  pop\n  jump\t// out\n    /* \"@chainlink/contracts/src/v0.8/ChainlinkClient.sol\":8625:8733  function setChainlinkToken(address linkAddress) internal {... */\ntag_15:\n    /* \"@chainlink/contracts/src/v0.8/ChainlinkClient.sol\":8716:8727  linkAddress */\n  dup1\n    /* \"@chainlink/contracts/src/v0.8/ChainlinkClient.sol\":8688:8694  s_link */\n  0x02\n  0x00\n    /* \"@chainlink/contracts/src/v0.8/ChainlinkClient.sol\":8688:8728  s_link = LinkTokenInterface(linkAddress) */\n  0x0100\n  exp\n  dup2\n  sload\n  dup2\n  0xffffffffffffffffffffffffffffffffffffffff\n  mul\n  not\n  and\n  swap1\n  dup4\n  0xffffffffffffffffffffffffffffffffffffffff\n  and\n  mul\n  or\n  swap1\n  sstore\n  pop\n    /* \"@chainlink/contracts/src/v0.8/ChainlinkClient.sol\":8625:8733  function setChainlinkToken(address linkAddress) internal {... */\n  pop\n  jump\t// out\n    /* \"#utility.yul\":7:373   */\ntag_23:\n    /* \"#utility.yul\":149:152   */\n  0x00\n    /* \"#utility.yul\":170:237   */\n  tag_25\n    /* \"#utility.yul\":234:236   */\n  0x18\n    /* \"#utility.yul\":229:232   */\n  dup4\n    /* \"#utility.yul\":170:237   */\n  tag_26\n  jump\t// in\ntag_25:\n    /* \"#utility.yul\":163:237   */\n  swap2\n  pop\n    /* \"#utility.yul\":246:339   */\n  tag_27\n    /* \"#utility.yul\":335:338   */\n  dup3\n    /* \"#utility.yul\":246:339   */\n  tag_28\n  jump\t// in\ntag_27:\n    /* \"#utility.yul\":364:366   */\n  0x20\n    /* \"#utility.yul\":359:362   */\n  dup3\n    /* \"#utility.yul\":355:367   */\n  add\n    /* \"#utility.yul\":348:367   */\n  swap1\n  pop\n    /* \"#utility.yul\":7:373   */\n  swap2\n  swap1\n  pop\n  jump\t// out\n    /* \"#utility.yul\":379:745   */\ntag_29:\n    /* \"#utility.yul\":521:524   */\n  0x00\n    /* \"#utility.yul\":542:609   */\n  tag_31\n    /* \"#utility.yul\":606:608   */\n  0x17\n    /* \"#utility.yul\":601:604   */\n  dup4\n    /* \"#utility.yul\":542:609   */\n  tag_26\n  jump\t// in\ntag_31:\n    /* \"#utility.yul\":535:609   */\n  swap2\n  pop\n    /* \"#utility.yul\":618:711   */\n  tag_32\n    /* \"#utility.yul\":707:710   */\n  dup3\n    /* \"#utility.yul\":618:711   */\n  tag_33\n  jump\t// in\ntag_32:\n    /* \"#utility.yul\":736:738   */\n  0x20\n    /* \"#utility.yul\":731:734   */\n  dup3\n    /* \"#utility.yul\":727:739   */\n  add\n    /* \"#utility.yul\":720:739   */\n  swap1\n  pop\n    /* \"#utility.yul\":379:745   */\n  swap2\n  swap1\n  pop\n  jump\t// out\n    /* \"#utility.yul\":751:1170   */\ntag_8:\n    /* \"#utility.yul\":917:921   */\n  0x00\n    /* \"#utility.yul\":955:957   */\n  0x20\n    /* \"#utility.yul\":944:953   */\n  dup3\n    /* \"#utility.yul\":940:958   */\n  add\n    /* \"#utility.yul\":932:958   */\n  swap1\n  pop\n    /* \"#utility.yul\":1004:1013   */\n  dup2\n    /* \"#utility.yul\":998:1002   */\n  dup2\n    /* \"#utility.yul\":994:1014   */\n  sub\n    /* \"#utility.yul\":990:991   */\n  0x00\n    /* \"#utility.yul\":979:988   */\n  dup4\n    /* \"#utility.yul\":975:992   */\n  add\n    /* \"#utility.yul\":968:1015   */\n  mstore\n    /* \"#utility.yul\":1032:1163   */\n  tag_35\n    /* \"#utility.yul\":1158:1162   */\n  dup2\n    /* \"#utility.yul\":1032:1163   */\n  tag_23\n  jump\t// in\ntag_35:\n    /* \"#utility.yul\":1024:1163   */\n  swap1\n  pop\n    /* \"#utility.yul\":751:1170   */\n  swap2\n  swap1\n  pop\n  jump\t// out\n    /* \"#utility.yul\":1176:1595   */\ntag_20:\n    /* \"#utility.yul\":1342:1346   */\n  0x00\n    /* \"#utility.yul\":1380:1382   */\n  0x20\n    /* \"#utility.yul\":1369:1378   */\n  dup3\n    /* \"#utility.yul\":1365:1383   */\n  add\n    /* \"#utility.yul\":1357:1383   */\n  swap1\n  pop\n    /* \"#utility.yul\":1429:1438   */\n  dup2\n    /* \"#utility.yul\":1423:1427   */\n  dup2\n    /* \"#utility.yul\":1419:1439   */\n  sub\n    /* \"#utility.yul\":1415:1416   */\n  0x00\n    /* \"#utility.yul\":1404:1413   */\n  dup4\n    /* \"#utility.yul\":1400:1417   */\n  add\n    /* \"#utility.yul\":1393:1440   */\n  mstore\n    /* \"#utility.yul\":1457:1588   */\n  tag_37\n    /* \"#utility.yul\":1583:1587   */\n  dup2\n    /* \"#utility.yul\":1457:1588   */\n  tag_29\n  jump\t// in\ntag_37:\n    /* \"#utility.yul\":1449:1588   */\n  swap1\n  pop\n    /* \"#utility.yul\":1176:1595   */\n  swap2\n  swap1\n  pop\n  jump\t// out\n    /* \"#utility.yul\":1601:1770   */\ntag_26:\n    /* \"#utility.yul\":1685:1696   */\n  0x00\n    /* \"#utility.yul\":1719:1725   */\n  dup3\n    /* \"#utility.yul\":1714:1717   */\n  dup3\n    /* \"#utility.yul\":1707:1726   */\n  mstore\n    /* \"#utility.yul\":1759:1763   */\n  0x20\n    /* \"#utility.yul\":1754:1757   */\n  dup3\n    /* \"#utility.yul\":1750:1764   */\n  add\n    /* \"#utility.yul\":1735:1764   */\n  swap1\n  pop\n    /* \"#utility.yul\":1601:1770   */\n  swap3\n  swap2\n  pop\n  pop\n  jump\t// out\n    /* \"#utility.yul\":1776:1950   */\ntag_28:\n    /* \"#utility.yul\":1916:1942   */\n  0x43616e6e6f7420736574206f776e657220746f207a65726f0000000000000000\n    /* \"#utility.yul\":1912:1913   */\n  0x00\n    /* \"#utility.yul\":1904:1910   */\n  dup3\n    /* \"#utility.yul\":1900:1914   */\n  add\n    /* \"#utility.yul\":1893:1943   */\n  mstore\n    /* \"#utility.yul\":1776:1950   */\n  pop\n  jump\t// out\n    /* \"#utility.yul\":1956:2129   */\ntag_33:\n    /* \"#utility.yul\":2096:2121   */\n  0x43616e6e6f74207472616e7366657220746f2073656c66000000000000000000\n    /* \"#utility.yul\":2092:2093   */\n  0x00\n    /* \"#utility.yul\":2084:2090   */\n  dup3\n    /* \"#utility.yul\":2080:2094   */\n  add\n    /* \"#utility.yul\":2073:2122   */\n  mstore\n    /* \"#utility.yul\":1956:2129   */\n  pop\n  jump\t// out\n    /* \"docs.chain.link/samples/APIRequests/AEthereumConsumer.sol\":294:4833  contract ATestnetConsumer is ChainlinkClient, ConfirmedOwner {\r... */\ntag_16:\n  dataSize(sub_0)\n  dup1\n  dataOffset(sub_0)\n  0x00\n  codecopy\n  0x00\n  return\nstop\n\nsub_0: assembly {\n        /* \"docs.chain.link/samples/APIRequests/AEthereumConsumer.sol\":294:4833  contract ATestnetConsumer is ChainlinkClient, ConfirmedOwner {\r... */\n      mstore(0x40, 0x80)\n      callvalue\n      dup1\n      iszero\n      tag_1\n      jumpi\n      0x00\n      dup1\n      revert\n    tag_1:\n      pop\n      jumpi(tag_2, lt(calldatasize, 0x04))\n      shr(0xe0, calldataload(0x00))\n      dup1\n      0x92cdaaf3\n      gt\n      tag_18\n      jumpi\n      dup1\n      0xe9edbf03\n      gt\n      tag_19\n      jumpi\n      dup1\n      0xe9edbf03\n      eq\n      tag_14\n      jumpi\n      dup1\n      0xec65d0f8\n      eq\n      tag_15\n      jumpi\n      dup1\n      0xf2fde38b\n      eq\n      tag_16\n      jumpi\n      dup1\n      0xf3bdf8ba\n      eq\n      tag_17\n      jumpi\n      jump(tag_2)\n    tag_19:\n      dup1\n      0x92cdaaf3\n      eq\n      tag_10\n      jumpi\n      dup1\n      0x9d1b464a\n      eq\n      tag_11\n      jumpi\n      dup1\n      0xa46fbe1a\n      eq\n      tag_12\n      jumpi\n      dup1\n      0xab643c10\n      eq\n      tag_13\n      jumpi\n      jump(tag_2)\n    tag_18:\n      dup1\n      0x619cba1a\n      gt\n      tag_20\n      jumpi\n      dup1\n      0x619cba1a\n      eq\n      tag_6\n      jumpi\n      dup1\n      0x79ba5097\n      eq\n      tag_7\n      jumpi\n      dup1\n      0x8da5cb5b\n      eq\n      tag_8\n      jumpi\n      dup1\n      0x8dc654a2\n      eq\n      tag_9\n      jumpi\n      jump(tag_2)\n    tag_20:\n      dup1\n      0x165d35e1\n      eq\n      tag_3\n      jumpi\n      dup1\n      0x2183abd1\n      eq\n      tag_4\n      jumpi\n      dup1\n      0x49556aff\n      eq\n      tag_5\n      jumpi\n    tag_2:\n      0x00\n      dup1\n      revert\n        /* \"docs.chain.link/samples/APIRequests/AEthereumConsumer.sol\":3833:3941  function getChainlinkToken() public view returns (address) {\r... */\n    tag_3:\n      tag_21\n      tag_22\n      jump\t// in\n    tag_21:\n      mload(0x40)\n      tag_23\n      swap2\n      swap1\n      tag_24\n      jump\t// in\n    tag_23:\n      mload(0x40)\n      dup1\n      swap2\n      sub\n      swap1\n      return\n        /* \"docs.chain.link/samples/APIRequests/AEthereumConsumer.sol\":526:549  int256 public changeDay */\n    tag_4:\n      tag_25\n      tag_26\n      jump\t// in\n    tag_25:\n      mload(0x40)\n      tag_27\n      swap2\n      swap1\n      tag_28\n      jump\t// in\n    tag_27:\n      mload(0x40)\n      dup1\n      swap2\n      sub\n      swap1\n      return\n        /* \"docs.chain.link/samples/APIRequests/AEthereumConsumer.sol\":3583:3825  function fulfillEthereumLastMarket(bytes32 _requestId, bytes32 _market)\r... */\n    tag_5:\n      tag_29\n      0x04\n      dup1\n      calldatasize\n      sub\n      dup2\n      add\n      swap1\n      tag_30\n      swap2\n      swap1\n      tag_31\n      jump\t// in\n    tag_30:\n      tag_32\n      jump\t// in\n    tag_29:\n      stop\n        /* \"docs.chain.link/samples/APIRequests/AEthereumConsumer.sol\":1743:2455  function requestEthereumChange(address _oracle, string memory _jobId) public onlyOwner {\r... */\n    tag_6:\n      tag_33\n      0x04\n      dup1\n      calldatasize\n      sub\n      dup2\n      add\n      swap1\n      tag_34\n      swap2\n      swap1\n      tag_35\n      jump\t// in\n    tag_34:\n      tag_36\n      jump\t// in\n    tag_33:\n      stop\n        /* \"@chainlink/contracts/src/v0.8/ConfirmedOwnerWithProposal.sol\":1016:1281  function acceptOwnership() external override {... */\n    tag_7:\n      tag_37\n      tag_38\n      jump\t// in\n    tag_37:\n      stop\n        /* \"@chainlink/contracts/src/v0.8/ConfirmedOwnerWithProposal.sol\":1332:1413  function owner() public view override returns (address) {... */\n    tag_8:\n      tag_39\n      tag_40\n      jump\t// in\n    tag_39:\n      mload(0x40)\n      tag_41\n      swap2\n      swap1\n      tag_24\n      jump\t// in\n    tag_41:\n      mload(0x40)\n      dup1\n      swap2\n      sub\n      swap1\n      return\n        /* \"docs.chain.link/samples/APIRequests/AEthereumConsumer.sol\":3949:4176  function withdrawLink() public onlyOwner {\r... */\n    tag_9:\n      tag_42\n      tag_43\n      jump\t// in\n    tag_42:\n      stop\n        /* \"docs.chain.link/samples/APIRequests/AEthereumConsumer.sol\":3132:3349  function fulfillEthereumPrice(bytes32 _requestId, uint256 _price) public recordChainlinkFulfillment(_requestId) {\r... */\n    tag_10:\n      tag_44\n      0x04\n      dup1\n      calldatasize\n      sub\n      dup2\n      add\n      swap1\n      tag_45\n      swap2\n      swap1\n      tag_46\n      jump\t// in\n    tag_45:\n      tag_47\n      jump\t// in\n    tag_44:\n      stop\n        /* \"docs.chain.link/samples/APIRequests/AEthereumConsumer.sol\":492:519  uint256 public currentPrice */\n    tag_11:\n      tag_48\n      tag_49\n      jump\t// in\n    tag_48:\n      mload(0x40)\n      tag_50\n      swap2\n      swap1\n      tag_51\n      jump\t// in\n    tag_50:\n      mload(0x40)\n      dup1\n      swap2\n      sub\n      swap1\n      return\n        /* \"docs.chain.link/samples/APIRequests/AEthereumConsumer.sol\":3357:3575  function fulfillEthereumChange(bytes32 _requestId, int256 _change) public recordChainlinkFulfillment(_requestId) {\r... */\n    tag_12:\n      tag_52\n      0x04\n      dup1\n      calldatasize\n      sub\n      dup2\n      add\n      swap1\n      tag_53\n      swap2\n      swap1\n      tag_54\n      jump\t// in\n    tag_53:\n      tag_55\n      jump\t// in\n    tag_52:\n      stop\n        /* \"docs.chain.link/samples/APIRequests/AEthereumConsumer.sol\":1229:1735  function requestEthereumPrice(address _oracle, string memory _jobId) public onlyOwner {\r... */\n    tag_13:\n      tag_56\n      0x04\n      dup1\n      calldatasize\n      sub\n      dup2\n      add\n      swap1\n      tag_57\n      swap2\n      swap1\n      tag_35\n      jump\t// in\n    tag_57:\n      tag_58\n      jump\t// in\n    tag_56:\n      stop\n        /* \"docs.chain.link/samples/APIRequests/AEthereumConsumer.sol\":556:581  bytes32 public lastMarket */\n    tag_14:\n      tag_59\n      tag_60\n      jump\t// in\n    tag_59:\n      mload(0x40)\n      tag_61\n      swap2\n      swap1\n      tag_62\n      jump\t// in\n    tag_61:\n      mload(0x40)\n      dup1\n      swap2\n      sub\n      swap1\n      return\n        /* \"docs.chain.link/samples/APIRequests/AEthereumConsumer.sol\":4184:4451  function cancelRequest(\r... */\n    tag_15:\n      tag_63\n      0x04\n      dup1\n      calldatasize\n      sub\n      dup2\n      add\n      swap1\n      tag_64\n      swap2\n      swap1\n      tag_65\n      jump\t// in\n    tag_64:\n      tag_66\n      jump\t// in\n    tag_63:\n      stop\n        /* \"@chainlink/contracts/src/v0.8/ConfirmedOwnerWithProposal.sol\":826:924  function transferOwnership(address to) public override onlyOwner {... */\n    tag_16:\n      tag_67\n      0x04\n      dup1\n      calldatasize\n      sub\n      dup2\n      add\n      swap1\n      tag_68\n      swap2\n      swap1\n      tag_69\n      jump\t// in\n    tag_68:\n      tag_70\n      jump\t// in\n    tag_67:\n      stop\n        /* \"docs.chain.link/samples/APIRequests/AEthereumConsumer.sol\":2463:3124  function requestEthereumLastMarket(address _oracle, string memory _jobId) public onlyOwner {\r... */\n    tag_17:\n      tag_71\n      0x04\n      dup1\n      calldatasize\n      sub\n      dup2\n      add\n      swap1\n      tag_72\n      swap2\n      swap1\n      tag_35\n      jump\t// in\n    tag_72:\n      tag_73\n      jump\t// in\n    tag_71:\n      stop\n        /* \"docs.chain.link/samples/APIRequests/AEthereumConsumer.sol\":3833:3941  function getChainlinkToken() public view returns (address) {\r... */\n    tag_22:\n        /* \"docs.chain.link/samples/APIRequests/AEthereumConsumer.sol\":3883:3890  address */\n      0x00\n        /* \"docs.chain.link/samples/APIRequests/AEthereumConsumer.sol\":3910:3933  chainlinkTokenAddress() */\n      tag_75\n        /* \"docs.chain.link/samples/APIRequests/AEthereumConsumer.sol\":3910:3931  chainlinkTokenAddress */\n      tag_76\n        /* \"docs.chain.link/samples/APIRequests/AEthereumConsumer.sol\":3910:3933  chainlinkTokenAddress() */\n      jump\t// in\n    tag_75:\n        /* \"docs.chain.link/samples/APIRequests/AEthereumConsumer.sol\":3903:3933  return chainlinkTokenAddress() */\n      swap1\n      pop\n        /* \"docs.chain.link/samples/APIRequests/AEthereumConsumer.sol\":3833:3941  function getChainlinkToken() public view returns (address) {\r... */\n      swap1\n      jump\t// out\n        /* \"docs.chain.link/samples/APIRequests/AEthereumConsumer.sol\":526:549  int256 public changeDay */\n    tag_26:\n      sload(0x09)\n      dup2\n      jump\t// out\n        /* \"docs.chain.link/samples/APIRequests/AEthereumConsumer.sol\":3583:3825  function fulfillEthereumLastMarket(bytes32 _requestId, bytes32 _market)\r... */\n    tag_32:\n        /* \"docs.chain.link/samples/APIRequests/AEthereumConsumer.sol\":3707:3717  _requestId */\n      dup2\n        /* \"@chainlink/contracts/src/v0.8/ChainlinkClient.sol\":11663:11680  s_pendingRequests */\n      0x05\n        /* \"@chainlink/contracts/src/v0.8/ChainlinkClient.sol\":11663:11691  s_pendingRequests[requestId] */\n      0x00\n        /* \"@chainlink/contracts/src/v0.8/ChainlinkClient.sol\":11681:11690  requestId */\n      dup3\n        /* \"@chainlink/contracts/src/v0.8/ChainlinkClient.sol\":11663:11691  s_pendingRequests[requestId] */\n      dup2\n      mstore\n      0x20\n      add\n      swap1\n      dup2\n      mstore\n      0x20\n      add\n      0x00\n      keccak256\n      0x00\n      swap1\n      sload\n      swap1\n      0x0100\n      exp\n      swap1\n      div\n      0xffffffffffffffffffffffffffffffffffffffff\n      and\n        /* \"@chainlink/contracts/src/v0.8/ChainlinkClient.sol\":11649:11691  msg.sender == s_pendingRequests[requestId] */\n      0xffffffffffffffffffffffffffffffffffffffff\n      and\n        /* \"@chainlink/contracts/src/v0.8/ChainlinkClient.sol\":11649:11659  msg.sender */\n      caller\n        /* \"@chainlink/contracts/src/v0.8/ChainlinkClient.sol\":11649:11691  msg.sender == s_pendingRequests[requestId] */\n      0xffffffffffffffffffffffffffffffffffffffff\n      and\n      eq\n        /* \"@chainlink/contracts/src/v0.8/ChainlinkClient.sol\":11641:11736  require(msg.sender == s_pendingRequests[requestId], \"Source must be the oracle of the request\") */\n      tag_78\n      jumpi\n      mload(0x40)\n      0x08c379a000000000000000000000000000000000000000000000000000000000\n      dup2\n      mstore\n      0x04\n      add\n      tag_79\n      swap1\n      tag_80\n      jump\t// in\n    tag_79:\n      mload(0x40)\n      dup1\n      swap2\n      sub\n      swap1\n      revert\n    tag_78:\n        /* \"@chainlink/contracts/src/v0.8/ChainlinkClient.sol\":11749:11766  s_pendingRequests */\n      0x05\n        /* \"@chainlink/contracts/src/v0.8/ChainlinkClient.sol\":11749:11777  s_pendingRequests[requestId] */\n      0x00\n        /* \"@chainlink/contracts/src/v0.8/ChainlinkClient.sol\":11767:11776  requestId */\n      dup3\n        /* \"@chainlink/contracts/src/v0.8/ChainlinkClient.sol\":11749:11777  s_pendingRequests[requestId] */\n      dup2\n      mstore\n      0x20\n      add\n      swap1\n      dup2\n      mstore\n      0x20\n      add\n      0x00\n      keccak256\n      0x00\n        /* \"@chainlink/contracts/src/v0.8/ChainlinkClient.sol\":11742:11777  delete s_pendingRequests[requestId] */\n      0x0100\n      exp\n      dup2\n      sload\n      swap1\n      0xffffffffffffffffffffffffffffffffffffffff\n      mul\n      not\n      and\n      swap1\n      sstore\n        /* \"@chainlink/contracts/src/v0.8/ChainlinkClient.sol\":11807:11816  requestId */\n      dup1\n        /* \"@chainlink/contracts/src/v0.8/ChainlinkClient.sol\":11788:11817  ChainlinkFulfilled(requestId) */\n      0x7cc135e0cebb02c3480ae5d74d377283180a2601f8f644edf7987b009316c63a\n      mload(0x40)\n      mload(0x40)\n      dup1\n      swap2\n      sub\n      swap1\n      log2\n        /* \"docs.chain.link/samples/APIRequests/AEthereumConsumer.sol\":3778:3785  _market */\n      dup2\n        /* \"docs.chain.link/samples/APIRequests/AEthereumConsumer.sol\":3766:3776  _requestId */\n      dup4\n        /* \"docs.chain.link/samples/APIRequests/AEthereumConsumer.sol\":3740:3786  RequestEthereumLastMarket(_requestId, _market) */\n      0x1a7783cfc5355cd0706abec2229662cda9cefcfc8aeb31fec8b391ba5eb67cbe\n      mload(0x40)\n      mload(0x40)\n      dup1\n      swap2\n      sub\n      swap1\n      log3\n        /* \"docs.chain.link/samples/APIRequests/AEthereumConsumer.sol\":3810:3817  _market */\n      dup2\n        /* \"docs.chain.link/samples/APIRequests/AEthereumConsumer.sol\":3797:3807  lastMarket */\n      0x0a\n        /* \"docs.chain.link/samples/APIRequests/AEthereumConsumer.sol\":3797:3817  lastMarket = _market */\n      dup2\n      swap1\n      sstore\n      pop\n        /* \"docs.chain.link/samples/APIRequests/AEthereumConsumer.sol\":3583:3825  function fulfillEthereumLastMarket(bytes32 _requestId, bytes32 _market)\r... */\n      pop\n      pop\n      pop\n      jump\t// out\n        /* \"docs.chain.link/samples/APIRequests/AEthereumConsumer.sol\":1743:2455  function requestEthereumChange(address _oracle, string memory _jobId) public onlyOwner {\r... */\n    tag_36:\n        /* \"@chainlink/contracts/src/v0.8/ConfirmedOwnerWithProposal.sol\":1956:1976  _validateOwnership() */\n      tag_83\n        /* \"@chainlink/contracts/src/v0.8/ConfirmedOwnerWithProposal.sol\":1956:1974  _validateOwnership */\n      tag_84\n        /* \"@chainlink/contracts/src/v0.8/ConfirmedOwnerWithProposal.sol\":1956:1976  _validateOwnership() */\n      jump\t// in\n    tag_83:\n        /* \"docs.chain.link/samples/APIRequests/AEthereumConsumer.sol\":1841:1869  Chainlink.Request memory req */\n      0x00\n        /* \"docs.chain.link/samples/APIRequests/AEthereumConsumer.sol\":1872:2020  buildChainlinkRequest(\r... */\n      tag_86\n        /* \"docs.chain.link/samples/APIRequests/AEthereumConsumer.sol\":1908:1931  stringToBytes32(_jobId) */\n      tag_87\n        /* \"docs.chain.link/samples/APIRequests/AEthereumConsumer.sol\":1924:1930  _jobId */\n      dup4\n        /* \"docs.chain.link/samples/APIRequests/AEthereumConsumer.sol\":1908:1923  stringToBytes32 */\n      tag_88\n        /* \"docs.chain.link/samples/APIRequests/AEthereumConsumer.sol\":1908:1931  stringToBytes32(_jobId) */\n      jump\t// in\n    tag_87:\n        /* \"docs.chain.link/samples/APIRequests/AEthereumConsumer.sol\":1954:1958  this */\n      address\n        /* \"docs.chain.link/samples/APIRequests/AEthereumConsumer.sol\":1974:2009  this.fulfillEthereumChange.selector */\n      shl(0xe0, 0xa46fbe1a)\n        /* \"docs.chain.link/samples/APIRequests/AEthereumConsumer.sol\":1872:1893  buildChainlinkRequest */\n      tag_89\n        /* \"docs.chain.link/samples/APIRequests/AEthereumConsumer.sol\":1872:2020  buildChainlinkRequest(\r... */\n      jump\t// in\n    tag_86:\n        /* \"docs.chain.link/samples/APIRequests/AEthereumConsumer.sol\":1841:2020  Chainlink.Request memory req = buildChainlinkRequest(\r... */\n      swap1\n      pop\n        /* \"docs.chain.link/samples/APIRequests/AEthereumConsumer.sol\":2031:2122  req.add('get', 'https://min-api.cryptocompare.com/data/pricemultifull?fsyms=ETH&tsyms=USD') */\n      tag_90\n      mload(0x40)\n      dup1\n      0x40\n      add\n      0x40\n      mstore\n      dup1\n      0x03\n      dup2\n      mstore\n      0x20\n      add\n      0x6765740000000000000000000000000000000000000000000000000000000000\n      dup2\n      mstore\n      pop\n      mload(0x40)\n      dup1\n      0x80\n      add\n      0x40\n      mstore\n      dup1\n      0x49\n      dup2\n      mstore\n      0x20\n      add\n      data_f3fa6b402eb4c49347f9ac6c8c8e0baf0eacaf39bcd59583feb12d9b90720124\n      0x49\n      swap2\n      codecopy\n        /* \"docs.chain.link/samples/APIRequests/AEthereumConsumer.sol\":2031:2034  req */\n      dup4\n        /* \"docs.chain.link/samples/APIRequests/AEthereumConsumer.sol\":2031:2038  req.add */\n      tag_91\n      swap1\n        /* \"docs.chain.link/samples/APIRequests/AEthereumConsumer.sol\":2031:2122  req.add('get', 'https://min-api.cryptocompare.com/data/pricemultifull?fsyms=ETH&tsyms=USD') */\n      swap3\n      swap2\n      swap1\n      0xffffffff\n      and\n      jump\t// in\n    tag_90:\n        /* \"docs.chain.link/samples/APIRequests/AEthereumConsumer.sol\":2244:2287  req.add('path', 'RAW,ETH,USD,CHANGEPCTDAY') */\n      tag_92\n      mload(0x40)\n      dup1\n      0x40\n      add\n      0x40\n      mstore\n      dup1\n      0x04\n      dup2\n      mstore\n      0x20\n      add\n      0x7061746800000000000000000000000000000000000000000000000000000000\n      dup2\n      mstore\n      pop\n      mload(0x40)\n      dup1\n      0x40\n      add\n      0x40\n      mstore\n      dup1\n      0x18\n      dup2\n      mstore\n      0x20\n      add\n      0x5241572c4554482c5553442c4348414e47455043544441590000000000000000\n      dup2\n      mstore\n      pop\n        /* \"docs.chain.link/samples/APIRequests/AEthereumConsumer.sol\":2244:2247  req */\n      dup4\n        /* \"docs.chain.link/samples/APIRequests/AEthereumConsumer.sol\":2244:2251  req.add */\n      tag_91\n      swap1\n        /* \"docs.chain.link/samples/APIRequests/AEthereumConsumer.sol\":2244:2287  req.add('path', 'RAW,ETH,USD,CHANGEPCTDAY') */\n      swap3\n      swap2\n      swap1\n      0xffffffff\n      and\n      jump\t// in\n    tag_92:\n        /* \"docs.chain.link/samples/APIRequests/AEthereumConsumer.sol\":2353:2384  req.addInt('times', 1000000000) */\n      tag_93\n      mload(0x40)\n      dup1\n      0x40\n      add\n      0x40\n      mstore\n      dup1\n      0x05\n      dup2\n      mstore\n      0x20\n      add\n      0x74696d6573000000000000000000000000000000000000000000000000000000\n      dup2\n      mstore\n      pop\n        /* \"docs.chain.link/samples/APIRequests/AEthereumConsumer.sol\":2373:2383  1000000000 */\n      0x3b9aca00\n        /* \"docs.chain.link/samples/APIRequests/AEthereumConsumer.sol\":2353:2356  req */\n      dup4\n        /* \"docs.chain.link/samples/APIRequests/AEthereumConsumer.sol\":2353:2363  req.addInt */\n      tag_94\n      swap1\n        /* \"docs.chain.link/samples/APIRequests/AEthereumConsumer.sol\":2353:2384  req.addInt('times', 1000000000) */\n      swap3\n      swap2\n      swap1\n      0xffffffff\n      and\n      jump\t// in\n    tag_93:\n        /* \"docs.chain.link/samples/APIRequests/AEthereumConsumer.sol\":2395:2447  sendChainlinkRequestTo(_oracle, req, ORACLE_PAYMENT) */\n      tag_95\n        /* \"docs.chain.link/samples/APIRequests/AEthereumConsumer.sol\":2418:2425  _oracle */\n      dup4\n        /* \"docs.chain.link/samples/APIRequests/AEthereumConsumer.sol\":2427:2430  req */\n      dup3\n        /* \"@chainlink/contracts/src/v0.8/ChainlinkClient.sol\":675:681  10**18 */\n      0x0de0b6b3a7640000\n        /* \"docs.chain.link/samples/APIRequests/AEthereumConsumer.sol\":450:451  1 */\n      0x01\n        /* \"docs.chain.link/samples/APIRequests/AEthereumConsumer.sol\":450:471  1 * LINK_DIVISIBILITY */\n      tag_96\n      swap2\n      swap1\n      tag_97\n      jump\t// in\n    tag_96:\n        /* \"docs.chain.link/samples/APIRequests/AEthereumConsumer.sol\":2395:2417  sendChainlinkRequestTo */\n      tag_98\n        /* \"docs.chain.link/samples/APIRequests/AEthereumConsumer.sol\":2395:2447  sendChainlinkRequestTo(_oracle, req, ORACLE_PAYMENT) */\n      jump\t// in\n    tag_95:\n      pop\n        /* \"docs.chain.link/samples/APIRequests/AEthereumConsumer.sol\":1830:2455  {\r... */\n      pop\n        /* \"docs.chain.link/samples/APIRequests/AEthereumConsumer.sol\":1743:2455  function requestEthereumChange(address _oracle, string memory _jobId) public onlyOwner {\r... */\n      pop\n      pop\n      jump\t// out\n        /* \"@chainlink/contracts/src/v0.8/ConfirmedOwnerWithProposal.sol\":1016:1281  function acceptOwnership() external override {... */\n    tag_38:\n        /* \"@chainlink/contracts/src/v0.8/ConfirmedOwnerWithProposal.sol\":1089:1103  s_pendingOwner */\n      0x07\n      0x00\n      swap1\n      sload\n      swap1\n      0x0100\n      exp\n      swap1\n      div\n      0xffffffffffffffffffffffffffffffffffffffff\n      and\n        /* \"@chainlink/contracts/src/v0.8/ConfirmedOwnerWithProposal.sol\":1075:1103  msg.sender == s_pendingOwner */\n      0xffffffffffffffffffffffffffffffffffffffff\n      and\n        /* \"@chainlink/contracts/src/v0.8/ConfirmedOwnerWithProposal.sol\":1075:1085  msg.sender */\n      caller\n        /* \"@chainlink/contracts/src/v0.8/ConfirmedOwnerWithProposal.sol\":1075:1103  msg.sender == s_pendingOwner */\n      0xffffffffffffffffffffffffffffffffffffffff\n      and\n      eq\n        /* \"@chainlink/contracts/src/v0.8/ConfirmedOwnerWithProposal.sol\":1067:1130  require(msg.sender == s_pendingOwner, \"Must be proposed owner\") */\n      tag_100\n      jumpi\n      mload(0x40)\n      0x08c379a000000000000000000000000000000000000000000000000000000000\n      dup2\n      mstore\n      0x04\n      add\n      tag_101\n      swap1\n      tag_102\n      jump\t// in\n    tag_101:\n      mload(0x40)\n      dup1\n      swap2\n      sub\n      swap1\n      revert\n    tag_100:\n        /* \"@chainlink/contracts/src/v0.8/ConfirmedOwnerWithProposal.sol\":1137:1153  address oldOwner */\n      0x00\n        /* \"@chainlink/contracts/src/v0.8/ConfirmedOwnerWithProposal.sol\":1156:1163  s_owner */\n      0x06\n      0x00\n      swap1\n      sload\n      swap1\n      0x0100\n      exp\n      swap1\n      div\n      0xffffffffffffffffffffffffffffffffffffffff\n      and\n        /* \"@chainlink/contracts/src/v0.8/ConfirmedOwnerWithProposal.sol\":1137:1163  address oldOwner = s_owner */\n      swap1\n      pop\n        /* \"@chainlink/contracts/src/v0.8/ConfirmedOwnerWithProposal.sol\":1179:1189  msg.sender */\n      caller\n        /* \"@chainlink/contracts/src/v0.8/ConfirmedOwnerWithProposal.sol\":1169:1176  s_owner */\n      0x06\n      0x00\n        /* \"@chainlink/contracts/src/v0.8/ConfirmedOwnerWithProposal.sol\":1169:1189  s_owner = msg.sender */\n      0x0100\n      exp\n      dup2\n      sload\n      dup2\n      0xffffffffffffffffffffffffffffffffffffffff\n      mul\n      not\n      and\n      swap1\n      dup4\n      0xffffffffffffffffffffffffffffffffffffffff\n      and\n      mul\n      or\n      swap1\n      sstore\n      pop\n        /* \"@chainlink/contracts/src/v0.8/ConfirmedOwnerWithProposal.sol\":1220:1221  0 */\n      0x00\n        /* \"@chainlink/contracts/src/v0.8/ConfirmedOwnerWithProposal.sol\":1195:1209  s_pendingOwner */\n      0x07\n      0x00\n        /* \"@chainlink/contracts/src/v0.8/ConfirmedOwnerWithProposal.sol\":1195:1222  s_pendingOwner = address(0) */\n      0x0100\n      exp\n      dup2\n      sload\n      dup2\n      0xffffffffffffffffffffffffffffffffffffffff\n      mul\n      not\n      and\n      swap1\n      dup4\n      0xffffffffffffffffffffffffffffffffffffffff\n      and\n      mul\n      or\n      swap1\n      sstore\n      pop\n        /* \"@chainlink/contracts/src/v0.8/ConfirmedOwnerWithProposal.sol\":1265:1275  msg.sender */\n      caller\n        /* \"@chainlink/contracts/src/v0.8/ConfirmedOwnerWithProposal.sol\":1234:1276  OwnershipTransferred(oldOwner, msg.sender) */\n      0xffffffffffffffffffffffffffffffffffffffff\n      and\n        /* \"@chainlink/contracts/src/v0.8/ConfirmedOwnerWithProposal.sol\":1255:1263  oldOwner */\n      dup2\n        /* \"@chainlink/contracts/src/v0.8/ConfirmedOwnerWithProposal.sol\":1234:1276  OwnershipTransferred(oldOwner, msg.sender) */\n      0xffffffffffffffffffffffffffffffffffffffff\n      and\n      0x8be0079c531659141344cd1fd0a4f28419497f9722a3daafe3b4186f6b6457e0\n      mload(0x40)\n      mload(0x40)\n      dup1\n      swap2\n      sub\n      swap1\n      log3\n        /* \"@chainlink/contracts/src/v0.8/ConfirmedOwnerWithProposal.sol\":1061:1281  {... */\n      pop\n        /* \"@chainlink/contracts/src/v0.8/ConfirmedOwnerWithProposal.sol\":1016:1281  function acceptOwnership() external override {... */\n      jump\t// out\n        /* \"@chainlink/contracts/src/v0.8/ConfirmedOwnerWithProposal.sol\":1332:1413  function owner() public view override returns (address) {... */\n    tag_40:\n        /* \"@chainlink/contracts/src/v0.8/ConfirmedOwnerWithProposal.sol\":1379:1386  address */\n      0x00\n        /* \"@chainlink/contracts/src/v0.8/ConfirmedOwnerWithProposal.sol\":1401:1408  s_owner */\n      0x06\n      0x00\n      swap1\n      sload\n      swap1\n      0x0100\n      exp\n      swap1\n      div\n      0xffffffffffffffffffffffffffffffffffffffff\n      and\n        /* \"@chainlink/contracts/src/v0.8/ConfirmedOwnerWithProposal.sol\":1394:1408  return s_owner */\n      swap1\n      pop\n        /* \"@chainlink/contracts/src/v0.8/ConfirmedOwnerWithProposal.sol\":1332:1413  function owner() public view override returns (address) {... */\n      swap1\n      jump\t// out\n        /* \"docs.chain.link/samples/APIRequests/AEthereumConsumer.sol\":3949:4176  function withdrawLink() public onlyOwner {\r... */\n    tag_43:\n        /* \"@chainlink/contracts/src/v0.8/ConfirmedOwnerWithProposal.sol\":1956:1976  _validateOwnership() */\n      tag_105\n        /* \"@chainlink/contracts/src/v0.8/ConfirmedOwnerWithProposal.sol\":1956:1974  _validateOwnership */\n      tag_84\n        /* \"@chainlink/contracts/src/v0.8/ConfirmedOwnerWithProposal.sol\":1956:1976  _validateOwnership() */\n      jump\t// in\n    tag_105:\n        /* \"docs.chain.link/samples/APIRequests/AEthereumConsumer.sol\":4001:4024  LinkTokenInterface link */\n      0x00\n        /* \"docs.chain.link/samples/APIRequests/AEthereumConsumer.sol\":4046:4069  chainlinkTokenAddress() */\n      tag_107\n        /* \"docs.chain.link/samples/APIRequests/AEthereumConsumer.sol\":4046:4067  chainlinkTokenAddress */\n      tag_76\n        /* \"docs.chain.link/samples/APIRequests/AEthereumConsumer.sol\":4046:4069  chainlinkTokenAddress() */\n      jump\t// in\n    tag_107:\n        /* \"docs.chain.link/samples/APIRequests/AEthereumConsumer.sol\":4001:4070  LinkTokenInterface link = LinkTokenInterface(chainlinkTokenAddress()) */\n      swap1\n      pop\n        /* \"docs.chain.link/samples/APIRequests/AEthereumConsumer.sol\":4089:4093  link */\n      dup1\n        /* \"docs.chain.link/samples/APIRequests/AEthereumConsumer.sol\":4089:4102  link.transfer */\n      0xffffffffffffffffffffffffffffffffffffffff\n      and\n      0xa9059cbb\n        /* \"docs.chain.link/samples/APIRequests/AEthereumConsumer.sol\":4103:4113  msg.sender */\n      caller\n        /* \"docs.chain.link/samples/APIRequests/AEthereumConsumer.sol\":4115:4119  link */\n      dup4\n        /* \"docs.chain.link/samples/APIRequests/AEthereumConsumer.sol\":4115:4129  link.balanceOf */\n      0xffffffffffffffffffffffffffffffffffffffff\n      and\n      0x70a08231\n        /* \"docs.chain.link/samples/APIRequests/AEthereumConsumer.sol\":4138:4142  this */\n      address\n        /* \"docs.chain.link/samples/APIRequests/AEthereumConsumer.sol\":4115:4144  link.balanceOf(address(this)) */\n      mload(0x40)\n      dup3\n      0xffffffff\n      and\n      0xe0\n      shl\n      dup2\n      mstore\n      0x04\n      add\n      tag_108\n      swap2\n      swap1\n      tag_24\n      jump\t// in\n    tag_108:\n      0x20\n      mload(0x40)\n      dup1\n      dup4\n      sub\n      dup2\n      dup7\n      dup1\n      extcodesize\n      iszero\n      dup1\n      iszero\n      tag_109\n      jumpi\n      0x00\n      dup1\n      revert\n    tag_109:\n      pop\n      gas\n      staticcall\n      iszero\n      dup1\n      iszero\n      tag_111\n      jumpi\n      returndatasize\n      0x00\n      dup1\n      returndatacopy\n      revert(0x00, returndatasize)\n    tag_111:\n      pop\n      pop\n      pop\n      pop\n      mload(0x40)\n      returndatasize\n      not(0x1f)\n      0x1f\n      dup3\n      add\n      and\n      dup3\n      add\n      dup1\n      0x40\n      mstore\n      pop\n      dup2\n      add\n      swap1\n      tag_112\n      swap2\n      swap1\n      tag_113\n      jump\t// in\n    tag_112:\n        /* \"docs.chain.link/samples/APIRequests/AEthereumConsumer.sol\":4089:4145  link.transfer(msg.sender, link.balanceOf(address(this))) */\n      mload(0x40)\n      dup4\n      0xffffffff\n      and\n      0xe0\n      shl\n      dup2\n      mstore\n      0x04\n      add\n      tag_114\n      swap3\n      swap2\n      swap1\n      tag_115\n      jump\t// in\n    tag_114:\n      0x20\n      mload(0x40)\n      dup1\n      dup4\n      sub\n      dup2\n      0x00\n      dup8\n      dup1\n      extcodesize\n      iszero\n      dup1\n      iszero\n      tag_116\n      jumpi\n      0x00\n      dup1\n      revert\n    tag_116:\n      pop\n      gas\n      call\n      iszero\n      dup1\n      iszero\n      tag_118\n      jumpi\n      returndatasize\n      0x00\n      dup1\n      returndatacopy\n      revert(0x00, returndatasize)\n    tag_118:\n      pop\n      pop\n      pop\n      pop\n      mload(0x40)\n      returndatasize\n      not(0x1f)\n      0x1f\n      dup3\n      add\n      and\n      dup3\n      add\n      dup1\n      0x40\n      mstore\n      pop\n      dup2\n      add\n      swap1\n      tag_119\n      swap2\n      swap1\n      tag_120\n      jump\t// in\n    tag_119:\n        /* \"docs.chain.link/samples/APIRequests/AEthereumConsumer.sol\":4081:4168  require(link.transfer(msg.sender, link.balanceOf(address(this))), 'Unable to transfer') */\n      tag_121\n      jumpi\n      mload(0x40)\n      0x08c379a000000000000000000000000000000000000000000000000000000000\n      dup2\n      mstore\n      0x04\n      add\n      tag_122\n      swap1\n      tag_123\n      jump\t// in\n    tag_122:\n      mload(0x40)\n      dup1\n      swap2\n      sub\n      swap1\n      revert\n    tag_121:\n        /* \"docs.chain.link/samples/APIRequests/AEthereumConsumer.sol\":3990:4176  {\r... */\n      pop\n        /* \"docs.chain.link/samples/APIRequests/AEthereumConsumer.sol\":3949:4176  function withdrawLink() public onlyOwner {\r... */\n      jump\t// out\n        /* \"docs.chain.link/samples/APIRequests/AEthereumConsumer.sol\":3132:3349  function fulfillEthereumPrice(bytes32 _requestId, uint256 _price) public recordChainlinkFulfillment(_requestId) {\r... */\n    tag_47:\n        /* \"docs.chain.link/samples/APIRequests/AEthereumConsumer.sol\":3232:3242  _requestId */\n      dup2\n        /* \"@chainlink/contracts/src/v0.8/ChainlinkClient.sol\":11663:11680  s_pendingRequests */\n      0x05\n        /* \"@chainlink/contracts/src/v0.8/ChainlinkClient.sol\":11663:11691  s_pendingRequests[requestId] */\n      0x00\n        /* \"@chainlink/contracts/src/v0.8/ChainlinkClient.sol\":11681:11690  requestId */\n      dup3\n        /* \"@chainlink/contracts/src/v0.8/ChainlinkClient.sol\":11663:11691  s_pendingRequests[requestId] */\n      dup2\n      mstore\n      0x20\n      add\n      swap1\n      dup2\n      mstore\n      0x20\n      add\n      0x00\n      keccak256\n      0x00\n      swap1\n      sload\n      swap1\n      0x0100\n      exp\n      swap1\n      div\n      0xffffffffffffffffffffffffffffffffffffffff\n      and\n        /* \"@chainlink/contracts/src/v0.8/ChainlinkClient.sol\":11649:11691  msg.sender == s_pendingRequests[requestId] */\n      0xffffffffffffffffffffffffffffffffffffffff\n      and\n        /* \"@chainlink/contracts/src/v0.8/ChainlinkClient.sol\":11649:11659  msg.sender */\n      caller\n        /* \"@chainlink/contracts/src/v0.8/ChainlinkClient.sol\":11649:11691  msg.sender == s_pendingRequests[requestId] */\n      0xffffffffffffffffffffffffffffffffffffffff\n      and\n      eq\n        /* \"@chainlink/contracts/src/v0.8/ChainlinkClient.sol\":11641:11736  require(msg.sender == s_pendingRequests[requestId], \"Source must be the oracle of the request\") */\n      tag_125\n      jumpi\n      mload(0x40)\n      0x08c379a000000000000000000000000000000000000000000000000000000000\n      dup2\n      mstore\n      0x04\n      add\n      tag_126\n      swap1\n      tag_80\n      jump\t// in\n    tag_126:\n      mload(0x40)\n      dup1\n      swap2\n      sub\n      swap1\n      revert\n    tag_125:\n        /* \"@chainlink/contracts/src/v0.8/ChainlinkClient.sol\":11749:11766  s_pendingRequests */\n      0x05\n        /* \"@chainlink/contracts/src/v0.8/ChainlinkClient.sol\":11749:11777  s_pendingRequests[requestId] */\n      0x00\n        /* \"@chainlink/contracts/src/v0.8/ChainlinkClient.sol\":11767:11776  requestId */\n      dup3\n        /* \"@chainlink/contracts/src/v0.8/ChainlinkClient.sol\":11749:11777  s_pendingRequests[requestId] */\n      dup2\n      mstore\n      0x20\n      add\n      swap1\n      dup2\n      mstore\n      0x20\n      add\n      0x00\n      keccak256\n      0x00\n        /* \"@chainlink/contracts/src/v0.8/ChainlinkClient.sol\":11742:11777  delete s_pendingRequests[requestId] */\n      0x0100\n      exp\n      dup2\n      sload\n      swap1\n      0xffffffffffffffffffffffffffffffffffffffff\n      mul\n      not\n      and\n      swap1\n      sstore\n        /* \"@chainlink/contracts/src/v0.8/ChainlinkClient.sol\":11807:11816  requestId */\n      dup1\n        /* \"@chainlink/contracts/src/v0.8/ChainlinkClient.sol\":11788:11817  ChainlinkFulfilled(requestId) */\n      0x7cc135e0cebb02c3480ae5d74d377283180a2601f8f644edf7987b009316c63a\n      mload(0x40)\n      mload(0x40)\n      dup1\n      swap2\n      sub\n      swap1\n      log2\n        /* \"docs.chain.link/samples/APIRequests/AEthereumConsumer.sol\":3302:3308  _price */\n      dup2\n        /* \"docs.chain.link/samples/APIRequests/AEthereumConsumer.sol\":3290:3300  _requestId */\n      dup4\n        /* \"docs.chain.link/samples/APIRequests/AEthereumConsumer.sol\":3260:3309  RequestEthereumPriceFulfilled(_requestId, _price) */\n      0x794eb9e29f6750ede99e05248d997a9ab9fa23c4a7eaff8afa729080eb7c6428\n      mload(0x40)\n      mload(0x40)\n      dup1\n      swap2\n      sub\n      swap1\n      log3\n        /* \"docs.chain.link/samples/APIRequests/AEthereumConsumer.sol\":3335:3341  _price */\n      dup2\n        /* \"docs.chain.link/samples/APIRequests/AEthereumConsumer.sol\":3320:3332  currentPrice */\n      0x08\n        /* \"docs.chain.link/samples/APIRequests/AEthereumConsumer.sol\":3320:3341  currentPrice = _price */\n      dup2\n      swap1\n      sstore\n      pop\n        /* \"docs.chain.link/samples/APIRequests/AEthereumConsumer.sol\":3132:3349  function fulfillEthereumPrice(bytes32 _requestId, uint256 _price) public recordChainlinkFulfillment(_requestId) {\r... */\n      pop\n      pop\n      pop\n      jump\t// out\n        /* \"docs.chain.link/samples/APIRequests/AEthereumConsumer.sol\":492:519  uint256 public currentPrice */\n    tag_49:\n      sload(0x08)\n      dup2\n      jump\t// out\n        /* \"docs.chain.link/samples/APIRequests/AEthereumConsumer.sol\":3357:3575  function fulfillEthereumChange(bytes32 _requestId, int256 _change) public recordChainlinkFulfillment(_requestId) {\r... */\n    tag_55:\n        /* \"docs.chain.link/samples/APIRequests/AEthereumConsumer.sol\":3458:3468  _requestId */\n      dup2\n        /* \"@chainlink/contracts/src/v0.8/ChainlinkClient.sol\":11663:11680  s_pendingRequests */\n      0x05\n        /* \"@chainlink/contracts/src/v0.8/ChainlinkClient.sol\":11663:11691  s_pendingRequests[requestId] */\n      0x00\n        /* \"@chainlink/contracts/src/v0.8/ChainlinkClient.sol\":11681:11690  requestId */\n      dup3\n        /* \"@chainlink/contracts/src/v0.8/ChainlinkClient.sol\":11663:11691  s_pendingRequests[requestId] */\n      dup2\n      mstore\n      0x20\n      add\n      swap1\n      dup2\n      mstore\n      0x20\n      add\n      0x00\n      keccak256\n      0x00\n      swap1\n      sload\n      swap1\n      0x0100\n      exp\n      swap1\n      div\n      0xffffffffffffffffffffffffffffffffffffffff\n      and\n        /* \"@chainlink/contracts/src/v0.8/ChainlinkClient.sol\":11649:11691  msg.sender == s_pendingRequests[requestId] */\n      0xffffffffffffffffffffffffffffffffffffffff\n      and\n        /* \"@chainlink/contracts/src/v0.8/ChainlinkClient.sol\":11649:11659  msg.sender */\n      caller\n        /* \"@chainlink/contracts/src/v0.8/ChainlinkClient.sol\":11649:11691  msg.sender == s_pendingRequests[requestId] */\n      0xffffffffffffffffffffffffffffffffffffffff\n      and\n      eq\n        /* \"@chainlink/contracts/src/v0.8/ChainlinkClient.sol\":11641:11736  require(msg.sender == s_pendingRequests[requestId], \"Source must be the oracle of the request\") */\n      tag_129\n      jumpi\n      mload(0x40)\n      0x08c379a000000000000000000000000000000000000000000000000000000000\n      dup2\n      mstore\n      0x04\n      add\n      tag_130\n      swap1\n      tag_80\n      jump\t// in\n    tag_130:\n      mload(0x40)\n      dup1\n      swap2\n      sub\n      swap1\n      revert\n    tag_129:\n        /* \"@chainlink/contracts/src/v0.8/ChainlinkClient.sol\":11749:11766  s_pendingRequests */\n      0x05\n        /* \"@chainlink/contracts/src/v0.8/ChainlinkClient.sol\":11749:11777  s_pendingRequests[requestId] */\n      0x00\n        /* \"@chainlink/contracts/src/v0.8/ChainlinkClient.sol\":11767:11776  requestId */\n      dup3\n        /* \"@chainlink/contracts/src/v0.8/ChainlinkClient.sol\":11749:11777  s_pendingRequests[requestId] */\n      dup2\n      mstore\n      0x20\n      add\n      swap1\n      dup2\n      mstore\n      0x20\n      add\n      0x00\n      keccak256\n      0x00\n        /* \"@chainlink/contracts/src/v0.8/ChainlinkClient.sol\":11742:11777  delete s_pendingRequests[requestId] */\n      0x0100\n      exp\n      dup2\n      sload\n      swap1\n      0xffffffffffffffffffffffffffffffffffffffff\n      mul\n      not\n      and\n      swap1\n      sstore\n        /* \"@chainlink/contracts/src/v0.8/ChainlinkClient.sol\":11807:11816  requestId */\n      dup1\n        /* \"@chainlink/contracts/src/v0.8/ChainlinkClient.sol\":11788:11817  ChainlinkFulfilled(requestId) */\n      0x7cc135e0cebb02c3480ae5d74d377283180a2601f8f644edf7987b009316c63a\n      mload(0x40)\n      mload(0x40)\n      dup1\n      swap2\n      sub\n      swap1\n      log2\n        /* \"docs.chain.link/samples/APIRequests/AEthereumConsumer.sol\":3529:3536  _change */\n      dup2\n        /* \"docs.chain.link/samples/APIRequests/AEthereumConsumer.sol\":3517:3527  _requestId */\n      dup4\n        /* \"docs.chain.link/samples/APIRequests/AEthereumConsumer.sol\":3486:3537  RequestEthereumChangeFulfilled(_requestId, _change) */\n      0x36f03c766dbeb725bf2a1e6cf2d934a02bf3cd9644b55767c8f41ef2d4af0612\n      mload(0x40)\n      mload(0x40)\n      dup1\n      swap2\n      sub\n      swap1\n      log3\n        /* \"docs.chain.link/samples/APIRequests/AEthereumConsumer.sol\":3560:3567  _change */\n      dup2\n        /* \"docs.chain.link/samples/APIRequests/AEthereumConsumer.sol\":3548:3557  changeDay */\n      0x09\n        /* \"docs.chain.link/samples/APIRequests/AEthereumConsumer.sol\":3548:3567  changeDay = _change */\n      dup2\n      swap1\n      sstore\n      pop\n        /* \"docs.chain.link/samples/APIRequests/AEthereumConsumer.sol\":3357:3575  function fulfillEthereumChange(bytes32 _requestId, int256 _change) public recordChainlinkFulfillment(_requestId) {\r... */\n      pop\n      pop\n      pop\n      jump\t// out\n        /* \"docs.chain.link/samples/APIRequests/AEthereumConsumer.sol\":1229:1735  function requestEthereumPrice(address _oracle, string memory _jobId) public onlyOwner {\r... */\n    tag_58:\n        /* \"@chainlink/contracts/src/v0.8/ConfirmedOwnerWithProposal.sol\":1956:1976  _validateOwnership() */\n      tag_133\n        /* \"@chainlink/contracts/src/v0.8/ConfirmedOwnerWithProposal.sol\":1956:1974  _validateOwnership */\n      tag_84\n        /* \"@chainlink/contracts/src/v0.8/ConfirmedOwnerWithProposal.sol\":1956:1976  _validateOwnership() */\n      jump\t// in\n    tag_133:\n        /* \"docs.chain.link/samples/APIRequests/AEthereumConsumer.sol\":1326:1354  Chainlink.Request memory req */\n      0x00\n        /* \"docs.chain.link/samples/APIRequests/AEthereumConsumer.sol\":1357:1504  buildChainlinkRequest(\r... */\n      tag_135\n        /* \"docs.chain.link/samples/APIRequests/AEthereumConsumer.sol\":1393:1416  stringToBytes32(_jobId) */\n      tag_136\n        /* \"docs.chain.link/samples/APIRequests/AEthereumConsumer.sol\":1409:1415  _jobId */\n      dup4\n        /* \"docs.chain.link/samples/APIRequests/AEthereumConsumer.sol\":1393:1408  stringToBytes32 */\n      tag_88\n        /* \"docs.chain.link/samples/APIRequests/AEthereumConsumer.sol\":1393:1416  stringToBytes32(_jobId) */\n      jump\t// in\n    tag_136:\n        /* \"docs.chain.link/samples/APIRequests/AEthereumConsumer.sol\":1439:1443  this */\n      address\n        /* \"docs.chain.link/samples/APIRequests/AEthereumConsumer.sol\":1459:1493  this.fulfillEthereumPrice.selector */\n      shl(0xe0, 0x92cdaaf3)\n        /* \"docs.chain.link/samples/APIRequests/AEthereumConsumer.sol\":1357:1378  buildChainlinkRequest */\n      tag_89\n        /* \"docs.chain.link/samples/APIRequests/AEthereumConsumer.sol\":1357:1504  buildChainlinkRequest(\r... */\n      jump\t// in\n    tag_135:\n        /* \"docs.chain.link/samples/APIRequests/AEthereumConsumer.sol\":1326:1504  Chainlink.Request memory req = buildChainlinkRequest(\r... */\n      swap1\n      pop\n        /* \"docs.chain.link/samples/APIRequests/AEthereumConsumer.sol\":1515:1596  req.add('get', 'https://min-api.cryptocompare.com/data/price?fsym=ETH&tsyms=USD') */\n      tag_137\n      mload(0x40)\n      dup1\n      0x40\n      add\n      0x40\n      mstore\n      dup1\n      0x03\n      dup2\n      mstore\n      0x20\n      add\n      0x6765740000000000000000000000000000000000000000000000000000000000\n      dup2\n      mstore\n      pop\n      mload(0x40)\n      dup1\n      0x60\n      add\n      0x40\n      mstore\n      dup1\n      0x3f\n      dup2\n      mstore\n      0x20\n      add\n      data_444739292f65e0d84586af555ca805e0303948242aa5bbf9a7032603676a8ec3\n      0x3f\n      swap2\n      codecopy\n        /* \"docs.chain.link/samples/APIRequests/AEthereumConsumer.sol\":1515:1518  req */\n      dup4\n        /* \"docs.chain.link/samples/APIRequests/AEthereumConsumer.sol\":1515:1522  req.add */\n      tag_91\n      swap1\n        /* \"docs.chain.link/samples/APIRequests/AEthereumConsumer.sol\":1515:1596  req.add('get', 'https://min-api.cryptocompare.com/data/price?fsym=ETH&tsyms=USD') */\n      swap3\n      swap2\n      swap1\n      0xffffffff\n      and\n      jump\t// in\n    tag_137:\n        /* \"docs.chain.link/samples/APIRequests/AEthereumConsumer.sol\":1607:1629  req.add('path', 'USD') */\n      tag_138\n      mload(0x40)\n      dup1\n      0x40\n      add\n      0x40\n      mstore\n      dup1\n      0x04\n      dup2\n      mstore\n      0x20\n      add\n      0x7061746800000000000000000000000000000000000000000000000000000000\n      dup2\n      mstore\n      pop\n      mload(0x40)\n      dup1\n      0x40\n      add\n      0x40\n      mstore\n      dup1\n      0x03\n      dup2\n      mstore\n      0x20\n      add\n      0x5553440000000000000000000000000000000000000000000000000000000000\n      dup2\n      mstore\n      pop\n        /* \"docs.chain.link/samples/APIRequests/AEthereumConsumer.sol\":1607:1610  req */\n      dup4\n        /* \"docs.chain.link/samples/APIRequests/AEthereumConsumer.sol\":1607:1614  req.add */\n      tag_91\n      swap1\n        /* \"docs.chain.link/samples/APIRequests/AEthereumConsumer.sol\":1607:1629  req.add('path', 'USD') */\n      swap3\n      swap2\n      swap1\n      0xffffffff\n      and\n      jump\t// in\n    tag_138:\n        /* \"docs.chain.link/samples/APIRequests/AEthereumConsumer.sol\":1640:1664  req.addInt('times', 100) */\n      tag_139\n      mload(0x40)\n      dup1\n      0x40\n      add\n      0x40\n      mstore\n      dup1\n      0x05\n      dup2\n      mstore\n      0x20\n      add\n      0x74696d6573000000000000000000000000000000000000000000000000000000\n      dup2\n      mstore\n      pop\n        /* \"docs.chain.link/samples/APIRequests/AEthereumConsumer.sol\":1660:1663  100 */\n      0x64\n        /* \"docs.chain.link/samples/APIRequests/AEthereumConsumer.sol\":1640:1643  req */\n      dup4\n        /* \"docs.chain.link/samples/APIRequests/AEthereumConsumer.sol\":1640:1650  req.addInt */\n      tag_94\n      swap1\n        /* \"docs.chain.link/samples/APIRequests/AEthereumConsumer.sol\":1640:1664  req.addInt('times', 100) */\n      swap3\n      swap2\n      swap1\n      0xffffffff\n      and\n      jump\t// in\n    tag_139:\n        /* \"docs.chain.link/samples/APIRequests/AEthereumConsumer.sol\":1675:1727  sendChainlinkRequestTo(_oracle, req, ORACLE_PAYMENT) */\n      tag_140\n        /* \"docs.chain.link/samples/APIRequests/AEthereumConsumer.sol\":1698:1705  _oracle */\n      dup4\n        /* \"docs.chain.link/samples/APIRequests/AEthereumConsumer.sol\":1707:1710  req */\n      dup3\n        /* \"@chainlink/contracts/src/v0.8/ChainlinkClient.sol\":675:681  10**18 */\n      0x0de0b6b3a7640000\n        /* \"docs.chain.link/samples/APIRequests/AEthereumConsumer.sol\":450:451  1 */\n      0x01\n        /* \"docs.chain.link/samples/APIRequests/AEthereumConsumer.sol\":450:471  1 * LINK_DIVISIBILITY */\n      tag_141\n      swap2\n      swap1\n      tag_97\n      jump\t// in\n    tag_141:\n        /* \"docs.chain.link/samples/APIRequests/AEthereumConsumer.sol\":1675:1697  sendChainlinkRequestTo */\n      tag_98\n        /* \"docs.chain.link/samples/APIRequests/AEthereumConsumer.sol\":1675:1727  sendChainlinkRequestTo(_oracle, req, ORACLE_PAYMENT) */\n      jump\t// in\n    tag_140:\n      pop\n        /* \"docs.chain.link/samples/APIRequests/AEthereumConsumer.sol\":1315:1735  {\r... */\n      pop\n        /* \"docs.chain.link/samples/APIRequests/AEthereumConsumer.sol\":1229:1735  function requestEthereumPrice(address _oracle, string memory _jobId) public onlyOwner {\r... */\n      pop\n      pop\n      jump\t// out\n        /* \"docs.chain.link/samples/APIRequests/AEthereumConsumer.sol\":556:581  bytes32 public lastMarket */\n    tag_60:\n      sload(0x0a)\n      dup2\n      jump\t// out\n        /* \"docs.chain.link/samples/APIRequests/AEthereumConsumer.sol\":4184:4451  function cancelRequest(\r... */\n    tag_66:\n        /* \"@chainlink/contracts/src/v0.8/ConfirmedOwnerWithProposal.sol\":1956:1976  _validateOwnership() */\n      tag_143\n        /* \"@chainlink/contracts/src/v0.8/ConfirmedOwnerWithProposal.sol\":1956:1974  _validateOwnership */\n      tag_84\n        /* \"@chainlink/contracts/src/v0.8/ConfirmedOwnerWithProposal.sol\":1956:1976  _validateOwnership() */\n      jump\t// in\n    tag_143:\n        /* \"docs.chain.link/samples/APIRequests/AEthereumConsumer.sol\":4365:4443  cancelChainlinkRequest(_requestId, _payment, _callbackFunctionId, _expiration) */\n      tag_145\n        /* \"docs.chain.link/samples/APIRequests/AEthereumConsumer.sol\":4388:4398  _requestId */\n      dup5\n        /* \"docs.chain.link/samples/APIRequests/AEthereumConsumer.sol\":4400:4408  _payment */\n      dup5\n        /* \"docs.chain.link/samples/APIRequests/AEthereumConsumer.sol\":4410:4429  _callbackFunctionId */\n      dup5\n        /* \"docs.chain.link/samples/APIRequests/AEthereumConsumer.sol\":4431:4442  _expiration */\n      dup5\n        /* \"docs.chain.link/samples/APIRequests/AEthereumConsumer.sol\":4365:4387  cancelChainlinkRequest */\n      tag_146\n        /* \"docs.chain.link/samples/APIRequests/AEthereumConsumer.sol\":4365:4443  cancelChainlinkRequest(_requestId, _payment, _callbackFunctionId, _expiration) */\n      jump\t// in\n    tag_145:\n        /* \"docs.chain.link/samples/APIRequests/AEthereumConsumer.sol\":4184:4451  function cancelRequest(\r... */\n      pop\n      pop\n      pop\n      pop\n      jump\t// out\n        /* \"@chainlink/contracts/src/v0.8/ConfirmedOwnerWithProposal.sol\":826:924  function transferOwnership(address to) public override onlyOwner {... */\n    tag_70:\n        /* \"@chainlink/contracts/src/v0.8/ConfirmedOwnerWithProposal.sol\":1956:1976  _validateOwnership() */\n      tag_148\n        /* \"@chainlink/contracts/src/v0.8/ConfirmedOwnerWithProposal.sol\":1956:1974  _validateOwnership */\n      tag_84\n        /* \"@chainlink/contracts/src/v0.8/ConfirmedOwnerWithProposal.sol\":1956:1976  _validateOwnership() */\n      jump\t// in\n    tag_148:\n        /* \"@chainlink/contracts/src/v0.8/ConfirmedOwnerWithProposal.sol\":897:919  _transferOwnership(to) */\n      tag_150\n        /* \"@chainlink/contracts/src/v0.8/ConfirmedOwnerWithProposal.sol\":916:918  to */\n      dup2\n        /* \"@chainlink/contracts/src/v0.8/ConfirmedOwnerWithProposal.sol\":897:915  _transferOwnership */\n      tag_151\n        /* \"@chainlink/contracts/src/v0.8/ConfirmedOwnerWithProposal.sol\":897:919  _transferOwnership(to) */\n      jump\t// in\n    tag_150:\n        /* \"@chainlink/contracts/src/v0.8/ConfirmedOwnerWithProposal.sol\":826:924  function transferOwnership(address to) public override onlyOwner {... */\n      pop\n      jump\t// out\n        /* \"docs.chain.link/samples/APIRequests/AEthereumConsumer.sol\":2463:3124  function requestEthereumLastMarket(address _oracle, string memory _jobId) public onlyOwner {\r... */\n    tag_73:\n        /* \"@chainlink/contracts/src/v0.8/ConfirmedOwnerWithProposal.sol\":1956:1976  _validateOwnership() */\n      tag_153\n        /* \"@chainlink/contracts/src/v0.8/ConfirmedOwnerWithProposal.sol\":1956:1974  _validateOwnership */\n      tag_84\n        /* \"@chainlink/contracts/src/v0.8/ConfirmedOwnerWithProposal.sol\":1956:1976  _validateOwnership() */\n      jump\t// in\n    tag_153:\n        /* \"docs.chain.link/samples/APIRequests/AEthereumConsumer.sol\":2565:2593  Chainlink.Request memory req */\n      0x00\n        /* \"docs.chain.link/samples/APIRequests/AEthereumConsumer.sol\":2596:2748  buildChainlinkRequest(\r... */\n      tag_155\n        /* \"docs.chain.link/samples/APIRequests/AEthereumConsumer.sol\":2632:2655  stringToBytes32(_jobId) */\n      tag_156\n        /* \"docs.chain.link/samples/APIRequests/AEthereumConsumer.sol\":2648:2654  _jobId */\n      dup4\n        /* \"docs.chain.link/samples/APIRequests/AEthereumConsumer.sol\":2632:2647  stringToBytes32 */\n      tag_88\n        /* \"docs.chain.link/samples/APIRequests/AEthereumConsumer.sol\":2632:2655  stringToBytes32(_jobId) */\n      jump\t// in\n    tag_156:\n        /* \"docs.chain.link/samples/APIRequests/AEthereumConsumer.sol\":2678:2682  this */\n      address\n        /* \"docs.chain.link/samples/APIRequests/AEthereumConsumer.sol\":2698:2737  this.fulfillEthereumLastMarket.selector */\n      shl(0xe0, 0x49556aff)\n        /* \"docs.chain.link/samples/APIRequests/AEthereumConsumer.sol\":2596:2617  buildChainlinkRequest */\n      tag_89\n        /* \"docs.chain.link/samples/APIRequests/AEthereumConsumer.sol\":2596:2748  buildChainlinkRequest(\r... */\n      jump\t// in\n    tag_155:\n        /* \"docs.chain.link/samples/APIRequests/AEthereumConsumer.sol\":2565:2748  Chainlink.Request memory req = buildChainlinkRequest(\r... */\n      swap1\n      pop\n        /* \"docs.chain.link/samples/APIRequests/AEthereumConsumer.sol\":2759:2850  req.add('get', 'https://min-api.cryptocompare.com/data/pricemultifull?fsyms=ETH&tsyms=USD') */\n      tag_157\n      mload(0x40)\n      dup1\n      0x40\n      add\n      0x40\n      mstore\n      dup1\n      0x03\n      dup2\n      mstore\n      0x20\n      add\n      0x6765740000000000000000000000000000000000000000000000000000000000\n      dup2\n      mstore\n      pop\n      mload(0x40)\n      dup1\n      0x80\n      add\n      0x40\n      mstore\n      dup1\n      0x49\n      dup2\n      mstore\n      0x20\n      add\n      data_f3fa6b402eb4c49347f9ac6c8c8e0baf0eacaf39bcd59583feb12d9b90720124\n      0x49\n      swap2\n      codecopy\n        /* \"docs.chain.link/samples/APIRequests/AEthereumConsumer.sol\":2759:2762  req */\n      dup4\n        /* \"docs.chain.link/samples/APIRequests/AEthereumConsumer.sol\":2759:2766  req.add */\n      tag_91\n      swap1\n        /* \"docs.chain.link/samples/APIRequests/AEthereumConsumer.sol\":2759:2850  req.add('get', 'https://min-api.cryptocompare.com/data/pricemultifull?fsyms=ETH&tsyms=USD') */\n      swap3\n      swap2\n      swap1\n      0xffffffff\n      and\n      jump\t// in\n    tag_157:\n        /* \"docs.chain.link/samples/APIRequests/AEthereumConsumer.sol\":2861:2881  string[] memory path */\n      0x00\n        /* \"docs.chain.link/samples/APIRequests/AEthereumConsumer.sol\":2897:2898  4 */\n      0x04\n        /* \"docs.chain.link/samples/APIRequests/AEthereumConsumer.sol\":2884:2899  new string[](4) */\n      0xffffffffffffffff\n      dup2\n      gt\n      iszero\n      tag_158\n      jumpi\n      tag_159\n      tag_160\n      jump\t// in\n    tag_159:\n    tag_158:\n      mload(0x40)\n      swap1\n      dup1\n      dup3\n      mstore\n      dup1\n      0x20\n      mul\n      0x20\n      add\n      dup3\n      add\n      0x40\n      mstore\n      dup1\n      iszero\n      tag_161\n      jumpi\n      dup2\n      0x20\n      add\n    tag_162:\n      0x60\n      dup2\n      mstore\n      0x20\n      add\n      swap1\n      0x01\n      swap1\n      sub\n      swap1\n      dup2\n      tag_162\n      jumpi\n      swap1\n      pop\n    tag_161:\n      pop\n        /* \"docs.chain.link/samples/APIRequests/AEthereumConsumer.sol\":2861:2899  string[] memory path = new string[](4) */\n      swap1\n      pop\n        /* \"docs.chain.link/samples/APIRequests/AEthereumConsumer.sol\":2910:2925  path[0] = 'RAW' */\n      mload(0x40)\n      dup1\n      0x40\n      add\n      0x40\n      mstore\n      dup1\n      0x03\n      dup2\n      mstore\n      0x20\n      add\n      0x5241570000000000000000000000000000000000000000000000000000000000\n      dup2\n      mstore\n      pop\n        /* \"docs.chain.link/samples/APIRequests/AEthereumConsumer.sol\":2910:2914  path */\n      dup2\n        /* \"docs.chain.link/samples/APIRequests/AEthereumConsumer.sol\":2915:2916  0 */\n      0x00\n        /* \"docs.chain.link/samples/APIRequests/AEthereumConsumer.sol\":2910:2917  path[0] */\n      dup2\n      mload\n      dup2\n      lt\n      tag_163\n      jumpi\n      tag_164\n      tag_165\n      jump\t// in\n    tag_164:\n    tag_163:\n      0x20\n      mul\n      0x20\n      add\n      add\n        /* \"docs.chain.link/samples/APIRequests/AEthereumConsumer.sol\":2910:2925  path[0] = 'RAW' */\n      dup2\n      swap1\n      mstore\n      pop\n        /* \"docs.chain.link/samples/APIRequests/AEthereumConsumer.sol\":2936:2951  path[1] = 'ETH' */\n      mload(0x40)\n      dup1\n      0x40\n      add\n      0x40\n      mstore\n      dup1\n      0x03\n      dup2\n      mstore\n      0x20\n      add\n      0x4554480000000000000000000000000000000000000000000000000000000000\n      dup2\n      mstore\n      pop\n        /* \"docs.chain.link/samples/APIRequests/AEthereumConsumer.sol\":2936:2940  path */\n      dup2\n        /* \"docs.chain.link/samples/APIRequests/AEthereumConsumer.sol\":2941:2942  1 */\n      0x01\n        /* \"docs.chain.link/samples/APIRequests/AEthereumConsumer.sol\":2936:2943  path[1] */\n      dup2\n      mload\n      dup2\n      lt\n      tag_166\n      jumpi\n      tag_167\n      tag_165\n      jump\t// in\n    tag_167:\n    tag_166:\n      0x20\n      mul\n      0x20\n      add\n      add\n        /* \"docs.chain.link/samples/APIRequests/AEthereumConsumer.sol\":2936:2951  path[1] = 'ETH' */\n      dup2\n      swap1\n      mstore\n      pop\n        /* \"docs.chain.link/samples/APIRequests/AEthereumConsumer.sol\":2962:2977  path[2] = 'USD' */\n      mload(0x40)\n      dup1\n      0x40\n      add\n      0x40\n      mstore\n      dup1\n      0x03\n      dup2\n      mstore\n      0x20\n      add\n      0x5553440000000000000000000000000000000000000000000000000000000000\n      dup2\n      mstore\n      pop\n        /* \"docs.chain.link/samples/APIRequests/AEthereumConsumer.sol\":2962:2966  path */\n      dup2\n        /* \"docs.chain.link/samples/APIRequests/AEthereumConsumer.sol\":2967:2968  2 */\n      0x02\n        /* \"docs.chain.link/samples/APIRequests/AEthereumConsumer.sol\":2962:2969  path[2] */\n      dup2\n      mload\n      dup2\n      lt\n      tag_168\n      jumpi\n      tag_169\n      tag_165\n      jump\t// in\n    tag_169:\n    tag_168:\n      0x20\n      mul\n      0x20\n      add\n      add\n        /* \"docs.chain.link/samples/APIRequests/AEthereumConsumer.sol\":2962:2977  path[2] = 'USD' */\n      dup2\n      swap1\n      mstore\n      pop\n        /* \"docs.chain.link/samples/APIRequests/AEthereumConsumer.sol\":2988:3010  path[3] = 'LASTMARKET' */\n      mload(0x40)\n      dup1\n      0x40\n      add\n      0x40\n      mstore\n      dup1\n      0x0a\n      dup2\n      mstore\n      0x20\n      add\n      0x4c4153544d41524b455400000000000000000000000000000000000000000000\n      dup2\n      mstore\n      pop\n        /* \"docs.chain.link/samples/APIRequests/AEthereumConsumer.sol\":2988:2992  path */\n      dup2\n        /* \"docs.chain.link/samples/APIRequests/AEthereumConsumer.sol\":2993:2994  3 */\n      0x03\n        /* \"docs.chain.link/samples/APIRequests/AEthereumConsumer.sol\":2988:2995  path[3] */\n      dup2\n      mload\n      dup2\n      lt\n      tag_170\n      jumpi\n      tag_171\n      tag_165\n      jump\t// in\n    tag_171:\n    tag_170:\n      0x20\n      mul\n      0x20\n      add\n      add\n        /* \"docs.chain.link/samples/APIRequests/AEthereumConsumer.sol\":2988:3010  path[3] = 'LASTMARKET' */\n      dup2\n      swap1\n      mstore\n      pop\n        /* \"docs.chain.link/samples/APIRequests/AEthereumConsumer.sol\":3021:3053  req.addStringArray('path', path) */\n      tag_172\n      mload(0x40)\n      dup1\n      0x40\n      add\n      0x40\n      mstore\n      dup1\n      0x04\n      dup2\n      mstore\n      0x20\n      add\n      0x7061746800000000000000000000000000000000000000000000000000000000\n      dup2\n      mstore\n      pop\n        /* \"docs.chain.link/samples/APIRequests/AEthereumConsumer.sol\":3048:3052  path */\n      dup3\n        /* \"docs.chain.link/samples/APIRequests/AEthereumConsumer.sol\":3021:3024  req */\n      dup5\n        /* \"docs.chain.link/samples/APIRequests/AEthereumConsumer.sol\":3021:3039  req.addStringArray */\n      tag_173\n      swap1\n        /* \"docs.chain.link/samples/APIRequests/AEthereumConsumer.sol\":3021:3053  req.addStringArray('path', path) */\n      swap3\n      swap2\n      swap1\n      0xffffffff\n      and\n      jump\t// in\n    tag_172:\n        /* \"docs.chain.link/samples/APIRequests/AEthereumConsumer.sol\":3064:3116  sendChainlinkRequestTo(_oracle, req, ORACLE_PAYMENT) */\n      tag_174\n        /* \"docs.chain.link/samples/APIRequests/AEthereumConsumer.sol\":3087:3094  _oracle */\n      dup5\n        /* \"docs.chain.link/samples/APIRequests/AEthereumConsumer.sol\":3096:3099  req */\n      dup4\n        /* \"@chainlink/contracts/src/v0.8/ChainlinkClient.sol\":675:681  10**18 */\n      0x0de0b6b3a7640000\n        /* \"docs.chain.link/samples/APIRequests/AEthereumConsumer.sol\":450:451  1 */\n      0x01\n        /* \"docs.chain.link/samples/APIRequests/AEthereumConsumer.sol\":450:471  1 * LINK_DIVISIBILITY */\n      tag_175\n      swap2\n      swap1\n      tag_97\n      jump\t// in\n    tag_175:\n        /* \"docs.chain.link/samples/APIRequests/AEthereumConsumer.sol\":3064:3086  sendChainlinkRequestTo */\n      tag_98\n        /* \"docs.chain.link/samples/APIRequests/AEthereumConsumer.sol\":3064:3116  sendChainlinkRequestTo(_oracle, req, ORACLE_PAYMENT) */\n      jump\t// in\n    tag_174:\n      pop\n        /* \"docs.chain.link/samples/APIRequests/AEthereumConsumer.sol\":2554:3124  {\r... */\n      pop\n      pop\n        /* \"docs.chain.link/samples/APIRequests/AEthereumConsumer.sol\":2463:3124  function requestEthereumLastMarket(address _oracle, string memory _jobId) public onlyOwner {\r... */\n      pop\n      pop\n      jump\t// out\n        /* \"@chainlink/contracts/src/v0.8/ChainlinkClient.sol\":9098:9196  function chainlinkTokenAddress() internal view returns (address) {... */\n    tag_76:\n        /* \"@chainlink/contracts/src/v0.8/ChainlinkClient.sol\":9154:9161  address */\n      0x00\n        /* \"@chainlink/contracts/src/v0.8/ChainlinkClient.sol\":9184:9190  s_link */\n      0x02\n      0x00\n      swap1\n      sload\n      swap1\n      0x0100\n      exp\n      swap1\n      div\n      0xffffffffffffffffffffffffffffffffffffffff\n      and\n        /* \"@chainlink/contracts/src/v0.8/ChainlinkClient.sol\":9169:9191  return address(s_link) */\n      swap1\n      pop\n        /* \"@chainlink/contracts/src/v0.8/ChainlinkClient.sol\":9098:9196  function chainlinkTokenAddress() internal view returns (address) {... */\n      swap1\n      jump\t// out\n        /* \"@chainlink/contracts/src/v0.8/ConfirmedOwnerWithProposal.sol\":1730:1841  function _validateOwnership() internal view {... */\n    tag_84:\n        /* \"@chainlink/contracts/src/v0.8/ConfirmedOwnerWithProposal.sol\":1802:1809  s_owner */\n      0x06\n      0x00\n      swap1\n      sload\n      swap1\n      0x0100\n      exp\n      swap1\n      div\n      0xffffffffffffffffffffffffffffffffffffffff\n      and\n        /* \"@chainlink/contracts/src/v0.8/ConfirmedOwnerWithProposal.sol\":1788:1809  msg.sender == s_owner */\n      0xffffffffffffffffffffffffffffffffffffffff\n      and\n        /* \"@chainlink/contracts/src/v0.8/ConfirmedOwnerWithProposal.sol\":1788:1798  msg.sender */\n      caller\n        /* \"@chainlink/contracts/src/v0.8/ConfirmedOwnerWithProposal.sol\":1788:1809  msg.sender == s_owner */\n      0xffffffffffffffffffffffffffffffffffffffff\n      and\n      eq\n        /* \"@chainlink/contracts/src/v0.8/ConfirmedOwnerWithProposal.sol\":1780:1836  require(msg.sender == s_owner, \"Only callable by owner\") */\n      tag_178\n      jumpi\n      mload(0x40)\n      0x08c379a000000000000000000000000000000000000000000000000000000000\n      dup2\n      mstore\n      0x04\n      add\n      tag_179\n      swap1\n      tag_180\n      jump\t// in\n    tag_179:\n      mload(0x40)\n      dup1\n      swap2\n      sub\n      swap1\n      revert\n    tag_178:\n        /* \"@chainlink/contracts/src/v0.8/ConfirmedOwnerWithProposal.sol\":1730:1841  function _validateOwnership() internal view {... */\n      jump\t// out\n        /* \"docs.chain.link/samples/APIRequests/AEthereumConsumer.sol\":4459:4830  function stringToBytes32(string memory source) private pure returns (bytes32 result) {\r... */\n    tag_88:\n        /* \"docs.chain.link/samples/APIRequests/AEthereumConsumer.sol\":4528:4542  bytes32 result */\n      0x00\n        /* \"docs.chain.link/samples/APIRequests/AEthereumConsumer.sol\":4555:4587  bytes memory tempEmptyStringTest */\n      dup1\n        /* \"docs.chain.link/samples/APIRequests/AEthereumConsumer.sol\":4596:4602  source */\n      dup3\n        /* \"docs.chain.link/samples/APIRequests/AEthereumConsumer.sol\":4555:4603  bytes memory tempEmptyStringTest = bytes(source) */\n      swap1\n      pop\n        /* \"docs.chain.link/samples/APIRequests/AEthereumConsumer.sol\":4648:4649  0 */\n      0x00\n        /* \"docs.chain.link/samples/APIRequests/AEthereumConsumer.sol\":4618:4637  tempEmptyStringTest */\n      dup2\n        /* \"docs.chain.link/samples/APIRequests/AEthereumConsumer.sol\":4618:4644  tempEmptyStringTest.length */\n      mload\n        /* \"docs.chain.link/samples/APIRequests/AEthereumConsumer.sol\":4618:4649  tempEmptyStringTest.length == 0 */\n      eq\n        /* \"docs.chain.link/samples/APIRequests/AEthereumConsumer.sol\":4614:4688  if (tempEmptyStringTest.length == 0) {\r... */\n      iszero\n      tag_182\n      jumpi\n        /* \"docs.chain.link/samples/APIRequests/AEthereumConsumer.sol\":4673:4676  0x0 */\n      0x00\n        /* \"docs.chain.link/samples/APIRequests/AEthereumConsumer.sol\":4666:4676  return 0x0 */\n      dup1\n      shl\n      swap2\n      pop\n      pop\n      jump(tag_181)\n        /* \"docs.chain.link/samples/APIRequests/AEthereumConsumer.sol\":4614:4688  if (tempEmptyStringTest.length == 0) {\r... */\n    tag_182:\n        /* \"docs.chain.link/samples/APIRequests/AEthereumConsumer.sol\":4808:4810  32 */\n      0x20\n        /* \"docs.chain.link/samples/APIRequests/AEthereumConsumer.sol\":4800:4806  source */\n      dup4\n        /* \"docs.chain.link/samples/APIRequests/AEthereumConsumer.sol\":4796:4811  add(source, 32) */\n      add\n        /* \"docs.chain.link/samples/APIRequests/AEthereumConsumer.sol\":4790:4812  mload(add(source, 32)) */\n      mload\n        /* \"docs.chain.link/samples/APIRequests/AEthereumConsumer.sol\":4780:4812  result := mload(add(source, 32)) */\n      swap2\n      pop\n        /* \"docs.chain.link/samples/APIRequests/AEthereumConsumer.sol\":4709:4823  {\r... */\n      pop\n        /* \"docs.chain.link/samples/APIRequests/AEthereumConsumer.sol\":4459:4830  function stringToBytes32(string memory source) private pure returns (bytes32 result) {\r... */\n    tag_181:\n      swap2\n      swap1\n      pop\n      jump\t// out\n        /* \"@chainlink/contracts/src/v0.8/ChainlinkClient.sol\":1850:2133  function buildChainlinkRequest(... */\n    tag_89:\n        /* \"@chainlink/contracts/src/v0.8/ChainlinkClient.sol\":1992:2016  Chainlink.Request memory */\n      tag_183\n      tag_184\n      jump\t// in\n    tag_183:\n        /* \"@chainlink/contracts/src/v0.8/ChainlinkClient.sol\":2024:2052  Chainlink.Request memory req */\n      tag_186\n      tag_184\n      jump\t// in\n    tag_186:\n        /* \"@chainlink/contracts/src/v0.8/ChainlinkClient.sol\":2065:2128  req.initialize(specId, callbackAddr, callbackFunctionSignature) */\n      tag_187\n        /* \"@chainlink/contracts/src/v0.8/ChainlinkClient.sol\":2080:2086  specId */\n      dup6\n        /* \"@chainlink/contracts/src/v0.8/ChainlinkClient.sol\":2088:2100  callbackAddr */\n      dup6\n        /* \"@chainlink/contracts/src/v0.8/ChainlinkClient.sol\":2102:2127  callbackFunctionSignature */\n      dup6\n        /* \"@chainlink/contracts/src/v0.8/ChainlinkClient.sol\":2065:2068  req */\n      dup5\n        /* \"@chainlink/contracts/src/v0.8/ChainlinkClient.sol\":2065:2079  req.initialize */\n      tag_188\n      swap1\n        /* \"@chainlink/contracts/src/v0.8/ChainlinkClient.sol\":2065:2128  req.initialize(specId, callbackAddr, callbackFunctionSignature) */\n      swap4\n      swap3\n      swap2\n      swap1\n      0xffffffff\n      and\n      jump\t// in\n    tag_187:\n        /* \"@chainlink/contracts/src/v0.8/ChainlinkClient.sol\":2058:2128  return req.initialize(specId, callbackAddr, callbackFunctionSignature) */\n      swap2\n      pop\n      pop\n        /* \"@chainlink/contracts/src/v0.8/ChainlinkClient.sol\":1850:2133  function buildChainlinkRequest(... */\n      swap4\n      swap3\n      pop\n      pop\n      pop\n      jump\t// out\n        /* \"@chainlink/contracts/src/v0.8/Chainlink.sol\":1951:2126  function add(... */\n    tag_91:\n        /* \"@chainlink/contracts/src/v0.8/Chainlink.sol\":2061:2087  self.buf.encodeString(key) */\n      tag_190\n        /* \"@chainlink/contracts/src/v0.8/Chainlink.sol\":2083:2086  key */\n      dup3\n        /* \"@chainlink/contracts/src/v0.8/Chainlink.sol\":2061:2065  self */\n      dup5\n        /* \"@chainlink/contracts/src/v0.8/Chainlink.sol\":2061:2069  self.buf */\n      0x80\n      add\n      mload\n        /* \"@chainlink/contracts/src/v0.8/Chainlink.sol\":2061:2082  self.buf.encodeString */\n      tag_191\n      swap1\n        /* \"@chainlink/contracts/src/v0.8/Chainlink.sol\":2061:2087  self.buf.encodeString(key) */\n      swap2\n      swap1\n      0xffffffff\n      and\n      jump\t// in\n    tag_190:\n        /* \"@chainlink/contracts/src/v0.8/Chainlink.sol\":2093:2121  self.buf.encodeString(value) */\n      tag_192\n        /* \"@chainlink/contracts/src/v0.8/Chainlink.sol\":2115:2120  value */\n      dup2\n        /* \"@chainlink/contracts/src/v0.8/Chainlink.sol\":2093:2097  self */\n      dup5\n        /* \"@chainlink/contracts/src/v0.8/Chainlink.sol\":2093:2101  self.buf */\n      0x80\n      add\n      mload\n        /* \"@chainlink/contracts/src/v0.8/Chainlink.sol\":2093:2114  self.buf.encodeString */\n      tag_191\n      swap1\n        /* \"@chainlink/contracts/src/v0.8/Chainlink.sol\":2093:2121  self.buf.encodeString(value) */\n      swap2\n      swap1\n      0xffffffff\n      and\n      jump\t// in\n    tag_192:\n        /* \"@chainlink/contracts/src/v0.8/Chainlink.sol\":1951:2126  function add(... */\n      pop\n      pop\n      pop\n      jump\t// out\n        /* \"@chainlink/contracts/src/v0.8/Chainlink.sol\":2712:2880  function addInt(... */\n    tag_94:\n        /* \"@chainlink/contracts/src/v0.8/Chainlink.sol\":2818:2844  self.buf.encodeString(key) */\n      tag_194\n        /* \"@chainlink/contracts/src/v0.8/Chainlink.sol\":2840:2843  key */\n      dup3\n        /* \"@chainlink/contracts/src/v0.8/Chainlink.sol\":2818:2822  self */\n      dup5\n        /* \"@chainlink/contracts/src/v0.8/Chainlink.sol\":2818:2826  self.buf */\n      0x80\n      add\n      mload\n        /* \"@chainlink/contracts/src/v0.8/Chainlink.sol\":2818:2839  self.buf.encodeString */\n      tag_191\n      swap1\n        /* \"@chainlink/contracts/src/v0.8/Chainlink.sol\":2818:2844  self.buf.encodeString(key) */\n      swap2\n      swap1\n      0xffffffff\n      and\n      jump\t// in\n    tag_194:\n        /* \"@chainlink/contracts/src/v0.8/Chainlink.sol\":2850:2875  self.buf.encodeInt(value) */\n      tag_195\n        /* \"@chainlink/contracts/src/v0.8/Chainlink.sol\":2869:2874  value */\n      dup2\n        /* \"@chainlink/contracts/src/v0.8/Chainlink.sol\":2850:2854  self */\n      dup5\n        /* \"@chainlink/contracts/src/v0.8/Chainlink.sol\":2850:2858  self.buf */\n      0x80\n      add\n      mload\n        /* \"@chainlink/contracts/src/v0.8/Chainlink.sol\":2850:2868  self.buf.encodeInt */\n      tag_196\n      swap1\n        /* \"@chainlink/contracts/src/v0.8/Chainlink.sol\":2850:2875  self.buf.encodeInt(value) */\n      swap2\n      swap1\n      0xffffffff\n      and\n      jump\t// in\n    tag_195:\n        /* \"@chainlink/contracts/src/v0.8/Chainlink.sol\":2712:2880  function addInt(... */\n      pop\n      pop\n      pop\n      jump\t// out\n        /* \"@chainlink/contracts/src/v0.8/ChainlinkClient.sol\":3687:4443  function sendChainlinkRequestTo(... */\n    tag_98:\n        /* \"@chainlink/contracts/src/v0.8/ChainlinkClient.sol\":3823:3840  bytes32 requestId */\n      0x00\n        /* \"@chainlink/contracts/src/v0.8/ChainlinkClient.sol\":3848:3861  uint256 nonce */\n      dup1\n        /* \"@chainlink/contracts/src/v0.8/ChainlinkClient.sol\":3864:3878  s_requestCount */\n      sload(0x04)\n        /* \"@chainlink/contracts/src/v0.8/ChainlinkClient.sol\":3848:3878  uint256 nonce = s_requestCount */\n      swap1\n      pop\n        /* \"@chainlink/contracts/src/v0.8/ChainlinkClient.sol\":3909:3910  1 */\n      0x01\n        /* \"@chainlink/contracts/src/v0.8/ChainlinkClient.sol\":3901:3906  nonce */\n      dup2\n        /* \"@chainlink/contracts/src/v0.8/ChainlinkClient.sol\":3901:3910  nonce + 1 */\n      tag_198\n      swap2\n      swap1\n      tag_199\n      jump\t// in\n    tag_198:\n        /* \"@chainlink/contracts/src/v0.8/ChainlinkClient.sol\":3884:3898  s_requestCount */\n      0x04\n        /* \"@chainlink/contracts/src/v0.8/ChainlinkClient.sol\":3884:3910  s_requestCount = nonce + 1 */\n      dup2\n      swap1\n      sstore\n      pop\n        /* \"@chainlink/contracts/src/v0.8/ChainlinkClient.sol\":3916:3943  bytes memory encodedRequest */\n      0x00\n        /* \"@chainlink/contracts/src/v0.8/ChainlinkClient.sol\":3976:4024  ChainlinkRequestInterface.oracleRequest.selector */\n      shl(0xe0, 0x40429946)\n        /* \"@chainlink/contracts/src/v0.8/ChainlinkClient.sol\":784:785  0 */\n      0x00\n        /* \"@chainlink/contracts/src/v0.8/ChainlinkClient.sol\":728:729  0 */\n      dup1\n        /* \"@chainlink/contracts/src/v0.8/ChainlinkClient.sol\":4245:4248  req */\n      dup8\n        /* \"@chainlink/contracts/src/v0.8/ChainlinkClient.sol\":4245:4251  req.id */\n      0x00\n      add\n      mload\n        /* \"@chainlink/contracts/src/v0.8/ChainlinkClient.sol\":4267:4271  this */\n      address\n        /* \"@chainlink/contracts/src/v0.8/ChainlinkClient.sol\":4280:4283  req */\n      dup10\n        /* \"@chainlink/contracts/src/v0.8/ChainlinkClient.sol\":4280:4302  req.callbackFunctionId */\n      0x40\n      add\n      mload\n        /* \"@chainlink/contracts/src/v0.8/ChainlinkClient.sol\":4310:4315  nonce */\n      dup8\n        /* \"@chainlink/contracts/src/v0.8/ChainlinkClient.sol\":837:838  1 */\n      0x01\n        /* \"@chainlink/contracts/src/v0.8/ChainlinkClient.sol\":4350:4353  req */\n      dup13\n        /* \"@chainlink/contracts/src/v0.8/ChainlinkClient.sol\":4350:4357  req.buf */\n      0x80\n      add\n      mload\n        /* \"@chainlink/contracts/src/v0.8/ChainlinkClient.sol\":4350:4361  req.buf.buf */\n      0x00\n      add\n      mload\n        /* \"@chainlink/contracts/src/v0.8/ChainlinkClient.sol\":3946:4367  abi.encodeWithSelector(... */\n      add(0x24, mload(0x40))\n      tag_200\n      swap9\n      swap8\n      swap7\n      swap6\n      swap5\n      swap4\n      swap3\n      swap2\n      swap1\n      tag_201\n      jump\t// in\n    tag_200:\n      mload(0x40)\n      0x20\n      dup2\n      dup4\n      sub\n      sub\n      dup2\n      mstore\n      swap1\n      0x40\n      mstore\n      swap1\n      not(0xffffffffffffffffffffffffffffffffffffffffffffffffffffffff)\n      and\n      0x20\n      dup3\n      add\n      dup1\n      mload\n      0xffffffffffffffffffffffffffffffffffffffffffffffffffffffff\n      dup4\n      dup2\n      dup4\n      and\n      or\n      dup4\n      mstore\n      pop\n      pop\n      pop\n      pop\n        /* \"@chainlink/contracts/src/v0.8/ChainlinkClient.sol\":3916:4367  bytes memory encodedRequest = abi.encodeWithSelector(... */\n      swap1\n      pop\n        /* \"@chainlink/contracts/src/v0.8/ChainlinkClient.sol\":4380:4438  _rawRequest(oracleAddress, nonce, payment, encodedRequest) */\n      tag_202\n        /* \"@chainlink/contracts/src/v0.8/ChainlinkClient.sol\":4392:4405  oracleAddress */\n      dup7\n        /* \"@chainlink/contracts/src/v0.8/ChainlinkClient.sol\":4407:4412  nonce */\n      dup4\n        /* \"@chainlink/contracts/src/v0.8/ChainlinkClient.sol\":4414:4421  payment */\n      dup7\n        /* \"@chainlink/contracts/src/v0.8/ChainlinkClient.sol\":4423:4437  encodedRequest */\n      dup5\n        /* \"@chainlink/contracts/src/v0.8/ChainlinkClient.sol\":4380:4391  _rawRequest */\n      tag_203\n        /* \"@chainlink/contracts/src/v0.8/ChainlinkClient.sol\":4380:4438  _rawRequest(oracleAddress, nonce, payment, encodedRequest) */\n      jump\t// in\n    tag_202:\n        /* \"@chainlink/contracts/src/v0.8/ChainlinkClient.sol\":4373:4438  return _rawRequest(oracleAddress, nonce, payment, encodedRequest) */\n      swap3\n      pop\n      pop\n      pop\n        /* \"@chainlink/contracts/src/v0.8/ChainlinkClient.sol\":3687:4443  function sendChainlinkRequestTo(... */\n      swap4\n      swap3\n      pop\n      pop\n      pop\n      jump\t// out\n        /* \"@chainlink/contracts/src/v0.8/ChainlinkClient.sol\":7575:7963  function cancelChainlinkRequest(... */\n    tag_146:\n        /* \"@chainlink/contracts/src/v0.8/ChainlinkClient.sol\":7719:7746  OperatorInterface requested */\n      0x00\n        /* \"@chainlink/contracts/src/v0.8/ChainlinkClient.sol\":7767:7784  s_pendingRequests */\n      0x05\n        /* \"@chainlink/contracts/src/v0.8/ChainlinkClient.sol\":7767:7795  s_pendingRequests[requestId] */\n      0x00\n        /* \"@chainlink/contracts/src/v0.8/ChainlinkClient.sol\":7785:7794  requestId */\n      dup7\n        /* \"@chainlink/contracts/src/v0.8/ChainlinkClient.sol\":7767:7795  s_pendingRequests[requestId] */\n      dup2\n      mstore\n      0x20\n      add\n      swap1\n      dup2\n      mstore\n      0x20\n      add\n      0x00\n      keccak256\n      0x00\n      swap1\n      sload\n      swap1\n      0x0100\n      exp\n      swap1\n      div\n      0xffffffffffffffffffffffffffffffffffffffff\n      and\n        /* \"@chainlink/contracts/src/v0.8/ChainlinkClient.sol\":7719:7796  OperatorInterface requested = OperatorInterface(s_pendingRequests[requestId]) */\n      swap1\n      pop\n        /* \"@chainlink/contracts/src/v0.8/ChainlinkClient.sol\":7809:7826  s_pendingRequests */\n      0x05\n        /* \"@chainlink/contracts/src/v0.8/ChainlinkClient.sol\":7809:7837  s_pendingRequests[requestId] */\n      0x00\n        /* \"@chainlink/contracts/src/v0.8/ChainlinkClient.sol\":7827:7836  requestId */\n      dup7\n        /* \"@chainlink/contracts/src/v0.8/ChainlinkClient.sol\":7809:7837  s_pendingRequests[requestId] */\n      dup2\n      mstore\n      0x20\n      add\n      swap1\n      dup2\n      mstore\n      0x20\n      add\n      0x00\n      keccak256\n      0x00\n        /* \"@chainlink/contracts/src/v0.8/ChainlinkClient.sol\":7802:7837  delete s_pendingRequests[requestId] */\n      0x0100\n      exp\n      dup2\n      sload\n      swap1\n      0xffffffffffffffffffffffffffffffffffffffff\n      mul\n      not\n      and\n      swap1\n      sstore\n        /* \"@chainlink/contracts/src/v0.8/ChainlinkClient.sol\":7867:7876  requestId */\n      dup5\n        /* \"@chainlink/contracts/src/v0.8/ChainlinkClient.sol\":7848:7877  ChainlinkCancelled(requestId) */\n      0xe1fe3afa0f7f761ff0a8b89086790efd5140d2907ebd5b7ff6bfcb5e075fd4c5\n      mload(0x40)\n      mload(0x40)\n      dup1\n      swap2\n      sub\n      swap1\n      log2\n        /* \"@chainlink/contracts/src/v0.8/ChainlinkClient.sol\":7883:7892  requested */\n      dup1\n        /* \"@chainlink/contracts/src/v0.8/ChainlinkClient.sol\":7883:7912  requested.cancelOracleRequest */\n      0xffffffffffffffffffffffffffffffffffffffff\n      and\n      0x6ee4d553\n        /* \"@chainlink/contracts/src/v0.8/ChainlinkClient.sol\":7913:7922  requestId */\n      dup7\n        /* \"@chainlink/contracts/src/v0.8/ChainlinkClient.sol\":7924:7931  payment */\n      dup7\n        /* \"@chainlink/contracts/src/v0.8/ChainlinkClient.sol\":7933:7945  callbackFunc */\n      dup7\n        /* \"@chainlink/contracts/src/v0.8/ChainlinkClient.sol\":7947:7957  expiration */\n      dup7\n        /* \"@chainlink/contracts/src/v0.8/ChainlinkClient.sol\":7883:7958  requested.cancelOracleRequest(requestId, payment, callbackFunc, expiration) */\n      mload(0x40)\n      dup6\n      0xffffffff\n      and\n      0xe0\n      shl\n      dup2\n      mstore\n      0x04\n      add\n      tag_205\n      swap5\n      swap4\n      swap3\n      swap2\n      swap1\n      tag_206\n      jump\t// in\n    tag_205:\n      0x00\n      mload(0x40)\n      dup1\n      dup4\n      sub\n      dup2\n      0x00\n      dup8\n      dup1\n      extcodesize\n      iszero\n      dup1\n      iszero\n      tag_207\n      jumpi\n      0x00\n      dup1\n      revert\n    tag_207:\n      pop\n      gas\n      call\n      iszero\n      dup1\n      iszero\n      tag_209\n      jumpi\n      returndatasize\n      0x00\n      dup1\n      returndatacopy\n      revert(0x00, returndatasize)\n    tag_209:\n      pop\n      pop\n      pop\n      pop\n        /* \"@chainlink/contracts/src/v0.8/ChainlinkClient.sol\":7713:7963  {... */\n      pop\n        /* \"@chainlink/contracts/src/v0.8/ChainlinkClient.sol\":7575:7963  function cancelChainlinkRequest(... */\n      pop\n      pop\n      pop\n      pop\n      jump\t// out\n        /* \"@chainlink/contracts/src/v0.8/ConfirmedOwnerWithProposal.sol\":1497:1685  function _transferOwnership(address to) private {... */\n    tag_151:\n        /* \"@chainlink/contracts/src/v0.8/ConfirmedOwnerWithProposal.sol\":1565:1575  msg.sender */\n      caller\n        /* \"@chainlink/contracts/src/v0.8/ConfirmedOwnerWithProposal.sol\":1559:1575  to != msg.sender */\n      0xffffffffffffffffffffffffffffffffffffffff\n      and\n        /* \"@chainlink/contracts/src/v0.8/ConfirmedOwnerWithProposal.sol\":1559:1561  to */\n      dup2\n        /* \"@chainlink/contracts/src/v0.8/ConfirmedOwnerWithProposal.sol\":1559:1575  to != msg.sender */\n      0xffffffffffffffffffffffffffffffffffffffff\n      and\n      eq\n      iszero\n        /* \"@chainlink/contracts/src/v0.8/ConfirmedOwnerWithProposal.sol\":1551:1603  require(to != msg.sender, \"Cannot transfer to self\") */\n      tag_211\n      jumpi\n      mload(0x40)\n      0x08c379a000000000000000000000000000000000000000000000000000000000\n      dup2\n      mstore\n      0x04\n      add\n      tag_212\n      swap1\n      tag_213\n      jump\t// in\n    tag_212:\n      mload(0x40)\n      dup1\n      swap2\n      sub\n      swap1\n      revert\n    tag_211:\n        /* \"@chainlink/contracts/src/v0.8/ConfirmedOwnerWithProposal.sol\":1627:1629  to */\n      dup1\n        /* \"@chainlink/contracts/src/v0.8/ConfirmedOwnerWithProposal.sol\":1610:1624  s_pendingOwner */\n      0x07\n      0x00\n        /* \"@chainlink/contracts/src/v0.8/ConfirmedOwnerWithProposal.sol\":1610:1629  s_pendingOwner = to */\n      0x0100\n      exp\n      dup2\n      sload\n      dup2\n      0xffffffffffffffffffffffffffffffffffffffff\n      mul\n      not\n      and\n      swap1\n      dup4\n      0xffffffffffffffffffffffffffffffffffffffff\n      and\n      mul\n      or\n      swap1\n      sstore\n      pop\n        /* \"@chainlink/contracts/src/v0.8/ConfirmedOwnerWithProposal.sol\":1677:1679  to */\n      dup1\n        /* \"@chainlink/contracts/src/v0.8/ConfirmedOwnerWithProposal.sol\":1641:1680  OwnershipTransferRequested(s_owner, to) */\n      0xffffffffffffffffffffffffffffffffffffffff\n      and\n        /* \"@chainlink/contracts/src/v0.8/ConfirmedOwnerWithProposal.sol\":1668:1675  s_owner */\n      0x06\n      0x00\n      swap1\n      sload\n      swap1\n      0x0100\n      exp\n      swap1\n      div\n      0xffffffffffffffffffffffffffffffffffffffff\n      and\n        /* \"@chainlink/contracts/src/v0.8/ConfirmedOwnerWithProposal.sol\":1641:1680  OwnershipTransferRequested(s_owner, to) */\n      0xffffffffffffffffffffffffffffffffffffffff\n      and\n      0xed8889f560326eb138920d842192f0eb3dd22b4f139c87a2c57538e05bae1278\n      mload(0x40)\n      mload(0x40)\n      dup1\n      swap2\n      sub\n      swap1\n      log3\n        /* \"@chainlink/contracts/src/v0.8/ConfirmedOwnerWithProposal.sol\":1497:1685  function _transferOwnership(address to) private {... */\n      pop\n      jump\t// out\n        /* \"@chainlink/contracts/src/v0.8/Chainlink.sol\":3479:3785  function addStringArray(... */\n    tag_173:\n        /* \"@chainlink/contracts/src/v0.8/Chainlink.sol\":3603:3629  self.buf.encodeString(key) */\n      tag_215\n        /* \"@chainlink/contracts/src/v0.8/Chainlink.sol\":3625:3628  key */\n      dup3\n        /* \"@chainlink/contracts/src/v0.8/Chainlink.sol\":3603:3607  self */\n      dup5\n        /* \"@chainlink/contracts/src/v0.8/Chainlink.sol\":3603:3611  self.buf */\n      0x80\n      add\n      mload\n        /* \"@chainlink/contracts/src/v0.8/Chainlink.sol\":3603:3624  self.buf.encodeString */\n      tag_191\n      swap1\n        /* \"@chainlink/contracts/src/v0.8/Chainlink.sol\":3603:3629  self.buf.encodeString(key) */\n      swap2\n      swap1\n      0xffffffff\n      and\n      jump\t// in\n    tag_215:\n        /* \"@chainlink/contracts/src/v0.8/Chainlink.sol\":3635:3656  self.buf.startArray() */\n      tag_216\n        /* \"@chainlink/contracts/src/v0.8/Chainlink.sol\":3635:3639  self */\n      dup4\n        /* \"@chainlink/contracts/src/v0.8/Chainlink.sol\":3635:3643  self.buf */\n      0x80\n      add\n      mload\n        /* \"@chainlink/contracts/src/v0.8/Chainlink.sol\":3635:3654  self.buf.startArray */\n      tag_217\n        /* \"@chainlink/contracts/src/v0.8/Chainlink.sol\":3635:3656  self.buf.startArray() */\n      jump\t// in\n    tag_216:\n        /* \"@chainlink/contracts/src/v0.8/Chainlink.sol\":3667:3676  uint256 i */\n      0x00\n        /* \"@chainlink/contracts/src/v0.8/Chainlink.sol\":3662:3753  for (uint256 i = 0; i < values.length; i++) {... */\n    tag_218:\n        /* \"@chainlink/contracts/src/v0.8/Chainlink.sol\":3686:3692  values */\n      dup2\n        /* \"@chainlink/contracts/src/v0.8/Chainlink.sol\":3686:3699  values.length */\n      mload\n        /* \"@chainlink/contracts/src/v0.8/Chainlink.sol\":3682:3683  i */\n      dup2\n        /* \"@chainlink/contracts/src/v0.8/Chainlink.sol\":3682:3699  i < values.length */\n      lt\n        /* \"@chainlink/contracts/src/v0.8/Chainlink.sol\":3662:3753  for (uint256 i = 0; i < values.length; i++) {... */\n      iszero\n      tag_219\n      jumpi\n        /* \"@chainlink/contracts/src/v0.8/Chainlink.sol\":3714:3746  self.buf.encodeString(values[i]) */\n      tag_221\n        /* \"@chainlink/contracts/src/v0.8/Chainlink.sol\":3736:3742  values */\n      dup3\n        /* \"@chainlink/contracts/src/v0.8/Chainlink.sol\":3743:3744  i */\n      dup3\n        /* \"@chainlink/contracts/src/v0.8/Chainlink.sol\":3736:3745  values[i] */\n      dup2\n      mload\n      dup2\n      lt\n      tag_222\n      jumpi\n      tag_223\n      tag_165\n      jump\t// in\n    tag_223:\n    tag_222:\n      0x20\n      mul\n      0x20\n      add\n      add\n      mload\n        /* \"@chainlink/contracts/src/v0.8/Chainlink.sol\":3714:3718  self */\n      dup6\n        /* \"@chainlink/contracts/src/v0.8/Chainlink.sol\":3714:3722  self.buf */\n      0x80\n      add\n      mload\n        /* \"@chainlink/contracts/src/v0.8/Chainlink.sol\":3714:3735  self.buf.encodeString */\n      tag_191\n      swap1\n        /* \"@chainlink/contracts/src/v0.8/Chainlink.sol\":3714:3746  self.buf.encodeString(values[i]) */\n      swap2\n      swap1\n      0xffffffff\n      and\n      jump\t// in\n    tag_221:\n        /* \"@chainlink/contracts/src/v0.8/Chainlink.sol\":3701:3704  i++ */\n      dup1\n      dup1\n      tag_224\n      swap1\n      tag_225\n      jump\t// in\n    tag_224:\n      swap2\n      pop\n      pop\n        /* \"@chainlink/contracts/src/v0.8/Chainlink.sol\":3662:3753  for (uint256 i = 0; i < values.length; i++) {... */\n      jump(tag_218)\n    tag_219:\n      pop\n        /* \"@chainlink/contracts/src/v0.8/Chainlink.sol\":3758:3780  self.buf.endSequence() */\n      tag_226\n        /* \"@chainlink/contracts/src/v0.8/Chainlink.sol\":3758:3762  self */\n      dup4\n        /* \"@chainlink/contracts/src/v0.8/Chainlink.sol\":3758:3766  self.buf */\n      0x80\n      add\n      mload\n        /* \"@chainlink/contracts/src/v0.8/Chainlink.sol\":3758:3778  self.buf.endSequence */\n      tag_227\n        /* \"@chainlink/contracts/src/v0.8/Chainlink.sol\":3758:3780  self.buf.endSequence() */\n      jump\t// in\n    tag_226:\n        /* \"@chainlink/contracts/src/v0.8/Chainlink.sol\":3479:3785  function addStringArray(... */\n      pop\n      pop\n      pop\n      jump\t// out\n        /* \"@chainlink/contracts/src/v0.8/Chainlink.sol\":987:1338  function initialize(... */\n    tag_188:\n        /* \"@chainlink/contracts/src/v0.8/Chainlink.sol\":1129:1153  Chainlink.Request memory */\n      tag_228\n      tag_184\n      jump\t// in\n    tag_228:\n        /* \"@chainlink/contracts/src/v0.8/Chainlink.sol\":1161:1210  BufferChainlink.init(self.buf, defaultBufferSize) */\n      tag_230\n        /* \"@chainlink/contracts/src/v0.8/Chainlink.sol\":1182:1186  self */\n      dup6\n        /* \"@chainlink/contracts/src/v0.8/Chainlink.sol\":1182:1190  self.buf */\n      0x80\n      add\n      mload\n        /* \"@chainlink/contracts/src/v0.8/Chainlink.sol\":361:364  256 */\n      0x0100\n        /* \"@chainlink/contracts/src/v0.8/Chainlink.sol\":1161:1181  BufferChainlink.init */\n      tag_231\n        /* \"@chainlink/contracts/src/v0.8/Chainlink.sol\":1161:1210  BufferChainlink.init(self.buf, defaultBufferSize) */\n      jump\t// in\n    tag_230:\n      pop\n        /* \"@chainlink/contracts/src/v0.8/Chainlink.sol\":1226:1231  jobId */\n      dup4\n        /* \"@chainlink/contracts/src/v0.8/Chainlink.sol\":1216:1220  self */\n      dup6\n        /* \"@chainlink/contracts/src/v0.8/Chainlink.sol\":1216:1223  self.id */\n      0x00\n      add\n        /* \"@chainlink/contracts/src/v0.8/Chainlink.sol\":1216:1231  self.id = jobId */\n      dup2\n      dup2\n      mstore\n      pop\n      pop\n        /* \"@chainlink/contracts/src/v0.8/Chainlink.sol\":1260:1272  callbackAddr */\n      dup3\n        /* \"@chainlink/contracts/src/v0.8/Chainlink.sol\":1237:1241  self */\n      dup6\n        /* \"@chainlink/contracts/src/v0.8/Chainlink.sol\":1237:1257  self.callbackAddress */\n      0x20\n      add\n        /* \"@chainlink/contracts/src/v0.8/Chainlink.sol\":1237:1272  self.callbackAddress = callbackAddr */\n      swap1\n      0xffffffffffffffffffffffffffffffffffffffff\n      and\n      swap1\n      dup2\n      0xffffffffffffffffffffffffffffffffffffffff\n      and\n      dup2\n      mstore\n      pop\n      pop\n        /* \"@chainlink/contracts/src/v0.8/Chainlink.sol\":1304:1316  callbackFunc */\n      dup2\n        /* \"@chainlink/contracts/src/v0.8/Chainlink.sol\":1278:1282  self */\n      dup6\n        /* \"@chainlink/contracts/src/v0.8/Chainlink.sol\":1278:1301  self.callbackFunctionId */\n      0x40\n      add\n        /* \"@chainlink/contracts/src/v0.8/Chainlink.sol\":1278:1316  self.callbackFunctionId = callbackFunc */\n      swap1\n      not(0xffffffffffffffffffffffffffffffffffffffffffffffffffffffff)\n      and\n      swap1\n      dup2\n      not(0xffffffffffffffffffffffffffffffffffffffffffffffffffffffff)\n      and\n      dup2\n      mstore\n      pop\n      pop\n        /* \"@chainlink/contracts/src/v0.8/Chainlink.sol\":1329:1333  self */\n      dup5\n        /* \"@chainlink/contracts/src/v0.8/Chainlink.sol\":1322:1333  return self */\n      swap1\n      pop\n        /* \"@chainlink/contracts/src/v0.8/Chainlink.sol\":987:1338  function initialize(... */\n      swap5\n      swap4\n      pop\n      pop\n      pop\n      pop\n      jump\t// out\n        /* \"@chainlink/contracts/src/v0.8/vendor/CBORChainlink.sol\":2777:2981  function encodeString(BufferChainlink.buffer memory buf, string memory value) internal pure {... */\n    tag_191:\n        /* \"@chainlink/contracts/src/v0.8/vendor/CBORChainlink.sol\":2875:2946  encodeFixedNumeric(buf, MAJOR_TYPE_STRING, uint64(bytes(value).length)) */\n      tag_233\n        /* \"@chainlink/contracts/src/v0.8/vendor/CBORChainlink.sol\":2894:2897  buf */\n      dup3\n        /* \"@chainlink/contracts/src/v0.8/vendor/CBORChainlink.sol\":383:384  3 */\n      0x03\n        /* \"@chainlink/contracts/src/v0.8/vendor/CBORChainlink.sol\":2931:2936  value */\n      dup4\n        /* \"@chainlink/contracts/src/v0.8/vendor/CBORChainlink.sol\":2925:2944  bytes(value).length */\n      mload\n        /* \"@chainlink/contracts/src/v0.8/vendor/CBORChainlink.sol\":2875:2893  encodeFixedNumeric */\n      tag_234\n        /* \"@chainlink/contracts/src/v0.8/vendor/CBORChainlink.sol\":2875:2946  encodeFixedNumeric(buf, MAJOR_TYPE_STRING, uint64(bytes(value).length)) */\n      jump\t// in\n    tag_233:\n        /* \"@chainlink/contracts/src/v0.8/vendor/CBORChainlink.sol\":2952:2976  buf.append(bytes(value)) */\n      tag_235\n        /* \"@chainlink/contracts/src/v0.8/vendor/CBORChainlink.sol\":2969:2974  value */\n      dup2\n        /* \"@chainlink/contracts/src/v0.8/vendor/CBORChainlink.sol\":2952:2955  buf */\n      dup4\n        /* \"@chainlink/contracts/src/v0.8/vendor/CBORChainlink.sol\":2952:2962  buf.append */\n      tag_236\n      swap1\n        /* \"@chainlink/contracts/src/v0.8/vendor/CBORChainlink.sol\":2952:2976  buf.append(bytes(value)) */\n      swap2\n      swap1\n      0xffffffff\n      and\n      jump\t// in\n    tag_235:\n      pop\n        /* \"@chainlink/contracts/src/v0.8/vendor/CBORChainlink.sol\":2777:2981  function encodeString(BufferChainlink.buffer memory buf, string memory value) internal pure {... */\n      pop\n      pop\n      jump\t// out\n        /* \"@chainlink/contracts/src/v0.8/vendor/CBORChainlink.sol\":1704:2150  function encodeInt(BufferChainlink.buffer memory buf, int value) internal pure {... */\n    tag_196:\n        /* \"@chainlink/contracts/src/v0.8/vendor/CBORChainlink.sol\":1800:1820  -0x10000000000000000 */\n      0xffffffffffffffffffffffffffffffffffffffffffffffff0000000000000000\n        /* \"@chainlink/contracts/src/v0.8/vendor/CBORChainlink.sol\":1792:1797  value */\n      dup2\n        /* \"@chainlink/contracts/src/v0.8/vendor/CBORChainlink.sol\":1792:1820  value < -0x10000000000000000 */\n      slt\n        /* \"@chainlink/contracts/src/v0.8/vendor/CBORChainlink.sol\":1789:2146  if(value < -0x10000000000000000) {... */\n      iszero\n      tag_238\n      jumpi\n        /* \"@chainlink/contracts/src/v0.8/vendor/CBORChainlink.sol\":1830:1860  encodeSignedBigNum(buf, value) */\n      tag_239\n        /* \"@chainlink/contracts/src/v0.8/vendor/CBORChainlink.sol\":1849:1852  buf */\n      dup3\n        /* \"@chainlink/contracts/src/v0.8/vendor/CBORChainlink.sol\":1854:1859  value */\n      dup3\n        /* \"@chainlink/contracts/src/v0.8/vendor/CBORChainlink.sol\":1830:1848  encodeSignedBigNum */\n      tag_240\n        /* \"@chainlink/contracts/src/v0.8/vendor/CBORChainlink.sol\":1830:1860  encodeSignedBigNum(buf, value) */\n      jump\t// in\n    tag_239:\n        /* \"@chainlink/contracts/src/v0.8/vendor/CBORChainlink.sol\":1789:2146  if(value < -0x10000000000000000) {... */\n      jump(tag_241)\n    tag_238:\n        /* \"@chainlink/contracts/src/v0.8/vendor/CBORChainlink.sol\":1884:1902  0xFFFFFFFFFFFFFFFF */\n      0xffffffffffffffff\n        /* \"@chainlink/contracts/src/v0.8/vendor/CBORChainlink.sol\":1876:1881  value */\n      dup2\n        /* \"@chainlink/contracts/src/v0.8/vendor/CBORChainlink.sol\":1876:1902  value > 0xFFFFFFFFFFFFFFFF */\n      sgt\n        /* \"@chainlink/contracts/src/v0.8/vendor/CBORChainlink.sol\":1873:2146  if(value > 0xFFFFFFFFFFFFFFFF) {... */\n      iszero\n      tag_242\n      jumpi\n        /* \"@chainlink/contracts/src/v0.8/vendor/CBORChainlink.sol\":1912:1942  encodeBigNum(buf, uint(value)) */\n      tag_243\n        /* \"@chainlink/contracts/src/v0.8/vendor/CBORChainlink.sol\":1925:1928  buf */\n      dup3\n        /* \"@chainlink/contracts/src/v0.8/vendor/CBORChainlink.sol\":1935:1940  value */\n      dup3\n        /* \"@chainlink/contracts/src/v0.8/vendor/CBORChainlink.sol\":1912:1924  encodeBigNum */\n      tag_244\n        /* \"@chainlink/contracts/src/v0.8/vendor/CBORChainlink.sol\":1912:1942  encodeBigNum(buf, uint(value)) */\n      jump\t// in\n    tag_243:\n        /* \"@chainlink/contracts/src/v0.8/vendor/CBORChainlink.sol\":1873:2146  if(value > 0xFFFFFFFFFFFFFFFF) {... */\n      jump(tag_245)\n    tag_242:\n        /* \"@chainlink/contracts/src/v0.8/vendor/CBORChainlink.sol\":1967:1968  0 */\n      0x00\n        /* \"@chainlink/contracts/src/v0.8/vendor/CBORChainlink.sol\":1958:1963  value */\n      dup2\n        /* \"@chainlink/contracts/src/v0.8/vendor/CBORChainlink.sol\":1958:1968  value >= 0 */\n      slt\n        /* \"@chainlink/contracts/src/v0.8/vendor/CBORChainlink.sol\":1955:2146  if(value >= 0) {... */\n      tag_246\n      jumpi\n        /* \"@chainlink/contracts/src/v0.8/vendor/CBORChainlink.sol\":1978:2041  encodeFixedNumeric(buf, MAJOR_TYPE_INT, uint64(uint256(value))) */\n      tag_247\n        /* \"@chainlink/contracts/src/v0.8/vendor/CBORChainlink.sol\":1997:2000  buf */\n      dup3\n        /* \"@chainlink/contracts/src/v0.8/vendor/CBORChainlink.sol\":234:235  0 */\n      0x00\n        /* \"@chainlink/contracts/src/v0.8/vendor/CBORChainlink.sol\":2033:2038  value */\n      dup4\n        /* \"@chainlink/contracts/src/v0.8/vendor/CBORChainlink.sol\":1978:1996  encodeFixedNumeric */\n      tag_234\n        /* \"@chainlink/contracts/src/v0.8/vendor/CBORChainlink.sol\":1978:2041  encodeFixedNumeric(buf, MAJOR_TYPE_INT, uint64(uint256(value))) */\n      jump\t// in\n    tag_247:\n        /* \"@chainlink/contracts/src/v0.8/vendor/CBORChainlink.sol\":1955:2146  if(value >= 0) {... */\n      jump(tag_248)\n    tag_246:\n        /* \"@chainlink/contracts/src/v0.8/vendor/CBORChainlink.sol\":2062:2139  encodeFixedNumeric(buf, MAJOR_TYPE_NEGATIVE_INT, uint64(uint256(-1 - value))) */\n      tag_249\n        /* \"@chainlink/contracts/src/v0.8/vendor/CBORChainlink.sol\":2081:2084  buf */\n      dup3\n        /* \"@chainlink/contracts/src/v0.8/vendor/CBORChainlink.sol\":288:289  1 */\n      0x01\n        /* \"@chainlink/contracts/src/v0.8/vendor/CBORChainlink.sol\":2131:2136  value */\n      dup4\n        /* \"@chainlink/contracts/src/v0.8/vendor/CBORChainlink.sol\":2126:2128  -1 */\n      0xffffffffffffffffffffffffffffffffffffffffffffffffffffffffffffffff\n        /* \"@chainlink/contracts/src/v0.8/vendor/CBORChainlink.sol\":2126:2136  -1 - value */\n      tag_250\n      swap2\n      swap1\n      tag_251\n      jump\t// in\n    tag_250:\n        /* \"@chainlink/contracts/src/v0.8/vendor/CBORChainlink.sol\":2062:2080  encodeFixedNumeric */\n      tag_234\n        /* \"@chainlink/contracts/src/v0.8/vendor/CBORChainlink.sol\":2062:2139  encodeFixedNumeric(buf, MAJOR_TYPE_NEGATIVE_INT, uint64(uint256(-1 - value))) */\n      jump\t// in\n    tag_249:\n        /* \"@chainlink/contracts/src/v0.8/vendor/CBORChainlink.sol\":1955:2146  if(value >= 0) {... */\n    tag_248:\n        /* \"@chainlink/contracts/src/v0.8/vendor/CBORChainlink.sol\":1873:2146  if(value > 0xFFFFFFFFFFFFFFFF) {... */\n    tag_245:\n        /* \"@chainlink/contracts/src/v0.8/vendor/CBORChainlink.sol\":1789:2146  if(value < -0x10000000000000000) {... */\n    tag_241:\n        /* \"@chainlink/contracts/src/v0.8/vendor/CBORChainlink.sol\":1704:2150  function encodeInt(BufferChainlink.buffer memory buf, int value) internal pure {... */\n      pop\n      pop\n      jump\t// out\n        /* \"@chainlink/contracts/src/v0.8/ChainlinkClient.sol\":6629:7059  function _rawRequest(... */\n    tag_203:\n        /* \"@chainlink/contracts/src/v0.8/ChainlinkClient.sol\":6771:6788  bytes32 requestId */\n      0x00\n        /* \"@chainlink/contracts/src/v0.8/ChainlinkClient.sol\":6835:6839  this */\n      address\n        /* \"@chainlink/contracts/src/v0.8/ChainlinkClient.sol\":6841:6846  nonce */\n      dup5\n        /* \"@chainlink/contracts/src/v0.8/ChainlinkClient.sol\":6818:6847  abi.encodePacked(this, nonce) */\n      add(0x20, mload(0x40))\n      tag_253\n      swap3\n      swap2\n      swap1\n      tag_254\n      jump\t// in\n    tag_253:\n      mload(0x40)\n      0x20\n      dup2\n      dup4\n      sub\n      sub\n      dup2\n      mstore\n      swap1\n      0x40\n      mstore\n        /* \"@chainlink/contracts/src/v0.8/ChainlinkClient.sol\":6808:6848  keccak256(abi.encodePacked(this, nonce)) */\n      dup1\n      mload\n      swap1\n      0x20\n      add\n      keccak256\n        /* \"@chainlink/contracts/src/v0.8/ChainlinkClient.sol\":6796:6848  requestId = keccak256(abi.encodePacked(this, nonce)) */\n      swap1\n      pop\n        /* \"@chainlink/contracts/src/v0.8/ChainlinkClient.sol\":6885:6898  oracleAddress */\n      dup5\n        /* \"@chainlink/contracts/src/v0.8/ChainlinkClient.sol\":6854:6871  s_pendingRequests */\n      0x05\n        /* \"@chainlink/contracts/src/v0.8/ChainlinkClient.sol\":6854:6882  s_pendingRequests[requestId] */\n      0x00\n        /* \"@chainlink/contracts/src/v0.8/ChainlinkClient.sol\":6872:6881  requestId */\n      dup4\n        /* \"@chainlink/contracts/src/v0.8/ChainlinkClient.sol\":6854:6882  s_pendingRequests[requestId] */\n      dup2\n      mstore\n      0x20\n      add\n      swap1\n      dup2\n      mstore\n      0x20\n      add\n      0x00\n      keccak256\n      0x00\n        /* \"@chainlink/contracts/src/v0.8/ChainlinkClient.sol\":6854:6898  s_pendingRequests[requestId] = oracleAddress */\n      0x0100\n      exp\n      dup2\n      sload\n      dup2\n      0xffffffffffffffffffffffffffffffffffffffff\n      mul\n      not\n      and\n      swap1\n      dup4\n      0xffffffffffffffffffffffffffffffffffffffff\n      and\n      mul\n      or\n      swap1\n      sstore\n      pop\n        /* \"@chainlink/contracts/src/v0.8/ChainlinkClient.sol\":6928:6937  requestId */\n      dup1\n        /* \"@chainlink/contracts/src/v0.8/ChainlinkClient.sol\":6909:6938  ChainlinkRequested(requestId) */\n      0xb5e6e01e79f91267dc17b4e6314d5d4d03593d2ceee0fbb452b750bd70ea5af9\n      mload(0x40)\n      mload(0x40)\n      dup1\n      swap2\n      sub\n      swap1\n      log2\n        /* \"@chainlink/contracts/src/v0.8/ChainlinkClient.sol\":6952:6958  s_link */\n      0x02\n      0x00\n      swap1\n      sload\n      swap1\n      0x0100\n      exp\n      swap1\n      div\n      0xffffffffffffffffffffffffffffffffffffffff\n      and\n        /* \"@chainlink/contracts/src/v0.8/ChainlinkClient.sol\":6952:6974  s_link.transferAndCall */\n      0xffffffffffffffffffffffffffffffffffffffff\n      and\n      0x4000aea0\n        /* \"@chainlink/contracts/src/v0.8/ChainlinkClient.sol\":6975:6988  oracleAddress */\n      dup7\n        /* \"@chainlink/contracts/src/v0.8/ChainlinkClient.sol\":6990:6997  payment */\n      dup6\n        /* \"@chainlink/contracts/src/v0.8/ChainlinkClient.sol\":6999:7013  encodedRequest */\n      dup6\n        /* \"@chainlink/contracts/src/v0.8/ChainlinkClient.sol\":6952:7014  s_link.transferAndCall(oracleAddress, payment, encodedRequest) */\n      mload(0x40)\n      dup5\n      0xffffffff\n      and\n      0xe0\n      shl\n      dup2\n      mstore\n      0x04\n      add\n      tag_255\n      swap4\n      swap3\n      swap2\n      swap1\n      tag_256\n      jump\t// in\n    tag_255:\n      0x20\n      mload(0x40)\n      dup1\n      dup4\n      sub\n      dup2\n      0x00\n      dup8\n      dup1\n      extcodesize\n      iszero\n      dup1\n      iszero\n      tag_257\n      jumpi\n      0x00\n      dup1\n      revert\n    tag_257:\n      pop\n      gas\n      call\n      iszero\n      dup1\n      iszero\n      tag_259\n      jumpi\n      returndatasize\n      0x00\n      dup1\n      returndatacopy\n      revert(0x00, returndatasize)\n    tag_259:\n      pop\n      pop\n      pop\n      pop\n      mload(0x40)\n      returndatasize\n      not(0x1f)\n      0x1f\n      dup3\n      add\n      and\n      dup3\n      add\n      dup1\n      0x40\n      mstore\n      pop\n      dup2\n      add\n      swap1\n      tag_260\n      swap2\n      swap1\n      tag_120\n      jump\t// in\n    tag_260:\n        /* \"@chainlink/contracts/src/v0.8/ChainlinkClient.sol\":6944:7054  require(s_link.transferAndCall(oracleAddress, payment, encodedRequest), \"unable to transferAndCall to oracle\") */\n      tag_261\n      jumpi\n      mload(0x40)\n      0x08c379a000000000000000000000000000000000000000000000000000000000\n      dup2\n      mstore\n      0x04\n      add\n      tag_262\n      swap1\n      tag_263\n      jump\t// in\n    tag_262:\n      mload(0x40)\n      dup1\n      swap2\n      sub\n      swap1\n      revert\n    tag_261:\n        /* \"@chainlink/contracts/src/v0.8/ChainlinkClient.sol\":6629:7059  function _rawRequest(... */\n      swap5\n      swap4\n      pop\n      pop\n      pop\n      pop\n      jump\t// out\n        /* \"@chainlink/contracts/src/v0.8/vendor/CBORChainlink.sol\":2985:3114  function startArray(BufferChainlink.buffer memory buf) internal pure {... */\n    tag_217:\n        /* \"@chainlink/contracts/src/v0.8/vendor/CBORChainlink.sol\":3060:3109  encodeIndefiniteLengthType(buf, MAJOR_TYPE_ARRAY) */\n      tag_265\n        /* \"@chainlink/contracts/src/v0.8/vendor/CBORChainlink.sol\":3087:3090  buf */\n      dup2\n        /* \"@chainlink/contracts/src/v0.8/vendor/CBORChainlink.sol\":430:431  4 */\n      0x04\n        /* \"@chainlink/contracts/src/v0.8/vendor/CBORChainlink.sol\":3060:3086  encodeIndefiniteLengthType */\n      tag_266\n        /* \"@chainlink/contracts/src/v0.8/vendor/CBORChainlink.sol\":3060:3109  encodeIndefiniteLengthType(buf, MAJOR_TYPE_ARRAY) */\n      jump\t// in\n    tag_265:\n        /* \"@chainlink/contracts/src/v0.8/vendor/CBORChainlink.sol\":2985:3114  function startArray(BufferChainlink.buffer memory buf) internal pure {... */\n      pop\n      jump\t// out\n        /* \"@chainlink/contracts/src/v0.8/vendor/CBORChainlink.sol\":3247:3384  function endSequence(BufferChainlink.buffer memory buf) internal pure {... */\n    tag_227:\n        /* \"@chainlink/contracts/src/v0.8/vendor/CBORChainlink.sol\":3323:3379  encodeIndefiniteLengthType(buf, MAJOR_TYPE_CONTENT_FREE) */\n      tag_268\n        /* \"@chainlink/contracts/src/v0.8/vendor/CBORChainlink.sol\":3350:3353  buf */\n      dup2\n        /* \"@chainlink/contracts/src/v0.8/vendor/CBORChainlink.sol\":574:575  7 */\n      0x07\n        /* \"@chainlink/contracts/src/v0.8/vendor/CBORChainlink.sol\":3323:3349  encodeIndefiniteLengthType */\n      tag_266\n        /* \"@chainlink/contracts/src/v0.8/vendor/CBORChainlink.sol\":3323:3379  encodeIndefiniteLengthType(buf, MAJOR_TYPE_CONTENT_FREE) */\n      jump\t// in\n    tag_268:\n        /* \"@chainlink/contracts/src/v0.8/vendor/CBORChainlink.sol\":3247:3384  function endSequence(BufferChainlink.buffer memory buf) internal pure {... */\n      pop\n      jump\t// out\n        /* \"@chainlink/contracts/src/v0.8/vendor/BufferChainlink.sol\":1001:1400  function init(buffer memory buf, uint256 capacity) internal pure returns (buffer memory) {... */\n    tag_231:\n        /* \"@chainlink/contracts/src/v0.8/vendor/BufferChainlink.sol\":1075:1088  buffer memory */\n      tag_269\n      tag_270\n      jump\t// in\n    tag_269:\n        /* \"@chainlink/contracts/src/v0.8/vendor/BufferChainlink.sol\":1117:1118  0 */\n      0x00\n        /* \"@chainlink/contracts/src/v0.8/vendor/BufferChainlink.sol\":1111:1113  32 */\n      0x20\n        /* \"@chainlink/contracts/src/v0.8/vendor/BufferChainlink.sol\":1100:1108  capacity */\n      dup4\n        /* \"@chainlink/contracts/src/v0.8/vendor/BufferChainlink.sol\":1100:1113  capacity % 32 */\n      tag_272\n      swap2\n      swap1\n      tag_273\n      jump\t// in\n    tag_272:\n        /* \"@chainlink/contracts/src/v0.8/vendor/BufferChainlink.sol\":1100:1118  capacity % 32 != 0 */\n      eq\n        /* \"@chainlink/contracts/src/v0.8/vendor/BufferChainlink.sol\":1096:1167  if (capacity % 32 != 0) {... */\n      tag_274\n      jumpi\n        /* \"@chainlink/contracts/src/v0.8/vendor/BufferChainlink.sol\":1157:1159  32 */\n      0x20\n        /* \"@chainlink/contracts/src/v0.8/vendor/BufferChainlink.sol\":1146:1154  capacity */\n      dup3\n        /* \"@chainlink/contracts/src/v0.8/vendor/BufferChainlink.sol\":1146:1159  capacity % 32 */\n      tag_275\n      swap2\n      swap1\n      tag_273\n      jump\t// in\n    tag_275:\n        /* \"@chainlink/contracts/src/v0.8/vendor/BufferChainlink.sol\":1140:1142  32 */\n      0x20\n        /* \"@chainlink/contracts/src/v0.8/vendor/BufferChainlink.sol\":1140:1160  32 - (capacity % 32) */\n      tag_276\n      swap2\n      swap1\n      tag_277\n      jump\t// in\n    tag_276:\n        /* \"@chainlink/contracts/src/v0.8/vendor/BufferChainlink.sol\":1128:1160  capacity += 32 - (capacity % 32) */\n      dup3\n      tag_278\n      swap2\n      swap1\n      tag_199\n      jump\t// in\n    tag_278:\n      swap2\n      pop\n        /* \"@chainlink/contracts/src/v0.8/vendor/BufferChainlink.sol\":1096:1167  if (capacity % 32 != 0) {... */\n    tag_274:\n        /* \"@chainlink/contracts/src/v0.8/vendor/BufferChainlink.sol\":1229:1237  capacity */\n      dup2\n        /* \"@chainlink/contracts/src/v0.8/vendor/BufferChainlink.sol\":1214:1217  buf */\n      dup4\n        /* \"@chainlink/contracts/src/v0.8/vendor/BufferChainlink.sol\":1214:1226  buf.capacity */\n      0x20\n      add\n        /* \"@chainlink/contracts/src/v0.8/vendor/BufferChainlink.sol\":1214:1237  buf.capacity = capacity */\n      dup2\n      dup2\n      mstore\n      pop\n      pop\n        /* \"@chainlink/contracts/src/v0.8/vendor/BufferChainlink.sol\":1277:1281  0x40 */\n      0x40\n        /* \"@chainlink/contracts/src/v0.8/vendor/BufferChainlink.sol\":1271:1282  mload(0x40) */\n      mload\n        /* \"@chainlink/contracts/src/v0.8/vendor/BufferChainlink.sol\":1301:1304  ptr */\n      dup1\n        /* \"@chainlink/contracts/src/v0.8/vendor/BufferChainlink.sol\":1296:1299  buf */\n      dup5\n        /* \"@chainlink/contracts/src/v0.8/vendor/BufferChainlink.sol\":1289:1305  mstore(buf, ptr) */\n      mstore\n        /* \"@chainlink/contracts/src/v0.8/vendor/BufferChainlink.sol\":1324:1325  0 */\n      0x00\n        /* \"@chainlink/contracts/src/v0.8/vendor/BufferChainlink.sol\":1319:1322  ptr */\n      dup2\n        /* \"@chainlink/contracts/src/v0.8/vendor/BufferChainlink.sol\":1312:1326  mstore(ptr, 0) */\n      mstore\n        /* \"@chainlink/contracts/src/v0.8/vendor/BufferChainlink.sol\":1363:1371  capacity */\n      dup3\n        /* \"@chainlink/contracts/src/v0.8/vendor/BufferChainlink.sol\":1358:1361  ptr */\n      dup2\n        /* \"@chainlink/contracts/src/v0.8/vendor/BufferChainlink.sol\":1354:1372  add(ptr, capacity) */\n      add\n        /* \"@chainlink/contracts/src/v0.8/vendor/BufferChainlink.sol\":1350:1352  32 */\n      0x20\n        /* \"@chainlink/contracts/src/v0.8/vendor/BufferChainlink.sol\":1346:1373  add(32, add(ptr, capacity)) */\n      add\n        /* \"@chainlink/contracts/src/v0.8/vendor/BufferChainlink.sol\":1340:1344  0x40 */\n      0x40\n        /* \"@chainlink/contracts/src/v0.8/vendor/BufferChainlink.sol\":1333:1374  mstore(0x40, add(32, add(ptr, capacity))) */\n      mstore\n        /* \"@chainlink/contracts/src/v0.8/vendor/BufferChainlink.sol\":1252:1380  {... */\n      pop\n        /* \"@chainlink/contracts/src/v0.8/vendor/BufferChainlink.sol\":1392:1395  buf */\n      dup3\n        /* \"@chainlink/contracts/src/v0.8/vendor/BufferChainlink.sol\":1385:1395  return buf */\n      swap1\n      pop\n        /* \"@chainlink/contracts/src/v0.8/vendor/BufferChainlink.sol\":1001:1400  function init(buffer memory buf, uint256 capacity) internal pure returns (buffer memory) {... */\n      swap3\n      swap2\n      pop\n      pop\n      jump\t// out\n        /* \"@chainlink/contracts/src/v0.8/vendor/CBORChainlink.sol\":682:1307  function encodeFixedNumeric(BufferChainlink.buffer memory buf, uint8 major, uint64 value) private pure {... */\n    tag_234:\n        /* \"@chainlink/contracts/src/v0.8/vendor/CBORChainlink.sol\":803:805  23 */\n      0x17\n        /* \"@chainlink/contracts/src/v0.8/vendor/CBORChainlink.sol\":794:799  value */\n      dup2\n        /* \"@chainlink/contracts/src/v0.8/vendor/CBORChainlink.sol\":794:805  value <= 23 */\n      0xffffffffffffffff\n      and\n      gt\n        /* \"@chainlink/contracts/src/v0.8/vendor/CBORChainlink.sol\":791:1303  if(value <= 23) {... */\n      tag_280\n      jumpi\n        /* \"@chainlink/contracts/src/v0.8/vendor/CBORChainlink.sol\":815:859  buf.appendUint8(uint8((major << 5) | value)) */\n      tag_281\n        /* \"@chainlink/contracts/src/v0.8/vendor/CBORChainlink.sol\":852:857  value */\n      dup2\n        /* \"@chainlink/contracts/src/v0.8/vendor/CBORChainlink.sol\":847:848  5 */\n      0x05\n        /* \"@chainlink/contracts/src/v0.8/vendor/CBORChainlink.sol\":838:843  major */\n      dup5\n        /* \"@chainlink/contracts/src/v0.8/vendor/CBORChainlink.sol\":838:848  major << 5 */\n      0xff\n      and\n      swap1\n      shl\n        /* \"@chainlink/contracts/src/v0.8/vendor/CBORChainlink.sol\":837:857  (major << 5) | value */\n      0xff\n      and\n      or\n        /* \"@chainlink/contracts/src/v0.8/vendor/CBORChainlink.sol\":815:818  buf */\n      dup5\n        /* \"@chainlink/contracts/src/v0.8/vendor/CBORChainlink.sol\":815:830  buf.appendUint8 */\n      tag_282\n      swap1\n        /* \"@chainlink/contracts/src/v0.8/vendor/CBORChainlink.sol\":815:859  buf.appendUint8(uint8((major << 5) | value)) */\n      swap2\n      swap1\n      0xffffffff\n      and\n      jump\t// in\n    tag_281:\n      pop\n        /* \"@chainlink/contracts/src/v0.8/vendor/CBORChainlink.sol\":791:1303  if(value <= 23) {... */\n      jump(tag_283)\n    tag_280:\n        /* \"@chainlink/contracts/src/v0.8/vendor/CBORChainlink.sol\":885:889  0xFF */\n      0xff\n        /* \"@chainlink/contracts/src/v0.8/vendor/CBORChainlink.sol\":876:881  value */\n      dup2\n        /* \"@chainlink/contracts/src/v0.8/vendor/CBORChainlink.sol\":876:889  value <= 0xFF */\n      0xffffffffffffffff\n      and\n      gt\n        /* \"@chainlink/contracts/src/v0.8/vendor/CBORChainlink.sol\":872:1303  if (value <= 0xFF) {... */\n      tag_284\n      jumpi\n        /* \"@chainlink/contracts/src/v0.8/vendor/CBORChainlink.sol\":899:940  buf.appendUint8(uint8((major << 5) | 24)) */\n      tag_285\n        /* \"@chainlink/contracts/src/v0.8/vendor/CBORChainlink.sol\":936:938  24 */\n      0x18\n        /* \"@chainlink/contracts/src/v0.8/vendor/CBORChainlink.sol\":931:932  5 */\n      0x05\n        /* \"@chainlink/contracts/src/v0.8/vendor/CBORChainlink.sol\":922:927  major */\n      dup5\n        /* \"@chainlink/contracts/src/v0.8/vendor/CBORChainlink.sol\":922:932  major << 5 */\n      0xff\n      and\n      swap1\n      shl\n        /* \"@chainlink/contracts/src/v0.8/vendor/CBORChainlink.sol\":921:938  (major << 5) | 24 */\n      or\n        /* \"@chainlink/contracts/src/v0.8/vendor/CBORChainlink.sol\":899:902  buf */\n      dup5\n        /* \"@chainlink/contracts/src/v0.8/vendor/CBORChainlink.sol\":899:914  buf.appendUint8 */\n      tag_282\n      swap1\n        /* \"@chainlink/contracts/src/v0.8/vendor/CBORChainlink.sol\":899:940  buf.appendUint8(uint8((major << 5) | 24)) */\n      swap2\n      swap1\n      0xffffffff\n      and\n      jump\t// in\n    tag_285:\n      pop\n        /* \"@chainlink/contracts/src/v0.8/vendor/CBORChainlink.sol\":948:971  buf.appendInt(value, 1) */\n      tag_286\n        /* \"@chainlink/contracts/src/v0.8/vendor/CBORChainlink.sol\":962:967  value */\n      dup2\n        /* \"@chainlink/contracts/src/v0.8/vendor/CBORChainlink.sol\":948:971  buf.appendInt(value, 1) */\n      0xffffffffffffffff\n      and\n        /* \"@chainlink/contracts/src/v0.8/vendor/CBORChainlink.sol\":969:970  1 */\n      0x01\n        /* \"@chainlink/contracts/src/v0.8/vendor/CBORChainlink.sol\":948:951  buf */\n      dup6\n        /* \"@chainlink/contracts/src/v0.8/vendor/CBORChainlink.sol\":948:961  buf.appendInt */\n      tag_287\n      swap1\n        /* \"@chainlink/contracts/src/v0.8/vendor/CBORChainlink.sol\":948:971  buf.appendInt(value, 1) */\n      swap3\n      swap2\n      swap1\n      0xffffffff\n      and\n      jump\t// in\n    tag_286:\n      pop\n        /* \"@chainlink/contracts/src/v0.8/vendor/CBORChainlink.sol\":872:1303  if (value <= 0xFF) {... */\n      jump(tag_288)\n    tag_284:\n        /* \"@chainlink/contracts/src/v0.8/vendor/CBORChainlink.sol\":997:1003  0xFFFF */\n      0xffff\n        /* \"@chainlink/contracts/src/v0.8/vendor/CBORChainlink.sol\":988:993  value */\n      dup2\n        /* \"@chainlink/contracts/src/v0.8/vendor/CBORChainlink.sol\":988:1003  value <= 0xFFFF */\n      0xffffffffffffffff\n      and\n      gt\n        /* \"@chainlink/contracts/src/v0.8/vendor/CBORChainlink.sol\":984:1303  if (value <= 0xFFFF) {... */\n      tag_289\n      jumpi\n        /* \"@chainlink/contracts/src/v0.8/vendor/CBORChainlink.sol\":1013:1054  buf.appendUint8(uint8((major << 5) | 25)) */\n      tag_290\n        /* \"@chainlink/contracts/src/v0.8/vendor/CBORChainlink.sol\":1050:1052  25 */\n      0x19\n        /* \"@chainlink/contracts/src/v0.8/vendor/CBORChainlink.sol\":1045:1046  5 */\n      0x05\n        /* \"@chainlink/contracts/src/v0.8/vendor/CBORChainlink.sol\":1036:1041  major */\n      dup5\n        /* \"@chainlink/contracts/src/v0.8/vendor/CBORChainlink.sol\":1036:1046  major << 5 */\n      0xff\n      and\n      swap1\n      shl\n        /* \"@chainlink/contracts/src/v0.8/vendor/CBORChainlink.sol\":1035:1052  (major << 5) | 25 */\n      or\n        /* \"@chainlink/contracts/src/v0.8/vendor/CBORChainlink.sol\":1013:1016  buf */\n      dup5\n        /* \"@chainlink/contracts/src/v0.8/vendor/CBORChainlink.sol\":1013:1028  buf.appendUint8 */\n      tag_282\n      swap1\n        /* \"@chainlink/contracts/src/v0.8/vendor/CBORChainlink.sol\":1013:1054  buf.appendUint8(uint8((major << 5) | 25)) */\n      swap2\n      swap1\n      0xffffffff\n      and\n      jump\t// in\n    tag_290:\n      pop\n        /* \"@chainlink/contracts/src/v0.8/vendor/CBORChainlink.sol\":1062:1085  buf.appendInt(value, 2) */\n      tag_291\n        /* \"@chainlink/contracts/src/v0.8/vendor/CBORChainlink.sol\":1076:1081  value */\n      dup2\n        /* \"@chainlink/contracts/src/v0.8/vendor/CBORChainlink.sol\":1062:1085  buf.appendInt(value, 2) */\n      0xffffffffffffffff\n      and\n        /* \"@chainlink/contracts/src/v0.8/vendor/CBORChainlink.sol\":1083:1084  2 */\n      0x02\n        /* \"@chainlink/contracts/src/v0.8/vendor/CBORChainlink.sol\":1062:1065  buf */\n      dup6\n        /* \"@chainlink/contracts/src/v0.8/vendor/CBORChainlink.sol\":1062:1075  buf.appendInt */\n      tag_287\n      swap1\n        /* \"@chainlink/contracts/src/v0.8/vendor/CBORChainlink.sol\":1062:1085  buf.appendInt(value, 2) */\n      swap3\n      swap2\n      swap1\n      0xffffffff\n      and\n      jump\t// in\n    tag_291:\n      pop\n        /* \"@chainlink/contracts/src/v0.8/vendor/CBORChainlink.sol\":984:1303  if (value <= 0xFFFF) {... */\n      jump(tag_292)\n    tag_289:\n        /* \"@chainlink/contracts/src/v0.8/vendor/CBORChainlink.sol\":1111:1121  0xFFFFFFFF */\n      0xffffffff\n        /* \"@chainlink/contracts/src/v0.8/vendor/CBORChainlink.sol\":1102:1107  value */\n      dup2\n        /* \"@chainlink/contracts/src/v0.8/vendor/CBORChainlink.sol\":1102:1121  value <= 0xFFFFFFFF */\n      0xffffffffffffffff\n      and\n      gt\n        /* \"@chainlink/contracts/src/v0.8/vendor/CBORChainlink.sol\":1098:1303  if (value <= 0xFFFFFFFF) {... */\n      tag_293\n      jumpi\n        /* \"@chainlink/contracts/src/v0.8/vendor/CBORChainlink.sol\":1131:1172  buf.appendUint8(uint8((major << 5) | 26)) */\n      tag_294\n        /* \"@chainlink/contracts/src/v0.8/vendor/CBORChainlink.sol\":1168:1170  26 */\n      0x1a\n        /* \"@chainlink/contracts/src/v0.8/vendor/CBORChainlink.sol\":1163:1164  5 */\n      0x05\n        /* \"@chainlink/contracts/src/v0.8/vendor/CBORChainlink.sol\":1154:1159  major */\n      dup5\n        /* \"@chainlink/contracts/src/v0.8/vendor/CBORChainlink.sol\":1154:1164  major << 5 */\n      0xff\n      and\n      swap1\n      shl\n        /* \"@chainlink/contracts/src/v0.8/vendor/CBORChainlink.sol\":1153:1170  (major << 5) | 26 */\n      or\n        /* \"@chainlink/contracts/src/v0.8/vendor/CBORChainlink.sol\":1131:1134  buf */\n      dup5\n        /* \"@chainlink/contracts/src/v0.8/vendor/CBORChainlink.sol\":1131:1146  buf.appendUint8 */\n      tag_282\n      swap1\n        /* \"@chainlink/contracts/src/v0.8/vendor/CBORChainlink.sol\":1131:1172  buf.appendUint8(uint8((major << 5) | 26)) */\n      swap2\n      swap1\n      0xffffffff\n      and\n      jump\t// in\n    tag_294:\n      pop\n        /* \"@chainlink/contracts/src/v0.8/vendor/CBORChainlink.sol\":1180:1203  buf.appendInt(value, 4) */\n      tag_295\n        /* \"@chainlink/contracts/src/v0.8/vendor/CBORChainlink.sol\":1194:1199  value */\n      dup2\n        /* \"@chainlink/contracts/src/v0.8/vendor/CBORChainlink.sol\":1180:1203  buf.appendInt(value, 4) */\n      0xffffffffffffffff\n      and\n        /* \"@chainlink/contracts/src/v0.8/vendor/CBORChainlink.sol\":1201:1202  4 */\n      0x04\n        /* \"@chainlink/contracts/src/v0.8/vendor/CBORChainlink.sol\":1180:1183  buf */\n      dup6\n        /* \"@chainlink/contracts/src/v0.8/vendor/CBORChainlink.sol\":1180:1193  buf.appendInt */\n      tag_287\n      swap1\n        /* \"@chainlink/contracts/src/v0.8/vendor/CBORChainlink.sol\":1180:1203  buf.appendInt(value, 4) */\n      swap3\n      swap2\n      swap1\n      0xffffffff\n      and\n      jump\t// in\n    tag_295:\n      pop\n        /* \"@chainlink/contracts/src/v0.8/vendor/CBORChainlink.sol\":1098:1303  if (value <= 0xFFFFFFFF) {... */\n      jump(tag_296)\n    tag_293:\n        /* \"@chainlink/contracts/src/v0.8/vendor/CBORChainlink.sol\":1224:1265  buf.appendUint8(uint8((major << 5) | 27)) */\n      tag_297\n        /* \"@chainlink/contracts/src/v0.8/vendor/CBORChainlink.sol\":1261:1263  27 */\n      0x1b\n        /* \"@chainlink/contracts/src/v0.8/vendor/CBORChainlink.sol\":1256:1257  5 */\n      0x05\n        /* \"@chainlink/contracts/src/v0.8/vendor/CBORChainlink.sol\":1247:1252  major */\n      dup5\n        /* \"@chainlink/contracts/src/v0.8/vendor/CBORChainlink.sol\":1247:1257  major << 5 */\n      0xff\n      and\n      swap1\n      shl\n        /* \"@chainlink/contracts/src/v0.8/vendor/CBORChainlink.sol\":1246:1263  (major << 5) | 27 */\n      or\n        /* \"@chainlink/contracts/src/v0.8/vendor/CBORChainlink.sol\":1224:1227  buf */\n      dup5\n        /* \"@chainlink/contracts/src/v0.8/vendor/CBORChainlink.sol\":1224:1239  buf.appendUint8 */\n      tag_282\n      swap1\n        /* \"@chainlink/contracts/src/v0.8/vendor/CBORChainlink.sol\":1224:1265  buf.appendUint8(uint8((major << 5) | 27)) */\n      swap2\n      swap1\n      0xffffffff\n      and\n      jump\t// in\n    tag_297:\n      pop\n        /* \"@chainlink/contracts/src/v0.8/vendor/CBORChainlink.sol\":1273:1296  buf.appendInt(value, 8) */\n      tag_298\n        /* \"@chainlink/contracts/src/v0.8/vendor/CBORChainlink.sol\":1287:1292  value */\n      dup2\n        /* \"@chainlink/contracts/src/v0.8/vendor/CBORChainlink.sol\":1273:1296  buf.appendInt(value, 8) */\n      0xffffffffffffffff\n      and\n        /* \"@chainlink/contracts/src/v0.8/vendor/CBORChainlink.sol\":1294:1295  8 */\n      0x08\n        /* \"@chainlink/contracts/src/v0.8/vendor/CBORChainlink.sol\":1273:1276  buf */\n      dup6\n        /* \"@chainlink/contracts/src/v0.8/vendor/CBORChainlink.sol\":1273:1286  buf.appendInt */\n      tag_287\n      swap1\n        /* \"@chainlink/contracts/src/v0.8/vendor/CBORChainlink.sol\":1273:1296  buf.appendInt(value, 8) */\n      swap3\n      swap2\n      swap1\n      0xffffffff\n      and\n      jump\t// in\n    tag_298:\n      pop\n        /* \"@chainlink/contracts/src/v0.8/vendor/CBORChainlink.sol\":1098:1303  if (value <= 0xFFFFFFFF) {... */\n    tag_296:\n        /* \"@chainlink/contracts/src/v0.8/vendor/CBORChainlink.sol\":984:1303  if (value <= 0xFFFF) {... */\n    tag_292:\n        /* \"@chainlink/contracts/src/v0.8/vendor/CBORChainlink.sol\":872:1303  if (value <= 0xFF) {... */\n    tag_288:\n        /* \"@chainlink/contracts/src/v0.8/vendor/CBORChainlink.sol\":791:1303  if(value <= 23) {... */\n    tag_283:\n        /* \"@chainlink/contracts/src/v0.8/vendor/CBORChainlink.sol\":682:1307  function encodeFixedNumeric(BufferChainlink.buffer memory buf, uint8 major, uint64 value) private pure {... */\n      pop\n      pop\n      pop\n      jump\t// out\n        /* \"@chainlink/contracts/src/v0.8/vendor/BufferChainlink.sol\":4692:4847  function append(buffer memory buf, bytes memory data) internal pure returns (buffer memory) {... */\n    tag_236:\n        /* \"@chainlink/contracts/src/v0.8/vendor/BufferChainlink.sol\":4769:4782  buffer memory */\n      tag_299\n      tag_270\n      jump\t// in\n    tag_299:\n        /* \"@chainlink/contracts/src/v0.8/vendor/BufferChainlink.sol\":4797:4842  write(buf, buf.buf.length, data, data.length) */\n      tag_301\n        /* \"@chainlink/contracts/src/v0.8/vendor/BufferChainlink.sol\":4803:4806  buf */\n      dup4\n        /* \"@chainlink/contracts/src/v0.8/vendor/BufferChainlink.sol\":4808:4811  buf */\n      dup5\n        /* \"@chainlink/contracts/src/v0.8/vendor/BufferChainlink.sol\":4808:4815  buf.buf */\n      0x00\n      add\n      mload\n        /* \"@chainlink/contracts/src/v0.8/vendor/BufferChainlink.sol\":4808:4822  buf.buf.length */\n      mload\n        /* \"@chainlink/contracts/src/v0.8/vendor/BufferChainlink.sol\":4824:4828  data */\n      dup5\n        /* \"@chainlink/contracts/src/v0.8/vendor/BufferChainlink.sol\":4830:4834  data */\n      dup6\n        /* \"@chainlink/contracts/src/v0.8/vendor/BufferChainlink.sol\":4830:4841  data.length */\n      mload\n        /* \"@chainlink/contracts/src/v0.8/vendor/BufferChainlink.sol\":4797:4802  write */\n      tag_302\n        /* \"@chainlink/contracts/src/v0.8/vendor/BufferChainlink.sol\":4797:4842  write(buf, buf.buf.length, data, data.length) */\n      jump\t// in\n    tag_301:\n        /* \"@chainlink/contracts/src/v0.8/vendor/BufferChainlink.sol\":4790:4842  return write(buf, buf.buf.length, data, data.length) */\n      swap1\n      pop\n        /* \"@chainlink/contracts/src/v0.8/vendor/BufferChainlink.sol\":4692:4847  function append(buffer memory buf, bytes memory data) internal pure returns (buffer memory) {... */\n      swap3\n      swap2\n      pop\n      pop\n      jump\t// out\n        /* \"@chainlink/contracts/src/v0.8/vendor/CBORChainlink.sol\":2547:2773  function encodeSignedBigNum(BufferChainlink.buffer memory buf, int input) internal pure {... */\n    tag_240:\n        /* \"@chainlink/contracts/src/v0.8/vendor/CBORChainlink.sol\":2641:2713  buf.appendUint8(uint8((MAJOR_TYPE_TAG << 5) | TAG_TYPE_NEGATIVE_BIGNUM)) */\n      tag_304\n        /* \"@chainlink/contracts/src/v0.8/vendor/CBORChainlink.sol\":676:677  3 */\n      0x03\n        /* \"@chainlink/contracts/src/v0.8/vendor/CBORChainlink.sol\":2682:2683  5 */\n      0x05\n        /* \"@chainlink/contracts/src/v0.8/vendor/CBORChainlink.sol\":520:521  6 */\n      0x06\n        /* \"@chainlink/contracts/src/v0.8/vendor/CBORChainlink.sol\":2664:2683  MAJOR_TYPE_TAG << 5 */\n      0xff\n      and\n      swap1\n      shl\n        /* \"@chainlink/contracts/src/v0.8/vendor/CBORChainlink.sol\":2663:2711  (MAJOR_TYPE_TAG << 5) | TAG_TYPE_NEGATIVE_BIGNUM */\n      or\n        /* \"@chainlink/contracts/src/v0.8/vendor/CBORChainlink.sol\":2641:2644  buf */\n      dup4\n        /* \"@chainlink/contracts/src/v0.8/vendor/CBORChainlink.sol\":2641:2656  buf.appendUint8 */\n      tag_282\n      swap1\n        /* \"@chainlink/contracts/src/v0.8/vendor/CBORChainlink.sol\":2641:2713  buf.appendUint8(uint8((MAJOR_TYPE_TAG << 5) | TAG_TYPE_NEGATIVE_BIGNUM)) */\n      swap2\n      swap1\n      0xffffffff\n      and\n      jump\t// in\n    tag_304:\n      pop\n        /* \"@chainlink/contracts/src/v0.8/vendor/CBORChainlink.sol\":2719:2768  encodeBytes(buf, abi.encode(uint256(-1 - input))) */\n      tag_305\n        /* \"@chainlink/contracts/src/v0.8/vendor/CBORChainlink.sol\":2731:2734  buf */\n      dup3\n        /* \"@chainlink/contracts/src/v0.8/vendor/CBORChainlink.sol\":2760:2765  input */\n      dup3\n        /* \"@chainlink/contracts/src/v0.8/vendor/CBORChainlink.sol\":2755:2757  -1 */\n      0xffffffffffffffffffffffffffffffffffffffffffffffffffffffffffffffff\n        /* \"@chainlink/contracts/src/v0.8/vendor/CBORChainlink.sol\":2755:2765  -1 - input */\n      tag_306\n      swap2\n      swap1\n      tag_251\n      jump\t// in\n    tag_306:\n        /* \"@chainlink/contracts/src/v0.8/vendor/CBORChainlink.sol\":2736:2767  abi.encode(uint256(-1 - input)) */\n      add(0x20, mload(0x40))\n      tag_307\n      swap2\n      swap1\n      tag_51\n      jump\t// in\n    tag_307:\n      mload(0x40)\n      0x20\n      dup2\n      dup4\n      sub\n      sub\n      dup2\n      mstore\n      swap1\n      0x40\n      mstore\n        /* \"@chainlink/contracts/src/v0.8/vendor/CBORChainlink.sol\":2719:2730  encodeBytes */\n      tag_308\n        /* \"@chainlink/contracts/src/v0.8/vendor/CBORChainlink.sol\":2719:2768  encodeBytes(buf, abi.encode(uint256(-1 - input))) */\n      jump\t// in\n    tag_305:\n        /* \"@chainlink/contracts/src/v0.8/vendor/CBORChainlink.sol\":2547:2773  function encodeSignedBigNum(BufferChainlink.buffer memory buf, int input) internal pure {... */\n      pop\n      pop\n      jump\t// out\n        /* \"@chainlink/contracts/src/v0.8/vendor/CBORChainlink.sol\":2345:2543  function encodeBigNum(BufferChainlink.buffer memory buf, uint value) internal pure {... */\n    tag_244:\n        /* \"@chainlink/contracts/src/v0.8/vendor/CBORChainlink.sol\":2434:2497  buf.appendUint8(uint8((MAJOR_TYPE_TAG << 5) | TAG_TYPE_BIGNUM)) */\n      tag_310\n        /* \"@chainlink/contracts/src/v0.8/vendor/CBORChainlink.sol\":621:622  2 */\n      0x02\n        /* \"@chainlink/contracts/src/v0.8/vendor/CBORChainlink.sol\":2475:2476  5 */\n      0x05\n        /* \"@chainlink/contracts/src/v0.8/vendor/CBORChainlink.sol\":520:521  6 */\n      0x06\n        /* \"@chainlink/contracts/src/v0.8/vendor/CBORChainlink.sol\":2457:2476  MAJOR_TYPE_TAG << 5 */\n      0xff\n      and\n      swap1\n      shl\n        /* \"@chainlink/contracts/src/v0.8/vendor/CBORChainlink.sol\":2456:2495  (MAJOR_TYPE_TAG << 5) | TAG_TYPE_BIGNUM */\n      or\n        /* \"@chainlink/contracts/src/v0.8/vendor/CBORChainlink.sol\":2434:2437  buf */\n      dup4\n        /* \"@chainlink/contracts/src/v0.8/vendor/CBORChainlink.sol\":2434:2449  buf.appendUint8 */\n      tag_282\n      swap1\n        /* \"@chainlink/contracts/src/v0.8/vendor/CBORChainlink.sol\":2434:2497  buf.appendUint8(uint8((MAJOR_TYPE_TAG << 5) | TAG_TYPE_BIGNUM)) */\n      swap2\n      swap1\n      0xffffffff\n      and\n      jump\t// in\n    tag_310:\n      pop\n        /* \"@chainlink/contracts/src/v0.8/vendor/CBORChainlink.sol\":2503:2538  encodeBytes(buf, abi.encode(value)) */\n      tag_311\n        /* \"@chainlink/contracts/src/v0.8/vendor/CBORChainlink.sol\":2515:2518  buf */\n      dup3\n        /* \"@chainlink/contracts/src/v0.8/vendor/CBORChainlink.sol\":2531:2536  value */\n      dup3\n        /* \"@chainlink/contracts/src/v0.8/vendor/CBORChainlink.sol\":2520:2537  abi.encode(value) */\n      add(0x20, mload(0x40))\n      tag_312\n      swap2\n      swap1\n      tag_51\n      jump\t// in\n    tag_312:\n      mload(0x40)\n      0x20\n      dup2\n      dup4\n      sub\n      sub\n      dup2\n      mstore\n      swap1\n      0x40\n      mstore\n        /* \"@chainlink/contracts/src/v0.8/vendor/CBORChainlink.sol\":2503:2514  encodeBytes */\n      tag_308\n        /* \"@chainlink/contracts/src/v0.8/vendor/CBORChainlink.sol\":2503:2538  encodeBytes(buf, abi.encode(value)) */\n      jump\t// in\n    tag_311:\n        /* \"@chainlink/contracts/src/v0.8/vendor/CBORChainlink.sol\":2345:2543  function encodeBigNum(BufferChainlink.buffer memory buf, uint value) internal pure {... */\n      pop\n      pop\n      jump\t// out\n        /* \"@chainlink/contracts/src/v0.8/vendor/CBORChainlink.sol\":1311:1460  function encodeIndefiniteLengthType(BufferChainlink.buffer memory buf, uint8 major) private pure {... */\n    tag_266:\n        /* \"@chainlink/contracts/src/v0.8/vendor/CBORChainlink.sol\":1414:1455  buf.appendUint8(uint8((major << 5) | 31)) */\n      tag_314\n        /* \"@chainlink/contracts/src/v0.8/vendor/CBORChainlink.sol\":1451:1453  31 */\n      0x1f\n        /* \"@chainlink/contracts/src/v0.8/vendor/CBORChainlink.sol\":1446:1447  5 */\n      0x05\n        /* \"@chainlink/contracts/src/v0.8/vendor/CBORChainlink.sol\":1437:1442  major */\n      dup4\n        /* \"@chainlink/contracts/src/v0.8/vendor/CBORChainlink.sol\":1437:1447  major << 5 */\n      0xff\n      and\n      swap1\n      shl\n        /* \"@chainlink/contracts/src/v0.8/vendor/CBORChainlink.sol\":1436:1453  (major << 5) | 31 */\n      or\n        /* \"@chainlink/contracts/src/v0.8/vendor/CBORChainlink.sol\":1414:1417  buf */\n      dup4\n        /* \"@chainlink/contracts/src/v0.8/vendor/CBORChainlink.sol\":1414:1429  buf.appendUint8 */\n      tag_282\n      swap1\n        /* \"@chainlink/contracts/src/v0.8/vendor/CBORChainlink.sol\":1414:1455  buf.appendUint8(uint8((major << 5) | 31)) */\n      swap2\n      swap1\n      0xffffffff\n      and\n      jump\t// in\n    tag_314:\n      pop\n        /* \"@chainlink/contracts/src/v0.8/vendor/CBORChainlink.sol\":1311:1460  function encodeIndefiniteLengthType(BufferChainlink.buffer memory buf, uint8 major) private pure {... */\n      pop\n      pop\n      jump\t// out\n        /* \"@chainlink/contracts/src/v0.8/vendor/BufferChainlink.sol\":6040:6185  function appendUint8(buffer memory buf, uint8 data) internal pure returns (buffer memory) {... */\n    tag_282:\n        /* \"@chainlink/contracts/src/v0.8/vendor/BufferChainlink.sol\":6115:6128  buffer memory */\n      tag_315\n      tag_270\n      jump\t// in\n    tag_315:\n        /* \"@chainlink/contracts/src/v0.8/vendor/BufferChainlink.sol\":6143:6180  writeUint8(buf, buf.buf.length, data) */\n      tag_317\n        /* \"@chainlink/contracts/src/v0.8/vendor/BufferChainlink.sol\":6154:6157  buf */\n      dup4\n        /* \"@chainlink/contracts/src/v0.8/vendor/BufferChainlink.sol\":6159:6162  buf */\n      dup5\n        /* \"@chainlink/contracts/src/v0.8/vendor/BufferChainlink.sol\":6159:6166  buf.buf */\n      0x00\n      add\n      mload\n        /* \"@chainlink/contracts/src/v0.8/vendor/BufferChainlink.sol\":6159:6173  buf.buf.length */\n      mload\n        /* \"@chainlink/contracts/src/v0.8/vendor/BufferChainlink.sol\":6175:6179  data */\n      dup5\n        /* \"@chainlink/contracts/src/v0.8/vendor/BufferChainlink.sol\":6143:6153  writeUint8 */\n      tag_318\n        /* \"@chainlink/contracts/src/v0.8/vendor/BufferChainlink.sol\":6143:6180  writeUint8(buf, buf.buf.length, data) */\n      jump\t// in\n    tag_317:\n        /* \"@chainlink/contracts/src/v0.8/vendor/BufferChainlink.sol\":6136:6180  return writeUint8(buf, buf.buf.length, data) */\n      swap1\n      pop\n        /* \"@chainlink/contracts/src/v0.8/vendor/BufferChainlink.sol\":6040:6185  function appendUint8(buffer memory buf, uint8 data) internal pure returns (buffer memory) {... */\n      swap3\n      swap2\n      pop\n      pop\n      jump\t// out\n        /* \"@chainlink/contracts/src/v0.8/vendor/BufferChainlink.sol\":9894:10071  function appendInt(... */\n    tag_287:\n        /* \"@chainlink/contracts/src/v0.8/vendor/BufferChainlink.sol\":9998:10011  buffer memory */\n      tag_319\n      tag_270\n      jump\t// in\n    tag_319:\n        /* \"@chainlink/contracts/src/v0.8/vendor/BufferChainlink.sol\":10026:10066  writeInt(buf, buf.buf.length, data, len) */\n      tag_321\n        /* \"@chainlink/contracts/src/v0.8/vendor/BufferChainlink.sol\":10035:10038  buf */\n      dup5\n        /* \"@chainlink/contracts/src/v0.8/vendor/BufferChainlink.sol\":10040:10043  buf */\n      dup6\n        /* \"@chainlink/contracts/src/v0.8/vendor/BufferChainlink.sol\":10040:10047  buf.buf */\n      0x00\n      add\n      mload\n        /* \"@chainlink/contracts/src/v0.8/vendor/BufferChainlink.sol\":10040:10054  buf.buf.length */\n      mload\n        /* \"@chainlink/contracts/src/v0.8/vendor/BufferChainlink.sol\":10056:10060  data */\n      dup6\n        /* \"@chainlink/contracts/src/v0.8/vendor/BufferChainlink.sol\":10062:10065  len */\n      dup6\n        /* \"@chainlink/contracts/src/v0.8/vendor/BufferChainlink.sol\":10026:10034  writeInt */\n      tag_322\n        /* \"@chainlink/contracts/src/v0.8/vendor/BufferChainlink.sol\":10026:10066  writeInt(buf, buf.buf.length, data, len) */\n      jump\t// in\n    tag_321:\n        /* \"@chainlink/contracts/src/v0.8/vendor/BufferChainlink.sol\":10019:10066  return writeInt(buf, buf.buf.length, data, len) */\n      swap1\n      pop\n        /* \"@chainlink/contracts/src/v0.8/vendor/BufferChainlink.sol\":9894:10071  function appendInt(... */\n      swap4\n      swap3\n      pop\n      pop\n      pop\n      jump\t// out\n        /* \"@chainlink/contracts/src/v0.8/vendor/BufferChainlink.sol\":2745:3955  function write(... */\n    tag_302:\n        /* \"@chainlink/contracts/src/v0.8/vendor/BufferChainlink.sol\":2867:2880  buffer memory */\n      tag_323\n      tag_270\n      jump\t// in\n    tag_323:\n        /* \"@chainlink/contracts/src/v0.8/vendor/BufferChainlink.sol\":2903:2907  data */\n      dup3\n        /* \"@chainlink/contracts/src/v0.8/vendor/BufferChainlink.sol\":2903:2914  data.length */\n      mload\n        /* \"@chainlink/contracts/src/v0.8/vendor/BufferChainlink.sol\":2896:2899  len */\n      dup3\n        /* \"@chainlink/contracts/src/v0.8/vendor/BufferChainlink.sol\":2896:2914  len <= data.length */\n      gt\n      iszero\n        /* \"@chainlink/contracts/src/v0.8/vendor/BufferChainlink.sol\":2888:2915  require(len <= data.length) */\n      tag_325\n      jumpi\n      0x00\n      dup1\n      revert\n    tag_325:\n        /* \"@chainlink/contracts/src/v0.8/vendor/BufferChainlink.sol\":2938:2941  buf */\n      dup5\n        /* \"@chainlink/contracts/src/v0.8/vendor/BufferChainlink.sol\":2938:2950  buf.capacity */\n      0x20\n      add\n      mload\n        /* \"@chainlink/contracts/src/v0.8/vendor/BufferChainlink.sol\":2932:2935  len */\n      dup3\n        /* \"@chainlink/contracts/src/v0.8/vendor/BufferChainlink.sol\":2926:2929  off */\n      dup6\n        /* \"@chainlink/contracts/src/v0.8/vendor/BufferChainlink.sol\":2926:2935  off + len */\n      tag_326\n      swap2\n      swap1\n      tag_199\n      jump\t// in\n    tag_326:\n        /* \"@chainlink/contracts/src/v0.8/vendor/BufferChainlink.sol\":2926:2950  off + len > buf.capacity */\n      gt\n        /* \"@chainlink/contracts/src/v0.8/vendor/BufferChainlink.sol\":2922:3012  if (off + len > buf.capacity) {... */\n      iszero\n      tag_327\n      jumpi\n        /* \"@chainlink/contracts/src/v0.8/vendor/BufferChainlink.sol\":2960:3005  resize(buf, max(buf.capacity, len + off) * 2) */\n      tag_328\n        /* \"@chainlink/contracts/src/v0.8/vendor/BufferChainlink.sol\":2967:2970  buf */\n      dup6\n        /* \"@chainlink/contracts/src/v0.8/vendor/BufferChainlink.sol\":3003:3004  2 */\n      0x02\n        /* \"@chainlink/contracts/src/v0.8/vendor/BufferChainlink.sol\":2972:3000  max(buf.capacity, len + off) */\n      tag_329\n        /* \"@chainlink/contracts/src/v0.8/vendor/BufferChainlink.sol\":2976:2979  buf */\n      dup9\n        /* \"@chainlink/contracts/src/v0.8/vendor/BufferChainlink.sol\":2976:2988  buf.capacity */\n      0x20\n      add\n      mload\n        /* \"@chainlink/contracts/src/v0.8/vendor/BufferChainlink.sol\":2996:2999  off */\n      dup9\n        /* \"@chainlink/contracts/src/v0.8/vendor/BufferChainlink.sol\":2990:2993  len */\n      dup8\n        /* \"@chainlink/contracts/src/v0.8/vendor/BufferChainlink.sol\":2990:2999  len + off */\n      tag_330\n      swap2\n      swap1\n      tag_199\n      jump\t// in\n    tag_330:\n        /* \"@chainlink/contracts/src/v0.8/vendor/BufferChainlink.sol\":2972:2975  max */\n      tag_331\n        /* \"@chainlink/contracts/src/v0.8/vendor/BufferChainlink.sol\":2972:3000  max(buf.capacity, len + off) */\n      jump\t// in\n    tag_329:\n        /* \"@chainlink/contracts/src/v0.8/vendor/BufferChainlink.sol\":2972:3004  max(buf.capacity, len + off) * 2 */\n      tag_332\n      swap2\n      swap1\n      tag_97\n      jump\t// in\n    tag_332:\n        /* \"@chainlink/contracts/src/v0.8/vendor/BufferChainlink.sol\":2960:2966  resize */\n      tag_333\n        /* \"@chainlink/contracts/src/v0.8/vendor/BufferChainlink.sol\":2960:3005  resize(buf, max(buf.capacity, len + off) * 2) */\n      jump\t// in\n    tag_328:\n        /* \"@chainlink/contracts/src/v0.8/vendor/BufferChainlink.sol\":2922:3012  if (off + len > buf.capacity) {... */\n    tag_327:\n        /* \"@chainlink/contracts/src/v0.8/vendor/BufferChainlink.sol\":3018:3030  uint256 dest */\n      0x00\n        /* \"@chainlink/contracts/src/v0.8/vendor/BufferChainlink.sol\":3036:3047  uint256 src */\n      dup1\n        /* \"@chainlink/contracts/src/v0.8/vendor/BufferChainlink.sol\":3133:3136  buf */\n      dup7\n        /* \"@chainlink/contracts/src/v0.8/vendor/BufferChainlink.sol\":3127:3137  mload(buf) */\n      mload\n        /* \"@chainlink/contracts/src/v0.8/vendor/BufferChainlink.sol\":3204:3210  bufptr */\n      dup1\n        /* \"@chainlink/contracts/src/v0.8/vendor/BufferChainlink.sol\":3198:3211  mload(bufptr) */\n      mload\n        /* \"@chainlink/contracts/src/v0.8/vendor/BufferChainlink.sol\":3320:3323  off */\n      dup8\n        /* \"@chainlink/contracts/src/v0.8/vendor/BufferChainlink.sol\":3315:3317  32 */\n      0x20\n        /* \"@chainlink/contracts/src/v0.8/vendor/BufferChainlink.sol\":3307:3313  bufptr */\n      dup4\n        /* \"@chainlink/contracts/src/v0.8/vendor/BufferChainlink.sol\":3303:3318  add(bufptr, 32) */\n      add\n        /* \"@chainlink/contracts/src/v0.8/vendor/BufferChainlink.sol\":3299:3324  add(add(bufptr, 32), off) */\n      add\n        /* \"@chainlink/contracts/src/v0.8/vendor/BufferChainlink.sol\":3291:3324  dest := add(add(bufptr, 32), off) */\n      swap4\n      pop\n        /* \"@chainlink/contracts/src/v0.8/vendor/BufferChainlink.sol\":3404:3410  buflen */\n      dup1\n        /* \"@chainlink/contracts/src/v0.8/vendor/BufferChainlink.sol\":3398:3401  off */\n      dup9\n        /* \"@chainlink/contracts/src/v0.8/vendor/BufferChainlink.sol\":3393:3396  len */\n      dup8\n        /* \"@chainlink/contracts/src/v0.8/vendor/BufferChainlink.sol\":3389:3402  add(len, off) */\n      add\n        /* \"@chainlink/contracts/src/v0.8/vendor/BufferChainlink.sol\":3386:3411  gt(add(len, off), buflen) */\n      gt\n        /* \"@chainlink/contracts/src/v0.8/vendor/BufferChainlink.sol\":3383:3459  if gt(add(len, off), buflen) {... */\n      iszero\n      tag_334\n      jumpi\n        /* \"@chainlink/contracts/src/v0.8/vendor/BufferChainlink.sol\":3446:3449  off */\n      dup8\n        /* \"@chainlink/contracts/src/v0.8/vendor/BufferChainlink.sol\":3441:3444  len */\n      dup7\n        /* \"@chainlink/contracts/src/v0.8/vendor/BufferChainlink.sol\":3437:3450  add(len, off) */\n      add\n        /* \"@chainlink/contracts/src/v0.8/vendor/BufferChainlink.sol\":3429:3435  bufptr */\n      dup3\n        /* \"@chainlink/contracts/src/v0.8/vendor/BufferChainlink.sol\":3422:3451  mstore(bufptr, add(len, off)) */\n      mstore\n        /* \"@chainlink/contracts/src/v0.8/vendor/BufferChainlink.sol\":3383:3459  if gt(add(len, off), buflen) {... */\n    tag_334:\n        /* \"@chainlink/contracts/src/v0.8/vendor/BufferChainlink.sol\":3483:3485  32 */\n      0x20\n        /* \"@chainlink/contracts/src/v0.8/vendor/BufferChainlink.sol\":3477:3481  data */\n      dup8\n        /* \"@chainlink/contracts/src/v0.8/vendor/BufferChainlink.sol\":3473:3486  add(data, 32) */\n      add\n        /* \"@chainlink/contracts/src/v0.8/vendor/BufferChainlink.sol\":3466:3486  src := add(data, 32) */\n      swap3\n      pop\n        /* \"@chainlink/contracts/src/v0.8/vendor/BufferChainlink.sol\":3062:3492  {... */\n      pop\n      pop\n        /* \"@chainlink/contracts/src/v0.8/vendor/BufferChainlink.sol\":3544:3673  for (; len >= 32; len -= 32) {... */\n    tag_335:\n        /* \"@chainlink/contracts/src/v0.8/vendor/BufferChainlink.sol\":3558:3560  32 */\n      0x20\n        /* \"@chainlink/contracts/src/v0.8/vendor/BufferChainlink.sol\":3551:3554  len */\n      dup5\n        /* \"@chainlink/contracts/src/v0.8/vendor/BufferChainlink.sol\":3551:3560  len >= 32 */\n      lt\n        /* \"@chainlink/contracts/src/v0.8/vendor/BufferChainlink.sol\":3544:3673  for (; len >= 32; len -= 32) {... */\n      tag_336\n      jumpi\n        /* \"@chainlink/contracts/src/v0.8/vendor/BufferChainlink.sol\":3619:3622  src */\n      dup1\n        /* \"@chainlink/contracts/src/v0.8/vendor/BufferChainlink.sol\":3613:3623  mload(src) */\n      mload\n        /* \"@chainlink/contracts/src/v0.8/vendor/BufferChainlink.sol\":3607:3611  dest */\n      dup3\n        /* \"@chainlink/contracts/src/v0.8/vendor/BufferChainlink.sol\":3600:3624  mstore(dest, mload(src)) */\n      mstore\n        /* \"@chainlink/contracts/src/v0.8/vendor/BufferChainlink.sol\":3647:3649  32 */\n      0x20\n        /* \"@chainlink/contracts/src/v0.8/vendor/BufferChainlink.sol\":3639:3649  dest += 32 */\n      dup3\n      tag_338\n      swap2\n      swap1\n      tag_199\n      jump\t// in\n    tag_338:\n      swap2\n      pop\n        /* \"@chainlink/contracts/src/v0.8/vendor/BufferChainlink.sol\":3664:3666  32 */\n      0x20\n        /* \"@chainlink/contracts/src/v0.8/vendor/BufferChainlink.sol\":3657:3666  src += 32 */\n      dup2\n      tag_339\n      swap2\n      swap1\n      tag_199\n      jump\t// in\n    tag_339:\n      swap1\n      pop\n        /* \"@chainlink/contracts/src/v0.8/vendor/BufferChainlink.sol\":3569:3571  32 */\n      0x20\n        /* \"@chainlink/contracts/src/v0.8/vendor/BufferChainlink.sol\":3562:3571  len -= 32 */\n      dup5\n      tag_340\n      swap2\n      swap1\n      tag_277\n      jump\t// in\n    tag_340:\n      swap4\n      pop\n        /* \"@chainlink/contracts/src/v0.8/vendor/BufferChainlink.sol\":3544:3673  for (; len >= 32; len -= 32) {... */\n      jump(tag_335)\n    tag_336:\n        /* \"@chainlink/contracts/src/v0.8/vendor/BufferChainlink.sol\":3725:3737  uint256 mask */\n      0x00\n        /* \"@chainlink/contracts/src/v0.8/vendor/BufferChainlink.sol\":3760:3761  1 */\n      0x01\n        /* \"@chainlink/contracts/src/v0.8/vendor/BufferChainlink.sol\":3752:3755  len */\n      dup6\n        /* \"@chainlink/contracts/src/v0.8/vendor/BufferChainlink.sol\":3747:3749  32 */\n      0x20\n        /* \"@chainlink/contracts/src/v0.8/vendor/BufferChainlink.sol\":3747:3755  32 - len */\n      sub\n        /* \"@chainlink/contracts/src/v0.8/vendor/BufferChainlink.sol\":3741:3744  256 */\n      0x0100\n        /* \"@chainlink/contracts/src/v0.8/vendor/BufferChainlink.sol\":3741:3756  256**(32 - len) */\n      exp\n        /* \"@chainlink/contracts/src/v0.8/vendor/BufferChainlink.sol\":3740:3761  (256**(32 - len)) - 1 */\n      sub\n        /* \"@chainlink/contracts/src/v0.8/vendor/BufferChainlink.sol\":3725:3761  uint256 mask = (256**(32 - len)) - 1 */\n      swap1\n      pop\n        /* \"@chainlink/contracts/src/v0.8/vendor/BufferChainlink.sol\":3823:3827  mask */\n      dup1\n        /* \"@chainlink/contracts/src/v0.8/vendor/BufferChainlink.sol\":3819:3828  not(mask) */\n      not\n        /* \"@chainlink/contracts/src/v0.8/vendor/BufferChainlink.sol\":3813:3816  src */\n      dup3\n        /* \"@chainlink/contracts/src/v0.8/vendor/BufferChainlink.sol\":3807:3817  mload(src) */\n      mload\n        /* \"@chainlink/contracts/src/v0.8/vendor/BufferChainlink.sol\":3803:3829  and(mload(src), not(mask)) */\n      and\n        /* \"@chainlink/contracts/src/v0.8/vendor/BufferChainlink.sol\":3871:3875  mask */\n      dup2\n        /* \"@chainlink/contracts/src/v0.8/vendor/BufferChainlink.sol\":3864:3868  dest */\n      dup5\n        /* \"@chainlink/contracts/src/v0.8/vendor/BufferChainlink.sol\":3858:3869  mload(dest) */\n      mload\n        /* \"@chainlink/contracts/src/v0.8/vendor/BufferChainlink.sol\":3854:3876  and(mload(dest), mask) */\n      and\n        /* \"@chainlink/contracts/src/v0.8/vendor/BufferChainlink.sol\":3911:3918  srcpart */\n      dup2\n        /* \"@chainlink/contracts/src/v0.8/vendor/BufferChainlink.sol\":3901:3909  destpart */\n      dup2\n        /* \"@chainlink/contracts/src/v0.8/vendor/BufferChainlink.sol\":3898:3919  or(destpart, srcpart) */\n      or\n        /* \"@chainlink/contracts/src/v0.8/vendor/BufferChainlink.sol\":3892:3896  dest */\n      dup6\n        /* \"@chainlink/contracts/src/v0.8/vendor/BufferChainlink.sol\":3885:3920  mstore(dest, or(destpart, srcpart)) */\n      mstore\n        /* \"@chainlink/contracts/src/v0.8/vendor/BufferChainlink.sol\":3778:3928  {... */\n      pop\n      pop\n      pop\n        /* \"@chainlink/contracts/src/v0.8/vendor/BufferChainlink.sol\":3947:3950  buf */\n      dup7\n        /* \"@chainlink/contracts/src/v0.8/vendor/BufferChainlink.sol\":3940:3950  return buf */\n      swap3\n      pop\n      pop\n      pop\n        /* \"@chainlink/contracts/src/v0.8/vendor/BufferChainlink.sol\":2745:3955  function write(... */\n      swap5\n      swap4\n      pop\n      pop\n      pop\n      pop\n      jump\t// out\n        /* \"@chainlink/contracts/src/v0.8/vendor/CBORChainlink.sol\":2154:2341  function encodeBytes(BufferChainlink.buffer memory buf, bytes memory value) internal pure {... */\n    tag_308:\n        /* \"@chainlink/contracts/src/v0.8/vendor/CBORChainlink.sol\":2250:2313  encodeFixedNumeric(buf, MAJOR_TYPE_BYTES, uint64(value.length)) */\n      tag_342\n        /* \"@chainlink/contracts/src/v0.8/vendor/CBORChainlink.sol\":2269:2272  buf */\n      dup3\n        /* \"@chainlink/contracts/src/v0.8/vendor/CBORChainlink.sol\":335:336  2 */\n      0x02\n        /* \"@chainlink/contracts/src/v0.8/vendor/CBORChainlink.sol\":2299:2304  value */\n      dup4\n        /* \"@chainlink/contracts/src/v0.8/vendor/CBORChainlink.sol\":2299:2311  value.length */\n      mload\n        /* \"@chainlink/contracts/src/v0.8/vendor/CBORChainlink.sol\":2250:2268  encodeFixedNumeric */\n      tag_234\n        /* \"@chainlink/contracts/src/v0.8/vendor/CBORChainlink.sol\":2250:2313  encodeFixedNumeric(buf, MAJOR_TYPE_BYTES, uint64(value.length)) */\n      jump\t// in\n    tag_342:\n        /* \"@chainlink/contracts/src/v0.8/vendor/CBORChainlink.sol\":2319:2336  buf.append(value) */\n      tag_343\n        /* \"@chainlink/contracts/src/v0.8/vendor/CBORChainlink.sol\":2330:2335  value */\n      dup2\n        /* \"@chainlink/contracts/src/v0.8/vendor/CBORChainlink.sol\":2319:2322  buf */\n      dup4\n        /* \"@chainlink/contracts/src/v0.8/vendor/CBORChainlink.sol\":2319:2329  buf.append */\n      tag_236\n      swap1\n        /* \"@chainlink/contracts/src/v0.8/vendor/CBORChainlink.sol\":2319:2336  buf.append(value) */\n      swap2\n      swap1\n      0xffffffff\n      and\n      jump\t// in\n    tag_343:\n      pop\n        /* \"@chainlink/contracts/src/v0.8/vendor/CBORChainlink.sol\":2154:2341  function encodeBytes(BufferChainlink.buffer memory buf, bytes memory value) internal pure {... */\n      pop\n      pop\n      jump\t// out\n        /* \"@chainlink/contracts/src/v0.8/vendor/BufferChainlink.sol\":5148:5787  function writeUint8(... */\n    tag_318:\n        /* \"@chainlink/contracts/src/v0.8/vendor/BufferChainlink.sol\":5251:5264  buffer memory */\n      tag_344\n      tag_270\n      jump\t// in\n    tag_344:\n        /* \"@chainlink/contracts/src/v0.8/vendor/BufferChainlink.sol\":5283:5286  buf */\n      dup4\n        /* \"@chainlink/contracts/src/v0.8/vendor/BufferChainlink.sol\":5283:5295  buf.capacity */\n      0x20\n      add\n      mload\n        /* \"@chainlink/contracts/src/v0.8/vendor/BufferChainlink.sol\":5276:5279  off */\n      dup4\n        /* \"@chainlink/contracts/src/v0.8/vendor/BufferChainlink.sol\":5276:5295  off >= buf.capacity */\n      lt\n        /* \"@chainlink/contracts/src/v0.8/vendor/BufferChainlink.sol\":5272:5341  if (off >= buf.capacity) {... */\n      tag_346\n      jumpi\n        /* \"@chainlink/contracts/src/v0.8/vendor/BufferChainlink.sol\":5305:5334  resize(buf, buf.capacity * 2) */\n      tag_347\n        /* \"@chainlink/contracts/src/v0.8/vendor/BufferChainlink.sol\":5312:5315  buf */\n      dup5\n        /* \"@chainlink/contracts/src/v0.8/vendor/BufferChainlink.sol\":5332:5333  2 */\n      0x02\n        /* \"@chainlink/contracts/src/v0.8/vendor/BufferChainlink.sol\":5317:5320  buf */\n      dup7\n        /* \"@chainlink/contracts/src/v0.8/vendor/BufferChainlink.sol\":5317:5329  buf.capacity */\n      0x20\n      add\n      mload\n        /* \"@chainlink/contracts/src/v0.8/vendor/BufferChainlink.sol\":5317:5333  buf.capacity * 2 */\n      tag_348\n      swap2\n      swap1\n      tag_97\n      jump\t// in\n    tag_348:\n        /* \"@chainlink/contracts/src/v0.8/vendor/BufferChainlink.sol\":5305:5311  resize */\n      tag_333\n        /* \"@chainlink/contracts/src/v0.8/vendor/BufferChainlink.sol\":5305:5334  resize(buf, buf.capacity * 2) */\n      jump\t// in\n    tag_347:\n        /* \"@chainlink/contracts/src/v0.8/vendor/BufferChainlink.sol\":5272:5341  if (off >= buf.capacity) {... */\n    tag_346:\n        /* \"@chainlink/contracts/src/v0.8/vendor/BufferChainlink.sol\":5427:5430  buf */\n      dup4\n        /* \"@chainlink/contracts/src/v0.8/vendor/BufferChainlink.sol\":5421:5431  mload(buf) */\n      mload\n        /* \"@chainlink/contracts/src/v0.8/vendor/BufferChainlink.sol\":5498:5504  bufptr */\n      dup1\n        /* \"@chainlink/contracts/src/v0.8/vendor/BufferChainlink.sol\":5492:5505  mload(bufptr) */\n      mload\n        /* \"@chainlink/contracts/src/v0.8/vendor/BufferChainlink.sol\":5610:5612  32 */\n      0x20\n        /* \"@chainlink/contracts/src/v0.8/vendor/BufferChainlink.sol\":5604:5607  off */\n      dup6\n        /* \"@chainlink/contracts/src/v0.8/vendor/BufferChainlink.sol\":5596:5602  bufptr */\n      dup4\n        /* \"@chainlink/contracts/src/v0.8/vendor/BufferChainlink.sol\":5592:5608  add(bufptr, off) */\n      add\n        /* \"@chainlink/contracts/src/v0.8/vendor/BufferChainlink.sol\":5588:5613  add(add(bufptr, off), 32) */\n      add\n        /* \"@chainlink/contracts/src/v0.8/vendor/BufferChainlink.sol\":5634:5638  data */\n      dup5\n        /* \"@chainlink/contracts/src/v0.8/vendor/BufferChainlink.sol\":5628:5632  dest */\n      dup2\n        /* \"@chainlink/contracts/src/v0.8/vendor/BufferChainlink.sol\":5620:5639  mstore8(dest, data) */\n      mstore8\n        /* \"@chainlink/contracts/src/v0.8/vendor/BufferChainlink.sol\":5705:5711  buflen */\n      dup2\n        /* \"@chainlink/contracts/src/v0.8/vendor/BufferChainlink.sol\":5700:5703  off */\n      dup7\n        /* \"@chainlink/contracts/src/v0.8/vendor/BufferChainlink.sol\":5697:5712  eq(off, buflen) */\n      eq\n        /* \"@chainlink/contracts/src/v0.8/vendor/BufferChainlink.sol\":5694:5761  if eq(off, buflen) {... */\n      iszero\n      tag_349\n      jumpi\n        /* \"@chainlink/contracts/src/v0.8/vendor/BufferChainlink.sol\":5750:5751  1 */\n      0x01\n        /* \"@chainlink/contracts/src/v0.8/vendor/BufferChainlink.sol\":5742:5748  buflen */\n      dup3\n        /* \"@chainlink/contracts/src/v0.8/vendor/BufferChainlink.sol\":5738:5752  add(buflen, 1) */\n      add\n        /* \"@chainlink/contracts/src/v0.8/vendor/BufferChainlink.sol\":5730:5736  bufptr */\n      dup4\n        /* \"@chainlink/contracts/src/v0.8/vendor/BufferChainlink.sol\":5723:5753  mstore(bufptr, add(buflen, 1)) */\n      mstore\n        /* \"@chainlink/contracts/src/v0.8/vendor/BufferChainlink.sol\":5694:5761  if eq(off, buflen) {... */\n    tag_349:\n        /* \"@chainlink/contracts/src/v0.8/vendor/BufferChainlink.sol\":5356:5767  {... */\n      pop\n      pop\n      pop\n        /* \"@chainlink/contracts/src/v0.8/vendor/BufferChainlink.sol\":5779:5782  buf */\n      dup4\n        /* \"@chainlink/contracts/src/v0.8/vendor/BufferChainlink.sol\":5772:5782  return buf */\n      swap1\n      pop\n        /* \"@chainlink/contracts/src/v0.8/vendor/BufferChainlink.sol\":5148:5787  function writeUint8(... */\n      swap4\n      swap3\n      pop\n      pop\n      pop\n      jump\t// out\n        /* \"@chainlink/contracts/src/v0.8/vendor/BufferChainlink.sol\":8974:9649  function writeInt(... */\n    tag_322:\n        /* \"@chainlink/contracts/src/v0.8/vendor/BufferChainlink.sol\":9093:9106  buffer memory */\n      tag_350\n      tag_270\n      jump\t// in\n    tag_350:\n        /* \"@chainlink/contracts/src/v0.8/vendor/BufferChainlink.sol\":9130:9133  buf */\n      dup5\n        /* \"@chainlink/contracts/src/v0.8/vendor/BufferChainlink.sol\":9130:9142  buf.capacity */\n      0x20\n      add\n      mload\n        /* \"@chainlink/contracts/src/v0.8/vendor/BufferChainlink.sol\":9124:9127  off */\n      dup5\n        /* \"@chainlink/contracts/src/v0.8/vendor/BufferChainlink.sol\":9118:9121  len */\n      dup4\n        /* \"@chainlink/contracts/src/v0.8/vendor/BufferChainlink.sol\":9118:9127  len + off */\n      tag_352\n      swap2\n      swap1\n      tag_199\n      jump\t// in\n    tag_352:\n        /* \"@chainlink/contracts/src/v0.8/vendor/BufferChainlink.sol\":9118:9142  len + off > buf.capacity */\n      gt\n        /* \"@chainlink/contracts/src/v0.8/vendor/BufferChainlink.sol\":9114:9187  if (len + off > buf.capacity) {... */\n      iszero\n      tag_353\n      jumpi\n        /* \"@chainlink/contracts/src/v0.8/vendor/BufferChainlink.sol\":9152:9180  resize(buf, (len + off) * 2) */\n      tag_354\n        /* \"@chainlink/contracts/src/v0.8/vendor/BufferChainlink.sol\":9159:9162  buf */\n      dup6\n        /* \"@chainlink/contracts/src/v0.8/vendor/BufferChainlink.sol\":9178:9179  2 */\n      0x02\n        /* \"@chainlink/contracts/src/v0.8/vendor/BufferChainlink.sol\":9171:9174  off */\n      dup7\n        /* \"@chainlink/contracts/src/v0.8/vendor/BufferChainlink.sol\":9165:9168  len */\n      dup6\n        /* \"@chainlink/contracts/src/v0.8/vendor/BufferChainlink.sol\":9165:9174  len + off */\n      tag_355\n      swap2\n      swap1\n      tag_199\n      jump\t// in\n    tag_355:\n        /* \"@chainlink/contracts/src/v0.8/vendor/BufferChainlink.sol\":9164:9179  (len + off) * 2 */\n      tag_356\n      swap2\n      swap1\n      tag_97\n      jump\t// in\n    tag_356:\n        /* \"@chainlink/contracts/src/v0.8/vendor/BufferChainlink.sol\":9152:9158  resize */\n      tag_333\n        /* \"@chainlink/contracts/src/v0.8/vendor/BufferChainlink.sol\":9152:9180  resize(buf, (len + off) * 2) */\n      jump\t// in\n    tag_354:\n        /* \"@chainlink/contracts/src/v0.8/vendor/BufferChainlink.sol\":9114:9187  if (len + off > buf.capacity) {... */\n    tag_353:\n        /* \"@chainlink/contracts/src/v0.8/vendor/BufferChainlink.sol\":9193:9205  uint256 mask */\n      0x00\n        /* \"@chainlink/contracts/src/v0.8/vendor/BufferChainlink.sol\":9221:9222  1 */\n      0x01\n        /* \"@chainlink/contracts/src/v0.8/vendor/BufferChainlink.sol\":9214:9217  len */\n      dup4\n        /* \"@chainlink/contracts/src/v0.8/vendor/BufferChainlink.sol\":9209:9212  256 */\n      0x0100\n        /* \"@chainlink/contracts/src/v0.8/vendor/BufferChainlink.sol\":9209:9217  256**len */\n      tag_357\n      swap2\n      swap1\n      tag_358\n      jump\t// in\n    tag_357:\n        /* \"@chainlink/contracts/src/v0.8/vendor/BufferChainlink.sol\":9208:9222  (256**len) - 1 */\n      tag_359\n      swap2\n      swap1\n      tag_277\n      jump\t// in\n    tag_359:\n        /* \"@chainlink/contracts/src/v0.8/vendor/BufferChainlink.sol\":9193:9222  uint256 mask = (256**len) - 1 */\n      swap1\n      pop\n        /* \"@chainlink/contracts/src/v0.8/vendor/BufferChainlink.sol\":9308:9311  buf */\n      dup6\n        /* \"@chainlink/contracts/src/v0.8/vendor/BufferChainlink.sol\":9302:9312  mload(buf) */\n      mload\n        /* \"@chainlink/contracts/src/v0.8/vendor/BufferChainlink.sol\":9423:9426  len */\n      dup4\n        /* \"@chainlink/contracts/src/v0.8/vendor/BufferChainlink.sol\":9417:9420  off */\n      dup7\n        /* \"@chainlink/contracts/src/v0.8/vendor/BufferChainlink.sol\":9409:9415  bufptr */\n      dup3\n        /* \"@chainlink/contracts/src/v0.8/vendor/BufferChainlink.sol\":9405:9421  add(bufptr, off) */\n      add\n        /* \"@chainlink/contracts/src/v0.8/vendor/BufferChainlink.sol\":9401:9427  add(add(bufptr, off), len) */\n      add\n        /* \"@chainlink/contracts/src/v0.8/vendor/BufferChainlink.sol\":9479:9483  data */\n      dup6\n        /* \"@chainlink/contracts/src/v0.8/vendor/BufferChainlink.sol\":9471:9475  mask */\n      dup4\n        /* \"@chainlink/contracts/src/v0.8/vendor/BufferChainlink.sol\":9467:9476  not(mask) */\n      not\n        /* \"@chainlink/contracts/src/v0.8/vendor/BufferChainlink.sol\":9460:9464  dest */\n      dup3\n        /* \"@chainlink/contracts/src/v0.8/vendor/BufferChainlink.sol\":9454:9465  mload(dest) */\n      mload\n        /* \"@chainlink/contracts/src/v0.8/vendor/BufferChainlink.sol\":9450:9477  and(mload(dest), not(mask)) */\n      and\n        /* \"@chainlink/contracts/src/v0.8/vendor/BufferChainlink.sol\":9447:9484  or(and(mload(dest), not(mask)), data) */\n      or\n        /* \"@chainlink/contracts/src/v0.8/vendor/BufferChainlink.sol\":9441:9445  dest */\n      dup2\n        /* \"@chainlink/contracts/src/v0.8/vendor/BufferChainlink.sol\":9434:9485  mstore(dest, or(and(mload(dest), not(mask)), data)) */\n      mstore\n        /* \"@chainlink/contracts/src/v0.8/vendor/BufferChainlink.sol\":9567:9573  bufptr */\n      dup2\n        /* \"@chainlink/contracts/src/v0.8/vendor/BufferChainlink.sol\":9561:9574  mload(bufptr) */\n      mload\n        /* \"@chainlink/contracts/src/v0.8/vendor/BufferChainlink.sol\":9555:9558  len */\n      dup6\n        /* \"@chainlink/contracts/src/v0.8/vendor/BufferChainlink.sol\":9550:9553  off */\n      dup9\n        /* \"@chainlink/contracts/src/v0.8/vendor/BufferChainlink.sol\":9546:9559  add(off, len) */\n      add\n        /* \"@chainlink/contracts/src/v0.8/vendor/BufferChainlink.sol\":9543:9575  gt(add(off, len), mload(bufptr)) */\n      gt\n        /* \"@chainlink/contracts/src/v0.8/vendor/BufferChainlink.sol\":9540:9623  if gt(add(off, len), mload(bufptr)) {... */\n      iszero\n      tag_360\n      jumpi\n        /* \"@chainlink/contracts/src/v0.8/vendor/BufferChainlink.sol\":9610:9613  len */\n      dup5\n        /* \"@chainlink/contracts/src/v0.8/vendor/BufferChainlink.sol\":9605:9608  off */\n      dup8\n        /* \"@chainlink/contracts/src/v0.8/vendor/BufferChainlink.sol\":9601:9614  add(off, len) */\n      add\n        /* \"@chainlink/contracts/src/v0.8/vendor/BufferChainlink.sol\":9593:9599  bufptr */\n      dup3\n        /* \"@chainlink/contracts/src/v0.8/vendor/BufferChainlink.sol\":9586:9615  mstore(bufptr, add(off, len)) */\n      mstore\n        /* \"@chainlink/contracts/src/v0.8/vendor/BufferChainlink.sol\":9540:9623  if gt(add(off, len), mload(bufptr)) {... */\n    tag_360:\n        /* \"@chainlink/contracts/src/v0.8/vendor/BufferChainlink.sol\":9237:9629  {... */\n      pop\n      pop\n        /* \"@chainlink/contracts/src/v0.8/vendor/BufferChainlink.sol\":9641:9644  buf */\n      dup6\n        /* \"@chainlink/contracts/src/v0.8/vendor/BufferChainlink.sol\":9634:9644  return buf */\n      swap2\n      pop\n      pop\n        /* \"@chainlink/contracts/src/v0.8/vendor/BufferChainlink.sol\":8974:9649  function writeInt(... */\n      swap5\n      swap4\n      pop\n      pop\n      pop\n      pop\n      jump\t// out\n        /* \"@chainlink/contracts/src/v0.8/vendor/BufferChainlink.sol\":1961:2085  function max(uint256 a, uint256 b) private pure returns (uint256) {... */\n    tag_331:\n        /* \"@chainlink/contracts/src/v0.8/vendor/BufferChainlink.sol\":2018:2025  uint256 */\n      0x00\n        /* \"@chainlink/contracts/src/v0.8/vendor/BufferChainlink.sol\":2041:2042  b */\n      dup2\n        /* \"@chainlink/contracts/src/v0.8/vendor/BufferChainlink.sol\":2037:2038  a */\n      dup4\n        /* \"@chainlink/contracts/src/v0.8/vendor/BufferChainlink.sol\":2037:2042  a > b */\n      gt\n        /* \"@chainlink/contracts/src/v0.8/vendor/BufferChainlink.sol\":2033:2067  if (a > b) {... */\n      iszero\n      tag_362\n      jumpi\n        /* \"@chainlink/contracts/src/v0.8/vendor/BufferChainlink.sol\":2059:2060  a */\n      dup3\n        /* \"@chainlink/contracts/src/v0.8/vendor/BufferChainlink.sol\":2052:2060  return a */\n      swap1\n      pop\n      jump(tag_361)\n        /* \"@chainlink/contracts/src/v0.8/vendor/BufferChainlink.sol\":2033:2067  if (a > b) {... */\n    tag_362:\n        /* \"@chainlink/contracts/src/v0.8/vendor/BufferChainlink.sol\":2079:2080  b */\n      dup2\n        /* \"@chainlink/contracts/src/v0.8/vendor/BufferChainlink.sol\":2072:2080  return b */\n      swap1\n      pop\n        /* \"@chainlink/contracts/src/v0.8/vendor/BufferChainlink.sol\":1961:2085  function max(uint256 a, uint256 b) private pure returns (uint256) {... */\n    tag_361:\n      swap3\n      swap2\n      pop\n      pop\n      jump\t// out\n        /* \"@chainlink/contracts/src/v0.8/vendor/BufferChainlink.sol\":1801:1957  function resize(buffer memory buf, uint256 capacity) private pure {... */\n    tag_333:\n        /* \"@chainlink/contracts/src/v0.8/vendor/BufferChainlink.sol\":1873:1892  bytes memory oldbuf */\n      0x00\n        /* \"@chainlink/contracts/src/v0.8/vendor/BufferChainlink.sol\":1895:1898  buf */\n      dup3\n        /* \"@chainlink/contracts/src/v0.8/vendor/BufferChainlink.sol\":1895:1902  buf.buf */\n      0x00\n      add\n      mload\n        /* \"@chainlink/contracts/src/v0.8/vendor/BufferChainlink.sol\":1873:1902  bytes memory oldbuf = buf.buf */\n      swap1\n      pop\n        /* \"@chainlink/contracts/src/v0.8/vendor/BufferChainlink.sol\":1908:1927  init(buf, capacity) */\n      tag_364\n        /* \"@chainlink/contracts/src/v0.8/vendor/BufferChainlink.sol\":1913:1916  buf */\n      dup4\n        /* \"@chainlink/contracts/src/v0.8/vendor/BufferChainlink.sol\":1918:1926  capacity */\n      dup4\n        /* \"@chainlink/contracts/src/v0.8/vendor/BufferChainlink.sol\":1908:1912  init */\n      tag_231\n        /* \"@chainlink/contracts/src/v0.8/vendor/BufferChainlink.sol\":1908:1927  init(buf, capacity) */\n      jump\t// in\n    tag_364:\n      pop\n        /* \"@chainlink/contracts/src/v0.8/vendor/BufferChainlink.sol\":1933:1952  append(buf, oldbuf) */\n      tag_365\n        /* \"@chainlink/contracts/src/v0.8/vendor/BufferChainlink.sol\":1940:1943  buf */\n      dup4\n        /* \"@chainlink/contracts/src/v0.8/vendor/BufferChainlink.sol\":1945:1951  oldbuf */\n      dup3\n        /* \"@chainlink/contracts/src/v0.8/vendor/BufferChainlink.sol\":1933:1939  append */\n      tag_236\n        /* \"@chainlink/contracts/src/v0.8/vendor/BufferChainlink.sol\":1933:1952  append(buf, oldbuf) */\n      jump\t// in\n    tag_365:\n      pop\n        /* \"@chainlink/contracts/src/v0.8/vendor/BufferChainlink.sol\":1867:1957  {... */\n      pop\n        /* \"@chainlink/contracts/src/v0.8/vendor/BufferChainlink.sol\":1801:1957  function resize(buffer memory buf, uint256 capacity) private pure {... */\n      pop\n      pop\n      jump\t// out\n    tag_184:\n      mload(0x40)\n      dup1\n      0xa0\n      add\n      0x40\n      mstore\n      dup1\n      0x00\n      dup1\n      not\n      and\n      dup2\n      mstore\n      0x20\n      add\n      and(0xffffffffffffffffffffffffffffffffffffffff, 0x00)\n      dup2\n      mstore\n      0x20\n      add\n      and(not(0xffffffffffffffffffffffffffffffffffffffffffffffffffffffff), 0x00)\n      dup2\n      mstore\n      0x20\n      add\n      0x00\n      dup2\n      mstore\n      0x20\n      add\n      tag_366\n      tag_270\n      jump\t// in\n    tag_366:\n      dup2\n      mstore\n      pop\n      swap1\n      jump\t// out\n    tag_270:\n      mload(0x40)\n      dup1\n      0x40\n      add\n      0x40\n      mstore\n      dup1\n      0x60\n      dup2\n      mstore\n      0x20\n      add\n      0x00\n      dup2\n      mstore\n      pop\n      swap1\n      jump\t// out\n        /* \"#utility.yul\":7:419   */\n    tag_368:\n        /* \"#utility.yul\":85:90   */\n      0x00\n        /* \"#utility.yul\":110:176   */\n      tag_370\n        /* \"#utility.yul\":126:175   */\n      tag_371\n        /* \"#utility.yul\":168:174   */\n      dup5\n        /* \"#utility.yul\":126:175   */\n      tag_372\n      jump\t// in\n    tag_371:\n        /* \"#utility.yul\":110:176   */\n      tag_373\n      jump\t// in\n    tag_370:\n        /* \"#utility.yul\":101:176   */\n      swap1\n      pop\n        /* \"#utility.yul\":199:205   */\n      dup3\n        /* \"#utility.yul\":192:197   */\n      dup2\n        /* \"#utility.yul\":185:206   */\n      mstore\n        /* \"#utility.yul\":237:241   */\n      0x20\n        /* \"#utility.yul\":230:235   */\n      dup2\n        /* \"#utility.yul\":226:242   */\n      add\n        /* \"#utility.yul\":275:278   */\n      dup5\n        /* \"#utility.yul\":266:272   */\n      dup5\n        /* \"#utility.yul\":261:264   */\n      dup5\n        /* \"#utility.yul\":257:273   */\n      add\n        /* \"#utility.yul\":254:279   */\n      gt\n        /* \"#utility.yul\":251:363   */\n      iszero\n      tag_374\n      jumpi\n        /* \"#utility.yul\":282:361   */\n      tag_375\n      tag_376\n      jump\t// in\n    tag_375:\n        /* \"#utility.yul\":251:363   */\n    tag_374:\n        /* \"#utility.yul\":372:413   */\n      tag_377\n        /* \"#utility.yul\":406:412   */\n      dup5\n        /* \"#utility.yul\":401:404   */\n      dup3\n        /* \"#utility.yul\":396:399   */\n      dup6\n        /* \"#utility.yul\":372:413   */\n      tag_378\n      jump\t// in\n    tag_377:\n        /* \"#utility.yul\":91:419   */\n      pop\n        /* \"#utility.yul\":7:419   */\n      swap4\n      swap3\n      pop\n      pop\n      pop\n      jump\t// out\n        /* \"#utility.yul\":425:564   */\n    tag_379:\n        /* \"#utility.yul\":471:476   */\n      0x00\n        /* \"#utility.yul\":509:515   */\n      dup2\n        /* \"#utility.yul\":496:516   */\n      calldataload\n        /* \"#utility.yul\":487:516   */\n      swap1\n      pop\n        /* \"#utility.yul\":525:558   */\n      tag_381\n        /* \"#utility.yul\":552:557   */\n      dup2\n        /* \"#utility.yul\":525:558   */\n      tag_382\n      jump\t// in\n    tag_381:\n        /* \"#utility.yul\":425:564   */\n      swap3\n      swap2\n      pop\n      pop\n      jump\t// out\n        /* \"#utility.yul\":570:707   */\n    tag_383:\n        /* \"#utility.yul\":624:629   */\n      0x00\n        /* \"#utility.yul\":655:661   */\n      dup2\n        /* \"#utility.yul\":649:662   */\n      mload\n        /* \"#utility.yul\":640:662   */\n      swap1\n      pop\n        /* \"#utility.yul\":671:701   */\n      tag_385\n        /* \"#utility.yul\":695:700   */\n      dup2\n        /* \"#utility.yul\":671:701   */\n      tag_386\n      jump\t// in\n    tag_385:\n        /* \"#utility.yul\":570:707   */\n      swap3\n      swap2\n      pop\n      pop\n      jump\t// out\n        /* \"#utility.yul\":713:852   */\n    tag_387:\n        /* \"#utility.yul\":759:764   */\n      0x00\n        /* \"#utility.yul\":797:803   */\n      dup2\n        /* \"#utility.yul\":784:804   */\n      calldataload\n        /* \"#utility.yul\":775:804   */\n      swap1\n      pop\n        /* \"#utility.yul\":813:846   */\n      tag_389\n        /* \"#utility.yul\":840:845   */\n      dup2\n        /* \"#utility.yul\":813:846   */\n      tag_390\n      jump\t// in\n    tag_389:\n        /* \"#utility.yul\":713:852   */\n      swap3\n      swap2\n      pop\n      pop\n      jump\t// out\n        /* \"#utility.yul\":858:995   */\n    tag_391:\n        /* \"#utility.yul\":903:908   */\n      0x00\n        /* \"#utility.yul\":941:947   */\n      dup2\n        /* \"#utility.yul\":928:948   */\n      calldataload\n        /* \"#utility.yul\":919:948   */\n      swap1\n      pop\n        /* \"#utility.yul\":957:989   */\n      tag_393\n        /* \"#utility.yul\":983:988   */\n      dup2\n        /* \"#utility.yul\":957:989   */\n      tag_394\n      jump\t// in\n    tag_393:\n        /* \"#utility.yul\":858:995   */\n      swap3\n      swap2\n      pop\n      pop\n      jump\t// out\n        /* \"#utility.yul\":1001:1138   */\n    tag_395:\n        /* \"#utility.yul\":1046:1051   */\n      0x00\n        /* \"#utility.yul\":1084:1090   */\n      dup2\n        /* \"#utility.yul\":1071:1091   */\n      calldataload\n        /* \"#utility.yul\":1062:1091   */\n      swap1\n      pop\n        /* \"#utility.yul\":1100:1132   */\n      tag_397\n        /* \"#utility.yul\":1126:1131   */\n      dup2\n        /* \"#utility.yul\":1100:1132   */\n      tag_398\n      jump\t// in\n    tag_397:\n        /* \"#utility.yul\":1001:1138   */\n      swap3\n      swap2\n      pop\n      pop\n      jump\t// out\n        /* \"#utility.yul\":1158:1498   */\n    tag_399:\n        /* \"#utility.yul\":1214:1219   */\n      0x00\n        /* \"#utility.yul\":1263:1266   */\n      dup3\n        /* \"#utility.yul\":1256:1260   */\n      0x1f\n        /* \"#utility.yul\":1248:1254   */\n      dup4\n        /* \"#utility.yul\":1244:1261   */\n      add\n        /* \"#utility.yul\":1240:1267   */\n      slt\n        /* \"#utility.yul\":1230:1352   */\n      tag_401\n      jumpi\n        /* \"#utility.yul\":1271:1350   */\n      tag_402\n      tag_403\n      jump\t// in\n    tag_402:\n        /* \"#utility.yul\":1230:1352   */\n    tag_401:\n        /* \"#utility.yul\":1388:1394   */\n      dup2\n        /* \"#utility.yul\":1375:1395   */\n      calldataload\n        /* \"#utility.yul\":1413:1492   */\n      tag_404\n        /* \"#utility.yul\":1488:1491   */\n      dup5\n        /* \"#utility.yul\":1480:1486   */\n      dup3\n        /* \"#utility.yul\":1473:1477   */\n      0x20\n        /* \"#utility.yul\":1465:1471   */\n      dup7\n        /* \"#utility.yul\":1461:1478   */\n      add\n        /* \"#utility.yul\":1413:1492   */\n      tag_368\n      jump\t// in\n    tag_404:\n        /* \"#utility.yul\":1404:1492   */\n      swap2\n      pop\n        /* \"#utility.yul\":1220:1498   */\n      pop\n        /* \"#utility.yul\":1158:1498   */\n      swap3\n      swap2\n      pop\n      pop\n      jump\t// out\n        /* \"#utility.yul\":1504:1643   */\n    tag_405:\n        /* \"#utility.yul\":1550:1555   */\n      0x00\n        /* \"#utility.yul\":1588:1594   */\n      dup2\n        /* \"#utility.yul\":1575:1595   */\n      calldataload\n        /* \"#utility.yul\":1566:1595   */\n      swap1\n      pop\n        /* \"#utility.yul\":1604:1637   */\n      tag_407\n        /* \"#utility.yul\":1631:1636   */\n      dup2\n        /* \"#utility.yul\":1604:1637   */\n      tag_408\n      jump\t// in\n    tag_407:\n        /* \"#utility.yul\":1504:1643   */\n      swap3\n      swap2\n      pop\n      pop\n      jump\t// out\n        /* \"#utility.yul\":1649:1792   */\n    tag_409:\n        /* \"#utility.yul\":1706:1711   */\n      0x00\n        /* \"#utility.yul\":1737:1743   */\n      dup2\n        /* \"#utility.yul\":1731:1744   */\n      mload\n        /* \"#utility.yul\":1722:1744   */\n      swap1\n      pop\n        /* \"#utility.yul\":1753:1786   */\n      tag_411\n        /* \"#utility.yul\":1780:1785   */\n      dup2\n        /* \"#utility.yul\":1753:1786   */\n      tag_408\n      jump\t// in\n    tag_411:\n        /* \"#utility.yul\":1649:1792   */\n      swap3\n      swap2\n      pop\n      pop\n      jump\t// out\n        /* \"#utility.yul\":1798:2127   */\n    tag_69:\n        /* \"#utility.yul\":1857:1863   */\n      0x00\n        /* \"#utility.yul\":1906:1908   */\n      0x20\n        /* \"#utility.yul\":1894:1903   */\n      dup3\n        /* \"#utility.yul\":1885:1892   */\n      dup5\n        /* \"#utility.yul\":1881:1904   */\n      sub\n        /* \"#utility.yul\":1877:1909   */\n      slt\n        /* \"#utility.yul\":1874:1993   */\n      iszero\n      tag_413\n      jumpi\n        /* \"#utility.yul\":1912:1991   */\n      tag_414\n      tag_415\n      jump\t// in\n    tag_414:\n        /* \"#utility.yul\":1874:1993   */\n    tag_413:\n        /* \"#utility.yul\":2032:2033   */\n      0x00\n        /* \"#utility.yul\":2057:2110   */\n      tag_416\n        /* \"#utility.yul\":2102:2109   */\n      dup5\n        /* \"#utility.yul\":2093:2099   */\n      dup3\n        /* \"#utility.yul\":2082:2091   */\n      dup6\n        /* \"#utility.yul\":2078:2100   */\n      add\n        /* \"#utility.yul\":2057:2110   */\n      tag_379\n      jump\t// in\n    tag_416:\n        /* \"#utility.yul\":2047:2110   */\n      swap2\n      pop\n        /* \"#utility.yul\":2003:2120   */\n      pop\n        /* \"#utility.yul\":1798:2127   */\n      swap3\n      swap2\n      pop\n      pop\n      jump\t// out\n        /* \"#utility.yul\":2133:2787   */\n    tag_35:\n        /* \"#utility.yul\":2211:2217   */\n      0x00\n        /* \"#utility.yul\":2219:2225   */\n      dup1\n        /* \"#utility.yul\":2268:2270   */\n      0x40\n        /* \"#utility.yul\":2256:2265   */\n      dup4\n        /* \"#utility.yul\":2247:2254   */\n      dup6\n        /* \"#utility.yul\":2243:2266   */\n      sub\n        /* \"#utility.yul\":2239:2271   */\n      slt\n        /* \"#utility.yul\":2236:2355   */\n      iszero\n      tag_418\n      jumpi\n        /* \"#utility.yul\":2274:2353   */\n      tag_419\n      tag_415\n      jump\t// in\n    tag_419:\n        /* \"#utility.yul\":2236:2355   */\n    tag_418:\n        /* \"#utility.yul\":2394:2395   */\n      0x00\n        /* \"#utility.yul\":2419:2472   */\n      tag_420\n        /* \"#utility.yul\":2464:2471   */\n      dup6\n        /* \"#utility.yul\":2455:2461   */\n      dup3\n        /* \"#utility.yul\":2444:2453   */\n      dup7\n        /* \"#utility.yul\":2440:2462   */\n      add\n        /* \"#utility.yul\":2419:2472   */\n      tag_379\n      jump\t// in\n    tag_420:\n        /* \"#utility.yul\":2409:2472   */\n      swap3\n      pop\n        /* \"#utility.yul\":2365:2482   */\n      pop\n        /* \"#utility.yul\":2549:2551   */\n      0x20\n        /* \"#utility.yul\":2538:2547   */\n      dup4\n        /* \"#utility.yul\":2534:2552   */\n      add\n        /* \"#utility.yul\":2521:2553   */\n      calldataload\n        /* \"#utility.yul\":2580:2598   */\n      0xffffffffffffffff\n        /* \"#utility.yul\":2572:2578   */\n      dup2\n        /* \"#utility.yul\":2569:2599   */\n      gt\n        /* \"#utility.yul\":2566:2683   */\n      iszero\n      tag_421\n      jumpi\n        /* \"#utility.yul\":2602:2681   */\n      tag_422\n      tag_423\n      jump\t// in\n    tag_422:\n        /* \"#utility.yul\":2566:2683   */\n    tag_421:\n        /* \"#utility.yul\":2707:2770   */\n      tag_424\n        /* \"#utility.yul\":2762:2769   */\n      dup6\n        /* \"#utility.yul\":2753:2759   */\n      dup3\n        /* \"#utility.yul\":2742:2751   */\n      dup7\n        /* \"#utility.yul\":2738:2760   */\n      add\n        /* \"#utility.yul\":2707:2770   */\n      tag_399\n      jump\t// in\n    tag_424:\n        /* \"#utility.yul\":2697:2770   */\n      swap2\n      pop\n        /* \"#utility.yul\":2492:2780   */\n      pop\n        /* \"#utility.yul\":2133:2787   */\n      swap3\n      pop\n      swap3\n      swap1\n      pop\n      jump\t// out\n        /* \"#utility.yul\":2793:3138   */\n    tag_120:\n        /* \"#utility.yul\":2860:2866   */\n      0x00\n        /* \"#utility.yul\":2909:2911   */\n      0x20\n        /* \"#utility.yul\":2897:2906   */\n      dup3\n        /* \"#utility.yul\":2888:2895   */\n      dup5\n        /* \"#utility.yul\":2884:2907   */\n      sub\n        /* \"#utility.yul\":2880:2912   */\n      slt\n        /* \"#utility.yul\":2877:2996   */\n      iszero\n      tag_426\n      jumpi\n        /* \"#utility.yul\":2915:2994   */\n      tag_427\n      tag_415\n      jump\t// in\n    tag_427:\n        /* \"#utility.yul\":2877:2996   */\n    tag_426:\n        /* \"#utility.yul\":3035:3036   */\n      0x00\n        /* \"#utility.yul\":3060:3121   */\n      tag_428\n        /* \"#utility.yul\":3113:3120   */\n      dup5\n        /* \"#utility.yul\":3104:3110   */\n      dup3\n        /* \"#utility.yul\":3093:3102   */\n      dup6\n        /* \"#utility.yul\":3089:3111   */\n      add\n        /* \"#utility.yul\":3060:3121   */\n      tag_383\n      jump\t// in\n    tag_428:\n        /* \"#utility.yul\":3050:3121   */\n      swap2\n      pop\n        /* \"#utility.yul\":3006:3131   */\n      pop\n        /* \"#utility.yul\":2793:3138   */\n      swap3\n      swap2\n      pop\n      pop\n      jump\t// out\n        /* \"#utility.yul\":3144:3618   */\n    tag_31:\n        /* \"#utility.yul\":3212:3218   */\n      0x00\n        /* \"#utility.yul\":3220:3226   */\n      dup1\n        /* \"#utility.yul\":3269:3271   */\n      0x40\n        /* \"#utility.yul\":3257:3266   */\n      dup4\n        /* \"#utility.yul\":3248:3255   */\n      dup6\n        /* \"#utility.yul\":3244:3267   */\n      sub\n        /* \"#utility.yul\":3240:3272   */\n      slt\n        /* \"#utility.yul\":3237:3356   */\n      iszero\n      tag_430\n      jumpi\n        /* \"#utility.yul\":3275:3354   */\n      tag_431\n      tag_415\n      jump\t// in\n    tag_431:\n        /* \"#utility.yul\":3237:3356   */\n    tag_430:\n        /* \"#utility.yul\":3395:3396   */\n      0x00\n        /* \"#utility.yul\":3420:3473   */\n      tag_432\n        /* \"#utility.yul\":3465:3472   */\n      dup6\n        /* \"#utility.yul\":3456:3462   */\n      dup3\n        /* \"#utility.yul\":3445:3454   */\n      dup7\n        /* \"#utility.yul\":3441:3463   */\n      add\n        /* \"#utility.yul\":3420:3473   */\n      tag_387\n      jump\t// in\n    tag_432:\n        /* \"#utility.yul\":3410:3473   */\n      swap3\n      pop\n        /* \"#utility.yul\":3366:3483   */\n      pop\n        /* \"#utility.yul\":3522:3524   */\n      0x20\n        /* \"#utility.yul\":3548:3601   */\n      tag_433\n        /* \"#utility.yul\":3593:3600   */\n      dup6\n        /* \"#utility.yul\":3584:3590   */\n      dup3\n        /* \"#utility.yul\":3573:3582   */\n      dup7\n        /* \"#utility.yul\":3569:3591   */\n      add\n        /* \"#utility.yul\":3548:3601   */\n      tag_387\n      jump\t// in\n    tag_433:\n        /* \"#utility.yul\":3538:3601   */\n      swap2\n      pop\n        /* \"#utility.yul\":3493:3611   */\n      pop\n        /* \"#utility.yul\":3144:3618   */\n      swap3\n      pop\n      swap3\n      swap1\n      pop\n      jump\t// out\n        /* \"#utility.yul\":3624:4096   */\n    tag_54:\n        /* \"#utility.yul\":3691:3697   */\n      0x00\n        /* \"#utility.yul\":3699:3705   */\n      dup1\n        /* \"#utility.yul\":3748:3750   */\n      0x40\n        /* \"#utility.yul\":3736:3745   */\n      dup4\n        /* \"#utility.yul\":3727:3734   */\n      dup6\n        /* \"#utility.yul\":3723:3746   */\n      sub\n        /* \"#utility.yul\":3719:3751   */\n      slt\n        /* \"#utility.yul\":3716:3835   */\n      iszero\n      tag_435\n      jumpi\n        /* \"#utility.yul\":3754:3833   */\n      tag_436\n      tag_415\n      jump\t// in\n    tag_436:\n        /* \"#utility.yul\":3716:3835   */\n    tag_435:\n        /* \"#utility.yul\":3874:3875   */\n      0x00\n        /* \"#utility.yul\":3899:3952   */\n      tag_437\n        /* \"#utility.yul\":3944:3951   */\n      dup6\n        /* \"#utility.yul\":3935:3941   */\n      dup3\n        /* \"#utility.yul\":3924:3933   */\n      dup7\n        /* \"#utility.yul\":3920:3942   */\n      add\n        /* \"#utility.yul\":3899:3952   */\n      tag_387\n      jump\t// in\n    tag_437:\n        /* \"#utility.yul\":3889:3952   */\n      swap3\n      pop\n        /* \"#utility.yul\":3845:3962   */\n      pop\n        /* \"#utility.yul\":4001:4003   */\n      0x20\n        /* \"#utility.yul\":4027:4079   */\n      tag_438\n        /* \"#utility.yul\":4071:4078   */\n      dup6\n        /* \"#utility.yul\":4062:4068   */\n      dup3\n        /* \"#utility.yul\":4051:4060   */\n      dup7\n        /* \"#utility.yul\":4047:4069   */\n      add\n        /* \"#utility.yul\":4027:4079   */\n      tag_395\n      jump\t// in\n    tag_438:\n        /* \"#utility.yul\":4017:4079   */\n      swap2\n      pop\n        /* \"#utility.yul\":3972:4089   */\n      pop\n        /* \"#utility.yul\":3624:4096   */\n      swap3\n      pop\n      swap3\n      swap1\n      pop\n      jump\t// out\n        /* \"#utility.yul\":4102:4576   */\n    tag_46:\n        /* \"#utility.yul\":4170:4176   */\n      0x00\n        /* \"#utility.yul\":4178:4184   */\n      dup1\n        /* \"#utility.yul\":4227:4229   */\n      0x40\n        /* \"#utility.yul\":4215:4224   */\n      dup4\n        /* \"#utility.yul\":4206:4213   */\n      dup6\n        /* \"#utility.yul\":4202:4225   */\n      sub\n        /* \"#utility.yul\":4198:4230   */\n      slt\n        /* \"#utility.yul\":4195:4314   */\n      iszero\n      tag_440\n      jumpi\n        /* \"#utility.yul\":4233:4312   */\n      tag_441\n      tag_415\n      jump\t// in\n    tag_441:\n        /* \"#utility.yul\":4195:4314   */\n    tag_440:\n        /* \"#utility.yul\":4353:4354   */\n      0x00\n        /* \"#utility.yul\":4378:4431   */\n      tag_442\n        /* \"#utility.yul\":4423:4430   */\n      dup6\n        /* \"#utility.yul\":4414:4420   */\n      dup3\n        /* \"#utility.yul\":4403:4412   */\n      dup7\n        /* \"#utility.yul\":4399:4421   */\n      add\n        /* \"#utility.yul\":4378:4431   */\n      tag_387\n      jump\t// in\n    tag_442:\n        /* \"#utility.yul\":4368:4431   */\n      swap3\n      pop\n        /* \"#utility.yul\":4324:4441   */\n      pop\n        /* \"#utility.yul\":4480:4482   */\n      0x20\n        /* \"#utility.yul\":4506:4559   */\n      tag_443\n        /* \"#utility.yul\":4551:4558   */\n      dup6\n        /* \"#utility.yul\":4542:4548   */\n      dup3\n        /* \"#utility.yul\":4531:4540   */\n      dup7\n        /* \"#utility.yul\":4527:4549   */\n      add\n        /* \"#utility.yul\":4506:4559   */\n      tag_405\n      jump\t// in\n    tag_443:\n        /* \"#utility.yul\":4496:4559   */\n      swap2\n      pop\n        /* \"#utility.yul\":4451:4569   */\n      pop\n        /* \"#utility.yul\":4102:4576   */\n      swap3\n      pop\n      swap3\n      swap1\n      pop\n      jump\t// out\n        /* \"#utility.yul\":4582:5345   */\n    tag_65:\n        /* \"#utility.yul\":4667:4673   */\n      0x00\n        /* \"#utility.yul\":4675:4681   */\n      dup1\n        /* \"#utility.yul\":4683:4689   */\n      0x00\n        /* \"#utility.yul\":4691:4697   */\n      dup1\n        /* \"#utility.yul\":4740:4743   */\n      0x80\n        /* \"#utility.yul\":4728:4737   */\n      dup6\n        /* \"#utility.yul\":4719:4726   */\n      dup8\n        /* \"#utility.yul\":4715:4738   */\n      sub\n        /* \"#utility.yul\":4711:4744   */\n      slt\n        /* \"#utility.yul\":4708:4828   */\n      iszero\n      tag_445\n      jumpi\n        /* \"#utility.yul\":4747:4826   */\n      tag_446\n      tag_415\n      jump\t// in\n    tag_446:\n        /* \"#utility.yul\":4708:4828   */\n    tag_445:\n        /* \"#utility.yul\":4867:4868   */\n      0x00\n        /* \"#utility.yul\":4892:4945   */\n      tag_447\n        /* \"#utility.yul\":4937:4944   */\n      dup8\n        /* \"#utility.yul\":4928:4934   */\n      dup3\n        /* \"#utility.yul\":4917:4926   */\n      dup9\n        /* \"#utility.yul\":4913:4935   */\n      add\n        /* \"#utility.yul\":4892:4945   */\n      tag_387\n      jump\t// in\n    tag_447:\n        /* \"#utility.yul\":4882:4945   */\n      swap5\n      pop\n        /* \"#utility.yul\":4838:4955   */\n      pop\n        /* \"#utility.yul\":4994:4996   */\n      0x20\n        /* \"#utility.yul\":5020:5073   */\n      tag_448\n        /* \"#utility.yul\":5065:5072   */\n      dup8\n        /* \"#utility.yul\":5056:5062   */\n      dup3\n        /* \"#utility.yul\":5045:5054   */\n      dup9\n        /* \"#utility.yul\":5041:5063   */\n      add\n        /* \"#utility.yul\":5020:5073   */\n      tag_405\n      jump\t// in\n    tag_448:\n        /* \"#utility.yul\":5010:5073   */\n      swap4\n      pop\n        /* \"#utility.yul\":4965:5083   */\n      pop\n        /* \"#utility.yul\":5122:5124   */\n      0x40\n        /* \"#utility.yul\":5148:5200   */\n      tag_449\n        /* \"#utility.yul\":5192:5199   */\n      dup8\n        /* \"#utility.yul\":5183:5189   */\n      dup3\n        /* \"#utility.yul\":5172:5181   */\n      dup9\n        /* \"#utility.yul\":5168:5190   */\n      add\n        /* \"#utility.yul\":5148:5200   */\n      tag_391\n      jump\t// in\n    tag_449:\n        /* \"#utility.yul\":5138:5200   */\n      swap3\n      pop\n        /* \"#utility.yul\":5093:5210   */\n      pop\n        /* \"#utility.yul\":5249:5251   */\n      0x60\n        /* \"#utility.yul\":5275:5328   */\n      tag_450\n        /* \"#utility.yul\":5320:5327   */\n      dup8\n        /* \"#utility.yul\":5311:5317   */\n      dup3\n        /* \"#utility.yul\":5300:5309   */\n      dup9\n        /* \"#utility.yul\":5296:5318   */\n      add\n        /* \"#utility.yul\":5275:5328   */\n      tag_405\n      jump\t// in\n    tag_450:\n        /* \"#utility.yul\":5265:5328   */\n      swap2\n      pop\n        /* \"#utility.yul\":5220:5338   */\n      pop\n        /* \"#utility.yul\":4582:5345   */\n      swap3\n      swap6\n      swap2\n      swap5\n      pop\n      swap3\n      pop\n      jump\t// out\n        /* \"#utility.yul\":5351:5702   */\n    tag_113:\n        /* \"#utility.yul\":5421:5427   */\n      0x00\n        /* \"#utility.yul\":5470:5472   */\n      0x20\n        /* \"#utility.yul\":5458:5467   */\n      dup3\n        /* \"#utility.yul\":5449:5456   */\n      dup5\n        /* \"#utility.yul\":5445:5468   */\n      sub\n        /* \"#utility.yul\":5441:5473   */\n      slt\n        /* \"#utility.yul\":5438:5557   */\n      iszero\n      tag_452\n      jumpi\n        /* \"#utility.yul\":5476:5555   */\n      tag_453\n      tag_415\n      jump\t// in\n    tag_453:\n        /* \"#utility.yul\":5438:5557   */\n    tag_452:\n        /* \"#utility.yul\":5596:5597   */\n      0x00\n        /* \"#utility.yul\":5621:5685   */\n      tag_454\n        /* \"#utility.yul\":5677:5684   */\n      dup5\n        /* \"#utility.yul\":5668:5674   */\n      dup3\n        /* \"#utility.yul\":5657:5666   */\n      dup6\n        /* \"#utility.yul\":5653:5675   */\n      add\n        /* \"#utility.yul\":5621:5685   */\n      tag_409\n      jump\t// in\n    tag_454:\n        /* \"#utility.yul\":5611:5685   */\n      swap2\n      pop\n        /* \"#utility.yul\":5567:5695   */\n      pop\n        /* \"#utility.yul\":5351:5702   */\n      swap3\n      swap2\n      pop\n      pop\n      jump\t// out\n        /* \"#utility.yul\":5708:5826   */\n    tag_455:\n        /* \"#utility.yul\":5795:5819   */\n      tag_457\n        /* \"#utility.yul\":5813:5818   */\n      dup2\n        /* \"#utility.yul\":5795:5819   */\n      tag_458\n      jump\t// in\n    tag_457:\n        /* \"#utility.yul\":5790:5793   */\n      dup3\n        /* \"#utility.yul\":5783:5820   */\n      mstore\n        /* \"#utility.yul\":5708:5826   */\n      pop\n      pop\n      jump\t// out\n        /* \"#utility.yul\":5832:5950   */\n    tag_459:\n        /* \"#utility.yul\":5919:5943   */\n      tag_461\n        /* \"#utility.yul\":5937:5942   */\n      dup2\n        /* \"#utility.yul\":5919:5943   */\n      tag_462\n      jump\t// in\n    tag_461:\n        /* \"#utility.yul\":5914:5917   */\n      dup3\n        /* \"#utility.yul\":5907:5944   */\n      mstore\n        /* \"#utility.yul\":5832:5950   */\n      pop\n      pop\n      jump\t// out\n        /* \"#utility.yul\":5956:6071   */\n    tag_463:\n        /* \"#utility.yul\":6041:6064   */\n      tag_465\n        /* \"#utility.yul\":6058:6063   */\n      dup2\n        /* \"#utility.yul\":6041:6064   */\n      tag_466\n      jump\t// in\n    tag_465:\n        /* \"#utility.yul\":6036:6039   */\n      dup3\n        /* \"#utility.yul\":6029:6065   */\n      mstore\n        /* \"#utility.yul\":5956:6071   */\n      pop\n      pop\n      jump\t// out\n        /* \"#utility.yul\":6077:6437   */\n    tag_467:\n        /* \"#utility.yul\":6163:6166   */\n      0x00\n        /* \"#utility.yul\":6191:6229   */\n      tag_469\n        /* \"#utility.yul\":6223:6228   */\n      dup3\n        /* \"#utility.yul\":6191:6229   */\n      tag_470\n      jump\t// in\n    tag_469:\n        /* \"#utility.yul\":6245:6315   */\n      tag_471\n        /* \"#utility.yul\":6308:6314   */\n      dup2\n        /* \"#utility.yul\":6303:6306   */\n      dup6\n        /* \"#utility.yul\":6245:6315   */\n      tag_472\n      jump\t// in\n    tag_471:\n        /* \"#utility.yul\":6238:6315   */\n      swap4\n      pop\n        /* \"#utility.yul\":6324:6376   */\n      tag_473\n        /* \"#utility.yul\":6369:6375   */\n      dup2\n        /* \"#utility.yul\":6364:6367   */\n      dup6\n        /* \"#utility.yul\":6357:6361   */\n      0x20\n        /* \"#utility.yul\":6350:6355   */\n      dup7\n        /* \"#utility.yul\":6346:6362   */\n      add\n        /* \"#utility.yul\":6324:6376   */\n      tag_474\n      jump\t// in\n    tag_473:\n        /* \"#utility.yul\":6401:6430   */\n      tag_475\n        /* \"#utility.yul\":6423:6429   */\n      dup2\n        /* \"#utility.yul\":6401:6430   */\n      tag_476\n      jump\t// in\n    tag_475:\n        /* \"#utility.yul\":6396:6399   */\n      dup5\n        /* \"#utility.yul\":6392:6431   */\n      add\n        /* \"#utility.yul\":6385:6431   */\n      swap2\n      pop\n        /* \"#utility.yul\":6167:6437   */\n      pop\n        /* \"#utility.yul\":6077:6437   */\n      swap3\n      swap2\n      pop\n      pop\n      jump\t// out\n        /* \"#utility.yul\":6443:6659   */\n    tag_477:\n        /* \"#utility.yul\":6571:6652   */\n      tag_479\n        /* \"#utility.yul\":6591:6651   */\n      tag_480\n        /* \"#utility.yul\":6645:6650   */\n      dup3\n        /* \"#utility.yul\":6591:6651   */\n      tag_481\n      jump\t// in\n    tag_480:\n        /* \"#utility.yul\":6571:6652   */\n      tag_482\n      jump\t// in\n    tag_479:\n        /* \"#utility.yul\":6566:6569   */\n      dup3\n        /* \"#utility.yul\":6559:6653   */\n      mstore\n        /* \"#utility.yul\":6443:6659   */\n      pop\n      pop\n      jump\t// out\n        /* \"#utility.yul\":6665:6780   */\n    tag_483:\n        /* \"#utility.yul\":6750:6773   */\n      tag_485\n        /* \"#utility.yul\":6767:6772   */\n      dup2\n        /* \"#utility.yul\":6750:6773   */\n      tag_486\n      jump\t// in\n    tag_485:\n        /* \"#utility.yul\":6745:6748   */\n      dup3\n        /* \"#utility.yul\":6738:6774   */\n      mstore\n        /* \"#utility.yul\":6665:6780   */\n      pop\n      pop\n      jump\t// out\n        /* \"#utility.yul\":6786:7152   */\n    tag_487:\n        /* \"#utility.yul\":6928:6931   */\n      0x00\n        /* \"#utility.yul\":6949:7016   */\n      tag_489\n        /* \"#utility.yul\":7013:7015   */\n      0x16\n        /* \"#utility.yul\":7008:7011   */\n      dup4\n        /* \"#utility.yul\":6949:7016   */\n      tag_490\n      jump\t// in\n    tag_489:\n        /* \"#utility.yul\":6942:7016   */\n      swap2\n      pop\n        /* \"#utility.yul\":7025:7118   */\n      tag_491\n        /* \"#utility.yul\":7114:7117   */\n      dup3\n        /* \"#utility.yul\":7025:7118   */\n      tag_492\n      jump\t// in\n    tag_491:\n        /* \"#utility.yul\":7143:7145   */\n      0x20\n        /* \"#utility.yul\":7138:7141   */\n      dup3\n        /* \"#utility.yul\":7134:7146   */\n      add\n        /* \"#utility.yul\":7127:7146   */\n      swap1\n      pop\n        /* \"#utility.yul\":6786:7152   */\n      swap2\n      swap1\n      pop\n      jump\t// out\n        /* \"#utility.yul\":7158:7524   */\n    tag_493:\n        /* \"#utility.yul\":7300:7303   */\n      0x00\n        /* \"#utility.yul\":7321:7388   */\n      tag_495\n        /* \"#utility.yul\":7385:7387   */\n      0x23\n        /* \"#utility.yul\":7380:7383   */\n      dup4\n        /* \"#utility.yul\":7321:7388   */\n      tag_490\n      jump\t// in\n    tag_495:\n        /* \"#utility.yul\":7314:7388   */\n      swap2\n      pop\n        /* \"#utility.yul\":7397:7490   */\n      tag_496\n        /* \"#utility.yul\":7486:7489   */\n      dup3\n        /* \"#utility.yul\":7397:7490   */\n      tag_497\n      jump\t// in\n    tag_496:\n        /* \"#utility.yul\":7515:7517   */\n      0x40\n        /* \"#utility.yul\":7510:7513   */\n      dup3\n        /* \"#utility.yul\":7506:7518   */\n      add\n        /* \"#utility.yul\":7499:7518   */\n      swap1\n      pop\n        /* \"#utility.yul\":7158:7524   */\n      swap2\n      swap1\n      pop\n      jump\t// out\n        /* \"#utility.yul\":7530:7896   */\n    tag_498:\n        /* \"#utility.yul\":7672:7675   */\n      0x00\n        /* \"#utility.yul\":7693:7760   */\n      tag_500\n        /* \"#utility.yul\":7757:7759   */\n      0x16\n        /* \"#utility.yul\":7752:7755   */\n      dup4\n        /* \"#utility.yul\":7693:7760   */\n      tag_490\n      jump\t// in\n    tag_500:\n        /* \"#utility.yul\":7686:7760   */\n      swap2\n      pop\n        /* \"#utility.yul\":7769:7862   */\n      tag_501\n        /* \"#utility.yul\":7858:7861   */\n      dup3\n        /* \"#utility.yul\":7769:7862   */\n      tag_502\n      jump\t// in\n    tag_501:\n        /* \"#utility.yul\":7887:7889   */\n      0x20\n        /* \"#utility.yul\":7882:7885   */\n      dup3\n        /* \"#utility.yul\":7878:7890   */\n      add\n        /* \"#utility.yul\":7871:7890   */\n      swap1\n      pop\n        /* \"#utility.yul\":7530:7896   */\n      swap2\n      swap1\n      pop\n      jump\t// out\n        /* \"#utility.yul\":7902:8268   */\n    tag_503:\n        /* \"#utility.yul\":8044:8047   */\n      0x00\n        /* \"#utility.yul\":8065:8132   */\n      tag_505\n        /* \"#utility.yul\":8129:8131   */\n      0x12\n        /* \"#utility.yul\":8124:8127   */\n      dup4\n        /* \"#utility.yul\":8065:8132   */\n      tag_490\n      jump\t// in\n    tag_505:\n        /* \"#utility.yul\":8058:8132   */\n      swap2\n      pop\n        /* \"#utility.yul\":8141:8234   */\n      tag_506\n        /* \"#utility.yul\":8230:8233   */\n      dup3\n        /* \"#utility.yul\":8141:8234   */\n      tag_507\n      jump\t// in\n    tag_506:\n        /* \"#utility.yul\":8259:8261   */\n      0x20\n        /* \"#utility.yul\":8254:8257   */\n      dup3\n        /* \"#utility.yul\":8250:8262   */\n      add\n        /* \"#utility.yul\":8243:8262   */\n      swap1\n      pop\n        /* \"#utility.yul\":7902:8268   */\n      swap2\n      swap1\n      pop\n      jump\t// out\n        /* \"#utility.yul\":8274:8640   */\n    tag_508:\n        /* \"#utility.yul\":8416:8419   */\n      0x00\n        /* \"#utility.yul\":8437:8504   */\n      tag_510\n        /* \"#utility.yul\":8501:8503   */\n      0x17\n        /* \"#utility.yul\":8496:8499   */\n      dup4\n        /* \"#utility.yul\":8437:8504   */\n      tag_490\n      jump\t// in\n    tag_510:\n        /* \"#utility.yul\":8430:8504   */\n      swap2\n      pop\n        /* \"#utility.yul\":8513:8606   */\n      tag_511\n        /* \"#utility.yul\":8602:8605   */\n      dup3\n        /* \"#utility.yul\":8513:8606   */\n      tag_512\n      jump\t// in\n    tag_511:\n        /* \"#utility.yul\":8631:8633   */\n      0x20\n        /* \"#utility.yul\":8626:8629   */\n      dup3\n        /* \"#utility.yul\":8622:8634   */\n      add\n        /* \"#utility.yul\":8615:8634   */\n      swap1\n      pop\n        /* \"#utility.yul\":8274:8640   */\n      swap2\n      swap1\n      pop\n      jump\t// out\n        /* \"#utility.yul\":8646:9012   */\n    tag_513:\n        /* \"#utility.yul\":8788:8791   */\n      0x00\n        /* \"#utility.yul\":8809:8876   */\n      tag_515\n        /* \"#utility.yul\":8873:8875   */\n      0x28\n        /* \"#utility.yul\":8868:8871   */\n      dup4\n        /* \"#utility.yul\":8809:8876   */\n      tag_490\n      jump\t// in\n    tag_515:\n        /* \"#utility.yul\":8802:8876   */\n      swap2\n      pop\n        /* \"#utility.yul\":8885:8978   */\n      tag_516\n        /* \"#utility.yul\":8974:8977   */\n      dup3\n        /* \"#utility.yul\":8885:8978   */\n      tag_517\n      jump\t// in\n    tag_516:\n        /* \"#utility.yul\":9003:9005   */\n      0x40\n        /* \"#utility.yul\":8998:9001   */\n      dup3\n        /* \"#utility.yul\":8994:9006   */\n      add\n        /* \"#utility.yul\":8987:9006   */\n      swap1\n      pop\n        /* \"#utility.yul\":8646:9012   */\n      swap2\n      swap1\n      pop\n      jump\t// out\n        /* \"#utility.yul\":9018:9136   */\n    tag_518:\n        /* \"#utility.yul\":9105:9129   */\n      tag_520\n        /* \"#utility.yul\":9123:9128   */\n      dup2\n        /* \"#utility.yul\":9105:9129   */\n      tag_521\n      jump\t// in\n    tag_520:\n        /* \"#utility.yul\":9100:9103   */\n      dup3\n        /* \"#utility.yul\":9093:9130   */\n      mstore\n        /* \"#utility.yul\":9018:9136   */\n      pop\n      pop\n      jump\t// out\n        /* \"#utility.yul\":9142:9299   */\n    tag_522:\n        /* \"#utility.yul\":9247:9292   */\n      tag_524\n        /* \"#utility.yul\":9267:9291   */\n      tag_525\n        /* \"#utility.yul\":9285:9290   */\n      dup3\n        /* \"#utility.yul\":9267:9291   */\n      tag_521\n      jump\t// in\n    tag_525:\n        /* \"#utility.yul\":9247:9292   */\n      tag_526\n      jump\t// in\n    tag_524:\n        /* \"#utility.yul\":9242:9245   */\n      dup3\n        /* \"#utility.yul\":9235:9293   */\n      mstore\n        /* \"#utility.yul\":9142:9299   */\n      pop\n      pop\n      jump\t// out\n        /* \"#utility.yul\":9305:9748   */\n    tag_254:\n        /* \"#utility.yul\":9468:9471   */\n      0x00\n        /* \"#utility.yul\":9483:9581   */\n      tag_528\n        /* \"#utility.yul\":9577:9580   */\n      dup3\n        /* \"#utility.yul\":9568:9574   */\n      dup6\n        /* \"#utility.yul\":9483:9581   */\n      tag_477\n      jump\t// in\n    tag_528:\n        /* \"#utility.yul\":9606:9608   */\n      0x14\n        /* \"#utility.yul\":9601:9604   */\n      dup3\n        /* \"#utility.yul\":9597:9609   */\n      add\n        /* \"#utility.yul\":9590:9609   */\n      swap2\n      pop\n        /* \"#utility.yul\":9619:9694   */\n      tag_529\n        /* \"#utility.yul\":9690:9693   */\n      dup3\n        /* \"#utility.yul\":9681:9687   */\n      dup5\n        /* \"#utility.yul\":9619:9694   */\n      tag_522\n      jump\t// in\n    tag_529:\n        /* \"#utility.yul\":9719:9721   */\n      0x20\n        /* \"#utility.yul\":9714:9717   */\n      dup3\n        /* \"#utility.yul\":9710:9722   */\n      add\n        /* \"#utility.yul\":9703:9722   */\n      swap2\n      pop\n        /* \"#utility.yul\":9739:9742   */\n      dup2\n        /* \"#utility.yul\":9732:9742   */\n      swap1\n      pop\n        /* \"#utility.yul\":9305:9748   */\n      swap4\n      swap3\n      pop\n      pop\n      pop\n      jump\t// out\n        /* \"#utility.yul\":9754:9976   */\n    tag_24:\n        /* \"#utility.yul\":9847:9851   */\n      0x00\n        /* \"#utility.yul\":9885:9887   */\n      0x20\n        /* \"#utility.yul\":9874:9883   */\n      dup3\n        /* \"#utility.yul\":9870:9888   */\n      add\n        /* \"#utility.yul\":9862:9888   */\n      swap1\n      pop\n        /* \"#utility.yul\":9898:9969   */\n      tag_531\n        /* \"#utility.yul\":9966:9967   */\n      0x00\n        /* \"#utility.yul\":9955:9964   */\n      dup4\n        /* \"#utility.yul\":9951:9968   */\n      add\n        /* \"#utility.yul\":9942:9948   */\n      dup5\n        /* \"#utility.yul\":9898:9969   */\n      tag_455\n      jump\t// in\n    tag_531:\n        /* \"#utility.yul\":9754:9976   */\n      swap3\n      swap2\n      pop\n      pop\n      jump\t// out\n        /* \"#utility.yul\":9982:10314   */\n    tag_115:\n        /* \"#utility.yul\":10103:10107   */\n      0x00\n        /* \"#utility.yul\":10141:10143   */\n      0x40\n        /* \"#utility.yul\":10130:10139   */\n      dup3\n        /* \"#utility.yul\":10126:10144   */\n      add\n        /* \"#utility.yul\":10118:10144   */\n      swap1\n      pop\n        /* \"#utility.yul\":10154:10225   */\n      tag_533\n        /* \"#utility.yul\":10222:10223   */\n      0x00\n        /* \"#utility.yul\":10211:10220   */\n      dup4\n        /* \"#utility.yul\":10207:10224   */\n      add\n        /* \"#utility.yul\":10198:10204   */\n      dup6\n        /* \"#utility.yul\":10154:10225   */\n      tag_455\n      jump\t// in\n    tag_533:\n        /* \"#utility.yul\":10235:10307   */\n      tag_534\n        /* \"#utility.yul\":10303:10305   */\n      0x20\n        /* \"#utility.yul\":10292:10301   */\n      dup4\n        /* \"#utility.yul\":10288:10306   */\n      add\n        /* \"#utility.yul\":10279:10285   */\n      dup5\n        /* \"#utility.yul\":10235:10307   */\n      tag_518\n      jump\t// in\n    tag_534:\n        /* \"#utility.yul\":9982:10314   */\n      swap4\n      swap3\n      pop\n      pop\n      pop\n      jump\t// out\n        /* \"#utility.yul\":10320:11400   */\n    tag_201:\n        /* \"#utility.yul\":10625:10629   */\n      0x00\n        /* \"#utility.yul\":10663:10666   */\n      0x0100\n        /* \"#utility.yul\":10652:10661   */\n      dup3\n        /* \"#utility.yul\":10648:10667   */\n      add\n        /* \"#utility.yul\":10640:10667   */\n      swap1\n      pop\n        /* \"#utility.yul\":10677:10748   */\n      tag_536\n        /* \"#utility.yul\":10745:10746   */\n      0x00\n        /* \"#utility.yul\":10734:10743   */\n      dup4\n        /* \"#utility.yul\":10730:10747   */\n      add\n        /* \"#utility.yul\":10721:10727   */\n      dup12\n        /* \"#utility.yul\":10677:10748   */\n      tag_455\n      jump\t// in\n    tag_536:\n        /* \"#utility.yul\":10758:10830   */\n      tag_537\n        /* \"#utility.yul\":10826:10828   */\n      0x20\n        /* \"#utility.yul\":10815:10824   */\n      dup4\n        /* \"#utility.yul\":10811:10829   */\n      add\n        /* \"#utility.yul\":10802:10808   */\n      dup11\n        /* \"#utility.yul\":10758:10830   */\n      tag_518\n      jump\t// in\n    tag_537:\n        /* \"#utility.yul\":10840:10912   */\n      tag_538\n        /* \"#utility.yul\":10908:10910   */\n      0x40\n        /* \"#utility.yul\":10897:10906   */\n      dup4\n        /* \"#utility.yul\":10893:10911   */\n      add\n        /* \"#utility.yul\":10884:10890   */\n      dup10\n        /* \"#utility.yul\":10840:10912   */\n      tag_459\n      jump\t// in\n    tag_538:\n        /* \"#utility.yul\":10922:10994   */\n      tag_539\n        /* \"#utility.yul\":10990:10992   */\n      0x60\n        /* \"#utility.yul\":10979:10988   */\n      dup4\n        /* \"#utility.yul\":10975:10993   */\n      add\n        /* \"#utility.yul\":10966:10972   */\n      dup9\n        /* \"#utility.yul\":10922:10994   */\n      tag_455\n      jump\t// in\n    tag_539:\n        /* \"#utility.yul\":11004:11075   */\n      tag_540\n        /* \"#utility.yul\":11070:11073   */\n      0x80\n        /* \"#utility.yul\":11059:11068   */\n      dup4\n        /* \"#utility.yul\":11055:11074   */\n      add\n        /* \"#utility.yul\":11046:11052   */\n      dup8\n        /* \"#utility.yul\":11004:11075   */\n      tag_463\n      jump\t// in\n    tag_540:\n        /* \"#utility.yul\":11085:11158   */\n      tag_541\n        /* \"#utility.yul\":11153:11156   */\n      0xa0\n        /* \"#utility.yul\":11142:11151   */\n      dup4\n        /* \"#utility.yul\":11138:11157   */\n      add\n        /* \"#utility.yul\":11129:11135   */\n      dup7\n        /* \"#utility.yul\":11085:11158   */\n      tag_518\n      jump\t// in\n    tag_541:\n        /* \"#utility.yul\":11168:11241   */\n      tag_542\n        /* \"#utility.yul\":11236:11239   */\n      0xc0\n        /* \"#utility.yul\":11225:11234   */\n      dup4\n        /* \"#utility.yul\":11221:11240   */\n      add\n        /* \"#utility.yul\":11212:11218   */\n      dup6\n        /* \"#utility.yul\":11168:11241   */\n      tag_518\n      jump\t// in\n    tag_542:\n        /* \"#utility.yul\":11289:11298   */\n      dup2\n        /* \"#utility.yul\":11283:11287   */\n      dup2\n        /* \"#utility.yul\":11279:11299   */\n      sub\n        /* \"#utility.yul\":11273:11276   */\n      0xe0\n        /* \"#utility.yul\":11262:11271   */\n      dup4\n        /* \"#utility.yul\":11258:11277   */\n      add\n        /* \"#utility.yul\":11251:11300   */\n      mstore\n        /* \"#utility.yul\":11317:11393   */\n      tag_543\n        /* \"#utility.yul\":11388:11392   */\n      dup2\n        /* \"#utility.yul\":11379:11385   */\n      dup5\n        /* \"#utility.yul\":11317:11393   */\n      tag_467\n      jump\t// in\n    tag_543:\n        /* \"#utility.yul\":11309:11393   */\n      swap1\n      pop\n        /* \"#utility.yul\":10320:11400   */\n      swap10\n      swap9\n      pop\n      pop\n      pop\n      pop\n      pop\n      pop\n      pop\n      pop\n      pop\n      jump\t// out\n        /* \"#utility.yul\":11406:11935   */\n    tag_256:\n        /* \"#utility.yul\":11573:11577   */\n      0x00\n        /* \"#utility.yul\":11611:11613   */\n      0x60\n        /* \"#utility.yul\":11600:11609   */\n      dup3\n        /* \"#utility.yul\":11596:11614   */\n      add\n        /* \"#utility.yul\":11588:11614   */\n      swap1\n      pop\n        /* \"#utility.yul\":11624:11695   */\n      tag_545\n        /* \"#utility.yul\":11692:11693   */\n      0x00\n        /* \"#utility.yul\":11681:11690   */\n      dup4\n        /* \"#utility.yul\":11677:11694   */\n      add\n        /* \"#utility.yul\":11668:11674   */\n      dup7\n        /* \"#utility.yul\":11624:11695   */\n      tag_455\n      jump\t// in\n    tag_545:\n        /* \"#utility.yul\":11705:11777   */\n      tag_546\n        /* \"#utility.yul\":11773:11775   */\n      0x20\n        /* \"#utility.yul\":11762:11771   */\n      dup4\n        /* \"#utility.yul\":11758:11776   */\n      add\n        /* \"#utility.yul\":11749:11755   */\n      dup6\n        /* \"#utility.yul\":11705:11777   */\n      tag_518\n      jump\t// in\n    tag_546:\n        /* \"#utility.yul\":11824:11833   */\n      dup2\n        /* \"#utility.yul\":11818:11822   */\n      dup2\n        /* \"#utility.yul\":11814:11834   */\n      sub\n        /* \"#utility.yul\":11809:11811   */\n      0x40\n        /* \"#utility.yul\":11798:11807   */\n      dup4\n        /* \"#utility.yul\":11794:11812   */\n      add\n        /* \"#utility.yul\":11787:11835   */\n      mstore\n        /* \"#utility.yul\":11852:11928   */\n      tag_547\n        /* \"#utility.yul\":11923:11927   */\n      dup2\n        /* \"#utility.yul\":11914:11920   */\n      dup5\n        /* \"#utility.yul\":11852:11928   */\n      tag_467\n      jump\t// in\n    tag_547:\n        /* \"#utility.yul\":11844:11928   */\n      swap1\n      pop\n        /* \"#utility.yul\":11406:11935   */\n      swap5\n      swap4\n      pop\n      pop\n      pop\n      pop\n      jump\t// out\n        /* \"#utility.yul\":11941:12163   */\n    tag_62:\n        /* \"#utility.yul\":12034:12038   */\n      0x00\n        /* \"#utility.yul\":12072:12074   */\n      0x20\n        /* \"#utility.yul\":12061:12070   */\n      dup3\n        /* \"#utility.yul\":12057:12075   */\n      add\n        /* \"#utility.yul\":12049:12075   */\n      swap1\n      pop\n        /* \"#utility.yul\":12085:12156   */\n      tag_549\n        /* \"#utility.yul\":12153:12154   */\n      0x00\n        /* \"#utility.yul\":12142:12151   */\n      dup4\n        /* \"#utility.yul\":12138:12155   */\n      add\n        /* \"#utility.yul\":12129:12135   */\n      dup5\n        /* \"#utility.yul\":12085:12156   */\n      tag_459\n      jump\t// in\n    tag_549:\n        /* \"#utility.yul\":11941:12163   */\n      swap3\n      swap2\n      pop\n      pop\n      jump\t// out\n        /* \"#utility.yul\":12169:12718   */\n    tag_206:\n        /* \"#utility.yul\":12344:12348   */\n      0x00\n        /* \"#utility.yul\":12382:12385   */\n      0x80\n        /* \"#utility.yul\":12371:12380   */\n      dup3\n        /* \"#utility.yul\":12367:12386   */\n      add\n        /* \"#utility.yul\":12359:12386   */\n      swap1\n      pop\n        /* \"#utility.yul\":12396:12467   */\n      tag_551\n        /* \"#utility.yul\":12464:12465   */\n      0x00\n        /* \"#utility.yul\":12453:12462   */\n      dup4\n        /* \"#utility.yul\":12449:12466   */\n      add\n        /* \"#utility.yul\":12440:12446   */\n      dup8\n        /* \"#utility.yul\":12396:12467   */\n      tag_459\n      jump\t// in\n    tag_551:\n        /* \"#utility.yul\":12477:12549   */\n      tag_552\n        /* \"#utility.yul\":12545:12547   */\n      0x20\n        /* \"#utility.yul\":12534:12543   */\n      dup4\n        /* \"#utility.yul\":12530:12548   */\n      add\n        /* \"#utility.yul\":12521:12527   */\n      dup7\n        /* \"#utility.yul\":12477:12549   */\n      tag_518\n      jump\t// in\n    tag_552:\n        /* \"#utility.yul\":12559:12629   */\n      tag_553\n        /* \"#utility.yul\":12625:12627   */\n      0x40\n        /* \"#utility.yul\":12614:12623   */\n      dup4\n        /* \"#utility.yul\":12610:12628   */\n      add\n        /* \"#utility.yul\":12601:12607   */\n      dup6\n        /* \"#utility.yul\":12559:12629   */\n      tag_463\n      jump\t// in\n    tag_553:\n        /* \"#utility.yul\":12639:12711   */\n      tag_554\n        /* \"#utility.yul\":12707:12709   */\n      0x60\n        /* \"#utility.yul\":12696:12705   */\n      dup4\n        /* \"#utility.yul\":12692:12710   */\n      add\n        /* \"#utility.yul\":12683:12689   */\n      dup5\n        /* \"#utility.yul\":12639:12711   */\n      tag_518\n      jump\t// in\n    tag_554:\n        /* \"#utility.yul\":12169:12718   */\n      swap6\n      swap5\n      pop\n      pop\n      pop\n      pop\n      pop\n      jump\t// out\n        /* \"#utility.yul\":12724:12942   */\n    tag_28:\n        /* \"#utility.yul\":12815:12819   */\n      0x00\n        /* \"#utility.yul\":12853:12855   */\n      0x20\n        /* \"#utility.yul\":12842:12851   */\n      dup3\n        /* \"#utility.yul\":12838:12856   */\n      add\n        /* \"#utility.yul\":12830:12856   */\n      swap1\n      pop\n        /* \"#utility.yul\":12866:12935   */\n      tag_556\n        /* \"#utility.yul\":12932:12933   */\n      0x00\n        /* \"#utility.yul\":12921:12930   */\n      dup4\n        /* \"#utility.yul\":12917:12934   */\n      add\n        /* \"#utility.yul\":12908:12914   */\n      dup5\n        /* \"#utility.yul\":12866:12935   */\n      tag_483\n      jump\t// in\n    tag_556:\n        /* \"#utility.yul\":12724:12942   */\n      swap3\n      swap2\n      pop\n      pop\n      jump\t// out\n        /* \"#utility.yul\":12948:13367   */\n    tag_102:\n        /* \"#utility.yul\":13114:13118   */\n      0x00\n        /* \"#utility.yul\":13152:13154   */\n      0x20\n        /* \"#utility.yul\":13141:13150   */\n      dup3\n        /* \"#utility.yul\":13137:13155   */\n      add\n        /* \"#utility.yul\":13129:13155   */\n      swap1\n      pop\n        /* \"#utility.yul\":13201:13210   */\n      dup2\n        /* \"#utility.yul\":13195:13199   */\n      dup2\n        /* \"#utility.yul\":13191:13211   */\n      sub\n        /* \"#utility.yul\":13187:13188   */\n      0x00\n        /* \"#utility.yul\":13176:13185   */\n      dup4\n        /* \"#utility.yul\":13172:13189   */\n      add\n        /* \"#utility.yul\":13165:13212   */\n      mstore\n        /* \"#utility.yul\":13229:13360   */\n      tag_558\n        /* \"#utility.yul\":13355:13359   */\n      dup2\n        /* \"#utility.yul\":13229:13360   */\n      tag_487\n      jump\t// in\n    tag_558:\n        /* \"#utility.yul\":13221:13360   */\n      swap1\n      pop\n        /* \"#utility.yul\":12948:13367   */\n      swap2\n      swap1\n      pop\n      jump\t// out\n        /* \"#utility.yul\":13373:13792   */\n    tag_263:\n        /* \"#utility.yul\":13539:13543   */\n      0x00\n        /* \"#utility.yul\":13577:13579   */\n      0x20\n        /* \"#utility.yul\":13566:13575   */\n      dup3\n        /* \"#utility.yul\":13562:13580   */\n      add\n        /* \"#utility.yul\":13554:13580   */\n      swap1\n      pop\n        /* \"#utility.yul\":13626:13635   */\n      dup2\n        /* \"#utility.yul\":13620:13624   */\n      dup2\n        /* \"#utility.yul\":13616:13636   */\n      sub\n        /* \"#utility.yul\":13612:13613   */\n      0x00\n        /* \"#utility.yul\":13601:13610   */\n      dup4\n        /* \"#utility.yul\":13597:13614   */\n      add\n        /* \"#utility.yul\":13590:13637   */\n      mstore\n        /* \"#utility.yul\":13654:13785   */\n      tag_560\n        /* \"#utility.yul\":13780:13784   */\n      dup2\n        /* \"#utility.yul\":13654:13785   */\n      tag_493\n      jump\t// in\n    tag_560:\n        /* \"#utility.yul\":13646:13785   */\n      swap1\n      pop\n        /* \"#utility.yul\":13373:13792   */\n      swap2\n      swap1\n      pop\n      jump\t// out\n        /* \"#utility.yul\":13798:14217   */\n    tag_180:\n        /* \"#utility.yul\":13964:13968   */\n      0x00\n        /* \"#utility.yul\":14002:14004   */\n      0x20\n        /* \"#utility.yul\":13991:14000   */\n      dup3\n        /* \"#utility.yul\":13987:14005   */\n      add\n        /* \"#utility.yul\":13979:14005   */\n      swap1\n      pop\n        /* \"#utility.yul\":14051:14060   */\n      dup2\n        /* \"#utility.yul\":14045:14049   */\n      dup2\n        /* \"#utility.yul\":14041:14061   */\n      sub\n        /* \"#utility.yul\":14037:14038   */\n      0x00\n        /* \"#utility.yul\":14026:14035   */\n      dup4\n        /* \"#utility.yul\":14022:14039   */\n      add\n        /* \"#utility.yul\":14015:14062   */\n      mstore\n        /* \"#utility.yul\":14079:14210   */\n      tag_562\n        /* \"#utility.yul\":14205:14209   */\n      dup2\n        /* \"#utility.yul\":14079:14210   */\n      tag_498\n      jump\t// in\n    tag_562:\n        /* \"#utility.yul\":14071:14210   */\n      swap1\n      pop\n        /* \"#utility.yul\":13798:14217   */\n      swap2\n      swap1\n      pop\n      jump\t// out\n        /* \"#utility.yul\":14223:14642   */\n    tag_123:\n        /* \"#utility.yul\":14389:14393   */\n      0x00\n        /* \"#utility.yul\":14427:14429   */\n      0x20\n        /* \"#utility.yul\":14416:14425   */\n      dup3\n        /* \"#utility.yul\":14412:14430   */\n      add\n        /* \"#utility.yul\":14404:14430   */\n      swap1\n      pop\n        /* \"#utility.yul\":14476:14485   */\n      dup2\n        /* \"#utility.yul\":14470:14474   */\n      dup2\n        /* \"#utility.yul\":14466:14486   */\n      sub\n        /* \"#utility.yul\":14462:14463   */\n      0x00\n        /* \"#utility.yul\":14451:14460   */\n      dup4\n        /* \"#utility.yul\":14447:14464   */\n      add\n        /* \"#utility.yul\":14440:14487   */\n      mstore\n        /* \"#utility.yul\":14504:14635   */\n      tag_564\n        /* \"#utility.yul\":14630:14634   */\n      dup2\n        /* \"#utility.yul\":14504:14635   */\n      tag_503\n      jump\t// in\n    tag_564:\n        /* \"#utility.yul\":14496:14635   */\n      swap1\n      pop\n        /* \"#utility.yul\":14223:14642   */\n      swap2\n      swap1\n      pop\n      jump\t// out\n        /* \"#utility.yul\":14648:15067   */\n    tag_213:\n        /* \"#utility.yul\":14814:14818   */\n      0x00\n        /* \"#utility.yul\":14852:14854   */\n      0x20\n        /* \"#utility.yul\":14841:14850   */\n      dup3\n        /* \"#utility.yul\":14837:14855   */\n      add\n        /* \"#utility.yul\":14829:14855   */\n      swap1\n      pop\n        /* \"#utility.yul\":14901:14910   */\n      dup2\n        /* \"#utility.yul\":14895:14899   */\n      dup2\n        /* \"#utility.yul\":14891:14911   */\n      sub\n        /* \"#utility.yul\":14887:14888   */\n      0x00\n        /* \"#utility.yul\":14876:14885   */\n      dup4\n        /* \"#utility.yul\":14872:14889   */\n      add\n        /* \"#utility.yul\":14865:14912   */\n      mstore\n        /* \"#utility.yul\":14929:15060   */\n      tag_566\n        /* \"#utility.yul\":15055:15059   */\n      dup2\n        /* \"#utility.yul\":14929:15060   */\n      tag_508\n      jump\t// in\n    tag_566:\n        /* \"#utility.yul\":14921:15060   */\n      swap1\n      pop\n        /* \"#utility.yul\":14648:15067   */\n      swap2\n      swap1\n      pop\n      jump\t// out\n        /* \"#utility.yul\":15073:15492   */\n    tag_80:\n        /* \"#utility.yul\":15239:15243   */\n      0x00\n        /* \"#utility.yul\":15277:15279   */\n      0x20\n        /* \"#utility.yul\":15266:15275   */\n      dup3\n        /* \"#utility.yul\":15262:15280   */\n      add\n        /* \"#utility.yul\":15254:15280   */\n      swap1\n      pop\n        /* \"#utility.yul\":15326:15335   */\n      dup2\n        /* \"#utility.yul\":15320:15324   */\n      dup2\n        /* \"#utility.yul\":15316:15336   */\n      sub\n        /* \"#utility.yul\":15312:15313   */\n      0x00\n        /* \"#utility.yul\":15301:15310   */\n      dup4\n        /* \"#utility.yul\":15297:15314   */\n      add\n        /* \"#utility.yul\":15290:15337   */\n      mstore\n        /* \"#utility.yul\":15354:15485   */\n      tag_568\n        /* \"#utility.yul\":15480:15484   */\n      dup2\n        /* \"#utility.yul\":15354:15485   */\n      tag_513\n      jump\t// in\n    tag_568:\n        /* \"#utility.yul\":15346:15485   */\n      swap1\n      pop\n        /* \"#utility.yul\":15073:15492   */\n      swap2\n      swap1\n      pop\n      jump\t// out\n        /* \"#utility.yul\":15498:15720   */\n    tag_51:\n        /* \"#utility.yul\":15591:15595   */\n      0x00\n        /* \"#utility.yul\":15629:15631   */\n      0x20\n        /* \"#utility.yul\":15618:15627   */\n      dup3\n        /* \"#utility.yul\":15614:15632   */\n      add\n        /* \"#utility.yul\":15606:15632   */\n      swap1\n      pop\n        /* \"#utility.yul\":15642:15713   */\n      tag_570\n        /* \"#utility.yul\":15710:15711   */\n      0x00\n        /* \"#utility.yul\":15699:15708   */\n      dup4\n        /* \"#utility.yul\":15695:15712   */\n      add\n        /* \"#utility.yul\":15686:15692   */\n      dup5\n        /* \"#utility.yul\":15642:15713   */\n      tag_518\n      jump\t// in\n    tag_570:\n        /* \"#utility.yul\":15498:15720   */\n      swap3\n      swap2\n      pop\n      pop\n      jump\t// out\n        /* \"#utility.yul\":15726:15855   */\n    tag_373:\n        /* \"#utility.yul\":15760:15766   */\n      0x00\n        /* \"#utility.yul\":15787:15807   */\n      tag_572\n      tag_573\n      jump\t// in\n    tag_572:\n        /* \"#utility.yul\":15777:15807   */\n      swap1\n      pop\n        /* \"#utility.yul\":15816:15849   */\n      tag_574\n        /* \"#utility.yul\":15844:15848   */\n      dup3\n        /* \"#utility.yul\":15836:15842   */\n      dup3\n        /* \"#utility.yul\":15816:15849   */\n      tag_575\n      jump\t// in\n    tag_574:\n        /* \"#utility.yul\":15726:15855   */\n      swap2\n      swap1\n      pop\n      jump\t// out\n        /* \"#utility.yul\":15861:15936   */\n    tag_573:\n        /* \"#utility.yul\":15894:15900   */\n      0x00\n        /* \"#utility.yul\":15927:15929   */\n      0x40\n        /* \"#utility.yul\":15921:15930   */\n      mload\n        /* \"#utility.yul\":15911:15930   */\n      swap1\n      pop\n        /* \"#utility.yul\":15861:15936   */\n      swap1\n      jump\t// out\n        /* \"#utility.yul\":15942:16250   */\n    tag_372:\n        /* \"#utility.yul\":16004:16008   */\n      0x00\n        /* \"#utility.yul\":16094:16112   */\n      0xffffffffffffffff\n        /* \"#utility.yul\":16086:16092   */\n      dup3\n        /* \"#utility.yul\":16083:16113   */\n      gt\n        /* \"#utility.yul\":16080:16136   */\n      iszero\n      tag_578\n      jumpi\n        /* \"#utility.yul\":16116:16134   */\n      tag_579\n      tag_160\n      jump\t// in\n    tag_579:\n        /* \"#utility.yul\":16080:16136   */\n    tag_578:\n        /* \"#utility.yul\":16154:16183   */\n      tag_580\n        /* \"#utility.yul\":16176:16182   */\n      dup3\n        /* \"#utility.yul\":16154:16183   */\n      tag_476\n      jump\t// in\n    tag_580:\n        /* \"#utility.yul\":16146:16183   */\n      swap1\n      pop\n        /* \"#utility.yul\":16238:16242   */\n      0x20\n        /* \"#utility.yul\":16232:16236   */\n      dup2\n        /* \"#utility.yul\":16228:16243   */\n      add\n        /* \"#utility.yul\":16220:16243   */\n      swap1\n      pop\n        /* \"#utility.yul\":15942:16250   */\n      swap2\n      swap1\n      pop\n      jump\t// out\n        /* \"#utility.yul\":16256:16354   */\n    tag_470:\n        /* \"#utility.yul\":16307:16313   */\n      0x00\n        /* \"#utility.yul\":16341:16346   */\n      dup2\n        /* \"#utility.yul\":16335:16347   */\n      mload\n        /* \"#utility.yul\":16325:16347   */\n      swap1\n      pop\n        /* \"#utility.yul\":16256:16354   */\n      swap2\n      swap1\n      pop\n      jump\t// out\n        /* \"#utility.yul\":16360:16528   */\n    tag_472:\n        /* \"#utility.yul\":16443:16454   */\n      0x00\n        /* \"#utility.yul\":16477:16483   */\n      dup3\n        /* \"#utility.yul\":16472:16475   */\n      dup3\n        /* \"#utility.yul\":16465:16484   */\n      mstore\n        /* \"#utility.yul\":16517:16521   */\n      0x20\n        /* \"#utility.yul\":16512:16515   */\n      dup3\n        /* \"#utility.yul\":16508:16522   */\n      add\n        /* \"#utility.yul\":16493:16522   */\n      swap1\n      pop\n        /* \"#utility.yul\":16360:16528   */\n      swap3\n      swap2\n      pop\n      pop\n      jump\t// out\n        /* \"#utility.yul\":16534:16703   */\n    tag_490:\n        /* \"#utility.yul\":16618:16629   */\n      0x00\n        /* \"#utility.yul\":16652:16658   */\n      dup3\n        /* \"#utility.yul\":16647:16650   */\n      dup3\n        /* \"#utility.yul\":16640:16659   */\n      mstore\n        /* \"#utility.yul\":16692:16696   */\n      0x20\n        /* \"#utility.yul\":16687:16690   */\n      dup3\n        /* \"#utility.yul\":16683:16697   */\n      add\n        /* \"#utility.yul\":16668:16697   */\n      swap1\n      pop\n        /* \"#utility.yul\":16534:16703   */\n      swap3\n      swap2\n      pop\n      pop\n      jump\t// out\n        /* \"#utility.yul\":16709:17014   */\n    tag_199:\n        /* \"#utility.yul\":16749:16752   */\n      0x00\n        /* \"#utility.yul\":16768:16788   */\n      tag_585\n        /* \"#utility.yul\":16786:16787   */\n      dup3\n        /* \"#utility.yul\":16768:16788   */\n      tag_521\n      jump\t// in\n    tag_585:\n        /* \"#utility.yul\":16763:16788   */\n      swap2\n      pop\n        /* \"#utility.yul\":16802:16822   */\n      tag_586\n        /* \"#utility.yul\":16820:16821   */\n      dup4\n        /* \"#utility.yul\":16802:16822   */\n      tag_521\n      jump\t// in\n    tag_586:\n        /* \"#utility.yul\":16797:16822   */\n      swap3\n      pop\n        /* \"#utility.yul\":16956:16957   */\n      dup3\n        /* \"#utility.yul\":16888:16954   */\n      0xffffffffffffffffffffffffffffffffffffffffffffffffffffffffffffffff\n        /* \"#utility.yul\":16884:16958   */\n      sub\n        /* \"#utility.yul\":16881:16882   */\n      dup3\n        /* \"#utility.yul\":16878:16959   */\n      gt\n        /* \"#utility.yul\":16875:16982   */\n      iszero\n      tag_587\n      jumpi\n        /* \"#utility.yul\":16962:16980   */\n      tag_588\n      tag_589\n      jump\t// in\n    tag_588:\n        /* \"#utility.yul\":16875:16982   */\n    tag_587:\n        /* \"#utility.yul\":17006:17007   */\n      dup3\n        /* \"#utility.yul\":17003:17004   */\n      dup3\n        /* \"#utility.yul\":16999:17008   */\n      add\n        /* \"#utility.yul\":16992:17008   */\n      swap1\n      pop\n        /* \"#utility.yul\":16709:17014   */\n      swap3\n      swap2\n      pop\n      pop\n      jump\t// out\n        /* \"#utility.yul\":17020:17868   */\n    tag_590:\n        /* \"#utility.yul\":17081:17086   */\n      0x00\n        /* \"#utility.yul\":17088:17092   */\n      dup1\n        /* \"#utility.yul\":17112:17118   */\n      dup3\n        /* \"#utility.yul\":17103:17118   */\n      swap2\n      pop\n        /* \"#utility.yul\":17136:17141   */\n      dup4\n        /* \"#utility.yul\":17127:17141   */\n      swap1\n      pop\n        /* \"#utility.yul\":17150:17862   */\n    tag_592:\n        /* \"#utility.yul\":17171:17172   */\n      0x01\n        /* \"#utility.yul\":17161:17169   */\n      dup6\n        /* \"#utility.yul\":17158:17173   */\n      gt\n        /* \"#utility.yul\":17150:17862   */\n      iszero\n      tag_594\n      jumpi\n        /* \"#utility.yul\":17266:17270   */\n      dup1\n        /* \"#utility.yul\":17261:17264   */\n      dup7\n        /* \"#utility.yul\":17257:17271   */\n      div\n        /* \"#utility.yul\":17251:17255   */\n      dup2\n        /* \"#utility.yul\":17248:17272   */\n      gt\n        /* \"#utility.yul\":17245:17295   */\n      iszero\n      tag_595\n      jumpi\n        /* \"#utility.yul\":17275:17293   */\n      tag_596\n      tag_589\n      jump\t// in\n    tag_596:\n        /* \"#utility.yul\":17245:17295   */\n    tag_595:\n        /* \"#utility.yul\":17325:17326   */\n      0x01\n        /* \"#utility.yul\":17315:17323   */\n      dup6\n        /* \"#utility.yul\":17311:17327   */\n      and\n        /* \"#utility.yul\":17308:17759   */\n      iszero\n      tag_597\n      jumpi\n        /* \"#utility.yul\":17740:17744   */\n      dup1\n        /* \"#utility.yul\":17733:17738   */\n      dup3\n        /* \"#utility.yul\":17729:17745   */\n      mul\n        /* \"#utility.yul\":17720:17745   */\n      swap2\n      pop\n        /* \"#utility.yul\":17308:17759   */\n    tag_597:\n        /* \"#utility.yul\":17790:17794   */\n      dup1\n        /* \"#utility.yul\":17784:17788   */\n      dup2\n        /* \"#utility.yul\":17780:17795   */\n      mul\n        /* \"#utility.yul\":17772:17795   */\n      swap1\n      pop\n        /* \"#utility.yul\":17820:17852   */\n      tag_598\n        /* \"#utility.yul\":17843:17851   */\n      dup6\n        /* \"#utility.yul\":17820:17852   */\n      tag_599\n      jump\t// in\n    tag_598:\n        /* \"#utility.yul\":17808:17852   */\n      swap5\n      pop\n        /* \"#utility.yul\":17150:17862   */\n      jump(tag_592)\n    tag_594:\n        /* \"#utility.yul\":17020:17868   */\n      swap5\n      pop\n      swap5\n      swap3\n      pop\n      pop\n      pop\n      jump\t// out\n        /* \"#utility.yul\":17874:18159   */\n    tag_358:\n        /* \"#utility.yul\":17934:17939   */\n      0x00\n        /* \"#utility.yul\":17958:17981   */\n      tag_601\n        /* \"#utility.yul\":17976:17980   */\n      dup3\n        /* \"#utility.yul\":17958:17981   */\n      tag_521\n      jump\t// in\n    tag_601:\n        /* \"#utility.yul\":17950:17981   */\n      swap2\n      pop\n        /* \"#utility.yul\":18002:18029   */\n      tag_602\n        /* \"#utility.yul\":18020:18028   */\n      dup4\n        /* \"#utility.yul\":18002:18029   */\n      tag_521\n      jump\t// in\n    tag_602:\n        /* \"#utility.yul\":17990:18029   */\n      swap3\n      pop\n        /* \"#utility.yul\":18048:18152   */\n      tag_603\n        /* \"#utility.yul\":18085:18151   */\n      0xffffffffffffffffffffffffffffffffffffffffffffffffffffffffffffffff\n        /* \"#utility.yul\":18075:18083   */\n      dup5\n        /* \"#utility.yul\":18069:18073   */\n      dup5\n        /* \"#utility.yul\":18048:18152   */\n      tag_604\n      jump\t// in\n    tag_603:\n        /* \"#utility.yul\":18039:18152   */\n      swap1\n      pop\n        /* \"#utility.yul\":17874:18159   */\n      swap3\n      swap2\n      pop\n      pop\n      jump\t// out\n        /* \"#utility.yul\":18165:19238   */\n    tag_604:\n        /* \"#utility.yul\":18219:18224   */\n      0x00\n        /* \"#utility.yul\":18410:18418   */\n      dup3\n        /* \"#utility.yul\":18400:18440   */\n      tag_606\n      jumpi\n        /* \"#utility.yul\":18431:18432   */\n      0x01\n        /* \"#utility.yul\":18422:18432   */\n      swap1\n      pop\n        /* \"#utility.yul\":18433:18438   */\n      jump(tag_605)\n        /* \"#utility.yul\":18400:18440   */\n    tag_606:\n        /* \"#utility.yul\":18459:18463   */\n      dup2\n        /* \"#utility.yul\":18449:18485   */\n      tag_607\n      jumpi\n        /* \"#utility.yul\":18476:18477   */\n      0x00\n        /* \"#utility.yul\":18467:18477   */\n      swap1\n      pop\n        /* \"#utility.yul\":18478:18483   */\n      jump(tag_605)\n        /* \"#utility.yul\":18449:18485   */\n    tag_607:\n        /* \"#utility.yul\":18545:18549   */\n      dup2\n        /* \"#utility.yul\":18593:18594   */\n      0x01\n        /* \"#utility.yul\":18588:18615   */\n      dup2\n      eq\n      tag_609\n      jumpi\n        /* \"#utility.yul\":18629:18630   */\n      0x02\n        /* \"#utility.yul\":18624:18815   */\n      dup2\n      eq\n      tag_610\n      jumpi\n        /* \"#utility.yul\":18538:18815   */\n      jump(tag_608)\n        /* \"#utility.yul\":18588:18615   */\n    tag_609:\n        /* \"#utility.yul\":18606:18607   */\n      0x01\n        /* \"#utility.yul\":18597:18607   */\n      swap2\n      pop\n        /* \"#utility.yul\":18608:18613   */\n      pop\n      jump(tag_605)\n        /* \"#utility.yul\":18624:18815   */\n    tag_610:\n        /* \"#utility.yul\":18669:18672   */\n      0xff\n        /* \"#utility.yul\":18659:18667   */\n      dup5\n        /* \"#utility.yul\":18656:18673   */\n      gt\n        /* \"#utility.yul\":18653:18696   */\n      iszero\n      tag_611\n      jumpi\n        /* \"#utility.yul\":18676:18694   */\n      tag_612\n      tag_589\n      jump\t// in\n    tag_612:\n        /* \"#utility.yul\":18653:18696   */\n    tag_611:\n        /* \"#utility.yul\":18725:18733   */\n      dup4\n        /* \"#utility.yul\":18722:18723   */\n      0x02\n        /* \"#utility.yul\":18718:18734   */\n      exp\n        /* \"#utility.yul\":18709:18734   */\n      swap2\n      pop\n        /* \"#utility.yul\":18760:18763   */\n      dup5\n        /* \"#utility.yul\":18753:18758   */\n      dup3\n        /* \"#utility.yul\":18750:18764   */\n      gt\n        /* \"#utility.yul\":18747:18787   */\n      iszero\n      tag_613\n      jumpi\n        /* \"#utility.yul\":18767:18785   */\n      tag_614\n      tag_589\n      jump\t// in\n    tag_614:\n        /* \"#utility.yul\":18747:18787   */\n    tag_613:\n        /* \"#utility.yul\":18800:18805   */\n      pop\n      jump(tag_605)\n        /* \"#utility.yul\":18538:18815   */\n    tag_608:\n      pop\n        /* \"#utility.yul\":18924:18926   */\n      0x20\n        /* \"#utility.yul\":18914:18922   */\n      dup4\n        /* \"#utility.yul\":18911:18927   */\n      lt\n        /* \"#utility.yul\":18905:18908   */\n      0x0133\n        /* \"#utility.yul\":18899:18903   */\n      dup4\n        /* \"#utility.yul\":18896:18909   */\n      lt\n        /* \"#utility.yul\":18892:18928   */\n      and\n        /* \"#utility.yul\":18874:18876   */\n      0x4e\n        /* \"#utility.yul\":18864:18872   */\n      dup5\n        /* \"#utility.yul\":18861:18877   */\n      lt\n        /* \"#utility.yul\":18856:18858   */\n      0x0b\n        /* \"#utility.yul\":18850:18854   */\n      dup5\n        /* \"#utility.yul\":18847:18859   */\n      lt\n        /* \"#utility.yul\":18843:18878   */\n      and\n        /* \"#utility.yul\":18827:18938   */\n      or\n        /* \"#utility.yul\":18824:19070   */\n      iszero\n      tag_615\n      jumpi\n        /* \"#utility.yul\":18980:18988   */\n      dup3\n        /* \"#utility.yul\":18974:18978   */\n      dup3\n        /* \"#utility.yul\":18970:18989   */\n      exp\n        /* \"#utility.yul\":18961:18989   */\n      swap1\n      pop\n        /* \"#utility.yul\":19015:19018   */\n      dup4\n        /* \"#utility.yul\":19008:19013   */\n      dup2\n        /* \"#utility.yul\":19005:19019   */\n      gt\n        /* \"#utility.yul\":19002:19042   */\n      iszero\n      tag_616\n      jumpi\n        /* \"#utility.yul\":19022:19040   */\n      tag_617\n      tag_589\n      jump\t// in\n    tag_617:\n        /* \"#utility.yul\":19002:19042   */\n    tag_616:\n        /* \"#utility.yul\":19055:19060   */\n      jump(tag_605)\n        /* \"#utility.yul\":18824:19070   */\n    tag_615:\n        /* \"#utility.yul\":19095:19137   */\n      tag_618\n        /* \"#utility.yul\":19133:19136   */\n      dup5\n        /* \"#utility.yul\":19123:19131   */\n      dup5\n        /* \"#utility.yul\":19117:19121   */\n      dup5\n        /* \"#utility.yul\":19114:19115   */\n      0x01\n        /* \"#utility.yul\":19095:19137   */\n      tag_590\n      jump\t// in\n    tag_618:\n        /* \"#utility.yul\":19080:19137   */\n      swap3\n      pop\n      swap1\n      pop\n        /* \"#utility.yul\":19169:19173   */\n      dup2\n        /* \"#utility.yul\":19164:19167   */\n      dup5\n        /* \"#utility.yul\":19160:19174   */\n      div\n        /* \"#utility.yul\":19153:19158   */\n      dup2\n        /* \"#utility.yul\":19150:19175   */\n      gt\n        /* \"#utility.yul\":19147:19198   */\n      iszero\n      tag_619\n      jumpi\n        /* \"#utility.yul\":19178:19196   */\n      tag_620\n      tag_589\n      jump\t// in\n    tag_620:\n        /* \"#utility.yul\":19147:19198   */\n    tag_619:\n        /* \"#utility.yul\":19227:19231   */\n      dup2\n        /* \"#utility.yul\":19220:19225   */\n      dup2\n        /* \"#utility.yul\":19216:19232   */\n      mul\n        /* \"#utility.yul\":19207:19232   */\n      swap1\n      pop\n        /* \"#utility.yul\":18165:19238   */\n    tag_605:\n      swap4\n      swap3\n      pop\n      pop\n      pop\n      jump\t// out\n        /* \"#utility.yul\":19244:19592   */\n    tag_97:\n        /* \"#utility.yul\":19284:19291   */\n      0x00\n        /* \"#utility.yul\":19307:19327   */\n      tag_622\n        /* \"#utility.yul\":19325:19326   */\n      dup3\n        /* \"#utility.yul\":19307:19327   */\n      tag_521\n      jump\t// in\n    tag_622:\n        /* \"#utility.yul\":19302:19327   */\n      swap2\n      pop\n        /* \"#utility.yul\":19341:19361   */\n      tag_623\n        /* \"#utility.yul\":19359:19360   */\n      dup4\n        /* \"#utility.yul\":19341:19361   */\n      tag_521\n      jump\t// in\n    tag_623:\n        /* \"#utility.yul\":19336:19361   */\n      swap3\n      pop\n        /* \"#utility.yul\":19529:19530   */\n      dup2\n        /* \"#utility.yul\":19461:19527   */\n      0xffffffffffffffffffffffffffffffffffffffffffffffffffffffffffffffff\n        /* \"#utility.yul\":19457:19531   */\n      div\n        /* \"#utility.yul\":19454:19455   */\n      dup4\n        /* \"#utility.yul\":19451:19532   */\n      gt\n        /* \"#utility.yul\":19446:19447   */\n      dup3\n        /* \"#utility.yul\":19439:19448   */\n      iszero\n        /* \"#utility.yul\":19432:19449   */\n      iszero\n        /* \"#utility.yul\":19428:19533   */\n      and\n        /* \"#utility.yul\":19425:19556   */\n      iszero\n      tag_624\n      jumpi\n        /* \"#utility.yul\":19536:19554   */\n      tag_625\n      tag_589\n      jump\t// in\n    tag_625:\n        /* \"#utility.yul\":19425:19556   */\n    tag_624:\n        /* \"#utility.yul\":19584:19585   */\n      dup3\n        /* \"#utility.yul\":19581:19582   */\n      dup3\n        /* \"#utility.yul\":19577:19586   */\n      mul\n        /* \"#utility.yul\":19566:19586   */\n      swap1\n      pop\n        /* \"#utility.yul\":19244:19592   */\n      swap3\n      swap2\n      pop\n      pop\n      jump\t// out\n        /* \"#utility.yul\":19598:20125   */\n    tag_251:\n        /* \"#utility.yul\":19637:19641   */\n      0x00\n        /* \"#utility.yul\":19657:19676   */\n      tag_627\n        /* \"#utility.yul\":19674:19675   */\n      dup3\n        /* \"#utility.yul\":19657:19676   */\n      tag_486\n      jump\t// in\n    tag_627:\n        /* \"#utility.yul\":19652:19676   */\n      swap2\n      pop\n        /* \"#utility.yul\":19690:19709   */\n      tag_628\n        /* \"#utility.yul\":19707:19708   */\n      dup4\n        /* \"#utility.yul\":19690:19709   */\n      tag_486\n      jump\t// in\n    tag_628:\n        /* \"#utility.yul\":19685:19709   */\n      swap3\n      pop\n        /* \"#utility.yul\":19879:19880   */\n      dup3\n        /* \"#utility.yul\":19811:19877   */\n      0x8000000000000000000000000000000000000000000000000000000000000000\n        /* \"#utility.yul\":19807:19881   */\n      add\n        /* \"#utility.yul\":19804:19805   */\n      dup3\n        /* \"#utility.yul\":19800:19882   */\n      slt\n        /* \"#utility.yul\":19795:19796   */\n      0x00\n        /* \"#utility.yul\":19792:19793   */\n      dup5\n        /* \"#utility.yul\":19788:19797   */\n      slt\n        /* \"#utility.yul\":19781:19798   */\n      iszero\n        /* \"#utility.yul\":19777:19883   */\n      and\n        /* \"#utility.yul\":19774:19906   */\n      iszero\n      tag_629\n      jumpi\n        /* \"#utility.yul\":19886:19904   */\n      tag_630\n      tag_589\n      jump\t// in\n    tag_630:\n        /* \"#utility.yul\":19774:19906   */\n    tag_629:\n        /* \"#utility.yul\":20065:20066   */\n      dup3\n        /* \"#utility.yul\":19997:20063   */\n      0x7fffffffffffffffffffffffffffffffffffffffffffffffffffffffffffffff\n        /* \"#utility.yul\":19993:20067   */\n      add\n        /* \"#utility.yul\":19990:19991   */\n      dup3\n        /* \"#utility.yul\":19986:20068   */\n      sgt\n        /* \"#utility.yul\":19982:19983   */\n      0x00\n        /* \"#utility.yul\":19979:19980   */\n      dup5\n        /* \"#utility.yul\":19975:19984   */\n      slt\n        /* \"#utility.yul\":19971:20069   */\n      and\n        /* \"#utility.yul\":19968:20092   */\n      iszero\n      tag_631\n      jumpi\n        /* \"#utility.yul\":20072:20090   */\n      tag_632\n      tag_589\n      jump\t// in\n    tag_632:\n        /* \"#utility.yul\":19968:20092   */\n    tag_631:\n        /* \"#utility.yul\":20117:20118   */\n      dup3\n        /* \"#utility.yul\":20114:20115   */\n      dup3\n        /* \"#utility.yul\":20110:20119   */\n      sub\n        /* \"#utility.yul\":20102:20119   */\n      swap1\n      pop\n        /* \"#utility.yul\":19598:20125   */\n      swap3\n      swap2\n      pop\n      pop\n      jump\t// out\n        /* \"#utility.yul\":20131:20322   */\n    tag_277:\n        /* \"#utility.yul\":20171:20175   */\n      0x00\n        /* \"#utility.yul\":20191:20211   */\n      tag_634\n        /* \"#utility.yul\":20209:20210   */\n      dup3\n        /* \"#utility.yul\":20191:20211   */\n      tag_521\n      jump\t// in\n    tag_634:\n        /* \"#utility.yul\":20186:20211   */\n      swap2\n      pop\n        /* \"#utility.yul\":20225:20245   */\n      tag_635\n        /* \"#utility.yul\":20243:20244   */\n      dup4\n        /* \"#utility.yul\":20225:20245   */\n      tag_521\n      jump\t// in\n    tag_635:\n        /* \"#utility.yul\":20220:20245   */\n      swap3\n      pop\n        /* \"#utility.yul\":20264:20265   */\n      dup3\n        /* \"#utility.yul\":20261:20262   */\n      dup3\n        /* \"#utility.yul\":20258:20266   */\n      lt\n        /* \"#utility.yul\":20255:20289   */\n      iszero\n      tag_636\n      jumpi\n        /* \"#utility.yul\":20269:20287   */\n      tag_637\n      tag_589\n      jump\t// in\n    tag_637:\n        /* \"#utility.yul\":20255:20289   */\n    tag_636:\n        /* \"#utility.yul\":20314:20315   */\n      dup3\n        /* \"#utility.yul\":20311:20312   */\n      dup3\n        /* \"#utility.yul\":20307:20316   */\n      sub\n        /* \"#utility.yul\":20299:20316   */\n      swap1\n      pop\n        /* \"#utility.yul\":20131:20322   */\n      swap3\n      swap2\n      pop\n      pop\n      jump\t// out\n        /* \"#utility.yul\":20328:20424   */\n    tag_458:\n        /* \"#utility.yul\":20365:20372   */\n      0x00\n        /* \"#utility.yul\":20394:20418   */\n      tag_639\n        /* \"#utility.yul\":20412:20417   */\n      dup3\n        /* \"#utility.yul\":20394:20418   */\n      tag_640\n      jump\t// in\n    tag_639:\n        /* \"#utility.yul\":20383:20418   */\n      swap1\n      pop\n        /* \"#utility.yul\":20328:20424   */\n      swap2\n      swap1\n      pop\n      jump\t// out\n        /* \"#utility.yul\":20430:20520   */\n    tag_641:\n        /* \"#utility.yul\":20464:20471   */\n      0x00\n        /* \"#utility.yul\":20507:20512   */\n      dup2\n        /* \"#utility.yul\":20500:20513   */\n      iszero\n        /* \"#utility.yul\":20493:20514   */\n      iszero\n        /* \"#utility.yul\":20482:20514   */\n      swap1\n      pop\n        /* \"#utility.yul\":20430:20520   */\n      swap2\n      swap1\n      pop\n      jump\t// out\n        /* \"#utility.yul\":20526:20603   */\n    tag_462:\n        /* \"#utility.yul\":20563:20570   */\n      0x00\n        /* \"#utility.yul\":20592:20597   */\n      dup2\n        /* \"#utility.yul\":20581:20597   */\n      swap1\n      pop\n        /* \"#utility.yul\":20526:20603   */\n      swap2\n      swap1\n      pop\n      jump\t// out\n        /* \"#utility.yul\":20609:20758   */\n    tag_466:\n        /* \"#utility.yul\":20645:20652   */\n      0x00\n        /* \"#utility.yul\":20685:20751   */\n      0xffffffff00000000000000000000000000000000000000000000000000000000\n        /* \"#utility.yul\":20678:20683   */\n      dup3\n        /* \"#utility.yul\":20674:20752   */\n      and\n        /* \"#utility.yul\":20663:20752   */\n      swap1\n      pop\n        /* \"#utility.yul\":20609:20758   */\n      swap2\n      swap1\n      pop\n      jump\t// out\n        /* \"#utility.yul\":20764:20840   */\n    tag_486:\n        /* \"#utility.yul\":20800:20807   */\n      0x00\n        /* \"#utility.yul\":20829:20834   */\n      dup2\n        /* \"#utility.yul\":20818:20834   */\n      swap1\n      pop\n        /* \"#utility.yul\":20764:20840   */\n      swap2\n      swap1\n      pop\n      jump\t// out\n        /* \"#utility.yul\":20846:20972   */\n    tag_640:\n        /* \"#utility.yul\":20883:20890   */\n      0x00\n        /* \"#utility.yul\":20923:20965   */\n      0xffffffffffffffffffffffffffffffffffffffff\n        /* \"#utility.yul\":20916:20921   */\n      dup3\n        /* \"#utility.yul\":20912:20966   */\n      and\n        /* \"#utility.yul\":20901:20966   */\n      swap1\n      pop\n        /* \"#utility.yul\":20846:20972   */\n      swap2\n      swap1\n      pop\n      jump\t// out\n        /* \"#utility.yul\":20978:21055   */\n    tag_521:\n        /* \"#utility.yul\":21015:21022   */\n      0x00\n        /* \"#utility.yul\":21044:21049   */\n      dup2\n        /* \"#utility.yul\":21033:21049   */\n      swap1\n      pop\n        /* \"#utility.yul\":20978:21055   */\n      swap2\n      swap1\n      pop\n      jump\t// out\n        /* \"#utility.yul\":21061:21210   */\n    tag_481:\n        /* \"#utility.yul\":21134:21143   */\n      0x00\n        /* \"#utility.yul\":21167:21204   */\n      tag_649\n        /* \"#utility.yul\":21198:21203   */\n      dup3\n        /* \"#utility.yul\":21167:21204   */\n      tag_650\n      jump\t// in\n    tag_649:\n        /* \"#utility.yul\":21154:21204   */\n      swap1\n      pop\n        /* \"#utility.yul\":21061:21210   */\n      swap2\n      swap1\n      pop\n      jump\t// out\n        /* \"#utility.yul\":21216:21342   */\n    tag_650:\n        /* \"#utility.yul\":21266:21275   */\n      0x00\n        /* \"#utility.yul\":21299:21336   */\n      tag_652\n        /* \"#utility.yul\":21330:21335   */\n      dup3\n        /* \"#utility.yul\":21299:21336   */\n      tag_653\n      jump\t// in\n    tag_652:\n        /* \"#utility.yul\":21286:21336   */\n      swap1\n      pop\n        /* \"#utility.yul\":21216:21342   */\n      swap2\n      swap1\n      pop\n      jump\t// out\n        /* \"#utility.yul\":21348:21461   */\n    tag_653:\n        /* \"#utility.yul\":21398:21407   */\n      0x00\n        /* \"#utility.yul\":21431:21455   */\n      tag_655\n        /* \"#utility.yul\":21449:21454   */\n      dup3\n        /* \"#utility.yul\":21431:21455   */\n      tag_640\n      jump\t// in\n    tag_655:\n        /* \"#utility.yul\":21418:21455   */\n      swap1\n      pop\n        /* \"#utility.yul\":21348:21461   */\n      swap2\n      swap1\n      pop\n      jump\t// out\n        /* \"#utility.yul\":21467:21621   */\n    tag_378:\n        /* \"#utility.yul\":21551:21557   */\n      dup3\n        /* \"#utility.yul\":21546:21549   */\n      dup2\n        /* \"#utility.yul\":21541:21544   */\n      dup4\n        /* \"#utility.yul\":21528:21558   */\n      calldatacopy\n        /* \"#utility.yul\":21613:21614   */\n      0x00\n        /* \"#utility.yul\":21604:21610   */\n      dup4\n        /* \"#utility.yul\":21599:21602   */\n      dup4\n        /* \"#utility.yul\":21595:21611   */\n      add\n        /* \"#utility.yul\":21588:21615   */\n      mstore\n        /* \"#utility.yul\":21467:21621   */\n      pop\n      pop\n      pop\n      jump\t// out\n        /* \"#utility.yul\":21627:21934   */\n    tag_474:\n        /* \"#utility.yul\":21695:21696   */\n      0x00\n        /* \"#utility.yul\":21705:21818   */\n    tag_658:\n        /* \"#utility.yul\":21719:21725   */\n      dup4\n        /* \"#utility.yul\":21716:21717   */\n      dup2\n        /* \"#utility.yul\":21713:21726   */\n      lt\n        /* \"#utility.yul\":21705:21818   */\n      iszero\n      tag_660\n      jumpi\n        /* \"#utility.yul\":21804:21805   */\n      dup1\n        /* \"#utility.yul\":21799:21802   */\n      dup3\n        /* \"#utility.yul\":21795:21806   */\n      add\n        /* \"#utility.yul\":21789:21807   */\n      mload\n        /* \"#utility.yul\":21785:21786   */\n      dup2\n        /* \"#utility.yul\":21780:21783   */\n      dup5\n        /* \"#utility.yul\":21776:21787   */\n      add\n        /* \"#utility.yul\":21769:21808   */\n      mstore\n        /* \"#utility.yul\":21741:21743   */\n      0x20\n        /* \"#utility.yul\":21738:21739   */\n      dup2\n        /* \"#utility.yul\":21734:21744   */\n      add\n        /* \"#utility.yul\":21729:21744   */\n      swap1\n      pop\n        /* \"#utility.yul\":21705:21818   */\n      jump(tag_658)\n    tag_660:\n        /* \"#utility.yul\":21836:21842   */\n      dup4\n        /* \"#utility.yul\":21833:21834   */\n      dup2\n        /* \"#utility.yul\":21830:21843   */\n      gt\n        /* \"#utility.yul\":21827:21928   */\n      iszero\n      tag_661\n      jumpi\n        /* \"#utility.yul\":21916:21917   */\n      0x00\n        /* \"#utility.yul\":21907:21913   */\n      dup5\n        /* \"#utility.yul\":21902:21905   */\n      dup5\n        /* \"#utility.yul\":21898:21914   */\n      add\n        /* \"#utility.yul\":21891:21918   */\n      mstore\n        /* \"#utility.yul\":21827:21928   */\n    tag_661:\n        /* \"#utility.yul\":21676:21934   */\n      pop\n        /* \"#utility.yul\":21627:21934   */\n      pop\n      pop\n      pop\n      jump\t// out\n        /* \"#utility.yul\":21940:22221   */\n    tag_575:\n        /* \"#utility.yul\":22023:22050   */\n      tag_663\n        /* \"#utility.yul\":22045:22049   */\n      dup3\n        /* \"#utility.yul\":22023:22050   */\n      tag_476\n      jump\t// in\n    tag_663:\n        /* \"#utility.yul\":22015:22021   */\n      dup2\n        /* \"#utility.yul\":22011:22051   */\n      add\n        /* \"#utility.yul\":22153:22159   */\n      dup2\n        /* \"#utility.yul\":22141:22151   */\n      dup2\n        /* \"#utility.yul\":22138:22160   */\n      lt\n        /* \"#utility.yul\":22117:22135   */\n      0xffffffffffffffff\n        /* \"#utility.yul\":22105:22115   */\n      dup3\n        /* \"#utility.yul\":22102:22136   */\n      gt\n        /* \"#utility.yul\":22099:22161   */\n      or\n        /* \"#utility.yul\":22096:22184   */\n      iszero\n      tag_664\n      jumpi\n        /* \"#utility.yul\":22164:22182   */\n      tag_665\n      tag_160\n      jump\t// in\n    tag_665:\n        /* \"#utility.yul\":22096:22184   */\n    tag_664:\n        /* \"#utility.yul\":22204:22214   */\n      dup1\n        /* \"#utility.yul\":22200:22202   */\n      0x40\n        /* \"#utility.yul\":22193:22215   */\n      mstore\n        /* \"#utility.yul\":21983:22221   */\n      pop\n        /* \"#utility.yul\":21940:22221   */\n      pop\n      pop\n      jump\t// out\n        /* \"#utility.yul\":22227:22460   */\n    tag_225:\n        /* \"#utility.yul\":22266:22269   */\n      0x00\n        /* \"#utility.yul\":22289:22313   */\n      tag_667\n        /* \"#utility.yul\":22307:22312   */\n      dup3\n        /* \"#utility.yul\":22289:22313   */\n      tag_521\n      jump\t// in\n    tag_667:\n        /* \"#utility.yul\":22280:22313   */\n      swap2\n      pop\n        /* \"#utility.yul\":22335:22401   */\n      0xffffffffffffffffffffffffffffffffffffffffffffffffffffffffffffffff\n        /* \"#utility.yul\":22328:22333   */\n      dup3\n        /* \"#utility.yul\":22325:22402   */\n      eq\n        /* \"#utility.yul\":22322:22425   */\n      iszero\n      tag_668\n      jumpi\n        /* \"#utility.yul\":22405:22423   */\n      tag_669\n      tag_589\n      jump\t// in\n    tag_669:\n        /* \"#utility.yul\":22322:22425   */\n    tag_668:\n        /* \"#utility.yul\":22452:22453   */\n      0x01\n        /* \"#utility.yul\":22445:22450   */\n      dup3\n        /* \"#utility.yul\":22441:22454   */\n      add\n        /* \"#utility.yul\":22434:22454   */\n      swap1\n      pop\n        /* \"#utility.yul\":22227:22460   */\n      swap2\n      swap1\n      pop\n      jump\t// out\n        /* \"#utility.yul\":22466:22566   */\n    tag_482:\n        /* \"#utility.yul\":22505:22512   */\n      0x00\n        /* \"#utility.yul\":22534:22560   */\n      tag_671\n        /* \"#utility.yul\":22554:22559   */\n      dup3\n        /* \"#utility.yul\":22534:22560   */\n      tag_672\n      jump\t// in\n    tag_671:\n        /* \"#utility.yul\":22523:22560   */\n      swap1\n      pop\n        /* \"#utility.yul\":22466:22566   */\n      swap2\n      swap1\n      pop\n      jump\t// out\n        /* \"#utility.yul\":22572:22666   */\n    tag_672:\n        /* \"#utility.yul\":22611:22618   */\n      0x00\n        /* \"#utility.yul\":22640:22660   */\n      tag_674\n        /* \"#utility.yul\":22654:22659   */\n      dup3\n        /* \"#utility.yul\":22640:22660   */\n      tag_675\n      jump\t// in\n    tag_674:\n        /* \"#utility.yul\":22629:22660   */\n      swap1\n      pop\n        /* \"#utility.yul\":22572:22666   */\n      swap2\n      swap1\n      pop\n      jump\t// out\n        /* \"#utility.yul\":22672:22751   */\n    tag_526:\n        /* \"#utility.yul\":22711:22718   */\n      0x00\n        /* \"#utility.yul\":22740:22745   */\n      dup2\n        /* \"#utility.yul\":22729:22745   */\n      swap1\n      pop\n        /* \"#utility.yul\":22672:22751   */\n      swap2\n      swap1\n      pop\n      jump\t// out\n        /* \"#utility.yul\":22757:22933   */\n    tag_273:\n        /* \"#utility.yul\":22789:22790   */\n      0x00\n        /* \"#utility.yul\":22806:22826   */\n      tag_678\n        /* \"#utility.yul\":22824:22825   */\n      dup3\n        /* \"#utility.yul\":22806:22826   */\n      tag_521\n      jump\t// in\n    tag_678:\n        /* \"#utility.yul\":22801:22826   */\n      swap2\n      pop\n        /* \"#utility.yul\":22840:22860   */\n      tag_679\n        /* \"#utility.yul\":22858:22859   */\n      dup4\n        /* \"#utility.yul\":22840:22860   */\n      tag_521\n      jump\t// in\n    tag_679:\n        /* \"#utility.yul\":22835:22860   */\n      swap3\n      pop\n        /* \"#utility.yul\":22879:22880   */\n      dup3\n        /* \"#utility.yul\":22869:22904   */\n      tag_680\n      jumpi\n        /* \"#utility.yul\":22884:22902   */\n      tag_681\n      tag_682\n      jump\t// in\n    tag_681:\n        /* \"#utility.yul\":22869:22904   */\n    tag_680:\n        /* \"#utility.yul\":22925:22926   */\n      dup3\n        /* \"#utility.yul\":22922:22923   */\n      dup3\n        /* \"#utility.yul\":22918:22927   */\n      mod\n        /* \"#utility.yul\":22913:22927   */\n      swap1\n      pop\n        /* \"#utility.yul\":22757:22933   */\n      swap3\n      swap2\n      pop\n      pop\n      jump\t// out\n        /* \"#utility.yul\":22939:23119   */\n    tag_589:\n        /* \"#utility.yul\":22987:23064   */\n      0x4e487b7100000000000000000000000000000000000000000000000000000000\n        /* \"#utility.yul\":22984:22985   */\n      0x00\n        /* \"#utility.yul\":22977:23065   */\n      mstore\n        /* \"#utility.yul\":23084:23088   */\n      0x11\n        /* \"#utility.yul\":23081:23082   */\n      0x04\n        /* \"#utility.yul\":23074:23089   */\n      mstore\n        /* \"#utility.yul\":23108:23112   */\n      0x24\n        /* \"#utility.yul\":23105:23106   */\n      0x00\n        /* \"#utility.yul\":23098:23113   */\n      revert\n        /* \"#utility.yul\":23125:23305   */\n    tag_682:\n        /* \"#utility.yul\":23173:23250   */\n      0x4e487b7100000000000000000000000000000000000000000000000000000000\n        /* \"#utility.yul\":23170:23171   */\n      0x00\n        /* \"#utility.yul\":23163:23251   */\n      mstore\n        /* \"#utility.yul\":23270:23274   */\n      0x12\n        /* \"#utility.yul\":23267:23268   */\n      0x04\n        /* \"#utility.yul\":23260:23275   */\n      mstore\n        /* \"#utility.yul\":23294:23298   */\n      0x24\n        /* \"#utility.yul\":23291:23292   */\n      0x00\n        /* \"#utility.yul\":23284:23299   */\n      revert\n        /* \"#utility.yul\":23311:23491   */\n    tag_165:\n        /* \"#utility.yul\":23359:23436   */\n      0x4e487b7100000000000000000000000000000000000000000000000000000000\n        /* \"#utility.yul\":23356:23357   */\n      0x00\n        /* \"#utility.yul\":23349:23437   */\n      mstore\n        /* \"#utility.yul\":23456:23460   */\n      0x32\n        /* \"#utility.yul\":23453:23454   */\n      0x04\n        /* \"#utility.yul\":23446:23461   */\n      mstore\n        /* \"#utility.yul\":23480:23484   */\n      0x24\n        /* \"#utility.yul\":23477:23478   */\n      0x00\n        /* \"#utility.yul\":23470:23485   */\n      revert\n        /* \"#utility.yul\":23497:23677   */\n    tag_160:\n        /* \"#utility.yul\":23545:23622   */\n      0x4e487b7100000000000000000000000000000000000000000000000000000000\n        /* \"#utility.yul\":23542:23543   */\n      0x00\n        /* \"#utility.yul\":23535:23623   */\n      mstore\n        /* \"#utility.yul\":23642:23646   */\n      0x41\n        /* \"#utility.yul\":23639:23640   */\n      0x04\n        /* \"#utility.yul\":23632:23647   */\n      mstore\n        /* \"#utility.yul\":23666:23670   */\n      0x24\n        /* \"#utility.yul\":23663:23664   */\n      0x00\n        /* \"#utility.yul\":23656:23671   */\n      revert\n        /* \"#utility.yul\":23683:23800   */\n    tag_403:\n        /* \"#utility.yul\":23792:23793   */\n      0x00\n        /* \"#utility.yul\":23789:23790   */\n      dup1\n        /* \"#utility.yul\":23782:23794   */\n      revert\n        /* \"#utility.yul\":23806:23923   */\n    tag_376:\n        /* \"#utility.yul\":23915:23916   */\n      0x00\n        /* \"#utility.yul\":23912:23913   */\n      dup1\n        /* \"#utility.yul\":23905:23917   */\n      revert\n        /* \"#utility.yul\":23929:24046   */\n    tag_423:\n        /* \"#utility.yul\":24038:24039   */\n      0x00\n        /* \"#utility.yul\":24035:24036   */\n      dup1\n        /* \"#utility.yul\":24028:24040   */\n      revert\n        /* \"#utility.yul\":24052:24169   */\n    tag_415:\n        /* \"#utility.yul\":24161:24162   */\n      0x00\n        /* \"#utility.yul\":24158:24159   */\n      dup1\n        /* \"#utility.yul\":24151:24163   */\n      revert\n        /* \"#utility.yul\":24175:24277   */\n    tag_476:\n        /* \"#utility.yul\":24216:24222   */\n      0x00\n        /* \"#utility.yul\":24267:24269   */\n      0x1f\n        /* \"#utility.yul\":24263:24270   */\n      not\n        /* \"#utility.yul\":24258:24260   */\n      0x1f\n        /* \"#utility.yul\":24251:24256   */\n      dup4\n        /* \"#utility.yul\":24247:24261   */\n      add\n        /* \"#utility.yul\":24243:24271   */\n      and\n        /* \"#utility.yul\":24233:24271   */\n      swap1\n      pop\n        /* \"#utility.yul\":24175:24277   */\n      swap2\n      swap1\n      pop\n      jump\t// out\n        /* \"#utility.yul\":24283:24377   */\n    tag_675:\n        /* \"#utility.yul\":24316:24324   */\n      0x00\n        /* \"#utility.yul\":24364:24369   */\n      dup2\n        /* \"#utility.yul\":24360:24362   */\n      0x60\n        /* \"#utility.yul\":24356:24370   */\n      shl\n        /* \"#utility.yul\":24335:24370   */\n      swap1\n      pop\n        /* \"#utility.yul\":24283:24377   */\n      swap2\n      swap1\n      pop\n      jump\t// out\n        /* \"#utility.yul\":24383:24485   */\n    tag_599:\n        /* \"#utility.yul\":24425:24433   */\n      0x00\n        /* \"#utility.yul\":24472:24477   */\n      dup2\n        /* \"#utility.yul\":24469:24470   */\n      0x01\n        /* \"#utility.yul\":24465:24478   */\n      shr\n        /* \"#utility.yul\":24444:24478   */\n      swap1\n      pop\n        /* \"#utility.yul\":24383:24485   */\n      swap2\n      swap1\n      pop\n      jump\t// out\n        /* \"#utility.yul\":24491:24663   */\n    tag_492:\n        /* \"#utility.yul\":24631:24655   */\n      0x4d7573742062652070726f706f736564206f776e657200000000000000000000\n        /* \"#utility.yul\":24627:24628   */\n      0x00\n        /* \"#utility.yul\":24619:24625   */\n      dup3\n        /* \"#utility.yul\":24615:24629   */\n      add\n        /* \"#utility.yul\":24608:24656   */\n      mstore\n        /* \"#utility.yul\":24491:24663   */\n      pop\n      jump\t// out\n        /* \"#utility.yul\":24669:24891   */\n    tag_497:\n        /* \"#utility.yul\":24809:24843   */\n      0x756e61626c6520746f207472616e73666572416e6443616c6c20746f206f7261\n        /* \"#utility.yul\":24805:24806   */\n      0x00\n        /* \"#utility.yul\":24797:24803   */\n      dup3\n        /* \"#utility.yul\":24793:24807   */\n      add\n        /* \"#utility.yul\":24786:24844   */\n      mstore\n        /* \"#utility.yul\":24878:24883   */\n      0x636c650000000000000000000000000000000000000000000000000000000000\n        /* \"#utility.yul\":24873:24875   */\n      0x20\n        /* \"#utility.yul\":24865:24871   */\n      dup3\n        /* \"#utility.yul\":24861:24876   */\n      add\n        /* \"#utility.yul\":24854:24884   */\n      mstore\n        /* \"#utility.yul\":24669:24891   */\n      pop\n      jump\t// out\n        /* \"#utility.yul\":24897:25069   */\n    tag_502:\n        /* \"#utility.yul\":25037:25061   */\n      0x4f6e6c792063616c6c61626c65206279206f776e657200000000000000000000\n        /* \"#utility.yul\":25033:25034   */\n      0x00\n        /* \"#utility.yul\":25025:25031   */\n      dup3\n        /* \"#utility.yul\":25021:25035   */\n      add\n        /* \"#utility.yul\":25014:25062   */\n      mstore\n        /* \"#utility.yul\":24897:25069   */\n      pop\n      jump\t// out\n        /* \"#utility.yul\":25075:25243   */\n    tag_507:\n        /* \"#utility.yul\":25215:25235   */\n      0x556e61626c6520746f207472616e736665720000000000000000000000000000\n        /* \"#utility.yul\":25211:25212   */\n      0x00\n        /* \"#utility.yul\":25203:25209   */\n      dup3\n        /* \"#utility.yul\":25199:25213   */\n      add\n        /* \"#utility.yul\":25192:25236   */\n      mstore\n        /* \"#utility.yul\":25075:25243   */\n      pop\n      jump\t// out\n        /* \"#utility.yul\":25249:25422   */\n    tag_512:\n        /* \"#utility.yul\":25389:25414   */\n      0x43616e6e6f74207472616e7366657220746f2073656c66000000000000000000\n        /* \"#utility.yul\":25385:25386   */\n      0x00\n        /* \"#utility.yul\":25377:25383   */\n      dup3\n        /* \"#utility.yul\":25373:25387   */\n      add\n        /* \"#utility.yul\":25366:25415   */\n      mstore\n        /* \"#utility.yul\":25249:25422   */\n      pop\n      jump\t// out\n        /* \"#utility.yul\":25428:25655   */\n    tag_517:\n        /* \"#utility.yul\":25568:25602   */\n      0x536f75726365206d75737420626520746865206f7261636c65206f6620746865\n        /* \"#utility.yul\":25564:25565   */\n      0x00\n        /* \"#utility.yul\":25556:25562   */\n      dup3\n        /* \"#utility.yul\":25552:25566   */\n      add\n        /* \"#utility.yul\":25545:25603   */\n      mstore\n        /* \"#utility.yul\":25637:25647   */\n      0x2072657175657374000000000000000000000000000000000000000000000000\n        /* \"#utility.yul\":25632:25634   */\n      0x20\n        /* \"#utility.yul\":25624:25630   */\n      dup3\n        /* \"#utility.yul\":25620:25635   */\n      add\n        /* \"#utility.yul\":25613:25648   */\n      mstore\n        /* \"#utility.yul\":25428:25655   */\n      pop\n      jump\t// out\n        /* \"#utility.yul\":25661:25783   */\n    tag_382:\n        /* \"#utility.yul\":25734:25758   */\n      tag_701\n        /* \"#utility.yul\":25752:25757   */\n      dup2\n        /* \"#utility.yul\":25734:25758   */\n      tag_458\n      jump\t// in\n    tag_701:\n        /* \"#utility.yul\":25727:25732   */\n      dup2\n        /* \"#utility.yul\":25724:25759   */\n      eq\n        /* \"#utility.yul\":25714:25777   */\n      tag_702\n      jumpi\n        /* \"#utility.yul\":25773:25774   */\n      0x00\n        /* \"#utility.yul\":25770:25771   */\n      dup1\n        /* \"#utility.yul\":25763:25775   */\n      revert\n        /* \"#utility.yul\":25714:25777   */\n    tag_702:\n        /* \"#utility.yul\":25661:25783   */\n      pop\n      jump\t// out\n        /* \"#utility.yul\":25789:25905   */\n    tag_386:\n        /* \"#utility.yul\":25859:25880   */\n      tag_704\n        /* \"#utility.yul\":25874:25879   */\n      dup2\n        /* \"#utility.yul\":25859:25880   */\n      tag_641\n      jump\t// in\n    tag_704:\n        /* \"#utility.yul\":25852:25857   */\n      dup2\n        /* \"#utility.yul\":25849:25881   */\n      eq\n        /* \"#utility.yul\":25839:25899   */\n      tag_705\n      jumpi\n        /* \"#utility.yul\":25895:25896   */\n      0x00\n        /* \"#utility.yul\":25892:25893   */\n      dup1\n        /* \"#utility.yul\":25885:25897   */\n      revert\n        /* \"#utility.yul\":25839:25899   */\n    tag_705:\n        /* \"#utility.yul\":25789:25905   */\n      pop\n      jump\t// out\n        /* \"#utility.yul\":25911:26033   */\n    tag_390:\n        /* \"#utility.yul\":25984:26008   */\n      tag_707\n        /* \"#utility.yul\":26002:26007   */\n      dup2\n        /* \"#utility.yul\":25984:26008   */\n      tag_462\n      jump\t// in\n    tag_707:\n        /* \"#utility.yul\":25977:25982   */\n      dup2\n        /* \"#utility.yul\":25974:26009   */\n      eq\n        /* \"#utility.yul\":25964:26027   */\n      tag_708\n      jumpi\n        /* \"#utility.yul\":26023:26024   */\n      0x00\n        /* \"#utility.yul\":26020:26021   */\n      dup1\n        /* \"#utility.yul\":26013:26025   */\n      revert\n        /* \"#utility.yul\":25964:26027   */\n    tag_708:\n        /* \"#utility.yul\":25911:26033   */\n      pop\n      jump\t// out\n        /* \"#utility.yul\":26039:26159   */\n    tag_394:\n        /* \"#utility.yul\":26111:26134   */\n      tag_710\n        /* \"#utility.yul\":26128:26133   */\n      dup2\n        /* \"#utility.yul\":26111:26134   */\n      tag_466\n      jump\t// in\n    tag_710:\n        /* \"#utility.yul\":26104:26109   */\n      dup2\n        /* \"#utility.yul\":26101:26135   */\n      eq\n        /* \"#utility.yul\":26091:26153   */\n      tag_711\n      jumpi\n        /* \"#utility.yul\":26149:26150   */\n      0x00\n        /* \"#utility.yul\":26146:26147   */\n      dup1\n        /* \"#utility.yul\":26139:26151   */\n      revert\n        /* \"#utility.yul\":26091:26153   */\n    tag_711:\n        /* \"#utility.yul\":26039:26159   */\n      pop\n      jump\t// out\n        /* \"#utility.yul\":26165:26285   */\n    tag_398:\n        /* \"#utility.yul\":26237:26260   */\n      tag_713\n        /* \"#utility.yul\":26254:26259   */\n      dup2\n        /* \"#utility.yul\":26237:26260   */\n      tag_486\n      jump\t// in\n    tag_713:\n        /* \"#utility.yul\":26230:26235   */\n      dup2\n        /* \"#utility.yul\":26227:26261   */\n      eq\n        /* \"#utility.yul\":26217:26279   */\n      tag_714\n      jumpi\n        /* \"#utility.yul\":26275:26276   */\n      0x00\n        /* \"#utility.yul\":26272:26273   */\n      dup1\n        /* \"#utility.yul\":26265:26277   */\n      revert\n        /* \"#utility.yul\":26217:26279   */\n    tag_714:\n        /* \"#utility.yul\":26165:26285   */\n      pop\n      jump\t// out\n        /* \"#utility.yul\":26291:26413   */\n    tag_408:\n        /* \"#utility.yul\":26364:26388   */\n      tag_716\n        /* \"#utility.yul\":26382:26387   */\n      dup2\n        /* \"#utility.yul\":26364:26388   */\n      tag_521\n      jump\t// in\n    tag_716:\n        /* \"#utility.yul\":26357:26362   */\n      dup2\n        /* \"#utility.yul\":26354:26389   */\n      eq\n        /* \"#utility.yul\":26344:26407   */\n      tag_717\n      jumpi\n        /* \"#utility.yul\":26403:26404   */\n      0x00\n        /* \"#utility.yul\":26400:26401   */\n      dup1\n        /* \"#utility.yul\":26393:26405   */\n      revert\n        /* \"#utility.yul\":26344:26407   */\n    tag_717:\n        /* \"#utility.yul\":26291:26413   */\n      pop\n      jump\t// out\n    stop\n    data_444739292f65e0d84586af555ca805e0303948242aa5bbf9a7032603676a8ec3 68747470733a2f2f6d696e2d6170692e63727970746f636f6d706172652e636f6d2f646174612f70726963653f6673796d3d455448267473796d733d555344\n    data_f3fa6b402eb4c49347f9ac6c8c8e0baf0eacaf39bcd59583feb12d9b90720124 68747470733a2f2f6d696e2d6170692e63727970746f636f6d706172652e636f6d2f646174612f70726963656d756c746966756c6c3f6673796d733d455448267473796d733d555344\n\n    auxdata: 0xa26469706673582212205572f7cdbd964c9081584f021e62d05327b341ca1fe9837dbbf31bb97691cdb764736f6c63430008070033\n}\n",
				"bytecode": {
					"linkReferences": {},
					"object": "608060405260016004553480156200001657600080fd5b50338060008073ffffffffffffffffffffffffffffffffffffffff168273ffffffffffffffffffffffffffffffffffffffff1614156200008d576040517f08c379a0000000000000000000000000000000000000000000000000000000008152600401620000849062000307565b60405180910390fd5b81600660006101000a81548173ffffffffffffffffffffffffffffffffffffffff021916908373ffffffffffffffffffffffffffffffffffffffff160217905550600073ffffffffffffffffffffffffffffffffffffffff168173ffffffffffffffffffffffffffffffffffffffff1614620001155762000114816200014360201b60201c565b5b5050506200013d73326c977e6efc84e512bb9c30f76e30c160ed06fb6200027560201b60201c565b620003ae565b3373ffffffffffffffffffffffffffffffffffffffff168173ffffffffffffffffffffffffffffffffffffffff161415620001b5576040517f08c379a0000000000000000000000000000000000000000000000000000000008152600401620001ac9062000329565b60405180910390fd5b80600760006101000a81548173ffffffffffffffffffffffffffffffffffffffff021916908373ffffffffffffffffffffffffffffffffffffffff1602179055508073ffffffffffffffffffffffffffffffffffffffff16600660009054906101000a900473ffffffffffffffffffffffffffffffffffffffff1673ffffffffffffffffffffffffffffffffffffffff167fed8889f560326eb138920d842192f0eb3dd22b4f139c87a2c57538e05bae127860405160405180910390a350565b80600260006101000a81548173ffffffffffffffffffffffffffffffffffffffff021916908373ffffffffffffffffffffffffffffffffffffffff16021790555050565b6000620002c86018836200034b565b9150620002d5826200035c565b602082019050919050565b6000620002ef6017836200034b565b9150620002fc8262000385565b602082019050919050565b600060208201905081810360008301526200032281620002b9565b9050919050565b600060208201905081810360008301526200034481620002e0565b9050919050565b600082825260208201905092915050565b7f43616e6e6f7420736574206f776e657220746f207a65726f0000000000000000600082015250565b7f43616e6e6f74207472616e7366657220746f2073656c66000000000000000000600082015250565b612d7c80620003be6000396000f3fe608060405234801561001057600080fd5b50600436106100f55760003560e01c806392cdaaf311610097578063e9edbf0311610066578063e9edbf0314610212578063ec65d0f814610230578063f2fde38b1461024c578063f3bdf8ba14610268576100f5565b806392cdaaf3146101a05780639d1b464a146101bc578063a46fbe1a146101da578063ab643c10146101f6576100f5565b8063619cba1a116100d3578063619cba1a1461015257806379ba50971461016e5780638da5cb5b146101785780638dc654a214610196576100f5565b8063165d35e1146100fa5780632183abd11461011857806349556aff14610136575b600080fd5b610102610284565b60405161010f9190612255565b60405180910390f35b610120610293565b60405161012d91906123bc565b60405180910390f35b610150600480360381019061014b9190611f51565b610299565b005b61016c60048036038101906101679190611ec8565b6103d8565b005b610176610552565b005b6101806106e9565b60405161018d9190612255565b60405180910390f35b61019e610713565b005b6101ba60048036038101906101b59190611fd1565b61087e565b005b6101c46109bd565b6040516101d19190612497565b60405180910390f35b6101f460048036038101906101ef9190611f91565b6109c3565b005b610210600480360381019061020b9190611ec8565b610b02565b005b61021a610c79565b604051610227919061235c565b60405180910390f35b61024a60048036038101906102459190612011565b610c7f565b005b61026660048036038101906102619190611e9b565b610c99565b005b610282600480360381019061027d9190611ec8565b610cad565b005b600061028e610f4c565b905090565b60095481565b816005600082815260200190815260200160002060009054906101000a900473ffffffffffffffffffffffffffffffffffffffff1673ffffffffffffffffffffffffffffffffffffffff163373ffffffffffffffffffffffffffffffffffffffff161461033b576040517f08c379a000000000000000000000000000000000000000000000000000000000815260040161033290612477565b60405180910390fd5b6005600082815260200190815260200160002060006101000a81549073ffffffffffffffffffffffffffffffffffffffff0219169055807f7cc135e0cebb02c3480ae5d74d377283180a2601f8f644edf7987b009316c63a60405160405180910390a281837f1a7783cfc5355cd0706abec2229662cda9cefcfc8aeb31fec8b391ba5eb67cbe60405160405180910390a381600a81905550505050565b6103e0610f76565b60006103fc6103ee83611008565b3063a46fbe1a60e01b611032565b90506104606040518060400160405280600381526020017f6765740000000000000000000000000000000000000000000000000000000000815250604051806080016040528060498152602001612cfe60499139836110639092919063ffffffff16565b6104df6040518060400160405280600481526020017f70617468000000000000000000000000000000000000000000000000000000008152506040518060400160405280601881526020017f5241572c4554482c5553442c4348414e47455043544441590000000000000000815250836110639092919063ffffffff16565b61052d6040518060400160405280600581526020017f74696d6573000000000000000000000000000000000000000000000000000000815250633b9aca00836110969092919063ffffffff16565b61054c8382670de0b6b3a7640000600161054791906126fc565b6110c9565b50505050565b600760009054906101000a900473ffffffffffffffffffffffffffffffffffffffff1673ffffffffffffffffffffffffffffffffffffffff163373ffffffffffffffffffffffffffffffffffffffff16146105e2576040517f08c379a00000000000000000000000000000000000000000000000000000000081526004016105d9906123d7565b60405180910390fd5b6000600660009054906101000a900473ffffffffffffffffffffffffffffffffffffffff16905033600660006101000a81548173ffffffffffffffffffffffffffffffffffffffff021916908373ffffffffffffffffffffffffffffffffffffffff1602179055506000600760006101000a81548173ffffffffffffffffffffffffffffffffffffffff021916908373ffffffffffffffffffffffffffffffffffffffff1602179055503373ffffffffffffffffffffffffffffffffffffffff168173ffffffffffffffffffffffffffffffffffffffff167f8be0079c531659141344cd1fd0a4f28419497f9722a3daafe3b4186f6b6457e060405160405180910390a350565b6000600660009054906101000a900473ffffffffffffffffffffffffffffffffffffffff16905090565b61071b610f76565b6000610725610f4c565b90508073ffffffffffffffffffffffffffffffffffffffff1663a9059cbb338373ffffffffffffffffffffffffffffffffffffffff166370a08231306040518263ffffffff1660e01b815260040161077d9190612255565b60206040518083038186803b15801561079557600080fd5b505afa1580156107a9573d6000803e3d6000fd5b505050506040513d601f19601f820116820180604052508101906107cd9190612078565b6040518363ffffffff1660e01b81526004016107ea929190612270565b602060405180830381600087803b15801561080457600080fd5b505af1158015610818573d6000803e3d6000fd5b505050506040513d601f19601f8201168201806040525081019061083c9190611f24565b61087b576040517f08c379a000000000000000000000000000000000000000000000000000000000815260040161087290612437565b60405180910390fd5b50565b816005600082815260200190815260200160002060009054906101000a900473ffffffffffffffffffffffffffffffffffffffff1673ffffffffffffffffffffffffffffffffffffffff163373ffffffffffffffffffffffffffffffffffffffff1614610920576040517f08c379a000000000000000000000000000000000000000000000000000000000815260040161091790612477565b60405180910390fd5b6005600082815260200190815260200160002060006101000a81549073ffffffffffffffffffffffffffffffffffffffff0219169055807f7cc135e0cebb02c3480ae5d74d377283180a2601f8f644edf7987b009316c63a60405160405180910390a281837f794eb9e29f6750ede99e05248d997a9ab9fa23c4a7eaff8afa729080eb7c642860405160405180910390a381600881905550505050565b60085481565b816005600082815260200190815260200160002060009054906101000a900473ffffffffffffffffffffffffffffffffffffffff1673ffffffffffffffffffffffffffffffffffffffff163373ffffffffffffffffffffffffffffffffffffffff1614610a65576040517f08c379a0000000000000000000000000000000000000000000000000000000008152600401610a5c90612477565b60405180910390fd5b6005600082815260200190815260200160002060006101000a81549073ffffffffffffffffffffffffffffffffffffffff0219169055807f7cc135e0cebb02c3480ae5d74d377283180a2601f8f644edf7987b009316c63a60405160405180910390a281837f36f03c766dbeb725bf2a1e6cf2d934a02bf3cd9644b55767c8f41ef2d4af061260405160405180910390a381600981905550505050565b610b0a610f76565b6000610b26610b1883611008565b306392cdaaf360e01b611032565b9050610b8a6040518060400160405280600381526020017f67657400000000000000000000000000000000000000000000000000000000008152506040518060600160405280603f8152602001612cbf603f9139836110639092919063ffffffff16565b610c096040518060400160405280600481526020017f70617468000000000000000000000000000000000000000000000000000000008152506040518060400160405280600381526020017f5553440000000000000000000000000000000000000000000000000000000000815250836110639092919063ffffffff16565b610c546040518060400160405280600581526020017f74696d65730000000000000000000000000000000000000000000000000000008152506064836110969092919063ffffffff16565b610c738382670de0b6b3a76400006001610c6e91906126fc565b6110c9565b50505050565b600a5481565b610c87610f76565b610c9384848484611195565b50505050565b610ca1610f76565b610caa816112a8565b50565b610cb5610f76565b6000610cd1610cc383611008565b306349556aff60e01b611032565b9050610d356040518060400160405280600381526020017f6765740000000000000000000000000000000000000000000000000000000000815250604051806080016040528060498152602001612cfe60499139836110639092919063ffffffff16565b6000600467ffffffffffffffff811115610d5257610d51612a84565b5b604051908082528060200260200182016040528015610d8557816020015b6060815260200190600190039081610d705790505b5090506040518060400160405280600381526020017f524157000000000000000000000000000000000000000000000000000000000081525081600081518110610dd257610dd1612a55565b5b60200260200101819052506040518060400160405280600381526020017f455448000000000000000000000000000000000000000000000000000000000081525081600181518110610e2757610e26612a55565b5b60200260200101819052506040518060400160405280600381526020017f555344000000000000000000000000000000000000000000000000000000000081525081600281518110610e7c57610e7b612a55565b5b60200260200101819052506040518060400160405280600a81526020017f4c4153544d41524b45540000000000000000000000000000000000000000000081525081600381518110610ed157610ed0612a55565b5b6020026020010181905250610f266040518060400160405280600481526020017f706174680000000000000000000000000000000000000000000000000000000081525082846113d79092919063ffffffff16565b610f458483670de0b6b3a76400006001610f4091906126fc565b6110c9565b5050505050565b6000600260009054906101000a900473ffffffffffffffffffffffffffffffffffffffff16905090565b600660009054906101000a900473ffffffffffffffffffffffffffffffffffffffff1673ffffffffffffffffffffffffffffffffffffffff163373ffffffffffffffffffffffffffffffffffffffff1614611006576040517f08c379a0000000000000000000000000000000000000000000000000000000008152600401610ffd90612417565b60405180910390fd5b565b600080829050600081511415611024576000801b91505061102d565b60208301519150505b919050565b61103a611d11565b611042611d11565b6110598585858461145e909392919063ffffffff16565b9150509392505050565b61107a82846080015161150e90919063ffffffff16565b61109181846080015161150e90919063ffffffff16565b505050565b6110ad82846080015161150e90919063ffffffff16565b6110c481846080015161153390919063ffffffff16565b505050565b60008060045490506001816110de9190612535565b6004819055506000634042994660e01b60008087600001513089604001518760018c608001516000015160405160240161111f989796959493929190612299565b604051602081830303815290604052907bffffffffffffffffffffffffffffffffffffffffffffffffffffffff19166020820180517bffffffffffffffffffffffffffffffffffffffffffffffffffffffff8381831617835250505050905061118a868386846115e0565b925050509392505050565b60006005600086815260200190815260200160002060009054906101000a900473ffffffffffffffffffffffffffffffffffffffff1690506005600086815260200190815260200160002060006101000a81549073ffffffffffffffffffffffffffffffffffffffff0219169055847fe1fe3afa0f7f761ff0a8b89086790efd5140d2907ebd5b7ff6bfcb5e075fd4c560405160405180910390a28073ffffffffffffffffffffffffffffffffffffffff16636ee4d553868686866040518563ffffffff1660e01b815260040161126f9493929190612377565b600060405180830381600087803b15801561128957600080fd5b505af115801561129d573d6000803e3d6000fd5b505050505050505050565b3373ffffffffffffffffffffffffffffffffffffffff168173ffffffffffffffffffffffffffffffffffffffff161415611317576040517f08c379a000000000000000000000000000000000000000000000000000000000815260040161130e90612457565b60405180910390fd5b80600760006101000a81548173ffffffffffffffffffffffffffffffffffffffff021916908373ffffffffffffffffffffffffffffffffffffffff1602179055508073ffffffffffffffffffffffffffffffffffffffff16600660009054906101000a900473ffffffffffffffffffffffffffffffffffffffff1673ffffffffffffffffffffffffffffffffffffffff167fed8889f560326eb138920d842192f0eb3dd22b4f139c87a2c57538e05bae127860405160405180910390a350565b6113ee82846080015161150e90919063ffffffff16565b6113fb8360800151611784565b60005b815181101561144b5761143882828151811061141d5761141c612a55565b5b6020026020010151856080015161150e90919063ffffffff16565b80806114439061294f565b9150506113fe565b506114598360800151611792565b505050565b611466611d11565b61147685608001516101006117a0565b508385600001818152505082856020019073ffffffffffffffffffffffffffffffffffffffff16908173ffffffffffffffffffffffffffffffffffffffff16815250508185604001907bffffffffffffffffffffffffffffffffffffffffffffffffffffffff191690817bffffffffffffffffffffffffffffffffffffffffffffffffffffffff191681525050849050949350505050565b61151b826003835161180a565b61152e818361198f90919063ffffffff16565b505050565b7fffffffffffffffffffffffffffffffffffffffffffffffff000000000000000081121561156a5761156582826119b1565b6115dc565b67ffffffffffffffff811315611589576115848282611a28565b6115db565b600081126115a25761159d8260008361180a565b6115da565b6115d9826001837fffffffffffffffffffffffffffffffffffffffffffffffffffffffffffffffff6115d49190612756565b61180a565b5b5b5b5050565b600030846040516020016115f5929190612229565b604051602081830303815290604052805190602001209050846005600083815260200190815260200160002060006101000a81548173ffffffffffffffffffffffffffffffffffffffff021916908373ffffffffffffffffffffffffffffffffffffffff160217905550807fb5e6e01e79f91267dc17b4e6314d5d4d03593d2ceee0fbb452b750bd70ea5af960405160405180910390a2600260009054906101000a900473ffffffffffffffffffffffffffffffffffffffff1673ffffffffffffffffffffffffffffffffffffffff16634000aea08685856040518463ffffffff1660e01b81526004016116eb9392919061231e565b602060405180830381600087803b15801561170557600080fd5b505af1158015611719573d6000803e3d6000fd5b505050506040513d601f19601f8201168201806040525081019061173d9190611f24565b61177c576040517f08c379a0000000000000000000000000000000000000000000000000000000008152600401611773906123f7565b60405180910390fd5b949350505050565b61178f816004611a74565b50565b61179d816007611a74565b50565b6117a8611d7e565b60006020836117b791906129c6565b146117e3576020826117c991906129c6565b60206117d591906127ea565b826117e09190612535565b91505b81836020018181525050604051808452600081528281016020016040525082905092915050565b60178167ffffffffffffffff16116118415761183b8160058460ff16901b60ff161784611a9690919063ffffffff16565b5061198a565b60ff8167ffffffffffffffff161161189757611870601860058460ff16901b1784611a9690919063ffffffff16565b506118918167ffffffffffffffff16600185611ab69092919063ffffffff16565b50611989565b61ffff8167ffffffffffffffff16116118ee576118c7601960058460ff16901b1784611a9690919063ffffffff16565b506118e88167ffffffffffffffff16600285611ab69092919063ffffffff16565b50611988565b63ffffffff8167ffffffffffffffff161161194757611920601a60058460ff16901b1784611a9690919063ffffffff16565b506119418167ffffffffffffffff16600485611ab69092919063ffffffff16565b50611987565b611964601b60058460ff16901b1784611a9690919063ffffffff16565b506119858167ffffffffffffffff16600885611ab69092919063ffffffff16565b505b5b5b5b505050565b611997611d7e565b6119a983846000015151848551611ad8565b905092915050565b6119cf60036005600660ff16901b1783611a9690919063ffffffff16565b50611a2482827fffffffffffffffffffffffffffffffffffffffffffffffffffffffffffffffff611a009190612756565b604051602001611a109190612497565b604051602081830303815290604052611bc7565b5050565b611a4660026005600660ff16901b1783611a9690919063ffffffff16565b50611a708282604051602001611a5c9190612497565b604051602081830303815290604052611bc7565b5050565b611a91601f60058360ff16901b1783611a9690919063ffffffff16565b505050565b611a9e611d7e565b611aae8384600001515184611bec565b905092915050565b611abe611d7e565b611acf848560000151518585611c43565b90509392505050565b611ae0611d7e565b8251821115611aee57600080fd5b84602001518285611aff9190612535565b1115611b3457611b33856002611b2488602001518887611b1f9190612535565b611cd1565b611b2e91906126fc565b611ced565b5b600080865180518760208301019350808887011115611b535787860182525b60208701925050505b60208410611b9a5780518252602082611b759190612535565b9150602081611b849190612535565b9050602084611b9391906127ea565b9350611b5c565b60006001856020036101000a03905080198251168184511681811785525050508692505050949350505050565b611bd4826002835161180a565b611be7818361198f90919063ffffffff16565b505050565b611bf4611d7e565b83602001518310611c1a57611c198460028660200151611c1491906126fc565b611ced565b5b8351805160208583010184815381861415611c36576001820183525b5050508390509392505050565b611c4b611d7e565b84602001518483611c5c9190612535565b1115611c8457611c838560028685611c749190612535565b611c7e91906126fc565b611ced565b5b6000600183610100611c9691906125de565b611ca091906127ea565b90508551838682010185831982511617815281518588011115611cc35784870182525b505085915050949350505050565b600081831115611ce357829050611ce7565b8190505b92915050565b600082600001519050611d0083836117a0565b50611d0b838261198f565b50505050565b6040518060a0016040528060008019168152602001600073ffffffffffffffffffffffffffffffffffffffff16815260200160007bffffffffffffffffffffffffffffffffffffffffffffffffffffffff1916815260200160008152602001611d78611d7e565b81525090565b604051806040016040528060608152602001600081525090565b6000611dab611da6846124d7565b6124b2565b905082815260208101848484011115611dc757611dc6612ab8565b5b611dd28482856128dc565b509392505050565b600081359050611de981612c34565b92915050565b600081519050611dfe81612c4b565b92915050565b600081359050611e1381612c62565b92915050565b600081359050611e2881612c79565b92915050565b600081359050611e3d81612c90565b92915050565b600082601f830112611e5857611e57612ab3565b5b8135611e68848260208601611d98565b91505092915050565b600081359050611e8081612ca7565b92915050565b600081519050611e9581612ca7565b92915050565b600060208284031215611eb157611eb0612ac2565b5b6000611ebf84828501611dda565b91505092915050565b60008060408385031215611edf57611ede612ac2565b5b6000611eed85828601611dda565b925050602083013567ffffffffffffffff811115611f0e57611f0d612abd565b5b611f1a85828601611e43565b9150509250929050565b600060208284031215611f3a57611f39612ac2565b5b6000611f4884828501611def565b91505092915050565b60008060408385031215611f6857611f67612ac2565b5b6000611f7685828601611e04565b9250506020611f8785828601611e04565b9150509250929050565b60008060408385031215611fa857611fa7612ac2565b5b6000611fb685828601611e04565b9250506020611fc785828601611e2e565b9150509250929050565b60008060408385031215611fe857611fe7612ac2565b5b6000611ff685828601611e04565b925050602061200785828601611e71565b9150509250929050565b6000806000806080858703121561202b5761202a612ac2565b5b600061203987828801611e04565b945050602061204a87828801611e71565b935050604061205b87828801611e19565b925050606061206c87828801611e71565b91505092959194509250565b60006020828403121561208e5761208d612ac2565b5b600061209c84828501611e86565b91505092915050565b6120ae8161281e565b82525050565b6120bd8161283c565b82525050565b6120cc81612846565b82525050565b60006120dd82612508565b6120e78185612513565b93506120f78185602086016128eb565b61210081612ac7565b840191505092915050565b61211c612117826128a6565b612998565b82525050565b61212b81612872565b82525050565b600061213e601683612524565b915061214982612af2565b602082019050919050565b6000612161602383612524565b915061216c82612b1b565b604082019050919050565b6000612184601683612524565b915061218f82612b6a565b602082019050919050565b60006121a7601283612524565b91506121b282612b93565b602082019050919050565b60006121ca601783612524565b91506121d582612bbc565b602082019050919050565b60006121ed602883612524565b91506121f882612be5565b604082019050919050565b61220c8161289c565b82525050565b61222361221e8261289c565b6129bc565b82525050565b6000612235828561210b565b6014820191506122458284612212565b6020820191508190509392505050565b600060208201905061226a60008301846120a5565b92915050565b600060408201905061228560008301856120a5565b6122926020830184612203565b9392505050565b6000610100820190506122af600083018b6120a5565b6122bc602083018a612203565b6122c960408301896120b4565b6122d660608301886120a5565b6122e360808301876120c3565b6122f060a0830186612203565b6122fd60c0830185612203565b81810360e083015261230f81846120d2565b90509998505050505050505050565b600060608201905061233360008301866120a5565b6123406020830185612203565b818103604083015261235281846120d2565b9050949350505050565b600060208201905061237160008301846120b4565b92915050565b600060808201905061238c60008301876120b4565b6123996020830186612203565b6123a660408301856120c3565b6123b36060830184612203565b95945050505050565b60006020820190506123d16000830184612122565b92915050565b600060208201905081810360008301526123f081612131565b9050919050565b6000602082019050818103600083015261241081612154565b9050919050565b6000602082019050818103600083015261243081612177565b9050919050565b600060208201905081810360008301526124508161219a565b9050919050565b60006020820190508181036000830152612470816121bd565b9050919050565b60006020820190508181036000830152612490816121e0565b9050919050565b60006020820190506124ac6000830184612203565b92915050565b60006124bc6124cd565b90506124c8828261291e565b919050565b6000604051905090565b600067ffffffffffffffff8211156124f2576124f1612a84565b5b6124fb82612ac7565b9050602081019050919050565b600081519050919050565b600082825260208201905092915050565b600082825260208201905092915050565b60006125408261289c565b915061254b8361289c565b9250827fffffffffffffffffffffffffffffffffffffffffffffffffffffffffffffffff038211156125805761257f6129f7565b5b828201905092915050565b6000808291508390505b60018511156125d5578086048111156125b1576125b06129f7565b5b60018516156125c05780820291505b80810290506125ce85612ae5565b9450612595565b94509492505050565b60006125e98261289c565b91506125f48361289c565b92506126217fffffffffffffffffffffffffffffffffffffffffffffffffffffffffffffffff8484612629565b905092915050565b60008261263957600190506126f5565b8161264757600090506126f5565b816001811461265d576002811461266757612696565b60019150506126f5565b60ff841115612679576126786129f7565b5b8360020a9150848211156126905761268f6129f7565b5b506126f5565b5060208310610133831016604e8410600b84101617156126cb5782820a9050838111156126c6576126c56129f7565b5b6126f5565b6126d8848484600161258b565b925090508184048111156126ef576126ee6129f7565b5b81810290505b9392505050565b60006127078261289c565b91506127128361289c565b9250817fffffffffffffffffffffffffffffffffffffffffffffffffffffffffffffffff048311821515161561274b5761274a6129f7565b5b828202905092915050565b600061276182612872565b915061276c83612872565b9250827f8000000000000000000000000000000000000000000000000000000000000000018212600084121516156127a7576127a66129f7565b5b827f7fffffffffffffffffffffffffffffffffffffffffffffffffffffffffffffff0182136000841216156127df576127de6129f7565b5b828203905092915050565b60006127f58261289c565b91506128008361289c565b925082821015612813576128126129f7565b5b828203905092915050565b60006128298261287c565b9050919050565b60008115159050919050565b6000819050919050565b60007fffffffff0000000000000000000000000000000000000000000000000000000082169050919050565b6000819050919050565b600073ffffffffffffffffffffffffffffffffffffffff82169050919050565b6000819050919050565b60006128b1826128b8565b9050919050565b60006128c3826128ca565b9050919050565b60006128d58261287c565b9050919050565b82818337600083830152505050565b60005b838110156129095780820151818401526020810190506128ee565b83811115612918576000848401525b50505050565b61292782612ac7565b810181811067ffffffffffffffff8211171561294657612945612a84565b5b80604052505050565b600061295a8261289c565b91507fffffffffffffffffffffffffffffffffffffffffffffffffffffffffffffffff82141561298d5761298c6129f7565b5b600182019050919050565b60006129a3826129aa565b9050919050565b60006129b582612ad8565b9050919050565b6000819050919050565b60006129d18261289c565b91506129dc8361289c565b9250826129ec576129eb612a26565b5b828206905092915050565b7f4e487b7100000000000000000000000000000000000000000000000000000000600052601160045260246000fd5b7f4e487b7100000000000000000000000000000000000000000000000000000000600052601260045260246000fd5b7f4e487b7100000000000000000000000000000000000000000000000000000000600052603260045260246000fd5b7f4e487b7100000000000000000000000000000000000000000000000000000000600052604160045260246000fd5b600080fd5b600080fd5b600080fd5b600080fd5b6000601f19601f8301169050919050565b60008160601b9050919050565b60008160011c9050919050565b7f4d7573742062652070726f706f736564206f776e657200000000000000000000600082015250565b7f756e61626c6520746f207472616e73666572416e6443616c6c20746f206f726160008201527f636c650000000000000000000000000000000000000000000000000000000000602082015250565b7f4f6e6c792063616c6c61626c65206279206f776e657200000000000000000000600082015250565b7f556e61626c6520746f207472616e736665720000000000000000000000000000600082015250565b7f43616e6e6f74207472616e7366657220746f2073656c66000000000000000000600082015250565b7f536f75726365206d75737420626520746865206f7261636c65206f662074686560008201527f2072657175657374000000000000000000000000000000000000000000000000602082015250565b612c3d8161281e565b8114612c4857600080fd5b50565b612c5481612830565b8114612c5f57600080fd5b50565b612c6b8161283c565b8114612c7657600080fd5b50565b612c8281612846565b8114612c8d57600080fd5b50565b612c9981612872565b8114612ca457600080fd5b50565b612cb08161289c565b8114612cbb57600080fd5b5056fe68747470733a2f2f6d696e2d6170692e63727970746f636f6d706172652e636f6d2f646174612f70726963653f6673796d3d455448267473796d733d55534468747470733a2f2f6d696e2d6170692e63727970746f636f6d706172652e636f6d2f646174612f70726963656d756c746966756c6c3f6673796d733d455448267473796d733d555344a26469706673582212205572f7cdbd964c9081584f021e62d05327b341ca1fe9837dbbf31bb97691cdb764736f6c63430008070033",
					"opcodes": "PUSH1 0x80 PUSH1 0x40 MSTORE PUSH1 0x1 PUSH1 0x4 SSTORE CALLVALUE DUP1 ISZERO PUSH3 0x16 JUMPI PUSH1 0x0 DUP1 REVERT JUMPDEST POP CALLER DUP1 PUSH1 0x0 DUP1 PUSH20 0xFFFFFFFFFFFFFFFFFFFFFFFFFFFFFFFFFFFFFFFF AND DUP3 PUSH20 0xFFFFFFFFFFFFFFFFFFFFFFFFFFFFFFFFFFFFFFFF AND EQ ISZERO PUSH3 0x8D JUMPI PUSH1 0x40 MLOAD PUSH32 0x8C379A000000000000000000000000000000000000000000000000000000000 DUP2 MSTORE PUSH1 0x4 ADD PUSH3 0x84 SWAP1 PUSH3 0x307 JUMP JUMPDEST PUSH1 0x40 MLOAD DUP1 SWAP2 SUB SWAP1 REVERT JUMPDEST DUP2 PUSH1 0x6 PUSH1 0x0 PUSH2 0x100 EXP DUP2 SLOAD DUP2 PUSH20 0xFFFFFFFFFFFFFFFFFFFFFFFFFFFFFFFFFFFFFFFF MUL NOT AND SWAP1 DUP4 PUSH20 0xFFFFFFFFFFFFFFFFFFFFFFFFFFFFFFFFFFFFFFFF AND MUL OR SWAP1 SSTORE POP PUSH1 0x0 PUSH20 0xFFFFFFFFFFFFFFFFFFFFFFFFFFFFFFFFFFFFFFFF AND DUP2 PUSH20 0xFFFFFFFFFFFFFFFFFFFFFFFFFFFFFFFFFFFFFFFF AND EQ PUSH3 0x115 JUMPI PUSH3 0x114 DUP2 PUSH3 0x143 PUSH1 0x20 SHL PUSH1 0x20 SHR JUMP JUMPDEST JUMPDEST POP POP POP PUSH3 0x13D PUSH20 0x326C977E6EFC84E512BB9C30F76E30C160ED06FB PUSH3 0x275 PUSH1 0x20 SHL PUSH1 0x20 SHR JUMP JUMPDEST PUSH3 0x3AE JUMP JUMPDEST CALLER PUSH20 0xFFFFFFFFFFFFFFFFFFFFFFFFFFFFFFFFFFFFFFFF AND DUP2 PUSH20 0xFFFFFFFFFFFFFFFFFFFFFFFFFFFFFFFFFFFFFFFF AND EQ ISZERO PUSH3 0x1B5 JUMPI PUSH1 0x40 MLOAD PUSH32 0x8C379A000000000000000000000000000000000000000000000000000000000 DUP2 MSTORE PUSH1 0x4 ADD PUSH3 0x1AC SWAP1 PUSH3 0x329 JUMP JUMPDEST PUSH1 0x40 MLOAD DUP1 SWAP2 SUB SWAP1 REVERT JUMPDEST DUP1 PUSH1 0x7 PUSH1 0x0 PUSH2 0x100 EXP DUP2 SLOAD DUP2 PUSH20 0xFFFFFFFFFFFFFFFFFFFFFFFFFFFFFFFFFFFFFFFF MUL NOT AND SWAP1 DUP4 PUSH20 0xFFFFFFFFFFFFFFFFFFFFFFFFFFFFFFFFFFFFFFFF AND MUL OR SWAP1 SSTORE POP DUP1 PUSH20 0xFFFFFFFFFFFFFFFFFFFFFFFFFFFFFFFFFFFFFFFF AND PUSH1 0x6 PUSH1 0x0 SWAP1 SLOAD SWAP1 PUSH2 0x100 EXP SWAP1 DIV PUSH20 0xFFFFFFFFFFFFFFFFFFFFFFFFFFFFFFFFFFFFFFFF AND PUSH20 0xFFFFFFFFFFFFFFFFFFFFFFFFFFFFFFFFFFFFFFFF AND PUSH32 0xED8889F560326EB138920D842192F0EB3DD22B4F139C87A2C57538E05BAE1278 PUSH1 0x40 MLOAD PUSH1 0x40 MLOAD DUP1 SWAP2 SUB SWAP1 LOG3 POP JUMP JUMPDEST DUP1 PUSH1 0x2 PUSH1 0x0 PUSH2 0x100 EXP DUP2 SLOAD DUP2 PUSH20 0xFFFFFFFFFFFFFFFFFFFFFFFFFFFFFFFFFFFFFFFF MUL NOT AND SWAP1 DUP4 PUSH20 0xFFFFFFFFFFFFFFFFFFFFFFFFFFFFFFFFFFFFFFFF AND MUL OR SWAP1 SSTORE POP POP JUMP JUMPDEST PUSH1 0x0 PUSH3 0x2C8 PUSH1 0x18 DUP4 PUSH3 0x34B JUMP JUMPDEST SWAP2 POP PUSH3 0x2D5 DUP3 PUSH3 0x35C JUMP JUMPDEST PUSH1 0x20 DUP3 ADD SWAP1 POP SWAP2 SWAP1 POP JUMP JUMPDEST PUSH1 0x0 PUSH3 0x2EF PUSH1 0x17 DUP4 PUSH3 0x34B JUMP JUMPDEST SWAP2 POP PUSH3 0x2FC DUP3 PUSH3 0x385 JUMP JUMPDEST PUSH1 0x20 DUP3 ADD SWAP1 POP SWAP2 SWAP1 POP JUMP JUMPDEST PUSH1 0x0 PUSH1 0x20 DUP3 ADD SWAP1 POP DUP2 DUP2 SUB PUSH1 0x0 DUP4 ADD MSTORE PUSH3 0x322 DUP2 PUSH3 0x2B9 JUMP JUMPDEST SWAP1 POP SWAP2 SWAP1 POP JUMP JUMPDEST PUSH1 0x0 PUSH1 0x20 DUP3 ADD SWAP1 POP DUP2 DUP2 SUB PUSH1 0x0 DUP4 ADD MSTORE PUSH3 0x344 DUP2 PUSH3 0x2E0 JUMP JUMPDEST SWAP1 POP SWAP2 SWAP1 POP JUMP JUMPDEST PUSH1 0x0 DUP3 DUP3 MSTORE PUSH1 0x20 DUP3 ADD SWAP1 POP SWAP3 SWAP2 POP POP JUMP JUMPDEST PUSH32 0x43616E6E6F7420736574206F776E657220746F207A65726F0000000000000000 PUSH1 0x0 DUP3 ADD MSTORE POP JUMP JUMPDEST PUSH32 0x43616E6E6F74207472616E7366657220746F2073656C66000000000000000000 PUSH1 0x0 DUP3 ADD MSTORE POP JUMP JUMPDEST PUSH2 0x2D7C DUP1 PUSH3 0x3BE PUSH1 0x0 CODECOPY PUSH1 0x0 RETURN INVALID PUSH1 0x80 PUSH1 0x40 MSTORE CALLVALUE DUP1 ISZERO PUSH2 0x10 JUMPI PUSH1 0x0 DUP1 REVERT JUMPDEST POP PUSH1 0x4 CALLDATASIZE LT PUSH2 0xF5 JUMPI PUSH1 0x0 CALLDATALOAD PUSH1 0xE0 SHR DUP1 PUSH4 0x92CDAAF3 GT PUSH2 0x97 JUMPI DUP1 PUSH4 0xE9EDBF03 GT PUSH2 0x66 JUMPI DUP1 PUSH4 0xE9EDBF03 EQ PUSH2 0x212 JUMPI DUP1 PUSH4 0xEC65D0F8 EQ PUSH2 0x230 JUMPI DUP1 PUSH4 0xF2FDE38B EQ PUSH2 0x24C JUMPI DUP1 PUSH4 0xF3BDF8BA EQ PUSH2 0x268 JUMPI PUSH2 0xF5 JUMP JUMPDEST DUP1 PUSH4 0x92CDAAF3 EQ PUSH2 0x1A0 JUMPI DUP1 PUSH4 0x9D1B464A EQ PUSH2 0x1BC JUMPI DUP1 PUSH4 0xA46FBE1A EQ PUSH2 0x1DA JUMPI DUP1 PUSH4 0xAB643C10 EQ PUSH2 0x1F6 JUMPI PUSH2 0xF5 JUMP JUMPDEST DUP1 PUSH4 0x619CBA1A GT PUSH2 0xD3 JUMPI DUP1 PUSH4 0x619CBA1A EQ PUSH2 0x152 JUMPI DUP1 PUSH4 0x79BA5097 EQ PUSH2 0x16E JUMPI DUP1 PUSH4 0x8DA5CB5B EQ PUSH2 0x178 JUMPI DUP1 PUSH4 0x8DC654A2 EQ PUSH2 0x196 JUMPI PUSH2 0xF5 JUMP JUMPDEST DUP1 PUSH4 0x165D35E1 EQ PUSH2 0xFA JUMPI DUP1 PUSH4 0x2183ABD1 EQ PUSH2 0x118 JUMPI DUP1 PUSH4 0x49556AFF EQ PUSH2 0x136 JUMPI JUMPDEST PUSH1 0x0 DUP1 REVERT JUMPDEST PUSH2 0x102 PUSH2 0x284 JUMP JUMPDEST PUSH1 0x40 MLOAD PUSH2 0x10F SWAP2 SWAP1 PUSH2 0x2255 JUMP JUMPDEST PUSH1 0x40 MLOAD DUP1 SWAP2 SUB SWAP1 RETURN JUMPDEST PUSH2 0x120 PUSH2 0x293 JUMP JUMPDEST PUSH1 0x40 MLOAD PUSH2 0x12D SWAP2 SWAP1 PUSH2 0x23BC JUMP JUMPDEST PUSH1 0x40 MLOAD DUP1 SWAP2 SUB SWAP1 RETURN JUMPDEST PUSH2 0x150 PUSH1 0x4 DUP1 CALLDATASIZE SUB DUP2 ADD SWAP1 PUSH2 0x14B SWAP2 SWAP1 PUSH2 0x1F51 JUMP JUMPDEST PUSH2 0x299 JUMP JUMPDEST STOP JUMPDEST PUSH2 0x16C PUSH1 0x4 DUP1 CALLDATASIZE SUB DUP2 ADD SWAP1 PUSH2 0x167 SWAP2 SWAP1 PUSH2 0x1EC8 JUMP JUMPDEST PUSH2 0x3D8 JUMP JUMPDEST STOP JUMPDEST PUSH2 0x176 PUSH2 0x552 JUMP JUMPDEST STOP JUMPDEST PUSH2 0x180 PUSH2 0x6E9 JUMP JUMPDEST PUSH1 0x40 MLOAD PUSH2 0x18D SWAP2 SWAP1 PUSH2 0x2255 JUMP JUMPDEST PUSH1 0x40 MLOAD DUP1 SWAP2 SUB SWAP1 RETURN JUMPDEST PUSH2 0x19E PUSH2 0x713 JUMP JUMPDEST STOP JUMPDEST PUSH2 0x1BA PUSH1 0x4 DUP1 CALLDATASIZE SUB DUP2 ADD SWAP1 PUSH2 0x1B5 SWAP2 SWAP1 PUSH2 0x1FD1 JUMP JUMPDEST PUSH2 0x87E JUMP JUMPDEST STOP JUMPDEST PUSH2 0x1C4 PUSH2 0x9BD JUMP JUMPDEST PUSH1 0x40 MLOAD PUSH2 0x1D1 SWAP2 SWAP1 PUSH2 0x2497 JUMP JUMPDEST PUSH1 0x40 MLOAD DUP1 SWAP2 SUB SWAP1 RETURN JUMPDEST PUSH2 0x1F4 PUSH1 0x4 DUP1 CALLDATASIZE SUB DUP2 ADD SWAP1 PUSH2 0x1EF SWAP2 SWAP1 PUSH2 0x1F91 JUMP JUMPDEST PUSH2 0x9C3 JUMP JUMPDEST STOP JUMPDEST PUSH2 0x210 PUSH1 0x4 DUP1 CALLDATASIZE SUB DUP2 ADD SWAP1 PUSH2 0x20B SWAP2 SWAP1 PUSH2 0x1EC8 JUMP JUMPDEST PUSH2 0xB02 JUMP JUMPDEST STOP JUMPDEST PUSH2 0x21A PUSH2 0xC79 JUMP JUMPDEST PUSH1 0x40 MLOAD PUSH2 0x227 SWAP2 SWAP1 PUSH2 0x235C JUMP JUMPDEST PUSH1 0x40 MLOAD DUP1 SWAP2 SUB SWAP1 RETURN JUMPDEST PUSH2 0x24A PUSH1 0x4 DUP1 CALLDATASIZE SUB DUP2 ADD SWAP1 PUSH2 0x245 SWAP2 SWAP1 PUSH2 0x2011 JUMP JUMPDEST PUSH2 0xC7F JUMP JUMPDEST STOP JUMPDEST PUSH2 0x266 PUSH1 0x4 DUP1 CALLDATASIZE SUB DUP2 ADD SWAP1 PUSH2 0x261 SWAP2 SWAP1 PUSH2 0x1E9B JUMP JUMPDEST PUSH2 0xC99 JUMP JUMPDEST STOP JUMPDEST PUSH2 0x282 PUSH1 0x4 DUP1 CALLDATASIZE SUB DUP2 ADD SWAP1 PUSH2 0x27D SWAP2 SWAP1 PUSH2 0x1EC8 JUMP JUMPDEST PUSH2 0xCAD JUMP JUMPDEST STOP JUMPDEST PUSH1 0x0 PUSH2 0x28E PUSH2 0xF4C JUMP JUMPDEST SWAP1 POP SWAP1 JUMP JUMPDEST PUSH1 0x9 SLOAD DUP2 JUMP JUMPDEST DUP2 PUSH1 0x5 PUSH1 0x0 DUP3 DUP2 MSTORE PUSH1 0x20 ADD SWAP1 DUP2 MSTORE PUSH1 0x20 ADD PUSH1 0x0 KECCAK256 PUSH1 0x0 SWAP1 SLOAD SWAP1 PUSH2 0x100 EXP SWAP1 DIV PUSH20 0xFFFFFFFFFFFFFFFFFFFFFFFFFFFFFFFFFFFFFFFF AND PUSH20 0xFFFFFFFFFFFFFFFFFFFFFFFFFFFFFFFFFFFFFFFF AND CALLER PUSH20 0xFFFFFFFFFFFFFFFFFFFFFFFFFFFFFFFFFFFFFFFF AND EQ PUSH2 0x33B JUMPI PUSH1 0x40 MLOAD PUSH32 0x8C379A000000000000000000000000000000000000000000000000000000000 DUP2 MSTORE PUSH1 0x4 ADD PUSH2 0x332 SWAP1 PUSH2 0x2477 JUMP JUMPDEST PUSH1 0x40 MLOAD DUP1 SWAP2 SUB SWAP1 REVERT JUMPDEST PUSH1 0x5 PUSH1 0x0 DUP3 DUP2 MSTORE PUSH1 0x20 ADD SWAP1 DUP2 MSTORE PUSH1 0x20 ADD PUSH1 0x0 KECCAK256 PUSH1 0x0 PUSH2 0x100 EXP DUP2 SLOAD SWAP1 PUSH20 0xFFFFFFFFFFFFFFFFFFFFFFFFFFFFFFFFFFFFFFFF MUL NOT AND SWAP1 SSTORE DUP1 PUSH32 0x7CC135E0CEBB02C3480AE5D74D377283180A2601F8F644EDF7987B009316C63A PUSH1 0x40 MLOAD PUSH1 0x40 MLOAD DUP1 SWAP2 SUB SWAP1 LOG2 DUP2 DUP4 PUSH32 0x1A7783CFC5355CD0706ABEC2229662CDA9CEFCFC8AEB31FEC8B391BA5EB67CBE PUSH1 0x40 MLOAD PUSH1 0x40 MLOAD DUP1 SWAP2 SUB SWAP1 LOG3 DUP2 PUSH1 0xA DUP2 SWAP1 SSTORE POP POP POP POP JUMP JUMPDEST PUSH2 0x3E0 PUSH2 0xF76 JUMP JUMPDEST PUSH1 0x0 PUSH2 0x3FC PUSH2 0x3EE DUP4 PUSH2 0x1008 JUMP JUMPDEST ADDRESS PUSH4 0xA46FBE1A PUSH1 0xE0 SHL PUSH2 0x1032 JUMP JUMPDEST SWAP1 POP PUSH2 0x460 PUSH1 0x40 MLOAD DUP1 PUSH1 0x40 ADD PUSH1 0x40 MSTORE DUP1 PUSH1 0x3 DUP2 MSTORE PUSH1 0x20 ADD PUSH32 0x6765740000000000000000000000000000000000000000000000000000000000 DUP2 MSTORE POP PUSH1 0x40 MLOAD DUP1 PUSH1 0x80 ADD PUSH1 0x40 MSTORE DUP1 PUSH1 0x49 DUP2 MSTORE PUSH1 0x20 ADD PUSH2 0x2CFE PUSH1 0x49 SWAP2 CODECOPY DUP4 PUSH2 0x1063 SWAP1 SWAP3 SWAP2 SWAP1 PUSH4 0xFFFFFFFF AND JUMP JUMPDEST PUSH2 0x4DF PUSH1 0x40 MLOAD DUP1 PUSH1 0x40 ADD PUSH1 0x40 MSTORE DUP1 PUSH1 0x4 DUP2 MSTORE PUSH1 0x20 ADD PUSH32 0x7061746800000000000000000000000000000000000000000000000000000000 DUP2 MSTORE POP PUSH1 0x40 MLOAD DUP1 PUSH1 0x40 ADD PUSH1 0x40 MSTORE DUP1 PUSH1 0x18 DUP2 MSTORE PUSH1 0x20 ADD PUSH32 0x5241572C4554482C5553442C4348414E47455043544441590000000000000000 DUP2 MSTORE POP DUP4 PUSH2 0x1063 SWAP1 SWAP3 SWAP2 SWAP1 PUSH4 0xFFFFFFFF AND JUMP JUMPDEST PUSH2 0x52D PUSH1 0x40 MLOAD DUP1 PUSH1 0x40 ADD PUSH1 0x40 MSTORE DUP1 PUSH1 0x5 DUP2 MSTORE PUSH1 0x20 ADD PUSH32 0x74696D6573000000000000000000000000000000000000000000000000000000 DUP2 MSTORE POP PUSH4 0x3B9ACA00 DUP4 PUSH2 0x1096 SWAP1 SWAP3 SWAP2 SWAP1 PUSH4 0xFFFFFFFF AND JUMP JUMPDEST PUSH2 0x54C DUP4 DUP3 PUSH8 0xDE0B6B3A7640000 PUSH1 0x1 PUSH2 0x547 SWAP2 SWAP1 PUSH2 0x26FC JUMP JUMPDEST PUSH2 0x10C9 JUMP JUMPDEST POP POP POP POP JUMP JUMPDEST PUSH1 0x7 PUSH1 0x0 SWAP1 SLOAD SWAP1 PUSH2 0x100 EXP SWAP1 DIV PUSH20 0xFFFFFFFFFFFFFFFFFFFFFFFFFFFFFFFFFFFFFFFF AND PUSH20 0xFFFFFFFFFFFFFFFFFFFFFFFFFFFFFFFFFFFFFFFF AND CALLER PUSH20 0xFFFFFFFFFFFFFFFFFFFFFFFFFFFFFFFFFFFFFFFF AND EQ PUSH2 0x5E2 JUMPI PUSH1 0x40 MLOAD PUSH32 0x8C379A000000000000000000000000000000000000000000000000000000000 DUP2 MSTORE PUSH1 0x4 ADD PUSH2 0x5D9 SWAP1 PUSH2 0x23D7 JUMP JUMPDEST PUSH1 0x40 MLOAD DUP1 SWAP2 SUB SWAP1 REVERT JUMPDEST PUSH1 0x0 PUSH1 0x6 PUSH1 0x0 SWAP1 SLOAD SWAP1 PUSH2 0x100 EXP SWAP1 DIV PUSH20 0xFFFFFFFFFFFFFFFFFFFFFFFFFFFFFFFFFFFFFFFF AND SWAP1 POP CALLER PUSH1 0x6 PUSH1 0x0 PUSH2 0x100 EXP DUP2 SLOAD DUP2 PUSH20 0xFFFFFFFFFFFFFFFFFFFFFFFFFFFFFFFFFFFFFFFF MUL NOT AND SWAP1 DUP4 PUSH20 0xFFFFFFFFFFFFFFFFFFFFFFFFFFFFFFFFFFFFFFFF AND MUL OR SWAP1 SSTORE POP PUSH1 0x0 PUSH1 0x7 PUSH1 0x0 PUSH2 0x100 EXP DUP2 SLOAD DUP2 PUSH20 0xFFFFFFFFFFFFFFFFFFFFFFFFFFFFFFFFFFFFFFFF MUL NOT AND SWAP1 DUP4 PUSH20 0xFFFFFFFFFFFFFFFFFFFFFFFFFFFFFFFFFFFFFFFF AND MUL OR SWAP1 SSTORE POP CALLER PUSH20 0xFFFFFFFFFFFFFFFFFFFFFFFFFFFFFFFFFFFFFFFF AND DUP2 PUSH20 0xFFFFFFFFFFFFFFFFFFFFFFFFFFFFFFFFFFFFFFFF AND PUSH32 0x8BE0079C531659141344CD1FD0A4F28419497F9722A3DAAFE3B4186F6B6457E0 PUSH1 0x40 MLOAD PUSH1 0x40 MLOAD DUP1 SWAP2 SUB SWAP1 LOG3 POP JUMP JUMPDEST PUSH1 0x0 PUSH1 0x6 PUSH1 0x0 SWAP1 SLOAD SWAP1 PUSH2 0x100 EXP SWAP1 DIV PUSH20 0xFFFFFFFFFFFFFFFFFFFFFFFFFFFFFFFFFFFFFFFF AND SWAP1 POP SWAP1 JUMP JUMPDEST PUSH2 0x71B PUSH2 0xF76 JUMP JUMPDEST PUSH1 0x0 PUSH2 0x725 PUSH2 0xF4C JUMP JUMPDEST SWAP1 POP DUP1 PUSH20 0xFFFFFFFFFFFFFFFFFFFFFFFFFFFFFFFFFFFFFFFF AND PUSH4 0xA9059CBB CALLER DUP4 PUSH20 0xFFFFFFFFFFFFFFFFFFFFFFFFFFFFFFFFFFFFFFFF AND PUSH4 0x70A08231 ADDRESS PUSH1 0x40 MLOAD DUP3 PUSH4 0xFFFFFFFF AND PUSH1 0xE0 SHL DUP2 MSTORE PUSH1 0x4 ADD PUSH2 0x77D SWAP2 SWAP1 PUSH2 0x2255 JUMP JUMPDEST PUSH1 0x20 PUSH1 0x40 MLOAD DUP1 DUP4 SUB DUP2 DUP7 DUP1 EXTCODESIZE ISZERO DUP1 ISZERO PUSH2 0x795 JUMPI PUSH1 0x0 DUP1 REVERT JUMPDEST POP GAS STATICCALL ISZERO DUP1 ISZERO PUSH2 0x7A9 JUMPI RETURNDATASIZE PUSH1 0x0 DUP1 RETURNDATACOPY RETURNDATASIZE PUSH1 0x0 REVERT JUMPDEST POP POP POP POP PUSH1 0x40 MLOAD RETURNDATASIZE PUSH1 0x1F NOT PUSH1 0x1F DUP3 ADD AND DUP3 ADD DUP1 PUSH1 0x40 MSTORE POP DUP2 ADD SWAP1 PUSH2 0x7CD SWAP2 SWAP1 PUSH2 0x2078 JUMP JUMPDEST PUSH1 0x40 MLOAD DUP4 PUSH4 0xFFFFFFFF AND PUSH1 0xE0 SHL DUP2 MSTORE PUSH1 0x4 ADD PUSH2 0x7EA SWAP3 SWAP2 SWAP1 PUSH2 0x2270 JUMP JUMPDEST PUSH1 0x20 PUSH1 0x40 MLOAD DUP1 DUP4 SUB DUP2 PUSH1 0x0 DUP8 DUP1 EXTCODESIZE ISZERO DUP1 ISZERO PUSH2 0x804 JUMPI PUSH1 0x0 DUP1 REVERT JUMPDEST POP GAS CALL ISZERO DUP1 ISZERO PUSH2 0x818 JUMPI RETURNDATASIZE PUSH1 0x0 DUP1 RETURNDATACOPY RETURNDATASIZE PUSH1 0x0 REVERT JUMPDEST POP POP POP POP PUSH1 0x40 MLOAD RETURNDATASIZE PUSH1 0x1F NOT PUSH1 0x1F DUP3 ADD AND DUP3 ADD DUP1 PUSH1 0x40 MSTORE POP DUP2 ADD SWAP1 PUSH2 0x83C SWAP2 SWAP1 PUSH2 0x1F24 JUMP JUMPDEST PUSH2 0x87B JUMPI PUSH1 0x40 MLOAD PUSH32 0x8C379A000000000000000000000000000000000000000000000000000000000 DUP2 MSTORE PUSH1 0x4 ADD PUSH2 0x872 SWAP1 PUSH2 0x2437 JUMP JUMPDEST PUSH1 0x40 MLOAD DUP1 SWAP2 SUB SWAP1 REVERT JUMPDEST POP JUMP JUMPDEST DUP2 PUSH1 0x5 PUSH1 0x0 DUP3 DUP2 MSTORE PUSH1 0x20 ADD SWAP1 DUP2 MSTORE PUSH1 0x20 ADD PUSH1 0x0 KECCAK256 PUSH1 0x0 SWAP1 SLOAD SWAP1 PUSH2 0x100 EXP SWAP1 DIV PUSH20 0xFFFFFFFFFFFFFFFFFFFFFFFFFFFFFFFFFFFFFFFF AND PUSH20 0xFFFFFFFFFFFFFFFFFFFFFFFFFFFFFFFFFFFFFFFF AND CALLER PUSH20 0xFFFFFFFFFFFFFFFFFFFFFFFFFFFFFFFFFFFFFFFF AND EQ PUSH2 0x920 JUMPI PUSH1 0x40 MLOAD PUSH32 0x8C379A000000000000000000000000000000000000000000000000000000000 DUP2 MSTORE PUSH1 0x4 ADD PUSH2 0x917 SWAP1 PUSH2 0x2477 JUMP JUMPDEST PUSH1 0x40 MLOAD DUP1 SWAP2 SUB SWAP1 REVERT JUMPDEST PUSH1 0x5 PUSH1 0x0 DUP3 DUP2 MSTORE PUSH1 0x20 ADD SWAP1 DUP2 MSTORE PUSH1 0x20 ADD PUSH1 0x0 KECCAK256 PUSH1 0x0 PUSH2 0x100 EXP DUP2 SLOAD SWAP1 PUSH20 0xFFFFFFFFFFFFFFFFFFFFFFFFFFFFFFFFFFFFFFFF MUL NOT AND SWAP1 SSTORE DUP1 PUSH32 0x7CC135E0CEBB02C3480AE5D74D377283180A2601F8F644EDF7987B009316C63A PUSH1 0x40 MLOAD PUSH1 0x40 MLOAD DUP1 SWAP2 SUB SWAP1 LOG2 DUP2 DUP4 PUSH32 0x794EB9E29F6750EDE99E05248D997A9AB9FA23C4A7EAFF8AFA729080EB7C6428 PUSH1 0x40 MLOAD PUSH1 0x40 MLOAD DUP1 SWAP2 SUB SWAP1 LOG3 DUP2 PUSH1 0x8 DUP2 SWAP1 SSTORE POP POP POP POP JUMP JUMPDEST PUSH1 0x8 SLOAD DUP2 JUMP JUMPDEST DUP2 PUSH1 0x5 PUSH1 0x0 DUP3 DUP2 MSTORE PUSH1 0x20 ADD SWAP1 DUP2 MSTORE PUSH1 0x20 ADD PUSH1 0x0 KECCAK256 PUSH1 0x0 SWAP1 SLOAD SWAP1 PUSH2 0x100 EXP SWAP1 DIV PUSH20 0xFFFFFFFFFFFFFFFFFFFFFFFFFFFFFFFFFFFFFFFF AND PUSH20 0xFFFFFFFFFFFFFFFFFFFFFFFFFFFFFFFFFFFFFFFF AND CALLER PUSH20 0xFFFFFFFFFFFFFFFFFFFFFFFFFFFFFFFFFFFFFFFF AND EQ PUSH2 0xA65 JUMPI PUSH1 0x40 MLOAD PUSH32 0x8C379A000000000000000000000000000000000000000000000000000000000 DUP2 MSTORE PUSH1 0x4 ADD PUSH2 0xA5C SWAP1 PUSH2 0x2477 JUMP JUMPDEST PUSH1 0x40 MLOAD DUP1 SWAP2 SUB SWAP1 REVERT JUMPDEST PUSH1 0x5 PUSH1 0x0 DUP3 DUP2 MSTORE PUSH1 0x20 ADD SWAP1 DUP2 MSTORE PUSH1 0x20 ADD PUSH1 0x0 KECCAK256 PUSH1 0x0 PUSH2 0x100 EXP DUP2 SLOAD SWAP1 PUSH20 0xFFFFFFFFFFFFFFFFFFFFFFFFFFFFFFFFFFFFFFFF MUL NOT AND SWAP1 SSTORE DUP1 PUSH32 0x7CC135E0CEBB02C3480AE5D74D377283180A2601F8F644EDF7987B009316C63A PUSH1 0x40 MLOAD PUSH1 0x40 MLOAD DUP1 SWAP2 SUB SWAP1 LOG2 DUP2 DUP4 PUSH32 0x36F03C766DBEB725BF2A1E6CF2D934A02BF3CD9644B55767C8F41EF2D4AF0612 PUSH1 0x40 MLOAD PUSH1 0x40 MLOAD DUP1 SWAP2 SUB SWAP1 LOG3 DUP2 PUSH1 0x9 DUP2 SWAP1 SSTORE POP POP POP POP JUMP JUMPDEST PUSH2 0xB0A PUSH2 0xF76 JUMP JUMPDEST PUSH1 0x0 PUSH2 0xB26 PUSH2 0xB18 DUP4 PUSH2 0x1008 JUMP JUMPDEST ADDRESS PUSH4 0x92CDAAF3 PUSH1 0xE0 SHL PUSH2 0x1032 JUMP JUMPDEST SWAP1 POP PUSH2 0xB8A PUSH1 0x40 MLOAD DUP1 PUSH1 0x40 ADD PUSH1 0x40 MSTORE DUP1 PUSH1 0x3 DUP2 MSTORE PUSH1 0x20 ADD PUSH32 0x6765740000000000000000000000000000000000000000000000000000000000 DUP2 MSTORE POP PUSH1 0x40 MLOAD DUP1 PUSH1 0x60 ADD PUSH1 0x40 MSTORE DUP1 PUSH1 0x3F DUP2 MSTORE PUSH1 0x20 ADD PUSH2 0x2CBF PUSH1 0x3F SWAP2 CODECOPY DUP4 PUSH2 0x1063 SWAP1 SWAP3 SWAP2 SWAP1 PUSH4 0xFFFFFFFF AND JUMP JUMPDEST PUSH2 0xC09 PUSH1 0x40 MLOAD DUP1 PUSH1 0x40 ADD PUSH1 0x40 MSTORE DUP1 PUSH1 0x4 DUP2 MSTORE PUSH1 0x20 ADD PUSH32 0x7061746800000000000000000000000000000000000000000000000000000000 DUP2 MSTORE POP PUSH1 0x40 MLOAD DUP1 PUSH1 0x40 ADD PUSH1 0x40 MSTORE DUP1 PUSH1 0x3 DUP2 MSTORE PUSH1 0x20 ADD PUSH32 0x5553440000000000000000000000000000000000000000000000000000000000 DUP2 MSTORE POP DUP4 PUSH2 0x1063 SWAP1 SWAP3 SWAP2 SWAP1 PUSH4 0xFFFFFFFF AND JUMP JUMPDEST PUSH2 0xC54 PUSH1 0x40 MLOAD DUP1 PUSH1 0x40 ADD PUSH1 0x40 MSTORE DUP1 PUSH1 0x5 DUP2 MSTORE PUSH1 0x20 ADD PUSH32 0x74696D6573000000000000000000000000000000000000000000000000000000 DUP2 MSTORE POP PUSH1 0x64 DUP4 PUSH2 0x1096 SWAP1 SWAP3 SWAP2 SWAP1 PUSH4 0xFFFFFFFF AND JUMP JUMPDEST PUSH2 0xC73 DUP4 DUP3 PUSH8 0xDE0B6B3A7640000 PUSH1 0x1 PUSH2 0xC6E SWAP2 SWAP1 PUSH2 0x26FC JUMP JUMPDEST PUSH2 0x10C9 JUMP JUMPDEST POP POP POP POP JUMP JUMPDEST PUSH1 0xA SLOAD DUP2 JUMP JUMPDEST PUSH2 0xC87 PUSH2 0xF76 JUMP JUMPDEST PUSH2 0xC93 DUP5 DUP5 DUP5 DUP5 PUSH2 0x1195 JUMP JUMPDEST POP POP POP POP JUMP JUMPDEST PUSH2 0xCA1 PUSH2 0xF76 JUMP JUMPDEST PUSH2 0xCAA DUP2 PUSH2 0x12A8 JUMP JUMPDEST POP JUMP JUMPDEST PUSH2 0xCB5 PUSH2 0xF76 JUMP JUMPDEST PUSH1 0x0 PUSH2 0xCD1 PUSH2 0xCC3 DUP4 PUSH2 0x1008 JUMP JUMPDEST ADDRESS PUSH4 0x49556AFF PUSH1 0xE0 SHL PUSH2 0x1032 JUMP JUMPDEST SWAP1 POP PUSH2 0xD35 PUSH1 0x40 MLOAD DUP1 PUSH1 0x40 ADD PUSH1 0x40 MSTORE DUP1 PUSH1 0x3 DUP2 MSTORE PUSH1 0x20 ADD PUSH32 0x6765740000000000000000000000000000000000000000000000000000000000 DUP2 MSTORE POP PUSH1 0x40 MLOAD DUP1 PUSH1 0x80 ADD PUSH1 0x40 MSTORE DUP1 PUSH1 0x49 DUP2 MSTORE PUSH1 0x20 ADD PUSH2 0x2CFE PUSH1 0x49 SWAP2 CODECOPY DUP4 PUSH2 0x1063 SWAP1 SWAP3 SWAP2 SWAP1 PUSH4 0xFFFFFFFF AND JUMP JUMPDEST PUSH1 0x0 PUSH1 0x4 PUSH8 0xFFFFFFFFFFFFFFFF DUP2 GT ISZERO PUSH2 0xD52 JUMPI PUSH2 0xD51 PUSH2 0x2A84 JUMP JUMPDEST JUMPDEST PUSH1 0x40 MLOAD SWAP1 DUP1 DUP3 MSTORE DUP1 PUSH1 0x20 MUL PUSH1 0x20 ADD DUP3 ADD PUSH1 0x40 MSTORE DUP1 ISZERO PUSH2 0xD85 JUMPI DUP2 PUSH1 0x20 ADD JUMPDEST PUSH1 0x60 DUP2 MSTORE PUSH1 0x20 ADD SWAP1 PUSH1 0x1 SWAP1 SUB SWAP1 DUP2 PUSH2 0xD70 JUMPI SWAP1 POP JUMPDEST POP SWAP1 POP PUSH1 0x40 MLOAD DUP1 PUSH1 0x40 ADD PUSH1 0x40 MSTORE DUP1 PUSH1 0x3 DUP2 MSTORE PUSH1 0x20 ADD PUSH32 0x5241570000000000000000000000000000000000000000000000000000000000 DUP2 MSTORE POP DUP2 PUSH1 0x0 DUP2 MLOAD DUP2 LT PUSH2 0xDD2 JUMPI PUSH2 0xDD1 PUSH2 0x2A55 JUMP JUMPDEST JUMPDEST PUSH1 0x20 MUL PUSH1 0x20 ADD ADD DUP2 SWAP1 MSTORE POP PUSH1 0x40 MLOAD DUP1 PUSH1 0x40 ADD PUSH1 0x40 MSTORE DUP1 PUSH1 0x3 DUP2 MSTORE PUSH1 0x20 ADD PUSH32 0x4554480000000000000000000000000000000000000000000000000000000000 DUP2 MSTORE POP DUP2 PUSH1 0x1 DUP2 MLOAD DUP2 LT PUSH2 0xE27 JUMPI PUSH2 0xE26 PUSH2 0x2A55 JUMP JUMPDEST JUMPDEST PUSH1 0x20 MUL PUSH1 0x20 ADD ADD DUP2 SWAP1 MSTORE POP PUSH1 0x40 MLOAD DUP1 PUSH1 0x40 ADD PUSH1 0x40 MSTORE DUP1 PUSH1 0x3 DUP2 MSTORE PUSH1 0x20 ADD PUSH32 0x5553440000000000000000000000000000000000000000000000000000000000 DUP2 MSTORE POP DUP2 PUSH1 0x2 DUP2 MLOAD DUP2 LT PUSH2 0xE7C JUMPI PUSH2 0xE7B PUSH2 0x2A55 JUMP JUMPDEST JUMPDEST PUSH1 0x20 MUL PUSH1 0x20 ADD ADD DUP2 SWAP1 MSTORE POP PUSH1 0x40 MLOAD DUP1 PUSH1 0x40 ADD PUSH1 0x40 MSTORE DUP1 PUSH1 0xA DUP2 MSTORE PUSH1 0x20 ADD PUSH32 0x4C4153544D41524B455400000000000000000000000000000000000000000000 DUP2 MSTORE POP DUP2 PUSH1 0x3 DUP2 MLOAD DUP2 LT PUSH2 0xED1 JUMPI PUSH2 0xED0 PUSH2 0x2A55 JUMP JUMPDEST JUMPDEST PUSH1 0x20 MUL PUSH1 0x20 ADD ADD DUP2 SWAP1 MSTORE POP PUSH2 0xF26 PUSH1 0x40 MLOAD DUP1 PUSH1 0x40 ADD PUSH1 0x40 MSTORE DUP1 PUSH1 0x4 DUP2 MSTORE PUSH1 0x20 ADD PUSH32 0x7061746800000000000000000000000000000000000000000000000000000000 DUP2 MSTORE POP DUP3 DUP5 PUSH2 0x13D7 SWAP1 SWAP3 SWAP2 SWAP1 PUSH4 0xFFFFFFFF AND JUMP JUMPDEST PUSH2 0xF45 DUP5 DUP4 PUSH8 0xDE0B6B3A7640000 PUSH1 0x1 PUSH2 0xF40 SWAP2 SWAP1 PUSH2 0x26FC JUMP JUMPDEST PUSH2 0x10C9 JUMP JUMPDEST POP POP POP POP POP JUMP JUMPDEST PUSH1 0x0 PUSH1 0x2 PUSH1 0x0 SWAP1 SLOAD SWAP1 PUSH2 0x100 EXP SWAP1 DIV PUSH20 0xFFFFFFFFFFFFFFFFFFFFFFFFFFFFFFFFFFFFFFFF AND SWAP1 POP SWAP1 JUMP JUMPDEST PUSH1 0x6 PUSH1 0x0 SWAP1 SLOAD SWAP1 PUSH2 0x100 EXP SWAP1 DIV PUSH20 0xFFFFFFFFFFFFFFFFFFFFFFFFFFFFFFFFFFFFFFFF AND PUSH20 0xFFFFFFFFFFFFFFFFFFFFFFFFFFFFFFFFFFFFFFFF AND CALLER PUSH20 0xFFFFFFFFFFFFFFFFFFFFFFFFFFFFFFFFFFFFFFFF AND EQ PUSH2 0x1006 JUMPI PUSH1 0x40 MLOAD PUSH32 0x8C379A000000000000000000000000000000000000000000000000000000000 DUP2 MSTORE PUSH1 0x4 ADD PUSH2 0xFFD SWAP1 PUSH2 0x2417 JUMP JUMPDEST PUSH1 0x40 MLOAD DUP1 SWAP2 SUB SWAP1 REVERT JUMPDEST JUMP JUMPDEST PUSH1 0x0 DUP1 DUP3 SWAP1 POP PUSH1 0x0 DUP2 MLOAD EQ ISZERO PUSH2 0x1024 JUMPI PUSH1 0x0 DUP1 SHL SWAP2 POP POP PUSH2 0x102D JUMP JUMPDEST PUSH1 0x20 DUP4 ADD MLOAD SWAP2 POP POP JUMPDEST SWAP2 SWAP1 POP JUMP JUMPDEST PUSH2 0x103A PUSH2 0x1D11 JUMP JUMPDEST PUSH2 0x1042 PUSH2 0x1D11 JUMP JUMPDEST PUSH2 0x1059 DUP6 DUP6 DUP6 DUP5 PUSH2 0x145E SWAP1 SWAP4 SWAP3 SWAP2 SWAP1 PUSH4 0xFFFFFFFF AND JUMP JUMPDEST SWAP2 POP POP SWAP4 SWAP3 POP POP POP JUMP JUMPDEST PUSH2 0x107A DUP3 DUP5 PUSH1 0x80 ADD MLOAD PUSH2 0x150E SWAP1 SWAP2 SWAP1 PUSH4 0xFFFFFFFF AND JUMP JUMPDEST PUSH2 0x1091 DUP2 DUP5 PUSH1 0x80 ADD MLOAD PUSH2 0x150E SWAP1 SWAP2 SWAP1 PUSH4 0xFFFFFFFF AND JUMP JUMPDEST POP POP POP JUMP JUMPDEST PUSH2 0x10AD DUP3 DUP5 PUSH1 0x80 ADD MLOAD PUSH2 0x150E SWAP1 SWAP2 SWAP1 PUSH4 0xFFFFFFFF AND JUMP JUMPDEST PUSH2 0x10C4 DUP2 DUP5 PUSH1 0x80 ADD MLOAD PUSH2 0x1533 SWAP1 SWAP2 SWAP1 PUSH4 0xFFFFFFFF AND JUMP JUMPDEST POP POP POP JUMP JUMPDEST PUSH1 0x0 DUP1 PUSH1 0x4 SLOAD SWAP1 POP PUSH1 0x1 DUP2 PUSH2 0x10DE SWAP2 SWAP1 PUSH2 0x2535 JUMP JUMPDEST PUSH1 0x4 DUP2 SWAP1 SSTORE POP PUSH1 0x0 PUSH4 0x40429946 PUSH1 0xE0 SHL PUSH1 0x0 DUP1 DUP8 PUSH1 0x0 ADD MLOAD ADDRESS DUP10 PUSH1 0x40 ADD MLOAD DUP8 PUSH1 0x1 DUP13 PUSH1 0x80 ADD MLOAD PUSH1 0x0 ADD MLOAD PUSH1 0x40 MLOAD PUSH1 0x24 ADD PUSH2 0x111F SWAP9 SWAP8 SWAP7 SWAP6 SWAP5 SWAP4 SWAP3 SWAP2 SWAP1 PUSH2 0x2299 JUMP JUMPDEST PUSH1 0x40 MLOAD PUSH1 0x20 DUP2 DUP4 SUB SUB DUP2 MSTORE SWAP1 PUSH1 0x40 MSTORE SWAP1 PUSH28 0xFFFFFFFFFFFFFFFFFFFFFFFFFFFFFFFFFFFFFFFFFFFFFFFFFFFFFFFF NOT AND PUSH1 0x20 DUP3 ADD DUP1 MLOAD PUSH28 0xFFFFFFFFFFFFFFFFFFFFFFFFFFFFFFFFFFFFFFFFFFFFFFFFFFFFFFFF DUP4 DUP2 DUP4 AND OR DUP4 MSTORE POP POP POP POP SWAP1 POP PUSH2 0x118A DUP7 DUP4 DUP7 DUP5 PUSH2 0x15E0 JUMP JUMPDEST SWAP3 POP POP POP SWAP4 SWAP3 POP POP POP JUMP JUMPDEST PUSH1 0x0 PUSH1 0x5 PUSH1 0x0 DUP7 DUP2 MSTORE PUSH1 0x20 ADD SWAP1 DUP2 MSTORE PUSH1 0x20 ADD PUSH1 0x0 KECCAK256 PUSH1 0x0 SWAP1 SLOAD SWAP1 PUSH2 0x100 EXP SWAP1 DIV PUSH20 0xFFFFFFFFFFFFFFFFFFFFFFFFFFFFFFFFFFFFFFFF AND SWAP1 POP PUSH1 0x5 PUSH1 0x0 DUP7 DUP2 MSTORE PUSH1 0x20 ADD SWAP1 DUP2 MSTORE PUSH1 0x20 ADD PUSH1 0x0 KECCAK256 PUSH1 0x0 PUSH2 0x100 EXP DUP2 SLOAD SWAP1 PUSH20 0xFFFFFFFFFFFFFFFFFFFFFFFFFFFFFFFFFFFFFFFF MUL NOT AND SWAP1 SSTORE DUP5 PUSH32 0xE1FE3AFA0F7F761FF0A8B89086790EFD5140D2907EBD5B7FF6BFCB5E075FD4C5 PUSH1 0x40 MLOAD PUSH1 0x40 MLOAD DUP1 SWAP2 SUB SWAP1 LOG2 DUP1 PUSH20 0xFFFFFFFFFFFFFFFFFFFFFFFFFFFFFFFFFFFFFFFF AND PUSH4 0x6EE4D553 DUP7 DUP7 DUP7 DUP7 PUSH1 0x40 MLOAD DUP6 PUSH4 0xFFFFFFFF AND PUSH1 0xE0 SHL DUP2 MSTORE PUSH1 0x4 ADD PUSH2 0x126F SWAP5 SWAP4 SWAP3 SWAP2 SWAP1 PUSH2 0x2377 JUMP JUMPDEST PUSH1 0x0 PUSH1 0x40 MLOAD DUP1 DUP4 SUB DUP2 PUSH1 0x0 DUP8 DUP1 EXTCODESIZE ISZERO DUP1 ISZERO PUSH2 0x1289 JUMPI PUSH1 0x0 DUP1 REVERT JUMPDEST POP GAS CALL ISZERO DUP1 ISZERO PUSH2 0x129D JUMPI RETURNDATASIZE PUSH1 0x0 DUP1 RETURNDATACOPY RETURNDATASIZE PUSH1 0x0 REVERT JUMPDEST POP POP POP POP POP POP POP POP POP JUMP JUMPDEST CALLER PUSH20 0xFFFFFFFFFFFFFFFFFFFFFFFFFFFFFFFFFFFFFFFF AND DUP2 PUSH20 0xFFFFFFFFFFFFFFFFFFFFFFFFFFFFFFFFFFFFFFFF AND EQ ISZERO PUSH2 0x1317 JUMPI PUSH1 0x40 MLOAD PUSH32 0x8C379A000000000000000000000000000000000000000000000000000000000 DUP2 MSTORE PUSH1 0x4 ADD PUSH2 0x130E SWAP1 PUSH2 0x2457 JUMP JUMPDEST PUSH1 0x40 MLOAD DUP1 SWAP2 SUB SWAP1 REVERT JUMPDEST DUP1 PUSH1 0x7 PUSH1 0x0 PUSH2 0x100 EXP DUP2 SLOAD DUP2 PUSH20 0xFFFFFFFFFFFFFFFFFFFFFFFFFFFFFFFFFFFFFFFF MUL NOT AND SWAP1 DUP4 PUSH20 0xFFFFFFFFFFFFFFFFFFFFFFFFFFFFFFFFFFFFFFFF AND MUL OR SWAP1 SSTORE POP DUP1 PUSH20 0xFFFFFFFFFFFFFFFFFFFFFFFFFFFFFFFFFFFFFFFF AND PUSH1 0x6 PUSH1 0x0 SWAP1 SLOAD SWAP1 PUSH2 0x100 EXP SWAP1 DIV PUSH20 0xFFFFFFFFFFFFFFFFFFFFFFFFFFFFFFFFFFFFFFFF AND PUSH20 0xFFFFFFFFFFFFFFFFFFFFFFFFFFFFFFFFFFFFFFFF AND PUSH32 0xED8889F560326EB138920D842192F0EB3DD22B4F139C87A2C57538E05BAE1278 PUSH1 0x40 MLOAD PUSH1 0x40 MLOAD DUP1 SWAP2 SUB SWAP1 LOG3 POP JUMP JUMPDEST PUSH2 0x13EE DUP3 DUP5 PUSH1 0x80 ADD MLOAD PUSH2 0x150E SWAP1 SWAP2 SWAP1 PUSH4 0xFFFFFFFF AND JUMP JUMPDEST PUSH2 0x13FB DUP4 PUSH1 0x80 ADD MLOAD PUSH2 0x1784 JUMP JUMPDEST PUSH1 0x0 JUMPDEST DUP2 MLOAD DUP2 LT ISZERO PUSH2 0x144B JUMPI PUSH2 0x1438 DUP3 DUP3 DUP2 MLOAD DUP2 LT PUSH2 0x141D JUMPI PUSH2 0x141C PUSH2 0x2A55 JUMP JUMPDEST JUMPDEST PUSH1 0x20 MUL PUSH1 0x20 ADD ADD MLOAD DUP6 PUSH1 0x80 ADD MLOAD PUSH2 0x150E SWAP1 SWAP2 SWAP1 PUSH4 0xFFFFFFFF AND JUMP JUMPDEST DUP1 DUP1 PUSH2 0x1443 SWAP1 PUSH2 0x294F JUMP JUMPDEST SWAP2 POP POP PUSH2 0x13FE JUMP JUMPDEST POP PUSH2 0x1459 DUP4 PUSH1 0x80 ADD MLOAD PUSH2 0x1792 JUMP JUMPDEST POP POP POP JUMP JUMPDEST PUSH2 0x1466 PUSH2 0x1D11 JUMP JUMPDEST PUSH2 0x1476 DUP6 PUSH1 0x80 ADD MLOAD PUSH2 0x100 PUSH2 0x17A0 JUMP JUMPDEST POP DUP4 DUP6 PUSH1 0x0 ADD DUP2 DUP2 MSTORE POP POP DUP3 DUP6 PUSH1 0x20 ADD SWAP1 PUSH20 0xFFFFFFFFFFFFFFFFFFFFFFFFFFFFFFFFFFFFFFFF AND SWAP1 DUP2 PUSH20 0xFFFFFFFFFFFFFFFFFFFFFFFFFFFFFFFFFFFFFFFF AND DUP2 MSTORE POP POP DUP2 DUP6 PUSH1 0x40 ADD SWAP1 PUSH28 0xFFFFFFFFFFFFFFFFFFFFFFFFFFFFFFFFFFFFFFFFFFFFFFFFFFFFFFFF NOT AND SWAP1 DUP2 PUSH28 0xFFFFFFFFFFFFFFFFFFFFFFFFFFFFFFFFFFFFFFFFFFFFFFFFFFFFFFFF NOT AND DUP2 MSTORE POP POP DUP5 SWAP1 POP SWAP5 SWAP4 POP POP POP POP JUMP JUMPDEST PUSH2 0x151B DUP3 PUSH1 0x3 DUP4 MLOAD PUSH2 0x180A JUMP JUMPDEST PUSH2 0x152E DUP2 DUP4 PUSH2 0x198F SWAP1 SWAP2 SWAP1 PUSH4 0xFFFFFFFF AND JUMP JUMPDEST POP POP POP JUMP JUMPDEST PUSH32 0xFFFFFFFFFFFFFFFFFFFFFFFFFFFFFFFFFFFFFFFFFFFFFFFF0000000000000000 DUP2 SLT ISZERO PUSH2 0x156A JUMPI PUSH2 0x1565 DUP3 DUP3 PUSH2 0x19B1 JUMP JUMPDEST PUSH2 0x15DC JUMP JUMPDEST PUSH8 0xFFFFFFFFFFFFFFFF DUP2 SGT ISZERO PUSH2 0x1589 JUMPI PUSH2 0x1584 DUP3 DUP3 PUSH2 0x1A28 JUMP JUMPDEST PUSH2 0x15DB JUMP JUMPDEST PUSH1 0x0 DUP2 SLT PUSH2 0x15A2 JUMPI PUSH2 0x159D DUP3 PUSH1 0x0 DUP4 PUSH2 0x180A JUMP JUMPDEST PUSH2 0x15DA JUMP JUMPDEST PUSH2 0x15D9 DUP3 PUSH1 0x1 DUP4 PUSH32 0xFFFFFFFFFFFFFFFFFFFFFFFFFFFFFFFFFFFFFFFFFFFFFFFFFFFFFFFFFFFFFFFF PUSH2 0x15D4 SWAP2 SWAP1 PUSH2 0x2756 JUMP JUMPDEST PUSH2 0x180A JUMP JUMPDEST JUMPDEST JUMPDEST JUMPDEST POP POP JUMP JUMPDEST PUSH1 0x0 ADDRESS DUP5 PUSH1 0x40 MLOAD PUSH1 0x20 ADD PUSH2 0x15F5 SWAP3 SWAP2 SWAP1 PUSH2 0x2229 JUMP JUMPDEST PUSH1 0x40 MLOAD PUSH1 0x20 DUP2 DUP4 SUB SUB DUP2 MSTORE SWAP1 PUSH1 0x40 MSTORE DUP1 MLOAD SWAP1 PUSH1 0x20 ADD KECCAK256 SWAP1 POP DUP5 PUSH1 0x5 PUSH1 0x0 DUP4 DUP2 MSTORE PUSH1 0x20 ADD SWAP1 DUP2 MSTORE PUSH1 0x20 ADD PUSH1 0x0 KECCAK256 PUSH1 0x0 PUSH2 0x100 EXP DUP2 SLOAD DUP2 PUSH20 0xFFFFFFFFFFFFFFFFFFFFFFFFFFFFFFFFFFFFFFFF MUL NOT AND SWAP1 DUP4 PUSH20 0xFFFFFFFFFFFFFFFFFFFFFFFFFFFFFFFFFFFFFFFF AND MUL OR SWAP1 SSTORE POP DUP1 PUSH32 0xB5E6E01E79F91267DC17B4E6314D5D4D03593D2CEEE0FBB452B750BD70EA5AF9 PUSH1 0x40 MLOAD PUSH1 0x40 MLOAD DUP1 SWAP2 SUB SWAP1 LOG2 PUSH1 0x2 PUSH1 0x0 SWAP1 SLOAD SWAP1 PUSH2 0x100 EXP SWAP1 DIV PUSH20 0xFFFFFFFFFFFFFFFFFFFFFFFFFFFFFFFFFFFFFFFF AND PUSH20 0xFFFFFFFFFFFFFFFFFFFFFFFFFFFFFFFFFFFFFFFF AND PUSH4 0x4000AEA0 DUP7 DUP6 DUP6 PUSH1 0x40 MLOAD DUP5 PUSH4 0xFFFFFFFF AND PUSH1 0xE0 SHL DUP2 MSTORE PUSH1 0x4 ADD PUSH2 0x16EB SWAP4 SWAP3 SWAP2 SWAP1 PUSH2 0x231E JUMP JUMPDEST PUSH1 0x20 PUSH1 0x40 MLOAD DUP1 DUP4 SUB DUP2 PUSH1 0x0 DUP8 DUP1 EXTCODESIZE ISZERO DUP1 ISZERO PUSH2 0x1705 JUMPI PUSH1 0x0 DUP1 REVERT JUMPDEST POP GAS CALL ISZERO DUP1 ISZERO PUSH2 0x1719 JUMPI RETURNDATASIZE PUSH1 0x0 DUP1 RETURNDATACOPY RETURNDATASIZE PUSH1 0x0 REVERT JUMPDEST POP POP POP POP PUSH1 0x40 MLOAD RETURNDATASIZE PUSH1 0x1F NOT PUSH1 0x1F DUP3 ADD AND DUP3 ADD DUP1 PUSH1 0x40 MSTORE POP DUP2 ADD SWAP1 PUSH2 0x173D SWAP2 SWAP1 PUSH2 0x1F24 JUMP JUMPDEST PUSH2 0x177C JUMPI PUSH1 0x40 MLOAD PUSH32 0x8C379A000000000000000000000000000000000000000000000000000000000 DUP2 MSTORE PUSH1 0x4 ADD PUSH2 0x1773 SWAP1 PUSH2 0x23F7 JUMP JUMPDEST PUSH1 0x40 MLOAD DUP1 SWAP2 SUB SWAP1 REVERT JUMPDEST SWAP5 SWAP4 POP POP POP POP JUMP JUMPDEST PUSH2 0x178F DUP2 PUSH1 0x4 PUSH2 0x1A74 JUMP JUMPDEST POP JUMP JUMPDEST PUSH2 0x179D DUP2 PUSH1 0x7 PUSH2 0x1A74 JUMP JUMPDEST POP JUMP JUMPDEST PUSH2 0x17A8 PUSH2 0x1D7E JUMP JUMPDEST PUSH1 0x0 PUSH1 0x20 DUP4 PUSH2 0x17B7 SWAP2 SWAP1 PUSH2 0x29C6 JUMP JUMPDEST EQ PUSH2 0x17E3 JUMPI PUSH1 0x20 DUP3 PUSH2 0x17C9 SWAP2 SWAP1 PUSH2 0x29C6 JUMP JUMPDEST PUSH1 0x20 PUSH2 0x17D5 SWAP2 SWAP1 PUSH2 0x27EA JUMP JUMPDEST DUP3 PUSH2 0x17E0 SWAP2 SWAP1 PUSH2 0x2535 JUMP JUMPDEST SWAP2 POP JUMPDEST DUP2 DUP4 PUSH1 0x20 ADD DUP2 DUP2 MSTORE POP POP PUSH1 0x40 MLOAD DUP1 DUP5 MSTORE PUSH1 0x0 DUP2 MSTORE DUP3 DUP2 ADD PUSH1 0x20 ADD PUSH1 0x40 MSTORE POP DUP3 SWAP1 POP SWAP3 SWAP2 POP POP JUMP JUMPDEST PUSH1 0x17 DUP2 PUSH8 0xFFFFFFFFFFFFFFFF AND GT PUSH2 0x1841 JUMPI PUSH2 0x183B DUP2 PUSH1 0x5 DUP5 PUSH1 0xFF AND SWAP1 SHL PUSH1 0xFF AND OR DUP5 PUSH2 0x1A96 SWAP1 SWAP2 SWAP1 PUSH4 0xFFFFFFFF AND JUMP JUMPDEST POP PUSH2 0x198A JUMP JUMPDEST PUSH1 0xFF DUP2 PUSH8 0xFFFFFFFFFFFFFFFF AND GT PUSH2 0x1897 JUMPI PUSH2 0x1870 PUSH1 0x18 PUSH1 0x5 DUP5 PUSH1 0xFF AND SWAP1 SHL OR DUP5 PUSH2 0x1A96 SWAP1 SWAP2 SWAP1 PUSH4 0xFFFFFFFF AND JUMP JUMPDEST POP PUSH2 0x1891 DUP2 PUSH8 0xFFFFFFFFFFFFFFFF AND PUSH1 0x1 DUP6 PUSH2 0x1AB6 SWAP1 SWAP3 SWAP2 SWAP1 PUSH4 0xFFFFFFFF AND JUMP JUMPDEST POP PUSH2 0x1989 JUMP JUMPDEST PUSH2 0xFFFF DUP2 PUSH8 0xFFFFFFFFFFFFFFFF AND GT PUSH2 0x18EE JUMPI PUSH2 0x18C7 PUSH1 0x19 PUSH1 0x5 DUP5 PUSH1 0xFF AND SWAP1 SHL OR DUP5 PUSH2 0x1A96 SWAP1 SWAP2 SWAP1 PUSH4 0xFFFFFFFF AND JUMP JUMPDEST POP PUSH2 0x18E8 DUP2 PUSH8 0xFFFFFFFFFFFFFFFF AND PUSH1 0x2 DUP6 PUSH2 0x1AB6 SWAP1 SWAP3 SWAP2 SWAP1 PUSH4 0xFFFFFFFF AND JUMP JUMPDEST POP PUSH2 0x1988 JUMP JUMPDEST PUSH4 0xFFFFFFFF DUP2 PUSH8 0xFFFFFFFFFFFFFFFF AND GT PUSH2 0x1947 JUMPI PUSH2 0x1920 PUSH1 0x1A PUSH1 0x5 DUP5 PUSH1 0xFF AND SWAP1 SHL OR DUP5 PUSH2 0x1A96 SWAP1 SWAP2 SWAP1 PUSH4 0xFFFFFFFF AND JUMP JUMPDEST POP PUSH2 0x1941 DUP2 PUSH8 0xFFFFFFFFFFFFFFFF AND PUSH1 0x4 DUP6 PUSH2 0x1AB6 SWAP1 SWAP3 SWAP2 SWAP1 PUSH4 0xFFFFFFFF AND JUMP JUMPDEST POP PUSH2 0x1987 JUMP JUMPDEST PUSH2 0x1964 PUSH1 0x1B PUSH1 0x5 DUP5 PUSH1 0xFF AND SWAP1 SHL OR DUP5 PUSH2 0x1A96 SWAP1 SWAP2 SWAP1 PUSH4 0xFFFFFFFF AND JUMP JUMPDEST POP PUSH2 0x1985 DUP2 PUSH8 0xFFFFFFFFFFFFFFFF AND PUSH1 0x8 DUP6 PUSH2 0x1AB6 SWAP1 SWAP3 SWAP2 SWAP1 PUSH4 0xFFFFFFFF AND JUMP JUMPDEST POP JUMPDEST JUMPDEST JUMPDEST JUMPDEST POP POP POP JUMP JUMPDEST PUSH2 0x1997 PUSH2 0x1D7E JUMP JUMPDEST PUSH2 0x19A9 DUP4 DUP5 PUSH1 0x0 ADD MLOAD MLOAD DUP5 DUP6 MLOAD PUSH2 0x1AD8 JUMP JUMPDEST SWAP1 POP SWAP3 SWAP2 POP POP JUMP JUMPDEST PUSH2 0x19CF PUSH1 0x3 PUSH1 0x5 PUSH1 0x6 PUSH1 0xFF AND SWAP1 SHL OR DUP4 PUSH2 0x1A96 SWAP1 SWAP2 SWAP1 PUSH4 0xFFFFFFFF AND JUMP JUMPDEST POP PUSH2 0x1A24 DUP3 DUP3 PUSH32 0xFFFFFFFFFFFFFFFFFFFFFFFFFFFFFFFFFFFFFFFFFFFFFFFFFFFFFFFFFFFFFFFF PUSH2 0x1A00 SWAP2 SWAP1 PUSH2 0x2756 JUMP JUMPDEST PUSH1 0x40 MLOAD PUSH1 0x20 ADD PUSH2 0x1A10 SWAP2 SWAP1 PUSH2 0x2497 JUMP JUMPDEST PUSH1 0x40 MLOAD PUSH1 0x20 DUP2 DUP4 SUB SUB DUP2 MSTORE SWAP1 PUSH1 0x40 MSTORE PUSH2 0x1BC7 JUMP JUMPDEST POP POP JUMP JUMPDEST PUSH2 0x1A46 PUSH1 0x2 PUSH1 0x5 PUSH1 0x6 PUSH1 0xFF AND SWAP1 SHL OR DUP4 PUSH2 0x1A96 SWAP1 SWAP2 SWAP1 PUSH4 0xFFFFFFFF AND JUMP JUMPDEST POP PUSH2 0x1A70 DUP3 DUP3 PUSH1 0x40 MLOAD PUSH1 0x20 ADD PUSH2 0x1A5C SWAP2 SWAP1 PUSH2 0x2497 JUMP JUMPDEST PUSH1 0x40 MLOAD PUSH1 0x20 DUP2 DUP4 SUB SUB DUP2 MSTORE SWAP1 PUSH1 0x40 MSTORE PUSH2 0x1BC7 JUMP JUMPDEST POP POP JUMP JUMPDEST PUSH2 0x1A91 PUSH1 0x1F PUSH1 0x5 DUP4 PUSH1 0xFF AND SWAP1 SHL OR DUP4 PUSH2 0x1A96 SWAP1 SWAP2 SWAP1 PUSH4 0xFFFFFFFF AND JUMP JUMPDEST POP POP POP JUMP JUMPDEST PUSH2 0x1A9E PUSH2 0x1D7E JUMP JUMPDEST PUSH2 0x1AAE DUP4 DUP5 PUSH1 0x0 ADD MLOAD MLOAD DUP5 PUSH2 0x1BEC JUMP JUMPDEST SWAP1 POP SWAP3 SWAP2 POP POP JUMP JUMPDEST PUSH2 0x1ABE PUSH2 0x1D7E JUMP JUMPDEST PUSH2 0x1ACF DUP5 DUP6 PUSH1 0x0 ADD MLOAD MLOAD DUP6 DUP6 PUSH2 0x1C43 JUMP JUMPDEST SWAP1 POP SWAP4 SWAP3 POP POP POP JUMP JUMPDEST PUSH2 0x1AE0 PUSH2 0x1D7E JUMP JUMPDEST DUP3 MLOAD DUP3 GT ISZERO PUSH2 0x1AEE JUMPI PUSH1 0x0 DUP1 REVERT JUMPDEST DUP5 PUSH1 0x20 ADD MLOAD DUP3 DUP6 PUSH2 0x1AFF SWAP2 SWAP1 PUSH2 0x2535 JUMP JUMPDEST GT ISZERO PUSH2 0x1B34 JUMPI PUSH2 0x1B33 DUP6 PUSH1 0x2 PUSH2 0x1B24 DUP9 PUSH1 0x20 ADD MLOAD DUP9 DUP8 PUSH2 0x1B1F SWAP2 SWAP1 PUSH2 0x2535 JUMP JUMPDEST PUSH2 0x1CD1 JUMP JUMPDEST PUSH2 0x1B2E SWAP2 SWAP1 PUSH2 0x26FC JUMP JUMPDEST PUSH2 0x1CED JUMP JUMPDEST JUMPDEST PUSH1 0x0 DUP1 DUP7 MLOAD DUP1 MLOAD DUP8 PUSH1 0x20 DUP4 ADD ADD SWAP4 POP DUP1 DUP9 DUP8 ADD GT ISZERO PUSH2 0x1B53 JUMPI DUP8 DUP7 ADD DUP3 MSTORE JUMPDEST PUSH1 0x20 DUP8 ADD SWAP3 POP POP POP JUMPDEST PUSH1 0x20 DUP5 LT PUSH2 0x1B9A JUMPI DUP1 MLOAD DUP3 MSTORE PUSH1 0x20 DUP3 PUSH2 0x1B75 SWAP2 SWAP1 PUSH2 0x2535 JUMP JUMPDEST SWAP2 POP PUSH1 0x20 DUP2 PUSH2 0x1B84 SWAP2 SWAP1 PUSH2 0x2535 JUMP JUMPDEST SWAP1 POP PUSH1 0x20 DUP5 PUSH2 0x1B93 SWAP2 SWAP1 PUSH2 0x27EA JUMP JUMPDEST SWAP4 POP PUSH2 0x1B5C JUMP JUMPDEST PUSH1 0x0 PUSH1 0x1 DUP6 PUSH1 0x20 SUB PUSH2 0x100 EXP SUB SWAP1 POP DUP1 NOT DUP3 MLOAD AND DUP2 DUP5 MLOAD AND DUP2 DUP2 OR DUP6 MSTORE POP POP POP DUP7 SWAP3 POP POP POP SWAP5 SWAP4 POP POP POP POP JUMP JUMPDEST PUSH2 0x1BD4 DUP3 PUSH1 0x2 DUP4 MLOAD PUSH2 0x180A JUMP JUMPDEST PUSH2 0x1BE7 DUP2 DUP4 PUSH2 0x198F SWAP1 SWAP2 SWAP1 PUSH4 0xFFFFFFFF AND JUMP JUMPDEST POP POP POP JUMP JUMPDEST PUSH2 0x1BF4 PUSH2 0x1D7E JUMP JUMPDEST DUP4 PUSH1 0x20 ADD MLOAD DUP4 LT PUSH2 0x1C1A JUMPI PUSH2 0x1C19 DUP5 PUSH1 0x2 DUP7 PUSH1 0x20 ADD MLOAD PUSH2 0x1C14 SWAP2 SWAP1 PUSH2 0x26FC JUMP JUMPDEST PUSH2 0x1CED JUMP JUMPDEST JUMPDEST DUP4 MLOAD DUP1 MLOAD PUSH1 0x20 DUP6 DUP4 ADD ADD DUP5 DUP2 MSTORE8 DUP2 DUP7 EQ ISZERO PUSH2 0x1C36 JUMPI PUSH1 0x1 DUP3 ADD DUP4 MSTORE JUMPDEST POP POP POP DUP4 SWAP1 POP SWAP4 SWAP3 POP POP POP JUMP JUMPDEST PUSH2 0x1C4B PUSH2 0x1D7E JUMP JUMPDEST DUP5 PUSH1 0x20 ADD MLOAD DUP5 DUP4 PUSH2 0x1C5C SWAP2 SWAP1 PUSH2 0x2535 JUMP JUMPDEST GT ISZERO PUSH2 0x1C84 JUMPI PUSH2 0x1C83 DUP6 PUSH1 0x2 DUP7 DUP6 PUSH2 0x1C74 SWAP2 SWAP1 PUSH2 0x2535 JUMP JUMPDEST PUSH2 0x1C7E SWAP2 SWAP1 PUSH2 0x26FC JUMP JUMPDEST PUSH2 0x1CED JUMP JUMPDEST JUMPDEST PUSH1 0x0 PUSH1 0x1 DUP4 PUSH2 0x100 PUSH2 0x1C96 SWAP2 SWAP1 PUSH2 0x25DE JUMP JUMPDEST PUSH2 0x1CA0 SWAP2 SWAP1 PUSH2 0x27EA JUMP JUMPDEST SWAP1 POP DUP6 MLOAD DUP4 DUP7 DUP3 ADD ADD DUP6 DUP4 NOT DUP3 MLOAD AND OR DUP2 MSTORE DUP2 MLOAD DUP6 DUP9 ADD GT ISZERO PUSH2 0x1CC3 JUMPI DUP5 DUP8 ADD DUP3 MSTORE JUMPDEST POP POP DUP6 SWAP2 POP POP SWAP5 SWAP4 POP POP POP POP JUMP JUMPDEST PUSH1 0x0 DUP2 DUP4 GT ISZERO PUSH2 0x1CE3 JUMPI DUP3 SWAP1 POP PUSH2 0x1CE7 JUMP JUMPDEST DUP2 SWAP1 POP JUMPDEST SWAP3 SWAP2 POP POP JUMP JUMPDEST PUSH1 0x0 DUP3 PUSH1 0x0 ADD MLOAD SWAP1 POP PUSH2 0x1D00 DUP4 DUP4 PUSH2 0x17A0 JUMP JUMPDEST POP PUSH2 0x1D0B DUP4 DUP3 PUSH2 0x198F JUMP JUMPDEST POP POP POP POP JUMP JUMPDEST PUSH1 0x40 MLOAD DUP1 PUSH1 0xA0 ADD PUSH1 0x40 MSTORE DUP1 PUSH1 0x0 DUP1 NOT AND DUP2 MSTORE PUSH1 0x20 ADD PUSH1 0x0 PUSH20 0xFFFFFFFFFFFFFFFFFFFFFFFFFFFFFFFFFFFFFFFF AND DUP2 MSTORE PUSH1 0x20 ADD PUSH1 0x0 PUSH28 0xFFFFFFFFFFFFFFFFFFFFFFFFFFFFFFFFFFFFFFFFFFFFFFFFFFFFFFFF NOT AND DUP2 MSTORE PUSH1 0x20 ADD PUSH1 0x0 DUP2 MSTORE PUSH1 0x20 ADD PUSH2 0x1D78 PUSH2 0x1D7E JUMP JUMPDEST DUP2 MSTORE POP SWAP1 JUMP JUMPDEST PUSH1 0x40 MLOAD DUP1 PUSH1 0x40 ADD PUSH1 0x40 MSTORE DUP1 PUSH1 0x60 DUP2 MSTORE PUSH1 0x20 ADD PUSH1 0x0 DUP2 MSTORE POP SWAP1 JUMP JUMPDEST PUSH1 0x0 PUSH2 0x1DAB PUSH2 0x1DA6 DUP5 PUSH2 0x24D7 JUMP JUMPDEST PUSH2 0x24B2 JUMP JUMPDEST SWAP1 POP DUP3 DUP2 MSTORE PUSH1 0x20 DUP2 ADD DUP5 DUP5 DUP5 ADD GT ISZERO PUSH2 0x1DC7 JUMPI PUSH2 0x1DC6 PUSH2 0x2AB8 JUMP JUMPDEST JUMPDEST PUSH2 0x1DD2 DUP5 DUP3 DUP6 PUSH2 0x28DC JUMP JUMPDEST POP SWAP4 SWAP3 POP POP POP JUMP JUMPDEST PUSH1 0x0 DUP2 CALLDATALOAD SWAP1 POP PUSH2 0x1DE9 DUP2 PUSH2 0x2C34 JUMP JUMPDEST SWAP3 SWAP2 POP POP JUMP JUMPDEST PUSH1 0x0 DUP2 MLOAD SWAP1 POP PUSH2 0x1DFE DUP2 PUSH2 0x2C4B JUMP JUMPDEST SWAP3 SWAP2 POP POP JUMP JUMPDEST PUSH1 0x0 DUP2 CALLDATALOAD SWAP1 POP PUSH2 0x1E13 DUP2 PUSH2 0x2C62 JUMP JUMPDEST SWAP3 SWAP2 POP POP JUMP JUMPDEST PUSH1 0x0 DUP2 CALLDATALOAD SWAP1 POP PUSH2 0x1E28 DUP2 PUSH2 0x2C79 JUMP JUMPDEST SWAP3 SWAP2 POP POP JUMP JUMPDEST PUSH1 0x0 DUP2 CALLDATALOAD SWAP1 POP PUSH2 0x1E3D DUP2 PUSH2 0x2C90 JUMP JUMPDEST SWAP3 SWAP2 POP POP JUMP JUMPDEST PUSH1 0x0 DUP3 PUSH1 0x1F DUP4 ADD SLT PUSH2 0x1E58 JUMPI PUSH2 0x1E57 PUSH2 0x2AB3 JUMP JUMPDEST JUMPDEST DUP2 CALLDATALOAD PUSH2 0x1E68 DUP5 DUP3 PUSH1 0x20 DUP7 ADD PUSH2 0x1D98 JUMP JUMPDEST SWAP2 POP POP SWAP3 SWAP2 POP POP JUMP JUMPDEST PUSH1 0x0 DUP2 CALLDATALOAD SWAP1 POP PUSH2 0x1E80 DUP2 PUSH2 0x2CA7 JUMP JUMPDEST SWAP3 SWAP2 POP POP JUMP JUMPDEST PUSH1 0x0 DUP2 MLOAD SWAP1 POP PUSH2 0x1E95 DUP2 PUSH2 0x2CA7 JUMP JUMPDEST SWAP3 SWAP2 POP POP JUMP JUMPDEST PUSH1 0x0 PUSH1 0x20 DUP3 DUP5 SUB SLT ISZERO PUSH2 0x1EB1 JUMPI PUSH2 0x1EB0 PUSH2 0x2AC2 JUMP JUMPDEST JUMPDEST PUSH1 0x0 PUSH2 0x1EBF DUP5 DUP3 DUP6 ADD PUSH2 0x1DDA JUMP JUMPDEST SWAP2 POP POP SWAP3 SWAP2 POP POP JUMP JUMPDEST PUSH1 0x0 DUP1 PUSH1 0x40 DUP4 DUP6 SUB SLT ISZERO PUSH2 0x1EDF JUMPI PUSH2 0x1EDE PUSH2 0x2AC2 JUMP JUMPDEST JUMPDEST PUSH1 0x0 PUSH2 0x1EED DUP6 DUP3 DUP7 ADD PUSH2 0x1DDA JUMP JUMPDEST SWAP3 POP POP PUSH1 0x20 DUP4 ADD CALLDATALOAD PUSH8 0xFFFFFFFFFFFFFFFF DUP2 GT ISZERO PUSH2 0x1F0E JUMPI PUSH2 0x1F0D PUSH2 0x2ABD JUMP JUMPDEST JUMPDEST PUSH2 0x1F1A DUP6 DUP3 DUP7 ADD PUSH2 0x1E43 JUMP JUMPDEST SWAP2 POP POP SWAP3 POP SWAP3 SWAP1 POP JUMP JUMPDEST PUSH1 0x0 PUSH1 0x20 DUP3 DUP5 SUB SLT ISZERO PUSH2 0x1F3A JUMPI PUSH2 0x1F39 PUSH2 0x2AC2 JUMP JUMPDEST JUMPDEST PUSH1 0x0 PUSH2 0x1F48 DUP5 DUP3 DUP6 ADD PUSH2 0x1DEF JUMP JUMPDEST SWAP2 POP POP SWAP3 SWAP2 POP POP JUMP JUMPDEST PUSH1 0x0 DUP1 PUSH1 0x40 DUP4 DUP6 SUB SLT ISZERO PUSH2 0x1F68 JUMPI PUSH2 0x1F67 PUSH2 0x2AC2 JUMP JUMPDEST JUMPDEST PUSH1 0x0 PUSH2 0x1F76 DUP6 DUP3 DUP7 ADD PUSH2 0x1E04 JUMP JUMPDEST SWAP3 POP POP PUSH1 0x20 PUSH2 0x1F87 DUP6 DUP3 DUP7 ADD PUSH2 0x1E04 JUMP JUMPDEST SWAP2 POP POP SWAP3 POP SWAP3 SWAP1 POP JUMP JUMPDEST PUSH1 0x0 DUP1 PUSH1 0x40 DUP4 DUP6 SUB SLT ISZERO PUSH2 0x1FA8 JUMPI PUSH2 0x1FA7 PUSH2 0x2AC2 JUMP JUMPDEST JUMPDEST PUSH1 0x0 PUSH2 0x1FB6 DUP6 DUP3 DUP7 ADD PUSH2 0x1E04 JUMP JUMPDEST SWAP3 POP POP PUSH1 0x20 PUSH2 0x1FC7 DUP6 DUP3 DUP7 ADD PUSH2 0x1E2E JUMP JUMPDEST SWAP2 POP POP SWAP3 POP SWAP3 SWAP1 POP JUMP JUMPDEST PUSH1 0x0 DUP1 PUSH1 0x40 DUP4 DUP6 SUB SLT ISZERO PUSH2 0x1FE8 JUMPI PUSH2 0x1FE7 PUSH2 0x2AC2 JUMP JUMPDEST JUMPDEST PUSH1 0x0 PUSH2 0x1FF6 DUP6 DUP3 DUP7 ADD PUSH2 0x1E04 JUMP JUMPDEST SWAP3 POP POP PUSH1 0x20 PUSH2 0x2007 DUP6 DUP3 DUP7 ADD PUSH2 0x1E71 JUMP JUMPDEST SWAP2 POP POP SWAP3 POP SWAP3 SWAP1 POP JUMP JUMPDEST PUSH1 0x0 DUP1 PUSH1 0x0 DUP1 PUSH1 0x80 DUP6 DUP8 SUB SLT ISZERO PUSH2 0x202B JUMPI PUSH2 0x202A PUSH2 0x2AC2 JUMP JUMPDEST JUMPDEST PUSH1 0x0 PUSH2 0x2039 DUP8 DUP3 DUP9 ADD PUSH2 0x1E04 JUMP JUMPDEST SWAP5 POP POP PUSH1 0x20 PUSH2 0x204A DUP8 DUP3 DUP9 ADD PUSH2 0x1E71 JUMP JUMPDEST SWAP4 POP POP PUSH1 0x40 PUSH2 0x205B DUP8 DUP3 DUP9 ADD PUSH2 0x1E19 JUMP JUMPDEST SWAP3 POP POP PUSH1 0x60 PUSH2 0x206C DUP8 DUP3 DUP9 ADD PUSH2 0x1E71 JUMP JUMPDEST SWAP2 POP POP SWAP3 SWAP6 SWAP2 SWAP5 POP SWAP3 POP JUMP JUMPDEST PUSH1 0x0 PUSH1 0x20 DUP3 DUP5 SUB SLT ISZERO PUSH2 0x208E JUMPI PUSH2 0x208D PUSH2 0x2AC2 JUMP JUMPDEST JUMPDEST PUSH1 0x0 PUSH2 0x209C DUP5 DUP3 DUP6 ADD PUSH2 0x1E86 JUMP JUMPDEST SWAP2 POP POP SWAP3 SWAP2 POP POP JUMP JUMPDEST PUSH2 0x20AE DUP2 PUSH2 0x281E JUMP JUMPDEST DUP3 MSTORE POP POP JUMP JUMPDEST PUSH2 0x20BD DUP2 PUSH2 0x283C JUMP JUMPDEST DUP3 MSTORE POP POP JUMP JUMPDEST PUSH2 0x20CC DUP2 PUSH2 0x2846 JUMP JUMPDEST DUP3 MSTORE POP POP JUMP JUMPDEST PUSH1 0x0 PUSH2 0x20DD DUP3 PUSH2 0x2508 JUMP JUMPDEST PUSH2 0x20E7 DUP2 DUP6 PUSH2 0x2513 JUMP JUMPDEST SWAP4 POP PUSH2 0x20F7 DUP2 DUP6 PUSH1 0x20 DUP7 ADD PUSH2 0x28EB JUMP JUMPDEST PUSH2 0x2100 DUP2 PUSH2 0x2AC7 JUMP JUMPDEST DUP5 ADD SWAP2 POP POP SWAP3 SWAP2 POP POP JUMP JUMPDEST PUSH2 0x211C PUSH2 0x2117 DUP3 PUSH2 0x28A6 JUMP JUMPDEST PUSH2 0x2998 JUMP JUMPDEST DUP3 MSTORE POP POP JUMP JUMPDEST PUSH2 0x212B DUP2 PUSH2 0x2872 JUMP JUMPDEST DUP3 MSTORE POP POP JUMP JUMPDEST PUSH1 0x0 PUSH2 0x213E PUSH1 0x16 DUP4 PUSH2 0x2524 JUMP JUMPDEST SWAP2 POP PUSH2 0x2149 DUP3 PUSH2 0x2AF2 JUMP JUMPDEST PUSH1 0x20 DUP3 ADD SWAP1 POP SWAP2 SWAP1 POP JUMP JUMPDEST PUSH1 0x0 PUSH2 0x2161 PUSH1 0x23 DUP4 PUSH2 0x2524 JUMP JUMPDEST SWAP2 POP PUSH2 0x216C DUP3 PUSH2 0x2B1B JUMP JUMPDEST PUSH1 0x40 DUP3 ADD SWAP1 POP SWAP2 SWAP1 POP JUMP JUMPDEST PUSH1 0x0 PUSH2 0x2184 PUSH1 0x16 DUP4 PUSH2 0x2524 JUMP JUMPDEST SWAP2 POP PUSH2 0x218F DUP3 PUSH2 0x2B6A JUMP JUMPDEST PUSH1 0x20 DUP3 ADD SWAP1 POP SWAP2 SWAP1 POP JUMP JUMPDEST PUSH1 0x0 PUSH2 0x21A7 PUSH1 0x12 DUP4 PUSH2 0x2524 JUMP JUMPDEST SWAP2 POP PUSH2 0x21B2 DUP3 PUSH2 0x2B93 JUMP JUMPDEST PUSH1 0x20 DUP3 ADD SWAP1 POP SWAP2 SWAP1 POP JUMP JUMPDEST PUSH1 0x0 PUSH2 0x21CA PUSH1 0x17 DUP4 PUSH2 0x2524 JUMP JUMPDEST SWAP2 POP PUSH2 0x21D5 DUP3 PUSH2 0x2BBC JUMP JUMPDEST PUSH1 0x20 DUP3 ADD SWAP1 POP SWAP2 SWAP1 POP JUMP JUMPDEST PUSH1 0x0 PUSH2 0x21ED PUSH1 0x28 DUP4 PUSH2 0x2524 JUMP JUMPDEST SWAP2 POP PUSH2 0x21F8 DUP3 PUSH2 0x2BE5 JUMP JUMPDEST PUSH1 0x40 DUP3 ADD SWAP1 POP SWAP2 SWAP1 POP JUMP JUMPDEST PUSH2 0x220C DUP2 PUSH2 0x289C JUMP JUMPDEST DUP3 MSTORE POP POP JUMP JUMPDEST PUSH2 0x2223 PUSH2 0x221E DUP3 PUSH2 0x289C JUMP JUMPDEST PUSH2 0x29BC JUMP JUMPDEST DUP3 MSTORE POP POP JUMP JUMPDEST PUSH1 0x0 PUSH2 0x2235 DUP3 DUP6 PUSH2 0x210B JUMP JUMPDEST PUSH1 0x14 DUP3 ADD SWAP2 POP PUSH2 0x2245 DUP3 DUP5 PUSH2 0x2212 JUMP JUMPDEST PUSH1 0x20 DUP3 ADD SWAP2 POP DUP2 SWAP1 POP SWAP4 SWAP3 POP POP POP JUMP JUMPDEST PUSH1 0x0 PUSH1 0x20 DUP3 ADD SWAP1 POP PUSH2 0x226A PUSH1 0x0 DUP4 ADD DUP5 PUSH2 0x20A5 JUMP JUMPDEST SWAP3 SWAP2 POP POP JUMP JUMPDEST PUSH1 0x0 PUSH1 0x40 DUP3 ADD SWAP1 POP PUSH2 0x2285 PUSH1 0x0 DUP4 ADD DUP6 PUSH2 0x20A5 JUMP JUMPDEST PUSH2 0x2292 PUSH1 0x20 DUP4 ADD DUP5 PUSH2 0x2203 JUMP JUMPDEST SWAP4 SWAP3 POP POP POP JUMP JUMPDEST PUSH1 0x0 PUSH2 0x100 DUP3 ADD SWAP1 POP PUSH2 0x22AF PUSH1 0x0 DUP4 ADD DUP12 PUSH2 0x20A5 JUMP JUMPDEST PUSH2 0x22BC PUSH1 0x20 DUP4 ADD DUP11 PUSH2 0x2203 JUMP JUMPDEST PUSH2 0x22C9 PUSH1 0x40 DUP4 ADD DUP10 PUSH2 0x20B4 JUMP JUMPDEST PUSH2 0x22D6 PUSH1 0x60 DUP4 ADD DUP9 PUSH2 0x20A5 JUMP JUMPDEST PUSH2 0x22E3 PUSH1 0x80 DUP4 ADD DUP8 PUSH2 0x20C3 JUMP JUMPDEST PUSH2 0x22F0 PUSH1 0xA0 DUP4 ADD DUP7 PUSH2 0x2203 JUMP JUMPDEST PUSH2 0x22FD PUSH1 0xC0 DUP4 ADD DUP6 PUSH2 0x2203 JUMP JUMPDEST DUP2 DUP2 SUB PUSH1 0xE0 DUP4 ADD MSTORE PUSH2 0x230F DUP2 DUP5 PUSH2 0x20D2 JUMP JUMPDEST SWAP1 POP SWAP10 SWAP9 POP POP POP POP POP POP POP POP POP JUMP JUMPDEST PUSH1 0x0 PUSH1 0x60 DUP3 ADD SWAP1 POP PUSH2 0x2333 PUSH1 0x0 DUP4 ADD DUP7 PUSH2 0x20A5 JUMP JUMPDEST PUSH2 0x2340 PUSH1 0x20 DUP4 ADD DUP6 PUSH2 0x2203 JUMP JUMPDEST DUP2 DUP2 SUB PUSH1 0x40 DUP4 ADD MSTORE PUSH2 0x2352 DUP2 DUP5 PUSH2 0x20D2 JUMP JUMPDEST SWAP1 POP SWAP5 SWAP4 POP POP POP POP JUMP JUMPDEST PUSH1 0x0 PUSH1 0x20 DUP3 ADD SWAP1 POP PUSH2 0x2371 PUSH1 0x0 DUP4 ADD DUP5 PUSH2 0x20B4 JUMP JUMPDEST SWAP3 SWAP2 POP POP JUMP JUMPDEST PUSH1 0x0 PUSH1 0x80 DUP3 ADD SWAP1 POP PUSH2 0x238C PUSH1 0x0 DUP4 ADD DUP8 PUSH2 0x20B4 JUMP JUMPDEST PUSH2 0x2399 PUSH1 0x20 DUP4 ADD DUP7 PUSH2 0x2203 JUMP JUMPDEST PUSH2 0x23A6 PUSH1 0x40 DUP4 ADD DUP6 PUSH2 0x20C3 JUMP JUMPDEST PUSH2 0x23B3 PUSH1 0x60 DUP4 ADD DUP5 PUSH2 0x2203 JUMP JUMPDEST SWAP6 SWAP5 POP POP POP POP POP JUMP JUMPDEST PUSH1 0x0 PUSH1 0x20 DUP3 ADD SWAP1 POP PUSH2 0x23D1 PUSH1 0x0 DUP4 ADD DUP5 PUSH2 0x2122 JUMP JUMPDEST SWAP3 SWAP2 POP POP JUMP JUMPDEST PUSH1 0x0 PUSH1 0x20 DUP3 ADD SWAP1 POP DUP2 DUP2 SUB PUSH1 0x0 DUP4 ADD MSTORE PUSH2 0x23F0 DUP2 PUSH2 0x2131 JUMP JUMPDEST SWAP1 POP SWAP2 SWAP1 POP JUMP JUMPDEST PUSH1 0x0 PUSH1 0x20 DUP3 ADD SWAP1 POP DUP2 DUP2 SUB PUSH1 0x0 DUP4 ADD MSTORE PUSH2 0x2410 DUP2 PUSH2 0x2154 JUMP JUMPDEST SWAP1 POP SWAP2 SWAP1 POP JUMP JUMPDEST PUSH1 0x0 PUSH1 0x20 DUP3 ADD SWAP1 POP DUP2 DUP2 SUB PUSH1 0x0 DUP4 ADD MSTORE PUSH2 0x2430 DUP2 PUSH2 0x2177 JUMP JUMPDEST SWAP1 POP SWAP2 SWAP1 POP JUMP JUMPDEST PUSH1 0x0 PUSH1 0x20 DUP3 ADD SWAP1 POP DUP2 DUP2 SUB PUSH1 0x0 DUP4 ADD MSTORE PUSH2 0x2450 DUP2 PUSH2 0x219A JUMP JUMPDEST SWAP1 POP SWAP2 SWAP1 POP JUMP JUMPDEST PUSH1 0x0 PUSH1 0x20 DUP3 ADD SWAP1 POP DUP2 DUP2 SUB PUSH1 0x0 DUP4 ADD MSTORE PUSH2 0x2470 DUP2 PUSH2 0x21BD JUMP JUMPDEST SWAP1 POP SWAP2 SWAP1 POP JUMP JUMPDEST PUSH1 0x0 PUSH1 0x20 DUP3 ADD SWAP1 POP DUP2 DUP2 SUB PUSH1 0x0 DUP4 ADD MSTORE PUSH2 0x2490 DUP2 PUSH2 0x21E0 JUMP JUMPDEST SWAP1 POP SWAP2 SWAP1 POP JUMP JUMPDEST PUSH1 0x0 PUSH1 0x20 DUP3 ADD SWAP1 POP PUSH2 0x24AC PUSH1 0x0 DUP4 ADD DUP5 PUSH2 0x2203 JUMP JUMPDEST SWAP3 SWAP2 POP POP JUMP JUMPDEST PUSH1 0x0 PUSH2 0x24BC PUSH2 0x24CD JUMP JUMPDEST SWAP1 POP PUSH2 0x24C8 DUP3 DUP3 PUSH2 0x291E JUMP JUMPDEST SWAP2 SWAP1 POP JUMP JUMPDEST PUSH1 0x0 PUSH1 0x40 MLOAD SWAP1 POP SWAP1 JUMP JUMPDEST PUSH1 0x0 PUSH8 0xFFFFFFFFFFFFFFFF DUP3 GT ISZERO PUSH2 0x24F2 JUMPI PUSH2 0x24F1 PUSH2 0x2A84 JUMP JUMPDEST JUMPDEST PUSH2 0x24FB DUP3 PUSH2 0x2AC7 JUMP JUMPDEST SWAP1 POP PUSH1 0x20 DUP2 ADD SWAP1 POP SWAP2 SWAP1 POP JUMP JUMPDEST PUSH1 0x0 DUP2 MLOAD SWAP1 POP SWAP2 SWAP1 POP JUMP JUMPDEST PUSH1 0x0 DUP3 DUP3 MSTORE PUSH1 0x20 DUP3 ADD SWAP1 POP SWAP3 SWAP2 POP POP JUMP JUMPDEST PUSH1 0x0 DUP3 DUP3 MSTORE PUSH1 0x20 DUP3 ADD SWAP1 POP SWAP3 SWAP2 POP POP JUMP JUMPDEST PUSH1 0x0 PUSH2 0x2540 DUP3 PUSH2 0x289C JUMP JUMPDEST SWAP2 POP PUSH2 0x254B DUP4 PUSH2 0x289C JUMP JUMPDEST SWAP3 POP DUP3 PUSH32 0xFFFFFFFFFFFFFFFFFFFFFFFFFFFFFFFFFFFFFFFFFFFFFFFFFFFFFFFFFFFFFFFF SUB DUP3 GT ISZERO PUSH2 0x2580 JUMPI PUSH2 0x257F PUSH2 0x29F7 JUMP JUMPDEST JUMPDEST DUP3 DUP3 ADD SWAP1 POP SWAP3 SWAP2 POP POP JUMP JUMPDEST PUSH1 0x0 DUP1 DUP3 SWAP2 POP DUP4 SWAP1 POP JUMPDEST PUSH1 0x1 DUP6 GT ISZERO PUSH2 0x25D5 JUMPI DUP1 DUP7 DIV DUP2 GT ISZERO PUSH2 0x25B1 JUMPI PUSH2 0x25B0 PUSH2 0x29F7 JUMP JUMPDEST JUMPDEST PUSH1 0x1 DUP6 AND ISZERO PUSH2 0x25C0 JUMPI DUP1 DUP3 MUL SWAP2 POP JUMPDEST DUP1 DUP2 MUL SWAP1 POP PUSH2 0x25CE DUP6 PUSH2 0x2AE5 JUMP JUMPDEST SWAP5 POP PUSH2 0x2595 JUMP JUMPDEST SWAP5 POP SWAP5 SWAP3 POP POP POP JUMP JUMPDEST PUSH1 0x0 PUSH2 0x25E9 DUP3 PUSH2 0x289C JUMP JUMPDEST SWAP2 POP PUSH2 0x25F4 DUP4 PUSH2 0x289C JUMP JUMPDEST SWAP3 POP PUSH2 0x2621 PUSH32 0xFFFFFFFFFFFFFFFFFFFFFFFFFFFFFFFFFFFFFFFFFFFFFFFFFFFFFFFFFFFFFFFF DUP5 DUP5 PUSH2 0x2629 JUMP JUMPDEST SWAP1 POP SWAP3 SWAP2 POP POP JUMP JUMPDEST PUSH1 0x0 DUP3 PUSH2 0x2639 JUMPI PUSH1 0x1 SWAP1 POP PUSH2 0x26F5 JUMP JUMPDEST DUP2 PUSH2 0x2647 JUMPI PUSH1 0x0 SWAP1 POP PUSH2 0x26F5 JUMP JUMPDEST DUP2 PUSH1 0x1 DUP2 EQ PUSH2 0x265D JUMPI PUSH1 0x2 DUP2 EQ PUSH2 0x2667 JUMPI PUSH2 0x2696 JUMP JUMPDEST PUSH1 0x1 SWAP2 POP POP PUSH2 0x26F5 JUMP JUMPDEST PUSH1 0xFF DUP5 GT ISZERO PUSH2 0x2679 JUMPI PUSH2 0x2678 PUSH2 0x29F7 JUMP JUMPDEST JUMPDEST DUP4 PUSH1 0x2 EXP SWAP2 POP DUP5 DUP3 GT ISZERO PUSH2 0x2690 JUMPI PUSH2 0x268F PUSH2 0x29F7 JUMP JUMPDEST JUMPDEST POP PUSH2 0x26F5 JUMP JUMPDEST POP PUSH1 0x20 DUP4 LT PUSH2 0x133 DUP4 LT AND PUSH1 0x4E DUP5 LT PUSH1 0xB DUP5 LT AND OR ISZERO PUSH2 0x26CB JUMPI DUP3 DUP3 EXP SWAP1 POP DUP4 DUP2 GT ISZERO PUSH2 0x26C6 JUMPI PUSH2 0x26C5 PUSH2 0x29F7 JUMP JUMPDEST JUMPDEST PUSH2 0x26F5 JUMP JUMPDEST PUSH2 0x26D8 DUP5 DUP5 DUP5 PUSH1 0x1 PUSH2 0x258B JUMP JUMPDEST SWAP3 POP SWAP1 POP DUP2 DUP5 DIV DUP2 GT ISZERO PUSH2 0x26EF JUMPI PUSH2 0x26EE PUSH2 0x29F7 JUMP JUMPDEST JUMPDEST DUP2 DUP2 MUL SWAP1 POP JUMPDEST SWAP4 SWAP3 POP POP POP JUMP JUMPDEST PUSH1 0x0 PUSH2 0x2707 DUP3 PUSH2 0x289C JUMP JUMPDEST SWAP2 POP PUSH2 0x2712 DUP4 PUSH2 0x289C JUMP JUMPDEST SWAP3 POP DUP2 PUSH32 0xFFFFFFFFFFFFFFFFFFFFFFFFFFFFFFFFFFFFFFFFFFFFFFFFFFFFFFFFFFFFFFFF DIV DUP4 GT DUP3 ISZERO ISZERO AND ISZERO PUSH2 0x274B JUMPI PUSH2 0x274A PUSH2 0x29F7 JUMP JUMPDEST JUMPDEST DUP3 DUP3 MUL SWAP1 POP SWAP3 SWAP2 POP POP JUMP JUMPDEST PUSH1 0x0 PUSH2 0x2761 DUP3 PUSH2 0x2872 JUMP JUMPDEST SWAP2 POP PUSH2 0x276C DUP4 PUSH2 0x2872 JUMP JUMPDEST SWAP3 POP DUP3 PUSH32 0x8000000000000000000000000000000000000000000000000000000000000000 ADD DUP3 SLT PUSH1 0x0 DUP5 SLT ISZERO AND ISZERO PUSH2 0x27A7 JUMPI PUSH2 0x27A6 PUSH2 0x29F7 JUMP JUMPDEST JUMPDEST DUP3 PUSH32 0x7FFFFFFFFFFFFFFFFFFFFFFFFFFFFFFFFFFFFFFFFFFFFFFFFFFFFFFFFFFFFFFF ADD DUP3 SGT PUSH1 0x0 DUP5 SLT AND ISZERO PUSH2 0x27DF JUMPI PUSH2 0x27DE PUSH2 0x29F7 JUMP JUMPDEST JUMPDEST DUP3 DUP3 SUB SWAP1 POP SWAP3 SWAP2 POP POP JUMP JUMPDEST PUSH1 0x0 PUSH2 0x27F5 DUP3 PUSH2 0x289C JUMP JUMPDEST SWAP2 POP PUSH2 0x2800 DUP4 PUSH2 0x289C JUMP JUMPDEST SWAP3 POP DUP3 DUP3 LT ISZERO PUSH2 0x2813 JUMPI PUSH2 0x2812 PUSH2 0x29F7 JUMP JUMPDEST JUMPDEST DUP3 DUP3 SUB SWAP1 POP SWAP3 SWAP2 POP POP JUMP JUMPDEST PUSH1 0x0 PUSH2 0x2829 DUP3 PUSH2 0x287C JUMP JUMPDEST SWAP1 POP SWAP2 SWAP1 POP JUMP JUMPDEST PUSH1 0x0 DUP2 ISZERO ISZERO SWAP1 POP SWAP2 SWAP1 POP JUMP JUMPDEST PUSH1 0x0 DUP2 SWAP1 POP SWAP2 SWAP1 POP JUMP JUMPDEST PUSH1 0x0 PUSH32 0xFFFFFFFF00000000000000000000000000000000000000000000000000000000 DUP3 AND SWAP1 POP SWAP2 SWAP1 POP JUMP JUMPDEST PUSH1 0x0 DUP2 SWAP1 POP SWAP2 SWAP1 POP JUMP JUMPDEST PUSH1 0x0 PUSH20 0xFFFFFFFFFFFFFFFFFFFFFFFFFFFFFFFFFFFFFFFF DUP3 AND SWAP1 POP SWAP2 SWAP1 POP JUMP JUMPDEST PUSH1 0x0 DUP2 SWAP1 POP SWAP2 SWAP1 POP JUMP JUMPDEST PUSH1 0x0 PUSH2 0x28B1 DUP3 PUSH2 0x28B8 JUMP JUMPDEST SWAP1 POP SWAP2 SWAP1 POP JUMP JUMPDEST PUSH1 0x0 PUSH2 0x28C3 DUP3 PUSH2 0x28CA JUMP JUMPDEST SWAP1 POP SWAP2 SWAP1 POP JUMP JUMPDEST PUSH1 0x0 PUSH2 0x28D5 DUP3 PUSH2 0x287C JUMP JUMPDEST SWAP1 POP SWAP2 SWAP1 POP JUMP JUMPDEST DUP3 DUP2 DUP4 CALLDATACOPY PUSH1 0x0 DUP4 DUP4 ADD MSTORE POP POP POP JUMP JUMPDEST PUSH1 0x0 JUMPDEST DUP4 DUP2 LT ISZERO PUSH2 0x2909 JUMPI DUP1 DUP3 ADD MLOAD DUP2 DUP5 ADD MSTORE PUSH1 0x20 DUP2 ADD SWAP1 POP PUSH2 0x28EE JUMP JUMPDEST DUP4 DUP2 GT ISZERO PUSH2 0x2918 JUMPI PUSH1 0x0 DUP5 DUP5 ADD MSTORE JUMPDEST POP POP POP POP JUMP JUMPDEST PUSH2 0x2927 DUP3 PUSH2 0x2AC7 JUMP JUMPDEST DUP2 ADD DUP2 DUP2 LT PUSH8 0xFFFFFFFFFFFFFFFF DUP3 GT OR ISZERO PUSH2 0x2946 JUMPI PUSH2 0x2945 PUSH2 0x2A84 JUMP JUMPDEST JUMPDEST DUP1 PUSH1 0x40 MSTORE POP POP POP JUMP JUMPDEST PUSH1 0x0 PUSH2 0x295A DUP3 PUSH2 0x289C JUMP JUMPDEST SWAP2 POP PUSH32 0xFFFFFFFFFFFFFFFFFFFFFFFFFFFFFFFFFFFFFFFFFFFFFFFFFFFFFFFFFFFFFFFF DUP3 EQ ISZERO PUSH2 0x298D JUMPI PUSH2 0x298C PUSH2 0x29F7 JUMP JUMPDEST JUMPDEST PUSH1 0x1 DUP3 ADD SWAP1 POP SWAP2 SWAP1 POP JUMP JUMPDEST PUSH1 0x0 PUSH2 0x29A3 DUP3 PUSH2 0x29AA JUMP JUMPDEST SWAP1 POP SWAP2 SWAP1 POP JUMP JUMPDEST PUSH1 0x0 PUSH2 0x29B5 DUP3 PUSH2 0x2AD8 JUMP JUMPDEST SWAP1 POP SWAP2 SWAP1 POP JUMP JUMPDEST PUSH1 0x0 DUP2 SWAP1 POP SWAP2 SWAP1 POP JUMP JUMPDEST PUSH1 0x0 PUSH2 0x29D1 DUP3 PUSH2 0x289C JUMP JUMPDEST SWAP2 POP PUSH2 0x29DC DUP4 PUSH2 0x289C JUMP JUMPDEST SWAP3 POP DUP3 PUSH2 0x29EC JUMPI PUSH2 0x29EB PUSH2 0x2A26 JUMP JUMPDEST JUMPDEST DUP3 DUP3 MOD SWAP1 POP SWAP3 SWAP2 POP POP JUMP JUMPDEST PUSH32 0x4E487B7100000000000000000000000000000000000000000000000000000000 PUSH1 0x0 MSTORE PUSH1 0x11 PUSH1 0x4 MSTORE PUSH1 0x24 PUSH1 0x0 REVERT JUMPDEST PUSH32 0x4E487B7100000000000000000000000000000000000000000000000000000000 PUSH1 0x0 MSTORE PUSH1 0x12 PUSH1 0x4 MSTORE PUSH1 0x24 PUSH1 0x0 REVERT JUMPDEST PUSH32 0x4E487B7100000000000000000000000000000000000000000000000000000000 PUSH1 0x0 MSTORE PUSH1 0x32 PUSH1 0x4 MSTORE PUSH1 0x24 PUSH1 0x0 REVERT JUMPDEST PUSH32 0x4E487B7100000000000000000000000000000000000000000000000000000000 PUSH1 0x0 MSTORE PUSH1 0x41 PUSH1 0x4 MSTORE PUSH1 0x24 PUSH1 0x0 REVERT JUMPDEST PUSH1 0x0 DUP1 REVERT JUMPDEST PUSH1 0x0 DUP1 REVERT JUMPDEST PUSH1 0x0 DUP1 REVERT JUMPDEST PUSH1 0x0 DUP1 REVERT JUMPDEST PUSH1 0x0 PUSH1 0x1F NOT PUSH1 0x1F DUP4 ADD AND SWAP1 POP SWAP2 SWAP1 POP JUMP JUMPDEST PUSH1 0x0 DUP2 PUSH1 0x60 SHL SWAP1 POP SWAP2 SWAP1 POP JUMP JUMPDEST PUSH1 0x0 DUP2 PUSH1 0x1 SHR SWAP1 POP SWAP2 SWAP1 POP JUMP JUMPDEST PUSH32 0x4D7573742062652070726F706F736564206F776E657200000000000000000000 PUSH1 0x0 DUP3 ADD MSTORE POP JUMP JUMPDEST PUSH32 0x756E61626C6520746F207472616E73666572416E6443616C6C20746F206F7261 PUSH1 0x0 DUP3 ADD MSTORE PUSH32 0x636C650000000000000000000000000000000000000000000000000000000000 PUSH1 0x20 DUP3 ADD MSTORE POP JUMP JUMPDEST PUSH32 0x4F6E6C792063616C6C61626C65206279206F776E657200000000000000000000 PUSH1 0x0 DUP3 ADD MSTORE POP JUMP JUMPDEST PUSH32 0x556E61626C6520746F207472616E736665720000000000000000000000000000 PUSH1 0x0 DUP3 ADD MSTORE POP JUMP JUMPDEST PUSH32 0x43616E6E6F74207472616E7366657220746F2073656C66000000000000000000 PUSH1 0x0 DUP3 ADD MSTORE POP JUMP JUMPDEST PUSH32 0x536F75726365206D75737420626520746865206F7261636C65206F6620746865 PUSH1 0x0 DUP3 ADD MSTORE PUSH32 0x2072657175657374000000000000000000000000000000000000000000000000 PUSH1 0x20 DUP3 ADD MSTORE POP JUMP JUMPDEST PUSH2 0x2C3D DUP2 PUSH2 0x281E JUMP JUMPDEST DUP2 EQ PUSH2 0x2C48 JUMPI PUSH1 0x0 DUP1 REVERT JUMPDEST POP JUMP JUMPDEST PUSH2 0x2C54 DUP2 PUSH2 0x2830 JUMP JUMPDEST DUP2 EQ PUSH2 0x2C5F JUMPI PUSH1 0x0 DUP1 REVERT JUMPDEST POP JUMP JUMPDEST PUSH2 0x2C6B DUP2 PUSH2 0x283C JUMP JUMPDEST DUP2 EQ PUSH2 0x2C76 JUMPI PUSH1 0x0 DUP1 REVERT JUMPDEST POP JUMP JUMPDEST PUSH2 0x2C82 DUP2 PUSH2 0x2846 JUMP JUMPDEST DUP2 EQ PUSH2 0x2C8D JUMPI PUSH1 0x0 DUP1 REVERT JUMPDEST POP JUMP JUMPDEST PUSH2 0x2C99 DUP2 PUSH2 0x2872 JUMP JUMPDEST DUP2 EQ PUSH2 0x2CA4 JUMPI PUSH1 0x0 DUP1 REVERT JUMPDEST POP JUMP JUMPDEST PUSH2 0x2CB0 DUP2 PUSH2 0x289C JUMP JUMPDEST DUP2 EQ PUSH2 0x2CBB JUMPI PUSH1 0x0 DUP1 REVERT JUMPDEST POP JUMP INVALID PUSH9 0x747470733A2F2F6D69 PUSH15 0x2D6170692E63727970746F636F6D70 PUSH2 0x7265 0x2E PUSH4 0x6F6D2F64 PUSH2 0x7461 0x2F PUSH17 0x726963653F6673796D3D45544826747379 PUSH14 0x733D55534468747470733A2F2F6D PUSH10 0x6E2D6170692E63727970 PUSH21 0x6F636F6D706172652E636F6D2F646174612F707269 PUSH4 0x656D756C PUSH21 0x6966756C6C3F6673796D733D455448267473796D73 RETURNDATASIZE SSTORE MSTORE8 DIFFICULTY LOG2 PUSH5 0x6970667358 0x22 SLT KECCAK256 SSTORE PUSH19 0xF7CDBD964C9081584F021E62D05327B341CA1F 0xE9 DUP4 PUSH30 0xBBF31BB97691CDB764736F6C634300080700330000000000000000000000 "
				},
				"gasEstimates": {
					"creation": {
						"codeDepositCost": "2328800",
						"executionCost": "infinite",
						"totalCost": "infinite"
					},
					"external": {
						"acceptOwnership()": "54585",
						"cancelRequest(bytes32,uint256,bytes4,uint256)": "infinite",
						"changeDay()": "2475",
						"currentPrice()": "2474",
						"fulfillEthereumChange(bytes32,int256)": "52021",
						"fulfillEthereumLastMarket(bytes32,bytes32)": "infinite",
						"fulfillEthereumPrice(bytes32,uint256)": "51977",
						"getChainlinkToken()": "2581",
						"lastMarket()": "2451",
						"owner()": "2589",
						"requestEthereumChange(address,string)": "infinite",
						"requestEthereumLastMarket(address,string)": "infinite",
						"requestEthereumPrice(address,string)": "infinite",
						"transferOwnership(address)": "30729",
						"withdrawLink()": "infinite"
					},
					"internal": {
						"stringToBytes32(string memory)": "infinite"
					}
				},
				"methodIdentifiers": {
					"acceptOwnership()": "79ba5097",
					"cancelRequest(bytes32,uint256,bytes4,uint256)": "ec65d0f8",
					"changeDay()": "2183abd1",
					"currentPrice()": "9d1b464a",
					"fulfillEthereumChange(bytes32,int256)": "a46fbe1a",
					"fulfillEthereumLastMarket(bytes32,bytes32)": "49556aff",
					"fulfillEthereumPrice(bytes32,uint256)": "92cdaaf3",
					"getChainlinkToken()": "165d35e1",
					"lastMarket()": "e9edbf03",
					"owner()": "8da5cb5b",
					"requestEthereumChange(address,string)": "619cba1a",
					"requestEthereumLastMarket(address,string)": "f3bdf8ba",
					"requestEthereumPrice(address,string)": "ab643c10",
					"transferOwnership(address)": "f2fde38b",
					"withdrawLink()": "8dc654a2"
				}
			},
			"storageLayout": {
				"storage": [
					{
						"astId": 319,
						"contract": "docs.chain.link/samples/APIRequests/AEthereumConsumer.sol:ATestnetConsumer",
						"label": "s_ens",
						"offset": 0,
						"slot": "0",
						"type": "t_contract(ENSInterface)1156"
					},
					{
						"astId": 321,
						"contract": "docs.chain.link/samples/APIRequests/AEthereumConsumer.sol:ATestnetConsumer",
						"label": "s_ensNode",
						"offset": 0,
						"slot": "1",
						"type": "t_bytes32"
					},
					{
						"astId": 324,
						"contract": "docs.chain.link/samples/APIRequests/AEthereumConsumer.sol:ATestnetConsumer",
						"label": "s_link",
						"offset": 0,
						"slot": "2",
						"type": "t_contract(LinkTokenInterface)1251"
					},
					{
						"astId": 327,
						"contract": "docs.chain.link/samples/APIRequests/AEthereumConsumer.sol:ATestnetConsumer",
						"label": "s_oracle",
						"offset": 0,
						"slot": "3",
						"type": "t_contract(OperatorInterface)1331"
					},
					{
						"astId": 330,
						"contract": "docs.chain.link/samples/APIRequests/AEthereumConsumer.sol:ATestnetConsumer",
						"label": "s_requestCount",
						"offset": 0,
						"slot": "4",
						"type": "t_uint256"
					},
					{
						"astId": 334,
						"contract": "docs.chain.link/samples/APIRequests/AEthereumConsumer.sol:ATestnetConsumer",
						"label": "s_pendingRequests",
						"offset": 0,
						"slot": "5",
						"type": "t_mapping(t_bytes32,t_address)"
					},
					{
						"astId": 889,
						"contract": "docs.chain.link/samples/APIRequests/AEthereumConsumer.sol:ATestnetConsumer",
						"label": "s_owner",
						"offset": 0,
						"slot": "6",
						"type": "t_address"
					},
					{
						"astId": 891,
						"contract": "docs.chain.link/samples/APIRequests/AEthereumConsumer.sol:ATestnetConsumer",
						"label": "s_pendingOwner",
						"offset": 0,
						"slot": "7",
						"type": "t_address"
					},
					{
						"astId": 2393,
						"contract": "docs.chain.link/samples/APIRequests/AEthereumConsumer.sol:ATestnetConsumer",
						"label": "currentPrice",
						"offset": 0,
						"slot": "8",
						"type": "t_uint256"
					},
					{
						"astId": 2395,
						"contract": "docs.chain.link/samples/APIRequests/AEthereumConsumer.sol:ATestnetConsumer",
						"label": "changeDay",
						"offset": 0,
						"slot": "9",
						"type": "t_int256"
					},
					{
						"astId": 2397,
						"contract": "docs.chain.link/samples/APIRequests/AEthereumConsumer.sol:ATestnetConsumer",
						"label": "lastMarket",
						"offset": 0,
						"slot": "10",
						"type": "t_bytes32"
					}
				],
				"types": {
					"t_address": {
						"encoding": "inplace",
						"label": "address",
						"numberOfBytes": "20"
					},
					"t_bytes32": {
						"encoding": "inplace",
						"label": "bytes32",
						"numberOfBytes": "32"
					},
					"t_contract(ENSInterface)1156": {
						"encoding": "inplace",
						"label": "contract ENSInterface",
						"numberOfBytes": "20"
					},
					"t_contract(LinkTokenInterface)1251": {
						"encoding": "inplace",
						"label": "contract LinkTokenInterface",
						"numberOfBytes": "20"
					},
					"t_contract(OperatorInterface)1331": {
						"encoding": "inplace",
						"label": "contract OperatorInterface",
						"numberOfBytes": "20"
					},
					"t_int256": {
						"encoding": "inplace",
						"label": "int256",
						"numberOfBytes": "32"
					},
					"t_mapping(t_bytes32,t_address)": {
						"encoding": "mapping",
						"key": "t_bytes32",
						"label": "mapping(bytes32 => address)",
						"numberOfBytes": "32",
						"value": "t_address"
					},
					"t_uint256": {
						"encoding": "inplace",
						"label": "uint256",
						"numberOfBytes": "32"
					}
				}
			},
			"userdoc": {
				"kind": "user",
				"methods": {
					"acceptOwnership()": {
						"notice": "Allows an ownership transfer to be completed by the recipient."
					},
					"constructor": {
						"notice": "Goerli"
					},
					"owner()": {
						"notice": "Get the current owner"
					},
					"transferOwnership(address)": {
						"notice": "Allows an owner to begin transferring ownership to a new address, pending."
					}
				},
				"notice": "THIS IS AN EXAMPLE CONTRACT THAT USES UN-AUDITED CODE. DO NOT USE THIS CODE IN PRODUCTION.",
				"version": 1
			}
		}
	}
}