{
	"docs.chain.link/samples/APIRequests/ASojaPriceConsumer.sol": {
		"ASojaPriceConsumer": {
			"abi": [
				{
					"inputs": [],
					"stateMutability": "nonpayable",
					"type": "constructor"
				},
				{
					"anonymous": false,
					"inputs": [
						{
							"indexed": true,
							"internalType": "bytes32",
							"name": "id",
							"type": "bytes32"
						}
					],
					"name": "ChainlinkCancelled",
					"type": "event"
				},
				{
					"anonymous": false,
					"inputs": [
						{
							"indexed": true,
							"internalType": "bytes32",
							"name": "id",
							"type": "bytes32"
						}
					],
					"name": "ChainlinkFulfilled",
					"type": "event"
				},
				{
					"anonymous": false,
					"inputs": [
						{
							"indexed": true,
							"internalType": "bytes32",
							"name": "id",
							"type": "bytes32"
						}
					],
					"name": "ChainlinkRequested",
					"type": "event"
				},
				{
					"anonymous": false,
					"inputs": [
						{
							"indexed": true,
							"internalType": "address",
							"name": "from",
							"type": "address"
						},
						{
							"indexed": true,
							"internalType": "address",
							"name": "to",
							"type": "address"
						}
					],
					"name": "OwnershipTransferRequested",
					"type": "event"
				},
				{
					"anonymous": false,
					"inputs": [
						{
							"indexed": true,
							"internalType": "address",
							"name": "from",
							"type": "address"
						},
						{
							"indexed": true,
							"internalType": "address",
							"name": "to",
							"type": "address"
						}
					],
					"name": "OwnershipTransferred",
					"type": "event"
				},
				{
					"anonymous": false,
					"inputs": [
						{
							"indexed": true,
							"internalType": "bytes32",
							"name": "requestId",
							"type": "bytes32"
						},
						{
							"indexed": true,
							"internalType": "uint256",
							"name": "price",
							"type": "uint256"
						}
					],
					"name": "RequestSOJAPriceFulfilled",
					"type": "event"
				},
				{
					"inputs": [],
					"name": "acceptOwnership",
					"outputs": [],
					"stateMutability": "nonpayable",
					"type": "function"
				},
				{
					"inputs": [
						{
							"internalType": "bytes32",
							"name": "_requestId",
							"type": "bytes32"
						},
						{
							"internalType": "uint256",
							"name": "_payment",
							"type": "uint256"
						},
						{
							"internalType": "bytes4",
							"name": "_callbackFunctionId",
							"type": "bytes4"
						},
						{
							"internalType": "uint256",
							"name": "_expiration",
							"type": "uint256"
						}
					],
					"name": "cancelRequest",
					"outputs": [],
					"stateMutability": "nonpayable",
					"type": "function"
				},
				{
					"inputs": [],
					"name": "changeDay",
					"outputs": [
						{
							"internalType": "int256",
							"name": "",
							"type": "int256"
						}
					],
					"stateMutability": "view",
					"type": "function"
				},
				{
					"inputs": [],
					"name": "currentPrice",
					"outputs": [
						{
							"internalType": "uint256",
							"name": "",
							"type": "uint256"
						}
					],
					"stateMutability": "view",
					"type": "function"
				},
				{
					"inputs": [
						{
							"internalType": "bytes32",
							"name": "_requestId",
							"type": "bytes32"
						},
						{
							"internalType": "uint256",
							"name": "_price",
							"type": "uint256"
						}
					],
					"name": "fulfillSOJAPrice",
					"outputs": [],
					"stateMutability": "nonpayable",
					"type": "function"
				},
				{
					"inputs": [],
					"name": "getChainlinkToken",
					"outputs": [
						{
							"internalType": "address",
							"name": "",
							"type": "address"
						}
					],
					"stateMutability": "view",
					"type": "function"
				},
				{
					"inputs": [],
					"name": "lastMarket",
					"outputs": [
						{
							"internalType": "bytes32",
							"name": "",
							"type": "bytes32"
						}
					],
					"stateMutability": "view",
					"type": "function"
				},
				{
					"inputs": [],
					"name": "owner",
					"outputs": [
						{
							"internalType": "address",
							"name": "",
							"type": "address"
						}
					],
					"stateMutability": "view",
					"type": "function"
				},
				{
					"inputs": [
						{
							"internalType": "address",
							"name": "_oracle",
							"type": "address"
						},
						{
							"internalType": "string",
							"name": "_jobId",
							"type": "string"
						}
					],
					"name": "requestSOJAPrice",
					"outputs": [],
					"stateMutability": "nonpayable",
					"type": "function"
				},
				{
					"inputs": [
						{
							"internalType": "address",
							"name": "to",
							"type": "address"
						}
					],
					"name": "transferOwnership",
					"outputs": [],
					"stateMutability": "nonpayable",
					"type": "function"
				},
				{
					"inputs": [],
					"name": "withdrawLink",
					"outputs": [],
					"stateMutability": "nonpayable",
					"type": "function"
				}
			],
			"devdoc": {
				"kind": "dev",
				"methods": {},
				"version": 1
			},
			"evm": {
				"assembly": "    /* \"docs.chain.link/samples/APIRequests/ASojaPriceConsumer.sol\":183:2656  contract ASojaPriceConsumer is ChainlinkClient, ConfirmedOwner {\r... */\n  mstore(0x40, 0x80)\n    /* \"@chainlink/contracts/src/v0.8/ChainlinkClient.sol\":1291:1292  1 */\n  0x01\n    /* \"@chainlink/contracts/src/v0.8/ChainlinkClient.sol\":1258:1292  uint256 private s_requestCount = 1 */\n  0x04\n  sstore\n    /* \"docs.chain.link/samples/APIRequests/ASojaPriceConsumer.sol\":605:726  constructor() ConfirmedOwner(msg.sender) {\r... */\n  callvalue\n  dup1\n  iszero\n  tag_1\n  jumpi\n  0x00\n  dup1\n  revert\ntag_1:\n  pop\n    /* \"docs.chain.link/samples/APIRequests/ASojaPriceConsumer.sol\":634:644  msg.sender */\n  caller\n    /* \"@chainlink/contracts/src/v0.8/ConfirmedOwner.sol\":327:335  newOwner */\n  dup1\n    /* \"@chainlink/contracts/src/v0.8/ConfirmedOwner.sol\":345:346  0 */\n  0x00\n    /* \"@chainlink/contracts/src/v0.8/ConfirmedOwnerWithProposal.sol\":572:573  0 */\n  dup1\n    /* \"@chainlink/contracts/src/v0.8/ConfirmedOwnerWithProposal.sol\":552:574  newOwner != address(0) */\n  0xffffffffffffffffffffffffffffffffffffffff\n  and\n    /* \"@chainlink/contracts/src/v0.8/ConfirmedOwnerWithProposal.sol\":552:560  newOwner */\n  dup3\n    /* \"@chainlink/contracts/src/v0.8/ConfirmedOwnerWithProposal.sol\":552:574  newOwner != address(0) */\n  0xffffffffffffffffffffffffffffffffffffffff\n  and\n  eq\n  iszero\n    /* \"@chainlink/contracts/src/v0.8/ConfirmedOwnerWithProposal.sol\":544:603  require(newOwner != address(0), \"Cannot set owner to zero\") */\n  tag_6\n  jumpi\n  mload(0x40)\n  0x08c379a000000000000000000000000000000000000000000000000000000000\n  dup2\n  mstore\n  0x04\n  add\n  tag_7\n  swap1\n  tag_8\n  jump\t// in\ntag_7:\n  mload(0x40)\n  dup1\n  swap2\n  sub\n  swap1\n  revert\ntag_6:\n    /* \"@chainlink/contracts/src/v0.8/ConfirmedOwnerWithProposal.sol\":620:628  newOwner */\n  dup2\n    /* \"@chainlink/contracts/src/v0.8/ConfirmedOwnerWithProposal.sol\":610:617  s_owner */\n  0x06\n  0x00\n    /* \"@chainlink/contracts/src/v0.8/ConfirmedOwnerWithProposal.sol\":610:628  s_owner = newOwner */\n  0x0100\n  exp\n  dup2\n  sload\n  dup2\n  0xffffffffffffffffffffffffffffffffffffffff\n  mul\n  not\n  and\n  swap1\n  dup4\n  0xffffffffffffffffffffffffffffffffffffffff\n  and\n  mul\n  or\n  swap1\n  sstore\n  pop\n    /* \"@chainlink/contracts/src/v0.8/ConfirmedOwnerWithProposal.sol\":662:663  0 */\n  0x00\n    /* \"@chainlink/contracts/src/v0.8/ConfirmedOwnerWithProposal.sol\":638:664  pendingOwner != address(0) */\n  0xffffffffffffffffffffffffffffffffffffffff\n  and\n    /* \"@chainlink/contracts/src/v0.8/ConfirmedOwnerWithProposal.sol\":638:650  pendingOwner */\n  dup2\n    /* \"@chainlink/contracts/src/v0.8/ConfirmedOwnerWithProposal.sol\":638:664  pendingOwner != address(0) */\n  0xffffffffffffffffffffffffffffffffffffffff\n  and\n  eq\n    /* \"@chainlink/contracts/src/v0.8/ConfirmedOwnerWithProposal.sol\":634:713  if (pendingOwner != address(0)) {... */\n  tag_9\n  jumpi\n    /* \"@chainlink/contracts/src/v0.8/ConfirmedOwnerWithProposal.sol\":674:706  _transferOwnership(pendingOwner) */\n  tag_10\n    /* \"@chainlink/contracts/src/v0.8/ConfirmedOwnerWithProposal.sol\":693:705  pendingOwner */\n  dup2\n    /* \"@chainlink/contracts/src/v0.8/ConfirmedOwnerWithProposal.sol\":674:692  _transferOwnership */\n  shl(0x20, tag_11)\n    /* \"@chainlink/contracts/src/v0.8/ConfirmedOwnerWithProposal.sol\":674:706  _transferOwnership(pendingOwner) */\n  0x20\n  shr\n  jump\t// in\ntag_10:\n    /* \"@chainlink/contracts/src/v0.8/ConfirmedOwnerWithProposal.sol\":634:713  if (pendingOwner != address(0)) {... */\ntag_9:\n    /* \"@chainlink/contracts/src/v0.8/ConfirmedOwnerWithProposal.sol\":486:717  constructor(address newOwner, address pendingOwner) {... */\n  pop\n  pop\n    /* \"@chainlink/contracts/src/v0.8/ConfirmedOwner.sol\":270:351  constructor(address newOwner) ConfirmedOwnerWithProposal(newOwner, address(0)) {} */\n  pop\n    /* \"docs.chain.link/samples/APIRequests/ASojaPriceConsumer.sol\":657:718  setChainlinkToken(0x326C977E6efc84E512bB9C30f76E30c160eD06FB) */\n  tag_14\n    /* \"docs.chain.link/samples/APIRequests/ASojaPriceConsumer.sol\":675:717  0x326C977E6efc84E512bB9C30f76E30c160eD06FB */\n  0x326c977e6efc84e512bb9c30f76e30c160ed06fb\n    /* \"docs.chain.link/samples/APIRequests/ASojaPriceConsumer.sol\":657:674  setChainlinkToken */\n  shl(0x20, tag_15)\n    /* \"docs.chain.link/samples/APIRequests/ASojaPriceConsumer.sol\":657:718  setChainlinkToken(0x326C977E6efc84E512bB9C30f76E30c160eD06FB) */\n  0x20\n  shr\n  jump\t// in\ntag_14:\n    /* \"docs.chain.link/samples/APIRequests/ASojaPriceConsumer.sol\":183:2656  contract ASojaPriceConsumer is ChainlinkClient, ConfirmedOwner {\r... */\n  jump(tag_16)\n    /* \"@chainlink/contracts/src/v0.8/ConfirmedOwnerWithProposal.sol\":1497:1685  function _transferOwnership(address to) private {... */\ntag_11:\n    /* \"@chainlink/contracts/src/v0.8/ConfirmedOwnerWithProposal.sol\":1565:1575  msg.sender */\n  caller\n    /* \"@chainlink/contracts/src/v0.8/ConfirmedOwnerWithProposal.sol\":1559:1575  to != msg.sender */\n  0xffffffffffffffffffffffffffffffffffffffff\n  and\n    /* \"@chainlink/contracts/src/v0.8/ConfirmedOwnerWithProposal.sol\":1559:1561  to */\n  dup2\n    /* \"@chainlink/contracts/src/v0.8/ConfirmedOwnerWithProposal.sol\":1559:1575  to != msg.sender */\n  0xffffffffffffffffffffffffffffffffffffffff\n  and\n  eq\n  iszero\n    /* \"@chainlink/contracts/src/v0.8/ConfirmedOwnerWithProposal.sol\":1551:1603  require(to != msg.sender, \"Cannot transfer to self\") */\n  tag_18\n  jumpi\n  mload(0x40)\n  0x08c379a000000000000000000000000000000000000000000000000000000000\n  dup2\n  mstore\n  0x04\n  add\n  tag_19\n  swap1\n  tag_20\n  jump\t// in\ntag_19:\n  mload(0x40)\n  dup1\n  swap2\n  sub\n  swap1\n  revert\ntag_18:\n    /* \"@chainlink/contracts/src/v0.8/ConfirmedOwnerWithProposal.sol\":1627:1629  to */\n  dup1\n    /* \"@chainlink/contracts/src/v0.8/ConfirmedOwnerWithProposal.sol\":1610:1624  s_pendingOwner */\n  0x07\n  0x00\n    /* \"@chainlink/contracts/src/v0.8/ConfirmedOwnerWithProposal.sol\":1610:1629  s_pendingOwner = to */\n  0x0100\n  exp\n  dup2\n  sload\n  dup2\n  0xffffffffffffffffffffffffffffffffffffffff\n  mul\n  not\n  and\n  swap1\n  dup4\n  0xffffffffffffffffffffffffffffffffffffffff\n  and\n  mul\n  or\n  swap1\n  sstore\n  pop\n    /* \"@chainlink/contracts/src/v0.8/ConfirmedOwnerWithProposal.sol\":1677:1679  to */\n  dup1\n    /* \"@chainlink/contracts/src/v0.8/ConfirmedOwnerWithProposal.sol\":1641:1680  OwnershipTransferRequested(s_owner, to) */\n  0xffffffffffffffffffffffffffffffffffffffff\n  and\n    /* \"@chainlink/contracts/src/v0.8/ConfirmedOwnerWithProposal.sol\":1668:1675  s_owner */\n  0x06\n  0x00\n  swap1\n  sload\n  swap1\n  0x0100\n  exp\n  swap1\n  div\n  0xffffffffffffffffffffffffffffffffffffffff\n  and\n    /* \"@chainlink/contracts/src/v0.8/ConfirmedOwnerWithProposal.sol\":1641:1680  OwnershipTransferRequested(s_owner, to) */\n  0xffffffffffffffffffffffffffffffffffffffff\n  and\n  0xed8889f560326eb138920d842192f0eb3dd22b4f139c87a2c57538e05bae1278\n  mload(0x40)\n  mload(0x40)\n  dup1\n  swap2\n  sub\n  swap1\n  log3\n    /* \"@chainlink/contracts/src/v0.8/ConfirmedOwnerWithProposal.sol\":1497:1685  function _transferOwnership(address to) private {... */\n  pop\n  jump\t// out\n    /* \"@chainlink/contracts/src/v0.8/ChainlinkClient.sol\":8625:8733  function setChainlinkToken(address linkAddress) internal {... */\ntag_15:\n    /* \"@chainlink/contracts/src/v0.8/ChainlinkClient.sol\":8716:8727  linkAddress */\n  dup1\n    /* \"@chainlink/contracts/src/v0.8/ChainlinkClient.sol\":8688:8694  s_link */\n  0x02\n  0x00\n    /* \"@chainlink/contracts/src/v0.8/ChainlinkClient.sol\":8688:8728  s_link = LinkTokenInterface(linkAddress) */\n  0x0100\n  exp\n  dup2\n  sload\n  dup2\n  0xffffffffffffffffffffffffffffffffffffffff\n  mul\n  not\n  and\n  swap1\n  dup4\n  0xffffffffffffffffffffffffffffffffffffffff\n  and\n  mul\n  or\n  swap1\n  sstore\n  pop\n    /* \"@chainlink/contracts/src/v0.8/ChainlinkClient.sol\":8625:8733  function setChainlinkToken(address linkAddress) internal {... */\n  pop\n  jump\t// out\n    /* \"#utility.yul\":7:373   */\ntag_23:\n    /* \"#utility.yul\":149:152   */\n  0x00\n    /* \"#utility.yul\":170:237   */\n  tag_25\n    /* \"#utility.yul\":234:236   */\n  0x18\n    /* \"#utility.yul\":229:232   */\n  dup4\n    /* \"#utility.yul\":170:237   */\n  tag_26\n  jump\t// in\ntag_25:\n    /* \"#utility.yul\":163:237   */\n  swap2\n  pop\n    /* \"#utility.yul\":246:339   */\n  tag_27\n    /* \"#utility.yul\":335:338   */\n  dup3\n    /* \"#utility.yul\":246:339   */\n  tag_28\n  jump\t// in\ntag_27:\n    /* \"#utility.yul\":364:366   */\n  0x20\n    /* \"#utility.yul\":359:362   */\n  dup3\n    /* \"#utility.yul\":355:367   */\n  add\n    /* \"#utility.yul\":348:367   */\n  swap1\n  pop\n    /* \"#utility.yul\":7:373   */\n  swap2\n  swap1\n  pop\n  jump\t// out\n    /* \"#utility.yul\":379:745   */\ntag_29:\n    /* \"#utility.yul\":521:524   */\n  0x00\n    /* \"#utility.yul\":542:609   */\n  tag_31\n    /* \"#utility.yul\":606:608   */\n  0x17\n    /* \"#utility.yul\":601:604   */\n  dup4\n    /* \"#utility.yul\":542:609   */\n  tag_26\n  jump\t// in\ntag_31:\n    /* \"#utility.yul\":535:609   */\n  swap2\n  pop\n    /* \"#utility.yul\":618:711   */\n  tag_32\n    /* \"#utility.yul\":707:710   */\n  dup3\n    /* \"#utility.yul\":618:711   */\n  tag_33\n  jump\t// in\ntag_32:\n    /* \"#utility.yul\":736:738   */\n  0x20\n    /* \"#utility.yul\":731:734   */\n  dup3\n    /* \"#utility.yul\":727:739   */\n  add\n    /* \"#utility.yul\":720:739   */\n  swap1\n  pop\n    /* \"#utility.yul\":379:745   */\n  swap2\n  swap1\n  pop\n  jump\t// out\n    /* \"#utility.yul\":751:1170   */\ntag_8:\n    /* \"#utility.yul\":917:921   */\n  0x00\n    /* \"#utility.yul\":955:957   */\n  0x20\n    /* \"#utility.yul\":944:953   */\n  dup3\n    /* \"#utility.yul\":940:958   */\n  add\n    /* \"#utility.yul\":932:958   */\n  swap1\n  pop\n    /* \"#utility.yul\":1004:1013   */\n  dup2\n    /* \"#utility.yul\":998:1002   */\n  dup2\n    /* \"#utility.yul\":994:1014   */\n  sub\n    /* \"#utility.yul\":990:991   */\n  0x00\n    /* \"#utility.yul\":979:988   */\n  dup4\n    /* \"#utility.yul\":975:992   */\n  add\n    /* \"#utility.yul\":968:1015   */\n  mstore\n    /* \"#utility.yul\":1032:1163   */\n  tag_35\n    /* \"#utility.yul\":1158:1162   */\n  dup2\n    /* \"#utility.yul\":1032:1163   */\n  tag_23\n  jump\t// in\ntag_35:\n    /* \"#utility.yul\":1024:1163   */\n  swap1\n  pop\n    /* \"#utility.yul\":751:1170   */\n  swap2\n  swap1\n  pop\n  jump\t// out\n    /* \"#utility.yul\":1176:1595   */\ntag_20:\n    /* \"#utility.yul\":1342:1346   */\n  0x00\n    /* \"#utility.yul\":1380:1382   */\n  0x20\n    /* \"#utility.yul\":1369:1378   */\n  dup3\n    /* \"#utility.yul\":1365:1383   */\n  add\n    /* \"#utility.yul\":1357:1383   */\n  swap1\n  pop\n    /* \"#utility.yul\":1429:1438   */\n  dup2\n    /* \"#utility.yul\":1423:1427   */\n  dup2\n    /* \"#utility.yul\":1419:1439   */\n  sub\n    /* \"#utility.yul\":1415:1416   */\n  0x00\n    /* \"#utility.yul\":1404:1413   */\n  dup4\n    /* \"#utility.yul\":1400:1417   */\n  add\n    /* \"#utility.yul\":1393:1440   */\n  mstore\n    /* \"#utility.yul\":1457:1588   */\n  tag_37\n    /* \"#utility.yul\":1583:1587   */\n  dup2\n    /* \"#utility.yul\":1457:1588   */\n  tag_29\n  jump\t// in\ntag_37:\n    /* \"#utility.yul\":1449:1588   */\n  swap1\n  pop\n    /* \"#utility.yul\":1176:1595   */\n  swap2\n  swap1\n  pop\n  jump\t// out\n    /* \"#utility.yul\":1601:1770   */\ntag_26:\n    /* \"#utility.yul\":1685:1696   */\n  0x00\n    /* \"#utility.yul\":1719:1725   */\n  dup3\n    /* \"#utility.yul\":1714:1717   */\n  dup3\n    /* \"#utility.yul\":1707:1726   */\n  mstore\n    /* \"#utility.yul\":1759:1763   */\n  0x20\n    /* \"#utility.yul\":1754:1757   */\n  dup3\n    /* \"#utility.yul\":1750:1764   */\n  add\n    /* \"#utility.yul\":1735:1764   */\n  swap1\n  pop\n    /* \"#utility.yul\":1601:1770   */\n  swap3\n  swap2\n  pop\n  pop\n  jump\t// out\n    /* \"#utility.yul\":1776:1950   */\ntag_28:\n    /* \"#utility.yul\":1916:1942   */\n  0x43616e6e6f7420736574206f776e657220746f207a65726f0000000000000000\n    /* \"#utility.yul\":1912:1913   */\n  0x00\n    /* \"#utility.yul\":1904:1910   */\n  dup3\n    /* \"#utility.yul\":1900:1914   */\n  add\n    /* \"#utility.yul\":1893:1943   */\n  mstore\n    /* \"#utility.yul\":1776:1950   */\n  pop\n  jump\t// out\n    /* \"#utility.yul\":1956:2129   */\ntag_33:\n    /* \"#utility.yul\":2096:2121   */\n  0x43616e6e6f74207472616e7366657220746f2073656c66000000000000000000\n    /* \"#utility.yul\":2092:2093   */\n  0x00\n    /* \"#utility.yul\":2084:2090   */\n  dup3\n    /* \"#utility.yul\":2080:2094   */\n  add\n    /* \"#utility.yul\":2073:2122   */\n  mstore\n    /* \"#utility.yul\":1956:2129   */\n  pop\n  jump\t// out\n    /* \"docs.chain.link/samples/APIRequests/ASojaPriceConsumer.sol\":183:2656  contract ASojaPriceConsumer is ChainlinkClient, ConfirmedOwner {\r... */\ntag_16:\n  dataSize(sub_0)\n  dup1\n  dataOffset(sub_0)\n  0x00\n  codecopy\n  0x00\n  return\nstop\n\nsub_0: assembly {\n        /* \"docs.chain.link/samples/APIRequests/ASojaPriceConsumer.sol\":183:2656  contract ASojaPriceConsumer is ChainlinkClient, ConfirmedOwner {\r... */\n      mstore(0x40, 0x80)\n      callvalue\n      dup1\n      iszero\n      tag_1\n      jumpi\n      0x00\n      dup1\n      revert\n    tag_1:\n      pop\n      jumpi(tag_2, lt(calldatasize, 0x04))\n      shr(0xe0, calldataload(0x00))\n      dup1\n      0x8da5cb5b\n      gt\n      tag_14\n      jumpi\n      dup1\n      0x8da5cb5b\n      eq\n      tag_8\n      jumpi\n      dup1\n      0x8dc654a2\n      eq\n      tag_9\n      jumpi\n      dup1\n      0x9d1b464a\n      eq\n      tag_10\n      jumpi\n      dup1\n      0xe9edbf03\n      eq\n      tag_11\n      jumpi\n      dup1\n      0xec65d0f8\n      eq\n      tag_12\n      jumpi\n      dup1\n      0xf2fde38b\n      eq\n      tag_13\n      jumpi\n      jump(tag_2)\n    tag_14:\n      dup1\n      0x165d35e1\n      eq\n      tag_3\n      jumpi\n      dup1\n      0x2183abd1\n      eq\n      tag_4\n      jumpi\n      dup1\n      0x4f3b0b32\n      eq\n      tag_5\n      jumpi\n      dup1\n      0x5474c99c\n      eq\n      tag_6\n      jumpi\n      dup1\n      0x79ba5097\n      eq\n      tag_7\n      jumpi\n    tag_2:\n      0x00\n      dup1\n      revert\n        /* \"docs.chain.link/samples/APIRequests/ASojaPriceConsumer.sol\":1540:1648  function getChainlinkToken() public view returns (address) {\r... */\n    tag_3:\n      tag_15\n      tag_16\n      jump\t// in\n    tag_15:\n      mload(0x40)\n      tag_17\n      swap2\n      swap1\n      tag_18\n      jump\t// in\n    tag_17:\n      mload(0x40)\n      dup1\n      swap2\n      sub\n      swap1\n      return\n        /* \"docs.chain.link/samples/APIRequests/ASojaPriceConsumer.sol\":426:449  int256 public changeDay */\n    tag_4:\n      tag_19\n      tag_20\n      jump\t// in\n    tag_19:\n      mload(0x40)\n      tag_21\n      swap2\n      swap1\n      tag_22\n      jump\t// in\n    tag_21:\n      mload(0x40)\n      dup1\n      swap2\n      sub\n      swap1\n      return\n        /* \"docs.chain.link/samples/APIRequests/ASojaPriceConsumer.sol\":734:1290  function requestSOJAPrice(\r... */\n    tag_5:\n      tag_23\n      0x04\n      dup1\n      calldatasize\n      sub\n      dup2\n      add\n      swap1\n      tag_24\n      swap2\n      swap1\n      tag_25\n      jump\t// in\n    tag_24:\n      tag_26\n      jump\t// in\n    tag_23:\n      stop\n        /* \"docs.chain.link/samples/APIRequests/ASojaPriceConsumer.sol\":1298:1532  function fulfillSOJAPrice(\r... */\n    tag_6:\n      tag_27\n      0x04\n      dup1\n      calldatasize\n      sub\n      dup2\n      add\n      swap1\n      tag_28\n      swap2\n      swap1\n      tag_29\n      jump\t// in\n    tag_28:\n      tag_30\n      jump\t// in\n    tag_27:\n      stop\n        /* \"@chainlink/contracts/src/v0.8/ConfirmedOwnerWithProposal.sol\":1016:1281  function acceptOwnership() external override {... */\n    tag_7:\n      tag_31\n      tag_32\n      jump\t// in\n    tag_31:\n      stop\n        /* \"@chainlink/contracts/src/v0.8/ConfirmedOwnerWithProposal.sol\":1332:1413  function owner() public view override returns (address) {... */\n    tag_8:\n      tag_33\n      tag_34\n      jump\t// in\n    tag_33:\n      mload(0x40)\n      tag_35\n      swap2\n      swap1\n      tag_18\n      jump\t// in\n    tag_35:\n      mload(0x40)\n      dup1\n      swap2\n      sub\n      swap1\n      return\n        /* \"docs.chain.link/samples/APIRequests/ASojaPriceConsumer.sol\":1656:1920  function withdrawLink() public onlyOwner {\r... */\n    tag_9:\n      tag_36\n      tag_37\n      jump\t// in\n    tag_36:\n      stop\n        /* \"docs.chain.link/samples/APIRequests/ASojaPriceConsumer.sol\":392:419  uint256 public currentPrice */\n    tag_10:\n      tag_38\n      tag_39\n      jump\t// in\n    tag_38:\n      mload(0x40)\n      tag_40\n      swap2\n      swap1\n      tag_41\n      jump\t// in\n    tag_40:\n      mload(0x40)\n      dup1\n      swap2\n      sub\n      swap1\n      return\n        /* \"docs.chain.link/samples/APIRequests/ASojaPriceConsumer.sol\":456:481  bytes32 public lastMarket */\n    tag_11:\n      tag_42\n      tag_43\n      jump\t// in\n    tag_42:\n      mload(0x40)\n      tag_44\n      swap2\n      swap1\n      tag_45\n      jump\t// in\n    tag_44:\n      mload(0x40)\n      dup1\n      swap2\n      sub\n      swap1\n      return\n        /* \"docs.chain.link/samples/APIRequests/ASojaPriceConsumer.sol\":1928:2258  function cancelRequest(\r... */\n    tag_12:\n      tag_46\n      0x04\n      dup1\n      calldatasize\n      sub\n      dup2\n      add\n      swap1\n      tag_47\n      swap2\n      swap1\n      tag_48\n      jump\t// in\n    tag_47:\n      tag_49\n      jump\t// in\n    tag_46:\n      stop\n        /* \"@chainlink/contracts/src/v0.8/ConfirmedOwnerWithProposal.sol\":826:924  function transferOwnership(address to) public override onlyOwner {... */\n    tag_13:\n      tag_50\n      0x04\n      dup1\n      calldatasize\n      sub\n      dup2\n      add\n      swap1\n      tag_51\n      swap2\n      swap1\n      tag_52\n      jump\t// in\n    tag_51:\n      tag_53\n      jump\t// in\n    tag_50:\n      stop\n        /* \"docs.chain.link/samples/APIRequests/ASojaPriceConsumer.sol\":1540:1648  function getChainlinkToken() public view returns (address) {\r... */\n    tag_16:\n        /* \"docs.chain.link/samples/APIRequests/ASojaPriceConsumer.sol\":1590:1597  address */\n      0x00\n        /* \"docs.chain.link/samples/APIRequests/ASojaPriceConsumer.sol\":1617:1640  chainlinkTokenAddress() */\n      tag_55\n        /* \"docs.chain.link/samples/APIRequests/ASojaPriceConsumer.sol\":1617:1638  chainlinkTokenAddress */\n      tag_56\n        /* \"docs.chain.link/samples/APIRequests/ASojaPriceConsumer.sol\":1617:1640  chainlinkTokenAddress() */\n      jump\t// in\n    tag_55:\n        /* \"docs.chain.link/samples/APIRequests/ASojaPriceConsumer.sol\":1610:1640  return chainlinkTokenAddress() */\n      swap1\n      pop\n        /* \"docs.chain.link/samples/APIRequests/ASojaPriceConsumer.sol\":1540:1648  function getChainlinkToken() public view returns (address) {\r... */\n      swap1\n      jump\t// out\n        /* \"docs.chain.link/samples/APIRequests/ASojaPriceConsumer.sol\":426:449  int256 public changeDay */\n    tag_20:\n      sload(0x09)\n      dup2\n      jump\t// out\n        /* \"docs.chain.link/samples/APIRequests/ASojaPriceConsumer.sol\":734:1290  function requestSOJAPrice(\r... */\n    tag_26:\n        /* \"@chainlink/contracts/src/v0.8/ConfirmedOwnerWithProposal.sol\":1956:1976  _validateOwnership() */\n      tag_58\n        /* \"@chainlink/contracts/src/v0.8/ConfirmedOwnerWithProposal.sol\":1956:1974  _validateOwnership */\n      tag_59\n        /* \"@chainlink/contracts/src/v0.8/ConfirmedOwnerWithProposal.sol\":1956:1976  _validateOwnership() */\n      jump\t// in\n    tag_58:\n        /* \"docs.chain.link/samples/APIRequests/ASojaPriceConsumer.sol\":852:880  Chainlink.Request memory req */\n      0x00\n        /* \"docs.chain.link/samples/APIRequests/ASojaPriceConsumer.sol\":883:1026  buildChainlinkRequest(\r... */\n      tag_61\n        /* \"docs.chain.link/samples/APIRequests/ASojaPriceConsumer.sol\":919:942  stringToBytes32(_jobId) */\n      tag_62\n        /* \"docs.chain.link/samples/APIRequests/ASojaPriceConsumer.sol\":935:941  _jobId */\n      dup4\n        /* \"docs.chain.link/samples/APIRequests/ASojaPriceConsumer.sol\":919:934  stringToBytes32 */\n      tag_63\n        /* \"docs.chain.link/samples/APIRequests/ASojaPriceConsumer.sol\":919:942  stringToBytes32(_jobId) */\n      jump\t// in\n    tag_62:\n        /* \"docs.chain.link/samples/APIRequests/ASojaPriceConsumer.sol\":965:969  this */\n      address\n        /* \"docs.chain.link/samples/APIRequests/ASojaPriceConsumer.sol\":985:1015  this.fulfillSOJAPrice.selector */\n      shl(0xe0, 0x5474c99c)\n        /* \"docs.chain.link/samples/APIRequests/ASojaPriceConsumer.sol\":883:904  buildChainlinkRequest */\n      tag_64\n        /* \"docs.chain.link/samples/APIRequests/ASojaPriceConsumer.sol\":883:1026  buildChainlinkRequest(\r... */\n      jump\t// in\n    tag_61:\n        /* \"docs.chain.link/samples/APIRequests/ASojaPriceConsumer.sol\":852:1026  Chainlink.Request memory req = buildChainlinkRequest(\r... */\n      swap1\n      pop\n        /* \"docs.chain.link/samples/APIRequests/ASojaPriceConsumer.sol\":1037:1144  req.add(\r... */\n      tag_65\n      mload(0x40)\n      dup1\n      0x40\n      add\n      0x40\n      mstore\n      dup1\n      0x03\n      dup2\n      mstore\n      0x20\n      add\n      0x6765740000000000000000000000000000000000000000000000000000000000\n      dup2\n      mstore\n      pop\n      mload(0x40)\n      dup1\n      0x60\n      add\n      0x40\n      mstore\n      dup1\n      0x34\n      dup2\n      mstore\n      0x20\n      add\n      data_018e308485b4d091aac4f7bbcde23f6d7a211336c2c0c138a6256b01268ae407\n      0x34\n      swap2\n      codecopy\n        /* \"docs.chain.link/samples/APIRequests/ASojaPriceConsumer.sol\":1037:1040  req */\n      dup4\n        /* \"docs.chain.link/samples/APIRequests/ASojaPriceConsumer.sol\":1037:1044  req.add */\n      tag_66\n      swap1\n        /* \"docs.chain.link/samples/APIRequests/ASojaPriceConsumer.sol\":1037:1144  req.add(\r... */\n      swap3\n      swap2\n      swap1\n      0xffffffff\n      and\n      jump\t// in\n    tag_65:\n        /* \"docs.chain.link/samples/APIRequests/ASojaPriceConsumer.sol\":1155:1184  req.add(\"path\", \"indexValue\") */\n      tag_67\n      mload(0x40)\n      dup1\n      0x40\n      add\n      0x40\n      mstore\n      dup1\n      0x04\n      dup2\n      mstore\n      0x20\n      add\n      0x7061746800000000000000000000000000000000000000000000000000000000\n      dup2\n      mstore\n      pop\n      mload(0x40)\n      dup1\n      0x40\n      add\n      0x40\n      mstore\n      dup1\n      0x0a\n      dup2\n      mstore\n      0x20\n      add\n      0x696e64657856616c756500000000000000000000000000000000000000000000\n      dup2\n      mstore\n      pop\n        /* \"docs.chain.link/samples/APIRequests/ASojaPriceConsumer.sol\":1155:1158  req */\n      dup4\n        /* \"docs.chain.link/samples/APIRequests/ASojaPriceConsumer.sol\":1155:1162  req.add */\n      tag_66\n      swap1\n        /* \"docs.chain.link/samples/APIRequests/ASojaPriceConsumer.sol\":1155:1184  req.add(\"path\", \"indexValue\") */\n      swap3\n      swap2\n      swap1\n      0xffffffff\n      and\n      jump\t// in\n    tag_67:\n        /* \"docs.chain.link/samples/APIRequests/ASojaPriceConsumer.sol\":1195:1219  req.addInt(\"times\", 100) */\n      tag_68\n      mload(0x40)\n      dup1\n      0x40\n      add\n      0x40\n      mstore\n      dup1\n      0x05\n      dup2\n      mstore\n      0x20\n      add\n      0x74696d6573000000000000000000000000000000000000000000000000000000\n      dup2\n      mstore\n      pop\n        /* \"docs.chain.link/samples/APIRequests/ASojaPriceConsumer.sol\":1215:1218  100 */\n      0x64\n        /* \"docs.chain.link/samples/APIRequests/ASojaPriceConsumer.sol\":1195:1198  req */\n      dup4\n        /* \"docs.chain.link/samples/APIRequests/ASojaPriceConsumer.sol\":1195:1205  req.addInt */\n      tag_69\n      swap1\n        /* \"docs.chain.link/samples/APIRequests/ASojaPriceConsumer.sol\":1195:1219  req.addInt(\"times\", 100) */\n      swap3\n      swap2\n      swap1\n      0xffffffff\n      and\n      jump\t// in\n    tag_68:\n        /* \"docs.chain.link/samples/APIRequests/ASojaPriceConsumer.sol\":1230:1282  sendChainlinkRequestTo(_oracle, req, ORACLE_PAYMENT) */\n      tag_70\n        /* \"docs.chain.link/samples/APIRequests/ASojaPriceConsumer.sol\":1253:1260  _oracle */\n      dup4\n        /* \"docs.chain.link/samples/APIRequests/ASojaPriceConsumer.sol\":1262:1265  req */\n      dup3\n        /* \"docs.chain.link/samples/APIRequests/ASojaPriceConsumer.sol\":367:369  10 */\n      0x0a\n        /* \"@chainlink/contracts/src/v0.8/ChainlinkClient.sol\":675:681  10**18 */\n      0x0de0b6b3a7640000\n        /* \"docs.chain.link/samples/APIRequests/ASojaPriceConsumer.sol\":342:343  1 */\n      0x01\n        /* \"docs.chain.link/samples/APIRequests/ASojaPriceConsumer.sol\":342:363  1 * LINK_DIVISIBILITY */\n      tag_71\n      swap2\n      swap1\n      tag_72\n      jump\t// in\n    tag_71:\n        /* \"docs.chain.link/samples/APIRequests/ASojaPriceConsumer.sol\":341:369  (1 * LINK_DIVISIBILITY) / 10 */\n      tag_73\n      swap2\n      swap1\n      tag_74\n      jump\t// in\n    tag_73:\n        /* \"docs.chain.link/samples/APIRequests/ASojaPriceConsumer.sol\":1230:1252  sendChainlinkRequestTo */\n      tag_75\n        /* \"docs.chain.link/samples/APIRequests/ASojaPriceConsumer.sol\":1230:1282  sendChainlinkRequestTo(_oracle, req, ORACLE_PAYMENT) */\n      jump\t// in\n    tag_70:\n      pop\n        /* \"docs.chain.link/samples/APIRequests/ASojaPriceConsumer.sol\":841:1290  {\r... */\n      pop\n        /* \"docs.chain.link/samples/APIRequests/ASojaPriceConsumer.sol\":734:1290  function requestSOJAPrice(\r... */\n      pop\n      pop\n      jump\t// out\n        /* \"docs.chain.link/samples/APIRequests/ASojaPriceConsumer.sol\":1298:1532  function fulfillSOJAPrice(\r... */\n    tag_30:\n        /* \"docs.chain.link/samples/APIRequests/ASojaPriceConsumer.sol\":1419:1429  _requestId */\n      dup2\n        /* \"@chainlink/contracts/src/v0.8/ChainlinkClient.sol\":11663:11680  s_pendingRequests */\n      0x05\n        /* \"@chainlink/contracts/src/v0.8/ChainlinkClient.sol\":11663:11691  s_pendingRequests[requestId] */\n      0x00\n        /* \"@chainlink/contracts/src/v0.8/ChainlinkClient.sol\":11681:11690  requestId */\n      dup3\n        /* \"@chainlink/contracts/src/v0.8/ChainlinkClient.sol\":11663:11691  s_pendingRequests[requestId] */\n      dup2\n      mstore\n      0x20\n      add\n      swap1\n      dup2\n      mstore\n      0x20\n      add\n      0x00\n      keccak256\n      0x00\n      swap1\n      sload\n      swap1\n      0x0100\n      exp\n      swap1\n      div\n      0xffffffffffffffffffffffffffffffffffffffff\n      and\n        /* \"@chainlink/contracts/src/v0.8/ChainlinkClient.sol\":11649:11691  msg.sender == s_pendingRequests[requestId] */\n      0xffffffffffffffffffffffffffffffffffffffff\n      and\n        /* \"@chainlink/contracts/src/v0.8/ChainlinkClient.sol\":11649:11659  msg.sender */\n      caller\n        /* \"@chainlink/contracts/src/v0.8/ChainlinkClient.sol\":11649:11691  msg.sender == s_pendingRequests[requestId] */\n      0xffffffffffffffffffffffffffffffffffffffff\n      and\n      eq\n        /* \"@chainlink/contracts/src/v0.8/ChainlinkClient.sol\":11641:11736  require(msg.sender == s_pendingRequests[requestId], \"Source must be the oracle of the request\") */\n      tag_77\n      jumpi\n      mload(0x40)\n      0x08c379a000000000000000000000000000000000000000000000000000000000\n      dup2\n      mstore\n      0x04\n      add\n      tag_78\n      swap1\n      tag_79\n      jump\t// in\n    tag_78:\n      mload(0x40)\n      dup1\n      swap2\n      sub\n      swap1\n      revert\n    tag_77:\n        /* \"@chainlink/contracts/src/v0.8/ChainlinkClient.sol\":11749:11766  s_pendingRequests */\n      0x05\n        /* \"@chainlink/contracts/src/v0.8/ChainlinkClient.sol\":11749:11777  s_pendingRequests[requestId] */\n      0x00\n        /* \"@chainlink/contracts/src/v0.8/ChainlinkClient.sol\":11767:11776  requestId */\n      dup3\n        /* \"@chainlink/contracts/src/v0.8/ChainlinkClient.sol\":11749:11777  s_pendingRequests[requestId] */\n      dup2\n      mstore\n      0x20\n      add\n      swap1\n      dup2\n      mstore\n      0x20\n      add\n      0x00\n      keccak256\n      0x00\n        /* \"@chainlink/contracts/src/v0.8/ChainlinkClient.sol\":11742:11777  delete s_pendingRequests[requestId] */\n      0x0100\n      exp\n      dup2\n      sload\n      swap1\n      0xffffffffffffffffffffffffffffffffffffffff\n      mul\n      not\n      and\n      swap1\n      sstore\n        /* \"@chainlink/contracts/src/v0.8/ChainlinkClient.sol\":11807:11816  requestId */\n      dup1\n        /* \"@chainlink/contracts/src/v0.8/ChainlinkClient.sol\":11788:11817  ChainlinkFulfilled(requestId) */\n      0x7cc135e0cebb02c3480ae5d74d377283180a2601f8f644edf7987b009316c63a\n      mload(0x40)\n      mload(0x40)\n      dup1\n      swap2\n      sub\n      swap1\n      log2\n        /* \"docs.chain.link/samples/APIRequests/ASojaPriceConsumer.sol\":1485:1491  _price */\n      dup2\n        /* \"docs.chain.link/samples/APIRequests/ASojaPriceConsumer.sol\":1473:1483  _requestId */\n      dup4\n        /* \"docs.chain.link/samples/APIRequests/ASojaPriceConsumer.sol\":1447:1492  RequestSOJAPriceFulfilled(_requestId, _price) */\n      0x8830ab72666dca3afc82aa3647a7b30c576c782ac695a3fa769a8d9ca39890b2\n      mload(0x40)\n      mload(0x40)\n      dup1\n      swap2\n      sub\n      swap1\n      log3\n        /* \"docs.chain.link/samples/APIRequests/ASojaPriceConsumer.sol\":1518:1524  _price */\n      dup2\n        /* \"docs.chain.link/samples/APIRequests/ASojaPriceConsumer.sol\":1503:1515  currentPrice */\n      0x08\n        /* \"docs.chain.link/samples/APIRequests/ASojaPriceConsumer.sol\":1503:1524  currentPrice = _price */\n      dup2\n      swap1\n      sstore\n      pop\n        /* \"docs.chain.link/samples/APIRequests/ASojaPriceConsumer.sol\":1298:1532  function fulfillSOJAPrice(\r... */\n      pop\n      pop\n      pop\n      jump\t// out\n        /* \"@chainlink/contracts/src/v0.8/ConfirmedOwnerWithProposal.sol\":1016:1281  function acceptOwnership() external override {... */\n    tag_32:\n        /* \"@chainlink/contracts/src/v0.8/ConfirmedOwnerWithProposal.sol\":1089:1103  s_pendingOwner */\n      0x07\n      0x00\n      swap1\n      sload\n      swap1\n      0x0100\n      exp\n      swap1\n      div\n      0xffffffffffffffffffffffffffffffffffffffff\n      and\n        /* \"@chainlink/contracts/src/v0.8/ConfirmedOwnerWithProposal.sol\":1075:1103  msg.sender == s_pendingOwner */\n      0xffffffffffffffffffffffffffffffffffffffff\n      and\n        /* \"@chainlink/contracts/src/v0.8/ConfirmedOwnerWithProposal.sol\":1075:1085  msg.sender */\n      caller\n        /* \"@chainlink/contracts/src/v0.8/ConfirmedOwnerWithProposal.sol\":1075:1103  msg.sender == s_pendingOwner */\n      0xffffffffffffffffffffffffffffffffffffffff\n      and\n      eq\n        /* \"@chainlink/contracts/src/v0.8/ConfirmedOwnerWithProposal.sol\":1067:1130  require(msg.sender == s_pendingOwner, \"Must be proposed owner\") */\n      tag_82\n      jumpi\n      mload(0x40)\n      0x08c379a000000000000000000000000000000000000000000000000000000000\n      dup2\n      mstore\n      0x04\n      add\n      tag_83\n      swap1\n      tag_84\n      jump\t// in\n    tag_83:\n      mload(0x40)\n      dup1\n      swap2\n      sub\n      swap1\n      revert\n    tag_82:\n        /* \"@chainlink/contracts/src/v0.8/ConfirmedOwnerWithProposal.sol\":1137:1153  address oldOwner */\n      0x00\n        /* \"@chainlink/contracts/src/v0.8/ConfirmedOwnerWithProposal.sol\":1156:1163  s_owner */\n      0x06\n      0x00\n      swap1\n      sload\n      swap1\n      0x0100\n      exp\n      swap1\n      div\n      0xffffffffffffffffffffffffffffffffffffffff\n      and\n        /* \"@chainlink/contracts/src/v0.8/ConfirmedOwnerWithProposal.sol\":1137:1163  address oldOwner = s_owner */\n      swap1\n      pop\n        /* \"@chainlink/contracts/src/v0.8/ConfirmedOwnerWithProposal.sol\":1179:1189  msg.sender */\n      caller\n        /* \"@chainlink/contracts/src/v0.8/ConfirmedOwnerWithProposal.sol\":1169:1176  s_owner */\n      0x06\n      0x00\n        /* \"@chainlink/contracts/src/v0.8/ConfirmedOwnerWithProposal.sol\":1169:1189  s_owner = msg.sender */\n      0x0100\n      exp\n      dup2\n      sload\n      dup2\n      0xffffffffffffffffffffffffffffffffffffffff\n      mul\n      not\n      and\n      swap1\n      dup4\n      0xffffffffffffffffffffffffffffffffffffffff\n      and\n      mul\n      or\n      swap1\n      sstore\n      pop\n        /* \"@chainlink/contracts/src/v0.8/ConfirmedOwnerWithProposal.sol\":1220:1221  0 */\n      0x00\n        /* \"@chainlink/contracts/src/v0.8/ConfirmedOwnerWithProposal.sol\":1195:1209  s_pendingOwner */\n      0x07\n      0x00\n        /* \"@chainlink/contracts/src/v0.8/ConfirmedOwnerWithProposal.sol\":1195:1222  s_pendingOwner = address(0) */\n      0x0100\n      exp\n      dup2\n      sload\n      dup2\n      0xffffffffffffffffffffffffffffffffffffffff\n      mul\n      not\n      and\n      swap1\n      dup4\n      0xffffffffffffffffffffffffffffffffffffffff\n      and\n      mul\n      or\n      swap1\n      sstore\n      pop\n        /* \"@chainlink/contracts/src/v0.8/ConfirmedOwnerWithProposal.sol\":1265:1275  msg.sender */\n      caller\n        /* \"@chainlink/contracts/src/v0.8/ConfirmedOwnerWithProposal.sol\":1234:1276  OwnershipTransferred(oldOwner, msg.sender) */\n      0xffffffffffffffffffffffffffffffffffffffff\n      and\n        /* \"@chainlink/contracts/src/v0.8/ConfirmedOwnerWithProposal.sol\":1255:1263  oldOwner */\n      dup2\n        /* \"@chainlink/contracts/src/v0.8/ConfirmedOwnerWithProposal.sol\":1234:1276  OwnershipTransferred(oldOwner, msg.sender) */\n      0xffffffffffffffffffffffffffffffffffffffff\n      and\n      0x8be0079c531659141344cd1fd0a4f28419497f9722a3daafe3b4186f6b6457e0\n      mload(0x40)\n      mload(0x40)\n      dup1\n      swap2\n      sub\n      swap1\n      log3\n        /* \"@chainlink/contracts/src/v0.8/ConfirmedOwnerWithProposal.sol\":1061:1281  {... */\n      pop\n        /* \"@chainlink/contracts/src/v0.8/ConfirmedOwnerWithProposal.sol\":1016:1281  function acceptOwnership() external override {... */\n      jump\t// out\n        /* \"@chainlink/contracts/src/v0.8/ConfirmedOwnerWithProposal.sol\":1332:1413  function owner() public view override returns (address) {... */\n    tag_34:\n        /* \"@chainlink/contracts/src/v0.8/ConfirmedOwnerWithProposal.sol\":1379:1386  address */\n      0x00\n        /* \"@chainlink/contracts/src/v0.8/ConfirmedOwnerWithProposal.sol\":1401:1408  s_owner */\n      0x06\n      0x00\n      swap1\n      sload\n      swap1\n      0x0100\n      exp\n      swap1\n      div\n      0xffffffffffffffffffffffffffffffffffffffff\n      and\n        /* \"@chainlink/contracts/src/v0.8/ConfirmedOwnerWithProposal.sol\":1394:1408  return s_owner */\n      swap1\n      pop\n        /* \"@chainlink/contracts/src/v0.8/ConfirmedOwnerWithProposal.sol\":1332:1413  function owner() public view override returns (address) {... */\n      swap1\n      jump\t// out\n        /* \"docs.chain.link/samples/APIRequests/ASojaPriceConsumer.sol\":1656:1920  function withdrawLink() public onlyOwner {\r... */\n    tag_37:\n        /* \"@chainlink/contracts/src/v0.8/ConfirmedOwnerWithProposal.sol\":1956:1976  _validateOwnership() */\n      tag_87\n        /* \"@chainlink/contracts/src/v0.8/ConfirmedOwnerWithProposal.sol\":1956:1974  _validateOwnership */\n      tag_59\n        /* \"@chainlink/contracts/src/v0.8/ConfirmedOwnerWithProposal.sol\":1956:1976  _validateOwnership() */\n      jump\t// in\n    tag_87:\n        /* \"docs.chain.link/samples/APIRequests/ASojaPriceConsumer.sol\":1708:1731  LinkTokenInterface link */\n      0x00\n        /* \"docs.chain.link/samples/APIRequests/ASojaPriceConsumer.sol\":1753:1776  chainlinkTokenAddress() */\n      tag_89\n        /* \"docs.chain.link/samples/APIRequests/ASojaPriceConsumer.sol\":1753:1774  chainlinkTokenAddress */\n      tag_56\n        /* \"docs.chain.link/samples/APIRequests/ASojaPriceConsumer.sol\":1753:1776  chainlinkTokenAddress() */\n      jump\t// in\n    tag_89:\n        /* \"docs.chain.link/samples/APIRequests/ASojaPriceConsumer.sol\":1708:1777  LinkTokenInterface link = LinkTokenInterface(chainlinkTokenAddress()) */\n      swap1\n      pop\n        /* \"docs.chain.link/samples/APIRequests/ASojaPriceConsumer.sol\":1810:1814  link */\n      dup1\n        /* \"docs.chain.link/samples/APIRequests/ASojaPriceConsumer.sol\":1810:1823  link.transfer */\n      0xffffffffffffffffffffffffffffffffffffffff\n      and\n      0xa9059cbb\n        /* \"docs.chain.link/samples/APIRequests/ASojaPriceConsumer.sol\":1824:1834  msg.sender */\n      caller\n        /* \"docs.chain.link/samples/APIRequests/ASojaPriceConsumer.sol\":1836:1840  link */\n      dup4\n        /* \"docs.chain.link/samples/APIRequests/ASojaPriceConsumer.sol\":1836:1850  link.balanceOf */\n      0xffffffffffffffffffffffffffffffffffffffff\n      and\n      0x70a08231\n        /* \"docs.chain.link/samples/APIRequests/ASojaPriceConsumer.sol\":1859:1863  this */\n      address\n        /* \"docs.chain.link/samples/APIRequests/ASojaPriceConsumer.sol\":1836:1865  link.balanceOf(address(this)) */\n      mload(0x40)\n      dup3\n      0xffffffff\n      and\n      0xe0\n      shl\n      dup2\n      mstore\n      0x04\n      add\n      tag_90\n      swap2\n      swap1\n      tag_18\n      jump\t// in\n    tag_90:\n      0x20\n      mload(0x40)\n      dup1\n      dup4\n      sub\n      dup2\n      dup7\n      dup1\n      extcodesize\n      iszero\n      dup1\n      iszero\n      tag_91\n      jumpi\n      0x00\n      dup1\n      revert\n    tag_91:\n      pop\n      gas\n      staticcall\n      iszero\n      dup1\n      iszero\n      tag_93\n      jumpi\n      returndatasize\n      0x00\n      dup1\n      returndatacopy\n      revert(0x00, returndatasize)\n    tag_93:\n      pop\n      pop\n      pop\n      pop\n      mload(0x40)\n      returndatasize\n      not(0x1f)\n      0x1f\n      dup3\n      add\n      and\n      dup3\n      add\n      dup1\n      0x40\n      mstore\n      pop\n      dup2\n      add\n      swap1\n      tag_94\n      swap2\n      swap1\n      tag_95\n      jump\t// in\n    tag_94:\n        /* \"docs.chain.link/samples/APIRequests/ASojaPriceConsumer.sol\":1810:1866  link.transfer(msg.sender, link.balanceOf(address(this))) */\n      mload(0x40)\n      dup4\n      0xffffffff\n      and\n      0xe0\n      shl\n      dup2\n      mstore\n      0x04\n      add\n      tag_96\n      swap3\n      swap2\n      swap1\n      tag_97\n      jump\t// in\n    tag_96:\n      0x20\n      mload(0x40)\n      dup1\n      dup4\n      sub\n      dup2\n      0x00\n      dup8\n      dup1\n      extcodesize\n      iszero\n      dup1\n      iszero\n      tag_98\n      jumpi\n      0x00\n      dup1\n      revert\n    tag_98:\n      pop\n      gas\n      call\n      iszero\n      dup1\n      iszero\n      tag_100\n      jumpi\n      returndatasize\n      0x00\n      dup1\n      returndatacopy\n      revert(0x00, returndatasize)\n    tag_100:\n      pop\n      pop\n      pop\n      pop\n      mload(0x40)\n      returndatasize\n      not(0x1f)\n      0x1f\n      dup3\n      add\n      and\n      dup3\n      add\n      dup1\n      0x40\n      mstore\n      pop\n      dup2\n      add\n      swap1\n      tag_101\n      swap2\n      swap1\n      tag_102\n      jump\t// in\n    tag_101:\n        /* \"docs.chain.link/samples/APIRequests/ASojaPriceConsumer.sol\":1788:1912  require(\r... */\n      tag_103\n      jumpi\n      mload(0x40)\n      0x08c379a000000000000000000000000000000000000000000000000000000000\n      dup2\n      mstore\n      0x04\n      add\n      tag_104\n      swap1\n      tag_105\n      jump\t// in\n    tag_104:\n      mload(0x40)\n      dup1\n      swap2\n      sub\n      swap1\n      revert\n    tag_103:\n        /* \"docs.chain.link/samples/APIRequests/ASojaPriceConsumer.sol\":1697:1920  {\r... */\n      pop\n        /* \"docs.chain.link/samples/APIRequests/ASojaPriceConsumer.sol\":1656:1920  function withdrawLink() public onlyOwner {\r... */\n      jump\t// out\n        /* \"docs.chain.link/samples/APIRequests/ASojaPriceConsumer.sol\":392:419  uint256 public currentPrice */\n    tag_39:\n      sload(0x08)\n      dup2\n      jump\t// out\n        /* \"docs.chain.link/samples/APIRequests/ASojaPriceConsumer.sol\":456:481  bytes32 public lastMarket */\n    tag_43:\n      sload(0x0a)\n      dup2\n      jump\t// out\n        /* \"docs.chain.link/samples/APIRequests/ASojaPriceConsumer.sol\":1928:2258  function cancelRequest(\r... */\n    tag_49:\n        /* \"@chainlink/contracts/src/v0.8/ConfirmedOwnerWithProposal.sol\":1956:1976  _validateOwnership() */\n      tag_107\n        /* \"@chainlink/contracts/src/v0.8/ConfirmedOwnerWithProposal.sol\":1956:1974  _validateOwnership */\n      tag_59\n        /* \"@chainlink/contracts/src/v0.8/ConfirmedOwnerWithProposal.sol\":1956:1976  _validateOwnership() */\n      jump\t// in\n    tag_107:\n        /* \"docs.chain.link/samples/APIRequests/ASojaPriceConsumer.sol\":2109:2250  cancelChainlinkRequest(\r... */\n      tag_109\n        /* \"docs.chain.link/samples/APIRequests/ASojaPriceConsumer.sol\":2146:2156  _requestId */\n      dup5\n        /* \"docs.chain.link/samples/APIRequests/ASojaPriceConsumer.sol\":2171:2179  _payment */\n      dup5\n        /* \"docs.chain.link/samples/APIRequests/ASojaPriceConsumer.sol\":2194:2213  _callbackFunctionId */\n      dup5\n        /* \"docs.chain.link/samples/APIRequests/ASojaPriceConsumer.sol\":2228:2239  _expiration */\n      dup5\n        /* \"docs.chain.link/samples/APIRequests/ASojaPriceConsumer.sol\":2109:2131  cancelChainlinkRequest */\n      tag_110\n        /* \"docs.chain.link/samples/APIRequests/ASojaPriceConsumer.sol\":2109:2250  cancelChainlinkRequest(\r... */\n      jump\t// in\n    tag_109:\n        /* \"docs.chain.link/samples/APIRequests/ASojaPriceConsumer.sol\":1928:2258  function cancelRequest(\r... */\n      pop\n      pop\n      pop\n      pop\n      jump\t// out\n        /* \"@chainlink/contracts/src/v0.8/ConfirmedOwnerWithProposal.sol\":826:924  function transferOwnership(address to) public override onlyOwner {... */\n    tag_53:\n        /* \"@chainlink/contracts/src/v0.8/ConfirmedOwnerWithProposal.sol\":1956:1976  _validateOwnership() */\n      tag_112\n        /* \"@chainlink/contracts/src/v0.8/ConfirmedOwnerWithProposal.sol\":1956:1974  _validateOwnership */\n      tag_59\n        /* \"@chainlink/contracts/src/v0.8/ConfirmedOwnerWithProposal.sol\":1956:1976  _validateOwnership() */\n      jump\t// in\n    tag_112:\n        /* \"@chainlink/contracts/src/v0.8/ConfirmedOwnerWithProposal.sol\":897:919  _transferOwnership(to) */\n      tag_114\n        /* \"@chainlink/contracts/src/v0.8/ConfirmedOwnerWithProposal.sol\":916:918  to */\n      dup2\n        /* \"@chainlink/contracts/src/v0.8/ConfirmedOwnerWithProposal.sol\":897:915  _transferOwnership */\n      tag_115\n        /* \"@chainlink/contracts/src/v0.8/ConfirmedOwnerWithProposal.sol\":897:919  _transferOwnership(to) */\n      jump\t// in\n    tag_114:\n        /* \"@chainlink/contracts/src/v0.8/ConfirmedOwnerWithProposal.sol\":826:924  function transferOwnership(address to) public override onlyOwner {... */\n      pop\n      jump\t// out\n        /* \"@chainlink/contracts/src/v0.8/ChainlinkClient.sol\":9098:9196  function chainlinkTokenAddress() internal view returns (address) {... */\n    tag_56:\n        /* \"@chainlink/contracts/src/v0.8/ChainlinkClient.sol\":9154:9161  address */\n      0x00\n        /* \"@chainlink/contracts/src/v0.8/ChainlinkClient.sol\":9184:9190  s_link */\n      0x02\n      0x00\n      swap1\n      sload\n      swap1\n      0x0100\n      exp\n      swap1\n      div\n      0xffffffffffffffffffffffffffffffffffffffff\n      and\n        /* \"@chainlink/contracts/src/v0.8/ChainlinkClient.sol\":9169:9191  return address(s_link) */\n      swap1\n      pop\n        /* \"@chainlink/contracts/src/v0.8/ChainlinkClient.sol\":9098:9196  function chainlinkTokenAddress() internal view returns (address) {... */\n      swap1\n      jump\t// out\n        /* \"@chainlink/contracts/src/v0.8/ConfirmedOwnerWithProposal.sol\":1730:1841  function _validateOwnership() internal view {... */\n    tag_59:\n        /* \"@chainlink/contracts/src/v0.8/ConfirmedOwnerWithProposal.sol\":1802:1809  s_owner */\n      0x06\n      0x00\n      swap1\n      sload\n      swap1\n      0x0100\n      exp\n      swap1\n      div\n      0xffffffffffffffffffffffffffffffffffffffff\n      and\n        /* \"@chainlink/contracts/src/v0.8/ConfirmedOwnerWithProposal.sol\":1788:1809  msg.sender == s_owner */\n      0xffffffffffffffffffffffffffffffffffffffff\n      and\n        /* \"@chainlink/contracts/src/v0.8/ConfirmedOwnerWithProposal.sol\":1788:1798  msg.sender */\n      caller\n        /* \"@chainlink/contracts/src/v0.8/ConfirmedOwnerWithProposal.sol\":1788:1809  msg.sender == s_owner */\n      0xffffffffffffffffffffffffffffffffffffffff\n      and\n      eq\n        /* \"@chainlink/contracts/src/v0.8/ConfirmedOwnerWithProposal.sol\":1780:1836  require(msg.sender == s_owner, \"Only callable by owner\") */\n      tag_118\n      jumpi\n      mload(0x40)\n      0x08c379a000000000000000000000000000000000000000000000000000000000\n      dup2\n      mstore\n      0x04\n      add\n      tag_119\n      swap1\n      tag_120\n      jump\t// in\n    tag_119:\n      mload(0x40)\n      dup1\n      swap2\n      sub\n      swap1\n      revert\n    tag_118:\n        /* \"@chainlink/contracts/src/v0.8/ConfirmedOwnerWithProposal.sol\":1730:1841  function _validateOwnership() internal view {... */\n      jump\t// out\n        /* \"docs.chain.link/samples/APIRequests/ASojaPriceConsumer.sol\":2266:2653  function stringToBytes32(\r... */\n    tag_63:\n        /* \"docs.chain.link/samples/APIRequests/ASojaPriceConsumer.sol\":2351:2365  bytes32 result */\n      0x00\n        /* \"docs.chain.link/samples/APIRequests/ASojaPriceConsumer.sol\":2378:2410  bytes memory tempEmptyStringTest */\n      dup1\n        /* \"docs.chain.link/samples/APIRequests/ASojaPriceConsumer.sol\":2419:2425  source */\n      dup3\n        /* \"docs.chain.link/samples/APIRequests/ASojaPriceConsumer.sol\":2378:2426  bytes memory tempEmptyStringTest = bytes(source) */\n      swap1\n      pop\n        /* \"docs.chain.link/samples/APIRequests/ASojaPriceConsumer.sol\":2471:2472  0 */\n      0x00\n        /* \"docs.chain.link/samples/APIRequests/ASojaPriceConsumer.sol\":2441:2460  tempEmptyStringTest */\n      dup2\n        /* \"docs.chain.link/samples/APIRequests/ASojaPriceConsumer.sol\":2441:2467  tempEmptyStringTest.length */\n      mload\n        /* \"docs.chain.link/samples/APIRequests/ASojaPriceConsumer.sol\":2441:2472  tempEmptyStringTest.length == 0 */\n      eq\n        /* \"docs.chain.link/samples/APIRequests/ASojaPriceConsumer.sol\":2437:2511  if (tempEmptyStringTest.length == 0) {\r... */\n      iszero\n      tag_122\n      jumpi\n        /* \"docs.chain.link/samples/APIRequests/ASojaPriceConsumer.sol\":2496:2499  0x0 */\n      0x00\n        /* \"docs.chain.link/samples/APIRequests/ASojaPriceConsumer.sol\":2489:2499  return 0x0 */\n      dup1\n      shl\n      swap2\n      pop\n      pop\n      jump(tag_121)\n        /* \"docs.chain.link/samples/APIRequests/ASojaPriceConsumer.sol\":2437:2511  if (tempEmptyStringTest.length == 0) {\r... */\n    tag_122:\n        /* \"docs.chain.link/samples/APIRequests/ASojaPriceConsumer.sol\":2631:2633  32 */\n      0x20\n        /* \"docs.chain.link/samples/APIRequests/ASojaPriceConsumer.sol\":2623:2629  source */\n      dup4\n        /* \"docs.chain.link/samples/APIRequests/ASojaPriceConsumer.sol\":2619:2634  add(source, 32) */\n      add\n        /* \"docs.chain.link/samples/APIRequests/ASojaPriceConsumer.sol\":2613:2635  mload(add(source, 32)) */\n      mload\n        /* \"docs.chain.link/samples/APIRequests/ASojaPriceConsumer.sol\":2603:2635  result := mload(add(source, 32)) */\n      swap2\n      pop\n        /* \"docs.chain.link/samples/APIRequests/ASojaPriceConsumer.sol\":2532:2646  {\r... */\n      pop\n        /* \"docs.chain.link/samples/APIRequests/ASojaPriceConsumer.sol\":2266:2653  function stringToBytes32(\r... */\n    tag_121:\n      swap2\n      swap1\n      pop\n      jump\t// out\n        /* \"@chainlink/contracts/src/v0.8/ChainlinkClient.sol\":1850:2133  function buildChainlinkRequest(... */\n    tag_64:\n        /* \"@chainlink/contracts/src/v0.8/ChainlinkClient.sol\":1992:2016  Chainlink.Request memory */\n      tag_123\n      tag_124\n      jump\t// in\n    tag_123:\n        /* \"@chainlink/contracts/src/v0.8/ChainlinkClient.sol\":2024:2052  Chainlink.Request memory req */\n      tag_126\n      tag_124\n      jump\t// in\n    tag_126:\n        /* \"@chainlink/contracts/src/v0.8/ChainlinkClient.sol\":2065:2128  req.initialize(specId, callbackAddr, callbackFunctionSignature) */\n      tag_127\n        /* \"@chainlink/contracts/src/v0.8/ChainlinkClient.sol\":2080:2086  specId */\n      dup6\n        /* \"@chainlink/contracts/src/v0.8/ChainlinkClient.sol\":2088:2100  callbackAddr */\n      dup6\n        /* \"@chainlink/contracts/src/v0.8/ChainlinkClient.sol\":2102:2127  callbackFunctionSignature */\n      dup6\n        /* \"@chainlink/contracts/src/v0.8/ChainlinkClient.sol\":2065:2068  req */\n      dup5\n        /* \"@chainlink/contracts/src/v0.8/ChainlinkClient.sol\":2065:2079  req.initialize */\n      tag_128\n      swap1\n        /* \"@chainlink/contracts/src/v0.8/ChainlinkClient.sol\":2065:2128  req.initialize(specId, callbackAddr, callbackFunctionSignature) */\n      swap4\n      swap3\n      swap2\n      swap1\n      0xffffffff\n      and\n      jump\t// in\n    tag_127:\n        /* \"@chainlink/contracts/src/v0.8/ChainlinkClient.sol\":2058:2128  return req.initialize(specId, callbackAddr, callbackFunctionSignature) */\n      swap2\n      pop\n      pop\n        /* \"@chainlink/contracts/src/v0.8/ChainlinkClient.sol\":1850:2133  function buildChainlinkRequest(... */\n      swap4\n      swap3\n      pop\n      pop\n      pop\n      jump\t// out\n        /* \"@chainlink/contracts/src/v0.8/Chainlink.sol\":1951:2126  function add(... */\n    tag_66:\n        /* \"@chainlink/contracts/src/v0.8/Chainlink.sol\":2061:2087  self.buf.encodeString(key) */\n      tag_130\n        /* \"@chainlink/contracts/src/v0.8/Chainlink.sol\":2083:2086  key */\n      dup3\n        /* \"@chainlink/contracts/src/v0.8/Chainlink.sol\":2061:2065  self */\n      dup5\n        /* \"@chainlink/contracts/src/v0.8/Chainlink.sol\":2061:2069  self.buf */\n      0x80\n      add\n      mload\n        /* \"@chainlink/contracts/src/v0.8/Chainlink.sol\":2061:2082  self.buf.encodeString */\n      tag_131\n      swap1\n        /* \"@chainlink/contracts/src/v0.8/Chainlink.sol\":2061:2087  self.buf.encodeString(key) */\n      swap2\n      swap1\n      0xffffffff\n      and\n      jump\t// in\n    tag_130:\n        /* \"@chainlink/contracts/src/v0.8/Chainlink.sol\":2093:2121  self.buf.encodeString(value) */\n      tag_132\n        /* \"@chainlink/contracts/src/v0.8/Chainlink.sol\":2115:2120  value */\n      dup2\n        /* \"@chainlink/contracts/src/v0.8/Chainlink.sol\":2093:2097  self */\n      dup5\n        /* \"@chainlink/contracts/src/v0.8/Chainlink.sol\":2093:2101  self.buf */\n      0x80\n      add\n      mload\n        /* \"@chainlink/contracts/src/v0.8/Chainlink.sol\":2093:2114  self.buf.encodeString */\n      tag_131\n      swap1\n        /* \"@chainlink/contracts/src/v0.8/Chainlink.sol\":2093:2121  self.buf.encodeString(value) */\n      swap2\n      swap1\n      0xffffffff\n      and\n      jump\t// in\n    tag_132:\n        /* \"@chainlink/contracts/src/v0.8/Chainlink.sol\":1951:2126  function add(... */\n      pop\n      pop\n      pop\n      jump\t// out\n        /* \"@chainlink/contracts/src/v0.8/Chainlink.sol\":2712:2880  function addInt(... */\n    tag_69:\n        /* \"@chainlink/contracts/src/v0.8/Chainlink.sol\":2818:2844  self.buf.encodeString(key) */\n      tag_134\n        /* \"@chainlink/contracts/src/v0.8/Chainlink.sol\":2840:2843  key */\n      dup3\n        /* \"@chainlink/contracts/src/v0.8/Chainlink.sol\":2818:2822  self */\n      dup5\n        /* \"@chainlink/contracts/src/v0.8/Chainlink.sol\":2818:2826  self.buf */\n      0x80\n      add\n      mload\n        /* \"@chainlink/contracts/src/v0.8/Chainlink.sol\":2818:2839  self.buf.encodeString */\n      tag_131\n      swap1\n        /* \"@chainlink/contracts/src/v0.8/Chainlink.sol\":2818:2844  self.buf.encodeString(key) */\n      swap2\n      swap1\n      0xffffffff\n      and\n      jump\t// in\n    tag_134:\n        /* \"@chainlink/contracts/src/v0.8/Chainlink.sol\":2850:2875  self.buf.encodeInt(value) */\n      tag_135\n        /* \"@chainlink/contracts/src/v0.8/Chainlink.sol\":2869:2874  value */\n      dup2\n        /* \"@chainlink/contracts/src/v0.8/Chainlink.sol\":2850:2854  self */\n      dup5\n        /* \"@chainlink/contracts/src/v0.8/Chainlink.sol\":2850:2858  self.buf */\n      0x80\n      add\n      mload\n        /* \"@chainlink/contracts/src/v0.8/Chainlink.sol\":2850:2868  self.buf.encodeInt */\n      tag_136\n      swap1\n        /* \"@chainlink/contracts/src/v0.8/Chainlink.sol\":2850:2875  self.buf.encodeInt(value) */\n      swap2\n      swap1\n      0xffffffff\n      and\n      jump\t// in\n    tag_135:\n        /* \"@chainlink/contracts/src/v0.8/Chainlink.sol\":2712:2880  function addInt(... */\n      pop\n      pop\n      pop\n      jump\t// out\n        /* \"@chainlink/contracts/src/v0.8/ChainlinkClient.sol\":3687:4443  function sendChainlinkRequestTo(... */\n    tag_75:\n        /* \"@chainlink/contracts/src/v0.8/ChainlinkClient.sol\":3823:3840  bytes32 requestId */\n      0x00\n        /* \"@chainlink/contracts/src/v0.8/ChainlinkClient.sol\":3848:3861  uint256 nonce */\n      dup1\n        /* \"@chainlink/contracts/src/v0.8/ChainlinkClient.sol\":3864:3878  s_requestCount */\n      sload(0x04)\n        /* \"@chainlink/contracts/src/v0.8/ChainlinkClient.sol\":3848:3878  uint256 nonce = s_requestCount */\n      swap1\n      pop\n        /* \"@chainlink/contracts/src/v0.8/ChainlinkClient.sol\":3909:3910  1 */\n      0x01\n        /* \"@chainlink/contracts/src/v0.8/ChainlinkClient.sol\":3901:3906  nonce */\n      dup2\n        /* \"@chainlink/contracts/src/v0.8/ChainlinkClient.sol\":3901:3910  nonce + 1 */\n      tag_138\n      swap2\n      swap1\n      tag_139\n      jump\t// in\n    tag_138:\n        /* \"@chainlink/contracts/src/v0.8/ChainlinkClient.sol\":3884:3898  s_requestCount */\n      0x04\n        /* \"@chainlink/contracts/src/v0.8/ChainlinkClient.sol\":3884:3910  s_requestCount = nonce + 1 */\n      dup2\n      swap1\n      sstore\n      pop\n        /* \"@chainlink/contracts/src/v0.8/ChainlinkClient.sol\":3916:3943  bytes memory encodedRequest */\n      0x00\n        /* \"@chainlink/contracts/src/v0.8/ChainlinkClient.sol\":3976:4024  ChainlinkRequestInterface.oracleRequest.selector */\n      shl(0xe0, 0x40429946)\n        /* \"@chainlink/contracts/src/v0.8/ChainlinkClient.sol\":784:785  0 */\n      0x00\n        /* \"@chainlink/contracts/src/v0.8/ChainlinkClient.sol\":728:729  0 */\n      dup1\n        /* \"@chainlink/contracts/src/v0.8/ChainlinkClient.sol\":4245:4248  req */\n      dup8\n        /* \"@chainlink/contracts/src/v0.8/ChainlinkClient.sol\":4245:4251  req.id */\n      0x00\n      add\n      mload\n        /* \"@chainlink/contracts/src/v0.8/ChainlinkClient.sol\":4267:4271  this */\n      address\n        /* \"@chainlink/contracts/src/v0.8/ChainlinkClient.sol\":4280:4283  req */\n      dup10\n        /* \"@chainlink/contracts/src/v0.8/ChainlinkClient.sol\":4280:4302  req.callbackFunctionId */\n      0x40\n      add\n      mload\n        /* \"@chainlink/contracts/src/v0.8/ChainlinkClient.sol\":4310:4315  nonce */\n      dup8\n        /* \"@chainlink/contracts/src/v0.8/ChainlinkClient.sol\":837:838  1 */\n      0x01\n        /* \"@chainlink/contracts/src/v0.8/ChainlinkClient.sol\":4350:4353  req */\n      dup13\n        /* \"@chainlink/contracts/src/v0.8/ChainlinkClient.sol\":4350:4357  req.buf */\n      0x80\n      add\n      mload\n        /* \"@chainlink/contracts/src/v0.8/ChainlinkClient.sol\":4350:4361  req.buf.buf */\n      0x00\n      add\n      mload\n        /* \"@chainlink/contracts/src/v0.8/ChainlinkClient.sol\":3946:4367  abi.encodeWithSelector(... */\n      add(0x24, mload(0x40))\n      tag_140\n      swap9\n      swap8\n      swap7\n      swap6\n      swap5\n      swap4\n      swap3\n      swap2\n      swap1\n      tag_141\n      jump\t// in\n    tag_140:\n      mload(0x40)\n      0x20\n      dup2\n      dup4\n      sub\n      sub\n      dup2\n      mstore\n      swap1\n      0x40\n      mstore\n      swap1\n      not(0xffffffffffffffffffffffffffffffffffffffffffffffffffffffff)\n      and\n      0x20\n      dup3\n      add\n      dup1\n      mload\n      0xffffffffffffffffffffffffffffffffffffffffffffffffffffffff\n      dup4\n      dup2\n      dup4\n      and\n      or\n      dup4\n      mstore\n      pop\n      pop\n      pop\n      pop\n        /* \"@chainlink/contracts/src/v0.8/ChainlinkClient.sol\":3916:4367  bytes memory encodedRequest = abi.encodeWithSelector(... */\n      swap1\n      pop\n        /* \"@chainlink/contracts/src/v0.8/ChainlinkClient.sol\":4380:4438  _rawRequest(oracleAddress, nonce, payment, encodedRequest) */\n      tag_142\n        /* \"@chainlink/contracts/src/v0.8/ChainlinkClient.sol\":4392:4405  oracleAddress */\n      dup7\n        /* \"@chainlink/contracts/src/v0.8/ChainlinkClient.sol\":4407:4412  nonce */\n      dup4\n        /* \"@chainlink/contracts/src/v0.8/ChainlinkClient.sol\":4414:4421  payment */\n      dup7\n        /* \"@chainlink/contracts/src/v0.8/ChainlinkClient.sol\":4423:4437  encodedRequest */\n      dup5\n        /* \"@chainlink/contracts/src/v0.8/ChainlinkClient.sol\":4380:4391  _rawRequest */\n      tag_143\n        /* \"@chainlink/contracts/src/v0.8/ChainlinkClient.sol\":4380:4438  _rawRequest(oracleAddress, nonce, payment, encodedRequest) */\n      jump\t// in\n    tag_142:\n        /* \"@chainlink/contracts/src/v0.8/ChainlinkClient.sol\":4373:4438  return _rawRequest(oracleAddress, nonce, payment, encodedRequest) */\n      swap3\n      pop\n      pop\n      pop\n        /* \"@chainlink/contracts/src/v0.8/ChainlinkClient.sol\":3687:4443  function sendChainlinkRequestTo(... */\n      swap4\n      swap3\n      pop\n      pop\n      pop\n      jump\t// out\n        /* \"@chainlink/contracts/src/v0.8/ChainlinkClient.sol\":7575:7963  function cancelChainlinkRequest(... */\n    tag_110:\n        /* \"@chainlink/contracts/src/v0.8/ChainlinkClient.sol\":7719:7746  OperatorInterface requested */\n      0x00\n        /* \"@chainlink/contracts/src/v0.8/ChainlinkClient.sol\":7767:7784  s_pendingRequests */\n      0x05\n        /* \"@chainlink/contracts/src/v0.8/ChainlinkClient.sol\":7767:7795  s_pendingRequests[requestId] */\n      0x00\n        /* \"@chainlink/contracts/src/v0.8/ChainlinkClient.sol\":7785:7794  requestId */\n      dup7\n        /* \"@chainlink/contracts/src/v0.8/ChainlinkClient.sol\":7767:7795  s_pendingRequests[requestId] */\n      dup2\n      mstore\n      0x20\n      add\n      swap1\n      dup2\n      mstore\n      0x20\n      add\n      0x00\n      keccak256\n      0x00\n      swap1\n      sload\n      swap1\n      0x0100\n      exp\n      swap1\n      div\n      0xffffffffffffffffffffffffffffffffffffffff\n      and\n        /* \"@chainlink/contracts/src/v0.8/ChainlinkClient.sol\":7719:7796  OperatorInterface requested = OperatorInterface(s_pendingRequests[requestId]) */\n      swap1\n      pop\n        /* \"@chainlink/contracts/src/v0.8/ChainlinkClient.sol\":7809:7826  s_pendingRequests */\n      0x05\n        /* \"@chainlink/contracts/src/v0.8/ChainlinkClient.sol\":7809:7837  s_pendingRequests[requestId] */\n      0x00\n        /* \"@chainlink/contracts/src/v0.8/ChainlinkClient.sol\":7827:7836  requestId */\n      dup7\n        /* \"@chainlink/contracts/src/v0.8/ChainlinkClient.sol\":7809:7837  s_pendingRequests[requestId] */\n      dup2\n      mstore\n      0x20\n      add\n      swap1\n      dup2\n      mstore\n      0x20\n      add\n      0x00\n      keccak256\n      0x00\n        /* \"@chainlink/contracts/src/v0.8/ChainlinkClient.sol\":7802:7837  delete s_pendingRequests[requestId] */\n      0x0100\n      exp\n      dup2\n      sload\n      swap1\n      0xffffffffffffffffffffffffffffffffffffffff\n      mul\n      not\n      and\n      swap1\n      sstore\n        /* \"@chainlink/contracts/src/v0.8/ChainlinkClient.sol\":7867:7876  requestId */\n      dup5\n        /* \"@chainlink/contracts/src/v0.8/ChainlinkClient.sol\":7848:7877  ChainlinkCancelled(requestId) */\n      0xe1fe3afa0f7f761ff0a8b89086790efd5140d2907ebd5b7ff6bfcb5e075fd4c5\n      mload(0x40)\n      mload(0x40)\n      dup1\n      swap2\n      sub\n      swap1\n      log2\n        /* \"@chainlink/contracts/src/v0.8/ChainlinkClient.sol\":7883:7892  requested */\n      dup1\n        /* \"@chainlink/contracts/src/v0.8/ChainlinkClient.sol\":7883:7912  requested.cancelOracleRequest */\n      0xffffffffffffffffffffffffffffffffffffffff\n      and\n      0x6ee4d553\n        /* \"@chainlink/contracts/src/v0.8/ChainlinkClient.sol\":7913:7922  requestId */\n      dup7\n        /* \"@chainlink/contracts/src/v0.8/ChainlinkClient.sol\":7924:7931  payment */\n      dup7\n        /* \"@chainlink/contracts/src/v0.8/ChainlinkClient.sol\":7933:7945  callbackFunc */\n      dup7\n        /* \"@chainlink/contracts/src/v0.8/ChainlinkClient.sol\":7947:7957  expiration */\n      dup7\n        /* \"@chainlink/contracts/src/v0.8/ChainlinkClient.sol\":7883:7958  requested.cancelOracleRequest(requestId, payment, callbackFunc, expiration) */\n      mload(0x40)\n      dup6\n      0xffffffff\n      and\n      0xe0\n      shl\n      dup2\n      mstore\n      0x04\n      add\n      tag_145\n      swap5\n      swap4\n      swap3\n      swap2\n      swap1\n      tag_146\n      jump\t// in\n    tag_145:\n      0x00\n      mload(0x40)\n      dup1\n      dup4\n      sub\n      dup2\n      0x00\n      dup8\n      dup1\n      extcodesize\n      iszero\n      dup1\n      iszero\n      tag_147\n      jumpi\n      0x00\n      dup1\n      revert\n    tag_147:\n      pop\n      gas\n      call\n      iszero\n      dup1\n      iszero\n      tag_149\n      jumpi\n      returndatasize\n      0x00\n      dup1\n      returndatacopy\n      revert(0x00, returndatasize)\n    tag_149:\n      pop\n      pop\n      pop\n      pop\n        /* \"@chainlink/contracts/src/v0.8/ChainlinkClient.sol\":7713:7963  {... */\n      pop\n        /* \"@chainlink/contracts/src/v0.8/ChainlinkClient.sol\":7575:7963  function cancelChainlinkRequest(... */\n      pop\n      pop\n      pop\n      pop\n      jump\t// out\n        /* \"@chainlink/contracts/src/v0.8/ConfirmedOwnerWithProposal.sol\":1497:1685  function _transferOwnership(address to) private {... */\n    tag_115:\n        /* \"@chainlink/contracts/src/v0.8/ConfirmedOwnerWithProposal.sol\":1565:1575  msg.sender */\n      caller\n        /* \"@chainlink/contracts/src/v0.8/ConfirmedOwnerWithProposal.sol\":1559:1575  to != msg.sender */\n      0xffffffffffffffffffffffffffffffffffffffff\n      and\n        /* \"@chainlink/contracts/src/v0.8/ConfirmedOwnerWithProposal.sol\":1559:1561  to */\n      dup2\n        /* \"@chainlink/contracts/src/v0.8/ConfirmedOwnerWithProposal.sol\":1559:1575  to != msg.sender */\n      0xffffffffffffffffffffffffffffffffffffffff\n      and\n      eq\n      iszero\n        /* \"@chainlink/contracts/src/v0.8/ConfirmedOwnerWithProposal.sol\":1551:1603  require(to != msg.sender, \"Cannot transfer to self\") */\n      tag_151\n      jumpi\n      mload(0x40)\n      0x08c379a000000000000000000000000000000000000000000000000000000000\n      dup2\n      mstore\n      0x04\n      add\n      tag_152\n      swap1\n      tag_153\n      jump\t// in\n    tag_152:\n      mload(0x40)\n      dup1\n      swap2\n      sub\n      swap1\n      revert\n    tag_151:\n        /* \"@chainlink/contracts/src/v0.8/ConfirmedOwnerWithProposal.sol\":1627:1629  to */\n      dup1\n        /* \"@chainlink/contracts/src/v0.8/ConfirmedOwnerWithProposal.sol\":1610:1624  s_pendingOwner */\n      0x07\n      0x00\n        /* \"@chainlink/contracts/src/v0.8/ConfirmedOwnerWithProposal.sol\":1610:1629  s_pendingOwner = to */\n      0x0100\n      exp\n      dup2\n      sload\n      dup2\n      0xffffffffffffffffffffffffffffffffffffffff\n      mul\n      not\n      and\n      swap1\n      dup4\n      0xffffffffffffffffffffffffffffffffffffffff\n      and\n      mul\n      or\n      swap1\n      sstore\n      pop\n        /* \"@chainlink/contracts/src/v0.8/ConfirmedOwnerWithProposal.sol\":1677:1679  to */\n      dup1\n        /* \"@chainlink/contracts/src/v0.8/ConfirmedOwnerWithProposal.sol\":1641:1680  OwnershipTransferRequested(s_owner, to) */\n      0xffffffffffffffffffffffffffffffffffffffff\n      and\n        /* \"@chainlink/contracts/src/v0.8/ConfirmedOwnerWithProposal.sol\":1668:1675  s_owner */\n      0x06\n      0x00\n      swap1\n      sload\n      swap1\n      0x0100\n      exp\n      swap1\n      div\n      0xffffffffffffffffffffffffffffffffffffffff\n      and\n        /* \"@chainlink/contracts/src/v0.8/ConfirmedOwnerWithProposal.sol\":1641:1680  OwnershipTransferRequested(s_owner, to) */\n      0xffffffffffffffffffffffffffffffffffffffff\n      and\n      0xed8889f560326eb138920d842192f0eb3dd22b4f139c87a2c57538e05bae1278\n      mload(0x40)\n      mload(0x40)\n      dup1\n      swap2\n      sub\n      swap1\n      log3\n        /* \"@chainlink/contracts/src/v0.8/ConfirmedOwnerWithProposal.sol\":1497:1685  function _transferOwnership(address to) private {... */\n      pop\n      jump\t// out\n        /* \"@chainlink/contracts/src/v0.8/Chainlink.sol\":987:1338  function initialize(... */\n    tag_128:\n        /* \"@chainlink/contracts/src/v0.8/Chainlink.sol\":1129:1153  Chainlink.Request memory */\n      tag_154\n      tag_124\n      jump\t// in\n    tag_154:\n        /* \"@chainlink/contracts/src/v0.8/Chainlink.sol\":1161:1210  BufferChainlink.init(self.buf, defaultBufferSize) */\n      tag_156\n        /* \"@chainlink/contracts/src/v0.8/Chainlink.sol\":1182:1186  self */\n      dup6\n        /* \"@chainlink/contracts/src/v0.8/Chainlink.sol\":1182:1190  self.buf */\n      0x80\n      add\n      mload\n        /* \"@chainlink/contracts/src/v0.8/Chainlink.sol\":361:364  256 */\n      0x0100\n        /* \"@chainlink/contracts/src/v0.8/Chainlink.sol\":1161:1181  BufferChainlink.init */\n      tag_157\n        /* \"@chainlink/contracts/src/v0.8/Chainlink.sol\":1161:1210  BufferChainlink.init(self.buf, defaultBufferSize) */\n      jump\t// in\n    tag_156:\n      pop\n        /* \"@chainlink/contracts/src/v0.8/Chainlink.sol\":1226:1231  jobId */\n      dup4\n        /* \"@chainlink/contracts/src/v0.8/Chainlink.sol\":1216:1220  self */\n      dup6\n        /* \"@chainlink/contracts/src/v0.8/Chainlink.sol\":1216:1223  self.id */\n      0x00\n      add\n        /* \"@chainlink/contracts/src/v0.8/Chainlink.sol\":1216:1231  self.id = jobId */\n      dup2\n      dup2\n      mstore\n      pop\n      pop\n        /* \"@chainlink/contracts/src/v0.8/Chainlink.sol\":1260:1272  callbackAddr */\n      dup3\n        /* \"@chainlink/contracts/src/v0.8/Chainlink.sol\":1237:1241  self */\n      dup6\n        /* \"@chainlink/contracts/src/v0.8/Chainlink.sol\":1237:1257  self.callbackAddress */\n      0x20\n      add\n        /* \"@chainlink/contracts/src/v0.8/Chainlink.sol\":1237:1272  self.callbackAddress = callbackAddr */\n      swap1\n      0xffffffffffffffffffffffffffffffffffffffff\n      and\n      swap1\n      dup2\n      0xffffffffffffffffffffffffffffffffffffffff\n      and\n      dup2\n      mstore\n      pop\n      pop\n        /* \"@chainlink/contracts/src/v0.8/Chainlink.sol\":1304:1316  callbackFunc */\n      dup2\n        /* \"@chainlink/contracts/src/v0.8/Chainlink.sol\":1278:1282  self */\n      dup6\n        /* \"@chainlink/contracts/src/v0.8/Chainlink.sol\":1278:1301  self.callbackFunctionId */\n      0x40\n      add\n        /* \"@chainlink/contracts/src/v0.8/Chainlink.sol\":1278:1316  self.callbackFunctionId = callbackFunc */\n      swap1\n      not(0xffffffffffffffffffffffffffffffffffffffffffffffffffffffff)\n      and\n      swap1\n      dup2\n      not(0xffffffffffffffffffffffffffffffffffffffffffffffffffffffff)\n      and\n      dup2\n      mstore\n      pop\n      pop\n        /* \"@chainlink/contracts/src/v0.8/Chainlink.sol\":1329:1333  self */\n      dup5\n        /* \"@chainlink/contracts/src/v0.8/Chainlink.sol\":1322:1333  return self */\n      swap1\n      pop\n        /* \"@chainlink/contracts/src/v0.8/Chainlink.sol\":987:1338  function initialize(... */\n      swap5\n      swap4\n      pop\n      pop\n      pop\n      pop\n      jump\t// out\n        /* \"@chainlink/contracts/src/v0.8/vendor/CBORChainlink.sol\":2777:2981  function encodeString(BufferChainlink.buffer memory buf, string memory value) internal pure {... */\n    tag_131:\n        /* \"@chainlink/contracts/src/v0.8/vendor/CBORChainlink.sol\":2875:2946  encodeFixedNumeric(buf, MAJOR_TYPE_STRING, uint64(bytes(value).length)) */\n      tag_159\n        /* \"@chainlink/contracts/src/v0.8/vendor/CBORChainlink.sol\":2894:2897  buf */\n      dup3\n        /* \"@chainlink/contracts/src/v0.8/vendor/CBORChainlink.sol\":383:384  3 */\n      0x03\n        /* \"@chainlink/contracts/src/v0.8/vendor/CBORChainlink.sol\":2931:2936  value */\n      dup4\n        /* \"@chainlink/contracts/src/v0.8/vendor/CBORChainlink.sol\":2925:2944  bytes(value).length */\n      mload\n        /* \"@chainlink/contracts/src/v0.8/vendor/CBORChainlink.sol\":2875:2893  encodeFixedNumeric */\n      tag_160\n        /* \"@chainlink/contracts/src/v0.8/vendor/CBORChainlink.sol\":2875:2946  encodeFixedNumeric(buf, MAJOR_TYPE_STRING, uint64(bytes(value).length)) */\n      jump\t// in\n    tag_159:\n        /* \"@chainlink/contracts/src/v0.8/vendor/CBORChainlink.sol\":2952:2976  buf.append(bytes(value)) */\n      tag_161\n        /* \"@chainlink/contracts/src/v0.8/vendor/CBORChainlink.sol\":2969:2974  value */\n      dup2\n        /* \"@chainlink/contracts/src/v0.8/vendor/CBORChainlink.sol\":2952:2955  buf */\n      dup4\n        /* \"@chainlink/contracts/src/v0.8/vendor/CBORChainlink.sol\":2952:2962  buf.append */\n      tag_162\n      swap1\n        /* \"@chainlink/contracts/src/v0.8/vendor/CBORChainlink.sol\":2952:2976  buf.append(bytes(value)) */\n      swap2\n      swap1\n      0xffffffff\n      and\n      jump\t// in\n    tag_161:\n      pop\n        /* \"@chainlink/contracts/src/v0.8/vendor/CBORChainlink.sol\":2777:2981  function encodeString(BufferChainlink.buffer memory buf, string memory value) internal pure {... */\n      pop\n      pop\n      jump\t// out\n        /* \"@chainlink/contracts/src/v0.8/vendor/CBORChainlink.sol\":1704:2150  function encodeInt(BufferChainlink.buffer memory buf, int value) internal pure {... */\n    tag_136:\n        /* \"@chainlink/contracts/src/v0.8/vendor/CBORChainlink.sol\":1800:1820  -0x10000000000000000 */\n      0xffffffffffffffffffffffffffffffffffffffffffffffff0000000000000000\n        /* \"@chainlink/contracts/src/v0.8/vendor/CBORChainlink.sol\":1792:1797  value */\n      dup2\n        /* \"@chainlink/contracts/src/v0.8/vendor/CBORChainlink.sol\":1792:1820  value < -0x10000000000000000 */\n      slt\n        /* \"@chainlink/contracts/src/v0.8/vendor/CBORChainlink.sol\":1789:2146  if(value < -0x10000000000000000) {... */\n      iszero\n      tag_164\n      jumpi\n        /* \"@chainlink/contracts/src/v0.8/vendor/CBORChainlink.sol\":1830:1860  encodeSignedBigNum(buf, value) */\n      tag_165\n        /* \"@chainlink/contracts/src/v0.8/vendor/CBORChainlink.sol\":1849:1852  buf */\n      dup3\n        /* \"@chainlink/contracts/src/v0.8/vendor/CBORChainlink.sol\":1854:1859  value */\n      dup3\n        /* \"@chainlink/contracts/src/v0.8/vendor/CBORChainlink.sol\":1830:1848  encodeSignedBigNum */\n      tag_166\n        /* \"@chainlink/contracts/src/v0.8/vendor/CBORChainlink.sol\":1830:1860  encodeSignedBigNum(buf, value) */\n      jump\t// in\n    tag_165:\n        /* \"@chainlink/contracts/src/v0.8/vendor/CBORChainlink.sol\":1789:2146  if(value < -0x10000000000000000) {... */\n      jump(tag_167)\n    tag_164:\n        /* \"@chainlink/contracts/src/v0.8/vendor/CBORChainlink.sol\":1884:1902  0xFFFFFFFFFFFFFFFF */\n      0xffffffffffffffff\n        /* \"@chainlink/contracts/src/v0.8/vendor/CBORChainlink.sol\":1876:1881  value */\n      dup2\n        /* \"@chainlink/contracts/src/v0.8/vendor/CBORChainlink.sol\":1876:1902  value > 0xFFFFFFFFFFFFFFFF */\n      sgt\n        /* \"@chainlink/contracts/src/v0.8/vendor/CBORChainlink.sol\":1873:2146  if(value > 0xFFFFFFFFFFFFFFFF) {... */\n      iszero\n      tag_168\n      jumpi\n        /* \"@chainlink/contracts/src/v0.8/vendor/CBORChainlink.sol\":1912:1942  encodeBigNum(buf, uint(value)) */\n      tag_169\n        /* \"@chainlink/contracts/src/v0.8/vendor/CBORChainlink.sol\":1925:1928  buf */\n      dup3\n        /* \"@chainlink/contracts/src/v0.8/vendor/CBORChainlink.sol\":1935:1940  value */\n      dup3\n        /* \"@chainlink/contracts/src/v0.8/vendor/CBORChainlink.sol\":1912:1924  encodeBigNum */\n      tag_170\n        /* \"@chainlink/contracts/src/v0.8/vendor/CBORChainlink.sol\":1912:1942  encodeBigNum(buf, uint(value)) */\n      jump\t// in\n    tag_169:\n        /* \"@chainlink/contracts/src/v0.8/vendor/CBORChainlink.sol\":1873:2146  if(value > 0xFFFFFFFFFFFFFFFF) {... */\n      jump(tag_171)\n    tag_168:\n        /* \"@chainlink/contracts/src/v0.8/vendor/CBORChainlink.sol\":1967:1968  0 */\n      0x00\n        /* \"@chainlink/contracts/src/v0.8/vendor/CBORChainlink.sol\":1958:1963  value */\n      dup2\n        /* \"@chainlink/contracts/src/v0.8/vendor/CBORChainlink.sol\":1958:1968  value >= 0 */\n      slt\n        /* \"@chainlink/contracts/src/v0.8/vendor/CBORChainlink.sol\":1955:2146  if(value >= 0) {... */\n      tag_172\n      jumpi\n        /* \"@chainlink/contracts/src/v0.8/vendor/CBORChainlink.sol\":1978:2041  encodeFixedNumeric(buf, MAJOR_TYPE_INT, uint64(uint256(value))) */\n      tag_173\n        /* \"@chainlink/contracts/src/v0.8/vendor/CBORChainlink.sol\":1997:2000  buf */\n      dup3\n        /* \"@chainlink/contracts/src/v0.8/vendor/CBORChainlink.sol\":234:235  0 */\n      0x00\n        /* \"@chainlink/contracts/src/v0.8/vendor/CBORChainlink.sol\":2033:2038  value */\n      dup4\n        /* \"@chainlink/contracts/src/v0.8/vendor/CBORChainlink.sol\":1978:1996  encodeFixedNumeric */\n      tag_160\n        /* \"@chainlink/contracts/src/v0.8/vendor/CBORChainlink.sol\":1978:2041  encodeFixedNumeric(buf, MAJOR_TYPE_INT, uint64(uint256(value))) */\n      jump\t// in\n    tag_173:\n        /* \"@chainlink/contracts/src/v0.8/vendor/CBORChainlink.sol\":1955:2146  if(value >= 0) {... */\n      jump(tag_174)\n    tag_172:\n        /* \"@chainlink/contracts/src/v0.8/vendor/CBORChainlink.sol\":2062:2139  encodeFixedNumeric(buf, MAJOR_TYPE_NEGATIVE_INT, uint64(uint256(-1 - value))) */\n      tag_175\n        /* \"@chainlink/contracts/src/v0.8/vendor/CBORChainlink.sol\":2081:2084  buf */\n      dup3\n        /* \"@chainlink/contracts/src/v0.8/vendor/CBORChainlink.sol\":288:289  1 */\n      0x01\n        /* \"@chainlink/contracts/src/v0.8/vendor/CBORChainlink.sol\":2131:2136  value */\n      dup4\n        /* \"@chainlink/contracts/src/v0.8/vendor/CBORChainlink.sol\":2126:2128  -1 */\n      0xffffffffffffffffffffffffffffffffffffffffffffffffffffffffffffffff\n        /* \"@chainlink/contracts/src/v0.8/vendor/CBORChainlink.sol\":2126:2136  -1 - value */\n      tag_176\n      swap2\n      swap1\n      tag_177\n      jump\t// in\n    tag_176:\n        /* \"@chainlink/contracts/src/v0.8/vendor/CBORChainlink.sol\":2062:2080  encodeFixedNumeric */\n      tag_160\n        /* \"@chainlink/contracts/src/v0.8/vendor/CBORChainlink.sol\":2062:2139  encodeFixedNumeric(buf, MAJOR_TYPE_NEGATIVE_INT, uint64(uint256(-1 - value))) */\n      jump\t// in\n    tag_175:\n        /* \"@chainlink/contracts/src/v0.8/vendor/CBORChainlink.sol\":1955:2146  if(value >= 0) {... */\n    tag_174:\n        /* \"@chainlink/contracts/src/v0.8/vendor/CBORChainlink.sol\":1873:2146  if(value > 0xFFFFFFFFFFFFFFFF) {... */\n    tag_171:\n        /* \"@chainlink/contracts/src/v0.8/vendor/CBORChainlink.sol\":1789:2146  if(value < -0x10000000000000000) {... */\n    tag_167:\n        /* \"@chainlink/contracts/src/v0.8/vendor/CBORChainlink.sol\":1704:2150  function encodeInt(BufferChainlink.buffer memory buf, int value) internal pure {... */\n      pop\n      pop\n      jump\t// out\n        /* \"@chainlink/contracts/src/v0.8/ChainlinkClient.sol\":6629:7059  function _rawRequest(... */\n    tag_143:\n        /* \"@chainlink/contracts/src/v0.8/ChainlinkClient.sol\":6771:6788  bytes32 requestId */\n      0x00\n        /* \"@chainlink/contracts/src/v0.8/ChainlinkClient.sol\":6835:6839  this */\n      address\n        /* \"@chainlink/contracts/src/v0.8/ChainlinkClient.sol\":6841:6846  nonce */\n      dup5\n        /* \"@chainlink/contracts/src/v0.8/ChainlinkClient.sol\":6818:6847  abi.encodePacked(this, nonce) */\n      add(0x20, mload(0x40))\n      tag_179\n      swap3\n      swap2\n      swap1\n      tag_180\n      jump\t// in\n    tag_179:\n      mload(0x40)\n      0x20\n      dup2\n      dup4\n      sub\n      sub\n      dup2\n      mstore\n      swap1\n      0x40\n      mstore\n        /* \"@chainlink/contracts/src/v0.8/ChainlinkClient.sol\":6808:6848  keccak256(abi.encodePacked(this, nonce)) */\n      dup1\n      mload\n      swap1\n      0x20\n      add\n      keccak256\n        /* \"@chainlink/contracts/src/v0.8/ChainlinkClient.sol\":6796:6848  requestId = keccak256(abi.encodePacked(this, nonce)) */\n      swap1\n      pop\n        /* \"@chainlink/contracts/src/v0.8/ChainlinkClient.sol\":6885:6898  oracleAddress */\n      dup5\n        /* \"@chainlink/contracts/src/v0.8/ChainlinkClient.sol\":6854:6871  s_pendingRequests */\n      0x05\n        /* \"@chainlink/contracts/src/v0.8/ChainlinkClient.sol\":6854:6882  s_pendingRequests[requestId] */\n      0x00\n        /* \"@chainlink/contracts/src/v0.8/ChainlinkClient.sol\":6872:6881  requestId */\n      dup4\n        /* \"@chainlink/contracts/src/v0.8/ChainlinkClient.sol\":6854:6882  s_pendingRequests[requestId] */\n      dup2\n      mstore\n      0x20\n      add\n      swap1\n      dup2\n      mstore\n      0x20\n      add\n      0x00\n      keccak256\n      0x00\n        /* \"@chainlink/contracts/src/v0.8/ChainlinkClient.sol\":6854:6898  s_pendingRequests[requestId] = oracleAddress */\n      0x0100\n      exp\n      dup2\n      sload\n      dup2\n      0xffffffffffffffffffffffffffffffffffffffff\n      mul\n      not\n      and\n      swap1\n      dup4\n      0xffffffffffffffffffffffffffffffffffffffff\n      and\n      mul\n      or\n      swap1\n      sstore\n      pop\n        /* \"@chainlink/contracts/src/v0.8/ChainlinkClient.sol\":6928:6937  requestId */\n      dup1\n        /* \"@chainlink/contracts/src/v0.8/ChainlinkClient.sol\":6909:6938  ChainlinkRequested(requestId) */\n      0xb5e6e01e79f91267dc17b4e6314d5d4d03593d2ceee0fbb452b750bd70ea5af9\n      mload(0x40)\n      mload(0x40)\n      dup1\n      swap2\n      sub\n      swap1\n      log2\n        /* \"@chainlink/contracts/src/v0.8/ChainlinkClient.sol\":6952:6958  s_link */\n      0x02\n      0x00\n      swap1\n      sload\n      swap1\n      0x0100\n      exp\n      swap1\n      div\n      0xffffffffffffffffffffffffffffffffffffffff\n      and\n        /* \"@chainlink/contracts/src/v0.8/ChainlinkClient.sol\":6952:6974  s_link.transferAndCall */\n      0xffffffffffffffffffffffffffffffffffffffff\n      and\n      0x4000aea0\n        /* \"@chainlink/contracts/src/v0.8/ChainlinkClient.sol\":6975:6988  oracleAddress */\n      dup7\n        /* \"@chainlink/contracts/src/v0.8/ChainlinkClient.sol\":6990:6997  payment */\n      dup6\n        /* \"@chainlink/contracts/src/v0.8/ChainlinkClient.sol\":6999:7013  encodedRequest */\n      dup6\n        /* \"@chainlink/contracts/src/v0.8/ChainlinkClient.sol\":6952:7014  s_link.transferAndCall(oracleAddress, payment, encodedRequest) */\n      mload(0x40)\n      dup5\n      0xffffffff\n      and\n      0xe0\n      shl\n      dup2\n      mstore\n      0x04\n      add\n      tag_181\n      swap4\n      swap3\n      swap2\n      swap1\n      tag_182\n      jump\t// in\n    tag_181:\n      0x20\n      mload(0x40)\n      dup1\n      dup4\n      sub\n      dup2\n      0x00\n      dup8\n      dup1\n      extcodesize\n      iszero\n      dup1\n      iszero\n      tag_183\n      jumpi\n      0x00\n      dup1\n      revert\n    tag_183:\n      pop\n      gas\n      call\n      iszero\n      dup1\n      iszero\n      tag_185\n      jumpi\n      returndatasize\n      0x00\n      dup1\n      returndatacopy\n      revert(0x00, returndatasize)\n    tag_185:\n      pop\n      pop\n      pop\n      pop\n      mload(0x40)\n      returndatasize\n      not(0x1f)\n      0x1f\n      dup3\n      add\n      and\n      dup3\n      add\n      dup1\n      0x40\n      mstore\n      pop\n      dup2\n      add\n      swap1\n      tag_186\n      swap2\n      swap1\n      tag_102\n      jump\t// in\n    tag_186:\n        /* \"@chainlink/contracts/src/v0.8/ChainlinkClient.sol\":6944:7054  require(s_link.transferAndCall(oracleAddress, payment, encodedRequest), \"unable to transferAndCall to oracle\") */\n      tag_187\n      jumpi\n      mload(0x40)\n      0x08c379a000000000000000000000000000000000000000000000000000000000\n      dup2\n      mstore\n      0x04\n      add\n      tag_188\n      swap1\n      tag_189\n      jump\t// in\n    tag_188:\n      mload(0x40)\n      dup1\n      swap2\n      sub\n      swap1\n      revert\n    tag_187:\n        /* \"@chainlink/contracts/src/v0.8/ChainlinkClient.sol\":6629:7059  function _rawRequest(... */\n      swap5\n      swap4\n      pop\n      pop\n      pop\n      pop\n      jump\t// out\n        /* \"@chainlink/contracts/src/v0.8/vendor/BufferChainlink.sol\":1001:1400  function init(buffer memory buf, uint256 capacity) internal pure returns (buffer memory) {... */\n    tag_157:\n        /* \"@chainlink/contracts/src/v0.8/vendor/BufferChainlink.sol\":1075:1088  buffer memory */\n      tag_190\n      tag_191\n      jump\t// in\n    tag_190:\n        /* \"@chainlink/contracts/src/v0.8/vendor/BufferChainlink.sol\":1117:1118  0 */\n      0x00\n        /* \"@chainlink/contracts/src/v0.8/vendor/BufferChainlink.sol\":1111:1113  32 */\n      0x20\n        /* \"@chainlink/contracts/src/v0.8/vendor/BufferChainlink.sol\":1100:1108  capacity */\n      dup4\n        /* \"@chainlink/contracts/src/v0.8/vendor/BufferChainlink.sol\":1100:1113  capacity % 32 */\n      tag_193\n      swap2\n      swap1\n      tag_194\n      jump\t// in\n    tag_193:\n        /* \"@chainlink/contracts/src/v0.8/vendor/BufferChainlink.sol\":1100:1118  capacity % 32 != 0 */\n      eq\n        /* \"@chainlink/contracts/src/v0.8/vendor/BufferChainlink.sol\":1096:1167  if (capacity % 32 != 0) {... */\n      tag_195\n      jumpi\n        /* \"@chainlink/contracts/src/v0.8/vendor/BufferChainlink.sol\":1157:1159  32 */\n      0x20\n        /* \"@chainlink/contracts/src/v0.8/vendor/BufferChainlink.sol\":1146:1154  capacity */\n      dup3\n        /* \"@chainlink/contracts/src/v0.8/vendor/BufferChainlink.sol\":1146:1159  capacity % 32 */\n      tag_196\n      swap2\n      swap1\n      tag_194\n      jump\t// in\n    tag_196:\n        /* \"@chainlink/contracts/src/v0.8/vendor/BufferChainlink.sol\":1140:1142  32 */\n      0x20\n        /* \"@chainlink/contracts/src/v0.8/vendor/BufferChainlink.sol\":1140:1160  32 - (capacity % 32) */\n      tag_197\n      swap2\n      swap1\n      tag_198\n      jump\t// in\n    tag_197:\n        /* \"@chainlink/contracts/src/v0.8/vendor/BufferChainlink.sol\":1128:1160  capacity += 32 - (capacity % 32) */\n      dup3\n      tag_199\n      swap2\n      swap1\n      tag_139\n      jump\t// in\n    tag_199:\n      swap2\n      pop\n        /* \"@chainlink/contracts/src/v0.8/vendor/BufferChainlink.sol\":1096:1167  if (capacity % 32 != 0) {... */\n    tag_195:\n        /* \"@chainlink/contracts/src/v0.8/vendor/BufferChainlink.sol\":1229:1237  capacity */\n      dup2\n        /* \"@chainlink/contracts/src/v0.8/vendor/BufferChainlink.sol\":1214:1217  buf */\n      dup4\n        /* \"@chainlink/contracts/src/v0.8/vendor/BufferChainlink.sol\":1214:1226  buf.capacity */\n      0x20\n      add\n        /* \"@chainlink/contracts/src/v0.8/vendor/BufferChainlink.sol\":1214:1237  buf.capacity = capacity */\n      dup2\n      dup2\n      mstore\n      pop\n      pop\n        /* \"@chainlink/contracts/src/v0.8/vendor/BufferChainlink.sol\":1277:1281  0x40 */\n      0x40\n        /* \"@chainlink/contracts/src/v0.8/vendor/BufferChainlink.sol\":1271:1282  mload(0x40) */\n      mload\n        /* \"@chainlink/contracts/src/v0.8/vendor/BufferChainlink.sol\":1301:1304  ptr */\n      dup1\n        /* \"@chainlink/contracts/src/v0.8/vendor/BufferChainlink.sol\":1296:1299  buf */\n      dup5\n        /* \"@chainlink/contracts/src/v0.8/vendor/BufferChainlink.sol\":1289:1305  mstore(buf, ptr) */\n      mstore\n        /* \"@chainlink/contracts/src/v0.8/vendor/BufferChainlink.sol\":1324:1325  0 */\n      0x00\n        /* \"@chainlink/contracts/src/v0.8/vendor/BufferChainlink.sol\":1319:1322  ptr */\n      dup2\n        /* \"@chainlink/contracts/src/v0.8/vendor/BufferChainlink.sol\":1312:1326  mstore(ptr, 0) */\n      mstore\n        /* \"@chainlink/contracts/src/v0.8/vendor/BufferChainlink.sol\":1363:1371  capacity */\n      dup3\n        /* \"@chainlink/contracts/src/v0.8/vendor/BufferChainlink.sol\":1358:1361  ptr */\n      dup2\n        /* \"@chainlink/contracts/src/v0.8/vendor/BufferChainlink.sol\":1354:1372  add(ptr, capacity) */\n      add\n        /* \"@chainlink/contracts/src/v0.8/vendor/BufferChainlink.sol\":1350:1352  32 */\n      0x20\n        /* \"@chainlink/contracts/src/v0.8/vendor/BufferChainlink.sol\":1346:1373  add(32, add(ptr, capacity)) */\n      add\n        /* \"@chainlink/contracts/src/v0.8/vendor/BufferChainlink.sol\":1340:1344  0x40 */\n      0x40\n        /* \"@chainlink/contracts/src/v0.8/vendor/BufferChainlink.sol\":1333:1374  mstore(0x40, add(32, add(ptr, capacity))) */\n      mstore\n        /* \"@chainlink/contracts/src/v0.8/vendor/BufferChainlink.sol\":1252:1380  {... */\n      pop\n        /* \"@chainlink/contracts/src/v0.8/vendor/BufferChainlink.sol\":1392:1395  buf */\n      dup3\n        /* \"@chainlink/contracts/src/v0.8/vendor/BufferChainlink.sol\":1385:1395  return buf */\n      swap1\n      pop\n        /* \"@chainlink/contracts/src/v0.8/vendor/BufferChainlink.sol\":1001:1400  function init(buffer memory buf, uint256 capacity) internal pure returns (buffer memory) {... */\n      swap3\n      swap2\n      pop\n      pop\n      jump\t// out\n        /* \"@chainlink/contracts/src/v0.8/vendor/CBORChainlink.sol\":682:1307  function encodeFixedNumeric(BufferChainlink.buffer memory buf, uint8 major, uint64 value) private pure {... */\n    tag_160:\n        /* \"@chainlink/contracts/src/v0.8/vendor/CBORChainlink.sol\":803:805  23 */\n      0x17\n        /* \"@chainlink/contracts/src/v0.8/vendor/CBORChainlink.sol\":794:799  value */\n      dup2\n        /* \"@chainlink/contracts/src/v0.8/vendor/CBORChainlink.sol\":794:805  value <= 23 */\n      0xffffffffffffffff\n      and\n      gt\n        /* \"@chainlink/contracts/src/v0.8/vendor/CBORChainlink.sol\":791:1303  if(value <= 23) {... */\n      tag_201\n      jumpi\n        /* \"@chainlink/contracts/src/v0.8/vendor/CBORChainlink.sol\":815:859  buf.appendUint8(uint8((major << 5) | value)) */\n      tag_202\n        /* \"@chainlink/contracts/src/v0.8/vendor/CBORChainlink.sol\":852:857  value */\n      dup2\n        /* \"@chainlink/contracts/src/v0.8/vendor/CBORChainlink.sol\":847:848  5 */\n      0x05\n        /* \"@chainlink/contracts/src/v0.8/vendor/CBORChainlink.sol\":838:843  major */\n      dup5\n        /* \"@chainlink/contracts/src/v0.8/vendor/CBORChainlink.sol\":838:848  major << 5 */\n      0xff\n      and\n      swap1\n      shl\n        /* \"@chainlink/contracts/src/v0.8/vendor/CBORChainlink.sol\":837:857  (major << 5) | value */\n      0xff\n      and\n      or\n        /* \"@chainlink/contracts/src/v0.8/vendor/CBORChainlink.sol\":815:818  buf */\n      dup5\n        /* \"@chainlink/contracts/src/v0.8/vendor/CBORChainlink.sol\":815:830  buf.appendUint8 */\n      tag_203\n      swap1\n        /* \"@chainlink/contracts/src/v0.8/vendor/CBORChainlink.sol\":815:859  buf.appendUint8(uint8((major << 5) | value)) */\n      swap2\n      swap1\n      0xffffffff\n      and\n      jump\t// in\n    tag_202:\n      pop\n        /* \"@chainlink/contracts/src/v0.8/vendor/CBORChainlink.sol\":791:1303  if(value <= 23) {... */\n      jump(tag_204)\n    tag_201:\n        /* \"@chainlink/contracts/src/v0.8/vendor/CBORChainlink.sol\":885:889  0xFF */\n      0xff\n        /* \"@chainlink/contracts/src/v0.8/vendor/CBORChainlink.sol\":876:881  value */\n      dup2\n        /* \"@chainlink/contracts/src/v0.8/vendor/CBORChainlink.sol\":876:889  value <= 0xFF */\n      0xffffffffffffffff\n      and\n      gt\n        /* \"@chainlink/contracts/src/v0.8/vendor/CBORChainlink.sol\":872:1303  if (value <= 0xFF) {... */\n      tag_205\n      jumpi\n        /* \"@chainlink/contracts/src/v0.8/vendor/CBORChainlink.sol\":899:940  buf.appendUint8(uint8((major << 5) | 24)) */\n      tag_206\n        /* \"@chainlink/contracts/src/v0.8/vendor/CBORChainlink.sol\":936:938  24 */\n      0x18\n        /* \"@chainlink/contracts/src/v0.8/vendor/CBORChainlink.sol\":931:932  5 */\n      0x05\n        /* \"@chainlink/contracts/src/v0.8/vendor/CBORChainlink.sol\":922:927  major */\n      dup5\n        /* \"@chainlink/contracts/src/v0.8/vendor/CBORChainlink.sol\":922:932  major << 5 */\n      0xff\n      and\n      swap1\n      shl\n        /* \"@chainlink/contracts/src/v0.8/vendor/CBORChainlink.sol\":921:938  (major << 5) | 24 */\n      or\n        /* \"@chainlink/contracts/src/v0.8/vendor/CBORChainlink.sol\":899:902  buf */\n      dup5\n        /* \"@chainlink/contracts/src/v0.8/vendor/CBORChainlink.sol\":899:914  buf.appendUint8 */\n      tag_203\n      swap1\n        /* \"@chainlink/contracts/src/v0.8/vendor/CBORChainlink.sol\":899:940  buf.appendUint8(uint8((major << 5) | 24)) */\n      swap2\n      swap1\n      0xffffffff\n      and\n      jump\t// in\n    tag_206:\n      pop\n        /* \"@chainlink/contracts/src/v0.8/vendor/CBORChainlink.sol\":948:971  buf.appendInt(value, 1) */\n      tag_207\n        /* \"@chainlink/contracts/src/v0.8/vendor/CBORChainlink.sol\":962:967  value */\n      dup2\n        /* \"@chainlink/contracts/src/v0.8/vendor/CBORChainlink.sol\":948:971  buf.appendInt(value, 1) */\n      0xffffffffffffffff\n      and\n        /* \"@chainlink/contracts/src/v0.8/vendor/CBORChainlink.sol\":969:970  1 */\n      0x01\n        /* \"@chainlink/contracts/src/v0.8/vendor/CBORChainlink.sol\":948:951  buf */\n      dup6\n        /* \"@chainlink/contracts/src/v0.8/vendor/CBORChainlink.sol\":948:961  buf.appendInt */\n      tag_208\n      swap1\n        /* \"@chainlink/contracts/src/v0.8/vendor/CBORChainlink.sol\":948:971  buf.appendInt(value, 1) */\n      swap3\n      swap2\n      swap1\n      0xffffffff\n      and\n      jump\t// in\n    tag_207:\n      pop\n        /* \"@chainlink/contracts/src/v0.8/vendor/CBORChainlink.sol\":872:1303  if (value <= 0xFF) {... */\n      jump(tag_209)\n    tag_205:\n        /* \"@chainlink/contracts/src/v0.8/vendor/CBORChainlink.sol\":997:1003  0xFFFF */\n      0xffff\n        /* \"@chainlink/contracts/src/v0.8/vendor/CBORChainlink.sol\":988:993  value */\n      dup2\n        /* \"@chainlink/contracts/src/v0.8/vendor/CBORChainlink.sol\":988:1003  value <= 0xFFFF */\n      0xffffffffffffffff\n      and\n      gt\n        /* \"@chainlink/contracts/src/v0.8/vendor/CBORChainlink.sol\":984:1303  if (value <= 0xFFFF) {... */\n      tag_210\n      jumpi\n        /* \"@chainlink/contracts/src/v0.8/vendor/CBORChainlink.sol\":1013:1054  buf.appendUint8(uint8((major << 5) | 25)) */\n      tag_211\n        /* \"@chainlink/contracts/src/v0.8/vendor/CBORChainlink.sol\":1050:1052  25 */\n      0x19\n        /* \"@chainlink/contracts/src/v0.8/vendor/CBORChainlink.sol\":1045:1046  5 */\n      0x05\n        /* \"@chainlink/contracts/src/v0.8/vendor/CBORChainlink.sol\":1036:1041  major */\n      dup5\n        /* \"@chainlink/contracts/src/v0.8/vendor/CBORChainlink.sol\":1036:1046  major << 5 */\n      0xff\n      and\n      swap1\n      shl\n        /* \"@chainlink/contracts/src/v0.8/vendor/CBORChainlink.sol\":1035:1052  (major << 5) | 25 */\n      or\n        /* \"@chainlink/contracts/src/v0.8/vendor/CBORChainlink.sol\":1013:1016  buf */\n      dup5\n        /* \"@chainlink/contracts/src/v0.8/vendor/CBORChainlink.sol\":1013:1028  buf.appendUint8 */\n      tag_203\n      swap1\n        /* \"@chainlink/contracts/src/v0.8/vendor/CBORChainlink.sol\":1013:1054  buf.appendUint8(uint8((major << 5) | 25)) */\n      swap2\n      swap1\n      0xffffffff\n      and\n      jump\t// in\n    tag_211:\n      pop\n        /* \"@chainlink/contracts/src/v0.8/vendor/CBORChainlink.sol\":1062:1085  buf.appendInt(value, 2) */\n      tag_212\n        /* \"@chainlink/contracts/src/v0.8/vendor/CBORChainlink.sol\":1076:1081  value */\n      dup2\n        /* \"@chainlink/contracts/src/v0.8/vendor/CBORChainlink.sol\":1062:1085  buf.appendInt(value, 2) */\n      0xffffffffffffffff\n      and\n        /* \"@chainlink/contracts/src/v0.8/vendor/CBORChainlink.sol\":1083:1084  2 */\n      0x02\n        /* \"@chainlink/contracts/src/v0.8/vendor/CBORChainlink.sol\":1062:1065  buf */\n      dup6\n        /* \"@chainlink/contracts/src/v0.8/vendor/CBORChainlink.sol\":1062:1075  buf.appendInt */\n      tag_208\n      swap1\n        /* \"@chainlink/contracts/src/v0.8/vendor/CBORChainlink.sol\":1062:1085  buf.appendInt(value, 2) */\n      swap3\n      swap2\n      swap1\n      0xffffffff\n      and\n      jump\t// in\n    tag_212:\n      pop\n        /* \"@chainlink/contracts/src/v0.8/vendor/CBORChainlink.sol\":984:1303  if (value <= 0xFFFF) {... */\n      jump(tag_213)\n    tag_210:\n        /* \"@chainlink/contracts/src/v0.8/vendor/CBORChainlink.sol\":1111:1121  0xFFFFFFFF */\n      0xffffffff\n        /* \"@chainlink/contracts/src/v0.8/vendor/CBORChainlink.sol\":1102:1107  value */\n      dup2\n        /* \"@chainlink/contracts/src/v0.8/vendor/CBORChainlink.sol\":1102:1121  value <= 0xFFFFFFFF */\n      0xffffffffffffffff\n      and\n      gt\n        /* \"@chainlink/contracts/src/v0.8/vendor/CBORChainlink.sol\":1098:1303  if (value <= 0xFFFFFFFF) {... */\n      tag_214\n      jumpi\n        /* \"@chainlink/contracts/src/v0.8/vendor/CBORChainlink.sol\":1131:1172  buf.appendUint8(uint8((major << 5) | 26)) */\n      tag_215\n        /* \"@chainlink/contracts/src/v0.8/vendor/CBORChainlink.sol\":1168:1170  26 */\n      0x1a\n        /* \"@chainlink/contracts/src/v0.8/vendor/CBORChainlink.sol\":1163:1164  5 */\n      0x05\n        /* \"@chainlink/contracts/src/v0.8/vendor/CBORChainlink.sol\":1154:1159  major */\n      dup5\n        /* \"@chainlink/contracts/src/v0.8/vendor/CBORChainlink.sol\":1154:1164  major << 5 */\n      0xff\n      and\n      swap1\n      shl\n        /* \"@chainlink/contracts/src/v0.8/vendor/CBORChainlink.sol\":1153:1170  (major << 5) | 26 */\n      or\n        /* \"@chainlink/contracts/src/v0.8/vendor/CBORChainlink.sol\":1131:1134  buf */\n      dup5\n        /* \"@chainlink/contracts/src/v0.8/vendor/CBORChainlink.sol\":1131:1146  buf.appendUint8 */\n      tag_203\n      swap1\n        /* \"@chainlink/contracts/src/v0.8/vendor/CBORChainlink.sol\":1131:1172  buf.appendUint8(uint8((major << 5) | 26)) */\n      swap2\n      swap1\n      0xffffffff\n      and\n      jump\t// in\n    tag_215:\n      pop\n        /* \"@chainlink/contracts/src/v0.8/vendor/CBORChainlink.sol\":1180:1203  buf.appendInt(value, 4) */\n      tag_216\n        /* \"@chainlink/contracts/src/v0.8/vendor/CBORChainlink.sol\":1194:1199  value */\n      dup2\n        /* \"@chainlink/contracts/src/v0.8/vendor/CBORChainlink.sol\":1180:1203  buf.appendInt(value, 4) */\n      0xffffffffffffffff\n      and\n        /* \"@chainlink/contracts/src/v0.8/vendor/CBORChainlink.sol\":1201:1202  4 */\n      0x04\n        /* \"@chainlink/contracts/src/v0.8/vendor/CBORChainlink.sol\":1180:1183  buf */\n      dup6\n        /* \"@chainlink/contracts/src/v0.8/vendor/CBORChainlink.sol\":1180:1193  buf.appendInt */\n      tag_208\n      swap1\n        /* \"@chainlink/contracts/src/v0.8/vendor/CBORChainlink.sol\":1180:1203  buf.appendInt(value, 4) */\n      swap3\n      swap2\n      swap1\n      0xffffffff\n      and\n      jump\t// in\n    tag_216:\n      pop\n        /* \"@chainlink/contracts/src/v0.8/vendor/CBORChainlink.sol\":1098:1303  if (value <= 0xFFFFFFFF) {... */\n      jump(tag_217)\n    tag_214:\n        /* \"@chainlink/contracts/src/v0.8/vendor/CBORChainlink.sol\":1224:1265  buf.appendUint8(uint8((major << 5) | 27)) */\n      tag_218\n        /* \"@chainlink/contracts/src/v0.8/vendor/CBORChainlink.sol\":1261:1263  27 */\n      0x1b\n        /* \"@chainlink/contracts/src/v0.8/vendor/CBORChainlink.sol\":1256:1257  5 */\n      0x05\n        /* \"@chainlink/contracts/src/v0.8/vendor/CBORChainlink.sol\":1247:1252  major */\n      dup5\n        /* \"@chainlink/contracts/src/v0.8/vendor/CBORChainlink.sol\":1247:1257  major << 5 */\n      0xff\n      and\n      swap1\n      shl\n        /* \"@chainlink/contracts/src/v0.8/vendor/CBORChainlink.sol\":1246:1263  (major << 5) | 27 */\n      or\n        /* \"@chainlink/contracts/src/v0.8/vendor/CBORChainlink.sol\":1224:1227  buf */\n      dup5\n        /* \"@chainlink/contracts/src/v0.8/vendor/CBORChainlink.sol\":1224:1239  buf.appendUint8 */\n      tag_203\n      swap1\n        /* \"@chainlink/contracts/src/v0.8/vendor/CBORChainlink.sol\":1224:1265  buf.appendUint8(uint8((major << 5) | 27)) */\n      swap2\n      swap1\n      0xffffffff\n      and\n      jump\t// in\n    tag_218:\n      pop\n        /* \"@chainlink/contracts/src/v0.8/vendor/CBORChainlink.sol\":1273:1296  buf.appendInt(value, 8) */\n      tag_219\n        /* \"@chainlink/contracts/src/v0.8/vendor/CBORChainlink.sol\":1287:1292  value */\n      dup2\n        /* \"@chainlink/contracts/src/v0.8/vendor/CBORChainlink.sol\":1273:1296  buf.appendInt(value, 8) */\n      0xffffffffffffffff\n      and\n        /* \"@chainlink/contracts/src/v0.8/vendor/CBORChainlink.sol\":1294:1295  8 */\n      0x08\n        /* \"@chainlink/contracts/src/v0.8/vendor/CBORChainlink.sol\":1273:1276  buf */\n      dup6\n        /* \"@chainlink/contracts/src/v0.8/vendor/CBORChainlink.sol\":1273:1286  buf.appendInt */\n      tag_208\n      swap1\n        /* \"@chainlink/contracts/src/v0.8/vendor/CBORChainlink.sol\":1273:1296  buf.appendInt(value, 8) */\n      swap3\n      swap2\n      swap1\n      0xffffffff\n      and\n      jump\t// in\n    tag_219:\n      pop\n        /* \"@chainlink/contracts/src/v0.8/vendor/CBORChainlink.sol\":1098:1303  if (value <= 0xFFFFFFFF) {... */\n    tag_217:\n        /* \"@chainlink/contracts/src/v0.8/vendor/CBORChainlink.sol\":984:1303  if (value <= 0xFFFF) {... */\n    tag_213:\n        /* \"@chainlink/contracts/src/v0.8/vendor/CBORChainlink.sol\":872:1303  if (value <= 0xFF) {... */\n    tag_209:\n        /* \"@chainlink/contracts/src/v0.8/vendor/CBORChainlink.sol\":791:1303  if(value <= 23) {... */\n    tag_204:\n        /* \"@chainlink/contracts/src/v0.8/vendor/CBORChainlink.sol\":682:1307  function encodeFixedNumeric(BufferChainlink.buffer memory buf, uint8 major, uint64 value) private pure {... */\n      pop\n      pop\n      pop\n      jump\t// out\n        /* \"@chainlink/contracts/src/v0.8/vendor/BufferChainlink.sol\":4692:4847  function append(buffer memory buf, bytes memory data) internal pure returns (buffer memory) {... */\n    tag_162:\n        /* \"@chainlink/contracts/src/v0.8/vendor/BufferChainlink.sol\":4769:4782  buffer memory */\n      tag_220\n      tag_191\n      jump\t// in\n    tag_220:\n        /* \"@chainlink/contracts/src/v0.8/vendor/BufferChainlink.sol\":4797:4842  write(buf, buf.buf.length, data, data.length) */\n      tag_222\n        /* \"@chainlink/contracts/src/v0.8/vendor/BufferChainlink.sol\":4803:4806  buf */\n      dup4\n        /* \"@chainlink/contracts/src/v0.8/vendor/BufferChainlink.sol\":4808:4811  buf */\n      dup5\n        /* \"@chainlink/contracts/src/v0.8/vendor/BufferChainlink.sol\":4808:4815  buf.buf */\n      0x00\n      add\n      mload\n        /* \"@chainlink/contracts/src/v0.8/vendor/BufferChainlink.sol\":4808:4822  buf.buf.length */\n      mload\n        /* \"@chainlink/contracts/src/v0.8/vendor/BufferChainlink.sol\":4824:4828  data */\n      dup5\n        /* \"@chainlink/contracts/src/v0.8/vendor/BufferChainlink.sol\":4830:4834  data */\n      dup6\n        /* \"@chainlink/contracts/src/v0.8/vendor/BufferChainlink.sol\":4830:4841  data.length */\n      mload\n        /* \"@chainlink/contracts/src/v0.8/vendor/BufferChainlink.sol\":4797:4802  write */\n      tag_223\n        /* \"@chainlink/contracts/src/v0.8/vendor/BufferChainlink.sol\":4797:4842  write(buf, buf.buf.length, data, data.length) */\n      jump\t// in\n    tag_222:\n        /* \"@chainlink/contracts/src/v0.8/vendor/BufferChainlink.sol\":4790:4842  return write(buf, buf.buf.length, data, data.length) */\n      swap1\n      pop\n        /* \"@chainlink/contracts/src/v0.8/vendor/BufferChainlink.sol\":4692:4847  function append(buffer memory buf, bytes memory data) internal pure returns (buffer memory) {... */\n      swap3\n      swap2\n      pop\n      pop\n      jump\t// out\n        /* \"@chainlink/contracts/src/v0.8/vendor/CBORChainlink.sol\":2547:2773  function encodeSignedBigNum(BufferChainlink.buffer memory buf, int input) internal pure {... */\n    tag_166:\n        /* \"@chainlink/contracts/src/v0.8/vendor/CBORChainlink.sol\":2641:2713  buf.appendUint8(uint8((MAJOR_TYPE_TAG << 5) | TAG_TYPE_NEGATIVE_BIGNUM)) */\n      tag_225\n        /* \"@chainlink/contracts/src/v0.8/vendor/CBORChainlink.sol\":676:677  3 */\n      0x03\n        /* \"@chainlink/contracts/src/v0.8/vendor/CBORChainlink.sol\":2682:2683  5 */\n      0x05\n        /* \"@chainlink/contracts/src/v0.8/vendor/CBORChainlink.sol\":520:521  6 */\n      0x06\n        /* \"@chainlink/contracts/src/v0.8/vendor/CBORChainlink.sol\":2664:2683  MAJOR_TYPE_TAG << 5 */\n      0xff\n      and\n      swap1\n      shl\n        /* \"@chainlink/contracts/src/v0.8/vendor/CBORChainlink.sol\":2663:2711  (MAJOR_TYPE_TAG << 5) | TAG_TYPE_NEGATIVE_BIGNUM */\n      or\n        /* \"@chainlink/contracts/src/v0.8/vendor/CBORChainlink.sol\":2641:2644  buf */\n      dup4\n        /* \"@chainlink/contracts/src/v0.8/vendor/CBORChainlink.sol\":2641:2656  buf.appendUint8 */\n      tag_203\n      swap1\n        /* \"@chainlink/contracts/src/v0.8/vendor/CBORChainlink.sol\":2641:2713  buf.appendUint8(uint8((MAJOR_TYPE_TAG << 5) | TAG_TYPE_NEGATIVE_BIGNUM)) */\n      swap2\n      swap1\n      0xffffffff\n      and\n      jump\t// in\n    tag_225:\n      pop\n        /* \"@chainlink/contracts/src/v0.8/vendor/CBORChainlink.sol\":2719:2768  encodeBytes(buf, abi.encode(uint256(-1 - input))) */\n      tag_226\n        /* \"@chainlink/contracts/src/v0.8/vendor/CBORChainlink.sol\":2731:2734  buf */\n      dup3\n        /* \"@chainlink/contracts/src/v0.8/vendor/CBORChainlink.sol\":2760:2765  input */\n      dup3\n        /* \"@chainlink/contracts/src/v0.8/vendor/CBORChainlink.sol\":2755:2757  -1 */\n      0xffffffffffffffffffffffffffffffffffffffffffffffffffffffffffffffff\n        /* \"@chainlink/contracts/src/v0.8/vendor/CBORChainlink.sol\":2755:2765  -1 - input */\n      tag_227\n      swap2\n      swap1\n      tag_177\n      jump\t// in\n    tag_227:\n        /* \"@chainlink/contracts/src/v0.8/vendor/CBORChainlink.sol\":2736:2767  abi.encode(uint256(-1 - input)) */\n      add(0x20, mload(0x40))\n      tag_228\n      swap2\n      swap1\n      tag_41\n      jump\t// in\n    tag_228:\n      mload(0x40)\n      0x20\n      dup2\n      dup4\n      sub\n      sub\n      dup2\n      mstore\n      swap1\n      0x40\n      mstore\n        /* \"@chainlink/contracts/src/v0.8/vendor/CBORChainlink.sol\":2719:2730  encodeBytes */\n      tag_229\n        /* \"@chainlink/contracts/src/v0.8/vendor/CBORChainlink.sol\":2719:2768  encodeBytes(buf, abi.encode(uint256(-1 - input))) */\n      jump\t// in\n    tag_226:\n        /* \"@chainlink/contracts/src/v0.8/vendor/CBORChainlink.sol\":2547:2773  function encodeSignedBigNum(BufferChainlink.buffer memory buf, int input) internal pure {... */\n      pop\n      pop\n      jump\t// out\n        /* \"@chainlink/contracts/src/v0.8/vendor/CBORChainlink.sol\":2345:2543  function encodeBigNum(BufferChainlink.buffer memory buf, uint value) internal pure {... */\n    tag_170:\n        /* \"@chainlink/contracts/src/v0.8/vendor/CBORChainlink.sol\":2434:2497  buf.appendUint8(uint8((MAJOR_TYPE_TAG << 5) | TAG_TYPE_BIGNUM)) */\n      tag_231\n        /* \"@chainlink/contracts/src/v0.8/vendor/CBORChainlink.sol\":621:622  2 */\n      0x02\n        /* \"@chainlink/contracts/src/v0.8/vendor/CBORChainlink.sol\":2475:2476  5 */\n      0x05\n        /* \"@chainlink/contracts/src/v0.8/vendor/CBORChainlink.sol\":520:521  6 */\n      0x06\n        /* \"@chainlink/contracts/src/v0.8/vendor/CBORChainlink.sol\":2457:2476  MAJOR_TYPE_TAG << 5 */\n      0xff\n      and\n      swap1\n      shl\n        /* \"@chainlink/contracts/src/v0.8/vendor/CBORChainlink.sol\":2456:2495  (MAJOR_TYPE_TAG << 5) | TAG_TYPE_BIGNUM */\n      or\n        /* \"@chainlink/contracts/src/v0.8/vendor/CBORChainlink.sol\":2434:2437  buf */\n      dup4\n        /* \"@chainlink/contracts/src/v0.8/vendor/CBORChainlink.sol\":2434:2449  buf.appendUint8 */\n      tag_203\n      swap1\n        /* \"@chainlink/contracts/src/v0.8/vendor/CBORChainlink.sol\":2434:2497  buf.appendUint8(uint8((MAJOR_TYPE_TAG << 5) | TAG_TYPE_BIGNUM)) */\n      swap2\n      swap1\n      0xffffffff\n      and\n      jump\t// in\n    tag_231:\n      pop\n        /* \"@chainlink/contracts/src/v0.8/vendor/CBORChainlink.sol\":2503:2538  encodeBytes(buf, abi.encode(value)) */\n      tag_232\n        /* \"@chainlink/contracts/src/v0.8/vendor/CBORChainlink.sol\":2515:2518  buf */\n      dup3\n        /* \"@chainlink/contracts/src/v0.8/vendor/CBORChainlink.sol\":2531:2536  value */\n      dup3\n        /* \"@chainlink/contracts/src/v0.8/vendor/CBORChainlink.sol\":2520:2537  abi.encode(value) */\n      add(0x20, mload(0x40))\n      tag_233\n      swap2\n      swap1\n      tag_41\n      jump\t// in\n    tag_233:\n      mload(0x40)\n      0x20\n      dup2\n      dup4\n      sub\n      sub\n      dup2\n      mstore\n      swap1\n      0x40\n      mstore\n        /* \"@chainlink/contracts/src/v0.8/vendor/CBORChainlink.sol\":2503:2514  encodeBytes */\n      tag_229\n        /* \"@chainlink/contracts/src/v0.8/vendor/CBORChainlink.sol\":2503:2538  encodeBytes(buf, abi.encode(value)) */\n      jump\t// in\n    tag_232:\n        /* \"@chainlink/contracts/src/v0.8/vendor/CBORChainlink.sol\":2345:2543  function encodeBigNum(BufferChainlink.buffer memory buf, uint value) internal pure {... */\n      pop\n      pop\n      jump\t// out\n        /* \"@chainlink/contracts/src/v0.8/vendor/BufferChainlink.sol\":6040:6185  function appendUint8(buffer memory buf, uint8 data) internal pure returns (buffer memory) {... */\n    tag_203:\n        /* \"@chainlink/contracts/src/v0.8/vendor/BufferChainlink.sol\":6115:6128  buffer memory */\n      tag_234\n      tag_191\n      jump\t// in\n    tag_234:\n        /* \"@chainlink/contracts/src/v0.8/vendor/BufferChainlink.sol\":6143:6180  writeUint8(buf, buf.buf.length, data) */\n      tag_236\n        /* \"@chainlink/contracts/src/v0.8/vendor/BufferChainlink.sol\":6154:6157  buf */\n      dup4\n        /* \"@chainlink/contracts/src/v0.8/vendor/BufferChainlink.sol\":6159:6162  buf */\n      dup5\n        /* \"@chainlink/contracts/src/v0.8/vendor/BufferChainlink.sol\":6159:6166  buf.buf */\n      0x00\n      add\n      mload\n        /* \"@chainlink/contracts/src/v0.8/vendor/BufferChainlink.sol\":6159:6173  buf.buf.length */\n      mload\n        /* \"@chainlink/contracts/src/v0.8/vendor/BufferChainlink.sol\":6175:6179  data */\n      dup5\n        /* \"@chainlink/contracts/src/v0.8/vendor/BufferChainlink.sol\":6143:6153  writeUint8 */\n      tag_237\n        /* \"@chainlink/contracts/src/v0.8/vendor/BufferChainlink.sol\":6143:6180  writeUint8(buf, buf.buf.length, data) */\n      jump\t// in\n    tag_236:\n        /* \"@chainlink/contracts/src/v0.8/vendor/BufferChainlink.sol\":6136:6180  return writeUint8(buf, buf.buf.length, data) */\n      swap1\n      pop\n        /* \"@chainlink/contracts/src/v0.8/vendor/BufferChainlink.sol\":6040:6185  function appendUint8(buffer memory buf, uint8 data) internal pure returns (buffer memory) {... */\n      swap3\n      swap2\n      pop\n      pop\n      jump\t// out\n        /* \"@chainlink/contracts/src/v0.8/vendor/BufferChainlink.sol\":9894:10071  function appendInt(... */\n    tag_208:\n        /* \"@chainlink/contracts/src/v0.8/vendor/BufferChainlink.sol\":9998:10011  buffer memory */\n      tag_238\n      tag_191\n      jump\t// in\n    tag_238:\n        /* \"@chainlink/contracts/src/v0.8/vendor/BufferChainlink.sol\":10026:10066  writeInt(buf, buf.buf.length, data, len) */\n      tag_240\n        /* \"@chainlink/contracts/src/v0.8/vendor/BufferChainlink.sol\":10035:10038  buf */\n      dup5\n        /* \"@chainlink/contracts/src/v0.8/vendor/BufferChainlink.sol\":10040:10043  buf */\n      dup6\n        /* \"@chainlink/contracts/src/v0.8/vendor/BufferChainlink.sol\":10040:10047  buf.buf */\n      0x00\n      add\n      mload\n        /* \"@chainlink/contracts/src/v0.8/vendor/BufferChainlink.sol\":10040:10054  buf.buf.length */\n      mload\n        /* \"@chainlink/contracts/src/v0.8/vendor/BufferChainlink.sol\":10056:10060  data */\n      dup6\n        /* \"@chainlink/contracts/src/v0.8/vendor/BufferChainlink.sol\":10062:10065  len */\n      dup6\n        /* \"@chainlink/contracts/src/v0.8/vendor/BufferChainlink.sol\":10026:10034  writeInt */\n      tag_241\n        /* \"@chainlink/contracts/src/v0.8/vendor/BufferChainlink.sol\":10026:10066  writeInt(buf, buf.buf.length, data, len) */\n      jump\t// in\n    tag_240:\n        /* \"@chainlink/contracts/src/v0.8/vendor/BufferChainlink.sol\":10019:10066  return writeInt(buf, buf.buf.length, data, len) */\n      swap1\n      pop\n        /* \"@chainlink/contracts/src/v0.8/vendor/BufferChainlink.sol\":9894:10071  function appendInt(... */\n      swap4\n      swap3\n      pop\n      pop\n      pop\n      jump\t// out\n        /* \"@chainlink/contracts/src/v0.8/vendor/BufferChainlink.sol\":2745:3955  function write(... */\n    tag_223:\n        /* \"@chainlink/contracts/src/v0.8/vendor/BufferChainlink.sol\":2867:2880  buffer memory */\n      tag_242\n      tag_191\n      jump\t// in\n    tag_242:\n        /* \"@chainlink/contracts/src/v0.8/vendor/BufferChainlink.sol\":2903:2907  data */\n      dup3\n        /* \"@chainlink/contracts/src/v0.8/vendor/BufferChainlink.sol\":2903:2914  data.length */\n      mload\n        /* \"@chainlink/contracts/src/v0.8/vendor/BufferChainlink.sol\":2896:2899  len */\n      dup3\n        /* \"@chainlink/contracts/src/v0.8/vendor/BufferChainlink.sol\":2896:2914  len <= data.length */\n      gt\n      iszero\n        /* \"@chainlink/contracts/src/v0.8/vendor/BufferChainlink.sol\":2888:2915  require(len <= data.length) */\n      tag_244\n      jumpi\n      0x00\n      dup1\n      revert\n    tag_244:\n        /* \"@chainlink/contracts/src/v0.8/vendor/BufferChainlink.sol\":2938:2941  buf */\n      dup5\n        /* \"@chainlink/contracts/src/v0.8/vendor/BufferChainlink.sol\":2938:2950  buf.capacity */\n      0x20\n      add\n      mload\n        /* \"@chainlink/contracts/src/v0.8/vendor/BufferChainlink.sol\":2932:2935  len */\n      dup3\n        /* \"@chainlink/contracts/src/v0.8/vendor/BufferChainlink.sol\":2926:2929  off */\n      dup6\n        /* \"@chainlink/contracts/src/v0.8/vendor/BufferChainlink.sol\":2926:2935  off + len */\n      tag_245\n      swap2\n      swap1\n      tag_139\n      jump\t// in\n    tag_245:\n        /* \"@chainlink/contracts/src/v0.8/vendor/BufferChainlink.sol\":2926:2950  off + len > buf.capacity */\n      gt\n        /* \"@chainlink/contracts/src/v0.8/vendor/BufferChainlink.sol\":2922:3012  if (off + len > buf.capacity) {... */\n      iszero\n      tag_246\n      jumpi\n        /* \"@chainlink/contracts/src/v0.8/vendor/BufferChainlink.sol\":2960:3005  resize(buf, max(buf.capacity, len + off) * 2) */\n      tag_247\n        /* \"@chainlink/contracts/src/v0.8/vendor/BufferChainlink.sol\":2967:2970  buf */\n      dup6\n        /* \"@chainlink/contracts/src/v0.8/vendor/BufferChainlink.sol\":3003:3004  2 */\n      0x02\n        /* \"@chainlink/contracts/src/v0.8/vendor/BufferChainlink.sol\":2972:3000  max(buf.capacity, len + off) */\n      tag_248\n        /* \"@chainlink/contracts/src/v0.8/vendor/BufferChainlink.sol\":2976:2979  buf */\n      dup9\n        /* \"@chainlink/contracts/src/v0.8/vendor/BufferChainlink.sol\":2976:2988  buf.capacity */\n      0x20\n      add\n      mload\n        /* \"@chainlink/contracts/src/v0.8/vendor/BufferChainlink.sol\":2996:2999  off */\n      dup9\n        /* \"@chainlink/contracts/src/v0.8/vendor/BufferChainlink.sol\":2990:2993  len */\n      dup8\n        /* \"@chainlink/contracts/src/v0.8/vendor/BufferChainlink.sol\":2990:2999  len + off */\n      tag_249\n      swap2\n      swap1\n      tag_139\n      jump\t// in\n    tag_249:\n        /* \"@chainlink/contracts/src/v0.8/vendor/BufferChainlink.sol\":2972:2975  max */\n      tag_250\n        /* \"@chainlink/contracts/src/v0.8/vendor/BufferChainlink.sol\":2972:3000  max(buf.capacity, len + off) */\n      jump\t// in\n    tag_248:\n        /* \"@chainlink/contracts/src/v0.8/vendor/BufferChainlink.sol\":2972:3004  max(buf.capacity, len + off) * 2 */\n      tag_251\n      swap2\n      swap1\n      tag_72\n      jump\t// in\n    tag_251:\n        /* \"@chainlink/contracts/src/v0.8/vendor/BufferChainlink.sol\":2960:2966  resize */\n      tag_252\n        /* \"@chainlink/contracts/src/v0.8/vendor/BufferChainlink.sol\":2960:3005  resize(buf, max(buf.capacity, len + off) * 2) */\n      jump\t// in\n    tag_247:\n        /* \"@chainlink/contracts/src/v0.8/vendor/BufferChainlink.sol\":2922:3012  if (off + len > buf.capacity) {... */\n    tag_246:\n        /* \"@chainlink/contracts/src/v0.8/vendor/BufferChainlink.sol\":3018:3030  uint256 dest */\n      0x00\n        /* \"@chainlink/contracts/src/v0.8/vendor/BufferChainlink.sol\":3036:3047  uint256 src */\n      dup1\n        /* \"@chainlink/contracts/src/v0.8/vendor/BufferChainlink.sol\":3133:3136  buf */\n      dup7\n        /* \"@chainlink/contracts/src/v0.8/vendor/BufferChainlink.sol\":3127:3137  mload(buf) */\n      mload\n        /* \"@chainlink/contracts/src/v0.8/vendor/BufferChainlink.sol\":3204:3210  bufptr */\n      dup1\n        /* \"@chainlink/contracts/src/v0.8/vendor/BufferChainlink.sol\":3198:3211  mload(bufptr) */\n      mload\n        /* \"@chainlink/contracts/src/v0.8/vendor/BufferChainlink.sol\":3320:3323  off */\n      dup8\n        /* \"@chainlink/contracts/src/v0.8/vendor/BufferChainlink.sol\":3315:3317  32 */\n      0x20\n        /* \"@chainlink/contracts/src/v0.8/vendor/BufferChainlink.sol\":3307:3313  bufptr */\n      dup4\n        /* \"@chainlink/contracts/src/v0.8/vendor/BufferChainlink.sol\":3303:3318  add(bufptr, 32) */\n      add\n        /* \"@chainlink/contracts/src/v0.8/vendor/BufferChainlink.sol\":3299:3324  add(add(bufptr, 32), off) */\n      add\n        /* \"@chainlink/contracts/src/v0.8/vendor/BufferChainlink.sol\":3291:3324  dest := add(add(bufptr, 32), off) */\n      swap4\n      pop\n        /* \"@chainlink/contracts/src/v0.8/vendor/BufferChainlink.sol\":3404:3410  buflen */\n      dup1\n        /* \"@chainlink/contracts/src/v0.8/vendor/BufferChainlink.sol\":3398:3401  off */\n      dup9\n        /* \"@chainlink/contracts/src/v0.8/vendor/BufferChainlink.sol\":3393:3396  len */\n      dup8\n        /* \"@chainlink/contracts/src/v0.8/vendor/BufferChainlink.sol\":3389:3402  add(len, off) */\n      add\n        /* \"@chainlink/contracts/src/v0.8/vendor/BufferChainlink.sol\":3386:3411  gt(add(len, off), buflen) */\n      gt\n        /* \"@chainlink/contracts/src/v0.8/vendor/BufferChainlink.sol\":3383:3459  if gt(add(len, off), buflen) {... */\n      iszero\n      tag_253\n      jumpi\n        /* \"@chainlink/contracts/src/v0.8/vendor/BufferChainlink.sol\":3446:3449  off */\n      dup8\n        /* \"@chainlink/contracts/src/v0.8/vendor/BufferChainlink.sol\":3441:3444  len */\n      dup7\n        /* \"@chainlink/contracts/src/v0.8/vendor/BufferChainlink.sol\":3437:3450  add(len, off) */\n      add\n        /* \"@chainlink/contracts/src/v0.8/vendor/BufferChainlink.sol\":3429:3435  bufptr */\n      dup3\n        /* \"@chainlink/contracts/src/v0.8/vendor/BufferChainlink.sol\":3422:3451  mstore(bufptr, add(len, off)) */\n      mstore\n        /* \"@chainlink/contracts/src/v0.8/vendor/BufferChainlink.sol\":3383:3459  if gt(add(len, off), buflen) {... */\n    tag_253:\n        /* \"@chainlink/contracts/src/v0.8/vendor/BufferChainlink.sol\":3483:3485  32 */\n      0x20\n        /* \"@chainlink/contracts/src/v0.8/vendor/BufferChainlink.sol\":3477:3481  data */\n      dup8\n        /* \"@chainlink/contracts/src/v0.8/vendor/BufferChainlink.sol\":3473:3486  add(data, 32) */\n      add\n        /* \"@chainlink/contracts/src/v0.8/vendor/BufferChainlink.sol\":3466:3486  src := add(data, 32) */\n      swap3\n      pop\n        /* \"@chainlink/contracts/src/v0.8/vendor/BufferChainlink.sol\":3062:3492  {... */\n      pop\n      pop\n        /* \"@chainlink/contracts/src/v0.8/vendor/BufferChainlink.sol\":3544:3673  for (; len >= 32; len -= 32) {... */\n    tag_254:\n        /* \"@chainlink/contracts/src/v0.8/vendor/BufferChainlink.sol\":3558:3560  32 */\n      0x20\n        /* \"@chainlink/contracts/src/v0.8/vendor/BufferChainlink.sol\":3551:3554  len */\n      dup5\n        /* \"@chainlink/contracts/src/v0.8/vendor/BufferChainlink.sol\":3551:3560  len >= 32 */\n      lt\n        /* \"@chainlink/contracts/src/v0.8/vendor/BufferChainlink.sol\":3544:3673  for (; len >= 32; len -= 32) {... */\n      tag_255\n      jumpi\n        /* \"@chainlink/contracts/src/v0.8/vendor/BufferChainlink.sol\":3619:3622  src */\n      dup1\n        /* \"@chainlink/contracts/src/v0.8/vendor/BufferChainlink.sol\":3613:3623  mload(src) */\n      mload\n        /* \"@chainlink/contracts/src/v0.8/vendor/BufferChainlink.sol\":3607:3611  dest */\n      dup3\n        /* \"@chainlink/contracts/src/v0.8/vendor/BufferChainlink.sol\":3600:3624  mstore(dest, mload(src)) */\n      mstore\n        /* \"@chainlink/contracts/src/v0.8/vendor/BufferChainlink.sol\":3647:3649  32 */\n      0x20\n        /* \"@chainlink/contracts/src/v0.8/vendor/BufferChainlink.sol\":3639:3649  dest += 32 */\n      dup3\n      tag_257\n      swap2\n      swap1\n      tag_139\n      jump\t// in\n    tag_257:\n      swap2\n      pop\n        /* \"@chainlink/contracts/src/v0.8/vendor/BufferChainlink.sol\":3664:3666  32 */\n      0x20\n        /* \"@chainlink/contracts/src/v0.8/vendor/BufferChainlink.sol\":3657:3666  src += 32 */\n      dup2\n      tag_258\n      swap2\n      swap1\n      tag_139\n      jump\t// in\n    tag_258:\n      swap1\n      pop\n        /* \"@chainlink/contracts/src/v0.8/vendor/BufferChainlink.sol\":3569:3571  32 */\n      0x20\n        /* \"@chainlink/contracts/src/v0.8/vendor/BufferChainlink.sol\":3562:3571  len -= 32 */\n      dup5\n      tag_259\n      swap2\n      swap1\n      tag_198\n      jump\t// in\n    tag_259:\n      swap4\n      pop\n        /* \"@chainlink/contracts/src/v0.8/vendor/BufferChainlink.sol\":3544:3673  for (; len >= 32; len -= 32) {... */\n      jump(tag_254)\n    tag_255:\n        /* \"@chainlink/contracts/src/v0.8/vendor/BufferChainlink.sol\":3725:3737  uint256 mask */\n      0x00\n        /* \"@chainlink/contracts/src/v0.8/vendor/BufferChainlink.sol\":3760:3761  1 */\n      0x01\n        /* \"@chainlink/contracts/src/v0.8/vendor/BufferChainlink.sol\":3752:3755  len */\n      dup6\n        /* \"@chainlink/contracts/src/v0.8/vendor/BufferChainlink.sol\":3747:3749  32 */\n      0x20\n        /* \"@chainlink/contracts/src/v0.8/vendor/BufferChainlink.sol\":3747:3755  32 - len */\n      sub\n        /* \"@chainlink/contracts/src/v0.8/vendor/BufferChainlink.sol\":3741:3744  256 */\n      0x0100\n        /* \"@chainlink/contracts/src/v0.8/vendor/BufferChainlink.sol\":3741:3756  256**(32 - len) */\n      exp\n        /* \"@chainlink/contracts/src/v0.8/vendor/BufferChainlink.sol\":3740:3761  (256**(32 - len)) - 1 */\n      sub\n        /* \"@chainlink/contracts/src/v0.8/vendor/BufferChainlink.sol\":3725:3761  uint256 mask = (256**(32 - len)) - 1 */\n      swap1\n      pop\n        /* \"@chainlink/contracts/src/v0.8/vendor/BufferChainlink.sol\":3823:3827  mask */\n      dup1\n        /* \"@chainlink/contracts/src/v0.8/vendor/BufferChainlink.sol\":3819:3828  not(mask) */\n      not\n        /* \"@chainlink/contracts/src/v0.8/vendor/BufferChainlink.sol\":3813:3816  src */\n      dup3\n        /* \"@chainlink/contracts/src/v0.8/vendor/BufferChainlink.sol\":3807:3817  mload(src) */\n      mload\n        /* \"@chainlink/contracts/src/v0.8/vendor/BufferChainlink.sol\":3803:3829  and(mload(src), not(mask)) */\n      and\n        /* \"@chainlink/contracts/src/v0.8/vendor/BufferChainlink.sol\":3871:3875  mask */\n      dup2\n        /* \"@chainlink/contracts/src/v0.8/vendor/BufferChainlink.sol\":3864:3868  dest */\n      dup5\n        /* \"@chainlink/contracts/src/v0.8/vendor/BufferChainlink.sol\":3858:3869  mload(dest) */\n      mload\n        /* \"@chainlink/contracts/src/v0.8/vendor/BufferChainlink.sol\":3854:3876  and(mload(dest), mask) */\n      and\n        /* \"@chainlink/contracts/src/v0.8/vendor/BufferChainlink.sol\":3911:3918  srcpart */\n      dup2\n        /* \"@chainlink/contracts/src/v0.8/vendor/BufferChainlink.sol\":3901:3909  destpart */\n      dup2\n        /* \"@chainlink/contracts/src/v0.8/vendor/BufferChainlink.sol\":3898:3919  or(destpart, srcpart) */\n      or\n        /* \"@chainlink/contracts/src/v0.8/vendor/BufferChainlink.sol\":3892:3896  dest */\n      dup6\n        /* \"@chainlink/contracts/src/v0.8/vendor/BufferChainlink.sol\":3885:3920  mstore(dest, or(destpart, srcpart)) */\n      mstore\n        /* \"@chainlink/contracts/src/v0.8/vendor/BufferChainlink.sol\":3778:3928  {... */\n      pop\n      pop\n      pop\n        /* \"@chainlink/contracts/src/v0.8/vendor/BufferChainlink.sol\":3947:3950  buf */\n      dup7\n        /* \"@chainlink/contracts/src/v0.8/vendor/BufferChainlink.sol\":3940:3950  return buf */\n      swap3\n      pop\n      pop\n      pop\n        /* \"@chainlink/contracts/src/v0.8/vendor/BufferChainlink.sol\":2745:3955  function write(... */\n      swap5\n      swap4\n      pop\n      pop\n      pop\n      pop\n      jump\t// out\n        /* \"@chainlink/contracts/src/v0.8/vendor/CBORChainlink.sol\":2154:2341  function encodeBytes(BufferChainlink.buffer memory buf, bytes memory value) internal pure {... */\n    tag_229:\n        /* \"@chainlink/contracts/src/v0.8/vendor/CBORChainlink.sol\":2250:2313  encodeFixedNumeric(buf, MAJOR_TYPE_BYTES, uint64(value.length)) */\n      tag_261\n        /* \"@chainlink/contracts/src/v0.8/vendor/CBORChainlink.sol\":2269:2272  buf */\n      dup3\n        /* \"@chainlink/contracts/src/v0.8/vendor/CBORChainlink.sol\":335:336  2 */\n      0x02\n        /* \"@chainlink/contracts/src/v0.8/vendor/CBORChainlink.sol\":2299:2304  value */\n      dup4\n        /* \"@chainlink/contracts/src/v0.8/vendor/CBORChainlink.sol\":2299:2311  value.length */\n      mload\n        /* \"@chainlink/contracts/src/v0.8/vendor/CBORChainlink.sol\":2250:2268  encodeFixedNumeric */\n      tag_160\n        /* \"@chainlink/contracts/src/v0.8/vendor/CBORChainlink.sol\":2250:2313  encodeFixedNumeric(buf, MAJOR_TYPE_BYTES, uint64(value.length)) */\n      jump\t// in\n    tag_261:\n        /* \"@chainlink/contracts/src/v0.8/vendor/CBORChainlink.sol\":2319:2336  buf.append(value) */\n      tag_262\n        /* \"@chainlink/contracts/src/v0.8/vendor/CBORChainlink.sol\":2330:2335  value */\n      dup2\n        /* \"@chainlink/contracts/src/v0.8/vendor/CBORChainlink.sol\":2319:2322  buf */\n      dup4\n        /* \"@chainlink/contracts/src/v0.8/vendor/CBORChainlink.sol\":2319:2329  buf.append */\n      tag_162\n      swap1\n        /* \"@chainlink/contracts/src/v0.8/vendor/CBORChainlink.sol\":2319:2336  buf.append(value) */\n      swap2\n      swap1\n      0xffffffff\n      and\n      jump\t// in\n    tag_262:\n      pop\n        /* \"@chainlink/contracts/src/v0.8/vendor/CBORChainlink.sol\":2154:2341  function encodeBytes(BufferChainlink.buffer memory buf, bytes memory value) internal pure {... */\n      pop\n      pop\n      jump\t// out\n        /* \"@chainlink/contracts/src/v0.8/vendor/BufferChainlink.sol\":5148:5787  function writeUint8(... */\n    tag_237:\n        /* \"@chainlink/contracts/src/v0.8/vendor/BufferChainlink.sol\":5251:5264  buffer memory */\n      tag_263\n      tag_191\n      jump\t// in\n    tag_263:\n        /* \"@chainlink/contracts/src/v0.8/vendor/BufferChainlink.sol\":5283:5286  buf */\n      dup4\n        /* \"@chainlink/contracts/src/v0.8/vendor/BufferChainlink.sol\":5283:5295  buf.capacity */\n      0x20\n      add\n      mload\n        /* \"@chainlink/contracts/src/v0.8/vendor/BufferChainlink.sol\":5276:5279  off */\n      dup4\n        /* \"@chainlink/contracts/src/v0.8/vendor/BufferChainlink.sol\":5276:5295  off >= buf.capacity */\n      lt\n        /* \"@chainlink/contracts/src/v0.8/vendor/BufferChainlink.sol\":5272:5341  if (off >= buf.capacity) {... */\n      tag_265\n      jumpi\n        /* \"@chainlink/contracts/src/v0.8/vendor/BufferChainlink.sol\":5305:5334  resize(buf, buf.capacity * 2) */\n      tag_266\n        /* \"@chainlink/contracts/src/v0.8/vendor/BufferChainlink.sol\":5312:5315  buf */\n      dup5\n        /* \"@chainlink/contracts/src/v0.8/vendor/BufferChainlink.sol\":5332:5333  2 */\n      0x02\n        /* \"@chainlink/contracts/src/v0.8/vendor/BufferChainlink.sol\":5317:5320  buf */\n      dup7\n        /* \"@chainlink/contracts/src/v0.8/vendor/BufferChainlink.sol\":5317:5329  buf.capacity */\n      0x20\n      add\n      mload\n        /* \"@chainlink/contracts/src/v0.8/vendor/BufferChainlink.sol\":5317:5333  buf.capacity * 2 */\n      tag_267\n      swap2\n      swap1\n      tag_72\n      jump\t// in\n    tag_267:\n        /* \"@chainlink/contracts/src/v0.8/vendor/BufferChainlink.sol\":5305:5311  resize */\n      tag_252\n        /* \"@chainlink/contracts/src/v0.8/vendor/BufferChainlink.sol\":5305:5334  resize(buf, buf.capacity * 2) */\n      jump\t// in\n    tag_266:\n        /* \"@chainlink/contracts/src/v0.8/vendor/BufferChainlink.sol\":5272:5341  if (off >= buf.capacity) {... */\n    tag_265:\n        /* \"@chainlink/contracts/src/v0.8/vendor/BufferChainlink.sol\":5427:5430  buf */\n      dup4\n        /* \"@chainlink/contracts/src/v0.8/vendor/BufferChainlink.sol\":5421:5431  mload(buf) */\n      mload\n        /* \"@chainlink/contracts/src/v0.8/vendor/BufferChainlink.sol\":5498:5504  bufptr */\n      dup1\n        /* \"@chainlink/contracts/src/v0.8/vendor/BufferChainlink.sol\":5492:5505  mload(bufptr) */\n      mload\n        /* \"@chainlink/contracts/src/v0.8/vendor/BufferChainlink.sol\":5610:5612  32 */\n      0x20\n        /* \"@chainlink/contracts/src/v0.8/vendor/BufferChainlink.sol\":5604:5607  off */\n      dup6\n        /* \"@chainlink/contracts/src/v0.8/vendor/BufferChainlink.sol\":5596:5602  bufptr */\n      dup4\n        /* \"@chainlink/contracts/src/v0.8/vendor/BufferChainlink.sol\":5592:5608  add(bufptr, off) */\n      add\n        /* \"@chainlink/contracts/src/v0.8/vendor/BufferChainlink.sol\":5588:5613  add(add(bufptr, off), 32) */\n      add\n        /* \"@chainlink/contracts/src/v0.8/vendor/BufferChainlink.sol\":5634:5638  data */\n      dup5\n        /* \"@chainlink/contracts/src/v0.8/vendor/BufferChainlink.sol\":5628:5632  dest */\n      dup2\n        /* \"@chainlink/contracts/src/v0.8/vendor/BufferChainlink.sol\":5620:5639  mstore8(dest, data) */\n      mstore8\n        /* \"@chainlink/contracts/src/v0.8/vendor/BufferChainlink.sol\":5705:5711  buflen */\n      dup2\n        /* \"@chainlink/contracts/src/v0.8/vendor/BufferChainlink.sol\":5700:5703  off */\n      dup7\n        /* \"@chainlink/contracts/src/v0.8/vendor/BufferChainlink.sol\":5697:5712  eq(off, buflen) */\n      eq\n        /* \"@chainlink/contracts/src/v0.8/vendor/BufferChainlink.sol\":5694:5761  if eq(off, buflen) {... */\n      iszero\n      tag_268\n      jumpi\n        /* \"@chainlink/contracts/src/v0.8/vendor/BufferChainlink.sol\":5750:5751  1 */\n      0x01\n        /* \"@chainlink/contracts/src/v0.8/vendor/BufferChainlink.sol\":5742:5748  buflen */\n      dup3\n        /* \"@chainlink/contracts/src/v0.8/vendor/BufferChainlink.sol\":5738:5752  add(buflen, 1) */\n      add\n        /* \"@chainlink/contracts/src/v0.8/vendor/BufferChainlink.sol\":5730:5736  bufptr */\n      dup4\n        /* \"@chainlink/contracts/src/v0.8/vendor/BufferChainlink.sol\":5723:5753  mstore(bufptr, add(buflen, 1)) */\n      mstore\n        /* \"@chainlink/contracts/src/v0.8/vendor/BufferChainlink.sol\":5694:5761  if eq(off, buflen) {... */\n    tag_268:\n        /* \"@chainlink/contracts/src/v0.8/vendor/BufferChainlink.sol\":5356:5767  {... */\n      pop\n      pop\n      pop\n        /* \"@chainlink/contracts/src/v0.8/vendor/BufferChainlink.sol\":5779:5782  buf */\n      dup4\n        /* \"@chainlink/contracts/src/v0.8/vendor/BufferChainlink.sol\":5772:5782  return buf */\n      swap1\n      pop\n        /* \"@chainlink/contracts/src/v0.8/vendor/BufferChainlink.sol\":5148:5787  function writeUint8(... */\n      swap4\n      swap3\n      pop\n      pop\n      pop\n      jump\t// out\n        /* \"@chainlink/contracts/src/v0.8/vendor/BufferChainlink.sol\":8974:9649  function writeInt(... */\n    tag_241:\n        /* \"@chainlink/contracts/src/v0.8/vendor/BufferChainlink.sol\":9093:9106  buffer memory */\n      tag_269\n      tag_191\n      jump\t// in\n    tag_269:\n        /* \"@chainlink/contracts/src/v0.8/vendor/BufferChainlink.sol\":9130:9133  buf */\n      dup5\n        /* \"@chainlink/contracts/src/v0.8/vendor/BufferChainlink.sol\":9130:9142  buf.capacity */\n      0x20\n      add\n      mload\n        /* \"@chainlink/contracts/src/v0.8/vendor/BufferChainlink.sol\":9124:9127  off */\n      dup5\n        /* \"@chainlink/contracts/src/v0.8/vendor/BufferChainlink.sol\":9118:9121  len */\n      dup4\n        /* \"@chainlink/contracts/src/v0.8/vendor/BufferChainlink.sol\":9118:9127  len + off */\n      tag_271\n      swap2\n      swap1\n      tag_139\n      jump\t// in\n    tag_271:\n        /* \"@chainlink/contracts/src/v0.8/vendor/BufferChainlink.sol\":9118:9142  len + off > buf.capacity */\n      gt\n        /* \"@chainlink/contracts/src/v0.8/vendor/BufferChainlink.sol\":9114:9187  if (len + off > buf.capacity) {... */\n      iszero\n      tag_272\n      jumpi\n        /* \"@chainlink/contracts/src/v0.8/vendor/BufferChainlink.sol\":9152:9180  resize(buf, (len + off) * 2) */\n      tag_273\n        /* \"@chainlink/contracts/src/v0.8/vendor/BufferChainlink.sol\":9159:9162  buf */\n      dup6\n        /* \"@chainlink/contracts/src/v0.8/vendor/BufferChainlink.sol\":9178:9179  2 */\n      0x02\n        /* \"@chainlink/contracts/src/v0.8/vendor/BufferChainlink.sol\":9171:9174  off */\n      dup7\n        /* \"@chainlink/contracts/src/v0.8/vendor/BufferChainlink.sol\":9165:9168  len */\n      dup6\n        /* \"@chainlink/contracts/src/v0.8/vendor/BufferChainlink.sol\":9165:9174  len + off */\n      tag_274\n      swap2\n      swap1\n      tag_139\n      jump\t// in\n    tag_274:\n        /* \"@chainlink/contracts/src/v0.8/vendor/BufferChainlink.sol\":9164:9179  (len + off) * 2 */\n      tag_275\n      swap2\n      swap1\n      tag_72\n      jump\t// in\n    tag_275:\n        /* \"@chainlink/contracts/src/v0.8/vendor/BufferChainlink.sol\":9152:9158  resize */\n      tag_252\n        /* \"@chainlink/contracts/src/v0.8/vendor/BufferChainlink.sol\":9152:9180  resize(buf, (len + off) * 2) */\n      jump\t// in\n    tag_273:\n        /* \"@chainlink/contracts/src/v0.8/vendor/BufferChainlink.sol\":9114:9187  if (len + off > buf.capacity) {... */\n    tag_272:\n        /* \"@chainlink/contracts/src/v0.8/vendor/BufferChainlink.sol\":9193:9205  uint256 mask */\n      0x00\n        /* \"@chainlink/contracts/src/v0.8/vendor/BufferChainlink.sol\":9221:9222  1 */\n      0x01\n        /* \"@chainlink/contracts/src/v0.8/vendor/BufferChainlink.sol\":9214:9217  len */\n      dup4\n        /* \"@chainlink/contracts/src/v0.8/vendor/BufferChainlink.sol\":9209:9212  256 */\n      0x0100\n        /* \"@chainlink/contracts/src/v0.8/vendor/BufferChainlink.sol\":9209:9217  256**len */\n      tag_276\n      swap2\n      swap1\n      tag_277\n      jump\t// in\n    tag_276:\n        /* \"@chainlink/contracts/src/v0.8/vendor/BufferChainlink.sol\":9208:9222  (256**len) - 1 */\n      tag_278\n      swap2\n      swap1\n      tag_198\n      jump\t// in\n    tag_278:\n        /* \"@chainlink/contracts/src/v0.8/vendor/BufferChainlink.sol\":9193:9222  uint256 mask = (256**len) - 1 */\n      swap1\n      pop\n        /* \"@chainlink/contracts/src/v0.8/vendor/BufferChainlink.sol\":9308:9311  buf */\n      dup6\n        /* \"@chainlink/contracts/src/v0.8/vendor/BufferChainlink.sol\":9302:9312  mload(buf) */\n      mload\n        /* \"@chainlink/contracts/src/v0.8/vendor/BufferChainlink.sol\":9423:9426  len */\n      dup4\n        /* \"@chainlink/contracts/src/v0.8/vendor/BufferChainlink.sol\":9417:9420  off */\n      dup7\n        /* \"@chainlink/contracts/src/v0.8/vendor/BufferChainlink.sol\":9409:9415  bufptr */\n      dup3\n        /* \"@chainlink/contracts/src/v0.8/vendor/BufferChainlink.sol\":9405:9421  add(bufptr, off) */\n      add\n        /* \"@chainlink/contracts/src/v0.8/vendor/BufferChainlink.sol\":9401:9427  add(add(bufptr, off), len) */\n      add\n        /* \"@chainlink/contracts/src/v0.8/vendor/BufferChainlink.sol\":9479:9483  data */\n      dup6\n        /* \"@chainlink/contracts/src/v0.8/vendor/BufferChainlink.sol\":9471:9475  mask */\n      dup4\n        /* \"@chainlink/contracts/src/v0.8/vendor/BufferChainlink.sol\":9467:9476  not(mask) */\n      not\n        /* \"@chainlink/contracts/src/v0.8/vendor/BufferChainlink.sol\":9460:9464  dest */\n      dup3\n        /* \"@chainlink/contracts/src/v0.8/vendor/BufferChainlink.sol\":9454:9465  mload(dest) */\n      mload\n        /* \"@chainlink/contracts/src/v0.8/vendor/BufferChainlink.sol\":9450:9477  and(mload(dest), not(mask)) */\n      and\n        /* \"@chainlink/contracts/src/v0.8/vendor/BufferChainlink.sol\":9447:9484  or(and(mload(dest), not(mask)), data) */\n      or\n        /* \"@chainlink/contracts/src/v0.8/vendor/BufferChainlink.sol\":9441:9445  dest */\n      dup2\n        /* \"@chainlink/contracts/src/v0.8/vendor/BufferChainlink.sol\":9434:9485  mstore(dest, or(and(mload(dest), not(mask)), data)) */\n      mstore\n        /* \"@chainlink/contracts/src/v0.8/vendor/BufferChainlink.sol\":9567:9573  bufptr */\n      dup2\n        /* \"@chainlink/contracts/src/v0.8/vendor/BufferChainlink.sol\":9561:9574  mload(bufptr) */\n      mload\n        /* \"@chainlink/contracts/src/v0.8/vendor/BufferChainlink.sol\":9555:9558  len */\n      dup6\n        /* \"@chainlink/contracts/src/v0.8/vendor/BufferChainlink.sol\":9550:9553  off */\n      dup9\n        /* \"@chainlink/contracts/src/v0.8/vendor/BufferChainlink.sol\":9546:9559  add(off, len) */\n      add\n        /* \"@chainlink/contracts/src/v0.8/vendor/BufferChainlink.sol\":9543:9575  gt(add(off, len), mload(bufptr)) */\n      gt\n        /* \"@chainlink/contracts/src/v0.8/vendor/BufferChainlink.sol\":9540:9623  if gt(add(off, len), mload(bufptr)) {... */\n      iszero\n      tag_279\n      jumpi\n        /* \"@chainlink/contracts/src/v0.8/vendor/BufferChainlink.sol\":9610:9613  len */\n      dup5\n        /* \"@chainlink/contracts/src/v0.8/vendor/BufferChainlink.sol\":9605:9608  off */\n      dup8\n        /* \"@chainlink/contracts/src/v0.8/vendor/BufferChainlink.sol\":9601:9614  add(off, len) */\n      add\n        /* \"@chainlink/contracts/src/v0.8/vendor/BufferChainlink.sol\":9593:9599  bufptr */\n      dup3\n        /* \"@chainlink/contracts/src/v0.8/vendor/BufferChainlink.sol\":9586:9615  mstore(bufptr, add(off, len)) */\n      mstore\n        /* \"@chainlink/contracts/src/v0.8/vendor/BufferChainlink.sol\":9540:9623  if gt(add(off, len), mload(bufptr)) {... */\n    tag_279:\n        /* \"@chainlink/contracts/src/v0.8/vendor/BufferChainlink.sol\":9237:9629  {... */\n      pop\n      pop\n        /* \"@chainlink/contracts/src/v0.8/vendor/BufferChainlink.sol\":9641:9644  buf */\n      dup6\n        /* \"@chainlink/contracts/src/v0.8/vendor/BufferChainlink.sol\":9634:9644  return buf */\n      swap2\n      pop\n      pop\n        /* \"@chainlink/contracts/src/v0.8/vendor/BufferChainlink.sol\":8974:9649  function writeInt(... */\n      swap5\n      swap4\n      pop\n      pop\n      pop\n      pop\n      jump\t// out\n        /* \"@chainlink/contracts/src/v0.8/vendor/BufferChainlink.sol\":1961:2085  function max(uint256 a, uint256 b) private pure returns (uint256) {... */\n    tag_250:\n        /* \"@chainlink/contracts/src/v0.8/vendor/BufferChainlink.sol\":2018:2025  uint256 */\n      0x00\n        /* \"@chainlink/contracts/src/v0.8/vendor/BufferChainlink.sol\":2041:2042  b */\n      dup2\n        /* \"@chainlink/contracts/src/v0.8/vendor/BufferChainlink.sol\":2037:2038  a */\n      dup4\n        /* \"@chainlink/contracts/src/v0.8/vendor/BufferChainlink.sol\":2037:2042  a > b */\n      gt\n        /* \"@chainlink/contracts/src/v0.8/vendor/BufferChainlink.sol\":2033:2067  if (a > b) {... */\n      iszero\n      tag_281\n      jumpi\n        /* \"@chainlink/contracts/src/v0.8/vendor/BufferChainlink.sol\":2059:2060  a */\n      dup3\n        /* \"@chainlink/contracts/src/v0.8/vendor/BufferChainlink.sol\":2052:2060  return a */\n      swap1\n      pop\n      jump(tag_280)\n        /* \"@chainlink/contracts/src/v0.8/vendor/BufferChainlink.sol\":2033:2067  if (a > b) {... */\n    tag_281:\n        /* \"@chainlink/contracts/src/v0.8/vendor/BufferChainlink.sol\":2079:2080  b */\n      dup2\n        /* \"@chainlink/contracts/src/v0.8/vendor/BufferChainlink.sol\":2072:2080  return b */\n      swap1\n      pop\n        /* \"@chainlink/contracts/src/v0.8/vendor/BufferChainlink.sol\":1961:2085  function max(uint256 a, uint256 b) private pure returns (uint256) {... */\n    tag_280:\n      swap3\n      swap2\n      pop\n      pop\n      jump\t// out\n        /* \"@chainlink/contracts/src/v0.8/vendor/BufferChainlink.sol\":1801:1957  function resize(buffer memory buf, uint256 capacity) private pure {... */\n    tag_252:\n        /* \"@chainlink/contracts/src/v0.8/vendor/BufferChainlink.sol\":1873:1892  bytes memory oldbuf */\n      0x00\n        /* \"@chainlink/contracts/src/v0.8/vendor/BufferChainlink.sol\":1895:1898  buf */\n      dup3\n        /* \"@chainlink/contracts/src/v0.8/vendor/BufferChainlink.sol\":1895:1902  buf.buf */\n      0x00\n      add\n      mload\n        /* \"@chainlink/contracts/src/v0.8/vendor/BufferChainlink.sol\":1873:1902  bytes memory oldbuf = buf.buf */\n      swap1\n      pop\n        /* \"@chainlink/contracts/src/v0.8/vendor/BufferChainlink.sol\":1908:1927  init(buf, capacity) */\n      tag_283\n        /* \"@chainlink/contracts/src/v0.8/vendor/BufferChainlink.sol\":1913:1916  buf */\n      dup4\n        /* \"@chainlink/contracts/src/v0.8/vendor/BufferChainlink.sol\":1918:1926  capacity */\n      dup4\n        /* \"@chainlink/contracts/src/v0.8/vendor/BufferChainlink.sol\":1908:1912  init */\n      tag_157\n        /* \"@chainlink/contracts/src/v0.8/vendor/BufferChainlink.sol\":1908:1927  init(buf, capacity) */\n      jump\t// in\n    tag_283:\n      pop\n        /* \"@chainlink/contracts/src/v0.8/vendor/BufferChainlink.sol\":1933:1952  append(buf, oldbuf) */\n      tag_284\n        /* \"@chainlink/contracts/src/v0.8/vendor/BufferChainlink.sol\":1940:1943  buf */\n      dup4\n        /* \"@chainlink/contracts/src/v0.8/vendor/BufferChainlink.sol\":1945:1951  oldbuf */\n      dup3\n        /* \"@chainlink/contracts/src/v0.8/vendor/BufferChainlink.sol\":1933:1939  append */\n      tag_162\n        /* \"@chainlink/contracts/src/v0.8/vendor/BufferChainlink.sol\":1933:1952  append(buf, oldbuf) */\n      jump\t// in\n    tag_284:\n      pop\n        /* \"@chainlink/contracts/src/v0.8/vendor/BufferChainlink.sol\":1867:1957  {... */\n      pop\n        /* \"@chainlink/contracts/src/v0.8/vendor/BufferChainlink.sol\":1801:1957  function resize(buffer memory buf, uint256 capacity) private pure {... */\n      pop\n      pop\n      jump\t// out\n    tag_124:\n      mload(0x40)\n      dup1\n      0xa0\n      add\n      0x40\n      mstore\n      dup1\n      0x00\n      dup1\n      not\n      and\n      dup2\n      mstore\n      0x20\n      add\n      and(0xffffffffffffffffffffffffffffffffffffffff, 0x00)\n      dup2\n      mstore\n      0x20\n      add\n      and(not(0xffffffffffffffffffffffffffffffffffffffffffffffffffffffff), 0x00)\n      dup2\n      mstore\n      0x20\n      add\n      0x00\n      dup2\n      mstore\n      0x20\n      add\n      tag_285\n      tag_191\n      jump\t// in\n    tag_285:\n      dup2\n      mstore\n      pop\n      swap1\n      jump\t// out\n    tag_191:\n      mload(0x40)\n      dup1\n      0x40\n      add\n      0x40\n      mstore\n      dup1\n      0x60\n      dup2\n      mstore\n      0x20\n      add\n      0x00\n      dup2\n      mstore\n      pop\n      swap1\n      jump\t// out\n        /* \"#utility.yul\":7:419   */\n    tag_287:\n        /* \"#utility.yul\":85:90   */\n      0x00\n        /* \"#utility.yul\":110:176   */\n      tag_289\n        /* \"#utility.yul\":126:175   */\n      tag_290\n        /* \"#utility.yul\":168:174   */\n      dup5\n        /* \"#utility.yul\":126:175   */\n      tag_291\n      jump\t// in\n    tag_290:\n        /* \"#utility.yul\":110:176   */\n      tag_292\n      jump\t// in\n    tag_289:\n        /* \"#utility.yul\":101:176   */\n      swap1\n      pop\n        /* \"#utility.yul\":199:205   */\n      dup3\n        /* \"#utility.yul\":192:197   */\n      dup2\n        /* \"#utility.yul\":185:206   */\n      mstore\n        /* \"#utility.yul\":237:241   */\n      0x20\n        /* \"#utility.yul\":230:235   */\n      dup2\n        /* \"#utility.yul\":226:242   */\n      add\n        /* \"#utility.yul\":275:278   */\n      dup5\n        /* \"#utility.yul\":266:272   */\n      dup5\n        /* \"#utility.yul\":261:264   */\n      dup5\n        /* \"#utility.yul\":257:273   */\n      add\n        /* \"#utility.yul\":254:279   */\n      gt\n        /* \"#utility.yul\":251:363   */\n      iszero\n      tag_293\n      jumpi\n        /* \"#utility.yul\":282:361   */\n      tag_294\n      tag_295\n      jump\t// in\n    tag_294:\n        /* \"#utility.yul\":251:363   */\n    tag_293:\n        /* \"#utility.yul\":372:413   */\n      tag_296\n        /* \"#utility.yul\":406:412   */\n      dup5\n        /* \"#utility.yul\":401:404   */\n      dup3\n        /* \"#utility.yul\":396:399   */\n      dup6\n        /* \"#utility.yul\":372:413   */\n      tag_297\n      jump\t// in\n    tag_296:\n        /* \"#utility.yul\":91:419   */\n      pop\n        /* \"#utility.yul\":7:419   */\n      swap4\n      swap3\n      pop\n      pop\n      pop\n      jump\t// out\n        /* \"#utility.yul\":425:564   */\n    tag_298:\n        /* \"#utility.yul\":471:476   */\n      0x00\n        /* \"#utility.yul\":509:515   */\n      dup2\n        /* \"#utility.yul\":496:516   */\n      calldataload\n        /* \"#utility.yul\":487:516   */\n      swap1\n      pop\n        /* \"#utility.yul\":525:558   */\n      tag_300\n        /* \"#utility.yul\":552:557   */\n      dup2\n        /* \"#utility.yul\":525:558   */\n      tag_301\n      jump\t// in\n    tag_300:\n        /* \"#utility.yul\":425:564   */\n      swap3\n      swap2\n      pop\n      pop\n      jump\t// out\n        /* \"#utility.yul\":570:707   */\n    tag_302:\n        /* \"#utility.yul\":624:629   */\n      0x00\n        /* \"#utility.yul\":655:661   */\n      dup2\n        /* \"#utility.yul\":649:662   */\n      mload\n        /* \"#utility.yul\":640:662   */\n      swap1\n      pop\n        /* \"#utility.yul\":671:701   */\n      tag_304\n        /* \"#utility.yul\":695:700   */\n      dup2\n        /* \"#utility.yul\":671:701   */\n      tag_305\n      jump\t// in\n    tag_304:\n        /* \"#utility.yul\":570:707   */\n      swap3\n      swap2\n      pop\n      pop\n      jump\t// out\n        /* \"#utility.yul\":713:852   */\n    tag_306:\n        /* \"#utility.yul\":759:764   */\n      0x00\n        /* \"#utility.yul\":797:803   */\n      dup2\n        /* \"#utility.yul\":784:804   */\n      calldataload\n        /* \"#utility.yul\":775:804   */\n      swap1\n      pop\n        /* \"#utility.yul\":813:846   */\n      tag_308\n        /* \"#utility.yul\":840:845   */\n      dup2\n        /* \"#utility.yul\":813:846   */\n      tag_309\n      jump\t// in\n    tag_308:\n        /* \"#utility.yul\":713:852   */\n      swap3\n      swap2\n      pop\n      pop\n      jump\t// out\n        /* \"#utility.yul\":858:995   */\n    tag_310:\n        /* \"#utility.yul\":903:908   */\n      0x00\n        /* \"#utility.yul\":941:947   */\n      dup2\n        /* \"#utility.yul\":928:948   */\n      calldataload\n        /* \"#utility.yul\":919:948   */\n      swap1\n      pop\n        /* \"#utility.yul\":957:989   */\n      tag_312\n        /* \"#utility.yul\":983:988   */\n      dup2\n        /* \"#utility.yul\":957:989   */\n      tag_313\n      jump\t// in\n    tag_312:\n        /* \"#utility.yul\":858:995   */\n      swap3\n      swap2\n      pop\n      pop\n      jump\t// out\n        /* \"#utility.yul\":1015:1355   */\n    tag_314:\n        /* \"#utility.yul\":1071:1076   */\n      0x00\n        /* \"#utility.yul\":1120:1123   */\n      dup3\n        /* \"#utility.yul\":1113:1117   */\n      0x1f\n        /* \"#utility.yul\":1105:1111   */\n      dup4\n        /* \"#utility.yul\":1101:1118   */\n      add\n        /* \"#utility.yul\":1097:1124   */\n      slt\n        /* \"#utility.yul\":1087:1209   */\n      tag_316\n      jumpi\n        /* \"#utility.yul\":1128:1207   */\n      tag_317\n      tag_318\n      jump\t// in\n    tag_317:\n        /* \"#utility.yul\":1087:1209   */\n    tag_316:\n        /* \"#utility.yul\":1245:1251   */\n      dup2\n        /* \"#utility.yul\":1232:1252   */\n      calldataload\n        /* \"#utility.yul\":1270:1349   */\n      tag_319\n        /* \"#utility.yul\":1345:1348   */\n      dup5\n        /* \"#utility.yul\":1337:1343   */\n      dup3\n        /* \"#utility.yul\":1330:1334   */\n      0x20\n        /* \"#utility.yul\":1322:1328   */\n      dup7\n        /* \"#utility.yul\":1318:1335   */\n      add\n        /* \"#utility.yul\":1270:1349   */\n      tag_287\n      jump\t// in\n    tag_319:\n        /* \"#utility.yul\":1261:1349   */\n      swap2\n      pop\n        /* \"#utility.yul\":1077:1355   */\n      pop\n        /* \"#utility.yul\":1015:1355   */\n      swap3\n      swap2\n      pop\n      pop\n      jump\t// out\n        /* \"#utility.yul\":1361:1500   */\n    tag_320:\n        /* \"#utility.yul\":1407:1412   */\n      0x00\n        /* \"#utility.yul\":1445:1451   */\n      dup2\n        /* \"#utility.yul\":1432:1452   */\n      calldataload\n        /* \"#utility.yul\":1423:1452   */\n      swap1\n      pop\n        /* \"#utility.yul\":1461:1494   */\n      tag_322\n        /* \"#utility.yul\":1488:1493   */\n      dup2\n        /* \"#utility.yul\":1461:1494   */\n      tag_323\n      jump\t// in\n    tag_322:\n        /* \"#utility.yul\":1361:1500   */\n      swap3\n      swap2\n      pop\n      pop\n      jump\t// out\n        /* \"#utility.yul\":1506:1649   */\n    tag_324:\n        /* \"#utility.yul\":1563:1568   */\n      0x00\n        /* \"#utility.yul\":1594:1600   */\n      dup2\n        /* \"#utility.yul\":1588:1601   */\n      mload\n        /* \"#utility.yul\":1579:1601   */\n      swap1\n      pop\n        /* \"#utility.yul\":1610:1643   */\n      tag_326\n        /* \"#utility.yul\":1637:1642   */\n      dup2\n        /* \"#utility.yul\":1610:1643   */\n      tag_323\n      jump\t// in\n    tag_326:\n        /* \"#utility.yul\":1506:1649   */\n      swap3\n      swap2\n      pop\n      pop\n      jump\t// out\n        /* \"#utility.yul\":1655:1984   */\n    tag_52:\n        /* \"#utility.yul\":1714:1720   */\n      0x00\n        /* \"#utility.yul\":1763:1765   */\n      0x20\n        /* \"#utility.yul\":1751:1760   */\n      dup3\n        /* \"#utility.yul\":1742:1749   */\n      dup5\n        /* \"#utility.yul\":1738:1761   */\n      sub\n        /* \"#utility.yul\":1734:1766   */\n      slt\n        /* \"#utility.yul\":1731:1850   */\n      iszero\n      tag_328\n      jumpi\n        /* \"#utility.yul\":1769:1848   */\n      tag_329\n      tag_330\n      jump\t// in\n    tag_329:\n        /* \"#utility.yul\":1731:1850   */\n    tag_328:\n        /* \"#utility.yul\":1889:1890   */\n      0x00\n        /* \"#utility.yul\":1914:1967   */\n      tag_331\n        /* \"#utility.yul\":1959:1966   */\n      dup5\n        /* \"#utility.yul\":1950:1956   */\n      dup3\n        /* \"#utility.yul\":1939:1948   */\n      dup6\n        /* \"#utility.yul\":1935:1957   */\n      add\n        /* \"#utility.yul\":1914:1967   */\n      tag_298\n      jump\t// in\n    tag_331:\n        /* \"#utility.yul\":1904:1967   */\n      swap2\n      pop\n        /* \"#utility.yul\":1860:1977   */\n      pop\n        /* \"#utility.yul\":1655:1984   */\n      swap3\n      swap2\n      pop\n      pop\n      jump\t// out\n        /* \"#utility.yul\":1990:2644   */\n    tag_25:\n        /* \"#utility.yul\":2068:2074   */\n      0x00\n        /* \"#utility.yul\":2076:2082   */\n      dup1\n        /* \"#utility.yul\":2125:2127   */\n      0x40\n        /* \"#utility.yul\":2113:2122   */\n      dup4\n        /* \"#utility.yul\":2104:2111   */\n      dup6\n        /* \"#utility.yul\":2100:2123   */\n      sub\n        /* \"#utility.yul\":2096:2128   */\n      slt\n        /* \"#utility.yul\":2093:2212   */\n      iszero\n      tag_333\n      jumpi\n        /* \"#utility.yul\":2131:2210   */\n      tag_334\n      tag_330\n      jump\t// in\n    tag_334:\n        /* \"#utility.yul\":2093:2212   */\n    tag_333:\n        /* \"#utility.yul\":2251:2252   */\n      0x00\n        /* \"#utility.yul\":2276:2329   */\n      tag_335\n        /* \"#utility.yul\":2321:2328   */\n      dup6\n        /* \"#utility.yul\":2312:2318   */\n      dup3\n        /* \"#utility.yul\":2301:2310   */\n      dup7\n        /* \"#utility.yul\":2297:2319   */\n      add\n        /* \"#utility.yul\":2276:2329   */\n      tag_298\n      jump\t// in\n    tag_335:\n        /* \"#utility.yul\":2266:2329   */\n      swap3\n      pop\n        /* \"#utility.yul\":2222:2339   */\n      pop\n        /* \"#utility.yul\":2406:2408   */\n      0x20\n        /* \"#utility.yul\":2395:2404   */\n      dup4\n        /* \"#utility.yul\":2391:2409   */\n      add\n        /* \"#utility.yul\":2378:2410   */\n      calldataload\n        /* \"#utility.yul\":2437:2455   */\n      0xffffffffffffffff\n        /* \"#utility.yul\":2429:2435   */\n      dup2\n        /* \"#utility.yul\":2426:2456   */\n      gt\n        /* \"#utility.yul\":2423:2540   */\n      iszero\n      tag_336\n      jumpi\n        /* \"#utility.yul\":2459:2538   */\n      tag_337\n      tag_338\n      jump\t// in\n    tag_337:\n        /* \"#utility.yul\":2423:2540   */\n    tag_336:\n        /* \"#utility.yul\":2564:2627   */\n      tag_339\n        /* \"#utility.yul\":2619:2626   */\n      dup6\n        /* \"#utility.yul\":2610:2616   */\n      dup3\n        /* \"#utility.yul\":2599:2608   */\n      dup7\n        /* \"#utility.yul\":2595:2617   */\n      add\n        /* \"#utility.yul\":2564:2627   */\n      tag_314\n      jump\t// in\n    tag_339:\n        /* \"#utility.yul\":2554:2627   */\n      swap2\n      pop\n        /* \"#utility.yul\":2349:2637   */\n      pop\n        /* \"#utility.yul\":1990:2644   */\n      swap3\n      pop\n      swap3\n      swap1\n      pop\n      jump\t// out\n        /* \"#utility.yul\":2650:2995   */\n    tag_102:\n        /* \"#utility.yul\":2717:2723   */\n      0x00\n        /* \"#utility.yul\":2766:2768   */\n      0x20\n        /* \"#utility.yul\":2754:2763   */\n      dup3\n        /* \"#utility.yul\":2745:2752   */\n      dup5\n        /* \"#utility.yul\":2741:2764   */\n      sub\n        /* \"#utility.yul\":2737:2769   */\n      slt\n        /* \"#utility.yul\":2734:2853   */\n      iszero\n      tag_341\n      jumpi\n        /* \"#utility.yul\":2772:2851   */\n      tag_342\n      tag_330\n      jump\t// in\n    tag_342:\n        /* \"#utility.yul\":2734:2853   */\n    tag_341:\n        /* \"#utility.yul\":2892:2893   */\n      0x00\n        /* \"#utility.yul\":2917:2978   */\n      tag_343\n        /* \"#utility.yul\":2970:2977   */\n      dup5\n        /* \"#utility.yul\":2961:2967   */\n      dup3\n        /* \"#utility.yul\":2950:2959   */\n      dup6\n        /* \"#utility.yul\":2946:2968   */\n      add\n        /* \"#utility.yul\":2917:2978   */\n      tag_302\n      jump\t// in\n    tag_343:\n        /* \"#utility.yul\":2907:2978   */\n      swap2\n      pop\n        /* \"#utility.yul\":2863:2988   */\n      pop\n        /* \"#utility.yul\":2650:2995   */\n      swap3\n      swap2\n      pop\n      pop\n      jump\t// out\n        /* \"#utility.yul\":3001:3475   */\n    tag_29:\n        /* \"#utility.yul\":3069:3075   */\n      0x00\n        /* \"#utility.yul\":3077:3083   */\n      dup1\n        /* \"#utility.yul\":3126:3128   */\n      0x40\n        /* \"#utility.yul\":3114:3123   */\n      dup4\n        /* \"#utility.yul\":3105:3112   */\n      dup6\n        /* \"#utility.yul\":3101:3124   */\n      sub\n        /* \"#utility.yul\":3097:3129   */\n      slt\n        /* \"#utility.yul\":3094:3213   */\n      iszero\n      tag_345\n      jumpi\n        /* \"#utility.yul\":3132:3211   */\n      tag_346\n      tag_330\n      jump\t// in\n    tag_346:\n        /* \"#utility.yul\":3094:3213   */\n    tag_345:\n        /* \"#utility.yul\":3252:3253   */\n      0x00\n        /* \"#utility.yul\":3277:3330   */\n      tag_347\n        /* \"#utility.yul\":3322:3329   */\n      dup6\n        /* \"#utility.yul\":3313:3319   */\n      dup3\n        /* \"#utility.yul\":3302:3311   */\n      dup7\n        /* \"#utility.yul\":3298:3320   */\n      add\n        /* \"#utility.yul\":3277:3330   */\n      tag_306\n      jump\t// in\n    tag_347:\n        /* \"#utility.yul\":3267:3330   */\n      swap3\n      pop\n        /* \"#utility.yul\":3223:3340   */\n      pop\n        /* \"#utility.yul\":3379:3381   */\n      0x20\n        /* \"#utility.yul\":3405:3458   */\n      tag_348\n        /* \"#utility.yul\":3450:3457   */\n      dup6\n        /* \"#utility.yul\":3441:3447   */\n      dup3\n        /* \"#utility.yul\":3430:3439   */\n      dup7\n        /* \"#utility.yul\":3426:3448   */\n      add\n        /* \"#utility.yul\":3405:3458   */\n      tag_320\n      jump\t// in\n    tag_348:\n        /* \"#utility.yul\":3395:3458   */\n      swap2\n      pop\n        /* \"#utility.yul\":3350:3468   */\n      pop\n        /* \"#utility.yul\":3001:3475   */\n      swap3\n      pop\n      swap3\n      swap1\n      pop\n      jump\t// out\n        /* \"#utility.yul\":3481:4244   */\n    tag_48:\n        /* \"#utility.yul\":3566:3572   */\n      0x00\n        /* \"#utility.yul\":3574:3580   */\n      dup1\n        /* \"#utility.yul\":3582:3588   */\n      0x00\n        /* \"#utility.yul\":3590:3596   */\n      dup1\n        /* \"#utility.yul\":3639:3642   */\n      0x80\n        /* \"#utility.yul\":3627:3636   */\n      dup6\n        /* \"#utility.yul\":3618:3625   */\n      dup8\n        /* \"#utility.yul\":3614:3637   */\n      sub\n        /* \"#utility.yul\":3610:3643   */\n      slt\n        /* \"#utility.yul\":3607:3727   */\n      iszero\n      tag_350\n      jumpi\n        /* \"#utility.yul\":3646:3725   */\n      tag_351\n      tag_330\n      jump\t// in\n    tag_351:\n        /* \"#utility.yul\":3607:3727   */\n    tag_350:\n        /* \"#utility.yul\":3766:3767   */\n      0x00\n        /* \"#utility.yul\":3791:3844   */\n      tag_352\n        /* \"#utility.yul\":3836:3843   */\n      dup8\n        /* \"#utility.yul\":3827:3833   */\n      dup3\n        /* \"#utility.yul\":3816:3825   */\n      dup9\n        /* \"#utility.yul\":3812:3834   */\n      add\n        /* \"#utility.yul\":3791:3844   */\n      tag_306\n      jump\t// in\n    tag_352:\n        /* \"#utility.yul\":3781:3844   */\n      swap5\n      pop\n        /* \"#utility.yul\":3737:3854   */\n      pop\n        /* \"#utility.yul\":3893:3895   */\n      0x20\n        /* \"#utility.yul\":3919:3972   */\n      tag_353\n        /* \"#utility.yul\":3964:3971   */\n      dup8\n        /* \"#utility.yul\":3955:3961   */\n      dup3\n        /* \"#utility.yul\":3944:3953   */\n      dup9\n        /* \"#utility.yul\":3940:3962   */\n      add\n        /* \"#utility.yul\":3919:3972   */\n      tag_320\n      jump\t// in\n    tag_353:\n        /* \"#utility.yul\":3909:3972   */\n      swap4\n      pop\n        /* \"#utility.yul\":3864:3982   */\n      pop\n        /* \"#utility.yul\":4021:4023   */\n      0x40\n        /* \"#utility.yul\":4047:4099   */\n      tag_354\n        /* \"#utility.yul\":4091:4098   */\n      dup8\n        /* \"#utility.yul\":4082:4088   */\n      dup3\n        /* \"#utility.yul\":4071:4080   */\n      dup9\n        /* \"#utility.yul\":4067:4089   */\n      add\n        /* \"#utility.yul\":4047:4099   */\n      tag_310\n      jump\t// in\n    tag_354:\n        /* \"#utility.yul\":4037:4099   */\n      swap3\n      pop\n        /* \"#utility.yul\":3992:4109   */\n      pop\n        /* \"#utility.yul\":4148:4150   */\n      0x60\n        /* \"#utility.yul\":4174:4227   */\n      tag_355\n        /* \"#utility.yul\":4219:4226   */\n      dup8\n        /* \"#utility.yul\":4210:4216   */\n      dup3\n        /* \"#utility.yul\":4199:4208   */\n      dup9\n        /* \"#utility.yul\":4195:4217   */\n      add\n        /* \"#utility.yul\":4174:4227   */\n      tag_320\n      jump\t// in\n    tag_355:\n        /* \"#utility.yul\":4164:4227   */\n      swap2\n      pop\n        /* \"#utility.yul\":4119:4237   */\n      pop\n        /* \"#utility.yul\":3481:4244   */\n      swap3\n      swap6\n      swap2\n      swap5\n      pop\n      swap3\n      pop\n      jump\t// out\n        /* \"#utility.yul\":4250:4601   */\n    tag_95:\n        /* \"#utility.yul\":4320:4326   */\n      0x00\n        /* \"#utility.yul\":4369:4371   */\n      0x20\n        /* \"#utility.yul\":4357:4366   */\n      dup3\n        /* \"#utility.yul\":4348:4355   */\n      dup5\n        /* \"#utility.yul\":4344:4367   */\n      sub\n        /* \"#utility.yul\":4340:4372   */\n      slt\n        /* \"#utility.yul\":4337:4456   */\n      iszero\n      tag_357\n      jumpi\n        /* \"#utility.yul\":4375:4454   */\n      tag_358\n      tag_330\n      jump\t// in\n    tag_358:\n        /* \"#utility.yul\":4337:4456   */\n    tag_357:\n        /* \"#utility.yul\":4495:4496   */\n      0x00\n        /* \"#utility.yul\":4520:4584   */\n      tag_359\n        /* \"#utility.yul\":4576:4583   */\n      dup5\n        /* \"#utility.yul\":4567:4573   */\n      dup3\n        /* \"#utility.yul\":4556:4565   */\n      dup6\n        /* \"#utility.yul\":4552:4574   */\n      add\n        /* \"#utility.yul\":4520:4584   */\n      tag_324\n      jump\t// in\n    tag_359:\n        /* \"#utility.yul\":4510:4584   */\n      swap2\n      pop\n        /* \"#utility.yul\":4466:4594   */\n      pop\n        /* \"#utility.yul\":4250:4601   */\n      swap3\n      swap2\n      pop\n      pop\n      jump\t// out\n        /* \"#utility.yul\":4607:4725   */\n    tag_360:\n        /* \"#utility.yul\":4694:4718   */\n      tag_362\n        /* \"#utility.yul\":4712:4717   */\n      dup2\n        /* \"#utility.yul\":4694:4718   */\n      tag_363\n      jump\t// in\n    tag_362:\n        /* \"#utility.yul\":4689:4692   */\n      dup3\n        /* \"#utility.yul\":4682:4719   */\n      mstore\n        /* \"#utility.yul\":4607:4725   */\n      pop\n      pop\n      jump\t// out\n        /* \"#utility.yul\":4731:4849   */\n    tag_364:\n        /* \"#utility.yul\":4818:4842   */\n      tag_366\n        /* \"#utility.yul\":4836:4841   */\n      dup2\n        /* \"#utility.yul\":4818:4842   */\n      tag_367\n      jump\t// in\n    tag_366:\n        /* \"#utility.yul\":4813:4816   */\n      dup3\n        /* \"#utility.yul\":4806:4843   */\n      mstore\n        /* \"#utility.yul\":4731:4849   */\n      pop\n      pop\n      jump\t// out\n        /* \"#utility.yul\":4855:4970   */\n    tag_368:\n        /* \"#utility.yul\":4940:4963   */\n      tag_370\n        /* \"#utility.yul\":4957:4962   */\n      dup2\n        /* \"#utility.yul\":4940:4963   */\n      tag_371\n      jump\t// in\n    tag_370:\n        /* \"#utility.yul\":4935:4938   */\n      dup3\n        /* \"#utility.yul\":4928:4964   */\n      mstore\n        /* \"#utility.yul\":4855:4970   */\n      pop\n      pop\n      jump\t// out\n        /* \"#utility.yul\":4976:5336   */\n    tag_372:\n        /* \"#utility.yul\":5062:5065   */\n      0x00\n        /* \"#utility.yul\":5090:5128   */\n      tag_374\n        /* \"#utility.yul\":5122:5127   */\n      dup3\n        /* \"#utility.yul\":5090:5128   */\n      tag_375\n      jump\t// in\n    tag_374:\n        /* \"#utility.yul\":5144:5214   */\n      tag_376\n        /* \"#utility.yul\":5207:5213   */\n      dup2\n        /* \"#utility.yul\":5202:5205   */\n      dup6\n        /* \"#utility.yul\":5144:5214   */\n      tag_377\n      jump\t// in\n    tag_376:\n        /* \"#utility.yul\":5137:5214   */\n      swap4\n      pop\n        /* \"#utility.yul\":5223:5275   */\n      tag_378\n        /* \"#utility.yul\":5268:5274   */\n      dup2\n        /* \"#utility.yul\":5263:5266   */\n      dup6\n        /* \"#utility.yul\":5256:5260   */\n      0x20\n        /* \"#utility.yul\":5249:5254   */\n      dup7\n        /* \"#utility.yul\":5245:5261   */\n      add\n        /* \"#utility.yul\":5223:5275   */\n      tag_379\n      jump\t// in\n    tag_378:\n        /* \"#utility.yul\":5300:5329   */\n      tag_380\n        /* \"#utility.yul\":5322:5328   */\n      dup2\n        /* \"#utility.yul\":5300:5329   */\n      tag_381\n      jump\t// in\n    tag_380:\n        /* \"#utility.yul\":5295:5298   */\n      dup5\n        /* \"#utility.yul\":5291:5330   */\n      add\n        /* \"#utility.yul\":5284:5330   */\n      swap2\n      pop\n        /* \"#utility.yul\":5066:5336   */\n      pop\n        /* \"#utility.yul\":4976:5336   */\n      swap3\n      swap2\n      pop\n      pop\n      jump\t// out\n        /* \"#utility.yul\":5342:5558   */\n    tag_382:\n        /* \"#utility.yul\":5470:5551   */\n      tag_384\n        /* \"#utility.yul\":5490:5550   */\n      tag_385\n        /* \"#utility.yul\":5544:5549   */\n      dup3\n        /* \"#utility.yul\":5490:5550   */\n      tag_386\n      jump\t// in\n    tag_385:\n        /* \"#utility.yul\":5470:5551   */\n      tag_387\n      jump\t// in\n    tag_384:\n        /* \"#utility.yul\":5465:5468   */\n      dup3\n        /* \"#utility.yul\":5458:5552   */\n      mstore\n        /* \"#utility.yul\":5342:5558   */\n      pop\n      pop\n      jump\t// out\n        /* \"#utility.yul\":5564:5679   */\n    tag_388:\n        /* \"#utility.yul\":5649:5672   */\n      tag_390\n        /* \"#utility.yul\":5666:5671   */\n      dup2\n        /* \"#utility.yul\":5649:5672   */\n      tag_391\n      jump\t// in\n    tag_390:\n        /* \"#utility.yul\":5644:5647   */\n      dup3\n        /* \"#utility.yul\":5637:5673   */\n      mstore\n        /* \"#utility.yul\":5564:5679   */\n      pop\n      pop\n      jump\t// out\n        /* \"#utility.yul\":5685:6051   */\n    tag_392:\n        /* \"#utility.yul\":5827:5830   */\n      0x00\n        /* \"#utility.yul\":5848:5915   */\n      tag_394\n        /* \"#utility.yul\":5912:5914   */\n      0x16\n        /* \"#utility.yul\":5907:5910   */\n      dup4\n        /* \"#utility.yul\":5848:5915   */\n      tag_395\n      jump\t// in\n    tag_394:\n        /* \"#utility.yul\":5841:5915   */\n      swap2\n      pop\n        /* \"#utility.yul\":5924:6017   */\n      tag_396\n        /* \"#utility.yul\":6013:6016   */\n      dup3\n        /* \"#utility.yul\":5924:6017   */\n      tag_397\n      jump\t// in\n    tag_396:\n        /* \"#utility.yul\":6042:6044   */\n      0x20\n        /* \"#utility.yul\":6037:6040   */\n      dup3\n        /* \"#utility.yul\":6033:6045   */\n      add\n        /* \"#utility.yul\":6026:6045   */\n      swap1\n      pop\n        /* \"#utility.yul\":5685:6051   */\n      swap2\n      swap1\n      pop\n      jump\t// out\n        /* \"#utility.yul\":6057:6423   */\n    tag_398:\n        /* \"#utility.yul\":6199:6202   */\n      0x00\n        /* \"#utility.yul\":6220:6287   */\n      tag_400\n        /* \"#utility.yul\":6284:6286   */\n      0x23\n        /* \"#utility.yul\":6279:6282   */\n      dup4\n        /* \"#utility.yul\":6220:6287   */\n      tag_395\n      jump\t// in\n    tag_400:\n        /* \"#utility.yul\":6213:6287   */\n      swap2\n      pop\n        /* \"#utility.yul\":6296:6389   */\n      tag_401\n        /* \"#utility.yul\":6385:6388   */\n      dup3\n        /* \"#utility.yul\":6296:6389   */\n      tag_402\n      jump\t// in\n    tag_401:\n        /* \"#utility.yul\":6414:6416   */\n      0x40\n        /* \"#utility.yul\":6409:6412   */\n      dup3\n        /* \"#utility.yul\":6405:6417   */\n      add\n        /* \"#utility.yul\":6398:6417   */\n      swap1\n      pop\n        /* \"#utility.yul\":6057:6423   */\n      swap2\n      swap1\n      pop\n      jump\t// out\n        /* \"#utility.yul\":6429:6795   */\n    tag_403:\n        /* \"#utility.yul\":6571:6574   */\n      0x00\n        /* \"#utility.yul\":6592:6659   */\n      tag_405\n        /* \"#utility.yul\":6656:6658   */\n      0x16\n        /* \"#utility.yul\":6651:6654   */\n      dup4\n        /* \"#utility.yul\":6592:6659   */\n      tag_395\n      jump\t// in\n    tag_405:\n        /* \"#utility.yul\":6585:6659   */\n      swap2\n      pop\n        /* \"#utility.yul\":6668:6761   */\n      tag_406\n        /* \"#utility.yul\":6757:6760   */\n      dup3\n        /* \"#utility.yul\":6668:6761   */\n      tag_407\n      jump\t// in\n    tag_406:\n        /* \"#utility.yul\":6786:6788   */\n      0x20\n        /* \"#utility.yul\":6781:6784   */\n      dup3\n        /* \"#utility.yul\":6777:6789   */\n      add\n        /* \"#utility.yul\":6770:6789   */\n      swap1\n      pop\n        /* \"#utility.yul\":6429:6795   */\n      swap2\n      swap1\n      pop\n      jump\t// out\n        /* \"#utility.yul\":6801:7167   */\n    tag_408:\n        /* \"#utility.yul\":6943:6946   */\n      0x00\n        /* \"#utility.yul\":6964:7031   */\n      tag_410\n        /* \"#utility.yul\":7028:7030   */\n      0x12\n        /* \"#utility.yul\":7023:7026   */\n      dup4\n        /* \"#utility.yul\":6964:7031   */\n      tag_395\n      jump\t// in\n    tag_410:\n        /* \"#utility.yul\":6957:7031   */\n      swap2\n      pop\n        /* \"#utility.yul\":7040:7133   */\n      tag_411\n        /* \"#utility.yul\":7129:7132   */\n      dup3\n        /* \"#utility.yul\":7040:7133   */\n      tag_412\n      jump\t// in\n    tag_411:\n        /* \"#utility.yul\":7158:7160   */\n      0x20\n        /* \"#utility.yul\":7153:7156   */\n      dup3\n        /* \"#utility.yul\":7149:7161   */\n      add\n        /* \"#utility.yul\":7142:7161   */\n      swap1\n      pop\n        /* \"#utility.yul\":6801:7167   */\n      swap2\n      swap1\n      pop\n      jump\t// out\n        /* \"#utility.yul\":7173:7539   */\n    tag_413:\n        /* \"#utility.yul\":7315:7318   */\n      0x00\n        /* \"#utility.yul\":7336:7403   */\n      tag_415\n        /* \"#utility.yul\":7400:7402   */\n      0x17\n        /* \"#utility.yul\":7395:7398   */\n      dup4\n        /* \"#utility.yul\":7336:7403   */\n      tag_395\n      jump\t// in\n    tag_415:\n        /* \"#utility.yul\":7329:7403   */\n      swap2\n      pop\n        /* \"#utility.yul\":7412:7505   */\n      tag_416\n        /* \"#utility.yul\":7501:7504   */\n      dup3\n        /* \"#utility.yul\":7412:7505   */\n      tag_417\n      jump\t// in\n    tag_416:\n        /* \"#utility.yul\":7530:7532   */\n      0x20\n        /* \"#utility.yul\":7525:7528   */\n      dup3\n        /* \"#utility.yul\":7521:7533   */\n      add\n        /* \"#utility.yul\":7514:7533   */\n      swap1\n      pop\n        /* \"#utility.yul\":7173:7539   */\n      swap2\n      swap1\n      pop\n      jump\t// out\n        /* \"#utility.yul\":7545:7911   */\n    tag_418:\n        /* \"#utility.yul\":7687:7690   */\n      0x00\n        /* \"#utility.yul\":7708:7775   */\n      tag_420\n        /* \"#utility.yul\":7772:7774   */\n      0x28\n        /* \"#utility.yul\":7767:7770   */\n      dup4\n        /* \"#utility.yul\":7708:7775   */\n      tag_395\n      jump\t// in\n    tag_420:\n        /* \"#utility.yul\":7701:7775   */\n      swap2\n      pop\n        /* \"#utility.yul\":7784:7877   */\n      tag_421\n        /* \"#utility.yul\":7873:7876   */\n      dup3\n        /* \"#utility.yul\":7784:7877   */\n      tag_422\n      jump\t// in\n    tag_421:\n        /* \"#utility.yul\":7902:7904   */\n      0x40\n        /* \"#utility.yul\":7897:7900   */\n      dup3\n        /* \"#utility.yul\":7893:7905   */\n      add\n        /* \"#utility.yul\":7886:7905   */\n      swap1\n      pop\n        /* \"#utility.yul\":7545:7911   */\n      swap2\n      swap1\n      pop\n      jump\t// out\n        /* \"#utility.yul\":7917:8035   */\n    tag_423:\n        /* \"#utility.yul\":8004:8028   */\n      tag_425\n        /* \"#utility.yul\":8022:8027   */\n      dup2\n        /* \"#utility.yul\":8004:8028   */\n      tag_426\n      jump\t// in\n    tag_425:\n        /* \"#utility.yul\":7999:8002   */\n      dup3\n        /* \"#utility.yul\":7992:8029   */\n      mstore\n        /* \"#utility.yul\":7917:8035   */\n      pop\n      pop\n      jump\t// out\n        /* \"#utility.yul\":8041:8198   */\n    tag_427:\n        /* \"#utility.yul\":8146:8191   */\n      tag_429\n        /* \"#utility.yul\":8166:8190   */\n      tag_430\n        /* \"#utility.yul\":8184:8189   */\n      dup3\n        /* \"#utility.yul\":8166:8190   */\n      tag_426\n      jump\t// in\n    tag_430:\n        /* \"#utility.yul\":8146:8191   */\n      tag_431\n      jump\t// in\n    tag_429:\n        /* \"#utility.yul\":8141:8144   */\n      dup3\n        /* \"#utility.yul\":8134:8192   */\n      mstore\n        /* \"#utility.yul\":8041:8198   */\n      pop\n      pop\n      jump\t// out\n        /* \"#utility.yul\":8204:8647   */\n    tag_180:\n        /* \"#utility.yul\":8367:8370   */\n      0x00\n        /* \"#utility.yul\":8382:8480   */\n      tag_433\n        /* \"#utility.yul\":8476:8479   */\n      dup3\n        /* \"#utility.yul\":8467:8473   */\n      dup6\n        /* \"#utility.yul\":8382:8480   */\n      tag_382\n      jump\t// in\n    tag_433:\n        /* \"#utility.yul\":8505:8507   */\n      0x14\n        /* \"#utility.yul\":8500:8503   */\n      dup3\n        /* \"#utility.yul\":8496:8508   */\n      add\n        /* \"#utility.yul\":8489:8508   */\n      swap2\n      pop\n        /* \"#utility.yul\":8518:8593   */\n      tag_434\n        /* \"#utility.yul\":8589:8592   */\n      dup3\n        /* \"#utility.yul\":8580:8586   */\n      dup5\n        /* \"#utility.yul\":8518:8593   */\n      tag_427\n      jump\t// in\n    tag_434:\n        /* \"#utility.yul\":8618:8620   */\n      0x20\n        /* \"#utility.yul\":8613:8616   */\n      dup3\n        /* \"#utility.yul\":8609:8621   */\n      add\n        /* \"#utility.yul\":8602:8621   */\n      swap2\n      pop\n        /* \"#utility.yul\":8638:8641   */\n      dup2\n        /* \"#utility.yul\":8631:8641   */\n      swap1\n      pop\n        /* \"#utility.yul\":8204:8647   */\n      swap4\n      swap3\n      pop\n      pop\n      pop\n      jump\t// out\n        /* \"#utility.yul\":8653:8875   */\n    tag_18:\n        /* \"#utility.yul\":8746:8750   */\n      0x00\n        /* \"#utility.yul\":8784:8786   */\n      0x20\n        /* \"#utility.yul\":8773:8782   */\n      dup3\n        /* \"#utility.yul\":8769:8787   */\n      add\n        /* \"#utility.yul\":8761:8787   */\n      swap1\n      pop\n        /* \"#utility.yul\":8797:8868   */\n      tag_436\n        /* \"#utility.yul\":8865:8866   */\n      0x00\n        /* \"#utility.yul\":8854:8863   */\n      dup4\n        /* \"#utility.yul\":8850:8867   */\n      add\n        /* \"#utility.yul\":8841:8847   */\n      dup5\n        /* \"#utility.yul\":8797:8868   */\n      tag_360\n      jump\t// in\n    tag_436:\n        /* \"#utility.yul\":8653:8875   */\n      swap3\n      swap2\n      pop\n      pop\n      jump\t// out\n        /* \"#utility.yul\":8881:9213   */\n    tag_97:\n        /* \"#utility.yul\":9002:9006   */\n      0x00\n        /* \"#utility.yul\":9040:9042   */\n      0x40\n        /* \"#utility.yul\":9029:9038   */\n      dup3\n        /* \"#utility.yul\":9025:9043   */\n      add\n        /* \"#utility.yul\":9017:9043   */\n      swap1\n      pop\n        /* \"#utility.yul\":9053:9124   */\n      tag_438\n        /* \"#utility.yul\":9121:9122   */\n      0x00\n        /* \"#utility.yul\":9110:9119   */\n      dup4\n        /* \"#utility.yul\":9106:9123   */\n      add\n        /* \"#utility.yul\":9097:9103   */\n      dup6\n        /* \"#utility.yul\":9053:9124   */\n      tag_360\n      jump\t// in\n    tag_438:\n        /* \"#utility.yul\":9134:9206   */\n      tag_439\n        /* \"#utility.yul\":9202:9204   */\n      0x20\n        /* \"#utility.yul\":9191:9200   */\n      dup4\n        /* \"#utility.yul\":9187:9205   */\n      add\n        /* \"#utility.yul\":9178:9184   */\n      dup5\n        /* \"#utility.yul\":9134:9206   */\n      tag_423\n      jump\t// in\n    tag_439:\n        /* \"#utility.yul\":8881:9213   */\n      swap4\n      swap3\n      pop\n      pop\n      pop\n      jump\t// out\n        /* \"#utility.yul\":9219:10299   */\n    tag_141:\n        /* \"#utility.yul\":9524:9528   */\n      0x00\n        /* \"#utility.yul\":9562:9565   */\n      0x0100\n        /* \"#utility.yul\":9551:9560   */\n      dup3\n        /* \"#utility.yul\":9547:9566   */\n      add\n        /* \"#utility.yul\":9539:9566   */\n      swap1\n      pop\n        /* \"#utility.yul\":9576:9647   */\n      tag_441\n        /* \"#utility.yul\":9644:9645   */\n      0x00\n        /* \"#utility.yul\":9633:9642   */\n      dup4\n        /* \"#utility.yul\":9629:9646   */\n      add\n        /* \"#utility.yul\":9620:9626   */\n      dup12\n        /* \"#utility.yul\":9576:9647   */\n      tag_360\n      jump\t// in\n    tag_441:\n        /* \"#utility.yul\":9657:9729   */\n      tag_442\n        /* \"#utility.yul\":9725:9727   */\n      0x20\n        /* \"#utility.yul\":9714:9723   */\n      dup4\n        /* \"#utility.yul\":9710:9728   */\n      add\n        /* \"#utility.yul\":9701:9707   */\n      dup11\n        /* \"#utility.yul\":9657:9729   */\n      tag_423\n      jump\t// in\n    tag_442:\n        /* \"#utility.yul\":9739:9811   */\n      tag_443\n        /* \"#utility.yul\":9807:9809   */\n      0x40\n        /* \"#utility.yul\":9796:9805   */\n      dup4\n        /* \"#utility.yul\":9792:9810   */\n      add\n        /* \"#utility.yul\":9783:9789   */\n      dup10\n        /* \"#utility.yul\":9739:9811   */\n      tag_364\n      jump\t// in\n    tag_443:\n        /* \"#utility.yul\":9821:9893   */\n      tag_444\n        /* \"#utility.yul\":9889:9891   */\n      0x60\n        /* \"#utility.yul\":9878:9887   */\n      dup4\n        /* \"#utility.yul\":9874:9892   */\n      add\n        /* \"#utility.yul\":9865:9871   */\n      dup9\n        /* \"#utility.yul\":9821:9893   */\n      tag_360\n      jump\t// in\n    tag_444:\n        /* \"#utility.yul\":9903:9974   */\n      tag_445\n        /* \"#utility.yul\":9969:9972   */\n      0x80\n        /* \"#utility.yul\":9958:9967   */\n      dup4\n        /* \"#utility.yul\":9954:9973   */\n      add\n        /* \"#utility.yul\":9945:9951   */\n      dup8\n        /* \"#utility.yul\":9903:9974   */\n      tag_368\n      jump\t// in\n    tag_445:\n        /* \"#utility.yul\":9984:10057   */\n      tag_446\n        /* \"#utility.yul\":10052:10055   */\n      0xa0\n        /* \"#utility.yul\":10041:10050   */\n      dup4\n        /* \"#utility.yul\":10037:10056   */\n      add\n        /* \"#utility.yul\":10028:10034   */\n      dup7\n        /* \"#utility.yul\":9984:10057   */\n      tag_423\n      jump\t// in\n    tag_446:\n        /* \"#utility.yul\":10067:10140   */\n      tag_447\n        /* \"#utility.yul\":10135:10138   */\n      0xc0\n        /* \"#utility.yul\":10124:10133   */\n      dup4\n        /* \"#utility.yul\":10120:10139   */\n      add\n        /* \"#utility.yul\":10111:10117   */\n      dup6\n        /* \"#utility.yul\":10067:10140   */\n      tag_423\n      jump\t// in\n    tag_447:\n        /* \"#utility.yul\":10188:10197   */\n      dup2\n        /* \"#utility.yul\":10182:10186   */\n      dup2\n        /* \"#utility.yul\":10178:10198   */\n      sub\n        /* \"#utility.yul\":10172:10175   */\n      0xe0\n        /* \"#utility.yul\":10161:10170   */\n      dup4\n        /* \"#utility.yul\":10157:10176   */\n      add\n        /* \"#utility.yul\":10150:10199   */\n      mstore\n        /* \"#utility.yul\":10216:10292   */\n      tag_448\n        /* \"#utility.yul\":10287:10291   */\n      dup2\n        /* \"#utility.yul\":10278:10284   */\n      dup5\n        /* \"#utility.yul\":10216:10292   */\n      tag_372\n      jump\t// in\n    tag_448:\n        /* \"#utility.yul\":10208:10292   */\n      swap1\n      pop\n        /* \"#utility.yul\":9219:10299   */\n      swap10\n      swap9\n      pop\n      pop\n      pop\n      pop\n      pop\n      pop\n      pop\n      pop\n      pop\n      jump\t// out\n        /* \"#utility.yul\":10305:10834   */\n    tag_182:\n        /* \"#utility.yul\":10472:10476   */\n      0x00\n        /* \"#utility.yul\":10510:10512   */\n      0x60\n        /* \"#utility.yul\":10499:10508   */\n      dup3\n        /* \"#utility.yul\":10495:10513   */\n      add\n        /* \"#utility.yul\":10487:10513   */\n      swap1\n      pop\n        /* \"#utility.yul\":10523:10594   */\n      tag_450\n        /* \"#utility.yul\":10591:10592   */\n      0x00\n        /* \"#utility.yul\":10580:10589   */\n      dup4\n        /* \"#utility.yul\":10576:10593   */\n      add\n        /* \"#utility.yul\":10567:10573   */\n      dup7\n        /* \"#utility.yul\":10523:10594   */\n      tag_360\n      jump\t// in\n    tag_450:\n        /* \"#utility.yul\":10604:10676   */\n      tag_451\n        /* \"#utility.yul\":10672:10674   */\n      0x20\n        /* \"#utility.yul\":10661:10670   */\n      dup4\n        /* \"#utility.yul\":10657:10675   */\n      add\n        /* \"#utility.yul\":10648:10654   */\n      dup6\n        /* \"#utility.yul\":10604:10676   */\n      tag_423\n      jump\t// in\n    tag_451:\n        /* \"#utility.yul\":10723:10732   */\n      dup2\n        /* \"#utility.yul\":10717:10721   */\n      dup2\n        /* \"#utility.yul\":10713:10733   */\n      sub\n        /* \"#utility.yul\":10708:10710   */\n      0x40\n        /* \"#utility.yul\":10697:10706   */\n      dup4\n        /* \"#utility.yul\":10693:10711   */\n      add\n        /* \"#utility.yul\":10686:10734   */\n      mstore\n        /* \"#utility.yul\":10751:10827   */\n      tag_452\n        /* \"#utility.yul\":10822:10826   */\n      dup2\n        /* \"#utility.yul\":10813:10819   */\n      dup5\n        /* \"#utility.yul\":10751:10827   */\n      tag_372\n      jump\t// in\n    tag_452:\n        /* \"#utility.yul\":10743:10827   */\n      swap1\n      pop\n        /* \"#utility.yul\":10305:10834   */\n      swap5\n      swap4\n      pop\n      pop\n      pop\n      pop\n      jump\t// out\n        /* \"#utility.yul\":10840:11062   */\n    tag_45:\n        /* \"#utility.yul\":10933:10937   */\n      0x00\n        /* \"#utility.yul\":10971:10973   */\n      0x20\n        /* \"#utility.yul\":10960:10969   */\n      dup3\n        /* \"#utility.yul\":10956:10974   */\n      add\n        /* \"#utility.yul\":10948:10974   */\n      swap1\n      pop\n        /* \"#utility.yul\":10984:11055   */\n      tag_454\n        /* \"#utility.yul\":11052:11053   */\n      0x00\n        /* \"#utility.yul\":11041:11050   */\n      dup4\n        /* \"#utility.yul\":11037:11054   */\n      add\n        /* \"#utility.yul\":11028:11034   */\n      dup5\n        /* \"#utility.yul\":10984:11055   */\n      tag_364\n      jump\t// in\n    tag_454:\n        /* \"#utility.yul\":10840:11062   */\n      swap3\n      swap2\n      pop\n      pop\n      jump\t// out\n        /* \"#utility.yul\":11068:11617   */\n    tag_146:\n        /* \"#utility.yul\":11243:11247   */\n      0x00\n        /* \"#utility.yul\":11281:11284   */\n      0x80\n        /* \"#utility.yul\":11270:11279   */\n      dup3\n        /* \"#utility.yul\":11266:11285   */\n      add\n        /* \"#utility.yul\":11258:11285   */\n      swap1\n      pop\n        /* \"#utility.yul\":11295:11366   */\n      tag_456\n        /* \"#utility.yul\":11363:11364   */\n      0x00\n        /* \"#utility.yul\":11352:11361   */\n      dup4\n        /* \"#utility.yul\":11348:11365   */\n      add\n        /* \"#utility.yul\":11339:11345   */\n      dup8\n        /* \"#utility.yul\":11295:11366   */\n      tag_364\n      jump\t// in\n    tag_456:\n        /* \"#utility.yul\":11376:11448   */\n      tag_457\n        /* \"#utility.yul\":11444:11446   */\n      0x20\n        /* \"#utility.yul\":11433:11442   */\n      dup4\n        /* \"#utility.yul\":11429:11447   */\n      add\n        /* \"#utility.yul\":11420:11426   */\n      dup7\n        /* \"#utility.yul\":11376:11448   */\n      tag_423\n      jump\t// in\n    tag_457:\n        /* \"#utility.yul\":11458:11528   */\n      tag_458\n        /* \"#utility.yul\":11524:11526   */\n      0x40\n        /* \"#utility.yul\":11513:11522   */\n      dup4\n        /* \"#utility.yul\":11509:11527   */\n      add\n        /* \"#utility.yul\":11500:11506   */\n      dup6\n        /* \"#utility.yul\":11458:11528   */\n      tag_368\n      jump\t// in\n    tag_458:\n        /* \"#utility.yul\":11538:11610   */\n      tag_459\n        /* \"#utility.yul\":11606:11608   */\n      0x60\n        /* \"#utility.yul\":11595:11604   */\n      dup4\n        /* \"#utility.yul\":11591:11609   */\n      add\n        /* \"#utility.yul\":11582:11588   */\n      dup5\n        /* \"#utility.yul\":11538:11610   */\n      tag_423\n      jump\t// in\n    tag_459:\n        /* \"#utility.yul\":11068:11617   */\n      swap6\n      swap5\n      pop\n      pop\n      pop\n      pop\n      pop\n      jump\t// out\n        /* \"#utility.yul\":11623:11841   */\n    tag_22:\n        /* \"#utility.yul\":11714:11718   */\n      0x00\n        /* \"#utility.yul\":11752:11754   */\n      0x20\n        /* \"#utility.yul\":11741:11750   */\n      dup3\n        /* \"#utility.yul\":11737:11755   */\n      add\n        /* \"#utility.yul\":11729:11755   */\n      swap1\n      pop\n        /* \"#utility.yul\":11765:11834   */\n      tag_461\n        /* \"#utility.yul\":11831:11832   */\n      0x00\n        /* \"#utility.yul\":11820:11829   */\n      dup4\n        /* \"#utility.yul\":11816:11833   */\n      add\n        /* \"#utility.yul\":11807:11813   */\n      dup5\n        /* \"#utility.yul\":11765:11834   */\n      tag_388\n      jump\t// in\n    tag_461:\n        /* \"#utility.yul\":11623:11841   */\n      swap3\n      swap2\n      pop\n      pop\n      jump\t// out\n        /* \"#utility.yul\":11847:12266   */\n    tag_84:\n        /* \"#utility.yul\":12013:12017   */\n      0x00\n        /* \"#utility.yul\":12051:12053   */\n      0x20\n        /* \"#utility.yul\":12040:12049   */\n      dup3\n        /* \"#utility.yul\":12036:12054   */\n      add\n        /* \"#utility.yul\":12028:12054   */\n      swap1\n      pop\n        /* \"#utility.yul\":12100:12109   */\n      dup2\n        /* \"#utility.yul\":12094:12098   */\n      dup2\n        /* \"#utility.yul\":12090:12110   */\n      sub\n        /* \"#utility.yul\":12086:12087   */\n      0x00\n        /* \"#utility.yul\":12075:12084   */\n      dup4\n        /* \"#utility.yul\":12071:12088   */\n      add\n        /* \"#utility.yul\":12064:12111   */\n      mstore\n        /* \"#utility.yul\":12128:12259   */\n      tag_463\n        /* \"#utility.yul\":12254:12258   */\n      dup2\n        /* \"#utility.yul\":12128:12259   */\n      tag_392\n      jump\t// in\n    tag_463:\n        /* \"#utility.yul\":12120:12259   */\n      swap1\n      pop\n        /* \"#utility.yul\":11847:12266   */\n      swap2\n      swap1\n      pop\n      jump\t// out\n        /* \"#utility.yul\":12272:12691   */\n    tag_189:\n        /* \"#utility.yul\":12438:12442   */\n      0x00\n        /* \"#utility.yul\":12476:12478   */\n      0x20\n        /* \"#utility.yul\":12465:12474   */\n      dup3\n        /* \"#utility.yul\":12461:12479   */\n      add\n        /* \"#utility.yul\":12453:12479   */\n      swap1\n      pop\n        /* \"#utility.yul\":12525:12534   */\n      dup2\n        /* \"#utility.yul\":12519:12523   */\n      dup2\n        /* \"#utility.yul\":12515:12535   */\n      sub\n        /* \"#utility.yul\":12511:12512   */\n      0x00\n        /* \"#utility.yul\":12500:12509   */\n      dup4\n        /* \"#utility.yul\":12496:12513   */\n      add\n        /* \"#utility.yul\":12489:12536   */\n      mstore\n        /* \"#utility.yul\":12553:12684   */\n      tag_465\n        /* \"#utility.yul\":12679:12683   */\n      dup2\n        /* \"#utility.yul\":12553:12684   */\n      tag_398\n      jump\t// in\n    tag_465:\n        /* \"#utility.yul\":12545:12684   */\n      swap1\n      pop\n        /* \"#utility.yul\":12272:12691   */\n      swap2\n      swap1\n      pop\n      jump\t// out\n        /* \"#utility.yul\":12697:13116   */\n    tag_120:\n        /* \"#utility.yul\":12863:12867   */\n      0x00\n        /* \"#utility.yul\":12901:12903   */\n      0x20\n        /* \"#utility.yul\":12890:12899   */\n      dup3\n        /* \"#utility.yul\":12886:12904   */\n      add\n        /* \"#utility.yul\":12878:12904   */\n      swap1\n      pop\n        /* \"#utility.yul\":12950:12959   */\n      dup2\n        /* \"#utility.yul\":12944:12948   */\n      dup2\n        /* \"#utility.yul\":12940:12960   */\n      sub\n        /* \"#utility.yul\":12936:12937   */\n      0x00\n        /* \"#utility.yul\":12925:12934   */\n      dup4\n        /* \"#utility.yul\":12921:12938   */\n      add\n        /* \"#utility.yul\":12914:12961   */\n      mstore\n        /* \"#utility.yul\":12978:13109   */\n      tag_467\n        /* \"#utility.yul\":13104:13108   */\n      dup2\n        /* \"#utility.yul\":12978:13109   */\n      tag_403\n      jump\t// in\n    tag_467:\n        /* \"#utility.yul\":12970:13109   */\n      swap1\n      pop\n        /* \"#utility.yul\":12697:13116   */\n      swap2\n      swap1\n      pop\n      jump\t// out\n        /* \"#utility.yul\":13122:13541   */\n    tag_105:\n        /* \"#utility.yul\":13288:13292   */\n      0x00\n        /* \"#utility.yul\":13326:13328   */\n      0x20\n        /* \"#utility.yul\":13315:13324   */\n      dup3\n        /* \"#utility.yul\":13311:13329   */\n      add\n        /* \"#utility.yul\":13303:13329   */\n      swap1\n      pop\n        /* \"#utility.yul\":13375:13384   */\n      dup2\n        /* \"#utility.yul\":13369:13373   */\n      dup2\n        /* \"#utility.yul\":13365:13385   */\n      sub\n        /* \"#utility.yul\":13361:13362   */\n      0x00\n        /* \"#utility.yul\":13350:13359   */\n      dup4\n        /* \"#utility.yul\":13346:13363   */\n      add\n        /* \"#utility.yul\":13339:13386   */\n      mstore\n        /* \"#utility.yul\":13403:13534   */\n      tag_469\n        /* \"#utility.yul\":13529:13533   */\n      dup2\n        /* \"#utility.yul\":13403:13534   */\n      tag_408\n      jump\t// in\n    tag_469:\n        /* \"#utility.yul\":13395:13534   */\n      swap1\n      pop\n        /* \"#utility.yul\":13122:13541   */\n      swap2\n      swap1\n      pop\n      jump\t// out\n        /* \"#utility.yul\":13547:13966   */\n    tag_153:\n        /* \"#utility.yul\":13713:13717   */\n      0x00\n        /* \"#utility.yul\":13751:13753   */\n      0x20\n        /* \"#utility.yul\":13740:13749   */\n      dup3\n        /* \"#utility.yul\":13736:13754   */\n      add\n        /* \"#utility.yul\":13728:13754   */\n      swap1\n      pop\n        /* \"#utility.yul\":13800:13809   */\n      dup2\n        /* \"#utility.yul\":13794:13798   */\n      dup2\n        /* \"#utility.yul\":13790:13810   */\n      sub\n        /* \"#utility.yul\":13786:13787   */\n      0x00\n        /* \"#utility.yul\":13775:13784   */\n      dup4\n        /* \"#utility.yul\":13771:13788   */\n      add\n        /* \"#utility.yul\":13764:13811   */\n      mstore\n        /* \"#utility.yul\":13828:13959   */\n      tag_471\n        /* \"#utility.yul\":13954:13958   */\n      dup2\n        /* \"#utility.yul\":13828:13959   */\n      tag_413\n      jump\t// in\n    tag_471:\n        /* \"#utility.yul\":13820:13959   */\n      swap1\n      pop\n        /* \"#utility.yul\":13547:13966   */\n      swap2\n      swap1\n      pop\n      jump\t// out\n        /* \"#utility.yul\":13972:14391   */\n    tag_79:\n        /* \"#utility.yul\":14138:14142   */\n      0x00\n        /* \"#utility.yul\":14176:14178   */\n      0x20\n        /* \"#utility.yul\":14165:14174   */\n      dup3\n        /* \"#utility.yul\":14161:14179   */\n      add\n        /* \"#utility.yul\":14153:14179   */\n      swap1\n      pop\n        /* \"#utility.yul\":14225:14234   */\n      dup2\n        /* \"#utility.yul\":14219:14223   */\n      dup2\n        /* \"#utility.yul\":14215:14235   */\n      sub\n        /* \"#utility.yul\":14211:14212   */\n      0x00\n        /* \"#utility.yul\":14200:14209   */\n      dup4\n        /* \"#utility.yul\":14196:14213   */\n      add\n        /* \"#utility.yul\":14189:14236   */\n      mstore\n        /* \"#utility.yul\":14253:14384   */\n      tag_473\n        /* \"#utility.yul\":14379:14383   */\n      dup2\n        /* \"#utility.yul\":14253:14384   */\n      tag_418\n      jump\t// in\n    tag_473:\n        /* \"#utility.yul\":14245:14384   */\n      swap1\n      pop\n        /* \"#utility.yul\":13972:14391   */\n      swap2\n      swap1\n      pop\n      jump\t// out\n        /* \"#utility.yul\":14397:14619   */\n    tag_41:\n        /* \"#utility.yul\":14490:14494   */\n      0x00\n        /* \"#utility.yul\":14528:14530   */\n      0x20\n        /* \"#utility.yul\":14517:14526   */\n      dup3\n        /* \"#utility.yul\":14513:14531   */\n      add\n        /* \"#utility.yul\":14505:14531   */\n      swap1\n      pop\n        /* \"#utility.yul\":14541:14612   */\n      tag_475\n        /* \"#utility.yul\":14609:14610   */\n      0x00\n        /* \"#utility.yul\":14598:14607   */\n      dup4\n        /* \"#utility.yul\":14594:14611   */\n      add\n        /* \"#utility.yul\":14585:14591   */\n      dup5\n        /* \"#utility.yul\":14541:14612   */\n      tag_423\n      jump\t// in\n    tag_475:\n        /* \"#utility.yul\":14397:14619   */\n      swap3\n      swap2\n      pop\n      pop\n      jump\t// out\n        /* \"#utility.yul\":14625:14754   */\n    tag_292:\n        /* \"#utility.yul\":14659:14665   */\n      0x00\n        /* \"#utility.yul\":14686:14706   */\n      tag_477\n      tag_478\n      jump\t// in\n    tag_477:\n        /* \"#utility.yul\":14676:14706   */\n      swap1\n      pop\n        /* \"#utility.yul\":14715:14748   */\n      tag_479\n        /* \"#utility.yul\":14743:14747   */\n      dup3\n        /* \"#utility.yul\":14735:14741   */\n      dup3\n        /* \"#utility.yul\":14715:14748   */\n      tag_480\n      jump\t// in\n    tag_479:\n        /* \"#utility.yul\":14625:14754   */\n      swap2\n      swap1\n      pop\n      jump\t// out\n        /* \"#utility.yul\":14760:14835   */\n    tag_478:\n        /* \"#utility.yul\":14793:14799   */\n      0x00\n        /* \"#utility.yul\":14826:14828   */\n      0x40\n        /* \"#utility.yul\":14820:14829   */\n      mload\n        /* \"#utility.yul\":14810:14829   */\n      swap1\n      pop\n        /* \"#utility.yul\":14760:14835   */\n      swap1\n      jump\t// out\n        /* \"#utility.yul\":14841:15149   */\n    tag_291:\n        /* \"#utility.yul\":14903:14907   */\n      0x00\n        /* \"#utility.yul\":14993:15011   */\n      0xffffffffffffffff\n        /* \"#utility.yul\":14985:14991   */\n      dup3\n        /* \"#utility.yul\":14982:15012   */\n      gt\n        /* \"#utility.yul\":14979:15035   */\n      iszero\n      tag_483\n      jumpi\n        /* \"#utility.yul\":15015:15033   */\n      tag_484\n      tag_485\n      jump\t// in\n    tag_484:\n        /* \"#utility.yul\":14979:15035   */\n    tag_483:\n        /* \"#utility.yul\":15053:15082   */\n      tag_486\n        /* \"#utility.yul\":15075:15081   */\n      dup3\n        /* \"#utility.yul\":15053:15082   */\n      tag_381\n      jump\t// in\n    tag_486:\n        /* \"#utility.yul\":15045:15082   */\n      swap1\n      pop\n        /* \"#utility.yul\":15137:15141   */\n      0x20\n        /* \"#utility.yul\":15131:15135   */\n      dup2\n        /* \"#utility.yul\":15127:15142   */\n      add\n        /* \"#utility.yul\":15119:15142   */\n      swap1\n      pop\n        /* \"#utility.yul\":14841:15149   */\n      swap2\n      swap1\n      pop\n      jump\t// out\n        /* \"#utility.yul\":15155:15253   */\n    tag_375:\n        /* \"#utility.yul\":15206:15212   */\n      0x00\n        /* \"#utility.yul\":15240:15245   */\n      dup2\n        /* \"#utility.yul\":15234:15246   */\n      mload\n        /* \"#utility.yul\":15224:15246   */\n      swap1\n      pop\n        /* \"#utility.yul\":15155:15253   */\n      swap2\n      swap1\n      pop\n      jump\t// out\n        /* \"#utility.yul\":15259:15427   */\n    tag_377:\n        /* \"#utility.yul\":15342:15353   */\n      0x00\n        /* \"#utility.yul\":15376:15382   */\n      dup3\n        /* \"#utility.yul\":15371:15374   */\n      dup3\n        /* \"#utility.yul\":15364:15383   */\n      mstore\n        /* \"#utility.yul\":15416:15420   */\n      0x20\n        /* \"#utility.yul\":15411:15414   */\n      dup3\n        /* \"#utility.yul\":15407:15421   */\n      add\n        /* \"#utility.yul\":15392:15421   */\n      swap1\n      pop\n        /* \"#utility.yul\":15259:15427   */\n      swap3\n      swap2\n      pop\n      pop\n      jump\t// out\n        /* \"#utility.yul\":15433:15602   */\n    tag_395:\n        /* \"#utility.yul\":15517:15528   */\n      0x00\n        /* \"#utility.yul\":15551:15557   */\n      dup3\n        /* \"#utility.yul\":15546:15549   */\n      dup3\n        /* \"#utility.yul\":15539:15558   */\n      mstore\n        /* \"#utility.yul\":15591:15595   */\n      0x20\n        /* \"#utility.yul\":15586:15589   */\n      dup3\n        /* \"#utility.yul\":15582:15596   */\n      add\n        /* \"#utility.yul\":15567:15596   */\n      swap1\n      pop\n        /* \"#utility.yul\":15433:15602   */\n      swap3\n      swap2\n      pop\n      pop\n      jump\t// out\n        /* \"#utility.yul\":15608:15913   */\n    tag_139:\n        /* \"#utility.yul\":15648:15651   */\n      0x00\n        /* \"#utility.yul\":15667:15687   */\n      tag_491\n        /* \"#utility.yul\":15685:15686   */\n      dup3\n        /* \"#utility.yul\":15667:15687   */\n      tag_426\n      jump\t// in\n    tag_491:\n        /* \"#utility.yul\":15662:15687   */\n      swap2\n      pop\n        /* \"#utility.yul\":15701:15721   */\n      tag_492\n        /* \"#utility.yul\":15719:15720   */\n      dup4\n        /* \"#utility.yul\":15701:15721   */\n      tag_426\n      jump\t// in\n    tag_492:\n        /* \"#utility.yul\":15696:15721   */\n      swap3\n      pop\n        /* \"#utility.yul\":15855:15856   */\n      dup3\n        /* \"#utility.yul\":15787:15853   */\n      0xffffffffffffffffffffffffffffffffffffffffffffffffffffffffffffffff\n        /* \"#utility.yul\":15783:15857   */\n      sub\n        /* \"#utility.yul\":15780:15781   */\n      dup3\n        /* \"#utility.yul\":15777:15858   */\n      gt\n        /* \"#utility.yul\":15774:15881   */\n      iszero\n      tag_493\n      jumpi\n        /* \"#utility.yul\":15861:15879   */\n      tag_494\n      tag_495\n      jump\t// in\n    tag_494:\n        /* \"#utility.yul\":15774:15881   */\n    tag_493:\n        /* \"#utility.yul\":15905:15906   */\n      dup3\n        /* \"#utility.yul\":15902:15903   */\n      dup3\n        /* \"#utility.yul\":15898:15907   */\n      add\n        /* \"#utility.yul\":15891:15907   */\n      swap1\n      pop\n        /* \"#utility.yul\":15608:15913   */\n      swap3\n      swap2\n      pop\n      pop\n      jump\t// out\n        /* \"#utility.yul\":15919:16104   */\n    tag_74:\n        /* \"#utility.yul\":15959:15960   */\n      0x00\n        /* \"#utility.yul\":15976:15996   */\n      tag_497\n        /* \"#utility.yul\":15994:15995   */\n      dup3\n        /* \"#utility.yul\":15976:15996   */\n      tag_426\n      jump\t// in\n    tag_497:\n        /* \"#utility.yul\":15971:15996   */\n      swap2\n      pop\n        /* \"#utility.yul\":16010:16030   */\n      tag_498\n        /* \"#utility.yul\":16028:16029   */\n      dup4\n        /* \"#utility.yul\":16010:16030   */\n      tag_426\n      jump\t// in\n    tag_498:\n        /* \"#utility.yul\":16005:16030   */\n      swap3\n      pop\n        /* \"#utility.yul\":16049:16050   */\n      dup3\n        /* \"#utility.yul\":16039:16074   */\n      tag_499\n      jumpi\n        /* \"#utility.yul\":16054:16072   */\n      tag_500\n      tag_501\n      jump\t// in\n    tag_500:\n        /* \"#utility.yul\":16039:16074   */\n    tag_499:\n        /* \"#utility.yul\":16096:16097   */\n      dup3\n        /* \"#utility.yul\":16093:16094   */\n      dup3\n        /* \"#utility.yul\":16089:16098   */\n      div\n        /* \"#utility.yul\":16084:16098   */\n      swap1\n      pop\n        /* \"#utility.yul\":15919:16104   */\n      swap3\n      swap2\n      pop\n      pop\n      jump\t// out\n        /* \"#utility.yul\":16110:16958   */\n    tag_502:\n        /* \"#utility.yul\":16171:16176   */\n      0x00\n        /* \"#utility.yul\":16178:16182   */\n      dup1\n        /* \"#utility.yul\":16202:16208   */\n      dup3\n        /* \"#utility.yul\":16193:16208   */\n      swap2\n      pop\n        /* \"#utility.yul\":16226:16231   */\n      dup4\n        /* \"#utility.yul\":16217:16231   */\n      swap1\n      pop\n        /* \"#utility.yul\":16240:16952   */\n    tag_504:\n        /* \"#utility.yul\":16261:16262   */\n      0x01\n        /* \"#utility.yul\":16251:16259   */\n      dup6\n        /* \"#utility.yul\":16248:16263   */\n      gt\n        /* \"#utility.yul\":16240:16952   */\n      iszero\n      tag_506\n      jumpi\n        /* \"#utility.yul\":16356:16360   */\n      dup1\n        /* \"#utility.yul\":16351:16354   */\n      dup7\n        /* \"#utility.yul\":16347:16361   */\n      div\n        /* \"#utility.yul\":16341:16345   */\n      dup2\n        /* \"#utility.yul\":16338:16362   */\n      gt\n        /* \"#utility.yul\":16335:16385   */\n      iszero\n      tag_507\n      jumpi\n        /* \"#utility.yul\":16365:16383   */\n      tag_508\n      tag_495\n      jump\t// in\n    tag_508:\n        /* \"#utility.yul\":16335:16385   */\n    tag_507:\n        /* \"#utility.yul\":16415:16416   */\n      0x01\n        /* \"#utility.yul\":16405:16413   */\n      dup6\n        /* \"#utility.yul\":16401:16417   */\n      and\n        /* \"#utility.yul\":16398:16849   */\n      iszero\n      tag_509\n      jumpi\n        /* \"#utility.yul\":16830:16834   */\n      dup1\n        /* \"#utility.yul\":16823:16828   */\n      dup3\n        /* \"#utility.yul\":16819:16835   */\n      mul\n        /* \"#utility.yul\":16810:16835   */\n      swap2\n      pop\n        /* \"#utility.yul\":16398:16849   */\n    tag_509:\n        /* \"#utility.yul\":16880:16884   */\n      dup1\n        /* \"#utility.yul\":16874:16878   */\n      dup2\n        /* \"#utility.yul\":16870:16885   */\n      mul\n        /* \"#utility.yul\":16862:16885   */\n      swap1\n      pop\n        /* \"#utility.yul\":16910:16942   */\n      tag_510\n        /* \"#utility.yul\":16933:16941   */\n      dup6\n        /* \"#utility.yul\":16910:16942   */\n      tag_511\n      jump\t// in\n    tag_510:\n        /* \"#utility.yul\":16898:16942   */\n      swap5\n      pop\n        /* \"#utility.yul\":16240:16952   */\n      jump(tag_504)\n    tag_506:\n        /* \"#utility.yul\":16110:16958   */\n      swap5\n      pop\n      swap5\n      swap3\n      pop\n      pop\n      pop\n      jump\t// out\n        /* \"#utility.yul\":16964:17249   */\n    tag_277:\n        /* \"#utility.yul\":17024:17029   */\n      0x00\n        /* \"#utility.yul\":17048:17071   */\n      tag_513\n        /* \"#utility.yul\":17066:17070   */\n      dup3\n        /* \"#utility.yul\":17048:17071   */\n      tag_426\n      jump\t// in\n    tag_513:\n        /* \"#utility.yul\":17040:17071   */\n      swap2\n      pop\n        /* \"#utility.yul\":17092:17119   */\n      tag_514\n        /* \"#utility.yul\":17110:17118   */\n      dup4\n        /* \"#utility.yul\":17092:17119   */\n      tag_426\n      jump\t// in\n    tag_514:\n        /* \"#utility.yul\":17080:17119   */\n      swap3\n      pop\n        /* \"#utility.yul\":17138:17242   */\n      tag_515\n        /* \"#utility.yul\":17175:17241   */\n      0xffffffffffffffffffffffffffffffffffffffffffffffffffffffffffffffff\n        /* \"#utility.yul\":17165:17173   */\n      dup5\n        /* \"#utility.yul\":17159:17163   */\n      dup5\n        /* \"#utility.yul\":17138:17242   */\n      tag_516\n      jump\t// in\n    tag_515:\n        /* \"#utility.yul\":17129:17242   */\n      swap1\n      pop\n        /* \"#utility.yul\":16964:17249   */\n      swap3\n      swap2\n      pop\n      pop\n      jump\t// out\n        /* \"#utility.yul\":17255:18328   */\n    tag_516:\n        /* \"#utility.yul\":17309:17314   */\n      0x00\n        /* \"#utility.yul\":17500:17508   */\n      dup3\n        /* \"#utility.yul\":17490:17530   */\n      tag_518\n      jumpi\n        /* \"#utility.yul\":17521:17522   */\n      0x01\n        /* \"#utility.yul\":17512:17522   */\n      swap1\n      pop\n        /* \"#utility.yul\":17523:17528   */\n      jump(tag_517)\n        /* \"#utility.yul\":17490:17530   */\n    tag_518:\n        /* \"#utility.yul\":17549:17553   */\n      dup2\n        /* \"#utility.yul\":17539:17575   */\n      tag_519\n      jumpi\n        /* \"#utility.yul\":17566:17567   */\n      0x00\n        /* \"#utility.yul\":17557:17567   */\n      swap1\n      pop\n        /* \"#utility.yul\":17568:17573   */\n      jump(tag_517)\n        /* \"#utility.yul\":17539:17575   */\n    tag_519:\n        /* \"#utility.yul\":17635:17639   */\n      dup2\n        /* \"#utility.yul\":17683:17684   */\n      0x01\n        /* \"#utility.yul\":17678:17705   */\n      dup2\n      eq\n      tag_521\n      jumpi\n        /* \"#utility.yul\":17719:17720   */\n      0x02\n        /* \"#utility.yul\":17714:17905   */\n      dup2\n      eq\n      tag_522\n      jumpi\n        /* \"#utility.yul\":17628:17905   */\n      jump(tag_520)\n        /* \"#utility.yul\":17678:17705   */\n    tag_521:\n        /* \"#utility.yul\":17696:17697   */\n      0x01\n        /* \"#utility.yul\":17687:17697   */\n      swap2\n      pop\n        /* \"#utility.yul\":17698:17703   */\n      pop\n      jump(tag_517)\n        /* \"#utility.yul\":17714:17905   */\n    tag_522:\n        /* \"#utility.yul\":17759:17762   */\n      0xff\n        /* \"#utility.yul\":17749:17757   */\n      dup5\n        /* \"#utility.yul\":17746:17763   */\n      gt\n        /* \"#utility.yul\":17743:17786   */\n      iszero\n      tag_523\n      jumpi\n        /* \"#utility.yul\":17766:17784   */\n      tag_524\n      tag_495\n      jump\t// in\n    tag_524:\n        /* \"#utility.yul\":17743:17786   */\n    tag_523:\n        /* \"#utility.yul\":17815:17823   */\n      dup4\n        /* \"#utility.yul\":17812:17813   */\n      0x02\n        /* \"#utility.yul\":17808:17824   */\n      exp\n        /* \"#utility.yul\":17799:17824   */\n      swap2\n      pop\n        /* \"#utility.yul\":17850:17853   */\n      dup5\n        /* \"#utility.yul\":17843:17848   */\n      dup3\n        /* \"#utility.yul\":17840:17854   */\n      gt\n        /* \"#utility.yul\":17837:17877   */\n      iszero\n      tag_525\n      jumpi\n        /* \"#utility.yul\":17857:17875   */\n      tag_526\n      tag_495\n      jump\t// in\n    tag_526:\n        /* \"#utility.yul\":17837:17877   */\n    tag_525:\n        /* \"#utility.yul\":17890:17895   */\n      pop\n      jump(tag_517)\n        /* \"#utility.yul\":17628:17905   */\n    tag_520:\n      pop\n        /* \"#utility.yul\":18014:18016   */\n      0x20\n        /* \"#utility.yul\":18004:18012   */\n      dup4\n        /* \"#utility.yul\":18001:18017   */\n      lt\n        /* \"#utility.yul\":17995:17998   */\n      0x0133\n        /* \"#utility.yul\":17989:17993   */\n      dup4\n        /* \"#utility.yul\":17986:17999   */\n      lt\n        /* \"#utility.yul\":17982:18018   */\n      and\n        /* \"#utility.yul\":17964:17966   */\n      0x4e\n        /* \"#utility.yul\":17954:17962   */\n      dup5\n        /* \"#utility.yul\":17951:17967   */\n      lt\n        /* \"#utility.yul\":17946:17948   */\n      0x0b\n        /* \"#utility.yul\":17940:17944   */\n      dup5\n        /* \"#utility.yul\":17937:17949   */\n      lt\n        /* \"#utility.yul\":17933:17968   */\n      and\n        /* \"#utility.yul\":17917:18028   */\n      or\n        /* \"#utility.yul\":17914:18160   */\n      iszero\n      tag_527\n      jumpi\n        /* \"#utility.yul\":18070:18078   */\n      dup3\n        /* \"#utility.yul\":18064:18068   */\n      dup3\n        /* \"#utility.yul\":18060:18079   */\n      exp\n        /* \"#utility.yul\":18051:18079   */\n      swap1\n      pop\n        /* \"#utility.yul\":18105:18108   */\n      dup4\n        /* \"#utility.yul\":18098:18103   */\n      dup2\n        /* \"#utility.yul\":18095:18109   */\n      gt\n        /* \"#utility.yul\":18092:18132   */\n      iszero\n      tag_528\n      jumpi\n        /* \"#utility.yul\":18112:18130   */\n      tag_529\n      tag_495\n      jump\t// in\n    tag_529:\n        /* \"#utility.yul\":18092:18132   */\n    tag_528:\n        /* \"#utility.yul\":18145:18150   */\n      jump(tag_517)\n        /* \"#utility.yul\":17914:18160   */\n    tag_527:\n        /* \"#utility.yul\":18185:18227   */\n      tag_530\n        /* \"#utility.yul\":18223:18226   */\n      dup5\n        /* \"#utility.yul\":18213:18221   */\n      dup5\n        /* \"#utility.yul\":18207:18211   */\n      dup5\n        /* \"#utility.yul\":18204:18205   */\n      0x01\n        /* \"#utility.yul\":18185:18227   */\n      tag_502\n      jump\t// in\n    tag_530:\n        /* \"#utility.yul\":18170:18227   */\n      swap3\n      pop\n      swap1\n      pop\n        /* \"#utility.yul\":18259:18263   */\n      dup2\n        /* \"#utility.yul\":18254:18257   */\n      dup5\n        /* \"#utility.yul\":18250:18264   */\n      div\n        /* \"#utility.yul\":18243:18248   */\n      dup2\n        /* \"#utility.yul\":18240:18265   */\n      gt\n        /* \"#utility.yul\":18237:18288   */\n      iszero\n      tag_531\n      jumpi\n        /* \"#utility.yul\":18268:18286   */\n      tag_532\n      tag_495\n      jump\t// in\n    tag_532:\n        /* \"#utility.yul\":18237:18288   */\n    tag_531:\n        /* \"#utility.yul\":18317:18321   */\n      dup2\n        /* \"#utility.yul\":18310:18315   */\n      dup2\n        /* \"#utility.yul\":18306:18322   */\n      mul\n        /* \"#utility.yul\":18297:18322   */\n      swap1\n      pop\n        /* \"#utility.yul\":17255:18328   */\n    tag_517:\n      swap4\n      swap3\n      pop\n      pop\n      pop\n      jump\t// out\n        /* \"#utility.yul\":18334:18682   */\n    tag_72:\n        /* \"#utility.yul\":18374:18381   */\n      0x00\n        /* \"#utility.yul\":18397:18417   */\n      tag_534\n        /* \"#utility.yul\":18415:18416   */\n      dup3\n        /* \"#utility.yul\":18397:18417   */\n      tag_426\n      jump\t// in\n    tag_534:\n        /* \"#utility.yul\":18392:18417   */\n      swap2\n      pop\n        /* \"#utility.yul\":18431:18451   */\n      tag_535\n        /* \"#utility.yul\":18449:18450   */\n      dup4\n        /* \"#utility.yul\":18431:18451   */\n      tag_426\n      jump\t// in\n    tag_535:\n        /* \"#utility.yul\":18426:18451   */\n      swap3\n      pop\n        /* \"#utility.yul\":18619:18620   */\n      dup2\n        /* \"#utility.yul\":18551:18617   */\n      0xffffffffffffffffffffffffffffffffffffffffffffffffffffffffffffffff\n        /* \"#utility.yul\":18547:18621   */\n      div\n        /* \"#utility.yul\":18544:18545   */\n      dup4\n        /* \"#utility.yul\":18541:18622   */\n      gt\n        /* \"#utility.yul\":18536:18537   */\n      dup3\n        /* \"#utility.yul\":18529:18538   */\n      iszero\n        /* \"#utility.yul\":18522:18539   */\n      iszero\n        /* \"#utility.yul\":18518:18623   */\n      and\n        /* \"#utility.yul\":18515:18646   */\n      iszero\n      tag_536\n      jumpi\n        /* \"#utility.yul\":18626:18644   */\n      tag_537\n      tag_495\n      jump\t// in\n    tag_537:\n        /* \"#utility.yul\":18515:18646   */\n    tag_536:\n        /* \"#utility.yul\":18674:18675   */\n      dup3\n        /* \"#utility.yul\":18671:18672   */\n      dup3\n        /* \"#utility.yul\":18667:18676   */\n      mul\n        /* \"#utility.yul\":18656:18676   */\n      swap1\n      pop\n        /* \"#utility.yul\":18334:18682   */\n      swap3\n      swap2\n      pop\n      pop\n      jump\t// out\n        /* \"#utility.yul\":18688:19215   */\n    tag_177:\n        /* \"#utility.yul\":18727:18731   */\n      0x00\n        /* \"#utility.yul\":18747:18766   */\n      tag_539\n        /* \"#utility.yul\":18764:18765   */\n      dup3\n        /* \"#utility.yul\":18747:18766   */\n      tag_391\n      jump\t// in\n    tag_539:\n        /* \"#utility.yul\":18742:18766   */\n      swap2\n      pop\n        /* \"#utility.yul\":18780:18799   */\n      tag_540\n        /* \"#utility.yul\":18797:18798   */\n      dup4\n        /* \"#utility.yul\":18780:18799   */\n      tag_391\n      jump\t// in\n    tag_540:\n        /* \"#utility.yul\":18775:18799   */\n      swap3\n      pop\n        /* \"#utility.yul\":18969:18970   */\n      dup3\n        /* \"#utility.yul\":18901:18967   */\n      0x8000000000000000000000000000000000000000000000000000000000000000\n        /* \"#utility.yul\":18897:18971   */\n      add\n        /* \"#utility.yul\":18894:18895   */\n      dup3\n        /* \"#utility.yul\":18890:18972   */\n      slt\n        /* \"#utility.yul\":18885:18886   */\n      0x00\n        /* \"#utility.yul\":18882:18883   */\n      dup5\n        /* \"#utility.yul\":18878:18887   */\n      slt\n        /* \"#utility.yul\":18871:18888   */\n      iszero\n        /* \"#utility.yul\":18867:18973   */\n      and\n        /* \"#utility.yul\":18864:18996   */\n      iszero\n      tag_541\n      jumpi\n        /* \"#utility.yul\":18976:18994   */\n      tag_542\n      tag_495\n      jump\t// in\n    tag_542:\n        /* \"#utility.yul\":18864:18996   */\n    tag_541:\n        /* \"#utility.yul\":19155:19156   */\n      dup3\n        /* \"#utility.yul\":19087:19153   */\n      0x7fffffffffffffffffffffffffffffffffffffffffffffffffffffffffffffff\n        /* \"#utility.yul\":19083:19157   */\n      add\n        /* \"#utility.yul\":19080:19081   */\n      dup3\n        /* \"#utility.yul\":19076:19158   */\n      sgt\n        /* \"#utility.yul\":19072:19073   */\n      0x00\n        /* \"#utility.yul\":19069:19070   */\n      dup5\n        /* \"#utility.yul\":19065:19074   */\n      slt\n        /* \"#utility.yul\":19061:19159   */\n      and\n        /* \"#utility.yul\":19058:19182   */\n      iszero\n      tag_543\n      jumpi\n        /* \"#utility.yul\":19162:19180   */\n      tag_544\n      tag_495\n      jump\t// in\n    tag_544:\n        /* \"#utility.yul\":19058:19182   */\n    tag_543:\n        /* \"#utility.yul\":19207:19208   */\n      dup3\n        /* \"#utility.yul\":19204:19205   */\n      dup3\n        /* \"#utility.yul\":19200:19209   */\n      sub\n        /* \"#utility.yul\":19192:19209   */\n      swap1\n      pop\n        /* \"#utility.yul\":18688:19215   */\n      swap3\n      swap2\n      pop\n      pop\n      jump\t// out\n        /* \"#utility.yul\":19221:19412   */\n    tag_198:\n        /* \"#utility.yul\":19261:19265   */\n      0x00\n        /* \"#utility.yul\":19281:19301   */\n      tag_546\n        /* \"#utility.yul\":19299:19300   */\n      dup3\n        /* \"#utility.yul\":19281:19301   */\n      tag_426\n      jump\t// in\n    tag_546:\n        /* \"#utility.yul\":19276:19301   */\n      swap2\n      pop\n        /* \"#utility.yul\":19315:19335   */\n      tag_547\n        /* \"#utility.yul\":19333:19334   */\n      dup4\n        /* \"#utility.yul\":19315:19335   */\n      tag_426\n      jump\t// in\n    tag_547:\n        /* \"#utility.yul\":19310:19335   */\n      swap3\n      pop\n        /* \"#utility.yul\":19354:19355   */\n      dup3\n        /* \"#utility.yul\":19351:19352   */\n      dup3\n        /* \"#utility.yul\":19348:19356   */\n      lt\n        /* \"#utility.yul\":19345:19379   */\n      iszero\n      tag_548\n      jumpi\n        /* \"#utility.yul\":19359:19377   */\n      tag_549\n      tag_495\n      jump\t// in\n    tag_549:\n        /* \"#utility.yul\":19345:19379   */\n    tag_548:\n        /* \"#utility.yul\":19404:19405   */\n      dup3\n        /* \"#utility.yul\":19401:19402   */\n      dup3\n        /* \"#utility.yul\":19397:19406   */\n      sub\n        /* \"#utility.yul\":19389:19406   */\n      swap1\n      pop\n        /* \"#utility.yul\":19221:19412   */\n      swap3\n      swap2\n      pop\n      pop\n      jump\t// out\n        /* \"#utility.yul\":19418:19514   */\n    tag_363:\n        /* \"#utility.yul\":19455:19462   */\n      0x00\n        /* \"#utility.yul\":19484:19508   */\n      tag_551\n        /* \"#utility.yul\":19502:19507   */\n      dup3\n        /* \"#utility.yul\":19484:19508   */\n      tag_552\n      jump\t// in\n    tag_551:\n        /* \"#utility.yul\":19473:19508   */\n      swap1\n      pop\n        /* \"#utility.yul\":19418:19514   */\n      swap2\n      swap1\n      pop\n      jump\t// out\n        /* \"#utility.yul\":19520:19610   */\n    tag_553:\n        /* \"#utility.yul\":19554:19561   */\n      0x00\n        /* \"#utility.yul\":19597:19602   */\n      dup2\n        /* \"#utility.yul\":19590:19603   */\n      iszero\n        /* \"#utility.yul\":19583:19604   */\n      iszero\n        /* \"#utility.yul\":19572:19604   */\n      swap1\n      pop\n        /* \"#utility.yul\":19520:19610   */\n      swap2\n      swap1\n      pop\n      jump\t// out\n        /* \"#utility.yul\":19616:19693   */\n    tag_367:\n        /* \"#utility.yul\":19653:19660   */\n      0x00\n        /* \"#utility.yul\":19682:19687   */\n      dup2\n        /* \"#utility.yul\":19671:19687   */\n      swap1\n      pop\n        /* \"#utility.yul\":19616:19693   */\n      swap2\n      swap1\n      pop\n      jump\t// out\n        /* \"#utility.yul\":19699:19848   */\n    tag_371:\n        /* \"#utility.yul\":19735:19742   */\n      0x00\n        /* \"#utility.yul\":19775:19841   */\n      0xffffffff00000000000000000000000000000000000000000000000000000000\n        /* \"#utility.yul\":19768:19773   */\n      dup3\n        /* \"#utility.yul\":19764:19842   */\n      and\n        /* \"#utility.yul\":19753:19842   */\n      swap1\n      pop\n        /* \"#utility.yul\":19699:19848   */\n      swap2\n      swap1\n      pop\n      jump\t// out\n        /* \"#utility.yul\":19854:19930   */\n    tag_391:\n        /* \"#utility.yul\":19890:19897   */\n      0x00\n        /* \"#utility.yul\":19919:19924   */\n      dup2\n        /* \"#utility.yul\":19908:19924   */\n      swap1\n      pop\n        /* \"#utility.yul\":19854:19930   */\n      swap2\n      swap1\n      pop\n      jump\t// out\n        /* \"#utility.yul\":19936:20062   */\n    tag_552:\n        /* \"#utility.yul\":19973:19980   */\n      0x00\n        /* \"#utility.yul\":20013:20055   */\n      0xffffffffffffffffffffffffffffffffffffffff\n        /* \"#utility.yul\":20006:20011   */\n      dup3\n        /* \"#utility.yul\":20002:20056   */\n      and\n        /* \"#utility.yul\":19991:20056   */\n      swap1\n      pop\n        /* \"#utility.yul\":19936:20062   */\n      swap2\n      swap1\n      pop\n      jump\t// out\n        /* \"#utility.yul\":20068:20145   */\n    tag_426:\n        /* \"#utility.yul\":20105:20112   */\n      0x00\n        /* \"#utility.yul\":20134:20139   */\n      dup2\n        /* \"#utility.yul\":20123:20139   */\n      swap1\n      pop\n        /* \"#utility.yul\":20068:20145   */\n      swap2\n      swap1\n      pop\n      jump\t// out\n        /* \"#utility.yul\":20151:20300   */\n    tag_386:\n        /* \"#utility.yul\":20224:20233   */\n      0x00\n        /* \"#utility.yul\":20257:20294   */\n      tag_561\n        /* \"#utility.yul\":20288:20293   */\n      dup3\n        /* \"#utility.yul\":20257:20294   */\n      tag_562\n      jump\t// in\n    tag_561:\n        /* \"#utility.yul\":20244:20294   */\n      swap1\n      pop\n        /* \"#utility.yul\":20151:20300   */\n      swap2\n      swap1\n      pop\n      jump\t// out\n        /* \"#utility.yul\":20306:20432   */\n    tag_562:\n        /* \"#utility.yul\":20356:20365   */\n      0x00\n        /* \"#utility.yul\":20389:20426   */\n      tag_564\n        /* \"#utility.yul\":20420:20425   */\n      dup3\n        /* \"#utility.yul\":20389:20426   */\n      tag_565\n      jump\t// in\n    tag_564:\n        /* \"#utility.yul\":20376:20426   */\n      swap1\n      pop\n        /* \"#utility.yul\":20306:20432   */\n      swap2\n      swap1\n      pop\n      jump\t// out\n        /* \"#utility.yul\":20438:20551   */\n    tag_565:\n        /* \"#utility.yul\":20488:20497   */\n      0x00\n        /* \"#utility.yul\":20521:20545   */\n      tag_567\n        /* \"#utility.yul\":20539:20544   */\n      dup3\n        /* \"#utility.yul\":20521:20545   */\n      tag_552\n      jump\t// in\n    tag_567:\n        /* \"#utility.yul\":20508:20545   */\n      swap1\n      pop\n        /* \"#utility.yul\":20438:20551   */\n      swap2\n      swap1\n      pop\n      jump\t// out\n        /* \"#utility.yul\":20557:20711   */\n    tag_297:\n        /* \"#utility.yul\":20641:20647   */\n      dup3\n        /* \"#utility.yul\":20636:20639   */\n      dup2\n        /* \"#utility.yul\":20631:20634   */\n      dup4\n        /* \"#utility.yul\":20618:20648   */\n      calldatacopy\n        /* \"#utility.yul\":20703:20704   */\n      0x00\n        /* \"#utility.yul\":20694:20700   */\n      dup4\n        /* \"#utility.yul\":20689:20692   */\n      dup4\n        /* \"#utility.yul\":20685:20701   */\n      add\n        /* \"#utility.yul\":20678:20705   */\n      mstore\n        /* \"#utility.yul\":20557:20711   */\n      pop\n      pop\n      pop\n      jump\t// out\n        /* \"#utility.yul\":20717:21024   */\n    tag_379:\n        /* \"#utility.yul\":20785:20786   */\n      0x00\n        /* \"#utility.yul\":20795:20908   */\n    tag_570:\n        /* \"#utility.yul\":20809:20815   */\n      dup4\n        /* \"#utility.yul\":20806:20807   */\n      dup2\n        /* \"#utility.yul\":20803:20816   */\n      lt\n        /* \"#utility.yul\":20795:20908   */\n      iszero\n      tag_572\n      jumpi\n        /* \"#utility.yul\":20894:20895   */\n      dup1\n        /* \"#utility.yul\":20889:20892   */\n      dup3\n        /* \"#utility.yul\":20885:20896   */\n      add\n        /* \"#utility.yul\":20879:20897   */\n      mload\n        /* \"#utility.yul\":20875:20876   */\n      dup2\n        /* \"#utility.yul\":20870:20873   */\n      dup5\n        /* \"#utility.yul\":20866:20877   */\n      add\n        /* \"#utility.yul\":20859:20898   */\n      mstore\n        /* \"#utility.yul\":20831:20833   */\n      0x20\n        /* \"#utility.yul\":20828:20829   */\n      dup2\n        /* \"#utility.yul\":20824:20834   */\n      add\n        /* \"#utility.yul\":20819:20834   */\n      swap1\n      pop\n        /* \"#utility.yul\":20795:20908   */\n      jump(tag_570)\n    tag_572:\n        /* \"#utility.yul\":20926:20932   */\n      dup4\n        /* \"#utility.yul\":20923:20924   */\n      dup2\n        /* \"#utility.yul\":20920:20933   */\n      gt\n        /* \"#utility.yul\":20917:21018   */\n      iszero\n      tag_573\n      jumpi\n        /* \"#utility.yul\":21006:21007   */\n      0x00\n        /* \"#utility.yul\":20997:21003   */\n      dup5\n        /* \"#utility.yul\":20992:20995   */\n      dup5\n        /* \"#utility.yul\":20988:21004   */\n      add\n        /* \"#utility.yul\":20981:21008   */\n      mstore\n        /* \"#utility.yul\":20917:21018   */\n    tag_573:\n        /* \"#utility.yul\":20766:21024   */\n      pop\n        /* \"#utility.yul\":20717:21024   */\n      pop\n      pop\n      pop\n      jump\t// out\n        /* \"#utility.yul\":21030:21311   */\n    tag_480:\n        /* \"#utility.yul\":21113:21140   */\n      tag_575\n        /* \"#utility.yul\":21135:21139   */\n      dup3\n        /* \"#utility.yul\":21113:21140   */\n      tag_381\n      jump\t// in\n    tag_575:\n        /* \"#utility.yul\":21105:21111   */\n      dup2\n        /* \"#utility.yul\":21101:21141   */\n      add\n        /* \"#utility.yul\":21243:21249   */\n      dup2\n        /* \"#utility.yul\":21231:21241   */\n      dup2\n        /* \"#utility.yul\":21228:21250   */\n      lt\n        /* \"#utility.yul\":21207:21225   */\n      0xffffffffffffffff\n        /* \"#utility.yul\":21195:21205   */\n      dup3\n        /* \"#utility.yul\":21192:21226   */\n      gt\n        /* \"#utility.yul\":21189:21251   */\n      or\n        /* \"#utility.yul\":21186:21274   */\n      iszero\n      tag_576\n      jumpi\n        /* \"#utility.yul\":21254:21272   */\n      tag_577\n      tag_485\n      jump\t// in\n    tag_577:\n        /* \"#utility.yul\":21186:21274   */\n    tag_576:\n        /* \"#utility.yul\":21294:21304   */\n      dup1\n        /* \"#utility.yul\":21290:21292   */\n      0x40\n        /* \"#utility.yul\":21283:21305   */\n      mstore\n        /* \"#utility.yul\":21073:21311   */\n      pop\n        /* \"#utility.yul\":21030:21311   */\n      pop\n      pop\n      jump\t// out\n        /* \"#utility.yul\":21317:21417   */\n    tag_387:\n        /* \"#utility.yul\":21356:21363   */\n      0x00\n        /* \"#utility.yul\":21385:21411   */\n      tag_579\n        /* \"#utility.yul\":21405:21410   */\n      dup3\n        /* \"#utility.yul\":21385:21411   */\n      tag_580\n      jump\t// in\n    tag_579:\n        /* \"#utility.yul\":21374:21411   */\n      swap1\n      pop\n        /* \"#utility.yul\":21317:21417   */\n      swap2\n      swap1\n      pop\n      jump\t// out\n        /* \"#utility.yul\":21423:21517   */\n    tag_580:\n        /* \"#utility.yul\":21462:21469   */\n      0x00\n        /* \"#utility.yul\":21491:21511   */\n      tag_582\n        /* \"#utility.yul\":21505:21510   */\n      dup3\n        /* \"#utility.yul\":21491:21511   */\n      tag_583\n      jump\t// in\n    tag_582:\n        /* \"#utility.yul\":21480:21511   */\n      swap1\n      pop\n        /* \"#utility.yul\":21423:21517   */\n      swap2\n      swap1\n      pop\n      jump\t// out\n        /* \"#utility.yul\":21523:21602   */\n    tag_431:\n        /* \"#utility.yul\":21562:21569   */\n      0x00\n        /* \"#utility.yul\":21591:21596   */\n      dup2\n        /* \"#utility.yul\":21580:21596   */\n      swap1\n      pop\n        /* \"#utility.yul\":21523:21602   */\n      swap2\n      swap1\n      pop\n      jump\t// out\n        /* \"#utility.yul\":21608:21784   */\n    tag_194:\n        /* \"#utility.yul\":21640:21641   */\n      0x00\n        /* \"#utility.yul\":21657:21677   */\n      tag_586\n        /* \"#utility.yul\":21675:21676   */\n      dup3\n        /* \"#utility.yul\":21657:21677   */\n      tag_426\n      jump\t// in\n    tag_586:\n        /* \"#utility.yul\":21652:21677   */\n      swap2\n      pop\n        /* \"#utility.yul\":21691:21711   */\n      tag_587\n        /* \"#utility.yul\":21709:21710   */\n      dup4\n        /* \"#utility.yul\":21691:21711   */\n      tag_426\n      jump\t// in\n    tag_587:\n        /* \"#utility.yul\":21686:21711   */\n      swap3\n      pop\n        /* \"#utility.yul\":21730:21731   */\n      dup3\n        /* \"#utility.yul\":21720:21755   */\n      tag_588\n      jumpi\n        /* \"#utility.yul\":21735:21753   */\n      tag_589\n      tag_501\n      jump\t// in\n    tag_589:\n        /* \"#utility.yul\":21720:21755   */\n    tag_588:\n        /* \"#utility.yul\":21776:21777   */\n      dup3\n        /* \"#utility.yul\":21773:21774   */\n      dup3\n        /* \"#utility.yul\":21769:21778   */\n      mod\n        /* \"#utility.yul\":21764:21778   */\n      swap1\n      pop\n        /* \"#utility.yul\":21608:21784   */\n      swap3\n      swap2\n      pop\n      pop\n      jump\t// out\n        /* \"#utility.yul\":21790:21970   */\n    tag_495:\n        /* \"#utility.yul\":21838:21915   */\n      0x4e487b7100000000000000000000000000000000000000000000000000000000\n        /* \"#utility.yul\":21835:21836   */\n      0x00\n        /* \"#utility.yul\":21828:21916   */\n      mstore\n        /* \"#utility.yul\":21935:21939   */\n      0x11\n        /* \"#utility.yul\":21932:21933   */\n      0x04\n        /* \"#utility.yul\":21925:21940   */\n      mstore\n        /* \"#utility.yul\":21959:21963   */\n      0x24\n        /* \"#utility.yul\":21956:21957   */\n      0x00\n        /* \"#utility.yul\":21949:21964   */\n      revert\n        /* \"#utility.yul\":21976:22156   */\n    tag_501:\n        /* \"#utility.yul\":22024:22101   */\n      0x4e487b7100000000000000000000000000000000000000000000000000000000\n        /* \"#utility.yul\":22021:22022   */\n      0x00\n        /* \"#utility.yul\":22014:22102   */\n      mstore\n        /* \"#utility.yul\":22121:22125   */\n      0x12\n        /* \"#utility.yul\":22118:22119   */\n      0x04\n        /* \"#utility.yul\":22111:22126   */\n      mstore\n        /* \"#utility.yul\":22145:22149   */\n      0x24\n        /* \"#utility.yul\":22142:22143   */\n      0x00\n        /* \"#utility.yul\":22135:22150   */\n      revert\n        /* \"#utility.yul\":22162:22342   */\n    tag_485:\n        /* \"#utility.yul\":22210:22287   */\n      0x4e487b7100000000000000000000000000000000000000000000000000000000\n        /* \"#utility.yul\":22207:22208   */\n      0x00\n        /* \"#utility.yul\":22200:22288   */\n      mstore\n        /* \"#utility.yul\":22307:22311   */\n      0x41\n        /* \"#utility.yul\":22304:22305   */\n      0x04\n        /* \"#utility.yul\":22297:22312   */\n      mstore\n        /* \"#utility.yul\":22331:22335   */\n      0x24\n        /* \"#utility.yul\":22328:22329   */\n      0x00\n        /* \"#utility.yul\":22321:22336   */\n      revert\n        /* \"#utility.yul\":22348:22465   */\n    tag_318:\n        /* \"#utility.yul\":22457:22458   */\n      0x00\n        /* \"#utility.yul\":22454:22455   */\n      dup1\n        /* \"#utility.yul\":22447:22459   */\n      revert\n        /* \"#utility.yul\":22471:22588   */\n    tag_295:\n        /* \"#utility.yul\":22580:22581   */\n      0x00\n        /* \"#utility.yul\":22577:22578   */\n      dup1\n        /* \"#utility.yul\":22570:22582   */\n      revert\n        /* \"#utility.yul\":22594:22711   */\n    tag_338:\n        /* \"#utility.yul\":22703:22704   */\n      0x00\n        /* \"#utility.yul\":22700:22701   */\n      dup1\n        /* \"#utility.yul\":22693:22705   */\n      revert\n        /* \"#utility.yul\":22717:22834   */\n    tag_330:\n        /* \"#utility.yul\":22826:22827   */\n      0x00\n        /* \"#utility.yul\":22823:22824   */\n      dup1\n        /* \"#utility.yul\":22816:22828   */\n      revert\n        /* \"#utility.yul\":22840:22942   */\n    tag_381:\n        /* \"#utility.yul\":22881:22887   */\n      0x00\n        /* \"#utility.yul\":22932:22934   */\n      0x1f\n        /* \"#utility.yul\":22928:22935   */\n      not\n        /* \"#utility.yul\":22923:22925   */\n      0x1f\n        /* \"#utility.yul\":22916:22921   */\n      dup4\n        /* \"#utility.yul\":22912:22926   */\n      add\n        /* \"#utility.yul\":22908:22936   */\n      and\n        /* \"#utility.yul\":22898:22936   */\n      swap1\n      pop\n        /* \"#utility.yul\":22840:22942   */\n      swap2\n      swap1\n      pop\n      jump\t// out\n        /* \"#utility.yul\":22948:23042   */\n    tag_583:\n        /* \"#utility.yul\":22981:22989   */\n      0x00\n        /* \"#utility.yul\":23029:23034   */\n      dup2\n        /* \"#utility.yul\":23025:23027   */\n      0x60\n        /* \"#utility.yul\":23021:23035   */\n      shl\n        /* \"#utility.yul\":23000:23035   */\n      swap1\n      pop\n        /* \"#utility.yul\":22948:23042   */\n      swap2\n      swap1\n      pop\n      jump\t// out\n        /* \"#utility.yul\":23048:23150   */\n    tag_511:\n        /* \"#utility.yul\":23090:23098   */\n      0x00\n        /* \"#utility.yul\":23137:23142   */\n      dup2\n        /* \"#utility.yul\":23134:23135   */\n      0x01\n        /* \"#utility.yul\":23130:23143   */\n      shr\n        /* \"#utility.yul\":23109:23143   */\n      swap1\n      pop\n        /* \"#utility.yul\":23048:23150   */\n      swap2\n      swap1\n      pop\n      jump\t// out\n        /* \"#utility.yul\":23156:23328   */\n    tag_397:\n        /* \"#utility.yul\":23296:23320   */\n      0x4d7573742062652070726f706f736564206f776e657200000000000000000000\n        /* \"#utility.yul\":23292:23293   */\n      0x00\n        /* \"#utility.yul\":23284:23290   */\n      dup3\n        /* \"#utility.yul\":23280:23294   */\n      add\n        /* \"#utility.yul\":23273:23321   */\n      mstore\n        /* \"#utility.yul\":23156:23328   */\n      pop\n      jump\t// out\n        /* \"#utility.yul\":23334:23556   */\n    tag_402:\n        /* \"#utility.yul\":23474:23508   */\n      0x756e61626c6520746f207472616e73666572416e6443616c6c20746f206f7261\n        /* \"#utility.yul\":23470:23471   */\n      0x00\n        /* \"#utility.yul\":23462:23468   */\n      dup3\n        /* \"#utility.yul\":23458:23472   */\n      add\n        /* \"#utility.yul\":23451:23509   */\n      mstore\n        /* \"#utility.yul\":23543:23548   */\n      0x636c650000000000000000000000000000000000000000000000000000000000\n        /* \"#utility.yul\":23538:23540   */\n      0x20\n        /* \"#utility.yul\":23530:23536   */\n      dup3\n        /* \"#utility.yul\":23526:23541   */\n      add\n        /* \"#utility.yul\":23519:23549   */\n      mstore\n        /* \"#utility.yul\":23334:23556   */\n      pop\n      jump\t// out\n        /* \"#utility.yul\":23562:23734   */\n    tag_407:\n        /* \"#utility.yul\":23702:23726   */\n      0x4f6e6c792063616c6c61626c65206279206f776e657200000000000000000000\n        /* \"#utility.yul\":23698:23699   */\n      0x00\n        /* \"#utility.yul\":23690:23696   */\n      dup3\n        /* \"#utility.yul\":23686:23700   */\n      add\n        /* \"#utility.yul\":23679:23727   */\n      mstore\n        /* \"#utility.yul\":23562:23734   */\n      pop\n      jump\t// out\n        /* \"#utility.yul\":23740:23908   */\n    tag_412:\n        /* \"#utility.yul\":23880:23900   */\n      0x556e61626c6520746f207472616e736665720000000000000000000000000000\n        /* \"#utility.yul\":23876:23877   */\n      0x00\n        /* \"#utility.yul\":23868:23874   */\n      dup3\n        /* \"#utility.yul\":23864:23878   */\n      add\n        /* \"#utility.yul\":23857:23901   */\n      mstore\n        /* \"#utility.yul\":23740:23908   */\n      pop\n      jump\t// out\n        /* \"#utility.yul\":23914:24087   */\n    tag_417:\n        /* \"#utility.yul\":24054:24079   */\n      0x43616e6e6f74207472616e7366657220746f2073656c66000000000000000000\n        /* \"#utility.yul\":24050:24051   */\n      0x00\n        /* \"#utility.yul\":24042:24048   */\n      dup3\n        /* \"#utility.yul\":24038:24052   */\n      add\n        /* \"#utility.yul\":24031:24080   */\n      mstore\n        /* \"#utility.yul\":23914:24087   */\n      pop\n      jump\t// out\n        /* \"#utility.yul\":24093:24320   */\n    tag_422:\n        /* \"#utility.yul\":24233:24267   */\n      0x536f75726365206d75737420626520746865206f7261636c65206f6620746865\n        /* \"#utility.yul\":24229:24230   */\n      0x00\n        /* \"#utility.yul\":24221:24227   */\n      dup3\n        /* \"#utility.yul\":24217:24231   */\n      add\n        /* \"#utility.yul\":24210:24268   */\n      mstore\n        /* \"#utility.yul\":24302:24312   */\n      0x2072657175657374000000000000000000000000000000000000000000000000\n        /* \"#utility.yul\":24297:24299   */\n      0x20\n        /* \"#utility.yul\":24289:24295   */\n      dup3\n        /* \"#utility.yul\":24285:24300   */\n      add\n        /* \"#utility.yul\":24278:24313   */\n      mstore\n        /* \"#utility.yul\":24093:24320   */\n      pop\n      jump\t// out\n        /* \"#utility.yul\":24326:24448   */\n    tag_301:\n        /* \"#utility.yul\":24399:24423   */\n      tag_607\n        /* \"#utility.yul\":24417:24422   */\n      dup2\n        /* \"#utility.yul\":24399:24423   */\n      tag_363\n      jump\t// in\n    tag_607:\n        /* \"#utility.yul\":24392:24397   */\n      dup2\n        /* \"#utility.yul\":24389:24424   */\n      eq\n        /* \"#utility.yul\":24379:24442   */\n      tag_608\n      jumpi\n        /* \"#utility.yul\":24438:24439   */\n      0x00\n        /* \"#utility.yul\":24435:24436   */\n      dup1\n        /* \"#utility.yul\":24428:24440   */\n      revert\n        /* \"#utility.yul\":24379:24442   */\n    tag_608:\n        /* \"#utility.yul\":24326:24448   */\n      pop\n      jump\t// out\n        /* \"#utility.yul\":24454:24570   */\n    tag_305:\n        /* \"#utility.yul\":24524:24545   */\n      tag_610\n        /* \"#utility.yul\":24539:24544   */\n      dup2\n        /* \"#utility.yul\":24524:24545   */\n      tag_553\n      jump\t// in\n    tag_610:\n        /* \"#utility.yul\":24517:24522   */\n      dup2\n        /* \"#utility.yul\":24514:24546   */\n      eq\n        /* \"#utility.yul\":24504:24564   */\n      tag_611\n      jumpi\n        /* \"#utility.yul\":24560:24561   */\n      0x00\n        /* \"#utility.yul\":24557:24558   */\n      dup1\n        /* \"#utility.yul\":24550:24562   */\n      revert\n        /* \"#utility.yul\":24504:24564   */\n    tag_611:\n        /* \"#utility.yul\":24454:24570   */\n      pop\n      jump\t// out\n        /* \"#utility.yul\":24576:24698   */\n    tag_309:\n        /* \"#utility.yul\":24649:24673   */\n      tag_613\n        /* \"#utility.yul\":24667:24672   */\n      dup2\n        /* \"#utility.yul\":24649:24673   */\n      tag_367\n      jump\t// in\n    tag_613:\n        /* \"#utility.yul\":24642:24647   */\n      dup2\n        /* \"#utility.yul\":24639:24674   */\n      eq\n        /* \"#utility.yul\":24629:24692   */\n      tag_614\n      jumpi\n        /* \"#utility.yul\":24688:24689   */\n      0x00\n        /* \"#utility.yul\":24685:24686   */\n      dup1\n        /* \"#utility.yul\":24678:24690   */\n      revert\n        /* \"#utility.yul\":24629:24692   */\n    tag_614:\n        /* \"#utility.yul\":24576:24698   */\n      pop\n      jump\t// out\n        /* \"#utility.yul\":24704:24824   */\n    tag_313:\n        /* \"#utility.yul\":24776:24799   */\n      tag_616\n        /* \"#utility.yul\":24793:24798   */\n      dup2\n        /* \"#utility.yul\":24776:24799   */\n      tag_371\n      jump\t// in\n    tag_616:\n        /* \"#utility.yul\":24769:24774   */\n      dup2\n        /* \"#utility.yul\":24766:24800   */\n      eq\n        /* \"#utility.yul\":24756:24818   */\n      tag_617\n      jumpi\n        /* \"#utility.yul\":24814:24815   */\n      0x00\n        /* \"#utility.yul\":24811:24812   */\n      dup1\n        /* \"#utility.yul\":24804:24816   */\n      revert\n        /* \"#utility.yul\":24756:24818   */\n    tag_617:\n        /* \"#utility.yul\":24704:24824   */\n      pop\n      jump\t// out\n        /* \"#utility.yul\":24830:24952   */\n    tag_323:\n        /* \"#utility.yul\":24903:24927   */\n      tag_619\n        /* \"#utility.yul\":24921:24926   */\n      dup2\n        /* \"#utility.yul\":24903:24927   */\n      tag_426\n      jump\t// in\n    tag_619:\n        /* \"#utility.yul\":24896:24901   */\n      dup2\n        /* \"#utility.yul\":24893:24928   */\n      eq\n        /* \"#utility.yul\":24883:24946   */\n      tag_620\n      jumpi\n        /* \"#utility.yul\":24942:24943   */\n      0x00\n        /* \"#utility.yul\":24939:24940   */\n      dup1\n        /* \"#utility.yul\":24932:24944   */\n      revert\n        /* \"#utility.yul\":24883:24946   */\n    tag_620:\n        /* \"#utility.yul\":24830:24952   */\n      pop\n      jump\t// out\n    stop\n    data_018e308485b4d091aac4f7bbcde23f6d7a211336c2c0c138a6256b01268ae407 68747470733a2f2f6170692e6d61746261726f6665782e636f6d2e61722f76312f726573742f696e64696365732f492e534f4a41\n\n    auxdata: 0xa2646970667358221220cddc50948727d9700d6482695472359c05f7b4868a8a2300cc7f7a68d95ca56264736f6c63430008070033\n}\n",
				"bytecode": {
					"linkReferences": {},
					"object": "608060405260016004553480156200001657600080fd5b50338060008073ffffffffffffffffffffffffffffffffffffffff168273ffffffffffffffffffffffffffffffffffffffff1614156200008d576040517f08c379a0000000000000000000000000000000000000000000000000000000008152600401620000849062000307565b60405180910390fd5b81600660006101000a81548173ffffffffffffffffffffffffffffffffffffffff021916908373ffffffffffffffffffffffffffffffffffffffff160217905550600073ffffffffffffffffffffffffffffffffffffffff168173ffffffffffffffffffffffffffffffffffffffff1614620001155762000114816200014360201b60201c565b5b5050506200013d73326c977e6efc84e512bb9c30f76e30c160ed06fb6200027560201b60201c565b620003ae565b3373ffffffffffffffffffffffffffffffffffffffff168173ffffffffffffffffffffffffffffffffffffffff161415620001b5576040517f08c379a0000000000000000000000000000000000000000000000000000000008152600401620001ac9062000329565b60405180910390fd5b80600760006101000a81548173ffffffffffffffffffffffffffffffffffffffff021916908373ffffffffffffffffffffffffffffffffffffffff1602179055508073ffffffffffffffffffffffffffffffffffffffff16600660009054906101000a900473ffffffffffffffffffffffffffffffffffffffff1673ffffffffffffffffffffffffffffffffffffffff167fed8889f560326eb138920d842192f0eb3dd22b4f139c87a2c57538e05bae127860405160405180910390a350565b80600260006101000a81548173ffffffffffffffffffffffffffffffffffffffff021916908373ffffffffffffffffffffffffffffffffffffffff16021790555050565b6000620002c86018836200034b565b9150620002d5826200035c565b602082019050919050565b6000620002ef6017836200034b565b9150620002fc8262000385565b602082019050919050565b600060208201905081810360008301526200032281620002b9565b9050919050565b600060208201905081810360008301526200034481620002e0565b9050919050565b600082825260208201905092915050565b7f43616e6e6f7420736574206f776e657220746f207a65726f0000000000000000600082015250565b7f43616e6e6f74207472616e7366657220746f2073656c66000000000000000000600082015250565b61242980620003be6000396000f3fe608060405234801561001057600080fd5b50600436106100a95760003560e01c80638da5cb5b116100715780638da5cb5b1461012c5780638dc654a21461014a5780639d1b464a14610154578063e9edbf0314610172578063ec65d0f814610190578063f2fde38b146101ac576100a9565b8063165d35e1146100ae5780632183abd1146100cc5780634f3b0b32146100ea5780635474c99c1461010657806379ba509714610122575b600080fd5b6100b66101c8565b6040516100c391906119b4565b60405180910390f35b6100d46101d7565b6040516100e19190611b1b565b60405180910390f35b61010460048036038101906100ff91906116a7565b6101dd565b005b610120600480360381019061011b9190611730565b610360565b005b61012a61049f565b005b610134610636565b60405161014191906119b4565b60405180910390f35b610152610660565b005b61015c6107cb565b6040516101699190611bf6565b60405180910390f35b61017a6107d1565b6040516101879190611abb565b60405180910390f35b6101aa60048036038101906101a59190611770565b6107d7565b005b6101c660048036038101906101c1919061167a565b6107f1565b005b60006101d2610805565b905090565b60095481565b6101e561082f565b60006102016101f3836108c1565b30635474c99c60e01b6108eb565b90506102656040518060400160405280600381526020017f67657400000000000000000000000000000000000000000000000000000000008152506040518060600160405280603481526020016123c0603491398361091c9092919063ffffffff16565b6102e46040518060400160405280600481526020017f70617468000000000000000000000000000000000000000000000000000000008152506040518060400160405280600a81526020017f696e64657856616c7565000000000000000000000000000000000000000000008152508361091c9092919063ffffffff16565b61032f6040518060400160405280600581526020017f74696d657300000000000000000000000000000000000000000000000000000081525060648361094f9092919063ffffffff16565b61035a8382600a670de0b6b3a7640000600161034b9190611e8c565b6103559190611cea565b610982565b50505050565b816005600082815260200190815260200160002060009054906101000a900473ffffffffffffffffffffffffffffffffffffffff1673ffffffffffffffffffffffffffffffffffffffff163373ffffffffffffffffffffffffffffffffffffffff1614610402576040517f08c379a00000000000000000000000000000000000000000000000000000000081526004016103f990611bd6565b60405180910390fd5b6005600082815260200190815260200160002060006101000a81549073ffffffffffffffffffffffffffffffffffffffff0219169055807f7cc135e0cebb02c3480ae5d74d377283180a2601f8f644edf7987b009316c63a60405160405180910390a281837f8830ab72666dca3afc82aa3647a7b30c576c782ac695a3fa769a8d9ca39890b260405160405180910390a381600881905550505050565b600760009054906101000a900473ffffffffffffffffffffffffffffffffffffffff1673ffffffffffffffffffffffffffffffffffffffff163373ffffffffffffffffffffffffffffffffffffffff161461052f576040517f08c379a000000000000000000000000000000000000000000000000000000000815260040161052690611b36565b60405180910390fd5b6000600660009054906101000a900473ffffffffffffffffffffffffffffffffffffffff16905033600660006101000a81548173ffffffffffffffffffffffffffffffffffffffff021916908373ffffffffffffffffffffffffffffffffffffffff1602179055506000600760006101000a81548173ffffffffffffffffffffffffffffffffffffffff021916908373ffffffffffffffffffffffffffffffffffffffff1602179055503373ffffffffffffffffffffffffffffffffffffffff168173ffffffffffffffffffffffffffffffffffffffff167f8be0079c531659141344cd1fd0a4f28419497f9722a3daafe3b4186f6b6457e060405160405180910390a350565b6000600660009054906101000a900473ffffffffffffffffffffffffffffffffffffffff16905090565b61066861082f565b6000610672610805565b90508073ffffffffffffffffffffffffffffffffffffffff1663a9059cbb338373ffffffffffffffffffffffffffffffffffffffff166370a08231306040518263ffffffff1660e01b81526004016106ca91906119b4565b60206040518083038186803b1580156106e257600080fd5b505afa1580156106f6573d6000803e3d6000fd5b505050506040513d601f19601f8201168201806040525081019061071a91906117d7565b6040518363ffffffff1660e01b81526004016107379291906119cf565b602060405180830381600087803b15801561075157600080fd5b505af1158015610765573d6000803e3d6000fd5b505050506040513d601f19601f820116820180604052508101906107899190611703565b6107c8576040517f08c379a00000000000000000000000000000000000000000000000000000000081526004016107bf90611b96565b60405180910390fd5b50565b60085481565b600a5481565b6107df61082f565b6107eb84848484610a4e565b50505050565b6107f961082f565b61080281610b61565b50565b6000600260009054906101000a900473ffffffffffffffffffffffffffffffffffffffff16905090565b600660009054906101000a900473ffffffffffffffffffffffffffffffffffffffff1673ffffffffffffffffffffffffffffffffffffffff163373ffffffffffffffffffffffffffffffffffffffff16146108bf576040517f08c379a00000000000000000000000000000000000000000000000000000000081526004016108b690611b76565b60405180910390fd5b565b6000808290506000815114156108dd576000801b9150506108e6565b60208301519150505b919050565b6108f3611505565b6108fb611505565b61091285858584610c90909392919063ffffffff16565b9150509392505050565b610933828460800151610d4090919063ffffffff16565b61094a818460800151610d4090919063ffffffff16565b505050565b610966828460800151610d4090919063ffffffff16565b61097d818460800151610d6590919063ffffffff16565b505050565b60008060045490506001816109979190611c94565b6004819055506000634042994660e01b60008087600001513089604001518760018c60800151600001516040516024016109d89897969594939291906119f8565b604051602081830303815290604052907bffffffffffffffffffffffffffffffffffffffffffffffffffffffff19166020820180517bffffffffffffffffffffffffffffffffffffffffffffffffffffffff83818316178352505050509050610a4386838684610e12565b925050509392505050565b60006005600086815260200190815260200160002060009054906101000a900473ffffffffffffffffffffffffffffffffffffffff1690506005600086815260200190815260200160002060006101000a81549073ffffffffffffffffffffffffffffffffffffffff0219169055847fe1fe3afa0f7f761ff0a8b89086790efd5140d2907ebd5b7ff6bfcb5e075fd4c560405160405180910390a28073ffffffffffffffffffffffffffffffffffffffff16636ee4d553868686866040518563ffffffff1660e01b8152600401610b289493929190611ad6565b600060405180830381600087803b158015610b4257600080fd5b505af1158015610b56573d6000803e3d6000fd5b505050505050505050565b3373ffffffffffffffffffffffffffffffffffffffff168173ffffffffffffffffffffffffffffffffffffffff161415610bd0576040517f08c379a0000000000000000000000000000000000000000000000000000000008152600401610bc790611bb6565b60405180910390fd5b80600760006101000a81548173ffffffffffffffffffffffffffffffffffffffff021916908373ffffffffffffffffffffffffffffffffffffffff1602179055508073ffffffffffffffffffffffffffffffffffffffff16600660009054906101000a900473ffffffffffffffffffffffffffffffffffffffff1673ffffffffffffffffffffffffffffffffffffffff167fed8889f560326eb138920d842192f0eb3dd22b4f139c87a2c57538e05bae127860405160405180910390a350565b610c98611505565b610ca88560800151610100610fb6565b508385600001818152505082856020019073ffffffffffffffffffffffffffffffffffffffff16908173ffffffffffffffffffffffffffffffffffffffff16815250508185604001907bffffffffffffffffffffffffffffffffffffffffffffffffffffffff191690817bffffffffffffffffffffffffffffffffffffffffffffffffffffffff191681525050849050949350505050565b610d4d8260038351611020565b610d6081836111a590919063ffffffff16565b505050565b7fffffffffffffffffffffffffffffffffffffffffffffffff0000000000000000811215610d9c57610d9782826111c7565b610e0e565b67ffffffffffffffff811315610dbb57610db6828261123e565b610e0d565b60008112610dd457610dcf82600083611020565b610e0c565b610e0b826001837fffffffffffffffffffffffffffffffffffffffffffffffffffffffffffffffff610e069190611ee6565b611020565b5b5b5b5050565b60003084604051602001610e27929190611988565b604051602081830303815290604052805190602001209050846005600083815260200190815260200160002060006101000a81548173ffffffffffffffffffffffffffffffffffffffff021916908373ffffffffffffffffffffffffffffffffffffffff160217905550807fb5e6e01e79f91267dc17b4e6314d5d4d03593d2ceee0fbb452b750bd70ea5af960405160405180910390a2600260009054906101000a900473ffffffffffffffffffffffffffffffffffffffff1673ffffffffffffffffffffffffffffffffffffffff16634000aea08685856040518463ffffffff1660e01b8152600401610f1d93929190611a7d565b602060405180830381600087803b158015610f3757600080fd5b505af1158015610f4b573d6000803e3d6000fd5b505050506040513d601f19601f82011682018060405250810190610f6f9190611703565b610fae576040517f08c379a0000000000000000000000000000000000000000000000000000000008152600401610fa590611b56565b60405180910390fd5b949350505050565b610fbe611572565b6000602083610fcd919061210d565b14610ff957602082610fdf919061210d565b6020610feb9190611f7a565b82610ff69190611c94565b91505b81836020018181525050604051808452600081528281016020016040525082905092915050565b60178167ffffffffffffffff1611611057576110518160058460ff16901b60ff16178461128a90919063ffffffff16565b506111a0565b60ff8167ffffffffffffffff16116110ad57611086601860058460ff16901b178461128a90919063ffffffff16565b506110a78167ffffffffffffffff166001856112aa9092919063ffffffff16565b5061119f565b61ffff8167ffffffffffffffff1611611104576110dd601960058460ff16901b178461128a90919063ffffffff16565b506110fe8167ffffffffffffffff166002856112aa9092919063ffffffff16565b5061119e565b63ffffffff8167ffffffffffffffff161161115d57611136601a60058460ff16901b178461128a90919063ffffffff16565b506111578167ffffffffffffffff166004856112aa9092919063ffffffff16565b5061119d565b61117a601b60058460ff16901b178461128a90919063ffffffff16565b5061119b8167ffffffffffffffff166008856112aa9092919063ffffffff16565b505b5b5b5b505050565b6111ad611572565b6111bf838460000151518485516112cc565b905092915050565b6111e560036005600660ff16901b178361128a90919063ffffffff16565b5061123a82827fffffffffffffffffffffffffffffffffffffffffffffffffffffffffffffffff6112169190611ee6565b6040516020016112269190611bf6565b6040516020818303038152906040526113bb565b5050565b61125c60026005600660ff16901b178361128a90919063ffffffff16565b5061128682826040516020016112729190611bf6565b6040516020818303038152906040526113bb565b5050565b611292611572565b6112a283846000015151846113e0565b905092915050565b6112b2611572565b6112c3848560000151518585611437565b90509392505050565b6112d4611572565b82518211156112e257600080fd5b846020015182856112f39190611c94565b111561132857611327856002611318886020015188876113139190611c94565b6114c5565b6113229190611e8c565b6114e1565b5b6000808651805187602083010193508088870111156113475787860182525b60208701925050505b6020841061138e57805182526020826113699190611c94565b91506020816113789190611c94565b90506020846113879190611f7a565b9350611350565b60006001856020036101000a03905080198251168184511681811785525050508692505050949350505050565b6113c88260028351611020565b6113db81836111a590919063ffffffff16565b505050565b6113e8611572565b8360200151831061140e5761140d84600286602001516114089190611e8c565b6114e1565b5b835180516020858301018481538186141561142a576001820183525b5050508390509392505050565b61143f611572565b846020015184836114509190611c94565b11156114785761147785600286856114689190611c94565b6114729190611e8c565b6114e1565b5b600060018361010061148a9190611d6e565b6114949190611f7a565b905085518386820101858319825116178152815185880111156114b75784870182525b505085915050949350505050565b6000818311156114d7578290506114db565b8190505b92915050565b6000826000015190506114f48383610fb6565b506114ff83826111a5565b50505050565b6040518060a0016040528060008019168152602001600073ffffffffffffffffffffffffffffffffffffffff16815260200160007bffffffffffffffffffffffffffffffffffffffffffffffffffffffff191681526020016000815260200161156c611572565b81525090565b604051806040016040528060608152602001600081525090565b600061159f61159a84611c36565b611c11565b9050828152602081018484840111156115bb576115ba6121d0565b5b6115c684828561206c565b509392505050565b6000813590506115dd8161234c565b92915050565b6000815190506115f281612363565b92915050565b6000813590506116078161237a565b92915050565b60008135905061161c81612391565b92915050565b600082601f830112611637576116366121cb565b5b813561164784826020860161158c565b91505092915050565b60008135905061165f816123a8565b92915050565b600081519050611674816123a8565b92915050565b6000602082840312156116905761168f6121da565b5b600061169e848285016115ce565b91505092915050565b600080604083850312156116be576116bd6121da565b5b60006116cc858286016115ce565b925050602083013567ffffffffffffffff8111156116ed576116ec6121d5565b5b6116f985828601611622565b9150509250929050565b600060208284031215611719576117186121da565b5b6000611727848285016115e3565b91505092915050565b60008060408385031215611747576117466121da565b5b6000611755858286016115f8565b925050602061176685828601611650565b9150509250929050565b6000806000806080858703121561178a576117896121da565b5b6000611798878288016115f8565b94505060206117a987828801611650565b93505060406117ba8782880161160d565b92505060606117cb87828801611650565b91505092959194509250565b6000602082840312156117ed576117ec6121da565b5b60006117fb84828501611665565b91505092915050565b61180d81611fae565b82525050565b61181c81611fcc565b82525050565b61182b81611fd6565b82525050565b600061183c82611c67565b6118468185611c72565b935061185681856020860161207b565b61185f816121df565b840191505092915050565b61187b61187682612036565b6120df565b82525050565b61188a81612002565b82525050565b600061189d601683611c83565b91506118a88261220a565b602082019050919050565b60006118c0602383611c83565b91506118cb82612233565b604082019050919050565b60006118e3601683611c83565b91506118ee82612282565b602082019050919050565b6000611906601283611c83565b9150611911826122ab565b602082019050919050565b6000611929601783611c83565b9150611934826122d4565b602082019050919050565b600061194c602883611c83565b9150611957826122fd565b604082019050919050565b61196b8161202c565b82525050565b61198261197d8261202c565b612103565b82525050565b6000611994828561186a565b6014820191506119a48284611971565b6020820191508190509392505050565b60006020820190506119c96000830184611804565b92915050565b60006040820190506119e46000830185611804565b6119f16020830184611962565b9392505050565b600061010082019050611a0e600083018b611804565b611a1b602083018a611962565b611a286040830189611813565b611a356060830188611804565b611a426080830187611822565b611a4f60a0830186611962565b611a5c60c0830185611962565b81810360e0830152611a6e8184611831565b90509998505050505050505050565b6000606082019050611a926000830186611804565b611a9f6020830185611962565b8181036040830152611ab18184611831565b9050949350505050565b6000602082019050611ad06000830184611813565b92915050565b6000608082019050611aeb6000830187611813565b611af86020830186611962565b611b056040830185611822565b611b126060830184611962565b95945050505050565b6000602082019050611b306000830184611881565b92915050565b60006020820190508181036000830152611b4f81611890565b9050919050565b60006020820190508181036000830152611b6f816118b3565b9050919050565b60006020820190508181036000830152611b8f816118d6565b9050919050565b60006020820190508181036000830152611baf816118f9565b9050919050565b60006020820190508181036000830152611bcf8161191c565b9050919050565b60006020820190508181036000830152611bef8161193f565b9050919050565b6000602082019050611c0b6000830184611962565b92915050565b6000611c1b611c2c565b9050611c2782826120ae565b919050565b6000604051905090565b600067ffffffffffffffff821115611c5157611c5061219c565b5b611c5a826121df565b9050602081019050919050565b600081519050919050565b600082825260208201905092915050565b600082825260208201905092915050565b6000611c9f8261202c565b9150611caa8361202c565b9250827fffffffffffffffffffffffffffffffffffffffffffffffffffffffffffffffff03821115611cdf57611cde61213e565b5b828201905092915050565b6000611cf58261202c565b9150611d008361202c565b925082611d1057611d0f61216d565b5b828204905092915050565b6000808291508390505b6001851115611d6557808604811115611d4157611d4061213e565b5b6001851615611d505780820291505b8081029050611d5e856121fd565b9450611d25565b94509492505050565b6000611d798261202c565b9150611d848361202c565b9250611db17fffffffffffffffffffffffffffffffffffffffffffffffffffffffffffffffff8484611db9565b905092915050565b600082611dc95760019050611e85565b81611dd75760009050611e85565b8160018114611ded5760028114611df757611e26565b6001915050611e85565b60ff841115611e0957611e0861213e565b5b8360020a915084821115611e2057611e1f61213e565b5b50611e85565b5060208310610133831016604e8410600b8410161715611e5b5782820a905083811115611e5657611e5561213e565b5b611e85565b611e688484846001611d1b565b92509050818404811115611e7f57611e7e61213e565b5b81810290505b9392505050565b6000611e978261202c565b9150611ea28361202c565b9250817fffffffffffffffffffffffffffffffffffffffffffffffffffffffffffffffff0483118215151615611edb57611eda61213e565b5b828202905092915050565b6000611ef182612002565b9150611efc83612002565b9250827f800000000000000000000000000000000000000000000000000000000000000001821260008412151615611f3757611f3661213e565b5b827f7fffffffffffffffffffffffffffffffffffffffffffffffffffffffffffffff018213600084121615611f6f57611f6e61213e565b5b828203905092915050565b6000611f858261202c565b9150611f908361202c565b925082821015611fa357611fa261213e565b5b828203905092915050565b6000611fb98261200c565b9050919050565b60008115159050919050565b6000819050919050565b60007fffffffff0000000000000000000000000000000000000000000000000000000082169050919050565b6000819050919050565b600073ffffffffffffffffffffffffffffffffffffffff82169050919050565b6000819050919050565b600061204182612048565b9050919050565b60006120538261205a565b9050919050565b60006120658261200c565b9050919050565b82818337600083830152505050565b60005b8381101561209957808201518184015260208101905061207e565b838111156120a8576000848401525b50505050565b6120b7826121df565b810181811067ffffffffffffffff821117156120d6576120d561219c565b5b80604052505050565b60006120ea826120f1565b9050919050565b60006120fc826121f0565b9050919050565b6000819050919050565b60006121188261202c565b91506121238361202c565b9250826121335761213261216d565b5b828206905092915050565b7f4e487b7100000000000000000000000000000000000000000000000000000000600052601160045260246000fd5b7f4e487b7100000000000000000000000000000000000000000000000000000000600052601260045260246000fd5b7f4e487b7100000000000000000000000000000000000000000000000000000000600052604160045260246000fd5b600080fd5b600080fd5b600080fd5b600080fd5b6000601f19601f8301169050919050565b60008160601b9050919050565b60008160011c9050919050565b7f4d7573742062652070726f706f736564206f776e657200000000000000000000600082015250565b7f756e61626c6520746f207472616e73666572416e6443616c6c20746f206f726160008201527f636c650000000000000000000000000000000000000000000000000000000000602082015250565b7f4f6e6c792063616c6c61626c65206279206f776e657200000000000000000000600082015250565b7f556e61626c6520746f207472616e736665720000000000000000000000000000600082015250565b7f43616e6e6f74207472616e7366657220746f2073656c66000000000000000000600082015250565b7f536f75726365206d75737420626520746865206f7261636c65206f662074686560008201527f2072657175657374000000000000000000000000000000000000000000000000602082015250565b61235581611fae565b811461236057600080fd5b50565b61236c81611fc0565b811461237757600080fd5b50565b61238381611fcc565b811461238e57600080fd5b50565b61239a81611fd6565b81146123a557600080fd5b50565b6123b18161202c565b81146123bc57600080fd5b5056fe68747470733a2f2f6170692e6d61746261726f6665782e636f6d2e61722f76312f726573742f696e64696365732f492e534f4a41a2646970667358221220cddc50948727d9700d6482695472359c05f7b4868a8a2300cc7f7a68d95ca56264736f6c63430008070033",
					"opcodes": "PUSH1 0x80 PUSH1 0x40 MSTORE PUSH1 0x1 PUSH1 0x4 SSTORE CALLVALUE DUP1 ISZERO PUSH3 0x16 JUMPI PUSH1 0x0 DUP1 REVERT JUMPDEST POP CALLER DUP1 PUSH1 0x0 DUP1 PUSH20 0xFFFFFFFFFFFFFFFFFFFFFFFFFFFFFFFFFFFFFFFF AND DUP3 PUSH20 0xFFFFFFFFFFFFFFFFFFFFFFFFFFFFFFFFFFFFFFFF AND EQ ISZERO PUSH3 0x8D JUMPI PUSH1 0x40 MLOAD PUSH32 0x8C379A000000000000000000000000000000000000000000000000000000000 DUP2 MSTORE PUSH1 0x4 ADD PUSH3 0x84 SWAP1 PUSH3 0x307 JUMP JUMPDEST PUSH1 0x40 MLOAD DUP1 SWAP2 SUB SWAP1 REVERT JUMPDEST DUP2 PUSH1 0x6 PUSH1 0x0 PUSH2 0x100 EXP DUP2 SLOAD DUP2 PUSH20 0xFFFFFFFFFFFFFFFFFFFFFFFFFFFFFFFFFFFFFFFF MUL NOT AND SWAP1 DUP4 PUSH20 0xFFFFFFFFFFFFFFFFFFFFFFFFFFFFFFFFFFFFFFFF AND MUL OR SWAP1 SSTORE POP PUSH1 0x0 PUSH20 0xFFFFFFFFFFFFFFFFFFFFFFFFFFFFFFFFFFFFFFFF AND DUP2 PUSH20 0xFFFFFFFFFFFFFFFFFFFFFFFFFFFFFFFFFFFFFFFF AND EQ PUSH3 0x115 JUMPI PUSH3 0x114 DUP2 PUSH3 0x143 PUSH1 0x20 SHL PUSH1 0x20 SHR JUMP JUMPDEST JUMPDEST POP POP POP PUSH3 0x13D PUSH20 0x326C977E6EFC84E512BB9C30F76E30C160ED06FB PUSH3 0x275 PUSH1 0x20 SHL PUSH1 0x20 SHR JUMP JUMPDEST PUSH3 0x3AE JUMP JUMPDEST CALLER PUSH20 0xFFFFFFFFFFFFFFFFFFFFFFFFFFFFFFFFFFFFFFFF AND DUP2 PUSH20 0xFFFFFFFFFFFFFFFFFFFFFFFFFFFFFFFFFFFFFFFF AND EQ ISZERO PUSH3 0x1B5 JUMPI PUSH1 0x40 MLOAD PUSH32 0x8C379A000000000000000000000000000000000000000000000000000000000 DUP2 MSTORE PUSH1 0x4 ADD PUSH3 0x1AC SWAP1 PUSH3 0x329 JUMP JUMPDEST PUSH1 0x40 MLOAD DUP1 SWAP2 SUB SWAP1 REVERT JUMPDEST DUP1 PUSH1 0x7 PUSH1 0x0 PUSH2 0x100 EXP DUP2 SLOAD DUP2 PUSH20 0xFFFFFFFFFFFFFFFFFFFFFFFFFFFFFFFFFFFFFFFF MUL NOT AND SWAP1 DUP4 PUSH20 0xFFFFFFFFFFFFFFFFFFFFFFFFFFFFFFFFFFFFFFFF AND MUL OR SWAP1 SSTORE POP DUP1 PUSH20 0xFFFFFFFFFFFFFFFFFFFFFFFFFFFFFFFFFFFFFFFF AND PUSH1 0x6 PUSH1 0x0 SWAP1 SLOAD SWAP1 PUSH2 0x100 EXP SWAP1 DIV PUSH20 0xFFFFFFFFFFFFFFFFFFFFFFFFFFFFFFFFFFFFFFFF AND PUSH20 0xFFFFFFFFFFFFFFFFFFFFFFFFFFFFFFFFFFFFFFFF AND PUSH32 0xED8889F560326EB138920D842192F0EB3DD22B4F139C87A2C57538E05BAE1278 PUSH1 0x40 MLOAD PUSH1 0x40 MLOAD DUP1 SWAP2 SUB SWAP1 LOG3 POP JUMP JUMPDEST DUP1 PUSH1 0x2 PUSH1 0x0 PUSH2 0x100 EXP DUP2 SLOAD DUP2 PUSH20 0xFFFFFFFFFFFFFFFFFFFFFFFFFFFFFFFFFFFFFFFF MUL NOT AND SWAP1 DUP4 PUSH20 0xFFFFFFFFFFFFFFFFFFFFFFFFFFFFFFFFFFFFFFFF AND MUL OR SWAP1 SSTORE POP POP JUMP JUMPDEST PUSH1 0x0 PUSH3 0x2C8 PUSH1 0x18 DUP4 PUSH3 0x34B JUMP JUMPDEST SWAP2 POP PUSH3 0x2D5 DUP3 PUSH3 0x35C JUMP JUMPDEST PUSH1 0x20 DUP3 ADD SWAP1 POP SWAP2 SWAP1 POP JUMP JUMPDEST PUSH1 0x0 PUSH3 0x2EF PUSH1 0x17 DUP4 PUSH3 0x34B JUMP JUMPDEST SWAP2 POP PUSH3 0x2FC DUP3 PUSH3 0x385 JUMP JUMPDEST PUSH1 0x20 DUP3 ADD SWAP1 POP SWAP2 SWAP1 POP JUMP JUMPDEST PUSH1 0x0 PUSH1 0x20 DUP3 ADD SWAP1 POP DUP2 DUP2 SUB PUSH1 0x0 DUP4 ADD MSTORE PUSH3 0x322 DUP2 PUSH3 0x2B9 JUMP JUMPDEST SWAP1 POP SWAP2 SWAP1 POP JUMP JUMPDEST PUSH1 0x0 PUSH1 0x20 DUP3 ADD SWAP1 POP DUP2 DUP2 SUB PUSH1 0x0 DUP4 ADD MSTORE PUSH3 0x344 DUP2 PUSH3 0x2E0 JUMP JUMPDEST SWAP1 POP SWAP2 SWAP1 POP JUMP JUMPDEST PUSH1 0x0 DUP3 DUP3 MSTORE PUSH1 0x20 DUP3 ADD SWAP1 POP SWAP3 SWAP2 POP POP JUMP JUMPDEST PUSH32 0x43616E6E6F7420736574206F776E657220746F207A65726F0000000000000000 PUSH1 0x0 DUP3 ADD MSTORE POP JUMP JUMPDEST PUSH32 0x43616E6E6F74207472616E7366657220746F2073656C66000000000000000000 PUSH1 0x0 DUP3 ADD MSTORE POP JUMP JUMPDEST PUSH2 0x2429 DUP1 PUSH3 0x3BE PUSH1 0x0 CODECOPY PUSH1 0x0 RETURN INVALID PUSH1 0x80 PUSH1 0x40 MSTORE CALLVALUE DUP1 ISZERO PUSH2 0x10 JUMPI PUSH1 0x0 DUP1 REVERT JUMPDEST POP PUSH1 0x4 CALLDATASIZE LT PUSH2 0xA9 JUMPI PUSH1 0x0 CALLDATALOAD PUSH1 0xE0 SHR DUP1 PUSH4 0x8DA5CB5B GT PUSH2 0x71 JUMPI DUP1 PUSH4 0x8DA5CB5B EQ PUSH2 0x12C JUMPI DUP1 PUSH4 0x8DC654A2 EQ PUSH2 0x14A JUMPI DUP1 PUSH4 0x9D1B464A EQ PUSH2 0x154 JUMPI DUP1 PUSH4 0xE9EDBF03 EQ PUSH2 0x172 JUMPI DUP1 PUSH4 0xEC65D0F8 EQ PUSH2 0x190 JUMPI DUP1 PUSH4 0xF2FDE38B EQ PUSH2 0x1AC JUMPI PUSH2 0xA9 JUMP JUMPDEST DUP1 PUSH4 0x165D35E1 EQ PUSH2 0xAE JUMPI DUP1 PUSH4 0x2183ABD1 EQ PUSH2 0xCC JUMPI DUP1 PUSH4 0x4F3B0B32 EQ PUSH2 0xEA JUMPI DUP1 PUSH4 0x5474C99C EQ PUSH2 0x106 JUMPI DUP1 PUSH4 0x79BA5097 EQ PUSH2 0x122 JUMPI JUMPDEST PUSH1 0x0 DUP1 REVERT JUMPDEST PUSH2 0xB6 PUSH2 0x1C8 JUMP JUMPDEST PUSH1 0x40 MLOAD PUSH2 0xC3 SWAP2 SWAP1 PUSH2 0x19B4 JUMP JUMPDEST PUSH1 0x40 MLOAD DUP1 SWAP2 SUB SWAP1 RETURN JUMPDEST PUSH2 0xD4 PUSH2 0x1D7 JUMP JUMPDEST PUSH1 0x40 MLOAD PUSH2 0xE1 SWAP2 SWAP1 PUSH2 0x1B1B JUMP JUMPDEST PUSH1 0x40 MLOAD DUP1 SWAP2 SUB SWAP1 RETURN JUMPDEST PUSH2 0x104 PUSH1 0x4 DUP1 CALLDATASIZE SUB DUP2 ADD SWAP1 PUSH2 0xFF SWAP2 SWAP1 PUSH2 0x16A7 JUMP JUMPDEST PUSH2 0x1DD JUMP JUMPDEST STOP JUMPDEST PUSH2 0x120 PUSH1 0x4 DUP1 CALLDATASIZE SUB DUP2 ADD SWAP1 PUSH2 0x11B SWAP2 SWAP1 PUSH2 0x1730 JUMP JUMPDEST PUSH2 0x360 JUMP JUMPDEST STOP JUMPDEST PUSH2 0x12A PUSH2 0x49F JUMP JUMPDEST STOP JUMPDEST PUSH2 0x134 PUSH2 0x636 JUMP JUMPDEST PUSH1 0x40 MLOAD PUSH2 0x141 SWAP2 SWAP1 PUSH2 0x19B4 JUMP JUMPDEST PUSH1 0x40 MLOAD DUP1 SWAP2 SUB SWAP1 RETURN JUMPDEST PUSH2 0x152 PUSH2 0x660 JUMP JUMPDEST STOP JUMPDEST PUSH2 0x15C PUSH2 0x7CB JUMP JUMPDEST PUSH1 0x40 MLOAD PUSH2 0x169 SWAP2 SWAP1 PUSH2 0x1BF6 JUMP JUMPDEST PUSH1 0x40 MLOAD DUP1 SWAP2 SUB SWAP1 RETURN JUMPDEST PUSH2 0x17A PUSH2 0x7D1 JUMP JUMPDEST PUSH1 0x40 MLOAD PUSH2 0x187 SWAP2 SWAP1 PUSH2 0x1ABB JUMP JUMPDEST PUSH1 0x40 MLOAD DUP1 SWAP2 SUB SWAP1 RETURN JUMPDEST PUSH2 0x1AA PUSH1 0x4 DUP1 CALLDATASIZE SUB DUP2 ADD SWAP1 PUSH2 0x1A5 SWAP2 SWAP1 PUSH2 0x1770 JUMP JUMPDEST PUSH2 0x7D7 JUMP JUMPDEST STOP JUMPDEST PUSH2 0x1C6 PUSH1 0x4 DUP1 CALLDATASIZE SUB DUP2 ADD SWAP1 PUSH2 0x1C1 SWAP2 SWAP1 PUSH2 0x167A JUMP JUMPDEST PUSH2 0x7F1 JUMP JUMPDEST STOP JUMPDEST PUSH1 0x0 PUSH2 0x1D2 PUSH2 0x805 JUMP JUMPDEST SWAP1 POP SWAP1 JUMP JUMPDEST PUSH1 0x9 SLOAD DUP2 JUMP JUMPDEST PUSH2 0x1E5 PUSH2 0x82F JUMP JUMPDEST PUSH1 0x0 PUSH2 0x201 PUSH2 0x1F3 DUP4 PUSH2 0x8C1 JUMP JUMPDEST ADDRESS PUSH4 0x5474C99C PUSH1 0xE0 SHL PUSH2 0x8EB JUMP JUMPDEST SWAP1 POP PUSH2 0x265 PUSH1 0x40 MLOAD DUP1 PUSH1 0x40 ADD PUSH1 0x40 MSTORE DUP1 PUSH1 0x3 DUP2 MSTORE PUSH1 0x20 ADD PUSH32 0x6765740000000000000000000000000000000000000000000000000000000000 DUP2 MSTORE POP PUSH1 0x40 MLOAD DUP1 PUSH1 0x60 ADD PUSH1 0x40 MSTORE DUP1 PUSH1 0x34 DUP2 MSTORE PUSH1 0x20 ADD PUSH2 0x23C0 PUSH1 0x34 SWAP2 CODECOPY DUP4 PUSH2 0x91C SWAP1 SWAP3 SWAP2 SWAP1 PUSH4 0xFFFFFFFF AND JUMP JUMPDEST PUSH2 0x2E4 PUSH1 0x40 MLOAD DUP1 PUSH1 0x40 ADD PUSH1 0x40 MSTORE DUP1 PUSH1 0x4 DUP2 MSTORE PUSH1 0x20 ADD PUSH32 0x7061746800000000000000000000000000000000000000000000000000000000 DUP2 MSTORE POP PUSH1 0x40 MLOAD DUP1 PUSH1 0x40 ADD PUSH1 0x40 MSTORE DUP1 PUSH1 0xA DUP2 MSTORE PUSH1 0x20 ADD PUSH32 0x696E64657856616C756500000000000000000000000000000000000000000000 DUP2 MSTORE POP DUP4 PUSH2 0x91C SWAP1 SWAP3 SWAP2 SWAP1 PUSH4 0xFFFFFFFF AND JUMP JUMPDEST PUSH2 0x32F PUSH1 0x40 MLOAD DUP1 PUSH1 0x40 ADD PUSH1 0x40 MSTORE DUP1 PUSH1 0x5 DUP2 MSTORE PUSH1 0x20 ADD PUSH32 0x74696D6573000000000000000000000000000000000000000000000000000000 DUP2 MSTORE POP PUSH1 0x64 DUP4 PUSH2 0x94F SWAP1 SWAP3 SWAP2 SWAP1 PUSH4 0xFFFFFFFF AND JUMP JUMPDEST PUSH2 0x35A DUP4 DUP3 PUSH1 0xA PUSH8 0xDE0B6B3A7640000 PUSH1 0x1 PUSH2 0x34B SWAP2 SWAP1 PUSH2 0x1E8C JUMP JUMPDEST PUSH2 0x355 SWAP2 SWAP1 PUSH2 0x1CEA JUMP JUMPDEST PUSH2 0x982 JUMP JUMPDEST POP POP POP POP JUMP JUMPDEST DUP2 PUSH1 0x5 PUSH1 0x0 DUP3 DUP2 MSTORE PUSH1 0x20 ADD SWAP1 DUP2 MSTORE PUSH1 0x20 ADD PUSH1 0x0 KECCAK256 PUSH1 0x0 SWAP1 SLOAD SWAP1 PUSH2 0x100 EXP SWAP1 DIV PUSH20 0xFFFFFFFFFFFFFFFFFFFFFFFFFFFFFFFFFFFFFFFF AND PUSH20 0xFFFFFFFFFFFFFFFFFFFFFFFFFFFFFFFFFFFFFFFF AND CALLER PUSH20 0xFFFFFFFFFFFFFFFFFFFFFFFFFFFFFFFFFFFFFFFF AND EQ PUSH2 0x402 JUMPI PUSH1 0x40 MLOAD PUSH32 0x8C379A000000000000000000000000000000000000000000000000000000000 DUP2 MSTORE PUSH1 0x4 ADD PUSH2 0x3F9 SWAP1 PUSH2 0x1BD6 JUMP JUMPDEST PUSH1 0x40 MLOAD DUP1 SWAP2 SUB SWAP1 REVERT JUMPDEST PUSH1 0x5 PUSH1 0x0 DUP3 DUP2 MSTORE PUSH1 0x20 ADD SWAP1 DUP2 MSTORE PUSH1 0x20 ADD PUSH1 0x0 KECCAK256 PUSH1 0x0 PUSH2 0x100 EXP DUP2 SLOAD SWAP1 PUSH20 0xFFFFFFFFFFFFFFFFFFFFFFFFFFFFFFFFFFFFFFFF MUL NOT AND SWAP1 SSTORE DUP1 PUSH32 0x7CC135E0CEBB02C3480AE5D74D377283180A2601F8F644EDF7987B009316C63A PUSH1 0x40 MLOAD PUSH1 0x40 MLOAD DUP1 SWAP2 SUB SWAP1 LOG2 DUP2 DUP4 PUSH32 0x8830AB72666DCA3AFC82AA3647A7B30C576C782AC695A3FA769A8D9CA39890B2 PUSH1 0x40 MLOAD PUSH1 0x40 MLOAD DUP1 SWAP2 SUB SWAP1 LOG3 DUP2 PUSH1 0x8 DUP2 SWAP1 SSTORE POP POP POP POP JUMP JUMPDEST PUSH1 0x7 PUSH1 0x0 SWAP1 SLOAD SWAP1 PUSH2 0x100 EXP SWAP1 DIV PUSH20 0xFFFFFFFFFFFFFFFFFFFFFFFFFFFFFFFFFFFFFFFF AND PUSH20 0xFFFFFFFFFFFFFFFFFFFFFFFFFFFFFFFFFFFFFFFF AND CALLER PUSH20 0xFFFFFFFFFFFFFFFFFFFFFFFFFFFFFFFFFFFFFFFF AND EQ PUSH2 0x52F JUMPI PUSH1 0x40 MLOAD PUSH32 0x8C379A000000000000000000000000000000000000000000000000000000000 DUP2 MSTORE PUSH1 0x4 ADD PUSH2 0x526 SWAP1 PUSH2 0x1B36 JUMP JUMPDEST PUSH1 0x40 MLOAD DUP1 SWAP2 SUB SWAP1 REVERT JUMPDEST PUSH1 0x0 PUSH1 0x6 PUSH1 0x0 SWAP1 SLOAD SWAP1 PUSH2 0x100 EXP SWAP1 DIV PUSH20 0xFFFFFFFFFFFFFFFFFFFFFFFFFFFFFFFFFFFFFFFF AND SWAP1 POP CALLER PUSH1 0x6 PUSH1 0x0 PUSH2 0x100 EXP DUP2 SLOAD DUP2 PUSH20 0xFFFFFFFFFFFFFFFFFFFFFFFFFFFFFFFFFFFFFFFF MUL NOT AND SWAP1 DUP4 PUSH20 0xFFFFFFFFFFFFFFFFFFFFFFFFFFFFFFFFFFFFFFFF AND MUL OR SWAP1 SSTORE POP PUSH1 0x0 PUSH1 0x7 PUSH1 0x0 PUSH2 0x100 EXP DUP2 SLOAD DUP2 PUSH20 0xFFFFFFFFFFFFFFFFFFFFFFFFFFFFFFFFFFFFFFFF MUL NOT AND SWAP1 DUP4 PUSH20 0xFFFFFFFFFFFFFFFFFFFFFFFFFFFFFFFFFFFFFFFF AND MUL OR SWAP1 SSTORE POP CALLER PUSH20 0xFFFFFFFFFFFFFFFFFFFFFFFFFFFFFFFFFFFFFFFF AND DUP2 PUSH20 0xFFFFFFFFFFFFFFFFFFFFFFFFFFFFFFFFFFFFFFFF AND PUSH32 0x8BE0079C531659141344CD1FD0A4F28419497F9722A3DAAFE3B4186F6B6457E0 PUSH1 0x40 MLOAD PUSH1 0x40 MLOAD DUP1 SWAP2 SUB SWAP1 LOG3 POP JUMP JUMPDEST PUSH1 0x0 PUSH1 0x6 PUSH1 0x0 SWAP1 SLOAD SWAP1 PUSH2 0x100 EXP SWAP1 DIV PUSH20 0xFFFFFFFFFFFFFFFFFFFFFFFFFFFFFFFFFFFFFFFF AND SWAP1 POP SWAP1 JUMP JUMPDEST PUSH2 0x668 PUSH2 0x82F JUMP JUMPDEST PUSH1 0x0 PUSH2 0x672 PUSH2 0x805 JUMP JUMPDEST SWAP1 POP DUP1 PUSH20 0xFFFFFFFFFFFFFFFFFFFFFFFFFFFFFFFFFFFFFFFF AND PUSH4 0xA9059CBB CALLER DUP4 PUSH20 0xFFFFFFFFFFFFFFFFFFFFFFFFFFFFFFFFFFFFFFFF AND PUSH4 0x70A08231 ADDRESS PUSH1 0x40 MLOAD DUP3 PUSH4 0xFFFFFFFF AND PUSH1 0xE0 SHL DUP2 MSTORE PUSH1 0x4 ADD PUSH2 0x6CA SWAP2 SWAP1 PUSH2 0x19B4 JUMP JUMPDEST PUSH1 0x20 PUSH1 0x40 MLOAD DUP1 DUP4 SUB DUP2 DUP7 DUP1 EXTCODESIZE ISZERO DUP1 ISZERO PUSH2 0x6E2 JUMPI PUSH1 0x0 DUP1 REVERT JUMPDEST POP GAS STATICCALL ISZERO DUP1 ISZERO PUSH2 0x6F6 JUMPI RETURNDATASIZE PUSH1 0x0 DUP1 RETURNDATACOPY RETURNDATASIZE PUSH1 0x0 REVERT JUMPDEST POP POP POP POP PUSH1 0x40 MLOAD RETURNDATASIZE PUSH1 0x1F NOT PUSH1 0x1F DUP3 ADD AND DUP3 ADD DUP1 PUSH1 0x40 MSTORE POP DUP2 ADD SWAP1 PUSH2 0x71A SWAP2 SWAP1 PUSH2 0x17D7 JUMP JUMPDEST PUSH1 0x40 MLOAD DUP4 PUSH4 0xFFFFFFFF AND PUSH1 0xE0 SHL DUP2 MSTORE PUSH1 0x4 ADD PUSH2 0x737 SWAP3 SWAP2 SWAP1 PUSH2 0x19CF JUMP JUMPDEST PUSH1 0x20 PUSH1 0x40 MLOAD DUP1 DUP4 SUB DUP2 PUSH1 0x0 DUP8 DUP1 EXTCODESIZE ISZERO DUP1 ISZERO PUSH2 0x751 JUMPI PUSH1 0x0 DUP1 REVERT JUMPDEST POP GAS CALL ISZERO DUP1 ISZERO PUSH2 0x765 JUMPI RETURNDATASIZE PUSH1 0x0 DUP1 RETURNDATACOPY RETURNDATASIZE PUSH1 0x0 REVERT JUMPDEST POP POP POP POP PUSH1 0x40 MLOAD RETURNDATASIZE PUSH1 0x1F NOT PUSH1 0x1F DUP3 ADD AND DUP3 ADD DUP1 PUSH1 0x40 MSTORE POP DUP2 ADD SWAP1 PUSH2 0x789 SWAP2 SWAP1 PUSH2 0x1703 JUMP JUMPDEST PUSH2 0x7C8 JUMPI PUSH1 0x40 MLOAD PUSH32 0x8C379A000000000000000000000000000000000000000000000000000000000 DUP2 MSTORE PUSH1 0x4 ADD PUSH2 0x7BF SWAP1 PUSH2 0x1B96 JUMP JUMPDEST PUSH1 0x40 MLOAD DUP1 SWAP2 SUB SWAP1 REVERT JUMPDEST POP JUMP JUMPDEST PUSH1 0x8 SLOAD DUP2 JUMP JUMPDEST PUSH1 0xA SLOAD DUP2 JUMP JUMPDEST PUSH2 0x7DF PUSH2 0x82F JUMP JUMPDEST PUSH2 0x7EB DUP5 DUP5 DUP5 DUP5 PUSH2 0xA4E JUMP JUMPDEST POP POP POP POP JUMP JUMPDEST PUSH2 0x7F9 PUSH2 0x82F JUMP JUMPDEST PUSH2 0x802 DUP2 PUSH2 0xB61 JUMP JUMPDEST POP JUMP JUMPDEST PUSH1 0x0 PUSH1 0x2 PUSH1 0x0 SWAP1 SLOAD SWAP1 PUSH2 0x100 EXP SWAP1 DIV PUSH20 0xFFFFFFFFFFFFFFFFFFFFFFFFFFFFFFFFFFFFFFFF AND SWAP1 POP SWAP1 JUMP JUMPDEST PUSH1 0x6 PUSH1 0x0 SWAP1 SLOAD SWAP1 PUSH2 0x100 EXP SWAP1 DIV PUSH20 0xFFFFFFFFFFFFFFFFFFFFFFFFFFFFFFFFFFFFFFFF AND PUSH20 0xFFFFFFFFFFFFFFFFFFFFFFFFFFFFFFFFFFFFFFFF AND CALLER PUSH20 0xFFFFFFFFFFFFFFFFFFFFFFFFFFFFFFFFFFFFFFFF AND EQ PUSH2 0x8BF JUMPI PUSH1 0x40 MLOAD PUSH32 0x8C379A000000000000000000000000000000000000000000000000000000000 DUP2 MSTORE PUSH1 0x4 ADD PUSH2 0x8B6 SWAP1 PUSH2 0x1B76 JUMP JUMPDEST PUSH1 0x40 MLOAD DUP1 SWAP2 SUB SWAP1 REVERT JUMPDEST JUMP JUMPDEST PUSH1 0x0 DUP1 DUP3 SWAP1 POP PUSH1 0x0 DUP2 MLOAD EQ ISZERO PUSH2 0x8DD JUMPI PUSH1 0x0 DUP1 SHL SWAP2 POP POP PUSH2 0x8E6 JUMP JUMPDEST PUSH1 0x20 DUP4 ADD MLOAD SWAP2 POP POP JUMPDEST SWAP2 SWAP1 POP JUMP JUMPDEST PUSH2 0x8F3 PUSH2 0x1505 JUMP JUMPDEST PUSH2 0x8FB PUSH2 0x1505 JUMP JUMPDEST PUSH2 0x912 DUP6 DUP6 DUP6 DUP5 PUSH2 0xC90 SWAP1 SWAP4 SWAP3 SWAP2 SWAP1 PUSH4 0xFFFFFFFF AND JUMP JUMPDEST SWAP2 POP POP SWAP4 SWAP3 POP POP POP JUMP JUMPDEST PUSH2 0x933 DUP3 DUP5 PUSH1 0x80 ADD MLOAD PUSH2 0xD40 SWAP1 SWAP2 SWAP1 PUSH4 0xFFFFFFFF AND JUMP JUMPDEST PUSH2 0x94A DUP2 DUP5 PUSH1 0x80 ADD MLOAD PUSH2 0xD40 SWAP1 SWAP2 SWAP1 PUSH4 0xFFFFFFFF AND JUMP JUMPDEST POP POP POP JUMP JUMPDEST PUSH2 0x966 DUP3 DUP5 PUSH1 0x80 ADD MLOAD PUSH2 0xD40 SWAP1 SWAP2 SWAP1 PUSH4 0xFFFFFFFF AND JUMP JUMPDEST PUSH2 0x97D DUP2 DUP5 PUSH1 0x80 ADD MLOAD PUSH2 0xD65 SWAP1 SWAP2 SWAP1 PUSH4 0xFFFFFFFF AND JUMP JUMPDEST POP POP POP JUMP JUMPDEST PUSH1 0x0 DUP1 PUSH1 0x4 SLOAD SWAP1 POP PUSH1 0x1 DUP2 PUSH2 0x997 SWAP2 SWAP1 PUSH2 0x1C94 JUMP JUMPDEST PUSH1 0x4 DUP2 SWAP1 SSTORE POP PUSH1 0x0 PUSH4 0x40429946 PUSH1 0xE0 SHL PUSH1 0x0 DUP1 DUP8 PUSH1 0x0 ADD MLOAD ADDRESS DUP10 PUSH1 0x40 ADD MLOAD DUP8 PUSH1 0x1 DUP13 PUSH1 0x80 ADD MLOAD PUSH1 0x0 ADD MLOAD PUSH1 0x40 MLOAD PUSH1 0x24 ADD PUSH2 0x9D8 SWAP9 SWAP8 SWAP7 SWAP6 SWAP5 SWAP4 SWAP3 SWAP2 SWAP1 PUSH2 0x19F8 JUMP JUMPDEST PUSH1 0x40 MLOAD PUSH1 0x20 DUP2 DUP4 SUB SUB DUP2 MSTORE SWAP1 PUSH1 0x40 MSTORE SWAP1 PUSH28 0xFFFFFFFFFFFFFFFFFFFFFFFFFFFFFFFFFFFFFFFFFFFFFFFFFFFFFFFF NOT AND PUSH1 0x20 DUP3 ADD DUP1 MLOAD PUSH28 0xFFFFFFFFFFFFFFFFFFFFFFFFFFFFFFFFFFFFFFFFFFFFFFFFFFFFFFFF DUP4 DUP2 DUP4 AND OR DUP4 MSTORE POP POP POP POP SWAP1 POP PUSH2 0xA43 DUP7 DUP4 DUP7 DUP5 PUSH2 0xE12 JUMP JUMPDEST SWAP3 POP POP POP SWAP4 SWAP3 POP POP POP JUMP JUMPDEST PUSH1 0x0 PUSH1 0x5 PUSH1 0x0 DUP7 DUP2 MSTORE PUSH1 0x20 ADD SWAP1 DUP2 MSTORE PUSH1 0x20 ADD PUSH1 0x0 KECCAK256 PUSH1 0x0 SWAP1 SLOAD SWAP1 PUSH2 0x100 EXP SWAP1 DIV PUSH20 0xFFFFFFFFFFFFFFFFFFFFFFFFFFFFFFFFFFFFFFFF AND SWAP1 POP PUSH1 0x5 PUSH1 0x0 DUP7 DUP2 MSTORE PUSH1 0x20 ADD SWAP1 DUP2 MSTORE PUSH1 0x20 ADD PUSH1 0x0 KECCAK256 PUSH1 0x0 PUSH2 0x100 EXP DUP2 SLOAD SWAP1 PUSH20 0xFFFFFFFFFFFFFFFFFFFFFFFFFFFFFFFFFFFFFFFF MUL NOT AND SWAP1 SSTORE DUP5 PUSH32 0xE1FE3AFA0F7F761FF0A8B89086790EFD5140D2907EBD5B7FF6BFCB5E075FD4C5 PUSH1 0x40 MLOAD PUSH1 0x40 MLOAD DUP1 SWAP2 SUB SWAP1 LOG2 DUP1 PUSH20 0xFFFFFFFFFFFFFFFFFFFFFFFFFFFFFFFFFFFFFFFF AND PUSH4 0x6EE4D553 DUP7 DUP7 DUP7 DUP7 PUSH1 0x40 MLOAD DUP6 PUSH4 0xFFFFFFFF AND PUSH1 0xE0 SHL DUP2 MSTORE PUSH1 0x4 ADD PUSH2 0xB28 SWAP5 SWAP4 SWAP3 SWAP2 SWAP1 PUSH2 0x1AD6 JUMP JUMPDEST PUSH1 0x0 PUSH1 0x40 MLOAD DUP1 DUP4 SUB DUP2 PUSH1 0x0 DUP8 DUP1 EXTCODESIZE ISZERO DUP1 ISZERO PUSH2 0xB42 JUMPI PUSH1 0x0 DUP1 REVERT JUMPDEST POP GAS CALL ISZERO DUP1 ISZERO PUSH2 0xB56 JUMPI RETURNDATASIZE PUSH1 0x0 DUP1 RETURNDATACOPY RETURNDATASIZE PUSH1 0x0 REVERT JUMPDEST POP POP POP POP POP POP POP POP POP JUMP JUMPDEST CALLER PUSH20 0xFFFFFFFFFFFFFFFFFFFFFFFFFFFFFFFFFFFFFFFF AND DUP2 PUSH20 0xFFFFFFFFFFFFFFFFFFFFFFFFFFFFFFFFFFFFFFFF AND EQ ISZERO PUSH2 0xBD0 JUMPI PUSH1 0x40 MLOAD PUSH32 0x8C379A000000000000000000000000000000000000000000000000000000000 DUP2 MSTORE PUSH1 0x4 ADD PUSH2 0xBC7 SWAP1 PUSH2 0x1BB6 JUMP JUMPDEST PUSH1 0x40 MLOAD DUP1 SWAP2 SUB SWAP1 REVERT JUMPDEST DUP1 PUSH1 0x7 PUSH1 0x0 PUSH2 0x100 EXP DUP2 SLOAD DUP2 PUSH20 0xFFFFFFFFFFFFFFFFFFFFFFFFFFFFFFFFFFFFFFFF MUL NOT AND SWAP1 DUP4 PUSH20 0xFFFFFFFFFFFFFFFFFFFFFFFFFFFFFFFFFFFFFFFF AND MUL OR SWAP1 SSTORE POP DUP1 PUSH20 0xFFFFFFFFFFFFFFFFFFFFFFFFFFFFFFFFFFFFFFFF AND PUSH1 0x6 PUSH1 0x0 SWAP1 SLOAD SWAP1 PUSH2 0x100 EXP SWAP1 DIV PUSH20 0xFFFFFFFFFFFFFFFFFFFFFFFFFFFFFFFFFFFFFFFF AND PUSH20 0xFFFFFFFFFFFFFFFFFFFFFFFFFFFFFFFFFFFFFFFF AND PUSH32 0xED8889F560326EB138920D842192F0EB3DD22B4F139C87A2C57538E05BAE1278 PUSH1 0x40 MLOAD PUSH1 0x40 MLOAD DUP1 SWAP2 SUB SWAP1 LOG3 POP JUMP JUMPDEST PUSH2 0xC98 PUSH2 0x1505 JUMP JUMPDEST PUSH2 0xCA8 DUP6 PUSH1 0x80 ADD MLOAD PUSH2 0x100 PUSH2 0xFB6 JUMP JUMPDEST POP DUP4 DUP6 PUSH1 0x0 ADD DUP2 DUP2 MSTORE POP POP DUP3 DUP6 PUSH1 0x20 ADD SWAP1 PUSH20 0xFFFFFFFFFFFFFFFFFFFFFFFFFFFFFFFFFFFFFFFF AND SWAP1 DUP2 PUSH20 0xFFFFFFFFFFFFFFFFFFFFFFFFFFFFFFFFFFFFFFFF AND DUP2 MSTORE POP POP DUP2 DUP6 PUSH1 0x40 ADD SWAP1 PUSH28 0xFFFFFFFFFFFFFFFFFFFFFFFFFFFFFFFFFFFFFFFFFFFFFFFFFFFFFFFF NOT AND SWAP1 DUP2 PUSH28 0xFFFFFFFFFFFFFFFFFFFFFFFFFFFFFFFFFFFFFFFFFFFFFFFFFFFFFFFF NOT AND DUP2 MSTORE POP POP DUP5 SWAP1 POP SWAP5 SWAP4 POP POP POP POP JUMP JUMPDEST PUSH2 0xD4D DUP3 PUSH1 0x3 DUP4 MLOAD PUSH2 0x1020 JUMP JUMPDEST PUSH2 0xD60 DUP2 DUP4 PUSH2 0x11A5 SWAP1 SWAP2 SWAP1 PUSH4 0xFFFFFFFF AND JUMP JUMPDEST POP POP POP JUMP JUMPDEST PUSH32 0xFFFFFFFFFFFFFFFFFFFFFFFFFFFFFFFFFFFFFFFFFFFFFFFF0000000000000000 DUP2 SLT ISZERO PUSH2 0xD9C JUMPI PUSH2 0xD97 DUP3 DUP3 PUSH2 0x11C7 JUMP JUMPDEST PUSH2 0xE0E JUMP JUMPDEST PUSH8 0xFFFFFFFFFFFFFFFF DUP2 SGT ISZERO PUSH2 0xDBB JUMPI PUSH2 0xDB6 DUP3 DUP3 PUSH2 0x123E JUMP JUMPDEST PUSH2 0xE0D JUMP JUMPDEST PUSH1 0x0 DUP2 SLT PUSH2 0xDD4 JUMPI PUSH2 0xDCF DUP3 PUSH1 0x0 DUP4 PUSH2 0x1020 JUMP JUMPDEST PUSH2 0xE0C JUMP JUMPDEST PUSH2 0xE0B DUP3 PUSH1 0x1 DUP4 PUSH32 0xFFFFFFFFFFFFFFFFFFFFFFFFFFFFFFFFFFFFFFFFFFFFFFFFFFFFFFFFFFFFFFFF PUSH2 0xE06 SWAP2 SWAP1 PUSH2 0x1EE6 JUMP JUMPDEST PUSH2 0x1020 JUMP JUMPDEST JUMPDEST JUMPDEST JUMPDEST POP POP JUMP JUMPDEST PUSH1 0x0 ADDRESS DUP5 PUSH1 0x40 MLOAD PUSH1 0x20 ADD PUSH2 0xE27 SWAP3 SWAP2 SWAP1 PUSH2 0x1988 JUMP JUMPDEST PUSH1 0x40 MLOAD PUSH1 0x20 DUP2 DUP4 SUB SUB DUP2 MSTORE SWAP1 PUSH1 0x40 MSTORE DUP1 MLOAD SWAP1 PUSH1 0x20 ADD KECCAK256 SWAP1 POP DUP5 PUSH1 0x5 PUSH1 0x0 DUP4 DUP2 MSTORE PUSH1 0x20 ADD SWAP1 DUP2 MSTORE PUSH1 0x20 ADD PUSH1 0x0 KECCAK256 PUSH1 0x0 PUSH2 0x100 EXP DUP2 SLOAD DUP2 PUSH20 0xFFFFFFFFFFFFFFFFFFFFFFFFFFFFFFFFFFFFFFFF MUL NOT AND SWAP1 DUP4 PUSH20 0xFFFFFFFFFFFFFFFFFFFFFFFFFFFFFFFFFFFFFFFF AND MUL OR SWAP1 SSTORE POP DUP1 PUSH32 0xB5E6E01E79F91267DC17B4E6314D5D4D03593D2CEEE0FBB452B750BD70EA5AF9 PUSH1 0x40 MLOAD PUSH1 0x40 MLOAD DUP1 SWAP2 SUB SWAP1 LOG2 PUSH1 0x2 PUSH1 0x0 SWAP1 SLOAD SWAP1 PUSH2 0x100 EXP SWAP1 DIV PUSH20 0xFFFFFFFFFFFFFFFFFFFFFFFFFFFFFFFFFFFFFFFF AND PUSH20 0xFFFFFFFFFFFFFFFFFFFFFFFFFFFFFFFFFFFFFFFF AND PUSH4 0x4000AEA0 DUP7 DUP6 DUP6 PUSH1 0x40 MLOAD DUP5 PUSH4 0xFFFFFFFF AND PUSH1 0xE0 SHL DUP2 MSTORE PUSH1 0x4 ADD PUSH2 0xF1D SWAP4 SWAP3 SWAP2 SWAP1 PUSH2 0x1A7D JUMP JUMPDEST PUSH1 0x20 PUSH1 0x40 MLOAD DUP1 DUP4 SUB DUP2 PUSH1 0x0 DUP8 DUP1 EXTCODESIZE ISZERO DUP1 ISZERO PUSH2 0xF37 JUMPI PUSH1 0x0 DUP1 REVERT JUMPDEST POP GAS CALL ISZERO DUP1 ISZERO PUSH2 0xF4B JUMPI RETURNDATASIZE PUSH1 0x0 DUP1 RETURNDATACOPY RETURNDATASIZE PUSH1 0x0 REVERT JUMPDEST POP POP POP POP PUSH1 0x40 MLOAD RETURNDATASIZE PUSH1 0x1F NOT PUSH1 0x1F DUP3 ADD AND DUP3 ADD DUP1 PUSH1 0x40 MSTORE POP DUP2 ADD SWAP1 PUSH2 0xF6F SWAP2 SWAP1 PUSH2 0x1703 JUMP JUMPDEST PUSH2 0xFAE JUMPI PUSH1 0x40 MLOAD PUSH32 0x8C379A000000000000000000000000000000000000000000000000000000000 DUP2 MSTORE PUSH1 0x4 ADD PUSH2 0xFA5 SWAP1 PUSH2 0x1B56 JUMP JUMPDEST PUSH1 0x40 MLOAD DUP1 SWAP2 SUB SWAP1 REVERT JUMPDEST SWAP5 SWAP4 POP POP POP POP JUMP JUMPDEST PUSH2 0xFBE PUSH2 0x1572 JUMP JUMPDEST PUSH1 0x0 PUSH1 0x20 DUP4 PUSH2 0xFCD SWAP2 SWAP1 PUSH2 0x210D JUMP JUMPDEST EQ PUSH2 0xFF9 JUMPI PUSH1 0x20 DUP3 PUSH2 0xFDF SWAP2 SWAP1 PUSH2 0x210D JUMP JUMPDEST PUSH1 0x20 PUSH2 0xFEB SWAP2 SWAP1 PUSH2 0x1F7A JUMP JUMPDEST DUP3 PUSH2 0xFF6 SWAP2 SWAP1 PUSH2 0x1C94 JUMP JUMPDEST SWAP2 POP JUMPDEST DUP2 DUP4 PUSH1 0x20 ADD DUP2 DUP2 MSTORE POP POP PUSH1 0x40 MLOAD DUP1 DUP5 MSTORE PUSH1 0x0 DUP2 MSTORE DUP3 DUP2 ADD PUSH1 0x20 ADD PUSH1 0x40 MSTORE POP DUP3 SWAP1 POP SWAP3 SWAP2 POP POP JUMP JUMPDEST PUSH1 0x17 DUP2 PUSH8 0xFFFFFFFFFFFFFFFF AND GT PUSH2 0x1057 JUMPI PUSH2 0x1051 DUP2 PUSH1 0x5 DUP5 PUSH1 0xFF AND SWAP1 SHL PUSH1 0xFF AND OR DUP5 PUSH2 0x128A SWAP1 SWAP2 SWAP1 PUSH4 0xFFFFFFFF AND JUMP JUMPDEST POP PUSH2 0x11A0 JUMP JUMPDEST PUSH1 0xFF DUP2 PUSH8 0xFFFFFFFFFFFFFFFF AND GT PUSH2 0x10AD JUMPI PUSH2 0x1086 PUSH1 0x18 PUSH1 0x5 DUP5 PUSH1 0xFF AND SWAP1 SHL OR DUP5 PUSH2 0x128A SWAP1 SWAP2 SWAP1 PUSH4 0xFFFFFFFF AND JUMP JUMPDEST POP PUSH2 0x10A7 DUP2 PUSH8 0xFFFFFFFFFFFFFFFF AND PUSH1 0x1 DUP6 PUSH2 0x12AA SWAP1 SWAP3 SWAP2 SWAP1 PUSH4 0xFFFFFFFF AND JUMP JUMPDEST POP PUSH2 0x119F JUMP JUMPDEST PUSH2 0xFFFF DUP2 PUSH8 0xFFFFFFFFFFFFFFFF AND GT PUSH2 0x1104 JUMPI PUSH2 0x10DD PUSH1 0x19 PUSH1 0x5 DUP5 PUSH1 0xFF AND SWAP1 SHL OR DUP5 PUSH2 0x128A SWAP1 SWAP2 SWAP1 PUSH4 0xFFFFFFFF AND JUMP JUMPDEST POP PUSH2 0x10FE DUP2 PUSH8 0xFFFFFFFFFFFFFFFF AND PUSH1 0x2 DUP6 PUSH2 0x12AA SWAP1 SWAP3 SWAP2 SWAP1 PUSH4 0xFFFFFFFF AND JUMP JUMPDEST POP PUSH2 0x119E JUMP JUMPDEST PUSH4 0xFFFFFFFF DUP2 PUSH8 0xFFFFFFFFFFFFFFFF AND GT PUSH2 0x115D JUMPI PUSH2 0x1136 PUSH1 0x1A PUSH1 0x5 DUP5 PUSH1 0xFF AND SWAP1 SHL OR DUP5 PUSH2 0x128A SWAP1 SWAP2 SWAP1 PUSH4 0xFFFFFFFF AND JUMP JUMPDEST POP PUSH2 0x1157 DUP2 PUSH8 0xFFFFFFFFFFFFFFFF AND PUSH1 0x4 DUP6 PUSH2 0x12AA SWAP1 SWAP3 SWAP2 SWAP1 PUSH4 0xFFFFFFFF AND JUMP JUMPDEST POP PUSH2 0x119D JUMP JUMPDEST PUSH2 0x117A PUSH1 0x1B PUSH1 0x5 DUP5 PUSH1 0xFF AND SWAP1 SHL OR DUP5 PUSH2 0x128A SWAP1 SWAP2 SWAP1 PUSH4 0xFFFFFFFF AND JUMP JUMPDEST POP PUSH2 0x119B DUP2 PUSH8 0xFFFFFFFFFFFFFFFF AND PUSH1 0x8 DUP6 PUSH2 0x12AA SWAP1 SWAP3 SWAP2 SWAP1 PUSH4 0xFFFFFFFF AND JUMP JUMPDEST POP JUMPDEST JUMPDEST JUMPDEST JUMPDEST POP POP POP JUMP JUMPDEST PUSH2 0x11AD PUSH2 0x1572 JUMP JUMPDEST PUSH2 0x11BF DUP4 DUP5 PUSH1 0x0 ADD MLOAD MLOAD DUP5 DUP6 MLOAD PUSH2 0x12CC JUMP JUMPDEST SWAP1 POP SWAP3 SWAP2 POP POP JUMP JUMPDEST PUSH2 0x11E5 PUSH1 0x3 PUSH1 0x5 PUSH1 0x6 PUSH1 0xFF AND SWAP1 SHL OR DUP4 PUSH2 0x128A SWAP1 SWAP2 SWAP1 PUSH4 0xFFFFFFFF AND JUMP JUMPDEST POP PUSH2 0x123A DUP3 DUP3 PUSH32 0xFFFFFFFFFFFFFFFFFFFFFFFFFFFFFFFFFFFFFFFFFFFFFFFFFFFFFFFFFFFFFFFF PUSH2 0x1216 SWAP2 SWAP1 PUSH2 0x1EE6 JUMP JUMPDEST PUSH1 0x40 MLOAD PUSH1 0x20 ADD PUSH2 0x1226 SWAP2 SWAP1 PUSH2 0x1BF6 JUMP JUMPDEST PUSH1 0x40 MLOAD PUSH1 0x20 DUP2 DUP4 SUB SUB DUP2 MSTORE SWAP1 PUSH1 0x40 MSTORE PUSH2 0x13BB JUMP JUMPDEST POP POP JUMP JUMPDEST PUSH2 0x125C PUSH1 0x2 PUSH1 0x5 PUSH1 0x6 PUSH1 0xFF AND SWAP1 SHL OR DUP4 PUSH2 0x128A SWAP1 SWAP2 SWAP1 PUSH4 0xFFFFFFFF AND JUMP JUMPDEST POP PUSH2 0x1286 DUP3 DUP3 PUSH1 0x40 MLOAD PUSH1 0x20 ADD PUSH2 0x1272 SWAP2 SWAP1 PUSH2 0x1BF6 JUMP JUMPDEST PUSH1 0x40 MLOAD PUSH1 0x20 DUP2 DUP4 SUB SUB DUP2 MSTORE SWAP1 PUSH1 0x40 MSTORE PUSH2 0x13BB JUMP JUMPDEST POP POP JUMP JUMPDEST PUSH2 0x1292 PUSH2 0x1572 JUMP JUMPDEST PUSH2 0x12A2 DUP4 DUP5 PUSH1 0x0 ADD MLOAD MLOAD DUP5 PUSH2 0x13E0 JUMP JUMPDEST SWAP1 POP SWAP3 SWAP2 POP POP JUMP JUMPDEST PUSH2 0x12B2 PUSH2 0x1572 JUMP JUMPDEST PUSH2 0x12C3 DUP5 DUP6 PUSH1 0x0 ADD MLOAD MLOAD DUP6 DUP6 PUSH2 0x1437 JUMP JUMPDEST SWAP1 POP SWAP4 SWAP3 POP POP POP JUMP JUMPDEST PUSH2 0x12D4 PUSH2 0x1572 JUMP JUMPDEST DUP3 MLOAD DUP3 GT ISZERO PUSH2 0x12E2 JUMPI PUSH1 0x0 DUP1 REVERT JUMPDEST DUP5 PUSH1 0x20 ADD MLOAD DUP3 DUP6 PUSH2 0x12F3 SWAP2 SWAP1 PUSH2 0x1C94 JUMP JUMPDEST GT ISZERO PUSH2 0x1328 JUMPI PUSH2 0x1327 DUP6 PUSH1 0x2 PUSH2 0x1318 DUP9 PUSH1 0x20 ADD MLOAD DUP9 DUP8 PUSH2 0x1313 SWAP2 SWAP1 PUSH2 0x1C94 JUMP JUMPDEST PUSH2 0x14C5 JUMP JUMPDEST PUSH2 0x1322 SWAP2 SWAP1 PUSH2 0x1E8C JUMP JUMPDEST PUSH2 0x14E1 JUMP JUMPDEST JUMPDEST PUSH1 0x0 DUP1 DUP7 MLOAD DUP1 MLOAD DUP8 PUSH1 0x20 DUP4 ADD ADD SWAP4 POP DUP1 DUP9 DUP8 ADD GT ISZERO PUSH2 0x1347 JUMPI DUP8 DUP7 ADD DUP3 MSTORE JUMPDEST PUSH1 0x20 DUP8 ADD SWAP3 POP POP POP JUMPDEST PUSH1 0x20 DUP5 LT PUSH2 0x138E JUMPI DUP1 MLOAD DUP3 MSTORE PUSH1 0x20 DUP3 PUSH2 0x1369 SWAP2 SWAP1 PUSH2 0x1C94 JUMP JUMPDEST SWAP2 POP PUSH1 0x20 DUP2 PUSH2 0x1378 SWAP2 SWAP1 PUSH2 0x1C94 JUMP JUMPDEST SWAP1 POP PUSH1 0x20 DUP5 PUSH2 0x1387 SWAP2 SWAP1 PUSH2 0x1F7A JUMP JUMPDEST SWAP4 POP PUSH2 0x1350 JUMP JUMPDEST PUSH1 0x0 PUSH1 0x1 DUP6 PUSH1 0x20 SUB PUSH2 0x100 EXP SUB SWAP1 POP DUP1 NOT DUP3 MLOAD AND DUP2 DUP5 MLOAD AND DUP2 DUP2 OR DUP6 MSTORE POP POP POP DUP7 SWAP3 POP POP POP SWAP5 SWAP4 POP POP POP POP JUMP JUMPDEST PUSH2 0x13C8 DUP3 PUSH1 0x2 DUP4 MLOAD PUSH2 0x1020 JUMP JUMPDEST PUSH2 0x13DB DUP2 DUP4 PUSH2 0x11A5 SWAP1 SWAP2 SWAP1 PUSH4 0xFFFFFFFF AND JUMP JUMPDEST POP POP POP JUMP JUMPDEST PUSH2 0x13E8 PUSH2 0x1572 JUMP JUMPDEST DUP4 PUSH1 0x20 ADD MLOAD DUP4 LT PUSH2 0x140E JUMPI PUSH2 0x140D DUP5 PUSH1 0x2 DUP7 PUSH1 0x20 ADD MLOAD PUSH2 0x1408 SWAP2 SWAP1 PUSH2 0x1E8C JUMP JUMPDEST PUSH2 0x14E1 JUMP JUMPDEST JUMPDEST DUP4 MLOAD DUP1 MLOAD PUSH1 0x20 DUP6 DUP4 ADD ADD DUP5 DUP2 MSTORE8 DUP2 DUP7 EQ ISZERO PUSH2 0x142A JUMPI PUSH1 0x1 DUP3 ADD DUP4 MSTORE JUMPDEST POP POP POP DUP4 SWAP1 POP SWAP4 SWAP3 POP POP POP JUMP JUMPDEST PUSH2 0x143F PUSH2 0x1572 JUMP JUMPDEST DUP5 PUSH1 0x20 ADD MLOAD DUP5 DUP4 PUSH2 0x1450 SWAP2 SWAP1 PUSH2 0x1C94 JUMP JUMPDEST GT ISZERO PUSH2 0x1478 JUMPI PUSH2 0x1477 DUP6 PUSH1 0x2 DUP7 DUP6 PUSH2 0x1468 SWAP2 SWAP1 PUSH2 0x1C94 JUMP JUMPDEST PUSH2 0x1472 SWAP2 SWAP1 PUSH2 0x1E8C JUMP JUMPDEST PUSH2 0x14E1 JUMP JUMPDEST JUMPDEST PUSH1 0x0 PUSH1 0x1 DUP4 PUSH2 0x100 PUSH2 0x148A SWAP2 SWAP1 PUSH2 0x1D6E JUMP JUMPDEST PUSH2 0x1494 SWAP2 SWAP1 PUSH2 0x1F7A JUMP JUMPDEST SWAP1 POP DUP6 MLOAD DUP4 DUP7 DUP3 ADD ADD DUP6 DUP4 NOT DUP3 MLOAD AND OR DUP2 MSTORE DUP2 MLOAD DUP6 DUP9 ADD GT ISZERO PUSH2 0x14B7 JUMPI DUP5 DUP8 ADD DUP3 MSTORE JUMPDEST POP POP DUP6 SWAP2 POP POP SWAP5 SWAP4 POP POP POP POP JUMP JUMPDEST PUSH1 0x0 DUP2 DUP4 GT ISZERO PUSH2 0x14D7 JUMPI DUP3 SWAP1 POP PUSH2 0x14DB JUMP JUMPDEST DUP2 SWAP1 POP JUMPDEST SWAP3 SWAP2 POP POP JUMP JUMPDEST PUSH1 0x0 DUP3 PUSH1 0x0 ADD MLOAD SWAP1 POP PUSH2 0x14F4 DUP4 DUP4 PUSH2 0xFB6 JUMP JUMPDEST POP PUSH2 0x14FF DUP4 DUP3 PUSH2 0x11A5 JUMP JUMPDEST POP POP POP POP JUMP JUMPDEST PUSH1 0x40 MLOAD DUP1 PUSH1 0xA0 ADD PUSH1 0x40 MSTORE DUP1 PUSH1 0x0 DUP1 NOT AND DUP2 MSTORE PUSH1 0x20 ADD PUSH1 0x0 PUSH20 0xFFFFFFFFFFFFFFFFFFFFFFFFFFFFFFFFFFFFFFFF AND DUP2 MSTORE PUSH1 0x20 ADD PUSH1 0x0 PUSH28 0xFFFFFFFFFFFFFFFFFFFFFFFFFFFFFFFFFFFFFFFFFFFFFFFFFFFFFFFF NOT AND DUP2 MSTORE PUSH1 0x20 ADD PUSH1 0x0 DUP2 MSTORE PUSH1 0x20 ADD PUSH2 0x156C PUSH2 0x1572 JUMP JUMPDEST DUP2 MSTORE POP SWAP1 JUMP JUMPDEST PUSH1 0x40 MLOAD DUP1 PUSH1 0x40 ADD PUSH1 0x40 MSTORE DUP1 PUSH1 0x60 DUP2 MSTORE PUSH1 0x20 ADD PUSH1 0x0 DUP2 MSTORE POP SWAP1 JUMP JUMPDEST PUSH1 0x0 PUSH2 0x159F PUSH2 0x159A DUP5 PUSH2 0x1C36 JUMP JUMPDEST PUSH2 0x1C11 JUMP JUMPDEST SWAP1 POP DUP3 DUP2 MSTORE PUSH1 0x20 DUP2 ADD DUP5 DUP5 DUP5 ADD GT ISZERO PUSH2 0x15BB JUMPI PUSH2 0x15BA PUSH2 0x21D0 JUMP JUMPDEST JUMPDEST PUSH2 0x15C6 DUP5 DUP3 DUP6 PUSH2 0x206C JUMP JUMPDEST POP SWAP4 SWAP3 POP POP POP JUMP JUMPDEST PUSH1 0x0 DUP2 CALLDATALOAD SWAP1 POP PUSH2 0x15DD DUP2 PUSH2 0x234C JUMP JUMPDEST SWAP3 SWAP2 POP POP JUMP JUMPDEST PUSH1 0x0 DUP2 MLOAD SWAP1 POP PUSH2 0x15F2 DUP2 PUSH2 0x2363 JUMP JUMPDEST SWAP3 SWAP2 POP POP JUMP JUMPDEST PUSH1 0x0 DUP2 CALLDATALOAD SWAP1 POP PUSH2 0x1607 DUP2 PUSH2 0x237A JUMP JUMPDEST SWAP3 SWAP2 POP POP JUMP JUMPDEST PUSH1 0x0 DUP2 CALLDATALOAD SWAP1 POP PUSH2 0x161C DUP2 PUSH2 0x2391 JUMP JUMPDEST SWAP3 SWAP2 POP POP JUMP JUMPDEST PUSH1 0x0 DUP3 PUSH1 0x1F DUP4 ADD SLT PUSH2 0x1637 JUMPI PUSH2 0x1636 PUSH2 0x21CB JUMP JUMPDEST JUMPDEST DUP2 CALLDATALOAD PUSH2 0x1647 DUP5 DUP3 PUSH1 0x20 DUP7 ADD PUSH2 0x158C JUMP JUMPDEST SWAP2 POP POP SWAP3 SWAP2 POP POP JUMP JUMPDEST PUSH1 0x0 DUP2 CALLDATALOAD SWAP1 POP PUSH2 0x165F DUP2 PUSH2 0x23A8 JUMP JUMPDEST SWAP3 SWAP2 POP POP JUMP JUMPDEST PUSH1 0x0 DUP2 MLOAD SWAP1 POP PUSH2 0x1674 DUP2 PUSH2 0x23A8 JUMP JUMPDEST SWAP3 SWAP2 POP POP JUMP JUMPDEST PUSH1 0x0 PUSH1 0x20 DUP3 DUP5 SUB SLT ISZERO PUSH2 0x1690 JUMPI PUSH2 0x168F PUSH2 0x21DA JUMP JUMPDEST JUMPDEST PUSH1 0x0 PUSH2 0x169E DUP5 DUP3 DUP6 ADD PUSH2 0x15CE JUMP JUMPDEST SWAP2 POP POP SWAP3 SWAP2 POP POP JUMP JUMPDEST PUSH1 0x0 DUP1 PUSH1 0x40 DUP4 DUP6 SUB SLT ISZERO PUSH2 0x16BE JUMPI PUSH2 0x16BD PUSH2 0x21DA JUMP JUMPDEST JUMPDEST PUSH1 0x0 PUSH2 0x16CC DUP6 DUP3 DUP7 ADD PUSH2 0x15CE JUMP JUMPDEST SWAP3 POP POP PUSH1 0x20 DUP4 ADD CALLDATALOAD PUSH8 0xFFFFFFFFFFFFFFFF DUP2 GT ISZERO PUSH2 0x16ED JUMPI PUSH2 0x16EC PUSH2 0x21D5 JUMP JUMPDEST JUMPDEST PUSH2 0x16F9 DUP6 DUP3 DUP7 ADD PUSH2 0x1622 JUMP JUMPDEST SWAP2 POP POP SWAP3 POP SWAP3 SWAP1 POP JUMP JUMPDEST PUSH1 0x0 PUSH1 0x20 DUP3 DUP5 SUB SLT ISZERO PUSH2 0x1719 JUMPI PUSH2 0x1718 PUSH2 0x21DA JUMP JUMPDEST JUMPDEST PUSH1 0x0 PUSH2 0x1727 DUP5 DUP3 DUP6 ADD PUSH2 0x15E3 JUMP JUMPDEST SWAP2 POP POP SWAP3 SWAP2 POP POP JUMP JUMPDEST PUSH1 0x0 DUP1 PUSH1 0x40 DUP4 DUP6 SUB SLT ISZERO PUSH2 0x1747 JUMPI PUSH2 0x1746 PUSH2 0x21DA JUMP JUMPDEST JUMPDEST PUSH1 0x0 PUSH2 0x1755 DUP6 DUP3 DUP7 ADD PUSH2 0x15F8 JUMP JUMPDEST SWAP3 POP POP PUSH1 0x20 PUSH2 0x1766 DUP6 DUP3 DUP7 ADD PUSH2 0x1650 JUMP JUMPDEST SWAP2 POP POP SWAP3 POP SWAP3 SWAP1 POP JUMP JUMPDEST PUSH1 0x0 DUP1 PUSH1 0x0 DUP1 PUSH1 0x80 DUP6 DUP8 SUB SLT ISZERO PUSH2 0x178A JUMPI PUSH2 0x1789 PUSH2 0x21DA JUMP JUMPDEST JUMPDEST PUSH1 0x0 PUSH2 0x1798 DUP8 DUP3 DUP9 ADD PUSH2 0x15F8 JUMP JUMPDEST SWAP5 POP POP PUSH1 0x20 PUSH2 0x17A9 DUP8 DUP3 DUP9 ADD PUSH2 0x1650 JUMP JUMPDEST SWAP4 POP POP PUSH1 0x40 PUSH2 0x17BA DUP8 DUP3 DUP9 ADD PUSH2 0x160D JUMP JUMPDEST SWAP3 POP POP PUSH1 0x60 PUSH2 0x17CB DUP8 DUP3 DUP9 ADD PUSH2 0x1650 JUMP JUMPDEST SWAP2 POP POP SWAP3 SWAP6 SWAP2 SWAP5 POP SWAP3 POP JUMP JUMPDEST PUSH1 0x0 PUSH1 0x20 DUP3 DUP5 SUB SLT ISZERO PUSH2 0x17ED JUMPI PUSH2 0x17EC PUSH2 0x21DA JUMP JUMPDEST JUMPDEST PUSH1 0x0 PUSH2 0x17FB DUP5 DUP3 DUP6 ADD PUSH2 0x1665 JUMP JUMPDEST SWAP2 POP POP SWAP3 SWAP2 POP POP JUMP JUMPDEST PUSH2 0x180D DUP2 PUSH2 0x1FAE JUMP JUMPDEST DUP3 MSTORE POP POP JUMP JUMPDEST PUSH2 0x181C DUP2 PUSH2 0x1FCC JUMP JUMPDEST DUP3 MSTORE POP POP JUMP JUMPDEST PUSH2 0x182B DUP2 PUSH2 0x1FD6 JUMP JUMPDEST DUP3 MSTORE POP POP JUMP JUMPDEST PUSH1 0x0 PUSH2 0x183C DUP3 PUSH2 0x1C67 JUMP JUMPDEST PUSH2 0x1846 DUP2 DUP6 PUSH2 0x1C72 JUMP JUMPDEST SWAP4 POP PUSH2 0x1856 DUP2 DUP6 PUSH1 0x20 DUP7 ADD PUSH2 0x207B JUMP JUMPDEST PUSH2 0x185F DUP2 PUSH2 0x21DF JUMP JUMPDEST DUP5 ADD SWAP2 POP POP SWAP3 SWAP2 POP POP JUMP JUMPDEST PUSH2 0x187B PUSH2 0x1876 DUP3 PUSH2 0x2036 JUMP JUMPDEST PUSH2 0x20DF JUMP JUMPDEST DUP3 MSTORE POP POP JUMP JUMPDEST PUSH2 0x188A DUP2 PUSH2 0x2002 JUMP JUMPDEST DUP3 MSTORE POP POP JUMP JUMPDEST PUSH1 0x0 PUSH2 0x189D PUSH1 0x16 DUP4 PUSH2 0x1C83 JUMP JUMPDEST SWAP2 POP PUSH2 0x18A8 DUP3 PUSH2 0x220A JUMP JUMPDEST PUSH1 0x20 DUP3 ADD SWAP1 POP SWAP2 SWAP1 POP JUMP JUMPDEST PUSH1 0x0 PUSH2 0x18C0 PUSH1 0x23 DUP4 PUSH2 0x1C83 JUMP JUMPDEST SWAP2 POP PUSH2 0x18CB DUP3 PUSH2 0x2233 JUMP JUMPDEST PUSH1 0x40 DUP3 ADD SWAP1 POP SWAP2 SWAP1 POP JUMP JUMPDEST PUSH1 0x0 PUSH2 0x18E3 PUSH1 0x16 DUP4 PUSH2 0x1C83 JUMP JUMPDEST SWAP2 POP PUSH2 0x18EE DUP3 PUSH2 0x2282 JUMP JUMPDEST PUSH1 0x20 DUP3 ADD SWAP1 POP SWAP2 SWAP1 POP JUMP JUMPDEST PUSH1 0x0 PUSH2 0x1906 PUSH1 0x12 DUP4 PUSH2 0x1C83 JUMP JUMPDEST SWAP2 POP PUSH2 0x1911 DUP3 PUSH2 0x22AB JUMP JUMPDEST PUSH1 0x20 DUP3 ADD SWAP1 POP SWAP2 SWAP1 POP JUMP JUMPDEST PUSH1 0x0 PUSH2 0x1929 PUSH1 0x17 DUP4 PUSH2 0x1C83 JUMP JUMPDEST SWAP2 POP PUSH2 0x1934 DUP3 PUSH2 0x22D4 JUMP JUMPDEST PUSH1 0x20 DUP3 ADD SWAP1 POP SWAP2 SWAP1 POP JUMP JUMPDEST PUSH1 0x0 PUSH2 0x194C PUSH1 0x28 DUP4 PUSH2 0x1C83 JUMP JUMPDEST SWAP2 POP PUSH2 0x1957 DUP3 PUSH2 0x22FD JUMP JUMPDEST PUSH1 0x40 DUP3 ADD SWAP1 POP SWAP2 SWAP1 POP JUMP JUMPDEST PUSH2 0x196B DUP2 PUSH2 0x202C JUMP JUMPDEST DUP3 MSTORE POP POP JUMP JUMPDEST PUSH2 0x1982 PUSH2 0x197D DUP3 PUSH2 0x202C JUMP JUMPDEST PUSH2 0x2103 JUMP JUMPDEST DUP3 MSTORE POP POP JUMP JUMPDEST PUSH1 0x0 PUSH2 0x1994 DUP3 DUP6 PUSH2 0x186A JUMP JUMPDEST PUSH1 0x14 DUP3 ADD SWAP2 POP PUSH2 0x19A4 DUP3 DUP5 PUSH2 0x1971 JUMP JUMPDEST PUSH1 0x20 DUP3 ADD SWAP2 POP DUP2 SWAP1 POP SWAP4 SWAP3 POP POP POP JUMP JUMPDEST PUSH1 0x0 PUSH1 0x20 DUP3 ADD SWAP1 POP PUSH2 0x19C9 PUSH1 0x0 DUP4 ADD DUP5 PUSH2 0x1804 JUMP JUMPDEST SWAP3 SWAP2 POP POP JUMP JUMPDEST PUSH1 0x0 PUSH1 0x40 DUP3 ADD SWAP1 POP PUSH2 0x19E4 PUSH1 0x0 DUP4 ADD DUP6 PUSH2 0x1804 JUMP JUMPDEST PUSH2 0x19F1 PUSH1 0x20 DUP4 ADD DUP5 PUSH2 0x1962 JUMP JUMPDEST SWAP4 SWAP3 POP POP POP JUMP JUMPDEST PUSH1 0x0 PUSH2 0x100 DUP3 ADD SWAP1 POP PUSH2 0x1A0E PUSH1 0x0 DUP4 ADD DUP12 PUSH2 0x1804 JUMP JUMPDEST PUSH2 0x1A1B PUSH1 0x20 DUP4 ADD DUP11 PUSH2 0x1962 JUMP JUMPDEST PUSH2 0x1A28 PUSH1 0x40 DUP4 ADD DUP10 PUSH2 0x1813 JUMP JUMPDEST PUSH2 0x1A35 PUSH1 0x60 DUP4 ADD DUP9 PUSH2 0x1804 JUMP JUMPDEST PUSH2 0x1A42 PUSH1 0x80 DUP4 ADD DUP8 PUSH2 0x1822 JUMP JUMPDEST PUSH2 0x1A4F PUSH1 0xA0 DUP4 ADD DUP7 PUSH2 0x1962 JUMP JUMPDEST PUSH2 0x1A5C PUSH1 0xC0 DUP4 ADD DUP6 PUSH2 0x1962 JUMP JUMPDEST DUP2 DUP2 SUB PUSH1 0xE0 DUP4 ADD MSTORE PUSH2 0x1A6E DUP2 DUP5 PUSH2 0x1831 JUMP JUMPDEST SWAP1 POP SWAP10 SWAP9 POP POP POP POP POP POP POP POP POP JUMP JUMPDEST PUSH1 0x0 PUSH1 0x60 DUP3 ADD SWAP1 POP PUSH2 0x1A92 PUSH1 0x0 DUP4 ADD DUP7 PUSH2 0x1804 JUMP JUMPDEST PUSH2 0x1A9F PUSH1 0x20 DUP4 ADD DUP6 PUSH2 0x1962 JUMP JUMPDEST DUP2 DUP2 SUB PUSH1 0x40 DUP4 ADD MSTORE PUSH2 0x1AB1 DUP2 DUP5 PUSH2 0x1831 JUMP JUMPDEST SWAP1 POP SWAP5 SWAP4 POP POP POP POP JUMP JUMPDEST PUSH1 0x0 PUSH1 0x20 DUP3 ADD SWAP1 POP PUSH2 0x1AD0 PUSH1 0x0 DUP4 ADD DUP5 PUSH2 0x1813 JUMP JUMPDEST SWAP3 SWAP2 POP POP JUMP JUMPDEST PUSH1 0x0 PUSH1 0x80 DUP3 ADD SWAP1 POP PUSH2 0x1AEB PUSH1 0x0 DUP4 ADD DUP8 PUSH2 0x1813 JUMP JUMPDEST PUSH2 0x1AF8 PUSH1 0x20 DUP4 ADD DUP7 PUSH2 0x1962 JUMP JUMPDEST PUSH2 0x1B05 PUSH1 0x40 DUP4 ADD DUP6 PUSH2 0x1822 JUMP JUMPDEST PUSH2 0x1B12 PUSH1 0x60 DUP4 ADD DUP5 PUSH2 0x1962 JUMP JUMPDEST SWAP6 SWAP5 POP POP POP POP POP JUMP JUMPDEST PUSH1 0x0 PUSH1 0x20 DUP3 ADD SWAP1 POP PUSH2 0x1B30 PUSH1 0x0 DUP4 ADD DUP5 PUSH2 0x1881 JUMP JUMPDEST SWAP3 SWAP2 POP POP JUMP JUMPDEST PUSH1 0x0 PUSH1 0x20 DUP3 ADD SWAP1 POP DUP2 DUP2 SUB PUSH1 0x0 DUP4 ADD MSTORE PUSH2 0x1B4F DUP2 PUSH2 0x1890 JUMP JUMPDEST SWAP1 POP SWAP2 SWAP1 POP JUMP JUMPDEST PUSH1 0x0 PUSH1 0x20 DUP3 ADD SWAP1 POP DUP2 DUP2 SUB PUSH1 0x0 DUP4 ADD MSTORE PUSH2 0x1B6F DUP2 PUSH2 0x18B3 JUMP JUMPDEST SWAP1 POP SWAP2 SWAP1 POP JUMP JUMPDEST PUSH1 0x0 PUSH1 0x20 DUP3 ADD SWAP1 POP DUP2 DUP2 SUB PUSH1 0x0 DUP4 ADD MSTORE PUSH2 0x1B8F DUP2 PUSH2 0x18D6 JUMP JUMPDEST SWAP1 POP SWAP2 SWAP1 POP JUMP JUMPDEST PUSH1 0x0 PUSH1 0x20 DUP3 ADD SWAP1 POP DUP2 DUP2 SUB PUSH1 0x0 DUP4 ADD MSTORE PUSH2 0x1BAF DUP2 PUSH2 0x18F9 JUMP JUMPDEST SWAP1 POP SWAP2 SWAP1 POP JUMP JUMPDEST PUSH1 0x0 PUSH1 0x20 DUP3 ADD SWAP1 POP DUP2 DUP2 SUB PUSH1 0x0 DUP4 ADD MSTORE PUSH2 0x1BCF DUP2 PUSH2 0x191C JUMP JUMPDEST SWAP1 POP SWAP2 SWAP1 POP JUMP JUMPDEST PUSH1 0x0 PUSH1 0x20 DUP3 ADD SWAP1 POP DUP2 DUP2 SUB PUSH1 0x0 DUP4 ADD MSTORE PUSH2 0x1BEF DUP2 PUSH2 0x193F JUMP JUMPDEST SWAP1 POP SWAP2 SWAP1 POP JUMP JUMPDEST PUSH1 0x0 PUSH1 0x20 DUP3 ADD SWAP1 POP PUSH2 0x1C0B PUSH1 0x0 DUP4 ADD DUP5 PUSH2 0x1962 JUMP JUMPDEST SWAP3 SWAP2 POP POP JUMP JUMPDEST PUSH1 0x0 PUSH2 0x1C1B PUSH2 0x1C2C JUMP JUMPDEST SWAP1 POP PUSH2 0x1C27 DUP3 DUP3 PUSH2 0x20AE JUMP JUMPDEST SWAP2 SWAP1 POP JUMP JUMPDEST PUSH1 0x0 PUSH1 0x40 MLOAD SWAP1 POP SWAP1 JUMP JUMPDEST PUSH1 0x0 PUSH8 0xFFFFFFFFFFFFFFFF DUP3 GT ISZERO PUSH2 0x1C51 JUMPI PUSH2 0x1C50 PUSH2 0x219C JUMP JUMPDEST JUMPDEST PUSH2 0x1C5A DUP3 PUSH2 0x21DF JUMP JUMPDEST SWAP1 POP PUSH1 0x20 DUP2 ADD SWAP1 POP SWAP2 SWAP1 POP JUMP JUMPDEST PUSH1 0x0 DUP2 MLOAD SWAP1 POP SWAP2 SWAP1 POP JUMP JUMPDEST PUSH1 0x0 DUP3 DUP3 MSTORE PUSH1 0x20 DUP3 ADD SWAP1 POP SWAP3 SWAP2 POP POP JUMP JUMPDEST PUSH1 0x0 DUP3 DUP3 MSTORE PUSH1 0x20 DUP3 ADD SWAP1 POP SWAP3 SWAP2 POP POP JUMP JUMPDEST PUSH1 0x0 PUSH2 0x1C9F DUP3 PUSH2 0x202C JUMP JUMPDEST SWAP2 POP PUSH2 0x1CAA DUP4 PUSH2 0x202C JUMP JUMPDEST SWAP3 POP DUP3 PUSH32 0xFFFFFFFFFFFFFFFFFFFFFFFFFFFFFFFFFFFFFFFFFFFFFFFFFFFFFFFFFFFFFFFF SUB DUP3 GT ISZERO PUSH2 0x1CDF JUMPI PUSH2 0x1CDE PUSH2 0x213E JUMP JUMPDEST JUMPDEST DUP3 DUP3 ADD SWAP1 POP SWAP3 SWAP2 POP POP JUMP JUMPDEST PUSH1 0x0 PUSH2 0x1CF5 DUP3 PUSH2 0x202C JUMP JUMPDEST SWAP2 POP PUSH2 0x1D00 DUP4 PUSH2 0x202C JUMP JUMPDEST SWAP3 POP DUP3 PUSH2 0x1D10 JUMPI PUSH2 0x1D0F PUSH2 0x216D JUMP JUMPDEST JUMPDEST DUP3 DUP3 DIV SWAP1 POP SWAP3 SWAP2 POP POP JUMP JUMPDEST PUSH1 0x0 DUP1 DUP3 SWAP2 POP DUP4 SWAP1 POP JUMPDEST PUSH1 0x1 DUP6 GT ISZERO PUSH2 0x1D65 JUMPI DUP1 DUP7 DIV DUP2 GT ISZERO PUSH2 0x1D41 JUMPI PUSH2 0x1D40 PUSH2 0x213E JUMP JUMPDEST JUMPDEST PUSH1 0x1 DUP6 AND ISZERO PUSH2 0x1D50 JUMPI DUP1 DUP3 MUL SWAP2 POP JUMPDEST DUP1 DUP2 MUL SWAP1 POP PUSH2 0x1D5E DUP6 PUSH2 0x21FD JUMP JUMPDEST SWAP5 POP PUSH2 0x1D25 JUMP JUMPDEST SWAP5 POP SWAP5 SWAP3 POP POP POP JUMP JUMPDEST PUSH1 0x0 PUSH2 0x1D79 DUP3 PUSH2 0x202C JUMP JUMPDEST SWAP2 POP PUSH2 0x1D84 DUP4 PUSH2 0x202C JUMP JUMPDEST SWAP3 POP PUSH2 0x1DB1 PUSH32 0xFFFFFFFFFFFFFFFFFFFFFFFFFFFFFFFFFFFFFFFFFFFFFFFFFFFFFFFFFFFFFFFF DUP5 DUP5 PUSH2 0x1DB9 JUMP JUMPDEST SWAP1 POP SWAP3 SWAP2 POP POP JUMP JUMPDEST PUSH1 0x0 DUP3 PUSH2 0x1DC9 JUMPI PUSH1 0x1 SWAP1 POP PUSH2 0x1E85 JUMP JUMPDEST DUP2 PUSH2 0x1DD7 JUMPI PUSH1 0x0 SWAP1 POP PUSH2 0x1E85 JUMP JUMPDEST DUP2 PUSH1 0x1 DUP2 EQ PUSH2 0x1DED JUMPI PUSH1 0x2 DUP2 EQ PUSH2 0x1DF7 JUMPI PUSH2 0x1E26 JUMP JUMPDEST PUSH1 0x1 SWAP2 POP POP PUSH2 0x1E85 JUMP JUMPDEST PUSH1 0xFF DUP5 GT ISZERO PUSH2 0x1E09 JUMPI PUSH2 0x1E08 PUSH2 0x213E JUMP JUMPDEST JUMPDEST DUP4 PUSH1 0x2 EXP SWAP2 POP DUP5 DUP3 GT ISZERO PUSH2 0x1E20 JUMPI PUSH2 0x1E1F PUSH2 0x213E JUMP JUMPDEST JUMPDEST POP PUSH2 0x1E85 JUMP JUMPDEST POP PUSH1 0x20 DUP4 LT PUSH2 0x133 DUP4 LT AND PUSH1 0x4E DUP5 LT PUSH1 0xB DUP5 LT AND OR ISZERO PUSH2 0x1E5B JUMPI DUP3 DUP3 EXP SWAP1 POP DUP4 DUP2 GT ISZERO PUSH2 0x1E56 JUMPI PUSH2 0x1E55 PUSH2 0x213E JUMP JUMPDEST JUMPDEST PUSH2 0x1E85 JUMP JUMPDEST PUSH2 0x1E68 DUP5 DUP5 DUP5 PUSH1 0x1 PUSH2 0x1D1B JUMP JUMPDEST SWAP3 POP SWAP1 POP DUP2 DUP5 DIV DUP2 GT ISZERO PUSH2 0x1E7F JUMPI PUSH2 0x1E7E PUSH2 0x213E JUMP JUMPDEST JUMPDEST DUP2 DUP2 MUL SWAP1 POP JUMPDEST SWAP4 SWAP3 POP POP POP JUMP JUMPDEST PUSH1 0x0 PUSH2 0x1E97 DUP3 PUSH2 0x202C JUMP JUMPDEST SWAP2 POP PUSH2 0x1EA2 DUP4 PUSH2 0x202C JUMP JUMPDEST SWAP3 POP DUP2 PUSH32 0xFFFFFFFFFFFFFFFFFFFFFFFFFFFFFFFFFFFFFFFFFFFFFFFFFFFFFFFFFFFFFFFF DIV DUP4 GT DUP3 ISZERO ISZERO AND ISZERO PUSH2 0x1EDB JUMPI PUSH2 0x1EDA PUSH2 0x213E JUMP JUMPDEST JUMPDEST DUP3 DUP3 MUL SWAP1 POP SWAP3 SWAP2 POP POP JUMP JUMPDEST PUSH1 0x0 PUSH2 0x1EF1 DUP3 PUSH2 0x2002 JUMP JUMPDEST SWAP2 POP PUSH2 0x1EFC DUP4 PUSH2 0x2002 JUMP JUMPDEST SWAP3 POP DUP3 PUSH32 0x8000000000000000000000000000000000000000000000000000000000000000 ADD DUP3 SLT PUSH1 0x0 DUP5 SLT ISZERO AND ISZERO PUSH2 0x1F37 JUMPI PUSH2 0x1F36 PUSH2 0x213E JUMP JUMPDEST JUMPDEST DUP3 PUSH32 0x7FFFFFFFFFFFFFFFFFFFFFFFFFFFFFFFFFFFFFFFFFFFFFFFFFFFFFFFFFFFFFFF ADD DUP3 SGT PUSH1 0x0 DUP5 SLT AND ISZERO PUSH2 0x1F6F JUMPI PUSH2 0x1F6E PUSH2 0x213E JUMP JUMPDEST JUMPDEST DUP3 DUP3 SUB SWAP1 POP SWAP3 SWAP2 POP POP JUMP JUMPDEST PUSH1 0x0 PUSH2 0x1F85 DUP3 PUSH2 0x202C JUMP JUMPDEST SWAP2 POP PUSH2 0x1F90 DUP4 PUSH2 0x202C JUMP JUMPDEST SWAP3 POP DUP3 DUP3 LT ISZERO PUSH2 0x1FA3 JUMPI PUSH2 0x1FA2 PUSH2 0x213E JUMP JUMPDEST JUMPDEST DUP3 DUP3 SUB SWAP1 POP SWAP3 SWAP2 POP POP JUMP JUMPDEST PUSH1 0x0 PUSH2 0x1FB9 DUP3 PUSH2 0x200C JUMP JUMPDEST SWAP1 POP SWAP2 SWAP1 POP JUMP JUMPDEST PUSH1 0x0 DUP2 ISZERO ISZERO SWAP1 POP SWAP2 SWAP1 POP JUMP JUMPDEST PUSH1 0x0 DUP2 SWAP1 POP SWAP2 SWAP1 POP JUMP JUMPDEST PUSH1 0x0 PUSH32 0xFFFFFFFF00000000000000000000000000000000000000000000000000000000 DUP3 AND SWAP1 POP SWAP2 SWAP1 POP JUMP JUMPDEST PUSH1 0x0 DUP2 SWAP1 POP SWAP2 SWAP1 POP JUMP JUMPDEST PUSH1 0x0 PUSH20 0xFFFFFFFFFFFFFFFFFFFFFFFFFFFFFFFFFFFFFFFF DUP3 AND SWAP1 POP SWAP2 SWAP1 POP JUMP JUMPDEST PUSH1 0x0 DUP2 SWAP1 POP SWAP2 SWAP1 POP JUMP JUMPDEST PUSH1 0x0 PUSH2 0x2041 DUP3 PUSH2 0x2048 JUMP JUMPDEST SWAP1 POP SWAP2 SWAP1 POP JUMP JUMPDEST PUSH1 0x0 PUSH2 0x2053 DUP3 PUSH2 0x205A JUMP JUMPDEST SWAP1 POP SWAP2 SWAP1 POP JUMP JUMPDEST PUSH1 0x0 PUSH2 0x2065 DUP3 PUSH2 0x200C JUMP JUMPDEST SWAP1 POP SWAP2 SWAP1 POP JUMP JUMPDEST DUP3 DUP2 DUP4 CALLDATACOPY PUSH1 0x0 DUP4 DUP4 ADD MSTORE POP POP POP JUMP JUMPDEST PUSH1 0x0 JUMPDEST DUP4 DUP2 LT ISZERO PUSH2 0x2099 JUMPI DUP1 DUP3 ADD MLOAD DUP2 DUP5 ADD MSTORE PUSH1 0x20 DUP2 ADD SWAP1 POP PUSH2 0x207E JUMP JUMPDEST DUP4 DUP2 GT ISZERO PUSH2 0x20A8 JUMPI PUSH1 0x0 DUP5 DUP5 ADD MSTORE JUMPDEST POP POP POP POP JUMP JUMPDEST PUSH2 0x20B7 DUP3 PUSH2 0x21DF JUMP JUMPDEST DUP2 ADD DUP2 DUP2 LT PUSH8 0xFFFFFFFFFFFFFFFF DUP3 GT OR ISZERO PUSH2 0x20D6 JUMPI PUSH2 0x20D5 PUSH2 0x219C JUMP JUMPDEST JUMPDEST DUP1 PUSH1 0x40 MSTORE POP POP POP JUMP JUMPDEST PUSH1 0x0 PUSH2 0x20EA DUP3 PUSH2 0x20F1 JUMP JUMPDEST SWAP1 POP SWAP2 SWAP1 POP JUMP JUMPDEST PUSH1 0x0 PUSH2 0x20FC DUP3 PUSH2 0x21F0 JUMP JUMPDEST SWAP1 POP SWAP2 SWAP1 POP JUMP JUMPDEST PUSH1 0x0 DUP2 SWAP1 POP SWAP2 SWAP1 POP JUMP JUMPDEST PUSH1 0x0 PUSH2 0x2118 DUP3 PUSH2 0x202C JUMP JUMPDEST SWAP2 POP PUSH2 0x2123 DUP4 PUSH2 0x202C JUMP JUMPDEST SWAP3 POP DUP3 PUSH2 0x2133 JUMPI PUSH2 0x2132 PUSH2 0x216D JUMP JUMPDEST JUMPDEST DUP3 DUP3 MOD SWAP1 POP SWAP3 SWAP2 POP POP JUMP JUMPDEST PUSH32 0x4E487B7100000000000000000000000000000000000000000000000000000000 PUSH1 0x0 MSTORE PUSH1 0x11 PUSH1 0x4 MSTORE PUSH1 0x24 PUSH1 0x0 REVERT JUMPDEST PUSH32 0x4E487B7100000000000000000000000000000000000000000000000000000000 PUSH1 0x0 MSTORE PUSH1 0x12 PUSH1 0x4 MSTORE PUSH1 0x24 PUSH1 0x0 REVERT JUMPDEST PUSH32 0x4E487B7100000000000000000000000000000000000000000000000000000000 PUSH1 0x0 MSTORE PUSH1 0x41 PUSH1 0x4 MSTORE PUSH1 0x24 PUSH1 0x0 REVERT JUMPDEST PUSH1 0x0 DUP1 REVERT JUMPDEST PUSH1 0x0 DUP1 REVERT JUMPDEST PUSH1 0x0 DUP1 REVERT JUMPDEST PUSH1 0x0 DUP1 REVERT JUMPDEST PUSH1 0x0 PUSH1 0x1F NOT PUSH1 0x1F DUP4 ADD AND SWAP1 POP SWAP2 SWAP1 POP JUMP JUMPDEST PUSH1 0x0 DUP2 PUSH1 0x60 SHL SWAP1 POP SWAP2 SWAP1 POP JUMP JUMPDEST PUSH1 0x0 DUP2 PUSH1 0x1 SHR SWAP1 POP SWAP2 SWAP1 POP JUMP JUMPDEST PUSH32 0x4D7573742062652070726F706F736564206F776E657200000000000000000000 PUSH1 0x0 DUP3 ADD MSTORE POP JUMP JUMPDEST PUSH32 0x756E61626C6520746F207472616E73666572416E6443616C6C20746F206F7261 PUSH1 0x0 DUP3 ADD MSTORE PUSH32 0x636C650000000000000000000000000000000000000000000000000000000000 PUSH1 0x20 DUP3 ADD MSTORE POP JUMP JUMPDEST PUSH32 0x4F6E6C792063616C6C61626C65206279206F776E657200000000000000000000 PUSH1 0x0 DUP3 ADD MSTORE POP JUMP JUMPDEST PUSH32 0x556E61626C6520746F207472616E736665720000000000000000000000000000 PUSH1 0x0 DUP3 ADD MSTORE POP JUMP JUMPDEST PUSH32 0x43616E6E6F74207472616E7366657220746F2073656C66000000000000000000 PUSH1 0x0 DUP3 ADD MSTORE POP JUMP JUMPDEST PUSH32 0x536F75726365206D75737420626520746865206F7261636C65206F6620746865 PUSH1 0x0 DUP3 ADD MSTORE PUSH32 0x2072657175657374000000000000000000000000000000000000000000000000 PUSH1 0x20 DUP3 ADD MSTORE POP JUMP JUMPDEST PUSH2 0x2355 DUP2 PUSH2 0x1FAE JUMP JUMPDEST DUP2 EQ PUSH2 0x2360 JUMPI PUSH1 0x0 DUP1 REVERT JUMPDEST POP JUMP JUMPDEST PUSH2 0x236C DUP2 PUSH2 0x1FC0 JUMP JUMPDEST DUP2 EQ PUSH2 0x2377 JUMPI PUSH1 0x0 DUP1 REVERT JUMPDEST POP JUMP JUMPDEST PUSH2 0x2383 DUP2 PUSH2 0x1FCC JUMP JUMPDEST DUP2 EQ PUSH2 0x238E JUMPI PUSH1 0x0 DUP1 REVERT JUMPDEST POP JUMP JUMPDEST PUSH2 0x239A DUP2 PUSH2 0x1FD6 JUMP JUMPDEST DUP2 EQ PUSH2 0x23A5 JUMPI PUSH1 0x0 DUP1 REVERT JUMPDEST POP JUMP JUMPDEST PUSH2 0x23B1 DUP2 PUSH2 0x202C JUMP JUMPDEST DUP2 EQ PUSH2 0x23BC JUMPI PUSH1 0x0 DUP1 REVERT JUMPDEST POP JUMP INVALID PUSH9 0x747470733A2F2F6170 PUSH10 0x2E6D61746261726F6665 PUSH25 0x2E636F6D2E61722F76312F726573742F696E64696365732F49 0x2E MSTORE8 0x4F 0x4A COINBASE LOG2 PUSH5 0x6970667358 0x22 SLT KECCAK256 0xCD 0xDC POP SWAP5 DUP8 0x27 0xD9 PUSH17 0xD6482695472359C05F7B4868A8A2300CC PUSH32 0x7A68D95CA56264736F6C63430008070033000000000000000000000000000000 "
				},
				"gasEstimates": {
					"creation": {
						"codeDepositCost": "1851400",
						"executionCost": "infinite",
						"totalCost": "infinite"
					},
					"external": {
						"acceptOwnership()": "54629",
						"cancelRequest(bytes32,uint256,bytes4,uint256)": "infinite",
						"changeDay()": "2452",
						"currentPrice()": "2473",
						"fulfillSOJAPrice(bytes32,uint256)": "52021",
						"getChainlinkToken()": "2558",
						"lastMarket()": "2495",
						"owner()": "2522",
						"requestSOJAPrice(address,string)": "infinite",
						"transferOwnership(address)": "30773",
						"withdrawLink()": "infinite"
					},
					"internal": {
						"stringToBytes32(string memory)": "infinite"
					}
				},
				"methodIdentifiers": {
					"acceptOwnership()": "79ba5097",
					"cancelRequest(bytes32,uint256,bytes4,uint256)": "ec65d0f8",
					"changeDay()": "2183abd1",
					"currentPrice()": "9d1b464a",
					"fulfillSOJAPrice(bytes32,uint256)": "5474c99c",
					"getChainlinkToken()": "165d35e1",
					"lastMarket()": "e9edbf03",
					"owner()": "8da5cb5b",
					"requestSOJAPrice(address,string)": "4f3b0b32",
					"transferOwnership(address)": "f2fde38b",
					"withdrawLink()": "8dc654a2"
				}
			},
			"storageLayout": {
				"storage": [
					{
						"astId": 319,
						"contract": "docs.chain.link/samples/APIRequests/ASojaPriceConsumer.sol:ASojaPriceConsumer",
						"label": "s_ens",
						"offset": 0,
						"slot": "0",
						"type": "t_contract(ENSInterface)1156"
					},
					{
						"astId": 321,
						"contract": "docs.chain.link/samples/APIRequests/ASojaPriceConsumer.sol:ASojaPriceConsumer",
						"label": "s_ensNode",
						"offset": 0,
						"slot": "1",
						"type": "t_bytes32"
					},
					{
						"astId": 324,
						"contract": "docs.chain.link/samples/APIRequests/ASojaPriceConsumer.sol:ASojaPriceConsumer",
						"label": "s_link",
						"offset": 0,
						"slot": "2",
						"type": "t_contract(LinkTokenInterface)1251"
					},
					{
						"astId": 327,
						"contract": "docs.chain.link/samples/APIRequests/ASojaPriceConsumer.sol:ASojaPriceConsumer",
						"label": "s_oracle",
						"offset": 0,
						"slot": "3",
						"type": "t_contract(OperatorInterface)1331"
					},
					{
						"astId": 330,
						"contract": "docs.chain.link/samples/APIRequests/ASojaPriceConsumer.sol:ASojaPriceConsumer",
						"label": "s_requestCount",
						"offset": 0,
						"slot": "4",
						"type": "t_uint256"
					},
					{
						"astId": 334,
						"contract": "docs.chain.link/samples/APIRequests/ASojaPriceConsumer.sol:ASojaPriceConsumer",
						"label": "s_pendingRequests",
						"offset": 0,
						"slot": "5",
						"type": "t_mapping(t_bytes32,t_address)"
					},
					{
						"astId": 889,
						"contract": "docs.chain.link/samples/APIRequests/ASojaPriceConsumer.sol:ASojaPriceConsumer",
						"label": "s_owner",
						"offset": 0,
						"slot": "6",
						"type": "t_address"
					},
					{
						"astId": 891,
						"contract": "docs.chain.link/samples/APIRequests/ASojaPriceConsumer.sol:ASojaPriceConsumer",
						"label": "s_pendingOwner",
						"offset": 0,
						"slot": "7",
						"type": "t_address"
					},
					{
						"astId": 2395,
						"contract": "docs.chain.link/samples/APIRequests/ASojaPriceConsumer.sol:ASojaPriceConsumer",
						"label": "currentPrice",
						"offset": 0,
						"slot": "8",
						"type": "t_uint256"
					},
					{
						"astId": 2397,
						"contract": "docs.chain.link/samples/APIRequests/ASojaPriceConsumer.sol:ASojaPriceConsumer",
						"label": "changeDay",
						"offset": 0,
						"slot": "9",
						"type": "t_int256"
					},
					{
						"astId": 2399,
						"contract": "docs.chain.link/samples/APIRequests/ASojaPriceConsumer.sol:ASojaPriceConsumer",
						"label": "lastMarket",
						"offset": 0,
						"slot": "10",
						"type": "t_bytes32"
					}
				],
				"types": {
					"t_address": {
						"encoding": "inplace",
						"label": "address",
						"numberOfBytes": "20"
					},
					"t_bytes32": {
						"encoding": "inplace",
						"label": "bytes32",
						"numberOfBytes": "32"
					},
					"t_contract(ENSInterface)1156": {
						"encoding": "inplace",
						"label": "contract ENSInterface",
						"numberOfBytes": "20"
					},
					"t_contract(LinkTokenInterface)1251": {
						"encoding": "inplace",
						"label": "contract LinkTokenInterface",
						"numberOfBytes": "20"
					},
					"t_contract(OperatorInterface)1331": {
						"encoding": "inplace",
						"label": "contract OperatorInterface",
						"numberOfBytes": "20"
					},
					"t_int256": {
						"encoding": "inplace",
						"label": "int256",
						"numberOfBytes": "32"
					},
					"t_mapping(t_bytes32,t_address)": {
						"encoding": "mapping",
						"key": "t_bytes32",
						"label": "mapping(bytes32 => address)",
						"numberOfBytes": "32",
						"value": "t_address"
					},
					"t_uint256": {
						"encoding": "inplace",
						"label": "uint256",
						"numberOfBytes": "32"
					}
				}
			},
			"userdoc": {
				"kind": "user",
				"methods": {
					"acceptOwnership()": {
						"notice": "Allows an ownership transfer to be completed by the recipient."
					},
					"owner()": {
						"notice": "Get the current owner"
					},
					"transferOwnership(address)": {
						"notice": "Allows an owner to begin transferring ownership to a new address, pending."
					}
				},
				"version": 1
			}
		}
	}
}