{
	"docs.chain.link/samples/APIRequests/ATestnetConsumer.sol": {
		"ATestnetConsumer": {
			"abi": [
				{
					"inputs": [],
					"stateMutability": "nonpayable",
					"type": "constructor"
				},
				{
					"anonymous": false,
					"inputs": [
						{
							"indexed": true,
							"internalType": "bytes32",
							"name": "id",
							"type": "bytes32"
						}
					],
					"name": "ChainlinkCancelled",
					"type": "event"
				},
				{
					"anonymous": false,
					"inputs": [
						{
							"indexed": true,
							"internalType": "bytes32",
							"name": "id",
							"type": "bytes32"
						}
					],
					"name": "ChainlinkFulfilled",
					"type": "event"
				},
				{
					"anonymous": false,
					"inputs": [
						{
							"indexed": true,
							"internalType": "bytes32",
							"name": "id",
							"type": "bytes32"
						}
					],
					"name": "ChainlinkRequested",
					"type": "event"
				},
				{
					"anonymous": false,
					"inputs": [
						{
							"indexed": true,
							"internalType": "address",
							"name": "from",
							"type": "address"
						},
						{
							"indexed": true,
							"internalType": "address",
							"name": "to",
							"type": "address"
						}
					],
					"name": "OwnershipTransferRequested",
					"type": "event"
				},
				{
					"anonymous": false,
					"inputs": [
						{
							"indexed": true,
							"internalType": "address",
							"name": "from",
							"type": "address"
						},
						{
							"indexed": true,
							"internalType": "address",
							"name": "to",
							"type": "address"
						}
					],
					"name": "OwnershipTransferred",
					"type": "event"
				},
				{
					"anonymous": false,
					"inputs": [
						{
							"indexed": true,
							"internalType": "bytes32",
							"name": "requestId",
							"type": "bytes32"
						},
						{
							"indexed": true,
							"internalType": "uint256",
							"name": "price",
							"type": "uint256"
						}
					],
					"name": "RequestEthereumPriceFulfilled",
					"type": "event"
				},
				{
					"inputs": [],
					"name": "acceptOwnership",
					"outputs": [],
					"stateMutability": "nonpayable",
					"type": "function"
				},
				{
					"inputs": [
						{
							"internalType": "bytes32",
							"name": "_requestId",
							"type": "bytes32"
						},
						{
							"internalType": "uint256",
							"name": "_payment",
							"type": "uint256"
						},
						{
							"internalType": "bytes4",
							"name": "_callbackFunctionId",
							"type": "bytes4"
						},
						{
							"internalType": "uint256",
							"name": "_expiration",
							"type": "uint256"
						}
					],
					"name": "cancelRequest",
					"outputs": [],
					"stateMutability": "nonpayable",
					"type": "function"
				},
				{
					"inputs": [],
					"name": "currentPrice",
					"outputs": [
						{
							"internalType": "uint256",
							"name": "",
							"type": "uint256"
						}
					],
					"stateMutability": "view",
					"type": "function"
				},
				{
					"inputs": [
						{
							"internalType": "bytes32",
							"name": "_requestId",
							"type": "bytes32"
						},
						{
							"internalType": "uint256",
							"name": "_price",
							"type": "uint256"
						}
					],
					"name": "fulfillEthereumPrice",
					"outputs": [],
					"stateMutability": "nonpayable",
					"type": "function"
				},
				{
					"inputs": [],
					"name": "getChainlinkToken",
					"outputs": [
						{
							"internalType": "address",
							"name": "",
							"type": "address"
						}
					],
					"stateMutability": "view",
					"type": "function"
				},
				{
					"inputs": [],
					"name": "owner",
					"outputs": [
						{
							"internalType": "address",
							"name": "",
							"type": "address"
						}
					],
					"stateMutability": "view",
					"type": "function"
				},
				{
					"inputs": [
						{
							"internalType": "address",
							"name": "_oracle",
							"type": "address"
						},
						{
							"internalType": "string",
							"name": "_jobId",
							"type": "string"
						}
					],
					"name": "requestEthereumPrice",
					"outputs": [],
					"stateMutability": "nonpayable",
					"type": "function"
				},
				{
					"inputs": [
						{
							"internalType": "address",
							"name": "to",
							"type": "address"
						}
					],
					"name": "transferOwnership",
					"outputs": [],
					"stateMutability": "nonpayable",
					"type": "function"
				},
				{
					"inputs": [],
					"name": "withdrawLink",
					"outputs": [],
					"stateMutability": "nonpayable",
					"type": "function"
				}
			],
			"devdoc": {
				"kind": "dev",
				"methods": {
					"constructor": {
						"details": "LINK address in Goerli network: 0x326C977E6efc84E512bB9C30f76E30c160eD06FBCheck https://docs.chain.link/docs/link-token-contracts/ for LINK address for the right network"
					}
				},
				"version": 1
			},
			"evm": {
				"assembly": "    /* \"docs.chain.link/samples/APIRequests/ATestnetConsumer.sol\":283:2861  contract ATestnetConsumer is ChainlinkClient, ConfirmedOwner {... */\n  mstore(0x40, 0x80)\n    /* \"@chainlink/contracts/src/v0.8/ChainlinkClient.sol\":1291:1292  1 */\n  0x01\n    /* \"@chainlink/contracts/src/v0.8/ChainlinkClient.sol\":1258:1292  uint256 private s_requestCount = 1 */\n  0x04\n  sstore\n    /* \"docs.chain.link/samples/APIRequests/ATestnetConsumer.sol\":859:978  constructor() ConfirmedOwner(msg.sender) {... */\n  callvalue\n  dup1\n  iszero\n  tag_1\n  jumpi\n  0x00\n  dup1\n  revert\ntag_1:\n  pop\n    /* \"docs.chain.link/samples/APIRequests/ATestnetConsumer.sol\":888:898  msg.sender */\n  caller\n    /* \"@chainlink/contracts/src/v0.8/ConfirmedOwner.sol\":327:335  newOwner */\n  dup1\n    /* \"@chainlink/contracts/src/v0.8/ConfirmedOwner.sol\":345:346  0 */\n  0x00\n    /* \"@chainlink/contracts/src/v0.8/ConfirmedOwnerWithProposal.sol\":572:573  0 */\n  dup1\n    /* \"@chainlink/contracts/src/v0.8/ConfirmedOwnerWithProposal.sol\":552:574  newOwner != address(0) */\n  0xffffffffffffffffffffffffffffffffffffffff\n  and\n    /* \"@chainlink/contracts/src/v0.8/ConfirmedOwnerWithProposal.sol\":552:560  newOwner */\n  dup3\n    /* \"@chainlink/contracts/src/v0.8/ConfirmedOwnerWithProposal.sol\":552:574  newOwner != address(0) */\n  0xffffffffffffffffffffffffffffffffffffffff\n  and\n  eq\n  iszero\n    /* \"@chainlink/contracts/src/v0.8/ConfirmedOwnerWithProposal.sol\":544:603  require(newOwner != address(0), \"Cannot set owner to zero\") */\n  tag_6\n  jumpi\n  mload(0x40)\n  0x08c379a000000000000000000000000000000000000000000000000000000000\n  dup2\n  mstore\n  0x04\n  add\n  tag_7\n  swap1\n  tag_8\n  jump\t// in\ntag_7:\n  mload(0x40)\n  dup1\n  swap2\n  sub\n  swap1\n  revert\ntag_6:\n    /* \"@chainlink/contracts/src/v0.8/ConfirmedOwnerWithProposal.sol\":620:628  newOwner */\n  dup2\n    /* \"@chainlink/contracts/src/v0.8/ConfirmedOwnerWithProposal.sol\":610:617  s_owner */\n  0x06\n  0x00\n    /* \"@chainlink/contracts/src/v0.8/ConfirmedOwnerWithProposal.sol\":610:628  s_owner = newOwner */\n  0x0100\n  exp\n  dup2\n  sload\n  dup2\n  0xffffffffffffffffffffffffffffffffffffffff\n  mul\n  not\n  and\n  swap1\n  dup4\n  0xffffffffffffffffffffffffffffffffffffffff\n  and\n  mul\n  or\n  swap1\n  sstore\n  pop\n    /* \"@chainlink/contracts/src/v0.8/ConfirmedOwnerWithProposal.sol\":662:663  0 */\n  0x00\n    /* \"@chainlink/contracts/src/v0.8/ConfirmedOwnerWithProposal.sol\":638:664  pendingOwner != address(0) */\n  0xffffffffffffffffffffffffffffffffffffffff\n  and\n    /* \"@chainlink/contracts/src/v0.8/ConfirmedOwnerWithProposal.sol\":638:650  pendingOwner */\n  dup2\n    /* \"@chainlink/contracts/src/v0.8/ConfirmedOwnerWithProposal.sol\":638:664  pendingOwner != address(0) */\n  0xffffffffffffffffffffffffffffffffffffffff\n  and\n  eq\n    /* \"@chainlink/contracts/src/v0.8/ConfirmedOwnerWithProposal.sol\":634:713  if (pendingOwner != address(0)) {... */\n  tag_9\n  jumpi\n    /* \"@chainlink/contracts/src/v0.8/ConfirmedOwnerWithProposal.sol\":674:706  _transferOwnership(pendingOwner) */\n  tag_10\n    /* \"@chainlink/contracts/src/v0.8/ConfirmedOwnerWithProposal.sol\":693:705  pendingOwner */\n  dup2\n    /* \"@chainlink/contracts/src/v0.8/ConfirmedOwnerWithProposal.sol\":674:692  _transferOwnership */\n  shl(0x20, tag_11)\n    /* \"@chainlink/contracts/src/v0.8/ConfirmedOwnerWithProposal.sol\":674:706  _transferOwnership(pendingOwner) */\n  0x20\n  shr\n  jump\t// in\ntag_10:\n    /* \"@chainlink/contracts/src/v0.8/ConfirmedOwnerWithProposal.sol\":634:713  if (pendingOwner != address(0)) {... */\ntag_9:\n    /* \"@chainlink/contracts/src/v0.8/ConfirmedOwnerWithProposal.sol\":486:717  constructor(address newOwner, address pendingOwner) {... */\n  pop\n  pop\n    /* \"@chainlink/contracts/src/v0.8/ConfirmedOwner.sol\":270:351  constructor(address newOwner) ConfirmedOwnerWithProposal(newOwner, address(0)) {} */\n  pop\n    /* \"docs.chain.link/samples/APIRequests/ATestnetConsumer.sol\":910:971  setChainlinkToken(0x326C977E6efc84E512bB9C30f76E30c160eD06FB) */\n  tag_14\n    /* \"docs.chain.link/samples/APIRequests/ATestnetConsumer.sol\":928:970  0x326C977E6efc84E512bB9C30f76E30c160eD06FB */\n  0x326c977e6efc84e512bb9c30f76e30c160ed06fb\n    /* \"docs.chain.link/samples/APIRequests/ATestnetConsumer.sol\":910:927  setChainlinkToken */\n  shl(0x20, tag_15)\n    /* \"docs.chain.link/samples/APIRequests/ATestnetConsumer.sol\":910:971  setChainlinkToken(0x326C977E6efc84E512bB9C30f76E30c160eD06FB) */\n  0x20\n  shr\n  jump\t// in\ntag_14:\n    /* \"docs.chain.link/samples/APIRequests/ATestnetConsumer.sol\":283:2861  contract ATestnetConsumer is ChainlinkClient, ConfirmedOwner {... */\n  jump(tag_16)\n    /* \"@chainlink/contracts/src/v0.8/ConfirmedOwnerWithProposal.sol\":1497:1685  function _transferOwnership(address to) private {... */\ntag_11:\n    /* \"@chainlink/contracts/src/v0.8/ConfirmedOwnerWithProposal.sol\":1565:1575  msg.sender */\n  caller\n    /* \"@chainlink/contracts/src/v0.8/ConfirmedOwnerWithProposal.sol\":1559:1575  to != msg.sender */\n  0xffffffffffffffffffffffffffffffffffffffff\n  and\n    /* \"@chainlink/contracts/src/v0.8/ConfirmedOwnerWithProposal.sol\":1559:1561  to */\n  dup2\n    /* \"@chainlink/contracts/src/v0.8/ConfirmedOwnerWithProposal.sol\":1559:1575  to != msg.sender */\n  0xffffffffffffffffffffffffffffffffffffffff\n  and\n  eq\n  iszero\n    /* \"@chainlink/contracts/src/v0.8/ConfirmedOwnerWithProposal.sol\":1551:1603  require(to != msg.sender, \"Cannot transfer to self\") */\n  tag_18\n  jumpi\n  mload(0x40)\n  0x08c379a000000000000000000000000000000000000000000000000000000000\n  dup2\n  mstore\n  0x04\n  add\n  tag_19\n  swap1\n  tag_20\n  jump\t// in\ntag_19:\n  mload(0x40)\n  dup1\n  swap2\n  sub\n  swap1\n  revert\ntag_18:\n    /* \"@chainlink/contracts/src/v0.8/ConfirmedOwnerWithProposal.sol\":1627:1629  to */\n  dup1\n    /* \"@chainlink/contracts/src/v0.8/ConfirmedOwnerWithProposal.sol\":1610:1624  s_pendingOwner */\n  0x07\n  0x00\n    /* \"@chainlink/contracts/src/v0.8/ConfirmedOwnerWithProposal.sol\":1610:1629  s_pendingOwner = to */\n  0x0100\n  exp\n  dup2\n  sload\n  dup2\n  0xffffffffffffffffffffffffffffffffffffffff\n  mul\n  not\n  and\n  swap1\n  dup4\n  0xffffffffffffffffffffffffffffffffffffffff\n  and\n  mul\n  or\n  swap1\n  sstore\n  pop\n    /* \"@chainlink/contracts/src/v0.8/ConfirmedOwnerWithProposal.sol\":1677:1679  to */\n  dup1\n    /* \"@chainlink/contracts/src/v0.8/ConfirmedOwnerWithProposal.sol\":1641:1680  OwnershipTransferRequested(s_owner, to) */\n  0xffffffffffffffffffffffffffffffffffffffff\n  and\n    /* \"@chainlink/contracts/src/v0.8/ConfirmedOwnerWithProposal.sol\":1668:1675  s_owner */\n  0x06\n  0x00\n  swap1\n  sload\n  swap1\n  0x0100\n  exp\n  swap1\n  div\n  0xffffffffffffffffffffffffffffffffffffffff\n  and\n    /* \"@chainlink/contracts/src/v0.8/ConfirmedOwnerWithProposal.sol\":1641:1680  OwnershipTransferRequested(s_owner, to) */\n  0xffffffffffffffffffffffffffffffffffffffff\n  and\n  0xed8889f560326eb138920d842192f0eb3dd22b4f139c87a2c57538e05bae1278\n  mload(0x40)\n  mload(0x40)\n  dup1\n  swap2\n  sub\n  swap1\n  log3\n    /* \"@chainlink/contracts/src/v0.8/ConfirmedOwnerWithProposal.sol\":1497:1685  function _transferOwnership(address to) private {... */\n  pop\n  jump\t// out\n    /* \"@chainlink/contracts/src/v0.8/ChainlinkClient.sol\":8625:8733  function setChainlinkToken(address linkAddress) internal {... */\ntag_15:\n    /* \"@chainlink/contracts/src/v0.8/ChainlinkClient.sol\":8716:8727  linkAddress */\n  dup1\n    /* \"@chainlink/contracts/src/v0.8/ChainlinkClient.sol\":8688:8694  s_link */\n  0x02\n  0x00\n    /* \"@chainlink/contracts/src/v0.8/ChainlinkClient.sol\":8688:8728  s_link = LinkTokenInterface(linkAddress) */\n  0x0100\n  exp\n  dup2\n  sload\n  dup2\n  0xffffffffffffffffffffffffffffffffffffffff\n  mul\n  not\n  and\n  swap1\n  dup4\n  0xffffffffffffffffffffffffffffffffffffffff\n  and\n  mul\n  or\n  swap1\n  sstore\n  pop\n    /* \"@chainlink/contracts/src/v0.8/ChainlinkClient.sol\":8625:8733  function setChainlinkToken(address linkAddress) internal {... */\n  pop\n  jump\t// out\n    /* \"#utility.yul\":7:373   */\ntag_23:\n    /* \"#utility.yul\":149:152   */\n  0x00\n    /* \"#utility.yul\":170:237   */\n  tag_25\n    /* \"#utility.yul\":234:236   */\n  0x18\n    /* \"#utility.yul\":229:232   */\n  dup4\n    /* \"#utility.yul\":170:237   */\n  tag_26\n  jump\t// in\ntag_25:\n    /* \"#utility.yul\":163:237   */\n  swap2\n  pop\n    /* \"#utility.yul\":246:339   */\n  tag_27\n    /* \"#utility.yul\":335:338   */\n  dup3\n    /* \"#utility.yul\":246:339   */\n  tag_28\n  jump\t// in\ntag_27:\n    /* \"#utility.yul\":364:366   */\n  0x20\n    /* \"#utility.yul\":359:362   */\n  dup3\n    /* \"#utility.yul\":355:367   */\n  add\n    /* \"#utility.yul\":348:367   */\n  swap1\n  pop\n    /* \"#utility.yul\":7:373   */\n  swap2\n  swap1\n  pop\n  jump\t// out\n    /* \"#utility.yul\":379:745   */\ntag_29:\n    /* \"#utility.yul\":521:524   */\n  0x00\n    /* \"#utility.yul\":542:609   */\n  tag_31\n    /* \"#utility.yul\":606:608   */\n  0x17\n    /* \"#utility.yul\":601:604   */\n  dup4\n    /* \"#utility.yul\":542:609   */\n  tag_26\n  jump\t// in\ntag_31:\n    /* \"#utility.yul\":535:609   */\n  swap2\n  pop\n    /* \"#utility.yul\":618:711   */\n  tag_32\n    /* \"#utility.yul\":707:710   */\n  dup3\n    /* \"#utility.yul\":618:711   */\n  tag_33\n  jump\t// in\ntag_32:\n    /* \"#utility.yul\":736:738   */\n  0x20\n    /* \"#utility.yul\":731:734   */\n  dup3\n    /* \"#utility.yul\":727:739   */\n  add\n    /* \"#utility.yul\":720:739   */\n  swap1\n  pop\n    /* \"#utility.yul\":379:745   */\n  swap2\n  swap1\n  pop\n  jump\t// out\n    /* \"#utility.yul\":751:1170   */\ntag_8:\n    /* \"#utility.yul\":917:921   */\n  0x00\n    /* \"#utility.yul\":955:957   */\n  0x20\n    /* \"#utility.yul\":944:953   */\n  dup3\n    /* \"#utility.yul\":940:958   */\n  add\n    /* \"#utility.yul\":932:958   */\n  swap1\n  pop\n    /* \"#utility.yul\":1004:1013   */\n  dup2\n    /* \"#utility.yul\":998:1002   */\n  dup2\n    /* \"#utility.yul\":994:1014   */\n  sub\n    /* \"#utility.yul\":990:991   */\n  0x00\n    /* \"#utility.yul\":979:988   */\n  dup4\n    /* \"#utility.yul\":975:992   */\n  add\n    /* \"#utility.yul\":968:1015   */\n  mstore\n    /* \"#utility.yul\":1032:1163   */\n  tag_35\n    /* \"#utility.yul\":1158:1162   */\n  dup2\n    /* \"#utility.yul\":1032:1163   */\n  tag_23\n  jump\t// in\ntag_35:\n    /* \"#utility.yul\":1024:1163   */\n  swap1\n  pop\n    /* \"#utility.yul\":751:1170   */\n  swap2\n  swap1\n  pop\n  jump\t// out\n    /* \"#utility.yul\":1176:1595   */\ntag_20:\n    /* \"#utility.yul\":1342:1346   */\n  0x00\n    /* \"#utility.yul\":1380:1382   */\n  0x20\n    /* \"#utility.yul\":1369:1378   */\n  dup3\n    /* \"#utility.yul\":1365:1383   */\n  add\n    /* \"#utility.yul\":1357:1383   */\n  swap1\n  pop\n    /* \"#utility.yul\":1429:1438   */\n  dup2\n    /* \"#utility.yul\":1423:1427   */\n  dup2\n    /* \"#utility.yul\":1419:1439   */\n  sub\n    /* \"#utility.yul\":1415:1416   */\n  0x00\n    /* \"#utility.yul\":1404:1413   */\n  dup4\n    /* \"#utility.yul\":1400:1417   */\n  add\n    /* \"#utility.yul\":1393:1440   */\n  mstore\n    /* \"#utility.yul\":1457:1588   */\n  tag_37\n    /* \"#utility.yul\":1583:1587   */\n  dup2\n    /* \"#utility.yul\":1457:1588   */\n  tag_29\n  jump\t// in\ntag_37:\n    /* \"#utility.yul\":1449:1588   */\n  swap1\n  pop\n    /* \"#utility.yul\":1176:1595   */\n  swap2\n  swap1\n  pop\n  jump\t// out\n    /* \"#utility.yul\":1601:1770   */\ntag_26:\n    /* \"#utility.yul\":1685:1696   */\n  0x00\n    /* \"#utility.yul\":1719:1725   */\n  dup3\n    /* \"#utility.yul\":1714:1717   */\n  dup3\n    /* \"#utility.yul\":1707:1726   */\n  mstore\n    /* \"#utility.yul\":1759:1763   */\n  0x20\n    /* \"#utility.yul\":1754:1757   */\n  dup3\n    /* \"#utility.yul\":1750:1764   */\n  add\n    /* \"#utility.yul\":1735:1764   */\n  swap1\n  pop\n    /* \"#utility.yul\":1601:1770   */\n  swap3\n  swap2\n  pop\n  pop\n  jump\t// out\n    /* \"#utility.yul\":1776:1950   */\ntag_28:\n    /* \"#utility.yul\":1916:1942   */\n  0x43616e6e6f7420736574206f776e657220746f207a65726f0000000000000000\n    /* \"#utility.yul\":1912:1913   */\n  0x00\n    /* \"#utility.yul\":1904:1910   */\n  dup3\n    /* \"#utility.yul\":1900:1914   */\n  add\n    /* \"#utility.yul\":1893:1943   */\n  mstore\n    /* \"#utility.yul\":1776:1950   */\n  pop\n  jump\t// out\n    /* \"#utility.yul\":1956:2129   */\ntag_33:\n    /* \"#utility.yul\":2096:2121   */\n  0x43616e6e6f74207472616e7366657220746f2073656c66000000000000000000\n    /* \"#utility.yul\":2092:2093   */\n  0x00\n    /* \"#utility.yul\":2084:2090   */\n  dup3\n    /* \"#utility.yul\":2080:2094   */\n  add\n    /* \"#utility.yul\":2073:2122   */\n  mstore\n    /* \"#utility.yul\":1956:2129   */\n  pop\n  jump\t// out\n    /* \"docs.chain.link/samples/APIRequests/ATestnetConsumer.sol\":283:2861  contract ATestnetConsumer is ChainlinkClient, ConfirmedOwner {... */\ntag_16:\n  dataSize(sub_0)\n  dup1\n  dataOffset(sub_0)\n  0x00\n  codecopy\n  0x00\n  return\nstop\n\nsub_0: assembly {\n        /* \"docs.chain.link/samples/APIRequests/ATestnetConsumer.sol\":283:2861  contract ATestnetConsumer is ChainlinkClient, ConfirmedOwner {... */\n      mstore(0x40, 0x80)\n      callvalue\n      dup1\n      iszero\n      tag_1\n      jumpi\n      0x00\n      dup1\n      revert\n    tag_1:\n      pop\n      jumpi(tag_2, lt(calldatasize, 0x04))\n      shr(0xe0, calldataload(0x00))\n      dup1\n      0x92cdaaf3\n      gt\n      tag_12\n      jumpi\n      dup1\n      0x92cdaaf3\n      eq\n      tag_7\n      jumpi\n      dup1\n      0x9d1b464a\n      eq\n      tag_8\n      jumpi\n      dup1\n      0xab643c10\n      eq\n      tag_9\n      jumpi\n      dup1\n      0xec65d0f8\n      eq\n      tag_10\n      jumpi\n      dup1\n      0xf2fde38b\n      eq\n      tag_11\n      jumpi\n      jump(tag_2)\n    tag_12:\n      dup1\n      0x165d35e1\n      eq\n      tag_3\n      jumpi\n      dup1\n      0x79ba5097\n      eq\n      tag_4\n      jumpi\n      dup1\n      0x8da5cb5b\n      eq\n      tag_5\n      jumpi\n      dup1\n      0x8dc654a2\n      eq\n      tag_6\n      jumpi\n    tag_2:\n      0x00\n      dup1\n      revert\n        /* \"docs.chain.link/samples/APIRequests/ATestnetConsumer.sol\":1784:1890  function getChainlinkToken() public view returns (address) {... */\n    tag_3:\n      tag_13\n      tag_14\n      jump\t// in\n    tag_13:\n      mload(0x40)\n      tag_15\n      swap2\n      swap1\n      tag_16\n      jump\t// in\n    tag_15:\n      mload(0x40)\n      dup1\n      swap2\n      sub\n      swap1\n      return\n        /* \"@chainlink/contracts/src/v0.8/ConfirmedOwnerWithProposal.sol\":1016:1281  function acceptOwnership() external override {... */\n    tag_4:\n      tag_17\n      tag_18\n      jump\t// in\n    tag_17:\n      stop\n        /* \"@chainlink/contracts/src/v0.8/ConfirmedOwnerWithProposal.sol\":1332:1413  function owner() public view override returns (address) {... */\n    tag_5:\n      tag_19\n      tag_20\n      jump\t// in\n    tag_19:\n      mload(0x40)\n      tag_21\n      swap2\n      swap1\n      tag_16\n      jump\t// in\n    tag_21:\n      mload(0x40)\n      dup1\n      swap2\n      sub\n      swap1\n      return\n        /* \"docs.chain.link/samples/APIRequests/ATestnetConsumer.sol\":1896:2154  function withdrawLink() public onlyOwner {... */\n    tag_6:\n      tag_22\n      tag_23\n      jump\t// in\n    tag_22:\n      stop\n        /* \"docs.chain.link/samples/APIRequests/ATestnetConsumer.sol\":1542:1778  function fulfillEthereumPrice(... */\n    tag_7:\n      tag_24\n      0x04\n      dup1\n      calldatasize\n      sub\n      dup2\n      add\n      swap1\n      tag_25\n      swap2\n      swap1\n      tag_26\n      jump\t// in\n    tag_25:\n      tag_27\n      jump\t// in\n    tag_24:\n      stop\n        /* \"docs.chain.link/samples/APIRequests/ATestnetConsumer.sol\":486:513  uint256 public currentPrice */\n    tag_8:\n      tag_28\n      tag_29\n      jump\t// in\n    tag_28:\n      mload(0x40)\n      tag_30\n      swap2\n      swap1\n      tag_31\n      jump\t// in\n    tag_30:\n      mload(0x40)\n      dup1\n      swap2\n      sub\n      swap1\n      return\n        /* \"docs.chain.link/samples/APIRequests/ATestnetConsumer.sol\":984:1536  function requestEthereumPrice(... */\n    tag_9:\n      tag_32\n      0x04\n      dup1\n      calldatasize\n      sub\n      dup2\n      add\n      swap1\n      tag_33\n      swap2\n      swap1\n      tag_34\n      jump\t// in\n    tag_33:\n      tag_35\n      jump\t// in\n    tag_32:\n      stop\n        /* \"docs.chain.link/samples/APIRequests/ATestnetConsumer.sol\":2160:2478  function cancelRequest(... */\n    tag_10:\n      tag_36\n      0x04\n      dup1\n      calldatasize\n      sub\n      dup2\n      add\n      swap1\n      tag_37\n      swap2\n      swap1\n      tag_38\n      jump\t// in\n    tag_37:\n      tag_39\n      jump\t// in\n    tag_36:\n      stop\n        /* \"@chainlink/contracts/src/v0.8/ConfirmedOwnerWithProposal.sol\":826:924  function transferOwnership(address to) public override onlyOwner {... */\n    tag_11:\n      tag_40\n      0x04\n      dup1\n      calldatasize\n      sub\n      dup2\n      add\n      swap1\n      tag_41\n      swap2\n      swap1\n      tag_42\n      jump\t// in\n    tag_41:\n      tag_43\n      jump\t// in\n    tag_40:\n      stop\n        /* \"docs.chain.link/samples/APIRequests/ATestnetConsumer.sol\":1784:1890  function getChainlinkToken() public view returns (address) {... */\n    tag_14:\n        /* \"docs.chain.link/samples/APIRequests/ATestnetConsumer.sol\":1834:1841  address */\n      0x00\n        /* \"docs.chain.link/samples/APIRequests/ATestnetConsumer.sol\":1860:1883  chainlinkTokenAddress() */\n      tag_45\n        /* \"docs.chain.link/samples/APIRequests/ATestnetConsumer.sol\":1860:1881  chainlinkTokenAddress */\n      tag_46\n        /* \"docs.chain.link/samples/APIRequests/ATestnetConsumer.sol\":1860:1883  chainlinkTokenAddress() */\n      jump\t// in\n    tag_45:\n        /* \"docs.chain.link/samples/APIRequests/ATestnetConsumer.sol\":1853:1883  return chainlinkTokenAddress() */\n      swap1\n      pop\n        /* \"docs.chain.link/samples/APIRequests/ATestnetConsumer.sol\":1784:1890  function getChainlinkToken() public view returns (address) {... */\n      swap1\n      jump\t// out\n        /* \"@chainlink/contracts/src/v0.8/ConfirmedOwnerWithProposal.sol\":1016:1281  function acceptOwnership() external override {... */\n    tag_18:\n        /* \"@chainlink/contracts/src/v0.8/ConfirmedOwnerWithProposal.sol\":1089:1103  s_pendingOwner */\n      0x07\n      0x00\n      swap1\n      sload\n      swap1\n      0x0100\n      exp\n      swap1\n      div\n      0xffffffffffffffffffffffffffffffffffffffff\n      and\n        /* \"@chainlink/contracts/src/v0.8/ConfirmedOwnerWithProposal.sol\":1075:1103  msg.sender == s_pendingOwner */\n      0xffffffffffffffffffffffffffffffffffffffff\n      and\n        /* \"@chainlink/contracts/src/v0.8/ConfirmedOwnerWithProposal.sol\":1075:1085  msg.sender */\n      caller\n        /* \"@chainlink/contracts/src/v0.8/ConfirmedOwnerWithProposal.sol\":1075:1103  msg.sender == s_pendingOwner */\n      0xffffffffffffffffffffffffffffffffffffffff\n      and\n      eq\n        /* \"@chainlink/contracts/src/v0.8/ConfirmedOwnerWithProposal.sol\":1067:1130  require(msg.sender == s_pendingOwner, \"Must be proposed owner\") */\n      tag_48\n      jumpi\n      mload(0x40)\n      0x08c379a000000000000000000000000000000000000000000000000000000000\n      dup2\n      mstore\n      0x04\n      add\n      tag_49\n      swap1\n      tag_50\n      jump\t// in\n    tag_49:\n      mload(0x40)\n      dup1\n      swap2\n      sub\n      swap1\n      revert\n    tag_48:\n        /* \"@chainlink/contracts/src/v0.8/ConfirmedOwnerWithProposal.sol\":1137:1153  address oldOwner */\n      0x00\n        /* \"@chainlink/contracts/src/v0.8/ConfirmedOwnerWithProposal.sol\":1156:1163  s_owner */\n      0x06\n      0x00\n      swap1\n      sload\n      swap1\n      0x0100\n      exp\n      swap1\n      div\n      0xffffffffffffffffffffffffffffffffffffffff\n      and\n        /* \"@chainlink/contracts/src/v0.8/ConfirmedOwnerWithProposal.sol\":1137:1163  address oldOwner = s_owner */\n      swap1\n      pop\n        /* \"@chainlink/contracts/src/v0.8/ConfirmedOwnerWithProposal.sol\":1179:1189  msg.sender */\n      caller\n        /* \"@chainlink/contracts/src/v0.8/ConfirmedOwnerWithProposal.sol\":1169:1176  s_owner */\n      0x06\n      0x00\n        /* \"@chainlink/contracts/src/v0.8/ConfirmedOwnerWithProposal.sol\":1169:1189  s_owner = msg.sender */\n      0x0100\n      exp\n      dup2\n      sload\n      dup2\n      0xffffffffffffffffffffffffffffffffffffffff\n      mul\n      not\n      and\n      swap1\n      dup4\n      0xffffffffffffffffffffffffffffffffffffffff\n      and\n      mul\n      or\n      swap1\n      sstore\n      pop\n        /* \"@chainlink/contracts/src/v0.8/ConfirmedOwnerWithProposal.sol\":1220:1221  0 */\n      0x00\n        /* \"@chainlink/contracts/src/v0.8/ConfirmedOwnerWithProposal.sol\":1195:1209  s_pendingOwner */\n      0x07\n      0x00\n        /* \"@chainlink/contracts/src/v0.8/ConfirmedOwnerWithProposal.sol\":1195:1222  s_pendingOwner = address(0) */\n      0x0100\n      exp\n      dup2\n      sload\n      dup2\n      0xffffffffffffffffffffffffffffffffffffffff\n      mul\n      not\n      and\n      swap1\n      dup4\n      0xffffffffffffffffffffffffffffffffffffffff\n      and\n      mul\n      or\n      swap1\n      sstore\n      pop\n        /* \"@chainlink/contracts/src/v0.8/ConfirmedOwnerWithProposal.sol\":1265:1275  msg.sender */\n      caller\n        /* \"@chainlink/contracts/src/v0.8/ConfirmedOwnerWithProposal.sol\":1234:1276  OwnershipTransferred(oldOwner, msg.sender) */\n      0xffffffffffffffffffffffffffffffffffffffff\n      and\n        /* \"@chainlink/contracts/src/v0.8/ConfirmedOwnerWithProposal.sol\":1255:1263  oldOwner */\n      dup2\n        /* \"@chainlink/contracts/src/v0.8/ConfirmedOwnerWithProposal.sol\":1234:1276  OwnershipTransferred(oldOwner, msg.sender) */\n      0xffffffffffffffffffffffffffffffffffffffff\n      and\n      0x8be0079c531659141344cd1fd0a4f28419497f9722a3daafe3b4186f6b6457e0\n      mload(0x40)\n      mload(0x40)\n      dup1\n      swap2\n      sub\n      swap1\n      log3\n        /* \"@chainlink/contracts/src/v0.8/ConfirmedOwnerWithProposal.sol\":1061:1281  {... */\n      pop\n        /* \"@chainlink/contracts/src/v0.8/ConfirmedOwnerWithProposal.sol\":1016:1281  function acceptOwnership() external override {... */\n      jump\t// out\n        /* \"@chainlink/contracts/src/v0.8/ConfirmedOwnerWithProposal.sol\":1332:1413  function owner() public view override returns (address) {... */\n    tag_20:\n        /* \"@chainlink/contracts/src/v0.8/ConfirmedOwnerWithProposal.sol\":1379:1386  address */\n      0x00\n        /* \"@chainlink/contracts/src/v0.8/ConfirmedOwnerWithProposal.sol\":1401:1408  s_owner */\n      0x06\n      0x00\n      swap1\n      sload\n      swap1\n      0x0100\n      exp\n      swap1\n      div\n      0xffffffffffffffffffffffffffffffffffffffff\n      and\n        /* \"@chainlink/contracts/src/v0.8/ConfirmedOwnerWithProposal.sol\":1394:1408  return s_owner */\n      swap1\n      pop\n        /* \"@chainlink/contracts/src/v0.8/ConfirmedOwnerWithProposal.sol\":1332:1413  function owner() public view override returns (address) {... */\n      swap1\n      jump\t// out\n        /* \"docs.chain.link/samples/APIRequests/ATestnetConsumer.sol\":1896:2154  function withdrawLink() public onlyOwner {... */\n    tag_23:\n        /* \"@chainlink/contracts/src/v0.8/ConfirmedOwnerWithProposal.sol\":1956:1976  _validateOwnership() */\n      tag_53\n        /* \"@chainlink/contracts/src/v0.8/ConfirmedOwnerWithProposal.sol\":1956:1974  _validateOwnership */\n      tag_54\n        /* \"@chainlink/contracts/src/v0.8/ConfirmedOwnerWithProposal.sol\":1956:1976  _validateOwnership() */\n      jump\t// in\n    tag_53:\n        /* \"docs.chain.link/samples/APIRequests/ATestnetConsumer.sol\":1947:1970  LinkTokenInterface link */\n      0x00\n        /* \"docs.chain.link/samples/APIRequests/ATestnetConsumer.sol\":1992:2015  chainlinkTokenAddress() */\n      tag_56\n        /* \"docs.chain.link/samples/APIRequests/ATestnetConsumer.sol\":1992:2013  chainlinkTokenAddress */\n      tag_46\n        /* \"docs.chain.link/samples/APIRequests/ATestnetConsumer.sol\":1992:2015  chainlinkTokenAddress() */\n      jump\t// in\n    tag_56:\n        /* \"docs.chain.link/samples/APIRequests/ATestnetConsumer.sol\":1947:2016  LinkTokenInterface link = LinkTokenInterface(chainlinkTokenAddress()) */\n      swap1\n      pop\n        /* \"docs.chain.link/samples/APIRequests/ATestnetConsumer.sol\":2047:2051  link */\n      dup1\n        /* \"docs.chain.link/samples/APIRequests/ATestnetConsumer.sol\":2047:2060  link.transfer */\n      0xffffffffffffffffffffffffffffffffffffffff\n      and\n      0xa9059cbb\n        /* \"docs.chain.link/samples/APIRequests/ATestnetConsumer.sol\":2061:2071  msg.sender */\n      caller\n        /* \"docs.chain.link/samples/APIRequests/ATestnetConsumer.sol\":2073:2077  link */\n      dup4\n        /* \"docs.chain.link/samples/APIRequests/ATestnetConsumer.sol\":2073:2087  link.balanceOf */\n      0xffffffffffffffffffffffffffffffffffffffff\n      and\n      0x70a08231\n        /* \"docs.chain.link/samples/APIRequests/ATestnetConsumer.sol\":2096:2100  this */\n      address\n        /* \"docs.chain.link/samples/APIRequests/ATestnetConsumer.sol\":2073:2102  link.balanceOf(address(this)) */\n      mload(0x40)\n      dup3\n      0xffffffff\n      and\n      0xe0\n      shl\n      dup2\n      mstore\n      0x04\n      add\n      tag_57\n      swap2\n      swap1\n      tag_16\n      jump\t// in\n    tag_57:\n      0x20\n      mload(0x40)\n      dup1\n      dup4\n      sub\n      dup2\n      dup7\n      dup1\n      extcodesize\n      iszero\n      dup1\n      iszero\n      tag_58\n      jumpi\n      0x00\n      dup1\n      revert\n    tag_58:\n      pop\n      gas\n      staticcall\n      iszero\n      dup1\n      iszero\n      tag_60\n      jumpi\n      returndatasize\n      0x00\n      dup1\n      returndatacopy\n      revert(0x00, returndatasize)\n    tag_60:\n      pop\n      pop\n      pop\n      pop\n      mload(0x40)\n      returndatasize\n      not(0x1f)\n      0x1f\n      dup3\n      add\n      and\n      dup3\n      add\n      dup1\n      0x40\n      mstore\n      pop\n      dup2\n      add\n      swap1\n      tag_61\n      swap2\n      swap1\n      tag_62\n      jump\t// in\n    tag_61:\n        /* \"docs.chain.link/samples/APIRequests/ATestnetConsumer.sol\":2047:2103  link.transfer(msg.sender, link.balanceOf(address(this))) */\n      mload(0x40)\n      dup4\n      0xffffffff\n      and\n      0xe0\n      shl\n      dup2\n      mstore\n      0x04\n      add\n      tag_63\n      swap3\n      swap2\n      swap1\n      tag_64\n      jump\t// in\n    tag_63:\n      0x20\n      mload(0x40)\n      dup1\n      dup4\n      sub\n      dup2\n      0x00\n      dup8\n      dup1\n      extcodesize\n      iszero\n      dup1\n      iszero\n      tag_65\n      jumpi\n      0x00\n      dup1\n      revert\n    tag_65:\n      pop\n      gas\n      call\n      iszero\n      dup1\n      iszero\n      tag_67\n      jumpi\n      returndatasize\n      0x00\n      dup1\n      returndatacopy\n      revert(0x00, returndatasize)\n    tag_67:\n      pop\n      pop\n      pop\n      pop\n      mload(0x40)\n      returndatasize\n      not(0x1f)\n      0x1f\n      dup3\n      add\n      and\n      dup3\n      add\n      dup1\n      0x40\n      mstore\n      pop\n      dup2\n      add\n      swap1\n      tag_68\n      swap2\n      swap1\n      tag_69\n      jump\t// in\n    tag_68:\n        /* \"docs.chain.link/samples/APIRequests/ATestnetConsumer.sol\":2026:2147  require(... */\n      tag_70\n      jumpi\n      mload(0x40)\n      0x08c379a000000000000000000000000000000000000000000000000000000000\n      dup2\n      mstore\n      0x04\n      add\n      tag_71\n      swap1\n      tag_72\n      jump\t// in\n    tag_71:\n      mload(0x40)\n      dup1\n      swap2\n      sub\n      swap1\n      revert\n    tag_70:\n        /* \"docs.chain.link/samples/APIRequests/ATestnetConsumer.sol\":1937:2154  {... */\n      pop\n        /* \"docs.chain.link/samples/APIRequests/ATestnetConsumer.sol\":1896:2154  function withdrawLink() public onlyOwner {... */\n      jump\t// out\n        /* \"docs.chain.link/samples/APIRequests/ATestnetConsumer.sol\":1542:1778  function fulfillEthereumPrice(... */\n    tag_27:\n        /* \"docs.chain.link/samples/APIRequests/ATestnetConsumer.sol\":1664:1674  _requestId */\n      dup2\n        /* \"@chainlink/contracts/src/v0.8/ChainlinkClient.sol\":11663:11680  s_pendingRequests */\n      0x05\n        /* \"@chainlink/contracts/src/v0.8/ChainlinkClient.sol\":11663:11691  s_pendingRequests[requestId] */\n      0x00\n        /* \"@chainlink/contracts/src/v0.8/ChainlinkClient.sol\":11681:11690  requestId */\n      dup3\n        /* \"@chainlink/contracts/src/v0.8/ChainlinkClient.sol\":11663:11691  s_pendingRequests[requestId] */\n      dup2\n      mstore\n      0x20\n      add\n      swap1\n      dup2\n      mstore\n      0x20\n      add\n      0x00\n      keccak256\n      0x00\n      swap1\n      sload\n      swap1\n      0x0100\n      exp\n      swap1\n      div\n      0xffffffffffffffffffffffffffffffffffffffff\n      and\n        /* \"@chainlink/contracts/src/v0.8/ChainlinkClient.sol\":11649:11691  msg.sender == s_pendingRequests[requestId] */\n      0xffffffffffffffffffffffffffffffffffffffff\n      and\n        /* \"@chainlink/contracts/src/v0.8/ChainlinkClient.sol\":11649:11659  msg.sender */\n      caller\n        /* \"@chainlink/contracts/src/v0.8/ChainlinkClient.sol\":11649:11691  msg.sender == s_pendingRequests[requestId] */\n      0xffffffffffffffffffffffffffffffffffffffff\n      and\n      eq\n        /* \"@chainlink/contracts/src/v0.8/ChainlinkClient.sol\":11641:11736  require(msg.sender == s_pendingRequests[requestId], \"Source must be the oracle of the request\") */\n      tag_74\n      jumpi\n      mload(0x40)\n      0x08c379a000000000000000000000000000000000000000000000000000000000\n      dup2\n      mstore\n      0x04\n      add\n      tag_75\n      swap1\n      tag_76\n      jump\t// in\n    tag_75:\n      mload(0x40)\n      dup1\n      swap2\n      sub\n      swap1\n      revert\n    tag_74:\n        /* \"@chainlink/contracts/src/v0.8/ChainlinkClient.sol\":11749:11766  s_pendingRequests */\n      0x05\n        /* \"@chainlink/contracts/src/v0.8/ChainlinkClient.sol\":11749:11777  s_pendingRequests[requestId] */\n      0x00\n        /* \"@chainlink/contracts/src/v0.8/ChainlinkClient.sol\":11767:11776  requestId */\n      dup3\n        /* \"@chainlink/contracts/src/v0.8/ChainlinkClient.sol\":11749:11777  s_pendingRequests[requestId] */\n      dup2\n      mstore\n      0x20\n      add\n      swap1\n      dup2\n      mstore\n      0x20\n      add\n      0x00\n      keccak256\n      0x00\n        /* \"@chainlink/contracts/src/v0.8/ChainlinkClient.sol\":11742:11777  delete s_pendingRequests[requestId] */\n      0x0100\n      exp\n      dup2\n      sload\n      swap1\n      0xffffffffffffffffffffffffffffffffffffffff\n      mul\n      not\n      and\n      swap1\n      sstore\n        /* \"@chainlink/contracts/src/v0.8/ChainlinkClient.sol\":11807:11816  requestId */\n      dup1\n        /* \"@chainlink/contracts/src/v0.8/ChainlinkClient.sol\":11788:11817  ChainlinkFulfilled(requestId) */\n      0x7cc135e0cebb02c3480ae5d74d377283180a2601f8f644edf7987b009316c63a\n      mload(0x40)\n      mload(0x40)\n      dup1\n      swap2\n      sub\n      swap1\n      log2\n        /* \"docs.chain.link/samples/APIRequests/ATestnetConsumer.sol\":1733:1739  _price */\n      dup2\n        /* \"docs.chain.link/samples/APIRequests/ATestnetConsumer.sol\":1721:1731  _requestId */\n      dup4\n        /* \"docs.chain.link/samples/APIRequests/ATestnetConsumer.sol\":1691:1740  RequestEthereumPriceFulfilled(_requestId, _price) */\n      0x794eb9e29f6750ede99e05248d997a9ab9fa23c4a7eaff8afa729080eb7c6428\n      mload(0x40)\n      mload(0x40)\n      dup1\n      swap2\n      sub\n      swap1\n      log3\n        /* \"docs.chain.link/samples/APIRequests/ATestnetConsumer.sol\":1765:1771  _price */\n      dup2\n        /* \"docs.chain.link/samples/APIRequests/ATestnetConsumer.sol\":1750:1762  currentPrice */\n      0x08\n        /* \"docs.chain.link/samples/APIRequests/ATestnetConsumer.sol\":1750:1771  currentPrice = _price */\n      dup2\n      swap1\n      sstore\n      pop\n        /* \"docs.chain.link/samples/APIRequests/ATestnetConsumer.sol\":1542:1778  function fulfillEthereumPrice(... */\n      pop\n      pop\n      pop\n      jump\t// out\n        /* \"docs.chain.link/samples/APIRequests/ATestnetConsumer.sol\":486:513  uint256 public currentPrice */\n    tag_29:\n      sload(0x08)\n      dup2\n      jump\t// out\n        /* \"docs.chain.link/samples/APIRequests/ATestnetConsumer.sol\":984:1536  function requestEthereumPrice(... */\n    tag_35:\n        /* \"@chainlink/contracts/src/v0.8/ConfirmedOwnerWithProposal.sol\":1956:1976  _validateOwnership() */\n      tag_79\n        /* \"@chainlink/contracts/src/v0.8/ConfirmedOwnerWithProposal.sol\":1956:1974  _validateOwnership */\n      tag_54\n        /* \"@chainlink/contracts/src/v0.8/ConfirmedOwnerWithProposal.sol\":1956:1976  _validateOwnership() */\n      jump\t// in\n    tag_79:\n        /* \"docs.chain.link/samples/APIRequests/ATestnetConsumer.sol\":1102:1130  Chainlink.Request memory req */\n      0x00\n        /* \"docs.chain.link/samples/APIRequests/ATestnetConsumer.sol\":1133:1276  buildChainlinkRequest(... */\n      tag_81\n        /* \"docs.chain.link/samples/APIRequests/ATestnetConsumer.sol\":1168:1191  stringToBytes32(_jobId) */\n      tag_82\n        /* \"docs.chain.link/samples/APIRequests/ATestnetConsumer.sol\":1184:1190  _jobId */\n      dup4\n        /* \"docs.chain.link/samples/APIRequests/ATestnetConsumer.sol\":1168:1183  stringToBytes32 */\n      tag_83\n        /* \"docs.chain.link/samples/APIRequests/ATestnetConsumer.sol\":1168:1191  stringToBytes32(_jobId) */\n      jump\t// in\n    tag_82:\n        /* \"docs.chain.link/samples/APIRequests/ATestnetConsumer.sol\":1213:1217  this */\n      address\n        /* \"docs.chain.link/samples/APIRequests/ATestnetConsumer.sol\":1232:1266  this.fulfillEthereumPrice.selector */\n      shl(0xe0, 0x92cdaaf3)\n        /* \"docs.chain.link/samples/APIRequests/ATestnetConsumer.sol\":1133:1154  buildChainlinkRequest */\n      tag_84\n        /* \"docs.chain.link/samples/APIRequests/ATestnetConsumer.sol\":1133:1276  buildChainlinkRequest(... */\n      jump\t// in\n    tag_81:\n        /* \"docs.chain.link/samples/APIRequests/ATestnetConsumer.sol\":1102:1276  Chainlink.Request memory req = buildChainlinkRequest(... */\n      swap1\n      pop\n        /* \"docs.chain.link/samples/APIRequests/ATestnetConsumer.sol\":1286:1401  req.add(... */\n      tag_85\n      mload(0x40)\n      dup1\n      0x40\n      add\n      0x40\n      mstore\n      dup1\n      0x03\n      dup2\n      mstore\n      0x20\n      add\n      0x6765740000000000000000000000000000000000000000000000000000000000\n      dup2\n      mstore\n      pop\n      mload(0x40)\n      dup1\n      0x60\n      add\n      0x40\n      mstore\n      dup1\n      0x3f\n      dup2\n      mstore\n      0x20\n      add\n      data_444739292f65e0d84586af555ca805e0303948242aa5bbf9a7032603676a8ec3\n      0x3f\n      swap2\n      codecopy\n        /* \"docs.chain.link/samples/APIRequests/ATestnetConsumer.sol\":1286:1289  req */\n      dup4\n        /* \"docs.chain.link/samples/APIRequests/ATestnetConsumer.sol\":1286:1293  req.add */\n      tag_86\n      swap1\n        /* \"docs.chain.link/samples/APIRequests/ATestnetConsumer.sol\":1286:1401  req.add(... */\n      swap3\n      swap2\n      swap1\n      0xffffffff\n      and\n      jump\t// in\n    tag_85:\n        /* \"docs.chain.link/samples/APIRequests/ATestnetConsumer.sol\":1411:1433  req.add(\"path\", \"USD\") */\n      tag_87\n      mload(0x40)\n      dup1\n      0x40\n      add\n      0x40\n      mstore\n      dup1\n      0x04\n      dup2\n      mstore\n      0x20\n      add\n      0x7061746800000000000000000000000000000000000000000000000000000000\n      dup2\n      mstore\n      pop\n      mload(0x40)\n      dup1\n      0x40\n      add\n      0x40\n      mstore\n      dup1\n      0x03\n      dup2\n      mstore\n      0x20\n      add\n      0x5553440000000000000000000000000000000000000000000000000000000000\n      dup2\n      mstore\n      pop\n        /* \"docs.chain.link/samples/APIRequests/ATestnetConsumer.sol\":1411:1414  req */\n      dup4\n        /* \"docs.chain.link/samples/APIRequests/ATestnetConsumer.sol\":1411:1418  req.add */\n      tag_86\n      swap1\n        /* \"docs.chain.link/samples/APIRequests/ATestnetConsumer.sol\":1411:1433  req.add(\"path\", \"USD\") */\n      swap3\n      swap2\n      swap1\n      0xffffffff\n      and\n      jump\t// in\n    tag_87:\n        /* \"docs.chain.link/samples/APIRequests/ATestnetConsumer.sol\":1443:1467  req.addInt(\"times\", 100) */\n      tag_88\n      mload(0x40)\n      dup1\n      0x40\n      add\n      0x40\n      mstore\n      dup1\n      0x05\n      dup2\n      mstore\n      0x20\n      add\n      0x74696d6573000000000000000000000000000000000000000000000000000000\n      dup2\n      mstore\n      pop\n        /* \"docs.chain.link/samples/APIRequests/ATestnetConsumer.sol\":1463:1466  100 */\n      0x64\n        /* \"docs.chain.link/samples/APIRequests/ATestnetConsumer.sol\":1443:1446  req */\n      dup4\n        /* \"docs.chain.link/samples/APIRequests/ATestnetConsumer.sol\":1443:1453  req.addInt */\n      tag_89\n      swap1\n        /* \"docs.chain.link/samples/APIRequests/ATestnetConsumer.sol\":1443:1467  req.addInt(\"times\", 100) */\n      swap3\n      swap2\n      swap1\n      0xffffffff\n      and\n      jump\t// in\n    tag_88:\n        /* \"docs.chain.link/samples/APIRequests/ATestnetConsumer.sol\":1477:1529  sendChainlinkRequestTo(_oracle, req, ORACLE_PAYMENT) */\n      tag_90\n        /* \"docs.chain.link/samples/APIRequests/ATestnetConsumer.sol\":1500:1507  _oracle */\n      dup4\n        /* \"docs.chain.link/samples/APIRequests/ATestnetConsumer.sol\":1509:1512  req */\n      dup3\n        /* \"docs.chain.link/samples/APIRequests/ATestnetConsumer.sol\":462:464  10 */\n      0x0a\n        /* \"@chainlink/contracts/src/v0.8/ChainlinkClient.sol\":675:681  10**18 */\n      0x0de0b6b3a7640000\n        /* \"docs.chain.link/samples/APIRequests/ATestnetConsumer.sol\":437:438  1 */\n      0x01\n        /* \"docs.chain.link/samples/APIRequests/ATestnetConsumer.sol\":437:458  1 * LINK_DIVISIBILITY */\n      tag_91\n      swap2\n      swap1\n      tag_92\n      jump\t// in\n    tag_91:\n        /* \"docs.chain.link/samples/APIRequests/ATestnetConsumer.sol\":436:464  (1 * LINK_DIVISIBILITY) / 10 */\n      tag_93\n      swap2\n      swap1\n      tag_94\n      jump\t// in\n    tag_93:\n        /* \"docs.chain.link/samples/APIRequests/ATestnetConsumer.sol\":1477:1499  sendChainlinkRequestTo */\n      tag_95\n        /* \"docs.chain.link/samples/APIRequests/ATestnetConsumer.sol\":1477:1529  sendChainlinkRequestTo(_oracle, req, ORACLE_PAYMENT) */\n      jump\t// in\n    tag_90:\n      pop\n        /* \"docs.chain.link/samples/APIRequests/ATestnetConsumer.sol\":1092:1536  {... */\n      pop\n        /* \"docs.chain.link/samples/APIRequests/ATestnetConsumer.sol\":984:1536  function requestEthereumPrice(... */\n      pop\n      pop\n      jump\t// out\n        /* \"docs.chain.link/samples/APIRequests/ATestnetConsumer.sol\":2160:2478  function cancelRequest(... */\n    tag_39:\n        /* \"@chainlink/contracts/src/v0.8/ConfirmedOwnerWithProposal.sol\":1956:1976  _validateOwnership() */\n      tag_97\n        /* \"@chainlink/contracts/src/v0.8/ConfirmedOwnerWithProposal.sol\":1956:1974  _validateOwnership */\n      tag_54\n        /* \"@chainlink/contracts/src/v0.8/ConfirmedOwnerWithProposal.sol\":1956:1976  _validateOwnership() */\n      jump\t// in\n    tag_97:\n        /* \"docs.chain.link/samples/APIRequests/ATestnetConsumer.sol\":2335:2471  cancelChainlinkRequest(... */\n      tag_99\n        /* \"docs.chain.link/samples/APIRequests/ATestnetConsumer.sol\":2371:2381  _requestId */\n      dup5\n        /* \"docs.chain.link/samples/APIRequests/ATestnetConsumer.sol\":2395:2403  _payment */\n      dup5\n        /* \"docs.chain.link/samples/APIRequests/ATestnetConsumer.sol\":2417:2436  _callbackFunctionId */\n      dup5\n        /* \"docs.chain.link/samples/APIRequests/ATestnetConsumer.sol\":2450:2461  _expiration */\n      dup5\n        /* \"docs.chain.link/samples/APIRequests/ATestnetConsumer.sol\":2335:2357  cancelChainlinkRequest */\n      tag_100\n        /* \"docs.chain.link/samples/APIRequests/ATestnetConsumer.sol\":2335:2471  cancelChainlinkRequest(... */\n      jump\t// in\n    tag_99:\n        /* \"docs.chain.link/samples/APIRequests/ATestnetConsumer.sol\":2160:2478  function cancelRequest(... */\n      pop\n      pop\n      pop\n      pop\n      jump\t// out\n        /* \"@chainlink/contracts/src/v0.8/ConfirmedOwnerWithProposal.sol\":826:924  function transferOwnership(address to) public override onlyOwner {... */\n    tag_43:\n        /* \"@chainlink/contracts/src/v0.8/ConfirmedOwnerWithProposal.sol\":1956:1976  _validateOwnership() */\n      tag_102\n        /* \"@chainlink/contracts/src/v0.8/ConfirmedOwnerWithProposal.sol\":1956:1974  _validateOwnership */\n      tag_54\n        /* \"@chainlink/contracts/src/v0.8/ConfirmedOwnerWithProposal.sol\":1956:1976  _validateOwnership() */\n      jump\t// in\n    tag_102:\n        /* \"@chainlink/contracts/src/v0.8/ConfirmedOwnerWithProposal.sol\":897:919  _transferOwnership(to) */\n      tag_104\n        /* \"@chainlink/contracts/src/v0.8/ConfirmedOwnerWithProposal.sol\":916:918  to */\n      dup2\n        /* \"@chainlink/contracts/src/v0.8/ConfirmedOwnerWithProposal.sol\":897:915  _transferOwnership */\n      tag_105\n        /* \"@chainlink/contracts/src/v0.8/ConfirmedOwnerWithProposal.sol\":897:919  _transferOwnership(to) */\n      jump\t// in\n    tag_104:\n        /* \"@chainlink/contracts/src/v0.8/ConfirmedOwnerWithProposal.sol\":826:924  function transferOwnership(address to) public override onlyOwner {... */\n      pop\n      jump\t// out\n        /* \"@chainlink/contracts/src/v0.8/ChainlinkClient.sol\":9098:9196  function chainlinkTokenAddress() internal view returns (address) {... */\n    tag_46:\n        /* \"@chainlink/contracts/src/v0.8/ChainlinkClient.sol\":9154:9161  address */\n      0x00\n        /* \"@chainlink/contracts/src/v0.8/ChainlinkClient.sol\":9184:9190  s_link */\n      0x02\n      0x00\n      swap1\n      sload\n      swap1\n      0x0100\n      exp\n      swap1\n      div\n      0xffffffffffffffffffffffffffffffffffffffff\n      and\n        /* \"@chainlink/contracts/src/v0.8/ChainlinkClient.sol\":9169:9191  return address(s_link) */\n      swap1\n      pop\n        /* \"@chainlink/contracts/src/v0.8/ChainlinkClient.sol\":9098:9196  function chainlinkTokenAddress() internal view returns (address) {... */\n      swap1\n      jump\t// out\n        /* \"@chainlink/contracts/src/v0.8/ConfirmedOwnerWithProposal.sol\":1730:1841  function _validateOwnership() internal view {... */\n    tag_54:\n        /* \"@chainlink/contracts/src/v0.8/ConfirmedOwnerWithProposal.sol\":1802:1809  s_owner */\n      0x06\n      0x00\n      swap1\n      sload\n      swap1\n      0x0100\n      exp\n      swap1\n      div\n      0xffffffffffffffffffffffffffffffffffffffff\n      and\n        /* \"@chainlink/contracts/src/v0.8/ConfirmedOwnerWithProposal.sol\":1788:1809  msg.sender == s_owner */\n      0xffffffffffffffffffffffffffffffffffffffff\n      and\n        /* \"@chainlink/contracts/src/v0.8/ConfirmedOwnerWithProposal.sol\":1788:1798  msg.sender */\n      caller\n        /* \"@chainlink/contracts/src/v0.8/ConfirmedOwnerWithProposal.sol\":1788:1809  msg.sender == s_owner */\n      0xffffffffffffffffffffffffffffffffffffffff\n      and\n      eq\n        /* \"@chainlink/contracts/src/v0.8/ConfirmedOwnerWithProposal.sol\":1780:1836  require(msg.sender == s_owner, \"Only callable by owner\") */\n      tag_108\n      jumpi\n      mload(0x40)\n      0x08c379a000000000000000000000000000000000000000000000000000000000\n      dup2\n      mstore\n      0x04\n      add\n      tag_109\n      swap1\n      tag_110\n      jump\t// in\n    tag_109:\n      mload(0x40)\n      dup1\n      swap2\n      sub\n      swap1\n      revert\n    tag_108:\n        /* \"@chainlink/contracts/src/v0.8/ConfirmedOwnerWithProposal.sol\":1730:1841  function _validateOwnership() internal view {... */\n      jump\t// out\n        /* \"docs.chain.link/samples/APIRequests/ATestnetConsumer.sol\":2484:2859  function stringToBytes32(... */\n    tag_83:\n        /* \"docs.chain.link/samples/APIRequests/ATestnetConsumer.sol\":2567:2581  bytes32 result */\n      0x00\n        /* \"docs.chain.link/samples/APIRequests/ATestnetConsumer.sol\":2593:2625  bytes memory tempEmptyStringTest */\n      dup1\n        /* \"docs.chain.link/samples/APIRequests/ATestnetConsumer.sol\":2634:2640  source */\n      dup3\n        /* \"docs.chain.link/samples/APIRequests/ATestnetConsumer.sol\":2593:2641  bytes memory tempEmptyStringTest = bytes(source) */\n      swap1\n      pop\n        /* \"docs.chain.link/samples/APIRequests/ATestnetConsumer.sol\":2685:2686  0 */\n      0x00\n        /* \"docs.chain.link/samples/APIRequests/ATestnetConsumer.sol\":2655:2674  tempEmptyStringTest */\n      dup2\n        /* \"docs.chain.link/samples/APIRequests/ATestnetConsumer.sol\":2655:2681  tempEmptyStringTest.length */\n      mload\n        /* \"docs.chain.link/samples/APIRequests/ATestnetConsumer.sol\":2655:2686  tempEmptyStringTest.length == 0 */\n      eq\n        /* \"docs.chain.link/samples/APIRequests/ATestnetConsumer.sol\":2651:2723  if (tempEmptyStringTest.length == 0) {... */\n      iszero\n      tag_112\n      jumpi\n        /* \"docs.chain.link/samples/APIRequests/ATestnetConsumer.sol\":2709:2712  0x0 */\n      0x00\n        /* \"docs.chain.link/samples/APIRequests/ATestnetConsumer.sol\":2702:2712  return 0x0 */\n      dup1\n      shl\n      swap2\n      pop\n      pop\n      jump(tag_111)\n        /* \"docs.chain.link/samples/APIRequests/ATestnetConsumer.sol\":2651:2723  if (tempEmptyStringTest.length == 0) {... */\n    tag_112:\n        /* \"docs.chain.link/samples/APIRequests/ATestnetConsumer.sol\":2839:2841  32 */\n      0x20\n        /* \"docs.chain.link/samples/APIRequests/ATestnetConsumer.sol\":2831:2837  source */\n      dup4\n        /* \"docs.chain.link/samples/APIRequests/ATestnetConsumer.sol\":2827:2842  add(source, 32) */\n      add\n        /* \"docs.chain.link/samples/APIRequests/ATestnetConsumer.sol\":2821:2843  mload(add(source, 32)) */\n      mload\n        /* \"docs.chain.link/samples/APIRequests/ATestnetConsumer.sol\":2811:2843  result := mload(add(source, 32)) */\n      swap2\n      pop\n        /* \"docs.chain.link/samples/APIRequests/ATestnetConsumer.sol\":2742:2853  {... */\n      pop\n        /* \"docs.chain.link/samples/APIRequests/ATestnetConsumer.sol\":2484:2859  function stringToBytes32(... */\n    tag_111:\n      swap2\n      swap1\n      pop\n      jump\t// out\n        /* \"@chainlink/contracts/src/v0.8/ChainlinkClient.sol\":1850:2133  function buildChainlinkRequest(... */\n    tag_84:\n        /* \"@chainlink/contracts/src/v0.8/ChainlinkClient.sol\":1992:2016  Chainlink.Request memory */\n      tag_113\n      tag_114\n      jump\t// in\n    tag_113:\n        /* \"@chainlink/contracts/src/v0.8/ChainlinkClient.sol\":2024:2052  Chainlink.Request memory req */\n      tag_116\n      tag_114\n      jump\t// in\n    tag_116:\n        /* \"@chainlink/contracts/src/v0.8/ChainlinkClient.sol\":2065:2128  req.initialize(specId, callbackAddr, callbackFunctionSignature) */\n      tag_117\n        /* \"@chainlink/contracts/src/v0.8/ChainlinkClient.sol\":2080:2086  specId */\n      dup6\n        /* \"@chainlink/contracts/src/v0.8/ChainlinkClient.sol\":2088:2100  callbackAddr */\n      dup6\n        /* \"@chainlink/contracts/src/v0.8/ChainlinkClient.sol\":2102:2127  callbackFunctionSignature */\n      dup6\n        /* \"@chainlink/contracts/src/v0.8/ChainlinkClient.sol\":2065:2068  req */\n      dup5\n        /* \"@chainlink/contracts/src/v0.8/ChainlinkClient.sol\":2065:2079  req.initialize */\n      tag_118\n      swap1\n        /* \"@chainlink/contracts/src/v0.8/ChainlinkClient.sol\":2065:2128  req.initialize(specId, callbackAddr, callbackFunctionSignature) */\n      swap4\n      swap3\n      swap2\n      swap1\n      0xffffffff\n      and\n      jump\t// in\n    tag_117:\n        /* \"@chainlink/contracts/src/v0.8/ChainlinkClient.sol\":2058:2128  return req.initialize(specId, callbackAddr, callbackFunctionSignature) */\n      swap2\n      pop\n      pop\n        /* \"@chainlink/contracts/src/v0.8/ChainlinkClient.sol\":1850:2133  function buildChainlinkRequest(... */\n      swap4\n      swap3\n      pop\n      pop\n      pop\n      jump\t// out\n        /* \"@chainlink/contracts/src/v0.8/Chainlink.sol\":1951:2126  function add(... */\n    tag_86:\n        /* \"@chainlink/contracts/src/v0.8/Chainlink.sol\":2061:2087  self.buf.encodeString(key) */\n      tag_120\n        /* \"@chainlink/contracts/src/v0.8/Chainlink.sol\":2083:2086  key */\n      dup3\n        /* \"@chainlink/contracts/src/v0.8/Chainlink.sol\":2061:2065  self */\n      dup5\n        /* \"@chainlink/contracts/src/v0.8/Chainlink.sol\":2061:2069  self.buf */\n      0x80\n      add\n      mload\n        /* \"@chainlink/contracts/src/v0.8/Chainlink.sol\":2061:2082  self.buf.encodeString */\n      tag_121\n      swap1\n        /* \"@chainlink/contracts/src/v0.8/Chainlink.sol\":2061:2087  self.buf.encodeString(key) */\n      swap2\n      swap1\n      0xffffffff\n      and\n      jump\t// in\n    tag_120:\n        /* \"@chainlink/contracts/src/v0.8/Chainlink.sol\":2093:2121  self.buf.encodeString(value) */\n      tag_122\n        /* \"@chainlink/contracts/src/v0.8/Chainlink.sol\":2115:2120  value */\n      dup2\n        /* \"@chainlink/contracts/src/v0.8/Chainlink.sol\":2093:2097  self */\n      dup5\n        /* \"@chainlink/contracts/src/v0.8/Chainlink.sol\":2093:2101  self.buf */\n      0x80\n      add\n      mload\n        /* \"@chainlink/contracts/src/v0.8/Chainlink.sol\":2093:2114  self.buf.encodeString */\n      tag_121\n      swap1\n        /* \"@chainlink/contracts/src/v0.8/Chainlink.sol\":2093:2121  self.buf.encodeString(value) */\n      swap2\n      swap1\n      0xffffffff\n      and\n      jump\t// in\n    tag_122:\n        /* \"@chainlink/contracts/src/v0.8/Chainlink.sol\":1951:2126  function add(... */\n      pop\n      pop\n      pop\n      jump\t// out\n        /* \"@chainlink/contracts/src/v0.8/Chainlink.sol\":2712:2880  function addInt(... */\n    tag_89:\n        /* \"@chainlink/contracts/src/v0.8/Chainlink.sol\":2818:2844  self.buf.encodeString(key) */\n      tag_124\n        /* \"@chainlink/contracts/src/v0.8/Chainlink.sol\":2840:2843  key */\n      dup3\n        /* \"@chainlink/contracts/src/v0.8/Chainlink.sol\":2818:2822  self */\n      dup5\n        /* \"@chainlink/contracts/src/v0.8/Chainlink.sol\":2818:2826  self.buf */\n      0x80\n      add\n      mload\n        /* \"@chainlink/contracts/src/v0.8/Chainlink.sol\":2818:2839  self.buf.encodeString */\n      tag_121\n      swap1\n        /* \"@chainlink/contracts/src/v0.8/Chainlink.sol\":2818:2844  self.buf.encodeString(key) */\n      swap2\n      swap1\n      0xffffffff\n      and\n      jump\t// in\n    tag_124:\n        /* \"@chainlink/contracts/src/v0.8/Chainlink.sol\":2850:2875  self.buf.encodeInt(value) */\n      tag_125\n        /* \"@chainlink/contracts/src/v0.8/Chainlink.sol\":2869:2874  value */\n      dup2\n        /* \"@chainlink/contracts/src/v0.8/Chainlink.sol\":2850:2854  self */\n      dup5\n        /* \"@chainlink/contracts/src/v0.8/Chainlink.sol\":2850:2858  self.buf */\n      0x80\n      add\n      mload\n        /* \"@chainlink/contracts/src/v0.8/Chainlink.sol\":2850:2868  self.buf.encodeInt */\n      tag_126\n      swap1\n        /* \"@chainlink/contracts/src/v0.8/Chainlink.sol\":2850:2875  self.buf.encodeInt(value) */\n      swap2\n      swap1\n      0xffffffff\n      and\n      jump\t// in\n    tag_125:\n        /* \"@chainlink/contracts/src/v0.8/Chainlink.sol\":2712:2880  function addInt(... */\n      pop\n      pop\n      pop\n      jump\t// out\n        /* \"@chainlink/contracts/src/v0.8/ChainlinkClient.sol\":3687:4443  function sendChainlinkRequestTo(... */\n    tag_95:\n        /* \"@chainlink/contracts/src/v0.8/ChainlinkClient.sol\":3823:3840  bytes32 requestId */\n      0x00\n        /* \"@chainlink/contracts/src/v0.8/ChainlinkClient.sol\":3848:3861  uint256 nonce */\n      dup1\n        /* \"@chainlink/contracts/src/v0.8/ChainlinkClient.sol\":3864:3878  s_requestCount */\n      sload(0x04)\n        /* \"@chainlink/contracts/src/v0.8/ChainlinkClient.sol\":3848:3878  uint256 nonce = s_requestCount */\n      swap1\n      pop\n        /* \"@chainlink/contracts/src/v0.8/ChainlinkClient.sol\":3909:3910  1 */\n      0x01\n        /* \"@chainlink/contracts/src/v0.8/ChainlinkClient.sol\":3901:3906  nonce */\n      dup2\n        /* \"@chainlink/contracts/src/v0.8/ChainlinkClient.sol\":3901:3910  nonce + 1 */\n      tag_128\n      swap2\n      swap1\n      tag_129\n      jump\t// in\n    tag_128:\n        /* \"@chainlink/contracts/src/v0.8/ChainlinkClient.sol\":3884:3898  s_requestCount */\n      0x04\n        /* \"@chainlink/contracts/src/v0.8/ChainlinkClient.sol\":3884:3910  s_requestCount = nonce + 1 */\n      dup2\n      swap1\n      sstore\n      pop\n        /* \"@chainlink/contracts/src/v0.8/ChainlinkClient.sol\":3916:3943  bytes memory encodedRequest */\n      0x00\n        /* \"@chainlink/contracts/src/v0.8/ChainlinkClient.sol\":3976:4024  ChainlinkRequestInterface.oracleRequest.selector */\n      shl(0xe0, 0x40429946)\n        /* \"@chainlink/contracts/src/v0.8/ChainlinkClient.sol\":784:785  0 */\n      0x00\n        /* \"@chainlink/contracts/src/v0.8/ChainlinkClient.sol\":728:729  0 */\n      dup1\n        /* \"@chainlink/contracts/src/v0.8/ChainlinkClient.sol\":4245:4248  req */\n      dup8\n        /* \"@chainlink/contracts/src/v0.8/ChainlinkClient.sol\":4245:4251  req.id */\n      0x00\n      add\n      mload\n        /* \"@chainlink/contracts/src/v0.8/ChainlinkClient.sol\":4267:4271  this */\n      address\n        /* \"@chainlink/contracts/src/v0.8/ChainlinkClient.sol\":4280:4283  req */\n      dup10\n        /* \"@chainlink/contracts/src/v0.8/ChainlinkClient.sol\":4280:4302  req.callbackFunctionId */\n      0x40\n      add\n      mload\n        /* \"@chainlink/contracts/src/v0.8/ChainlinkClient.sol\":4310:4315  nonce */\n      dup8\n        /* \"@chainlink/contracts/src/v0.8/ChainlinkClient.sol\":837:838  1 */\n      0x01\n        /* \"@chainlink/contracts/src/v0.8/ChainlinkClient.sol\":4350:4353  req */\n      dup13\n        /* \"@chainlink/contracts/src/v0.8/ChainlinkClient.sol\":4350:4357  req.buf */\n      0x80\n      add\n      mload\n        /* \"@chainlink/contracts/src/v0.8/ChainlinkClient.sol\":4350:4361  req.buf.buf */\n      0x00\n      add\n      mload\n        /* \"@chainlink/contracts/src/v0.8/ChainlinkClient.sol\":3946:4367  abi.encodeWithSelector(... */\n      add(0x24, mload(0x40))\n      tag_130\n      swap9\n      swap8\n      swap7\n      swap6\n      swap5\n      swap4\n      swap3\n      swap2\n      swap1\n      tag_131\n      jump\t// in\n    tag_130:\n      mload(0x40)\n      0x20\n      dup2\n      dup4\n      sub\n      sub\n      dup2\n      mstore\n      swap1\n      0x40\n      mstore\n      swap1\n      not(0xffffffffffffffffffffffffffffffffffffffffffffffffffffffff)\n      and\n      0x20\n      dup3\n      add\n      dup1\n      mload\n      0xffffffffffffffffffffffffffffffffffffffffffffffffffffffff\n      dup4\n      dup2\n      dup4\n      and\n      or\n      dup4\n      mstore\n      pop\n      pop\n      pop\n      pop\n        /* \"@chainlink/contracts/src/v0.8/ChainlinkClient.sol\":3916:4367  bytes memory encodedRequest = abi.encodeWithSelector(... */\n      swap1\n      pop\n        /* \"@chainlink/contracts/src/v0.8/ChainlinkClient.sol\":4380:4438  _rawRequest(oracleAddress, nonce, payment, encodedRequest) */\n      tag_132\n        /* \"@chainlink/contracts/src/v0.8/ChainlinkClient.sol\":4392:4405  oracleAddress */\n      dup7\n        /* \"@chainlink/contracts/src/v0.8/ChainlinkClient.sol\":4407:4412  nonce */\n      dup4\n        /* \"@chainlink/contracts/src/v0.8/ChainlinkClient.sol\":4414:4421  payment */\n      dup7\n        /* \"@chainlink/contracts/src/v0.8/ChainlinkClient.sol\":4423:4437  encodedRequest */\n      dup5\n        /* \"@chainlink/contracts/src/v0.8/ChainlinkClient.sol\":4380:4391  _rawRequest */\n      tag_133\n        /* \"@chainlink/contracts/src/v0.8/ChainlinkClient.sol\":4380:4438  _rawRequest(oracleAddress, nonce, payment, encodedRequest) */\n      jump\t// in\n    tag_132:\n        /* \"@chainlink/contracts/src/v0.8/ChainlinkClient.sol\":4373:4438  return _rawRequest(oracleAddress, nonce, payment, encodedRequest) */\n      swap3\n      pop\n      pop\n      pop\n        /* \"@chainlink/contracts/src/v0.8/ChainlinkClient.sol\":3687:4443  function sendChainlinkRequestTo(... */\n      swap4\n      swap3\n      pop\n      pop\n      pop\n      jump\t// out\n        /* \"@chainlink/contracts/src/v0.8/ChainlinkClient.sol\":7575:7963  function cancelChainlinkRequest(... */\n    tag_100:\n        /* \"@chainlink/contracts/src/v0.8/ChainlinkClient.sol\":7719:7746  OperatorInterface requested */\n      0x00\n        /* \"@chainlink/contracts/src/v0.8/ChainlinkClient.sol\":7767:7784  s_pendingRequests */\n      0x05\n        /* \"@chainlink/contracts/src/v0.8/ChainlinkClient.sol\":7767:7795  s_pendingRequests[requestId] */\n      0x00\n        /* \"@chainlink/contracts/src/v0.8/ChainlinkClient.sol\":7785:7794  requestId */\n      dup7\n        /* \"@chainlink/contracts/src/v0.8/ChainlinkClient.sol\":7767:7795  s_pendingRequests[requestId] */\n      dup2\n      mstore\n      0x20\n      add\n      swap1\n      dup2\n      mstore\n      0x20\n      add\n      0x00\n      keccak256\n      0x00\n      swap1\n      sload\n      swap1\n      0x0100\n      exp\n      swap1\n      div\n      0xffffffffffffffffffffffffffffffffffffffff\n      and\n        /* \"@chainlink/contracts/src/v0.8/ChainlinkClient.sol\":7719:7796  OperatorInterface requested = OperatorInterface(s_pendingRequests[requestId]) */\n      swap1\n      pop\n        /* \"@chainlink/contracts/src/v0.8/ChainlinkClient.sol\":7809:7826  s_pendingRequests */\n      0x05\n        /* \"@chainlink/contracts/src/v0.8/ChainlinkClient.sol\":7809:7837  s_pendingRequests[requestId] */\n      0x00\n        /* \"@chainlink/contracts/src/v0.8/ChainlinkClient.sol\":7827:7836  requestId */\n      dup7\n        /* \"@chainlink/contracts/src/v0.8/ChainlinkClient.sol\":7809:7837  s_pendingRequests[requestId] */\n      dup2\n      mstore\n      0x20\n      add\n      swap1\n      dup2\n      mstore\n      0x20\n      add\n      0x00\n      keccak256\n      0x00\n        /* \"@chainlink/contracts/src/v0.8/ChainlinkClient.sol\":7802:7837  delete s_pendingRequests[requestId] */\n      0x0100\n      exp\n      dup2\n      sload\n      swap1\n      0xffffffffffffffffffffffffffffffffffffffff\n      mul\n      not\n      and\n      swap1\n      sstore\n        /* \"@chainlink/contracts/src/v0.8/ChainlinkClient.sol\":7867:7876  requestId */\n      dup5\n        /* \"@chainlink/contracts/src/v0.8/ChainlinkClient.sol\":7848:7877  ChainlinkCancelled(requestId) */\n      0xe1fe3afa0f7f761ff0a8b89086790efd5140d2907ebd5b7ff6bfcb5e075fd4c5\n      mload(0x40)\n      mload(0x40)\n      dup1\n      swap2\n      sub\n      swap1\n      log2\n        /* \"@chainlink/contracts/src/v0.8/ChainlinkClient.sol\":7883:7892  requested */\n      dup1\n        /* \"@chainlink/contracts/src/v0.8/ChainlinkClient.sol\":7883:7912  requested.cancelOracleRequest */\n      0xffffffffffffffffffffffffffffffffffffffff\n      and\n      0x6ee4d553\n        /* \"@chainlink/contracts/src/v0.8/ChainlinkClient.sol\":7913:7922  requestId */\n      dup7\n        /* \"@chainlink/contracts/src/v0.8/ChainlinkClient.sol\":7924:7931  payment */\n      dup7\n        /* \"@chainlink/contracts/src/v0.8/ChainlinkClient.sol\":7933:7945  callbackFunc */\n      dup7\n        /* \"@chainlink/contracts/src/v0.8/ChainlinkClient.sol\":7947:7957  expiration */\n      dup7\n        /* \"@chainlink/contracts/src/v0.8/ChainlinkClient.sol\":7883:7958  requested.cancelOracleRequest(requestId, payment, callbackFunc, expiration) */\n      mload(0x40)\n      dup6\n      0xffffffff\n      and\n      0xe0\n      shl\n      dup2\n      mstore\n      0x04\n      add\n      tag_135\n      swap5\n      swap4\n      swap3\n      swap2\n      swap1\n      tag_136\n      jump\t// in\n    tag_135:\n      0x00\n      mload(0x40)\n      dup1\n      dup4\n      sub\n      dup2\n      0x00\n      dup8\n      dup1\n      extcodesize\n      iszero\n      dup1\n      iszero\n      tag_137\n      jumpi\n      0x00\n      dup1\n      revert\n    tag_137:\n      pop\n      gas\n      call\n      iszero\n      dup1\n      iszero\n      tag_139\n      jumpi\n      returndatasize\n      0x00\n      dup1\n      returndatacopy\n      revert(0x00, returndatasize)\n    tag_139:\n      pop\n      pop\n      pop\n      pop\n        /* \"@chainlink/contracts/src/v0.8/ChainlinkClient.sol\":7713:7963  {... */\n      pop\n        /* \"@chainlink/contracts/src/v0.8/ChainlinkClient.sol\":7575:7963  function cancelChainlinkRequest(... */\n      pop\n      pop\n      pop\n      pop\n      jump\t// out\n        /* \"@chainlink/contracts/src/v0.8/ConfirmedOwnerWithProposal.sol\":1497:1685  function _transferOwnership(address to) private {... */\n    tag_105:\n        /* \"@chainlink/contracts/src/v0.8/ConfirmedOwnerWithProposal.sol\":1565:1575  msg.sender */\n      caller\n        /* \"@chainlink/contracts/src/v0.8/ConfirmedOwnerWithProposal.sol\":1559:1575  to != msg.sender */\n      0xffffffffffffffffffffffffffffffffffffffff\n      and\n        /* \"@chainlink/contracts/src/v0.8/ConfirmedOwnerWithProposal.sol\":1559:1561  to */\n      dup2\n        /* \"@chainlink/contracts/src/v0.8/ConfirmedOwnerWithProposal.sol\":1559:1575  to != msg.sender */\n      0xffffffffffffffffffffffffffffffffffffffff\n      and\n      eq\n      iszero\n        /* \"@chainlink/contracts/src/v0.8/ConfirmedOwnerWithProposal.sol\":1551:1603  require(to != msg.sender, \"Cannot transfer to self\") */\n      tag_141\n      jumpi\n      mload(0x40)\n      0x08c379a000000000000000000000000000000000000000000000000000000000\n      dup2\n      mstore\n      0x04\n      add\n      tag_142\n      swap1\n      tag_143\n      jump\t// in\n    tag_142:\n      mload(0x40)\n      dup1\n      swap2\n      sub\n      swap1\n      revert\n    tag_141:\n        /* \"@chainlink/contracts/src/v0.8/ConfirmedOwnerWithProposal.sol\":1627:1629  to */\n      dup1\n        /* \"@chainlink/contracts/src/v0.8/ConfirmedOwnerWithProposal.sol\":1610:1624  s_pendingOwner */\n      0x07\n      0x00\n        /* \"@chainlink/contracts/src/v0.8/ConfirmedOwnerWithProposal.sol\":1610:1629  s_pendingOwner = to */\n      0x0100\n      exp\n      dup2\n      sload\n      dup2\n      0xffffffffffffffffffffffffffffffffffffffff\n      mul\n      not\n      and\n      swap1\n      dup4\n      0xffffffffffffffffffffffffffffffffffffffff\n      and\n      mul\n      or\n      swap1\n      sstore\n      pop\n        /* \"@chainlink/contracts/src/v0.8/ConfirmedOwnerWithProposal.sol\":1677:1679  to */\n      dup1\n        /* \"@chainlink/contracts/src/v0.8/ConfirmedOwnerWithProposal.sol\":1641:1680  OwnershipTransferRequested(s_owner, to) */\n      0xffffffffffffffffffffffffffffffffffffffff\n      and\n        /* \"@chainlink/contracts/src/v0.8/ConfirmedOwnerWithProposal.sol\":1668:1675  s_owner */\n      0x06\n      0x00\n      swap1\n      sload\n      swap1\n      0x0100\n      exp\n      swap1\n      div\n      0xffffffffffffffffffffffffffffffffffffffff\n      and\n        /* \"@chainlink/contracts/src/v0.8/ConfirmedOwnerWithProposal.sol\":1641:1680  OwnershipTransferRequested(s_owner, to) */\n      0xffffffffffffffffffffffffffffffffffffffff\n      and\n      0xed8889f560326eb138920d842192f0eb3dd22b4f139c87a2c57538e05bae1278\n      mload(0x40)\n      mload(0x40)\n      dup1\n      swap2\n      sub\n      swap1\n      log3\n        /* \"@chainlink/contracts/src/v0.8/ConfirmedOwnerWithProposal.sol\":1497:1685  function _transferOwnership(address to) private {... */\n      pop\n      jump\t// out\n        /* \"@chainlink/contracts/src/v0.8/Chainlink.sol\":987:1338  function initialize(... */\n    tag_118:\n        /* \"@chainlink/contracts/src/v0.8/Chainlink.sol\":1129:1153  Chainlink.Request memory */\n      tag_144\n      tag_114\n      jump\t// in\n    tag_144:\n        /* \"@chainlink/contracts/src/v0.8/Chainlink.sol\":1161:1210  BufferChainlink.init(self.buf, defaultBufferSize) */\n      tag_146\n        /* \"@chainlink/contracts/src/v0.8/Chainlink.sol\":1182:1186  self */\n      dup6\n        /* \"@chainlink/contracts/src/v0.8/Chainlink.sol\":1182:1190  self.buf */\n      0x80\n      add\n      mload\n        /* \"@chainlink/contracts/src/v0.8/Chainlink.sol\":361:364  256 */\n      0x0100\n        /* \"@chainlink/contracts/src/v0.8/Chainlink.sol\":1161:1181  BufferChainlink.init */\n      tag_147\n        /* \"@chainlink/contracts/src/v0.8/Chainlink.sol\":1161:1210  BufferChainlink.init(self.buf, defaultBufferSize) */\n      jump\t// in\n    tag_146:\n      pop\n        /* \"@chainlink/contracts/src/v0.8/Chainlink.sol\":1226:1231  jobId */\n      dup4\n        /* \"@chainlink/contracts/src/v0.8/Chainlink.sol\":1216:1220  self */\n      dup6\n        /* \"@chainlink/contracts/src/v0.8/Chainlink.sol\":1216:1223  self.id */\n      0x00\n      add\n        /* \"@chainlink/contracts/src/v0.8/Chainlink.sol\":1216:1231  self.id = jobId */\n      dup2\n      dup2\n      mstore\n      pop\n      pop\n        /* \"@chainlink/contracts/src/v0.8/Chainlink.sol\":1260:1272  callbackAddr */\n      dup3\n        /* \"@chainlink/contracts/src/v0.8/Chainlink.sol\":1237:1241  self */\n      dup6\n        /* \"@chainlink/contracts/src/v0.8/Chainlink.sol\":1237:1257  self.callbackAddress */\n      0x20\n      add\n        /* \"@chainlink/contracts/src/v0.8/Chainlink.sol\":1237:1272  self.callbackAddress = callbackAddr */\n      swap1\n      0xffffffffffffffffffffffffffffffffffffffff\n      and\n      swap1\n      dup2\n      0xffffffffffffffffffffffffffffffffffffffff\n      and\n      dup2\n      mstore\n      pop\n      pop\n        /* \"@chainlink/contracts/src/v0.8/Chainlink.sol\":1304:1316  callbackFunc */\n      dup2\n        /* \"@chainlink/contracts/src/v0.8/Chainlink.sol\":1278:1282  self */\n      dup6\n        /* \"@chainlink/contracts/src/v0.8/Chainlink.sol\":1278:1301  self.callbackFunctionId */\n      0x40\n      add\n        /* \"@chainlink/contracts/src/v0.8/Chainlink.sol\":1278:1316  self.callbackFunctionId = callbackFunc */\n      swap1\n      not(0xffffffffffffffffffffffffffffffffffffffffffffffffffffffff)\n      and\n      swap1\n      dup2\n      not(0xffffffffffffffffffffffffffffffffffffffffffffffffffffffff)\n      and\n      dup2\n      mstore\n      pop\n      pop\n        /* \"@chainlink/contracts/src/v0.8/Chainlink.sol\":1329:1333  self */\n      dup5\n        /* \"@chainlink/contracts/src/v0.8/Chainlink.sol\":1322:1333  return self */\n      swap1\n      pop\n        /* \"@chainlink/contracts/src/v0.8/Chainlink.sol\":987:1338  function initialize(... */\n      swap5\n      swap4\n      pop\n      pop\n      pop\n      pop\n      jump\t// out\n        /* \"@chainlink/contracts/src/v0.8/vendor/CBORChainlink.sol\":2777:2981  function encodeString(BufferChainlink.buffer memory buf, string memory value) internal pure {... */\n    tag_121:\n        /* \"@chainlink/contracts/src/v0.8/vendor/CBORChainlink.sol\":2875:2946  encodeFixedNumeric(buf, MAJOR_TYPE_STRING, uint64(bytes(value).length)) */\n      tag_149\n        /* \"@chainlink/contracts/src/v0.8/vendor/CBORChainlink.sol\":2894:2897  buf */\n      dup3\n        /* \"@chainlink/contracts/src/v0.8/vendor/CBORChainlink.sol\":383:384  3 */\n      0x03\n        /* \"@chainlink/contracts/src/v0.8/vendor/CBORChainlink.sol\":2931:2936  value */\n      dup4\n        /* \"@chainlink/contracts/src/v0.8/vendor/CBORChainlink.sol\":2925:2944  bytes(value).length */\n      mload\n        /* \"@chainlink/contracts/src/v0.8/vendor/CBORChainlink.sol\":2875:2893  encodeFixedNumeric */\n      tag_150\n        /* \"@chainlink/contracts/src/v0.8/vendor/CBORChainlink.sol\":2875:2946  encodeFixedNumeric(buf, MAJOR_TYPE_STRING, uint64(bytes(value).length)) */\n      jump\t// in\n    tag_149:\n        /* \"@chainlink/contracts/src/v0.8/vendor/CBORChainlink.sol\":2952:2976  buf.append(bytes(value)) */\n      tag_151\n        /* \"@chainlink/contracts/src/v0.8/vendor/CBORChainlink.sol\":2969:2974  value */\n      dup2\n        /* \"@chainlink/contracts/src/v0.8/vendor/CBORChainlink.sol\":2952:2955  buf */\n      dup4\n        /* \"@chainlink/contracts/src/v0.8/vendor/CBORChainlink.sol\":2952:2962  buf.append */\n      tag_152\n      swap1\n        /* \"@chainlink/contracts/src/v0.8/vendor/CBORChainlink.sol\":2952:2976  buf.append(bytes(value)) */\n      swap2\n      swap1\n      0xffffffff\n      and\n      jump\t// in\n    tag_151:\n      pop\n        /* \"@chainlink/contracts/src/v0.8/vendor/CBORChainlink.sol\":2777:2981  function encodeString(BufferChainlink.buffer memory buf, string memory value) internal pure {... */\n      pop\n      pop\n      jump\t// out\n        /* \"@chainlink/contracts/src/v0.8/vendor/CBORChainlink.sol\":1704:2150  function encodeInt(BufferChainlink.buffer memory buf, int value) internal pure {... */\n    tag_126:\n        /* \"@chainlink/contracts/src/v0.8/vendor/CBORChainlink.sol\":1800:1820  -0x10000000000000000 */\n      0xffffffffffffffffffffffffffffffffffffffffffffffff0000000000000000\n        /* \"@chainlink/contracts/src/v0.8/vendor/CBORChainlink.sol\":1792:1797  value */\n      dup2\n        /* \"@chainlink/contracts/src/v0.8/vendor/CBORChainlink.sol\":1792:1820  value < -0x10000000000000000 */\n      slt\n        /* \"@chainlink/contracts/src/v0.8/vendor/CBORChainlink.sol\":1789:2146  if(value < -0x10000000000000000) {... */\n      iszero\n      tag_154\n      jumpi\n        /* \"@chainlink/contracts/src/v0.8/vendor/CBORChainlink.sol\":1830:1860  encodeSignedBigNum(buf, value) */\n      tag_155\n        /* \"@chainlink/contracts/src/v0.8/vendor/CBORChainlink.sol\":1849:1852  buf */\n      dup3\n        /* \"@chainlink/contracts/src/v0.8/vendor/CBORChainlink.sol\":1854:1859  value */\n      dup3\n        /* \"@chainlink/contracts/src/v0.8/vendor/CBORChainlink.sol\":1830:1848  encodeSignedBigNum */\n      tag_156\n        /* \"@chainlink/contracts/src/v0.8/vendor/CBORChainlink.sol\":1830:1860  encodeSignedBigNum(buf, value) */\n      jump\t// in\n    tag_155:\n        /* \"@chainlink/contracts/src/v0.8/vendor/CBORChainlink.sol\":1789:2146  if(value < -0x10000000000000000) {... */\n      jump(tag_157)\n    tag_154:\n        /* \"@chainlink/contracts/src/v0.8/vendor/CBORChainlink.sol\":1884:1902  0xFFFFFFFFFFFFFFFF */\n      0xffffffffffffffff\n        /* \"@chainlink/contracts/src/v0.8/vendor/CBORChainlink.sol\":1876:1881  value */\n      dup2\n        /* \"@chainlink/contracts/src/v0.8/vendor/CBORChainlink.sol\":1876:1902  value > 0xFFFFFFFFFFFFFFFF */\n      sgt\n        /* \"@chainlink/contracts/src/v0.8/vendor/CBORChainlink.sol\":1873:2146  if(value > 0xFFFFFFFFFFFFFFFF) {... */\n      iszero\n      tag_158\n      jumpi\n        /* \"@chainlink/contracts/src/v0.8/vendor/CBORChainlink.sol\":1912:1942  encodeBigNum(buf, uint(value)) */\n      tag_159\n        /* \"@chainlink/contracts/src/v0.8/vendor/CBORChainlink.sol\":1925:1928  buf */\n      dup3\n        /* \"@chainlink/contracts/src/v0.8/vendor/CBORChainlink.sol\":1935:1940  value */\n      dup3\n        /* \"@chainlink/contracts/src/v0.8/vendor/CBORChainlink.sol\":1912:1924  encodeBigNum */\n      tag_160\n        /* \"@chainlink/contracts/src/v0.8/vendor/CBORChainlink.sol\":1912:1942  encodeBigNum(buf, uint(value)) */\n      jump\t// in\n    tag_159:\n        /* \"@chainlink/contracts/src/v0.8/vendor/CBORChainlink.sol\":1873:2146  if(value > 0xFFFFFFFFFFFFFFFF) {... */\n      jump(tag_161)\n    tag_158:\n        /* \"@chainlink/contracts/src/v0.8/vendor/CBORChainlink.sol\":1967:1968  0 */\n      0x00\n        /* \"@chainlink/contracts/src/v0.8/vendor/CBORChainlink.sol\":1958:1963  value */\n      dup2\n        /* \"@chainlink/contracts/src/v0.8/vendor/CBORChainlink.sol\":1958:1968  value >= 0 */\n      slt\n        /* \"@chainlink/contracts/src/v0.8/vendor/CBORChainlink.sol\":1955:2146  if(value >= 0) {... */\n      tag_162\n      jumpi\n        /* \"@chainlink/contracts/src/v0.8/vendor/CBORChainlink.sol\":1978:2041  encodeFixedNumeric(buf, MAJOR_TYPE_INT, uint64(uint256(value))) */\n      tag_163\n        /* \"@chainlink/contracts/src/v0.8/vendor/CBORChainlink.sol\":1997:2000  buf */\n      dup3\n        /* \"@chainlink/contracts/src/v0.8/vendor/CBORChainlink.sol\":234:235  0 */\n      0x00\n        /* \"@chainlink/contracts/src/v0.8/vendor/CBORChainlink.sol\":2033:2038  value */\n      dup4\n        /* \"@chainlink/contracts/src/v0.8/vendor/CBORChainlink.sol\":1978:1996  encodeFixedNumeric */\n      tag_150\n        /* \"@chainlink/contracts/src/v0.8/vendor/CBORChainlink.sol\":1978:2041  encodeFixedNumeric(buf, MAJOR_TYPE_INT, uint64(uint256(value))) */\n      jump\t// in\n    tag_163:\n        /* \"@chainlink/contracts/src/v0.8/vendor/CBORChainlink.sol\":1955:2146  if(value >= 0) {... */\n      jump(tag_164)\n    tag_162:\n        /* \"@chainlink/contracts/src/v0.8/vendor/CBORChainlink.sol\":2062:2139  encodeFixedNumeric(buf, MAJOR_TYPE_NEGATIVE_INT, uint64(uint256(-1 - value))) */\n      tag_165\n        /* \"@chainlink/contracts/src/v0.8/vendor/CBORChainlink.sol\":2081:2084  buf */\n      dup3\n        /* \"@chainlink/contracts/src/v0.8/vendor/CBORChainlink.sol\":288:289  1 */\n      0x01\n        /* \"@chainlink/contracts/src/v0.8/vendor/CBORChainlink.sol\":2131:2136  value */\n      dup4\n        /* \"@chainlink/contracts/src/v0.8/vendor/CBORChainlink.sol\":2126:2128  -1 */\n      0xffffffffffffffffffffffffffffffffffffffffffffffffffffffffffffffff\n        /* \"@chainlink/contracts/src/v0.8/vendor/CBORChainlink.sol\":2126:2136  -1 - value */\n      tag_166\n      swap2\n      swap1\n      tag_167\n      jump\t// in\n    tag_166:\n        /* \"@chainlink/contracts/src/v0.8/vendor/CBORChainlink.sol\":2062:2080  encodeFixedNumeric */\n      tag_150\n        /* \"@chainlink/contracts/src/v0.8/vendor/CBORChainlink.sol\":2062:2139  encodeFixedNumeric(buf, MAJOR_TYPE_NEGATIVE_INT, uint64(uint256(-1 - value))) */\n      jump\t// in\n    tag_165:\n        /* \"@chainlink/contracts/src/v0.8/vendor/CBORChainlink.sol\":1955:2146  if(value >= 0) {... */\n    tag_164:\n        /* \"@chainlink/contracts/src/v0.8/vendor/CBORChainlink.sol\":1873:2146  if(value > 0xFFFFFFFFFFFFFFFF) {... */\n    tag_161:\n        /* \"@chainlink/contracts/src/v0.8/vendor/CBORChainlink.sol\":1789:2146  if(value < -0x10000000000000000) {... */\n    tag_157:\n        /* \"@chainlink/contracts/src/v0.8/vendor/CBORChainlink.sol\":1704:2150  function encodeInt(BufferChainlink.buffer memory buf, int value) internal pure {... */\n      pop\n      pop\n      jump\t// out\n        /* \"@chainlink/contracts/src/v0.8/ChainlinkClient.sol\":6629:7059  function _rawRequest(... */\n    tag_133:\n        /* \"@chainlink/contracts/src/v0.8/ChainlinkClient.sol\":6771:6788  bytes32 requestId */\n      0x00\n        /* \"@chainlink/contracts/src/v0.8/ChainlinkClient.sol\":6835:6839  this */\n      address\n        /* \"@chainlink/contracts/src/v0.8/ChainlinkClient.sol\":6841:6846  nonce */\n      dup5\n        /* \"@chainlink/contracts/src/v0.8/ChainlinkClient.sol\":6818:6847  abi.encodePacked(this, nonce) */\n      add(0x20, mload(0x40))\n      tag_169\n      swap3\n      swap2\n      swap1\n      tag_170\n      jump\t// in\n    tag_169:\n      mload(0x40)\n      0x20\n      dup2\n      dup4\n      sub\n      sub\n      dup2\n      mstore\n      swap1\n      0x40\n      mstore\n        /* \"@chainlink/contracts/src/v0.8/ChainlinkClient.sol\":6808:6848  keccak256(abi.encodePacked(this, nonce)) */\n      dup1\n      mload\n      swap1\n      0x20\n      add\n      keccak256\n        /* \"@chainlink/contracts/src/v0.8/ChainlinkClient.sol\":6796:6848  requestId = keccak256(abi.encodePacked(this, nonce)) */\n      swap1\n      pop\n        /* \"@chainlink/contracts/src/v0.8/ChainlinkClient.sol\":6885:6898  oracleAddress */\n      dup5\n        /* \"@chainlink/contracts/src/v0.8/ChainlinkClient.sol\":6854:6871  s_pendingRequests */\n      0x05\n        /* \"@chainlink/contracts/src/v0.8/ChainlinkClient.sol\":6854:6882  s_pendingRequests[requestId] */\n      0x00\n        /* \"@chainlink/contracts/src/v0.8/ChainlinkClient.sol\":6872:6881  requestId */\n      dup4\n        /* \"@chainlink/contracts/src/v0.8/ChainlinkClient.sol\":6854:6882  s_pendingRequests[requestId] */\n      dup2\n      mstore\n      0x20\n      add\n      swap1\n      dup2\n      mstore\n      0x20\n      add\n      0x00\n      keccak256\n      0x00\n        /* \"@chainlink/contracts/src/v0.8/ChainlinkClient.sol\":6854:6898  s_pendingRequests[requestId] = oracleAddress */\n      0x0100\n      exp\n      dup2\n      sload\n      dup2\n      0xffffffffffffffffffffffffffffffffffffffff\n      mul\n      not\n      and\n      swap1\n      dup4\n      0xffffffffffffffffffffffffffffffffffffffff\n      and\n      mul\n      or\n      swap1\n      sstore\n      pop\n        /* \"@chainlink/contracts/src/v0.8/ChainlinkClient.sol\":6928:6937  requestId */\n      dup1\n        /* \"@chainlink/contracts/src/v0.8/ChainlinkClient.sol\":6909:6938  ChainlinkRequested(requestId) */\n      0xb5e6e01e79f91267dc17b4e6314d5d4d03593d2ceee0fbb452b750bd70ea5af9\n      mload(0x40)\n      mload(0x40)\n      dup1\n      swap2\n      sub\n      swap1\n      log2\n        /* \"@chainlink/contracts/src/v0.8/ChainlinkClient.sol\":6952:6958  s_link */\n      0x02\n      0x00\n      swap1\n      sload\n      swap1\n      0x0100\n      exp\n      swap1\n      div\n      0xffffffffffffffffffffffffffffffffffffffff\n      and\n        /* \"@chainlink/contracts/src/v0.8/ChainlinkClient.sol\":6952:6974  s_link.transferAndCall */\n      0xffffffffffffffffffffffffffffffffffffffff\n      and\n      0x4000aea0\n        /* \"@chainlink/contracts/src/v0.8/ChainlinkClient.sol\":6975:6988  oracleAddress */\n      dup7\n        /* \"@chainlink/contracts/src/v0.8/ChainlinkClient.sol\":6990:6997  payment */\n      dup6\n        /* \"@chainlink/contracts/src/v0.8/ChainlinkClient.sol\":6999:7013  encodedRequest */\n      dup6\n        /* \"@chainlink/contracts/src/v0.8/ChainlinkClient.sol\":6952:7014  s_link.transferAndCall(oracleAddress, payment, encodedRequest) */\n      mload(0x40)\n      dup5\n      0xffffffff\n      and\n      0xe0\n      shl\n      dup2\n      mstore\n      0x04\n      add\n      tag_171\n      swap4\n      swap3\n      swap2\n      swap1\n      tag_172\n      jump\t// in\n    tag_171:\n      0x20\n      mload(0x40)\n      dup1\n      dup4\n      sub\n      dup2\n      0x00\n      dup8\n      dup1\n      extcodesize\n      iszero\n      dup1\n      iszero\n      tag_173\n      jumpi\n      0x00\n      dup1\n      revert\n    tag_173:\n      pop\n      gas\n      call\n      iszero\n      dup1\n      iszero\n      tag_175\n      jumpi\n      returndatasize\n      0x00\n      dup1\n      returndatacopy\n      revert(0x00, returndatasize)\n    tag_175:\n      pop\n      pop\n      pop\n      pop\n      mload(0x40)\n      returndatasize\n      not(0x1f)\n      0x1f\n      dup3\n      add\n      and\n      dup3\n      add\n      dup1\n      0x40\n      mstore\n      pop\n      dup2\n      add\n      swap1\n      tag_176\n      swap2\n      swap1\n      tag_69\n      jump\t// in\n    tag_176:\n        /* \"@chainlink/contracts/src/v0.8/ChainlinkClient.sol\":6944:7054  require(s_link.transferAndCall(oracleAddress, payment, encodedRequest), \"unable to transferAndCall to oracle\") */\n      tag_177\n      jumpi\n      mload(0x40)\n      0x08c379a000000000000000000000000000000000000000000000000000000000\n      dup2\n      mstore\n      0x04\n      add\n      tag_178\n      swap1\n      tag_179\n      jump\t// in\n    tag_178:\n      mload(0x40)\n      dup1\n      swap2\n      sub\n      swap1\n      revert\n    tag_177:\n        /* \"@chainlink/contracts/src/v0.8/ChainlinkClient.sol\":6629:7059  function _rawRequest(... */\n      swap5\n      swap4\n      pop\n      pop\n      pop\n      pop\n      jump\t// out\n        /* \"@chainlink/contracts/src/v0.8/vendor/BufferChainlink.sol\":1001:1400  function init(buffer memory buf, uint256 capacity) internal pure returns (buffer memory) {... */\n    tag_147:\n        /* \"@chainlink/contracts/src/v0.8/vendor/BufferChainlink.sol\":1075:1088  buffer memory */\n      tag_180\n      tag_181\n      jump\t// in\n    tag_180:\n        /* \"@chainlink/contracts/src/v0.8/vendor/BufferChainlink.sol\":1117:1118  0 */\n      0x00\n        /* \"@chainlink/contracts/src/v0.8/vendor/BufferChainlink.sol\":1111:1113  32 */\n      0x20\n        /* \"@chainlink/contracts/src/v0.8/vendor/BufferChainlink.sol\":1100:1108  capacity */\n      dup4\n        /* \"@chainlink/contracts/src/v0.8/vendor/BufferChainlink.sol\":1100:1113  capacity % 32 */\n      tag_183\n      swap2\n      swap1\n      tag_184\n      jump\t// in\n    tag_183:\n        /* \"@chainlink/contracts/src/v0.8/vendor/BufferChainlink.sol\":1100:1118  capacity % 32 != 0 */\n      eq\n        /* \"@chainlink/contracts/src/v0.8/vendor/BufferChainlink.sol\":1096:1167  if (capacity % 32 != 0) {... */\n      tag_185\n      jumpi\n        /* \"@chainlink/contracts/src/v0.8/vendor/BufferChainlink.sol\":1157:1159  32 */\n      0x20\n        /* \"@chainlink/contracts/src/v0.8/vendor/BufferChainlink.sol\":1146:1154  capacity */\n      dup3\n        /* \"@chainlink/contracts/src/v0.8/vendor/BufferChainlink.sol\":1146:1159  capacity % 32 */\n      tag_186\n      swap2\n      swap1\n      tag_184\n      jump\t// in\n    tag_186:\n        /* \"@chainlink/contracts/src/v0.8/vendor/BufferChainlink.sol\":1140:1142  32 */\n      0x20\n        /* \"@chainlink/contracts/src/v0.8/vendor/BufferChainlink.sol\":1140:1160  32 - (capacity % 32) */\n      tag_187\n      swap2\n      swap1\n      tag_188\n      jump\t// in\n    tag_187:\n        /* \"@chainlink/contracts/src/v0.8/vendor/BufferChainlink.sol\":1128:1160  capacity += 32 - (capacity % 32) */\n      dup3\n      tag_189\n      swap2\n      swap1\n      tag_129\n      jump\t// in\n    tag_189:\n      swap2\n      pop\n        /* \"@chainlink/contracts/src/v0.8/vendor/BufferChainlink.sol\":1096:1167  if (capacity % 32 != 0) {... */\n    tag_185:\n        /* \"@chainlink/contracts/src/v0.8/vendor/BufferChainlink.sol\":1229:1237  capacity */\n      dup2\n        /* \"@chainlink/contracts/src/v0.8/vendor/BufferChainlink.sol\":1214:1217  buf */\n      dup4\n        /* \"@chainlink/contracts/src/v0.8/vendor/BufferChainlink.sol\":1214:1226  buf.capacity */\n      0x20\n      add\n        /* \"@chainlink/contracts/src/v0.8/vendor/BufferChainlink.sol\":1214:1237  buf.capacity = capacity */\n      dup2\n      dup2\n      mstore\n      pop\n      pop\n        /* \"@chainlink/contracts/src/v0.8/vendor/BufferChainlink.sol\":1277:1281  0x40 */\n      0x40\n        /* \"@chainlink/contracts/src/v0.8/vendor/BufferChainlink.sol\":1271:1282  mload(0x40) */\n      mload\n        /* \"@chainlink/contracts/src/v0.8/vendor/BufferChainlink.sol\":1301:1304  ptr */\n      dup1\n        /* \"@chainlink/contracts/src/v0.8/vendor/BufferChainlink.sol\":1296:1299  buf */\n      dup5\n        /* \"@chainlink/contracts/src/v0.8/vendor/BufferChainlink.sol\":1289:1305  mstore(buf, ptr) */\n      mstore\n        /* \"@chainlink/contracts/src/v0.8/vendor/BufferChainlink.sol\":1324:1325  0 */\n      0x00\n        /* \"@chainlink/contracts/src/v0.8/vendor/BufferChainlink.sol\":1319:1322  ptr */\n      dup2\n        /* \"@chainlink/contracts/src/v0.8/vendor/BufferChainlink.sol\":1312:1326  mstore(ptr, 0) */\n      mstore\n        /* \"@chainlink/contracts/src/v0.8/vendor/BufferChainlink.sol\":1363:1371  capacity */\n      dup3\n        /* \"@chainlink/contracts/src/v0.8/vendor/BufferChainlink.sol\":1358:1361  ptr */\n      dup2\n        /* \"@chainlink/contracts/src/v0.8/vendor/BufferChainlink.sol\":1354:1372  add(ptr, capacity) */\n      add\n        /* \"@chainlink/contracts/src/v0.8/vendor/BufferChainlink.sol\":1350:1352  32 */\n      0x20\n        /* \"@chainlink/contracts/src/v0.8/vendor/BufferChainlink.sol\":1346:1373  add(32, add(ptr, capacity)) */\n      add\n        /* \"@chainlink/contracts/src/v0.8/vendor/BufferChainlink.sol\":1340:1344  0x40 */\n      0x40\n        /* \"@chainlink/contracts/src/v0.8/vendor/BufferChainlink.sol\":1333:1374  mstore(0x40, add(32, add(ptr, capacity))) */\n      mstore\n        /* \"@chainlink/contracts/src/v0.8/vendor/BufferChainlink.sol\":1252:1380  {... */\n      pop\n        /* \"@chainlink/contracts/src/v0.8/vendor/BufferChainlink.sol\":1392:1395  buf */\n      dup3\n        /* \"@chainlink/contracts/src/v0.8/vendor/BufferChainlink.sol\":1385:1395  return buf */\n      swap1\n      pop\n        /* \"@chainlink/contracts/src/v0.8/vendor/BufferChainlink.sol\":1001:1400  function init(buffer memory buf, uint256 capacity) internal pure returns (buffer memory) {... */\n      swap3\n      swap2\n      pop\n      pop\n      jump\t// out\n        /* \"@chainlink/contracts/src/v0.8/vendor/CBORChainlink.sol\":682:1307  function encodeFixedNumeric(BufferChainlink.buffer memory buf, uint8 major, uint64 value) private pure {... */\n    tag_150:\n        /* \"@chainlink/contracts/src/v0.8/vendor/CBORChainlink.sol\":803:805  23 */\n      0x17\n        /* \"@chainlink/contracts/src/v0.8/vendor/CBORChainlink.sol\":794:799  value */\n      dup2\n        /* \"@chainlink/contracts/src/v0.8/vendor/CBORChainlink.sol\":794:805  value <= 23 */\n      0xffffffffffffffff\n      and\n      gt\n        /* \"@chainlink/contracts/src/v0.8/vendor/CBORChainlink.sol\":791:1303  if(value <= 23) {... */\n      tag_191\n      jumpi\n        /* \"@chainlink/contracts/src/v0.8/vendor/CBORChainlink.sol\":815:859  buf.appendUint8(uint8((major << 5) | value)) */\n      tag_192\n        /* \"@chainlink/contracts/src/v0.8/vendor/CBORChainlink.sol\":852:857  value */\n      dup2\n        /* \"@chainlink/contracts/src/v0.8/vendor/CBORChainlink.sol\":847:848  5 */\n      0x05\n        /* \"@chainlink/contracts/src/v0.8/vendor/CBORChainlink.sol\":838:843  major */\n      dup5\n        /* \"@chainlink/contracts/src/v0.8/vendor/CBORChainlink.sol\":838:848  major << 5 */\n      0xff\n      and\n      swap1\n      shl\n        /* \"@chainlink/contracts/src/v0.8/vendor/CBORChainlink.sol\":837:857  (major << 5) | value */\n      0xff\n      and\n      or\n        /* \"@chainlink/contracts/src/v0.8/vendor/CBORChainlink.sol\":815:818  buf */\n      dup5\n        /* \"@chainlink/contracts/src/v0.8/vendor/CBORChainlink.sol\":815:830  buf.appendUint8 */\n      tag_193\n      swap1\n        /* \"@chainlink/contracts/src/v0.8/vendor/CBORChainlink.sol\":815:859  buf.appendUint8(uint8((major << 5) | value)) */\n      swap2\n      swap1\n      0xffffffff\n      and\n      jump\t// in\n    tag_192:\n      pop\n        /* \"@chainlink/contracts/src/v0.8/vendor/CBORChainlink.sol\":791:1303  if(value <= 23) {... */\n      jump(tag_194)\n    tag_191:\n        /* \"@chainlink/contracts/src/v0.8/vendor/CBORChainlink.sol\":885:889  0xFF */\n      0xff\n        /* \"@chainlink/contracts/src/v0.8/vendor/CBORChainlink.sol\":876:881  value */\n      dup2\n        /* \"@chainlink/contracts/src/v0.8/vendor/CBORChainlink.sol\":876:889  value <= 0xFF */\n      0xffffffffffffffff\n      and\n      gt\n        /* \"@chainlink/contracts/src/v0.8/vendor/CBORChainlink.sol\":872:1303  if (value <= 0xFF) {... */\n      tag_195\n      jumpi\n        /* \"@chainlink/contracts/src/v0.8/vendor/CBORChainlink.sol\":899:940  buf.appendUint8(uint8((major << 5) | 24)) */\n      tag_196\n        /* \"@chainlink/contracts/src/v0.8/vendor/CBORChainlink.sol\":936:938  24 */\n      0x18\n        /* \"@chainlink/contracts/src/v0.8/vendor/CBORChainlink.sol\":931:932  5 */\n      0x05\n        /* \"@chainlink/contracts/src/v0.8/vendor/CBORChainlink.sol\":922:927  major */\n      dup5\n        /* \"@chainlink/contracts/src/v0.8/vendor/CBORChainlink.sol\":922:932  major << 5 */\n      0xff\n      and\n      swap1\n      shl\n        /* \"@chainlink/contracts/src/v0.8/vendor/CBORChainlink.sol\":921:938  (major << 5) | 24 */\n      or\n        /* \"@chainlink/contracts/src/v0.8/vendor/CBORChainlink.sol\":899:902  buf */\n      dup5\n        /* \"@chainlink/contracts/src/v0.8/vendor/CBORChainlink.sol\":899:914  buf.appendUint8 */\n      tag_193\n      swap1\n        /* \"@chainlink/contracts/src/v0.8/vendor/CBORChainlink.sol\":899:940  buf.appendUint8(uint8((major << 5) | 24)) */\n      swap2\n      swap1\n      0xffffffff\n      and\n      jump\t// in\n    tag_196:\n      pop\n        /* \"@chainlink/contracts/src/v0.8/vendor/CBORChainlink.sol\":948:971  buf.appendInt(value, 1) */\n      tag_197\n        /* \"@chainlink/contracts/src/v0.8/vendor/CBORChainlink.sol\":962:967  value */\n      dup2\n        /* \"@chainlink/contracts/src/v0.8/vendor/CBORChainlink.sol\":948:971  buf.appendInt(value, 1) */\n      0xffffffffffffffff\n      and\n        /* \"@chainlink/contracts/src/v0.8/vendor/CBORChainlink.sol\":969:970  1 */\n      0x01\n        /* \"@chainlink/contracts/src/v0.8/vendor/CBORChainlink.sol\":948:951  buf */\n      dup6\n        /* \"@chainlink/contracts/src/v0.8/vendor/CBORChainlink.sol\":948:961  buf.appendInt */\n      tag_198\n      swap1\n        /* \"@chainlink/contracts/src/v0.8/vendor/CBORChainlink.sol\":948:971  buf.appendInt(value, 1) */\n      swap3\n      swap2\n      swap1\n      0xffffffff\n      and\n      jump\t// in\n    tag_197:\n      pop\n        /* \"@chainlink/contracts/src/v0.8/vendor/CBORChainlink.sol\":872:1303  if (value <= 0xFF) {... */\n      jump(tag_199)\n    tag_195:\n        /* \"@chainlink/contracts/src/v0.8/vendor/CBORChainlink.sol\":997:1003  0xFFFF */\n      0xffff\n        /* \"@chainlink/contracts/src/v0.8/vendor/CBORChainlink.sol\":988:993  value */\n      dup2\n        /* \"@chainlink/contracts/src/v0.8/vendor/CBORChainlink.sol\":988:1003  value <= 0xFFFF */\n      0xffffffffffffffff\n      and\n      gt\n        /* \"@chainlink/contracts/src/v0.8/vendor/CBORChainlink.sol\":984:1303  if (value <= 0xFFFF) {... */\n      tag_200\n      jumpi\n        /* \"@chainlink/contracts/src/v0.8/vendor/CBORChainlink.sol\":1013:1054  buf.appendUint8(uint8((major << 5) | 25)) */\n      tag_201\n        /* \"@chainlink/contracts/src/v0.8/vendor/CBORChainlink.sol\":1050:1052  25 */\n      0x19\n        /* \"@chainlink/contracts/src/v0.8/vendor/CBORChainlink.sol\":1045:1046  5 */\n      0x05\n        /* \"@chainlink/contracts/src/v0.8/vendor/CBORChainlink.sol\":1036:1041  major */\n      dup5\n        /* \"@chainlink/contracts/src/v0.8/vendor/CBORChainlink.sol\":1036:1046  major << 5 */\n      0xff\n      and\n      swap1\n      shl\n        /* \"@chainlink/contracts/src/v0.8/vendor/CBORChainlink.sol\":1035:1052  (major << 5) | 25 */\n      or\n        /* \"@chainlink/contracts/src/v0.8/vendor/CBORChainlink.sol\":1013:1016  buf */\n      dup5\n        /* \"@chainlink/contracts/src/v0.8/vendor/CBORChainlink.sol\":1013:1028  buf.appendUint8 */\n      tag_193\n      swap1\n        /* \"@chainlink/contracts/src/v0.8/vendor/CBORChainlink.sol\":1013:1054  buf.appendUint8(uint8((major << 5) | 25)) */\n      swap2\n      swap1\n      0xffffffff\n      and\n      jump\t// in\n    tag_201:\n      pop\n        /* \"@chainlink/contracts/src/v0.8/vendor/CBORChainlink.sol\":1062:1085  buf.appendInt(value, 2) */\n      tag_202\n        /* \"@chainlink/contracts/src/v0.8/vendor/CBORChainlink.sol\":1076:1081  value */\n      dup2\n        /* \"@chainlink/contracts/src/v0.8/vendor/CBORChainlink.sol\":1062:1085  buf.appendInt(value, 2) */\n      0xffffffffffffffff\n      and\n        /* \"@chainlink/contracts/src/v0.8/vendor/CBORChainlink.sol\":1083:1084  2 */\n      0x02\n        /* \"@chainlink/contracts/src/v0.8/vendor/CBORChainlink.sol\":1062:1065  buf */\n      dup6\n        /* \"@chainlink/contracts/src/v0.8/vendor/CBORChainlink.sol\":1062:1075  buf.appendInt */\n      tag_198\n      swap1\n        /* \"@chainlink/contracts/src/v0.8/vendor/CBORChainlink.sol\":1062:1085  buf.appendInt(value, 2) */\n      swap3\n      swap2\n      swap1\n      0xffffffff\n      and\n      jump\t// in\n    tag_202:\n      pop\n        /* \"@chainlink/contracts/src/v0.8/vendor/CBORChainlink.sol\":984:1303  if (value <= 0xFFFF) {... */\n      jump(tag_203)\n    tag_200:\n        /* \"@chainlink/contracts/src/v0.8/vendor/CBORChainlink.sol\":1111:1121  0xFFFFFFFF */\n      0xffffffff\n        /* \"@chainlink/contracts/src/v0.8/vendor/CBORChainlink.sol\":1102:1107  value */\n      dup2\n        /* \"@chainlink/contracts/src/v0.8/vendor/CBORChainlink.sol\":1102:1121  value <= 0xFFFFFFFF */\n      0xffffffffffffffff\n      and\n      gt\n        /* \"@chainlink/contracts/src/v0.8/vendor/CBORChainlink.sol\":1098:1303  if (value <= 0xFFFFFFFF) {... */\n      tag_204\n      jumpi\n        /* \"@chainlink/contracts/src/v0.8/vendor/CBORChainlink.sol\":1131:1172  buf.appendUint8(uint8((major << 5) | 26)) */\n      tag_205\n        /* \"@chainlink/contracts/src/v0.8/vendor/CBORChainlink.sol\":1168:1170  26 */\n      0x1a\n        /* \"@chainlink/contracts/src/v0.8/vendor/CBORChainlink.sol\":1163:1164  5 */\n      0x05\n        /* \"@chainlink/contracts/src/v0.8/vendor/CBORChainlink.sol\":1154:1159  major */\n      dup5\n        /* \"@chainlink/contracts/src/v0.8/vendor/CBORChainlink.sol\":1154:1164  major << 5 */\n      0xff\n      and\n      swap1\n      shl\n        /* \"@chainlink/contracts/src/v0.8/vendor/CBORChainlink.sol\":1153:1170  (major << 5) | 26 */\n      or\n        /* \"@chainlink/contracts/src/v0.8/vendor/CBORChainlink.sol\":1131:1134  buf */\n      dup5\n        /* \"@chainlink/contracts/src/v0.8/vendor/CBORChainlink.sol\":1131:1146  buf.appendUint8 */\n      tag_193\n      swap1\n        /* \"@chainlink/contracts/src/v0.8/vendor/CBORChainlink.sol\":1131:1172  buf.appendUint8(uint8((major << 5) | 26)) */\n      swap2\n      swap1\n      0xffffffff\n      and\n      jump\t// in\n    tag_205:\n      pop\n        /* \"@chainlink/contracts/src/v0.8/vendor/CBORChainlink.sol\":1180:1203  buf.appendInt(value, 4) */\n      tag_206\n        /* \"@chainlink/contracts/src/v0.8/vendor/CBORChainlink.sol\":1194:1199  value */\n      dup2\n        /* \"@chainlink/contracts/src/v0.8/vendor/CBORChainlink.sol\":1180:1203  buf.appendInt(value, 4) */\n      0xffffffffffffffff\n      and\n        /* \"@chainlink/contracts/src/v0.8/vendor/CBORChainlink.sol\":1201:1202  4 */\n      0x04\n        /* \"@chainlink/contracts/src/v0.8/vendor/CBORChainlink.sol\":1180:1183  buf */\n      dup6\n        /* \"@chainlink/contracts/src/v0.8/vendor/CBORChainlink.sol\":1180:1193  buf.appendInt */\n      tag_198\n      swap1\n        /* \"@chainlink/contracts/src/v0.8/vendor/CBORChainlink.sol\":1180:1203  buf.appendInt(value, 4) */\n      swap3\n      swap2\n      swap1\n      0xffffffff\n      and\n      jump\t// in\n    tag_206:\n      pop\n        /* \"@chainlink/contracts/src/v0.8/vendor/CBORChainlink.sol\":1098:1303  if (value <= 0xFFFFFFFF) {... */\n      jump(tag_207)\n    tag_204:\n        /* \"@chainlink/contracts/src/v0.8/vendor/CBORChainlink.sol\":1224:1265  buf.appendUint8(uint8((major << 5) | 27)) */\n      tag_208\n        /* \"@chainlink/contracts/src/v0.8/vendor/CBORChainlink.sol\":1261:1263  27 */\n      0x1b\n        /* \"@chainlink/contracts/src/v0.8/vendor/CBORChainlink.sol\":1256:1257  5 */\n      0x05\n        /* \"@chainlink/contracts/src/v0.8/vendor/CBORChainlink.sol\":1247:1252  major */\n      dup5\n        /* \"@chainlink/contracts/src/v0.8/vendor/CBORChainlink.sol\":1247:1257  major << 5 */\n      0xff\n      and\n      swap1\n      shl\n        /* \"@chainlink/contracts/src/v0.8/vendor/CBORChainlink.sol\":1246:1263  (major << 5) | 27 */\n      or\n        /* \"@chainlink/contracts/src/v0.8/vendor/CBORChainlink.sol\":1224:1227  buf */\n      dup5\n        /* \"@chainlink/contracts/src/v0.8/vendor/CBORChainlink.sol\":1224:1239  buf.appendUint8 */\n      tag_193\n      swap1\n        /* \"@chainlink/contracts/src/v0.8/vendor/CBORChainlink.sol\":1224:1265  buf.appendUint8(uint8((major << 5) | 27)) */\n      swap2\n      swap1\n      0xffffffff\n      and\n      jump\t// in\n    tag_208:\n      pop\n        /* \"@chainlink/contracts/src/v0.8/vendor/CBORChainlink.sol\":1273:1296  buf.appendInt(value, 8) */\n      tag_209\n        /* \"@chainlink/contracts/src/v0.8/vendor/CBORChainlink.sol\":1287:1292  value */\n      dup2\n        /* \"@chainlink/contracts/src/v0.8/vendor/CBORChainlink.sol\":1273:1296  buf.appendInt(value, 8) */\n      0xffffffffffffffff\n      and\n        /* \"@chainlink/contracts/src/v0.8/vendor/CBORChainlink.sol\":1294:1295  8 */\n      0x08\n        /* \"@chainlink/contracts/src/v0.8/vendor/CBORChainlink.sol\":1273:1276  buf */\n      dup6\n        /* \"@chainlink/contracts/src/v0.8/vendor/CBORChainlink.sol\":1273:1286  buf.appendInt */\n      tag_198\n      swap1\n        /* \"@chainlink/contracts/src/v0.8/vendor/CBORChainlink.sol\":1273:1296  buf.appendInt(value, 8) */\n      swap3\n      swap2\n      swap1\n      0xffffffff\n      and\n      jump\t// in\n    tag_209:\n      pop\n        /* \"@chainlink/contracts/src/v0.8/vendor/CBORChainlink.sol\":1098:1303  if (value <= 0xFFFFFFFF) {... */\n    tag_207:\n        /* \"@chainlink/contracts/src/v0.8/vendor/CBORChainlink.sol\":984:1303  if (value <= 0xFFFF) {... */\n    tag_203:\n        /* \"@chainlink/contracts/src/v0.8/vendor/CBORChainlink.sol\":872:1303  if (value <= 0xFF) {... */\n    tag_199:\n        /* \"@chainlink/contracts/src/v0.8/vendor/CBORChainlink.sol\":791:1303  if(value <= 23) {... */\n    tag_194:\n        /* \"@chainlink/contracts/src/v0.8/vendor/CBORChainlink.sol\":682:1307  function encodeFixedNumeric(BufferChainlink.buffer memory buf, uint8 major, uint64 value) private pure {... */\n      pop\n      pop\n      pop\n      jump\t// out\n        /* \"@chainlink/contracts/src/v0.8/vendor/BufferChainlink.sol\":4692:4847  function append(buffer memory buf, bytes memory data) internal pure returns (buffer memory) {... */\n    tag_152:\n        /* \"@chainlink/contracts/src/v0.8/vendor/BufferChainlink.sol\":4769:4782  buffer memory */\n      tag_210\n      tag_181\n      jump\t// in\n    tag_210:\n        /* \"@chainlink/contracts/src/v0.8/vendor/BufferChainlink.sol\":4797:4842  write(buf, buf.buf.length, data, data.length) */\n      tag_212\n        /* \"@chainlink/contracts/src/v0.8/vendor/BufferChainlink.sol\":4803:4806  buf */\n      dup4\n        /* \"@chainlink/contracts/src/v0.8/vendor/BufferChainlink.sol\":4808:4811  buf */\n      dup5\n        /* \"@chainlink/contracts/src/v0.8/vendor/BufferChainlink.sol\":4808:4815  buf.buf */\n      0x00\n      add\n      mload\n        /* \"@chainlink/contracts/src/v0.8/vendor/BufferChainlink.sol\":4808:4822  buf.buf.length */\n      mload\n        /* \"@chainlink/contracts/src/v0.8/vendor/BufferChainlink.sol\":4824:4828  data */\n      dup5\n        /* \"@chainlink/contracts/src/v0.8/vendor/BufferChainlink.sol\":4830:4834  data */\n      dup6\n        /* \"@chainlink/contracts/src/v0.8/vendor/BufferChainlink.sol\":4830:4841  data.length */\n      mload\n        /* \"@chainlink/contracts/src/v0.8/vendor/BufferChainlink.sol\":4797:4802  write */\n      tag_213\n        /* \"@chainlink/contracts/src/v0.8/vendor/BufferChainlink.sol\":4797:4842  write(buf, buf.buf.length, data, data.length) */\n      jump\t// in\n    tag_212:\n        /* \"@chainlink/contracts/src/v0.8/vendor/BufferChainlink.sol\":4790:4842  return write(buf, buf.buf.length, data, data.length) */\n      swap1\n      pop\n        /* \"@chainlink/contracts/src/v0.8/vendor/BufferChainlink.sol\":4692:4847  function append(buffer memory buf, bytes memory data) internal pure returns (buffer memory) {... */\n      swap3\n      swap2\n      pop\n      pop\n      jump\t// out\n        /* \"@chainlink/contracts/src/v0.8/vendor/CBORChainlink.sol\":2547:2773  function encodeSignedBigNum(BufferChainlink.buffer memory buf, int input) internal pure {... */\n    tag_156:\n        /* \"@chainlink/contracts/src/v0.8/vendor/CBORChainlink.sol\":2641:2713  buf.appendUint8(uint8((MAJOR_TYPE_TAG << 5) | TAG_TYPE_NEGATIVE_BIGNUM)) */\n      tag_215\n        /* \"@chainlink/contracts/src/v0.8/vendor/CBORChainlink.sol\":676:677  3 */\n      0x03\n        /* \"@chainlink/contracts/src/v0.8/vendor/CBORChainlink.sol\":2682:2683  5 */\n      0x05\n        /* \"@chainlink/contracts/src/v0.8/vendor/CBORChainlink.sol\":520:521  6 */\n      0x06\n        /* \"@chainlink/contracts/src/v0.8/vendor/CBORChainlink.sol\":2664:2683  MAJOR_TYPE_TAG << 5 */\n      0xff\n      and\n      swap1\n      shl\n        /* \"@chainlink/contracts/src/v0.8/vendor/CBORChainlink.sol\":2663:2711  (MAJOR_TYPE_TAG << 5) | TAG_TYPE_NEGATIVE_BIGNUM */\n      or\n        /* \"@chainlink/contracts/src/v0.8/vendor/CBORChainlink.sol\":2641:2644  buf */\n      dup4\n        /* \"@chainlink/contracts/src/v0.8/vendor/CBORChainlink.sol\":2641:2656  buf.appendUint8 */\n      tag_193\n      swap1\n        /* \"@chainlink/contracts/src/v0.8/vendor/CBORChainlink.sol\":2641:2713  buf.appendUint8(uint8((MAJOR_TYPE_TAG << 5) | TAG_TYPE_NEGATIVE_BIGNUM)) */\n      swap2\n      swap1\n      0xffffffff\n      and\n      jump\t// in\n    tag_215:\n      pop\n        /* \"@chainlink/contracts/src/v0.8/vendor/CBORChainlink.sol\":2719:2768  encodeBytes(buf, abi.encode(uint256(-1 - input))) */\n      tag_216\n        /* \"@chainlink/contracts/src/v0.8/vendor/CBORChainlink.sol\":2731:2734  buf */\n      dup3\n        /* \"@chainlink/contracts/src/v0.8/vendor/CBORChainlink.sol\":2760:2765  input */\n      dup3\n        /* \"@chainlink/contracts/src/v0.8/vendor/CBORChainlink.sol\":2755:2757  -1 */\n      0xffffffffffffffffffffffffffffffffffffffffffffffffffffffffffffffff\n        /* \"@chainlink/contracts/src/v0.8/vendor/CBORChainlink.sol\":2755:2765  -1 - input */\n      tag_217\n      swap2\n      swap1\n      tag_167\n      jump\t// in\n    tag_217:\n        /* \"@chainlink/contracts/src/v0.8/vendor/CBORChainlink.sol\":2736:2767  abi.encode(uint256(-1 - input)) */\n      add(0x20, mload(0x40))\n      tag_218\n      swap2\n      swap1\n      tag_31\n      jump\t// in\n    tag_218:\n      mload(0x40)\n      0x20\n      dup2\n      dup4\n      sub\n      sub\n      dup2\n      mstore\n      swap1\n      0x40\n      mstore\n        /* \"@chainlink/contracts/src/v0.8/vendor/CBORChainlink.sol\":2719:2730  encodeBytes */\n      tag_219\n        /* \"@chainlink/contracts/src/v0.8/vendor/CBORChainlink.sol\":2719:2768  encodeBytes(buf, abi.encode(uint256(-1 - input))) */\n      jump\t// in\n    tag_216:\n        /* \"@chainlink/contracts/src/v0.8/vendor/CBORChainlink.sol\":2547:2773  function encodeSignedBigNum(BufferChainlink.buffer memory buf, int input) internal pure {... */\n      pop\n      pop\n      jump\t// out\n        /* \"@chainlink/contracts/src/v0.8/vendor/CBORChainlink.sol\":2345:2543  function encodeBigNum(BufferChainlink.buffer memory buf, uint value) internal pure {... */\n    tag_160:\n        /* \"@chainlink/contracts/src/v0.8/vendor/CBORChainlink.sol\":2434:2497  buf.appendUint8(uint8((MAJOR_TYPE_TAG << 5) | TAG_TYPE_BIGNUM)) */\n      tag_221\n        /* \"@chainlink/contracts/src/v0.8/vendor/CBORChainlink.sol\":621:622  2 */\n      0x02\n        /* \"@chainlink/contracts/src/v0.8/vendor/CBORChainlink.sol\":2475:2476  5 */\n      0x05\n        /* \"@chainlink/contracts/src/v0.8/vendor/CBORChainlink.sol\":520:521  6 */\n      0x06\n        /* \"@chainlink/contracts/src/v0.8/vendor/CBORChainlink.sol\":2457:2476  MAJOR_TYPE_TAG << 5 */\n      0xff\n      and\n      swap1\n      shl\n        /* \"@chainlink/contracts/src/v0.8/vendor/CBORChainlink.sol\":2456:2495  (MAJOR_TYPE_TAG << 5) | TAG_TYPE_BIGNUM */\n      or\n        /* \"@chainlink/contracts/src/v0.8/vendor/CBORChainlink.sol\":2434:2437  buf */\n      dup4\n        /* \"@chainlink/contracts/src/v0.8/vendor/CBORChainlink.sol\":2434:2449  buf.appendUint8 */\n      tag_193\n      swap1\n        /* \"@chainlink/contracts/src/v0.8/vendor/CBORChainlink.sol\":2434:2497  buf.appendUint8(uint8((MAJOR_TYPE_TAG << 5) | TAG_TYPE_BIGNUM)) */\n      swap2\n      swap1\n      0xffffffff\n      and\n      jump\t// in\n    tag_221:\n      pop\n        /* \"@chainlink/contracts/src/v0.8/vendor/CBORChainlink.sol\":2503:2538  encodeBytes(buf, abi.encode(value)) */\n      tag_222\n        /* \"@chainlink/contracts/src/v0.8/vendor/CBORChainlink.sol\":2515:2518  buf */\n      dup3\n        /* \"@chainlink/contracts/src/v0.8/vendor/CBORChainlink.sol\":2531:2536  value */\n      dup3\n        /* \"@chainlink/contracts/src/v0.8/vendor/CBORChainlink.sol\":2520:2537  abi.encode(value) */\n      add(0x20, mload(0x40))\n      tag_223\n      swap2\n      swap1\n      tag_31\n      jump\t// in\n    tag_223:\n      mload(0x40)\n      0x20\n      dup2\n      dup4\n      sub\n      sub\n      dup2\n      mstore\n      swap1\n      0x40\n      mstore\n        /* \"@chainlink/contracts/src/v0.8/vendor/CBORChainlink.sol\":2503:2514  encodeBytes */\n      tag_219\n        /* \"@chainlink/contracts/src/v0.8/vendor/CBORChainlink.sol\":2503:2538  encodeBytes(buf, abi.encode(value)) */\n      jump\t// in\n    tag_222:\n        /* \"@chainlink/contracts/src/v0.8/vendor/CBORChainlink.sol\":2345:2543  function encodeBigNum(BufferChainlink.buffer memory buf, uint value) internal pure {... */\n      pop\n      pop\n      jump\t// out\n        /* \"@chainlink/contracts/src/v0.8/vendor/BufferChainlink.sol\":6040:6185  function appendUint8(buffer memory buf, uint8 data) internal pure returns (buffer memory) {... */\n    tag_193:\n        /* \"@chainlink/contracts/src/v0.8/vendor/BufferChainlink.sol\":6115:6128  buffer memory */\n      tag_224\n      tag_181\n      jump\t// in\n    tag_224:\n        /* \"@chainlink/contracts/src/v0.8/vendor/BufferChainlink.sol\":6143:6180  writeUint8(buf, buf.buf.length, data) */\n      tag_226\n        /* \"@chainlink/contracts/src/v0.8/vendor/BufferChainlink.sol\":6154:6157  buf */\n      dup4\n        /* \"@chainlink/contracts/src/v0.8/vendor/BufferChainlink.sol\":6159:6162  buf */\n      dup5\n        /* \"@chainlink/contracts/src/v0.8/vendor/BufferChainlink.sol\":6159:6166  buf.buf */\n      0x00\n      add\n      mload\n        /* \"@chainlink/contracts/src/v0.8/vendor/BufferChainlink.sol\":6159:6173  buf.buf.length */\n      mload\n        /* \"@chainlink/contracts/src/v0.8/vendor/BufferChainlink.sol\":6175:6179  data */\n      dup5\n        /* \"@chainlink/contracts/src/v0.8/vendor/BufferChainlink.sol\":6143:6153  writeUint8 */\n      tag_227\n        /* \"@chainlink/contracts/src/v0.8/vendor/BufferChainlink.sol\":6143:6180  writeUint8(buf, buf.buf.length, data) */\n      jump\t// in\n    tag_226:\n        /* \"@chainlink/contracts/src/v0.8/vendor/BufferChainlink.sol\":6136:6180  return writeUint8(buf, buf.buf.length, data) */\n      swap1\n      pop\n        /* \"@chainlink/contracts/src/v0.8/vendor/BufferChainlink.sol\":6040:6185  function appendUint8(buffer memory buf, uint8 data) internal pure returns (buffer memory) {... */\n      swap3\n      swap2\n      pop\n      pop\n      jump\t// out\n        /* \"@chainlink/contracts/src/v0.8/vendor/BufferChainlink.sol\":9894:10071  function appendInt(... */\n    tag_198:\n        /* \"@chainlink/contracts/src/v0.8/vendor/BufferChainlink.sol\":9998:10011  buffer memory */\n      tag_228\n      tag_181\n      jump\t// in\n    tag_228:\n        /* \"@chainlink/contracts/src/v0.8/vendor/BufferChainlink.sol\":10026:10066  writeInt(buf, buf.buf.length, data, len) */\n      tag_230\n        /* \"@chainlink/contracts/src/v0.8/vendor/BufferChainlink.sol\":10035:10038  buf */\n      dup5\n        /* \"@chainlink/contracts/src/v0.8/vendor/BufferChainlink.sol\":10040:10043  buf */\n      dup6\n        /* \"@chainlink/contracts/src/v0.8/vendor/BufferChainlink.sol\":10040:10047  buf.buf */\n      0x00\n      add\n      mload\n        /* \"@chainlink/contracts/src/v0.8/vendor/BufferChainlink.sol\":10040:10054  buf.buf.length */\n      mload\n        /* \"@chainlink/contracts/src/v0.8/vendor/BufferChainlink.sol\":10056:10060  data */\n      dup6\n        /* \"@chainlink/contracts/src/v0.8/vendor/BufferChainlink.sol\":10062:10065  len */\n      dup6\n        /* \"@chainlink/contracts/src/v0.8/vendor/BufferChainlink.sol\":10026:10034  writeInt */\n      tag_231\n        /* \"@chainlink/contracts/src/v0.8/vendor/BufferChainlink.sol\":10026:10066  writeInt(buf, buf.buf.length, data, len) */\n      jump\t// in\n    tag_230:\n        /* \"@chainlink/contracts/src/v0.8/vendor/BufferChainlink.sol\":10019:10066  return writeInt(buf, buf.buf.length, data, len) */\n      swap1\n      pop\n        /* \"@chainlink/contracts/src/v0.8/vendor/BufferChainlink.sol\":9894:10071  function appendInt(... */\n      swap4\n      swap3\n      pop\n      pop\n      pop\n      jump\t// out\n        /* \"@chainlink/contracts/src/v0.8/vendor/BufferChainlink.sol\":2745:3955  function write(... */\n    tag_213:\n        /* \"@chainlink/contracts/src/v0.8/vendor/BufferChainlink.sol\":2867:2880  buffer memory */\n      tag_232\n      tag_181\n      jump\t// in\n    tag_232:\n        /* \"@chainlink/contracts/src/v0.8/vendor/BufferChainlink.sol\":2903:2907  data */\n      dup3\n        /* \"@chainlink/contracts/src/v0.8/vendor/BufferChainlink.sol\":2903:2914  data.length */\n      mload\n        /* \"@chainlink/contracts/src/v0.8/vendor/BufferChainlink.sol\":2896:2899  len */\n      dup3\n        /* \"@chainlink/contracts/src/v0.8/vendor/BufferChainlink.sol\":2896:2914  len <= data.length */\n      gt\n      iszero\n        /* \"@chainlink/contracts/src/v0.8/vendor/BufferChainlink.sol\":2888:2915  require(len <= data.length) */\n      tag_234\n      jumpi\n      0x00\n      dup1\n      revert\n    tag_234:\n        /* \"@chainlink/contracts/src/v0.8/vendor/BufferChainlink.sol\":2938:2941  buf */\n      dup5\n        /* \"@chainlink/contracts/src/v0.8/vendor/BufferChainlink.sol\":2938:2950  buf.capacity */\n      0x20\n      add\n      mload\n        /* \"@chainlink/contracts/src/v0.8/vendor/BufferChainlink.sol\":2932:2935  len */\n      dup3\n        /* \"@chainlink/contracts/src/v0.8/vendor/BufferChainlink.sol\":2926:2929  off */\n      dup6\n        /* \"@chainlink/contracts/src/v0.8/vendor/BufferChainlink.sol\":2926:2935  off + len */\n      tag_235\n      swap2\n      swap1\n      tag_129\n      jump\t// in\n    tag_235:\n        /* \"@chainlink/contracts/src/v0.8/vendor/BufferChainlink.sol\":2926:2950  off + len > buf.capacity */\n      gt\n        /* \"@chainlink/contracts/src/v0.8/vendor/BufferChainlink.sol\":2922:3012  if (off + len > buf.capacity) {... */\n      iszero\n      tag_236\n      jumpi\n        /* \"@chainlink/contracts/src/v0.8/vendor/BufferChainlink.sol\":2960:3005  resize(buf, max(buf.capacity, len + off) * 2) */\n      tag_237\n        /* \"@chainlink/contracts/src/v0.8/vendor/BufferChainlink.sol\":2967:2970  buf */\n      dup6\n        /* \"@chainlink/contracts/src/v0.8/vendor/BufferChainlink.sol\":3003:3004  2 */\n      0x02\n        /* \"@chainlink/contracts/src/v0.8/vendor/BufferChainlink.sol\":2972:3000  max(buf.capacity, len + off) */\n      tag_238\n        /* \"@chainlink/contracts/src/v0.8/vendor/BufferChainlink.sol\":2976:2979  buf */\n      dup9\n        /* \"@chainlink/contracts/src/v0.8/vendor/BufferChainlink.sol\":2976:2988  buf.capacity */\n      0x20\n      add\n      mload\n        /* \"@chainlink/contracts/src/v0.8/vendor/BufferChainlink.sol\":2996:2999  off */\n      dup9\n        /* \"@chainlink/contracts/src/v0.8/vendor/BufferChainlink.sol\":2990:2993  len */\n      dup8\n        /* \"@chainlink/contracts/src/v0.8/vendor/BufferChainlink.sol\":2990:2999  len + off */\n      tag_239\n      swap2\n      swap1\n      tag_129\n      jump\t// in\n    tag_239:\n        /* \"@chainlink/contracts/src/v0.8/vendor/BufferChainlink.sol\":2972:2975  max */\n      tag_240\n        /* \"@chainlink/contracts/src/v0.8/vendor/BufferChainlink.sol\":2972:3000  max(buf.capacity, len + off) */\n      jump\t// in\n    tag_238:\n        /* \"@chainlink/contracts/src/v0.8/vendor/BufferChainlink.sol\":2972:3004  max(buf.capacity, len + off) * 2 */\n      tag_241\n      swap2\n      swap1\n      tag_92\n      jump\t// in\n    tag_241:\n        /* \"@chainlink/contracts/src/v0.8/vendor/BufferChainlink.sol\":2960:2966  resize */\n      tag_242\n        /* \"@chainlink/contracts/src/v0.8/vendor/BufferChainlink.sol\":2960:3005  resize(buf, max(buf.capacity, len + off) * 2) */\n      jump\t// in\n    tag_237:\n        /* \"@chainlink/contracts/src/v0.8/vendor/BufferChainlink.sol\":2922:3012  if (off + len > buf.capacity) {... */\n    tag_236:\n        /* \"@chainlink/contracts/src/v0.8/vendor/BufferChainlink.sol\":3018:3030  uint256 dest */\n      0x00\n        /* \"@chainlink/contracts/src/v0.8/vendor/BufferChainlink.sol\":3036:3047  uint256 src */\n      dup1\n        /* \"@chainlink/contracts/src/v0.8/vendor/BufferChainlink.sol\":3133:3136  buf */\n      dup7\n        /* \"@chainlink/contracts/src/v0.8/vendor/BufferChainlink.sol\":3127:3137  mload(buf) */\n      mload\n        /* \"@chainlink/contracts/src/v0.8/vendor/BufferChainlink.sol\":3204:3210  bufptr */\n      dup1\n        /* \"@chainlink/contracts/src/v0.8/vendor/BufferChainlink.sol\":3198:3211  mload(bufptr) */\n      mload\n        /* \"@chainlink/contracts/src/v0.8/vendor/BufferChainlink.sol\":3320:3323  off */\n      dup8\n        /* \"@chainlink/contracts/src/v0.8/vendor/BufferChainlink.sol\":3315:3317  32 */\n      0x20\n        /* \"@chainlink/contracts/src/v0.8/vendor/BufferChainlink.sol\":3307:3313  bufptr */\n      dup4\n        /* \"@chainlink/contracts/src/v0.8/vendor/BufferChainlink.sol\":3303:3318  add(bufptr, 32) */\n      add\n        /* \"@chainlink/contracts/src/v0.8/vendor/BufferChainlink.sol\":3299:3324  add(add(bufptr, 32), off) */\n      add\n        /* \"@chainlink/contracts/src/v0.8/vendor/BufferChainlink.sol\":3291:3324  dest := add(add(bufptr, 32), off) */\n      swap4\n      pop\n        /* \"@chainlink/contracts/src/v0.8/vendor/BufferChainlink.sol\":3404:3410  buflen */\n      dup1\n        /* \"@chainlink/contracts/src/v0.8/vendor/BufferChainlink.sol\":3398:3401  off */\n      dup9\n        /* \"@chainlink/contracts/src/v0.8/vendor/BufferChainlink.sol\":3393:3396  len */\n      dup8\n        /* \"@chainlink/contracts/src/v0.8/vendor/BufferChainlink.sol\":3389:3402  add(len, off) */\n      add\n        /* \"@chainlink/contracts/src/v0.8/vendor/BufferChainlink.sol\":3386:3411  gt(add(len, off), buflen) */\n      gt\n        /* \"@chainlink/contracts/src/v0.8/vendor/BufferChainlink.sol\":3383:3459  if gt(add(len, off), buflen) {... */\n      iszero\n      tag_243\n      jumpi\n        /* \"@chainlink/contracts/src/v0.8/vendor/BufferChainlink.sol\":3446:3449  off */\n      dup8\n        /* \"@chainlink/contracts/src/v0.8/vendor/BufferChainlink.sol\":3441:3444  len */\n      dup7\n        /* \"@chainlink/contracts/src/v0.8/vendor/BufferChainlink.sol\":3437:3450  add(len, off) */\n      add\n        /* \"@chainlink/contracts/src/v0.8/vendor/BufferChainlink.sol\":3429:3435  bufptr */\n      dup3\n        /* \"@chainlink/contracts/src/v0.8/vendor/BufferChainlink.sol\":3422:3451  mstore(bufptr, add(len, off)) */\n      mstore\n        /* \"@chainlink/contracts/src/v0.8/vendor/BufferChainlink.sol\":3383:3459  if gt(add(len, off), buflen) {... */\n    tag_243:\n        /* \"@chainlink/contracts/src/v0.8/vendor/BufferChainlink.sol\":3483:3485  32 */\n      0x20\n        /* \"@chainlink/contracts/src/v0.8/vendor/BufferChainlink.sol\":3477:3481  data */\n      dup8\n        /* \"@chainlink/contracts/src/v0.8/vendor/BufferChainlink.sol\":3473:3486  add(data, 32) */\n      add\n        /* \"@chainlink/contracts/src/v0.8/vendor/BufferChainlink.sol\":3466:3486  src := add(data, 32) */\n      swap3\n      pop\n        /* \"@chainlink/contracts/src/v0.8/vendor/BufferChainlink.sol\":3062:3492  {... */\n      pop\n      pop\n        /* \"@chainlink/contracts/src/v0.8/vendor/BufferChainlink.sol\":3544:3673  for (; len >= 32; len -= 32) {... */\n    tag_244:\n        /* \"@chainlink/contracts/src/v0.8/vendor/BufferChainlink.sol\":3558:3560  32 */\n      0x20\n        /* \"@chainlink/contracts/src/v0.8/vendor/BufferChainlink.sol\":3551:3554  len */\n      dup5\n        /* \"@chainlink/contracts/src/v0.8/vendor/BufferChainlink.sol\":3551:3560  len >= 32 */\n      lt\n        /* \"@chainlink/contracts/src/v0.8/vendor/BufferChainlink.sol\":3544:3673  for (; len >= 32; len -= 32) {... */\n      tag_245\n      jumpi\n        /* \"@chainlink/contracts/src/v0.8/vendor/BufferChainlink.sol\":3619:3622  src */\n      dup1\n        /* \"@chainlink/contracts/src/v0.8/vendor/BufferChainlink.sol\":3613:3623  mload(src) */\n      mload\n        /* \"@chainlink/contracts/src/v0.8/vendor/BufferChainlink.sol\":3607:3611  dest */\n      dup3\n        /* \"@chainlink/contracts/src/v0.8/vendor/BufferChainlink.sol\":3600:3624  mstore(dest, mload(src)) */\n      mstore\n        /* \"@chainlink/contracts/src/v0.8/vendor/BufferChainlink.sol\":3647:3649  32 */\n      0x20\n        /* \"@chainlink/contracts/src/v0.8/vendor/BufferChainlink.sol\":3639:3649  dest += 32 */\n      dup3\n      tag_247\n      swap2\n      swap1\n      tag_129\n      jump\t// in\n    tag_247:\n      swap2\n      pop\n        /* \"@chainlink/contracts/src/v0.8/vendor/BufferChainlink.sol\":3664:3666  32 */\n      0x20\n        /* \"@chainlink/contracts/src/v0.8/vendor/BufferChainlink.sol\":3657:3666  src += 32 */\n      dup2\n      tag_248\n      swap2\n      swap1\n      tag_129\n      jump\t// in\n    tag_248:\n      swap1\n      pop\n        /* \"@chainlink/contracts/src/v0.8/vendor/BufferChainlink.sol\":3569:3571  32 */\n      0x20\n        /* \"@chainlink/contracts/src/v0.8/vendor/BufferChainlink.sol\":3562:3571  len -= 32 */\n      dup5\n      tag_249\n      swap2\n      swap1\n      tag_188\n      jump\t// in\n    tag_249:\n      swap4\n      pop\n        /* \"@chainlink/contracts/src/v0.8/vendor/BufferChainlink.sol\":3544:3673  for (; len >= 32; len -= 32) {... */\n      jump(tag_244)\n    tag_245:\n        /* \"@chainlink/contracts/src/v0.8/vendor/BufferChainlink.sol\":3725:3737  uint256 mask */\n      0x00\n        /* \"@chainlink/contracts/src/v0.8/vendor/BufferChainlink.sol\":3760:3761  1 */\n      0x01\n        /* \"@chainlink/contracts/src/v0.8/vendor/BufferChainlink.sol\":3752:3755  len */\n      dup6\n        /* \"@chainlink/contracts/src/v0.8/vendor/BufferChainlink.sol\":3747:3749  32 */\n      0x20\n        /* \"@chainlink/contracts/src/v0.8/vendor/BufferChainlink.sol\":3747:3755  32 - len */\n      sub\n        /* \"@chainlink/contracts/src/v0.8/vendor/BufferChainlink.sol\":3741:3744  256 */\n      0x0100\n        /* \"@chainlink/contracts/src/v0.8/vendor/BufferChainlink.sol\":3741:3756  256**(32 - len) */\n      exp\n        /* \"@chainlink/contracts/src/v0.8/vendor/BufferChainlink.sol\":3740:3761  (256**(32 - len)) - 1 */\n      sub\n        /* \"@chainlink/contracts/src/v0.8/vendor/BufferChainlink.sol\":3725:3761  uint256 mask = (256**(32 - len)) - 1 */\n      swap1\n      pop\n        /* \"@chainlink/contracts/src/v0.8/vendor/BufferChainlink.sol\":3823:3827  mask */\n      dup1\n        /* \"@chainlink/contracts/src/v0.8/vendor/BufferChainlink.sol\":3819:3828  not(mask) */\n      not\n        /* \"@chainlink/contracts/src/v0.8/vendor/BufferChainlink.sol\":3813:3816  src */\n      dup3\n        /* \"@chainlink/contracts/src/v0.8/vendor/BufferChainlink.sol\":3807:3817  mload(src) */\n      mload\n        /* \"@chainlink/contracts/src/v0.8/vendor/BufferChainlink.sol\":3803:3829  and(mload(src), not(mask)) */\n      and\n        /* \"@chainlink/contracts/src/v0.8/vendor/BufferChainlink.sol\":3871:3875  mask */\n      dup2\n        /* \"@chainlink/contracts/src/v0.8/vendor/BufferChainlink.sol\":3864:3868  dest */\n      dup5\n        /* \"@chainlink/contracts/src/v0.8/vendor/BufferChainlink.sol\":3858:3869  mload(dest) */\n      mload\n        /* \"@chainlink/contracts/src/v0.8/vendor/BufferChainlink.sol\":3854:3876  and(mload(dest), mask) */\n      and\n        /* \"@chainlink/contracts/src/v0.8/vendor/BufferChainlink.sol\":3911:3918  srcpart */\n      dup2\n        /* \"@chainlink/contracts/src/v0.8/vendor/BufferChainlink.sol\":3901:3909  destpart */\n      dup2\n        /* \"@chainlink/contracts/src/v0.8/vendor/BufferChainlink.sol\":3898:3919  or(destpart, srcpart) */\n      or\n        /* \"@chainlink/contracts/src/v0.8/vendor/BufferChainlink.sol\":3892:3896  dest */\n      dup6\n        /* \"@chainlink/contracts/src/v0.8/vendor/BufferChainlink.sol\":3885:3920  mstore(dest, or(destpart, srcpart)) */\n      mstore\n        /* \"@chainlink/contracts/src/v0.8/vendor/BufferChainlink.sol\":3778:3928  {... */\n      pop\n      pop\n      pop\n        /* \"@chainlink/contracts/src/v0.8/vendor/BufferChainlink.sol\":3947:3950  buf */\n      dup7\n        /* \"@chainlink/contracts/src/v0.8/vendor/BufferChainlink.sol\":3940:3950  return buf */\n      swap3\n      pop\n      pop\n      pop\n        /* \"@chainlink/contracts/src/v0.8/vendor/BufferChainlink.sol\":2745:3955  function write(... */\n      swap5\n      swap4\n      pop\n      pop\n      pop\n      pop\n      jump\t// out\n        /* \"@chainlink/contracts/src/v0.8/vendor/CBORChainlink.sol\":2154:2341  function encodeBytes(BufferChainlink.buffer memory buf, bytes memory value) internal pure {... */\n    tag_219:\n        /* \"@chainlink/contracts/src/v0.8/vendor/CBORChainlink.sol\":2250:2313  encodeFixedNumeric(buf, MAJOR_TYPE_BYTES, uint64(value.length)) */\n      tag_251\n        /* \"@chainlink/contracts/src/v0.8/vendor/CBORChainlink.sol\":2269:2272  buf */\n      dup3\n        /* \"@chainlink/contracts/src/v0.8/vendor/CBORChainlink.sol\":335:336  2 */\n      0x02\n        /* \"@chainlink/contracts/src/v0.8/vendor/CBORChainlink.sol\":2299:2304  value */\n      dup4\n        /* \"@chainlink/contracts/src/v0.8/vendor/CBORChainlink.sol\":2299:2311  value.length */\n      mload\n        /* \"@chainlink/contracts/src/v0.8/vendor/CBORChainlink.sol\":2250:2268  encodeFixedNumeric */\n      tag_150\n        /* \"@chainlink/contracts/src/v0.8/vendor/CBORChainlink.sol\":2250:2313  encodeFixedNumeric(buf, MAJOR_TYPE_BYTES, uint64(value.length)) */\n      jump\t// in\n    tag_251:\n        /* \"@chainlink/contracts/src/v0.8/vendor/CBORChainlink.sol\":2319:2336  buf.append(value) */\n      tag_252\n        /* \"@chainlink/contracts/src/v0.8/vendor/CBORChainlink.sol\":2330:2335  value */\n      dup2\n        /* \"@chainlink/contracts/src/v0.8/vendor/CBORChainlink.sol\":2319:2322  buf */\n      dup4\n        /* \"@chainlink/contracts/src/v0.8/vendor/CBORChainlink.sol\":2319:2329  buf.append */\n      tag_152\n      swap1\n        /* \"@chainlink/contracts/src/v0.8/vendor/CBORChainlink.sol\":2319:2336  buf.append(value) */\n      swap2\n      swap1\n      0xffffffff\n      and\n      jump\t// in\n    tag_252:\n      pop\n        /* \"@chainlink/contracts/src/v0.8/vendor/CBORChainlink.sol\":2154:2341  function encodeBytes(BufferChainlink.buffer memory buf, bytes memory value) internal pure {... */\n      pop\n      pop\n      jump\t// out\n        /* \"@chainlink/contracts/src/v0.8/vendor/BufferChainlink.sol\":5148:5787  function writeUint8(... */\n    tag_227:\n        /* \"@chainlink/contracts/src/v0.8/vendor/BufferChainlink.sol\":5251:5264  buffer memory */\n      tag_253\n      tag_181\n      jump\t// in\n    tag_253:\n        /* \"@chainlink/contracts/src/v0.8/vendor/BufferChainlink.sol\":5283:5286  buf */\n      dup4\n        /* \"@chainlink/contracts/src/v0.8/vendor/BufferChainlink.sol\":5283:5295  buf.capacity */\n      0x20\n      add\n      mload\n        /* \"@chainlink/contracts/src/v0.8/vendor/BufferChainlink.sol\":5276:5279  off */\n      dup4\n        /* \"@chainlink/contracts/src/v0.8/vendor/BufferChainlink.sol\":5276:5295  off >= buf.capacity */\n      lt\n        /* \"@chainlink/contracts/src/v0.8/vendor/BufferChainlink.sol\":5272:5341  if (off >= buf.capacity) {... */\n      tag_255\n      jumpi\n        /* \"@chainlink/contracts/src/v0.8/vendor/BufferChainlink.sol\":5305:5334  resize(buf, buf.capacity * 2) */\n      tag_256\n        /* \"@chainlink/contracts/src/v0.8/vendor/BufferChainlink.sol\":5312:5315  buf */\n      dup5\n        /* \"@chainlink/contracts/src/v0.8/vendor/BufferChainlink.sol\":5332:5333  2 */\n      0x02\n        /* \"@chainlink/contracts/src/v0.8/vendor/BufferChainlink.sol\":5317:5320  buf */\n      dup7\n        /* \"@chainlink/contracts/src/v0.8/vendor/BufferChainlink.sol\":5317:5329  buf.capacity */\n      0x20\n      add\n      mload\n        /* \"@chainlink/contracts/src/v0.8/vendor/BufferChainlink.sol\":5317:5333  buf.capacity * 2 */\n      tag_257\n      swap2\n      swap1\n      tag_92\n      jump\t// in\n    tag_257:\n        /* \"@chainlink/contracts/src/v0.8/vendor/BufferChainlink.sol\":5305:5311  resize */\n      tag_242\n        /* \"@chainlink/contracts/src/v0.8/vendor/BufferChainlink.sol\":5305:5334  resize(buf, buf.capacity * 2) */\n      jump\t// in\n    tag_256:\n        /* \"@chainlink/contracts/src/v0.8/vendor/BufferChainlink.sol\":5272:5341  if (off >= buf.capacity) {... */\n    tag_255:\n        /* \"@chainlink/contracts/src/v0.8/vendor/BufferChainlink.sol\":5427:5430  buf */\n      dup4\n        /* \"@chainlink/contracts/src/v0.8/vendor/BufferChainlink.sol\":5421:5431  mload(buf) */\n      mload\n        /* \"@chainlink/contracts/src/v0.8/vendor/BufferChainlink.sol\":5498:5504  bufptr */\n      dup1\n        /* \"@chainlink/contracts/src/v0.8/vendor/BufferChainlink.sol\":5492:5505  mload(bufptr) */\n      mload\n        /* \"@chainlink/contracts/src/v0.8/vendor/BufferChainlink.sol\":5610:5612  32 */\n      0x20\n        /* \"@chainlink/contracts/src/v0.8/vendor/BufferChainlink.sol\":5604:5607  off */\n      dup6\n        /* \"@chainlink/contracts/src/v0.8/vendor/BufferChainlink.sol\":5596:5602  bufptr */\n      dup4\n        /* \"@chainlink/contracts/src/v0.8/vendor/BufferChainlink.sol\":5592:5608  add(bufptr, off) */\n      add\n        /* \"@chainlink/contracts/src/v0.8/vendor/BufferChainlink.sol\":5588:5613  add(add(bufptr, off), 32) */\n      add\n        /* \"@chainlink/contracts/src/v0.8/vendor/BufferChainlink.sol\":5634:5638  data */\n      dup5\n        /* \"@chainlink/contracts/src/v0.8/vendor/BufferChainlink.sol\":5628:5632  dest */\n      dup2\n        /* \"@chainlink/contracts/src/v0.8/vendor/BufferChainlink.sol\":5620:5639  mstore8(dest, data) */\n      mstore8\n        /* \"@chainlink/contracts/src/v0.8/vendor/BufferChainlink.sol\":5705:5711  buflen */\n      dup2\n        /* \"@chainlink/contracts/src/v0.8/vendor/BufferChainlink.sol\":5700:5703  off */\n      dup7\n        /* \"@chainlink/contracts/src/v0.8/vendor/BufferChainlink.sol\":5697:5712  eq(off, buflen) */\n      eq\n        /* \"@chainlink/contracts/src/v0.8/vendor/BufferChainlink.sol\":5694:5761  if eq(off, buflen) {... */\n      iszero\n      tag_258\n      jumpi\n        /* \"@chainlink/contracts/src/v0.8/vendor/BufferChainlink.sol\":5750:5751  1 */\n      0x01\n        /* \"@chainlink/contracts/src/v0.8/vendor/BufferChainlink.sol\":5742:5748  buflen */\n      dup3\n        /* \"@chainlink/contracts/src/v0.8/vendor/BufferChainlink.sol\":5738:5752  add(buflen, 1) */\n      add\n        /* \"@chainlink/contracts/src/v0.8/vendor/BufferChainlink.sol\":5730:5736  bufptr */\n      dup4\n        /* \"@chainlink/contracts/src/v0.8/vendor/BufferChainlink.sol\":5723:5753  mstore(bufptr, add(buflen, 1)) */\n      mstore\n        /* \"@chainlink/contracts/src/v0.8/vendor/BufferChainlink.sol\":5694:5761  if eq(off, buflen) {... */\n    tag_258:\n        /* \"@chainlink/contracts/src/v0.8/vendor/BufferChainlink.sol\":5356:5767  {... */\n      pop\n      pop\n      pop\n        /* \"@chainlink/contracts/src/v0.8/vendor/BufferChainlink.sol\":5779:5782  buf */\n      dup4\n        /* \"@chainlink/contracts/src/v0.8/vendor/BufferChainlink.sol\":5772:5782  return buf */\n      swap1\n      pop\n        /* \"@chainlink/contracts/src/v0.8/vendor/BufferChainlink.sol\":5148:5787  function writeUint8(... */\n      swap4\n      swap3\n      pop\n      pop\n      pop\n      jump\t// out\n        /* \"@chainlink/contracts/src/v0.8/vendor/BufferChainlink.sol\":8974:9649  function writeInt(... */\n    tag_231:\n        /* \"@chainlink/contracts/src/v0.8/vendor/BufferChainlink.sol\":9093:9106  buffer memory */\n      tag_259\n      tag_181\n      jump\t// in\n    tag_259:\n        /* \"@chainlink/contracts/src/v0.8/vendor/BufferChainlink.sol\":9130:9133  buf */\n      dup5\n        /* \"@chainlink/contracts/src/v0.8/vendor/BufferChainlink.sol\":9130:9142  buf.capacity */\n      0x20\n      add\n      mload\n        /* \"@chainlink/contracts/src/v0.8/vendor/BufferChainlink.sol\":9124:9127  off */\n      dup5\n        /* \"@chainlink/contracts/src/v0.8/vendor/BufferChainlink.sol\":9118:9121  len */\n      dup4\n        /* \"@chainlink/contracts/src/v0.8/vendor/BufferChainlink.sol\":9118:9127  len + off */\n      tag_261\n      swap2\n      swap1\n      tag_129\n      jump\t// in\n    tag_261:\n        /* \"@chainlink/contracts/src/v0.8/vendor/BufferChainlink.sol\":9118:9142  len + off > buf.capacity */\n      gt\n        /* \"@chainlink/contracts/src/v0.8/vendor/BufferChainlink.sol\":9114:9187  if (len + off > buf.capacity) {... */\n      iszero\n      tag_262\n      jumpi\n        /* \"@chainlink/contracts/src/v0.8/vendor/BufferChainlink.sol\":9152:9180  resize(buf, (len + off) * 2) */\n      tag_263\n        /* \"@chainlink/contracts/src/v0.8/vendor/BufferChainlink.sol\":9159:9162  buf */\n      dup6\n        /* \"@chainlink/contracts/src/v0.8/vendor/BufferChainlink.sol\":9178:9179  2 */\n      0x02\n        /* \"@chainlink/contracts/src/v0.8/vendor/BufferChainlink.sol\":9171:9174  off */\n      dup7\n        /* \"@chainlink/contracts/src/v0.8/vendor/BufferChainlink.sol\":9165:9168  len */\n      dup6\n        /* \"@chainlink/contracts/src/v0.8/vendor/BufferChainlink.sol\":9165:9174  len + off */\n      tag_264\n      swap2\n      swap1\n      tag_129\n      jump\t// in\n    tag_264:\n        /* \"@chainlink/contracts/src/v0.8/vendor/BufferChainlink.sol\":9164:9179  (len + off) * 2 */\n      tag_265\n      swap2\n      swap1\n      tag_92\n      jump\t// in\n    tag_265:\n        /* \"@chainlink/contracts/src/v0.8/vendor/BufferChainlink.sol\":9152:9158  resize */\n      tag_242\n        /* \"@chainlink/contracts/src/v0.8/vendor/BufferChainlink.sol\":9152:9180  resize(buf, (len + off) * 2) */\n      jump\t// in\n    tag_263:\n        /* \"@chainlink/contracts/src/v0.8/vendor/BufferChainlink.sol\":9114:9187  if (len + off > buf.capacity) {... */\n    tag_262:\n        /* \"@chainlink/contracts/src/v0.8/vendor/BufferChainlink.sol\":9193:9205  uint256 mask */\n      0x00\n        /* \"@chainlink/contracts/src/v0.8/vendor/BufferChainlink.sol\":9221:9222  1 */\n      0x01\n        /* \"@chainlink/contracts/src/v0.8/vendor/BufferChainlink.sol\":9214:9217  len */\n      dup4\n        /* \"@chainlink/contracts/src/v0.8/vendor/BufferChainlink.sol\":9209:9212  256 */\n      0x0100\n        /* \"@chainlink/contracts/src/v0.8/vendor/BufferChainlink.sol\":9209:9217  256**len */\n      tag_266\n      swap2\n      swap1\n      tag_267\n      jump\t// in\n    tag_266:\n        /* \"@chainlink/contracts/src/v0.8/vendor/BufferChainlink.sol\":9208:9222  (256**len) - 1 */\n      tag_268\n      swap2\n      swap1\n      tag_188\n      jump\t// in\n    tag_268:\n        /* \"@chainlink/contracts/src/v0.8/vendor/BufferChainlink.sol\":9193:9222  uint256 mask = (256**len) - 1 */\n      swap1\n      pop\n        /* \"@chainlink/contracts/src/v0.8/vendor/BufferChainlink.sol\":9308:9311  buf */\n      dup6\n        /* \"@chainlink/contracts/src/v0.8/vendor/BufferChainlink.sol\":9302:9312  mload(buf) */\n      mload\n        /* \"@chainlink/contracts/src/v0.8/vendor/BufferChainlink.sol\":9423:9426  len */\n      dup4\n        /* \"@chainlink/contracts/src/v0.8/vendor/BufferChainlink.sol\":9417:9420  off */\n      dup7\n        /* \"@chainlink/contracts/src/v0.8/vendor/BufferChainlink.sol\":9409:9415  bufptr */\n      dup3\n        /* \"@chainlink/contracts/src/v0.8/vendor/BufferChainlink.sol\":9405:9421  add(bufptr, off) */\n      add\n        /* \"@chainlink/contracts/src/v0.8/vendor/BufferChainlink.sol\":9401:9427  add(add(bufptr, off), len) */\n      add\n        /* \"@chainlink/contracts/src/v0.8/vendor/BufferChainlink.sol\":9479:9483  data */\n      dup6\n        /* \"@chainlink/contracts/src/v0.8/vendor/BufferChainlink.sol\":9471:9475  mask */\n      dup4\n        /* \"@chainlink/contracts/src/v0.8/vendor/BufferChainlink.sol\":9467:9476  not(mask) */\n      not\n        /* \"@chainlink/contracts/src/v0.8/vendor/BufferChainlink.sol\":9460:9464  dest */\n      dup3\n        /* \"@chainlink/contracts/src/v0.8/vendor/BufferChainlink.sol\":9454:9465  mload(dest) */\n      mload\n        /* \"@chainlink/contracts/src/v0.8/vendor/BufferChainlink.sol\":9450:9477  and(mload(dest), not(mask)) */\n      and\n        /* \"@chainlink/contracts/src/v0.8/vendor/BufferChainlink.sol\":9447:9484  or(and(mload(dest), not(mask)), data) */\n      or\n        /* \"@chainlink/contracts/src/v0.8/vendor/BufferChainlink.sol\":9441:9445  dest */\n      dup2\n        /* \"@chainlink/contracts/src/v0.8/vendor/BufferChainlink.sol\":9434:9485  mstore(dest, or(and(mload(dest), not(mask)), data)) */\n      mstore\n        /* \"@chainlink/contracts/src/v0.8/vendor/BufferChainlink.sol\":9567:9573  bufptr */\n      dup2\n        /* \"@chainlink/contracts/src/v0.8/vendor/BufferChainlink.sol\":9561:9574  mload(bufptr) */\n      mload\n        /* \"@chainlink/contracts/src/v0.8/vendor/BufferChainlink.sol\":9555:9558  len */\n      dup6\n        /* \"@chainlink/contracts/src/v0.8/vendor/BufferChainlink.sol\":9550:9553  off */\n      dup9\n        /* \"@chainlink/contracts/src/v0.8/vendor/BufferChainlink.sol\":9546:9559  add(off, len) */\n      add\n        /* \"@chainlink/contracts/src/v0.8/vendor/BufferChainlink.sol\":9543:9575  gt(add(off, len), mload(bufptr)) */\n      gt\n        /* \"@chainlink/contracts/src/v0.8/vendor/BufferChainlink.sol\":9540:9623  if gt(add(off, len), mload(bufptr)) {... */\n      iszero\n      tag_269\n      jumpi\n        /* \"@chainlink/contracts/src/v0.8/vendor/BufferChainlink.sol\":9610:9613  len */\n      dup5\n        /* \"@chainlink/contracts/src/v0.8/vendor/BufferChainlink.sol\":9605:9608  off */\n      dup8\n        /* \"@chainlink/contracts/src/v0.8/vendor/BufferChainlink.sol\":9601:9614  add(off, len) */\n      add\n        /* \"@chainlink/contracts/src/v0.8/vendor/BufferChainlink.sol\":9593:9599  bufptr */\n      dup3\n        /* \"@chainlink/contracts/src/v0.8/vendor/BufferChainlink.sol\":9586:9615  mstore(bufptr, add(off, len)) */\n      mstore\n        /* \"@chainlink/contracts/src/v0.8/vendor/BufferChainlink.sol\":9540:9623  if gt(add(off, len), mload(bufptr)) {... */\n    tag_269:\n        /* \"@chainlink/contracts/src/v0.8/vendor/BufferChainlink.sol\":9237:9629  {... */\n      pop\n      pop\n        /* \"@chainlink/contracts/src/v0.8/vendor/BufferChainlink.sol\":9641:9644  buf */\n      dup6\n        /* \"@chainlink/contracts/src/v0.8/vendor/BufferChainlink.sol\":9634:9644  return buf */\n      swap2\n      pop\n      pop\n        /* \"@chainlink/contracts/src/v0.8/vendor/BufferChainlink.sol\":8974:9649  function writeInt(... */\n      swap5\n      swap4\n      pop\n      pop\n      pop\n      pop\n      jump\t// out\n        /* \"@chainlink/contracts/src/v0.8/vendor/BufferChainlink.sol\":1961:2085  function max(uint256 a, uint256 b) private pure returns (uint256) {... */\n    tag_240:\n        /* \"@chainlink/contracts/src/v0.8/vendor/BufferChainlink.sol\":2018:2025  uint256 */\n      0x00\n        /* \"@chainlink/contracts/src/v0.8/vendor/BufferChainlink.sol\":2041:2042  b */\n      dup2\n        /* \"@chainlink/contracts/src/v0.8/vendor/BufferChainlink.sol\":2037:2038  a */\n      dup4\n        /* \"@chainlink/contracts/src/v0.8/vendor/BufferChainlink.sol\":2037:2042  a > b */\n      gt\n        /* \"@chainlink/contracts/src/v0.8/vendor/BufferChainlink.sol\":2033:2067  if (a > b) {... */\n      iszero\n      tag_271\n      jumpi\n        /* \"@chainlink/contracts/src/v0.8/vendor/BufferChainlink.sol\":2059:2060  a */\n      dup3\n        /* \"@chainlink/contracts/src/v0.8/vendor/BufferChainlink.sol\":2052:2060  return a */\n      swap1\n      pop\n      jump(tag_270)\n        /* \"@chainlink/contracts/src/v0.8/vendor/BufferChainlink.sol\":2033:2067  if (a > b) {... */\n    tag_271:\n        /* \"@chainlink/contracts/src/v0.8/vendor/BufferChainlink.sol\":2079:2080  b */\n      dup2\n        /* \"@chainlink/contracts/src/v0.8/vendor/BufferChainlink.sol\":2072:2080  return b */\n      swap1\n      pop\n        /* \"@chainlink/contracts/src/v0.8/vendor/BufferChainlink.sol\":1961:2085  function max(uint256 a, uint256 b) private pure returns (uint256) {... */\n    tag_270:\n      swap3\n      swap2\n      pop\n      pop\n      jump\t// out\n        /* \"@chainlink/contracts/src/v0.8/vendor/BufferChainlink.sol\":1801:1957  function resize(buffer memory buf, uint256 capacity) private pure {... */\n    tag_242:\n        /* \"@chainlink/contracts/src/v0.8/vendor/BufferChainlink.sol\":1873:1892  bytes memory oldbuf */\n      0x00\n        /* \"@chainlink/contracts/src/v0.8/vendor/BufferChainlink.sol\":1895:1898  buf */\n      dup3\n        /* \"@chainlink/contracts/src/v0.8/vendor/BufferChainlink.sol\":1895:1902  buf.buf */\n      0x00\n      add\n      mload\n        /* \"@chainlink/contracts/src/v0.8/vendor/BufferChainlink.sol\":1873:1902  bytes memory oldbuf = buf.buf */\n      swap1\n      pop\n        /* \"@chainlink/contracts/src/v0.8/vendor/BufferChainlink.sol\":1908:1927  init(buf, capacity) */\n      tag_273\n        /* \"@chainlink/contracts/src/v0.8/vendor/BufferChainlink.sol\":1913:1916  buf */\n      dup4\n        /* \"@chainlink/contracts/src/v0.8/vendor/BufferChainlink.sol\":1918:1926  capacity */\n      dup4\n        /* \"@chainlink/contracts/src/v0.8/vendor/BufferChainlink.sol\":1908:1912  init */\n      tag_147\n        /* \"@chainlink/contracts/src/v0.8/vendor/BufferChainlink.sol\":1908:1927  init(buf, capacity) */\n      jump\t// in\n    tag_273:\n      pop\n        /* \"@chainlink/contracts/src/v0.8/vendor/BufferChainlink.sol\":1933:1952  append(buf, oldbuf) */\n      tag_274\n        /* \"@chainlink/contracts/src/v0.8/vendor/BufferChainlink.sol\":1940:1943  buf */\n      dup4\n        /* \"@chainlink/contracts/src/v0.8/vendor/BufferChainlink.sol\":1945:1951  oldbuf */\n      dup3\n        /* \"@chainlink/contracts/src/v0.8/vendor/BufferChainlink.sol\":1933:1939  append */\n      tag_152\n        /* \"@chainlink/contracts/src/v0.8/vendor/BufferChainlink.sol\":1933:1952  append(buf, oldbuf) */\n      jump\t// in\n    tag_274:\n      pop\n        /* \"@chainlink/contracts/src/v0.8/vendor/BufferChainlink.sol\":1867:1957  {... */\n      pop\n        /* \"@chainlink/contracts/src/v0.8/vendor/BufferChainlink.sol\":1801:1957  function resize(buffer memory buf, uint256 capacity) private pure {... */\n      pop\n      pop\n      jump\t// out\n    tag_114:\n      mload(0x40)\n      dup1\n      0xa0\n      add\n      0x40\n      mstore\n      dup1\n      0x00\n      dup1\n      not\n      and\n      dup2\n      mstore\n      0x20\n      add\n      and(0xffffffffffffffffffffffffffffffffffffffff, 0x00)\n      dup2\n      mstore\n      0x20\n      add\n      and(not(0xffffffffffffffffffffffffffffffffffffffffffffffffffffffff), 0x00)\n      dup2\n      mstore\n      0x20\n      add\n      0x00\n      dup2\n      mstore\n      0x20\n      add\n      tag_275\n      tag_181\n      jump\t// in\n    tag_275:\n      dup2\n      mstore\n      pop\n      swap1\n      jump\t// out\n    tag_181:\n      mload(0x40)\n      dup1\n      0x40\n      add\n      0x40\n      mstore\n      dup1\n      0x60\n      dup2\n      mstore\n      0x20\n      add\n      0x00\n      dup2\n      mstore\n      pop\n      swap1\n      jump\t// out\n        /* \"#utility.yul\":7:419   */\n    tag_277:\n        /* \"#utility.yul\":85:90   */\n      0x00\n        /* \"#utility.yul\":110:176   */\n      tag_279\n        /* \"#utility.yul\":126:175   */\n      tag_280\n        /* \"#utility.yul\":168:174   */\n      dup5\n        /* \"#utility.yul\":126:175   */\n      tag_281\n      jump\t// in\n    tag_280:\n        /* \"#utility.yul\":110:176   */\n      tag_282\n      jump\t// in\n    tag_279:\n        /* \"#utility.yul\":101:176   */\n      swap1\n      pop\n        /* \"#utility.yul\":199:205   */\n      dup3\n        /* \"#utility.yul\":192:197   */\n      dup2\n        /* \"#utility.yul\":185:206   */\n      mstore\n        /* \"#utility.yul\":237:241   */\n      0x20\n        /* \"#utility.yul\":230:235   */\n      dup2\n        /* \"#utility.yul\":226:242   */\n      add\n        /* \"#utility.yul\":275:278   */\n      dup5\n        /* \"#utility.yul\":266:272   */\n      dup5\n        /* \"#utility.yul\":261:264   */\n      dup5\n        /* \"#utility.yul\":257:273   */\n      add\n        /* \"#utility.yul\":254:279   */\n      gt\n        /* \"#utility.yul\":251:363   */\n      iszero\n      tag_283\n      jumpi\n        /* \"#utility.yul\":282:361   */\n      tag_284\n      tag_285\n      jump\t// in\n    tag_284:\n        /* \"#utility.yul\":251:363   */\n    tag_283:\n        /* \"#utility.yul\":372:413   */\n      tag_286\n        /* \"#utility.yul\":406:412   */\n      dup5\n        /* \"#utility.yul\":401:404   */\n      dup3\n        /* \"#utility.yul\":396:399   */\n      dup6\n        /* \"#utility.yul\":372:413   */\n      tag_287\n      jump\t// in\n    tag_286:\n        /* \"#utility.yul\":91:419   */\n      pop\n        /* \"#utility.yul\":7:419   */\n      swap4\n      swap3\n      pop\n      pop\n      pop\n      jump\t// out\n        /* \"#utility.yul\":425:564   */\n    tag_288:\n        /* \"#utility.yul\":471:476   */\n      0x00\n        /* \"#utility.yul\":509:515   */\n      dup2\n        /* \"#utility.yul\":496:516   */\n      calldataload\n        /* \"#utility.yul\":487:516   */\n      swap1\n      pop\n        /* \"#utility.yul\":525:558   */\n      tag_290\n        /* \"#utility.yul\":552:557   */\n      dup2\n        /* \"#utility.yul\":525:558   */\n      tag_291\n      jump\t// in\n    tag_290:\n        /* \"#utility.yul\":425:564   */\n      swap3\n      swap2\n      pop\n      pop\n      jump\t// out\n        /* \"#utility.yul\":570:707   */\n    tag_292:\n        /* \"#utility.yul\":624:629   */\n      0x00\n        /* \"#utility.yul\":655:661   */\n      dup2\n        /* \"#utility.yul\":649:662   */\n      mload\n        /* \"#utility.yul\":640:662   */\n      swap1\n      pop\n        /* \"#utility.yul\":671:701   */\n      tag_294\n        /* \"#utility.yul\":695:700   */\n      dup2\n        /* \"#utility.yul\":671:701   */\n      tag_295\n      jump\t// in\n    tag_294:\n        /* \"#utility.yul\":570:707   */\n      swap3\n      swap2\n      pop\n      pop\n      jump\t// out\n        /* \"#utility.yul\":713:852   */\n    tag_296:\n        /* \"#utility.yul\":759:764   */\n      0x00\n        /* \"#utility.yul\":797:803   */\n      dup2\n        /* \"#utility.yul\":784:804   */\n      calldataload\n        /* \"#utility.yul\":775:804   */\n      swap1\n      pop\n        /* \"#utility.yul\":813:846   */\n      tag_298\n        /* \"#utility.yul\":840:845   */\n      dup2\n        /* \"#utility.yul\":813:846   */\n      tag_299\n      jump\t// in\n    tag_298:\n        /* \"#utility.yul\":713:852   */\n      swap3\n      swap2\n      pop\n      pop\n      jump\t// out\n        /* \"#utility.yul\":858:995   */\n    tag_300:\n        /* \"#utility.yul\":903:908   */\n      0x00\n        /* \"#utility.yul\":941:947   */\n      dup2\n        /* \"#utility.yul\":928:948   */\n      calldataload\n        /* \"#utility.yul\":919:948   */\n      swap1\n      pop\n        /* \"#utility.yul\":957:989   */\n      tag_302\n        /* \"#utility.yul\":983:988   */\n      dup2\n        /* \"#utility.yul\":957:989   */\n      tag_303\n      jump\t// in\n    tag_302:\n        /* \"#utility.yul\":858:995   */\n      swap3\n      swap2\n      pop\n      pop\n      jump\t// out\n        /* \"#utility.yul\":1015:1355   */\n    tag_304:\n        /* \"#utility.yul\":1071:1076   */\n      0x00\n        /* \"#utility.yul\":1120:1123   */\n      dup3\n        /* \"#utility.yul\":1113:1117   */\n      0x1f\n        /* \"#utility.yul\":1105:1111   */\n      dup4\n        /* \"#utility.yul\":1101:1118   */\n      add\n        /* \"#utility.yul\":1097:1124   */\n      slt\n        /* \"#utility.yul\":1087:1209   */\n      tag_306\n      jumpi\n        /* \"#utility.yul\":1128:1207   */\n      tag_307\n      tag_308\n      jump\t// in\n    tag_307:\n        /* \"#utility.yul\":1087:1209   */\n    tag_306:\n        /* \"#utility.yul\":1245:1251   */\n      dup2\n        /* \"#utility.yul\":1232:1252   */\n      calldataload\n        /* \"#utility.yul\":1270:1349   */\n      tag_309\n        /* \"#utility.yul\":1345:1348   */\n      dup5\n        /* \"#utility.yul\":1337:1343   */\n      dup3\n        /* \"#utility.yul\":1330:1334   */\n      0x20\n        /* \"#utility.yul\":1322:1328   */\n      dup7\n        /* \"#utility.yul\":1318:1335   */\n      add\n        /* \"#utility.yul\":1270:1349   */\n      tag_277\n      jump\t// in\n    tag_309:\n        /* \"#utility.yul\":1261:1349   */\n      swap2\n      pop\n        /* \"#utility.yul\":1077:1355   */\n      pop\n        /* \"#utility.yul\":1015:1355   */\n      swap3\n      swap2\n      pop\n      pop\n      jump\t// out\n        /* \"#utility.yul\":1361:1500   */\n    tag_310:\n        /* \"#utility.yul\":1407:1412   */\n      0x00\n        /* \"#utility.yul\":1445:1451   */\n      dup2\n        /* \"#utility.yul\":1432:1452   */\n      calldataload\n        /* \"#utility.yul\":1423:1452   */\n      swap1\n      pop\n        /* \"#utility.yul\":1461:1494   */\n      tag_312\n        /* \"#utility.yul\":1488:1493   */\n      dup2\n        /* \"#utility.yul\":1461:1494   */\n      tag_313\n      jump\t// in\n    tag_312:\n        /* \"#utility.yul\":1361:1500   */\n      swap3\n      swap2\n      pop\n      pop\n      jump\t// out\n        /* \"#utility.yul\":1506:1649   */\n    tag_314:\n        /* \"#utility.yul\":1563:1568   */\n      0x00\n        /* \"#utility.yul\":1594:1600   */\n      dup2\n        /* \"#utility.yul\":1588:1601   */\n      mload\n        /* \"#utility.yul\":1579:1601   */\n      swap1\n      pop\n        /* \"#utility.yul\":1610:1643   */\n      tag_316\n        /* \"#utility.yul\":1637:1642   */\n      dup2\n        /* \"#utility.yul\":1610:1643   */\n      tag_313\n      jump\t// in\n    tag_316:\n        /* \"#utility.yul\":1506:1649   */\n      swap3\n      swap2\n      pop\n      pop\n      jump\t// out\n        /* \"#utility.yul\":1655:1984   */\n    tag_42:\n        /* \"#utility.yul\":1714:1720   */\n      0x00\n        /* \"#utility.yul\":1763:1765   */\n      0x20\n        /* \"#utility.yul\":1751:1760   */\n      dup3\n        /* \"#utility.yul\":1742:1749   */\n      dup5\n        /* \"#utility.yul\":1738:1761   */\n      sub\n        /* \"#utility.yul\":1734:1766   */\n      slt\n        /* \"#utility.yul\":1731:1850   */\n      iszero\n      tag_318\n      jumpi\n        /* \"#utility.yul\":1769:1848   */\n      tag_319\n      tag_320\n      jump\t// in\n    tag_319:\n        /* \"#utility.yul\":1731:1850   */\n    tag_318:\n        /* \"#utility.yul\":1889:1890   */\n      0x00\n        /* \"#utility.yul\":1914:1967   */\n      tag_321\n        /* \"#utility.yul\":1959:1966   */\n      dup5\n        /* \"#utility.yul\":1950:1956   */\n      dup3\n        /* \"#utility.yul\":1939:1948   */\n      dup6\n        /* \"#utility.yul\":1935:1957   */\n      add\n        /* \"#utility.yul\":1914:1967   */\n      tag_288\n      jump\t// in\n    tag_321:\n        /* \"#utility.yul\":1904:1967   */\n      swap2\n      pop\n        /* \"#utility.yul\":1860:1977   */\n      pop\n        /* \"#utility.yul\":1655:1984   */\n      swap3\n      swap2\n      pop\n      pop\n      jump\t// out\n        /* \"#utility.yul\":1990:2644   */\n    tag_34:\n        /* \"#utility.yul\":2068:2074   */\n      0x00\n        /* \"#utility.yul\":2076:2082   */\n      dup1\n        /* \"#utility.yul\":2125:2127   */\n      0x40\n        /* \"#utility.yul\":2113:2122   */\n      dup4\n        /* \"#utility.yul\":2104:2111   */\n      dup6\n        /* \"#utility.yul\":2100:2123   */\n      sub\n        /* \"#utility.yul\":2096:2128   */\n      slt\n        /* \"#utility.yul\":2093:2212   */\n      iszero\n      tag_323\n      jumpi\n        /* \"#utility.yul\":2131:2210   */\n      tag_324\n      tag_320\n      jump\t// in\n    tag_324:\n        /* \"#utility.yul\":2093:2212   */\n    tag_323:\n        /* \"#utility.yul\":2251:2252   */\n      0x00\n        /* \"#utility.yul\":2276:2329   */\n      tag_325\n        /* \"#utility.yul\":2321:2328   */\n      dup6\n        /* \"#utility.yul\":2312:2318   */\n      dup3\n        /* \"#utility.yul\":2301:2310   */\n      dup7\n        /* \"#utility.yul\":2297:2319   */\n      add\n        /* \"#utility.yul\":2276:2329   */\n      tag_288\n      jump\t// in\n    tag_325:\n        /* \"#utility.yul\":2266:2329   */\n      swap3\n      pop\n        /* \"#utility.yul\":2222:2339   */\n      pop\n        /* \"#utility.yul\":2406:2408   */\n      0x20\n        /* \"#utility.yul\":2395:2404   */\n      dup4\n        /* \"#utility.yul\":2391:2409   */\n      add\n        /* \"#utility.yul\":2378:2410   */\n      calldataload\n        /* \"#utility.yul\":2437:2455   */\n      0xffffffffffffffff\n        /* \"#utility.yul\":2429:2435   */\n      dup2\n        /* \"#utility.yul\":2426:2456   */\n      gt\n        /* \"#utility.yul\":2423:2540   */\n      iszero\n      tag_326\n      jumpi\n        /* \"#utility.yul\":2459:2538   */\n      tag_327\n      tag_328\n      jump\t// in\n    tag_327:\n        /* \"#utility.yul\":2423:2540   */\n    tag_326:\n        /* \"#utility.yul\":2564:2627   */\n      tag_329\n        /* \"#utility.yul\":2619:2626   */\n      dup6\n        /* \"#utility.yul\":2610:2616   */\n      dup3\n        /* \"#utility.yul\":2599:2608   */\n      dup7\n        /* \"#utility.yul\":2595:2617   */\n      add\n        /* \"#utility.yul\":2564:2627   */\n      tag_304\n      jump\t// in\n    tag_329:\n        /* \"#utility.yul\":2554:2627   */\n      swap2\n      pop\n        /* \"#utility.yul\":2349:2637   */\n      pop\n        /* \"#utility.yul\":1990:2644   */\n      swap3\n      pop\n      swap3\n      swap1\n      pop\n      jump\t// out\n        /* \"#utility.yul\":2650:2995   */\n    tag_69:\n        /* \"#utility.yul\":2717:2723   */\n      0x00\n        /* \"#utility.yul\":2766:2768   */\n      0x20\n        /* \"#utility.yul\":2754:2763   */\n      dup3\n        /* \"#utility.yul\":2745:2752   */\n      dup5\n        /* \"#utility.yul\":2741:2764   */\n      sub\n        /* \"#utility.yul\":2737:2769   */\n      slt\n        /* \"#utility.yul\":2734:2853   */\n      iszero\n      tag_331\n      jumpi\n        /* \"#utility.yul\":2772:2851   */\n      tag_332\n      tag_320\n      jump\t// in\n    tag_332:\n        /* \"#utility.yul\":2734:2853   */\n    tag_331:\n        /* \"#utility.yul\":2892:2893   */\n      0x00\n        /* \"#utility.yul\":2917:2978   */\n      tag_333\n        /* \"#utility.yul\":2970:2977   */\n      dup5\n        /* \"#utility.yul\":2961:2967   */\n      dup3\n        /* \"#utility.yul\":2950:2959   */\n      dup6\n        /* \"#utility.yul\":2946:2968   */\n      add\n        /* \"#utility.yul\":2917:2978   */\n      tag_292\n      jump\t// in\n    tag_333:\n        /* \"#utility.yul\":2907:2978   */\n      swap2\n      pop\n        /* \"#utility.yul\":2863:2988   */\n      pop\n        /* \"#utility.yul\":2650:2995   */\n      swap3\n      swap2\n      pop\n      pop\n      jump\t// out\n        /* \"#utility.yul\":3001:3475   */\n    tag_26:\n        /* \"#utility.yul\":3069:3075   */\n      0x00\n        /* \"#utility.yul\":3077:3083   */\n      dup1\n        /* \"#utility.yul\":3126:3128   */\n      0x40\n        /* \"#utility.yul\":3114:3123   */\n      dup4\n        /* \"#utility.yul\":3105:3112   */\n      dup6\n        /* \"#utility.yul\":3101:3124   */\n      sub\n        /* \"#utility.yul\":3097:3129   */\n      slt\n        /* \"#utility.yul\":3094:3213   */\n      iszero\n      tag_335\n      jumpi\n        /* \"#utility.yul\":3132:3211   */\n      tag_336\n      tag_320\n      jump\t// in\n    tag_336:\n        /* \"#utility.yul\":3094:3213   */\n    tag_335:\n        /* \"#utility.yul\":3252:3253   */\n      0x00\n        /* \"#utility.yul\":3277:3330   */\n      tag_337\n        /* \"#utility.yul\":3322:3329   */\n      dup6\n        /* \"#utility.yul\":3313:3319   */\n      dup3\n        /* \"#utility.yul\":3302:3311   */\n      dup7\n        /* \"#utility.yul\":3298:3320   */\n      add\n        /* \"#utility.yul\":3277:3330   */\n      tag_296\n      jump\t// in\n    tag_337:\n        /* \"#utility.yul\":3267:3330   */\n      swap3\n      pop\n        /* \"#utility.yul\":3223:3340   */\n      pop\n        /* \"#utility.yul\":3379:3381   */\n      0x20\n        /* \"#utility.yul\":3405:3458   */\n      tag_338\n        /* \"#utility.yul\":3450:3457   */\n      dup6\n        /* \"#utility.yul\":3441:3447   */\n      dup3\n        /* \"#utility.yul\":3430:3439   */\n      dup7\n        /* \"#utility.yul\":3426:3448   */\n      add\n        /* \"#utility.yul\":3405:3458   */\n      tag_310\n      jump\t// in\n    tag_338:\n        /* \"#utility.yul\":3395:3458   */\n      swap2\n      pop\n        /* \"#utility.yul\":3350:3468   */\n      pop\n        /* \"#utility.yul\":3001:3475   */\n      swap3\n      pop\n      swap3\n      swap1\n      pop\n      jump\t// out\n        /* \"#utility.yul\":3481:4244   */\n    tag_38:\n        /* \"#utility.yul\":3566:3572   */\n      0x00\n        /* \"#utility.yul\":3574:3580   */\n      dup1\n        /* \"#utility.yul\":3582:3588   */\n      0x00\n        /* \"#utility.yul\":3590:3596   */\n      dup1\n        /* \"#utility.yul\":3639:3642   */\n      0x80\n        /* \"#utility.yul\":3627:3636   */\n      dup6\n        /* \"#utility.yul\":3618:3625   */\n      dup8\n        /* \"#utility.yul\":3614:3637   */\n      sub\n        /* \"#utility.yul\":3610:3643   */\n      slt\n        /* \"#utility.yul\":3607:3727   */\n      iszero\n      tag_340\n      jumpi\n        /* \"#utility.yul\":3646:3725   */\n      tag_341\n      tag_320\n      jump\t// in\n    tag_341:\n        /* \"#utility.yul\":3607:3727   */\n    tag_340:\n        /* \"#utility.yul\":3766:3767   */\n      0x00\n        /* \"#utility.yul\":3791:3844   */\n      tag_342\n        /* \"#utility.yul\":3836:3843   */\n      dup8\n        /* \"#utility.yul\":3827:3833   */\n      dup3\n        /* \"#utility.yul\":3816:3825   */\n      dup9\n        /* \"#utility.yul\":3812:3834   */\n      add\n        /* \"#utility.yul\":3791:3844   */\n      tag_296\n      jump\t// in\n    tag_342:\n        /* \"#utility.yul\":3781:3844   */\n      swap5\n      pop\n        /* \"#utility.yul\":3737:3854   */\n      pop\n        /* \"#utility.yul\":3893:3895   */\n      0x20\n        /* \"#utility.yul\":3919:3972   */\n      tag_343\n        /* \"#utility.yul\":3964:3971   */\n      dup8\n        /* \"#utility.yul\":3955:3961   */\n      dup3\n        /* \"#utility.yul\":3944:3953   */\n      dup9\n        /* \"#utility.yul\":3940:3962   */\n      add\n        /* \"#utility.yul\":3919:3972   */\n      tag_310\n      jump\t// in\n    tag_343:\n        /* \"#utility.yul\":3909:3972   */\n      swap4\n      pop\n        /* \"#utility.yul\":3864:3982   */\n      pop\n        /* \"#utility.yul\":4021:4023   */\n      0x40\n        /* \"#utility.yul\":4047:4099   */\n      tag_344\n        /* \"#utility.yul\":4091:4098   */\n      dup8\n        /* \"#utility.yul\":4082:4088   */\n      dup3\n        /* \"#utility.yul\":4071:4080   */\n      dup9\n        /* \"#utility.yul\":4067:4089   */\n      add\n        /* \"#utility.yul\":4047:4099   */\n      tag_300\n      jump\t// in\n    tag_344:\n        /* \"#utility.yul\":4037:4099   */\n      swap3\n      pop\n        /* \"#utility.yul\":3992:4109   */\n      pop\n        /* \"#utility.yul\":4148:4150   */\n      0x60\n        /* \"#utility.yul\":4174:4227   */\n      tag_345\n        /* \"#utility.yul\":4219:4226   */\n      dup8\n        /* \"#utility.yul\":4210:4216   */\n      dup3\n        /* \"#utility.yul\":4199:4208   */\n      dup9\n        /* \"#utility.yul\":4195:4217   */\n      add\n        /* \"#utility.yul\":4174:4227   */\n      tag_310\n      jump\t// in\n    tag_345:\n        /* \"#utility.yul\":4164:4227   */\n      swap2\n      pop\n        /* \"#utility.yul\":4119:4237   */\n      pop\n        /* \"#utility.yul\":3481:4244   */\n      swap3\n      swap6\n      swap2\n      swap5\n      pop\n      swap3\n      pop\n      jump\t// out\n        /* \"#utility.yul\":4250:4601   */\n    tag_62:\n        /* \"#utility.yul\":4320:4326   */\n      0x00\n        /* \"#utility.yul\":4369:4371   */\n      0x20\n        /* \"#utility.yul\":4357:4366   */\n      dup3\n        /* \"#utility.yul\":4348:4355   */\n      dup5\n        /* \"#utility.yul\":4344:4367   */\n      sub\n        /* \"#utility.yul\":4340:4372   */\n      slt\n        /* \"#utility.yul\":4337:4456   */\n      iszero\n      tag_347\n      jumpi\n        /* \"#utility.yul\":4375:4454   */\n      tag_348\n      tag_320\n      jump\t// in\n    tag_348:\n        /* \"#utility.yul\":4337:4456   */\n    tag_347:\n        /* \"#utility.yul\":4495:4496   */\n      0x00\n        /* \"#utility.yul\":4520:4584   */\n      tag_349\n        /* \"#utility.yul\":4576:4583   */\n      dup5\n        /* \"#utility.yul\":4567:4573   */\n      dup3\n        /* \"#utility.yul\":4556:4565   */\n      dup6\n        /* \"#utility.yul\":4552:4574   */\n      add\n        /* \"#utility.yul\":4520:4584   */\n      tag_314\n      jump\t// in\n    tag_349:\n        /* \"#utility.yul\":4510:4584   */\n      swap2\n      pop\n        /* \"#utility.yul\":4466:4594   */\n      pop\n        /* \"#utility.yul\":4250:4601   */\n      swap3\n      swap2\n      pop\n      pop\n      jump\t// out\n        /* \"#utility.yul\":4607:4725   */\n    tag_350:\n        /* \"#utility.yul\":4694:4718   */\n      tag_352\n        /* \"#utility.yul\":4712:4717   */\n      dup2\n        /* \"#utility.yul\":4694:4718   */\n      tag_353\n      jump\t// in\n    tag_352:\n        /* \"#utility.yul\":4689:4692   */\n      dup3\n        /* \"#utility.yul\":4682:4719   */\n      mstore\n        /* \"#utility.yul\":4607:4725   */\n      pop\n      pop\n      jump\t// out\n        /* \"#utility.yul\":4731:4849   */\n    tag_354:\n        /* \"#utility.yul\":4818:4842   */\n      tag_356\n        /* \"#utility.yul\":4836:4841   */\n      dup2\n        /* \"#utility.yul\":4818:4842   */\n      tag_357\n      jump\t// in\n    tag_356:\n        /* \"#utility.yul\":4813:4816   */\n      dup3\n        /* \"#utility.yul\":4806:4843   */\n      mstore\n        /* \"#utility.yul\":4731:4849   */\n      pop\n      pop\n      jump\t// out\n        /* \"#utility.yul\":4855:4970   */\n    tag_358:\n        /* \"#utility.yul\":4940:4963   */\n      tag_360\n        /* \"#utility.yul\":4957:4962   */\n      dup2\n        /* \"#utility.yul\":4940:4963   */\n      tag_361\n      jump\t// in\n    tag_360:\n        /* \"#utility.yul\":4935:4938   */\n      dup3\n        /* \"#utility.yul\":4928:4964   */\n      mstore\n        /* \"#utility.yul\":4855:4970   */\n      pop\n      pop\n      jump\t// out\n        /* \"#utility.yul\":4976:5336   */\n    tag_362:\n        /* \"#utility.yul\":5062:5065   */\n      0x00\n        /* \"#utility.yul\":5090:5128   */\n      tag_364\n        /* \"#utility.yul\":5122:5127   */\n      dup3\n        /* \"#utility.yul\":5090:5128   */\n      tag_365\n      jump\t// in\n    tag_364:\n        /* \"#utility.yul\":5144:5214   */\n      tag_366\n        /* \"#utility.yul\":5207:5213   */\n      dup2\n        /* \"#utility.yul\":5202:5205   */\n      dup6\n        /* \"#utility.yul\":5144:5214   */\n      tag_367\n      jump\t// in\n    tag_366:\n        /* \"#utility.yul\":5137:5214   */\n      swap4\n      pop\n        /* \"#utility.yul\":5223:5275   */\n      tag_368\n        /* \"#utility.yul\":5268:5274   */\n      dup2\n        /* \"#utility.yul\":5263:5266   */\n      dup6\n        /* \"#utility.yul\":5256:5260   */\n      0x20\n        /* \"#utility.yul\":5249:5254   */\n      dup7\n        /* \"#utility.yul\":5245:5261   */\n      add\n        /* \"#utility.yul\":5223:5275   */\n      tag_369\n      jump\t// in\n    tag_368:\n        /* \"#utility.yul\":5300:5329   */\n      tag_370\n        /* \"#utility.yul\":5322:5328   */\n      dup2\n        /* \"#utility.yul\":5300:5329   */\n      tag_371\n      jump\t// in\n    tag_370:\n        /* \"#utility.yul\":5295:5298   */\n      dup5\n        /* \"#utility.yul\":5291:5330   */\n      add\n        /* \"#utility.yul\":5284:5330   */\n      swap2\n      pop\n        /* \"#utility.yul\":5066:5336   */\n      pop\n        /* \"#utility.yul\":4976:5336   */\n      swap3\n      swap2\n      pop\n      pop\n      jump\t// out\n        /* \"#utility.yul\":5342:5558   */\n    tag_372:\n        /* \"#utility.yul\":5470:5551   */\n      tag_374\n        /* \"#utility.yul\":5490:5550   */\n      tag_375\n        /* \"#utility.yul\":5544:5549   */\n      dup3\n        /* \"#utility.yul\":5490:5550   */\n      tag_376\n      jump\t// in\n    tag_375:\n        /* \"#utility.yul\":5470:5551   */\n      tag_377\n      jump\t// in\n    tag_374:\n        /* \"#utility.yul\":5465:5468   */\n      dup3\n        /* \"#utility.yul\":5458:5552   */\n      mstore\n        /* \"#utility.yul\":5342:5558   */\n      pop\n      pop\n      jump\t// out\n        /* \"#utility.yul\":5564:5930   */\n    tag_378:\n        /* \"#utility.yul\":5706:5709   */\n      0x00\n        /* \"#utility.yul\":5727:5794   */\n      tag_380\n        /* \"#utility.yul\":5791:5793   */\n      0x16\n        /* \"#utility.yul\":5786:5789   */\n      dup4\n        /* \"#utility.yul\":5727:5794   */\n      tag_381\n      jump\t// in\n    tag_380:\n        /* \"#utility.yul\":5720:5794   */\n      swap2\n      pop\n        /* \"#utility.yul\":5803:5896   */\n      tag_382\n        /* \"#utility.yul\":5892:5895   */\n      dup3\n        /* \"#utility.yul\":5803:5896   */\n      tag_383\n      jump\t// in\n    tag_382:\n        /* \"#utility.yul\":5921:5923   */\n      0x20\n        /* \"#utility.yul\":5916:5919   */\n      dup3\n        /* \"#utility.yul\":5912:5924   */\n      add\n        /* \"#utility.yul\":5905:5924   */\n      swap1\n      pop\n        /* \"#utility.yul\":5564:5930   */\n      swap2\n      swap1\n      pop\n      jump\t// out\n        /* \"#utility.yul\":5936:6302   */\n    tag_384:\n        /* \"#utility.yul\":6078:6081   */\n      0x00\n        /* \"#utility.yul\":6099:6166   */\n      tag_386\n        /* \"#utility.yul\":6163:6165   */\n      0x23\n        /* \"#utility.yul\":6158:6161   */\n      dup4\n        /* \"#utility.yul\":6099:6166   */\n      tag_381\n      jump\t// in\n    tag_386:\n        /* \"#utility.yul\":6092:6166   */\n      swap2\n      pop\n        /* \"#utility.yul\":6175:6268   */\n      tag_387\n        /* \"#utility.yul\":6264:6267   */\n      dup3\n        /* \"#utility.yul\":6175:6268   */\n      tag_388\n      jump\t// in\n    tag_387:\n        /* \"#utility.yul\":6293:6295   */\n      0x40\n        /* \"#utility.yul\":6288:6291   */\n      dup3\n        /* \"#utility.yul\":6284:6296   */\n      add\n        /* \"#utility.yul\":6277:6296   */\n      swap1\n      pop\n        /* \"#utility.yul\":5936:6302   */\n      swap2\n      swap1\n      pop\n      jump\t// out\n        /* \"#utility.yul\":6308:6674   */\n    tag_389:\n        /* \"#utility.yul\":6450:6453   */\n      0x00\n        /* \"#utility.yul\":6471:6538   */\n      tag_391\n        /* \"#utility.yul\":6535:6537   */\n      0x16\n        /* \"#utility.yul\":6530:6533   */\n      dup4\n        /* \"#utility.yul\":6471:6538   */\n      tag_381\n      jump\t// in\n    tag_391:\n        /* \"#utility.yul\":6464:6538   */\n      swap2\n      pop\n        /* \"#utility.yul\":6547:6640   */\n      tag_392\n        /* \"#utility.yul\":6636:6639   */\n      dup3\n        /* \"#utility.yul\":6547:6640   */\n      tag_393\n      jump\t// in\n    tag_392:\n        /* \"#utility.yul\":6665:6667   */\n      0x20\n        /* \"#utility.yul\":6660:6663   */\n      dup3\n        /* \"#utility.yul\":6656:6668   */\n      add\n        /* \"#utility.yul\":6649:6668   */\n      swap1\n      pop\n        /* \"#utility.yul\":6308:6674   */\n      swap2\n      swap1\n      pop\n      jump\t// out\n        /* \"#utility.yul\":6680:7046   */\n    tag_394:\n        /* \"#utility.yul\":6822:6825   */\n      0x00\n        /* \"#utility.yul\":6843:6910   */\n      tag_396\n        /* \"#utility.yul\":6907:6909   */\n      0x12\n        /* \"#utility.yul\":6902:6905   */\n      dup4\n        /* \"#utility.yul\":6843:6910   */\n      tag_381\n      jump\t// in\n    tag_396:\n        /* \"#utility.yul\":6836:6910   */\n      swap2\n      pop\n        /* \"#utility.yul\":6919:7012   */\n      tag_397\n        /* \"#utility.yul\":7008:7011   */\n      dup3\n        /* \"#utility.yul\":6919:7012   */\n      tag_398\n      jump\t// in\n    tag_397:\n        /* \"#utility.yul\":7037:7039   */\n      0x20\n        /* \"#utility.yul\":7032:7035   */\n      dup3\n        /* \"#utility.yul\":7028:7040   */\n      add\n        /* \"#utility.yul\":7021:7040   */\n      swap1\n      pop\n        /* \"#utility.yul\":6680:7046   */\n      swap2\n      swap1\n      pop\n      jump\t// out\n        /* \"#utility.yul\":7052:7418   */\n    tag_399:\n        /* \"#utility.yul\":7194:7197   */\n      0x00\n        /* \"#utility.yul\":7215:7282   */\n      tag_401\n        /* \"#utility.yul\":7279:7281   */\n      0x17\n        /* \"#utility.yul\":7274:7277   */\n      dup4\n        /* \"#utility.yul\":7215:7282   */\n      tag_381\n      jump\t// in\n    tag_401:\n        /* \"#utility.yul\":7208:7282   */\n      swap2\n      pop\n        /* \"#utility.yul\":7291:7384   */\n      tag_402\n        /* \"#utility.yul\":7380:7383   */\n      dup3\n        /* \"#utility.yul\":7291:7384   */\n      tag_403\n      jump\t// in\n    tag_402:\n        /* \"#utility.yul\":7409:7411   */\n      0x20\n        /* \"#utility.yul\":7404:7407   */\n      dup3\n        /* \"#utility.yul\":7400:7412   */\n      add\n        /* \"#utility.yul\":7393:7412   */\n      swap1\n      pop\n        /* \"#utility.yul\":7052:7418   */\n      swap2\n      swap1\n      pop\n      jump\t// out\n        /* \"#utility.yul\":7424:7790   */\n    tag_404:\n        /* \"#utility.yul\":7566:7569   */\n      0x00\n        /* \"#utility.yul\":7587:7654   */\n      tag_406\n        /* \"#utility.yul\":7651:7653   */\n      0x28\n        /* \"#utility.yul\":7646:7649   */\n      dup4\n        /* \"#utility.yul\":7587:7654   */\n      tag_381\n      jump\t// in\n    tag_406:\n        /* \"#utility.yul\":7580:7654   */\n      swap2\n      pop\n        /* \"#utility.yul\":7663:7756   */\n      tag_407\n        /* \"#utility.yul\":7752:7755   */\n      dup3\n        /* \"#utility.yul\":7663:7756   */\n      tag_408\n      jump\t// in\n    tag_407:\n        /* \"#utility.yul\":7781:7783   */\n      0x40\n        /* \"#utility.yul\":7776:7779   */\n      dup3\n        /* \"#utility.yul\":7772:7784   */\n      add\n        /* \"#utility.yul\":7765:7784   */\n      swap1\n      pop\n        /* \"#utility.yul\":7424:7790   */\n      swap2\n      swap1\n      pop\n      jump\t// out\n        /* \"#utility.yul\":7796:7914   */\n    tag_409:\n        /* \"#utility.yul\":7883:7907   */\n      tag_411\n        /* \"#utility.yul\":7901:7906   */\n      dup2\n        /* \"#utility.yul\":7883:7907   */\n      tag_412\n      jump\t// in\n    tag_411:\n        /* \"#utility.yul\":7878:7881   */\n      dup3\n        /* \"#utility.yul\":7871:7908   */\n      mstore\n        /* \"#utility.yul\":7796:7914   */\n      pop\n      pop\n      jump\t// out\n        /* \"#utility.yul\":7920:8077   */\n    tag_413:\n        /* \"#utility.yul\":8025:8070   */\n      tag_415\n        /* \"#utility.yul\":8045:8069   */\n      tag_416\n        /* \"#utility.yul\":8063:8068   */\n      dup3\n        /* \"#utility.yul\":8045:8069   */\n      tag_412\n      jump\t// in\n    tag_416:\n        /* \"#utility.yul\":8025:8070   */\n      tag_417\n      jump\t// in\n    tag_415:\n        /* \"#utility.yul\":8020:8023   */\n      dup3\n        /* \"#utility.yul\":8013:8071   */\n      mstore\n        /* \"#utility.yul\":7920:8077   */\n      pop\n      pop\n      jump\t// out\n        /* \"#utility.yul\":8083:8526   */\n    tag_170:\n        /* \"#utility.yul\":8246:8249   */\n      0x00\n        /* \"#utility.yul\":8261:8359   */\n      tag_419\n        /* \"#utility.yul\":8355:8358   */\n      dup3\n        /* \"#utility.yul\":8346:8352   */\n      dup6\n        /* \"#utility.yul\":8261:8359   */\n      tag_372\n      jump\t// in\n    tag_419:\n        /* \"#utility.yul\":8384:8386   */\n      0x14\n        /* \"#utility.yul\":8379:8382   */\n      dup3\n        /* \"#utility.yul\":8375:8387   */\n      add\n        /* \"#utility.yul\":8368:8387   */\n      swap2\n      pop\n        /* \"#utility.yul\":8397:8472   */\n      tag_420\n        /* \"#utility.yul\":8468:8471   */\n      dup3\n        /* \"#utility.yul\":8459:8465   */\n      dup5\n        /* \"#utility.yul\":8397:8472   */\n      tag_413\n      jump\t// in\n    tag_420:\n        /* \"#utility.yul\":8497:8499   */\n      0x20\n        /* \"#utility.yul\":8492:8495   */\n      dup3\n        /* \"#utility.yul\":8488:8500   */\n      add\n        /* \"#utility.yul\":8481:8500   */\n      swap2\n      pop\n        /* \"#utility.yul\":8517:8520   */\n      dup2\n        /* \"#utility.yul\":8510:8520   */\n      swap1\n      pop\n        /* \"#utility.yul\":8083:8526   */\n      swap4\n      swap3\n      pop\n      pop\n      pop\n      jump\t// out\n        /* \"#utility.yul\":8532:8754   */\n    tag_16:\n        /* \"#utility.yul\":8625:8629   */\n      0x00\n        /* \"#utility.yul\":8663:8665   */\n      0x20\n        /* \"#utility.yul\":8652:8661   */\n      dup3\n        /* \"#utility.yul\":8648:8666   */\n      add\n        /* \"#utility.yul\":8640:8666   */\n      swap1\n      pop\n        /* \"#utility.yul\":8676:8747   */\n      tag_422\n        /* \"#utility.yul\":8744:8745   */\n      0x00\n        /* \"#utility.yul\":8733:8742   */\n      dup4\n        /* \"#utility.yul\":8729:8746   */\n      add\n        /* \"#utility.yul\":8720:8726   */\n      dup5\n        /* \"#utility.yul\":8676:8747   */\n      tag_350\n      jump\t// in\n    tag_422:\n        /* \"#utility.yul\":8532:8754   */\n      swap3\n      swap2\n      pop\n      pop\n      jump\t// out\n        /* \"#utility.yul\":8760:9092   */\n    tag_64:\n        /* \"#utility.yul\":8881:8885   */\n      0x00\n        /* \"#utility.yul\":8919:8921   */\n      0x40\n        /* \"#utility.yul\":8908:8917   */\n      dup3\n        /* \"#utility.yul\":8904:8922   */\n      add\n        /* \"#utility.yul\":8896:8922   */\n      swap1\n      pop\n        /* \"#utility.yul\":8932:9003   */\n      tag_424\n        /* \"#utility.yul\":9000:9001   */\n      0x00\n        /* \"#utility.yul\":8989:8998   */\n      dup4\n        /* \"#utility.yul\":8985:9002   */\n      add\n        /* \"#utility.yul\":8976:8982   */\n      dup6\n        /* \"#utility.yul\":8932:9003   */\n      tag_350\n      jump\t// in\n    tag_424:\n        /* \"#utility.yul\":9013:9085   */\n      tag_425\n        /* \"#utility.yul\":9081:9083   */\n      0x20\n        /* \"#utility.yul\":9070:9079   */\n      dup4\n        /* \"#utility.yul\":9066:9084   */\n      add\n        /* \"#utility.yul\":9057:9063   */\n      dup5\n        /* \"#utility.yul\":9013:9085   */\n      tag_409\n      jump\t// in\n    tag_425:\n        /* \"#utility.yul\":8760:9092   */\n      swap4\n      swap3\n      pop\n      pop\n      pop\n      jump\t// out\n        /* \"#utility.yul\":9098:10178   */\n    tag_131:\n        /* \"#utility.yul\":9403:9407   */\n      0x00\n        /* \"#utility.yul\":9441:9444   */\n      0x0100\n        /* \"#utility.yul\":9430:9439   */\n      dup3\n        /* \"#utility.yul\":9426:9445   */\n      add\n        /* \"#utility.yul\":9418:9445   */\n      swap1\n      pop\n        /* \"#utility.yul\":9455:9526   */\n      tag_427\n        /* \"#utility.yul\":9523:9524   */\n      0x00\n        /* \"#utility.yul\":9512:9521   */\n      dup4\n        /* \"#utility.yul\":9508:9525   */\n      add\n        /* \"#utility.yul\":9499:9505   */\n      dup12\n        /* \"#utility.yul\":9455:9526   */\n      tag_350\n      jump\t// in\n    tag_427:\n        /* \"#utility.yul\":9536:9608   */\n      tag_428\n        /* \"#utility.yul\":9604:9606   */\n      0x20\n        /* \"#utility.yul\":9593:9602   */\n      dup4\n        /* \"#utility.yul\":9589:9607   */\n      add\n        /* \"#utility.yul\":9580:9586   */\n      dup11\n        /* \"#utility.yul\":9536:9608   */\n      tag_409\n      jump\t// in\n    tag_428:\n        /* \"#utility.yul\":9618:9690   */\n      tag_429\n        /* \"#utility.yul\":9686:9688   */\n      0x40\n        /* \"#utility.yul\":9675:9684   */\n      dup4\n        /* \"#utility.yul\":9671:9689   */\n      add\n        /* \"#utility.yul\":9662:9668   */\n      dup10\n        /* \"#utility.yul\":9618:9690   */\n      tag_354\n      jump\t// in\n    tag_429:\n        /* \"#utility.yul\":9700:9772   */\n      tag_430\n        /* \"#utility.yul\":9768:9770   */\n      0x60\n        /* \"#utility.yul\":9757:9766   */\n      dup4\n        /* \"#utility.yul\":9753:9771   */\n      add\n        /* \"#utility.yul\":9744:9750   */\n      dup9\n        /* \"#utility.yul\":9700:9772   */\n      tag_350\n      jump\t// in\n    tag_430:\n        /* \"#utility.yul\":9782:9853   */\n      tag_431\n        /* \"#utility.yul\":9848:9851   */\n      0x80\n        /* \"#utility.yul\":9837:9846   */\n      dup4\n        /* \"#utility.yul\":9833:9852   */\n      add\n        /* \"#utility.yul\":9824:9830   */\n      dup8\n        /* \"#utility.yul\":9782:9853   */\n      tag_358\n      jump\t// in\n    tag_431:\n        /* \"#utility.yul\":9863:9936   */\n      tag_432\n        /* \"#utility.yul\":9931:9934   */\n      0xa0\n        /* \"#utility.yul\":9920:9929   */\n      dup4\n        /* \"#utility.yul\":9916:9935   */\n      add\n        /* \"#utility.yul\":9907:9913   */\n      dup7\n        /* \"#utility.yul\":9863:9936   */\n      tag_409\n      jump\t// in\n    tag_432:\n        /* \"#utility.yul\":9946:10019   */\n      tag_433\n        /* \"#utility.yul\":10014:10017   */\n      0xc0\n        /* \"#utility.yul\":10003:10012   */\n      dup4\n        /* \"#utility.yul\":9999:10018   */\n      add\n        /* \"#utility.yul\":9990:9996   */\n      dup6\n        /* \"#utility.yul\":9946:10019   */\n      tag_409\n      jump\t// in\n    tag_433:\n        /* \"#utility.yul\":10067:10076   */\n      dup2\n        /* \"#utility.yul\":10061:10065   */\n      dup2\n        /* \"#utility.yul\":10057:10077   */\n      sub\n        /* \"#utility.yul\":10051:10054   */\n      0xe0\n        /* \"#utility.yul\":10040:10049   */\n      dup4\n        /* \"#utility.yul\":10036:10055   */\n      add\n        /* \"#utility.yul\":10029:10078   */\n      mstore\n        /* \"#utility.yul\":10095:10171   */\n      tag_434\n        /* \"#utility.yul\":10166:10170   */\n      dup2\n        /* \"#utility.yul\":10157:10163   */\n      dup5\n        /* \"#utility.yul\":10095:10171   */\n      tag_362\n      jump\t// in\n    tag_434:\n        /* \"#utility.yul\":10087:10171   */\n      swap1\n      pop\n        /* \"#utility.yul\":9098:10178   */\n      swap10\n      swap9\n      pop\n      pop\n      pop\n      pop\n      pop\n      pop\n      pop\n      pop\n      pop\n      jump\t// out\n        /* \"#utility.yul\":10184:10713   */\n    tag_172:\n        /* \"#utility.yul\":10351:10355   */\n      0x00\n        /* \"#utility.yul\":10389:10391   */\n      0x60\n        /* \"#utility.yul\":10378:10387   */\n      dup3\n        /* \"#utility.yul\":10374:10392   */\n      add\n        /* \"#utility.yul\":10366:10392   */\n      swap1\n      pop\n        /* \"#utility.yul\":10402:10473   */\n      tag_436\n        /* \"#utility.yul\":10470:10471   */\n      0x00\n        /* \"#utility.yul\":10459:10468   */\n      dup4\n        /* \"#utility.yul\":10455:10472   */\n      add\n        /* \"#utility.yul\":10446:10452   */\n      dup7\n        /* \"#utility.yul\":10402:10473   */\n      tag_350\n      jump\t// in\n    tag_436:\n        /* \"#utility.yul\":10483:10555   */\n      tag_437\n        /* \"#utility.yul\":10551:10553   */\n      0x20\n        /* \"#utility.yul\":10540:10549   */\n      dup4\n        /* \"#utility.yul\":10536:10554   */\n      add\n        /* \"#utility.yul\":10527:10533   */\n      dup6\n        /* \"#utility.yul\":10483:10555   */\n      tag_409\n      jump\t// in\n    tag_437:\n        /* \"#utility.yul\":10602:10611   */\n      dup2\n        /* \"#utility.yul\":10596:10600   */\n      dup2\n        /* \"#utility.yul\":10592:10612   */\n      sub\n        /* \"#utility.yul\":10587:10589   */\n      0x40\n        /* \"#utility.yul\":10576:10585   */\n      dup4\n        /* \"#utility.yul\":10572:10590   */\n      add\n        /* \"#utility.yul\":10565:10613   */\n      mstore\n        /* \"#utility.yul\":10630:10706   */\n      tag_438\n        /* \"#utility.yul\":10701:10705   */\n      dup2\n        /* \"#utility.yul\":10692:10698   */\n      dup5\n        /* \"#utility.yul\":10630:10706   */\n      tag_362\n      jump\t// in\n    tag_438:\n        /* \"#utility.yul\":10622:10706   */\n      swap1\n      pop\n        /* \"#utility.yul\":10184:10713   */\n      swap5\n      swap4\n      pop\n      pop\n      pop\n      pop\n      jump\t// out\n        /* \"#utility.yul\":10719:11268   */\n    tag_136:\n        /* \"#utility.yul\":10894:10898   */\n      0x00\n        /* \"#utility.yul\":10932:10935   */\n      0x80\n        /* \"#utility.yul\":10921:10930   */\n      dup3\n        /* \"#utility.yul\":10917:10936   */\n      add\n        /* \"#utility.yul\":10909:10936   */\n      swap1\n      pop\n        /* \"#utility.yul\":10946:11017   */\n      tag_440\n        /* \"#utility.yul\":11014:11015   */\n      0x00\n        /* \"#utility.yul\":11003:11012   */\n      dup4\n        /* \"#utility.yul\":10999:11016   */\n      add\n        /* \"#utility.yul\":10990:10996   */\n      dup8\n        /* \"#utility.yul\":10946:11017   */\n      tag_354\n      jump\t// in\n    tag_440:\n        /* \"#utility.yul\":11027:11099   */\n      tag_441\n        /* \"#utility.yul\":11095:11097   */\n      0x20\n        /* \"#utility.yul\":11084:11093   */\n      dup4\n        /* \"#utility.yul\":11080:11098   */\n      add\n        /* \"#utility.yul\":11071:11077   */\n      dup7\n        /* \"#utility.yul\":11027:11099   */\n      tag_409\n      jump\t// in\n    tag_441:\n        /* \"#utility.yul\":11109:11179   */\n      tag_442\n        /* \"#utility.yul\":11175:11177   */\n      0x40\n        /* \"#utility.yul\":11164:11173   */\n      dup4\n        /* \"#utility.yul\":11160:11178   */\n      add\n        /* \"#utility.yul\":11151:11157   */\n      dup6\n        /* \"#utility.yul\":11109:11179   */\n      tag_358\n      jump\t// in\n    tag_442:\n        /* \"#utility.yul\":11189:11261   */\n      tag_443\n        /* \"#utility.yul\":11257:11259   */\n      0x60\n        /* \"#utility.yul\":11246:11255   */\n      dup4\n        /* \"#utility.yul\":11242:11260   */\n      add\n        /* \"#utility.yul\":11233:11239   */\n      dup5\n        /* \"#utility.yul\":11189:11261   */\n      tag_409\n      jump\t// in\n    tag_443:\n        /* \"#utility.yul\":10719:11268   */\n      swap6\n      swap5\n      pop\n      pop\n      pop\n      pop\n      pop\n      jump\t// out\n        /* \"#utility.yul\":11274:11693   */\n    tag_50:\n        /* \"#utility.yul\":11440:11444   */\n      0x00\n        /* \"#utility.yul\":11478:11480   */\n      0x20\n        /* \"#utility.yul\":11467:11476   */\n      dup3\n        /* \"#utility.yul\":11463:11481   */\n      add\n        /* \"#utility.yul\":11455:11481   */\n      swap1\n      pop\n        /* \"#utility.yul\":11527:11536   */\n      dup2\n        /* \"#utility.yul\":11521:11525   */\n      dup2\n        /* \"#utility.yul\":11517:11537   */\n      sub\n        /* \"#utility.yul\":11513:11514   */\n      0x00\n        /* \"#utility.yul\":11502:11511   */\n      dup4\n        /* \"#utility.yul\":11498:11515   */\n      add\n        /* \"#utility.yul\":11491:11538   */\n      mstore\n        /* \"#utility.yul\":11555:11686   */\n      tag_445\n        /* \"#utility.yul\":11681:11685   */\n      dup2\n        /* \"#utility.yul\":11555:11686   */\n      tag_378\n      jump\t// in\n    tag_445:\n        /* \"#utility.yul\":11547:11686   */\n      swap1\n      pop\n        /* \"#utility.yul\":11274:11693   */\n      swap2\n      swap1\n      pop\n      jump\t// out\n        /* \"#utility.yul\":11699:12118   */\n    tag_179:\n        /* \"#utility.yul\":11865:11869   */\n      0x00\n        /* \"#utility.yul\":11903:11905   */\n      0x20\n        /* \"#utility.yul\":11892:11901   */\n      dup3\n        /* \"#utility.yul\":11888:11906   */\n      add\n        /* \"#utility.yul\":11880:11906   */\n      swap1\n      pop\n        /* \"#utility.yul\":11952:11961   */\n      dup2\n        /* \"#utility.yul\":11946:11950   */\n      dup2\n        /* \"#utility.yul\":11942:11962   */\n      sub\n        /* \"#utility.yul\":11938:11939   */\n      0x00\n        /* \"#utility.yul\":11927:11936   */\n      dup4\n        /* \"#utility.yul\":11923:11940   */\n      add\n        /* \"#utility.yul\":11916:11963   */\n      mstore\n        /* \"#utility.yul\":11980:12111   */\n      tag_447\n        /* \"#utility.yul\":12106:12110   */\n      dup2\n        /* \"#utility.yul\":11980:12111   */\n      tag_384\n      jump\t// in\n    tag_447:\n        /* \"#utility.yul\":11972:12111   */\n      swap1\n      pop\n        /* \"#utility.yul\":11699:12118   */\n      swap2\n      swap1\n      pop\n      jump\t// out\n        /* \"#utility.yul\":12124:12543   */\n    tag_110:\n        /* \"#utility.yul\":12290:12294   */\n      0x00\n        /* \"#utility.yul\":12328:12330   */\n      0x20\n        /* \"#utility.yul\":12317:12326   */\n      dup3\n        /* \"#utility.yul\":12313:12331   */\n      add\n        /* \"#utility.yul\":12305:12331   */\n      swap1\n      pop\n        /* \"#utility.yul\":12377:12386   */\n      dup2\n        /* \"#utility.yul\":12371:12375   */\n      dup2\n        /* \"#utility.yul\":12367:12387   */\n      sub\n        /* \"#utility.yul\":12363:12364   */\n      0x00\n        /* \"#utility.yul\":12352:12361   */\n      dup4\n        /* \"#utility.yul\":12348:12365   */\n      add\n        /* \"#utility.yul\":12341:12388   */\n      mstore\n        /* \"#utility.yul\":12405:12536   */\n      tag_449\n        /* \"#utility.yul\":12531:12535   */\n      dup2\n        /* \"#utility.yul\":12405:12536   */\n      tag_389\n      jump\t// in\n    tag_449:\n        /* \"#utility.yul\":12397:12536   */\n      swap1\n      pop\n        /* \"#utility.yul\":12124:12543   */\n      swap2\n      swap1\n      pop\n      jump\t// out\n        /* \"#utility.yul\":12549:12968   */\n    tag_72:\n        /* \"#utility.yul\":12715:12719   */\n      0x00\n        /* \"#utility.yul\":12753:12755   */\n      0x20\n        /* \"#utility.yul\":12742:12751   */\n      dup3\n        /* \"#utility.yul\":12738:12756   */\n      add\n        /* \"#utility.yul\":12730:12756   */\n      swap1\n      pop\n        /* \"#utility.yul\":12802:12811   */\n      dup2\n        /* \"#utility.yul\":12796:12800   */\n      dup2\n        /* \"#utility.yul\":12792:12812   */\n      sub\n        /* \"#utility.yul\":12788:12789   */\n      0x00\n        /* \"#utility.yul\":12777:12786   */\n      dup4\n        /* \"#utility.yul\":12773:12790   */\n      add\n        /* \"#utility.yul\":12766:12813   */\n      mstore\n        /* \"#utility.yul\":12830:12961   */\n      tag_451\n        /* \"#utility.yul\":12956:12960   */\n      dup2\n        /* \"#utility.yul\":12830:12961   */\n      tag_394\n      jump\t// in\n    tag_451:\n        /* \"#utility.yul\":12822:12961   */\n      swap1\n      pop\n        /* \"#utility.yul\":12549:12968   */\n      swap2\n      swap1\n      pop\n      jump\t// out\n        /* \"#utility.yul\":12974:13393   */\n    tag_143:\n        /* \"#utility.yul\":13140:13144   */\n      0x00\n        /* \"#utility.yul\":13178:13180   */\n      0x20\n        /* \"#utility.yul\":13167:13176   */\n      dup3\n        /* \"#utility.yul\":13163:13181   */\n      add\n        /* \"#utility.yul\":13155:13181   */\n      swap1\n      pop\n        /* \"#utility.yul\":13227:13236   */\n      dup2\n        /* \"#utility.yul\":13221:13225   */\n      dup2\n        /* \"#utility.yul\":13217:13237   */\n      sub\n        /* \"#utility.yul\":13213:13214   */\n      0x00\n        /* \"#utility.yul\":13202:13211   */\n      dup4\n        /* \"#utility.yul\":13198:13215   */\n      add\n        /* \"#utility.yul\":13191:13238   */\n      mstore\n        /* \"#utility.yul\":13255:13386   */\n      tag_453\n        /* \"#utility.yul\":13381:13385   */\n      dup2\n        /* \"#utility.yul\":13255:13386   */\n      tag_399\n      jump\t// in\n    tag_453:\n        /* \"#utility.yul\":13247:13386   */\n      swap1\n      pop\n        /* \"#utility.yul\":12974:13393   */\n      swap2\n      swap1\n      pop\n      jump\t// out\n        /* \"#utility.yul\":13399:13818   */\n    tag_76:\n        /* \"#utility.yul\":13565:13569   */\n      0x00\n        /* \"#utility.yul\":13603:13605   */\n      0x20\n        /* \"#utility.yul\":13592:13601   */\n      dup3\n        /* \"#utility.yul\":13588:13606   */\n      add\n        /* \"#utility.yul\":13580:13606   */\n      swap1\n      pop\n        /* \"#utility.yul\":13652:13661   */\n      dup2\n        /* \"#utility.yul\":13646:13650   */\n      dup2\n        /* \"#utility.yul\":13642:13662   */\n      sub\n        /* \"#utility.yul\":13638:13639   */\n      0x00\n        /* \"#utility.yul\":13627:13636   */\n      dup4\n        /* \"#utility.yul\":13623:13640   */\n      add\n        /* \"#utility.yul\":13616:13663   */\n      mstore\n        /* \"#utility.yul\":13680:13811   */\n      tag_455\n        /* \"#utility.yul\":13806:13810   */\n      dup2\n        /* \"#utility.yul\":13680:13811   */\n      tag_404\n      jump\t// in\n    tag_455:\n        /* \"#utility.yul\":13672:13811   */\n      swap1\n      pop\n        /* \"#utility.yul\":13399:13818   */\n      swap2\n      swap1\n      pop\n      jump\t// out\n        /* \"#utility.yul\":13824:14046   */\n    tag_31:\n        /* \"#utility.yul\":13917:13921   */\n      0x00\n        /* \"#utility.yul\":13955:13957   */\n      0x20\n        /* \"#utility.yul\":13944:13953   */\n      dup3\n        /* \"#utility.yul\":13940:13958   */\n      add\n        /* \"#utility.yul\":13932:13958   */\n      swap1\n      pop\n        /* \"#utility.yul\":13968:14039   */\n      tag_457\n        /* \"#utility.yul\":14036:14037   */\n      0x00\n        /* \"#utility.yul\":14025:14034   */\n      dup4\n        /* \"#utility.yul\":14021:14038   */\n      add\n        /* \"#utility.yul\":14012:14018   */\n      dup5\n        /* \"#utility.yul\":13968:14039   */\n      tag_409\n      jump\t// in\n    tag_457:\n        /* \"#utility.yul\":13824:14046   */\n      swap3\n      swap2\n      pop\n      pop\n      jump\t// out\n        /* \"#utility.yul\":14052:14181   */\n    tag_282:\n        /* \"#utility.yul\":14086:14092   */\n      0x00\n        /* \"#utility.yul\":14113:14133   */\n      tag_459\n      tag_460\n      jump\t// in\n    tag_459:\n        /* \"#utility.yul\":14103:14133   */\n      swap1\n      pop\n        /* \"#utility.yul\":14142:14175   */\n      tag_461\n        /* \"#utility.yul\":14170:14174   */\n      dup3\n        /* \"#utility.yul\":14162:14168   */\n      dup3\n        /* \"#utility.yul\":14142:14175   */\n      tag_462\n      jump\t// in\n    tag_461:\n        /* \"#utility.yul\":14052:14181   */\n      swap2\n      swap1\n      pop\n      jump\t// out\n        /* \"#utility.yul\":14187:14262   */\n    tag_460:\n        /* \"#utility.yul\":14220:14226   */\n      0x00\n        /* \"#utility.yul\":14253:14255   */\n      0x40\n        /* \"#utility.yul\":14247:14256   */\n      mload\n        /* \"#utility.yul\":14237:14256   */\n      swap1\n      pop\n        /* \"#utility.yul\":14187:14262   */\n      swap1\n      jump\t// out\n        /* \"#utility.yul\":14268:14576   */\n    tag_281:\n        /* \"#utility.yul\":14330:14334   */\n      0x00\n        /* \"#utility.yul\":14420:14438   */\n      0xffffffffffffffff\n        /* \"#utility.yul\":14412:14418   */\n      dup3\n        /* \"#utility.yul\":14409:14439   */\n      gt\n        /* \"#utility.yul\":14406:14462   */\n      iszero\n      tag_465\n      jumpi\n        /* \"#utility.yul\":14442:14460   */\n      tag_466\n      tag_467\n      jump\t// in\n    tag_466:\n        /* \"#utility.yul\":14406:14462   */\n    tag_465:\n        /* \"#utility.yul\":14480:14509   */\n      tag_468\n        /* \"#utility.yul\":14502:14508   */\n      dup3\n        /* \"#utility.yul\":14480:14509   */\n      tag_371\n      jump\t// in\n    tag_468:\n        /* \"#utility.yul\":14472:14509   */\n      swap1\n      pop\n        /* \"#utility.yul\":14564:14568   */\n      0x20\n        /* \"#utility.yul\":14558:14562   */\n      dup2\n        /* \"#utility.yul\":14554:14569   */\n      add\n        /* \"#utility.yul\":14546:14569   */\n      swap1\n      pop\n        /* \"#utility.yul\":14268:14576   */\n      swap2\n      swap1\n      pop\n      jump\t// out\n        /* \"#utility.yul\":14582:14680   */\n    tag_365:\n        /* \"#utility.yul\":14633:14639   */\n      0x00\n        /* \"#utility.yul\":14667:14672   */\n      dup2\n        /* \"#utility.yul\":14661:14673   */\n      mload\n        /* \"#utility.yul\":14651:14673   */\n      swap1\n      pop\n        /* \"#utility.yul\":14582:14680   */\n      swap2\n      swap1\n      pop\n      jump\t// out\n        /* \"#utility.yul\":14686:14854   */\n    tag_367:\n        /* \"#utility.yul\":14769:14780   */\n      0x00\n        /* \"#utility.yul\":14803:14809   */\n      dup3\n        /* \"#utility.yul\":14798:14801   */\n      dup3\n        /* \"#utility.yul\":14791:14810   */\n      mstore\n        /* \"#utility.yul\":14843:14847   */\n      0x20\n        /* \"#utility.yul\":14838:14841   */\n      dup3\n        /* \"#utility.yul\":14834:14848   */\n      add\n        /* \"#utility.yul\":14819:14848   */\n      swap1\n      pop\n        /* \"#utility.yul\":14686:14854   */\n      swap3\n      swap2\n      pop\n      pop\n      jump\t// out\n        /* \"#utility.yul\":14860:15029   */\n    tag_381:\n        /* \"#utility.yul\":14944:14955   */\n      0x00\n        /* \"#utility.yul\":14978:14984   */\n      dup3\n        /* \"#utility.yul\":14973:14976   */\n      dup3\n        /* \"#utility.yul\":14966:14985   */\n      mstore\n        /* \"#utility.yul\":15018:15022   */\n      0x20\n        /* \"#utility.yul\":15013:15016   */\n      dup3\n        /* \"#utility.yul\":15009:15023   */\n      add\n        /* \"#utility.yul\":14994:15023   */\n      swap1\n      pop\n        /* \"#utility.yul\":14860:15029   */\n      swap3\n      swap2\n      pop\n      pop\n      jump\t// out\n        /* \"#utility.yul\":15035:15340   */\n    tag_129:\n        /* \"#utility.yul\":15075:15078   */\n      0x00\n        /* \"#utility.yul\":15094:15114   */\n      tag_473\n        /* \"#utility.yul\":15112:15113   */\n      dup3\n        /* \"#utility.yul\":15094:15114   */\n      tag_412\n      jump\t// in\n    tag_473:\n        /* \"#utility.yul\":15089:15114   */\n      swap2\n      pop\n        /* \"#utility.yul\":15128:15148   */\n      tag_474\n        /* \"#utility.yul\":15146:15147   */\n      dup4\n        /* \"#utility.yul\":15128:15148   */\n      tag_412\n      jump\t// in\n    tag_474:\n        /* \"#utility.yul\":15123:15148   */\n      swap3\n      pop\n        /* \"#utility.yul\":15282:15283   */\n      dup3\n        /* \"#utility.yul\":15214:15280   */\n      0xffffffffffffffffffffffffffffffffffffffffffffffffffffffffffffffff\n        /* \"#utility.yul\":15210:15284   */\n      sub\n        /* \"#utility.yul\":15207:15208   */\n      dup3\n        /* \"#utility.yul\":15204:15285   */\n      gt\n        /* \"#utility.yul\":15201:15308   */\n      iszero\n      tag_475\n      jumpi\n        /* \"#utility.yul\":15288:15306   */\n      tag_476\n      tag_477\n      jump\t// in\n    tag_476:\n        /* \"#utility.yul\":15201:15308   */\n    tag_475:\n        /* \"#utility.yul\":15332:15333   */\n      dup3\n        /* \"#utility.yul\":15329:15330   */\n      dup3\n        /* \"#utility.yul\":15325:15334   */\n      add\n        /* \"#utility.yul\":15318:15334   */\n      swap1\n      pop\n        /* \"#utility.yul\":15035:15340   */\n      swap3\n      swap2\n      pop\n      pop\n      jump\t// out\n        /* \"#utility.yul\":15346:15531   */\n    tag_94:\n        /* \"#utility.yul\":15386:15387   */\n      0x00\n        /* \"#utility.yul\":15403:15423   */\n      tag_479\n        /* \"#utility.yul\":15421:15422   */\n      dup3\n        /* \"#utility.yul\":15403:15423   */\n      tag_412\n      jump\t// in\n    tag_479:\n        /* \"#utility.yul\":15398:15423   */\n      swap2\n      pop\n        /* \"#utility.yul\":15437:15457   */\n      tag_480\n        /* \"#utility.yul\":15455:15456   */\n      dup4\n        /* \"#utility.yul\":15437:15457   */\n      tag_412\n      jump\t// in\n    tag_480:\n        /* \"#utility.yul\":15432:15457   */\n      swap3\n      pop\n        /* \"#utility.yul\":15476:15477   */\n      dup3\n        /* \"#utility.yul\":15466:15501   */\n      tag_481\n      jumpi\n        /* \"#utility.yul\":15481:15499   */\n      tag_482\n      tag_483\n      jump\t// in\n    tag_482:\n        /* \"#utility.yul\":15466:15501   */\n    tag_481:\n        /* \"#utility.yul\":15523:15524   */\n      dup3\n        /* \"#utility.yul\":15520:15521   */\n      dup3\n        /* \"#utility.yul\":15516:15525   */\n      div\n        /* \"#utility.yul\":15511:15525   */\n      swap1\n      pop\n        /* \"#utility.yul\":15346:15531   */\n      swap3\n      swap2\n      pop\n      pop\n      jump\t// out\n        /* \"#utility.yul\":15537:16385   */\n    tag_484:\n        /* \"#utility.yul\":15598:15603   */\n      0x00\n        /* \"#utility.yul\":15605:15609   */\n      dup1\n        /* \"#utility.yul\":15629:15635   */\n      dup3\n        /* \"#utility.yul\":15620:15635   */\n      swap2\n      pop\n        /* \"#utility.yul\":15653:15658   */\n      dup4\n        /* \"#utility.yul\":15644:15658   */\n      swap1\n      pop\n        /* \"#utility.yul\":15667:16379   */\n    tag_486:\n        /* \"#utility.yul\":15688:15689   */\n      0x01\n        /* \"#utility.yul\":15678:15686   */\n      dup6\n        /* \"#utility.yul\":15675:15690   */\n      gt\n        /* \"#utility.yul\":15667:16379   */\n      iszero\n      tag_488\n      jumpi\n        /* \"#utility.yul\":15783:15787   */\n      dup1\n        /* \"#utility.yul\":15778:15781   */\n      dup7\n        /* \"#utility.yul\":15774:15788   */\n      div\n        /* \"#utility.yul\":15768:15772   */\n      dup2\n        /* \"#utility.yul\":15765:15789   */\n      gt\n        /* \"#utility.yul\":15762:15812   */\n      iszero\n      tag_489\n      jumpi\n        /* \"#utility.yul\":15792:15810   */\n      tag_490\n      tag_477\n      jump\t// in\n    tag_490:\n        /* \"#utility.yul\":15762:15812   */\n    tag_489:\n        /* \"#utility.yul\":15842:15843   */\n      0x01\n        /* \"#utility.yul\":15832:15840   */\n      dup6\n        /* \"#utility.yul\":15828:15844   */\n      and\n        /* \"#utility.yul\":15825:16276   */\n      iszero\n      tag_491\n      jumpi\n        /* \"#utility.yul\":16257:16261   */\n      dup1\n        /* \"#utility.yul\":16250:16255   */\n      dup3\n        /* \"#utility.yul\":16246:16262   */\n      mul\n        /* \"#utility.yul\":16237:16262   */\n      swap2\n      pop\n        /* \"#utility.yul\":15825:16276   */\n    tag_491:\n        /* \"#utility.yul\":16307:16311   */\n      dup1\n        /* \"#utility.yul\":16301:16305   */\n      dup2\n        /* \"#utility.yul\":16297:16312   */\n      mul\n        /* \"#utility.yul\":16289:16312   */\n      swap1\n      pop\n        /* \"#utility.yul\":16337:16369   */\n      tag_492\n        /* \"#utility.yul\":16360:16368   */\n      dup6\n        /* \"#utility.yul\":16337:16369   */\n      tag_493\n      jump\t// in\n    tag_492:\n        /* \"#utility.yul\":16325:16369   */\n      swap5\n      pop\n        /* \"#utility.yul\":15667:16379   */\n      jump(tag_486)\n    tag_488:\n        /* \"#utility.yul\":15537:16385   */\n      swap5\n      pop\n      swap5\n      swap3\n      pop\n      pop\n      pop\n      jump\t// out\n        /* \"#utility.yul\":16391:16676   */\n    tag_267:\n        /* \"#utility.yul\":16451:16456   */\n      0x00\n        /* \"#utility.yul\":16475:16498   */\n      tag_495\n        /* \"#utility.yul\":16493:16497   */\n      dup3\n        /* \"#utility.yul\":16475:16498   */\n      tag_412\n      jump\t// in\n    tag_495:\n        /* \"#utility.yul\":16467:16498   */\n      swap2\n      pop\n        /* \"#utility.yul\":16519:16546   */\n      tag_496\n        /* \"#utility.yul\":16537:16545   */\n      dup4\n        /* \"#utility.yul\":16519:16546   */\n      tag_412\n      jump\t// in\n    tag_496:\n        /* \"#utility.yul\":16507:16546   */\n      swap3\n      pop\n        /* \"#utility.yul\":16565:16669   */\n      tag_497\n        /* \"#utility.yul\":16602:16668   */\n      0xffffffffffffffffffffffffffffffffffffffffffffffffffffffffffffffff\n        /* \"#utility.yul\":16592:16600   */\n      dup5\n        /* \"#utility.yul\":16586:16590   */\n      dup5\n        /* \"#utility.yul\":16565:16669   */\n      tag_498\n      jump\t// in\n    tag_497:\n        /* \"#utility.yul\":16556:16669   */\n      swap1\n      pop\n        /* \"#utility.yul\":16391:16676   */\n      swap3\n      swap2\n      pop\n      pop\n      jump\t// out\n        /* \"#utility.yul\":16682:17755   */\n    tag_498:\n        /* \"#utility.yul\":16736:16741   */\n      0x00\n        /* \"#utility.yul\":16927:16935   */\n      dup3\n        /* \"#utility.yul\":16917:16957   */\n      tag_500\n      jumpi\n        /* \"#utility.yul\":16948:16949   */\n      0x01\n        /* \"#utility.yul\":16939:16949   */\n      swap1\n      pop\n        /* \"#utility.yul\":16950:16955   */\n      jump(tag_499)\n        /* \"#utility.yul\":16917:16957   */\n    tag_500:\n        /* \"#utility.yul\":16976:16980   */\n      dup2\n        /* \"#utility.yul\":16966:17002   */\n      tag_501\n      jumpi\n        /* \"#utility.yul\":16993:16994   */\n      0x00\n        /* \"#utility.yul\":16984:16994   */\n      swap1\n      pop\n        /* \"#utility.yul\":16995:17000   */\n      jump(tag_499)\n        /* \"#utility.yul\":16966:17002   */\n    tag_501:\n        /* \"#utility.yul\":17062:17066   */\n      dup2\n        /* \"#utility.yul\":17110:17111   */\n      0x01\n        /* \"#utility.yul\":17105:17132   */\n      dup2\n      eq\n      tag_503\n      jumpi\n        /* \"#utility.yul\":17146:17147   */\n      0x02\n        /* \"#utility.yul\":17141:17332   */\n      dup2\n      eq\n      tag_504\n      jumpi\n        /* \"#utility.yul\":17055:17332   */\n      jump(tag_502)\n        /* \"#utility.yul\":17105:17132   */\n    tag_503:\n        /* \"#utility.yul\":17123:17124   */\n      0x01\n        /* \"#utility.yul\":17114:17124   */\n      swap2\n      pop\n        /* \"#utility.yul\":17125:17130   */\n      pop\n      jump(tag_499)\n        /* \"#utility.yul\":17141:17332   */\n    tag_504:\n        /* \"#utility.yul\":17186:17189   */\n      0xff\n        /* \"#utility.yul\":17176:17184   */\n      dup5\n        /* \"#utility.yul\":17173:17190   */\n      gt\n        /* \"#utility.yul\":17170:17213   */\n      iszero\n      tag_505\n      jumpi\n        /* \"#utility.yul\":17193:17211   */\n      tag_506\n      tag_477\n      jump\t// in\n    tag_506:\n        /* \"#utility.yul\":17170:17213   */\n    tag_505:\n        /* \"#utility.yul\":17242:17250   */\n      dup4\n        /* \"#utility.yul\":17239:17240   */\n      0x02\n        /* \"#utility.yul\":17235:17251   */\n      exp\n        /* \"#utility.yul\":17226:17251   */\n      swap2\n      pop\n        /* \"#utility.yul\":17277:17280   */\n      dup5\n        /* \"#utility.yul\":17270:17275   */\n      dup3\n        /* \"#utility.yul\":17267:17281   */\n      gt\n        /* \"#utility.yul\":17264:17304   */\n      iszero\n      tag_507\n      jumpi\n        /* \"#utility.yul\":17284:17302   */\n      tag_508\n      tag_477\n      jump\t// in\n    tag_508:\n        /* \"#utility.yul\":17264:17304   */\n    tag_507:\n        /* \"#utility.yul\":17317:17322   */\n      pop\n      jump(tag_499)\n        /* \"#utility.yul\":17055:17332   */\n    tag_502:\n      pop\n        /* \"#utility.yul\":17441:17443   */\n      0x20\n        /* \"#utility.yul\":17431:17439   */\n      dup4\n        /* \"#utility.yul\":17428:17444   */\n      lt\n        /* \"#utility.yul\":17422:17425   */\n      0x0133\n        /* \"#utility.yul\":17416:17420   */\n      dup4\n        /* \"#utility.yul\":17413:17426   */\n      lt\n        /* \"#utility.yul\":17409:17445   */\n      and\n        /* \"#utility.yul\":17391:17393   */\n      0x4e\n        /* \"#utility.yul\":17381:17389   */\n      dup5\n        /* \"#utility.yul\":17378:17394   */\n      lt\n        /* \"#utility.yul\":17373:17375   */\n      0x0b\n        /* \"#utility.yul\":17367:17371   */\n      dup5\n        /* \"#utility.yul\":17364:17376   */\n      lt\n        /* \"#utility.yul\":17360:17395   */\n      and\n        /* \"#utility.yul\":17344:17455   */\n      or\n        /* \"#utility.yul\":17341:17587   */\n      iszero\n      tag_509\n      jumpi\n        /* \"#utility.yul\":17497:17505   */\n      dup3\n        /* \"#utility.yul\":17491:17495   */\n      dup3\n        /* \"#utility.yul\":17487:17506   */\n      exp\n        /* \"#utility.yul\":17478:17506   */\n      swap1\n      pop\n        /* \"#utility.yul\":17532:17535   */\n      dup4\n        /* \"#utility.yul\":17525:17530   */\n      dup2\n        /* \"#utility.yul\":17522:17536   */\n      gt\n        /* \"#utility.yul\":17519:17559   */\n      iszero\n      tag_510\n      jumpi\n        /* \"#utility.yul\":17539:17557   */\n      tag_511\n      tag_477\n      jump\t// in\n    tag_511:\n        /* \"#utility.yul\":17519:17559   */\n    tag_510:\n        /* \"#utility.yul\":17572:17577   */\n      jump(tag_499)\n        /* \"#utility.yul\":17341:17587   */\n    tag_509:\n        /* \"#utility.yul\":17612:17654   */\n      tag_512\n        /* \"#utility.yul\":17650:17653   */\n      dup5\n        /* \"#utility.yul\":17640:17648   */\n      dup5\n        /* \"#utility.yul\":17634:17638   */\n      dup5\n        /* \"#utility.yul\":17631:17632   */\n      0x01\n        /* \"#utility.yul\":17612:17654   */\n      tag_484\n      jump\t// in\n    tag_512:\n        /* \"#utility.yul\":17597:17654   */\n      swap3\n      pop\n      swap1\n      pop\n        /* \"#utility.yul\":17686:17690   */\n      dup2\n        /* \"#utility.yul\":17681:17684   */\n      dup5\n        /* \"#utility.yul\":17677:17691   */\n      div\n        /* \"#utility.yul\":17670:17675   */\n      dup2\n        /* \"#utility.yul\":17667:17692   */\n      gt\n        /* \"#utility.yul\":17664:17715   */\n      iszero\n      tag_513\n      jumpi\n        /* \"#utility.yul\":17695:17713   */\n      tag_514\n      tag_477\n      jump\t// in\n    tag_514:\n        /* \"#utility.yul\":17664:17715   */\n    tag_513:\n        /* \"#utility.yul\":17744:17748   */\n      dup2\n        /* \"#utility.yul\":17737:17742   */\n      dup2\n        /* \"#utility.yul\":17733:17749   */\n      mul\n        /* \"#utility.yul\":17724:17749   */\n      swap1\n      pop\n        /* \"#utility.yul\":16682:17755   */\n    tag_499:\n      swap4\n      swap3\n      pop\n      pop\n      pop\n      jump\t// out\n        /* \"#utility.yul\":17761:18109   */\n    tag_92:\n        /* \"#utility.yul\":17801:17808   */\n      0x00\n        /* \"#utility.yul\":17824:17844   */\n      tag_516\n        /* \"#utility.yul\":17842:17843   */\n      dup3\n        /* \"#utility.yul\":17824:17844   */\n      tag_412\n      jump\t// in\n    tag_516:\n        /* \"#utility.yul\":17819:17844   */\n      swap2\n      pop\n        /* \"#utility.yul\":17858:17878   */\n      tag_517\n        /* \"#utility.yul\":17876:17877   */\n      dup4\n        /* \"#utility.yul\":17858:17878   */\n      tag_412\n      jump\t// in\n    tag_517:\n        /* \"#utility.yul\":17853:17878   */\n      swap3\n      pop\n        /* \"#utility.yul\":18046:18047   */\n      dup2\n        /* \"#utility.yul\":17978:18044   */\n      0xffffffffffffffffffffffffffffffffffffffffffffffffffffffffffffffff\n        /* \"#utility.yul\":17974:18048   */\n      div\n        /* \"#utility.yul\":17971:17972   */\n      dup4\n        /* \"#utility.yul\":17968:18049   */\n      gt\n        /* \"#utility.yul\":17963:17964   */\n      dup3\n        /* \"#utility.yul\":17956:17965   */\n      iszero\n        /* \"#utility.yul\":17949:17966   */\n      iszero\n        /* \"#utility.yul\":17945:18050   */\n      and\n        /* \"#utility.yul\":17942:18073   */\n      iszero\n      tag_518\n      jumpi\n        /* \"#utility.yul\":18053:18071   */\n      tag_519\n      tag_477\n      jump\t// in\n    tag_519:\n        /* \"#utility.yul\":17942:18073   */\n    tag_518:\n        /* \"#utility.yul\":18101:18102   */\n      dup3\n        /* \"#utility.yul\":18098:18099   */\n      dup3\n        /* \"#utility.yul\":18094:18103   */\n      mul\n        /* \"#utility.yul\":18083:18103   */\n      swap1\n      pop\n        /* \"#utility.yul\":17761:18109   */\n      swap3\n      swap2\n      pop\n      pop\n      jump\t// out\n        /* \"#utility.yul\":18115:18642   */\n    tag_167:\n        /* \"#utility.yul\":18154:18158   */\n      0x00\n        /* \"#utility.yul\":18174:18193   */\n      tag_521\n        /* \"#utility.yul\":18191:18192   */\n      dup3\n        /* \"#utility.yul\":18174:18193   */\n      tag_522\n      jump\t// in\n    tag_521:\n        /* \"#utility.yul\":18169:18193   */\n      swap2\n      pop\n        /* \"#utility.yul\":18207:18226   */\n      tag_523\n        /* \"#utility.yul\":18224:18225   */\n      dup4\n        /* \"#utility.yul\":18207:18226   */\n      tag_522\n      jump\t// in\n    tag_523:\n        /* \"#utility.yul\":18202:18226   */\n      swap3\n      pop\n        /* \"#utility.yul\":18396:18397   */\n      dup3\n        /* \"#utility.yul\":18328:18394   */\n      0x8000000000000000000000000000000000000000000000000000000000000000\n        /* \"#utility.yul\":18324:18398   */\n      add\n        /* \"#utility.yul\":18321:18322   */\n      dup3\n        /* \"#utility.yul\":18317:18399   */\n      slt\n        /* \"#utility.yul\":18312:18313   */\n      0x00\n        /* \"#utility.yul\":18309:18310   */\n      dup5\n        /* \"#utility.yul\":18305:18314   */\n      slt\n        /* \"#utility.yul\":18298:18315   */\n      iszero\n        /* \"#utility.yul\":18294:18400   */\n      and\n        /* \"#utility.yul\":18291:18423   */\n      iszero\n      tag_524\n      jumpi\n        /* \"#utility.yul\":18403:18421   */\n      tag_525\n      tag_477\n      jump\t// in\n    tag_525:\n        /* \"#utility.yul\":18291:18423   */\n    tag_524:\n        /* \"#utility.yul\":18582:18583   */\n      dup3\n        /* \"#utility.yul\":18514:18580   */\n      0x7fffffffffffffffffffffffffffffffffffffffffffffffffffffffffffffff\n        /* \"#utility.yul\":18510:18584   */\n      add\n        /* \"#utility.yul\":18507:18508   */\n      dup3\n        /* \"#utility.yul\":18503:18585   */\n      sgt\n        /* \"#utility.yul\":18499:18500   */\n      0x00\n        /* \"#utility.yul\":18496:18497   */\n      dup5\n        /* \"#utility.yul\":18492:18501   */\n      slt\n        /* \"#utility.yul\":18488:18586   */\n      and\n        /* \"#utility.yul\":18485:18609   */\n      iszero\n      tag_526\n      jumpi\n        /* \"#utility.yul\":18589:18607   */\n      tag_527\n      tag_477\n      jump\t// in\n    tag_527:\n        /* \"#utility.yul\":18485:18609   */\n    tag_526:\n        /* \"#utility.yul\":18634:18635   */\n      dup3\n        /* \"#utility.yul\":18631:18632   */\n      dup3\n        /* \"#utility.yul\":18627:18636   */\n      sub\n        /* \"#utility.yul\":18619:18636   */\n      swap1\n      pop\n        /* \"#utility.yul\":18115:18642   */\n      swap3\n      swap2\n      pop\n      pop\n      jump\t// out\n        /* \"#utility.yul\":18648:18839   */\n    tag_188:\n        /* \"#utility.yul\":18688:18692   */\n      0x00\n        /* \"#utility.yul\":18708:18728   */\n      tag_529\n        /* \"#utility.yul\":18726:18727   */\n      dup3\n        /* \"#utility.yul\":18708:18728   */\n      tag_412\n      jump\t// in\n    tag_529:\n        /* \"#utility.yul\":18703:18728   */\n      swap2\n      pop\n        /* \"#utility.yul\":18742:18762   */\n      tag_530\n        /* \"#utility.yul\":18760:18761   */\n      dup4\n        /* \"#utility.yul\":18742:18762   */\n      tag_412\n      jump\t// in\n    tag_530:\n        /* \"#utility.yul\":18737:18762   */\n      swap3\n      pop\n        /* \"#utility.yul\":18781:18782   */\n      dup3\n        /* \"#utility.yul\":18778:18779   */\n      dup3\n        /* \"#utility.yul\":18775:18783   */\n      lt\n        /* \"#utility.yul\":18772:18806   */\n      iszero\n      tag_531\n      jumpi\n        /* \"#utility.yul\":18786:18804   */\n      tag_532\n      tag_477\n      jump\t// in\n    tag_532:\n        /* \"#utility.yul\":18772:18806   */\n    tag_531:\n        /* \"#utility.yul\":18831:18832   */\n      dup3\n        /* \"#utility.yul\":18828:18829   */\n      dup3\n        /* \"#utility.yul\":18824:18833   */\n      sub\n        /* \"#utility.yul\":18816:18833   */\n      swap1\n      pop\n        /* \"#utility.yul\":18648:18839   */\n      swap3\n      swap2\n      pop\n      pop\n      jump\t// out\n        /* \"#utility.yul\":18845:18941   */\n    tag_353:\n        /* \"#utility.yul\":18882:18889   */\n      0x00\n        /* \"#utility.yul\":18911:18935   */\n      tag_534\n        /* \"#utility.yul\":18929:18934   */\n      dup3\n        /* \"#utility.yul\":18911:18935   */\n      tag_535\n      jump\t// in\n    tag_534:\n        /* \"#utility.yul\":18900:18935   */\n      swap1\n      pop\n        /* \"#utility.yul\":18845:18941   */\n      swap2\n      swap1\n      pop\n      jump\t// out\n        /* \"#utility.yul\":18947:19037   */\n    tag_536:\n        /* \"#utility.yul\":18981:18988   */\n      0x00\n        /* \"#utility.yul\":19024:19029   */\n      dup2\n        /* \"#utility.yul\":19017:19030   */\n      iszero\n        /* \"#utility.yul\":19010:19031   */\n      iszero\n        /* \"#utility.yul\":18999:19031   */\n      swap1\n      pop\n        /* \"#utility.yul\":18947:19037   */\n      swap2\n      swap1\n      pop\n      jump\t// out\n        /* \"#utility.yul\":19043:19120   */\n    tag_357:\n        /* \"#utility.yul\":19080:19087   */\n      0x00\n        /* \"#utility.yul\":19109:19114   */\n      dup2\n        /* \"#utility.yul\":19098:19114   */\n      swap1\n      pop\n        /* \"#utility.yul\":19043:19120   */\n      swap2\n      swap1\n      pop\n      jump\t// out\n        /* \"#utility.yul\":19126:19275   */\n    tag_361:\n        /* \"#utility.yul\":19162:19169   */\n      0x00\n        /* \"#utility.yul\":19202:19268   */\n      0xffffffff00000000000000000000000000000000000000000000000000000000\n        /* \"#utility.yul\":19195:19200   */\n      dup3\n        /* \"#utility.yul\":19191:19269   */\n      and\n        /* \"#utility.yul\":19180:19269   */\n      swap1\n      pop\n        /* \"#utility.yul\":19126:19275   */\n      swap2\n      swap1\n      pop\n      jump\t// out\n        /* \"#utility.yul\":19281:19357   */\n    tag_522:\n        /* \"#utility.yul\":19317:19324   */\n      0x00\n        /* \"#utility.yul\":19346:19351   */\n      dup2\n        /* \"#utility.yul\":19335:19351   */\n      swap1\n      pop\n        /* \"#utility.yul\":19281:19357   */\n      swap2\n      swap1\n      pop\n      jump\t// out\n        /* \"#utility.yul\":19363:19489   */\n    tag_535:\n        /* \"#utility.yul\":19400:19407   */\n      0x00\n        /* \"#utility.yul\":19440:19482   */\n      0xffffffffffffffffffffffffffffffffffffffff\n        /* \"#utility.yul\":19433:19438   */\n      dup3\n        /* \"#utility.yul\":19429:19483   */\n      and\n        /* \"#utility.yul\":19418:19483   */\n      swap1\n      pop\n        /* \"#utility.yul\":19363:19489   */\n      swap2\n      swap1\n      pop\n      jump\t// out\n        /* \"#utility.yul\":19495:19572   */\n    tag_412:\n        /* \"#utility.yul\":19532:19539   */\n      0x00\n        /* \"#utility.yul\":19561:19566   */\n      dup2\n        /* \"#utility.yul\":19550:19566   */\n      swap1\n      pop\n        /* \"#utility.yul\":19495:19572   */\n      swap2\n      swap1\n      pop\n      jump\t// out\n        /* \"#utility.yul\":19578:19727   */\n    tag_376:\n        /* \"#utility.yul\":19651:19660   */\n      0x00\n        /* \"#utility.yul\":19684:19721   */\n      tag_544\n        /* \"#utility.yul\":19715:19720   */\n      dup3\n        /* \"#utility.yul\":19684:19721   */\n      tag_545\n      jump\t// in\n    tag_544:\n        /* \"#utility.yul\":19671:19721   */\n      swap1\n      pop\n        /* \"#utility.yul\":19578:19727   */\n      swap2\n      swap1\n      pop\n      jump\t// out\n        /* \"#utility.yul\":19733:19859   */\n    tag_545:\n        /* \"#utility.yul\":19783:19792   */\n      0x00\n        /* \"#utility.yul\":19816:19853   */\n      tag_547\n        /* \"#utility.yul\":19847:19852   */\n      dup3\n        /* \"#utility.yul\":19816:19853   */\n      tag_548\n      jump\t// in\n    tag_547:\n        /* \"#utility.yul\":19803:19853   */\n      swap1\n      pop\n        /* \"#utility.yul\":19733:19859   */\n      swap2\n      swap1\n      pop\n      jump\t// out\n        /* \"#utility.yul\":19865:19978   */\n    tag_548:\n        /* \"#utility.yul\":19915:19924   */\n      0x00\n        /* \"#utility.yul\":19948:19972   */\n      tag_550\n        /* \"#utility.yul\":19966:19971   */\n      dup3\n        /* \"#utility.yul\":19948:19972   */\n      tag_535\n      jump\t// in\n    tag_550:\n        /* \"#utility.yul\":19935:19972   */\n      swap1\n      pop\n        /* \"#utility.yul\":19865:19978   */\n      swap2\n      swap1\n      pop\n      jump\t// out\n        /* \"#utility.yul\":19984:20138   */\n    tag_287:\n        /* \"#utility.yul\":20068:20074   */\n      dup3\n        /* \"#utility.yul\":20063:20066   */\n      dup2\n        /* \"#utility.yul\":20058:20061   */\n      dup4\n        /* \"#utility.yul\":20045:20075   */\n      calldatacopy\n        /* \"#utility.yul\":20130:20131   */\n      0x00\n        /* \"#utility.yul\":20121:20127   */\n      dup4\n        /* \"#utility.yul\":20116:20119   */\n      dup4\n        /* \"#utility.yul\":20112:20128   */\n      add\n        /* \"#utility.yul\":20105:20132   */\n      mstore\n        /* \"#utility.yul\":19984:20138   */\n      pop\n      pop\n      pop\n      jump\t// out\n        /* \"#utility.yul\":20144:20451   */\n    tag_369:\n        /* \"#utility.yul\":20212:20213   */\n      0x00\n        /* \"#utility.yul\":20222:20335   */\n    tag_553:\n        /* \"#utility.yul\":20236:20242   */\n      dup4\n        /* \"#utility.yul\":20233:20234   */\n      dup2\n        /* \"#utility.yul\":20230:20243   */\n      lt\n        /* \"#utility.yul\":20222:20335   */\n      iszero\n      tag_555\n      jumpi\n        /* \"#utility.yul\":20321:20322   */\n      dup1\n        /* \"#utility.yul\":20316:20319   */\n      dup3\n        /* \"#utility.yul\":20312:20323   */\n      add\n        /* \"#utility.yul\":20306:20324   */\n      mload\n        /* \"#utility.yul\":20302:20303   */\n      dup2\n        /* \"#utility.yul\":20297:20300   */\n      dup5\n        /* \"#utility.yul\":20293:20304   */\n      add\n        /* \"#utility.yul\":20286:20325   */\n      mstore\n        /* \"#utility.yul\":20258:20260   */\n      0x20\n        /* \"#utility.yul\":20255:20256   */\n      dup2\n        /* \"#utility.yul\":20251:20261   */\n      add\n        /* \"#utility.yul\":20246:20261   */\n      swap1\n      pop\n        /* \"#utility.yul\":20222:20335   */\n      jump(tag_553)\n    tag_555:\n        /* \"#utility.yul\":20353:20359   */\n      dup4\n        /* \"#utility.yul\":20350:20351   */\n      dup2\n        /* \"#utility.yul\":20347:20360   */\n      gt\n        /* \"#utility.yul\":20344:20445   */\n      iszero\n      tag_556\n      jumpi\n        /* \"#utility.yul\":20433:20434   */\n      0x00\n        /* \"#utility.yul\":20424:20430   */\n      dup5\n        /* \"#utility.yul\":20419:20422   */\n      dup5\n        /* \"#utility.yul\":20415:20431   */\n      add\n        /* \"#utility.yul\":20408:20435   */\n      mstore\n        /* \"#utility.yul\":20344:20445   */\n    tag_556:\n        /* \"#utility.yul\":20193:20451   */\n      pop\n        /* \"#utility.yul\":20144:20451   */\n      pop\n      pop\n      pop\n      jump\t// out\n        /* \"#utility.yul\":20457:20738   */\n    tag_462:\n        /* \"#utility.yul\":20540:20567   */\n      tag_558\n        /* \"#utility.yul\":20562:20566   */\n      dup3\n        /* \"#utility.yul\":20540:20567   */\n      tag_371\n      jump\t// in\n    tag_558:\n        /* \"#utility.yul\":20532:20538   */\n      dup2\n        /* \"#utility.yul\":20528:20568   */\n      add\n        /* \"#utility.yul\":20670:20676   */\n      dup2\n        /* \"#utility.yul\":20658:20668   */\n      dup2\n        /* \"#utility.yul\":20655:20677   */\n      lt\n        /* \"#utility.yul\":20634:20652   */\n      0xffffffffffffffff\n        /* \"#utility.yul\":20622:20632   */\n      dup3\n        /* \"#utility.yul\":20619:20653   */\n      gt\n        /* \"#utility.yul\":20616:20678   */\n      or\n        /* \"#utility.yul\":20613:20701   */\n      iszero\n      tag_559\n      jumpi\n        /* \"#utility.yul\":20681:20699   */\n      tag_560\n      tag_467\n      jump\t// in\n    tag_560:\n        /* \"#utility.yul\":20613:20701   */\n    tag_559:\n        /* \"#utility.yul\":20721:20731   */\n      dup1\n        /* \"#utility.yul\":20717:20719   */\n      0x40\n        /* \"#utility.yul\":20710:20732   */\n      mstore\n        /* \"#utility.yul\":20500:20738   */\n      pop\n        /* \"#utility.yul\":20457:20738   */\n      pop\n      pop\n      jump\t// out\n        /* \"#utility.yul\":20744:20844   */\n    tag_377:\n        /* \"#utility.yul\":20783:20790   */\n      0x00\n        /* \"#utility.yul\":20812:20838   */\n      tag_562\n        /* \"#utility.yul\":20832:20837   */\n      dup3\n        /* \"#utility.yul\":20812:20838   */\n      tag_563\n      jump\t// in\n    tag_562:\n        /* \"#utility.yul\":20801:20838   */\n      swap1\n      pop\n        /* \"#utility.yul\":20744:20844   */\n      swap2\n      swap1\n      pop\n      jump\t// out\n        /* \"#utility.yul\":20850:20944   */\n    tag_563:\n        /* \"#utility.yul\":20889:20896   */\n      0x00\n        /* \"#utility.yul\":20918:20938   */\n      tag_565\n        /* \"#utility.yul\":20932:20937   */\n      dup3\n        /* \"#utility.yul\":20918:20938   */\n      tag_566\n      jump\t// in\n    tag_565:\n        /* \"#utility.yul\":20907:20938   */\n      swap1\n      pop\n        /* \"#utility.yul\":20850:20944   */\n      swap2\n      swap1\n      pop\n      jump\t// out\n        /* \"#utility.yul\":20950:21029   */\n    tag_417:\n        /* \"#utility.yul\":20989:20996   */\n      0x00\n        /* \"#utility.yul\":21018:21023   */\n      dup2\n        /* \"#utility.yul\":21007:21023   */\n      swap1\n      pop\n        /* \"#utility.yul\":20950:21029   */\n      swap2\n      swap1\n      pop\n      jump\t// out\n        /* \"#utility.yul\":21035:21211   */\n    tag_184:\n        /* \"#utility.yul\":21067:21068   */\n      0x00\n        /* \"#utility.yul\":21084:21104   */\n      tag_569\n        /* \"#utility.yul\":21102:21103   */\n      dup3\n        /* \"#utility.yul\":21084:21104   */\n      tag_412\n      jump\t// in\n    tag_569:\n        /* \"#utility.yul\":21079:21104   */\n      swap2\n      pop\n        /* \"#utility.yul\":21118:21138   */\n      tag_570\n        /* \"#utility.yul\":21136:21137   */\n      dup4\n        /* \"#utility.yul\":21118:21138   */\n      tag_412\n      jump\t// in\n    tag_570:\n        /* \"#utility.yul\":21113:21138   */\n      swap3\n      pop\n        /* \"#utility.yul\":21157:21158   */\n      dup3\n        /* \"#utility.yul\":21147:21182   */\n      tag_571\n      jumpi\n        /* \"#utility.yul\":21162:21180   */\n      tag_572\n      tag_483\n      jump\t// in\n    tag_572:\n        /* \"#utility.yul\":21147:21182   */\n    tag_571:\n        /* \"#utility.yul\":21203:21204   */\n      dup3\n        /* \"#utility.yul\":21200:21201   */\n      dup3\n        /* \"#utility.yul\":21196:21205   */\n      mod\n        /* \"#utility.yul\":21191:21205   */\n      swap1\n      pop\n        /* \"#utility.yul\":21035:21211   */\n      swap3\n      swap2\n      pop\n      pop\n      jump\t// out\n        /* \"#utility.yul\":21217:21397   */\n    tag_477:\n        /* \"#utility.yul\":21265:21342   */\n      0x4e487b7100000000000000000000000000000000000000000000000000000000\n        /* \"#utility.yul\":21262:21263   */\n      0x00\n        /* \"#utility.yul\":21255:21343   */\n      mstore\n        /* \"#utility.yul\":21362:21366   */\n      0x11\n        /* \"#utility.yul\":21359:21360   */\n      0x04\n        /* \"#utility.yul\":21352:21367   */\n      mstore\n        /* \"#utility.yul\":21386:21390   */\n      0x24\n        /* \"#utility.yul\":21383:21384   */\n      0x00\n        /* \"#utility.yul\":21376:21391   */\n      revert\n        /* \"#utility.yul\":21403:21583   */\n    tag_483:\n        /* \"#utility.yul\":21451:21528   */\n      0x4e487b7100000000000000000000000000000000000000000000000000000000\n        /* \"#utility.yul\":21448:21449   */\n      0x00\n        /* \"#utility.yul\":21441:21529   */\n      mstore\n        /* \"#utility.yul\":21548:21552   */\n      0x12\n        /* \"#utility.yul\":21545:21546   */\n      0x04\n        /* \"#utility.yul\":21538:21553   */\n      mstore\n        /* \"#utility.yul\":21572:21576   */\n      0x24\n        /* \"#utility.yul\":21569:21570   */\n      0x00\n        /* \"#utility.yul\":21562:21577   */\n      revert\n        /* \"#utility.yul\":21589:21769   */\n    tag_467:\n        /* \"#utility.yul\":21637:21714   */\n      0x4e487b7100000000000000000000000000000000000000000000000000000000\n        /* \"#utility.yul\":21634:21635   */\n      0x00\n        /* \"#utility.yul\":21627:21715   */\n      mstore\n        /* \"#utility.yul\":21734:21738   */\n      0x41\n        /* \"#utility.yul\":21731:21732   */\n      0x04\n        /* \"#utility.yul\":21724:21739   */\n      mstore\n        /* \"#utility.yul\":21758:21762   */\n      0x24\n        /* \"#utility.yul\":21755:21756   */\n      0x00\n        /* \"#utility.yul\":21748:21763   */\n      revert\n        /* \"#utility.yul\":21775:21892   */\n    tag_308:\n        /* \"#utility.yul\":21884:21885   */\n      0x00\n        /* \"#utility.yul\":21881:21882   */\n      dup1\n        /* \"#utility.yul\":21874:21886   */\n      revert\n        /* \"#utility.yul\":21898:22015   */\n    tag_285:\n        /* \"#utility.yul\":22007:22008   */\n      0x00\n        /* \"#utility.yul\":22004:22005   */\n      dup1\n        /* \"#utility.yul\":21997:22009   */\n      revert\n        /* \"#utility.yul\":22021:22138   */\n    tag_328:\n        /* \"#utility.yul\":22130:22131   */\n      0x00\n        /* \"#utility.yul\":22127:22128   */\n      dup1\n        /* \"#utility.yul\":22120:22132   */\n      revert\n        /* \"#utility.yul\":22144:22261   */\n    tag_320:\n        /* \"#utility.yul\":22253:22254   */\n      0x00\n        /* \"#utility.yul\":22250:22251   */\n      dup1\n        /* \"#utility.yul\":22243:22255   */\n      revert\n        /* \"#utility.yul\":22267:22369   */\n    tag_371:\n        /* \"#utility.yul\":22308:22314   */\n      0x00\n        /* \"#utility.yul\":22359:22361   */\n      0x1f\n        /* \"#utility.yul\":22355:22362   */\n      not\n        /* \"#utility.yul\":22350:22352   */\n      0x1f\n        /* \"#utility.yul\":22343:22348   */\n      dup4\n        /* \"#utility.yul\":22339:22353   */\n      add\n        /* \"#utility.yul\":22335:22363   */\n      and\n        /* \"#utility.yul\":22325:22363   */\n      swap1\n      pop\n        /* \"#utility.yul\":22267:22369   */\n      swap2\n      swap1\n      pop\n      jump\t// out\n        /* \"#utility.yul\":22375:22469   */\n    tag_566:\n        /* \"#utility.yul\":22408:22416   */\n      0x00\n        /* \"#utility.yul\":22456:22461   */\n      dup2\n        /* \"#utility.yul\":22452:22454   */\n      0x60\n        /* \"#utility.yul\":22448:22462   */\n      shl\n        /* \"#utility.yul\":22427:22462   */\n      swap1\n      pop\n        /* \"#utility.yul\":22375:22469   */\n      swap2\n      swap1\n      pop\n      jump\t// out\n        /* \"#utility.yul\":22475:22577   */\n    tag_493:\n        /* \"#utility.yul\":22517:22525   */\n      0x00\n        /* \"#utility.yul\":22564:22569   */\n      dup2\n        /* \"#utility.yul\":22561:22562   */\n      0x01\n        /* \"#utility.yul\":22557:22570   */\n      shr\n        /* \"#utility.yul\":22536:22570   */\n      swap1\n      pop\n        /* \"#utility.yul\":22475:22577   */\n      swap2\n      swap1\n      pop\n      jump\t// out\n        /* \"#utility.yul\":22583:22755   */\n    tag_383:\n        /* \"#utility.yul\":22723:22747   */\n      0x4d7573742062652070726f706f736564206f776e657200000000000000000000\n        /* \"#utility.yul\":22719:22720   */\n      0x00\n        /* \"#utility.yul\":22711:22717   */\n      dup3\n        /* \"#utility.yul\":22707:22721   */\n      add\n        /* \"#utility.yul\":22700:22748   */\n      mstore\n        /* \"#utility.yul\":22583:22755   */\n      pop\n      jump\t// out\n        /* \"#utility.yul\":22761:22983   */\n    tag_388:\n        /* \"#utility.yul\":22901:22935   */\n      0x756e61626c6520746f207472616e73666572416e6443616c6c20746f206f7261\n        /* \"#utility.yul\":22897:22898   */\n      0x00\n        /* \"#utility.yul\":22889:22895   */\n      dup3\n        /* \"#utility.yul\":22885:22899   */\n      add\n        /* \"#utility.yul\":22878:22936   */\n      mstore\n        /* \"#utility.yul\":22970:22975   */\n      0x636c650000000000000000000000000000000000000000000000000000000000\n        /* \"#utility.yul\":22965:22967   */\n      0x20\n        /* \"#utility.yul\":22957:22963   */\n      dup3\n        /* \"#utility.yul\":22953:22968   */\n      add\n        /* \"#utility.yul\":22946:22976   */\n      mstore\n        /* \"#utility.yul\":22761:22983   */\n      pop\n      jump\t// out\n        /* \"#utility.yul\":22989:23161   */\n    tag_393:\n        /* \"#utility.yul\":23129:23153   */\n      0x4f6e6c792063616c6c61626c65206279206f776e657200000000000000000000\n        /* \"#utility.yul\":23125:23126   */\n      0x00\n        /* \"#utility.yul\":23117:23123   */\n      dup3\n        /* \"#utility.yul\":23113:23127   */\n      add\n        /* \"#utility.yul\":23106:23154   */\n      mstore\n        /* \"#utility.yul\":22989:23161   */\n      pop\n      jump\t// out\n        /* \"#utility.yul\":23167:23335   */\n    tag_398:\n        /* \"#utility.yul\":23307:23327   */\n      0x556e61626c6520746f207472616e736665720000000000000000000000000000\n        /* \"#utility.yul\":23303:23304   */\n      0x00\n        /* \"#utility.yul\":23295:23301   */\n      dup3\n        /* \"#utility.yul\":23291:23305   */\n      add\n        /* \"#utility.yul\":23284:23328   */\n      mstore\n        /* \"#utility.yul\":23167:23335   */\n      pop\n      jump\t// out\n        /* \"#utility.yul\":23341:23514   */\n    tag_403:\n        /* \"#utility.yul\":23481:23506   */\n      0x43616e6e6f74207472616e7366657220746f2073656c66000000000000000000\n        /* \"#utility.yul\":23477:23478   */\n      0x00\n        /* \"#utility.yul\":23469:23475   */\n      dup3\n        /* \"#utility.yul\":23465:23479   */\n      add\n        /* \"#utility.yul\":23458:23507   */\n      mstore\n        /* \"#utility.yul\":23341:23514   */\n      pop\n      jump\t// out\n        /* \"#utility.yul\":23520:23747   */\n    tag_408:\n        /* \"#utility.yul\":23660:23694   */\n      0x536f75726365206d75737420626520746865206f7261636c65206f6620746865\n        /* \"#utility.yul\":23656:23657   */\n      0x00\n        /* \"#utility.yul\":23648:23654   */\n      dup3\n        /* \"#utility.yul\":23644:23658   */\n      add\n        /* \"#utility.yul\":23637:23695   */\n      mstore\n        /* \"#utility.yul\":23729:23739   */\n      0x2072657175657374000000000000000000000000000000000000000000000000\n        /* \"#utility.yul\":23724:23726   */\n      0x20\n        /* \"#utility.yul\":23716:23722   */\n      dup3\n        /* \"#utility.yul\":23712:23727   */\n      add\n        /* \"#utility.yul\":23705:23740   */\n      mstore\n        /* \"#utility.yul\":23520:23747   */\n      pop\n      jump\t// out\n        /* \"#utility.yul\":23753:23875   */\n    tag_291:\n        /* \"#utility.yul\":23826:23850   */\n      tag_590\n        /* \"#utility.yul\":23844:23849   */\n      dup2\n        /* \"#utility.yul\":23826:23850   */\n      tag_353\n      jump\t// in\n    tag_590:\n        /* \"#utility.yul\":23819:23824   */\n      dup2\n        /* \"#utility.yul\":23816:23851   */\n      eq\n        /* \"#utility.yul\":23806:23869   */\n      tag_591\n      jumpi\n        /* \"#utility.yul\":23865:23866   */\n      0x00\n        /* \"#utility.yul\":23862:23863   */\n      dup1\n        /* \"#utility.yul\":23855:23867   */\n      revert\n        /* \"#utility.yul\":23806:23869   */\n    tag_591:\n        /* \"#utility.yul\":23753:23875   */\n      pop\n      jump\t// out\n        /* \"#utility.yul\":23881:23997   */\n    tag_295:\n        /* \"#utility.yul\":23951:23972   */\n      tag_593\n        /* \"#utility.yul\":23966:23971   */\n      dup2\n        /* \"#utility.yul\":23951:23972   */\n      tag_536\n      jump\t// in\n    tag_593:\n        /* \"#utility.yul\":23944:23949   */\n      dup2\n        /* \"#utility.yul\":23941:23973   */\n      eq\n        /* \"#utility.yul\":23931:23991   */\n      tag_594\n      jumpi\n        /* \"#utility.yul\":23987:23988   */\n      0x00\n        /* \"#utility.yul\":23984:23985   */\n      dup1\n        /* \"#utility.yul\":23977:23989   */\n      revert\n        /* \"#utility.yul\":23931:23991   */\n    tag_594:\n        /* \"#utility.yul\":23881:23997   */\n      pop\n      jump\t// out\n        /* \"#utility.yul\":24003:24125   */\n    tag_299:\n        /* \"#utility.yul\":24076:24100   */\n      tag_596\n        /* \"#utility.yul\":24094:24099   */\n      dup2\n        /* \"#utility.yul\":24076:24100   */\n      tag_357\n      jump\t// in\n    tag_596:\n        /* \"#utility.yul\":24069:24074   */\n      dup2\n        /* \"#utility.yul\":24066:24101   */\n      eq\n        /* \"#utility.yul\":24056:24119   */\n      tag_597\n      jumpi\n        /* \"#utility.yul\":24115:24116   */\n      0x00\n        /* \"#utility.yul\":24112:24113   */\n      dup1\n        /* \"#utility.yul\":24105:24117   */\n      revert\n        /* \"#utility.yul\":24056:24119   */\n    tag_597:\n        /* \"#utility.yul\":24003:24125   */\n      pop\n      jump\t// out\n        /* \"#utility.yul\":24131:24251   */\n    tag_303:\n        /* \"#utility.yul\":24203:24226   */\n      tag_599\n        /* \"#utility.yul\":24220:24225   */\n      dup2\n        /* \"#utility.yul\":24203:24226   */\n      tag_361\n      jump\t// in\n    tag_599:\n        /* \"#utility.yul\":24196:24201   */\n      dup2\n        /* \"#utility.yul\":24193:24227   */\n      eq\n        /* \"#utility.yul\":24183:24245   */\n      tag_600\n      jumpi\n        /* \"#utility.yul\":24241:24242   */\n      0x00\n        /* \"#utility.yul\":24238:24239   */\n      dup1\n        /* \"#utility.yul\":24231:24243   */\n      revert\n        /* \"#utility.yul\":24183:24245   */\n    tag_600:\n        /* \"#utility.yul\":24131:24251   */\n      pop\n      jump\t// out\n        /* \"#utility.yul\":24257:24379   */\n    tag_313:\n        /* \"#utility.yul\":24330:24354   */\n      tag_602\n        /* \"#utility.yul\":24348:24353   */\n      dup2\n        /* \"#utility.yul\":24330:24354   */\n      tag_412\n      jump\t// in\n    tag_602:\n        /* \"#utility.yul\":24323:24328   */\n      dup2\n        /* \"#utility.yul\":24320:24355   */\n      eq\n        /* \"#utility.yul\":24310:24373   */\n      tag_603\n      jumpi\n        /* \"#utility.yul\":24369:24370   */\n      0x00\n        /* \"#utility.yul\":24366:24367   */\n      dup1\n        /* \"#utility.yul\":24359:24371   */\n      revert\n        /* \"#utility.yul\":24310:24373   */\n    tag_603:\n        /* \"#utility.yul\":24257:24379   */\n      pop\n      jump\t// out\n    stop\n    data_444739292f65e0d84586af555ca805e0303948242aa5bbf9a7032603676a8ec3 68747470733a2f2f6d696e2d6170692e63727970746f636f6d706172652e636f6d2f646174612f70726963653f6673796d3d455448267473796d733d555344\n\n    auxdata: 0xa26469706673582212203d239618d4ab303c3b188c5f20f55c85362f706087fe7438a962d5d4ca58fb6d64736f6c63430008070033\n}\n",
				"bytecode": {
					"linkReferences": {},
					"object": "608060405260016004553480156200001657600080fd5b50338060008073ffffffffffffffffffffffffffffffffffffffff168273ffffffffffffffffffffffffffffffffffffffff1614156200008d576040517f08c379a0000000000000000000000000000000000000000000000000000000008152600401620000849062000307565b60405180910390fd5b81600660006101000a81548173ffffffffffffffffffffffffffffffffffffffff021916908373ffffffffffffffffffffffffffffffffffffffff160217905550600073ffffffffffffffffffffffffffffffffffffffff168173ffffffffffffffffffffffffffffffffffffffff1614620001155762000114816200014360201b60201c565b5b5050506200013d73326c977e6efc84e512bb9c30f76e30c160ed06fb6200027560201b60201c565b620003ae565b3373ffffffffffffffffffffffffffffffffffffffff168173ffffffffffffffffffffffffffffffffffffffff161415620001b5576040517f08c379a0000000000000000000000000000000000000000000000000000000008152600401620001ac9062000329565b60405180910390fd5b80600760006101000a81548173ffffffffffffffffffffffffffffffffffffffff021916908373ffffffffffffffffffffffffffffffffffffffff1602179055508073ffffffffffffffffffffffffffffffffffffffff16600660009054906101000a900473ffffffffffffffffffffffffffffffffffffffff1673ffffffffffffffffffffffffffffffffffffffff167fed8889f560326eb138920d842192f0eb3dd22b4f139c87a2c57538e05bae127860405160405180910390a350565b80600260006101000a81548173ffffffffffffffffffffffffffffffffffffffff021916908373ffffffffffffffffffffffffffffffffffffffff16021790555050565b6000620002c86018836200034b565b9150620002d5826200035c565b602082019050919050565b6000620002ef6017836200034b565b9150620002fc8262000385565b602082019050919050565b600060208201905081810360008301526200032281620002b9565b9050919050565b600060208201905081810360008301526200034481620002e0565b9050919050565b600082825260208201905092915050565b7f43616e6e6f7420736574206f776e657220746f207a65726f0000000000000000600082015250565b7f43616e6e6f74207472616e7366657220746f2073656c66000000000000000000600082015250565b61239180620003be6000396000f3fe608060405234801561001057600080fd5b50600436106100935760003560e01c806392cdaaf31161006657806392cdaaf3146100e85780639d1b464a14610104578063ab643c1014610122578063ec65d0f81461013e578063f2fde38b1461015a57610093565b8063165d35e11461009857806379ba5097146100b65780638da5cb5b146100c05780638dc654a2146100de575b600080fd5b6100a0610176565b6040516100ad9190611947565b60405180910390f35b6100be610185565b005b6100c861031c565b6040516100d59190611947565b60405180910390f35b6100e6610346565b005b61010260048036038101906100fd91906116d2565b6104b1565b005b61010c6105f0565b6040516101199190611b53565b60405180910390f35b61013c60048036038101906101379190611649565b6105f6565b005b61015860048036038101906101539190611712565b610779565b005b610174600480360381019061016f919061161c565b610793565b005b60006101806107a7565b905090565b600760009054906101000a900473ffffffffffffffffffffffffffffffffffffffff1673ffffffffffffffffffffffffffffffffffffffff163373ffffffffffffffffffffffffffffffffffffffff1614610215576040517f08c379a000000000000000000000000000000000000000000000000000000000815260040161020c90611a93565b60405180910390fd5b6000600660009054906101000a900473ffffffffffffffffffffffffffffffffffffffff16905033600660006101000a81548173ffffffffffffffffffffffffffffffffffffffff021916908373ffffffffffffffffffffffffffffffffffffffff1602179055506000600760006101000a81548173ffffffffffffffffffffffffffffffffffffffff021916908373ffffffffffffffffffffffffffffffffffffffff1602179055503373ffffffffffffffffffffffffffffffffffffffff168173ffffffffffffffffffffffffffffffffffffffff167f8be0079c531659141344cd1fd0a4f28419497f9722a3daafe3b4186f6b6457e060405160405180910390a350565b6000600660009054906101000a900473ffffffffffffffffffffffffffffffffffffffff16905090565b61034e6107d1565b60006103586107a7565b90508073ffffffffffffffffffffffffffffffffffffffff1663a9059cbb338373ffffffffffffffffffffffffffffffffffffffff166370a08231306040518263ffffffff1660e01b81526004016103b09190611947565b60206040518083038186803b1580156103c857600080fd5b505afa1580156103dc573d6000803e3d6000fd5b505050506040513d601f19601f820116820180604052508101906104009190611779565b6040518363ffffffff1660e01b815260040161041d929190611962565b602060405180830381600087803b15801561043757600080fd5b505af115801561044b573d6000803e3d6000fd5b505050506040513d601f19601f8201168201806040525081019061046f91906116a5565b6104ae576040517f08c379a00000000000000000000000000000000000000000000000000000000081526004016104a590611af3565b60405180910390fd5b50565b816005600082815260200190815260200160002060009054906101000a900473ffffffffffffffffffffffffffffffffffffffff1673ffffffffffffffffffffffffffffffffffffffff163373ffffffffffffffffffffffffffffffffffffffff1614610553576040517f08c379a000000000000000000000000000000000000000000000000000000000815260040161054a90611b33565b60405180910390fd5b6005600082815260200190815260200160002060006101000a81549073ffffffffffffffffffffffffffffffffffffffff0219169055807f7cc135e0cebb02c3480ae5d74d377283180a2601f8f644edf7987b009316c63a60405160405180910390a281837f794eb9e29f6750ede99e05248d997a9ab9fa23c4a7eaff8afa729080eb7c642860405160405180910390a381600881905550505050565b60085481565b6105fe6107d1565b600061061a61060c83610863565b306392cdaaf360e01b61088d565b905061067e6040518060400160405280600381526020017f67657400000000000000000000000000000000000000000000000000000000008152506040518060600160405280603f815260200161231d603f9139836108be9092919063ffffffff16565b6106fd6040518060400160405280600481526020017f70617468000000000000000000000000000000000000000000000000000000008152506040518060400160405280600381526020017f5553440000000000000000000000000000000000000000000000000000000000815250836108be9092919063ffffffff16565b6107486040518060400160405280600581526020017f74696d65730000000000000000000000000000000000000000000000000000008152506064836108f19092919063ffffffff16565b6107738382600a670de0b6b3a764000060016107649190611de9565b61076e9190611c47565b610924565b50505050565b6107816107d1565b61078d848484846109f0565b50505050565b61079b6107d1565b6107a481610b03565b50565b6000600260009054906101000a900473ffffffffffffffffffffffffffffffffffffffff16905090565b600660009054906101000a900473ffffffffffffffffffffffffffffffffffffffff1673ffffffffffffffffffffffffffffffffffffffff163373ffffffffffffffffffffffffffffffffffffffff1614610861576040517f08c379a000000000000000000000000000000000000000000000000000000000815260040161085890611ad3565b60405180910390fd5b565b60008082905060008151141561087f576000801b915050610888565b60208301519150505b919050565b6108956114a7565b61089d6114a7565b6108b485858584610c32909392919063ffffffff16565b9150509392505050565b6108d5828460800151610ce290919063ffffffff16565b6108ec818460800151610ce290919063ffffffff16565b505050565b610908828460800151610ce290919063ffffffff16565b61091f818460800151610d0790919063ffffffff16565b505050565b60008060045490506001816109399190611bf1565b6004819055506000634042994660e01b60008087600001513089604001518760018c608001516000015160405160240161097a98979695949392919061198b565b604051602081830303815290604052907bffffffffffffffffffffffffffffffffffffffffffffffffffffffff19166020820180517bffffffffffffffffffffffffffffffffffffffffffffffffffffffff838183161783525050505090506109e586838684610db4565b925050509392505050565b60006005600086815260200190815260200160002060009054906101000a900473ffffffffffffffffffffffffffffffffffffffff1690506005600086815260200190815260200160002060006101000a81549073ffffffffffffffffffffffffffffffffffffffff0219169055847fe1fe3afa0f7f761ff0a8b89086790efd5140d2907ebd5b7ff6bfcb5e075fd4c560405160405180910390a28073ffffffffffffffffffffffffffffffffffffffff16636ee4d553868686866040518563ffffffff1660e01b8152600401610aca9493929190611a4e565b600060405180830381600087803b158015610ae457600080fd5b505af1158015610af8573d6000803e3d6000fd5b505050505050505050565b3373ffffffffffffffffffffffffffffffffffffffff168173ffffffffffffffffffffffffffffffffffffffff161415610b72576040517f08c379a0000000000000000000000000000000000000000000000000000000008152600401610b6990611b13565b60405180910390fd5b80600760006101000a81548173ffffffffffffffffffffffffffffffffffffffff021916908373ffffffffffffffffffffffffffffffffffffffff1602179055508073ffffffffffffffffffffffffffffffffffffffff16600660009054906101000a900473ffffffffffffffffffffffffffffffffffffffff1673ffffffffffffffffffffffffffffffffffffffff167fed8889f560326eb138920d842192f0eb3dd22b4f139c87a2c57538e05bae127860405160405180910390a350565b610c3a6114a7565b610c4a8560800151610100610f58565b508385600001818152505082856020019073ffffffffffffffffffffffffffffffffffffffff16908173ffffffffffffffffffffffffffffffffffffffff16815250508185604001907bffffffffffffffffffffffffffffffffffffffffffffffffffffffff191690817bffffffffffffffffffffffffffffffffffffffffffffffffffffffff191681525050849050949350505050565b610cef8260038351610fc2565b610d02818361114790919063ffffffff16565b505050565b7fffffffffffffffffffffffffffffffffffffffffffffffff0000000000000000811215610d3e57610d398282611169565b610db0565b67ffffffffffffffff811315610d5d57610d5882826111e0565b610daf565b60008112610d7657610d7182600083610fc2565b610dae565b610dad826001837fffffffffffffffffffffffffffffffffffffffffffffffffffffffffffffffff610da89190611e43565b610fc2565b5b5b5b5050565b60003084604051602001610dc992919061191b565b604051602081830303815290604052805190602001209050846005600083815260200190815260200160002060006101000a81548173ffffffffffffffffffffffffffffffffffffffff021916908373ffffffffffffffffffffffffffffffffffffffff160217905550807fb5e6e01e79f91267dc17b4e6314d5d4d03593d2ceee0fbb452b750bd70ea5af960405160405180910390a2600260009054906101000a900473ffffffffffffffffffffffffffffffffffffffff1673ffffffffffffffffffffffffffffffffffffffff16634000aea08685856040518463ffffffff1660e01b8152600401610ebf93929190611a10565b602060405180830381600087803b158015610ed957600080fd5b505af1158015610eed573d6000803e3d6000fd5b505050506040513d601f19601f82011682018060405250810190610f1191906116a5565b610f50576040517f08c379a0000000000000000000000000000000000000000000000000000000008152600401610f4790611ab3565b60405180910390fd5b949350505050565b610f60611514565b6000602083610f6f919061206a565b14610f9b57602082610f81919061206a565b6020610f8d9190611ed7565b82610f989190611bf1565b91505b81836020018181525050604051808452600081528281016020016040525082905092915050565b60178167ffffffffffffffff1611610ff957610ff38160058460ff16901b60ff16178461122c90919063ffffffff16565b50611142565b60ff8167ffffffffffffffff161161104f57611028601860058460ff16901b178461122c90919063ffffffff16565b506110498167ffffffffffffffff1660018561124c9092919063ffffffff16565b50611141565b61ffff8167ffffffffffffffff16116110a65761107f601960058460ff16901b178461122c90919063ffffffff16565b506110a08167ffffffffffffffff1660028561124c9092919063ffffffff16565b50611140565b63ffffffff8167ffffffffffffffff16116110ff576110d8601a60058460ff16901b178461122c90919063ffffffff16565b506110f98167ffffffffffffffff1660048561124c9092919063ffffffff16565b5061113f565b61111c601b60058460ff16901b178461122c90919063ffffffff16565b5061113d8167ffffffffffffffff1660088561124c9092919063ffffffff16565b505b5b5b5b505050565b61114f611514565b6111618384600001515184855161126e565b905092915050565b61118760036005600660ff16901b178361122c90919063ffffffff16565b506111dc82827fffffffffffffffffffffffffffffffffffffffffffffffffffffffffffffffff6111b89190611e43565b6040516020016111c89190611b53565b60405160208183030381529060405261135d565b5050565b6111fe60026005600660ff16901b178361122c90919063ffffffff16565b5061122882826040516020016112149190611b53565b60405160208183030381529060405261135d565b5050565b611234611514565b6112448384600001515184611382565b905092915050565b611254611514565b6112658485600001515185856113d9565b90509392505050565b611276611514565b825182111561128457600080fd5b846020015182856112959190611bf1565b11156112ca576112c98560026112ba886020015188876112b59190611bf1565b611467565b6112c49190611de9565b611483565b5b6000808651805187602083010193508088870111156112e95787860182525b60208701925050505b60208410611330578051825260208261130b9190611bf1565b915060208161131a9190611bf1565b90506020846113299190611ed7565b93506112f2565b60006001856020036101000a03905080198251168184511681811785525050508692505050949350505050565b61136a8260028351610fc2565b61137d818361114790919063ffffffff16565b505050565b61138a611514565b836020015183106113b0576113af84600286602001516113aa9190611de9565b611483565b5b83518051602085830101848153818614156113cc576001820183525b5050508390509392505050565b6113e1611514565b846020015184836113f29190611bf1565b111561141a57611419856002868561140a9190611bf1565b6114149190611de9565b611483565b5b600060018361010061142c9190611ccb565b6114369190611ed7565b905085518386820101858319825116178152815185880111156114595784870182525b505085915050949350505050565b6000818311156114795782905061147d565b8190505b92915050565b6000826000015190506114968383610f58565b506114a18382611147565b50505050565b6040518060a0016040528060008019168152602001600073ffffffffffffffffffffffffffffffffffffffff16815260200160007bffffffffffffffffffffffffffffffffffffffffffffffffffffffff191681526020016000815260200161150e611514565b81525090565b604051806040016040528060608152602001600081525090565b600061154161153c84611b93565b611b6e565b90508281526020810184848401111561155d5761155c61212d565b5b611568848285611fc9565b509392505050565b60008135905061157f816122a9565b92915050565b600081519050611594816122c0565b92915050565b6000813590506115a9816122d7565b92915050565b6000813590506115be816122ee565b92915050565b600082601f8301126115d9576115d8612128565b5b81356115e984826020860161152e565b91505092915050565b60008135905061160181612305565b92915050565b60008151905061161681612305565b92915050565b60006020828403121561163257611631612137565b5b600061164084828501611570565b91505092915050565b600080604083850312156116605761165f612137565b5b600061166e85828601611570565b925050602083013567ffffffffffffffff81111561168f5761168e612132565b5b61169b858286016115c4565b9150509250929050565b6000602082840312156116bb576116ba612137565b5b60006116c984828501611585565b91505092915050565b600080604083850312156116e9576116e8612137565b5b60006116f78582860161159a565b9250506020611708858286016115f2565b9150509250929050565b6000806000806080858703121561172c5761172b612137565b5b600061173a8782880161159a565b945050602061174b878288016115f2565b935050604061175c878288016115af565b925050606061176d878288016115f2565b91505092959194509250565b60006020828403121561178f5761178e612137565b5b600061179d84828501611607565b91505092915050565b6117af81611f0b565b82525050565b6117be81611f29565b82525050565b6117cd81611f33565b82525050565b60006117de82611bc4565b6117e88185611bcf565b93506117f8818560208601611fd8565b6118018161213c565b840191505092915050565b61181d61181882611f93565b61203c565b82525050565b6000611830601683611be0565b915061183b82612167565b602082019050919050565b6000611853602383611be0565b915061185e82612190565b604082019050919050565b6000611876601683611be0565b9150611881826121df565b602082019050919050565b6000611899601283611be0565b91506118a482612208565b602082019050919050565b60006118bc601783611be0565b91506118c782612231565b602082019050919050565b60006118df602883611be0565b91506118ea8261225a565b604082019050919050565b6118fe81611f89565b82525050565b61191561191082611f89565b612060565b82525050565b6000611927828561180c565b6014820191506119378284611904565b6020820191508190509392505050565b600060208201905061195c60008301846117a6565b92915050565b600060408201905061197760008301856117a6565b61198460208301846118f5565b9392505050565b6000610100820190506119a1600083018b6117a6565b6119ae602083018a6118f5565b6119bb60408301896117b5565b6119c860608301886117a6565b6119d560808301876117c4565b6119e260a08301866118f5565b6119ef60c08301856118f5565b81810360e0830152611a0181846117d3565b90509998505050505050505050565b6000606082019050611a2560008301866117a6565b611a3260208301856118f5565b8181036040830152611a4481846117d3565b9050949350505050565b6000608082019050611a6360008301876117b5565b611a7060208301866118f5565b611a7d60408301856117c4565b611a8a60608301846118f5565b95945050505050565b60006020820190508181036000830152611aac81611823565b9050919050565b60006020820190508181036000830152611acc81611846565b9050919050565b60006020820190508181036000830152611aec81611869565b9050919050565b60006020820190508181036000830152611b0c8161188c565b9050919050565b60006020820190508181036000830152611b2c816118af565b9050919050565b60006020820190508181036000830152611b4c816118d2565b9050919050565b6000602082019050611b6860008301846118f5565b92915050565b6000611b78611b89565b9050611b84828261200b565b919050565b6000604051905090565b600067ffffffffffffffff821115611bae57611bad6120f9565b5b611bb78261213c565b9050602081019050919050565b600081519050919050565b600082825260208201905092915050565b600082825260208201905092915050565b6000611bfc82611f89565b9150611c0783611f89565b9250827fffffffffffffffffffffffffffffffffffffffffffffffffffffffffffffffff03821115611c3c57611c3b61209b565b5b828201905092915050565b6000611c5282611f89565b9150611c5d83611f89565b925082611c6d57611c6c6120ca565b5b828204905092915050565b6000808291508390505b6001851115611cc257808604811115611c9e57611c9d61209b565b5b6001851615611cad5780820291505b8081029050611cbb8561215a565b9450611c82565b94509492505050565b6000611cd682611f89565b9150611ce183611f89565b9250611d0e7fffffffffffffffffffffffffffffffffffffffffffffffffffffffffffffffff8484611d16565b905092915050565b600082611d265760019050611de2565b81611d345760009050611de2565b8160018114611d4a5760028114611d5457611d83565b6001915050611de2565b60ff841115611d6657611d6561209b565b5b8360020a915084821115611d7d57611d7c61209b565b5b50611de2565b5060208310610133831016604e8410600b8410161715611db85782820a905083811115611db357611db261209b565b5b611de2565b611dc58484846001611c78565b92509050818404811115611ddc57611ddb61209b565b5b81810290505b9392505050565b6000611df482611f89565b9150611dff83611f89565b9250817fffffffffffffffffffffffffffffffffffffffffffffffffffffffffffffffff0483118215151615611e3857611e3761209b565b5b828202905092915050565b6000611e4e82611f5f565b9150611e5983611f5f565b9250827f800000000000000000000000000000000000000000000000000000000000000001821260008412151615611e9457611e9361209b565b5b827f7fffffffffffffffffffffffffffffffffffffffffffffffffffffffffffffff018213600084121615611ecc57611ecb61209b565b5b828203905092915050565b6000611ee282611f89565b9150611eed83611f89565b925082821015611f0057611eff61209b565b5b828203905092915050565b6000611f1682611f69565b9050919050565b60008115159050919050565b6000819050919050565b60007fffffffff0000000000000000000000000000000000000000000000000000000082169050919050565b6000819050919050565b600073ffffffffffffffffffffffffffffffffffffffff82169050919050565b6000819050919050565b6000611f9e82611fa5565b9050919050565b6000611fb082611fb7565b9050919050565b6000611fc282611f69565b9050919050565b82818337600083830152505050565b60005b83811015611ff6578082015181840152602081019050611fdb565b83811115612005576000848401525b50505050565b6120148261213c565b810181811067ffffffffffffffff82111715612033576120326120f9565b5b80604052505050565b60006120478261204e565b9050919050565b60006120598261214d565b9050919050565b6000819050919050565b600061207582611f89565b915061208083611f89565b9250826120905761208f6120ca565b5b828206905092915050565b7f4e487b7100000000000000000000000000000000000000000000000000000000600052601160045260246000fd5b7f4e487b7100000000000000000000000000000000000000000000000000000000600052601260045260246000fd5b7f4e487b7100000000000000000000000000000000000000000000000000000000600052604160045260246000fd5b600080fd5b600080fd5b600080fd5b600080fd5b6000601f19601f8301169050919050565b60008160601b9050919050565b60008160011c9050919050565b7f4d7573742062652070726f706f736564206f776e657200000000000000000000600082015250565b7f756e61626c6520746f207472616e73666572416e6443616c6c20746f206f726160008201527f636c650000000000000000000000000000000000000000000000000000000000602082015250565b7f4f6e6c792063616c6c61626c65206279206f776e657200000000000000000000600082015250565b7f556e61626c6520746f207472616e736665720000000000000000000000000000600082015250565b7f43616e6e6f74207472616e7366657220746f2073656c66000000000000000000600082015250565b7f536f75726365206d75737420626520746865206f7261636c65206f662074686560008201527f2072657175657374000000000000000000000000000000000000000000000000602082015250565b6122b281611f0b565b81146122bd57600080fd5b50565b6122c981611f1d565b81146122d457600080fd5b50565b6122e081611f29565b81146122eb57600080fd5b50565b6122f781611f33565b811461230257600080fd5b50565b61230e81611f89565b811461231957600080fd5b5056fe68747470733a2f2f6d696e2d6170692e63727970746f636f6d706172652e636f6d2f646174612f70726963653f6673796d3d455448267473796d733d555344a26469706673582212203d239618d4ab303c3b188c5f20f55c85362f706087fe7438a962d5d4ca58fb6d64736f6c63430008070033",
					"opcodes": "PUSH1 0x80 PUSH1 0x40 MSTORE PUSH1 0x1 PUSH1 0x4 SSTORE CALLVALUE DUP1 ISZERO PUSH3 0x16 JUMPI PUSH1 0x0 DUP1 REVERT JUMPDEST POP CALLER DUP1 PUSH1 0x0 DUP1 PUSH20 0xFFFFFFFFFFFFFFFFFFFFFFFFFFFFFFFFFFFFFFFF AND DUP3 PUSH20 0xFFFFFFFFFFFFFFFFFFFFFFFFFFFFFFFFFFFFFFFF AND EQ ISZERO PUSH3 0x8D JUMPI PUSH1 0x40 MLOAD PUSH32 0x8C379A000000000000000000000000000000000000000000000000000000000 DUP2 MSTORE PUSH1 0x4 ADD PUSH3 0x84 SWAP1 PUSH3 0x307 JUMP JUMPDEST PUSH1 0x40 MLOAD DUP1 SWAP2 SUB SWAP1 REVERT JUMPDEST DUP2 PUSH1 0x6 PUSH1 0x0 PUSH2 0x100 EXP DUP2 SLOAD DUP2 PUSH20 0xFFFFFFFFFFFFFFFFFFFFFFFFFFFFFFFFFFFFFFFF MUL NOT AND SWAP1 DUP4 PUSH20 0xFFFFFFFFFFFFFFFFFFFFFFFFFFFFFFFFFFFFFFFF AND MUL OR SWAP1 SSTORE POP PUSH1 0x0 PUSH20 0xFFFFFFFFFFFFFFFFFFFFFFFFFFFFFFFFFFFFFFFF AND DUP2 PUSH20 0xFFFFFFFFFFFFFFFFFFFFFFFFFFFFFFFFFFFFFFFF AND EQ PUSH3 0x115 JUMPI PUSH3 0x114 DUP2 PUSH3 0x143 PUSH1 0x20 SHL PUSH1 0x20 SHR JUMP JUMPDEST JUMPDEST POP POP POP PUSH3 0x13D PUSH20 0x326C977E6EFC84E512BB9C30F76E30C160ED06FB PUSH3 0x275 PUSH1 0x20 SHL PUSH1 0x20 SHR JUMP JUMPDEST PUSH3 0x3AE JUMP JUMPDEST CALLER PUSH20 0xFFFFFFFFFFFFFFFFFFFFFFFFFFFFFFFFFFFFFFFF AND DUP2 PUSH20 0xFFFFFFFFFFFFFFFFFFFFFFFFFFFFFFFFFFFFFFFF AND EQ ISZERO PUSH3 0x1B5 JUMPI PUSH1 0x40 MLOAD PUSH32 0x8C379A000000000000000000000000000000000000000000000000000000000 DUP2 MSTORE PUSH1 0x4 ADD PUSH3 0x1AC SWAP1 PUSH3 0x329 JUMP JUMPDEST PUSH1 0x40 MLOAD DUP1 SWAP2 SUB SWAP1 REVERT JUMPDEST DUP1 PUSH1 0x7 PUSH1 0x0 PUSH2 0x100 EXP DUP2 SLOAD DUP2 PUSH20 0xFFFFFFFFFFFFFFFFFFFFFFFFFFFFFFFFFFFFFFFF MUL NOT AND SWAP1 DUP4 PUSH20 0xFFFFFFFFFFFFFFFFFFFFFFFFFFFFFFFFFFFFFFFF AND MUL OR SWAP1 SSTORE POP DUP1 PUSH20 0xFFFFFFFFFFFFFFFFFFFFFFFFFFFFFFFFFFFFFFFF AND PUSH1 0x6 PUSH1 0x0 SWAP1 SLOAD SWAP1 PUSH2 0x100 EXP SWAP1 DIV PUSH20 0xFFFFFFFFFFFFFFFFFFFFFFFFFFFFFFFFFFFFFFFF AND PUSH20 0xFFFFFFFFFFFFFFFFFFFFFFFFFFFFFFFFFFFFFFFF AND PUSH32 0xED8889F560326EB138920D842192F0EB3DD22B4F139C87A2C57538E05BAE1278 PUSH1 0x40 MLOAD PUSH1 0x40 MLOAD DUP1 SWAP2 SUB SWAP1 LOG3 POP JUMP JUMPDEST DUP1 PUSH1 0x2 PUSH1 0x0 PUSH2 0x100 EXP DUP2 SLOAD DUP2 PUSH20 0xFFFFFFFFFFFFFFFFFFFFFFFFFFFFFFFFFFFFFFFF MUL NOT AND SWAP1 DUP4 PUSH20 0xFFFFFFFFFFFFFFFFFFFFFFFFFFFFFFFFFFFFFFFF AND MUL OR SWAP1 SSTORE POP POP JUMP JUMPDEST PUSH1 0x0 PUSH3 0x2C8 PUSH1 0x18 DUP4 PUSH3 0x34B JUMP JUMPDEST SWAP2 POP PUSH3 0x2D5 DUP3 PUSH3 0x35C JUMP JUMPDEST PUSH1 0x20 DUP3 ADD SWAP1 POP SWAP2 SWAP1 POP JUMP JUMPDEST PUSH1 0x0 PUSH3 0x2EF PUSH1 0x17 DUP4 PUSH3 0x34B JUMP JUMPDEST SWAP2 POP PUSH3 0x2FC DUP3 PUSH3 0x385 JUMP JUMPDEST PUSH1 0x20 DUP3 ADD SWAP1 POP SWAP2 SWAP1 POP JUMP JUMPDEST PUSH1 0x0 PUSH1 0x20 DUP3 ADD SWAP1 POP DUP2 DUP2 SUB PUSH1 0x0 DUP4 ADD MSTORE PUSH3 0x322 DUP2 PUSH3 0x2B9 JUMP JUMPDEST SWAP1 POP SWAP2 SWAP1 POP JUMP JUMPDEST PUSH1 0x0 PUSH1 0x20 DUP3 ADD SWAP1 POP DUP2 DUP2 SUB PUSH1 0x0 DUP4 ADD MSTORE PUSH3 0x344 DUP2 PUSH3 0x2E0 JUMP JUMPDEST SWAP1 POP SWAP2 SWAP1 POP JUMP JUMPDEST PUSH1 0x0 DUP3 DUP3 MSTORE PUSH1 0x20 DUP3 ADD SWAP1 POP SWAP3 SWAP2 POP POP JUMP JUMPDEST PUSH32 0x43616E6E6F7420736574206F776E657220746F207A65726F0000000000000000 PUSH1 0x0 DUP3 ADD MSTORE POP JUMP JUMPDEST PUSH32 0x43616E6E6F74207472616E7366657220746F2073656C66000000000000000000 PUSH1 0x0 DUP3 ADD MSTORE POP JUMP JUMPDEST PUSH2 0x2391 DUP1 PUSH3 0x3BE PUSH1 0x0 CODECOPY PUSH1 0x0 RETURN INVALID PUSH1 0x80 PUSH1 0x40 MSTORE CALLVALUE DUP1 ISZERO PUSH2 0x10 JUMPI PUSH1 0x0 DUP1 REVERT JUMPDEST POP PUSH1 0x4 CALLDATASIZE LT PUSH2 0x93 JUMPI PUSH1 0x0 CALLDATALOAD PUSH1 0xE0 SHR DUP1 PUSH4 0x92CDAAF3 GT PUSH2 0x66 JUMPI DUP1 PUSH4 0x92CDAAF3 EQ PUSH2 0xE8 JUMPI DUP1 PUSH4 0x9D1B464A EQ PUSH2 0x104 JUMPI DUP1 PUSH4 0xAB643C10 EQ PUSH2 0x122 JUMPI DUP1 PUSH4 0xEC65D0F8 EQ PUSH2 0x13E JUMPI DUP1 PUSH4 0xF2FDE38B EQ PUSH2 0x15A JUMPI PUSH2 0x93 JUMP JUMPDEST DUP1 PUSH4 0x165D35E1 EQ PUSH2 0x98 JUMPI DUP1 PUSH4 0x79BA5097 EQ PUSH2 0xB6 JUMPI DUP1 PUSH4 0x8DA5CB5B EQ PUSH2 0xC0 JUMPI DUP1 PUSH4 0x8DC654A2 EQ PUSH2 0xDE JUMPI JUMPDEST PUSH1 0x0 DUP1 REVERT JUMPDEST PUSH2 0xA0 PUSH2 0x176 JUMP JUMPDEST PUSH1 0x40 MLOAD PUSH2 0xAD SWAP2 SWAP1 PUSH2 0x1947 JUMP JUMPDEST PUSH1 0x40 MLOAD DUP1 SWAP2 SUB SWAP1 RETURN JUMPDEST PUSH2 0xBE PUSH2 0x185 JUMP JUMPDEST STOP JUMPDEST PUSH2 0xC8 PUSH2 0x31C JUMP JUMPDEST PUSH1 0x40 MLOAD PUSH2 0xD5 SWAP2 SWAP1 PUSH2 0x1947 JUMP JUMPDEST PUSH1 0x40 MLOAD DUP1 SWAP2 SUB SWAP1 RETURN JUMPDEST PUSH2 0xE6 PUSH2 0x346 JUMP JUMPDEST STOP JUMPDEST PUSH2 0x102 PUSH1 0x4 DUP1 CALLDATASIZE SUB DUP2 ADD SWAP1 PUSH2 0xFD SWAP2 SWAP1 PUSH2 0x16D2 JUMP JUMPDEST PUSH2 0x4B1 JUMP JUMPDEST STOP JUMPDEST PUSH2 0x10C PUSH2 0x5F0 JUMP JUMPDEST PUSH1 0x40 MLOAD PUSH2 0x119 SWAP2 SWAP1 PUSH2 0x1B53 JUMP JUMPDEST PUSH1 0x40 MLOAD DUP1 SWAP2 SUB SWAP1 RETURN JUMPDEST PUSH2 0x13C PUSH1 0x4 DUP1 CALLDATASIZE SUB DUP2 ADD SWAP1 PUSH2 0x137 SWAP2 SWAP1 PUSH2 0x1649 JUMP JUMPDEST PUSH2 0x5F6 JUMP JUMPDEST STOP JUMPDEST PUSH2 0x158 PUSH1 0x4 DUP1 CALLDATASIZE SUB DUP2 ADD SWAP1 PUSH2 0x153 SWAP2 SWAP1 PUSH2 0x1712 JUMP JUMPDEST PUSH2 0x779 JUMP JUMPDEST STOP JUMPDEST PUSH2 0x174 PUSH1 0x4 DUP1 CALLDATASIZE SUB DUP2 ADD SWAP1 PUSH2 0x16F SWAP2 SWAP1 PUSH2 0x161C JUMP JUMPDEST PUSH2 0x793 JUMP JUMPDEST STOP JUMPDEST PUSH1 0x0 PUSH2 0x180 PUSH2 0x7A7 JUMP JUMPDEST SWAP1 POP SWAP1 JUMP JUMPDEST PUSH1 0x7 PUSH1 0x0 SWAP1 SLOAD SWAP1 PUSH2 0x100 EXP SWAP1 DIV PUSH20 0xFFFFFFFFFFFFFFFFFFFFFFFFFFFFFFFFFFFFFFFF AND PUSH20 0xFFFFFFFFFFFFFFFFFFFFFFFFFFFFFFFFFFFFFFFF AND CALLER PUSH20 0xFFFFFFFFFFFFFFFFFFFFFFFFFFFFFFFFFFFFFFFF AND EQ PUSH2 0x215 JUMPI PUSH1 0x40 MLOAD PUSH32 0x8C379A000000000000000000000000000000000000000000000000000000000 DUP2 MSTORE PUSH1 0x4 ADD PUSH2 0x20C SWAP1 PUSH2 0x1A93 JUMP JUMPDEST PUSH1 0x40 MLOAD DUP1 SWAP2 SUB SWAP1 REVERT JUMPDEST PUSH1 0x0 PUSH1 0x6 PUSH1 0x0 SWAP1 SLOAD SWAP1 PUSH2 0x100 EXP SWAP1 DIV PUSH20 0xFFFFFFFFFFFFFFFFFFFFFFFFFFFFFFFFFFFFFFFF AND SWAP1 POP CALLER PUSH1 0x6 PUSH1 0x0 PUSH2 0x100 EXP DUP2 SLOAD DUP2 PUSH20 0xFFFFFFFFFFFFFFFFFFFFFFFFFFFFFFFFFFFFFFFF MUL NOT AND SWAP1 DUP4 PUSH20 0xFFFFFFFFFFFFFFFFFFFFFFFFFFFFFFFFFFFFFFFF AND MUL OR SWAP1 SSTORE POP PUSH1 0x0 PUSH1 0x7 PUSH1 0x0 PUSH2 0x100 EXP DUP2 SLOAD DUP2 PUSH20 0xFFFFFFFFFFFFFFFFFFFFFFFFFFFFFFFFFFFFFFFF MUL NOT AND SWAP1 DUP4 PUSH20 0xFFFFFFFFFFFFFFFFFFFFFFFFFFFFFFFFFFFFFFFF AND MUL OR SWAP1 SSTORE POP CALLER PUSH20 0xFFFFFFFFFFFFFFFFFFFFFFFFFFFFFFFFFFFFFFFF AND DUP2 PUSH20 0xFFFFFFFFFFFFFFFFFFFFFFFFFFFFFFFFFFFFFFFF AND PUSH32 0x8BE0079C531659141344CD1FD0A4F28419497F9722A3DAAFE3B4186F6B6457E0 PUSH1 0x40 MLOAD PUSH1 0x40 MLOAD DUP1 SWAP2 SUB SWAP1 LOG3 POP JUMP JUMPDEST PUSH1 0x0 PUSH1 0x6 PUSH1 0x0 SWAP1 SLOAD SWAP1 PUSH2 0x100 EXP SWAP1 DIV PUSH20 0xFFFFFFFFFFFFFFFFFFFFFFFFFFFFFFFFFFFFFFFF AND SWAP1 POP SWAP1 JUMP JUMPDEST PUSH2 0x34E PUSH2 0x7D1 JUMP JUMPDEST PUSH1 0x0 PUSH2 0x358 PUSH2 0x7A7 JUMP JUMPDEST SWAP1 POP DUP1 PUSH20 0xFFFFFFFFFFFFFFFFFFFFFFFFFFFFFFFFFFFFFFFF AND PUSH4 0xA9059CBB CALLER DUP4 PUSH20 0xFFFFFFFFFFFFFFFFFFFFFFFFFFFFFFFFFFFFFFFF AND PUSH4 0x70A08231 ADDRESS PUSH1 0x40 MLOAD DUP3 PUSH4 0xFFFFFFFF AND PUSH1 0xE0 SHL DUP2 MSTORE PUSH1 0x4 ADD PUSH2 0x3B0 SWAP2 SWAP1 PUSH2 0x1947 JUMP JUMPDEST PUSH1 0x20 PUSH1 0x40 MLOAD DUP1 DUP4 SUB DUP2 DUP7 DUP1 EXTCODESIZE ISZERO DUP1 ISZERO PUSH2 0x3C8 JUMPI PUSH1 0x0 DUP1 REVERT JUMPDEST POP GAS STATICCALL ISZERO DUP1 ISZERO PUSH2 0x3DC JUMPI RETURNDATASIZE PUSH1 0x0 DUP1 RETURNDATACOPY RETURNDATASIZE PUSH1 0x0 REVERT JUMPDEST POP POP POP POP PUSH1 0x40 MLOAD RETURNDATASIZE PUSH1 0x1F NOT PUSH1 0x1F DUP3 ADD AND DUP3 ADD DUP1 PUSH1 0x40 MSTORE POP DUP2 ADD SWAP1 PUSH2 0x400 SWAP2 SWAP1 PUSH2 0x1779 JUMP JUMPDEST PUSH1 0x40 MLOAD DUP4 PUSH4 0xFFFFFFFF AND PUSH1 0xE0 SHL DUP2 MSTORE PUSH1 0x4 ADD PUSH2 0x41D SWAP3 SWAP2 SWAP1 PUSH2 0x1962 JUMP JUMPDEST PUSH1 0x20 PUSH1 0x40 MLOAD DUP1 DUP4 SUB DUP2 PUSH1 0x0 DUP8 DUP1 EXTCODESIZE ISZERO DUP1 ISZERO PUSH2 0x437 JUMPI PUSH1 0x0 DUP1 REVERT JUMPDEST POP GAS CALL ISZERO DUP1 ISZERO PUSH2 0x44B JUMPI RETURNDATASIZE PUSH1 0x0 DUP1 RETURNDATACOPY RETURNDATASIZE PUSH1 0x0 REVERT JUMPDEST POP POP POP POP PUSH1 0x40 MLOAD RETURNDATASIZE PUSH1 0x1F NOT PUSH1 0x1F DUP3 ADD AND DUP3 ADD DUP1 PUSH1 0x40 MSTORE POP DUP2 ADD SWAP1 PUSH2 0x46F SWAP2 SWAP1 PUSH2 0x16A5 JUMP JUMPDEST PUSH2 0x4AE JUMPI PUSH1 0x40 MLOAD PUSH32 0x8C379A000000000000000000000000000000000000000000000000000000000 DUP2 MSTORE PUSH1 0x4 ADD PUSH2 0x4A5 SWAP1 PUSH2 0x1AF3 JUMP JUMPDEST PUSH1 0x40 MLOAD DUP1 SWAP2 SUB SWAP1 REVERT JUMPDEST POP JUMP JUMPDEST DUP2 PUSH1 0x5 PUSH1 0x0 DUP3 DUP2 MSTORE PUSH1 0x20 ADD SWAP1 DUP2 MSTORE PUSH1 0x20 ADD PUSH1 0x0 KECCAK256 PUSH1 0x0 SWAP1 SLOAD SWAP1 PUSH2 0x100 EXP SWAP1 DIV PUSH20 0xFFFFFFFFFFFFFFFFFFFFFFFFFFFFFFFFFFFFFFFF AND PUSH20 0xFFFFFFFFFFFFFFFFFFFFFFFFFFFFFFFFFFFFFFFF AND CALLER PUSH20 0xFFFFFFFFFFFFFFFFFFFFFFFFFFFFFFFFFFFFFFFF AND EQ PUSH2 0x553 JUMPI PUSH1 0x40 MLOAD PUSH32 0x8C379A000000000000000000000000000000000000000000000000000000000 DUP2 MSTORE PUSH1 0x4 ADD PUSH2 0x54A SWAP1 PUSH2 0x1B33 JUMP JUMPDEST PUSH1 0x40 MLOAD DUP1 SWAP2 SUB SWAP1 REVERT JUMPDEST PUSH1 0x5 PUSH1 0x0 DUP3 DUP2 MSTORE PUSH1 0x20 ADD SWAP1 DUP2 MSTORE PUSH1 0x20 ADD PUSH1 0x0 KECCAK256 PUSH1 0x0 PUSH2 0x100 EXP DUP2 SLOAD SWAP1 PUSH20 0xFFFFFFFFFFFFFFFFFFFFFFFFFFFFFFFFFFFFFFFF MUL NOT AND SWAP1 SSTORE DUP1 PUSH32 0x7CC135E0CEBB02C3480AE5D74D377283180A2601F8F644EDF7987B009316C63A PUSH1 0x40 MLOAD PUSH1 0x40 MLOAD DUP1 SWAP2 SUB SWAP1 LOG2 DUP2 DUP4 PUSH32 0x794EB9E29F6750EDE99E05248D997A9AB9FA23C4A7EAFF8AFA729080EB7C6428 PUSH1 0x40 MLOAD PUSH1 0x40 MLOAD DUP1 SWAP2 SUB SWAP1 LOG3 DUP2 PUSH1 0x8 DUP2 SWAP1 SSTORE POP POP POP POP JUMP JUMPDEST PUSH1 0x8 SLOAD DUP2 JUMP JUMPDEST PUSH2 0x5FE PUSH2 0x7D1 JUMP JUMPDEST PUSH1 0x0 PUSH2 0x61A PUSH2 0x60C DUP4 PUSH2 0x863 JUMP JUMPDEST ADDRESS PUSH4 0x92CDAAF3 PUSH1 0xE0 SHL PUSH2 0x88D JUMP JUMPDEST SWAP1 POP PUSH2 0x67E PUSH1 0x40 MLOAD DUP1 PUSH1 0x40 ADD PUSH1 0x40 MSTORE DUP1 PUSH1 0x3 DUP2 MSTORE PUSH1 0x20 ADD PUSH32 0x6765740000000000000000000000000000000000000000000000000000000000 DUP2 MSTORE POP PUSH1 0x40 MLOAD DUP1 PUSH1 0x60 ADD PUSH1 0x40 MSTORE DUP1 PUSH1 0x3F DUP2 MSTORE PUSH1 0x20 ADD PUSH2 0x231D PUSH1 0x3F SWAP2 CODECOPY DUP4 PUSH2 0x8BE SWAP1 SWAP3 SWAP2 SWAP1 PUSH4 0xFFFFFFFF AND JUMP JUMPDEST PUSH2 0x6FD PUSH1 0x40 MLOAD DUP1 PUSH1 0x40 ADD PUSH1 0x40 MSTORE DUP1 PUSH1 0x4 DUP2 MSTORE PUSH1 0x20 ADD PUSH32 0x7061746800000000000000000000000000000000000000000000000000000000 DUP2 MSTORE POP PUSH1 0x40 MLOAD DUP1 PUSH1 0x40 ADD PUSH1 0x40 MSTORE DUP1 PUSH1 0x3 DUP2 MSTORE PUSH1 0x20 ADD PUSH32 0x5553440000000000000000000000000000000000000000000000000000000000 DUP2 MSTORE POP DUP4 PUSH2 0x8BE SWAP1 SWAP3 SWAP2 SWAP1 PUSH4 0xFFFFFFFF AND JUMP JUMPDEST PUSH2 0x748 PUSH1 0x40 MLOAD DUP1 PUSH1 0x40 ADD PUSH1 0x40 MSTORE DUP1 PUSH1 0x5 DUP2 MSTORE PUSH1 0x20 ADD PUSH32 0x74696D6573000000000000000000000000000000000000000000000000000000 DUP2 MSTORE POP PUSH1 0x64 DUP4 PUSH2 0x8F1 SWAP1 SWAP3 SWAP2 SWAP1 PUSH4 0xFFFFFFFF AND JUMP JUMPDEST PUSH2 0x773 DUP4 DUP3 PUSH1 0xA PUSH8 0xDE0B6B3A7640000 PUSH1 0x1 PUSH2 0x764 SWAP2 SWAP1 PUSH2 0x1DE9 JUMP JUMPDEST PUSH2 0x76E SWAP2 SWAP1 PUSH2 0x1C47 JUMP JUMPDEST PUSH2 0x924 JUMP JUMPDEST POP POP POP POP JUMP JUMPDEST PUSH2 0x781 PUSH2 0x7D1 JUMP JUMPDEST PUSH2 0x78D DUP5 DUP5 DUP5 DUP5 PUSH2 0x9F0 JUMP JUMPDEST POP POP POP POP JUMP JUMPDEST PUSH2 0x79B PUSH2 0x7D1 JUMP JUMPDEST PUSH2 0x7A4 DUP2 PUSH2 0xB03 JUMP JUMPDEST POP JUMP JUMPDEST PUSH1 0x0 PUSH1 0x2 PUSH1 0x0 SWAP1 SLOAD SWAP1 PUSH2 0x100 EXP SWAP1 DIV PUSH20 0xFFFFFFFFFFFFFFFFFFFFFFFFFFFFFFFFFFFFFFFF AND SWAP1 POP SWAP1 JUMP JUMPDEST PUSH1 0x6 PUSH1 0x0 SWAP1 SLOAD SWAP1 PUSH2 0x100 EXP SWAP1 DIV PUSH20 0xFFFFFFFFFFFFFFFFFFFFFFFFFFFFFFFFFFFFFFFF AND PUSH20 0xFFFFFFFFFFFFFFFFFFFFFFFFFFFFFFFFFFFFFFFF AND CALLER PUSH20 0xFFFFFFFFFFFFFFFFFFFFFFFFFFFFFFFFFFFFFFFF AND EQ PUSH2 0x861 JUMPI PUSH1 0x40 MLOAD PUSH32 0x8C379A000000000000000000000000000000000000000000000000000000000 DUP2 MSTORE PUSH1 0x4 ADD PUSH2 0x858 SWAP1 PUSH2 0x1AD3 JUMP JUMPDEST PUSH1 0x40 MLOAD DUP1 SWAP2 SUB SWAP1 REVERT JUMPDEST JUMP JUMPDEST PUSH1 0x0 DUP1 DUP3 SWAP1 POP PUSH1 0x0 DUP2 MLOAD EQ ISZERO PUSH2 0x87F JUMPI PUSH1 0x0 DUP1 SHL SWAP2 POP POP PUSH2 0x888 JUMP JUMPDEST PUSH1 0x20 DUP4 ADD MLOAD SWAP2 POP POP JUMPDEST SWAP2 SWAP1 POP JUMP JUMPDEST PUSH2 0x895 PUSH2 0x14A7 JUMP JUMPDEST PUSH2 0x89D PUSH2 0x14A7 JUMP JUMPDEST PUSH2 0x8B4 DUP6 DUP6 DUP6 DUP5 PUSH2 0xC32 SWAP1 SWAP4 SWAP3 SWAP2 SWAP1 PUSH4 0xFFFFFFFF AND JUMP JUMPDEST SWAP2 POP POP SWAP4 SWAP3 POP POP POP JUMP JUMPDEST PUSH2 0x8D5 DUP3 DUP5 PUSH1 0x80 ADD MLOAD PUSH2 0xCE2 SWAP1 SWAP2 SWAP1 PUSH4 0xFFFFFFFF AND JUMP JUMPDEST PUSH2 0x8EC DUP2 DUP5 PUSH1 0x80 ADD MLOAD PUSH2 0xCE2 SWAP1 SWAP2 SWAP1 PUSH4 0xFFFFFFFF AND JUMP JUMPDEST POP POP POP JUMP JUMPDEST PUSH2 0x908 DUP3 DUP5 PUSH1 0x80 ADD MLOAD PUSH2 0xCE2 SWAP1 SWAP2 SWAP1 PUSH4 0xFFFFFFFF AND JUMP JUMPDEST PUSH2 0x91F DUP2 DUP5 PUSH1 0x80 ADD MLOAD PUSH2 0xD07 SWAP1 SWAP2 SWAP1 PUSH4 0xFFFFFFFF AND JUMP JUMPDEST POP POP POP JUMP JUMPDEST PUSH1 0x0 DUP1 PUSH1 0x4 SLOAD SWAP1 POP PUSH1 0x1 DUP2 PUSH2 0x939 SWAP2 SWAP1 PUSH2 0x1BF1 JUMP JUMPDEST PUSH1 0x4 DUP2 SWAP1 SSTORE POP PUSH1 0x0 PUSH4 0x40429946 PUSH1 0xE0 SHL PUSH1 0x0 DUP1 DUP8 PUSH1 0x0 ADD MLOAD ADDRESS DUP10 PUSH1 0x40 ADD MLOAD DUP8 PUSH1 0x1 DUP13 PUSH1 0x80 ADD MLOAD PUSH1 0x0 ADD MLOAD PUSH1 0x40 MLOAD PUSH1 0x24 ADD PUSH2 0x97A SWAP9 SWAP8 SWAP7 SWAP6 SWAP5 SWAP4 SWAP3 SWAP2 SWAP1 PUSH2 0x198B JUMP JUMPDEST PUSH1 0x40 MLOAD PUSH1 0x20 DUP2 DUP4 SUB SUB DUP2 MSTORE SWAP1 PUSH1 0x40 MSTORE SWAP1 PUSH28 0xFFFFFFFFFFFFFFFFFFFFFFFFFFFFFFFFFFFFFFFFFFFFFFFFFFFFFFFF NOT AND PUSH1 0x20 DUP3 ADD DUP1 MLOAD PUSH28 0xFFFFFFFFFFFFFFFFFFFFFFFFFFFFFFFFFFFFFFFFFFFFFFFFFFFFFFFF DUP4 DUP2 DUP4 AND OR DUP4 MSTORE POP POP POP POP SWAP1 POP PUSH2 0x9E5 DUP7 DUP4 DUP7 DUP5 PUSH2 0xDB4 JUMP JUMPDEST SWAP3 POP POP POP SWAP4 SWAP3 POP POP POP JUMP JUMPDEST PUSH1 0x0 PUSH1 0x5 PUSH1 0x0 DUP7 DUP2 MSTORE PUSH1 0x20 ADD SWAP1 DUP2 MSTORE PUSH1 0x20 ADD PUSH1 0x0 KECCAK256 PUSH1 0x0 SWAP1 SLOAD SWAP1 PUSH2 0x100 EXP SWAP1 DIV PUSH20 0xFFFFFFFFFFFFFFFFFFFFFFFFFFFFFFFFFFFFFFFF AND SWAP1 POP PUSH1 0x5 PUSH1 0x0 DUP7 DUP2 MSTORE PUSH1 0x20 ADD SWAP1 DUP2 MSTORE PUSH1 0x20 ADD PUSH1 0x0 KECCAK256 PUSH1 0x0 PUSH2 0x100 EXP DUP2 SLOAD SWAP1 PUSH20 0xFFFFFFFFFFFFFFFFFFFFFFFFFFFFFFFFFFFFFFFF MUL NOT AND SWAP1 SSTORE DUP5 PUSH32 0xE1FE3AFA0F7F761FF0A8B89086790EFD5140D2907EBD5B7FF6BFCB5E075FD4C5 PUSH1 0x40 MLOAD PUSH1 0x40 MLOAD DUP1 SWAP2 SUB SWAP1 LOG2 DUP1 PUSH20 0xFFFFFFFFFFFFFFFFFFFFFFFFFFFFFFFFFFFFFFFF AND PUSH4 0x6EE4D553 DUP7 DUP7 DUP7 DUP7 PUSH1 0x40 MLOAD DUP6 PUSH4 0xFFFFFFFF AND PUSH1 0xE0 SHL DUP2 MSTORE PUSH1 0x4 ADD PUSH2 0xACA SWAP5 SWAP4 SWAP3 SWAP2 SWAP1 PUSH2 0x1A4E JUMP JUMPDEST PUSH1 0x0 PUSH1 0x40 MLOAD DUP1 DUP4 SUB DUP2 PUSH1 0x0 DUP8 DUP1 EXTCODESIZE ISZERO DUP1 ISZERO PUSH2 0xAE4 JUMPI PUSH1 0x0 DUP1 REVERT JUMPDEST POP GAS CALL ISZERO DUP1 ISZERO PUSH2 0xAF8 JUMPI RETURNDATASIZE PUSH1 0x0 DUP1 RETURNDATACOPY RETURNDATASIZE PUSH1 0x0 REVERT JUMPDEST POP POP POP POP POP POP POP POP POP JUMP JUMPDEST CALLER PUSH20 0xFFFFFFFFFFFFFFFFFFFFFFFFFFFFFFFFFFFFFFFF AND DUP2 PUSH20 0xFFFFFFFFFFFFFFFFFFFFFFFFFFFFFFFFFFFFFFFF AND EQ ISZERO PUSH2 0xB72 JUMPI PUSH1 0x40 MLOAD PUSH32 0x8C379A000000000000000000000000000000000000000000000000000000000 DUP2 MSTORE PUSH1 0x4 ADD PUSH2 0xB69 SWAP1 PUSH2 0x1B13 JUMP JUMPDEST PUSH1 0x40 MLOAD DUP1 SWAP2 SUB SWAP1 REVERT JUMPDEST DUP1 PUSH1 0x7 PUSH1 0x0 PUSH2 0x100 EXP DUP2 SLOAD DUP2 PUSH20 0xFFFFFFFFFFFFFFFFFFFFFFFFFFFFFFFFFFFFFFFF MUL NOT AND SWAP1 DUP4 PUSH20 0xFFFFFFFFFFFFFFFFFFFFFFFFFFFFFFFFFFFFFFFF AND MUL OR SWAP1 SSTORE POP DUP1 PUSH20 0xFFFFFFFFFFFFFFFFFFFFFFFFFFFFFFFFFFFFFFFF AND PUSH1 0x6 PUSH1 0x0 SWAP1 SLOAD SWAP1 PUSH2 0x100 EXP SWAP1 DIV PUSH20 0xFFFFFFFFFFFFFFFFFFFFFFFFFFFFFFFFFFFFFFFF AND PUSH20 0xFFFFFFFFFFFFFFFFFFFFFFFFFFFFFFFFFFFFFFFF AND PUSH32 0xED8889F560326EB138920D842192F0EB3DD22B4F139C87A2C57538E05BAE1278 PUSH1 0x40 MLOAD PUSH1 0x40 MLOAD DUP1 SWAP2 SUB SWAP1 LOG3 POP JUMP JUMPDEST PUSH2 0xC3A PUSH2 0x14A7 JUMP JUMPDEST PUSH2 0xC4A DUP6 PUSH1 0x80 ADD MLOAD PUSH2 0x100 PUSH2 0xF58 JUMP JUMPDEST POP DUP4 DUP6 PUSH1 0x0 ADD DUP2 DUP2 MSTORE POP POP DUP3 DUP6 PUSH1 0x20 ADD SWAP1 PUSH20 0xFFFFFFFFFFFFFFFFFFFFFFFFFFFFFFFFFFFFFFFF AND SWAP1 DUP2 PUSH20 0xFFFFFFFFFFFFFFFFFFFFFFFFFFFFFFFFFFFFFFFF AND DUP2 MSTORE POP POP DUP2 DUP6 PUSH1 0x40 ADD SWAP1 PUSH28 0xFFFFFFFFFFFFFFFFFFFFFFFFFFFFFFFFFFFFFFFFFFFFFFFFFFFFFFFF NOT AND SWAP1 DUP2 PUSH28 0xFFFFFFFFFFFFFFFFFFFFFFFFFFFFFFFFFFFFFFFFFFFFFFFFFFFFFFFF NOT AND DUP2 MSTORE POP POP DUP5 SWAP1 POP SWAP5 SWAP4 POP POP POP POP JUMP JUMPDEST PUSH2 0xCEF DUP3 PUSH1 0x3 DUP4 MLOAD PUSH2 0xFC2 JUMP JUMPDEST PUSH2 0xD02 DUP2 DUP4 PUSH2 0x1147 SWAP1 SWAP2 SWAP1 PUSH4 0xFFFFFFFF AND JUMP JUMPDEST POP POP POP JUMP JUMPDEST PUSH32 0xFFFFFFFFFFFFFFFFFFFFFFFFFFFFFFFFFFFFFFFFFFFFFFFF0000000000000000 DUP2 SLT ISZERO PUSH2 0xD3E JUMPI PUSH2 0xD39 DUP3 DUP3 PUSH2 0x1169 JUMP JUMPDEST PUSH2 0xDB0 JUMP JUMPDEST PUSH8 0xFFFFFFFFFFFFFFFF DUP2 SGT ISZERO PUSH2 0xD5D JUMPI PUSH2 0xD58 DUP3 DUP3 PUSH2 0x11E0 JUMP JUMPDEST PUSH2 0xDAF JUMP JUMPDEST PUSH1 0x0 DUP2 SLT PUSH2 0xD76 JUMPI PUSH2 0xD71 DUP3 PUSH1 0x0 DUP4 PUSH2 0xFC2 JUMP JUMPDEST PUSH2 0xDAE JUMP JUMPDEST PUSH2 0xDAD DUP3 PUSH1 0x1 DUP4 PUSH32 0xFFFFFFFFFFFFFFFFFFFFFFFFFFFFFFFFFFFFFFFFFFFFFFFFFFFFFFFFFFFFFFFF PUSH2 0xDA8 SWAP2 SWAP1 PUSH2 0x1E43 JUMP JUMPDEST PUSH2 0xFC2 JUMP JUMPDEST JUMPDEST JUMPDEST JUMPDEST POP POP JUMP JUMPDEST PUSH1 0x0 ADDRESS DUP5 PUSH1 0x40 MLOAD PUSH1 0x20 ADD PUSH2 0xDC9 SWAP3 SWAP2 SWAP1 PUSH2 0x191B JUMP JUMPDEST PUSH1 0x40 MLOAD PUSH1 0x20 DUP2 DUP4 SUB SUB DUP2 MSTORE SWAP1 PUSH1 0x40 MSTORE DUP1 MLOAD SWAP1 PUSH1 0x20 ADD KECCAK256 SWAP1 POP DUP5 PUSH1 0x5 PUSH1 0x0 DUP4 DUP2 MSTORE PUSH1 0x20 ADD SWAP1 DUP2 MSTORE PUSH1 0x20 ADD PUSH1 0x0 KECCAK256 PUSH1 0x0 PUSH2 0x100 EXP DUP2 SLOAD DUP2 PUSH20 0xFFFFFFFFFFFFFFFFFFFFFFFFFFFFFFFFFFFFFFFF MUL NOT AND SWAP1 DUP4 PUSH20 0xFFFFFFFFFFFFFFFFFFFFFFFFFFFFFFFFFFFFFFFF AND MUL OR SWAP1 SSTORE POP DUP1 PUSH32 0xB5E6E01E79F91267DC17B4E6314D5D4D03593D2CEEE0FBB452B750BD70EA5AF9 PUSH1 0x40 MLOAD PUSH1 0x40 MLOAD DUP1 SWAP2 SUB SWAP1 LOG2 PUSH1 0x2 PUSH1 0x0 SWAP1 SLOAD SWAP1 PUSH2 0x100 EXP SWAP1 DIV PUSH20 0xFFFFFFFFFFFFFFFFFFFFFFFFFFFFFFFFFFFFFFFF AND PUSH20 0xFFFFFFFFFFFFFFFFFFFFFFFFFFFFFFFFFFFFFFFF AND PUSH4 0x4000AEA0 DUP7 DUP6 DUP6 PUSH1 0x40 MLOAD DUP5 PUSH4 0xFFFFFFFF AND PUSH1 0xE0 SHL DUP2 MSTORE PUSH1 0x4 ADD PUSH2 0xEBF SWAP4 SWAP3 SWAP2 SWAP1 PUSH2 0x1A10 JUMP JUMPDEST PUSH1 0x20 PUSH1 0x40 MLOAD DUP1 DUP4 SUB DUP2 PUSH1 0x0 DUP8 DUP1 EXTCODESIZE ISZERO DUP1 ISZERO PUSH2 0xED9 JUMPI PUSH1 0x0 DUP1 REVERT JUMPDEST POP GAS CALL ISZERO DUP1 ISZERO PUSH2 0xEED JUMPI RETURNDATASIZE PUSH1 0x0 DUP1 RETURNDATACOPY RETURNDATASIZE PUSH1 0x0 REVERT JUMPDEST POP POP POP POP PUSH1 0x40 MLOAD RETURNDATASIZE PUSH1 0x1F NOT PUSH1 0x1F DUP3 ADD AND DUP3 ADD DUP1 PUSH1 0x40 MSTORE POP DUP2 ADD SWAP1 PUSH2 0xF11 SWAP2 SWAP1 PUSH2 0x16A5 JUMP JUMPDEST PUSH2 0xF50 JUMPI PUSH1 0x40 MLOAD PUSH32 0x8C379A000000000000000000000000000000000000000000000000000000000 DUP2 MSTORE PUSH1 0x4 ADD PUSH2 0xF47 SWAP1 PUSH2 0x1AB3 JUMP JUMPDEST PUSH1 0x40 MLOAD DUP1 SWAP2 SUB SWAP1 REVERT JUMPDEST SWAP5 SWAP4 POP POP POP POP JUMP JUMPDEST PUSH2 0xF60 PUSH2 0x1514 JUMP JUMPDEST PUSH1 0x0 PUSH1 0x20 DUP4 PUSH2 0xF6F SWAP2 SWAP1 PUSH2 0x206A JUMP JUMPDEST EQ PUSH2 0xF9B JUMPI PUSH1 0x20 DUP3 PUSH2 0xF81 SWAP2 SWAP1 PUSH2 0x206A JUMP JUMPDEST PUSH1 0x20 PUSH2 0xF8D SWAP2 SWAP1 PUSH2 0x1ED7 JUMP JUMPDEST DUP3 PUSH2 0xF98 SWAP2 SWAP1 PUSH2 0x1BF1 JUMP JUMPDEST SWAP2 POP JUMPDEST DUP2 DUP4 PUSH1 0x20 ADD DUP2 DUP2 MSTORE POP POP PUSH1 0x40 MLOAD DUP1 DUP5 MSTORE PUSH1 0x0 DUP2 MSTORE DUP3 DUP2 ADD PUSH1 0x20 ADD PUSH1 0x40 MSTORE POP DUP3 SWAP1 POP SWAP3 SWAP2 POP POP JUMP JUMPDEST PUSH1 0x17 DUP2 PUSH8 0xFFFFFFFFFFFFFFFF AND GT PUSH2 0xFF9 JUMPI PUSH2 0xFF3 DUP2 PUSH1 0x5 DUP5 PUSH1 0xFF AND SWAP1 SHL PUSH1 0xFF AND OR DUP5 PUSH2 0x122C SWAP1 SWAP2 SWAP1 PUSH4 0xFFFFFFFF AND JUMP JUMPDEST POP PUSH2 0x1142 JUMP JUMPDEST PUSH1 0xFF DUP2 PUSH8 0xFFFFFFFFFFFFFFFF AND GT PUSH2 0x104F JUMPI PUSH2 0x1028 PUSH1 0x18 PUSH1 0x5 DUP5 PUSH1 0xFF AND SWAP1 SHL OR DUP5 PUSH2 0x122C SWAP1 SWAP2 SWAP1 PUSH4 0xFFFFFFFF AND JUMP JUMPDEST POP PUSH2 0x1049 DUP2 PUSH8 0xFFFFFFFFFFFFFFFF AND PUSH1 0x1 DUP6 PUSH2 0x124C SWAP1 SWAP3 SWAP2 SWAP1 PUSH4 0xFFFFFFFF AND JUMP JUMPDEST POP PUSH2 0x1141 JUMP JUMPDEST PUSH2 0xFFFF DUP2 PUSH8 0xFFFFFFFFFFFFFFFF AND GT PUSH2 0x10A6 JUMPI PUSH2 0x107F PUSH1 0x19 PUSH1 0x5 DUP5 PUSH1 0xFF AND SWAP1 SHL OR DUP5 PUSH2 0x122C SWAP1 SWAP2 SWAP1 PUSH4 0xFFFFFFFF AND JUMP JUMPDEST POP PUSH2 0x10A0 DUP2 PUSH8 0xFFFFFFFFFFFFFFFF AND PUSH1 0x2 DUP6 PUSH2 0x124C SWAP1 SWAP3 SWAP2 SWAP1 PUSH4 0xFFFFFFFF AND JUMP JUMPDEST POP PUSH2 0x1140 JUMP JUMPDEST PUSH4 0xFFFFFFFF DUP2 PUSH8 0xFFFFFFFFFFFFFFFF AND GT PUSH2 0x10FF JUMPI PUSH2 0x10D8 PUSH1 0x1A PUSH1 0x5 DUP5 PUSH1 0xFF AND SWAP1 SHL OR DUP5 PUSH2 0x122C SWAP1 SWAP2 SWAP1 PUSH4 0xFFFFFFFF AND JUMP JUMPDEST POP PUSH2 0x10F9 DUP2 PUSH8 0xFFFFFFFFFFFFFFFF AND PUSH1 0x4 DUP6 PUSH2 0x124C SWAP1 SWAP3 SWAP2 SWAP1 PUSH4 0xFFFFFFFF AND JUMP JUMPDEST POP PUSH2 0x113F JUMP JUMPDEST PUSH2 0x111C PUSH1 0x1B PUSH1 0x5 DUP5 PUSH1 0xFF AND SWAP1 SHL OR DUP5 PUSH2 0x122C SWAP1 SWAP2 SWAP1 PUSH4 0xFFFFFFFF AND JUMP JUMPDEST POP PUSH2 0x113D DUP2 PUSH8 0xFFFFFFFFFFFFFFFF AND PUSH1 0x8 DUP6 PUSH2 0x124C SWAP1 SWAP3 SWAP2 SWAP1 PUSH4 0xFFFFFFFF AND JUMP JUMPDEST POP JUMPDEST JUMPDEST JUMPDEST JUMPDEST POP POP POP JUMP JUMPDEST PUSH2 0x114F PUSH2 0x1514 JUMP JUMPDEST PUSH2 0x1161 DUP4 DUP5 PUSH1 0x0 ADD MLOAD MLOAD DUP5 DUP6 MLOAD PUSH2 0x126E JUMP JUMPDEST SWAP1 POP SWAP3 SWAP2 POP POP JUMP JUMPDEST PUSH2 0x1187 PUSH1 0x3 PUSH1 0x5 PUSH1 0x6 PUSH1 0xFF AND SWAP1 SHL OR DUP4 PUSH2 0x122C SWAP1 SWAP2 SWAP1 PUSH4 0xFFFFFFFF AND JUMP JUMPDEST POP PUSH2 0x11DC DUP3 DUP3 PUSH32 0xFFFFFFFFFFFFFFFFFFFFFFFFFFFFFFFFFFFFFFFFFFFFFFFFFFFFFFFFFFFFFFFF PUSH2 0x11B8 SWAP2 SWAP1 PUSH2 0x1E43 JUMP JUMPDEST PUSH1 0x40 MLOAD PUSH1 0x20 ADD PUSH2 0x11C8 SWAP2 SWAP1 PUSH2 0x1B53 JUMP JUMPDEST PUSH1 0x40 MLOAD PUSH1 0x20 DUP2 DUP4 SUB SUB DUP2 MSTORE SWAP1 PUSH1 0x40 MSTORE PUSH2 0x135D JUMP JUMPDEST POP POP JUMP JUMPDEST PUSH2 0x11FE PUSH1 0x2 PUSH1 0x5 PUSH1 0x6 PUSH1 0xFF AND SWAP1 SHL OR DUP4 PUSH2 0x122C SWAP1 SWAP2 SWAP1 PUSH4 0xFFFFFFFF AND JUMP JUMPDEST POP PUSH2 0x1228 DUP3 DUP3 PUSH1 0x40 MLOAD PUSH1 0x20 ADD PUSH2 0x1214 SWAP2 SWAP1 PUSH2 0x1B53 JUMP JUMPDEST PUSH1 0x40 MLOAD PUSH1 0x20 DUP2 DUP4 SUB SUB DUP2 MSTORE SWAP1 PUSH1 0x40 MSTORE PUSH2 0x135D JUMP JUMPDEST POP POP JUMP JUMPDEST PUSH2 0x1234 PUSH2 0x1514 JUMP JUMPDEST PUSH2 0x1244 DUP4 DUP5 PUSH1 0x0 ADD MLOAD MLOAD DUP5 PUSH2 0x1382 JUMP JUMPDEST SWAP1 POP SWAP3 SWAP2 POP POP JUMP JUMPDEST PUSH2 0x1254 PUSH2 0x1514 JUMP JUMPDEST PUSH2 0x1265 DUP5 DUP6 PUSH1 0x0 ADD MLOAD MLOAD DUP6 DUP6 PUSH2 0x13D9 JUMP JUMPDEST SWAP1 POP SWAP4 SWAP3 POP POP POP JUMP JUMPDEST PUSH2 0x1276 PUSH2 0x1514 JUMP JUMPDEST DUP3 MLOAD DUP3 GT ISZERO PUSH2 0x1284 JUMPI PUSH1 0x0 DUP1 REVERT JUMPDEST DUP5 PUSH1 0x20 ADD MLOAD DUP3 DUP6 PUSH2 0x1295 SWAP2 SWAP1 PUSH2 0x1BF1 JUMP JUMPDEST GT ISZERO PUSH2 0x12CA JUMPI PUSH2 0x12C9 DUP6 PUSH1 0x2 PUSH2 0x12BA DUP9 PUSH1 0x20 ADD MLOAD DUP9 DUP8 PUSH2 0x12B5 SWAP2 SWAP1 PUSH2 0x1BF1 JUMP JUMPDEST PUSH2 0x1467 JUMP JUMPDEST PUSH2 0x12C4 SWAP2 SWAP1 PUSH2 0x1DE9 JUMP JUMPDEST PUSH2 0x1483 JUMP JUMPDEST JUMPDEST PUSH1 0x0 DUP1 DUP7 MLOAD DUP1 MLOAD DUP8 PUSH1 0x20 DUP4 ADD ADD SWAP4 POP DUP1 DUP9 DUP8 ADD GT ISZERO PUSH2 0x12E9 JUMPI DUP8 DUP7 ADD DUP3 MSTORE JUMPDEST PUSH1 0x20 DUP8 ADD SWAP3 POP POP POP JUMPDEST PUSH1 0x20 DUP5 LT PUSH2 0x1330 JUMPI DUP1 MLOAD DUP3 MSTORE PUSH1 0x20 DUP3 PUSH2 0x130B SWAP2 SWAP1 PUSH2 0x1BF1 JUMP JUMPDEST SWAP2 POP PUSH1 0x20 DUP2 PUSH2 0x131A SWAP2 SWAP1 PUSH2 0x1BF1 JUMP JUMPDEST SWAP1 POP PUSH1 0x20 DUP5 PUSH2 0x1329 SWAP2 SWAP1 PUSH2 0x1ED7 JUMP JUMPDEST SWAP4 POP PUSH2 0x12F2 JUMP JUMPDEST PUSH1 0x0 PUSH1 0x1 DUP6 PUSH1 0x20 SUB PUSH2 0x100 EXP SUB SWAP1 POP DUP1 NOT DUP3 MLOAD AND DUP2 DUP5 MLOAD AND DUP2 DUP2 OR DUP6 MSTORE POP POP POP DUP7 SWAP3 POP POP POP SWAP5 SWAP4 POP POP POP POP JUMP JUMPDEST PUSH2 0x136A DUP3 PUSH1 0x2 DUP4 MLOAD PUSH2 0xFC2 JUMP JUMPDEST PUSH2 0x137D DUP2 DUP4 PUSH2 0x1147 SWAP1 SWAP2 SWAP1 PUSH4 0xFFFFFFFF AND JUMP JUMPDEST POP POP POP JUMP JUMPDEST PUSH2 0x138A PUSH2 0x1514 JUMP JUMPDEST DUP4 PUSH1 0x20 ADD MLOAD DUP4 LT PUSH2 0x13B0 JUMPI PUSH2 0x13AF DUP5 PUSH1 0x2 DUP7 PUSH1 0x20 ADD MLOAD PUSH2 0x13AA SWAP2 SWAP1 PUSH2 0x1DE9 JUMP JUMPDEST PUSH2 0x1483 JUMP JUMPDEST JUMPDEST DUP4 MLOAD DUP1 MLOAD PUSH1 0x20 DUP6 DUP4 ADD ADD DUP5 DUP2 MSTORE8 DUP2 DUP7 EQ ISZERO PUSH2 0x13CC JUMPI PUSH1 0x1 DUP3 ADD DUP4 MSTORE JUMPDEST POP POP POP DUP4 SWAP1 POP SWAP4 SWAP3 POP POP POP JUMP JUMPDEST PUSH2 0x13E1 PUSH2 0x1514 JUMP JUMPDEST DUP5 PUSH1 0x20 ADD MLOAD DUP5 DUP4 PUSH2 0x13F2 SWAP2 SWAP1 PUSH2 0x1BF1 JUMP JUMPDEST GT ISZERO PUSH2 0x141A JUMPI PUSH2 0x1419 DUP6 PUSH1 0x2 DUP7 DUP6 PUSH2 0x140A SWAP2 SWAP1 PUSH2 0x1BF1 JUMP JUMPDEST PUSH2 0x1414 SWAP2 SWAP1 PUSH2 0x1DE9 JUMP JUMPDEST PUSH2 0x1483 JUMP JUMPDEST JUMPDEST PUSH1 0x0 PUSH1 0x1 DUP4 PUSH2 0x100 PUSH2 0x142C SWAP2 SWAP1 PUSH2 0x1CCB JUMP JUMPDEST PUSH2 0x1436 SWAP2 SWAP1 PUSH2 0x1ED7 JUMP JUMPDEST SWAP1 POP DUP6 MLOAD DUP4 DUP7 DUP3 ADD ADD DUP6 DUP4 NOT DUP3 MLOAD AND OR DUP2 MSTORE DUP2 MLOAD DUP6 DUP9 ADD GT ISZERO PUSH2 0x1459 JUMPI DUP5 DUP8 ADD DUP3 MSTORE JUMPDEST POP POP DUP6 SWAP2 POP POP SWAP5 SWAP4 POP POP POP POP JUMP JUMPDEST PUSH1 0x0 DUP2 DUP4 GT ISZERO PUSH2 0x1479 JUMPI DUP3 SWAP1 POP PUSH2 0x147D JUMP JUMPDEST DUP2 SWAP1 POP JUMPDEST SWAP3 SWAP2 POP POP JUMP JUMPDEST PUSH1 0x0 DUP3 PUSH1 0x0 ADD MLOAD SWAP1 POP PUSH2 0x1496 DUP4 DUP4 PUSH2 0xF58 JUMP JUMPDEST POP PUSH2 0x14A1 DUP4 DUP3 PUSH2 0x1147 JUMP JUMPDEST POP POP POP POP JUMP JUMPDEST PUSH1 0x40 MLOAD DUP1 PUSH1 0xA0 ADD PUSH1 0x40 MSTORE DUP1 PUSH1 0x0 DUP1 NOT AND DUP2 MSTORE PUSH1 0x20 ADD PUSH1 0x0 PUSH20 0xFFFFFFFFFFFFFFFFFFFFFFFFFFFFFFFFFFFFFFFF AND DUP2 MSTORE PUSH1 0x20 ADD PUSH1 0x0 PUSH28 0xFFFFFFFFFFFFFFFFFFFFFFFFFFFFFFFFFFFFFFFFFFFFFFFFFFFFFFFF NOT AND DUP2 MSTORE PUSH1 0x20 ADD PUSH1 0x0 DUP2 MSTORE PUSH1 0x20 ADD PUSH2 0x150E PUSH2 0x1514 JUMP JUMPDEST DUP2 MSTORE POP SWAP1 JUMP JUMPDEST PUSH1 0x40 MLOAD DUP1 PUSH1 0x40 ADD PUSH1 0x40 MSTORE DUP1 PUSH1 0x60 DUP2 MSTORE PUSH1 0x20 ADD PUSH1 0x0 DUP2 MSTORE POP SWAP1 JUMP JUMPDEST PUSH1 0x0 PUSH2 0x1541 PUSH2 0x153C DUP5 PUSH2 0x1B93 JUMP JUMPDEST PUSH2 0x1B6E JUMP JUMPDEST SWAP1 POP DUP3 DUP2 MSTORE PUSH1 0x20 DUP2 ADD DUP5 DUP5 DUP5 ADD GT ISZERO PUSH2 0x155D JUMPI PUSH2 0x155C PUSH2 0x212D JUMP JUMPDEST JUMPDEST PUSH2 0x1568 DUP5 DUP3 DUP6 PUSH2 0x1FC9 JUMP JUMPDEST POP SWAP4 SWAP3 POP POP POP JUMP JUMPDEST PUSH1 0x0 DUP2 CALLDATALOAD SWAP1 POP PUSH2 0x157F DUP2 PUSH2 0x22A9 JUMP JUMPDEST SWAP3 SWAP2 POP POP JUMP JUMPDEST PUSH1 0x0 DUP2 MLOAD SWAP1 POP PUSH2 0x1594 DUP2 PUSH2 0x22C0 JUMP JUMPDEST SWAP3 SWAP2 POP POP JUMP JUMPDEST PUSH1 0x0 DUP2 CALLDATALOAD SWAP1 POP PUSH2 0x15A9 DUP2 PUSH2 0x22D7 JUMP JUMPDEST SWAP3 SWAP2 POP POP JUMP JUMPDEST PUSH1 0x0 DUP2 CALLDATALOAD SWAP1 POP PUSH2 0x15BE DUP2 PUSH2 0x22EE JUMP JUMPDEST SWAP3 SWAP2 POP POP JUMP JUMPDEST PUSH1 0x0 DUP3 PUSH1 0x1F DUP4 ADD SLT PUSH2 0x15D9 JUMPI PUSH2 0x15D8 PUSH2 0x2128 JUMP JUMPDEST JUMPDEST DUP2 CALLDATALOAD PUSH2 0x15E9 DUP5 DUP3 PUSH1 0x20 DUP7 ADD PUSH2 0x152E JUMP JUMPDEST SWAP2 POP POP SWAP3 SWAP2 POP POP JUMP JUMPDEST PUSH1 0x0 DUP2 CALLDATALOAD SWAP1 POP PUSH2 0x1601 DUP2 PUSH2 0x2305 JUMP JUMPDEST SWAP3 SWAP2 POP POP JUMP JUMPDEST PUSH1 0x0 DUP2 MLOAD SWAP1 POP PUSH2 0x1616 DUP2 PUSH2 0x2305 JUMP JUMPDEST SWAP3 SWAP2 POP POP JUMP JUMPDEST PUSH1 0x0 PUSH1 0x20 DUP3 DUP5 SUB SLT ISZERO PUSH2 0x1632 JUMPI PUSH2 0x1631 PUSH2 0x2137 JUMP JUMPDEST JUMPDEST PUSH1 0x0 PUSH2 0x1640 DUP5 DUP3 DUP6 ADD PUSH2 0x1570 JUMP JUMPDEST SWAP2 POP POP SWAP3 SWAP2 POP POP JUMP JUMPDEST PUSH1 0x0 DUP1 PUSH1 0x40 DUP4 DUP6 SUB SLT ISZERO PUSH2 0x1660 JUMPI PUSH2 0x165F PUSH2 0x2137 JUMP JUMPDEST JUMPDEST PUSH1 0x0 PUSH2 0x166E DUP6 DUP3 DUP7 ADD PUSH2 0x1570 JUMP JUMPDEST SWAP3 POP POP PUSH1 0x20 DUP4 ADD CALLDATALOAD PUSH8 0xFFFFFFFFFFFFFFFF DUP2 GT ISZERO PUSH2 0x168F JUMPI PUSH2 0x168E PUSH2 0x2132 JUMP JUMPDEST JUMPDEST PUSH2 0x169B DUP6 DUP3 DUP7 ADD PUSH2 0x15C4 JUMP JUMPDEST SWAP2 POP POP SWAP3 POP SWAP3 SWAP1 POP JUMP JUMPDEST PUSH1 0x0 PUSH1 0x20 DUP3 DUP5 SUB SLT ISZERO PUSH2 0x16BB JUMPI PUSH2 0x16BA PUSH2 0x2137 JUMP JUMPDEST JUMPDEST PUSH1 0x0 PUSH2 0x16C9 DUP5 DUP3 DUP6 ADD PUSH2 0x1585 JUMP JUMPDEST SWAP2 POP POP SWAP3 SWAP2 POP POP JUMP JUMPDEST PUSH1 0x0 DUP1 PUSH1 0x40 DUP4 DUP6 SUB SLT ISZERO PUSH2 0x16E9 JUMPI PUSH2 0x16E8 PUSH2 0x2137 JUMP JUMPDEST JUMPDEST PUSH1 0x0 PUSH2 0x16F7 DUP6 DUP3 DUP7 ADD PUSH2 0x159A JUMP JUMPDEST SWAP3 POP POP PUSH1 0x20 PUSH2 0x1708 DUP6 DUP3 DUP7 ADD PUSH2 0x15F2 JUMP JUMPDEST SWAP2 POP POP SWAP3 POP SWAP3 SWAP1 POP JUMP JUMPDEST PUSH1 0x0 DUP1 PUSH1 0x0 DUP1 PUSH1 0x80 DUP6 DUP8 SUB SLT ISZERO PUSH2 0x172C JUMPI PUSH2 0x172B PUSH2 0x2137 JUMP JUMPDEST JUMPDEST PUSH1 0x0 PUSH2 0x173A DUP8 DUP3 DUP9 ADD PUSH2 0x159A JUMP JUMPDEST SWAP5 POP POP PUSH1 0x20 PUSH2 0x174B DUP8 DUP3 DUP9 ADD PUSH2 0x15F2 JUMP JUMPDEST SWAP4 POP POP PUSH1 0x40 PUSH2 0x175C DUP8 DUP3 DUP9 ADD PUSH2 0x15AF JUMP JUMPDEST SWAP3 POP POP PUSH1 0x60 PUSH2 0x176D DUP8 DUP3 DUP9 ADD PUSH2 0x15F2 JUMP JUMPDEST SWAP2 POP POP SWAP3 SWAP6 SWAP2 SWAP5 POP SWAP3 POP JUMP JUMPDEST PUSH1 0x0 PUSH1 0x20 DUP3 DUP5 SUB SLT ISZERO PUSH2 0x178F JUMPI PUSH2 0x178E PUSH2 0x2137 JUMP JUMPDEST JUMPDEST PUSH1 0x0 PUSH2 0x179D DUP5 DUP3 DUP6 ADD PUSH2 0x1607 JUMP JUMPDEST SWAP2 POP POP SWAP3 SWAP2 POP POP JUMP JUMPDEST PUSH2 0x17AF DUP2 PUSH2 0x1F0B JUMP JUMPDEST DUP3 MSTORE POP POP JUMP JUMPDEST PUSH2 0x17BE DUP2 PUSH2 0x1F29 JUMP JUMPDEST DUP3 MSTORE POP POP JUMP JUMPDEST PUSH2 0x17CD DUP2 PUSH2 0x1F33 JUMP JUMPDEST DUP3 MSTORE POP POP JUMP JUMPDEST PUSH1 0x0 PUSH2 0x17DE DUP3 PUSH2 0x1BC4 JUMP JUMPDEST PUSH2 0x17E8 DUP2 DUP6 PUSH2 0x1BCF JUMP JUMPDEST SWAP4 POP PUSH2 0x17F8 DUP2 DUP6 PUSH1 0x20 DUP7 ADD PUSH2 0x1FD8 JUMP JUMPDEST PUSH2 0x1801 DUP2 PUSH2 0x213C JUMP JUMPDEST DUP5 ADD SWAP2 POP POP SWAP3 SWAP2 POP POP JUMP JUMPDEST PUSH2 0x181D PUSH2 0x1818 DUP3 PUSH2 0x1F93 JUMP JUMPDEST PUSH2 0x203C JUMP JUMPDEST DUP3 MSTORE POP POP JUMP JUMPDEST PUSH1 0x0 PUSH2 0x1830 PUSH1 0x16 DUP4 PUSH2 0x1BE0 JUMP JUMPDEST SWAP2 POP PUSH2 0x183B DUP3 PUSH2 0x2167 JUMP JUMPDEST PUSH1 0x20 DUP3 ADD SWAP1 POP SWAP2 SWAP1 POP JUMP JUMPDEST PUSH1 0x0 PUSH2 0x1853 PUSH1 0x23 DUP4 PUSH2 0x1BE0 JUMP JUMPDEST SWAP2 POP PUSH2 0x185E DUP3 PUSH2 0x2190 JUMP JUMPDEST PUSH1 0x40 DUP3 ADD SWAP1 POP SWAP2 SWAP1 POP JUMP JUMPDEST PUSH1 0x0 PUSH2 0x1876 PUSH1 0x16 DUP4 PUSH2 0x1BE0 JUMP JUMPDEST SWAP2 POP PUSH2 0x1881 DUP3 PUSH2 0x21DF JUMP JUMPDEST PUSH1 0x20 DUP3 ADD SWAP1 POP SWAP2 SWAP1 POP JUMP JUMPDEST PUSH1 0x0 PUSH2 0x1899 PUSH1 0x12 DUP4 PUSH2 0x1BE0 JUMP JUMPDEST SWAP2 POP PUSH2 0x18A4 DUP3 PUSH2 0x2208 JUMP JUMPDEST PUSH1 0x20 DUP3 ADD SWAP1 POP SWAP2 SWAP1 POP JUMP JUMPDEST PUSH1 0x0 PUSH2 0x18BC PUSH1 0x17 DUP4 PUSH2 0x1BE0 JUMP JUMPDEST SWAP2 POP PUSH2 0x18C7 DUP3 PUSH2 0x2231 JUMP JUMPDEST PUSH1 0x20 DUP3 ADD SWAP1 POP SWAP2 SWAP1 POP JUMP JUMPDEST PUSH1 0x0 PUSH2 0x18DF PUSH1 0x28 DUP4 PUSH2 0x1BE0 JUMP JUMPDEST SWAP2 POP PUSH2 0x18EA DUP3 PUSH2 0x225A JUMP JUMPDEST PUSH1 0x40 DUP3 ADD SWAP1 POP SWAP2 SWAP1 POP JUMP JUMPDEST PUSH2 0x18FE DUP2 PUSH2 0x1F89 JUMP JUMPDEST DUP3 MSTORE POP POP JUMP JUMPDEST PUSH2 0x1915 PUSH2 0x1910 DUP3 PUSH2 0x1F89 JUMP JUMPDEST PUSH2 0x2060 JUMP JUMPDEST DUP3 MSTORE POP POP JUMP JUMPDEST PUSH1 0x0 PUSH2 0x1927 DUP3 DUP6 PUSH2 0x180C JUMP JUMPDEST PUSH1 0x14 DUP3 ADD SWAP2 POP PUSH2 0x1937 DUP3 DUP5 PUSH2 0x1904 JUMP JUMPDEST PUSH1 0x20 DUP3 ADD SWAP2 POP DUP2 SWAP1 POP SWAP4 SWAP3 POP POP POP JUMP JUMPDEST PUSH1 0x0 PUSH1 0x20 DUP3 ADD SWAP1 POP PUSH2 0x195C PUSH1 0x0 DUP4 ADD DUP5 PUSH2 0x17A6 JUMP JUMPDEST SWAP3 SWAP2 POP POP JUMP JUMPDEST PUSH1 0x0 PUSH1 0x40 DUP3 ADD SWAP1 POP PUSH2 0x1977 PUSH1 0x0 DUP4 ADD DUP6 PUSH2 0x17A6 JUMP JUMPDEST PUSH2 0x1984 PUSH1 0x20 DUP4 ADD DUP5 PUSH2 0x18F5 JUMP JUMPDEST SWAP4 SWAP3 POP POP POP JUMP JUMPDEST PUSH1 0x0 PUSH2 0x100 DUP3 ADD SWAP1 POP PUSH2 0x19A1 PUSH1 0x0 DUP4 ADD DUP12 PUSH2 0x17A6 JUMP JUMPDEST PUSH2 0x19AE PUSH1 0x20 DUP4 ADD DUP11 PUSH2 0x18F5 JUMP JUMPDEST PUSH2 0x19BB PUSH1 0x40 DUP4 ADD DUP10 PUSH2 0x17B5 JUMP JUMPDEST PUSH2 0x19C8 PUSH1 0x60 DUP4 ADD DUP9 PUSH2 0x17A6 JUMP JUMPDEST PUSH2 0x19D5 PUSH1 0x80 DUP4 ADD DUP8 PUSH2 0x17C4 JUMP JUMPDEST PUSH2 0x19E2 PUSH1 0xA0 DUP4 ADD DUP7 PUSH2 0x18F5 JUMP JUMPDEST PUSH2 0x19EF PUSH1 0xC0 DUP4 ADD DUP6 PUSH2 0x18F5 JUMP JUMPDEST DUP2 DUP2 SUB PUSH1 0xE0 DUP4 ADD MSTORE PUSH2 0x1A01 DUP2 DUP5 PUSH2 0x17D3 JUMP JUMPDEST SWAP1 POP SWAP10 SWAP9 POP POP POP POP POP POP POP POP POP JUMP JUMPDEST PUSH1 0x0 PUSH1 0x60 DUP3 ADD SWAP1 POP PUSH2 0x1A25 PUSH1 0x0 DUP4 ADD DUP7 PUSH2 0x17A6 JUMP JUMPDEST PUSH2 0x1A32 PUSH1 0x20 DUP4 ADD DUP6 PUSH2 0x18F5 JUMP JUMPDEST DUP2 DUP2 SUB PUSH1 0x40 DUP4 ADD MSTORE PUSH2 0x1A44 DUP2 DUP5 PUSH2 0x17D3 JUMP JUMPDEST SWAP1 POP SWAP5 SWAP4 POP POP POP POP JUMP JUMPDEST PUSH1 0x0 PUSH1 0x80 DUP3 ADD SWAP1 POP PUSH2 0x1A63 PUSH1 0x0 DUP4 ADD DUP8 PUSH2 0x17B5 JUMP JUMPDEST PUSH2 0x1A70 PUSH1 0x20 DUP4 ADD DUP7 PUSH2 0x18F5 JUMP JUMPDEST PUSH2 0x1A7D PUSH1 0x40 DUP4 ADD DUP6 PUSH2 0x17C4 JUMP JUMPDEST PUSH2 0x1A8A PUSH1 0x60 DUP4 ADD DUP5 PUSH2 0x18F5 JUMP JUMPDEST SWAP6 SWAP5 POP POP POP POP POP JUMP JUMPDEST PUSH1 0x0 PUSH1 0x20 DUP3 ADD SWAP1 POP DUP2 DUP2 SUB PUSH1 0x0 DUP4 ADD MSTORE PUSH2 0x1AAC DUP2 PUSH2 0x1823 JUMP JUMPDEST SWAP1 POP SWAP2 SWAP1 POP JUMP JUMPDEST PUSH1 0x0 PUSH1 0x20 DUP3 ADD SWAP1 POP DUP2 DUP2 SUB PUSH1 0x0 DUP4 ADD MSTORE PUSH2 0x1ACC DUP2 PUSH2 0x1846 JUMP JUMPDEST SWAP1 POP SWAP2 SWAP1 POP JUMP JUMPDEST PUSH1 0x0 PUSH1 0x20 DUP3 ADD SWAP1 POP DUP2 DUP2 SUB PUSH1 0x0 DUP4 ADD MSTORE PUSH2 0x1AEC DUP2 PUSH2 0x1869 JUMP JUMPDEST SWAP1 POP SWAP2 SWAP1 POP JUMP JUMPDEST PUSH1 0x0 PUSH1 0x20 DUP3 ADD SWAP1 POP DUP2 DUP2 SUB PUSH1 0x0 DUP4 ADD MSTORE PUSH2 0x1B0C DUP2 PUSH2 0x188C JUMP JUMPDEST SWAP1 POP SWAP2 SWAP1 POP JUMP JUMPDEST PUSH1 0x0 PUSH1 0x20 DUP3 ADD SWAP1 POP DUP2 DUP2 SUB PUSH1 0x0 DUP4 ADD MSTORE PUSH2 0x1B2C DUP2 PUSH2 0x18AF JUMP JUMPDEST SWAP1 POP SWAP2 SWAP1 POP JUMP JUMPDEST PUSH1 0x0 PUSH1 0x20 DUP3 ADD SWAP1 POP DUP2 DUP2 SUB PUSH1 0x0 DUP4 ADD MSTORE PUSH2 0x1B4C DUP2 PUSH2 0x18D2 JUMP JUMPDEST SWAP1 POP SWAP2 SWAP1 POP JUMP JUMPDEST PUSH1 0x0 PUSH1 0x20 DUP3 ADD SWAP1 POP PUSH2 0x1B68 PUSH1 0x0 DUP4 ADD DUP5 PUSH2 0x18F5 JUMP JUMPDEST SWAP3 SWAP2 POP POP JUMP JUMPDEST PUSH1 0x0 PUSH2 0x1B78 PUSH2 0x1B89 JUMP JUMPDEST SWAP1 POP PUSH2 0x1B84 DUP3 DUP3 PUSH2 0x200B JUMP JUMPDEST SWAP2 SWAP1 POP JUMP JUMPDEST PUSH1 0x0 PUSH1 0x40 MLOAD SWAP1 POP SWAP1 JUMP JUMPDEST PUSH1 0x0 PUSH8 0xFFFFFFFFFFFFFFFF DUP3 GT ISZERO PUSH2 0x1BAE JUMPI PUSH2 0x1BAD PUSH2 0x20F9 JUMP JUMPDEST JUMPDEST PUSH2 0x1BB7 DUP3 PUSH2 0x213C JUMP JUMPDEST SWAP1 POP PUSH1 0x20 DUP2 ADD SWAP1 POP SWAP2 SWAP1 POP JUMP JUMPDEST PUSH1 0x0 DUP2 MLOAD SWAP1 POP SWAP2 SWAP1 POP JUMP JUMPDEST PUSH1 0x0 DUP3 DUP3 MSTORE PUSH1 0x20 DUP3 ADD SWAP1 POP SWAP3 SWAP2 POP POP JUMP JUMPDEST PUSH1 0x0 DUP3 DUP3 MSTORE PUSH1 0x20 DUP3 ADD SWAP1 POP SWAP3 SWAP2 POP POP JUMP JUMPDEST PUSH1 0x0 PUSH2 0x1BFC DUP3 PUSH2 0x1F89 JUMP JUMPDEST SWAP2 POP PUSH2 0x1C07 DUP4 PUSH2 0x1F89 JUMP JUMPDEST SWAP3 POP DUP3 PUSH32 0xFFFFFFFFFFFFFFFFFFFFFFFFFFFFFFFFFFFFFFFFFFFFFFFFFFFFFFFFFFFFFFFF SUB DUP3 GT ISZERO PUSH2 0x1C3C JUMPI PUSH2 0x1C3B PUSH2 0x209B JUMP JUMPDEST JUMPDEST DUP3 DUP3 ADD SWAP1 POP SWAP3 SWAP2 POP POP JUMP JUMPDEST PUSH1 0x0 PUSH2 0x1C52 DUP3 PUSH2 0x1F89 JUMP JUMPDEST SWAP2 POP PUSH2 0x1C5D DUP4 PUSH2 0x1F89 JUMP JUMPDEST SWAP3 POP DUP3 PUSH2 0x1C6D JUMPI PUSH2 0x1C6C PUSH2 0x20CA JUMP JUMPDEST JUMPDEST DUP3 DUP3 DIV SWAP1 POP SWAP3 SWAP2 POP POP JUMP JUMPDEST PUSH1 0x0 DUP1 DUP3 SWAP2 POP DUP4 SWAP1 POP JUMPDEST PUSH1 0x1 DUP6 GT ISZERO PUSH2 0x1CC2 JUMPI DUP1 DUP7 DIV DUP2 GT ISZERO PUSH2 0x1C9E JUMPI PUSH2 0x1C9D PUSH2 0x209B JUMP JUMPDEST JUMPDEST PUSH1 0x1 DUP6 AND ISZERO PUSH2 0x1CAD JUMPI DUP1 DUP3 MUL SWAP2 POP JUMPDEST DUP1 DUP2 MUL SWAP1 POP PUSH2 0x1CBB DUP6 PUSH2 0x215A JUMP JUMPDEST SWAP5 POP PUSH2 0x1C82 JUMP JUMPDEST SWAP5 POP SWAP5 SWAP3 POP POP POP JUMP JUMPDEST PUSH1 0x0 PUSH2 0x1CD6 DUP3 PUSH2 0x1F89 JUMP JUMPDEST SWAP2 POP PUSH2 0x1CE1 DUP4 PUSH2 0x1F89 JUMP JUMPDEST SWAP3 POP PUSH2 0x1D0E PUSH32 0xFFFFFFFFFFFFFFFFFFFFFFFFFFFFFFFFFFFFFFFFFFFFFFFFFFFFFFFFFFFFFFFF DUP5 DUP5 PUSH2 0x1D16 JUMP JUMPDEST SWAP1 POP SWAP3 SWAP2 POP POP JUMP JUMPDEST PUSH1 0x0 DUP3 PUSH2 0x1D26 JUMPI PUSH1 0x1 SWAP1 POP PUSH2 0x1DE2 JUMP JUMPDEST DUP2 PUSH2 0x1D34 JUMPI PUSH1 0x0 SWAP1 POP PUSH2 0x1DE2 JUMP JUMPDEST DUP2 PUSH1 0x1 DUP2 EQ PUSH2 0x1D4A JUMPI PUSH1 0x2 DUP2 EQ PUSH2 0x1D54 JUMPI PUSH2 0x1D83 JUMP JUMPDEST PUSH1 0x1 SWAP2 POP POP PUSH2 0x1DE2 JUMP JUMPDEST PUSH1 0xFF DUP5 GT ISZERO PUSH2 0x1D66 JUMPI PUSH2 0x1D65 PUSH2 0x209B JUMP JUMPDEST JUMPDEST DUP4 PUSH1 0x2 EXP SWAP2 POP DUP5 DUP3 GT ISZERO PUSH2 0x1D7D JUMPI PUSH2 0x1D7C PUSH2 0x209B JUMP JUMPDEST JUMPDEST POP PUSH2 0x1DE2 JUMP JUMPDEST POP PUSH1 0x20 DUP4 LT PUSH2 0x133 DUP4 LT AND PUSH1 0x4E DUP5 LT PUSH1 0xB DUP5 LT AND OR ISZERO PUSH2 0x1DB8 JUMPI DUP3 DUP3 EXP SWAP1 POP DUP4 DUP2 GT ISZERO PUSH2 0x1DB3 JUMPI PUSH2 0x1DB2 PUSH2 0x209B JUMP JUMPDEST JUMPDEST PUSH2 0x1DE2 JUMP JUMPDEST PUSH2 0x1DC5 DUP5 DUP5 DUP5 PUSH1 0x1 PUSH2 0x1C78 JUMP JUMPDEST SWAP3 POP SWAP1 POP DUP2 DUP5 DIV DUP2 GT ISZERO PUSH2 0x1DDC JUMPI PUSH2 0x1DDB PUSH2 0x209B JUMP JUMPDEST JUMPDEST DUP2 DUP2 MUL SWAP1 POP JUMPDEST SWAP4 SWAP3 POP POP POP JUMP JUMPDEST PUSH1 0x0 PUSH2 0x1DF4 DUP3 PUSH2 0x1F89 JUMP JUMPDEST SWAP2 POP PUSH2 0x1DFF DUP4 PUSH2 0x1F89 JUMP JUMPDEST SWAP3 POP DUP2 PUSH32 0xFFFFFFFFFFFFFFFFFFFFFFFFFFFFFFFFFFFFFFFFFFFFFFFFFFFFFFFFFFFFFFFF DIV DUP4 GT DUP3 ISZERO ISZERO AND ISZERO PUSH2 0x1E38 JUMPI PUSH2 0x1E37 PUSH2 0x209B JUMP JUMPDEST JUMPDEST DUP3 DUP3 MUL SWAP1 POP SWAP3 SWAP2 POP POP JUMP JUMPDEST PUSH1 0x0 PUSH2 0x1E4E DUP3 PUSH2 0x1F5F JUMP JUMPDEST SWAP2 POP PUSH2 0x1E59 DUP4 PUSH2 0x1F5F JUMP JUMPDEST SWAP3 POP DUP3 PUSH32 0x8000000000000000000000000000000000000000000000000000000000000000 ADD DUP3 SLT PUSH1 0x0 DUP5 SLT ISZERO AND ISZERO PUSH2 0x1E94 JUMPI PUSH2 0x1E93 PUSH2 0x209B JUMP JUMPDEST JUMPDEST DUP3 PUSH32 0x7FFFFFFFFFFFFFFFFFFFFFFFFFFFFFFFFFFFFFFFFFFFFFFFFFFFFFFFFFFFFFFF ADD DUP3 SGT PUSH1 0x0 DUP5 SLT AND ISZERO PUSH2 0x1ECC JUMPI PUSH2 0x1ECB PUSH2 0x209B JUMP JUMPDEST JUMPDEST DUP3 DUP3 SUB SWAP1 POP SWAP3 SWAP2 POP POP JUMP JUMPDEST PUSH1 0x0 PUSH2 0x1EE2 DUP3 PUSH2 0x1F89 JUMP JUMPDEST SWAP2 POP PUSH2 0x1EED DUP4 PUSH2 0x1F89 JUMP JUMPDEST SWAP3 POP DUP3 DUP3 LT ISZERO PUSH2 0x1F00 JUMPI PUSH2 0x1EFF PUSH2 0x209B JUMP JUMPDEST JUMPDEST DUP3 DUP3 SUB SWAP1 POP SWAP3 SWAP2 POP POP JUMP JUMPDEST PUSH1 0x0 PUSH2 0x1F16 DUP3 PUSH2 0x1F69 JUMP JUMPDEST SWAP1 POP SWAP2 SWAP1 POP JUMP JUMPDEST PUSH1 0x0 DUP2 ISZERO ISZERO SWAP1 POP SWAP2 SWAP1 POP JUMP JUMPDEST PUSH1 0x0 DUP2 SWAP1 POP SWAP2 SWAP1 POP JUMP JUMPDEST PUSH1 0x0 PUSH32 0xFFFFFFFF00000000000000000000000000000000000000000000000000000000 DUP3 AND SWAP1 POP SWAP2 SWAP1 POP JUMP JUMPDEST PUSH1 0x0 DUP2 SWAP1 POP SWAP2 SWAP1 POP JUMP JUMPDEST PUSH1 0x0 PUSH20 0xFFFFFFFFFFFFFFFFFFFFFFFFFFFFFFFFFFFFFFFF DUP3 AND SWAP1 POP SWAP2 SWAP1 POP JUMP JUMPDEST PUSH1 0x0 DUP2 SWAP1 POP SWAP2 SWAP1 POP JUMP JUMPDEST PUSH1 0x0 PUSH2 0x1F9E DUP3 PUSH2 0x1FA5 JUMP JUMPDEST SWAP1 POP SWAP2 SWAP1 POP JUMP JUMPDEST PUSH1 0x0 PUSH2 0x1FB0 DUP3 PUSH2 0x1FB7 JUMP JUMPDEST SWAP1 POP SWAP2 SWAP1 POP JUMP JUMPDEST PUSH1 0x0 PUSH2 0x1FC2 DUP3 PUSH2 0x1F69 JUMP JUMPDEST SWAP1 POP SWAP2 SWAP1 POP JUMP JUMPDEST DUP3 DUP2 DUP4 CALLDATACOPY PUSH1 0x0 DUP4 DUP4 ADD MSTORE POP POP POP JUMP JUMPDEST PUSH1 0x0 JUMPDEST DUP4 DUP2 LT ISZERO PUSH2 0x1FF6 JUMPI DUP1 DUP3 ADD MLOAD DUP2 DUP5 ADD MSTORE PUSH1 0x20 DUP2 ADD SWAP1 POP PUSH2 0x1FDB JUMP JUMPDEST DUP4 DUP2 GT ISZERO PUSH2 0x2005 JUMPI PUSH1 0x0 DUP5 DUP5 ADD MSTORE JUMPDEST POP POP POP POP JUMP JUMPDEST PUSH2 0x2014 DUP3 PUSH2 0x213C JUMP JUMPDEST DUP2 ADD DUP2 DUP2 LT PUSH8 0xFFFFFFFFFFFFFFFF DUP3 GT OR ISZERO PUSH2 0x2033 JUMPI PUSH2 0x2032 PUSH2 0x20F9 JUMP JUMPDEST JUMPDEST DUP1 PUSH1 0x40 MSTORE POP POP POP JUMP JUMPDEST PUSH1 0x0 PUSH2 0x2047 DUP3 PUSH2 0x204E JUMP JUMPDEST SWAP1 POP SWAP2 SWAP1 POP JUMP JUMPDEST PUSH1 0x0 PUSH2 0x2059 DUP3 PUSH2 0x214D JUMP JUMPDEST SWAP1 POP SWAP2 SWAP1 POP JUMP JUMPDEST PUSH1 0x0 DUP2 SWAP1 POP SWAP2 SWAP1 POP JUMP JUMPDEST PUSH1 0x0 PUSH2 0x2075 DUP3 PUSH2 0x1F89 JUMP JUMPDEST SWAP2 POP PUSH2 0x2080 DUP4 PUSH2 0x1F89 JUMP JUMPDEST SWAP3 POP DUP3 PUSH2 0x2090 JUMPI PUSH2 0x208F PUSH2 0x20CA JUMP JUMPDEST JUMPDEST DUP3 DUP3 MOD SWAP1 POP SWAP3 SWAP2 POP POP JUMP JUMPDEST PUSH32 0x4E487B7100000000000000000000000000000000000000000000000000000000 PUSH1 0x0 MSTORE PUSH1 0x11 PUSH1 0x4 MSTORE PUSH1 0x24 PUSH1 0x0 REVERT JUMPDEST PUSH32 0x4E487B7100000000000000000000000000000000000000000000000000000000 PUSH1 0x0 MSTORE PUSH1 0x12 PUSH1 0x4 MSTORE PUSH1 0x24 PUSH1 0x0 REVERT JUMPDEST PUSH32 0x4E487B7100000000000000000000000000000000000000000000000000000000 PUSH1 0x0 MSTORE PUSH1 0x41 PUSH1 0x4 MSTORE PUSH1 0x24 PUSH1 0x0 REVERT JUMPDEST PUSH1 0x0 DUP1 REVERT JUMPDEST PUSH1 0x0 DUP1 REVERT JUMPDEST PUSH1 0x0 DUP1 REVERT JUMPDEST PUSH1 0x0 DUP1 REVERT JUMPDEST PUSH1 0x0 PUSH1 0x1F NOT PUSH1 0x1F DUP4 ADD AND SWAP1 POP SWAP2 SWAP1 POP JUMP JUMPDEST PUSH1 0x0 DUP2 PUSH1 0x60 SHL SWAP1 POP SWAP2 SWAP1 POP JUMP JUMPDEST PUSH1 0x0 DUP2 PUSH1 0x1 SHR SWAP1 POP SWAP2 SWAP1 POP JUMP JUMPDEST PUSH32 0x4D7573742062652070726F706F736564206F776E657200000000000000000000 PUSH1 0x0 DUP3 ADD MSTORE POP JUMP JUMPDEST PUSH32 0x756E61626C6520746F207472616E73666572416E6443616C6C20746F206F7261 PUSH1 0x0 DUP3 ADD MSTORE PUSH32 0x636C650000000000000000000000000000000000000000000000000000000000 PUSH1 0x20 DUP3 ADD MSTORE POP JUMP JUMPDEST PUSH32 0x4F6E6C792063616C6C61626C65206279206F776E657200000000000000000000 PUSH1 0x0 DUP3 ADD MSTORE POP JUMP JUMPDEST PUSH32 0x556E61626C6520746F207472616E736665720000000000000000000000000000 PUSH1 0x0 DUP3 ADD MSTORE POP JUMP JUMPDEST PUSH32 0x43616E6E6F74207472616E7366657220746F2073656C66000000000000000000 PUSH1 0x0 DUP3 ADD MSTORE POP JUMP JUMPDEST PUSH32 0x536F75726365206D75737420626520746865206F7261636C65206F6620746865 PUSH1 0x0 DUP3 ADD MSTORE PUSH32 0x2072657175657374000000000000000000000000000000000000000000000000 PUSH1 0x20 DUP3 ADD MSTORE POP JUMP JUMPDEST PUSH2 0x22B2 DUP2 PUSH2 0x1F0B JUMP JUMPDEST DUP2 EQ PUSH2 0x22BD JUMPI PUSH1 0x0 DUP1 REVERT JUMPDEST POP JUMP JUMPDEST PUSH2 0x22C9 DUP2 PUSH2 0x1F1D JUMP JUMPDEST DUP2 EQ PUSH2 0x22D4 JUMPI PUSH1 0x0 DUP1 REVERT JUMPDEST POP JUMP JUMPDEST PUSH2 0x22E0 DUP2 PUSH2 0x1F29 JUMP JUMPDEST DUP2 EQ PUSH2 0x22EB JUMPI PUSH1 0x0 DUP1 REVERT JUMPDEST POP JUMP JUMPDEST PUSH2 0x22F7 DUP2 PUSH2 0x1F33 JUMP JUMPDEST DUP2 EQ PUSH2 0x2302 JUMPI PUSH1 0x0 DUP1 REVERT JUMPDEST POP JUMP JUMPDEST PUSH2 0x230E DUP2 PUSH2 0x1F89 JUMP JUMPDEST DUP2 EQ PUSH2 0x2319 JUMPI PUSH1 0x0 DUP1 REVERT JUMPDEST POP JUMP INVALID PUSH9 0x747470733A2F2F6D69 PUSH15 0x2D6170692E63727970746F636F6D70 PUSH2 0x7265 0x2E PUSH4 0x6F6D2F64 PUSH2 0x7461 0x2F PUSH17 0x726963653F6673796D3D45544826747379 PUSH14 0x733D555344A26469706673582212 KECCAK256 RETURNDATASIZE 0x23 SWAP7 XOR 0xD4 0xAB ADDRESS EXTCODECOPY EXTCODESIZE XOR DUP13 0x5F KECCAK256 CREATE2 0x5C DUP6 CALLDATASIZE 0x2F PUSH17 0x6087FE7438A962D5D4CA58FB6D64736F6C PUSH4 0x43000807 STOP CALLER "
				},
				"gasEstimates": {
					"creation": {
						"codeDepositCost": "1821000",
						"executionCost": "infinite",
						"totalCost": "infinite"
					},
					"external": {
						"acceptOwnership()": "54563",
						"cancelRequest(bytes32,uint256,bytes4,uint256)": "infinite",
						"currentPrice()": "2451",
						"fulfillEthereumPrice(bytes32,uint256)": "51954",
						"getChainlinkToken()": "2558",
						"owner()": "2567",
						"requestEthereumPrice(address,string)": "infinite",
						"transferOwnership(address)": "30751",
						"withdrawLink()": "infinite"
					},
					"internal": {
						"stringToBytes32(string memory)": "infinite"
					}
				},
				"methodIdentifiers": {
					"acceptOwnership()": "79ba5097",
					"cancelRequest(bytes32,uint256,bytes4,uint256)": "ec65d0f8",
					"currentPrice()": "9d1b464a",
					"fulfillEthereumPrice(bytes32,uint256)": "92cdaaf3",
					"getChainlinkToken()": "165d35e1",
					"owner()": "8da5cb5b",
					"requestEthereumPrice(address,string)": "ab643c10",
					"transferOwnership(address)": "f2fde38b",
					"withdrawLink()": "8dc654a2"
				}
			},
			"storageLayout": {
				"storage": [
					{
						"astId": 319,
						"contract": "docs.chain.link/samples/APIRequests/ATestnetConsumer.sol:ATestnetConsumer",
						"label": "s_ens",
						"offset": 0,
						"slot": "0",
						"type": "t_contract(ENSInterface)1156"
					},
					{
						"astId": 321,
						"contract": "docs.chain.link/samples/APIRequests/ATestnetConsumer.sol:ATestnetConsumer",
						"label": "s_ensNode",
						"offset": 0,
						"slot": "1",
						"type": "t_bytes32"
					},
					{
						"astId": 324,
						"contract": "docs.chain.link/samples/APIRequests/ATestnetConsumer.sol:ATestnetConsumer",
						"label": "s_link",
						"offset": 0,
						"slot": "2",
						"type": "t_contract(LinkTokenInterface)1251"
					},
					{
						"astId": 327,
						"contract": "docs.chain.link/samples/APIRequests/ATestnetConsumer.sol:ATestnetConsumer",
						"label": "s_oracle",
						"offset": 0,
						"slot": "3",
						"type": "t_contract(OperatorInterface)1331"
					},
					{
						"astId": 330,
						"contract": "docs.chain.link/samples/APIRequests/ATestnetConsumer.sol:ATestnetConsumer",
						"label": "s_requestCount",
						"offset": 0,
						"slot": "4",
						"type": "t_uint256"
					},
					{
						"astId": 334,
						"contract": "docs.chain.link/samples/APIRequests/ATestnetConsumer.sol:ATestnetConsumer",
						"label": "s_pendingRequests",
						"offset": 0,
						"slot": "5",
						"type": "t_mapping(t_bytes32,t_address)"
					},
					{
						"astId": 889,
						"contract": "docs.chain.link/samples/APIRequests/ATestnetConsumer.sol:ATestnetConsumer",
						"label": "s_owner",
						"offset": 0,
						"slot": "6",
						"type": "t_address"
					},
					{
						"astId": 891,
						"contract": "docs.chain.link/samples/APIRequests/ATestnetConsumer.sol:ATestnetConsumer",
						"label": "s_pendingOwner",
						"offset": 0,
						"slot": "7",
						"type": "t_address"
					},
					{
						"astId": 2396,
						"contract": "docs.chain.link/samples/APIRequests/ATestnetConsumer.sol:ATestnetConsumer",
						"label": "currentPrice",
						"offset": 0,
						"slot": "8",
						"type": "t_uint256"
					}
				],
				"types": {
					"t_address": {
						"encoding": "inplace",
						"label": "address",
						"numberOfBytes": "20"
					},
					"t_bytes32": {
						"encoding": "inplace",
						"label": "bytes32",
						"numberOfBytes": "32"
					},
					"t_contract(ENSInterface)1156": {
						"encoding": "inplace",
						"label": "contract ENSInterface",
						"numberOfBytes": "20"
					},
					"t_contract(LinkTokenInterface)1251": {
						"encoding": "inplace",
						"label": "contract LinkTokenInterface",
						"numberOfBytes": "20"
					},
					"t_contract(OperatorInterface)1331": {
						"encoding": "inplace",
						"label": "contract OperatorInterface",
						"numberOfBytes": "20"
					},
					"t_mapping(t_bytes32,t_address)": {
						"encoding": "mapping",
						"key": "t_bytes32",
						"label": "mapping(bytes32 => address)",
						"numberOfBytes": "32",
						"value": "t_address"
					},
					"t_uint256": {
						"encoding": "inplace",
						"label": "uint256",
						"numberOfBytes": "32"
					}
				}
			},
			"userdoc": {
				"kind": "user",
				"methods": {
					"acceptOwnership()": {
						"notice": "Allows an ownership transfer to be completed by the recipient."
					},
					"constructor": {
						"notice": "Goerli"
					},
					"owner()": {
						"notice": "Get the current owner"
					},
					"transferOwnership(address)": {
						"notice": "Allows an owner to begin transferring ownership to a new address, pending."
					}
				},
				"notice": "THIS IS AN EXAMPLE CONTRACT THAT USES UN-AUDITED CODE. DO NOT USE THIS CODE IN PRODUCTION.",
				"version": 1
			}
		}
	}
}