{
	"docs.chain.link/samples/APIRequests/AMatbaRofexConsumer.sol": {
		"AMatbaRofexConsumer": {
			"abi": [
				{
					"inputs": [],
					"stateMutability": "nonpayable",
					"type": "constructor"
				},
				{
					"anonymous": false,
					"inputs": [
						{
							"indexed": true,
							"internalType": "bytes32",
							"name": "id",
							"type": "bytes32"
						}
					],
					"name": "ChainlinkCancelled",
					"type": "event"
				},
				{
					"anonymous": false,
					"inputs": [
						{
							"indexed": true,
							"internalType": "bytes32",
							"name": "id",
							"type": "bytes32"
						}
					],
					"name": "ChainlinkFulfilled",
					"type": "event"
				},
				{
					"anonymous": false,
					"inputs": [
						{
							"indexed": true,
							"internalType": "bytes32",
							"name": "id",
							"type": "bytes32"
						}
					],
					"name": "ChainlinkRequested",
					"type": "event"
				},
				{
					"anonymous": false,
					"inputs": [
						{
							"indexed": true,
							"internalType": "address",
							"name": "from",
							"type": "address"
						},
						{
							"indexed": true,
							"internalType": "address",
							"name": "to",
							"type": "address"
						}
					],
					"name": "OwnershipTransferRequested",
					"type": "event"
				},
				{
					"anonymous": false,
					"inputs": [
						{
							"indexed": true,
							"internalType": "address",
							"name": "from",
							"type": "address"
						},
						{
							"indexed": true,
							"internalType": "address",
							"name": "to",
							"type": "address"
						}
					],
					"name": "OwnershipTransferred",
					"type": "event"
				},
				{
					"anonymous": false,
					"inputs": [
						{
							"indexed": true,
							"internalType": "bytes32",
							"name": "requestId",
							"type": "bytes32"
						},
						{
							"indexed": true,
							"internalType": "uint256",
							"name": "price",
							"type": "uint256"
						}
					],
					"name": "RequestPriceFulfilled",
					"type": "event"
				},
				{
					"inputs": [],
					"name": "acceptOwnership",
					"outputs": [],
					"stateMutability": "nonpayable",
					"type": "function"
				},
				{
					"inputs": [
						{
							"internalType": "bytes32",
							"name": "_requestId",
							"type": "bytes32"
						},
						{
							"internalType": "uint256",
							"name": "_payment",
							"type": "uint256"
						},
						{
							"internalType": "bytes4",
							"name": "_callbackFunctionId",
							"type": "bytes4"
						},
						{
							"internalType": "uint256",
							"name": "_expiration",
							"type": "uint256"
						}
					],
					"name": "cancelRequest",
					"outputs": [],
					"stateMutability": "nonpayable",
					"type": "function"
				},
				{
					"inputs": [],
					"name": "currentPrice",
					"outputs": [
						{
							"internalType": "uint256",
							"name": "",
							"type": "uint256"
						}
					],
					"stateMutability": "view",
					"type": "function"
				},
				{
					"inputs": [
						{
							"internalType": "bytes32",
							"name": "_requestId",
							"type": "bytes32"
						},
						{
							"internalType": "uint256",
							"name": "_price",
							"type": "uint256"
						}
					],
					"name": "fulfillPrice",
					"outputs": [],
					"stateMutability": "nonpayable",
					"type": "function"
				},
				{
					"inputs": [],
					"name": "getChainlinkToken",
					"outputs": [
						{
							"internalType": "address",
							"name": "",
							"type": "address"
						}
					],
					"stateMutability": "view",
					"type": "function"
				},
				{
					"inputs": [],
					"name": "owner",
					"outputs": [
						{
							"internalType": "address",
							"name": "",
							"type": "address"
						}
					],
					"stateMutability": "view",
					"type": "function"
				},
				{
					"inputs": [
						{
							"internalType": "string",
							"name": "_symbol",
							"type": "string"
						},
						{
							"internalType": "address",
							"name": "_oracle",
							"type": "address"
						},
						{
							"internalType": "string",
							"name": "_jobId",
							"type": "string"
						}
					],
					"name": "requestPrice",
					"outputs": [],
					"stateMutability": "nonpayable",
					"type": "function"
				},
				{
					"inputs": [
						{
							"internalType": "address",
							"name": "to",
							"type": "address"
						}
					],
					"name": "transferOwnership",
					"outputs": [],
					"stateMutability": "nonpayable",
					"type": "function"
				},
				{
					"inputs": [],
					"name": "withdrawLink",
					"outputs": [],
					"stateMutability": "nonpayable",
					"type": "function"
				}
			],
			"devdoc": {
				"kind": "dev",
				"methods": {},
				"version": 1
			},
			"evm": {
				"assembly": "    /* \"docs.chain.link/samples/APIRequests/AMatbaRofexConsumer.sol\":183:2652  contract AMatbaRofexConsumer is ChainlinkClient, ConfirmedOwner {\r... */\n  mstore(0x40, 0x80)\n    /* \"@chainlink/contracts/src/v0.8/ChainlinkClient.sol\":1291:1292  1 */\n  0x01\n    /* \"@chainlink/contracts/src/v0.8/ChainlinkClient.sol\":1258:1292  uint256 private s_requestCount = 1 */\n  0x04\n  sstore\n    /* \"docs.chain.link/samples/APIRequests/AMatbaRofexConsumer.sol\":627:748  constructor() ConfirmedOwner(msg.sender) {\r... */\n  callvalue\n  dup1\n  iszero\n  tag_1\n  jumpi\n  0x00\n  dup1\n  revert\ntag_1:\n  pop\n    /* \"docs.chain.link/samples/APIRequests/AMatbaRofexConsumer.sol\":656:666  msg.sender */\n  caller\n    /* \"@chainlink/contracts/src/v0.8/ConfirmedOwner.sol\":327:335  newOwner */\n  dup1\n    /* \"@chainlink/contracts/src/v0.8/ConfirmedOwner.sol\":345:346  0 */\n  0x00\n    /* \"@chainlink/contracts/src/v0.8/ConfirmedOwnerWithProposal.sol\":572:573  0 */\n  dup1\n    /* \"@chainlink/contracts/src/v0.8/ConfirmedOwnerWithProposal.sol\":552:574  newOwner != address(0) */\n  0xffffffffffffffffffffffffffffffffffffffff\n  and\n    /* \"@chainlink/contracts/src/v0.8/ConfirmedOwnerWithProposal.sol\":552:560  newOwner */\n  dup3\n    /* \"@chainlink/contracts/src/v0.8/ConfirmedOwnerWithProposal.sol\":552:574  newOwner != address(0) */\n  0xffffffffffffffffffffffffffffffffffffffff\n  and\n  eq\n  iszero\n    /* \"@chainlink/contracts/src/v0.8/ConfirmedOwnerWithProposal.sol\":544:603  require(newOwner != address(0), \"Cannot set owner to zero\") */\n  tag_6\n  jumpi\n  mload(0x40)\n  0x08c379a000000000000000000000000000000000000000000000000000000000\n  dup2\n  mstore\n  0x04\n  add\n  tag_7\n  swap1\n  tag_8\n  jump\t// in\ntag_7:\n  mload(0x40)\n  dup1\n  swap2\n  sub\n  swap1\n  revert\ntag_6:\n    /* \"@chainlink/contracts/src/v0.8/ConfirmedOwnerWithProposal.sol\":620:628  newOwner */\n  dup2\n    /* \"@chainlink/contracts/src/v0.8/ConfirmedOwnerWithProposal.sol\":610:617  s_owner */\n  0x06\n  0x00\n    /* \"@chainlink/contracts/src/v0.8/ConfirmedOwnerWithProposal.sol\":610:628  s_owner = newOwner */\n  0x0100\n  exp\n  dup2\n  sload\n  dup2\n  0xffffffffffffffffffffffffffffffffffffffff\n  mul\n  not\n  and\n  swap1\n  dup4\n  0xffffffffffffffffffffffffffffffffffffffff\n  and\n  mul\n  or\n  swap1\n  sstore\n  pop\n    /* \"@chainlink/contracts/src/v0.8/ConfirmedOwnerWithProposal.sol\":662:663  0 */\n  0x00\n    /* \"@chainlink/contracts/src/v0.8/ConfirmedOwnerWithProposal.sol\":638:664  pendingOwner != address(0) */\n  0xffffffffffffffffffffffffffffffffffffffff\n  and\n    /* \"@chainlink/contracts/src/v0.8/ConfirmedOwnerWithProposal.sol\":638:650  pendingOwner */\n  dup2\n    /* \"@chainlink/contracts/src/v0.8/ConfirmedOwnerWithProposal.sol\":638:664  pendingOwner != address(0) */\n  0xffffffffffffffffffffffffffffffffffffffff\n  and\n  eq\n    /* \"@chainlink/contracts/src/v0.8/ConfirmedOwnerWithProposal.sol\":634:713  if (pendingOwner != address(0)) {... */\n  tag_9\n  jumpi\n    /* \"@chainlink/contracts/src/v0.8/ConfirmedOwnerWithProposal.sol\":674:706  _transferOwnership(pendingOwner) */\n  tag_10\n    /* \"@chainlink/contracts/src/v0.8/ConfirmedOwnerWithProposal.sol\":693:705  pendingOwner */\n  dup2\n    /* \"@chainlink/contracts/src/v0.8/ConfirmedOwnerWithProposal.sol\":674:692  _transferOwnership */\n  shl(0x20, tag_11)\n    /* \"@chainlink/contracts/src/v0.8/ConfirmedOwnerWithProposal.sol\":674:706  _transferOwnership(pendingOwner) */\n  0x20\n  shr\n  jump\t// in\ntag_10:\n    /* \"@chainlink/contracts/src/v0.8/ConfirmedOwnerWithProposal.sol\":634:713  if (pendingOwner != address(0)) {... */\ntag_9:\n    /* \"@chainlink/contracts/src/v0.8/ConfirmedOwnerWithProposal.sol\":486:717  constructor(address newOwner, address pendingOwner) {... */\n  pop\n  pop\n    /* \"@chainlink/contracts/src/v0.8/ConfirmedOwner.sol\":270:351  constructor(address newOwner) ConfirmedOwnerWithProposal(newOwner, address(0)) {} */\n  pop\n    /* \"docs.chain.link/samples/APIRequests/AMatbaRofexConsumer.sol\":679:740  setChainlinkToken(0x326C977E6efc84E512bB9C30f76E30c160eD06FB) */\n  tag_14\n    /* \"docs.chain.link/samples/APIRequests/AMatbaRofexConsumer.sol\":697:739  0x326C977E6efc84E512bB9C30f76E30c160eD06FB */\n  0x326c977e6efc84e512bb9c30f76e30c160ed06fb\n    /* \"docs.chain.link/samples/APIRequests/AMatbaRofexConsumer.sol\":679:696  setChainlinkToken */\n  shl(0x20, tag_15)\n    /* \"docs.chain.link/samples/APIRequests/AMatbaRofexConsumer.sol\":679:740  setChainlinkToken(0x326C977E6efc84E512bB9C30f76E30c160eD06FB) */\n  0x20\n  shr\n  jump\t// in\ntag_14:\n    /* \"docs.chain.link/samples/APIRequests/AMatbaRofexConsumer.sol\":183:2652  contract AMatbaRofexConsumer is ChainlinkClient, ConfirmedOwner {\r... */\n  jump(tag_16)\n    /* \"@chainlink/contracts/src/v0.8/ConfirmedOwnerWithProposal.sol\":1497:1685  function _transferOwnership(address to) private {... */\ntag_11:\n    /* \"@chainlink/contracts/src/v0.8/ConfirmedOwnerWithProposal.sol\":1565:1575  msg.sender */\n  caller\n    /* \"@chainlink/contracts/src/v0.8/ConfirmedOwnerWithProposal.sol\":1559:1575  to != msg.sender */\n  0xffffffffffffffffffffffffffffffffffffffff\n  and\n    /* \"@chainlink/contracts/src/v0.8/ConfirmedOwnerWithProposal.sol\":1559:1561  to */\n  dup2\n    /* \"@chainlink/contracts/src/v0.8/ConfirmedOwnerWithProposal.sol\":1559:1575  to != msg.sender */\n  0xffffffffffffffffffffffffffffffffffffffff\n  and\n  eq\n  iszero\n    /* \"@chainlink/contracts/src/v0.8/ConfirmedOwnerWithProposal.sol\":1551:1603  require(to != msg.sender, \"Cannot transfer to self\") */\n  tag_18\n  jumpi\n  mload(0x40)\n  0x08c379a000000000000000000000000000000000000000000000000000000000\n  dup2\n  mstore\n  0x04\n  add\n  tag_19\n  swap1\n  tag_20\n  jump\t// in\ntag_19:\n  mload(0x40)\n  dup1\n  swap2\n  sub\n  swap1\n  revert\ntag_18:\n    /* \"@chainlink/contracts/src/v0.8/ConfirmedOwnerWithProposal.sol\":1627:1629  to */\n  dup1\n    /* \"@chainlink/contracts/src/v0.8/ConfirmedOwnerWithProposal.sol\":1610:1624  s_pendingOwner */\n  0x07\n  0x00\n    /* \"@chainlink/contracts/src/v0.8/ConfirmedOwnerWithProposal.sol\":1610:1629  s_pendingOwner = to */\n  0x0100\n  exp\n  dup2\n  sload\n  dup2\n  0xffffffffffffffffffffffffffffffffffffffff\n  mul\n  not\n  and\n  swap1\n  dup4\n  0xffffffffffffffffffffffffffffffffffffffff\n  and\n  mul\n  or\n  swap1\n  sstore\n  pop\n    /* \"@chainlink/contracts/src/v0.8/ConfirmedOwnerWithProposal.sol\":1677:1679  to */\n  dup1\n    /* \"@chainlink/contracts/src/v0.8/ConfirmedOwnerWithProposal.sol\":1641:1680  OwnershipTransferRequested(s_owner, to) */\n  0xffffffffffffffffffffffffffffffffffffffff\n  and\n    /* \"@chainlink/contracts/src/v0.8/ConfirmedOwnerWithProposal.sol\":1668:1675  s_owner */\n  0x06\n  0x00\n  swap1\n  sload\n  swap1\n  0x0100\n  exp\n  swap1\n  div\n  0xffffffffffffffffffffffffffffffffffffffff\n  and\n    /* \"@chainlink/contracts/src/v0.8/ConfirmedOwnerWithProposal.sol\":1641:1680  OwnershipTransferRequested(s_owner, to) */\n  0xffffffffffffffffffffffffffffffffffffffff\n  and\n  0xed8889f560326eb138920d842192f0eb3dd22b4f139c87a2c57538e05bae1278\n  mload(0x40)\n  mload(0x40)\n  dup1\n  swap2\n  sub\n  swap1\n  log3\n    /* \"@chainlink/contracts/src/v0.8/ConfirmedOwnerWithProposal.sol\":1497:1685  function _transferOwnership(address to) private {... */\n  pop\n  jump\t// out\n    /* \"@chainlink/contracts/src/v0.8/ChainlinkClient.sol\":8625:8733  function setChainlinkToken(address linkAddress) internal {... */\ntag_15:\n    /* \"@chainlink/contracts/src/v0.8/ChainlinkClient.sol\":8716:8727  linkAddress */\n  dup1\n    /* \"@chainlink/contracts/src/v0.8/ChainlinkClient.sol\":8688:8694  s_link */\n  0x02\n  0x00\n    /* \"@chainlink/contracts/src/v0.8/ChainlinkClient.sol\":8688:8728  s_link = LinkTokenInterface(linkAddress) */\n  0x0100\n  exp\n  dup2\n  sload\n  dup2\n  0xffffffffffffffffffffffffffffffffffffffff\n  mul\n  not\n  and\n  swap1\n  dup4\n  0xffffffffffffffffffffffffffffffffffffffff\n  and\n  mul\n  or\n  swap1\n  sstore\n  pop\n    /* \"@chainlink/contracts/src/v0.8/ChainlinkClient.sol\":8625:8733  function setChainlinkToken(address linkAddress) internal {... */\n  pop\n  jump\t// out\n    /* \"#utility.yul\":7:373   */\ntag_23:\n    /* \"#utility.yul\":149:152   */\n  0x00\n    /* \"#utility.yul\":170:237   */\n  tag_25\n    /* \"#utility.yul\":234:236   */\n  0x18\n    /* \"#utility.yul\":229:232   */\n  dup4\n    /* \"#utility.yul\":170:237   */\n  tag_26\n  jump\t// in\ntag_25:\n    /* \"#utility.yul\":163:237   */\n  swap2\n  pop\n    /* \"#utility.yul\":246:339   */\n  tag_27\n    /* \"#utility.yul\":335:338   */\n  dup3\n    /* \"#utility.yul\":246:339   */\n  tag_28\n  jump\t// in\ntag_27:\n    /* \"#utility.yul\":364:366   */\n  0x20\n    /* \"#utility.yul\":359:362   */\n  dup3\n    /* \"#utility.yul\":355:367   */\n  add\n    /* \"#utility.yul\":348:367   */\n  swap1\n  pop\n    /* \"#utility.yul\":7:373   */\n  swap2\n  swap1\n  pop\n  jump\t// out\n    /* \"#utility.yul\":379:745   */\ntag_29:\n    /* \"#utility.yul\":521:524   */\n  0x00\n    /* \"#utility.yul\":542:609   */\n  tag_31\n    /* \"#utility.yul\":606:608   */\n  0x17\n    /* \"#utility.yul\":601:604   */\n  dup4\n    /* \"#utility.yul\":542:609   */\n  tag_26\n  jump\t// in\ntag_31:\n    /* \"#utility.yul\":535:609   */\n  swap2\n  pop\n    /* \"#utility.yul\":618:711   */\n  tag_32\n    /* \"#utility.yul\":707:710   */\n  dup3\n    /* \"#utility.yul\":618:711   */\n  tag_33\n  jump\t// in\ntag_32:\n    /* \"#utility.yul\":736:738   */\n  0x20\n    /* \"#utility.yul\":731:734   */\n  dup3\n    /* \"#utility.yul\":727:739   */\n  add\n    /* \"#utility.yul\":720:739   */\n  swap1\n  pop\n    /* \"#utility.yul\":379:745   */\n  swap2\n  swap1\n  pop\n  jump\t// out\n    /* \"#utility.yul\":751:1170   */\ntag_8:\n    /* \"#utility.yul\":917:921   */\n  0x00\n    /* \"#utility.yul\":955:957   */\n  0x20\n    /* \"#utility.yul\":944:953   */\n  dup3\n    /* \"#utility.yul\":940:958   */\n  add\n    /* \"#utility.yul\":932:958   */\n  swap1\n  pop\n    /* \"#utility.yul\":1004:1013   */\n  dup2\n    /* \"#utility.yul\":998:1002   */\n  dup2\n    /* \"#utility.yul\":994:1014   */\n  sub\n    /* \"#utility.yul\":990:991   */\n  0x00\n    /* \"#utility.yul\":979:988   */\n  dup4\n    /* \"#utility.yul\":975:992   */\n  add\n    /* \"#utility.yul\":968:1015   */\n  mstore\n    /* \"#utility.yul\":1032:1163   */\n  tag_35\n    /* \"#utility.yul\":1158:1162   */\n  dup2\n    /* \"#utility.yul\":1032:1163   */\n  tag_23\n  jump\t// in\ntag_35:\n    /* \"#utility.yul\":1024:1163   */\n  swap1\n  pop\n    /* \"#utility.yul\":751:1170   */\n  swap2\n  swap1\n  pop\n  jump\t// out\n    /* \"#utility.yul\":1176:1595   */\ntag_20:\n    /* \"#utility.yul\":1342:1346   */\n  0x00\n    /* \"#utility.yul\":1380:1382   */\n  0x20\n    /* \"#utility.yul\":1369:1378   */\n  dup3\n    /* \"#utility.yul\":1365:1383   */\n  add\n    /* \"#utility.yul\":1357:1383   */\n  swap1\n  pop\n    /* \"#utility.yul\":1429:1438   */\n  dup2\n    /* \"#utility.yul\":1423:1427   */\n  dup2\n    /* \"#utility.yul\":1419:1439   */\n  sub\n    /* \"#utility.yul\":1415:1416   */\n  0x00\n    /* \"#utility.yul\":1404:1413   */\n  dup4\n    /* \"#utility.yul\":1400:1417   */\n  add\n    /* \"#utility.yul\":1393:1440   */\n  mstore\n    /* \"#utility.yul\":1457:1588   */\n  tag_37\n    /* \"#utility.yul\":1583:1587   */\n  dup2\n    /* \"#utility.yul\":1457:1588   */\n  tag_29\n  jump\t// in\ntag_37:\n    /* \"#utility.yul\":1449:1588   */\n  swap1\n  pop\n    /* \"#utility.yul\":1176:1595   */\n  swap2\n  swap1\n  pop\n  jump\t// out\n    /* \"#utility.yul\":1601:1770   */\ntag_26:\n    /* \"#utility.yul\":1685:1696   */\n  0x00\n    /* \"#utility.yul\":1719:1725   */\n  dup3\n    /* \"#utility.yul\":1714:1717   */\n  dup3\n    /* \"#utility.yul\":1707:1726   */\n  mstore\n    /* \"#utility.yul\":1759:1763   */\n  0x20\n    /* \"#utility.yul\":1754:1757   */\n  dup3\n    /* \"#utility.yul\":1750:1764   */\n  add\n    /* \"#utility.yul\":1735:1764   */\n  swap1\n  pop\n    /* \"#utility.yul\":1601:1770   */\n  swap3\n  swap2\n  pop\n  pop\n  jump\t// out\n    /* \"#utility.yul\":1776:1950   */\ntag_28:\n    /* \"#utility.yul\":1916:1942   */\n  0x43616e6e6f7420736574206f776e657220746f207a65726f0000000000000000\n    /* \"#utility.yul\":1912:1913   */\n  0x00\n    /* \"#utility.yul\":1904:1910   */\n  dup3\n    /* \"#utility.yul\":1900:1914   */\n  add\n    /* \"#utility.yul\":1893:1943   */\n  mstore\n    /* \"#utility.yul\":1776:1950   */\n  pop\n  jump\t// out\n    /* \"#utility.yul\":1956:2129   */\ntag_33:\n    /* \"#utility.yul\":2096:2121   */\n  0x43616e6e6f74207472616e7366657220746f2073656c66000000000000000000\n    /* \"#utility.yul\":2092:2093   */\n  0x00\n    /* \"#utility.yul\":2084:2090   */\n  dup3\n    /* \"#utility.yul\":2080:2094   */\n  add\n    /* \"#utility.yul\":2073:2122   */\n  mstore\n    /* \"#utility.yul\":1956:2129   */\n  pop\n  jump\t// out\n    /* \"docs.chain.link/samples/APIRequests/AMatbaRofexConsumer.sol\":183:2652  contract AMatbaRofexConsumer is ChainlinkClient, ConfirmedOwner {\r... */\ntag_16:\n  dataSize(sub_0)\n  dup1\n  dataOffset(sub_0)\n  0x00\n  codecopy\n  0x00\n  return\nstop\n\nsub_0: assembly {\n        /* \"docs.chain.link/samples/APIRequests/AMatbaRofexConsumer.sol\":183:2652  contract AMatbaRofexConsumer is ChainlinkClient, ConfirmedOwner {\r... */\n      mstore(0x40, 0x80)\n      callvalue\n      dup1\n      iszero\n      tag_1\n      jumpi\n      0x00\n      dup1\n      revert\n    tag_1:\n      pop\n      jumpi(tag_2, lt(calldatasize, 0x04))\n      shr(0xe0, calldataload(0x00))\n      dup1\n      0x8dc654a2\n      gt\n      tag_12\n      jumpi\n      dup1\n      0x8dc654a2\n      eq\n      tag_7\n      jumpi\n      dup1\n      0x9d1b464a\n      eq\n      tag_8\n      jumpi\n      dup1\n      0xd6948f0e\n      eq\n      tag_9\n      jumpi\n      dup1\n      0xec65d0f8\n      eq\n      tag_10\n      jumpi\n      dup1\n      0xf2fde38b\n      eq\n      tag_11\n      jumpi\n      jump(tag_2)\n    tag_12:\n      dup1\n      0x165d35e1\n      eq\n      tag_3\n      jumpi\n      dup1\n      0x79ba5097\n      eq\n      tag_4\n      jumpi\n      dup1\n      0x8d2a648d\n      eq\n      tag_5\n      jumpi\n      dup1\n      0x8da5cb5b\n      eq\n      tag_6\n      jumpi\n    tag_2:\n      0x00\n      dup1\n      revert\n        /* \"docs.chain.link/samples/APIRequests/AMatbaRofexConsumer.sol\":1536:1644  function getChainlinkToken() public view returns (address) {\r... */\n    tag_3:\n      tag_13\n      tag_14\n      jump\t// in\n    tag_13:\n      mload(0x40)\n      tag_15\n      swap2\n      swap1\n      tag_16\n      jump\t// in\n    tag_15:\n      mload(0x40)\n      dup1\n      swap2\n      sub\n      swap1\n      return\n        /* \"@chainlink/contracts/src/v0.8/ConfirmedOwnerWithProposal.sol\":1016:1281  function acceptOwnership() external override {... */\n    tag_4:\n      tag_17\n      tag_18\n      jump\t// in\n    tag_17:\n      stop\n        /* \"docs.chain.link/samples/APIRequests/AMatbaRofexConsumer.sol\":1299:1528  function fulfillPrice(\r... */\n    tag_5:\n      tag_19\n      0x04\n      dup1\n      calldatasize\n      sub\n      dup2\n      add\n      swap1\n      tag_20\n      swap2\n      swap1\n      tag_21\n      jump\t// in\n    tag_20:\n      tag_22\n      jump\t// in\n    tag_19:\n      stop\n        /* \"@chainlink/contracts/src/v0.8/ConfirmedOwnerWithProposal.sol\":1332:1413  function owner() public view override returns (address) {... */\n    tag_6:\n      tag_23\n      tag_24\n      jump\t// in\n    tag_23:\n      mload(0x40)\n      tag_25\n      swap2\n      swap1\n      tag_16\n      jump\t// in\n    tag_25:\n      mload(0x40)\n      dup1\n      swap2\n      sub\n      swap1\n      return\n        /* \"docs.chain.link/samples/APIRequests/AMatbaRofexConsumer.sol\":1652:1916  function withdrawLink() public onlyOwner {\r... */\n    tag_7:\n      tag_26\n      tag_27\n      jump\t// in\n    tag_26:\n      stop\n        /* \"docs.chain.link/samples/APIRequests/AMatbaRofexConsumer.sol\":480:507  uint256 public currentPrice */\n    tag_8:\n      tag_28\n      tag_29\n      jump\t// in\n    tag_28:\n      mload(0x40)\n      tag_30\n      swap2\n      swap1\n      tag_31\n      jump\t// in\n    tag_30:\n      mload(0x40)\n      dup1\n      swap2\n      sub\n      swap1\n      return\n        /* \"docs.chain.link/samples/APIRequests/AMatbaRofexConsumer.sol\":756:1285  function requestPrice(\r... */\n    tag_9:\n      tag_32\n      0x04\n      dup1\n      calldatasize\n      sub\n      dup2\n      add\n      swap1\n      tag_33\n      swap2\n      swap1\n      tag_34\n      jump\t// in\n    tag_33:\n      tag_35\n      jump\t// in\n    tag_32:\n      stop\n        /* \"docs.chain.link/samples/APIRequests/AMatbaRofexConsumer.sol\":1924:2254  function cancelRequest(\r... */\n    tag_10:\n      tag_36\n      0x04\n      dup1\n      calldatasize\n      sub\n      dup2\n      add\n      swap1\n      tag_37\n      swap2\n      swap1\n      tag_38\n      jump\t// in\n    tag_37:\n      tag_39\n      jump\t// in\n    tag_36:\n      stop\n        /* \"@chainlink/contracts/src/v0.8/ConfirmedOwnerWithProposal.sol\":826:924  function transferOwnership(address to) public override onlyOwner {... */\n    tag_11:\n      tag_40\n      0x04\n      dup1\n      calldatasize\n      sub\n      dup2\n      add\n      swap1\n      tag_41\n      swap2\n      swap1\n      tag_42\n      jump\t// in\n    tag_41:\n      tag_43\n      jump\t// in\n    tag_40:\n      stop\n        /* \"docs.chain.link/samples/APIRequests/AMatbaRofexConsumer.sol\":1536:1644  function getChainlinkToken() public view returns (address) {\r... */\n    tag_14:\n        /* \"docs.chain.link/samples/APIRequests/AMatbaRofexConsumer.sol\":1586:1593  address */\n      0x00\n        /* \"docs.chain.link/samples/APIRequests/AMatbaRofexConsumer.sol\":1613:1636  chainlinkTokenAddress() */\n      tag_45\n        /* \"docs.chain.link/samples/APIRequests/AMatbaRofexConsumer.sol\":1613:1634  chainlinkTokenAddress */\n      tag_46\n        /* \"docs.chain.link/samples/APIRequests/AMatbaRofexConsumer.sol\":1613:1636  chainlinkTokenAddress() */\n      jump\t// in\n    tag_45:\n        /* \"docs.chain.link/samples/APIRequests/AMatbaRofexConsumer.sol\":1606:1636  return chainlinkTokenAddress() */\n      swap1\n      pop\n        /* \"docs.chain.link/samples/APIRequests/AMatbaRofexConsumer.sol\":1536:1644  function getChainlinkToken() public view returns (address) {\r... */\n      swap1\n      jump\t// out\n        /* \"@chainlink/contracts/src/v0.8/ConfirmedOwnerWithProposal.sol\":1016:1281  function acceptOwnership() external override {... */\n    tag_18:\n        /* \"@chainlink/contracts/src/v0.8/ConfirmedOwnerWithProposal.sol\":1089:1103  s_pendingOwner */\n      0x07\n      0x00\n      swap1\n      sload\n      swap1\n      0x0100\n      exp\n      swap1\n      div\n      0xffffffffffffffffffffffffffffffffffffffff\n      and\n        /* \"@chainlink/contracts/src/v0.8/ConfirmedOwnerWithProposal.sol\":1075:1103  msg.sender == s_pendingOwner */\n      0xffffffffffffffffffffffffffffffffffffffff\n      and\n        /* \"@chainlink/contracts/src/v0.8/ConfirmedOwnerWithProposal.sol\":1075:1085  msg.sender */\n      caller\n        /* \"@chainlink/contracts/src/v0.8/ConfirmedOwnerWithProposal.sol\":1075:1103  msg.sender == s_pendingOwner */\n      0xffffffffffffffffffffffffffffffffffffffff\n      and\n      eq\n        /* \"@chainlink/contracts/src/v0.8/ConfirmedOwnerWithProposal.sol\":1067:1130  require(msg.sender == s_pendingOwner, \"Must be proposed owner\") */\n      tag_48\n      jumpi\n      mload(0x40)\n      0x08c379a000000000000000000000000000000000000000000000000000000000\n      dup2\n      mstore\n      0x04\n      add\n      tag_49\n      swap1\n      tag_50\n      jump\t// in\n    tag_49:\n      mload(0x40)\n      dup1\n      swap2\n      sub\n      swap1\n      revert\n    tag_48:\n        /* \"@chainlink/contracts/src/v0.8/ConfirmedOwnerWithProposal.sol\":1137:1153  address oldOwner */\n      0x00\n        /* \"@chainlink/contracts/src/v0.8/ConfirmedOwnerWithProposal.sol\":1156:1163  s_owner */\n      0x06\n      0x00\n      swap1\n      sload\n      swap1\n      0x0100\n      exp\n      swap1\n      div\n      0xffffffffffffffffffffffffffffffffffffffff\n      and\n        /* \"@chainlink/contracts/src/v0.8/ConfirmedOwnerWithProposal.sol\":1137:1163  address oldOwner = s_owner */\n      swap1\n      pop\n        /* \"@chainlink/contracts/src/v0.8/ConfirmedOwnerWithProposal.sol\":1179:1189  msg.sender */\n      caller\n        /* \"@chainlink/contracts/src/v0.8/ConfirmedOwnerWithProposal.sol\":1169:1176  s_owner */\n      0x06\n      0x00\n        /* \"@chainlink/contracts/src/v0.8/ConfirmedOwnerWithProposal.sol\":1169:1189  s_owner = msg.sender */\n      0x0100\n      exp\n      dup2\n      sload\n      dup2\n      0xffffffffffffffffffffffffffffffffffffffff\n      mul\n      not\n      and\n      swap1\n      dup4\n      0xffffffffffffffffffffffffffffffffffffffff\n      and\n      mul\n      or\n      swap1\n      sstore\n      pop\n        /* \"@chainlink/contracts/src/v0.8/ConfirmedOwnerWithProposal.sol\":1220:1221  0 */\n      0x00\n        /* \"@chainlink/contracts/src/v0.8/ConfirmedOwnerWithProposal.sol\":1195:1209  s_pendingOwner */\n      0x07\n      0x00\n        /* \"@chainlink/contracts/src/v0.8/ConfirmedOwnerWithProposal.sol\":1195:1222  s_pendingOwner = address(0) */\n      0x0100\n      exp\n      dup2\n      sload\n      dup2\n      0xffffffffffffffffffffffffffffffffffffffff\n      mul\n      not\n      and\n      swap1\n      dup4\n      0xffffffffffffffffffffffffffffffffffffffff\n      and\n      mul\n      or\n      swap1\n      sstore\n      pop\n        /* \"@chainlink/contracts/src/v0.8/ConfirmedOwnerWithProposal.sol\":1265:1275  msg.sender */\n      caller\n        /* \"@chainlink/contracts/src/v0.8/ConfirmedOwnerWithProposal.sol\":1234:1276  OwnershipTransferred(oldOwner, msg.sender) */\n      0xffffffffffffffffffffffffffffffffffffffff\n      and\n        /* \"@chainlink/contracts/src/v0.8/ConfirmedOwnerWithProposal.sol\":1255:1263  oldOwner */\n      dup2\n        /* \"@chainlink/contracts/src/v0.8/ConfirmedOwnerWithProposal.sol\":1234:1276  OwnershipTransferred(oldOwner, msg.sender) */\n      0xffffffffffffffffffffffffffffffffffffffff\n      and\n      0x8be0079c531659141344cd1fd0a4f28419497f9722a3daafe3b4186f6b6457e0\n      mload(0x40)\n      mload(0x40)\n      dup1\n      swap2\n      sub\n      swap1\n      log3\n        /* \"@chainlink/contracts/src/v0.8/ConfirmedOwnerWithProposal.sol\":1061:1281  {... */\n      pop\n        /* \"@chainlink/contracts/src/v0.8/ConfirmedOwnerWithProposal.sol\":1016:1281  function acceptOwnership() external override {... */\n      jump\t// out\n        /* \"docs.chain.link/samples/APIRequests/AMatbaRofexConsumer.sol\":1299:1528  function fulfillPrice(\r... */\n    tag_22:\n        /* \"docs.chain.link/samples/APIRequests/AMatbaRofexConsumer.sol\":1416:1426  _requestId */\n      dup2\n        /* \"@chainlink/contracts/src/v0.8/ChainlinkClient.sol\":11663:11680  s_pendingRequests */\n      0x05\n        /* \"@chainlink/contracts/src/v0.8/ChainlinkClient.sol\":11663:11691  s_pendingRequests[requestId] */\n      0x00\n        /* \"@chainlink/contracts/src/v0.8/ChainlinkClient.sol\":11681:11690  requestId */\n      dup3\n        /* \"@chainlink/contracts/src/v0.8/ChainlinkClient.sol\":11663:11691  s_pendingRequests[requestId] */\n      dup2\n      mstore\n      0x20\n      add\n      swap1\n      dup2\n      mstore\n      0x20\n      add\n      0x00\n      keccak256\n      0x00\n      swap1\n      sload\n      swap1\n      0x0100\n      exp\n      swap1\n      div\n      0xffffffffffffffffffffffffffffffffffffffff\n      and\n        /* \"@chainlink/contracts/src/v0.8/ChainlinkClient.sol\":11649:11691  msg.sender == s_pendingRequests[requestId] */\n      0xffffffffffffffffffffffffffffffffffffffff\n      and\n        /* \"@chainlink/contracts/src/v0.8/ChainlinkClient.sol\":11649:11659  msg.sender */\n      caller\n        /* \"@chainlink/contracts/src/v0.8/ChainlinkClient.sol\":11649:11691  msg.sender == s_pendingRequests[requestId] */\n      0xffffffffffffffffffffffffffffffffffffffff\n      and\n      eq\n        /* \"@chainlink/contracts/src/v0.8/ChainlinkClient.sol\":11641:11736  require(msg.sender == s_pendingRequests[requestId], \"Source must be the oracle of the request\") */\n      tag_52\n      jumpi\n      mload(0x40)\n      0x08c379a000000000000000000000000000000000000000000000000000000000\n      dup2\n      mstore\n      0x04\n      add\n      tag_53\n      swap1\n      tag_54\n      jump\t// in\n    tag_53:\n      mload(0x40)\n      dup1\n      swap2\n      sub\n      swap1\n      revert\n    tag_52:\n        /* \"@chainlink/contracts/src/v0.8/ChainlinkClient.sol\":11749:11766  s_pendingRequests */\n      0x05\n        /* \"@chainlink/contracts/src/v0.8/ChainlinkClient.sol\":11749:11777  s_pendingRequests[requestId] */\n      0x00\n        /* \"@chainlink/contracts/src/v0.8/ChainlinkClient.sol\":11767:11776  requestId */\n      dup3\n        /* \"@chainlink/contracts/src/v0.8/ChainlinkClient.sol\":11749:11777  s_pendingRequests[requestId] */\n      dup2\n      mstore\n      0x20\n      add\n      swap1\n      dup2\n      mstore\n      0x20\n      add\n      0x00\n      keccak256\n      0x00\n        /* \"@chainlink/contracts/src/v0.8/ChainlinkClient.sol\":11742:11777  delete s_pendingRequests[requestId] */\n      0x0100\n      exp\n      dup2\n      sload\n      swap1\n      0xffffffffffffffffffffffffffffffffffffffff\n      mul\n      not\n      and\n      swap1\n      sstore\n        /* \"@chainlink/contracts/src/v0.8/ChainlinkClient.sol\":11807:11816  requestId */\n      dup1\n        /* \"@chainlink/contracts/src/v0.8/ChainlinkClient.sol\":11788:11817  ChainlinkFulfilled(requestId) */\n      0x7cc135e0cebb02c3480ae5d74d377283180a2601f8f644edf7987b009316c63a\n      mload(0x40)\n      mload(0x40)\n      dup1\n      swap2\n      sub\n      swap1\n      log2\n        /* \"docs.chain.link/samples/APIRequests/AMatbaRofexConsumer.sol\":1478:1484  _price */\n      dup2\n        /* \"docs.chain.link/samples/APIRequests/AMatbaRofexConsumer.sol\":1466:1476  _requestId */\n      dup4\n        /* \"docs.chain.link/samples/APIRequests/AMatbaRofexConsumer.sol\":1444:1485  RequestPriceFulfilled(_requestId, _price) */\n      0xc2d94e2e1f0c977bdf720bde3bd6b0ff77c8853d45d1f47089f6065139e3fef7\n      mload(0x40)\n      mload(0x40)\n      dup1\n      swap2\n      sub\n      swap1\n      log3\n        /* \"docs.chain.link/samples/APIRequests/AMatbaRofexConsumer.sol\":1511:1517  _price */\n      dup2\n        /* \"docs.chain.link/samples/APIRequests/AMatbaRofexConsumer.sol\":1496:1508  currentPrice */\n      0x08\n        /* \"docs.chain.link/samples/APIRequests/AMatbaRofexConsumer.sol\":1496:1517  currentPrice = _price */\n      dup2\n      swap1\n      sstore\n      pop\n        /* \"docs.chain.link/samples/APIRequests/AMatbaRofexConsumer.sol\":1299:1528  function fulfillPrice(\r... */\n      pop\n      pop\n      pop\n      jump\t// out\n        /* \"@chainlink/contracts/src/v0.8/ConfirmedOwnerWithProposal.sol\":1332:1413  function owner() public view override returns (address) {... */\n    tag_24:\n        /* \"@chainlink/contracts/src/v0.8/ConfirmedOwnerWithProposal.sol\":1379:1386  address */\n      0x00\n        /* \"@chainlink/contracts/src/v0.8/ConfirmedOwnerWithProposal.sol\":1401:1408  s_owner */\n      0x06\n      0x00\n      swap1\n      sload\n      swap1\n      0x0100\n      exp\n      swap1\n      div\n      0xffffffffffffffffffffffffffffffffffffffff\n      and\n        /* \"@chainlink/contracts/src/v0.8/ConfirmedOwnerWithProposal.sol\":1394:1408  return s_owner */\n      swap1\n      pop\n        /* \"@chainlink/contracts/src/v0.8/ConfirmedOwnerWithProposal.sol\":1332:1413  function owner() public view override returns (address) {... */\n      swap1\n      jump\t// out\n        /* \"docs.chain.link/samples/APIRequests/AMatbaRofexConsumer.sol\":1652:1916  function withdrawLink() public onlyOwner {\r... */\n    tag_27:\n        /* \"@chainlink/contracts/src/v0.8/ConfirmedOwnerWithProposal.sol\":1956:1976  _validateOwnership() */\n      tag_58\n        /* \"@chainlink/contracts/src/v0.8/ConfirmedOwnerWithProposal.sol\":1956:1974  _validateOwnership */\n      tag_59\n        /* \"@chainlink/contracts/src/v0.8/ConfirmedOwnerWithProposal.sol\":1956:1976  _validateOwnership() */\n      jump\t// in\n    tag_58:\n        /* \"docs.chain.link/samples/APIRequests/AMatbaRofexConsumer.sol\":1704:1727  LinkTokenInterface link */\n      0x00\n        /* \"docs.chain.link/samples/APIRequests/AMatbaRofexConsumer.sol\":1749:1772  chainlinkTokenAddress() */\n      tag_61\n        /* \"docs.chain.link/samples/APIRequests/AMatbaRofexConsumer.sol\":1749:1770  chainlinkTokenAddress */\n      tag_46\n        /* \"docs.chain.link/samples/APIRequests/AMatbaRofexConsumer.sol\":1749:1772  chainlinkTokenAddress() */\n      jump\t// in\n    tag_61:\n        /* \"docs.chain.link/samples/APIRequests/AMatbaRofexConsumer.sol\":1704:1773  LinkTokenInterface link = LinkTokenInterface(chainlinkTokenAddress()) */\n      swap1\n      pop\n        /* \"docs.chain.link/samples/APIRequests/AMatbaRofexConsumer.sol\":1806:1810  link */\n      dup1\n        /* \"docs.chain.link/samples/APIRequests/AMatbaRofexConsumer.sol\":1806:1819  link.transfer */\n      0xffffffffffffffffffffffffffffffffffffffff\n      and\n      0xa9059cbb\n        /* \"docs.chain.link/samples/APIRequests/AMatbaRofexConsumer.sol\":1820:1830  msg.sender */\n      caller\n        /* \"docs.chain.link/samples/APIRequests/AMatbaRofexConsumer.sol\":1832:1836  link */\n      dup4\n        /* \"docs.chain.link/samples/APIRequests/AMatbaRofexConsumer.sol\":1832:1846  link.balanceOf */\n      0xffffffffffffffffffffffffffffffffffffffff\n      and\n      0x70a08231\n        /* \"docs.chain.link/samples/APIRequests/AMatbaRofexConsumer.sol\":1855:1859  this */\n      address\n        /* \"docs.chain.link/samples/APIRequests/AMatbaRofexConsumer.sol\":1832:1861  link.balanceOf(address(this)) */\n      mload(0x40)\n      dup3\n      0xffffffff\n      and\n      0xe0\n      shl\n      dup2\n      mstore\n      0x04\n      add\n      tag_62\n      swap2\n      swap1\n      tag_16\n      jump\t// in\n    tag_62:\n      0x20\n      mload(0x40)\n      dup1\n      dup4\n      sub\n      dup2\n      dup7\n      dup1\n      extcodesize\n      iszero\n      dup1\n      iszero\n      tag_63\n      jumpi\n      0x00\n      dup1\n      revert\n    tag_63:\n      pop\n      gas\n      staticcall\n      iszero\n      dup1\n      iszero\n      tag_65\n      jumpi\n      returndatasize\n      0x00\n      dup1\n      returndatacopy\n      revert(0x00, returndatasize)\n    tag_65:\n      pop\n      pop\n      pop\n      pop\n      mload(0x40)\n      returndatasize\n      not(0x1f)\n      0x1f\n      dup3\n      add\n      and\n      dup3\n      add\n      dup1\n      0x40\n      mstore\n      pop\n      dup2\n      add\n      swap1\n      tag_66\n      swap2\n      swap1\n      tag_67\n      jump\t// in\n    tag_66:\n        /* \"docs.chain.link/samples/APIRequests/AMatbaRofexConsumer.sol\":1806:1862  link.transfer(msg.sender, link.balanceOf(address(this))) */\n      mload(0x40)\n      dup4\n      0xffffffff\n      and\n      0xe0\n      shl\n      dup2\n      mstore\n      0x04\n      add\n      tag_68\n      swap3\n      swap2\n      swap1\n      tag_69\n      jump\t// in\n    tag_68:\n      0x20\n      mload(0x40)\n      dup1\n      dup4\n      sub\n      dup2\n      0x00\n      dup8\n      dup1\n      extcodesize\n      iszero\n      dup1\n      iszero\n      tag_70\n      jumpi\n      0x00\n      dup1\n      revert\n    tag_70:\n      pop\n      gas\n      call\n      iszero\n      dup1\n      iszero\n      tag_72\n      jumpi\n      returndatasize\n      0x00\n      dup1\n      returndatacopy\n      revert(0x00, returndatasize)\n    tag_72:\n      pop\n      pop\n      pop\n      pop\n      mload(0x40)\n      returndatasize\n      not(0x1f)\n      0x1f\n      dup3\n      add\n      and\n      dup3\n      add\n      dup1\n      0x40\n      mstore\n      pop\n      dup2\n      add\n      swap1\n      tag_73\n      swap2\n      swap1\n      tag_74\n      jump\t// in\n    tag_73:\n        /* \"docs.chain.link/samples/APIRequests/AMatbaRofexConsumer.sol\":1784:1908  require(\r... */\n      tag_75\n      jumpi\n      mload(0x40)\n      0x08c379a000000000000000000000000000000000000000000000000000000000\n      dup2\n      mstore\n      0x04\n      add\n      tag_76\n      swap1\n      tag_77\n      jump\t// in\n    tag_76:\n      mload(0x40)\n      dup1\n      swap2\n      sub\n      swap1\n      revert\n    tag_75:\n        /* \"docs.chain.link/samples/APIRequests/AMatbaRofexConsumer.sol\":1693:1916  {\r... */\n      pop\n        /* \"docs.chain.link/samples/APIRequests/AMatbaRofexConsumer.sol\":1652:1916  function withdrawLink() public onlyOwner {\r... */\n      jump\t// out\n        /* \"docs.chain.link/samples/APIRequests/AMatbaRofexConsumer.sol\":480:507  uint256 public currentPrice */\n    tag_29:\n      sload(0x08)\n      dup2\n      jump\t// out\n        /* \"docs.chain.link/samples/APIRequests/AMatbaRofexConsumer.sol\":756:1285  function requestPrice(\r... */\n    tag_35:\n        /* \"@chainlink/contracts/src/v0.8/ConfirmedOwnerWithProposal.sol\":1956:1976  _validateOwnership() */\n      tag_79\n        /* \"@chainlink/contracts/src/v0.8/ConfirmedOwnerWithProposal.sol\":1956:1974  _validateOwnership */\n      tag_59\n        /* \"@chainlink/contracts/src/v0.8/ConfirmedOwnerWithProposal.sol\":1956:1976  _validateOwnership() */\n      jump\t// in\n    tag_79:\n        /* \"docs.chain.link/samples/APIRequests/AMatbaRofexConsumer.sol\":902:930  Chainlink.Request memory req */\n      0x00\n        /* \"docs.chain.link/samples/APIRequests/AMatbaRofexConsumer.sol\":933:1072  buildChainlinkRequest(\r... */\n      tag_81\n        /* \"docs.chain.link/samples/APIRequests/AMatbaRofexConsumer.sol\":969:992  stringToBytes32(_jobId) */\n      tag_82\n        /* \"docs.chain.link/samples/APIRequests/AMatbaRofexConsumer.sol\":985:991  _jobId */\n      dup4\n        /* \"docs.chain.link/samples/APIRequests/AMatbaRofexConsumer.sol\":969:984  stringToBytes32 */\n      tag_83\n        /* \"docs.chain.link/samples/APIRequests/AMatbaRofexConsumer.sol\":969:992  stringToBytes32(_jobId) */\n      jump\t// in\n    tag_82:\n        /* \"docs.chain.link/samples/APIRequests/AMatbaRofexConsumer.sol\":1015:1019  this */\n      address\n        /* \"docs.chain.link/samples/APIRequests/AMatbaRofexConsumer.sol\":1035:1061  this.fulfillPrice.selector */\n      shl(0xe0, 0x8d2a648d)\n        /* \"docs.chain.link/samples/APIRequests/AMatbaRofexConsumer.sol\":933:954  buildChainlinkRequest */\n      tag_84\n        /* \"docs.chain.link/samples/APIRequests/AMatbaRofexConsumer.sol\":933:1072  buildChainlinkRequest(\r... */\n      jump\t// in\n    tag_81:\n        /* \"docs.chain.link/samples/APIRequests/AMatbaRofexConsumer.sol\":902:1072  Chainlink.Request memory req = buildChainlinkRequest(\r... */\n      swap1\n      pop\n        /* \"docs.chain.link/samples/APIRequests/AMatbaRofexConsumer.sol\":1083:1137  req.add(\"get\", string(abi.encodePacked(API,_symbol)) ) */\n      tag_85\n      mload(0x40)\n      dup1\n      0x40\n      add\n      0x40\n      mstore\n      dup1\n      0x03\n      dup2\n      mstore\n      0x20\n      add\n      0x6765740000000000000000000000000000000000000000000000000000000000\n      dup2\n      mstore\n      pop\n        /* \"docs.chain.link/samples/APIRequests/AMatbaRofexConsumer.sol\":1122:1125  API */\n      mload(0x40)\n      dup1\n      0x60\n      add\n      0x40\n      mstore\n      dup1\n      0x2e\n      dup2\n      mstore\n      0x20\n      add\n      data_6bfc6fa348e95a9160d34dd250a24f188b290b3c63d49db206ff37f296c91f11\n      0x2e\n      swap2\n      codecopy\n        /* \"docs.chain.link/samples/APIRequests/AMatbaRofexConsumer.sol\":1126:1133  _symbol */\n      dup7\n        /* \"docs.chain.link/samples/APIRequests/AMatbaRofexConsumer.sol\":1105:1134  abi.encodePacked(API,_symbol) */\n      add(0x20, mload(0x40))\n      tag_86\n      swap3\n      swap2\n      swap1\n      tag_87\n      jump\t// in\n    tag_86:\n      mload(0x40)\n      0x20\n      dup2\n      dup4\n      sub\n      sub\n      dup2\n      mstore\n      swap1\n      0x40\n      mstore\n        /* \"docs.chain.link/samples/APIRequests/AMatbaRofexConsumer.sol\":1083:1086  req */\n      dup4\n        /* \"docs.chain.link/samples/APIRequests/AMatbaRofexConsumer.sol\":1083:1090  req.add */\n      tag_88\n      swap1\n        /* \"docs.chain.link/samples/APIRequests/AMatbaRofexConsumer.sol\":1083:1137  req.add(\"get\", string(abi.encodePacked(API,_symbol)) ) */\n      swap3\n      swap2\n      swap1\n      0xffffffff\n      and\n      jump\t// in\n    tag_85:\n        /* \"docs.chain.link/samples/APIRequests/AMatbaRofexConsumer.sol\":1150:1179  req.add(\"path\", \"indexValue\") */\n      tag_89\n      mload(0x40)\n      dup1\n      0x40\n      add\n      0x40\n      mstore\n      dup1\n      0x04\n      dup2\n      mstore\n      0x20\n      add\n      0x7061746800000000000000000000000000000000000000000000000000000000\n      dup2\n      mstore\n      pop\n      mload(0x40)\n      dup1\n      0x40\n      add\n      0x40\n      mstore\n      dup1\n      0x0a\n      dup2\n      mstore\n      0x20\n      add\n      0x696e64657856616c756500000000000000000000000000000000000000000000\n      dup2\n      mstore\n      pop\n        /* \"docs.chain.link/samples/APIRequests/AMatbaRofexConsumer.sol\":1150:1153  req */\n      dup4\n        /* \"docs.chain.link/samples/APIRequests/AMatbaRofexConsumer.sol\":1150:1157  req.add */\n      tag_88\n      swap1\n        /* \"docs.chain.link/samples/APIRequests/AMatbaRofexConsumer.sol\":1150:1179  req.add(\"path\", \"indexValue\") */\n      swap3\n      swap2\n      swap1\n      0xffffffff\n      and\n      jump\t// in\n    tag_89:\n        /* \"docs.chain.link/samples/APIRequests/AMatbaRofexConsumer.sol\":1190:1214  req.addInt(\"times\", 100) */\n      tag_90\n      mload(0x40)\n      dup1\n      0x40\n      add\n      0x40\n      mstore\n      dup1\n      0x05\n      dup2\n      mstore\n      0x20\n      add\n      0x74696d6573000000000000000000000000000000000000000000000000000000\n      dup2\n      mstore\n      pop\n        /* \"docs.chain.link/samples/APIRequests/AMatbaRofexConsumer.sol\":1210:1213  100 */\n      0x64\n        /* \"docs.chain.link/samples/APIRequests/AMatbaRofexConsumer.sol\":1190:1193  req */\n      dup4\n        /* \"docs.chain.link/samples/APIRequests/AMatbaRofexConsumer.sol\":1190:1200  req.addInt */\n      tag_91\n      swap1\n        /* \"docs.chain.link/samples/APIRequests/AMatbaRofexConsumer.sol\":1190:1214  req.addInt(\"times\", 100) */\n      swap3\n      swap2\n      swap1\n      0xffffffff\n      and\n      jump\t// in\n    tag_90:\n        /* \"docs.chain.link/samples/APIRequests/AMatbaRofexConsumer.sol\":1225:1277  sendChainlinkRequestTo(_oracle, req, ORACLE_PAYMENT) */\n      tag_92\n        /* \"docs.chain.link/samples/APIRequests/AMatbaRofexConsumer.sol\":1248:1255  _oracle */\n      dup4\n        /* \"docs.chain.link/samples/APIRequests/AMatbaRofexConsumer.sol\":1257:1260  req */\n      dup3\n        /* \"docs.chain.link/samples/APIRequests/AMatbaRofexConsumer.sol\":455:457  10 */\n      0x0a\n        /* \"@chainlink/contracts/src/v0.8/ChainlinkClient.sol\":675:681  10**18 */\n      0x0de0b6b3a7640000\n        /* \"docs.chain.link/samples/APIRequests/AMatbaRofexConsumer.sol\":430:431  1 */\n      0x01\n        /* \"docs.chain.link/samples/APIRequests/AMatbaRofexConsumer.sol\":430:451  1 * LINK_DIVISIBILITY */\n      tag_93\n      swap2\n      swap1\n      tag_94\n      jump\t// in\n    tag_93:\n        /* \"docs.chain.link/samples/APIRequests/AMatbaRofexConsumer.sol\":429:457  (1 * LINK_DIVISIBILITY) / 10 */\n      tag_95\n      swap2\n      swap1\n      tag_96\n      jump\t// in\n    tag_95:\n        /* \"docs.chain.link/samples/APIRequests/AMatbaRofexConsumer.sol\":1225:1247  sendChainlinkRequestTo */\n      tag_97\n        /* \"docs.chain.link/samples/APIRequests/AMatbaRofexConsumer.sol\":1225:1277  sendChainlinkRequestTo(_oracle, req, ORACLE_PAYMENT) */\n      jump\t// in\n    tag_92:\n      pop\n        /* \"docs.chain.link/samples/APIRequests/AMatbaRofexConsumer.sol\":891:1285  {\r... */\n      pop\n        /* \"docs.chain.link/samples/APIRequests/AMatbaRofexConsumer.sol\":756:1285  function requestPrice(\r... */\n      pop\n      pop\n      pop\n      jump\t// out\n        /* \"docs.chain.link/samples/APIRequests/AMatbaRofexConsumer.sol\":1924:2254  function cancelRequest(\r... */\n    tag_39:\n        /* \"@chainlink/contracts/src/v0.8/ConfirmedOwnerWithProposal.sol\":1956:1976  _validateOwnership() */\n      tag_99\n        /* \"@chainlink/contracts/src/v0.8/ConfirmedOwnerWithProposal.sol\":1956:1974  _validateOwnership */\n      tag_59\n        /* \"@chainlink/contracts/src/v0.8/ConfirmedOwnerWithProposal.sol\":1956:1976  _validateOwnership() */\n      jump\t// in\n    tag_99:\n        /* \"docs.chain.link/samples/APIRequests/AMatbaRofexConsumer.sol\":2105:2246  cancelChainlinkRequest(\r... */\n      tag_101\n        /* \"docs.chain.link/samples/APIRequests/AMatbaRofexConsumer.sol\":2142:2152  _requestId */\n      dup5\n        /* \"docs.chain.link/samples/APIRequests/AMatbaRofexConsumer.sol\":2167:2175  _payment */\n      dup5\n        /* \"docs.chain.link/samples/APIRequests/AMatbaRofexConsumer.sol\":2190:2209  _callbackFunctionId */\n      dup5\n        /* \"docs.chain.link/samples/APIRequests/AMatbaRofexConsumer.sol\":2224:2235  _expiration */\n      dup5\n        /* \"docs.chain.link/samples/APIRequests/AMatbaRofexConsumer.sol\":2105:2127  cancelChainlinkRequest */\n      tag_102\n        /* \"docs.chain.link/samples/APIRequests/AMatbaRofexConsumer.sol\":2105:2246  cancelChainlinkRequest(\r... */\n      jump\t// in\n    tag_101:\n        /* \"docs.chain.link/samples/APIRequests/AMatbaRofexConsumer.sol\":1924:2254  function cancelRequest(\r... */\n      pop\n      pop\n      pop\n      pop\n      jump\t// out\n        /* \"@chainlink/contracts/src/v0.8/ConfirmedOwnerWithProposal.sol\":826:924  function transferOwnership(address to) public override onlyOwner {... */\n    tag_43:\n        /* \"@chainlink/contracts/src/v0.8/ConfirmedOwnerWithProposal.sol\":1956:1976  _validateOwnership() */\n      tag_104\n        /* \"@chainlink/contracts/src/v0.8/ConfirmedOwnerWithProposal.sol\":1956:1974  _validateOwnership */\n      tag_59\n        /* \"@chainlink/contracts/src/v0.8/ConfirmedOwnerWithProposal.sol\":1956:1976  _validateOwnership() */\n      jump\t// in\n    tag_104:\n        /* \"@chainlink/contracts/src/v0.8/ConfirmedOwnerWithProposal.sol\":897:919  _transferOwnership(to) */\n      tag_106\n        /* \"@chainlink/contracts/src/v0.8/ConfirmedOwnerWithProposal.sol\":916:918  to */\n      dup2\n        /* \"@chainlink/contracts/src/v0.8/ConfirmedOwnerWithProposal.sol\":897:915  _transferOwnership */\n      tag_107\n        /* \"@chainlink/contracts/src/v0.8/ConfirmedOwnerWithProposal.sol\":897:919  _transferOwnership(to) */\n      jump\t// in\n    tag_106:\n        /* \"@chainlink/contracts/src/v0.8/ConfirmedOwnerWithProposal.sol\":826:924  function transferOwnership(address to) public override onlyOwner {... */\n      pop\n      jump\t// out\n        /* \"@chainlink/contracts/src/v0.8/ChainlinkClient.sol\":9098:9196  function chainlinkTokenAddress() internal view returns (address) {... */\n    tag_46:\n        /* \"@chainlink/contracts/src/v0.8/ChainlinkClient.sol\":9154:9161  address */\n      0x00\n        /* \"@chainlink/contracts/src/v0.8/ChainlinkClient.sol\":9184:9190  s_link */\n      0x02\n      0x00\n      swap1\n      sload\n      swap1\n      0x0100\n      exp\n      swap1\n      div\n      0xffffffffffffffffffffffffffffffffffffffff\n      and\n        /* \"@chainlink/contracts/src/v0.8/ChainlinkClient.sol\":9169:9191  return address(s_link) */\n      swap1\n      pop\n        /* \"@chainlink/contracts/src/v0.8/ChainlinkClient.sol\":9098:9196  function chainlinkTokenAddress() internal view returns (address) {... */\n      swap1\n      jump\t// out\n        /* \"@chainlink/contracts/src/v0.8/ConfirmedOwnerWithProposal.sol\":1730:1841  function _validateOwnership() internal view {... */\n    tag_59:\n        /* \"@chainlink/contracts/src/v0.8/ConfirmedOwnerWithProposal.sol\":1802:1809  s_owner */\n      0x06\n      0x00\n      swap1\n      sload\n      swap1\n      0x0100\n      exp\n      swap1\n      div\n      0xffffffffffffffffffffffffffffffffffffffff\n      and\n        /* \"@chainlink/contracts/src/v0.8/ConfirmedOwnerWithProposal.sol\":1788:1809  msg.sender == s_owner */\n      0xffffffffffffffffffffffffffffffffffffffff\n      and\n        /* \"@chainlink/contracts/src/v0.8/ConfirmedOwnerWithProposal.sol\":1788:1798  msg.sender */\n      caller\n        /* \"@chainlink/contracts/src/v0.8/ConfirmedOwnerWithProposal.sol\":1788:1809  msg.sender == s_owner */\n      0xffffffffffffffffffffffffffffffffffffffff\n      and\n      eq\n        /* \"@chainlink/contracts/src/v0.8/ConfirmedOwnerWithProposal.sol\":1780:1836  require(msg.sender == s_owner, \"Only callable by owner\") */\n      tag_110\n      jumpi\n      mload(0x40)\n      0x08c379a000000000000000000000000000000000000000000000000000000000\n      dup2\n      mstore\n      0x04\n      add\n      tag_111\n      swap1\n      tag_112\n      jump\t// in\n    tag_111:\n      mload(0x40)\n      dup1\n      swap2\n      sub\n      swap1\n      revert\n    tag_110:\n        /* \"@chainlink/contracts/src/v0.8/ConfirmedOwnerWithProposal.sol\":1730:1841  function _validateOwnership() internal view {... */\n      jump\t// out\n        /* \"docs.chain.link/samples/APIRequests/AMatbaRofexConsumer.sol\":2262:2649  function stringToBytes32(\r... */\n    tag_83:\n        /* \"docs.chain.link/samples/APIRequests/AMatbaRofexConsumer.sol\":2347:2361  bytes32 result */\n      0x00\n        /* \"docs.chain.link/samples/APIRequests/AMatbaRofexConsumer.sol\":2374:2406  bytes memory tempEmptyStringTest */\n      dup1\n        /* \"docs.chain.link/samples/APIRequests/AMatbaRofexConsumer.sol\":2415:2421  source */\n      dup3\n        /* \"docs.chain.link/samples/APIRequests/AMatbaRofexConsumer.sol\":2374:2422  bytes memory tempEmptyStringTest = bytes(source) */\n      swap1\n      pop\n        /* \"docs.chain.link/samples/APIRequests/AMatbaRofexConsumer.sol\":2467:2468  0 */\n      0x00\n        /* \"docs.chain.link/samples/APIRequests/AMatbaRofexConsumer.sol\":2437:2456  tempEmptyStringTest */\n      dup2\n        /* \"docs.chain.link/samples/APIRequests/AMatbaRofexConsumer.sol\":2437:2463  tempEmptyStringTest.length */\n      mload\n        /* \"docs.chain.link/samples/APIRequests/AMatbaRofexConsumer.sol\":2437:2468  tempEmptyStringTest.length == 0 */\n      eq\n        /* \"docs.chain.link/samples/APIRequests/AMatbaRofexConsumer.sol\":2433:2507  if (tempEmptyStringTest.length == 0) {\r... */\n      iszero\n      tag_114\n      jumpi\n        /* \"docs.chain.link/samples/APIRequests/AMatbaRofexConsumer.sol\":2492:2495  0x0 */\n      0x00\n        /* \"docs.chain.link/samples/APIRequests/AMatbaRofexConsumer.sol\":2485:2495  return 0x0 */\n      dup1\n      shl\n      swap2\n      pop\n      pop\n      jump(tag_113)\n        /* \"docs.chain.link/samples/APIRequests/AMatbaRofexConsumer.sol\":2433:2507  if (tempEmptyStringTest.length == 0) {\r... */\n    tag_114:\n        /* \"docs.chain.link/samples/APIRequests/AMatbaRofexConsumer.sol\":2627:2629  32 */\n      0x20\n        /* \"docs.chain.link/samples/APIRequests/AMatbaRofexConsumer.sol\":2619:2625  source */\n      dup4\n        /* \"docs.chain.link/samples/APIRequests/AMatbaRofexConsumer.sol\":2615:2630  add(source, 32) */\n      add\n        /* \"docs.chain.link/samples/APIRequests/AMatbaRofexConsumer.sol\":2609:2631  mload(add(source, 32)) */\n      mload\n        /* \"docs.chain.link/samples/APIRequests/AMatbaRofexConsumer.sol\":2599:2631  result := mload(add(source, 32)) */\n      swap2\n      pop\n        /* \"docs.chain.link/samples/APIRequests/AMatbaRofexConsumer.sol\":2528:2642  {\r... */\n      pop\n        /* \"docs.chain.link/samples/APIRequests/AMatbaRofexConsumer.sol\":2262:2649  function stringToBytes32(\r... */\n    tag_113:\n      swap2\n      swap1\n      pop\n      jump\t// out\n        /* \"@chainlink/contracts/src/v0.8/ChainlinkClient.sol\":1850:2133  function buildChainlinkRequest(... */\n    tag_84:\n        /* \"@chainlink/contracts/src/v0.8/ChainlinkClient.sol\":1992:2016  Chainlink.Request memory */\n      tag_115\n      tag_116\n      jump\t// in\n    tag_115:\n        /* \"@chainlink/contracts/src/v0.8/ChainlinkClient.sol\":2024:2052  Chainlink.Request memory req */\n      tag_118\n      tag_116\n      jump\t// in\n    tag_118:\n        /* \"@chainlink/contracts/src/v0.8/ChainlinkClient.sol\":2065:2128  req.initialize(specId, callbackAddr, callbackFunctionSignature) */\n      tag_119\n        /* \"@chainlink/contracts/src/v0.8/ChainlinkClient.sol\":2080:2086  specId */\n      dup6\n        /* \"@chainlink/contracts/src/v0.8/ChainlinkClient.sol\":2088:2100  callbackAddr */\n      dup6\n        /* \"@chainlink/contracts/src/v0.8/ChainlinkClient.sol\":2102:2127  callbackFunctionSignature */\n      dup6\n        /* \"@chainlink/contracts/src/v0.8/ChainlinkClient.sol\":2065:2068  req */\n      dup5\n        /* \"@chainlink/contracts/src/v0.8/ChainlinkClient.sol\":2065:2079  req.initialize */\n      tag_120\n      swap1\n        /* \"@chainlink/contracts/src/v0.8/ChainlinkClient.sol\":2065:2128  req.initialize(specId, callbackAddr, callbackFunctionSignature) */\n      swap4\n      swap3\n      swap2\n      swap1\n      0xffffffff\n      and\n      jump\t// in\n    tag_119:\n        /* \"@chainlink/contracts/src/v0.8/ChainlinkClient.sol\":2058:2128  return req.initialize(specId, callbackAddr, callbackFunctionSignature) */\n      swap2\n      pop\n      pop\n        /* \"@chainlink/contracts/src/v0.8/ChainlinkClient.sol\":1850:2133  function buildChainlinkRequest(... */\n      swap4\n      swap3\n      pop\n      pop\n      pop\n      jump\t// out\n        /* \"@chainlink/contracts/src/v0.8/Chainlink.sol\":1951:2126  function add(... */\n    tag_88:\n        /* \"@chainlink/contracts/src/v0.8/Chainlink.sol\":2061:2087  self.buf.encodeString(key) */\n      tag_122\n        /* \"@chainlink/contracts/src/v0.8/Chainlink.sol\":2083:2086  key */\n      dup3\n        /* \"@chainlink/contracts/src/v0.8/Chainlink.sol\":2061:2065  self */\n      dup5\n        /* \"@chainlink/contracts/src/v0.8/Chainlink.sol\":2061:2069  self.buf */\n      0x80\n      add\n      mload\n        /* \"@chainlink/contracts/src/v0.8/Chainlink.sol\":2061:2082  self.buf.encodeString */\n      tag_123\n      swap1\n        /* \"@chainlink/contracts/src/v0.8/Chainlink.sol\":2061:2087  self.buf.encodeString(key) */\n      swap2\n      swap1\n      0xffffffff\n      and\n      jump\t// in\n    tag_122:\n        /* \"@chainlink/contracts/src/v0.8/Chainlink.sol\":2093:2121  self.buf.encodeString(value) */\n      tag_124\n        /* \"@chainlink/contracts/src/v0.8/Chainlink.sol\":2115:2120  value */\n      dup2\n        /* \"@chainlink/contracts/src/v0.8/Chainlink.sol\":2093:2097  self */\n      dup5\n        /* \"@chainlink/contracts/src/v0.8/Chainlink.sol\":2093:2101  self.buf */\n      0x80\n      add\n      mload\n        /* \"@chainlink/contracts/src/v0.8/Chainlink.sol\":2093:2114  self.buf.encodeString */\n      tag_123\n      swap1\n        /* \"@chainlink/contracts/src/v0.8/Chainlink.sol\":2093:2121  self.buf.encodeString(value) */\n      swap2\n      swap1\n      0xffffffff\n      and\n      jump\t// in\n    tag_124:\n        /* \"@chainlink/contracts/src/v0.8/Chainlink.sol\":1951:2126  function add(... */\n      pop\n      pop\n      pop\n      jump\t// out\n        /* \"@chainlink/contracts/src/v0.8/Chainlink.sol\":2712:2880  function addInt(... */\n    tag_91:\n        /* \"@chainlink/contracts/src/v0.8/Chainlink.sol\":2818:2844  self.buf.encodeString(key) */\n      tag_126\n        /* \"@chainlink/contracts/src/v0.8/Chainlink.sol\":2840:2843  key */\n      dup3\n        /* \"@chainlink/contracts/src/v0.8/Chainlink.sol\":2818:2822  self */\n      dup5\n        /* \"@chainlink/contracts/src/v0.8/Chainlink.sol\":2818:2826  self.buf */\n      0x80\n      add\n      mload\n        /* \"@chainlink/contracts/src/v0.8/Chainlink.sol\":2818:2839  self.buf.encodeString */\n      tag_123\n      swap1\n        /* \"@chainlink/contracts/src/v0.8/Chainlink.sol\":2818:2844  self.buf.encodeString(key) */\n      swap2\n      swap1\n      0xffffffff\n      and\n      jump\t// in\n    tag_126:\n        /* \"@chainlink/contracts/src/v0.8/Chainlink.sol\":2850:2875  self.buf.encodeInt(value) */\n      tag_127\n        /* \"@chainlink/contracts/src/v0.8/Chainlink.sol\":2869:2874  value */\n      dup2\n        /* \"@chainlink/contracts/src/v0.8/Chainlink.sol\":2850:2854  self */\n      dup5\n        /* \"@chainlink/contracts/src/v0.8/Chainlink.sol\":2850:2858  self.buf */\n      0x80\n      add\n      mload\n        /* \"@chainlink/contracts/src/v0.8/Chainlink.sol\":2850:2868  self.buf.encodeInt */\n      tag_128\n      swap1\n        /* \"@chainlink/contracts/src/v0.8/Chainlink.sol\":2850:2875  self.buf.encodeInt(value) */\n      swap2\n      swap1\n      0xffffffff\n      and\n      jump\t// in\n    tag_127:\n        /* \"@chainlink/contracts/src/v0.8/Chainlink.sol\":2712:2880  function addInt(... */\n      pop\n      pop\n      pop\n      jump\t// out\n        /* \"@chainlink/contracts/src/v0.8/ChainlinkClient.sol\":3687:4443  function sendChainlinkRequestTo(... */\n    tag_97:\n        /* \"@chainlink/contracts/src/v0.8/ChainlinkClient.sol\":3823:3840  bytes32 requestId */\n      0x00\n        /* \"@chainlink/contracts/src/v0.8/ChainlinkClient.sol\":3848:3861  uint256 nonce */\n      dup1\n        /* \"@chainlink/contracts/src/v0.8/ChainlinkClient.sol\":3864:3878  s_requestCount */\n      sload(0x04)\n        /* \"@chainlink/contracts/src/v0.8/ChainlinkClient.sol\":3848:3878  uint256 nonce = s_requestCount */\n      swap1\n      pop\n        /* \"@chainlink/contracts/src/v0.8/ChainlinkClient.sol\":3909:3910  1 */\n      0x01\n        /* \"@chainlink/contracts/src/v0.8/ChainlinkClient.sol\":3901:3906  nonce */\n      dup2\n        /* \"@chainlink/contracts/src/v0.8/ChainlinkClient.sol\":3901:3910  nonce + 1 */\n      tag_130\n      swap2\n      swap1\n      tag_131\n      jump\t// in\n    tag_130:\n        /* \"@chainlink/contracts/src/v0.8/ChainlinkClient.sol\":3884:3898  s_requestCount */\n      0x04\n        /* \"@chainlink/contracts/src/v0.8/ChainlinkClient.sol\":3884:3910  s_requestCount = nonce + 1 */\n      dup2\n      swap1\n      sstore\n      pop\n        /* \"@chainlink/contracts/src/v0.8/ChainlinkClient.sol\":3916:3943  bytes memory encodedRequest */\n      0x00\n        /* \"@chainlink/contracts/src/v0.8/ChainlinkClient.sol\":3976:4024  ChainlinkRequestInterface.oracleRequest.selector */\n      shl(0xe0, 0x40429946)\n        /* \"@chainlink/contracts/src/v0.8/ChainlinkClient.sol\":784:785  0 */\n      0x00\n        /* \"@chainlink/contracts/src/v0.8/ChainlinkClient.sol\":728:729  0 */\n      dup1\n        /* \"@chainlink/contracts/src/v0.8/ChainlinkClient.sol\":4245:4248  req */\n      dup8\n        /* \"@chainlink/contracts/src/v0.8/ChainlinkClient.sol\":4245:4251  req.id */\n      0x00\n      add\n      mload\n        /* \"@chainlink/contracts/src/v0.8/ChainlinkClient.sol\":4267:4271  this */\n      address\n        /* \"@chainlink/contracts/src/v0.8/ChainlinkClient.sol\":4280:4283  req */\n      dup10\n        /* \"@chainlink/contracts/src/v0.8/ChainlinkClient.sol\":4280:4302  req.callbackFunctionId */\n      0x40\n      add\n      mload\n        /* \"@chainlink/contracts/src/v0.8/ChainlinkClient.sol\":4310:4315  nonce */\n      dup8\n        /* \"@chainlink/contracts/src/v0.8/ChainlinkClient.sol\":837:838  1 */\n      0x01\n        /* \"@chainlink/contracts/src/v0.8/ChainlinkClient.sol\":4350:4353  req */\n      dup13\n        /* \"@chainlink/contracts/src/v0.8/ChainlinkClient.sol\":4350:4357  req.buf */\n      0x80\n      add\n      mload\n        /* \"@chainlink/contracts/src/v0.8/ChainlinkClient.sol\":4350:4361  req.buf.buf */\n      0x00\n      add\n      mload\n        /* \"@chainlink/contracts/src/v0.8/ChainlinkClient.sol\":3946:4367  abi.encodeWithSelector(... */\n      add(0x24, mload(0x40))\n      tag_132\n      swap9\n      swap8\n      swap7\n      swap6\n      swap5\n      swap4\n      swap3\n      swap2\n      swap1\n      tag_133\n      jump\t// in\n    tag_132:\n      mload(0x40)\n      0x20\n      dup2\n      dup4\n      sub\n      sub\n      dup2\n      mstore\n      swap1\n      0x40\n      mstore\n      swap1\n      not(0xffffffffffffffffffffffffffffffffffffffffffffffffffffffff)\n      and\n      0x20\n      dup3\n      add\n      dup1\n      mload\n      0xffffffffffffffffffffffffffffffffffffffffffffffffffffffff\n      dup4\n      dup2\n      dup4\n      and\n      or\n      dup4\n      mstore\n      pop\n      pop\n      pop\n      pop\n        /* \"@chainlink/contracts/src/v0.8/ChainlinkClient.sol\":3916:4367  bytes memory encodedRequest = abi.encodeWithSelector(... */\n      swap1\n      pop\n        /* \"@chainlink/contracts/src/v0.8/ChainlinkClient.sol\":4380:4438  _rawRequest(oracleAddress, nonce, payment, encodedRequest) */\n      tag_134\n        /* \"@chainlink/contracts/src/v0.8/ChainlinkClient.sol\":4392:4405  oracleAddress */\n      dup7\n        /* \"@chainlink/contracts/src/v0.8/ChainlinkClient.sol\":4407:4412  nonce */\n      dup4\n        /* \"@chainlink/contracts/src/v0.8/ChainlinkClient.sol\":4414:4421  payment */\n      dup7\n        /* \"@chainlink/contracts/src/v0.8/ChainlinkClient.sol\":4423:4437  encodedRequest */\n      dup5\n        /* \"@chainlink/contracts/src/v0.8/ChainlinkClient.sol\":4380:4391  _rawRequest */\n      tag_135\n        /* \"@chainlink/contracts/src/v0.8/ChainlinkClient.sol\":4380:4438  _rawRequest(oracleAddress, nonce, payment, encodedRequest) */\n      jump\t// in\n    tag_134:\n        /* \"@chainlink/contracts/src/v0.8/ChainlinkClient.sol\":4373:4438  return _rawRequest(oracleAddress, nonce, payment, encodedRequest) */\n      swap3\n      pop\n      pop\n      pop\n        /* \"@chainlink/contracts/src/v0.8/ChainlinkClient.sol\":3687:4443  function sendChainlinkRequestTo(... */\n      swap4\n      swap3\n      pop\n      pop\n      pop\n      jump\t// out\n        /* \"@chainlink/contracts/src/v0.8/ChainlinkClient.sol\":7575:7963  function cancelChainlinkRequest(... */\n    tag_102:\n        /* \"@chainlink/contracts/src/v0.8/ChainlinkClient.sol\":7719:7746  OperatorInterface requested */\n      0x00\n        /* \"@chainlink/contracts/src/v0.8/ChainlinkClient.sol\":7767:7784  s_pendingRequests */\n      0x05\n        /* \"@chainlink/contracts/src/v0.8/ChainlinkClient.sol\":7767:7795  s_pendingRequests[requestId] */\n      0x00\n        /* \"@chainlink/contracts/src/v0.8/ChainlinkClient.sol\":7785:7794  requestId */\n      dup7\n        /* \"@chainlink/contracts/src/v0.8/ChainlinkClient.sol\":7767:7795  s_pendingRequests[requestId] */\n      dup2\n      mstore\n      0x20\n      add\n      swap1\n      dup2\n      mstore\n      0x20\n      add\n      0x00\n      keccak256\n      0x00\n      swap1\n      sload\n      swap1\n      0x0100\n      exp\n      swap1\n      div\n      0xffffffffffffffffffffffffffffffffffffffff\n      and\n        /* \"@chainlink/contracts/src/v0.8/ChainlinkClient.sol\":7719:7796  OperatorInterface requested = OperatorInterface(s_pendingRequests[requestId]) */\n      swap1\n      pop\n        /* \"@chainlink/contracts/src/v0.8/ChainlinkClient.sol\":7809:7826  s_pendingRequests */\n      0x05\n        /* \"@chainlink/contracts/src/v0.8/ChainlinkClient.sol\":7809:7837  s_pendingRequests[requestId] */\n      0x00\n        /* \"@chainlink/contracts/src/v0.8/ChainlinkClient.sol\":7827:7836  requestId */\n      dup7\n        /* \"@chainlink/contracts/src/v0.8/ChainlinkClient.sol\":7809:7837  s_pendingRequests[requestId] */\n      dup2\n      mstore\n      0x20\n      add\n      swap1\n      dup2\n      mstore\n      0x20\n      add\n      0x00\n      keccak256\n      0x00\n        /* \"@chainlink/contracts/src/v0.8/ChainlinkClient.sol\":7802:7837  delete s_pendingRequests[requestId] */\n      0x0100\n      exp\n      dup2\n      sload\n      swap1\n      0xffffffffffffffffffffffffffffffffffffffff\n      mul\n      not\n      and\n      swap1\n      sstore\n        /* \"@chainlink/contracts/src/v0.8/ChainlinkClient.sol\":7867:7876  requestId */\n      dup5\n        /* \"@chainlink/contracts/src/v0.8/ChainlinkClient.sol\":7848:7877  ChainlinkCancelled(requestId) */\n      0xe1fe3afa0f7f761ff0a8b89086790efd5140d2907ebd5b7ff6bfcb5e075fd4c5\n      mload(0x40)\n      mload(0x40)\n      dup1\n      swap2\n      sub\n      swap1\n      log2\n        /* \"@chainlink/contracts/src/v0.8/ChainlinkClient.sol\":7883:7892  requested */\n      dup1\n        /* \"@chainlink/contracts/src/v0.8/ChainlinkClient.sol\":7883:7912  requested.cancelOracleRequest */\n      0xffffffffffffffffffffffffffffffffffffffff\n      and\n      0x6ee4d553\n        /* \"@chainlink/contracts/src/v0.8/ChainlinkClient.sol\":7913:7922  requestId */\n      dup7\n        /* \"@chainlink/contracts/src/v0.8/ChainlinkClient.sol\":7924:7931  payment */\n      dup7\n        /* \"@chainlink/contracts/src/v0.8/ChainlinkClient.sol\":7933:7945  callbackFunc */\n      dup7\n        /* \"@chainlink/contracts/src/v0.8/ChainlinkClient.sol\":7947:7957  expiration */\n      dup7\n        /* \"@chainlink/contracts/src/v0.8/ChainlinkClient.sol\":7883:7958  requested.cancelOracleRequest(requestId, payment, callbackFunc, expiration) */\n      mload(0x40)\n      dup6\n      0xffffffff\n      and\n      0xe0\n      shl\n      dup2\n      mstore\n      0x04\n      add\n      tag_137\n      swap5\n      swap4\n      swap3\n      swap2\n      swap1\n      tag_138\n      jump\t// in\n    tag_137:\n      0x00\n      mload(0x40)\n      dup1\n      dup4\n      sub\n      dup2\n      0x00\n      dup8\n      dup1\n      extcodesize\n      iszero\n      dup1\n      iszero\n      tag_139\n      jumpi\n      0x00\n      dup1\n      revert\n    tag_139:\n      pop\n      gas\n      call\n      iszero\n      dup1\n      iszero\n      tag_141\n      jumpi\n      returndatasize\n      0x00\n      dup1\n      returndatacopy\n      revert(0x00, returndatasize)\n    tag_141:\n      pop\n      pop\n      pop\n      pop\n        /* \"@chainlink/contracts/src/v0.8/ChainlinkClient.sol\":7713:7963  {... */\n      pop\n        /* \"@chainlink/contracts/src/v0.8/ChainlinkClient.sol\":7575:7963  function cancelChainlinkRequest(... */\n      pop\n      pop\n      pop\n      pop\n      jump\t// out\n        /* \"@chainlink/contracts/src/v0.8/ConfirmedOwnerWithProposal.sol\":1497:1685  function _transferOwnership(address to) private {... */\n    tag_107:\n        /* \"@chainlink/contracts/src/v0.8/ConfirmedOwnerWithProposal.sol\":1565:1575  msg.sender */\n      caller\n        /* \"@chainlink/contracts/src/v0.8/ConfirmedOwnerWithProposal.sol\":1559:1575  to != msg.sender */\n      0xffffffffffffffffffffffffffffffffffffffff\n      and\n        /* \"@chainlink/contracts/src/v0.8/ConfirmedOwnerWithProposal.sol\":1559:1561  to */\n      dup2\n        /* \"@chainlink/contracts/src/v0.8/ConfirmedOwnerWithProposal.sol\":1559:1575  to != msg.sender */\n      0xffffffffffffffffffffffffffffffffffffffff\n      and\n      eq\n      iszero\n        /* \"@chainlink/contracts/src/v0.8/ConfirmedOwnerWithProposal.sol\":1551:1603  require(to != msg.sender, \"Cannot transfer to self\") */\n      tag_143\n      jumpi\n      mload(0x40)\n      0x08c379a000000000000000000000000000000000000000000000000000000000\n      dup2\n      mstore\n      0x04\n      add\n      tag_144\n      swap1\n      tag_145\n      jump\t// in\n    tag_144:\n      mload(0x40)\n      dup1\n      swap2\n      sub\n      swap1\n      revert\n    tag_143:\n        /* \"@chainlink/contracts/src/v0.8/ConfirmedOwnerWithProposal.sol\":1627:1629  to */\n      dup1\n        /* \"@chainlink/contracts/src/v0.8/ConfirmedOwnerWithProposal.sol\":1610:1624  s_pendingOwner */\n      0x07\n      0x00\n        /* \"@chainlink/contracts/src/v0.8/ConfirmedOwnerWithProposal.sol\":1610:1629  s_pendingOwner = to */\n      0x0100\n      exp\n      dup2\n      sload\n      dup2\n      0xffffffffffffffffffffffffffffffffffffffff\n      mul\n      not\n      and\n      swap1\n      dup4\n      0xffffffffffffffffffffffffffffffffffffffff\n      and\n      mul\n      or\n      swap1\n      sstore\n      pop\n        /* \"@chainlink/contracts/src/v0.8/ConfirmedOwnerWithProposal.sol\":1677:1679  to */\n      dup1\n        /* \"@chainlink/contracts/src/v0.8/ConfirmedOwnerWithProposal.sol\":1641:1680  OwnershipTransferRequested(s_owner, to) */\n      0xffffffffffffffffffffffffffffffffffffffff\n      and\n        /* \"@chainlink/contracts/src/v0.8/ConfirmedOwnerWithProposal.sol\":1668:1675  s_owner */\n      0x06\n      0x00\n      swap1\n      sload\n      swap1\n      0x0100\n      exp\n      swap1\n      div\n      0xffffffffffffffffffffffffffffffffffffffff\n      and\n        /* \"@chainlink/contracts/src/v0.8/ConfirmedOwnerWithProposal.sol\":1641:1680  OwnershipTransferRequested(s_owner, to) */\n      0xffffffffffffffffffffffffffffffffffffffff\n      and\n      0xed8889f560326eb138920d842192f0eb3dd22b4f139c87a2c57538e05bae1278\n      mload(0x40)\n      mload(0x40)\n      dup1\n      swap2\n      sub\n      swap1\n      log3\n        /* \"@chainlink/contracts/src/v0.8/ConfirmedOwnerWithProposal.sol\":1497:1685  function _transferOwnership(address to) private {... */\n      pop\n      jump\t// out\n        /* \"@chainlink/contracts/src/v0.8/Chainlink.sol\":987:1338  function initialize(... */\n    tag_120:\n        /* \"@chainlink/contracts/src/v0.8/Chainlink.sol\":1129:1153  Chainlink.Request memory */\n      tag_146\n      tag_116\n      jump\t// in\n    tag_146:\n        /* \"@chainlink/contracts/src/v0.8/Chainlink.sol\":1161:1210  BufferChainlink.init(self.buf, defaultBufferSize) */\n      tag_148\n        /* \"@chainlink/contracts/src/v0.8/Chainlink.sol\":1182:1186  self */\n      dup6\n        /* \"@chainlink/contracts/src/v0.8/Chainlink.sol\":1182:1190  self.buf */\n      0x80\n      add\n      mload\n        /* \"@chainlink/contracts/src/v0.8/Chainlink.sol\":361:364  256 */\n      0x0100\n        /* \"@chainlink/contracts/src/v0.8/Chainlink.sol\":1161:1181  BufferChainlink.init */\n      tag_149\n        /* \"@chainlink/contracts/src/v0.8/Chainlink.sol\":1161:1210  BufferChainlink.init(self.buf, defaultBufferSize) */\n      jump\t// in\n    tag_148:\n      pop\n        /* \"@chainlink/contracts/src/v0.8/Chainlink.sol\":1226:1231  jobId */\n      dup4\n        /* \"@chainlink/contracts/src/v0.8/Chainlink.sol\":1216:1220  self */\n      dup6\n        /* \"@chainlink/contracts/src/v0.8/Chainlink.sol\":1216:1223  self.id */\n      0x00\n      add\n        /* \"@chainlink/contracts/src/v0.8/Chainlink.sol\":1216:1231  self.id = jobId */\n      dup2\n      dup2\n      mstore\n      pop\n      pop\n        /* \"@chainlink/contracts/src/v0.8/Chainlink.sol\":1260:1272  callbackAddr */\n      dup3\n        /* \"@chainlink/contracts/src/v0.8/Chainlink.sol\":1237:1241  self */\n      dup6\n        /* \"@chainlink/contracts/src/v0.8/Chainlink.sol\":1237:1257  self.callbackAddress */\n      0x20\n      add\n        /* \"@chainlink/contracts/src/v0.8/Chainlink.sol\":1237:1272  self.callbackAddress = callbackAddr */\n      swap1\n      0xffffffffffffffffffffffffffffffffffffffff\n      and\n      swap1\n      dup2\n      0xffffffffffffffffffffffffffffffffffffffff\n      and\n      dup2\n      mstore\n      pop\n      pop\n        /* \"@chainlink/contracts/src/v0.8/Chainlink.sol\":1304:1316  callbackFunc */\n      dup2\n        /* \"@chainlink/contracts/src/v0.8/Chainlink.sol\":1278:1282  self */\n      dup6\n        /* \"@chainlink/contracts/src/v0.8/Chainlink.sol\":1278:1301  self.callbackFunctionId */\n      0x40\n      add\n        /* \"@chainlink/contracts/src/v0.8/Chainlink.sol\":1278:1316  self.callbackFunctionId = callbackFunc */\n      swap1\n      not(0xffffffffffffffffffffffffffffffffffffffffffffffffffffffff)\n      and\n      swap1\n      dup2\n      not(0xffffffffffffffffffffffffffffffffffffffffffffffffffffffff)\n      and\n      dup2\n      mstore\n      pop\n      pop\n        /* \"@chainlink/contracts/src/v0.8/Chainlink.sol\":1329:1333  self */\n      dup5\n        /* \"@chainlink/contracts/src/v0.8/Chainlink.sol\":1322:1333  return self */\n      swap1\n      pop\n        /* \"@chainlink/contracts/src/v0.8/Chainlink.sol\":987:1338  function initialize(... */\n      swap5\n      swap4\n      pop\n      pop\n      pop\n      pop\n      jump\t// out\n        /* \"@chainlink/contracts/src/v0.8/vendor/CBORChainlink.sol\":2777:2981  function encodeString(BufferChainlink.buffer memory buf, string memory value) internal pure {... */\n    tag_123:\n        /* \"@chainlink/contracts/src/v0.8/vendor/CBORChainlink.sol\":2875:2946  encodeFixedNumeric(buf, MAJOR_TYPE_STRING, uint64(bytes(value).length)) */\n      tag_151\n        /* \"@chainlink/contracts/src/v0.8/vendor/CBORChainlink.sol\":2894:2897  buf */\n      dup3\n        /* \"@chainlink/contracts/src/v0.8/vendor/CBORChainlink.sol\":383:384  3 */\n      0x03\n        /* \"@chainlink/contracts/src/v0.8/vendor/CBORChainlink.sol\":2931:2936  value */\n      dup4\n        /* \"@chainlink/contracts/src/v0.8/vendor/CBORChainlink.sol\":2925:2944  bytes(value).length */\n      mload\n        /* \"@chainlink/contracts/src/v0.8/vendor/CBORChainlink.sol\":2875:2893  encodeFixedNumeric */\n      tag_152\n        /* \"@chainlink/contracts/src/v0.8/vendor/CBORChainlink.sol\":2875:2946  encodeFixedNumeric(buf, MAJOR_TYPE_STRING, uint64(bytes(value).length)) */\n      jump\t// in\n    tag_151:\n        /* \"@chainlink/contracts/src/v0.8/vendor/CBORChainlink.sol\":2952:2976  buf.append(bytes(value)) */\n      tag_153\n        /* \"@chainlink/contracts/src/v0.8/vendor/CBORChainlink.sol\":2969:2974  value */\n      dup2\n        /* \"@chainlink/contracts/src/v0.8/vendor/CBORChainlink.sol\":2952:2955  buf */\n      dup4\n        /* \"@chainlink/contracts/src/v0.8/vendor/CBORChainlink.sol\":2952:2962  buf.append */\n      tag_154\n      swap1\n        /* \"@chainlink/contracts/src/v0.8/vendor/CBORChainlink.sol\":2952:2976  buf.append(bytes(value)) */\n      swap2\n      swap1\n      0xffffffff\n      and\n      jump\t// in\n    tag_153:\n      pop\n        /* \"@chainlink/contracts/src/v0.8/vendor/CBORChainlink.sol\":2777:2981  function encodeString(BufferChainlink.buffer memory buf, string memory value) internal pure {... */\n      pop\n      pop\n      jump\t// out\n        /* \"@chainlink/contracts/src/v0.8/vendor/CBORChainlink.sol\":1704:2150  function encodeInt(BufferChainlink.buffer memory buf, int value) internal pure {... */\n    tag_128:\n        /* \"@chainlink/contracts/src/v0.8/vendor/CBORChainlink.sol\":1800:1820  -0x10000000000000000 */\n      0xffffffffffffffffffffffffffffffffffffffffffffffff0000000000000000\n        /* \"@chainlink/contracts/src/v0.8/vendor/CBORChainlink.sol\":1792:1797  value */\n      dup2\n        /* \"@chainlink/contracts/src/v0.8/vendor/CBORChainlink.sol\":1792:1820  value < -0x10000000000000000 */\n      slt\n        /* \"@chainlink/contracts/src/v0.8/vendor/CBORChainlink.sol\":1789:2146  if(value < -0x10000000000000000) {... */\n      iszero\n      tag_156\n      jumpi\n        /* \"@chainlink/contracts/src/v0.8/vendor/CBORChainlink.sol\":1830:1860  encodeSignedBigNum(buf, value) */\n      tag_157\n        /* \"@chainlink/contracts/src/v0.8/vendor/CBORChainlink.sol\":1849:1852  buf */\n      dup3\n        /* \"@chainlink/contracts/src/v0.8/vendor/CBORChainlink.sol\":1854:1859  value */\n      dup3\n        /* \"@chainlink/contracts/src/v0.8/vendor/CBORChainlink.sol\":1830:1848  encodeSignedBigNum */\n      tag_158\n        /* \"@chainlink/contracts/src/v0.8/vendor/CBORChainlink.sol\":1830:1860  encodeSignedBigNum(buf, value) */\n      jump\t// in\n    tag_157:\n        /* \"@chainlink/contracts/src/v0.8/vendor/CBORChainlink.sol\":1789:2146  if(value < -0x10000000000000000) {... */\n      jump(tag_159)\n    tag_156:\n        /* \"@chainlink/contracts/src/v0.8/vendor/CBORChainlink.sol\":1884:1902  0xFFFFFFFFFFFFFFFF */\n      0xffffffffffffffff\n        /* \"@chainlink/contracts/src/v0.8/vendor/CBORChainlink.sol\":1876:1881  value */\n      dup2\n        /* \"@chainlink/contracts/src/v0.8/vendor/CBORChainlink.sol\":1876:1902  value > 0xFFFFFFFFFFFFFFFF */\n      sgt\n        /* \"@chainlink/contracts/src/v0.8/vendor/CBORChainlink.sol\":1873:2146  if(value > 0xFFFFFFFFFFFFFFFF) {... */\n      iszero\n      tag_160\n      jumpi\n        /* \"@chainlink/contracts/src/v0.8/vendor/CBORChainlink.sol\":1912:1942  encodeBigNum(buf, uint(value)) */\n      tag_161\n        /* \"@chainlink/contracts/src/v0.8/vendor/CBORChainlink.sol\":1925:1928  buf */\n      dup3\n        /* \"@chainlink/contracts/src/v0.8/vendor/CBORChainlink.sol\":1935:1940  value */\n      dup3\n        /* \"@chainlink/contracts/src/v0.8/vendor/CBORChainlink.sol\":1912:1924  encodeBigNum */\n      tag_162\n        /* \"@chainlink/contracts/src/v0.8/vendor/CBORChainlink.sol\":1912:1942  encodeBigNum(buf, uint(value)) */\n      jump\t// in\n    tag_161:\n        /* \"@chainlink/contracts/src/v0.8/vendor/CBORChainlink.sol\":1873:2146  if(value > 0xFFFFFFFFFFFFFFFF) {... */\n      jump(tag_163)\n    tag_160:\n        /* \"@chainlink/contracts/src/v0.8/vendor/CBORChainlink.sol\":1967:1968  0 */\n      0x00\n        /* \"@chainlink/contracts/src/v0.8/vendor/CBORChainlink.sol\":1958:1963  value */\n      dup2\n        /* \"@chainlink/contracts/src/v0.8/vendor/CBORChainlink.sol\":1958:1968  value >= 0 */\n      slt\n        /* \"@chainlink/contracts/src/v0.8/vendor/CBORChainlink.sol\":1955:2146  if(value >= 0) {... */\n      tag_164\n      jumpi\n        /* \"@chainlink/contracts/src/v0.8/vendor/CBORChainlink.sol\":1978:2041  encodeFixedNumeric(buf, MAJOR_TYPE_INT, uint64(uint256(value))) */\n      tag_165\n        /* \"@chainlink/contracts/src/v0.8/vendor/CBORChainlink.sol\":1997:2000  buf */\n      dup3\n        /* \"@chainlink/contracts/src/v0.8/vendor/CBORChainlink.sol\":234:235  0 */\n      0x00\n        /* \"@chainlink/contracts/src/v0.8/vendor/CBORChainlink.sol\":2033:2038  value */\n      dup4\n        /* \"@chainlink/contracts/src/v0.8/vendor/CBORChainlink.sol\":1978:1996  encodeFixedNumeric */\n      tag_152\n        /* \"@chainlink/contracts/src/v0.8/vendor/CBORChainlink.sol\":1978:2041  encodeFixedNumeric(buf, MAJOR_TYPE_INT, uint64(uint256(value))) */\n      jump\t// in\n    tag_165:\n        /* \"@chainlink/contracts/src/v0.8/vendor/CBORChainlink.sol\":1955:2146  if(value >= 0) {... */\n      jump(tag_166)\n    tag_164:\n        /* \"@chainlink/contracts/src/v0.8/vendor/CBORChainlink.sol\":2062:2139  encodeFixedNumeric(buf, MAJOR_TYPE_NEGATIVE_INT, uint64(uint256(-1 - value))) */\n      tag_167\n        /* \"@chainlink/contracts/src/v0.8/vendor/CBORChainlink.sol\":2081:2084  buf */\n      dup3\n        /* \"@chainlink/contracts/src/v0.8/vendor/CBORChainlink.sol\":288:289  1 */\n      0x01\n        /* \"@chainlink/contracts/src/v0.8/vendor/CBORChainlink.sol\":2131:2136  value */\n      dup4\n        /* \"@chainlink/contracts/src/v0.8/vendor/CBORChainlink.sol\":2126:2128  -1 */\n      0xffffffffffffffffffffffffffffffffffffffffffffffffffffffffffffffff\n        /* \"@chainlink/contracts/src/v0.8/vendor/CBORChainlink.sol\":2126:2136  -1 - value */\n      tag_168\n      swap2\n      swap1\n      tag_169\n      jump\t// in\n    tag_168:\n        /* \"@chainlink/contracts/src/v0.8/vendor/CBORChainlink.sol\":2062:2080  encodeFixedNumeric */\n      tag_152\n        /* \"@chainlink/contracts/src/v0.8/vendor/CBORChainlink.sol\":2062:2139  encodeFixedNumeric(buf, MAJOR_TYPE_NEGATIVE_INT, uint64(uint256(-1 - value))) */\n      jump\t// in\n    tag_167:\n        /* \"@chainlink/contracts/src/v0.8/vendor/CBORChainlink.sol\":1955:2146  if(value >= 0) {... */\n    tag_166:\n        /* \"@chainlink/contracts/src/v0.8/vendor/CBORChainlink.sol\":1873:2146  if(value > 0xFFFFFFFFFFFFFFFF) {... */\n    tag_163:\n        /* \"@chainlink/contracts/src/v0.8/vendor/CBORChainlink.sol\":1789:2146  if(value < -0x10000000000000000) {... */\n    tag_159:\n        /* \"@chainlink/contracts/src/v0.8/vendor/CBORChainlink.sol\":1704:2150  function encodeInt(BufferChainlink.buffer memory buf, int value) internal pure {... */\n      pop\n      pop\n      jump\t// out\n        /* \"@chainlink/contracts/src/v0.8/ChainlinkClient.sol\":6629:7059  function _rawRequest(... */\n    tag_135:\n        /* \"@chainlink/contracts/src/v0.8/ChainlinkClient.sol\":6771:6788  bytes32 requestId */\n      0x00\n        /* \"@chainlink/contracts/src/v0.8/ChainlinkClient.sol\":6835:6839  this */\n      address\n        /* \"@chainlink/contracts/src/v0.8/ChainlinkClient.sol\":6841:6846  nonce */\n      dup5\n        /* \"@chainlink/contracts/src/v0.8/ChainlinkClient.sol\":6818:6847  abi.encodePacked(this, nonce) */\n      add(0x20, mload(0x40))\n      tag_171\n      swap3\n      swap2\n      swap1\n      tag_172\n      jump\t// in\n    tag_171:\n      mload(0x40)\n      0x20\n      dup2\n      dup4\n      sub\n      sub\n      dup2\n      mstore\n      swap1\n      0x40\n      mstore\n        /* \"@chainlink/contracts/src/v0.8/ChainlinkClient.sol\":6808:6848  keccak256(abi.encodePacked(this, nonce)) */\n      dup1\n      mload\n      swap1\n      0x20\n      add\n      keccak256\n        /* \"@chainlink/contracts/src/v0.8/ChainlinkClient.sol\":6796:6848  requestId = keccak256(abi.encodePacked(this, nonce)) */\n      swap1\n      pop\n        /* \"@chainlink/contracts/src/v0.8/ChainlinkClient.sol\":6885:6898  oracleAddress */\n      dup5\n        /* \"@chainlink/contracts/src/v0.8/ChainlinkClient.sol\":6854:6871  s_pendingRequests */\n      0x05\n        /* \"@chainlink/contracts/src/v0.8/ChainlinkClient.sol\":6854:6882  s_pendingRequests[requestId] */\n      0x00\n        /* \"@chainlink/contracts/src/v0.8/ChainlinkClient.sol\":6872:6881  requestId */\n      dup4\n        /* \"@chainlink/contracts/src/v0.8/ChainlinkClient.sol\":6854:6882  s_pendingRequests[requestId] */\n      dup2\n      mstore\n      0x20\n      add\n      swap1\n      dup2\n      mstore\n      0x20\n      add\n      0x00\n      keccak256\n      0x00\n        /* \"@chainlink/contracts/src/v0.8/ChainlinkClient.sol\":6854:6898  s_pendingRequests[requestId] = oracleAddress */\n      0x0100\n      exp\n      dup2\n      sload\n      dup2\n      0xffffffffffffffffffffffffffffffffffffffff\n      mul\n      not\n      and\n      swap1\n      dup4\n      0xffffffffffffffffffffffffffffffffffffffff\n      and\n      mul\n      or\n      swap1\n      sstore\n      pop\n        /* \"@chainlink/contracts/src/v0.8/ChainlinkClient.sol\":6928:6937  requestId */\n      dup1\n        /* \"@chainlink/contracts/src/v0.8/ChainlinkClient.sol\":6909:6938  ChainlinkRequested(requestId) */\n      0xb5e6e01e79f91267dc17b4e6314d5d4d03593d2ceee0fbb452b750bd70ea5af9\n      mload(0x40)\n      mload(0x40)\n      dup1\n      swap2\n      sub\n      swap1\n      log2\n        /* \"@chainlink/contracts/src/v0.8/ChainlinkClient.sol\":6952:6958  s_link */\n      0x02\n      0x00\n      swap1\n      sload\n      swap1\n      0x0100\n      exp\n      swap1\n      div\n      0xffffffffffffffffffffffffffffffffffffffff\n      and\n        /* \"@chainlink/contracts/src/v0.8/ChainlinkClient.sol\":6952:6974  s_link.transferAndCall */\n      0xffffffffffffffffffffffffffffffffffffffff\n      and\n      0x4000aea0\n        /* \"@chainlink/contracts/src/v0.8/ChainlinkClient.sol\":6975:6988  oracleAddress */\n      dup7\n        /* \"@chainlink/contracts/src/v0.8/ChainlinkClient.sol\":6990:6997  payment */\n      dup6\n        /* \"@chainlink/contracts/src/v0.8/ChainlinkClient.sol\":6999:7013  encodedRequest */\n      dup6\n        /* \"@chainlink/contracts/src/v0.8/ChainlinkClient.sol\":6952:7014  s_link.transferAndCall(oracleAddress, payment, encodedRequest) */\n      mload(0x40)\n      dup5\n      0xffffffff\n      and\n      0xe0\n      shl\n      dup2\n      mstore\n      0x04\n      add\n      tag_173\n      swap4\n      swap3\n      swap2\n      swap1\n      tag_174\n      jump\t// in\n    tag_173:\n      0x20\n      mload(0x40)\n      dup1\n      dup4\n      sub\n      dup2\n      0x00\n      dup8\n      dup1\n      extcodesize\n      iszero\n      dup1\n      iszero\n      tag_175\n      jumpi\n      0x00\n      dup1\n      revert\n    tag_175:\n      pop\n      gas\n      call\n      iszero\n      dup1\n      iszero\n      tag_177\n      jumpi\n      returndatasize\n      0x00\n      dup1\n      returndatacopy\n      revert(0x00, returndatasize)\n    tag_177:\n      pop\n      pop\n      pop\n      pop\n      mload(0x40)\n      returndatasize\n      not(0x1f)\n      0x1f\n      dup3\n      add\n      and\n      dup3\n      add\n      dup1\n      0x40\n      mstore\n      pop\n      dup2\n      add\n      swap1\n      tag_178\n      swap2\n      swap1\n      tag_74\n      jump\t// in\n    tag_178:\n        /* \"@chainlink/contracts/src/v0.8/ChainlinkClient.sol\":6944:7054  require(s_link.transferAndCall(oracleAddress, payment, encodedRequest), \"unable to transferAndCall to oracle\") */\n      tag_179\n      jumpi\n      mload(0x40)\n      0x08c379a000000000000000000000000000000000000000000000000000000000\n      dup2\n      mstore\n      0x04\n      add\n      tag_180\n      swap1\n      tag_181\n      jump\t// in\n    tag_180:\n      mload(0x40)\n      dup1\n      swap2\n      sub\n      swap1\n      revert\n    tag_179:\n        /* \"@chainlink/contracts/src/v0.8/ChainlinkClient.sol\":6629:7059  function _rawRequest(... */\n      swap5\n      swap4\n      pop\n      pop\n      pop\n      pop\n      jump\t// out\n        /* \"@chainlink/contracts/src/v0.8/vendor/BufferChainlink.sol\":1001:1400  function init(buffer memory buf, uint256 capacity) internal pure returns (buffer memory) {... */\n    tag_149:\n        /* \"@chainlink/contracts/src/v0.8/vendor/BufferChainlink.sol\":1075:1088  buffer memory */\n      tag_182\n      tag_183\n      jump\t// in\n    tag_182:\n        /* \"@chainlink/contracts/src/v0.8/vendor/BufferChainlink.sol\":1117:1118  0 */\n      0x00\n        /* \"@chainlink/contracts/src/v0.8/vendor/BufferChainlink.sol\":1111:1113  32 */\n      0x20\n        /* \"@chainlink/contracts/src/v0.8/vendor/BufferChainlink.sol\":1100:1108  capacity */\n      dup4\n        /* \"@chainlink/contracts/src/v0.8/vendor/BufferChainlink.sol\":1100:1113  capacity % 32 */\n      tag_185\n      swap2\n      swap1\n      tag_186\n      jump\t// in\n    tag_185:\n        /* \"@chainlink/contracts/src/v0.8/vendor/BufferChainlink.sol\":1100:1118  capacity % 32 != 0 */\n      eq\n        /* \"@chainlink/contracts/src/v0.8/vendor/BufferChainlink.sol\":1096:1167  if (capacity % 32 != 0) {... */\n      tag_187\n      jumpi\n        /* \"@chainlink/contracts/src/v0.8/vendor/BufferChainlink.sol\":1157:1159  32 */\n      0x20\n        /* \"@chainlink/contracts/src/v0.8/vendor/BufferChainlink.sol\":1146:1154  capacity */\n      dup3\n        /* \"@chainlink/contracts/src/v0.8/vendor/BufferChainlink.sol\":1146:1159  capacity % 32 */\n      tag_188\n      swap2\n      swap1\n      tag_186\n      jump\t// in\n    tag_188:\n        /* \"@chainlink/contracts/src/v0.8/vendor/BufferChainlink.sol\":1140:1142  32 */\n      0x20\n        /* \"@chainlink/contracts/src/v0.8/vendor/BufferChainlink.sol\":1140:1160  32 - (capacity % 32) */\n      tag_189\n      swap2\n      swap1\n      tag_190\n      jump\t// in\n    tag_189:\n        /* \"@chainlink/contracts/src/v0.8/vendor/BufferChainlink.sol\":1128:1160  capacity += 32 - (capacity % 32) */\n      dup3\n      tag_191\n      swap2\n      swap1\n      tag_131\n      jump\t// in\n    tag_191:\n      swap2\n      pop\n        /* \"@chainlink/contracts/src/v0.8/vendor/BufferChainlink.sol\":1096:1167  if (capacity % 32 != 0) {... */\n    tag_187:\n        /* \"@chainlink/contracts/src/v0.8/vendor/BufferChainlink.sol\":1229:1237  capacity */\n      dup2\n        /* \"@chainlink/contracts/src/v0.8/vendor/BufferChainlink.sol\":1214:1217  buf */\n      dup4\n        /* \"@chainlink/contracts/src/v0.8/vendor/BufferChainlink.sol\":1214:1226  buf.capacity */\n      0x20\n      add\n        /* \"@chainlink/contracts/src/v0.8/vendor/BufferChainlink.sol\":1214:1237  buf.capacity = capacity */\n      dup2\n      dup2\n      mstore\n      pop\n      pop\n        /* \"@chainlink/contracts/src/v0.8/vendor/BufferChainlink.sol\":1277:1281  0x40 */\n      0x40\n        /* \"@chainlink/contracts/src/v0.8/vendor/BufferChainlink.sol\":1271:1282  mload(0x40) */\n      mload\n        /* \"@chainlink/contracts/src/v0.8/vendor/BufferChainlink.sol\":1301:1304  ptr */\n      dup1\n        /* \"@chainlink/contracts/src/v0.8/vendor/BufferChainlink.sol\":1296:1299  buf */\n      dup5\n        /* \"@chainlink/contracts/src/v0.8/vendor/BufferChainlink.sol\":1289:1305  mstore(buf, ptr) */\n      mstore\n        /* \"@chainlink/contracts/src/v0.8/vendor/BufferChainlink.sol\":1324:1325  0 */\n      0x00\n        /* \"@chainlink/contracts/src/v0.8/vendor/BufferChainlink.sol\":1319:1322  ptr */\n      dup2\n        /* \"@chainlink/contracts/src/v0.8/vendor/BufferChainlink.sol\":1312:1326  mstore(ptr, 0) */\n      mstore\n        /* \"@chainlink/contracts/src/v0.8/vendor/BufferChainlink.sol\":1363:1371  capacity */\n      dup3\n        /* \"@chainlink/contracts/src/v0.8/vendor/BufferChainlink.sol\":1358:1361  ptr */\n      dup2\n        /* \"@chainlink/contracts/src/v0.8/vendor/BufferChainlink.sol\":1354:1372  add(ptr, capacity) */\n      add\n        /* \"@chainlink/contracts/src/v0.8/vendor/BufferChainlink.sol\":1350:1352  32 */\n      0x20\n        /* \"@chainlink/contracts/src/v0.8/vendor/BufferChainlink.sol\":1346:1373  add(32, add(ptr, capacity)) */\n      add\n        /* \"@chainlink/contracts/src/v0.8/vendor/BufferChainlink.sol\":1340:1344  0x40 */\n      0x40\n        /* \"@chainlink/contracts/src/v0.8/vendor/BufferChainlink.sol\":1333:1374  mstore(0x40, add(32, add(ptr, capacity))) */\n      mstore\n        /* \"@chainlink/contracts/src/v0.8/vendor/BufferChainlink.sol\":1252:1380  {... */\n      pop\n        /* \"@chainlink/contracts/src/v0.8/vendor/BufferChainlink.sol\":1392:1395  buf */\n      dup3\n        /* \"@chainlink/contracts/src/v0.8/vendor/BufferChainlink.sol\":1385:1395  return buf */\n      swap1\n      pop\n        /* \"@chainlink/contracts/src/v0.8/vendor/BufferChainlink.sol\":1001:1400  function init(buffer memory buf, uint256 capacity) internal pure returns (buffer memory) {... */\n      swap3\n      swap2\n      pop\n      pop\n      jump\t// out\n        /* \"@chainlink/contracts/src/v0.8/vendor/CBORChainlink.sol\":682:1307  function encodeFixedNumeric(BufferChainlink.buffer memory buf, uint8 major, uint64 value) private pure {... */\n    tag_152:\n        /* \"@chainlink/contracts/src/v0.8/vendor/CBORChainlink.sol\":803:805  23 */\n      0x17\n        /* \"@chainlink/contracts/src/v0.8/vendor/CBORChainlink.sol\":794:799  value */\n      dup2\n        /* \"@chainlink/contracts/src/v0.8/vendor/CBORChainlink.sol\":794:805  value <= 23 */\n      0xffffffffffffffff\n      and\n      gt\n        /* \"@chainlink/contracts/src/v0.8/vendor/CBORChainlink.sol\":791:1303  if(value <= 23) {... */\n      tag_193\n      jumpi\n        /* \"@chainlink/contracts/src/v0.8/vendor/CBORChainlink.sol\":815:859  buf.appendUint8(uint8((major << 5) | value)) */\n      tag_194\n        /* \"@chainlink/contracts/src/v0.8/vendor/CBORChainlink.sol\":852:857  value */\n      dup2\n        /* \"@chainlink/contracts/src/v0.8/vendor/CBORChainlink.sol\":847:848  5 */\n      0x05\n        /* \"@chainlink/contracts/src/v0.8/vendor/CBORChainlink.sol\":838:843  major */\n      dup5\n        /* \"@chainlink/contracts/src/v0.8/vendor/CBORChainlink.sol\":838:848  major << 5 */\n      0xff\n      and\n      swap1\n      shl\n        /* \"@chainlink/contracts/src/v0.8/vendor/CBORChainlink.sol\":837:857  (major << 5) | value */\n      0xff\n      and\n      or\n        /* \"@chainlink/contracts/src/v0.8/vendor/CBORChainlink.sol\":815:818  buf */\n      dup5\n        /* \"@chainlink/contracts/src/v0.8/vendor/CBORChainlink.sol\":815:830  buf.appendUint8 */\n      tag_195\n      swap1\n        /* \"@chainlink/contracts/src/v0.8/vendor/CBORChainlink.sol\":815:859  buf.appendUint8(uint8((major << 5) | value)) */\n      swap2\n      swap1\n      0xffffffff\n      and\n      jump\t// in\n    tag_194:\n      pop\n        /* \"@chainlink/contracts/src/v0.8/vendor/CBORChainlink.sol\":791:1303  if(value <= 23) {... */\n      jump(tag_196)\n    tag_193:\n        /* \"@chainlink/contracts/src/v0.8/vendor/CBORChainlink.sol\":885:889  0xFF */\n      0xff\n        /* \"@chainlink/contracts/src/v0.8/vendor/CBORChainlink.sol\":876:881  value */\n      dup2\n        /* \"@chainlink/contracts/src/v0.8/vendor/CBORChainlink.sol\":876:889  value <= 0xFF */\n      0xffffffffffffffff\n      and\n      gt\n        /* \"@chainlink/contracts/src/v0.8/vendor/CBORChainlink.sol\":872:1303  if (value <= 0xFF) {... */\n      tag_197\n      jumpi\n        /* \"@chainlink/contracts/src/v0.8/vendor/CBORChainlink.sol\":899:940  buf.appendUint8(uint8((major << 5) | 24)) */\n      tag_198\n        /* \"@chainlink/contracts/src/v0.8/vendor/CBORChainlink.sol\":936:938  24 */\n      0x18\n        /* \"@chainlink/contracts/src/v0.8/vendor/CBORChainlink.sol\":931:932  5 */\n      0x05\n        /* \"@chainlink/contracts/src/v0.8/vendor/CBORChainlink.sol\":922:927  major */\n      dup5\n        /* \"@chainlink/contracts/src/v0.8/vendor/CBORChainlink.sol\":922:932  major << 5 */\n      0xff\n      and\n      swap1\n      shl\n        /* \"@chainlink/contracts/src/v0.8/vendor/CBORChainlink.sol\":921:938  (major << 5) | 24 */\n      or\n        /* \"@chainlink/contracts/src/v0.8/vendor/CBORChainlink.sol\":899:902  buf */\n      dup5\n        /* \"@chainlink/contracts/src/v0.8/vendor/CBORChainlink.sol\":899:914  buf.appendUint8 */\n      tag_195\n      swap1\n        /* \"@chainlink/contracts/src/v0.8/vendor/CBORChainlink.sol\":899:940  buf.appendUint8(uint8((major << 5) | 24)) */\n      swap2\n      swap1\n      0xffffffff\n      and\n      jump\t// in\n    tag_198:\n      pop\n        /* \"@chainlink/contracts/src/v0.8/vendor/CBORChainlink.sol\":948:971  buf.appendInt(value, 1) */\n      tag_199\n        /* \"@chainlink/contracts/src/v0.8/vendor/CBORChainlink.sol\":962:967  value */\n      dup2\n        /* \"@chainlink/contracts/src/v0.8/vendor/CBORChainlink.sol\":948:971  buf.appendInt(value, 1) */\n      0xffffffffffffffff\n      and\n        /* \"@chainlink/contracts/src/v0.8/vendor/CBORChainlink.sol\":969:970  1 */\n      0x01\n        /* \"@chainlink/contracts/src/v0.8/vendor/CBORChainlink.sol\":948:951  buf */\n      dup6\n        /* \"@chainlink/contracts/src/v0.8/vendor/CBORChainlink.sol\":948:961  buf.appendInt */\n      tag_200\n      swap1\n        /* \"@chainlink/contracts/src/v0.8/vendor/CBORChainlink.sol\":948:971  buf.appendInt(value, 1) */\n      swap3\n      swap2\n      swap1\n      0xffffffff\n      and\n      jump\t// in\n    tag_199:\n      pop\n        /* \"@chainlink/contracts/src/v0.8/vendor/CBORChainlink.sol\":872:1303  if (value <= 0xFF) {... */\n      jump(tag_201)\n    tag_197:\n        /* \"@chainlink/contracts/src/v0.8/vendor/CBORChainlink.sol\":997:1003  0xFFFF */\n      0xffff\n        /* \"@chainlink/contracts/src/v0.8/vendor/CBORChainlink.sol\":988:993  value */\n      dup2\n        /* \"@chainlink/contracts/src/v0.8/vendor/CBORChainlink.sol\":988:1003  value <= 0xFFFF */\n      0xffffffffffffffff\n      and\n      gt\n        /* \"@chainlink/contracts/src/v0.8/vendor/CBORChainlink.sol\":984:1303  if (value <= 0xFFFF) {... */\n      tag_202\n      jumpi\n        /* \"@chainlink/contracts/src/v0.8/vendor/CBORChainlink.sol\":1013:1054  buf.appendUint8(uint8((major << 5) | 25)) */\n      tag_203\n        /* \"@chainlink/contracts/src/v0.8/vendor/CBORChainlink.sol\":1050:1052  25 */\n      0x19\n        /* \"@chainlink/contracts/src/v0.8/vendor/CBORChainlink.sol\":1045:1046  5 */\n      0x05\n        /* \"@chainlink/contracts/src/v0.8/vendor/CBORChainlink.sol\":1036:1041  major */\n      dup5\n        /* \"@chainlink/contracts/src/v0.8/vendor/CBORChainlink.sol\":1036:1046  major << 5 */\n      0xff\n      and\n      swap1\n      shl\n        /* \"@chainlink/contracts/src/v0.8/vendor/CBORChainlink.sol\":1035:1052  (major << 5) | 25 */\n      or\n        /* \"@chainlink/contracts/src/v0.8/vendor/CBORChainlink.sol\":1013:1016  buf */\n      dup5\n        /* \"@chainlink/contracts/src/v0.8/vendor/CBORChainlink.sol\":1013:1028  buf.appendUint8 */\n      tag_195\n      swap1\n        /* \"@chainlink/contracts/src/v0.8/vendor/CBORChainlink.sol\":1013:1054  buf.appendUint8(uint8((major << 5) | 25)) */\n      swap2\n      swap1\n      0xffffffff\n      and\n      jump\t// in\n    tag_203:\n      pop\n        /* \"@chainlink/contracts/src/v0.8/vendor/CBORChainlink.sol\":1062:1085  buf.appendInt(value, 2) */\n      tag_204\n        /* \"@chainlink/contracts/src/v0.8/vendor/CBORChainlink.sol\":1076:1081  value */\n      dup2\n        /* \"@chainlink/contracts/src/v0.8/vendor/CBORChainlink.sol\":1062:1085  buf.appendInt(value, 2) */\n      0xffffffffffffffff\n      and\n        /* \"@chainlink/contracts/src/v0.8/vendor/CBORChainlink.sol\":1083:1084  2 */\n      0x02\n        /* \"@chainlink/contracts/src/v0.8/vendor/CBORChainlink.sol\":1062:1065  buf */\n      dup6\n        /* \"@chainlink/contracts/src/v0.8/vendor/CBORChainlink.sol\":1062:1075  buf.appendInt */\n      tag_200\n      swap1\n        /* \"@chainlink/contracts/src/v0.8/vendor/CBORChainlink.sol\":1062:1085  buf.appendInt(value, 2) */\n      swap3\n      swap2\n      swap1\n      0xffffffff\n      and\n      jump\t// in\n    tag_204:\n      pop\n        /* \"@chainlink/contracts/src/v0.8/vendor/CBORChainlink.sol\":984:1303  if (value <= 0xFFFF) {... */\n      jump(tag_205)\n    tag_202:\n        /* \"@chainlink/contracts/src/v0.8/vendor/CBORChainlink.sol\":1111:1121  0xFFFFFFFF */\n      0xffffffff\n        /* \"@chainlink/contracts/src/v0.8/vendor/CBORChainlink.sol\":1102:1107  value */\n      dup2\n        /* \"@chainlink/contracts/src/v0.8/vendor/CBORChainlink.sol\":1102:1121  value <= 0xFFFFFFFF */\n      0xffffffffffffffff\n      and\n      gt\n        /* \"@chainlink/contracts/src/v0.8/vendor/CBORChainlink.sol\":1098:1303  if (value <= 0xFFFFFFFF) {... */\n      tag_206\n      jumpi\n        /* \"@chainlink/contracts/src/v0.8/vendor/CBORChainlink.sol\":1131:1172  buf.appendUint8(uint8((major << 5) | 26)) */\n      tag_207\n        /* \"@chainlink/contracts/src/v0.8/vendor/CBORChainlink.sol\":1168:1170  26 */\n      0x1a\n        /* \"@chainlink/contracts/src/v0.8/vendor/CBORChainlink.sol\":1163:1164  5 */\n      0x05\n        /* \"@chainlink/contracts/src/v0.8/vendor/CBORChainlink.sol\":1154:1159  major */\n      dup5\n        /* \"@chainlink/contracts/src/v0.8/vendor/CBORChainlink.sol\":1154:1164  major << 5 */\n      0xff\n      and\n      swap1\n      shl\n        /* \"@chainlink/contracts/src/v0.8/vendor/CBORChainlink.sol\":1153:1170  (major << 5) | 26 */\n      or\n        /* \"@chainlink/contracts/src/v0.8/vendor/CBORChainlink.sol\":1131:1134  buf */\n      dup5\n        /* \"@chainlink/contracts/src/v0.8/vendor/CBORChainlink.sol\":1131:1146  buf.appendUint8 */\n      tag_195\n      swap1\n        /* \"@chainlink/contracts/src/v0.8/vendor/CBORChainlink.sol\":1131:1172  buf.appendUint8(uint8((major << 5) | 26)) */\n      swap2\n      swap1\n      0xffffffff\n      and\n      jump\t// in\n    tag_207:\n      pop\n        /* \"@chainlink/contracts/src/v0.8/vendor/CBORChainlink.sol\":1180:1203  buf.appendInt(value, 4) */\n      tag_208\n        /* \"@chainlink/contracts/src/v0.8/vendor/CBORChainlink.sol\":1194:1199  value */\n      dup2\n        /* \"@chainlink/contracts/src/v0.8/vendor/CBORChainlink.sol\":1180:1203  buf.appendInt(value, 4) */\n      0xffffffffffffffff\n      and\n        /* \"@chainlink/contracts/src/v0.8/vendor/CBORChainlink.sol\":1201:1202  4 */\n      0x04\n        /* \"@chainlink/contracts/src/v0.8/vendor/CBORChainlink.sol\":1180:1183  buf */\n      dup6\n        /* \"@chainlink/contracts/src/v0.8/vendor/CBORChainlink.sol\":1180:1193  buf.appendInt */\n      tag_200\n      swap1\n        /* \"@chainlink/contracts/src/v0.8/vendor/CBORChainlink.sol\":1180:1203  buf.appendInt(value, 4) */\n      swap3\n      swap2\n      swap1\n      0xffffffff\n      and\n      jump\t// in\n    tag_208:\n      pop\n        /* \"@chainlink/contracts/src/v0.8/vendor/CBORChainlink.sol\":1098:1303  if (value <= 0xFFFFFFFF) {... */\n      jump(tag_209)\n    tag_206:\n        /* \"@chainlink/contracts/src/v0.8/vendor/CBORChainlink.sol\":1224:1265  buf.appendUint8(uint8((major << 5) | 27)) */\n      tag_210\n        /* \"@chainlink/contracts/src/v0.8/vendor/CBORChainlink.sol\":1261:1263  27 */\n      0x1b\n        /* \"@chainlink/contracts/src/v0.8/vendor/CBORChainlink.sol\":1256:1257  5 */\n      0x05\n        /* \"@chainlink/contracts/src/v0.8/vendor/CBORChainlink.sol\":1247:1252  major */\n      dup5\n        /* \"@chainlink/contracts/src/v0.8/vendor/CBORChainlink.sol\":1247:1257  major << 5 */\n      0xff\n      and\n      swap1\n      shl\n        /* \"@chainlink/contracts/src/v0.8/vendor/CBORChainlink.sol\":1246:1263  (major << 5) | 27 */\n      or\n        /* \"@chainlink/contracts/src/v0.8/vendor/CBORChainlink.sol\":1224:1227  buf */\n      dup5\n        /* \"@chainlink/contracts/src/v0.8/vendor/CBORChainlink.sol\":1224:1239  buf.appendUint8 */\n      tag_195\n      swap1\n        /* \"@chainlink/contracts/src/v0.8/vendor/CBORChainlink.sol\":1224:1265  buf.appendUint8(uint8((major << 5) | 27)) */\n      swap2\n      swap1\n      0xffffffff\n      and\n      jump\t// in\n    tag_210:\n      pop\n        /* \"@chainlink/contracts/src/v0.8/vendor/CBORChainlink.sol\":1273:1296  buf.appendInt(value, 8) */\n      tag_211\n        /* \"@chainlink/contracts/src/v0.8/vendor/CBORChainlink.sol\":1287:1292  value */\n      dup2\n        /* \"@chainlink/contracts/src/v0.8/vendor/CBORChainlink.sol\":1273:1296  buf.appendInt(value, 8) */\n      0xffffffffffffffff\n      and\n        /* \"@chainlink/contracts/src/v0.8/vendor/CBORChainlink.sol\":1294:1295  8 */\n      0x08\n        /* \"@chainlink/contracts/src/v0.8/vendor/CBORChainlink.sol\":1273:1276  buf */\n      dup6\n        /* \"@chainlink/contracts/src/v0.8/vendor/CBORChainlink.sol\":1273:1286  buf.appendInt */\n      tag_200\n      swap1\n        /* \"@chainlink/contracts/src/v0.8/vendor/CBORChainlink.sol\":1273:1296  buf.appendInt(value, 8) */\n      swap3\n      swap2\n      swap1\n      0xffffffff\n      and\n      jump\t// in\n    tag_211:\n      pop\n        /* \"@chainlink/contracts/src/v0.8/vendor/CBORChainlink.sol\":1098:1303  if (value <= 0xFFFFFFFF) {... */\n    tag_209:\n        /* \"@chainlink/contracts/src/v0.8/vendor/CBORChainlink.sol\":984:1303  if (value <= 0xFFFF) {... */\n    tag_205:\n        /* \"@chainlink/contracts/src/v0.8/vendor/CBORChainlink.sol\":872:1303  if (value <= 0xFF) {... */\n    tag_201:\n        /* \"@chainlink/contracts/src/v0.8/vendor/CBORChainlink.sol\":791:1303  if(value <= 23) {... */\n    tag_196:\n        /* \"@chainlink/contracts/src/v0.8/vendor/CBORChainlink.sol\":682:1307  function encodeFixedNumeric(BufferChainlink.buffer memory buf, uint8 major, uint64 value) private pure {... */\n      pop\n      pop\n      pop\n      jump\t// out\n        /* \"@chainlink/contracts/src/v0.8/vendor/BufferChainlink.sol\":4692:4847  function append(buffer memory buf, bytes memory data) internal pure returns (buffer memory) {... */\n    tag_154:\n        /* \"@chainlink/contracts/src/v0.8/vendor/BufferChainlink.sol\":4769:4782  buffer memory */\n      tag_212\n      tag_183\n      jump\t// in\n    tag_212:\n        /* \"@chainlink/contracts/src/v0.8/vendor/BufferChainlink.sol\":4797:4842  write(buf, buf.buf.length, data, data.length) */\n      tag_214\n        /* \"@chainlink/contracts/src/v0.8/vendor/BufferChainlink.sol\":4803:4806  buf */\n      dup4\n        /* \"@chainlink/contracts/src/v0.8/vendor/BufferChainlink.sol\":4808:4811  buf */\n      dup5\n        /* \"@chainlink/contracts/src/v0.8/vendor/BufferChainlink.sol\":4808:4815  buf.buf */\n      0x00\n      add\n      mload\n        /* \"@chainlink/contracts/src/v0.8/vendor/BufferChainlink.sol\":4808:4822  buf.buf.length */\n      mload\n        /* \"@chainlink/contracts/src/v0.8/vendor/BufferChainlink.sol\":4824:4828  data */\n      dup5\n        /* \"@chainlink/contracts/src/v0.8/vendor/BufferChainlink.sol\":4830:4834  data */\n      dup6\n        /* \"@chainlink/contracts/src/v0.8/vendor/BufferChainlink.sol\":4830:4841  data.length */\n      mload\n        /* \"@chainlink/contracts/src/v0.8/vendor/BufferChainlink.sol\":4797:4802  write */\n      tag_215\n        /* \"@chainlink/contracts/src/v0.8/vendor/BufferChainlink.sol\":4797:4842  write(buf, buf.buf.length, data, data.length) */\n      jump\t// in\n    tag_214:\n        /* \"@chainlink/contracts/src/v0.8/vendor/BufferChainlink.sol\":4790:4842  return write(buf, buf.buf.length, data, data.length) */\n      swap1\n      pop\n        /* \"@chainlink/contracts/src/v0.8/vendor/BufferChainlink.sol\":4692:4847  function append(buffer memory buf, bytes memory data) internal pure returns (buffer memory) {... */\n      swap3\n      swap2\n      pop\n      pop\n      jump\t// out\n        /* \"@chainlink/contracts/src/v0.8/vendor/CBORChainlink.sol\":2547:2773  function encodeSignedBigNum(BufferChainlink.buffer memory buf, int input) internal pure {... */\n    tag_158:\n        /* \"@chainlink/contracts/src/v0.8/vendor/CBORChainlink.sol\":2641:2713  buf.appendUint8(uint8((MAJOR_TYPE_TAG << 5) | TAG_TYPE_NEGATIVE_BIGNUM)) */\n      tag_217\n        /* \"@chainlink/contracts/src/v0.8/vendor/CBORChainlink.sol\":676:677  3 */\n      0x03\n        /* \"@chainlink/contracts/src/v0.8/vendor/CBORChainlink.sol\":2682:2683  5 */\n      0x05\n        /* \"@chainlink/contracts/src/v0.8/vendor/CBORChainlink.sol\":520:521  6 */\n      0x06\n        /* \"@chainlink/contracts/src/v0.8/vendor/CBORChainlink.sol\":2664:2683  MAJOR_TYPE_TAG << 5 */\n      0xff\n      and\n      swap1\n      shl\n        /* \"@chainlink/contracts/src/v0.8/vendor/CBORChainlink.sol\":2663:2711  (MAJOR_TYPE_TAG << 5) | TAG_TYPE_NEGATIVE_BIGNUM */\n      or\n        /* \"@chainlink/contracts/src/v0.8/vendor/CBORChainlink.sol\":2641:2644  buf */\n      dup4\n        /* \"@chainlink/contracts/src/v0.8/vendor/CBORChainlink.sol\":2641:2656  buf.appendUint8 */\n      tag_195\n      swap1\n        /* \"@chainlink/contracts/src/v0.8/vendor/CBORChainlink.sol\":2641:2713  buf.appendUint8(uint8((MAJOR_TYPE_TAG << 5) | TAG_TYPE_NEGATIVE_BIGNUM)) */\n      swap2\n      swap1\n      0xffffffff\n      and\n      jump\t// in\n    tag_217:\n      pop\n        /* \"@chainlink/contracts/src/v0.8/vendor/CBORChainlink.sol\":2719:2768  encodeBytes(buf, abi.encode(uint256(-1 - input))) */\n      tag_218\n        /* \"@chainlink/contracts/src/v0.8/vendor/CBORChainlink.sol\":2731:2734  buf */\n      dup3\n        /* \"@chainlink/contracts/src/v0.8/vendor/CBORChainlink.sol\":2760:2765  input */\n      dup3\n        /* \"@chainlink/contracts/src/v0.8/vendor/CBORChainlink.sol\":2755:2757  -1 */\n      0xffffffffffffffffffffffffffffffffffffffffffffffffffffffffffffffff\n        /* \"@chainlink/contracts/src/v0.8/vendor/CBORChainlink.sol\":2755:2765  -1 - input */\n      tag_219\n      swap2\n      swap1\n      tag_169\n      jump\t// in\n    tag_219:\n        /* \"@chainlink/contracts/src/v0.8/vendor/CBORChainlink.sol\":2736:2767  abi.encode(uint256(-1 - input)) */\n      add(0x20, mload(0x40))\n      tag_220\n      swap2\n      swap1\n      tag_31\n      jump\t// in\n    tag_220:\n      mload(0x40)\n      0x20\n      dup2\n      dup4\n      sub\n      sub\n      dup2\n      mstore\n      swap1\n      0x40\n      mstore\n        /* \"@chainlink/contracts/src/v0.8/vendor/CBORChainlink.sol\":2719:2730  encodeBytes */\n      tag_221\n        /* \"@chainlink/contracts/src/v0.8/vendor/CBORChainlink.sol\":2719:2768  encodeBytes(buf, abi.encode(uint256(-1 - input))) */\n      jump\t// in\n    tag_218:\n        /* \"@chainlink/contracts/src/v0.8/vendor/CBORChainlink.sol\":2547:2773  function encodeSignedBigNum(BufferChainlink.buffer memory buf, int input) internal pure {... */\n      pop\n      pop\n      jump\t// out\n        /* \"@chainlink/contracts/src/v0.8/vendor/CBORChainlink.sol\":2345:2543  function encodeBigNum(BufferChainlink.buffer memory buf, uint value) internal pure {... */\n    tag_162:\n        /* \"@chainlink/contracts/src/v0.8/vendor/CBORChainlink.sol\":2434:2497  buf.appendUint8(uint8((MAJOR_TYPE_TAG << 5) | TAG_TYPE_BIGNUM)) */\n      tag_223\n        /* \"@chainlink/contracts/src/v0.8/vendor/CBORChainlink.sol\":621:622  2 */\n      0x02\n        /* \"@chainlink/contracts/src/v0.8/vendor/CBORChainlink.sol\":2475:2476  5 */\n      0x05\n        /* \"@chainlink/contracts/src/v0.8/vendor/CBORChainlink.sol\":520:521  6 */\n      0x06\n        /* \"@chainlink/contracts/src/v0.8/vendor/CBORChainlink.sol\":2457:2476  MAJOR_TYPE_TAG << 5 */\n      0xff\n      and\n      swap1\n      shl\n        /* \"@chainlink/contracts/src/v0.8/vendor/CBORChainlink.sol\":2456:2495  (MAJOR_TYPE_TAG << 5) | TAG_TYPE_BIGNUM */\n      or\n        /* \"@chainlink/contracts/src/v0.8/vendor/CBORChainlink.sol\":2434:2437  buf */\n      dup4\n        /* \"@chainlink/contracts/src/v0.8/vendor/CBORChainlink.sol\":2434:2449  buf.appendUint8 */\n      tag_195\n      swap1\n        /* \"@chainlink/contracts/src/v0.8/vendor/CBORChainlink.sol\":2434:2497  buf.appendUint8(uint8((MAJOR_TYPE_TAG << 5) | TAG_TYPE_BIGNUM)) */\n      swap2\n      swap1\n      0xffffffff\n      and\n      jump\t// in\n    tag_223:\n      pop\n        /* \"@chainlink/contracts/src/v0.8/vendor/CBORChainlink.sol\":2503:2538  encodeBytes(buf, abi.encode(value)) */\n      tag_224\n        /* \"@chainlink/contracts/src/v0.8/vendor/CBORChainlink.sol\":2515:2518  buf */\n      dup3\n        /* \"@chainlink/contracts/src/v0.8/vendor/CBORChainlink.sol\":2531:2536  value */\n      dup3\n        /* \"@chainlink/contracts/src/v0.8/vendor/CBORChainlink.sol\":2520:2537  abi.encode(value) */\n      add(0x20, mload(0x40))\n      tag_225\n      swap2\n      swap1\n      tag_31\n      jump\t// in\n    tag_225:\n      mload(0x40)\n      0x20\n      dup2\n      dup4\n      sub\n      sub\n      dup2\n      mstore\n      swap1\n      0x40\n      mstore\n        /* \"@chainlink/contracts/src/v0.8/vendor/CBORChainlink.sol\":2503:2514  encodeBytes */\n      tag_221\n        /* \"@chainlink/contracts/src/v0.8/vendor/CBORChainlink.sol\":2503:2538  encodeBytes(buf, abi.encode(value)) */\n      jump\t// in\n    tag_224:\n        /* \"@chainlink/contracts/src/v0.8/vendor/CBORChainlink.sol\":2345:2543  function encodeBigNum(BufferChainlink.buffer memory buf, uint value) internal pure {... */\n      pop\n      pop\n      jump\t// out\n        /* \"@chainlink/contracts/src/v0.8/vendor/BufferChainlink.sol\":6040:6185  function appendUint8(buffer memory buf, uint8 data) internal pure returns (buffer memory) {... */\n    tag_195:\n        /* \"@chainlink/contracts/src/v0.8/vendor/BufferChainlink.sol\":6115:6128  buffer memory */\n      tag_226\n      tag_183\n      jump\t// in\n    tag_226:\n        /* \"@chainlink/contracts/src/v0.8/vendor/BufferChainlink.sol\":6143:6180  writeUint8(buf, buf.buf.length, data) */\n      tag_228\n        /* \"@chainlink/contracts/src/v0.8/vendor/BufferChainlink.sol\":6154:6157  buf */\n      dup4\n        /* \"@chainlink/contracts/src/v0.8/vendor/BufferChainlink.sol\":6159:6162  buf */\n      dup5\n        /* \"@chainlink/contracts/src/v0.8/vendor/BufferChainlink.sol\":6159:6166  buf.buf */\n      0x00\n      add\n      mload\n        /* \"@chainlink/contracts/src/v0.8/vendor/BufferChainlink.sol\":6159:6173  buf.buf.length */\n      mload\n        /* \"@chainlink/contracts/src/v0.8/vendor/BufferChainlink.sol\":6175:6179  data */\n      dup5\n        /* \"@chainlink/contracts/src/v0.8/vendor/BufferChainlink.sol\":6143:6153  writeUint8 */\n      tag_229\n        /* \"@chainlink/contracts/src/v0.8/vendor/BufferChainlink.sol\":6143:6180  writeUint8(buf, buf.buf.length, data) */\n      jump\t// in\n    tag_228:\n        /* \"@chainlink/contracts/src/v0.8/vendor/BufferChainlink.sol\":6136:6180  return writeUint8(buf, buf.buf.length, data) */\n      swap1\n      pop\n        /* \"@chainlink/contracts/src/v0.8/vendor/BufferChainlink.sol\":6040:6185  function appendUint8(buffer memory buf, uint8 data) internal pure returns (buffer memory) {... */\n      swap3\n      swap2\n      pop\n      pop\n      jump\t// out\n        /* \"@chainlink/contracts/src/v0.8/vendor/BufferChainlink.sol\":9894:10071  function appendInt(... */\n    tag_200:\n        /* \"@chainlink/contracts/src/v0.8/vendor/BufferChainlink.sol\":9998:10011  buffer memory */\n      tag_230\n      tag_183\n      jump\t// in\n    tag_230:\n        /* \"@chainlink/contracts/src/v0.8/vendor/BufferChainlink.sol\":10026:10066  writeInt(buf, buf.buf.length, data, len) */\n      tag_232\n        /* \"@chainlink/contracts/src/v0.8/vendor/BufferChainlink.sol\":10035:10038  buf */\n      dup5\n        /* \"@chainlink/contracts/src/v0.8/vendor/BufferChainlink.sol\":10040:10043  buf */\n      dup6\n        /* \"@chainlink/contracts/src/v0.8/vendor/BufferChainlink.sol\":10040:10047  buf.buf */\n      0x00\n      add\n      mload\n        /* \"@chainlink/contracts/src/v0.8/vendor/BufferChainlink.sol\":10040:10054  buf.buf.length */\n      mload\n        /* \"@chainlink/contracts/src/v0.8/vendor/BufferChainlink.sol\":10056:10060  data */\n      dup6\n        /* \"@chainlink/contracts/src/v0.8/vendor/BufferChainlink.sol\":10062:10065  len */\n      dup6\n        /* \"@chainlink/contracts/src/v0.8/vendor/BufferChainlink.sol\":10026:10034  writeInt */\n      tag_233\n        /* \"@chainlink/contracts/src/v0.8/vendor/BufferChainlink.sol\":10026:10066  writeInt(buf, buf.buf.length, data, len) */\n      jump\t// in\n    tag_232:\n        /* \"@chainlink/contracts/src/v0.8/vendor/BufferChainlink.sol\":10019:10066  return writeInt(buf, buf.buf.length, data, len) */\n      swap1\n      pop\n        /* \"@chainlink/contracts/src/v0.8/vendor/BufferChainlink.sol\":9894:10071  function appendInt(... */\n      swap4\n      swap3\n      pop\n      pop\n      pop\n      jump\t// out\n        /* \"@chainlink/contracts/src/v0.8/vendor/BufferChainlink.sol\":2745:3955  function write(... */\n    tag_215:\n        /* \"@chainlink/contracts/src/v0.8/vendor/BufferChainlink.sol\":2867:2880  buffer memory */\n      tag_234\n      tag_183\n      jump\t// in\n    tag_234:\n        /* \"@chainlink/contracts/src/v0.8/vendor/BufferChainlink.sol\":2903:2907  data */\n      dup3\n        /* \"@chainlink/contracts/src/v0.8/vendor/BufferChainlink.sol\":2903:2914  data.length */\n      mload\n        /* \"@chainlink/contracts/src/v0.8/vendor/BufferChainlink.sol\":2896:2899  len */\n      dup3\n        /* \"@chainlink/contracts/src/v0.8/vendor/BufferChainlink.sol\":2896:2914  len <= data.length */\n      gt\n      iszero\n        /* \"@chainlink/contracts/src/v0.8/vendor/BufferChainlink.sol\":2888:2915  require(len <= data.length) */\n      tag_236\n      jumpi\n      0x00\n      dup1\n      revert\n    tag_236:\n        /* \"@chainlink/contracts/src/v0.8/vendor/BufferChainlink.sol\":2938:2941  buf */\n      dup5\n        /* \"@chainlink/contracts/src/v0.8/vendor/BufferChainlink.sol\":2938:2950  buf.capacity */\n      0x20\n      add\n      mload\n        /* \"@chainlink/contracts/src/v0.8/vendor/BufferChainlink.sol\":2932:2935  len */\n      dup3\n        /* \"@chainlink/contracts/src/v0.8/vendor/BufferChainlink.sol\":2926:2929  off */\n      dup6\n        /* \"@chainlink/contracts/src/v0.8/vendor/BufferChainlink.sol\":2926:2935  off + len */\n      tag_237\n      swap2\n      swap1\n      tag_131\n      jump\t// in\n    tag_237:\n        /* \"@chainlink/contracts/src/v0.8/vendor/BufferChainlink.sol\":2926:2950  off + len > buf.capacity */\n      gt\n        /* \"@chainlink/contracts/src/v0.8/vendor/BufferChainlink.sol\":2922:3012  if (off + len > buf.capacity) {... */\n      iszero\n      tag_238\n      jumpi\n        /* \"@chainlink/contracts/src/v0.8/vendor/BufferChainlink.sol\":2960:3005  resize(buf, max(buf.capacity, len + off) * 2) */\n      tag_239\n        /* \"@chainlink/contracts/src/v0.8/vendor/BufferChainlink.sol\":2967:2970  buf */\n      dup6\n        /* \"@chainlink/contracts/src/v0.8/vendor/BufferChainlink.sol\":3003:3004  2 */\n      0x02\n        /* \"@chainlink/contracts/src/v0.8/vendor/BufferChainlink.sol\":2972:3000  max(buf.capacity, len + off) */\n      tag_240\n        /* \"@chainlink/contracts/src/v0.8/vendor/BufferChainlink.sol\":2976:2979  buf */\n      dup9\n        /* \"@chainlink/contracts/src/v0.8/vendor/BufferChainlink.sol\":2976:2988  buf.capacity */\n      0x20\n      add\n      mload\n        /* \"@chainlink/contracts/src/v0.8/vendor/BufferChainlink.sol\":2996:2999  off */\n      dup9\n        /* \"@chainlink/contracts/src/v0.8/vendor/BufferChainlink.sol\":2990:2993  len */\n      dup8\n        /* \"@chainlink/contracts/src/v0.8/vendor/BufferChainlink.sol\":2990:2999  len + off */\n      tag_241\n      swap2\n      swap1\n      tag_131\n      jump\t// in\n    tag_241:\n        /* \"@chainlink/contracts/src/v0.8/vendor/BufferChainlink.sol\":2972:2975  max */\n      tag_242\n        /* \"@chainlink/contracts/src/v0.8/vendor/BufferChainlink.sol\":2972:3000  max(buf.capacity, len + off) */\n      jump\t// in\n    tag_240:\n        /* \"@chainlink/contracts/src/v0.8/vendor/BufferChainlink.sol\":2972:3004  max(buf.capacity, len + off) * 2 */\n      tag_243\n      swap2\n      swap1\n      tag_94\n      jump\t// in\n    tag_243:\n        /* \"@chainlink/contracts/src/v0.8/vendor/BufferChainlink.sol\":2960:2966  resize */\n      tag_244\n        /* \"@chainlink/contracts/src/v0.8/vendor/BufferChainlink.sol\":2960:3005  resize(buf, max(buf.capacity, len + off) * 2) */\n      jump\t// in\n    tag_239:\n        /* \"@chainlink/contracts/src/v0.8/vendor/BufferChainlink.sol\":2922:3012  if (off + len > buf.capacity) {... */\n    tag_238:\n        /* \"@chainlink/contracts/src/v0.8/vendor/BufferChainlink.sol\":3018:3030  uint256 dest */\n      0x00\n        /* \"@chainlink/contracts/src/v0.8/vendor/BufferChainlink.sol\":3036:3047  uint256 src */\n      dup1\n        /* \"@chainlink/contracts/src/v0.8/vendor/BufferChainlink.sol\":3133:3136  buf */\n      dup7\n        /* \"@chainlink/contracts/src/v0.8/vendor/BufferChainlink.sol\":3127:3137  mload(buf) */\n      mload\n        /* \"@chainlink/contracts/src/v0.8/vendor/BufferChainlink.sol\":3204:3210  bufptr */\n      dup1\n        /* \"@chainlink/contracts/src/v0.8/vendor/BufferChainlink.sol\":3198:3211  mload(bufptr) */\n      mload\n        /* \"@chainlink/contracts/src/v0.8/vendor/BufferChainlink.sol\":3320:3323  off */\n      dup8\n        /* \"@chainlink/contracts/src/v0.8/vendor/BufferChainlink.sol\":3315:3317  32 */\n      0x20\n        /* \"@chainlink/contracts/src/v0.8/vendor/BufferChainlink.sol\":3307:3313  bufptr */\n      dup4\n        /* \"@chainlink/contracts/src/v0.8/vendor/BufferChainlink.sol\":3303:3318  add(bufptr, 32) */\n      add\n        /* \"@chainlink/contracts/src/v0.8/vendor/BufferChainlink.sol\":3299:3324  add(add(bufptr, 32), off) */\n      add\n        /* \"@chainlink/contracts/src/v0.8/vendor/BufferChainlink.sol\":3291:3324  dest := add(add(bufptr, 32), off) */\n      swap4\n      pop\n        /* \"@chainlink/contracts/src/v0.8/vendor/BufferChainlink.sol\":3404:3410  buflen */\n      dup1\n        /* \"@chainlink/contracts/src/v0.8/vendor/BufferChainlink.sol\":3398:3401  off */\n      dup9\n        /* \"@chainlink/contracts/src/v0.8/vendor/BufferChainlink.sol\":3393:3396  len */\n      dup8\n        /* \"@chainlink/contracts/src/v0.8/vendor/BufferChainlink.sol\":3389:3402  add(len, off) */\n      add\n        /* \"@chainlink/contracts/src/v0.8/vendor/BufferChainlink.sol\":3386:3411  gt(add(len, off), buflen) */\n      gt\n        /* \"@chainlink/contracts/src/v0.8/vendor/BufferChainlink.sol\":3383:3459  if gt(add(len, off), buflen) {... */\n      iszero\n      tag_245\n      jumpi\n        /* \"@chainlink/contracts/src/v0.8/vendor/BufferChainlink.sol\":3446:3449  off */\n      dup8\n        /* \"@chainlink/contracts/src/v0.8/vendor/BufferChainlink.sol\":3441:3444  len */\n      dup7\n        /* \"@chainlink/contracts/src/v0.8/vendor/BufferChainlink.sol\":3437:3450  add(len, off) */\n      add\n        /* \"@chainlink/contracts/src/v0.8/vendor/BufferChainlink.sol\":3429:3435  bufptr */\n      dup3\n        /* \"@chainlink/contracts/src/v0.8/vendor/BufferChainlink.sol\":3422:3451  mstore(bufptr, add(len, off)) */\n      mstore\n        /* \"@chainlink/contracts/src/v0.8/vendor/BufferChainlink.sol\":3383:3459  if gt(add(len, off), buflen) {... */\n    tag_245:\n        /* \"@chainlink/contracts/src/v0.8/vendor/BufferChainlink.sol\":3483:3485  32 */\n      0x20\n        /* \"@chainlink/contracts/src/v0.8/vendor/BufferChainlink.sol\":3477:3481  data */\n      dup8\n        /* \"@chainlink/contracts/src/v0.8/vendor/BufferChainlink.sol\":3473:3486  add(data, 32) */\n      add\n        /* \"@chainlink/contracts/src/v0.8/vendor/BufferChainlink.sol\":3466:3486  src := add(data, 32) */\n      swap3\n      pop\n        /* \"@chainlink/contracts/src/v0.8/vendor/BufferChainlink.sol\":3062:3492  {... */\n      pop\n      pop\n        /* \"@chainlink/contracts/src/v0.8/vendor/BufferChainlink.sol\":3544:3673  for (; len >= 32; len -= 32) {... */\n    tag_246:\n        /* \"@chainlink/contracts/src/v0.8/vendor/BufferChainlink.sol\":3558:3560  32 */\n      0x20\n        /* \"@chainlink/contracts/src/v0.8/vendor/BufferChainlink.sol\":3551:3554  len */\n      dup5\n        /* \"@chainlink/contracts/src/v0.8/vendor/BufferChainlink.sol\":3551:3560  len >= 32 */\n      lt\n        /* \"@chainlink/contracts/src/v0.8/vendor/BufferChainlink.sol\":3544:3673  for (; len >= 32; len -= 32) {... */\n      tag_247\n      jumpi\n        /* \"@chainlink/contracts/src/v0.8/vendor/BufferChainlink.sol\":3619:3622  src */\n      dup1\n        /* \"@chainlink/contracts/src/v0.8/vendor/BufferChainlink.sol\":3613:3623  mload(src) */\n      mload\n        /* \"@chainlink/contracts/src/v0.8/vendor/BufferChainlink.sol\":3607:3611  dest */\n      dup3\n        /* \"@chainlink/contracts/src/v0.8/vendor/BufferChainlink.sol\":3600:3624  mstore(dest, mload(src)) */\n      mstore\n        /* \"@chainlink/contracts/src/v0.8/vendor/BufferChainlink.sol\":3647:3649  32 */\n      0x20\n        /* \"@chainlink/contracts/src/v0.8/vendor/BufferChainlink.sol\":3639:3649  dest += 32 */\n      dup3\n      tag_249\n      swap2\n      swap1\n      tag_131\n      jump\t// in\n    tag_249:\n      swap2\n      pop\n        /* \"@chainlink/contracts/src/v0.8/vendor/BufferChainlink.sol\":3664:3666  32 */\n      0x20\n        /* \"@chainlink/contracts/src/v0.8/vendor/BufferChainlink.sol\":3657:3666  src += 32 */\n      dup2\n      tag_250\n      swap2\n      swap1\n      tag_131\n      jump\t// in\n    tag_250:\n      swap1\n      pop\n        /* \"@chainlink/contracts/src/v0.8/vendor/BufferChainlink.sol\":3569:3571  32 */\n      0x20\n        /* \"@chainlink/contracts/src/v0.8/vendor/BufferChainlink.sol\":3562:3571  len -= 32 */\n      dup5\n      tag_251\n      swap2\n      swap1\n      tag_190\n      jump\t// in\n    tag_251:\n      swap4\n      pop\n        /* \"@chainlink/contracts/src/v0.8/vendor/BufferChainlink.sol\":3544:3673  for (; len >= 32; len -= 32) {... */\n      jump(tag_246)\n    tag_247:\n        /* \"@chainlink/contracts/src/v0.8/vendor/BufferChainlink.sol\":3725:3737  uint256 mask */\n      0x00\n        /* \"@chainlink/contracts/src/v0.8/vendor/BufferChainlink.sol\":3760:3761  1 */\n      0x01\n        /* \"@chainlink/contracts/src/v0.8/vendor/BufferChainlink.sol\":3752:3755  len */\n      dup6\n        /* \"@chainlink/contracts/src/v0.8/vendor/BufferChainlink.sol\":3747:3749  32 */\n      0x20\n        /* \"@chainlink/contracts/src/v0.8/vendor/BufferChainlink.sol\":3747:3755  32 - len */\n      sub\n        /* \"@chainlink/contracts/src/v0.8/vendor/BufferChainlink.sol\":3741:3744  256 */\n      0x0100\n        /* \"@chainlink/contracts/src/v0.8/vendor/BufferChainlink.sol\":3741:3756  256**(32 - len) */\n      exp\n        /* \"@chainlink/contracts/src/v0.8/vendor/BufferChainlink.sol\":3740:3761  (256**(32 - len)) - 1 */\n      sub\n        /* \"@chainlink/contracts/src/v0.8/vendor/BufferChainlink.sol\":3725:3761  uint256 mask = (256**(32 - len)) - 1 */\n      swap1\n      pop\n        /* \"@chainlink/contracts/src/v0.8/vendor/BufferChainlink.sol\":3823:3827  mask */\n      dup1\n        /* \"@chainlink/contracts/src/v0.8/vendor/BufferChainlink.sol\":3819:3828  not(mask) */\n      not\n        /* \"@chainlink/contracts/src/v0.8/vendor/BufferChainlink.sol\":3813:3816  src */\n      dup3\n        /* \"@chainlink/contracts/src/v0.8/vendor/BufferChainlink.sol\":3807:3817  mload(src) */\n      mload\n        /* \"@chainlink/contracts/src/v0.8/vendor/BufferChainlink.sol\":3803:3829  and(mload(src), not(mask)) */\n      and\n        /* \"@chainlink/contracts/src/v0.8/vendor/BufferChainlink.sol\":3871:3875  mask */\n      dup2\n        /* \"@chainlink/contracts/src/v0.8/vendor/BufferChainlink.sol\":3864:3868  dest */\n      dup5\n        /* \"@chainlink/contracts/src/v0.8/vendor/BufferChainlink.sol\":3858:3869  mload(dest) */\n      mload\n        /* \"@chainlink/contracts/src/v0.8/vendor/BufferChainlink.sol\":3854:3876  and(mload(dest), mask) */\n      and\n        /* \"@chainlink/contracts/src/v0.8/vendor/BufferChainlink.sol\":3911:3918  srcpart */\n      dup2\n        /* \"@chainlink/contracts/src/v0.8/vendor/BufferChainlink.sol\":3901:3909  destpart */\n      dup2\n        /* \"@chainlink/contracts/src/v0.8/vendor/BufferChainlink.sol\":3898:3919  or(destpart, srcpart) */\n      or\n        /* \"@chainlink/contracts/src/v0.8/vendor/BufferChainlink.sol\":3892:3896  dest */\n      dup6\n        /* \"@chainlink/contracts/src/v0.8/vendor/BufferChainlink.sol\":3885:3920  mstore(dest, or(destpart, srcpart)) */\n      mstore\n        /* \"@chainlink/contracts/src/v0.8/vendor/BufferChainlink.sol\":3778:3928  {... */\n      pop\n      pop\n      pop\n        /* \"@chainlink/contracts/src/v0.8/vendor/BufferChainlink.sol\":3947:3950  buf */\n      dup7\n        /* \"@chainlink/contracts/src/v0.8/vendor/BufferChainlink.sol\":3940:3950  return buf */\n      swap3\n      pop\n      pop\n      pop\n        /* \"@chainlink/contracts/src/v0.8/vendor/BufferChainlink.sol\":2745:3955  function write(... */\n      swap5\n      swap4\n      pop\n      pop\n      pop\n      pop\n      jump\t// out\n        /* \"@chainlink/contracts/src/v0.8/vendor/CBORChainlink.sol\":2154:2341  function encodeBytes(BufferChainlink.buffer memory buf, bytes memory value) internal pure {... */\n    tag_221:\n        /* \"@chainlink/contracts/src/v0.8/vendor/CBORChainlink.sol\":2250:2313  encodeFixedNumeric(buf, MAJOR_TYPE_BYTES, uint64(value.length)) */\n      tag_253\n        /* \"@chainlink/contracts/src/v0.8/vendor/CBORChainlink.sol\":2269:2272  buf */\n      dup3\n        /* \"@chainlink/contracts/src/v0.8/vendor/CBORChainlink.sol\":335:336  2 */\n      0x02\n        /* \"@chainlink/contracts/src/v0.8/vendor/CBORChainlink.sol\":2299:2304  value */\n      dup4\n        /* \"@chainlink/contracts/src/v0.8/vendor/CBORChainlink.sol\":2299:2311  value.length */\n      mload\n        /* \"@chainlink/contracts/src/v0.8/vendor/CBORChainlink.sol\":2250:2268  encodeFixedNumeric */\n      tag_152\n        /* \"@chainlink/contracts/src/v0.8/vendor/CBORChainlink.sol\":2250:2313  encodeFixedNumeric(buf, MAJOR_TYPE_BYTES, uint64(value.length)) */\n      jump\t// in\n    tag_253:\n        /* \"@chainlink/contracts/src/v0.8/vendor/CBORChainlink.sol\":2319:2336  buf.append(value) */\n      tag_254\n        /* \"@chainlink/contracts/src/v0.8/vendor/CBORChainlink.sol\":2330:2335  value */\n      dup2\n        /* \"@chainlink/contracts/src/v0.8/vendor/CBORChainlink.sol\":2319:2322  buf */\n      dup4\n        /* \"@chainlink/contracts/src/v0.8/vendor/CBORChainlink.sol\":2319:2329  buf.append */\n      tag_154\n      swap1\n        /* \"@chainlink/contracts/src/v0.8/vendor/CBORChainlink.sol\":2319:2336  buf.append(value) */\n      swap2\n      swap1\n      0xffffffff\n      and\n      jump\t// in\n    tag_254:\n      pop\n        /* \"@chainlink/contracts/src/v0.8/vendor/CBORChainlink.sol\":2154:2341  function encodeBytes(BufferChainlink.buffer memory buf, bytes memory value) internal pure {... */\n      pop\n      pop\n      jump\t// out\n        /* \"@chainlink/contracts/src/v0.8/vendor/BufferChainlink.sol\":5148:5787  function writeUint8(... */\n    tag_229:\n        /* \"@chainlink/contracts/src/v0.8/vendor/BufferChainlink.sol\":5251:5264  buffer memory */\n      tag_255\n      tag_183\n      jump\t// in\n    tag_255:\n        /* \"@chainlink/contracts/src/v0.8/vendor/BufferChainlink.sol\":5283:5286  buf */\n      dup4\n        /* \"@chainlink/contracts/src/v0.8/vendor/BufferChainlink.sol\":5283:5295  buf.capacity */\n      0x20\n      add\n      mload\n        /* \"@chainlink/contracts/src/v0.8/vendor/BufferChainlink.sol\":5276:5279  off */\n      dup4\n        /* \"@chainlink/contracts/src/v0.8/vendor/BufferChainlink.sol\":5276:5295  off >= buf.capacity */\n      lt\n        /* \"@chainlink/contracts/src/v0.8/vendor/BufferChainlink.sol\":5272:5341  if (off >= buf.capacity) {... */\n      tag_257\n      jumpi\n        /* \"@chainlink/contracts/src/v0.8/vendor/BufferChainlink.sol\":5305:5334  resize(buf, buf.capacity * 2) */\n      tag_258\n        /* \"@chainlink/contracts/src/v0.8/vendor/BufferChainlink.sol\":5312:5315  buf */\n      dup5\n        /* \"@chainlink/contracts/src/v0.8/vendor/BufferChainlink.sol\":5332:5333  2 */\n      0x02\n        /* \"@chainlink/contracts/src/v0.8/vendor/BufferChainlink.sol\":5317:5320  buf */\n      dup7\n        /* \"@chainlink/contracts/src/v0.8/vendor/BufferChainlink.sol\":5317:5329  buf.capacity */\n      0x20\n      add\n      mload\n        /* \"@chainlink/contracts/src/v0.8/vendor/BufferChainlink.sol\":5317:5333  buf.capacity * 2 */\n      tag_259\n      swap2\n      swap1\n      tag_94\n      jump\t// in\n    tag_259:\n        /* \"@chainlink/contracts/src/v0.8/vendor/BufferChainlink.sol\":5305:5311  resize */\n      tag_244\n        /* \"@chainlink/contracts/src/v0.8/vendor/BufferChainlink.sol\":5305:5334  resize(buf, buf.capacity * 2) */\n      jump\t// in\n    tag_258:\n        /* \"@chainlink/contracts/src/v0.8/vendor/BufferChainlink.sol\":5272:5341  if (off >= buf.capacity) {... */\n    tag_257:\n        /* \"@chainlink/contracts/src/v0.8/vendor/BufferChainlink.sol\":5427:5430  buf */\n      dup4\n        /* \"@chainlink/contracts/src/v0.8/vendor/BufferChainlink.sol\":5421:5431  mload(buf) */\n      mload\n        /* \"@chainlink/contracts/src/v0.8/vendor/BufferChainlink.sol\":5498:5504  bufptr */\n      dup1\n        /* \"@chainlink/contracts/src/v0.8/vendor/BufferChainlink.sol\":5492:5505  mload(bufptr) */\n      mload\n        /* \"@chainlink/contracts/src/v0.8/vendor/BufferChainlink.sol\":5610:5612  32 */\n      0x20\n        /* \"@chainlink/contracts/src/v0.8/vendor/BufferChainlink.sol\":5604:5607  off */\n      dup6\n        /* \"@chainlink/contracts/src/v0.8/vendor/BufferChainlink.sol\":5596:5602  bufptr */\n      dup4\n        /* \"@chainlink/contracts/src/v0.8/vendor/BufferChainlink.sol\":5592:5608  add(bufptr, off) */\n      add\n        /* \"@chainlink/contracts/src/v0.8/vendor/BufferChainlink.sol\":5588:5613  add(add(bufptr, off), 32) */\n      add\n        /* \"@chainlink/contracts/src/v0.8/vendor/BufferChainlink.sol\":5634:5638  data */\n      dup5\n        /* \"@chainlink/contracts/src/v0.8/vendor/BufferChainlink.sol\":5628:5632  dest */\n      dup2\n        /* \"@chainlink/contracts/src/v0.8/vendor/BufferChainlink.sol\":5620:5639  mstore8(dest, data) */\n      mstore8\n        /* \"@chainlink/contracts/src/v0.8/vendor/BufferChainlink.sol\":5705:5711  buflen */\n      dup2\n        /* \"@chainlink/contracts/src/v0.8/vendor/BufferChainlink.sol\":5700:5703  off */\n      dup7\n        /* \"@chainlink/contracts/src/v0.8/vendor/BufferChainlink.sol\":5697:5712  eq(off, buflen) */\n      eq\n        /* \"@chainlink/contracts/src/v0.8/vendor/BufferChainlink.sol\":5694:5761  if eq(off, buflen) {... */\n      iszero\n      tag_260\n      jumpi\n        /* \"@chainlink/contracts/src/v0.8/vendor/BufferChainlink.sol\":5750:5751  1 */\n      0x01\n        /* \"@chainlink/contracts/src/v0.8/vendor/BufferChainlink.sol\":5742:5748  buflen */\n      dup3\n        /* \"@chainlink/contracts/src/v0.8/vendor/BufferChainlink.sol\":5738:5752  add(buflen, 1) */\n      add\n        /* \"@chainlink/contracts/src/v0.8/vendor/BufferChainlink.sol\":5730:5736  bufptr */\n      dup4\n        /* \"@chainlink/contracts/src/v0.8/vendor/BufferChainlink.sol\":5723:5753  mstore(bufptr, add(buflen, 1)) */\n      mstore\n        /* \"@chainlink/contracts/src/v0.8/vendor/BufferChainlink.sol\":5694:5761  if eq(off, buflen) {... */\n    tag_260:\n        /* \"@chainlink/contracts/src/v0.8/vendor/BufferChainlink.sol\":5356:5767  {... */\n      pop\n      pop\n      pop\n        /* \"@chainlink/contracts/src/v0.8/vendor/BufferChainlink.sol\":5779:5782  buf */\n      dup4\n        /* \"@chainlink/contracts/src/v0.8/vendor/BufferChainlink.sol\":5772:5782  return buf */\n      swap1\n      pop\n        /* \"@chainlink/contracts/src/v0.8/vendor/BufferChainlink.sol\":5148:5787  function writeUint8(... */\n      swap4\n      swap3\n      pop\n      pop\n      pop\n      jump\t// out\n        /* \"@chainlink/contracts/src/v0.8/vendor/BufferChainlink.sol\":8974:9649  function writeInt(... */\n    tag_233:\n        /* \"@chainlink/contracts/src/v0.8/vendor/BufferChainlink.sol\":9093:9106  buffer memory */\n      tag_261\n      tag_183\n      jump\t// in\n    tag_261:\n        /* \"@chainlink/contracts/src/v0.8/vendor/BufferChainlink.sol\":9130:9133  buf */\n      dup5\n        /* \"@chainlink/contracts/src/v0.8/vendor/BufferChainlink.sol\":9130:9142  buf.capacity */\n      0x20\n      add\n      mload\n        /* \"@chainlink/contracts/src/v0.8/vendor/BufferChainlink.sol\":9124:9127  off */\n      dup5\n        /* \"@chainlink/contracts/src/v0.8/vendor/BufferChainlink.sol\":9118:9121  len */\n      dup4\n        /* \"@chainlink/contracts/src/v0.8/vendor/BufferChainlink.sol\":9118:9127  len + off */\n      tag_263\n      swap2\n      swap1\n      tag_131\n      jump\t// in\n    tag_263:\n        /* \"@chainlink/contracts/src/v0.8/vendor/BufferChainlink.sol\":9118:9142  len + off > buf.capacity */\n      gt\n        /* \"@chainlink/contracts/src/v0.8/vendor/BufferChainlink.sol\":9114:9187  if (len + off > buf.capacity) {... */\n      iszero\n      tag_264\n      jumpi\n        /* \"@chainlink/contracts/src/v0.8/vendor/BufferChainlink.sol\":9152:9180  resize(buf, (len + off) * 2) */\n      tag_265\n        /* \"@chainlink/contracts/src/v0.8/vendor/BufferChainlink.sol\":9159:9162  buf */\n      dup6\n        /* \"@chainlink/contracts/src/v0.8/vendor/BufferChainlink.sol\":9178:9179  2 */\n      0x02\n        /* \"@chainlink/contracts/src/v0.8/vendor/BufferChainlink.sol\":9171:9174  off */\n      dup7\n        /* \"@chainlink/contracts/src/v0.8/vendor/BufferChainlink.sol\":9165:9168  len */\n      dup6\n        /* \"@chainlink/contracts/src/v0.8/vendor/BufferChainlink.sol\":9165:9174  len + off */\n      tag_266\n      swap2\n      swap1\n      tag_131\n      jump\t// in\n    tag_266:\n        /* \"@chainlink/contracts/src/v0.8/vendor/BufferChainlink.sol\":9164:9179  (len + off) * 2 */\n      tag_267\n      swap2\n      swap1\n      tag_94\n      jump\t// in\n    tag_267:\n        /* \"@chainlink/contracts/src/v0.8/vendor/BufferChainlink.sol\":9152:9158  resize */\n      tag_244\n        /* \"@chainlink/contracts/src/v0.8/vendor/BufferChainlink.sol\":9152:9180  resize(buf, (len + off) * 2) */\n      jump\t// in\n    tag_265:\n        /* \"@chainlink/contracts/src/v0.8/vendor/BufferChainlink.sol\":9114:9187  if (len + off > buf.capacity) {... */\n    tag_264:\n        /* \"@chainlink/contracts/src/v0.8/vendor/BufferChainlink.sol\":9193:9205  uint256 mask */\n      0x00\n        /* \"@chainlink/contracts/src/v0.8/vendor/BufferChainlink.sol\":9221:9222  1 */\n      0x01\n        /* \"@chainlink/contracts/src/v0.8/vendor/BufferChainlink.sol\":9214:9217  len */\n      dup4\n        /* \"@chainlink/contracts/src/v0.8/vendor/BufferChainlink.sol\":9209:9212  256 */\n      0x0100\n        /* \"@chainlink/contracts/src/v0.8/vendor/BufferChainlink.sol\":9209:9217  256**len */\n      tag_268\n      swap2\n      swap1\n      tag_269\n      jump\t// in\n    tag_268:\n        /* \"@chainlink/contracts/src/v0.8/vendor/BufferChainlink.sol\":9208:9222  (256**len) - 1 */\n      tag_270\n      swap2\n      swap1\n      tag_190\n      jump\t// in\n    tag_270:\n        /* \"@chainlink/contracts/src/v0.8/vendor/BufferChainlink.sol\":9193:9222  uint256 mask = (256**len) - 1 */\n      swap1\n      pop\n        /* \"@chainlink/contracts/src/v0.8/vendor/BufferChainlink.sol\":9308:9311  buf */\n      dup6\n        /* \"@chainlink/contracts/src/v0.8/vendor/BufferChainlink.sol\":9302:9312  mload(buf) */\n      mload\n        /* \"@chainlink/contracts/src/v0.8/vendor/BufferChainlink.sol\":9423:9426  len */\n      dup4\n        /* \"@chainlink/contracts/src/v0.8/vendor/BufferChainlink.sol\":9417:9420  off */\n      dup7\n        /* \"@chainlink/contracts/src/v0.8/vendor/BufferChainlink.sol\":9409:9415  bufptr */\n      dup3\n        /* \"@chainlink/contracts/src/v0.8/vendor/BufferChainlink.sol\":9405:9421  add(bufptr, off) */\n      add\n        /* \"@chainlink/contracts/src/v0.8/vendor/BufferChainlink.sol\":9401:9427  add(add(bufptr, off), len) */\n      add\n        /* \"@chainlink/contracts/src/v0.8/vendor/BufferChainlink.sol\":9479:9483  data */\n      dup6\n        /* \"@chainlink/contracts/src/v0.8/vendor/BufferChainlink.sol\":9471:9475  mask */\n      dup4\n        /* \"@chainlink/contracts/src/v0.8/vendor/BufferChainlink.sol\":9467:9476  not(mask) */\n      not\n        /* \"@chainlink/contracts/src/v0.8/vendor/BufferChainlink.sol\":9460:9464  dest */\n      dup3\n        /* \"@chainlink/contracts/src/v0.8/vendor/BufferChainlink.sol\":9454:9465  mload(dest) */\n      mload\n        /* \"@chainlink/contracts/src/v0.8/vendor/BufferChainlink.sol\":9450:9477  and(mload(dest), not(mask)) */\n      and\n        /* \"@chainlink/contracts/src/v0.8/vendor/BufferChainlink.sol\":9447:9484  or(and(mload(dest), not(mask)), data) */\n      or\n        /* \"@chainlink/contracts/src/v0.8/vendor/BufferChainlink.sol\":9441:9445  dest */\n      dup2\n        /* \"@chainlink/contracts/src/v0.8/vendor/BufferChainlink.sol\":9434:9485  mstore(dest, or(and(mload(dest), not(mask)), data)) */\n      mstore\n        /* \"@chainlink/contracts/src/v0.8/vendor/BufferChainlink.sol\":9567:9573  bufptr */\n      dup2\n        /* \"@chainlink/contracts/src/v0.8/vendor/BufferChainlink.sol\":9561:9574  mload(bufptr) */\n      mload\n        /* \"@chainlink/contracts/src/v0.8/vendor/BufferChainlink.sol\":9555:9558  len */\n      dup6\n        /* \"@chainlink/contracts/src/v0.8/vendor/BufferChainlink.sol\":9550:9553  off */\n      dup9\n        /* \"@chainlink/contracts/src/v0.8/vendor/BufferChainlink.sol\":9546:9559  add(off, len) */\n      add\n        /* \"@chainlink/contracts/src/v0.8/vendor/BufferChainlink.sol\":9543:9575  gt(add(off, len), mload(bufptr)) */\n      gt\n        /* \"@chainlink/contracts/src/v0.8/vendor/BufferChainlink.sol\":9540:9623  if gt(add(off, len), mload(bufptr)) {... */\n      iszero\n      tag_271\n      jumpi\n        /* \"@chainlink/contracts/src/v0.8/vendor/BufferChainlink.sol\":9610:9613  len */\n      dup5\n        /* \"@chainlink/contracts/src/v0.8/vendor/BufferChainlink.sol\":9605:9608  off */\n      dup8\n        /* \"@chainlink/contracts/src/v0.8/vendor/BufferChainlink.sol\":9601:9614  add(off, len) */\n      add\n        /* \"@chainlink/contracts/src/v0.8/vendor/BufferChainlink.sol\":9593:9599  bufptr */\n      dup3\n        /* \"@chainlink/contracts/src/v0.8/vendor/BufferChainlink.sol\":9586:9615  mstore(bufptr, add(off, len)) */\n      mstore\n        /* \"@chainlink/contracts/src/v0.8/vendor/BufferChainlink.sol\":9540:9623  if gt(add(off, len), mload(bufptr)) {... */\n    tag_271:\n        /* \"@chainlink/contracts/src/v0.8/vendor/BufferChainlink.sol\":9237:9629  {... */\n      pop\n      pop\n        /* \"@chainlink/contracts/src/v0.8/vendor/BufferChainlink.sol\":9641:9644  buf */\n      dup6\n        /* \"@chainlink/contracts/src/v0.8/vendor/BufferChainlink.sol\":9634:9644  return buf */\n      swap2\n      pop\n      pop\n        /* \"@chainlink/contracts/src/v0.8/vendor/BufferChainlink.sol\":8974:9649  function writeInt(... */\n      swap5\n      swap4\n      pop\n      pop\n      pop\n      pop\n      jump\t// out\n        /* \"@chainlink/contracts/src/v0.8/vendor/BufferChainlink.sol\":1961:2085  function max(uint256 a, uint256 b) private pure returns (uint256) {... */\n    tag_242:\n        /* \"@chainlink/contracts/src/v0.8/vendor/BufferChainlink.sol\":2018:2025  uint256 */\n      0x00\n        /* \"@chainlink/contracts/src/v0.8/vendor/BufferChainlink.sol\":2041:2042  b */\n      dup2\n        /* \"@chainlink/contracts/src/v0.8/vendor/BufferChainlink.sol\":2037:2038  a */\n      dup4\n        /* \"@chainlink/contracts/src/v0.8/vendor/BufferChainlink.sol\":2037:2042  a > b */\n      gt\n        /* \"@chainlink/contracts/src/v0.8/vendor/BufferChainlink.sol\":2033:2067  if (a > b) {... */\n      iszero\n      tag_273\n      jumpi\n        /* \"@chainlink/contracts/src/v0.8/vendor/BufferChainlink.sol\":2059:2060  a */\n      dup3\n        /* \"@chainlink/contracts/src/v0.8/vendor/BufferChainlink.sol\":2052:2060  return a */\n      swap1\n      pop\n      jump(tag_272)\n        /* \"@chainlink/contracts/src/v0.8/vendor/BufferChainlink.sol\":2033:2067  if (a > b) {... */\n    tag_273:\n        /* \"@chainlink/contracts/src/v0.8/vendor/BufferChainlink.sol\":2079:2080  b */\n      dup2\n        /* \"@chainlink/contracts/src/v0.8/vendor/BufferChainlink.sol\":2072:2080  return b */\n      swap1\n      pop\n        /* \"@chainlink/contracts/src/v0.8/vendor/BufferChainlink.sol\":1961:2085  function max(uint256 a, uint256 b) private pure returns (uint256) {... */\n    tag_272:\n      swap3\n      swap2\n      pop\n      pop\n      jump\t// out\n        /* \"@chainlink/contracts/src/v0.8/vendor/BufferChainlink.sol\":1801:1957  function resize(buffer memory buf, uint256 capacity) private pure {... */\n    tag_244:\n        /* \"@chainlink/contracts/src/v0.8/vendor/BufferChainlink.sol\":1873:1892  bytes memory oldbuf */\n      0x00\n        /* \"@chainlink/contracts/src/v0.8/vendor/BufferChainlink.sol\":1895:1898  buf */\n      dup3\n        /* \"@chainlink/contracts/src/v0.8/vendor/BufferChainlink.sol\":1895:1902  buf.buf */\n      0x00\n      add\n      mload\n        /* \"@chainlink/contracts/src/v0.8/vendor/BufferChainlink.sol\":1873:1902  bytes memory oldbuf = buf.buf */\n      swap1\n      pop\n        /* \"@chainlink/contracts/src/v0.8/vendor/BufferChainlink.sol\":1908:1927  init(buf, capacity) */\n      tag_275\n        /* \"@chainlink/contracts/src/v0.8/vendor/BufferChainlink.sol\":1913:1916  buf */\n      dup4\n        /* \"@chainlink/contracts/src/v0.8/vendor/BufferChainlink.sol\":1918:1926  capacity */\n      dup4\n        /* \"@chainlink/contracts/src/v0.8/vendor/BufferChainlink.sol\":1908:1912  init */\n      tag_149\n        /* \"@chainlink/contracts/src/v0.8/vendor/BufferChainlink.sol\":1908:1927  init(buf, capacity) */\n      jump\t// in\n    tag_275:\n      pop\n        /* \"@chainlink/contracts/src/v0.8/vendor/BufferChainlink.sol\":1933:1952  append(buf, oldbuf) */\n      tag_276\n        /* \"@chainlink/contracts/src/v0.8/vendor/BufferChainlink.sol\":1940:1943  buf */\n      dup4\n        /* \"@chainlink/contracts/src/v0.8/vendor/BufferChainlink.sol\":1945:1951  oldbuf */\n      dup3\n        /* \"@chainlink/contracts/src/v0.8/vendor/BufferChainlink.sol\":1933:1939  append */\n      tag_154\n        /* \"@chainlink/contracts/src/v0.8/vendor/BufferChainlink.sol\":1933:1952  append(buf, oldbuf) */\n      jump\t// in\n    tag_276:\n      pop\n        /* \"@chainlink/contracts/src/v0.8/vendor/BufferChainlink.sol\":1867:1957  {... */\n      pop\n        /* \"@chainlink/contracts/src/v0.8/vendor/BufferChainlink.sol\":1801:1957  function resize(buffer memory buf, uint256 capacity) private pure {... */\n      pop\n      pop\n      jump\t// out\n    tag_116:\n      mload(0x40)\n      dup1\n      0xa0\n      add\n      0x40\n      mstore\n      dup1\n      0x00\n      dup1\n      not\n      and\n      dup2\n      mstore\n      0x20\n      add\n      and(0xffffffffffffffffffffffffffffffffffffffff, 0x00)\n      dup2\n      mstore\n      0x20\n      add\n      and(not(0xffffffffffffffffffffffffffffffffffffffffffffffffffffffff), 0x00)\n      dup2\n      mstore\n      0x20\n      add\n      0x00\n      dup2\n      mstore\n      0x20\n      add\n      tag_277\n      tag_183\n      jump\t// in\n    tag_277:\n      dup2\n      mstore\n      pop\n      swap1\n      jump\t// out\n    tag_183:\n      mload(0x40)\n      dup1\n      0x40\n      add\n      0x40\n      mstore\n      dup1\n      0x60\n      dup2\n      mstore\n      0x20\n      add\n      0x00\n      dup2\n      mstore\n      pop\n      swap1\n      jump\t// out\n        /* \"#utility.yul\":7:419   */\n    tag_279:\n        /* \"#utility.yul\":85:90   */\n      0x00\n        /* \"#utility.yul\":110:176   */\n      tag_281\n        /* \"#utility.yul\":126:175   */\n      tag_282\n        /* \"#utility.yul\":168:174   */\n      dup5\n        /* \"#utility.yul\":126:175   */\n      tag_283\n      jump\t// in\n    tag_282:\n        /* \"#utility.yul\":110:176   */\n      tag_284\n      jump\t// in\n    tag_281:\n        /* \"#utility.yul\":101:176   */\n      swap1\n      pop\n        /* \"#utility.yul\":199:205   */\n      dup3\n        /* \"#utility.yul\":192:197   */\n      dup2\n        /* \"#utility.yul\":185:206   */\n      mstore\n        /* \"#utility.yul\":237:241   */\n      0x20\n        /* \"#utility.yul\":230:235   */\n      dup2\n        /* \"#utility.yul\":226:242   */\n      add\n        /* \"#utility.yul\":275:278   */\n      dup5\n        /* \"#utility.yul\":266:272   */\n      dup5\n        /* \"#utility.yul\":261:264   */\n      dup5\n        /* \"#utility.yul\":257:273   */\n      add\n        /* \"#utility.yul\":254:279   */\n      gt\n        /* \"#utility.yul\":251:363   */\n      iszero\n      tag_285\n      jumpi\n        /* \"#utility.yul\":282:361   */\n      tag_286\n      tag_287\n      jump\t// in\n    tag_286:\n        /* \"#utility.yul\":251:363   */\n    tag_285:\n        /* \"#utility.yul\":372:413   */\n      tag_288\n        /* \"#utility.yul\":406:412   */\n      dup5\n        /* \"#utility.yul\":401:404   */\n      dup3\n        /* \"#utility.yul\":396:399   */\n      dup6\n        /* \"#utility.yul\":372:413   */\n      tag_289\n      jump\t// in\n    tag_288:\n        /* \"#utility.yul\":91:419   */\n      pop\n        /* \"#utility.yul\":7:419   */\n      swap4\n      swap3\n      pop\n      pop\n      pop\n      jump\t// out\n        /* \"#utility.yul\":425:564   */\n    tag_290:\n        /* \"#utility.yul\":471:476   */\n      0x00\n        /* \"#utility.yul\":509:515   */\n      dup2\n        /* \"#utility.yul\":496:516   */\n      calldataload\n        /* \"#utility.yul\":487:516   */\n      swap1\n      pop\n        /* \"#utility.yul\":525:558   */\n      tag_292\n        /* \"#utility.yul\":552:557   */\n      dup2\n        /* \"#utility.yul\":525:558   */\n      tag_293\n      jump\t// in\n    tag_292:\n        /* \"#utility.yul\":425:564   */\n      swap3\n      swap2\n      pop\n      pop\n      jump\t// out\n        /* \"#utility.yul\":570:707   */\n    tag_294:\n        /* \"#utility.yul\":624:629   */\n      0x00\n        /* \"#utility.yul\":655:661   */\n      dup2\n        /* \"#utility.yul\":649:662   */\n      mload\n        /* \"#utility.yul\":640:662   */\n      swap1\n      pop\n        /* \"#utility.yul\":671:701   */\n      tag_296\n        /* \"#utility.yul\":695:700   */\n      dup2\n        /* \"#utility.yul\":671:701   */\n      tag_297\n      jump\t// in\n    tag_296:\n        /* \"#utility.yul\":570:707   */\n      swap3\n      swap2\n      pop\n      pop\n      jump\t// out\n        /* \"#utility.yul\":713:852   */\n    tag_298:\n        /* \"#utility.yul\":759:764   */\n      0x00\n        /* \"#utility.yul\":797:803   */\n      dup2\n        /* \"#utility.yul\":784:804   */\n      calldataload\n        /* \"#utility.yul\":775:804   */\n      swap1\n      pop\n        /* \"#utility.yul\":813:846   */\n      tag_300\n        /* \"#utility.yul\":840:845   */\n      dup2\n        /* \"#utility.yul\":813:846   */\n      tag_301\n      jump\t// in\n    tag_300:\n        /* \"#utility.yul\":713:852   */\n      swap3\n      swap2\n      pop\n      pop\n      jump\t// out\n        /* \"#utility.yul\":858:995   */\n    tag_302:\n        /* \"#utility.yul\":903:908   */\n      0x00\n        /* \"#utility.yul\":941:947   */\n      dup2\n        /* \"#utility.yul\":928:948   */\n      calldataload\n        /* \"#utility.yul\":919:948   */\n      swap1\n      pop\n        /* \"#utility.yul\":957:989   */\n      tag_304\n        /* \"#utility.yul\":983:988   */\n      dup2\n        /* \"#utility.yul\":957:989   */\n      tag_305\n      jump\t// in\n    tag_304:\n        /* \"#utility.yul\":858:995   */\n      swap3\n      swap2\n      pop\n      pop\n      jump\t// out\n        /* \"#utility.yul\":1015:1355   */\n    tag_306:\n        /* \"#utility.yul\":1071:1076   */\n      0x00\n        /* \"#utility.yul\":1120:1123   */\n      dup3\n        /* \"#utility.yul\":1113:1117   */\n      0x1f\n        /* \"#utility.yul\":1105:1111   */\n      dup4\n        /* \"#utility.yul\":1101:1118   */\n      add\n        /* \"#utility.yul\":1097:1124   */\n      slt\n        /* \"#utility.yul\":1087:1209   */\n      tag_308\n      jumpi\n        /* \"#utility.yul\":1128:1207   */\n      tag_309\n      tag_310\n      jump\t// in\n    tag_309:\n        /* \"#utility.yul\":1087:1209   */\n    tag_308:\n        /* \"#utility.yul\":1245:1251   */\n      dup2\n        /* \"#utility.yul\":1232:1252   */\n      calldataload\n        /* \"#utility.yul\":1270:1349   */\n      tag_311\n        /* \"#utility.yul\":1345:1348   */\n      dup5\n        /* \"#utility.yul\":1337:1343   */\n      dup3\n        /* \"#utility.yul\":1330:1334   */\n      0x20\n        /* \"#utility.yul\":1322:1328   */\n      dup7\n        /* \"#utility.yul\":1318:1335   */\n      add\n        /* \"#utility.yul\":1270:1349   */\n      tag_279\n      jump\t// in\n    tag_311:\n        /* \"#utility.yul\":1261:1349   */\n      swap2\n      pop\n        /* \"#utility.yul\":1077:1355   */\n      pop\n        /* \"#utility.yul\":1015:1355   */\n      swap3\n      swap2\n      pop\n      pop\n      jump\t// out\n        /* \"#utility.yul\":1361:1500   */\n    tag_312:\n        /* \"#utility.yul\":1407:1412   */\n      0x00\n        /* \"#utility.yul\":1445:1451   */\n      dup2\n        /* \"#utility.yul\":1432:1452   */\n      calldataload\n        /* \"#utility.yul\":1423:1452   */\n      swap1\n      pop\n        /* \"#utility.yul\":1461:1494   */\n      tag_314\n        /* \"#utility.yul\":1488:1493   */\n      dup2\n        /* \"#utility.yul\":1461:1494   */\n      tag_315\n      jump\t// in\n    tag_314:\n        /* \"#utility.yul\":1361:1500   */\n      swap3\n      swap2\n      pop\n      pop\n      jump\t// out\n        /* \"#utility.yul\":1506:1649   */\n    tag_316:\n        /* \"#utility.yul\":1563:1568   */\n      0x00\n        /* \"#utility.yul\":1594:1600   */\n      dup2\n        /* \"#utility.yul\":1588:1601   */\n      mload\n        /* \"#utility.yul\":1579:1601   */\n      swap1\n      pop\n        /* \"#utility.yul\":1610:1643   */\n      tag_318\n        /* \"#utility.yul\":1637:1642   */\n      dup2\n        /* \"#utility.yul\":1610:1643   */\n      tag_315\n      jump\t// in\n    tag_318:\n        /* \"#utility.yul\":1506:1649   */\n      swap3\n      swap2\n      pop\n      pop\n      jump\t// out\n        /* \"#utility.yul\":1655:1984   */\n    tag_42:\n        /* \"#utility.yul\":1714:1720   */\n      0x00\n        /* \"#utility.yul\":1763:1765   */\n      0x20\n        /* \"#utility.yul\":1751:1760   */\n      dup3\n        /* \"#utility.yul\":1742:1749   */\n      dup5\n        /* \"#utility.yul\":1738:1761   */\n      sub\n        /* \"#utility.yul\":1734:1766   */\n      slt\n        /* \"#utility.yul\":1731:1850   */\n      iszero\n      tag_320\n      jumpi\n        /* \"#utility.yul\":1769:1848   */\n      tag_321\n      tag_322\n      jump\t// in\n    tag_321:\n        /* \"#utility.yul\":1731:1850   */\n    tag_320:\n        /* \"#utility.yul\":1889:1890   */\n      0x00\n        /* \"#utility.yul\":1914:1967   */\n      tag_323\n        /* \"#utility.yul\":1959:1966   */\n      dup5\n        /* \"#utility.yul\":1950:1956   */\n      dup3\n        /* \"#utility.yul\":1939:1948   */\n      dup6\n        /* \"#utility.yul\":1935:1957   */\n      add\n        /* \"#utility.yul\":1914:1967   */\n      tag_290\n      jump\t// in\n    tag_323:\n        /* \"#utility.yul\":1904:1967   */\n      swap2\n      pop\n        /* \"#utility.yul\":1860:1977   */\n      pop\n        /* \"#utility.yul\":1655:1984   */\n      swap3\n      swap2\n      pop\n      pop\n      jump\t// out\n        /* \"#utility.yul\":1990:2335   */\n    tag_74:\n        /* \"#utility.yul\":2057:2063   */\n      0x00\n        /* \"#utility.yul\":2106:2108   */\n      0x20\n        /* \"#utility.yul\":2094:2103   */\n      dup3\n        /* \"#utility.yul\":2085:2092   */\n      dup5\n        /* \"#utility.yul\":2081:2104   */\n      sub\n        /* \"#utility.yul\":2077:2109   */\n      slt\n        /* \"#utility.yul\":2074:2193   */\n      iszero\n      tag_325\n      jumpi\n        /* \"#utility.yul\":2112:2191   */\n      tag_326\n      tag_322\n      jump\t// in\n    tag_326:\n        /* \"#utility.yul\":2074:2193   */\n    tag_325:\n        /* \"#utility.yul\":2232:2233   */\n      0x00\n        /* \"#utility.yul\":2257:2318   */\n      tag_327\n        /* \"#utility.yul\":2310:2317   */\n      dup5\n        /* \"#utility.yul\":2301:2307   */\n      dup3\n        /* \"#utility.yul\":2290:2299   */\n      dup6\n        /* \"#utility.yul\":2286:2308   */\n      add\n        /* \"#utility.yul\":2257:2318   */\n      tag_294\n      jump\t// in\n    tag_327:\n        /* \"#utility.yul\":2247:2318   */\n      swap2\n      pop\n        /* \"#utility.yul\":2203:2328   */\n      pop\n        /* \"#utility.yul\":1990:2335   */\n      swap3\n      swap2\n      pop\n      pop\n      jump\t// out\n        /* \"#utility.yul\":2341:2815   */\n    tag_21:\n        /* \"#utility.yul\":2409:2415   */\n      0x00\n        /* \"#utility.yul\":2417:2423   */\n      dup1\n        /* \"#utility.yul\":2466:2468   */\n      0x40\n        /* \"#utility.yul\":2454:2463   */\n      dup4\n        /* \"#utility.yul\":2445:2452   */\n      dup6\n        /* \"#utility.yul\":2441:2464   */\n      sub\n        /* \"#utility.yul\":2437:2469   */\n      slt\n        /* \"#utility.yul\":2434:2553   */\n      iszero\n      tag_329\n      jumpi\n        /* \"#utility.yul\":2472:2551   */\n      tag_330\n      tag_322\n      jump\t// in\n    tag_330:\n        /* \"#utility.yul\":2434:2553   */\n    tag_329:\n        /* \"#utility.yul\":2592:2593   */\n      0x00\n        /* \"#utility.yul\":2617:2670   */\n      tag_331\n        /* \"#utility.yul\":2662:2669   */\n      dup6\n        /* \"#utility.yul\":2653:2659   */\n      dup3\n        /* \"#utility.yul\":2642:2651   */\n      dup7\n        /* \"#utility.yul\":2638:2660   */\n      add\n        /* \"#utility.yul\":2617:2670   */\n      tag_298\n      jump\t// in\n    tag_331:\n        /* \"#utility.yul\":2607:2670   */\n      swap3\n      pop\n        /* \"#utility.yul\":2563:2680   */\n      pop\n        /* \"#utility.yul\":2719:2721   */\n      0x20\n        /* \"#utility.yul\":2745:2798   */\n      tag_332\n        /* \"#utility.yul\":2790:2797   */\n      dup6\n        /* \"#utility.yul\":2781:2787   */\n      dup3\n        /* \"#utility.yul\":2770:2779   */\n      dup7\n        /* \"#utility.yul\":2766:2788   */\n      add\n        /* \"#utility.yul\":2745:2798   */\n      tag_312\n      jump\t// in\n    tag_332:\n        /* \"#utility.yul\":2735:2798   */\n      swap2\n      pop\n        /* \"#utility.yul\":2690:2808   */\n      pop\n        /* \"#utility.yul\":2341:2815   */\n      swap3\n      pop\n      swap3\n      swap1\n      pop\n      jump\t// out\n        /* \"#utility.yul\":2821:3584   */\n    tag_38:\n        /* \"#utility.yul\":2906:2912   */\n      0x00\n        /* \"#utility.yul\":2914:2920   */\n      dup1\n        /* \"#utility.yul\":2922:2928   */\n      0x00\n        /* \"#utility.yul\":2930:2936   */\n      dup1\n        /* \"#utility.yul\":2979:2982   */\n      0x80\n        /* \"#utility.yul\":2967:2976   */\n      dup6\n        /* \"#utility.yul\":2958:2965   */\n      dup8\n        /* \"#utility.yul\":2954:2977   */\n      sub\n        /* \"#utility.yul\":2950:2983   */\n      slt\n        /* \"#utility.yul\":2947:3067   */\n      iszero\n      tag_334\n      jumpi\n        /* \"#utility.yul\":2986:3065   */\n      tag_335\n      tag_322\n      jump\t// in\n    tag_335:\n        /* \"#utility.yul\":2947:3067   */\n    tag_334:\n        /* \"#utility.yul\":3106:3107   */\n      0x00\n        /* \"#utility.yul\":3131:3184   */\n      tag_336\n        /* \"#utility.yul\":3176:3183   */\n      dup8\n        /* \"#utility.yul\":3167:3173   */\n      dup3\n        /* \"#utility.yul\":3156:3165   */\n      dup9\n        /* \"#utility.yul\":3152:3174   */\n      add\n        /* \"#utility.yul\":3131:3184   */\n      tag_298\n      jump\t// in\n    tag_336:\n        /* \"#utility.yul\":3121:3184   */\n      swap5\n      pop\n        /* \"#utility.yul\":3077:3194   */\n      pop\n        /* \"#utility.yul\":3233:3235   */\n      0x20\n        /* \"#utility.yul\":3259:3312   */\n      tag_337\n        /* \"#utility.yul\":3304:3311   */\n      dup8\n        /* \"#utility.yul\":3295:3301   */\n      dup3\n        /* \"#utility.yul\":3284:3293   */\n      dup9\n        /* \"#utility.yul\":3280:3302   */\n      add\n        /* \"#utility.yul\":3259:3312   */\n      tag_312\n      jump\t// in\n    tag_337:\n        /* \"#utility.yul\":3249:3312   */\n      swap4\n      pop\n        /* \"#utility.yul\":3204:3322   */\n      pop\n        /* \"#utility.yul\":3361:3363   */\n      0x40\n        /* \"#utility.yul\":3387:3439   */\n      tag_338\n        /* \"#utility.yul\":3431:3438   */\n      dup8\n        /* \"#utility.yul\":3422:3428   */\n      dup3\n        /* \"#utility.yul\":3411:3420   */\n      dup9\n        /* \"#utility.yul\":3407:3429   */\n      add\n        /* \"#utility.yul\":3387:3439   */\n      tag_302\n      jump\t// in\n    tag_338:\n        /* \"#utility.yul\":3377:3439   */\n      swap3\n      pop\n        /* \"#utility.yul\":3332:3449   */\n      pop\n        /* \"#utility.yul\":3488:3490   */\n      0x60\n        /* \"#utility.yul\":3514:3567   */\n      tag_339\n        /* \"#utility.yul\":3559:3566   */\n      dup8\n        /* \"#utility.yul\":3550:3556   */\n      dup3\n        /* \"#utility.yul\":3539:3548   */\n      dup9\n        /* \"#utility.yul\":3535:3557   */\n      add\n        /* \"#utility.yul\":3514:3567   */\n      tag_312\n      jump\t// in\n    tag_339:\n        /* \"#utility.yul\":3504:3567   */\n      swap2\n      pop\n        /* \"#utility.yul\":3459:3577   */\n      pop\n        /* \"#utility.yul\":2821:3584   */\n      swap3\n      swap6\n      swap2\n      swap5\n      pop\n      swap3\n      pop\n      jump\t// out\n        /* \"#utility.yul\":3590:4569   */\n    tag_34:\n        /* \"#utility.yul\":3687:3693   */\n      0x00\n        /* \"#utility.yul\":3695:3701   */\n      dup1\n        /* \"#utility.yul\":3703:3709   */\n      0x00\n        /* \"#utility.yul\":3752:3754   */\n      0x60\n        /* \"#utility.yul\":3740:3749   */\n      dup5\n        /* \"#utility.yul\":3731:3738   */\n      dup7\n        /* \"#utility.yul\":3727:3750   */\n      sub\n        /* \"#utility.yul\":3723:3755   */\n      slt\n        /* \"#utility.yul\":3720:3839   */\n      iszero\n      tag_341\n      jumpi\n        /* \"#utility.yul\":3758:3837   */\n      tag_342\n      tag_322\n      jump\t// in\n    tag_342:\n        /* \"#utility.yul\":3720:3839   */\n    tag_341:\n        /* \"#utility.yul\":3906:3907   */\n      0x00\n        /* \"#utility.yul\":3895:3904   */\n      dup5\n        /* \"#utility.yul\":3891:3908   */\n      add\n        /* \"#utility.yul\":3878:3909   */\n      calldataload\n        /* \"#utility.yul\":3936:3954   */\n      0xffffffffffffffff\n        /* \"#utility.yul\":3928:3934   */\n      dup2\n        /* \"#utility.yul\":3925:3955   */\n      gt\n        /* \"#utility.yul\":3922:4039   */\n      iszero\n      tag_343\n      jumpi\n        /* \"#utility.yul\":3958:4037   */\n      tag_344\n      tag_345\n      jump\t// in\n    tag_344:\n        /* \"#utility.yul\":3922:4039   */\n    tag_343:\n        /* \"#utility.yul\":4063:4126   */\n      tag_346\n        /* \"#utility.yul\":4118:4125   */\n      dup7\n        /* \"#utility.yul\":4109:4115   */\n      dup3\n        /* \"#utility.yul\":4098:4107   */\n      dup8\n        /* \"#utility.yul\":4094:4116   */\n      add\n        /* \"#utility.yul\":4063:4126   */\n      tag_306\n      jump\t// in\n    tag_346:\n        /* \"#utility.yul\":4053:4126   */\n      swap4\n      pop\n        /* \"#utility.yul\":3849:4136   */\n      pop\n        /* \"#utility.yul\":4175:4177   */\n      0x20\n        /* \"#utility.yul\":4201:4254   */\n      tag_347\n        /* \"#utility.yul\":4246:4253   */\n      dup7\n        /* \"#utility.yul\":4237:4243   */\n      dup3\n        /* \"#utility.yul\":4226:4235   */\n      dup8\n        /* \"#utility.yul\":4222:4244   */\n      add\n        /* \"#utility.yul\":4201:4254   */\n      tag_290\n      jump\t// in\n    tag_347:\n        /* \"#utility.yul\":4191:4254   */\n      swap3\n      pop\n        /* \"#utility.yul\":4146:4264   */\n      pop\n        /* \"#utility.yul\":4331:4333   */\n      0x40\n        /* \"#utility.yul\":4320:4329   */\n      dup5\n        /* \"#utility.yul\":4316:4334   */\n      add\n        /* \"#utility.yul\":4303:4335   */\n      calldataload\n        /* \"#utility.yul\":4362:4380   */\n      0xffffffffffffffff\n        /* \"#utility.yul\":4354:4360   */\n      dup2\n        /* \"#utility.yul\":4351:4381   */\n      gt\n        /* \"#utility.yul\":4348:4465   */\n      iszero\n      tag_348\n      jumpi\n        /* \"#utility.yul\":4384:4463   */\n      tag_349\n      tag_345\n      jump\t// in\n    tag_349:\n        /* \"#utility.yul\":4348:4465   */\n    tag_348:\n        /* \"#utility.yul\":4489:4552   */\n      tag_350\n        /* \"#utility.yul\":4544:4551   */\n      dup7\n        /* \"#utility.yul\":4535:4541   */\n      dup3\n        /* \"#utility.yul\":4524:4533   */\n      dup8\n        /* \"#utility.yul\":4520:4542   */\n      add\n        /* \"#utility.yul\":4489:4552   */\n      tag_306\n      jump\t// in\n    tag_350:\n        /* \"#utility.yul\":4479:4552   */\n      swap2\n      pop\n        /* \"#utility.yul\":4274:4562   */\n      pop\n        /* \"#utility.yul\":3590:4569   */\n      swap3\n      pop\n      swap3\n      pop\n      swap3\n      jump\t// out\n        /* \"#utility.yul\":4575:4926   */\n    tag_67:\n        /* \"#utility.yul\":4645:4651   */\n      0x00\n        /* \"#utility.yul\":4694:4696   */\n      0x20\n        /* \"#utility.yul\":4682:4691   */\n      dup3\n        /* \"#utility.yul\":4673:4680   */\n      dup5\n        /* \"#utility.yul\":4669:4692   */\n      sub\n        /* \"#utility.yul\":4665:4697   */\n      slt\n        /* \"#utility.yul\":4662:4781   */\n      iszero\n      tag_352\n      jumpi\n        /* \"#utility.yul\":4700:4779   */\n      tag_353\n      tag_322\n      jump\t// in\n    tag_353:\n        /* \"#utility.yul\":4662:4781   */\n    tag_352:\n        /* \"#utility.yul\":4820:4821   */\n      0x00\n        /* \"#utility.yul\":4845:4909   */\n      tag_354\n        /* \"#utility.yul\":4901:4908   */\n      dup5\n        /* \"#utility.yul\":4892:4898   */\n      dup3\n        /* \"#utility.yul\":4881:4890   */\n      dup6\n        /* \"#utility.yul\":4877:4899   */\n      add\n        /* \"#utility.yul\":4845:4909   */\n      tag_316\n      jump\t// in\n    tag_354:\n        /* \"#utility.yul\":4835:4909   */\n      swap2\n      pop\n        /* \"#utility.yul\":4791:4919   */\n      pop\n        /* \"#utility.yul\":4575:4926   */\n      swap3\n      swap2\n      pop\n      pop\n      jump\t// out\n        /* \"#utility.yul\":4932:5050   */\n    tag_355:\n        /* \"#utility.yul\":5019:5043   */\n      tag_357\n        /* \"#utility.yul\":5037:5042   */\n      dup2\n        /* \"#utility.yul\":5019:5043   */\n      tag_358\n      jump\t// in\n    tag_357:\n        /* \"#utility.yul\":5014:5017   */\n      dup3\n        /* \"#utility.yul\":5007:5044   */\n      mstore\n        /* \"#utility.yul\":4932:5050   */\n      pop\n      pop\n      jump\t// out\n        /* \"#utility.yul\":5056:5174   */\n    tag_359:\n        /* \"#utility.yul\":5143:5167   */\n      tag_361\n        /* \"#utility.yul\":5161:5166   */\n      dup2\n        /* \"#utility.yul\":5143:5167   */\n      tag_362\n      jump\t// in\n    tag_361:\n        /* \"#utility.yul\":5138:5141   */\n      dup3\n        /* \"#utility.yul\":5131:5168   */\n      mstore\n        /* \"#utility.yul\":5056:5174   */\n      pop\n      pop\n      jump\t// out\n        /* \"#utility.yul\":5180:5295   */\n    tag_363:\n        /* \"#utility.yul\":5265:5288   */\n      tag_365\n        /* \"#utility.yul\":5282:5287   */\n      dup2\n        /* \"#utility.yul\":5265:5288   */\n      tag_366\n      jump\t// in\n    tag_365:\n        /* \"#utility.yul\":5260:5263   */\n      dup3\n        /* \"#utility.yul\":5253:5289   */\n      mstore\n        /* \"#utility.yul\":5180:5295   */\n      pop\n      pop\n      jump\t// out\n        /* \"#utility.yul\":5301:5661   */\n    tag_367:\n        /* \"#utility.yul\":5387:5390   */\n      0x00\n        /* \"#utility.yul\":5415:5453   */\n      tag_369\n        /* \"#utility.yul\":5447:5452   */\n      dup3\n        /* \"#utility.yul\":5415:5453   */\n      tag_370\n      jump\t// in\n    tag_369:\n        /* \"#utility.yul\":5469:5539   */\n      tag_371\n        /* \"#utility.yul\":5532:5538   */\n      dup2\n        /* \"#utility.yul\":5527:5530   */\n      dup6\n        /* \"#utility.yul\":5469:5539   */\n      tag_372\n      jump\t// in\n    tag_371:\n        /* \"#utility.yul\":5462:5539   */\n      swap4\n      pop\n        /* \"#utility.yul\":5548:5600   */\n      tag_373\n        /* \"#utility.yul\":5593:5599   */\n      dup2\n        /* \"#utility.yul\":5588:5591   */\n      dup6\n        /* \"#utility.yul\":5581:5585   */\n      0x20\n        /* \"#utility.yul\":5574:5579   */\n      dup7\n        /* \"#utility.yul\":5570:5586   */\n      add\n        /* \"#utility.yul\":5548:5600   */\n      tag_374\n      jump\t// in\n    tag_373:\n        /* \"#utility.yul\":5625:5654   */\n      tag_375\n        /* \"#utility.yul\":5647:5653   */\n      dup2\n        /* \"#utility.yul\":5625:5654   */\n      tag_376\n      jump\t// in\n    tag_375:\n        /* \"#utility.yul\":5620:5623   */\n      dup5\n        /* \"#utility.yul\":5616:5655   */\n      add\n        /* \"#utility.yul\":5609:5655   */\n      swap2\n      pop\n        /* \"#utility.yul\":5391:5661   */\n      pop\n        /* \"#utility.yul\":5301:5661   */\n      swap3\n      swap2\n      pop\n      pop\n      jump\t// out\n        /* \"#utility.yul\":5667:5883   */\n    tag_377:\n        /* \"#utility.yul\":5795:5876   */\n      tag_379\n        /* \"#utility.yul\":5815:5875   */\n      tag_380\n        /* \"#utility.yul\":5869:5874   */\n      dup3\n        /* \"#utility.yul\":5815:5875   */\n      tag_381\n      jump\t// in\n    tag_380:\n        /* \"#utility.yul\":5795:5876   */\n      tag_382\n      jump\t// in\n    tag_379:\n        /* \"#utility.yul\":5790:5793   */\n      dup3\n        /* \"#utility.yul\":5783:5877   */\n      mstore\n        /* \"#utility.yul\":5667:5883   */\n      pop\n      pop\n      jump\t// out\n        /* \"#utility.yul\":5889:6266   */\n    tag_383:\n        /* \"#utility.yul\":5995:5998   */\n      0x00\n        /* \"#utility.yul\":6023:6062   */\n      tag_385\n        /* \"#utility.yul\":6056:6061   */\n      dup3\n        /* \"#utility.yul\":6023:6062   */\n      tag_386\n      jump\t// in\n    tag_385:\n        /* \"#utility.yul\":6078:6167   */\n      tag_387\n        /* \"#utility.yul\":6160:6166   */\n      dup2\n        /* \"#utility.yul\":6155:6158   */\n      dup6\n        /* \"#utility.yul\":6078:6167   */\n      tag_388\n      jump\t// in\n    tag_387:\n        /* \"#utility.yul\":6071:6167   */\n      swap4\n      pop\n        /* \"#utility.yul\":6176:6228   */\n      tag_389\n        /* \"#utility.yul\":6221:6227   */\n      dup2\n        /* \"#utility.yul\":6216:6219   */\n      dup6\n        /* \"#utility.yul\":6209:6213   */\n      0x20\n        /* \"#utility.yul\":6202:6207   */\n      dup7\n        /* \"#utility.yul\":6198:6214   */\n      add\n        /* \"#utility.yul\":6176:6228   */\n      tag_374\n      jump\t// in\n    tag_389:\n        /* \"#utility.yul\":6253:6259   */\n      dup1\n        /* \"#utility.yul\":6248:6251   */\n      dup5\n        /* \"#utility.yul\":6244:6260   */\n      add\n        /* \"#utility.yul\":6237:6260   */\n      swap2\n      pop\n        /* \"#utility.yul\":5999:6266   */\n      pop\n        /* \"#utility.yul\":5889:6266   */\n      swap3\n      swap2\n      pop\n      pop\n      jump\t// out\n        /* \"#utility.yul\":6272:6638   */\n    tag_390:\n        /* \"#utility.yul\":6414:6417   */\n      0x00\n        /* \"#utility.yul\":6435:6502   */\n      tag_392\n        /* \"#utility.yul\":6499:6501   */\n      0x16\n        /* \"#utility.yul\":6494:6497   */\n      dup4\n        /* \"#utility.yul\":6435:6502   */\n      tag_393\n      jump\t// in\n    tag_392:\n        /* \"#utility.yul\":6428:6502   */\n      swap2\n      pop\n        /* \"#utility.yul\":6511:6604   */\n      tag_394\n        /* \"#utility.yul\":6600:6603   */\n      dup3\n        /* \"#utility.yul\":6511:6604   */\n      tag_395\n      jump\t// in\n    tag_394:\n        /* \"#utility.yul\":6629:6631   */\n      0x20\n        /* \"#utility.yul\":6624:6627   */\n      dup3\n        /* \"#utility.yul\":6620:6632   */\n      add\n        /* \"#utility.yul\":6613:6632   */\n      swap1\n      pop\n        /* \"#utility.yul\":6272:6638   */\n      swap2\n      swap1\n      pop\n      jump\t// out\n        /* \"#utility.yul\":6644:7010   */\n    tag_396:\n        /* \"#utility.yul\":6786:6789   */\n      0x00\n        /* \"#utility.yul\":6807:6874   */\n      tag_398\n        /* \"#utility.yul\":6871:6873   */\n      0x23\n        /* \"#utility.yul\":6866:6869   */\n      dup4\n        /* \"#utility.yul\":6807:6874   */\n      tag_393\n      jump\t// in\n    tag_398:\n        /* \"#utility.yul\":6800:6874   */\n      swap2\n      pop\n        /* \"#utility.yul\":6883:6976   */\n      tag_399\n        /* \"#utility.yul\":6972:6975   */\n      dup3\n        /* \"#utility.yul\":6883:6976   */\n      tag_400\n      jump\t// in\n    tag_399:\n        /* \"#utility.yul\":7001:7003   */\n      0x40\n        /* \"#utility.yul\":6996:6999   */\n      dup3\n        /* \"#utility.yul\":6992:7004   */\n      add\n        /* \"#utility.yul\":6985:7004   */\n      swap1\n      pop\n        /* \"#utility.yul\":6644:7010   */\n      swap2\n      swap1\n      pop\n      jump\t// out\n        /* \"#utility.yul\":7016:7382   */\n    tag_401:\n        /* \"#utility.yul\":7158:7161   */\n      0x00\n        /* \"#utility.yul\":7179:7246   */\n      tag_403\n        /* \"#utility.yul\":7243:7245   */\n      0x16\n        /* \"#utility.yul\":7238:7241   */\n      dup4\n        /* \"#utility.yul\":7179:7246   */\n      tag_393\n      jump\t// in\n    tag_403:\n        /* \"#utility.yul\":7172:7246   */\n      swap2\n      pop\n        /* \"#utility.yul\":7255:7348   */\n      tag_404\n        /* \"#utility.yul\":7344:7347   */\n      dup3\n        /* \"#utility.yul\":7255:7348   */\n      tag_405\n      jump\t// in\n    tag_404:\n        /* \"#utility.yul\":7373:7375   */\n      0x20\n        /* \"#utility.yul\":7368:7371   */\n      dup3\n        /* \"#utility.yul\":7364:7376   */\n      add\n        /* \"#utility.yul\":7357:7376   */\n      swap1\n      pop\n        /* \"#utility.yul\":7016:7382   */\n      swap2\n      swap1\n      pop\n      jump\t// out\n        /* \"#utility.yul\":7388:7754   */\n    tag_406:\n        /* \"#utility.yul\":7530:7533   */\n      0x00\n        /* \"#utility.yul\":7551:7618   */\n      tag_408\n        /* \"#utility.yul\":7615:7617   */\n      0x12\n        /* \"#utility.yul\":7610:7613   */\n      dup4\n        /* \"#utility.yul\":7551:7618   */\n      tag_393\n      jump\t// in\n    tag_408:\n        /* \"#utility.yul\":7544:7618   */\n      swap2\n      pop\n        /* \"#utility.yul\":7627:7720   */\n      tag_409\n        /* \"#utility.yul\":7716:7719   */\n      dup3\n        /* \"#utility.yul\":7627:7720   */\n      tag_410\n      jump\t// in\n    tag_409:\n        /* \"#utility.yul\":7745:7747   */\n      0x20\n        /* \"#utility.yul\":7740:7743   */\n      dup3\n        /* \"#utility.yul\":7736:7748   */\n      add\n        /* \"#utility.yul\":7729:7748   */\n      swap1\n      pop\n        /* \"#utility.yul\":7388:7754   */\n      swap2\n      swap1\n      pop\n      jump\t// out\n        /* \"#utility.yul\":7760:8126   */\n    tag_411:\n        /* \"#utility.yul\":7902:7905   */\n      0x00\n        /* \"#utility.yul\":7923:7990   */\n      tag_413\n        /* \"#utility.yul\":7987:7989   */\n      0x17\n        /* \"#utility.yul\":7982:7985   */\n      dup4\n        /* \"#utility.yul\":7923:7990   */\n      tag_393\n      jump\t// in\n    tag_413:\n        /* \"#utility.yul\":7916:7990   */\n      swap2\n      pop\n        /* \"#utility.yul\":7999:8092   */\n      tag_414\n        /* \"#utility.yul\":8088:8091   */\n      dup3\n        /* \"#utility.yul\":7999:8092   */\n      tag_415\n      jump\t// in\n    tag_414:\n        /* \"#utility.yul\":8117:8119   */\n      0x20\n        /* \"#utility.yul\":8112:8115   */\n      dup3\n        /* \"#utility.yul\":8108:8120   */\n      add\n        /* \"#utility.yul\":8101:8120   */\n      swap1\n      pop\n        /* \"#utility.yul\":7760:8126   */\n      swap2\n      swap1\n      pop\n      jump\t// out\n        /* \"#utility.yul\":8132:8498   */\n    tag_416:\n        /* \"#utility.yul\":8274:8277   */\n      0x00\n        /* \"#utility.yul\":8295:8362   */\n      tag_418\n        /* \"#utility.yul\":8359:8361   */\n      0x28\n        /* \"#utility.yul\":8354:8357   */\n      dup4\n        /* \"#utility.yul\":8295:8362   */\n      tag_393\n      jump\t// in\n    tag_418:\n        /* \"#utility.yul\":8288:8362   */\n      swap2\n      pop\n        /* \"#utility.yul\":8371:8464   */\n      tag_419\n        /* \"#utility.yul\":8460:8463   */\n      dup3\n        /* \"#utility.yul\":8371:8464   */\n      tag_420\n      jump\t// in\n    tag_419:\n        /* \"#utility.yul\":8489:8491   */\n      0x40\n        /* \"#utility.yul\":8484:8487   */\n      dup3\n        /* \"#utility.yul\":8480:8492   */\n      add\n        /* \"#utility.yul\":8473:8492   */\n      swap1\n      pop\n        /* \"#utility.yul\":8132:8498   */\n      swap2\n      swap1\n      pop\n      jump\t// out\n        /* \"#utility.yul\":8504:8622   */\n    tag_421:\n        /* \"#utility.yul\":8591:8615   */\n      tag_423\n        /* \"#utility.yul\":8609:8614   */\n      dup2\n        /* \"#utility.yul\":8591:8615   */\n      tag_424\n      jump\t// in\n    tag_423:\n        /* \"#utility.yul\":8586:8589   */\n      dup3\n        /* \"#utility.yul\":8579:8616   */\n      mstore\n        /* \"#utility.yul\":8504:8622   */\n      pop\n      pop\n      jump\t// out\n        /* \"#utility.yul\":8628:8785   */\n    tag_425:\n        /* \"#utility.yul\":8733:8778   */\n      tag_427\n        /* \"#utility.yul\":8753:8777   */\n      tag_428\n        /* \"#utility.yul\":8771:8776   */\n      dup3\n        /* \"#utility.yul\":8753:8777   */\n      tag_424\n      jump\t// in\n    tag_428:\n        /* \"#utility.yul\":8733:8778   */\n      tag_429\n      jump\t// in\n    tag_427:\n        /* \"#utility.yul\":8728:8731   */\n      dup3\n        /* \"#utility.yul\":8721:8779   */\n      mstore\n        /* \"#utility.yul\":8628:8785   */\n      pop\n      pop\n      jump\t// out\n        /* \"#utility.yul\":8791:9234   */\n    tag_172:\n        /* \"#utility.yul\":8954:8957   */\n      0x00\n        /* \"#utility.yul\":8969:9067   */\n      tag_431\n        /* \"#utility.yul\":9063:9066   */\n      dup3\n        /* \"#utility.yul\":9054:9060   */\n      dup6\n        /* \"#utility.yul\":8969:9067   */\n      tag_377\n      jump\t// in\n    tag_431:\n        /* \"#utility.yul\":9092:9094   */\n      0x14\n        /* \"#utility.yul\":9087:9090   */\n      dup3\n        /* \"#utility.yul\":9083:9095   */\n      add\n        /* \"#utility.yul\":9076:9095   */\n      swap2\n      pop\n        /* \"#utility.yul\":9105:9180   */\n      tag_432\n        /* \"#utility.yul\":9176:9179   */\n      dup3\n        /* \"#utility.yul\":9167:9173   */\n      dup5\n        /* \"#utility.yul\":9105:9180   */\n      tag_425\n      jump\t// in\n    tag_432:\n        /* \"#utility.yul\":9205:9207   */\n      0x20\n        /* \"#utility.yul\":9200:9203   */\n      dup3\n        /* \"#utility.yul\":9196:9208   */\n      add\n        /* \"#utility.yul\":9189:9208   */\n      swap2\n      pop\n        /* \"#utility.yul\":9225:9228   */\n      dup2\n        /* \"#utility.yul\":9218:9228   */\n      swap1\n      pop\n        /* \"#utility.yul\":8791:9234   */\n      swap4\n      swap3\n      pop\n      pop\n      pop\n      jump\t// out\n        /* \"#utility.yul\":9240:9675   */\n    tag_87:\n        /* \"#utility.yul\":9420:9423   */\n      0x00\n        /* \"#utility.yul\":9442:9537   */\n      tag_434\n        /* \"#utility.yul\":9533:9536   */\n      dup3\n        /* \"#utility.yul\":9524:9530   */\n      dup6\n        /* \"#utility.yul\":9442:9537   */\n      tag_383\n      jump\t// in\n    tag_434:\n        /* \"#utility.yul\":9435:9537   */\n      swap2\n      pop\n        /* \"#utility.yul\":9554:9649   */\n      tag_435\n        /* \"#utility.yul\":9645:9648   */\n      dup3\n        /* \"#utility.yul\":9636:9642   */\n      dup5\n        /* \"#utility.yul\":9554:9649   */\n      tag_383\n      jump\t// in\n    tag_435:\n        /* \"#utility.yul\":9547:9649   */\n      swap2\n      pop\n        /* \"#utility.yul\":9666:9669   */\n      dup2\n        /* \"#utility.yul\":9659:9669   */\n      swap1\n      pop\n        /* \"#utility.yul\":9240:9675   */\n      swap4\n      swap3\n      pop\n      pop\n      pop\n      jump\t// out\n        /* \"#utility.yul\":9681:9903   */\n    tag_16:\n        /* \"#utility.yul\":9774:9778   */\n      0x00\n        /* \"#utility.yul\":9812:9814   */\n      0x20\n        /* \"#utility.yul\":9801:9810   */\n      dup3\n        /* \"#utility.yul\":9797:9815   */\n      add\n        /* \"#utility.yul\":9789:9815   */\n      swap1\n      pop\n        /* \"#utility.yul\":9825:9896   */\n      tag_437\n        /* \"#utility.yul\":9893:9894   */\n      0x00\n        /* \"#utility.yul\":9882:9891   */\n      dup4\n        /* \"#utility.yul\":9878:9895   */\n      add\n        /* \"#utility.yul\":9869:9875   */\n      dup5\n        /* \"#utility.yul\":9825:9896   */\n      tag_355\n      jump\t// in\n    tag_437:\n        /* \"#utility.yul\":9681:9903   */\n      swap3\n      swap2\n      pop\n      pop\n      jump\t// out\n        /* \"#utility.yul\":9909:10241   */\n    tag_69:\n        /* \"#utility.yul\":10030:10034   */\n      0x00\n        /* \"#utility.yul\":10068:10070   */\n      0x40\n        /* \"#utility.yul\":10057:10066   */\n      dup3\n        /* \"#utility.yul\":10053:10071   */\n      add\n        /* \"#utility.yul\":10045:10071   */\n      swap1\n      pop\n        /* \"#utility.yul\":10081:10152   */\n      tag_439\n        /* \"#utility.yul\":10149:10150   */\n      0x00\n        /* \"#utility.yul\":10138:10147   */\n      dup4\n        /* \"#utility.yul\":10134:10151   */\n      add\n        /* \"#utility.yul\":10125:10131   */\n      dup6\n        /* \"#utility.yul\":10081:10152   */\n      tag_355\n      jump\t// in\n    tag_439:\n        /* \"#utility.yul\":10162:10234   */\n      tag_440\n        /* \"#utility.yul\":10230:10232   */\n      0x20\n        /* \"#utility.yul\":10219:10228   */\n      dup4\n        /* \"#utility.yul\":10215:10233   */\n      add\n        /* \"#utility.yul\":10206:10212   */\n      dup5\n        /* \"#utility.yul\":10162:10234   */\n      tag_421\n      jump\t// in\n    tag_440:\n        /* \"#utility.yul\":9909:10241   */\n      swap4\n      swap3\n      pop\n      pop\n      pop\n      jump\t// out\n        /* \"#utility.yul\":10247:11327   */\n    tag_133:\n        /* \"#utility.yul\":10552:10556   */\n      0x00\n        /* \"#utility.yul\":10590:10593   */\n      0x0100\n        /* \"#utility.yul\":10579:10588   */\n      dup3\n        /* \"#utility.yul\":10575:10594   */\n      add\n        /* \"#utility.yul\":10567:10594   */\n      swap1\n      pop\n        /* \"#utility.yul\":10604:10675   */\n      tag_442\n        /* \"#utility.yul\":10672:10673   */\n      0x00\n        /* \"#utility.yul\":10661:10670   */\n      dup4\n        /* \"#utility.yul\":10657:10674   */\n      add\n        /* \"#utility.yul\":10648:10654   */\n      dup12\n        /* \"#utility.yul\":10604:10675   */\n      tag_355\n      jump\t// in\n    tag_442:\n        /* \"#utility.yul\":10685:10757   */\n      tag_443\n        /* \"#utility.yul\":10753:10755   */\n      0x20\n        /* \"#utility.yul\":10742:10751   */\n      dup4\n        /* \"#utility.yul\":10738:10756   */\n      add\n        /* \"#utility.yul\":10729:10735   */\n      dup11\n        /* \"#utility.yul\":10685:10757   */\n      tag_421\n      jump\t// in\n    tag_443:\n        /* \"#utility.yul\":10767:10839   */\n      tag_444\n        /* \"#utility.yul\":10835:10837   */\n      0x40\n        /* \"#utility.yul\":10824:10833   */\n      dup4\n        /* \"#utility.yul\":10820:10838   */\n      add\n        /* \"#utility.yul\":10811:10817   */\n      dup10\n        /* \"#utility.yul\":10767:10839   */\n      tag_359\n      jump\t// in\n    tag_444:\n        /* \"#utility.yul\":10849:10921   */\n      tag_445\n        /* \"#utility.yul\":10917:10919   */\n      0x60\n        /* \"#utility.yul\":10906:10915   */\n      dup4\n        /* \"#utility.yul\":10902:10920   */\n      add\n        /* \"#utility.yul\":10893:10899   */\n      dup9\n        /* \"#utility.yul\":10849:10921   */\n      tag_355\n      jump\t// in\n    tag_445:\n        /* \"#utility.yul\":10931:11002   */\n      tag_446\n        /* \"#utility.yul\":10997:11000   */\n      0x80\n        /* \"#utility.yul\":10986:10995   */\n      dup4\n        /* \"#utility.yul\":10982:11001   */\n      add\n        /* \"#utility.yul\":10973:10979   */\n      dup8\n        /* \"#utility.yul\":10931:11002   */\n      tag_363\n      jump\t// in\n    tag_446:\n        /* \"#utility.yul\":11012:11085   */\n      tag_447\n        /* \"#utility.yul\":11080:11083   */\n      0xa0\n        /* \"#utility.yul\":11069:11078   */\n      dup4\n        /* \"#utility.yul\":11065:11084   */\n      add\n        /* \"#utility.yul\":11056:11062   */\n      dup7\n        /* \"#utility.yul\":11012:11085   */\n      tag_421\n      jump\t// in\n    tag_447:\n        /* \"#utility.yul\":11095:11168   */\n      tag_448\n        /* \"#utility.yul\":11163:11166   */\n      0xc0\n        /* \"#utility.yul\":11152:11161   */\n      dup4\n        /* \"#utility.yul\":11148:11167   */\n      add\n        /* \"#utility.yul\":11139:11145   */\n      dup6\n        /* \"#utility.yul\":11095:11168   */\n      tag_421\n      jump\t// in\n    tag_448:\n        /* \"#utility.yul\":11216:11225   */\n      dup2\n        /* \"#utility.yul\":11210:11214   */\n      dup2\n        /* \"#utility.yul\":11206:11226   */\n      sub\n        /* \"#utility.yul\":11200:11203   */\n      0xe0\n        /* \"#utility.yul\":11189:11198   */\n      dup4\n        /* \"#utility.yul\":11185:11204   */\n      add\n        /* \"#utility.yul\":11178:11227   */\n      mstore\n        /* \"#utility.yul\":11244:11320   */\n      tag_449\n        /* \"#utility.yul\":11315:11319   */\n      dup2\n        /* \"#utility.yul\":11306:11312   */\n      dup5\n        /* \"#utility.yul\":11244:11320   */\n      tag_367\n      jump\t// in\n    tag_449:\n        /* \"#utility.yul\":11236:11320   */\n      swap1\n      pop\n        /* \"#utility.yul\":10247:11327   */\n      swap10\n      swap9\n      pop\n      pop\n      pop\n      pop\n      pop\n      pop\n      pop\n      pop\n      pop\n      jump\t// out\n        /* \"#utility.yul\":11333:11862   */\n    tag_174:\n        /* \"#utility.yul\":11500:11504   */\n      0x00\n        /* \"#utility.yul\":11538:11540   */\n      0x60\n        /* \"#utility.yul\":11527:11536   */\n      dup3\n        /* \"#utility.yul\":11523:11541   */\n      add\n        /* \"#utility.yul\":11515:11541   */\n      swap1\n      pop\n        /* \"#utility.yul\":11551:11622   */\n      tag_451\n        /* \"#utility.yul\":11619:11620   */\n      0x00\n        /* \"#utility.yul\":11608:11617   */\n      dup4\n        /* \"#utility.yul\":11604:11621   */\n      add\n        /* \"#utility.yul\":11595:11601   */\n      dup7\n        /* \"#utility.yul\":11551:11622   */\n      tag_355\n      jump\t// in\n    tag_451:\n        /* \"#utility.yul\":11632:11704   */\n      tag_452\n        /* \"#utility.yul\":11700:11702   */\n      0x20\n        /* \"#utility.yul\":11689:11698   */\n      dup4\n        /* \"#utility.yul\":11685:11703   */\n      add\n        /* \"#utility.yul\":11676:11682   */\n      dup6\n        /* \"#utility.yul\":11632:11704   */\n      tag_421\n      jump\t// in\n    tag_452:\n        /* \"#utility.yul\":11751:11760   */\n      dup2\n        /* \"#utility.yul\":11745:11749   */\n      dup2\n        /* \"#utility.yul\":11741:11761   */\n      sub\n        /* \"#utility.yul\":11736:11738   */\n      0x40\n        /* \"#utility.yul\":11725:11734   */\n      dup4\n        /* \"#utility.yul\":11721:11739   */\n      add\n        /* \"#utility.yul\":11714:11762   */\n      mstore\n        /* \"#utility.yul\":11779:11855   */\n      tag_453\n        /* \"#utility.yul\":11850:11854   */\n      dup2\n        /* \"#utility.yul\":11841:11847   */\n      dup5\n        /* \"#utility.yul\":11779:11855   */\n      tag_367\n      jump\t// in\n    tag_453:\n        /* \"#utility.yul\":11771:11855   */\n      swap1\n      pop\n        /* \"#utility.yul\":11333:11862   */\n      swap5\n      swap4\n      pop\n      pop\n      pop\n      pop\n      jump\t// out\n        /* \"#utility.yul\":11868:12417   */\n    tag_138:\n        /* \"#utility.yul\":12043:12047   */\n      0x00\n        /* \"#utility.yul\":12081:12084   */\n      0x80\n        /* \"#utility.yul\":12070:12079   */\n      dup3\n        /* \"#utility.yul\":12066:12085   */\n      add\n        /* \"#utility.yul\":12058:12085   */\n      swap1\n      pop\n        /* \"#utility.yul\":12095:12166   */\n      tag_455\n        /* \"#utility.yul\":12163:12164   */\n      0x00\n        /* \"#utility.yul\":12152:12161   */\n      dup4\n        /* \"#utility.yul\":12148:12165   */\n      add\n        /* \"#utility.yul\":12139:12145   */\n      dup8\n        /* \"#utility.yul\":12095:12166   */\n      tag_359\n      jump\t// in\n    tag_455:\n        /* \"#utility.yul\":12176:12248   */\n      tag_456\n        /* \"#utility.yul\":12244:12246   */\n      0x20\n        /* \"#utility.yul\":12233:12242   */\n      dup4\n        /* \"#utility.yul\":12229:12247   */\n      add\n        /* \"#utility.yul\":12220:12226   */\n      dup7\n        /* \"#utility.yul\":12176:12248   */\n      tag_421\n      jump\t// in\n    tag_456:\n        /* \"#utility.yul\":12258:12328   */\n      tag_457\n        /* \"#utility.yul\":12324:12326   */\n      0x40\n        /* \"#utility.yul\":12313:12322   */\n      dup4\n        /* \"#utility.yul\":12309:12327   */\n      add\n        /* \"#utility.yul\":12300:12306   */\n      dup6\n        /* \"#utility.yul\":12258:12328   */\n      tag_363\n      jump\t// in\n    tag_457:\n        /* \"#utility.yul\":12338:12410   */\n      tag_458\n        /* \"#utility.yul\":12406:12408   */\n      0x60\n        /* \"#utility.yul\":12395:12404   */\n      dup4\n        /* \"#utility.yul\":12391:12409   */\n      add\n        /* \"#utility.yul\":12382:12388   */\n      dup5\n        /* \"#utility.yul\":12338:12410   */\n      tag_421\n      jump\t// in\n    tag_458:\n        /* \"#utility.yul\":11868:12417   */\n      swap6\n      swap5\n      pop\n      pop\n      pop\n      pop\n      pop\n      jump\t// out\n        /* \"#utility.yul\":12423:12842   */\n    tag_50:\n        /* \"#utility.yul\":12589:12593   */\n      0x00\n        /* \"#utility.yul\":12627:12629   */\n      0x20\n        /* \"#utility.yul\":12616:12625   */\n      dup3\n        /* \"#utility.yul\":12612:12630   */\n      add\n        /* \"#utility.yul\":12604:12630   */\n      swap1\n      pop\n        /* \"#utility.yul\":12676:12685   */\n      dup2\n        /* \"#utility.yul\":12670:12674   */\n      dup2\n        /* \"#utility.yul\":12666:12686   */\n      sub\n        /* \"#utility.yul\":12662:12663   */\n      0x00\n        /* \"#utility.yul\":12651:12660   */\n      dup4\n        /* \"#utility.yul\":12647:12664   */\n      add\n        /* \"#utility.yul\":12640:12687   */\n      mstore\n        /* \"#utility.yul\":12704:12835   */\n      tag_460\n        /* \"#utility.yul\":12830:12834   */\n      dup2\n        /* \"#utility.yul\":12704:12835   */\n      tag_390\n      jump\t// in\n    tag_460:\n        /* \"#utility.yul\":12696:12835   */\n      swap1\n      pop\n        /* \"#utility.yul\":12423:12842   */\n      swap2\n      swap1\n      pop\n      jump\t// out\n        /* \"#utility.yul\":12848:13267   */\n    tag_181:\n        /* \"#utility.yul\":13014:13018   */\n      0x00\n        /* \"#utility.yul\":13052:13054   */\n      0x20\n        /* \"#utility.yul\":13041:13050   */\n      dup3\n        /* \"#utility.yul\":13037:13055   */\n      add\n        /* \"#utility.yul\":13029:13055   */\n      swap1\n      pop\n        /* \"#utility.yul\":13101:13110   */\n      dup2\n        /* \"#utility.yul\":13095:13099   */\n      dup2\n        /* \"#utility.yul\":13091:13111   */\n      sub\n        /* \"#utility.yul\":13087:13088   */\n      0x00\n        /* \"#utility.yul\":13076:13085   */\n      dup4\n        /* \"#utility.yul\":13072:13089   */\n      add\n        /* \"#utility.yul\":13065:13112   */\n      mstore\n        /* \"#utility.yul\":13129:13260   */\n      tag_462\n        /* \"#utility.yul\":13255:13259   */\n      dup2\n        /* \"#utility.yul\":13129:13260   */\n      tag_396\n      jump\t// in\n    tag_462:\n        /* \"#utility.yul\":13121:13260   */\n      swap1\n      pop\n        /* \"#utility.yul\":12848:13267   */\n      swap2\n      swap1\n      pop\n      jump\t// out\n        /* \"#utility.yul\":13273:13692   */\n    tag_112:\n        /* \"#utility.yul\":13439:13443   */\n      0x00\n        /* \"#utility.yul\":13477:13479   */\n      0x20\n        /* \"#utility.yul\":13466:13475   */\n      dup3\n        /* \"#utility.yul\":13462:13480   */\n      add\n        /* \"#utility.yul\":13454:13480   */\n      swap1\n      pop\n        /* \"#utility.yul\":13526:13535   */\n      dup2\n        /* \"#utility.yul\":13520:13524   */\n      dup2\n        /* \"#utility.yul\":13516:13536   */\n      sub\n        /* \"#utility.yul\":13512:13513   */\n      0x00\n        /* \"#utility.yul\":13501:13510   */\n      dup4\n        /* \"#utility.yul\":13497:13514   */\n      add\n        /* \"#utility.yul\":13490:13537   */\n      mstore\n        /* \"#utility.yul\":13554:13685   */\n      tag_464\n        /* \"#utility.yul\":13680:13684   */\n      dup2\n        /* \"#utility.yul\":13554:13685   */\n      tag_401\n      jump\t// in\n    tag_464:\n        /* \"#utility.yul\":13546:13685   */\n      swap1\n      pop\n        /* \"#utility.yul\":13273:13692   */\n      swap2\n      swap1\n      pop\n      jump\t// out\n        /* \"#utility.yul\":13698:14117   */\n    tag_77:\n        /* \"#utility.yul\":13864:13868   */\n      0x00\n        /* \"#utility.yul\":13902:13904   */\n      0x20\n        /* \"#utility.yul\":13891:13900   */\n      dup3\n        /* \"#utility.yul\":13887:13905   */\n      add\n        /* \"#utility.yul\":13879:13905   */\n      swap1\n      pop\n        /* \"#utility.yul\":13951:13960   */\n      dup2\n        /* \"#utility.yul\":13945:13949   */\n      dup2\n        /* \"#utility.yul\":13941:13961   */\n      sub\n        /* \"#utility.yul\":13937:13938   */\n      0x00\n        /* \"#utility.yul\":13926:13935   */\n      dup4\n        /* \"#utility.yul\":13922:13939   */\n      add\n        /* \"#utility.yul\":13915:13962   */\n      mstore\n        /* \"#utility.yul\":13979:14110   */\n      tag_466\n        /* \"#utility.yul\":14105:14109   */\n      dup2\n        /* \"#utility.yul\":13979:14110   */\n      tag_406\n      jump\t// in\n    tag_466:\n        /* \"#utility.yul\":13971:14110   */\n      swap1\n      pop\n        /* \"#utility.yul\":13698:14117   */\n      swap2\n      swap1\n      pop\n      jump\t// out\n        /* \"#utility.yul\":14123:14542   */\n    tag_145:\n        /* \"#utility.yul\":14289:14293   */\n      0x00\n        /* \"#utility.yul\":14327:14329   */\n      0x20\n        /* \"#utility.yul\":14316:14325   */\n      dup3\n        /* \"#utility.yul\":14312:14330   */\n      add\n        /* \"#utility.yul\":14304:14330   */\n      swap1\n      pop\n        /* \"#utility.yul\":14376:14385   */\n      dup2\n        /* \"#utility.yul\":14370:14374   */\n      dup2\n        /* \"#utility.yul\":14366:14386   */\n      sub\n        /* \"#utility.yul\":14362:14363   */\n      0x00\n        /* \"#utility.yul\":14351:14360   */\n      dup4\n        /* \"#utility.yul\":14347:14364   */\n      add\n        /* \"#utility.yul\":14340:14387   */\n      mstore\n        /* \"#utility.yul\":14404:14535   */\n      tag_468\n        /* \"#utility.yul\":14530:14534   */\n      dup2\n        /* \"#utility.yul\":14404:14535   */\n      tag_411\n      jump\t// in\n    tag_468:\n        /* \"#utility.yul\":14396:14535   */\n      swap1\n      pop\n        /* \"#utility.yul\":14123:14542   */\n      swap2\n      swap1\n      pop\n      jump\t// out\n        /* \"#utility.yul\":14548:14967   */\n    tag_54:\n        /* \"#utility.yul\":14714:14718   */\n      0x00\n        /* \"#utility.yul\":14752:14754   */\n      0x20\n        /* \"#utility.yul\":14741:14750   */\n      dup3\n        /* \"#utility.yul\":14737:14755   */\n      add\n        /* \"#utility.yul\":14729:14755   */\n      swap1\n      pop\n        /* \"#utility.yul\":14801:14810   */\n      dup2\n        /* \"#utility.yul\":14795:14799   */\n      dup2\n        /* \"#utility.yul\":14791:14811   */\n      sub\n        /* \"#utility.yul\":14787:14788   */\n      0x00\n        /* \"#utility.yul\":14776:14785   */\n      dup4\n        /* \"#utility.yul\":14772:14789   */\n      add\n        /* \"#utility.yul\":14765:14812   */\n      mstore\n        /* \"#utility.yul\":14829:14960   */\n      tag_470\n        /* \"#utility.yul\":14955:14959   */\n      dup2\n        /* \"#utility.yul\":14829:14960   */\n      tag_416\n      jump\t// in\n    tag_470:\n        /* \"#utility.yul\":14821:14960   */\n      swap1\n      pop\n        /* \"#utility.yul\":14548:14967   */\n      swap2\n      swap1\n      pop\n      jump\t// out\n        /* \"#utility.yul\":14973:15195   */\n    tag_31:\n        /* \"#utility.yul\":15066:15070   */\n      0x00\n        /* \"#utility.yul\":15104:15106   */\n      0x20\n        /* \"#utility.yul\":15093:15102   */\n      dup3\n        /* \"#utility.yul\":15089:15107   */\n      add\n        /* \"#utility.yul\":15081:15107   */\n      swap1\n      pop\n        /* \"#utility.yul\":15117:15188   */\n      tag_472\n        /* \"#utility.yul\":15185:15186   */\n      0x00\n        /* \"#utility.yul\":15174:15183   */\n      dup4\n        /* \"#utility.yul\":15170:15187   */\n      add\n        /* \"#utility.yul\":15161:15167   */\n      dup5\n        /* \"#utility.yul\":15117:15188   */\n      tag_421\n      jump\t// in\n    tag_472:\n        /* \"#utility.yul\":14973:15195   */\n      swap3\n      swap2\n      pop\n      pop\n      jump\t// out\n        /* \"#utility.yul\":15201:15330   */\n    tag_284:\n        /* \"#utility.yul\":15235:15241   */\n      0x00\n        /* \"#utility.yul\":15262:15282   */\n      tag_474\n      tag_475\n      jump\t// in\n    tag_474:\n        /* \"#utility.yul\":15252:15282   */\n      swap1\n      pop\n        /* \"#utility.yul\":15291:15324   */\n      tag_476\n        /* \"#utility.yul\":15319:15323   */\n      dup3\n        /* \"#utility.yul\":15311:15317   */\n      dup3\n        /* \"#utility.yul\":15291:15324   */\n      tag_477\n      jump\t// in\n    tag_476:\n        /* \"#utility.yul\":15201:15330   */\n      swap2\n      swap1\n      pop\n      jump\t// out\n        /* \"#utility.yul\":15336:15411   */\n    tag_475:\n        /* \"#utility.yul\":15369:15375   */\n      0x00\n        /* \"#utility.yul\":15402:15404   */\n      0x40\n        /* \"#utility.yul\":15396:15405   */\n      mload\n        /* \"#utility.yul\":15386:15405   */\n      swap1\n      pop\n        /* \"#utility.yul\":15336:15411   */\n      swap1\n      jump\t// out\n        /* \"#utility.yul\":15417:15725   */\n    tag_283:\n        /* \"#utility.yul\":15479:15483   */\n      0x00\n        /* \"#utility.yul\":15569:15587   */\n      0xffffffffffffffff\n        /* \"#utility.yul\":15561:15567   */\n      dup3\n        /* \"#utility.yul\":15558:15588   */\n      gt\n        /* \"#utility.yul\":15555:15611   */\n      iszero\n      tag_480\n      jumpi\n        /* \"#utility.yul\":15591:15609   */\n      tag_481\n      tag_482\n      jump\t// in\n    tag_481:\n        /* \"#utility.yul\":15555:15611   */\n    tag_480:\n        /* \"#utility.yul\":15629:15658   */\n      tag_483\n        /* \"#utility.yul\":15651:15657   */\n      dup3\n        /* \"#utility.yul\":15629:15658   */\n      tag_376\n      jump\t// in\n    tag_483:\n        /* \"#utility.yul\":15621:15658   */\n      swap1\n      pop\n        /* \"#utility.yul\":15713:15717   */\n      0x20\n        /* \"#utility.yul\":15707:15711   */\n      dup2\n        /* \"#utility.yul\":15703:15718   */\n      add\n        /* \"#utility.yul\":15695:15718   */\n      swap1\n      pop\n        /* \"#utility.yul\":15417:15725   */\n      swap2\n      swap1\n      pop\n      jump\t// out\n        /* \"#utility.yul\":15731:15829   */\n    tag_370:\n        /* \"#utility.yul\":15782:15788   */\n      0x00\n        /* \"#utility.yul\":15816:15821   */\n      dup2\n        /* \"#utility.yul\":15810:15822   */\n      mload\n        /* \"#utility.yul\":15800:15822   */\n      swap1\n      pop\n        /* \"#utility.yul\":15731:15829   */\n      swap2\n      swap1\n      pop\n      jump\t// out\n        /* \"#utility.yul\":15835:15934   */\n    tag_386:\n        /* \"#utility.yul\":15887:15893   */\n      0x00\n        /* \"#utility.yul\":15921:15926   */\n      dup2\n        /* \"#utility.yul\":15915:15927   */\n      mload\n        /* \"#utility.yul\":15905:15927   */\n      swap1\n      pop\n        /* \"#utility.yul\":15835:15934   */\n      swap2\n      swap1\n      pop\n      jump\t// out\n        /* \"#utility.yul\":15940:16108   */\n    tag_372:\n        /* \"#utility.yul\":16023:16034   */\n      0x00\n        /* \"#utility.yul\":16057:16063   */\n      dup3\n        /* \"#utility.yul\":16052:16055   */\n      dup3\n        /* \"#utility.yul\":16045:16064   */\n      mstore\n        /* \"#utility.yul\":16097:16101   */\n      0x20\n        /* \"#utility.yul\":16092:16095   */\n      dup3\n        /* \"#utility.yul\":16088:16102   */\n      add\n        /* \"#utility.yul\":16073:16102   */\n      swap1\n      pop\n        /* \"#utility.yul\":15940:16108   */\n      swap3\n      swap2\n      pop\n      pop\n      jump\t// out\n        /* \"#utility.yul\":16114:16283   */\n    tag_393:\n        /* \"#utility.yul\":16198:16209   */\n      0x00\n        /* \"#utility.yul\":16232:16238   */\n      dup3\n        /* \"#utility.yul\":16227:16230   */\n      dup3\n        /* \"#utility.yul\":16220:16239   */\n      mstore\n        /* \"#utility.yul\":16272:16276   */\n      0x20\n        /* \"#utility.yul\":16267:16270   */\n      dup3\n        /* \"#utility.yul\":16263:16277   */\n      add\n        /* \"#utility.yul\":16248:16277   */\n      swap1\n      pop\n        /* \"#utility.yul\":16114:16283   */\n      swap3\n      swap2\n      pop\n      pop\n      jump\t// out\n        /* \"#utility.yul\":16289:16437   */\n    tag_388:\n        /* \"#utility.yul\":16391:16402   */\n      0x00\n        /* \"#utility.yul\":16428:16431   */\n      dup2\n        /* \"#utility.yul\":16413:16431   */\n      swap1\n      pop\n        /* \"#utility.yul\":16289:16437   */\n      swap3\n      swap2\n      pop\n      pop\n      jump\t// out\n        /* \"#utility.yul\":16443:16748   */\n    tag_131:\n        /* \"#utility.yul\":16483:16486   */\n      0x00\n        /* \"#utility.yul\":16502:16522   */\n      tag_490\n        /* \"#utility.yul\":16520:16521   */\n      dup3\n        /* \"#utility.yul\":16502:16522   */\n      tag_424\n      jump\t// in\n    tag_490:\n        /* \"#utility.yul\":16497:16522   */\n      swap2\n      pop\n        /* \"#utility.yul\":16536:16556   */\n      tag_491\n        /* \"#utility.yul\":16554:16555   */\n      dup4\n        /* \"#utility.yul\":16536:16556   */\n      tag_424\n      jump\t// in\n    tag_491:\n        /* \"#utility.yul\":16531:16556   */\n      swap3\n      pop\n        /* \"#utility.yul\":16690:16691   */\n      dup3\n        /* \"#utility.yul\":16622:16688   */\n      0xffffffffffffffffffffffffffffffffffffffffffffffffffffffffffffffff\n        /* \"#utility.yul\":16618:16692   */\n      sub\n        /* \"#utility.yul\":16615:16616   */\n      dup3\n        /* \"#utility.yul\":16612:16693   */\n      gt\n        /* \"#utility.yul\":16609:16716   */\n      iszero\n      tag_492\n      jumpi\n        /* \"#utility.yul\":16696:16714   */\n      tag_493\n      tag_494\n      jump\t// in\n    tag_493:\n        /* \"#utility.yul\":16609:16716   */\n    tag_492:\n        /* \"#utility.yul\":16740:16741   */\n      dup3\n        /* \"#utility.yul\":16737:16738   */\n      dup3\n        /* \"#utility.yul\":16733:16742   */\n      add\n        /* \"#utility.yul\":16726:16742   */\n      swap1\n      pop\n        /* \"#utility.yul\":16443:16748   */\n      swap3\n      swap2\n      pop\n      pop\n      jump\t// out\n        /* \"#utility.yul\":16754:16939   */\n    tag_96:\n        /* \"#utility.yul\":16794:16795   */\n      0x00\n        /* \"#utility.yul\":16811:16831   */\n      tag_496\n        /* \"#utility.yul\":16829:16830   */\n      dup3\n        /* \"#utility.yul\":16811:16831   */\n      tag_424\n      jump\t// in\n    tag_496:\n        /* \"#utility.yul\":16806:16831   */\n      swap2\n      pop\n        /* \"#utility.yul\":16845:16865   */\n      tag_497\n        /* \"#utility.yul\":16863:16864   */\n      dup4\n        /* \"#utility.yul\":16845:16865   */\n      tag_424\n      jump\t// in\n    tag_497:\n        /* \"#utility.yul\":16840:16865   */\n      swap3\n      pop\n        /* \"#utility.yul\":16884:16885   */\n      dup3\n        /* \"#utility.yul\":16874:16909   */\n      tag_498\n      jumpi\n        /* \"#utility.yul\":16889:16907   */\n      tag_499\n      tag_500\n      jump\t// in\n    tag_499:\n        /* \"#utility.yul\":16874:16909   */\n    tag_498:\n        /* \"#utility.yul\":16931:16932   */\n      dup3\n        /* \"#utility.yul\":16928:16929   */\n      dup3\n        /* \"#utility.yul\":16924:16933   */\n      div\n        /* \"#utility.yul\":16919:16933   */\n      swap1\n      pop\n        /* \"#utility.yul\":16754:16939   */\n      swap3\n      swap2\n      pop\n      pop\n      jump\t// out\n        /* \"#utility.yul\":16945:17793   */\n    tag_501:\n        /* \"#utility.yul\":17006:17011   */\n      0x00\n        /* \"#utility.yul\":17013:17017   */\n      dup1\n        /* \"#utility.yul\":17037:17043   */\n      dup3\n        /* \"#utility.yul\":17028:17043   */\n      swap2\n      pop\n        /* \"#utility.yul\":17061:17066   */\n      dup4\n        /* \"#utility.yul\":17052:17066   */\n      swap1\n      pop\n        /* \"#utility.yul\":17075:17787   */\n    tag_503:\n        /* \"#utility.yul\":17096:17097   */\n      0x01\n        /* \"#utility.yul\":17086:17094   */\n      dup6\n        /* \"#utility.yul\":17083:17098   */\n      gt\n        /* \"#utility.yul\":17075:17787   */\n      iszero\n      tag_505\n      jumpi\n        /* \"#utility.yul\":17191:17195   */\n      dup1\n        /* \"#utility.yul\":17186:17189   */\n      dup7\n        /* \"#utility.yul\":17182:17196   */\n      div\n        /* \"#utility.yul\":17176:17180   */\n      dup2\n        /* \"#utility.yul\":17173:17197   */\n      gt\n        /* \"#utility.yul\":17170:17220   */\n      iszero\n      tag_506\n      jumpi\n        /* \"#utility.yul\":17200:17218   */\n      tag_507\n      tag_494\n      jump\t// in\n    tag_507:\n        /* \"#utility.yul\":17170:17220   */\n    tag_506:\n        /* \"#utility.yul\":17250:17251   */\n      0x01\n        /* \"#utility.yul\":17240:17248   */\n      dup6\n        /* \"#utility.yul\":17236:17252   */\n      and\n        /* \"#utility.yul\":17233:17684   */\n      iszero\n      tag_508\n      jumpi\n        /* \"#utility.yul\":17665:17669   */\n      dup1\n        /* \"#utility.yul\":17658:17663   */\n      dup3\n        /* \"#utility.yul\":17654:17670   */\n      mul\n        /* \"#utility.yul\":17645:17670   */\n      swap2\n      pop\n        /* \"#utility.yul\":17233:17684   */\n    tag_508:\n        /* \"#utility.yul\":17715:17719   */\n      dup1\n        /* \"#utility.yul\":17709:17713   */\n      dup2\n        /* \"#utility.yul\":17705:17720   */\n      mul\n        /* \"#utility.yul\":17697:17720   */\n      swap1\n      pop\n        /* \"#utility.yul\":17745:17777   */\n      tag_509\n        /* \"#utility.yul\":17768:17776   */\n      dup6\n        /* \"#utility.yul\":17745:17777   */\n      tag_510\n      jump\t// in\n    tag_509:\n        /* \"#utility.yul\":17733:17777   */\n      swap5\n      pop\n        /* \"#utility.yul\":17075:17787   */\n      jump(tag_503)\n    tag_505:\n        /* \"#utility.yul\":16945:17793   */\n      swap5\n      pop\n      swap5\n      swap3\n      pop\n      pop\n      pop\n      jump\t// out\n        /* \"#utility.yul\":17799:18084   */\n    tag_269:\n        /* \"#utility.yul\":17859:17864   */\n      0x00\n        /* \"#utility.yul\":17883:17906   */\n      tag_512\n        /* \"#utility.yul\":17901:17905   */\n      dup3\n        /* \"#utility.yul\":17883:17906   */\n      tag_424\n      jump\t// in\n    tag_512:\n        /* \"#utility.yul\":17875:17906   */\n      swap2\n      pop\n        /* \"#utility.yul\":17927:17954   */\n      tag_513\n        /* \"#utility.yul\":17945:17953   */\n      dup4\n        /* \"#utility.yul\":17927:17954   */\n      tag_424\n      jump\t// in\n    tag_513:\n        /* \"#utility.yul\":17915:17954   */\n      swap3\n      pop\n        /* \"#utility.yul\":17973:18077   */\n      tag_514\n        /* \"#utility.yul\":18010:18076   */\n      0xffffffffffffffffffffffffffffffffffffffffffffffffffffffffffffffff\n        /* \"#utility.yul\":18000:18008   */\n      dup5\n        /* \"#utility.yul\":17994:17998   */\n      dup5\n        /* \"#utility.yul\":17973:18077   */\n      tag_515\n      jump\t// in\n    tag_514:\n        /* \"#utility.yul\":17964:18077   */\n      swap1\n      pop\n        /* \"#utility.yul\":17799:18084   */\n      swap3\n      swap2\n      pop\n      pop\n      jump\t// out\n        /* \"#utility.yul\":18090:19163   */\n    tag_515:\n        /* \"#utility.yul\":18144:18149   */\n      0x00\n        /* \"#utility.yul\":18335:18343   */\n      dup3\n        /* \"#utility.yul\":18325:18365   */\n      tag_517\n      jumpi\n        /* \"#utility.yul\":18356:18357   */\n      0x01\n        /* \"#utility.yul\":18347:18357   */\n      swap1\n      pop\n        /* \"#utility.yul\":18358:18363   */\n      jump(tag_516)\n        /* \"#utility.yul\":18325:18365   */\n    tag_517:\n        /* \"#utility.yul\":18384:18388   */\n      dup2\n        /* \"#utility.yul\":18374:18410   */\n      tag_518\n      jumpi\n        /* \"#utility.yul\":18401:18402   */\n      0x00\n        /* \"#utility.yul\":18392:18402   */\n      swap1\n      pop\n        /* \"#utility.yul\":18403:18408   */\n      jump(tag_516)\n        /* \"#utility.yul\":18374:18410   */\n    tag_518:\n        /* \"#utility.yul\":18470:18474   */\n      dup2\n        /* \"#utility.yul\":18518:18519   */\n      0x01\n        /* \"#utility.yul\":18513:18540   */\n      dup2\n      eq\n      tag_520\n      jumpi\n        /* \"#utility.yul\":18554:18555   */\n      0x02\n        /* \"#utility.yul\":18549:18740   */\n      dup2\n      eq\n      tag_521\n      jumpi\n        /* \"#utility.yul\":18463:18740   */\n      jump(tag_519)\n        /* \"#utility.yul\":18513:18540   */\n    tag_520:\n        /* \"#utility.yul\":18531:18532   */\n      0x01\n        /* \"#utility.yul\":18522:18532   */\n      swap2\n      pop\n        /* \"#utility.yul\":18533:18538   */\n      pop\n      jump(tag_516)\n        /* \"#utility.yul\":18549:18740   */\n    tag_521:\n        /* \"#utility.yul\":18594:18597   */\n      0xff\n        /* \"#utility.yul\":18584:18592   */\n      dup5\n        /* \"#utility.yul\":18581:18598   */\n      gt\n        /* \"#utility.yul\":18578:18621   */\n      iszero\n      tag_522\n      jumpi\n        /* \"#utility.yul\":18601:18619   */\n      tag_523\n      tag_494\n      jump\t// in\n    tag_523:\n        /* \"#utility.yul\":18578:18621   */\n    tag_522:\n        /* \"#utility.yul\":18650:18658   */\n      dup4\n        /* \"#utility.yul\":18647:18648   */\n      0x02\n        /* \"#utility.yul\":18643:18659   */\n      exp\n        /* \"#utility.yul\":18634:18659   */\n      swap2\n      pop\n        /* \"#utility.yul\":18685:18688   */\n      dup5\n        /* \"#utility.yul\":18678:18683   */\n      dup3\n        /* \"#utility.yul\":18675:18689   */\n      gt\n        /* \"#utility.yul\":18672:18712   */\n      iszero\n      tag_524\n      jumpi\n        /* \"#utility.yul\":18692:18710   */\n      tag_525\n      tag_494\n      jump\t// in\n    tag_525:\n        /* \"#utility.yul\":18672:18712   */\n    tag_524:\n        /* \"#utility.yul\":18725:18730   */\n      pop\n      jump(tag_516)\n        /* \"#utility.yul\":18463:18740   */\n    tag_519:\n      pop\n        /* \"#utility.yul\":18849:18851   */\n      0x20\n        /* \"#utility.yul\":18839:18847   */\n      dup4\n        /* \"#utility.yul\":18836:18852   */\n      lt\n        /* \"#utility.yul\":18830:18833   */\n      0x0133\n        /* \"#utility.yul\":18824:18828   */\n      dup4\n        /* \"#utility.yul\":18821:18834   */\n      lt\n        /* \"#utility.yul\":18817:18853   */\n      and\n        /* \"#utility.yul\":18799:18801   */\n      0x4e\n        /* \"#utility.yul\":18789:18797   */\n      dup5\n        /* \"#utility.yul\":18786:18802   */\n      lt\n        /* \"#utility.yul\":18781:18783   */\n      0x0b\n        /* \"#utility.yul\":18775:18779   */\n      dup5\n        /* \"#utility.yul\":18772:18784   */\n      lt\n        /* \"#utility.yul\":18768:18803   */\n      and\n        /* \"#utility.yul\":18752:18863   */\n      or\n        /* \"#utility.yul\":18749:18995   */\n      iszero\n      tag_526\n      jumpi\n        /* \"#utility.yul\":18905:18913   */\n      dup3\n        /* \"#utility.yul\":18899:18903   */\n      dup3\n        /* \"#utility.yul\":18895:18914   */\n      exp\n        /* \"#utility.yul\":18886:18914   */\n      swap1\n      pop\n        /* \"#utility.yul\":18940:18943   */\n      dup4\n        /* \"#utility.yul\":18933:18938   */\n      dup2\n        /* \"#utility.yul\":18930:18944   */\n      gt\n        /* \"#utility.yul\":18927:18967   */\n      iszero\n      tag_527\n      jumpi\n        /* \"#utility.yul\":18947:18965   */\n      tag_528\n      tag_494\n      jump\t// in\n    tag_528:\n        /* \"#utility.yul\":18927:18967   */\n    tag_527:\n        /* \"#utility.yul\":18980:18985   */\n      jump(tag_516)\n        /* \"#utility.yul\":18749:18995   */\n    tag_526:\n        /* \"#utility.yul\":19020:19062   */\n      tag_529\n        /* \"#utility.yul\":19058:19061   */\n      dup5\n        /* \"#utility.yul\":19048:19056   */\n      dup5\n        /* \"#utility.yul\":19042:19046   */\n      dup5\n        /* \"#utility.yul\":19039:19040   */\n      0x01\n        /* \"#utility.yul\":19020:19062   */\n      tag_501\n      jump\t// in\n    tag_529:\n        /* \"#utility.yul\":19005:19062   */\n      swap3\n      pop\n      swap1\n      pop\n        /* \"#utility.yul\":19094:19098   */\n      dup2\n        /* \"#utility.yul\":19089:19092   */\n      dup5\n        /* \"#utility.yul\":19085:19099   */\n      div\n        /* \"#utility.yul\":19078:19083   */\n      dup2\n        /* \"#utility.yul\":19075:19100   */\n      gt\n        /* \"#utility.yul\":19072:19123   */\n      iszero\n      tag_530\n      jumpi\n        /* \"#utility.yul\":19103:19121   */\n      tag_531\n      tag_494\n      jump\t// in\n    tag_531:\n        /* \"#utility.yul\":19072:19123   */\n    tag_530:\n        /* \"#utility.yul\":19152:19156   */\n      dup2\n        /* \"#utility.yul\":19145:19150   */\n      dup2\n        /* \"#utility.yul\":19141:19157   */\n      mul\n        /* \"#utility.yul\":19132:19157   */\n      swap1\n      pop\n        /* \"#utility.yul\":18090:19163   */\n    tag_516:\n      swap4\n      swap3\n      pop\n      pop\n      pop\n      jump\t// out\n        /* \"#utility.yul\":19169:19517   */\n    tag_94:\n        /* \"#utility.yul\":19209:19216   */\n      0x00\n        /* \"#utility.yul\":19232:19252   */\n      tag_533\n        /* \"#utility.yul\":19250:19251   */\n      dup3\n        /* \"#utility.yul\":19232:19252   */\n      tag_424\n      jump\t// in\n    tag_533:\n        /* \"#utility.yul\":19227:19252   */\n      swap2\n      pop\n        /* \"#utility.yul\":19266:19286   */\n      tag_534\n        /* \"#utility.yul\":19284:19285   */\n      dup4\n        /* \"#utility.yul\":19266:19286   */\n      tag_424\n      jump\t// in\n    tag_534:\n        /* \"#utility.yul\":19261:19286   */\n      swap3\n      pop\n        /* \"#utility.yul\":19454:19455   */\n      dup2\n        /* \"#utility.yul\":19386:19452   */\n      0xffffffffffffffffffffffffffffffffffffffffffffffffffffffffffffffff\n        /* \"#utility.yul\":19382:19456   */\n      div\n        /* \"#utility.yul\":19379:19380   */\n      dup4\n        /* \"#utility.yul\":19376:19457   */\n      gt\n        /* \"#utility.yul\":19371:19372   */\n      dup3\n        /* \"#utility.yul\":19364:19373   */\n      iszero\n        /* \"#utility.yul\":19357:19374   */\n      iszero\n        /* \"#utility.yul\":19353:19458   */\n      and\n        /* \"#utility.yul\":19350:19481   */\n      iszero\n      tag_535\n      jumpi\n        /* \"#utility.yul\":19461:19479   */\n      tag_536\n      tag_494\n      jump\t// in\n    tag_536:\n        /* \"#utility.yul\":19350:19481   */\n    tag_535:\n        /* \"#utility.yul\":19509:19510   */\n      dup3\n        /* \"#utility.yul\":19506:19507   */\n      dup3\n        /* \"#utility.yul\":19502:19511   */\n      mul\n        /* \"#utility.yul\":19491:19511   */\n      swap1\n      pop\n        /* \"#utility.yul\":19169:19517   */\n      swap3\n      swap2\n      pop\n      pop\n      jump\t// out\n        /* \"#utility.yul\":19523:20050   */\n    tag_169:\n        /* \"#utility.yul\":19562:19566   */\n      0x00\n        /* \"#utility.yul\":19582:19601   */\n      tag_538\n        /* \"#utility.yul\":19599:19600   */\n      dup3\n        /* \"#utility.yul\":19582:19601   */\n      tag_539\n      jump\t// in\n    tag_538:\n        /* \"#utility.yul\":19577:19601   */\n      swap2\n      pop\n        /* \"#utility.yul\":19615:19634   */\n      tag_540\n        /* \"#utility.yul\":19632:19633   */\n      dup4\n        /* \"#utility.yul\":19615:19634   */\n      tag_539\n      jump\t// in\n    tag_540:\n        /* \"#utility.yul\":19610:19634   */\n      swap3\n      pop\n        /* \"#utility.yul\":19804:19805   */\n      dup3\n        /* \"#utility.yul\":19736:19802   */\n      0x8000000000000000000000000000000000000000000000000000000000000000\n        /* \"#utility.yul\":19732:19806   */\n      add\n        /* \"#utility.yul\":19729:19730   */\n      dup3\n        /* \"#utility.yul\":19725:19807   */\n      slt\n        /* \"#utility.yul\":19720:19721   */\n      0x00\n        /* \"#utility.yul\":19717:19718   */\n      dup5\n        /* \"#utility.yul\":19713:19722   */\n      slt\n        /* \"#utility.yul\":19706:19723   */\n      iszero\n        /* \"#utility.yul\":19702:19808   */\n      and\n        /* \"#utility.yul\":19699:19831   */\n      iszero\n      tag_541\n      jumpi\n        /* \"#utility.yul\":19811:19829   */\n      tag_542\n      tag_494\n      jump\t// in\n    tag_542:\n        /* \"#utility.yul\":19699:19831   */\n    tag_541:\n        /* \"#utility.yul\":19990:19991   */\n      dup3\n        /* \"#utility.yul\":19922:19988   */\n      0x7fffffffffffffffffffffffffffffffffffffffffffffffffffffffffffffff\n        /* \"#utility.yul\":19918:19992   */\n      add\n        /* \"#utility.yul\":19915:19916   */\n      dup3\n        /* \"#utility.yul\":19911:19993   */\n      sgt\n        /* \"#utility.yul\":19907:19908   */\n      0x00\n        /* \"#utility.yul\":19904:19905   */\n      dup5\n        /* \"#utility.yul\":19900:19909   */\n      slt\n        /* \"#utility.yul\":19896:19994   */\n      and\n        /* \"#utility.yul\":19893:20017   */\n      iszero\n      tag_543\n      jumpi\n        /* \"#utility.yul\":19997:20015   */\n      tag_544\n      tag_494\n      jump\t// in\n    tag_544:\n        /* \"#utility.yul\":19893:20017   */\n    tag_543:\n        /* \"#utility.yul\":20042:20043   */\n      dup3\n        /* \"#utility.yul\":20039:20040   */\n      dup3\n        /* \"#utility.yul\":20035:20044   */\n      sub\n        /* \"#utility.yul\":20027:20044   */\n      swap1\n      pop\n        /* \"#utility.yul\":19523:20050   */\n      swap3\n      swap2\n      pop\n      pop\n      jump\t// out\n        /* \"#utility.yul\":20056:20247   */\n    tag_190:\n        /* \"#utility.yul\":20096:20100   */\n      0x00\n        /* \"#utility.yul\":20116:20136   */\n      tag_546\n        /* \"#utility.yul\":20134:20135   */\n      dup3\n        /* \"#utility.yul\":20116:20136   */\n      tag_424\n      jump\t// in\n    tag_546:\n        /* \"#utility.yul\":20111:20136   */\n      swap2\n      pop\n        /* \"#utility.yul\":20150:20170   */\n      tag_547\n        /* \"#utility.yul\":20168:20169   */\n      dup4\n        /* \"#utility.yul\":20150:20170   */\n      tag_424\n      jump\t// in\n    tag_547:\n        /* \"#utility.yul\":20145:20170   */\n      swap3\n      pop\n        /* \"#utility.yul\":20189:20190   */\n      dup3\n        /* \"#utility.yul\":20186:20187   */\n      dup3\n        /* \"#utility.yul\":20183:20191   */\n      lt\n        /* \"#utility.yul\":20180:20214   */\n      iszero\n      tag_548\n      jumpi\n        /* \"#utility.yul\":20194:20212   */\n      tag_549\n      tag_494\n      jump\t// in\n    tag_549:\n        /* \"#utility.yul\":20180:20214   */\n    tag_548:\n        /* \"#utility.yul\":20239:20240   */\n      dup3\n        /* \"#utility.yul\":20236:20237   */\n      dup3\n        /* \"#utility.yul\":20232:20241   */\n      sub\n        /* \"#utility.yul\":20224:20241   */\n      swap1\n      pop\n        /* \"#utility.yul\":20056:20247   */\n      swap3\n      swap2\n      pop\n      pop\n      jump\t// out\n        /* \"#utility.yul\":20253:20349   */\n    tag_358:\n        /* \"#utility.yul\":20290:20297   */\n      0x00\n        /* \"#utility.yul\":20319:20343   */\n      tag_551\n        /* \"#utility.yul\":20337:20342   */\n      dup3\n        /* \"#utility.yul\":20319:20343   */\n      tag_552\n      jump\t// in\n    tag_551:\n        /* \"#utility.yul\":20308:20343   */\n      swap1\n      pop\n        /* \"#utility.yul\":20253:20349   */\n      swap2\n      swap1\n      pop\n      jump\t// out\n        /* \"#utility.yul\":20355:20445   */\n    tag_553:\n        /* \"#utility.yul\":20389:20396   */\n      0x00\n        /* \"#utility.yul\":20432:20437   */\n      dup2\n        /* \"#utility.yul\":20425:20438   */\n      iszero\n        /* \"#utility.yul\":20418:20439   */\n      iszero\n        /* \"#utility.yul\":20407:20439   */\n      swap1\n      pop\n        /* \"#utility.yul\":20355:20445   */\n      swap2\n      swap1\n      pop\n      jump\t// out\n        /* \"#utility.yul\":20451:20528   */\n    tag_362:\n        /* \"#utility.yul\":20488:20495   */\n      0x00\n        /* \"#utility.yul\":20517:20522   */\n      dup2\n        /* \"#utility.yul\":20506:20522   */\n      swap1\n      pop\n        /* \"#utility.yul\":20451:20528   */\n      swap2\n      swap1\n      pop\n      jump\t// out\n        /* \"#utility.yul\":20534:20683   */\n    tag_366:\n        /* \"#utility.yul\":20570:20577   */\n      0x00\n        /* \"#utility.yul\":20610:20676   */\n      0xffffffff00000000000000000000000000000000000000000000000000000000\n        /* \"#utility.yul\":20603:20608   */\n      dup3\n        /* \"#utility.yul\":20599:20677   */\n      and\n        /* \"#utility.yul\":20588:20677   */\n      swap1\n      pop\n        /* \"#utility.yul\":20534:20683   */\n      swap2\n      swap1\n      pop\n      jump\t// out\n        /* \"#utility.yul\":20689:20765   */\n    tag_539:\n        /* \"#utility.yul\":20725:20732   */\n      0x00\n        /* \"#utility.yul\":20754:20759   */\n      dup2\n        /* \"#utility.yul\":20743:20759   */\n      swap1\n      pop\n        /* \"#utility.yul\":20689:20765   */\n      swap2\n      swap1\n      pop\n      jump\t// out\n        /* \"#utility.yul\":20771:20897   */\n    tag_552:\n        /* \"#utility.yul\":20808:20815   */\n      0x00\n        /* \"#utility.yul\":20848:20890   */\n      0xffffffffffffffffffffffffffffffffffffffff\n        /* \"#utility.yul\":20841:20846   */\n      dup3\n        /* \"#utility.yul\":20837:20891   */\n      and\n        /* \"#utility.yul\":20826:20891   */\n      swap1\n      pop\n        /* \"#utility.yul\":20771:20897   */\n      swap2\n      swap1\n      pop\n      jump\t// out\n        /* \"#utility.yul\":20903:20980   */\n    tag_424:\n        /* \"#utility.yul\":20940:20947   */\n      0x00\n        /* \"#utility.yul\":20969:20974   */\n      dup2\n        /* \"#utility.yul\":20958:20974   */\n      swap1\n      pop\n        /* \"#utility.yul\":20903:20980   */\n      swap2\n      swap1\n      pop\n      jump\t// out\n        /* \"#utility.yul\":20986:21135   */\n    tag_381:\n        /* \"#utility.yul\":21059:21068   */\n      0x00\n        /* \"#utility.yul\":21092:21129   */\n      tag_561\n        /* \"#utility.yul\":21123:21128   */\n      dup3\n        /* \"#utility.yul\":21092:21129   */\n      tag_562\n      jump\t// in\n    tag_561:\n        /* \"#utility.yul\":21079:21129   */\n      swap1\n      pop\n        /* \"#utility.yul\":20986:21135   */\n      swap2\n      swap1\n      pop\n      jump\t// out\n        /* \"#utility.yul\":21141:21267   */\n    tag_562:\n        /* \"#utility.yul\":21191:21200   */\n      0x00\n        /* \"#utility.yul\":21224:21261   */\n      tag_564\n        /* \"#utility.yul\":21255:21260   */\n      dup3\n        /* \"#utility.yul\":21224:21261   */\n      tag_565\n      jump\t// in\n    tag_564:\n        /* \"#utility.yul\":21211:21261   */\n      swap1\n      pop\n        /* \"#utility.yul\":21141:21267   */\n      swap2\n      swap1\n      pop\n      jump\t// out\n        /* \"#utility.yul\":21273:21386   */\n    tag_565:\n        /* \"#utility.yul\":21323:21332   */\n      0x00\n        /* \"#utility.yul\":21356:21380   */\n      tag_567\n        /* \"#utility.yul\":21374:21379   */\n      dup3\n        /* \"#utility.yul\":21356:21380   */\n      tag_552\n      jump\t// in\n    tag_567:\n        /* \"#utility.yul\":21343:21380   */\n      swap1\n      pop\n        /* \"#utility.yul\":21273:21386   */\n      swap2\n      swap1\n      pop\n      jump\t// out\n        /* \"#utility.yul\":21392:21546   */\n    tag_289:\n        /* \"#utility.yul\":21476:21482   */\n      dup3\n        /* \"#utility.yul\":21471:21474   */\n      dup2\n        /* \"#utility.yul\":21466:21469   */\n      dup4\n        /* \"#utility.yul\":21453:21483   */\n      calldatacopy\n        /* \"#utility.yul\":21538:21539   */\n      0x00\n        /* \"#utility.yul\":21529:21535   */\n      dup4\n        /* \"#utility.yul\":21524:21527   */\n      dup4\n        /* \"#utility.yul\":21520:21536   */\n      add\n        /* \"#utility.yul\":21513:21540   */\n      mstore\n        /* \"#utility.yul\":21392:21546   */\n      pop\n      pop\n      pop\n      jump\t// out\n        /* \"#utility.yul\":21552:21859   */\n    tag_374:\n        /* \"#utility.yul\":21620:21621   */\n      0x00\n        /* \"#utility.yul\":21630:21743   */\n    tag_570:\n        /* \"#utility.yul\":21644:21650   */\n      dup4\n        /* \"#utility.yul\":21641:21642   */\n      dup2\n        /* \"#utility.yul\":21638:21651   */\n      lt\n        /* \"#utility.yul\":21630:21743   */\n      iszero\n      tag_572\n      jumpi\n        /* \"#utility.yul\":21729:21730   */\n      dup1\n        /* \"#utility.yul\":21724:21727   */\n      dup3\n        /* \"#utility.yul\":21720:21731   */\n      add\n        /* \"#utility.yul\":21714:21732   */\n      mload\n        /* \"#utility.yul\":21710:21711   */\n      dup2\n        /* \"#utility.yul\":21705:21708   */\n      dup5\n        /* \"#utility.yul\":21701:21712   */\n      add\n        /* \"#utility.yul\":21694:21733   */\n      mstore\n        /* \"#utility.yul\":21666:21668   */\n      0x20\n        /* \"#utility.yul\":21663:21664   */\n      dup2\n        /* \"#utility.yul\":21659:21669   */\n      add\n        /* \"#utility.yul\":21654:21669   */\n      swap1\n      pop\n        /* \"#utility.yul\":21630:21743   */\n      jump(tag_570)\n    tag_572:\n        /* \"#utility.yul\":21761:21767   */\n      dup4\n        /* \"#utility.yul\":21758:21759   */\n      dup2\n        /* \"#utility.yul\":21755:21768   */\n      gt\n        /* \"#utility.yul\":21752:21853   */\n      iszero\n      tag_573\n      jumpi\n        /* \"#utility.yul\":21841:21842   */\n      0x00\n        /* \"#utility.yul\":21832:21838   */\n      dup5\n        /* \"#utility.yul\":21827:21830   */\n      dup5\n        /* \"#utility.yul\":21823:21839   */\n      add\n        /* \"#utility.yul\":21816:21843   */\n      mstore\n        /* \"#utility.yul\":21752:21853   */\n    tag_573:\n        /* \"#utility.yul\":21601:21859   */\n      pop\n        /* \"#utility.yul\":21552:21859   */\n      pop\n      pop\n      pop\n      jump\t// out\n        /* \"#utility.yul\":21865:22146   */\n    tag_477:\n        /* \"#utility.yul\":21948:21975   */\n      tag_575\n        /* \"#utility.yul\":21970:21974   */\n      dup3\n        /* \"#utility.yul\":21948:21975   */\n      tag_376\n      jump\t// in\n    tag_575:\n        /* \"#utility.yul\":21940:21946   */\n      dup2\n        /* \"#utility.yul\":21936:21976   */\n      add\n        /* \"#utility.yul\":22078:22084   */\n      dup2\n        /* \"#utility.yul\":22066:22076   */\n      dup2\n        /* \"#utility.yul\":22063:22085   */\n      lt\n        /* \"#utility.yul\":22042:22060   */\n      0xffffffffffffffff\n        /* \"#utility.yul\":22030:22040   */\n      dup3\n        /* \"#utility.yul\":22027:22061   */\n      gt\n        /* \"#utility.yul\":22024:22086   */\n      or\n        /* \"#utility.yul\":22021:22109   */\n      iszero\n      tag_576\n      jumpi\n        /* \"#utility.yul\":22089:22107   */\n      tag_577\n      tag_482\n      jump\t// in\n    tag_577:\n        /* \"#utility.yul\":22021:22109   */\n    tag_576:\n        /* \"#utility.yul\":22129:22139   */\n      dup1\n        /* \"#utility.yul\":22125:22127   */\n      0x40\n        /* \"#utility.yul\":22118:22140   */\n      mstore\n        /* \"#utility.yul\":21908:22146   */\n      pop\n        /* \"#utility.yul\":21865:22146   */\n      pop\n      pop\n      jump\t// out\n        /* \"#utility.yul\":22152:22252   */\n    tag_382:\n        /* \"#utility.yul\":22191:22198   */\n      0x00\n        /* \"#utility.yul\":22220:22246   */\n      tag_579\n        /* \"#utility.yul\":22240:22245   */\n      dup3\n        /* \"#utility.yul\":22220:22246   */\n      tag_580\n      jump\t// in\n    tag_579:\n        /* \"#utility.yul\":22209:22246   */\n      swap1\n      pop\n        /* \"#utility.yul\":22152:22252   */\n      swap2\n      swap1\n      pop\n      jump\t// out\n        /* \"#utility.yul\":22258:22352   */\n    tag_580:\n        /* \"#utility.yul\":22297:22304   */\n      0x00\n        /* \"#utility.yul\":22326:22346   */\n      tag_582\n        /* \"#utility.yul\":22340:22345   */\n      dup3\n        /* \"#utility.yul\":22326:22346   */\n      tag_583\n      jump\t// in\n    tag_582:\n        /* \"#utility.yul\":22315:22346   */\n      swap1\n      pop\n        /* \"#utility.yul\":22258:22352   */\n      swap2\n      swap1\n      pop\n      jump\t// out\n        /* \"#utility.yul\":22358:22437   */\n    tag_429:\n        /* \"#utility.yul\":22397:22404   */\n      0x00\n        /* \"#utility.yul\":22426:22431   */\n      dup2\n        /* \"#utility.yul\":22415:22431   */\n      swap1\n      pop\n        /* \"#utility.yul\":22358:22437   */\n      swap2\n      swap1\n      pop\n      jump\t// out\n        /* \"#utility.yul\":22443:22619   */\n    tag_186:\n        /* \"#utility.yul\":22475:22476   */\n      0x00\n        /* \"#utility.yul\":22492:22512   */\n      tag_586\n        /* \"#utility.yul\":22510:22511   */\n      dup3\n        /* \"#utility.yul\":22492:22512   */\n      tag_424\n      jump\t// in\n    tag_586:\n        /* \"#utility.yul\":22487:22512   */\n      swap2\n      pop\n        /* \"#utility.yul\":22526:22546   */\n      tag_587\n        /* \"#utility.yul\":22544:22545   */\n      dup4\n        /* \"#utility.yul\":22526:22546   */\n      tag_424\n      jump\t// in\n    tag_587:\n        /* \"#utility.yul\":22521:22546   */\n      swap3\n      pop\n        /* \"#utility.yul\":22565:22566   */\n      dup3\n        /* \"#utility.yul\":22555:22590   */\n      tag_588\n      jumpi\n        /* \"#utility.yul\":22570:22588   */\n      tag_589\n      tag_500\n      jump\t// in\n    tag_589:\n        /* \"#utility.yul\":22555:22590   */\n    tag_588:\n        /* \"#utility.yul\":22611:22612   */\n      dup3\n        /* \"#utility.yul\":22608:22609   */\n      dup3\n        /* \"#utility.yul\":22604:22613   */\n      mod\n        /* \"#utility.yul\":22599:22613   */\n      swap1\n      pop\n        /* \"#utility.yul\":22443:22619   */\n      swap3\n      swap2\n      pop\n      pop\n      jump\t// out\n        /* \"#utility.yul\":22625:22805   */\n    tag_494:\n        /* \"#utility.yul\":22673:22750   */\n      0x4e487b7100000000000000000000000000000000000000000000000000000000\n        /* \"#utility.yul\":22670:22671   */\n      0x00\n        /* \"#utility.yul\":22663:22751   */\n      mstore\n        /* \"#utility.yul\":22770:22774   */\n      0x11\n        /* \"#utility.yul\":22767:22768   */\n      0x04\n        /* \"#utility.yul\":22760:22775   */\n      mstore\n        /* \"#utility.yul\":22794:22798   */\n      0x24\n        /* \"#utility.yul\":22791:22792   */\n      0x00\n        /* \"#utility.yul\":22784:22799   */\n      revert\n        /* \"#utility.yul\":22811:22991   */\n    tag_500:\n        /* \"#utility.yul\":22859:22936   */\n      0x4e487b7100000000000000000000000000000000000000000000000000000000\n        /* \"#utility.yul\":22856:22857   */\n      0x00\n        /* \"#utility.yul\":22849:22937   */\n      mstore\n        /* \"#utility.yul\":22956:22960   */\n      0x12\n        /* \"#utility.yul\":22953:22954   */\n      0x04\n        /* \"#utility.yul\":22946:22961   */\n      mstore\n        /* \"#utility.yul\":22980:22984   */\n      0x24\n        /* \"#utility.yul\":22977:22978   */\n      0x00\n        /* \"#utility.yul\":22970:22985   */\n      revert\n        /* \"#utility.yul\":22997:23177   */\n    tag_482:\n        /* \"#utility.yul\":23045:23122   */\n      0x4e487b7100000000000000000000000000000000000000000000000000000000\n        /* \"#utility.yul\":23042:23043   */\n      0x00\n        /* \"#utility.yul\":23035:23123   */\n      mstore\n        /* \"#utility.yul\":23142:23146   */\n      0x41\n        /* \"#utility.yul\":23139:23140   */\n      0x04\n        /* \"#utility.yul\":23132:23147   */\n      mstore\n        /* \"#utility.yul\":23166:23170   */\n      0x24\n        /* \"#utility.yul\":23163:23164   */\n      0x00\n        /* \"#utility.yul\":23156:23171   */\n      revert\n        /* \"#utility.yul\":23183:23300   */\n    tag_310:\n        /* \"#utility.yul\":23292:23293   */\n      0x00\n        /* \"#utility.yul\":23289:23290   */\n      dup1\n        /* \"#utility.yul\":23282:23294   */\n      revert\n        /* \"#utility.yul\":23306:23423   */\n    tag_287:\n        /* \"#utility.yul\":23415:23416   */\n      0x00\n        /* \"#utility.yul\":23412:23413   */\n      dup1\n        /* \"#utility.yul\":23405:23417   */\n      revert\n        /* \"#utility.yul\":23429:23546   */\n    tag_345:\n        /* \"#utility.yul\":23538:23539   */\n      0x00\n        /* \"#utility.yul\":23535:23536   */\n      dup1\n        /* \"#utility.yul\":23528:23540   */\n      revert\n        /* \"#utility.yul\":23552:23669   */\n    tag_322:\n        /* \"#utility.yul\":23661:23662   */\n      0x00\n        /* \"#utility.yul\":23658:23659   */\n      dup1\n        /* \"#utility.yul\":23651:23663   */\n      revert\n        /* \"#utility.yul\":23675:23777   */\n    tag_376:\n        /* \"#utility.yul\":23716:23722   */\n      0x00\n        /* \"#utility.yul\":23767:23769   */\n      0x1f\n        /* \"#utility.yul\":23763:23770   */\n      not\n        /* \"#utility.yul\":23758:23760   */\n      0x1f\n        /* \"#utility.yul\":23751:23756   */\n      dup4\n        /* \"#utility.yul\":23747:23761   */\n      add\n        /* \"#utility.yul\":23743:23771   */\n      and\n        /* \"#utility.yul\":23733:23771   */\n      swap1\n      pop\n        /* \"#utility.yul\":23675:23777   */\n      swap2\n      swap1\n      pop\n      jump\t// out\n        /* \"#utility.yul\":23783:23877   */\n    tag_583:\n        /* \"#utility.yul\":23816:23824   */\n      0x00\n        /* \"#utility.yul\":23864:23869   */\n      dup2\n        /* \"#utility.yul\":23860:23862   */\n      0x60\n        /* \"#utility.yul\":23856:23870   */\n      shl\n        /* \"#utility.yul\":23835:23870   */\n      swap1\n      pop\n        /* \"#utility.yul\":23783:23877   */\n      swap2\n      swap1\n      pop\n      jump\t// out\n        /* \"#utility.yul\":23883:23985   */\n    tag_510:\n        /* \"#utility.yul\":23925:23933   */\n      0x00\n        /* \"#utility.yul\":23972:23977   */\n      dup2\n        /* \"#utility.yul\":23969:23970   */\n      0x01\n        /* \"#utility.yul\":23965:23978   */\n      shr\n        /* \"#utility.yul\":23944:23978   */\n      swap1\n      pop\n        /* \"#utility.yul\":23883:23985   */\n      swap2\n      swap1\n      pop\n      jump\t// out\n        /* \"#utility.yul\":23991:24163   */\n    tag_395:\n        /* \"#utility.yul\":24131:24155   */\n      0x4d7573742062652070726f706f736564206f776e657200000000000000000000\n        /* \"#utility.yul\":24127:24128   */\n      0x00\n        /* \"#utility.yul\":24119:24125   */\n      dup3\n        /* \"#utility.yul\":24115:24129   */\n      add\n        /* \"#utility.yul\":24108:24156   */\n      mstore\n        /* \"#utility.yul\":23991:24163   */\n      pop\n      jump\t// out\n        /* \"#utility.yul\":24169:24391   */\n    tag_400:\n        /* \"#utility.yul\":24309:24343   */\n      0x756e61626c6520746f207472616e73666572416e6443616c6c20746f206f7261\n        /* \"#utility.yul\":24305:24306   */\n      0x00\n        /* \"#utility.yul\":24297:24303   */\n      dup3\n        /* \"#utility.yul\":24293:24307   */\n      add\n        /* \"#utility.yul\":24286:24344   */\n      mstore\n        /* \"#utility.yul\":24378:24383   */\n      0x636c650000000000000000000000000000000000000000000000000000000000\n        /* \"#utility.yul\":24373:24375   */\n      0x20\n        /* \"#utility.yul\":24365:24371   */\n      dup3\n        /* \"#utility.yul\":24361:24376   */\n      add\n        /* \"#utility.yul\":24354:24384   */\n      mstore\n        /* \"#utility.yul\":24169:24391   */\n      pop\n      jump\t// out\n        /* \"#utility.yul\":24397:24569   */\n    tag_405:\n        /* \"#utility.yul\":24537:24561   */\n      0x4f6e6c792063616c6c61626c65206279206f776e657200000000000000000000\n        /* \"#utility.yul\":24533:24534   */\n      0x00\n        /* \"#utility.yul\":24525:24531   */\n      dup3\n        /* \"#utility.yul\":24521:24535   */\n      add\n        /* \"#utility.yul\":24514:24562   */\n      mstore\n        /* \"#utility.yul\":24397:24569   */\n      pop\n      jump\t// out\n        /* \"#utility.yul\":24575:24743   */\n    tag_410:\n        /* \"#utility.yul\":24715:24735   */\n      0x556e61626c6520746f207472616e736665720000000000000000000000000000\n        /* \"#utility.yul\":24711:24712   */\n      0x00\n        /* \"#utility.yul\":24703:24709   */\n      dup3\n        /* \"#utility.yul\":24699:24713   */\n      add\n        /* \"#utility.yul\":24692:24736   */\n      mstore\n        /* \"#utility.yul\":24575:24743   */\n      pop\n      jump\t// out\n        /* \"#utility.yul\":24749:24922   */\n    tag_415:\n        /* \"#utility.yul\":24889:24914   */\n      0x43616e6e6f74207472616e7366657220746f2073656c66000000000000000000\n        /* \"#utility.yul\":24885:24886   */\n      0x00\n        /* \"#utility.yul\":24877:24883   */\n      dup3\n        /* \"#utility.yul\":24873:24887   */\n      add\n        /* \"#utility.yul\":24866:24915   */\n      mstore\n        /* \"#utility.yul\":24749:24922   */\n      pop\n      jump\t// out\n        /* \"#utility.yul\":24928:25155   */\n    tag_420:\n        /* \"#utility.yul\":25068:25102   */\n      0x536f75726365206d75737420626520746865206f7261636c65206f6620746865\n        /* \"#utility.yul\":25064:25065   */\n      0x00\n        /* \"#utility.yul\":25056:25062   */\n      dup3\n        /* \"#utility.yul\":25052:25066   */\n      add\n        /* \"#utility.yul\":25045:25103   */\n      mstore\n        /* \"#utility.yul\":25137:25147   */\n      0x2072657175657374000000000000000000000000000000000000000000000000\n        /* \"#utility.yul\":25132:25134   */\n      0x20\n        /* \"#utility.yul\":25124:25130   */\n      dup3\n        /* \"#utility.yul\":25120:25135   */\n      add\n        /* \"#utility.yul\":25113:25148   */\n      mstore\n        /* \"#utility.yul\":24928:25155   */\n      pop\n      jump\t// out\n        /* \"#utility.yul\":25161:25283   */\n    tag_293:\n        /* \"#utility.yul\":25234:25258   */\n      tag_607\n        /* \"#utility.yul\":25252:25257   */\n      dup2\n        /* \"#utility.yul\":25234:25258   */\n      tag_358\n      jump\t// in\n    tag_607:\n        /* \"#utility.yul\":25227:25232   */\n      dup2\n        /* \"#utility.yul\":25224:25259   */\n      eq\n        /* \"#utility.yul\":25214:25277   */\n      tag_608\n      jumpi\n        /* \"#utility.yul\":25273:25274   */\n      0x00\n        /* \"#utility.yul\":25270:25271   */\n      dup1\n        /* \"#utility.yul\":25263:25275   */\n      revert\n        /* \"#utility.yul\":25214:25277   */\n    tag_608:\n        /* \"#utility.yul\":25161:25283   */\n      pop\n      jump\t// out\n        /* \"#utility.yul\":25289:25405   */\n    tag_297:\n        /* \"#utility.yul\":25359:25380   */\n      tag_610\n        /* \"#utility.yul\":25374:25379   */\n      dup2\n        /* \"#utility.yul\":25359:25380   */\n      tag_553\n      jump\t// in\n    tag_610:\n        /* \"#utility.yul\":25352:25357   */\n      dup2\n        /* \"#utility.yul\":25349:25381   */\n      eq\n        /* \"#utility.yul\":25339:25399   */\n      tag_611\n      jumpi\n        /* \"#utility.yul\":25395:25396   */\n      0x00\n        /* \"#utility.yul\":25392:25393   */\n      dup1\n        /* \"#utility.yul\":25385:25397   */\n      revert\n        /* \"#utility.yul\":25339:25399   */\n    tag_611:\n        /* \"#utility.yul\":25289:25405   */\n      pop\n      jump\t// out\n        /* \"#utility.yul\":25411:25533   */\n    tag_301:\n        /* \"#utility.yul\":25484:25508   */\n      tag_613\n        /* \"#utility.yul\":25502:25507   */\n      dup2\n        /* \"#utility.yul\":25484:25508   */\n      tag_362\n      jump\t// in\n    tag_613:\n        /* \"#utility.yul\":25477:25482   */\n      dup2\n        /* \"#utility.yul\":25474:25509   */\n      eq\n        /* \"#utility.yul\":25464:25527   */\n      tag_614\n      jumpi\n        /* \"#utility.yul\":25523:25524   */\n      0x00\n        /* \"#utility.yul\":25520:25521   */\n      dup1\n        /* \"#utility.yul\":25513:25525   */\n      revert\n        /* \"#utility.yul\":25464:25527   */\n    tag_614:\n        /* \"#utility.yul\":25411:25533   */\n      pop\n      jump\t// out\n        /* \"#utility.yul\":25539:25659   */\n    tag_305:\n        /* \"#utility.yul\":25611:25634   */\n      tag_616\n        /* \"#utility.yul\":25628:25633   */\n      dup2\n        /* \"#utility.yul\":25611:25634   */\n      tag_366\n      jump\t// in\n    tag_616:\n        /* \"#utility.yul\":25604:25609   */\n      dup2\n        /* \"#utility.yul\":25601:25635   */\n      eq\n        /* \"#utility.yul\":25591:25653   */\n      tag_617\n      jumpi\n        /* \"#utility.yul\":25649:25650   */\n      0x00\n        /* \"#utility.yul\":25646:25647   */\n      dup1\n        /* \"#utility.yul\":25639:25651   */\n      revert\n        /* \"#utility.yul\":25591:25653   */\n    tag_617:\n        /* \"#utility.yul\":25539:25659   */\n      pop\n      jump\t// out\n        /* \"#utility.yul\":25665:25787   */\n    tag_315:\n        /* \"#utility.yul\":25738:25762   */\n      tag_619\n        /* \"#utility.yul\":25756:25761   */\n      dup2\n        /* \"#utility.yul\":25738:25762   */\n      tag_424\n      jump\t// in\n    tag_619:\n        /* \"#utility.yul\":25731:25736   */\n      dup2\n        /* \"#utility.yul\":25728:25763   */\n      eq\n        /* \"#utility.yul\":25718:25781   */\n      tag_620\n      jumpi\n        /* \"#utility.yul\":25777:25778   */\n      0x00\n        /* \"#utility.yul\":25774:25775   */\n      dup1\n        /* \"#utility.yul\":25767:25779   */\n      revert\n        /* \"#utility.yul\":25718:25781   */\n    tag_620:\n        /* \"#utility.yul\":25665:25787   */\n      pop\n      jump\t// out\n    stop\n    data_6bfc6fa348e95a9160d34dd250a24f188b290b3c63d49db206ff37f296c91f11 68747470733a2f2f6170692e6d61746261726f6665782e636f6d2e61722f76312f726573742f696e64696365732f\n\n    auxdata: 0xa26469706673582212202e24d8f1c4ca2b5ae8abeb6e050abf0e80289b37c34914fbb7c01ca794ddf0ed64736f6c63430008070033\n}\n",
				"bytecode": {
					"linkReferences": {},
					"object": "608060405260016004553480156200001657600080fd5b50338060008073ffffffffffffffffffffffffffffffffffffffff168273ffffffffffffffffffffffffffffffffffffffff1614156200008d576040517f08c379a0000000000000000000000000000000000000000000000000000000008152600401620000849062000307565b60405180910390fd5b81600660006101000a81548173ffffffffffffffffffffffffffffffffffffffff021916908373ffffffffffffffffffffffffffffffffffffffff160217905550600073ffffffffffffffffffffffffffffffffffffffff168173ffffffffffffffffffffffffffffffffffffffff1614620001155762000114816200014360201b60201c565b5b5050506200013d73326c977e6efc84e512bb9c30f76e30c160ed06fb6200027560201b60201c565b620003ae565b3373ffffffffffffffffffffffffffffffffffffffff168173ffffffffffffffffffffffffffffffffffffffff161415620001b5576040517f08c379a0000000000000000000000000000000000000000000000000000000008152600401620001ac9062000329565b60405180910390fd5b80600760006101000a81548173ffffffffffffffffffffffffffffffffffffffff021916908373ffffffffffffffffffffffffffffffffffffffff1602179055508073ffffffffffffffffffffffffffffffffffffffff16600660009054906101000a900473ffffffffffffffffffffffffffffffffffffffff1673ffffffffffffffffffffffffffffffffffffffff167fed8889f560326eb138920d842192f0eb3dd22b4f139c87a2c57538e05bae127860405160405180910390a350565b80600260006101000a81548173ffffffffffffffffffffffffffffffffffffffff021916908373ffffffffffffffffffffffffffffffffffffffff16021790555050565b6000620002c86018836200034b565b9150620002d5826200035c565b602082019050919050565b6000620002ef6017836200034b565b9150620002fc8262000385565b602082019050919050565b600060208201905081810360008301526200032281620002b9565b9050919050565b600060208201905081810360008301526200034481620002e0565b9050919050565b600082825260208201905092915050565b7f43616e6e6f7420736574206f776e657220746f207a65726f0000000000000000600082015250565b7f43616e6e6f74207472616e7366657220746f2073656c66000000000000000000600082015250565b61243c80620003be6000396000f3fe608060405234801561001057600080fd5b50600436106100935760003560e01c80638dc654a2116100665780638dc654a2146100fa5780639d1b464a14610104578063d6948f0e14610122578063ec65d0f81461013e578063f2fde38b1461015a57610093565b8063165d35e11461009857806379ba5097146100b65780638d2a648d146100c05780638da5cb5b146100dc575b600080fd5b6100a0610176565b6040516100ad91906119ed565b60405180910390f35b6100be610185565b005b6100da60048036038101906100d59190611698565b61031c565b005b6100e461045b565b6040516100f191906119ed565b60405180910390f35b610102610485565b005b61010c6105f0565b6040516101199190611bf9565b60405180910390f35b61013c6004803603810190610137919061173f565b6105f6565b005b610158600480360381019061015391906116d8565b61079b565b005b610174600480360381019061016f919061163e565b6107b5565b005b60006101806107c9565b905090565b600760009054906101000a900473ffffffffffffffffffffffffffffffffffffffff1673ffffffffffffffffffffffffffffffffffffffff163373ffffffffffffffffffffffffffffffffffffffff1614610215576040517f08c379a000000000000000000000000000000000000000000000000000000000815260040161020c90611b39565b60405180910390fd5b6000600660009054906101000a900473ffffffffffffffffffffffffffffffffffffffff16905033600660006101000a81548173ffffffffffffffffffffffffffffffffffffffff021916908373ffffffffffffffffffffffffffffffffffffffff1602179055506000600760006101000a81548173ffffffffffffffffffffffffffffffffffffffff021916908373ffffffffffffffffffffffffffffffffffffffff1602179055503373ffffffffffffffffffffffffffffffffffffffff168173ffffffffffffffffffffffffffffffffffffffff167f8be0079c531659141344cd1fd0a4f28419497f9722a3daafe3b4186f6b6457e060405160405180910390a350565b816005600082815260200190815260200160002060009054906101000a900473ffffffffffffffffffffffffffffffffffffffff1673ffffffffffffffffffffffffffffffffffffffff163373ffffffffffffffffffffffffffffffffffffffff16146103be576040517f08c379a00000000000000000000000000000000000000000000000000000000081526004016103b590611bd9565b60405180910390fd5b6005600082815260200190815260200160002060006101000a81549073ffffffffffffffffffffffffffffffffffffffff0219169055807f7cc135e0cebb02c3480ae5d74d377283180a2601f8f644edf7987b009316c63a60405160405180910390a281837fc2d94e2e1f0c977bdf720bde3bd6b0ff77c8853d45d1f47089f6065139e3fef760405160405180910390a381600881905550505050565b6000600660009054906101000a900473ffffffffffffffffffffffffffffffffffffffff16905090565b61048d6107f3565b60006104976107c9565b90508073ffffffffffffffffffffffffffffffffffffffff1663a9059cbb338373ffffffffffffffffffffffffffffffffffffffff166370a08231306040518263ffffffff1660e01b81526004016104ef91906119ed565b60206040518083038186803b15801561050757600080fd5b505afa15801561051b573d6000803e3d6000fd5b505050506040513d601f19601f8201168201806040525081019061053f91906117ca565b6040518363ffffffff1660e01b815260040161055c929190611a08565b602060405180830381600087803b15801561057657600080fd5b505af115801561058a573d6000803e3d6000fd5b505050506040513d601f19601f820116820180604052508101906105ae919061166b565b6105ed576040517f08c379a00000000000000000000000000000000000000000000000000000000081526004016105e490611b99565b60405180910390fd5b50565b60085481565b6105fe6107f3565b600061061a61060c83610885565b30638d2a648d60e01b6108af565b905061069f6040518060400160405280600381526020017f67657400000000000000000000000000000000000000000000000000000000008152506040518060600160405280602e81526020016123d9602e9139866040516020016106809291906119c9565b604051602081830303815290604052836108e09092919063ffffffff16565b61071e6040518060400160405280600481526020017f70617468000000000000000000000000000000000000000000000000000000008152506040518060400160405280600a81526020017f696e64657856616c756500000000000000000000000000000000000000000000815250836108e09092919063ffffffff16565b6107696040518060400160405280600581526020017f74696d65730000000000000000000000000000000000000000000000000000008152506064836109139092919063ffffffff16565b6107948382600a670de0b6b3a764000060016107859190611ea5565b61078f9190611d03565b610946565b5050505050565b6107a36107f3565b6107af84848484610a12565b50505050565b6107bd6107f3565b6107c681610b25565b50565b6000600260009054906101000a900473ffffffffffffffffffffffffffffffffffffffff16905090565b600660009054906101000a900473ffffffffffffffffffffffffffffffffffffffff1673ffffffffffffffffffffffffffffffffffffffff163373ffffffffffffffffffffffffffffffffffffffff1614610883576040517f08c379a000000000000000000000000000000000000000000000000000000000815260040161087a90611b79565b60405180910390fd5b565b6000808290506000815114156108a1576000801b9150506108aa565b60208301519150505b919050565b6108b76114c9565b6108bf6114c9565b6108d685858584610c54909392919063ffffffff16565b9150509392505050565b6108f7828460800151610d0490919063ffffffff16565b61090e818460800151610d0490919063ffffffff16565b505050565b61092a828460800151610d0490919063ffffffff16565b610941818460800151610d2990919063ffffffff16565b505050565b600080600454905060018161095b9190611cad565b6004819055506000634042994660e01b60008087600001513089604001518760018c608001516000015160405160240161099c989796959493929190611a31565b604051602081830303815290604052907bffffffffffffffffffffffffffffffffffffffffffffffffffffffff19166020820180517bffffffffffffffffffffffffffffffffffffffffffffffffffffffff83818316178352505050509050610a0786838684610dd6565b925050509392505050565b60006005600086815260200190815260200160002060009054906101000a900473ffffffffffffffffffffffffffffffffffffffff1690506005600086815260200190815260200160002060006101000a81549073ffffffffffffffffffffffffffffffffffffffff0219169055847fe1fe3afa0f7f761ff0a8b89086790efd5140d2907ebd5b7ff6bfcb5e075fd4c560405160405180910390a28073ffffffffffffffffffffffffffffffffffffffff16636ee4d553868686866040518563ffffffff1660e01b8152600401610aec9493929190611af4565b600060405180830381600087803b158015610b0657600080fd5b505af1158015610b1a573d6000803e3d6000fd5b505050505050505050565b3373ffffffffffffffffffffffffffffffffffffffff168173ffffffffffffffffffffffffffffffffffffffff161415610b94576040517f08c379a0000000000000000000000000000000000000000000000000000000008152600401610b8b90611bb9565b60405180910390fd5b80600760006101000a81548173ffffffffffffffffffffffffffffffffffffffff021916908373ffffffffffffffffffffffffffffffffffffffff1602179055508073ffffffffffffffffffffffffffffffffffffffff16600660009054906101000a900473ffffffffffffffffffffffffffffffffffffffff1673ffffffffffffffffffffffffffffffffffffffff167fed8889f560326eb138920d842192f0eb3dd22b4f139c87a2c57538e05bae127860405160405180910390a350565b610c5c6114c9565b610c6c8560800151610100610f7a565b508385600001818152505082856020019073ffffffffffffffffffffffffffffffffffffffff16908173ffffffffffffffffffffffffffffffffffffffff16815250508185604001907bffffffffffffffffffffffffffffffffffffffffffffffffffffffff191690817bffffffffffffffffffffffffffffffffffffffffffffffffffffffff191681525050849050949350505050565b610d118260038351610fe4565b610d24818361116990919063ffffffff16565b505050565b7fffffffffffffffffffffffffffffffffffffffffffffffff0000000000000000811215610d6057610d5b828261118b565b610dd2565b67ffffffffffffffff811315610d7f57610d7a8282611202565b610dd1565b60008112610d9857610d9382600083610fe4565b610dd0565b610dcf826001837fffffffffffffffffffffffffffffffffffffffffffffffffffffffffffffffff610dca9190611eff565b610fe4565b5b5b5b5050565b60003084604051602001610deb92919061199d565b604051602081830303815290604052805190602001209050846005600083815260200190815260200160002060006101000a81548173ffffffffffffffffffffffffffffffffffffffff021916908373ffffffffffffffffffffffffffffffffffffffff160217905550807fb5e6e01e79f91267dc17b4e6314d5d4d03593d2ceee0fbb452b750bd70ea5af960405160405180910390a2600260009054906101000a900473ffffffffffffffffffffffffffffffffffffffff1673ffffffffffffffffffffffffffffffffffffffff16634000aea08685856040518463ffffffff1660e01b8152600401610ee193929190611ab6565b602060405180830381600087803b158015610efb57600080fd5b505af1158015610f0f573d6000803e3d6000fd5b505050506040513d601f19601f82011682018060405250810190610f33919061166b565b610f72576040517f08c379a0000000000000000000000000000000000000000000000000000000008152600401610f6990611b59565b60405180910390fd5b949350505050565b610f82611536565b6000602083610f919190612126565b14610fbd57602082610fa39190612126565b6020610faf9190611f93565b82610fba9190611cad565b91505b81836020018181525050604051808452600081528281016020016040525082905092915050565b60178167ffffffffffffffff161161101b576110158160058460ff16901b60ff16178461124e90919063ffffffff16565b50611164565b60ff8167ffffffffffffffff16116110715761104a601860058460ff16901b178461124e90919063ffffffff16565b5061106b8167ffffffffffffffff1660018561126e9092919063ffffffff16565b50611163565b61ffff8167ffffffffffffffff16116110c8576110a1601960058460ff16901b178461124e90919063ffffffff16565b506110c28167ffffffffffffffff1660028561126e9092919063ffffffff16565b50611162565b63ffffffff8167ffffffffffffffff1611611121576110fa601a60058460ff16901b178461124e90919063ffffffff16565b5061111b8167ffffffffffffffff1660048561126e9092919063ffffffff16565b50611161565b61113e601b60058460ff16901b178461124e90919063ffffffff16565b5061115f8167ffffffffffffffff1660088561126e9092919063ffffffff16565b505b5b5b5b505050565b611171611536565b61118383846000015151848551611290565b905092915050565b6111a960036005600660ff16901b178361124e90919063ffffffff16565b506111fe82827fffffffffffffffffffffffffffffffffffffffffffffffffffffffffffffffff6111da9190611eff565b6040516020016111ea9190611bf9565b60405160208183030381529060405261137f565b5050565b61122060026005600660ff16901b178361124e90919063ffffffff16565b5061124a82826040516020016112369190611bf9565b60405160208183030381529060405261137f565b5050565b611256611536565b61126683846000015151846113a4565b905092915050565b611276611536565b6112878485600001515185856113fb565b90509392505050565b611298611536565b82518211156112a657600080fd5b846020015182856112b79190611cad565b11156112ec576112eb8560026112dc886020015188876112d79190611cad565b611489565b6112e69190611ea5565b6114a5565b5b60008086518051876020830101935080888701111561130b5787860182525b60208701925050505b60208410611352578051825260208261132d9190611cad565b915060208161133c9190611cad565b905060208461134b9190611f93565b9350611314565b60006001856020036101000a03905080198251168184511681811785525050508692505050949350505050565b61138c8260028351610fe4565b61139f818361116990919063ffffffff16565b505050565b6113ac611536565b836020015183106113d2576113d184600286602001516113cc9190611ea5565b6114a5565b5b83518051602085830101848153818614156113ee576001820183525b5050508390509392505050565b611403611536565b846020015184836114149190611cad565b111561143c5761143b856002868561142c9190611cad565b6114369190611ea5565b6114a5565b5b600060018361010061144e9190611d87565b6114589190611f93565b9050855183868201018583198251161781528151858801111561147b5784870182525b505085915050949350505050565b60008183111561149b5782905061149f565b8190505b92915050565b6000826000015190506114b88383610f7a565b506114c38382611169565b50505050565b6040518060a0016040528060008019168152602001600073ffffffffffffffffffffffffffffffffffffffff16815260200160007bffffffffffffffffffffffffffffffffffffffffffffffffffffffff1916815260200160008152602001611530611536565b81525090565b604051806040016040528060608152602001600081525090565b600061156361155e84611c39565b611c14565b90508281526020810184848401111561157f5761157e6121e9565b5b61158a848285612085565b509392505050565b6000813590506115a181612365565b92915050565b6000815190506115b68161237c565b92915050565b6000813590506115cb81612393565b92915050565b6000813590506115e0816123aa565b92915050565b600082601f8301126115fb576115fa6121e4565b5b813561160b848260208601611550565b91505092915050565b600081359050611623816123c1565b92915050565b600081519050611638816123c1565b92915050565b600060208284031215611654576116536121f3565b5b600061166284828501611592565b91505092915050565b600060208284031215611681576116806121f3565b5b600061168f848285016115a7565b91505092915050565b600080604083850312156116af576116ae6121f3565b5b60006116bd858286016115bc565b92505060206116ce85828601611614565b9150509250929050565b600080600080608085870312156116f2576116f16121f3565b5b6000611700878288016115bc565b945050602061171187828801611614565b9350506040611722878288016115d1565b925050606061173387828801611614565b91505092959194509250565b600080600060608486031215611758576117576121f3565b5b600084013567ffffffffffffffff811115611776576117756121ee565b5b611782868287016115e6565b935050602061179386828701611592565b925050604084013567ffffffffffffffff8111156117b4576117b36121ee565b5b6117c0868287016115e6565b9150509250925092565b6000602082840312156117e0576117df6121f3565b5b60006117ee84828501611629565b91505092915050565b61180081611fc7565b82525050565b61180f81611fe5565b82525050565b61181e81611fef565b82525050565b600061182f82611c6a565b6118398185611c80565b9350611849818560208601612094565b611852816121f8565b840191505092915050565b61186e6118698261204f565b6120f8565b82525050565b600061187f82611c75565b6118898185611ca2565b9350611899818560208601612094565b80840191505092915050565b60006118b2601683611c91565b91506118bd82612223565b602082019050919050565b60006118d5602383611c91565b91506118e08261224c565b604082019050919050565b60006118f8601683611c91565b91506119038261229b565b602082019050919050565b600061191b601283611c91565b9150611926826122c4565b602082019050919050565b600061193e601783611c91565b9150611949826122ed565b602082019050919050565b6000611961602883611c91565b915061196c82612316565b604082019050919050565b61198081612045565b82525050565b61199761199282612045565b61211c565b82525050565b60006119a9828561185d565b6014820191506119b98284611986565b6020820191508190509392505050565b60006119d58285611874565b91506119e18284611874565b91508190509392505050565b6000602082019050611a0260008301846117f7565b92915050565b6000604082019050611a1d60008301856117f7565b611a2a6020830184611977565b9392505050565b600061010082019050611a47600083018b6117f7565b611a54602083018a611977565b611a616040830189611806565b611a6e60608301886117f7565b611a7b6080830187611815565b611a8860a0830186611977565b611a9560c0830185611977565b81810360e0830152611aa78184611824565b90509998505050505050505050565b6000606082019050611acb60008301866117f7565b611ad86020830185611977565b8181036040830152611aea8184611824565b9050949350505050565b6000608082019050611b096000830187611806565b611b166020830186611977565b611b236040830185611815565b611b306060830184611977565b95945050505050565b60006020820190508181036000830152611b52816118a5565b9050919050565b60006020820190508181036000830152611b72816118c8565b9050919050565b60006020820190508181036000830152611b92816118eb565b9050919050565b60006020820190508181036000830152611bb28161190e565b9050919050565b60006020820190508181036000830152611bd281611931565b9050919050565b60006020820190508181036000830152611bf281611954565b9050919050565b6000602082019050611c0e6000830184611977565b92915050565b6000611c1e611c2f565b9050611c2a82826120c7565b919050565b6000604051905090565b600067ffffffffffffffff821115611c5457611c536121b5565b5b611c5d826121f8565b9050602081019050919050565b600081519050919050565b600081519050919050565b600082825260208201905092915050565b600082825260208201905092915050565b600081905092915050565b6000611cb882612045565b9150611cc383612045565b9250827fffffffffffffffffffffffffffffffffffffffffffffffffffffffffffffffff03821115611cf857611cf7612157565b5b828201905092915050565b6000611d0e82612045565b9150611d1983612045565b925082611d2957611d28612186565b5b828204905092915050565b6000808291508390505b6001851115611d7e57808604811115611d5a57611d59612157565b5b6001851615611d695780820291505b8081029050611d7785612216565b9450611d3e565b94509492505050565b6000611d9282612045565b9150611d9d83612045565b9250611dca7fffffffffffffffffffffffffffffffffffffffffffffffffffffffffffffffff8484611dd2565b905092915050565b600082611de25760019050611e9e565b81611df05760009050611e9e565b8160018114611e065760028114611e1057611e3f565b6001915050611e9e565b60ff841115611e2257611e21612157565b5b8360020a915084821115611e3957611e38612157565b5b50611e9e565b5060208310610133831016604e8410600b8410161715611e745782820a905083811115611e6f57611e6e612157565b5b611e9e565b611e818484846001611d34565b92509050818404811115611e9857611e97612157565b5b81810290505b9392505050565b6000611eb082612045565b9150611ebb83612045565b9250817fffffffffffffffffffffffffffffffffffffffffffffffffffffffffffffffff0483118215151615611ef457611ef3612157565b5b828202905092915050565b6000611f0a8261201b565b9150611f158361201b565b9250827f800000000000000000000000000000000000000000000000000000000000000001821260008412151615611f5057611f4f612157565b5b827f7fffffffffffffffffffffffffffffffffffffffffffffffffffffffffffffff018213600084121615611f8857611f87612157565b5b828203905092915050565b6000611f9e82612045565b9150611fa983612045565b925082821015611fbc57611fbb612157565b5b828203905092915050565b6000611fd282612025565b9050919050565b60008115159050919050565b6000819050919050565b60007fffffffff0000000000000000000000000000000000000000000000000000000082169050919050565b6000819050919050565b600073ffffffffffffffffffffffffffffffffffffffff82169050919050565b6000819050919050565b600061205a82612061565b9050919050565b600061206c82612073565b9050919050565b600061207e82612025565b9050919050565b82818337600083830152505050565b60005b838110156120b2578082015181840152602081019050612097565b838111156120c1576000848401525b50505050565b6120d0826121f8565b810181811067ffffffffffffffff821117156120ef576120ee6121b5565b5b80604052505050565b60006121038261210a565b9050919050565b600061211582612209565b9050919050565b6000819050919050565b600061213182612045565b915061213c83612045565b92508261214c5761214b612186565b5b828206905092915050565b7f4e487b7100000000000000000000000000000000000000000000000000000000600052601160045260246000fd5b7f4e487b7100000000000000000000000000000000000000000000000000000000600052601260045260246000fd5b7f4e487b7100000000000000000000000000000000000000000000000000000000600052604160045260246000fd5b600080fd5b600080fd5b600080fd5b600080fd5b6000601f19601f8301169050919050565b60008160601b9050919050565b60008160011c9050919050565b7f4d7573742062652070726f706f736564206f776e657200000000000000000000600082015250565b7f756e61626c6520746f207472616e73666572416e6443616c6c20746f206f726160008201527f636c650000000000000000000000000000000000000000000000000000000000602082015250565b7f4f6e6c792063616c6c61626c65206279206f776e657200000000000000000000600082015250565b7f556e61626c6520746f207472616e736665720000000000000000000000000000600082015250565b7f43616e6e6f74207472616e7366657220746f2073656c66000000000000000000600082015250565b7f536f75726365206d75737420626520746865206f7261636c65206f662074686560008201527f2072657175657374000000000000000000000000000000000000000000000000602082015250565b61236e81611fc7565b811461237957600080fd5b50565b61238581611fd9565b811461239057600080fd5b50565b61239c81611fe5565b81146123a757600080fd5b50565b6123b381611fef565b81146123be57600080fd5b50565b6123ca81612045565b81146123d557600080fd5b5056fe68747470733a2f2f6170692e6d61746261726f6665782e636f6d2e61722f76312f726573742f696e64696365732fa26469706673582212202e24d8f1c4ca2b5ae8abeb6e050abf0e80289b37c34914fbb7c01ca794ddf0ed64736f6c63430008070033",
					"opcodes": "PUSH1 0x80 PUSH1 0x40 MSTORE PUSH1 0x1 PUSH1 0x4 SSTORE CALLVALUE DUP1 ISZERO PUSH3 0x16 JUMPI PUSH1 0x0 DUP1 REVERT JUMPDEST POP CALLER DUP1 PUSH1 0x0 DUP1 PUSH20 0xFFFFFFFFFFFFFFFFFFFFFFFFFFFFFFFFFFFFFFFF AND DUP3 PUSH20 0xFFFFFFFFFFFFFFFFFFFFFFFFFFFFFFFFFFFFFFFF AND EQ ISZERO PUSH3 0x8D JUMPI PUSH1 0x40 MLOAD PUSH32 0x8C379A000000000000000000000000000000000000000000000000000000000 DUP2 MSTORE PUSH1 0x4 ADD PUSH3 0x84 SWAP1 PUSH3 0x307 JUMP JUMPDEST PUSH1 0x40 MLOAD DUP1 SWAP2 SUB SWAP1 REVERT JUMPDEST DUP2 PUSH1 0x6 PUSH1 0x0 PUSH2 0x100 EXP DUP2 SLOAD DUP2 PUSH20 0xFFFFFFFFFFFFFFFFFFFFFFFFFFFFFFFFFFFFFFFF MUL NOT AND SWAP1 DUP4 PUSH20 0xFFFFFFFFFFFFFFFFFFFFFFFFFFFFFFFFFFFFFFFF AND MUL OR SWAP1 SSTORE POP PUSH1 0x0 PUSH20 0xFFFFFFFFFFFFFFFFFFFFFFFFFFFFFFFFFFFFFFFF AND DUP2 PUSH20 0xFFFFFFFFFFFFFFFFFFFFFFFFFFFFFFFFFFFFFFFF AND EQ PUSH3 0x115 JUMPI PUSH3 0x114 DUP2 PUSH3 0x143 PUSH1 0x20 SHL PUSH1 0x20 SHR JUMP JUMPDEST JUMPDEST POP POP POP PUSH3 0x13D PUSH20 0x326C977E6EFC84E512BB9C30F76E30C160ED06FB PUSH3 0x275 PUSH1 0x20 SHL PUSH1 0x20 SHR JUMP JUMPDEST PUSH3 0x3AE JUMP JUMPDEST CALLER PUSH20 0xFFFFFFFFFFFFFFFFFFFFFFFFFFFFFFFFFFFFFFFF AND DUP2 PUSH20 0xFFFFFFFFFFFFFFFFFFFFFFFFFFFFFFFFFFFFFFFF AND EQ ISZERO PUSH3 0x1B5 JUMPI PUSH1 0x40 MLOAD PUSH32 0x8C379A000000000000000000000000000000000000000000000000000000000 DUP2 MSTORE PUSH1 0x4 ADD PUSH3 0x1AC SWAP1 PUSH3 0x329 JUMP JUMPDEST PUSH1 0x40 MLOAD DUP1 SWAP2 SUB SWAP1 REVERT JUMPDEST DUP1 PUSH1 0x7 PUSH1 0x0 PUSH2 0x100 EXP DUP2 SLOAD DUP2 PUSH20 0xFFFFFFFFFFFFFFFFFFFFFFFFFFFFFFFFFFFFFFFF MUL NOT AND SWAP1 DUP4 PUSH20 0xFFFFFFFFFFFFFFFFFFFFFFFFFFFFFFFFFFFFFFFF AND MUL OR SWAP1 SSTORE POP DUP1 PUSH20 0xFFFFFFFFFFFFFFFFFFFFFFFFFFFFFFFFFFFFFFFF AND PUSH1 0x6 PUSH1 0x0 SWAP1 SLOAD SWAP1 PUSH2 0x100 EXP SWAP1 DIV PUSH20 0xFFFFFFFFFFFFFFFFFFFFFFFFFFFFFFFFFFFFFFFF AND PUSH20 0xFFFFFFFFFFFFFFFFFFFFFFFFFFFFFFFFFFFFFFFF AND PUSH32 0xED8889F560326EB138920D842192F0EB3DD22B4F139C87A2C57538E05BAE1278 PUSH1 0x40 MLOAD PUSH1 0x40 MLOAD DUP1 SWAP2 SUB SWAP1 LOG3 POP JUMP JUMPDEST DUP1 PUSH1 0x2 PUSH1 0x0 PUSH2 0x100 EXP DUP2 SLOAD DUP2 PUSH20 0xFFFFFFFFFFFFFFFFFFFFFFFFFFFFFFFFFFFFFFFF MUL NOT AND SWAP1 DUP4 PUSH20 0xFFFFFFFFFFFFFFFFFFFFFFFFFFFFFFFFFFFFFFFF AND MUL OR SWAP1 SSTORE POP POP JUMP JUMPDEST PUSH1 0x0 PUSH3 0x2C8 PUSH1 0x18 DUP4 PUSH3 0x34B JUMP JUMPDEST SWAP2 POP PUSH3 0x2D5 DUP3 PUSH3 0x35C JUMP JUMPDEST PUSH1 0x20 DUP3 ADD SWAP1 POP SWAP2 SWAP1 POP JUMP JUMPDEST PUSH1 0x0 PUSH3 0x2EF PUSH1 0x17 DUP4 PUSH3 0x34B JUMP JUMPDEST SWAP2 POP PUSH3 0x2FC DUP3 PUSH3 0x385 JUMP JUMPDEST PUSH1 0x20 DUP3 ADD SWAP1 POP SWAP2 SWAP1 POP JUMP JUMPDEST PUSH1 0x0 PUSH1 0x20 DUP3 ADD SWAP1 POP DUP2 DUP2 SUB PUSH1 0x0 DUP4 ADD MSTORE PUSH3 0x322 DUP2 PUSH3 0x2B9 JUMP JUMPDEST SWAP1 POP SWAP2 SWAP1 POP JUMP JUMPDEST PUSH1 0x0 PUSH1 0x20 DUP3 ADD SWAP1 POP DUP2 DUP2 SUB PUSH1 0x0 DUP4 ADD MSTORE PUSH3 0x344 DUP2 PUSH3 0x2E0 JUMP JUMPDEST SWAP1 POP SWAP2 SWAP1 POP JUMP JUMPDEST PUSH1 0x0 DUP3 DUP3 MSTORE PUSH1 0x20 DUP3 ADD SWAP1 POP SWAP3 SWAP2 POP POP JUMP JUMPDEST PUSH32 0x43616E6E6F7420736574206F776E657220746F207A65726F0000000000000000 PUSH1 0x0 DUP3 ADD MSTORE POP JUMP JUMPDEST PUSH32 0x43616E6E6F74207472616E7366657220746F2073656C66000000000000000000 PUSH1 0x0 DUP3 ADD MSTORE POP JUMP JUMPDEST PUSH2 0x243C DUP1 PUSH3 0x3BE PUSH1 0x0 CODECOPY PUSH1 0x0 RETURN INVALID PUSH1 0x80 PUSH1 0x40 MSTORE CALLVALUE DUP1 ISZERO PUSH2 0x10 JUMPI PUSH1 0x0 DUP1 REVERT JUMPDEST POP PUSH1 0x4 CALLDATASIZE LT PUSH2 0x93 JUMPI PUSH1 0x0 CALLDATALOAD PUSH1 0xE0 SHR DUP1 PUSH4 0x8DC654A2 GT PUSH2 0x66 JUMPI DUP1 PUSH4 0x8DC654A2 EQ PUSH2 0xFA JUMPI DUP1 PUSH4 0x9D1B464A EQ PUSH2 0x104 JUMPI DUP1 PUSH4 0xD6948F0E EQ PUSH2 0x122 JUMPI DUP1 PUSH4 0xEC65D0F8 EQ PUSH2 0x13E JUMPI DUP1 PUSH4 0xF2FDE38B EQ PUSH2 0x15A JUMPI PUSH2 0x93 JUMP JUMPDEST DUP1 PUSH4 0x165D35E1 EQ PUSH2 0x98 JUMPI DUP1 PUSH4 0x79BA5097 EQ PUSH2 0xB6 JUMPI DUP1 PUSH4 0x8D2A648D EQ PUSH2 0xC0 JUMPI DUP1 PUSH4 0x8DA5CB5B EQ PUSH2 0xDC JUMPI JUMPDEST PUSH1 0x0 DUP1 REVERT JUMPDEST PUSH2 0xA0 PUSH2 0x176 JUMP JUMPDEST PUSH1 0x40 MLOAD PUSH2 0xAD SWAP2 SWAP1 PUSH2 0x19ED JUMP JUMPDEST PUSH1 0x40 MLOAD DUP1 SWAP2 SUB SWAP1 RETURN JUMPDEST PUSH2 0xBE PUSH2 0x185 JUMP JUMPDEST STOP JUMPDEST PUSH2 0xDA PUSH1 0x4 DUP1 CALLDATASIZE SUB DUP2 ADD SWAP1 PUSH2 0xD5 SWAP2 SWAP1 PUSH2 0x1698 JUMP JUMPDEST PUSH2 0x31C JUMP JUMPDEST STOP JUMPDEST PUSH2 0xE4 PUSH2 0x45B JUMP JUMPDEST PUSH1 0x40 MLOAD PUSH2 0xF1 SWAP2 SWAP1 PUSH2 0x19ED JUMP JUMPDEST PUSH1 0x40 MLOAD DUP1 SWAP2 SUB SWAP1 RETURN JUMPDEST PUSH2 0x102 PUSH2 0x485 JUMP JUMPDEST STOP JUMPDEST PUSH2 0x10C PUSH2 0x5F0 JUMP JUMPDEST PUSH1 0x40 MLOAD PUSH2 0x119 SWAP2 SWAP1 PUSH2 0x1BF9 JUMP JUMPDEST PUSH1 0x40 MLOAD DUP1 SWAP2 SUB SWAP1 RETURN JUMPDEST PUSH2 0x13C PUSH1 0x4 DUP1 CALLDATASIZE SUB DUP2 ADD SWAP1 PUSH2 0x137 SWAP2 SWAP1 PUSH2 0x173F JUMP JUMPDEST PUSH2 0x5F6 JUMP JUMPDEST STOP JUMPDEST PUSH2 0x158 PUSH1 0x4 DUP1 CALLDATASIZE SUB DUP2 ADD SWAP1 PUSH2 0x153 SWAP2 SWAP1 PUSH2 0x16D8 JUMP JUMPDEST PUSH2 0x79B JUMP JUMPDEST STOP JUMPDEST PUSH2 0x174 PUSH1 0x4 DUP1 CALLDATASIZE SUB DUP2 ADD SWAP1 PUSH2 0x16F SWAP2 SWAP1 PUSH2 0x163E JUMP JUMPDEST PUSH2 0x7B5 JUMP JUMPDEST STOP JUMPDEST PUSH1 0x0 PUSH2 0x180 PUSH2 0x7C9 JUMP JUMPDEST SWAP1 POP SWAP1 JUMP JUMPDEST PUSH1 0x7 PUSH1 0x0 SWAP1 SLOAD SWAP1 PUSH2 0x100 EXP SWAP1 DIV PUSH20 0xFFFFFFFFFFFFFFFFFFFFFFFFFFFFFFFFFFFFFFFF AND PUSH20 0xFFFFFFFFFFFFFFFFFFFFFFFFFFFFFFFFFFFFFFFF AND CALLER PUSH20 0xFFFFFFFFFFFFFFFFFFFFFFFFFFFFFFFFFFFFFFFF AND EQ PUSH2 0x215 JUMPI PUSH1 0x40 MLOAD PUSH32 0x8C379A000000000000000000000000000000000000000000000000000000000 DUP2 MSTORE PUSH1 0x4 ADD PUSH2 0x20C SWAP1 PUSH2 0x1B39 JUMP JUMPDEST PUSH1 0x40 MLOAD DUP1 SWAP2 SUB SWAP1 REVERT JUMPDEST PUSH1 0x0 PUSH1 0x6 PUSH1 0x0 SWAP1 SLOAD SWAP1 PUSH2 0x100 EXP SWAP1 DIV PUSH20 0xFFFFFFFFFFFFFFFFFFFFFFFFFFFFFFFFFFFFFFFF AND SWAP1 POP CALLER PUSH1 0x6 PUSH1 0x0 PUSH2 0x100 EXP DUP2 SLOAD DUP2 PUSH20 0xFFFFFFFFFFFFFFFFFFFFFFFFFFFFFFFFFFFFFFFF MUL NOT AND SWAP1 DUP4 PUSH20 0xFFFFFFFFFFFFFFFFFFFFFFFFFFFFFFFFFFFFFFFF AND MUL OR SWAP1 SSTORE POP PUSH1 0x0 PUSH1 0x7 PUSH1 0x0 PUSH2 0x100 EXP DUP2 SLOAD DUP2 PUSH20 0xFFFFFFFFFFFFFFFFFFFFFFFFFFFFFFFFFFFFFFFF MUL NOT AND SWAP1 DUP4 PUSH20 0xFFFFFFFFFFFFFFFFFFFFFFFFFFFFFFFFFFFFFFFF AND MUL OR SWAP1 SSTORE POP CALLER PUSH20 0xFFFFFFFFFFFFFFFFFFFFFFFFFFFFFFFFFFFFFFFF AND DUP2 PUSH20 0xFFFFFFFFFFFFFFFFFFFFFFFFFFFFFFFFFFFFFFFF AND PUSH32 0x8BE0079C531659141344CD1FD0A4F28419497F9722A3DAAFE3B4186F6B6457E0 PUSH1 0x40 MLOAD PUSH1 0x40 MLOAD DUP1 SWAP2 SUB SWAP1 LOG3 POP JUMP JUMPDEST DUP2 PUSH1 0x5 PUSH1 0x0 DUP3 DUP2 MSTORE PUSH1 0x20 ADD SWAP1 DUP2 MSTORE PUSH1 0x20 ADD PUSH1 0x0 KECCAK256 PUSH1 0x0 SWAP1 SLOAD SWAP1 PUSH2 0x100 EXP SWAP1 DIV PUSH20 0xFFFFFFFFFFFFFFFFFFFFFFFFFFFFFFFFFFFFFFFF AND PUSH20 0xFFFFFFFFFFFFFFFFFFFFFFFFFFFFFFFFFFFFFFFF AND CALLER PUSH20 0xFFFFFFFFFFFFFFFFFFFFFFFFFFFFFFFFFFFFFFFF AND EQ PUSH2 0x3BE JUMPI PUSH1 0x40 MLOAD PUSH32 0x8C379A000000000000000000000000000000000000000000000000000000000 DUP2 MSTORE PUSH1 0x4 ADD PUSH2 0x3B5 SWAP1 PUSH2 0x1BD9 JUMP JUMPDEST PUSH1 0x40 MLOAD DUP1 SWAP2 SUB SWAP1 REVERT JUMPDEST PUSH1 0x5 PUSH1 0x0 DUP3 DUP2 MSTORE PUSH1 0x20 ADD SWAP1 DUP2 MSTORE PUSH1 0x20 ADD PUSH1 0x0 KECCAK256 PUSH1 0x0 PUSH2 0x100 EXP DUP2 SLOAD SWAP1 PUSH20 0xFFFFFFFFFFFFFFFFFFFFFFFFFFFFFFFFFFFFFFFF MUL NOT AND SWAP1 SSTORE DUP1 PUSH32 0x7CC135E0CEBB02C3480AE5D74D377283180A2601F8F644EDF7987B009316C63A PUSH1 0x40 MLOAD PUSH1 0x40 MLOAD DUP1 SWAP2 SUB SWAP1 LOG2 DUP2 DUP4 PUSH32 0xC2D94E2E1F0C977BDF720BDE3BD6B0FF77C8853D45D1F47089F6065139E3FEF7 PUSH1 0x40 MLOAD PUSH1 0x40 MLOAD DUP1 SWAP2 SUB SWAP1 LOG3 DUP2 PUSH1 0x8 DUP2 SWAP1 SSTORE POP POP POP POP JUMP JUMPDEST PUSH1 0x0 PUSH1 0x6 PUSH1 0x0 SWAP1 SLOAD SWAP1 PUSH2 0x100 EXP SWAP1 DIV PUSH20 0xFFFFFFFFFFFFFFFFFFFFFFFFFFFFFFFFFFFFFFFF AND SWAP1 POP SWAP1 JUMP JUMPDEST PUSH2 0x48D PUSH2 0x7F3 JUMP JUMPDEST PUSH1 0x0 PUSH2 0x497 PUSH2 0x7C9 JUMP JUMPDEST SWAP1 POP DUP1 PUSH20 0xFFFFFFFFFFFFFFFFFFFFFFFFFFFFFFFFFFFFFFFF AND PUSH4 0xA9059CBB CALLER DUP4 PUSH20 0xFFFFFFFFFFFFFFFFFFFFFFFFFFFFFFFFFFFFFFFF AND PUSH4 0x70A08231 ADDRESS PUSH1 0x40 MLOAD DUP3 PUSH4 0xFFFFFFFF AND PUSH1 0xE0 SHL DUP2 MSTORE PUSH1 0x4 ADD PUSH2 0x4EF SWAP2 SWAP1 PUSH2 0x19ED JUMP JUMPDEST PUSH1 0x20 PUSH1 0x40 MLOAD DUP1 DUP4 SUB DUP2 DUP7 DUP1 EXTCODESIZE ISZERO DUP1 ISZERO PUSH2 0x507 JUMPI PUSH1 0x0 DUP1 REVERT JUMPDEST POP GAS STATICCALL ISZERO DUP1 ISZERO PUSH2 0x51B JUMPI RETURNDATASIZE PUSH1 0x0 DUP1 RETURNDATACOPY RETURNDATASIZE PUSH1 0x0 REVERT JUMPDEST POP POP POP POP PUSH1 0x40 MLOAD RETURNDATASIZE PUSH1 0x1F NOT PUSH1 0x1F DUP3 ADD AND DUP3 ADD DUP1 PUSH1 0x40 MSTORE POP DUP2 ADD SWAP1 PUSH2 0x53F SWAP2 SWAP1 PUSH2 0x17CA JUMP JUMPDEST PUSH1 0x40 MLOAD DUP4 PUSH4 0xFFFFFFFF AND PUSH1 0xE0 SHL DUP2 MSTORE PUSH1 0x4 ADD PUSH2 0x55C SWAP3 SWAP2 SWAP1 PUSH2 0x1A08 JUMP JUMPDEST PUSH1 0x20 PUSH1 0x40 MLOAD DUP1 DUP4 SUB DUP2 PUSH1 0x0 DUP8 DUP1 EXTCODESIZE ISZERO DUP1 ISZERO PUSH2 0x576 JUMPI PUSH1 0x0 DUP1 REVERT JUMPDEST POP GAS CALL ISZERO DUP1 ISZERO PUSH2 0x58A JUMPI RETURNDATASIZE PUSH1 0x0 DUP1 RETURNDATACOPY RETURNDATASIZE PUSH1 0x0 REVERT JUMPDEST POP POP POP POP PUSH1 0x40 MLOAD RETURNDATASIZE PUSH1 0x1F NOT PUSH1 0x1F DUP3 ADD AND DUP3 ADD DUP1 PUSH1 0x40 MSTORE POP DUP2 ADD SWAP1 PUSH2 0x5AE SWAP2 SWAP1 PUSH2 0x166B JUMP JUMPDEST PUSH2 0x5ED JUMPI PUSH1 0x40 MLOAD PUSH32 0x8C379A000000000000000000000000000000000000000000000000000000000 DUP2 MSTORE PUSH1 0x4 ADD PUSH2 0x5E4 SWAP1 PUSH2 0x1B99 JUMP JUMPDEST PUSH1 0x40 MLOAD DUP1 SWAP2 SUB SWAP1 REVERT JUMPDEST POP JUMP JUMPDEST PUSH1 0x8 SLOAD DUP2 JUMP JUMPDEST PUSH2 0x5FE PUSH2 0x7F3 JUMP JUMPDEST PUSH1 0x0 PUSH2 0x61A PUSH2 0x60C DUP4 PUSH2 0x885 JUMP JUMPDEST ADDRESS PUSH4 0x8D2A648D PUSH1 0xE0 SHL PUSH2 0x8AF JUMP JUMPDEST SWAP1 POP PUSH2 0x69F PUSH1 0x40 MLOAD DUP1 PUSH1 0x40 ADD PUSH1 0x40 MSTORE DUP1 PUSH1 0x3 DUP2 MSTORE PUSH1 0x20 ADD PUSH32 0x6765740000000000000000000000000000000000000000000000000000000000 DUP2 MSTORE POP PUSH1 0x40 MLOAD DUP1 PUSH1 0x60 ADD PUSH1 0x40 MSTORE DUP1 PUSH1 0x2E DUP2 MSTORE PUSH1 0x20 ADD PUSH2 0x23D9 PUSH1 0x2E SWAP2 CODECOPY DUP7 PUSH1 0x40 MLOAD PUSH1 0x20 ADD PUSH2 0x680 SWAP3 SWAP2 SWAP1 PUSH2 0x19C9 JUMP JUMPDEST PUSH1 0x40 MLOAD PUSH1 0x20 DUP2 DUP4 SUB SUB DUP2 MSTORE SWAP1 PUSH1 0x40 MSTORE DUP4 PUSH2 0x8E0 SWAP1 SWAP3 SWAP2 SWAP1 PUSH4 0xFFFFFFFF AND JUMP JUMPDEST PUSH2 0x71E PUSH1 0x40 MLOAD DUP1 PUSH1 0x40 ADD PUSH1 0x40 MSTORE DUP1 PUSH1 0x4 DUP2 MSTORE PUSH1 0x20 ADD PUSH32 0x7061746800000000000000000000000000000000000000000000000000000000 DUP2 MSTORE POP PUSH1 0x40 MLOAD DUP1 PUSH1 0x40 ADD PUSH1 0x40 MSTORE DUP1 PUSH1 0xA DUP2 MSTORE PUSH1 0x20 ADD PUSH32 0x696E64657856616C756500000000000000000000000000000000000000000000 DUP2 MSTORE POP DUP4 PUSH2 0x8E0 SWAP1 SWAP3 SWAP2 SWAP1 PUSH4 0xFFFFFFFF AND JUMP JUMPDEST PUSH2 0x769 PUSH1 0x40 MLOAD DUP1 PUSH1 0x40 ADD PUSH1 0x40 MSTORE DUP1 PUSH1 0x5 DUP2 MSTORE PUSH1 0x20 ADD PUSH32 0x74696D6573000000000000000000000000000000000000000000000000000000 DUP2 MSTORE POP PUSH1 0x64 DUP4 PUSH2 0x913 SWAP1 SWAP3 SWAP2 SWAP1 PUSH4 0xFFFFFFFF AND JUMP JUMPDEST PUSH2 0x794 DUP4 DUP3 PUSH1 0xA PUSH8 0xDE0B6B3A7640000 PUSH1 0x1 PUSH2 0x785 SWAP2 SWAP1 PUSH2 0x1EA5 JUMP JUMPDEST PUSH2 0x78F SWAP2 SWAP1 PUSH2 0x1D03 JUMP JUMPDEST PUSH2 0x946 JUMP JUMPDEST POP POP POP POP POP JUMP JUMPDEST PUSH2 0x7A3 PUSH2 0x7F3 JUMP JUMPDEST PUSH2 0x7AF DUP5 DUP5 DUP5 DUP5 PUSH2 0xA12 JUMP JUMPDEST POP POP POP POP JUMP JUMPDEST PUSH2 0x7BD PUSH2 0x7F3 JUMP JUMPDEST PUSH2 0x7C6 DUP2 PUSH2 0xB25 JUMP JUMPDEST POP JUMP JUMPDEST PUSH1 0x0 PUSH1 0x2 PUSH1 0x0 SWAP1 SLOAD SWAP1 PUSH2 0x100 EXP SWAP1 DIV PUSH20 0xFFFFFFFFFFFFFFFFFFFFFFFFFFFFFFFFFFFFFFFF AND SWAP1 POP SWAP1 JUMP JUMPDEST PUSH1 0x6 PUSH1 0x0 SWAP1 SLOAD SWAP1 PUSH2 0x100 EXP SWAP1 DIV PUSH20 0xFFFFFFFFFFFFFFFFFFFFFFFFFFFFFFFFFFFFFFFF AND PUSH20 0xFFFFFFFFFFFFFFFFFFFFFFFFFFFFFFFFFFFFFFFF AND CALLER PUSH20 0xFFFFFFFFFFFFFFFFFFFFFFFFFFFFFFFFFFFFFFFF AND EQ PUSH2 0x883 JUMPI PUSH1 0x40 MLOAD PUSH32 0x8C379A000000000000000000000000000000000000000000000000000000000 DUP2 MSTORE PUSH1 0x4 ADD PUSH2 0x87A SWAP1 PUSH2 0x1B79 JUMP JUMPDEST PUSH1 0x40 MLOAD DUP1 SWAP2 SUB SWAP1 REVERT JUMPDEST JUMP JUMPDEST PUSH1 0x0 DUP1 DUP3 SWAP1 POP PUSH1 0x0 DUP2 MLOAD EQ ISZERO PUSH2 0x8A1 JUMPI PUSH1 0x0 DUP1 SHL SWAP2 POP POP PUSH2 0x8AA JUMP JUMPDEST PUSH1 0x20 DUP4 ADD MLOAD SWAP2 POP POP JUMPDEST SWAP2 SWAP1 POP JUMP JUMPDEST PUSH2 0x8B7 PUSH2 0x14C9 JUMP JUMPDEST PUSH2 0x8BF PUSH2 0x14C9 JUMP JUMPDEST PUSH2 0x8D6 DUP6 DUP6 DUP6 DUP5 PUSH2 0xC54 SWAP1 SWAP4 SWAP3 SWAP2 SWAP1 PUSH4 0xFFFFFFFF AND JUMP JUMPDEST SWAP2 POP POP SWAP4 SWAP3 POP POP POP JUMP JUMPDEST PUSH2 0x8F7 DUP3 DUP5 PUSH1 0x80 ADD MLOAD PUSH2 0xD04 SWAP1 SWAP2 SWAP1 PUSH4 0xFFFFFFFF AND JUMP JUMPDEST PUSH2 0x90E DUP2 DUP5 PUSH1 0x80 ADD MLOAD PUSH2 0xD04 SWAP1 SWAP2 SWAP1 PUSH4 0xFFFFFFFF AND JUMP JUMPDEST POP POP POP JUMP JUMPDEST PUSH2 0x92A DUP3 DUP5 PUSH1 0x80 ADD MLOAD PUSH2 0xD04 SWAP1 SWAP2 SWAP1 PUSH4 0xFFFFFFFF AND JUMP JUMPDEST PUSH2 0x941 DUP2 DUP5 PUSH1 0x80 ADD MLOAD PUSH2 0xD29 SWAP1 SWAP2 SWAP1 PUSH4 0xFFFFFFFF AND JUMP JUMPDEST POP POP POP JUMP JUMPDEST PUSH1 0x0 DUP1 PUSH1 0x4 SLOAD SWAP1 POP PUSH1 0x1 DUP2 PUSH2 0x95B SWAP2 SWAP1 PUSH2 0x1CAD JUMP JUMPDEST PUSH1 0x4 DUP2 SWAP1 SSTORE POP PUSH1 0x0 PUSH4 0x40429946 PUSH1 0xE0 SHL PUSH1 0x0 DUP1 DUP8 PUSH1 0x0 ADD MLOAD ADDRESS DUP10 PUSH1 0x40 ADD MLOAD DUP8 PUSH1 0x1 DUP13 PUSH1 0x80 ADD MLOAD PUSH1 0x0 ADD MLOAD PUSH1 0x40 MLOAD PUSH1 0x24 ADD PUSH2 0x99C SWAP9 SWAP8 SWAP7 SWAP6 SWAP5 SWAP4 SWAP3 SWAP2 SWAP1 PUSH2 0x1A31 JUMP JUMPDEST PUSH1 0x40 MLOAD PUSH1 0x20 DUP2 DUP4 SUB SUB DUP2 MSTORE SWAP1 PUSH1 0x40 MSTORE SWAP1 PUSH28 0xFFFFFFFFFFFFFFFFFFFFFFFFFFFFFFFFFFFFFFFFFFFFFFFFFFFFFFFF NOT AND PUSH1 0x20 DUP3 ADD DUP1 MLOAD PUSH28 0xFFFFFFFFFFFFFFFFFFFFFFFFFFFFFFFFFFFFFFFFFFFFFFFFFFFFFFFF DUP4 DUP2 DUP4 AND OR DUP4 MSTORE POP POP POP POP SWAP1 POP PUSH2 0xA07 DUP7 DUP4 DUP7 DUP5 PUSH2 0xDD6 JUMP JUMPDEST SWAP3 POP POP POP SWAP4 SWAP3 POP POP POP JUMP JUMPDEST PUSH1 0x0 PUSH1 0x5 PUSH1 0x0 DUP7 DUP2 MSTORE PUSH1 0x20 ADD SWAP1 DUP2 MSTORE PUSH1 0x20 ADD PUSH1 0x0 KECCAK256 PUSH1 0x0 SWAP1 SLOAD SWAP1 PUSH2 0x100 EXP SWAP1 DIV PUSH20 0xFFFFFFFFFFFFFFFFFFFFFFFFFFFFFFFFFFFFFFFF AND SWAP1 POP PUSH1 0x5 PUSH1 0x0 DUP7 DUP2 MSTORE PUSH1 0x20 ADD SWAP1 DUP2 MSTORE PUSH1 0x20 ADD PUSH1 0x0 KECCAK256 PUSH1 0x0 PUSH2 0x100 EXP DUP2 SLOAD SWAP1 PUSH20 0xFFFFFFFFFFFFFFFFFFFFFFFFFFFFFFFFFFFFFFFF MUL NOT AND SWAP1 SSTORE DUP5 PUSH32 0xE1FE3AFA0F7F761FF0A8B89086790EFD5140D2907EBD5B7FF6BFCB5E075FD4C5 PUSH1 0x40 MLOAD PUSH1 0x40 MLOAD DUP1 SWAP2 SUB SWAP1 LOG2 DUP1 PUSH20 0xFFFFFFFFFFFFFFFFFFFFFFFFFFFFFFFFFFFFFFFF AND PUSH4 0x6EE4D553 DUP7 DUP7 DUP7 DUP7 PUSH1 0x40 MLOAD DUP6 PUSH4 0xFFFFFFFF AND PUSH1 0xE0 SHL DUP2 MSTORE PUSH1 0x4 ADD PUSH2 0xAEC SWAP5 SWAP4 SWAP3 SWAP2 SWAP1 PUSH2 0x1AF4 JUMP JUMPDEST PUSH1 0x0 PUSH1 0x40 MLOAD DUP1 DUP4 SUB DUP2 PUSH1 0x0 DUP8 DUP1 EXTCODESIZE ISZERO DUP1 ISZERO PUSH2 0xB06 JUMPI PUSH1 0x0 DUP1 REVERT JUMPDEST POP GAS CALL ISZERO DUP1 ISZERO PUSH2 0xB1A JUMPI RETURNDATASIZE PUSH1 0x0 DUP1 RETURNDATACOPY RETURNDATASIZE PUSH1 0x0 REVERT JUMPDEST POP POP POP POP POP POP POP POP POP JUMP JUMPDEST CALLER PUSH20 0xFFFFFFFFFFFFFFFFFFFFFFFFFFFFFFFFFFFFFFFF AND DUP2 PUSH20 0xFFFFFFFFFFFFFFFFFFFFFFFFFFFFFFFFFFFFFFFF AND EQ ISZERO PUSH2 0xB94 JUMPI PUSH1 0x40 MLOAD PUSH32 0x8C379A000000000000000000000000000000000000000000000000000000000 DUP2 MSTORE PUSH1 0x4 ADD PUSH2 0xB8B SWAP1 PUSH2 0x1BB9 JUMP JUMPDEST PUSH1 0x40 MLOAD DUP1 SWAP2 SUB SWAP1 REVERT JUMPDEST DUP1 PUSH1 0x7 PUSH1 0x0 PUSH2 0x100 EXP DUP2 SLOAD DUP2 PUSH20 0xFFFFFFFFFFFFFFFFFFFFFFFFFFFFFFFFFFFFFFFF MUL NOT AND SWAP1 DUP4 PUSH20 0xFFFFFFFFFFFFFFFFFFFFFFFFFFFFFFFFFFFFFFFF AND MUL OR SWAP1 SSTORE POP DUP1 PUSH20 0xFFFFFFFFFFFFFFFFFFFFFFFFFFFFFFFFFFFFFFFF AND PUSH1 0x6 PUSH1 0x0 SWAP1 SLOAD SWAP1 PUSH2 0x100 EXP SWAP1 DIV PUSH20 0xFFFFFFFFFFFFFFFFFFFFFFFFFFFFFFFFFFFFFFFF AND PUSH20 0xFFFFFFFFFFFFFFFFFFFFFFFFFFFFFFFFFFFFFFFF AND PUSH32 0xED8889F560326EB138920D842192F0EB3DD22B4F139C87A2C57538E05BAE1278 PUSH1 0x40 MLOAD PUSH1 0x40 MLOAD DUP1 SWAP2 SUB SWAP1 LOG3 POP JUMP JUMPDEST PUSH2 0xC5C PUSH2 0x14C9 JUMP JUMPDEST PUSH2 0xC6C DUP6 PUSH1 0x80 ADD MLOAD PUSH2 0x100 PUSH2 0xF7A JUMP JUMPDEST POP DUP4 DUP6 PUSH1 0x0 ADD DUP2 DUP2 MSTORE POP POP DUP3 DUP6 PUSH1 0x20 ADD SWAP1 PUSH20 0xFFFFFFFFFFFFFFFFFFFFFFFFFFFFFFFFFFFFFFFF AND SWAP1 DUP2 PUSH20 0xFFFFFFFFFFFFFFFFFFFFFFFFFFFFFFFFFFFFFFFF AND DUP2 MSTORE POP POP DUP2 DUP6 PUSH1 0x40 ADD SWAP1 PUSH28 0xFFFFFFFFFFFFFFFFFFFFFFFFFFFFFFFFFFFFFFFFFFFFFFFFFFFFFFFF NOT AND SWAP1 DUP2 PUSH28 0xFFFFFFFFFFFFFFFFFFFFFFFFFFFFFFFFFFFFFFFFFFFFFFFFFFFFFFFF NOT AND DUP2 MSTORE POP POP DUP5 SWAP1 POP SWAP5 SWAP4 POP POP POP POP JUMP JUMPDEST PUSH2 0xD11 DUP3 PUSH1 0x3 DUP4 MLOAD PUSH2 0xFE4 JUMP JUMPDEST PUSH2 0xD24 DUP2 DUP4 PUSH2 0x1169 SWAP1 SWAP2 SWAP1 PUSH4 0xFFFFFFFF AND JUMP JUMPDEST POP POP POP JUMP JUMPDEST PUSH32 0xFFFFFFFFFFFFFFFFFFFFFFFFFFFFFFFFFFFFFFFFFFFFFFFF0000000000000000 DUP2 SLT ISZERO PUSH2 0xD60 JUMPI PUSH2 0xD5B DUP3 DUP3 PUSH2 0x118B JUMP JUMPDEST PUSH2 0xDD2 JUMP JUMPDEST PUSH8 0xFFFFFFFFFFFFFFFF DUP2 SGT ISZERO PUSH2 0xD7F JUMPI PUSH2 0xD7A DUP3 DUP3 PUSH2 0x1202 JUMP JUMPDEST PUSH2 0xDD1 JUMP JUMPDEST PUSH1 0x0 DUP2 SLT PUSH2 0xD98 JUMPI PUSH2 0xD93 DUP3 PUSH1 0x0 DUP4 PUSH2 0xFE4 JUMP JUMPDEST PUSH2 0xDD0 JUMP JUMPDEST PUSH2 0xDCF DUP3 PUSH1 0x1 DUP4 PUSH32 0xFFFFFFFFFFFFFFFFFFFFFFFFFFFFFFFFFFFFFFFFFFFFFFFFFFFFFFFFFFFFFFFF PUSH2 0xDCA SWAP2 SWAP1 PUSH2 0x1EFF JUMP JUMPDEST PUSH2 0xFE4 JUMP JUMPDEST JUMPDEST JUMPDEST JUMPDEST POP POP JUMP JUMPDEST PUSH1 0x0 ADDRESS DUP5 PUSH1 0x40 MLOAD PUSH1 0x20 ADD PUSH2 0xDEB SWAP3 SWAP2 SWAP1 PUSH2 0x199D JUMP JUMPDEST PUSH1 0x40 MLOAD PUSH1 0x20 DUP2 DUP4 SUB SUB DUP2 MSTORE SWAP1 PUSH1 0x40 MSTORE DUP1 MLOAD SWAP1 PUSH1 0x20 ADD KECCAK256 SWAP1 POP DUP5 PUSH1 0x5 PUSH1 0x0 DUP4 DUP2 MSTORE PUSH1 0x20 ADD SWAP1 DUP2 MSTORE PUSH1 0x20 ADD PUSH1 0x0 KECCAK256 PUSH1 0x0 PUSH2 0x100 EXP DUP2 SLOAD DUP2 PUSH20 0xFFFFFFFFFFFFFFFFFFFFFFFFFFFFFFFFFFFFFFFF MUL NOT AND SWAP1 DUP4 PUSH20 0xFFFFFFFFFFFFFFFFFFFFFFFFFFFFFFFFFFFFFFFF AND MUL OR SWAP1 SSTORE POP DUP1 PUSH32 0xB5E6E01E79F91267DC17B4E6314D5D4D03593D2CEEE0FBB452B750BD70EA5AF9 PUSH1 0x40 MLOAD PUSH1 0x40 MLOAD DUP1 SWAP2 SUB SWAP1 LOG2 PUSH1 0x2 PUSH1 0x0 SWAP1 SLOAD SWAP1 PUSH2 0x100 EXP SWAP1 DIV PUSH20 0xFFFFFFFFFFFFFFFFFFFFFFFFFFFFFFFFFFFFFFFF AND PUSH20 0xFFFFFFFFFFFFFFFFFFFFFFFFFFFFFFFFFFFFFFFF AND PUSH4 0x4000AEA0 DUP7 DUP6 DUP6 PUSH1 0x40 MLOAD DUP5 PUSH4 0xFFFFFFFF AND PUSH1 0xE0 SHL DUP2 MSTORE PUSH1 0x4 ADD PUSH2 0xEE1 SWAP4 SWAP3 SWAP2 SWAP1 PUSH2 0x1AB6 JUMP JUMPDEST PUSH1 0x20 PUSH1 0x40 MLOAD DUP1 DUP4 SUB DUP2 PUSH1 0x0 DUP8 DUP1 EXTCODESIZE ISZERO DUP1 ISZERO PUSH2 0xEFB JUMPI PUSH1 0x0 DUP1 REVERT JUMPDEST POP GAS CALL ISZERO DUP1 ISZERO PUSH2 0xF0F JUMPI RETURNDATASIZE PUSH1 0x0 DUP1 RETURNDATACOPY RETURNDATASIZE PUSH1 0x0 REVERT JUMPDEST POP POP POP POP PUSH1 0x40 MLOAD RETURNDATASIZE PUSH1 0x1F NOT PUSH1 0x1F DUP3 ADD AND DUP3 ADD DUP1 PUSH1 0x40 MSTORE POP DUP2 ADD SWAP1 PUSH2 0xF33 SWAP2 SWAP1 PUSH2 0x166B JUMP JUMPDEST PUSH2 0xF72 JUMPI PUSH1 0x40 MLOAD PUSH32 0x8C379A000000000000000000000000000000000000000000000000000000000 DUP2 MSTORE PUSH1 0x4 ADD PUSH2 0xF69 SWAP1 PUSH2 0x1B59 JUMP JUMPDEST PUSH1 0x40 MLOAD DUP1 SWAP2 SUB SWAP1 REVERT JUMPDEST SWAP5 SWAP4 POP POP POP POP JUMP JUMPDEST PUSH2 0xF82 PUSH2 0x1536 JUMP JUMPDEST PUSH1 0x0 PUSH1 0x20 DUP4 PUSH2 0xF91 SWAP2 SWAP1 PUSH2 0x2126 JUMP JUMPDEST EQ PUSH2 0xFBD JUMPI PUSH1 0x20 DUP3 PUSH2 0xFA3 SWAP2 SWAP1 PUSH2 0x2126 JUMP JUMPDEST PUSH1 0x20 PUSH2 0xFAF SWAP2 SWAP1 PUSH2 0x1F93 JUMP JUMPDEST DUP3 PUSH2 0xFBA SWAP2 SWAP1 PUSH2 0x1CAD JUMP JUMPDEST SWAP2 POP JUMPDEST DUP2 DUP4 PUSH1 0x20 ADD DUP2 DUP2 MSTORE POP POP PUSH1 0x40 MLOAD DUP1 DUP5 MSTORE PUSH1 0x0 DUP2 MSTORE DUP3 DUP2 ADD PUSH1 0x20 ADD PUSH1 0x40 MSTORE POP DUP3 SWAP1 POP SWAP3 SWAP2 POP POP JUMP JUMPDEST PUSH1 0x17 DUP2 PUSH8 0xFFFFFFFFFFFFFFFF AND GT PUSH2 0x101B JUMPI PUSH2 0x1015 DUP2 PUSH1 0x5 DUP5 PUSH1 0xFF AND SWAP1 SHL PUSH1 0xFF AND OR DUP5 PUSH2 0x124E SWAP1 SWAP2 SWAP1 PUSH4 0xFFFFFFFF AND JUMP JUMPDEST POP PUSH2 0x1164 JUMP JUMPDEST PUSH1 0xFF DUP2 PUSH8 0xFFFFFFFFFFFFFFFF AND GT PUSH2 0x1071 JUMPI PUSH2 0x104A PUSH1 0x18 PUSH1 0x5 DUP5 PUSH1 0xFF AND SWAP1 SHL OR DUP5 PUSH2 0x124E SWAP1 SWAP2 SWAP1 PUSH4 0xFFFFFFFF AND JUMP JUMPDEST POP PUSH2 0x106B DUP2 PUSH8 0xFFFFFFFFFFFFFFFF AND PUSH1 0x1 DUP6 PUSH2 0x126E SWAP1 SWAP3 SWAP2 SWAP1 PUSH4 0xFFFFFFFF AND JUMP JUMPDEST POP PUSH2 0x1163 JUMP JUMPDEST PUSH2 0xFFFF DUP2 PUSH8 0xFFFFFFFFFFFFFFFF AND GT PUSH2 0x10C8 JUMPI PUSH2 0x10A1 PUSH1 0x19 PUSH1 0x5 DUP5 PUSH1 0xFF AND SWAP1 SHL OR DUP5 PUSH2 0x124E SWAP1 SWAP2 SWAP1 PUSH4 0xFFFFFFFF AND JUMP JUMPDEST POP PUSH2 0x10C2 DUP2 PUSH8 0xFFFFFFFFFFFFFFFF AND PUSH1 0x2 DUP6 PUSH2 0x126E SWAP1 SWAP3 SWAP2 SWAP1 PUSH4 0xFFFFFFFF AND JUMP JUMPDEST POP PUSH2 0x1162 JUMP JUMPDEST PUSH4 0xFFFFFFFF DUP2 PUSH8 0xFFFFFFFFFFFFFFFF AND GT PUSH2 0x1121 JUMPI PUSH2 0x10FA PUSH1 0x1A PUSH1 0x5 DUP5 PUSH1 0xFF AND SWAP1 SHL OR DUP5 PUSH2 0x124E SWAP1 SWAP2 SWAP1 PUSH4 0xFFFFFFFF AND JUMP JUMPDEST POP PUSH2 0x111B DUP2 PUSH8 0xFFFFFFFFFFFFFFFF AND PUSH1 0x4 DUP6 PUSH2 0x126E SWAP1 SWAP3 SWAP2 SWAP1 PUSH4 0xFFFFFFFF AND JUMP JUMPDEST POP PUSH2 0x1161 JUMP JUMPDEST PUSH2 0x113E PUSH1 0x1B PUSH1 0x5 DUP5 PUSH1 0xFF AND SWAP1 SHL OR DUP5 PUSH2 0x124E SWAP1 SWAP2 SWAP1 PUSH4 0xFFFFFFFF AND JUMP JUMPDEST POP PUSH2 0x115F DUP2 PUSH8 0xFFFFFFFFFFFFFFFF AND PUSH1 0x8 DUP6 PUSH2 0x126E SWAP1 SWAP3 SWAP2 SWAP1 PUSH4 0xFFFFFFFF AND JUMP JUMPDEST POP JUMPDEST JUMPDEST JUMPDEST JUMPDEST POP POP POP JUMP JUMPDEST PUSH2 0x1171 PUSH2 0x1536 JUMP JUMPDEST PUSH2 0x1183 DUP4 DUP5 PUSH1 0x0 ADD MLOAD MLOAD DUP5 DUP6 MLOAD PUSH2 0x1290 JUMP JUMPDEST SWAP1 POP SWAP3 SWAP2 POP POP JUMP JUMPDEST PUSH2 0x11A9 PUSH1 0x3 PUSH1 0x5 PUSH1 0x6 PUSH1 0xFF AND SWAP1 SHL OR DUP4 PUSH2 0x124E SWAP1 SWAP2 SWAP1 PUSH4 0xFFFFFFFF AND JUMP JUMPDEST POP PUSH2 0x11FE DUP3 DUP3 PUSH32 0xFFFFFFFFFFFFFFFFFFFFFFFFFFFFFFFFFFFFFFFFFFFFFFFFFFFFFFFFFFFFFFFF PUSH2 0x11DA SWAP2 SWAP1 PUSH2 0x1EFF JUMP JUMPDEST PUSH1 0x40 MLOAD PUSH1 0x20 ADD PUSH2 0x11EA SWAP2 SWAP1 PUSH2 0x1BF9 JUMP JUMPDEST PUSH1 0x40 MLOAD PUSH1 0x20 DUP2 DUP4 SUB SUB DUP2 MSTORE SWAP1 PUSH1 0x40 MSTORE PUSH2 0x137F JUMP JUMPDEST POP POP JUMP JUMPDEST PUSH2 0x1220 PUSH1 0x2 PUSH1 0x5 PUSH1 0x6 PUSH1 0xFF AND SWAP1 SHL OR DUP4 PUSH2 0x124E SWAP1 SWAP2 SWAP1 PUSH4 0xFFFFFFFF AND JUMP JUMPDEST POP PUSH2 0x124A DUP3 DUP3 PUSH1 0x40 MLOAD PUSH1 0x20 ADD PUSH2 0x1236 SWAP2 SWAP1 PUSH2 0x1BF9 JUMP JUMPDEST PUSH1 0x40 MLOAD PUSH1 0x20 DUP2 DUP4 SUB SUB DUP2 MSTORE SWAP1 PUSH1 0x40 MSTORE PUSH2 0x137F JUMP JUMPDEST POP POP JUMP JUMPDEST PUSH2 0x1256 PUSH2 0x1536 JUMP JUMPDEST PUSH2 0x1266 DUP4 DUP5 PUSH1 0x0 ADD MLOAD MLOAD DUP5 PUSH2 0x13A4 JUMP JUMPDEST SWAP1 POP SWAP3 SWAP2 POP POP JUMP JUMPDEST PUSH2 0x1276 PUSH2 0x1536 JUMP JUMPDEST PUSH2 0x1287 DUP5 DUP6 PUSH1 0x0 ADD MLOAD MLOAD DUP6 DUP6 PUSH2 0x13FB JUMP JUMPDEST SWAP1 POP SWAP4 SWAP3 POP POP POP JUMP JUMPDEST PUSH2 0x1298 PUSH2 0x1536 JUMP JUMPDEST DUP3 MLOAD DUP3 GT ISZERO PUSH2 0x12A6 JUMPI PUSH1 0x0 DUP1 REVERT JUMPDEST DUP5 PUSH1 0x20 ADD MLOAD DUP3 DUP6 PUSH2 0x12B7 SWAP2 SWAP1 PUSH2 0x1CAD JUMP JUMPDEST GT ISZERO PUSH2 0x12EC JUMPI PUSH2 0x12EB DUP6 PUSH1 0x2 PUSH2 0x12DC DUP9 PUSH1 0x20 ADD MLOAD DUP9 DUP8 PUSH2 0x12D7 SWAP2 SWAP1 PUSH2 0x1CAD JUMP JUMPDEST PUSH2 0x1489 JUMP JUMPDEST PUSH2 0x12E6 SWAP2 SWAP1 PUSH2 0x1EA5 JUMP JUMPDEST PUSH2 0x14A5 JUMP JUMPDEST JUMPDEST PUSH1 0x0 DUP1 DUP7 MLOAD DUP1 MLOAD DUP8 PUSH1 0x20 DUP4 ADD ADD SWAP4 POP DUP1 DUP9 DUP8 ADD GT ISZERO PUSH2 0x130B JUMPI DUP8 DUP7 ADD DUP3 MSTORE JUMPDEST PUSH1 0x20 DUP8 ADD SWAP3 POP POP POP JUMPDEST PUSH1 0x20 DUP5 LT PUSH2 0x1352 JUMPI DUP1 MLOAD DUP3 MSTORE PUSH1 0x20 DUP3 PUSH2 0x132D SWAP2 SWAP1 PUSH2 0x1CAD JUMP JUMPDEST SWAP2 POP PUSH1 0x20 DUP2 PUSH2 0x133C SWAP2 SWAP1 PUSH2 0x1CAD JUMP JUMPDEST SWAP1 POP PUSH1 0x20 DUP5 PUSH2 0x134B SWAP2 SWAP1 PUSH2 0x1F93 JUMP JUMPDEST SWAP4 POP PUSH2 0x1314 JUMP JUMPDEST PUSH1 0x0 PUSH1 0x1 DUP6 PUSH1 0x20 SUB PUSH2 0x100 EXP SUB SWAP1 POP DUP1 NOT DUP3 MLOAD AND DUP2 DUP5 MLOAD AND DUP2 DUP2 OR DUP6 MSTORE POP POP POP DUP7 SWAP3 POP POP POP SWAP5 SWAP4 POP POP POP POP JUMP JUMPDEST PUSH2 0x138C DUP3 PUSH1 0x2 DUP4 MLOAD PUSH2 0xFE4 JUMP JUMPDEST PUSH2 0x139F DUP2 DUP4 PUSH2 0x1169 SWAP1 SWAP2 SWAP1 PUSH4 0xFFFFFFFF AND JUMP JUMPDEST POP POP POP JUMP JUMPDEST PUSH2 0x13AC PUSH2 0x1536 JUMP JUMPDEST DUP4 PUSH1 0x20 ADD MLOAD DUP4 LT PUSH2 0x13D2 JUMPI PUSH2 0x13D1 DUP5 PUSH1 0x2 DUP7 PUSH1 0x20 ADD MLOAD PUSH2 0x13CC SWAP2 SWAP1 PUSH2 0x1EA5 JUMP JUMPDEST PUSH2 0x14A5 JUMP JUMPDEST JUMPDEST DUP4 MLOAD DUP1 MLOAD PUSH1 0x20 DUP6 DUP4 ADD ADD DUP5 DUP2 MSTORE8 DUP2 DUP7 EQ ISZERO PUSH2 0x13EE JUMPI PUSH1 0x1 DUP3 ADD DUP4 MSTORE JUMPDEST POP POP POP DUP4 SWAP1 POP SWAP4 SWAP3 POP POP POP JUMP JUMPDEST PUSH2 0x1403 PUSH2 0x1536 JUMP JUMPDEST DUP5 PUSH1 0x20 ADD MLOAD DUP5 DUP4 PUSH2 0x1414 SWAP2 SWAP1 PUSH2 0x1CAD JUMP JUMPDEST GT ISZERO PUSH2 0x143C JUMPI PUSH2 0x143B DUP6 PUSH1 0x2 DUP7 DUP6 PUSH2 0x142C SWAP2 SWAP1 PUSH2 0x1CAD JUMP JUMPDEST PUSH2 0x1436 SWAP2 SWAP1 PUSH2 0x1EA5 JUMP JUMPDEST PUSH2 0x14A5 JUMP JUMPDEST JUMPDEST PUSH1 0x0 PUSH1 0x1 DUP4 PUSH2 0x100 PUSH2 0x144E SWAP2 SWAP1 PUSH2 0x1D87 JUMP JUMPDEST PUSH2 0x1458 SWAP2 SWAP1 PUSH2 0x1F93 JUMP JUMPDEST SWAP1 POP DUP6 MLOAD DUP4 DUP7 DUP3 ADD ADD DUP6 DUP4 NOT DUP3 MLOAD AND OR DUP2 MSTORE DUP2 MLOAD DUP6 DUP9 ADD GT ISZERO PUSH2 0x147B JUMPI DUP5 DUP8 ADD DUP3 MSTORE JUMPDEST POP POP DUP6 SWAP2 POP POP SWAP5 SWAP4 POP POP POP POP JUMP JUMPDEST PUSH1 0x0 DUP2 DUP4 GT ISZERO PUSH2 0x149B JUMPI DUP3 SWAP1 POP PUSH2 0x149F JUMP JUMPDEST DUP2 SWAP1 POP JUMPDEST SWAP3 SWAP2 POP POP JUMP JUMPDEST PUSH1 0x0 DUP3 PUSH1 0x0 ADD MLOAD SWAP1 POP PUSH2 0x14B8 DUP4 DUP4 PUSH2 0xF7A JUMP JUMPDEST POP PUSH2 0x14C3 DUP4 DUP3 PUSH2 0x1169 JUMP JUMPDEST POP POP POP POP JUMP JUMPDEST PUSH1 0x40 MLOAD DUP1 PUSH1 0xA0 ADD PUSH1 0x40 MSTORE DUP1 PUSH1 0x0 DUP1 NOT AND DUP2 MSTORE PUSH1 0x20 ADD PUSH1 0x0 PUSH20 0xFFFFFFFFFFFFFFFFFFFFFFFFFFFFFFFFFFFFFFFF AND DUP2 MSTORE PUSH1 0x20 ADD PUSH1 0x0 PUSH28 0xFFFFFFFFFFFFFFFFFFFFFFFFFFFFFFFFFFFFFFFFFFFFFFFFFFFFFFFF NOT AND DUP2 MSTORE PUSH1 0x20 ADD PUSH1 0x0 DUP2 MSTORE PUSH1 0x20 ADD PUSH2 0x1530 PUSH2 0x1536 JUMP JUMPDEST DUP2 MSTORE POP SWAP1 JUMP JUMPDEST PUSH1 0x40 MLOAD DUP1 PUSH1 0x40 ADD PUSH1 0x40 MSTORE DUP1 PUSH1 0x60 DUP2 MSTORE PUSH1 0x20 ADD PUSH1 0x0 DUP2 MSTORE POP SWAP1 JUMP JUMPDEST PUSH1 0x0 PUSH2 0x1563 PUSH2 0x155E DUP5 PUSH2 0x1C39 JUMP JUMPDEST PUSH2 0x1C14 JUMP JUMPDEST SWAP1 POP DUP3 DUP2 MSTORE PUSH1 0x20 DUP2 ADD DUP5 DUP5 DUP5 ADD GT ISZERO PUSH2 0x157F JUMPI PUSH2 0x157E PUSH2 0x21E9 JUMP JUMPDEST JUMPDEST PUSH2 0x158A DUP5 DUP3 DUP6 PUSH2 0x2085 JUMP JUMPDEST POP SWAP4 SWAP3 POP POP POP JUMP JUMPDEST PUSH1 0x0 DUP2 CALLDATALOAD SWAP1 POP PUSH2 0x15A1 DUP2 PUSH2 0x2365 JUMP JUMPDEST SWAP3 SWAP2 POP POP JUMP JUMPDEST PUSH1 0x0 DUP2 MLOAD SWAP1 POP PUSH2 0x15B6 DUP2 PUSH2 0x237C JUMP JUMPDEST SWAP3 SWAP2 POP POP JUMP JUMPDEST PUSH1 0x0 DUP2 CALLDATALOAD SWAP1 POP PUSH2 0x15CB DUP2 PUSH2 0x2393 JUMP JUMPDEST SWAP3 SWAP2 POP POP JUMP JUMPDEST PUSH1 0x0 DUP2 CALLDATALOAD SWAP1 POP PUSH2 0x15E0 DUP2 PUSH2 0x23AA JUMP JUMPDEST SWAP3 SWAP2 POP POP JUMP JUMPDEST PUSH1 0x0 DUP3 PUSH1 0x1F DUP4 ADD SLT PUSH2 0x15FB JUMPI PUSH2 0x15FA PUSH2 0x21E4 JUMP JUMPDEST JUMPDEST DUP2 CALLDATALOAD PUSH2 0x160B DUP5 DUP3 PUSH1 0x20 DUP7 ADD PUSH2 0x1550 JUMP JUMPDEST SWAP2 POP POP SWAP3 SWAP2 POP POP JUMP JUMPDEST PUSH1 0x0 DUP2 CALLDATALOAD SWAP1 POP PUSH2 0x1623 DUP2 PUSH2 0x23C1 JUMP JUMPDEST SWAP3 SWAP2 POP POP JUMP JUMPDEST PUSH1 0x0 DUP2 MLOAD SWAP1 POP PUSH2 0x1638 DUP2 PUSH2 0x23C1 JUMP JUMPDEST SWAP3 SWAP2 POP POP JUMP JUMPDEST PUSH1 0x0 PUSH1 0x20 DUP3 DUP5 SUB SLT ISZERO PUSH2 0x1654 JUMPI PUSH2 0x1653 PUSH2 0x21F3 JUMP JUMPDEST JUMPDEST PUSH1 0x0 PUSH2 0x1662 DUP5 DUP3 DUP6 ADD PUSH2 0x1592 JUMP JUMPDEST SWAP2 POP POP SWAP3 SWAP2 POP POP JUMP JUMPDEST PUSH1 0x0 PUSH1 0x20 DUP3 DUP5 SUB SLT ISZERO PUSH2 0x1681 JUMPI PUSH2 0x1680 PUSH2 0x21F3 JUMP JUMPDEST JUMPDEST PUSH1 0x0 PUSH2 0x168F DUP5 DUP3 DUP6 ADD PUSH2 0x15A7 JUMP JUMPDEST SWAP2 POP POP SWAP3 SWAP2 POP POP JUMP JUMPDEST PUSH1 0x0 DUP1 PUSH1 0x40 DUP4 DUP6 SUB SLT ISZERO PUSH2 0x16AF JUMPI PUSH2 0x16AE PUSH2 0x21F3 JUMP JUMPDEST JUMPDEST PUSH1 0x0 PUSH2 0x16BD DUP6 DUP3 DUP7 ADD PUSH2 0x15BC JUMP JUMPDEST SWAP3 POP POP PUSH1 0x20 PUSH2 0x16CE DUP6 DUP3 DUP7 ADD PUSH2 0x1614 JUMP JUMPDEST SWAP2 POP POP SWAP3 POP SWAP3 SWAP1 POP JUMP JUMPDEST PUSH1 0x0 DUP1 PUSH1 0x0 DUP1 PUSH1 0x80 DUP6 DUP8 SUB SLT ISZERO PUSH2 0x16F2 JUMPI PUSH2 0x16F1 PUSH2 0x21F3 JUMP JUMPDEST JUMPDEST PUSH1 0x0 PUSH2 0x1700 DUP8 DUP3 DUP9 ADD PUSH2 0x15BC JUMP JUMPDEST SWAP5 POP POP PUSH1 0x20 PUSH2 0x1711 DUP8 DUP3 DUP9 ADD PUSH2 0x1614 JUMP JUMPDEST SWAP4 POP POP PUSH1 0x40 PUSH2 0x1722 DUP8 DUP3 DUP9 ADD PUSH2 0x15D1 JUMP JUMPDEST SWAP3 POP POP PUSH1 0x60 PUSH2 0x1733 DUP8 DUP3 DUP9 ADD PUSH2 0x1614 JUMP JUMPDEST SWAP2 POP POP SWAP3 SWAP6 SWAP2 SWAP5 POP SWAP3 POP JUMP JUMPDEST PUSH1 0x0 DUP1 PUSH1 0x0 PUSH1 0x60 DUP5 DUP7 SUB SLT ISZERO PUSH2 0x1758 JUMPI PUSH2 0x1757 PUSH2 0x21F3 JUMP JUMPDEST JUMPDEST PUSH1 0x0 DUP5 ADD CALLDATALOAD PUSH8 0xFFFFFFFFFFFFFFFF DUP2 GT ISZERO PUSH2 0x1776 JUMPI PUSH2 0x1775 PUSH2 0x21EE JUMP JUMPDEST JUMPDEST PUSH2 0x1782 DUP7 DUP3 DUP8 ADD PUSH2 0x15E6 JUMP JUMPDEST SWAP4 POP POP PUSH1 0x20 PUSH2 0x1793 DUP7 DUP3 DUP8 ADD PUSH2 0x1592 JUMP JUMPDEST SWAP3 POP POP PUSH1 0x40 DUP5 ADD CALLDATALOAD PUSH8 0xFFFFFFFFFFFFFFFF DUP2 GT ISZERO PUSH2 0x17B4 JUMPI PUSH2 0x17B3 PUSH2 0x21EE JUMP JUMPDEST JUMPDEST PUSH2 0x17C0 DUP7 DUP3 DUP8 ADD PUSH2 0x15E6 JUMP JUMPDEST SWAP2 POP POP SWAP3 POP SWAP3 POP SWAP3 JUMP JUMPDEST PUSH1 0x0 PUSH1 0x20 DUP3 DUP5 SUB SLT ISZERO PUSH2 0x17E0 JUMPI PUSH2 0x17DF PUSH2 0x21F3 JUMP JUMPDEST JUMPDEST PUSH1 0x0 PUSH2 0x17EE DUP5 DUP3 DUP6 ADD PUSH2 0x1629 JUMP JUMPDEST SWAP2 POP POP SWAP3 SWAP2 POP POP JUMP JUMPDEST PUSH2 0x1800 DUP2 PUSH2 0x1FC7 JUMP JUMPDEST DUP3 MSTORE POP POP JUMP JUMPDEST PUSH2 0x180F DUP2 PUSH2 0x1FE5 JUMP JUMPDEST DUP3 MSTORE POP POP JUMP JUMPDEST PUSH2 0x181E DUP2 PUSH2 0x1FEF JUMP JUMPDEST DUP3 MSTORE POP POP JUMP JUMPDEST PUSH1 0x0 PUSH2 0x182F DUP3 PUSH2 0x1C6A JUMP JUMPDEST PUSH2 0x1839 DUP2 DUP6 PUSH2 0x1C80 JUMP JUMPDEST SWAP4 POP PUSH2 0x1849 DUP2 DUP6 PUSH1 0x20 DUP7 ADD PUSH2 0x2094 JUMP JUMPDEST PUSH2 0x1852 DUP2 PUSH2 0x21F8 JUMP JUMPDEST DUP5 ADD SWAP2 POP POP SWAP3 SWAP2 POP POP JUMP JUMPDEST PUSH2 0x186E PUSH2 0x1869 DUP3 PUSH2 0x204F JUMP JUMPDEST PUSH2 0x20F8 JUMP JUMPDEST DUP3 MSTORE POP POP JUMP JUMPDEST PUSH1 0x0 PUSH2 0x187F DUP3 PUSH2 0x1C75 JUMP JUMPDEST PUSH2 0x1889 DUP2 DUP6 PUSH2 0x1CA2 JUMP JUMPDEST SWAP4 POP PUSH2 0x1899 DUP2 DUP6 PUSH1 0x20 DUP7 ADD PUSH2 0x2094 JUMP JUMPDEST DUP1 DUP5 ADD SWAP2 POP POP SWAP3 SWAP2 POP POP JUMP JUMPDEST PUSH1 0x0 PUSH2 0x18B2 PUSH1 0x16 DUP4 PUSH2 0x1C91 JUMP JUMPDEST SWAP2 POP PUSH2 0x18BD DUP3 PUSH2 0x2223 JUMP JUMPDEST PUSH1 0x20 DUP3 ADD SWAP1 POP SWAP2 SWAP1 POP JUMP JUMPDEST PUSH1 0x0 PUSH2 0x18D5 PUSH1 0x23 DUP4 PUSH2 0x1C91 JUMP JUMPDEST SWAP2 POP PUSH2 0x18E0 DUP3 PUSH2 0x224C JUMP JUMPDEST PUSH1 0x40 DUP3 ADD SWAP1 POP SWAP2 SWAP1 POP JUMP JUMPDEST PUSH1 0x0 PUSH2 0x18F8 PUSH1 0x16 DUP4 PUSH2 0x1C91 JUMP JUMPDEST SWAP2 POP PUSH2 0x1903 DUP3 PUSH2 0x229B JUMP JUMPDEST PUSH1 0x20 DUP3 ADD SWAP1 POP SWAP2 SWAP1 POP JUMP JUMPDEST PUSH1 0x0 PUSH2 0x191B PUSH1 0x12 DUP4 PUSH2 0x1C91 JUMP JUMPDEST SWAP2 POP PUSH2 0x1926 DUP3 PUSH2 0x22C4 JUMP JUMPDEST PUSH1 0x20 DUP3 ADD SWAP1 POP SWAP2 SWAP1 POP JUMP JUMPDEST PUSH1 0x0 PUSH2 0x193E PUSH1 0x17 DUP4 PUSH2 0x1C91 JUMP JUMPDEST SWAP2 POP PUSH2 0x1949 DUP3 PUSH2 0x22ED JUMP JUMPDEST PUSH1 0x20 DUP3 ADD SWAP1 POP SWAP2 SWAP1 POP JUMP JUMPDEST PUSH1 0x0 PUSH2 0x1961 PUSH1 0x28 DUP4 PUSH2 0x1C91 JUMP JUMPDEST SWAP2 POP PUSH2 0x196C DUP3 PUSH2 0x2316 JUMP JUMPDEST PUSH1 0x40 DUP3 ADD SWAP1 POP SWAP2 SWAP1 POP JUMP JUMPDEST PUSH2 0x1980 DUP2 PUSH2 0x2045 JUMP JUMPDEST DUP3 MSTORE POP POP JUMP JUMPDEST PUSH2 0x1997 PUSH2 0x1992 DUP3 PUSH2 0x2045 JUMP JUMPDEST PUSH2 0x211C JUMP JUMPDEST DUP3 MSTORE POP POP JUMP JUMPDEST PUSH1 0x0 PUSH2 0x19A9 DUP3 DUP6 PUSH2 0x185D JUMP JUMPDEST PUSH1 0x14 DUP3 ADD SWAP2 POP PUSH2 0x19B9 DUP3 DUP5 PUSH2 0x1986 JUMP JUMPDEST PUSH1 0x20 DUP3 ADD SWAP2 POP DUP2 SWAP1 POP SWAP4 SWAP3 POP POP POP JUMP JUMPDEST PUSH1 0x0 PUSH2 0x19D5 DUP3 DUP6 PUSH2 0x1874 JUMP JUMPDEST SWAP2 POP PUSH2 0x19E1 DUP3 DUP5 PUSH2 0x1874 JUMP JUMPDEST SWAP2 POP DUP2 SWAP1 POP SWAP4 SWAP3 POP POP POP JUMP JUMPDEST PUSH1 0x0 PUSH1 0x20 DUP3 ADD SWAP1 POP PUSH2 0x1A02 PUSH1 0x0 DUP4 ADD DUP5 PUSH2 0x17F7 JUMP JUMPDEST SWAP3 SWAP2 POP POP JUMP JUMPDEST PUSH1 0x0 PUSH1 0x40 DUP3 ADD SWAP1 POP PUSH2 0x1A1D PUSH1 0x0 DUP4 ADD DUP6 PUSH2 0x17F7 JUMP JUMPDEST PUSH2 0x1A2A PUSH1 0x20 DUP4 ADD DUP5 PUSH2 0x1977 JUMP JUMPDEST SWAP4 SWAP3 POP POP POP JUMP JUMPDEST PUSH1 0x0 PUSH2 0x100 DUP3 ADD SWAP1 POP PUSH2 0x1A47 PUSH1 0x0 DUP4 ADD DUP12 PUSH2 0x17F7 JUMP JUMPDEST PUSH2 0x1A54 PUSH1 0x20 DUP4 ADD DUP11 PUSH2 0x1977 JUMP JUMPDEST PUSH2 0x1A61 PUSH1 0x40 DUP4 ADD DUP10 PUSH2 0x1806 JUMP JUMPDEST PUSH2 0x1A6E PUSH1 0x60 DUP4 ADD DUP9 PUSH2 0x17F7 JUMP JUMPDEST PUSH2 0x1A7B PUSH1 0x80 DUP4 ADD DUP8 PUSH2 0x1815 JUMP JUMPDEST PUSH2 0x1A88 PUSH1 0xA0 DUP4 ADD DUP7 PUSH2 0x1977 JUMP JUMPDEST PUSH2 0x1A95 PUSH1 0xC0 DUP4 ADD DUP6 PUSH2 0x1977 JUMP JUMPDEST DUP2 DUP2 SUB PUSH1 0xE0 DUP4 ADD MSTORE PUSH2 0x1AA7 DUP2 DUP5 PUSH2 0x1824 JUMP JUMPDEST SWAP1 POP SWAP10 SWAP9 POP POP POP POP POP POP POP POP POP JUMP JUMPDEST PUSH1 0x0 PUSH1 0x60 DUP3 ADD SWAP1 POP PUSH2 0x1ACB PUSH1 0x0 DUP4 ADD DUP7 PUSH2 0x17F7 JUMP JUMPDEST PUSH2 0x1AD8 PUSH1 0x20 DUP4 ADD DUP6 PUSH2 0x1977 JUMP JUMPDEST DUP2 DUP2 SUB PUSH1 0x40 DUP4 ADD MSTORE PUSH2 0x1AEA DUP2 DUP5 PUSH2 0x1824 JUMP JUMPDEST SWAP1 POP SWAP5 SWAP4 POP POP POP POP JUMP JUMPDEST PUSH1 0x0 PUSH1 0x80 DUP3 ADD SWAP1 POP PUSH2 0x1B09 PUSH1 0x0 DUP4 ADD DUP8 PUSH2 0x1806 JUMP JUMPDEST PUSH2 0x1B16 PUSH1 0x20 DUP4 ADD DUP7 PUSH2 0x1977 JUMP JUMPDEST PUSH2 0x1B23 PUSH1 0x40 DUP4 ADD DUP6 PUSH2 0x1815 JUMP JUMPDEST PUSH2 0x1B30 PUSH1 0x60 DUP4 ADD DUP5 PUSH2 0x1977 JUMP JUMPDEST SWAP6 SWAP5 POP POP POP POP POP JUMP JUMPDEST PUSH1 0x0 PUSH1 0x20 DUP3 ADD SWAP1 POP DUP2 DUP2 SUB PUSH1 0x0 DUP4 ADD MSTORE PUSH2 0x1B52 DUP2 PUSH2 0x18A5 JUMP JUMPDEST SWAP1 POP SWAP2 SWAP1 POP JUMP JUMPDEST PUSH1 0x0 PUSH1 0x20 DUP3 ADD SWAP1 POP DUP2 DUP2 SUB PUSH1 0x0 DUP4 ADD MSTORE PUSH2 0x1B72 DUP2 PUSH2 0x18C8 JUMP JUMPDEST SWAP1 POP SWAP2 SWAP1 POP JUMP JUMPDEST PUSH1 0x0 PUSH1 0x20 DUP3 ADD SWAP1 POP DUP2 DUP2 SUB PUSH1 0x0 DUP4 ADD MSTORE PUSH2 0x1B92 DUP2 PUSH2 0x18EB JUMP JUMPDEST SWAP1 POP SWAP2 SWAP1 POP JUMP JUMPDEST PUSH1 0x0 PUSH1 0x20 DUP3 ADD SWAP1 POP DUP2 DUP2 SUB PUSH1 0x0 DUP4 ADD MSTORE PUSH2 0x1BB2 DUP2 PUSH2 0x190E JUMP JUMPDEST SWAP1 POP SWAP2 SWAP1 POP JUMP JUMPDEST PUSH1 0x0 PUSH1 0x20 DUP3 ADD SWAP1 POP DUP2 DUP2 SUB PUSH1 0x0 DUP4 ADD MSTORE PUSH2 0x1BD2 DUP2 PUSH2 0x1931 JUMP JUMPDEST SWAP1 POP SWAP2 SWAP1 POP JUMP JUMPDEST PUSH1 0x0 PUSH1 0x20 DUP3 ADD SWAP1 POP DUP2 DUP2 SUB PUSH1 0x0 DUP4 ADD MSTORE PUSH2 0x1BF2 DUP2 PUSH2 0x1954 JUMP JUMPDEST SWAP1 POP SWAP2 SWAP1 POP JUMP JUMPDEST PUSH1 0x0 PUSH1 0x20 DUP3 ADD SWAP1 POP PUSH2 0x1C0E PUSH1 0x0 DUP4 ADD DUP5 PUSH2 0x1977 JUMP JUMPDEST SWAP3 SWAP2 POP POP JUMP JUMPDEST PUSH1 0x0 PUSH2 0x1C1E PUSH2 0x1C2F JUMP JUMPDEST SWAP1 POP PUSH2 0x1C2A DUP3 DUP3 PUSH2 0x20C7 JUMP JUMPDEST SWAP2 SWAP1 POP JUMP JUMPDEST PUSH1 0x0 PUSH1 0x40 MLOAD SWAP1 POP SWAP1 JUMP JUMPDEST PUSH1 0x0 PUSH8 0xFFFFFFFFFFFFFFFF DUP3 GT ISZERO PUSH2 0x1C54 JUMPI PUSH2 0x1C53 PUSH2 0x21B5 JUMP JUMPDEST JUMPDEST PUSH2 0x1C5D DUP3 PUSH2 0x21F8 JUMP JUMPDEST SWAP1 POP PUSH1 0x20 DUP2 ADD SWAP1 POP SWAP2 SWAP1 POP JUMP JUMPDEST PUSH1 0x0 DUP2 MLOAD SWAP1 POP SWAP2 SWAP1 POP JUMP JUMPDEST PUSH1 0x0 DUP2 MLOAD SWAP1 POP SWAP2 SWAP1 POP JUMP JUMPDEST PUSH1 0x0 DUP3 DUP3 MSTORE PUSH1 0x20 DUP3 ADD SWAP1 POP SWAP3 SWAP2 POP POP JUMP JUMPDEST PUSH1 0x0 DUP3 DUP3 MSTORE PUSH1 0x20 DUP3 ADD SWAP1 POP SWAP3 SWAP2 POP POP JUMP JUMPDEST PUSH1 0x0 DUP2 SWAP1 POP SWAP3 SWAP2 POP POP JUMP JUMPDEST PUSH1 0x0 PUSH2 0x1CB8 DUP3 PUSH2 0x2045 JUMP JUMPDEST SWAP2 POP PUSH2 0x1CC3 DUP4 PUSH2 0x2045 JUMP JUMPDEST SWAP3 POP DUP3 PUSH32 0xFFFFFFFFFFFFFFFFFFFFFFFFFFFFFFFFFFFFFFFFFFFFFFFFFFFFFFFFFFFFFFFF SUB DUP3 GT ISZERO PUSH2 0x1CF8 JUMPI PUSH2 0x1CF7 PUSH2 0x2157 JUMP JUMPDEST JUMPDEST DUP3 DUP3 ADD SWAP1 POP SWAP3 SWAP2 POP POP JUMP JUMPDEST PUSH1 0x0 PUSH2 0x1D0E DUP3 PUSH2 0x2045 JUMP JUMPDEST SWAP2 POP PUSH2 0x1D19 DUP4 PUSH2 0x2045 JUMP JUMPDEST SWAP3 POP DUP3 PUSH2 0x1D29 JUMPI PUSH2 0x1D28 PUSH2 0x2186 JUMP JUMPDEST JUMPDEST DUP3 DUP3 DIV SWAP1 POP SWAP3 SWAP2 POP POP JUMP JUMPDEST PUSH1 0x0 DUP1 DUP3 SWAP2 POP DUP4 SWAP1 POP JUMPDEST PUSH1 0x1 DUP6 GT ISZERO PUSH2 0x1D7E JUMPI DUP1 DUP7 DIV DUP2 GT ISZERO PUSH2 0x1D5A JUMPI PUSH2 0x1D59 PUSH2 0x2157 JUMP JUMPDEST JUMPDEST PUSH1 0x1 DUP6 AND ISZERO PUSH2 0x1D69 JUMPI DUP1 DUP3 MUL SWAP2 POP JUMPDEST DUP1 DUP2 MUL SWAP1 POP PUSH2 0x1D77 DUP6 PUSH2 0x2216 JUMP JUMPDEST SWAP5 POP PUSH2 0x1D3E JUMP JUMPDEST SWAP5 POP SWAP5 SWAP3 POP POP POP JUMP JUMPDEST PUSH1 0x0 PUSH2 0x1D92 DUP3 PUSH2 0x2045 JUMP JUMPDEST SWAP2 POP PUSH2 0x1D9D DUP4 PUSH2 0x2045 JUMP JUMPDEST SWAP3 POP PUSH2 0x1DCA PUSH32 0xFFFFFFFFFFFFFFFFFFFFFFFFFFFFFFFFFFFFFFFFFFFFFFFFFFFFFFFFFFFFFFFF DUP5 DUP5 PUSH2 0x1DD2 JUMP JUMPDEST SWAP1 POP SWAP3 SWAP2 POP POP JUMP JUMPDEST PUSH1 0x0 DUP3 PUSH2 0x1DE2 JUMPI PUSH1 0x1 SWAP1 POP PUSH2 0x1E9E JUMP JUMPDEST DUP2 PUSH2 0x1DF0 JUMPI PUSH1 0x0 SWAP1 POP PUSH2 0x1E9E JUMP JUMPDEST DUP2 PUSH1 0x1 DUP2 EQ PUSH2 0x1E06 JUMPI PUSH1 0x2 DUP2 EQ PUSH2 0x1E10 JUMPI PUSH2 0x1E3F JUMP JUMPDEST PUSH1 0x1 SWAP2 POP POP PUSH2 0x1E9E JUMP JUMPDEST PUSH1 0xFF DUP5 GT ISZERO PUSH2 0x1E22 JUMPI PUSH2 0x1E21 PUSH2 0x2157 JUMP JUMPDEST JUMPDEST DUP4 PUSH1 0x2 EXP SWAP2 POP DUP5 DUP3 GT ISZERO PUSH2 0x1E39 JUMPI PUSH2 0x1E38 PUSH2 0x2157 JUMP JUMPDEST JUMPDEST POP PUSH2 0x1E9E JUMP JUMPDEST POP PUSH1 0x20 DUP4 LT PUSH2 0x133 DUP4 LT AND PUSH1 0x4E DUP5 LT PUSH1 0xB DUP5 LT AND OR ISZERO PUSH2 0x1E74 JUMPI DUP3 DUP3 EXP SWAP1 POP DUP4 DUP2 GT ISZERO PUSH2 0x1E6F JUMPI PUSH2 0x1E6E PUSH2 0x2157 JUMP JUMPDEST JUMPDEST PUSH2 0x1E9E JUMP JUMPDEST PUSH2 0x1E81 DUP5 DUP5 DUP5 PUSH1 0x1 PUSH2 0x1D34 JUMP JUMPDEST SWAP3 POP SWAP1 POP DUP2 DUP5 DIV DUP2 GT ISZERO PUSH2 0x1E98 JUMPI PUSH2 0x1E97 PUSH2 0x2157 JUMP JUMPDEST JUMPDEST DUP2 DUP2 MUL SWAP1 POP JUMPDEST SWAP4 SWAP3 POP POP POP JUMP JUMPDEST PUSH1 0x0 PUSH2 0x1EB0 DUP3 PUSH2 0x2045 JUMP JUMPDEST SWAP2 POP PUSH2 0x1EBB DUP4 PUSH2 0x2045 JUMP JUMPDEST SWAP3 POP DUP2 PUSH32 0xFFFFFFFFFFFFFFFFFFFFFFFFFFFFFFFFFFFFFFFFFFFFFFFFFFFFFFFFFFFFFFFF DIV DUP4 GT DUP3 ISZERO ISZERO AND ISZERO PUSH2 0x1EF4 JUMPI PUSH2 0x1EF3 PUSH2 0x2157 JUMP JUMPDEST JUMPDEST DUP3 DUP3 MUL SWAP1 POP SWAP3 SWAP2 POP POP JUMP JUMPDEST PUSH1 0x0 PUSH2 0x1F0A DUP3 PUSH2 0x201B JUMP JUMPDEST SWAP2 POP PUSH2 0x1F15 DUP4 PUSH2 0x201B JUMP JUMPDEST SWAP3 POP DUP3 PUSH32 0x8000000000000000000000000000000000000000000000000000000000000000 ADD DUP3 SLT PUSH1 0x0 DUP5 SLT ISZERO AND ISZERO PUSH2 0x1F50 JUMPI PUSH2 0x1F4F PUSH2 0x2157 JUMP JUMPDEST JUMPDEST DUP3 PUSH32 0x7FFFFFFFFFFFFFFFFFFFFFFFFFFFFFFFFFFFFFFFFFFFFFFFFFFFFFFFFFFFFFFF ADD DUP3 SGT PUSH1 0x0 DUP5 SLT AND ISZERO PUSH2 0x1F88 JUMPI PUSH2 0x1F87 PUSH2 0x2157 JUMP JUMPDEST JUMPDEST DUP3 DUP3 SUB SWAP1 POP SWAP3 SWAP2 POP POP JUMP JUMPDEST PUSH1 0x0 PUSH2 0x1F9E DUP3 PUSH2 0x2045 JUMP JUMPDEST SWAP2 POP PUSH2 0x1FA9 DUP4 PUSH2 0x2045 JUMP JUMPDEST SWAP3 POP DUP3 DUP3 LT ISZERO PUSH2 0x1FBC JUMPI PUSH2 0x1FBB PUSH2 0x2157 JUMP JUMPDEST JUMPDEST DUP3 DUP3 SUB SWAP1 POP SWAP3 SWAP2 POP POP JUMP JUMPDEST PUSH1 0x0 PUSH2 0x1FD2 DUP3 PUSH2 0x2025 JUMP JUMPDEST SWAP1 POP SWAP2 SWAP1 POP JUMP JUMPDEST PUSH1 0x0 DUP2 ISZERO ISZERO SWAP1 POP SWAP2 SWAP1 POP JUMP JUMPDEST PUSH1 0x0 DUP2 SWAP1 POP SWAP2 SWAP1 POP JUMP JUMPDEST PUSH1 0x0 PUSH32 0xFFFFFFFF00000000000000000000000000000000000000000000000000000000 DUP3 AND SWAP1 POP SWAP2 SWAP1 POP JUMP JUMPDEST PUSH1 0x0 DUP2 SWAP1 POP SWAP2 SWAP1 POP JUMP JUMPDEST PUSH1 0x0 PUSH20 0xFFFFFFFFFFFFFFFFFFFFFFFFFFFFFFFFFFFFFFFF DUP3 AND SWAP1 POP SWAP2 SWAP1 POP JUMP JUMPDEST PUSH1 0x0 DUP2 SWAP1 POP SWAP2 SWAP1 POP JUMP JUMPDEST PUSH1 0x0 PUSH2 0x205A DUP3 PUSH2 0x2061 JUMP JUMPDEST SWAP1 POP SWAP2 SWAP1 POP JUMP JUMPDEST PUSH1 0x0 PUSH2 0x206C DUP3 PUSH2 0x2073 JUMP JUMPDEST SWAP1 POP SWAP2 SWAP1 POP JUMP JUMPDEST PUSH1 0x0 PUSH2 0x207E DUP3 PUSH2 0x2025 JUMP JUMPDEST SWAP1 POP SWAP2 SWAP1 POP JUMP JUMPDEST DUP3 DUP2 DUP4 CALLDATACOPY PUSH1 0x0 DUP4 DUP4 ADD MSTORE POP POP POP JUMP JUMPDEST PUSH1 0x0 JUMPDEST DUP4 DUP2 LT ISZERO PUSH2 0x20B2 JUMPI DUP1 DUP3 ADD MLOAD DUP2 DUP5 ADD MSTORE PUSH1 0x20 DUP2 ADD SWAP1 POP PUSH2 0x2097 JUMP JUMPDEST DUP4 DUP2 GT ISZERO PUSH2 0x20C1 JUMPI PUSH1 0x0 DUP5 DUP5 ADD MSTORE JUMPDEST POP POP POP POP JUMP JUMPDEST PUSH2 0x20D0 DUP3 PUSH2 0x21F8 JUMP JUMPDEST DUP2 ADD DUP2 DUP2 LT PUSH8 0xFFFFFFFFFFFFFFFF DUP3 GT OR ISZERO PUSH2 0x20EF JUMPI PUSH2 0x20EE PUSH2 0x21B5 JUMP JUMPDEST JUMPDEST DUP1 PUSH1 0x40 MSTORE POP POP POP JUMP JUMPDEST PUSH1 0x0 PUSH2 0x2103 DUP3 PUSH2 0x210A JUMP JUMPDEST SWAP1 POP SWAP2 SWAP1 POP JUMP JUMPDEST PUSH1 0x0 PUSH2 0x2115 DUP3 PUSH2 0x2209 JUMP JUMPDEST SWAP1 POP SWAP2 SWAP1 POP JUMP JUMPDEST PUSH1 0x0 DUP2 SWAP1 POP SWAP2 SWAP1 POP JUMP JUMPDEST PUSH1 0x0 PUSH2 0x2131 DUP3 PUSH2 0x2045 JUMP JUMPDEST SWAP2 POP PUSH2 0x213C DUP4 PUSH2 0x2045 JUMP JUMPDEST SWAP3 POP DUP3 PUSH2 0x214C JUMPI PUSH2 0x214B PUSH2 0x2186 JUMP JUMPDEST JUMPDEST DUP3 DUP3 MOD SWAP1 POP SWAP3 SWAP2 POP POP JUMP JUMPDEST PUSH32 0x4E487B7100000000000000000000000000000000000000000000000000000000 PUSH1 0x0 MSTORE PUSH1 0x11 PUSH1 0x4 MSTORE PUSH1 0x24 PUSH1 0x0 REVERT JUMPDEST PUSH32 0x4E487B7100000000000000000000000000000000000000000000000000000000 PUSH1 0x0 MSTORE PUSH1 0x12 PUSH1 0x4 MSTORE PUSH1 0x24 PUSH1 0x0 REVERT JUMPDEST PUSH32 0x4E487B7100000000000000000000000000000000000000000000000000000000 PUSH1 0x0 MSTORE PUSH1 0x41 PUSH1 0x4 MSTORE PUSH1 0x24 PUSH1 0x0 REVERT JUMPDEST PUSH1 0x0 DUP1 REVERT JUMPDEST PUSH1 0x0 DUP1 REVERT JUMPDEST PUSH1 0x0 DUP1 REVERT JUMPDEST PUSH1 0x0 DUP1 REVERT JUMPDEST PUSH1 0x0 PUSH1 0x1F NOT PUSH1 0x1F DUP4 ADD AND SWAP1 POP SWAP2 SWAP1 POP JUMP JUMPDEST PUSH1 0x0 DUP2 PUSH1 0x60 SHL SWAP1 POP SWAP2 SWAP1 POP JUMP JUMPDEST PUSH1 0x0 DUP2 PUSH1 0x1 SHR SWAP1 POP SWAP2 SWAP1 POP JUMP JUMPDEST PUSH32 0x4D7573742062652070726F706F736564206F776E657200000000000000000000 PUSH1 0x0 DUP3 ADD MSTORE POP JUMP JUMPDEST PUSH32 0x756E61626C6520746F207472616E73666572416E6443616C6C20746F206F7261 PUSH1 0x0 DUP3 ADD MSTORE PUSH32 0x636C650000000000000000000000000000000000000000000000000000000000 PUSH1 0x20 DUP3 ADD MSTORE POP JUMP JUMPDEST PUSH32 0x4F6E6C792063616C6C61626C65206279206F776E657200000000000000000000 PUSH1 0x0 DUP3 ADD MSTORE POP JUMP JUMPDEST PUSH32 0x556E61626C6520746F207472616E736665720000000000000000000000000000 PUSH1 0x0 DUP3 ADD MSTORE POP JUMP JUMPDEST PUSH32 0x43616E6E6F74207472616E7366657220746F2073656C66000000000000000000 PUSH1 0x0 DUP3 ADD MSTORE POP JUMP JUMPDEST PUSH32 0x536F75726365206D75737420626520746865206F7261636C65206F6620746865 PUSH1 0x0 DUP3 ADD MSTORE PUSH32 0x2072657175657374000000000000000000000000000000000000000000000000 PUSH1 0x20 DUP3 ADD MSTORE POP JUMP JUMPDEST PUSH2 0x236E DUP2 PUSH2 0x1FC7 JUMP JUMPDEST DUP2 EQ PUSH2 0x2379 JUMPI PUSH1 0x0 DUP1 REVERT JUMPDEST POP JUMP JUMPDEST PUSH2 0x2385 DUP2 PUSH2 0x1FD9 JUMP JUMPDEST DUP2 EQ PUSH2 0x2390 JUMPI PUSH1 0x0 DUP1 REVERT JUMPDEST POP JUMP JUMPDEST PUSH2 0x239C DUP2 PUSH2 0x1FE5 JUMP JUMPDEST DUP2 EQ PUSH2 0x23A7 JUMPI PUSH1 0x0 DUP1 REVERT JUMPDEST POP JUMP JUMPDEST PUSH2 0x23B3 DUP2 PUSH2 0x1FEF JUMP JUMPDEST DUP2 EQ PUSH2 0x23BE JUMPI PUSH1 0x0 DUP1 REVERT JUMPDEST POP JUMP JUMPDEST PUSH2 0x23CA DUP2 PUSH2 0x2045 JUMP JUMPDEST DUP2 EQ PUSH2 0x23D5 JUMPI PUSH1 0x0 DUP1 REVERT JUMPDEST POP JUMP INVALID PUSH9 0x747470733A2F2F6170 PUSH10 0x2E6D61746261726F6665 PUSH25 0x2E636F6D2E61722F76312F726573742F696E64696365732FA2 PUSH5 0x6970667358 0x22 SLT KECCAK256 0x2E 0x24 0xD8 CALL 0xC4 0xCA 0x2B GAS 0xE8 0xAB 0xEB PUSH15 0x50ABF0E80289B37C34914FBB7C01C 0xA7 SWAP5 0xDD CREATE 0xED PUSH5 0x736F6C6343 STOP ADDMOD SMOD STOP CALLER "
				},
				"gasEstimates": {
					"creation": {
						"codeDepositCost": "1855200",
						"executionCost": "infinite",
						"totalCost": "infinite"
					},
					"external": {
						"acceptOwnership()": "54563",
						"cancelRequest(bytes32,uint256,bytes4,uint256)": "infinite",
						"currentPrice()": "2451",
						"fulfillPrice(bytes32,uint256)": "51999",
						"getChainlinkToken()": "2558",
						"owner()": "2589",
						"requestPrice(string,address,string)": "infinite",
						"transferOwnership(address)": "30751",
						"withdrawLink()": "infinite"
					},
					"internal": {
						"stringToBytes32(string memory)": "infinite"
					}
				},
				"methodIdentifiers": {
					"acceptOwnership()": "79ba5097",
					"cancelRequest(bytes32,uint256,bytes4,uint256)": "ec65d0f8",
					"currentPrice()": "9d1b464a",
					"fulfillPrice(bytes32,uint256)": "8d2a648d",
					"getChainlinkToken()": "165d35e1",
					"owner()": "8da5cb5b",
					"requestPrice(string,address,string)": "d6948f0e",
					"transferOwnership(address)": "f2fde38b",
					"withdrawLink()": "8dc654a2"
				}
			},
			"storageLayout": {
				"storage": [
					{
						"astId": 319,
						"contract": "docs.chain.link/samples/APIRequests/AMatbaRofexConsumer.sol:AMatbaRofexConsumer",
						"label": "s_ens",
						"offset": 0,
						"slot": "0",
						"type": "t_contract(ENSInterface)1156"
					},
					{
						"astId": 321,
						"contract": "docs.chain.link/samples/APIRequests/AMatbaRofexConsumer.sol:AMatbaRofexConsumer",
						"label": "s_ensNode",
						"offset": 0,
						"slot": "1",
						"type": "t_bytes32"
					},
					{
						"astId": 324,
						"contract": "docs.chain.link/samples/APIRequests/AMatbaRofexConsumer.sol:AMatbaRofexConsumer",
						"label": "s_link",
						"offset": 0,
						"slot": "2",
						"type": "t_contract(LinkTokenInterface)1251"
					},
					{
						"astId": 327,
						"contract": "docs.chain.link/samples/APIRequests/AMatbaRofexConsumer.sol:AMatbaRofexConsumer",
						"label": "s_oracle",
						"offset": 0,
						"slot": "3",
						"type": "t_contract(OperatorInterface)1331"
					},
					{
						"astId": 330,
						"contract": "docs.chain.link/samples/APIRequests/AMatbaRofexConsumer.sol:AMatbaRofexConsumer",
						"label": "s_requestCount",
						"offset": 0,
						"slot": "4",
						"type": "t_uint256"
					},
					{
						"astId": 334,
						"contract": "docs.chain.link/samples/APIRequests/AMatbaRofexConsumer.sol:AMatbaRofexConsumer",
						"label": "s_pendingRequests",
						"offset": 0,
						"slot": "5",
						"type": "t_mapping(t_bytes32,t_address)"
					},
					{
						"astId": 889,
						"contract": "docs.chain.link/samples/APIRequests/AMatbaRofexConsumer.sol:AMatbaRofexConsumer",
						"label": "s_owner",
						"offset": 0,
						"slot": "6",
						"type": "t_address"
					},
					{
						"astId": 891,
						"contract": "docs.chain.link/samples/APIRequests/AMatbaRofexConsumer.sol:AMatbaRofexConsumer",
						"label": "s_pendingOwner",
						"offset": 0,
						"slot": "7",
						"type": "t_address"
					},
					{
						"astId": 2398,
						"contract": "docs.chain.link/samples/APIRequests/AMatbaRofexConsumer.sol:AMatbaRofexConsumer",
						"label": "currentPrice",
						"offset": 0,
						"slot": "8",
						"type": "t_uint256"
					}
				],
				"types": {
					"t_address": {
						"encoding": "inplace",
						"label": "address",
						"numberOfBytes": "20"
					},
					"t_bytes32": {
						"encoding": "inplace",
						"label": "bytes32",
						"numberOfBytes": "32"
					},
					"t_contract(ENSInterface)1156": {
						"encoding": "inplace",
						"label": "contract ENSInterface",
						"numberOfBytes": "20"
					},
					"t_contract(LinkTokenInterface)1251": {
						"encoding": "inplace",
						"label": "contract LinkTokenInterface",
						"numberOfBytes": "20"
					},
					"t_contract(OperatorInterface)1331": {
						"encoding": "inplace",
						"label": "contract OperatorInterface",
						"numberOfBytes": "20"
					},
					"t_mapping(t_bytes32,t_address)": {
						"encoding": "mapping",
						"key": "t_bytes32",
						"label": "mapping(bytes32 => address)",
						"numberOfBytes": "32",
						"value": "t_address"
					},
					"t_uint256": {
						"encoding": "inplace",
						"label": "uint256",
						"numberOfBytes": "32"
					}
				}
			},
			"userdoc": {
				"kind": "user",
				"methods": {
					"acceptOwnership()": {
						"notice": "Allows an ownership transfer to be completed by the recipient."
					},
					"owner()": {
						"notice": "Get the current owner"
					},
					"transferOwnership(address)": {
						"notice": "Allows an owner to begin transferring ownership to a new address, pending."
					}
				},
				"version": 1
			}
		}
	}
}