{
	"docs.chain.link/samples/APIRequests/GenericBigWord.sol": {
		"GenericLargeResponse": {
			"abi": [
				{
					"inputs": [],
					"stateMutability": "nonpayable",
					"type": "constructor"
				},
				{
					"anonymous": false,
					"inputs": [
						{
							"indexed": true,
							"internalType": "bytes32",
							"name": "id",
							"type": "bytes32"
						}
					],
					"name": "ChainlinkCancelled",
					"type": "event"
				},
				{
					"anonymous": false,
					"inputs": [
						{
							"indexed": true,
							"internalType": "bytes32",
							"name": "id",
							"type": "bytes32"
						}
					],
					"name": "ChainlinkFulfilled",
					"type": "event"
				},
				{
					"anonymous": false,
					"inputs": [
						{
							"indexed": true,
							"internalType": "bytes32",
							"name": "id",
							"type": "bytes32"
						}
					],
					"name": "ChainlinkRequested",
					"type": "event"
				},
				{
					"anonymous": false,
					"inputs": [
						{
							"indexed": true,
							"internalType": "address",
							"name": "from",
							"type": "address"
						},
						{
							"indexed": true,
							"internalType": "address",
							"name": "to",
							"type": "address"
						}
					],
					"name": "OwnershipTransferRequested",
					"type": "event"
				},
				{
					"anonymous": false,
					"inputs": [
						{
							"indexed": true,
							"internalType": "address",
							"name": "from",
							"type": "address"
						},
						{
							"indexed": true,
							"internalType": "address",
							"name": "to",
							"type": "address"
						}
					],
					"name": "OwnershipTransferred",
					"type": "event"
				},
				{
					"anonymous": false,
					"inputs": [
						{
							"indexed": true,
							"internalType": "bytes32",
							"name": "requestId",
							"type": "bytes32"
						},
						{
							"indexed": true,
							"internalType": "bytes",
							"name": "data",
							"type": "bytes"
						}
					],
					"name": "RequestFulfilled",
					"type": "event"
				},
				{
					"inputs": [],
					"name": "acceptOwnership",
					"outputs": [],
					"stateMutability": "nonpayable",
					"type": "function"
				},
				{
					"inputs": [],
					"name": "data",
					"outputs": [
						{
							"internalType": "bytes",
							"name": "",
							"type": "bytes"
						}
					],
					"stateMutability": "view",
					"type": "function"
				},
				{
					"inputs": [
						{
							"internalType": "bytes32",
							"name": "requestId",
							"type": "bytes32"
						},
						{
							"internalType": "bytes",
							"name": "bytesData",
							"type": "bytes"
						}
					],
					"name": "fulfillBytes",
					"outputs": [],
					"stateMutability": "nonpayable",
					"type": "function"
				},
				{
					"inputs": [],
					"name": "image_url",
					"outputs": [
						{
							"internalType": "string",
							"name": "",
							"type": "string"
						}
					],
					"stateMutability": "view",
					"type": "function"
				},
				{
					"inputs": [],
					"name": "owner",
					"outputs": [
						{
							"internalType": "address",
							"name": "",
							"type": "address"
						}
					],
					"stateMutability": "view",
					"type": "function"
				},
				{
					"inputs": [],
					"name": "requestBytes",
					"outputs": [],
					"stateMutability": "nonpayable",
					"type": "function"
				},
				{
					"inputs": [
						{
							"internalType": "address",
							"name": "to",
							"type": "address"
						}
					],
					"name": "transferOwnership",
					"outputs": [],
					"stateMutability": "nonpayable",
					"type": "function"
				},
				{
					"inputs": [],
					"name": "withdrawLink",
					"outputs": [],
					"stateMutability": "nonpayable",
					"type": "function"
				}
			],
			"devdoc": {
				"kind": "dev",
				"methods": {
					"constructor": {
						"details": "The oracle address must be an Operator contract for multiword response Sepolia Testnet details: Link Token: 0x779877A7B0D9E8603169DdbD7836e478b4624789 Oracle: 0x6090149792dAAeE9D1D568c9f9a6F6B46AA29eFD (Chainlink DevRel) jobId: 7da2702f37fd48e5b1b9a5715e3509b6"
					},
					"fulfillBytes(bytes32,bytes)": {
						"details": "This is called by the oracle. recordChainlinkFulfillment must be used."
					}
				},
				"version": 1
			},
			"evm": {
				"assembly": "    /* \"docs.chain.link/samples/APIRequests/GenericBigWord.sol\":569:2940  contract GenericLargeResponse is ChainlinkClient, ConfirmedOwner {... */\n  mstore(0x40, 0x80)\n    /* \"@chainlink/contracts/src/v0.8/ChainlinkClient.sol\":1291:1292  1 */\n  0x01\n    /* \"@chainlink/contracts/src/v0.8/ChainlinkClient.sol\":1258:1292  uint256 private s_requestCount = 1 */\n  0x04\n  sstore\n    /* \"docs.chain.link/samples/APIRequests/GenericBigWord.sol\":1278:1609  constructor() ConfirmedOwner(msg.sender) {... */\n  callvalue\n  dup1\n  iszero\n  tag_1\n  jumpi\n  0x00\n  dup1\n  revert\ntag_1:\n  pop\n    /* \"docs.chain.link/samples/APIRequests/GenericBigWord.sol\":1307:1317  msg.sender */\n  caller\n    /* \"@chainlink/contracts/src/v0.8/ConfirmedOwner.sol\":327:335  newOwner */\n  dup1\n    /* \"@chainlink/contracts/src/v0.8/ConfirmedOwner.sol\":345:346  0 */\n  0x00\n    /* \"@chainlink/contracts/src/v0.8/ConfirmedOwnerWithProposal.sol\":572:573  0 */\n  dup1\n    /* \"@chainlink/contracts/src/v0.8/ConfirmedOwnerWithProposal.sol\":552:574  newOwner != address(0) */\n  0xffffffffffffffffffffffffffffffffffffffff\n  and\n    /* \"@chainlink/contracts/src/v0.8/ConfirmedOwnerWithProposal.sol\":552:560  newOwner */\n  dup3\n    /* \"@chainlink/contracts/src/v0.8/ConfirmedOwnerWithProposal.sol\":552:574  newOwner != address(0) */\n  0xffffffffffffffffffffffffffffffffffffffff\n  and\n  sub\n    /* \"@chainlink/contracts/src/v0.8/ConfirmedOwnerWithProposal.sol\":544:603  require(newOwner != address(0), \"Cannot set owner to zero\") */\n  tag_6\n  jumpi\n  mload(0x40)\n  0x08c379a000000000000000000000000000000000000000000000000000000000\n  dup2\n  mstore\n  0x04\n  add\n  tag_7\n  swap1\n  tag_8\n  jump\t// in\ntag_7:\n  mload(0x40)\n  dup1\n  swap2\n  sub\n  swap1\n  revert\ntag_6:\n    /* \"@chainlink/contracts/src/v0.8/ConfirmedOwnerWithProposal.sol\":620:628  newOwner */\n  dup2\n    /* \"@chainlink/contracts/src/v0.8/ConfirmedOwnerWithProposal.sol\":610:617  s_owner */\n  0x06\n  0x00\n    /* \"@chainlink/contracts/src/v0.8/ConfirmedOwnerWithProposal.sol\":610:628  s_owner = newOwner */\n  0x0100\n  exp\n  dup2\n  sload\n  dup2\n  0xffffffffffffffffffffffffffffffffffffffff\n  mul\n  not\n  and\n  swap1\n  dup4\n  0xffffffffffffffffffffffffffffffffffffffff\n  and\n  mul\n  or\n  swap1\n  sstore\n  pop\n    /* \"@chainlink/contracts/src/v0.8/ConfirmedOwnerWithProposal.sol\":662:663  0 */\n  0x00\n    /* \"@chainlink/contracts/src/v0.8/ConfirmedOwnerWithProposal.sol\":638:664  pendingOwner != address(0) */\n  0xffffffffffffffffffffffffffffffffffffffff\n  and\n    /* \"@chainlink/contracts/src/v0.8/ConfirmedOwnerWithProposal.sol\":638:650  pendingOwner */\n  dup2\n    /* \"@chainlink/contracts/src/v0.8/ConfirmedOwnerWithProposal.sol\":638:664  pendingOwner != address(0) */\n  0xffffffffffffffffffffffffffffffffffffffff\n  and\n  eq\n    /* \"@chainlink/contracts/src/v0.8/ConfirmedOwnerWithProposal.sol\":634:713  if (pendingOwner != address(0)) {... */\n  tag_9\n  jumpi\n    /* \"@chainlink/contracts/src/v0.8/ConfirmedOwnerWithProposal.sol\":674:706  _transferOwnership(pendingOwner) */\n  tag_10\n    /* \"@chainlink/contracts/src/v0.8/ConfirmedOwnerWithProposal.sol\":693:705  pendingOwner */\n  dup2\n    /* \"@chainlink/contracts/src/v0.8/ConfirmedOwnerWithProposal.sol\":674:692  _transferOwnership */\n  shl(0x20, tag_11)\n    /* \"@chainlink/contracts/src/v0.8/ConfirmedOwnerWithProposal.sol\":674:706  _transferOwnership(pendingOwner) */\n  0x20\n  shr\n  jump\t// in\ntag_10:\n    /* \"@chainlink/contracts/src/v0.8/ConfirmedOwnerWithProposal.sol\":634:713  if (pendingOwner != address(0)) {... */\ntag_9:\n    /* \"@chainlink/contracts/src/v0.8/ConfirmedOwnerWithProposal.sol\":486:717  constructor(address newOwner, address pendingOwner) {... */\n  pop\n  pop\n    /* \"@chainlink/contracts/src/v0.8/ConfirmedOwner.sol\":270:351  constructor(address newOwner) ConfirmedOwnerWithProposal(newOwner, address(0)) {} */\n  pop\n    /* \"docs.chain.link/samples/APIRequests/GenericBigWord.sol\":1329:1390  setChainlinkToken(0x326C977E6efc84E512bB9C30f76E30c160eD06FB) */\n  tag_14\n    /* \"docs.chain.link/samples/APIRequests/GenericBigWord.sol\":1347:1389  0x326C977E6efc84E512bB9C30f76E30c160eD06FB */\n  0x326c977e6efc84e512bb9c30f76e30c160ed06fb\n    /* \"docs.chain.link/samples/APIRequests/GenericBigWord.sol\":1329:1346  setChainlinkToken */\n  shl(0x20, tag_15)\n    /* \"docs.chain.link/samples/APIRequests/GenericBigWord.sol\":1329:1390  setChainlinkToken(0x326C977E6efc84E512bB9C30f76E30c160eD06FB) */\n  0x20\n  shr\n  jump\t// in\ntag_14:\n    /* \"docs.chain.link/samples/APIRequests/GenericBigWord.sol\":1400:1462  setChainlinkOracle(0x673eD0f9D64698FfE3A42058615C30036C3e6d07) */\n  tag_16\n    /* \"docs.chain.link/samples/APIRequests/GenericBigWord.sol\":1419:1461  0x673eD0f9D64698FfE3A42058615C30036C3e6d07 */\n  0x673ed0f9d64698ffe3a42058615c30036c3e6d07\n    /* \"docs.chain.link/samples/APIRequests/GenericBigWord.sol\":1400:1418  setChainlinkOracle */\n  shl(0x20, tag_17)\n    /* \"docs.chain.link/samples/APIRequests/GenericBigWord.sol\":1400:1462  setChainlinkOracle(0x673eD0f9D64698FfE3A42058615C30036C3e6d07) */\n  0x20\n  shr\n  jump\t// in\ntag_16:\n    /* \"docs.chain.link/samples/APIRequests/GenericBigWord.sol\":1472:1514  jobId = \"7dc2be712c164684911d983af9890911\" */\n  0x3764633262653731326331363436383439313164393833616639383930393131\n    /* \"docs.chain.link/samples/APIRequests/GenericBigWord.sol\":1472:1477  jobId */\n  0x0a\n    /* \"docs.chain.link/samples/APIRequests/GenericBigWord.sol\":1472:1514  jobId = \"7dc2be712c164684911d983af9890911\" */\n  dup2\n  swap1\n  sstore\n  pop\n    /* \"docs.chain.link/samples/APIRequests/GenericBigWord.sol\":1556:1558  10 */\n  0x0a\n    /* \"@chainlink/contracts/src/v0.8/ChainlinkClient.sol\":675:681  10**18 */\n  0x0de0b6b3a7640000\n    /* \"docs.chain.link/samples/APIRequests/GenericBigWord.sol\":1531:1532  1 */\n  0x01\n    /* \"docs.chain.link/samples/APIRequests/GenericBigWord.sol\":1531:1552  1 * LINK_DIVISIBILITY */\n  tag_18\n  swap2\n  swap1\n  tag_19\n  jump\t// in\ntag_18:\n    /* \"docs.chain.link/samples/APIRequests/GenericBigWord.sol\":1530:1558  (1 * LINK_DIVISIBILITY) / 10 */\n  tag_20\n  swap2\n  swap1\n  tag_21\n  jump\t// in\ntag_20:\n    /* \"docs.chain.link/samples/APIRequests/GenericBigWord.sol\":1524:1527  fee */\n  0x0b\n    /* \"docs.chain.link/samples/APIRequests/GenericBigWord.sol\":1524:1558  fee = (1 * LINK_DIVISIBILITY) / 10 */\n  dup2\n  swap1\n  sstore\n  pop\n    /* \"docs.chain.link/samples/APIRequests/GenericBigWord.sol\":569:2940  contract GenericLargeResponse is ChainlinkClient, ConfirmedOwner {... */\n  jump(tag_22)\n    /* \"@chainlink/contracts/src/v0.8/ConfirmedOwnerWithProposal.sol\":1497:1685  function _transferOwnership(address to) private {... */\ntag_11:\n    /* \"@chainlink/contracts/src/v0.8/ConfirmedOwnerWithProposal.sol\":1565:1575  msg.sender */\n  caller\n    /* \"@chainlink/contracts/src/v0.8/ConfirmedOwnerWithProposal.sol\":1559:1575  to != msg.sender */\n  0xffffffffffffffffffffffffffffffffffffffff\n  and\n    /* \"@chainlink/contracts/src/v0.8/ConfirmedOwnerWithProposal.sol\":1559:1561  to */\n  dup2\n    /* \"@chainlink/contracts/src/v0.8/ConfirmedOwnerWithProposal.sol\":1559:1575  to != msg.sender */\n  0xffffffffffffffffffffffffffffffffffffffff\n  and\n  sub\n    /* \"@chainlink/contracts/src/v0.8/ConfirmedOwnerWithProposal.sol\":1551:1603  require(to != msg.sender, \"Cannot transfer to self\") */\n  tag_24\n  jumpi\n  mload(0x40)\n  0x08c379a000000000000000000000000000000000000000000000000000000000\n  dup2\n  mstore\n  0x04\n  add\n  tag_25\n  swap1\n  tag_26\n  jump\t// in\ntag_25:\n  mload(0x40)\n  dup1\n  swap2\n  sub\n  swap1\n  revert\ntag_24:\n    /* \"@chainlink/contracts/src/v0.8/ConfirmedOwnerWithProposal.sol\":1627:1629  to */\n  dup1\n    /* \"@chainlink/contracts/src/v0.8/ConfirmedOwnerWithProposal.sol\":1610:1624  s_pendingOwner */\n  0x07\n  0x00\n    /* \"@chainlink/contracts/src/v0.8/ConfirmedOwnerWithProposal.sol\":1610:1629  s_pendingOwner = to */\n  0x0100\n  exp\n  dup2\n  sload\n  dup2\n  0xffffffffffffffffffffffffffffffffffffffff\n  mul\n  not\n  and\n  swap1\n  dup4\n  0xffffffffffffffffffffffffffffffffffffffff\n  and\n  mul\n  or\n  swap1\n  sstore\n  pop\n    /* \"@chainlink/contracts/src/v0.8/ConfirmedOwnerWithProposal.sol\":1677:1679  to */\n  dup1\n    /* \"@chainlink/contracts/src/v0.8/ConfirmedOwnerWithProposal.sol\":1641:1680  OwnershipTransferRequested(s_owner, to) */\n  0xffffffffffffffffffffffffffffffffffffffff\n  and\n    /* \"@chainlink/contracts/src/v0.8/ConfirmedOwnerWithProposal.sol\":1668:1675  s_owner */\n  0x06\n  0x00\n  swap1\n  sload\n  swap1\n  0x0100\n  exp\n  swap1\n  div\n  0xffffffffffffffffffffffffffffffffffffffff\n  and\n    /* \"@chainlink/contracts/src/v0.8/ConfirmedOwnerWithProposal.sol\":1641:1680  OwnershipTransferRequested(s_owner, to) */\n  0xffffffffffffffffffffffffffffffffffffffff\n  and\n  0xed8889f560326eb138920d842192f0eb3dd22b4f139c87a2c57538e05bae1278\n  mload(0x40)\n  mload(0x40)\n  dup1\n  swap2\n  sub\n  swap1\n  log3\n    /* \"@chainlink/contracts/src/v0.8/ConfirmedOwnerWithProposal.sol\":1497:1685  function _transferOwnership(address to) private {... */\n  pop\n  jump\t// out\n    /* \"@chainlink/contracts/src/v0.8/ChainlinkClient.sol\":8625:8733  function setChainlinkToken(address linkAddress) internal {... */\ntag_15:\n    /* \"@chainlink/contracts/src/v0.8/ChainlinkClient.sol\":8716:8727  linkAddress */\n  dup1\n    /* \"@chainlink/contracts/src/v0.8/ChainlinkClient.sol\":8688:8694  s_link */\n  0x02\n  0x00\n    /* \"@chainlink/contracts/src/v0.8/ChainlinkClient.sol\":8688:8728  s_link = LinkTokenInterface(linkAddress) */\n  0x0100\n  exp\n  dup2\n  sload\n  dup2\n  0xffffffffffffffffffffffffffffffffffffffff\n  mul\n  not\n  and\n  swap1\n  dup4\n  0xffffffffffffffffffffffffffffffffffffffff\n  and\n  mul\n  or\n  swap1\n  sstore\n  pop\n    /* \"@chainlink/contracts/src/v0.8/ChainlinkClient.sol\":8625:8733  function setChainlinkToken(address linkAddress) internal {... */\n  pop\n  jump\t// out\n    /* \"@chainlink/contracts/src/v0.8/ChainlinkClient.sol\":8391:8505  function setChainlinkOracle(address oracleAddress) internal {... */\ntag_17:\n    /* \"@chainlink/contracts/src/v0.8/ChainlinkClient.sol\":8486:8499  oracleAddress */\n  dup1\n    /* \"@chainlink/contracts/src/v0.8/ChainlinkClient.sol\":8457:8465  s_oracle */\n  0x03\n  0x00\n    /* \"@chainlink/contracts/src/v0.8/ChainlinkClient.sol\":8457:8500  s_oracle = OperatorInterface(oracleAddress) */\n  0x0100\n  exp\n  dup2\n  sload\n  dup2\n  0xffffffffffffffffffffffffffffffffffffffff\n  mul\n  not\n  and\n  swap1\n  dup4\n  0xffffffffffffffffffffffffffffffffffffffff\n  and\n  mul\n  or\n  swap1\n  sstore\n  pop\n    /* \"@chainlink/contracts/src/v0.8/ChainlinkClient.sol\":8391:8505  function setChainlinkOracle(address oracleAddress) internal {... */\n  pop\n  jump\t// out\n    /* \"#utility.yul\":7:176   */\ntag_29:\n    /* \"#utility.yul\":91:102   */\n  0x00\n    /* \"#utility.yul\":125:131   */\n  dup3\n    /* \"#utility.yul\":120:123   */\n  dup3\n    /* \"#utility.yul\":113:132   */\n  mstore\n    /* \"#utility.yul\":165:169   */\n  0x20\n    /* \"#utility.yul\":160:163   */\n  dup3\n    /* \"#utility.yul\":156:170   */\n  add\n    /* \"#utility.yul\":141:170   */\n  swap1\n  pop\n    /* \"#utility.yul\":7:176   */\n  swap3\n  swap2\n  pop\n  pop\n  jump\t// out\n    /* \"#utility.yul\":182:356   */\ntag_30:\n    /* \"#utility.yul\":322:348   */\n  0x43616e6e6f7420736574206f776e657220746f207a65726f0000000000000000\n    /* \"#utility.yul\":318:319   */\n  0x00\n    /* \"#utility.yul\":310:316   */\n  dup3\n    /* \"#utility.yul\":306:320   */\n  add\n    /* \"#utility.yul\":299:349   */\n  mstore\n    /* \"#utility.yul\":182:356   */\n  pop\n  jump\t// out\n    /* \"#utility.yul\":362:728   */\ntag_31:\n    /* \"#utility.yul\":504:507   */\n  0x00\n    /* \"#utility.yul\":525:592   */\n  tag_41\n    /* \"#utility.yul\":589:591   */\n  0x18\n    /* \"#utility.yul\":584:587   */\n  dup4\n    /* \"#utility.yul\":525:592   */\n  tag_29\n  jump\t// in\ntag_41:\n    /* \"#utility.yul\":518:592   */\n  swap2\n  pop\n    /* \"#utility.yul\":601:694   */\n  tag_42\n    /* \"#utility.yul\":690:693   */\n  dup3\n    /* \"#utility.yul\":601:694   */\n  tag_30\n  jump\t// in\ntag_42:\n    /* \"#utility.yul\":719:721   */\n  0x20\n    /* \"#utility.yul\":714:717   */\n  dup3\n    /* \"#utility.yul\":710:722   */\n  add\n    /* \"#utility.yul\":703:722   */\n  swap1\n  pop\n    /* \"#utility.yul\":362:728   */\n  swap2\n  swap1\n  pop\n  jump\t// out\n    /* \"#utility.yul\":734:1153   */\ntag_8:\n    /* \"#utility.yul\":900:904   */\n  0x00\n    /* \"#utility.yul\":938:940   */\n  0x20\n    /* \"#utility.yul\":927:936   */\n  dup3\n    /* \"#utility.yul\":923:941   */\n  add\n    /* \"#utility.yul\":915:941   */\n  swap1\n  pop\n    /* \"#utility.yul\":987:996   */\n  dup2\n    /* \"#utility.yul\":981:985   */\n  dup2\n    /* \"#utility.yul\":977:997   */\n  sub\n    /* \"#utility.yul\":973:974   */\n  0x00\n    /* \"#utility.yul\":962:971   */\n  dup4\n    /* \"#utility.yul\":958:975   */\n  add\n    /* \"#utility.yul\":951:998   */\n  mstore\n    /* \"#utility.yul\":1015:1146   */\n  tag_44\n    /* \"#utility.yul\":1141:1145   */\n  dup2\n    /* \"#utility.yul\":1015:1146   */\n  tag_31\n  jump\t// in\ntag_44:\n    /* \"#utility.yul\":1007:1146   */\n  swap1\n  pop\n    /* \"#utility.yul\":734:1153   */\n  swap2\n  swap1\n  pop\n  jump\t// out\n    /* \"#utility.yul\":1159:1236   */\ntag_32:\n    /* \"#utility.yul\":1196:1203   */\n  0x00\n    /* \"#utility.yul\":1225:1230   */\n  dup2\n    /* \"#utility.yul\":1214:1230   */\n  swap1\n  pop\n    /* \"#utility.yul\":1159:1236   */\n  swap2\n  swap1\n  pop\n  jump\t// out\n    /* \"#utility.yul\":1242:1422   */\ntag_33:\n    /* \"#utility.yul\":1290:1367   */\n  0x4e487b7100000000000000000000000000000000000000000000000000000000\n    /* \"#utility.yul\":1287:1288   */\n  0x00\n    /* \"#utility.yul\":1280:1368   */\n  mstore\n    /* \"#utility.yul\":1387:1391   */\n  0x11\n    /* \"#utility.yul\":1384:1385   */\n  0x04\n    /* \"#utility.yul\":1377:1392   */\n  mstore\n    /* \"#utility.yul\":1411:1415   */\n  0x24\n    /* \"#utility.yul\":1408:1409   */\n  0x00\n    /* \"#utility.yul\":1401:1416   */\n  revert\n    /* \"#utility.yul\":1428:1838   */\ntag_19:\n    /* \"#utility.yul\":1468:1475   */\n  0x00\n    /* \"#utility.yul\":1491:1511   */\n  tag_48\n    /* \"#utility.yul\":1509:1510   */\n  dup3\n    /* \"#utility.yul\":1491:1511   */\n  tag_32\n  jump\t// in\ntag_48:\n    /* \"#utility.yul\":1486:1511   */\n  swap2\n  pop\n    /* \"#utility.yul\":1525:1545   */\n  tag_49\n    /* \"#utility.yul\":1543:1544   */\n  dup4\n    /* \"#utility.yul\":1525:1545   */\n  tag_32\n  jump\t// in\ntag_49:\n    /* \"#utility.yul\":1520:1545   */\n  swap3\n  pop\n    /* \"#utility.yul\":1580:1581   */\n  dup3\n    /* \"#utility.yul\":1577:1578   */\n  dup3\n    /* \"#utility.yul\":1573:1582   */\n  mul\n    /* \"#utility.yul\":1602:1632   */\n  tag_50\n    /* \"#utility.yul\":1620:1631   */\n  dup2\n    /* \"#utility.yul\":1602:1632   */\n  tag_32\n  jump\t// in\ntag_50:\n    /* \"#utility.yul\":1591:1632   */\n  swap2\n  pop\n    /* \"#utility.yul\":1781:1782   */\n  dup3\n    /* \"#utility.yul\":1772:1779   */\n  dup3\n    /* \"#utility.yul\":1768:1783   */\n  div\n    /* \"#utility.yul\":1765:1766   */\n  dup5\n    /* \"#utility.yul\":1762:1784   */\n  eq\n    /* \"#utility.yul\":1742:1743   */\n  dup4\n    /* \"#utility.yul\":1735:1744   */\n  iszero\n    /* \"#utility.yul\":1715:1798   */\n  or\n    /* \"#utility.yul\":1692:1831   */\n  tag_51\n  jumpi\n    /* \"#utility.yul\":1811:1829   */\n  tag_52\n  tag_33\n  jump\t// in\ntag_52:\n    /* \"#utility.yul\":1692:1831   */\ntag_51:\n    /* \"#utility.yul\":1476:1838   */\n  pop\n    /* \"#utility.yul\":1428:1838   */\n  swap3\n  swap2\n  pop\n  pop\n  jump\t// out\n    /* \"#utility.yul\":1844:2024   */\ntag_34:\n    /* \"#utility.yul\":1892:1969   */\n  0x4e487b7100000000000000000000000000000000000000000000000000000000\n    /* \"#utility.yul\":1889:1890   */\n  0x00\n    /* \"#utility.yul\":1882:1970   */\n  mstore\n    /* \"#utility.yul\":1989:1993   */\n  0x12\n    /* \"#utility.yul\":1986:1987   */\n  0x04\n    /* \"#utility.yul\":1979:1994   */\n  mstore\n    /* \"#utility.yul\":2013:2017   */\n  0x24\n    /* \"#utility.yul\":2010:2011   */\n  0x00\n    /* \"#utility.yul\":2003:2018   */\n  revert\n    /* \"#utility.yul\":2030:2215   */\ntag_21:\n    /* \"#utility.yul\":2070:2071   */\n  0x00\n    /* \"#utility.yul\":2087:2107   */\n  tag_55\n    /* \"#utility.yul\":2105:2106   */\n  dup3\n    /* \"#utility.yul\":2087:2107   */\n  tag_32\n  jump\t// in\ntag_55:\n    /* \"#utility.yul\":2082:2107   */\n  swap2\n  pop\n    /* \"#utility.yul\":2121:2141   */\n  tag_56\n    /* \"#utility.yul\":2139:2140   */\n  dup4\n    /* \"#utility.yul\":2121:2141   */\n  tag_32\n  jump\t// in\ntag_56:\n    /* \"#utility.yul\":2116:2141   */\n  swap3\n  pop\n    /* \"#utility.yul\":2160:2161   */\n  dup3\n    /* \"#utility.yul\":2150:2185   */\n  tag_57\n  jumpi\n    /* \"#utility.yul\":2165:2183   */\n  tag_58\n  tag_34\n  jump\t// in\ntag_58:\n    /* \"#utility.yul\":2150:2185   */\ntag_57:\n    /* \"#utility.yul\":2207:2208   */\n  dup3\n    /* \"#utility.yul\":2204:2205   */\n  dup3\n    /* \"#utility.yul\":2200:2209   */\n  div\n    /* \"#utility.yul\":2195:2209   */\n  swap1\n  pop\n    /* \"#utility.yul\":2030:2215   */\n  swap3\n  swap2\n  pop\n  pop\n  jump\t// out\n    /* \"#utility.yul\":2221:2394   */\ntag_35:\n    /* \"#utility.yul\":2361:2386   */\n  0x43616e6e6f74207472616e7366657220746f2073656c66000000000000000000\n    /* \"#utility.yul\":2357:2358   */\n  0x00\n    /* \"#utility.yul\":2349:2355   */\n  dup3\n    /* \"#utility.yul\":2345:2359   */\n  add\n    /* \"#utility.yul\":2338:2387   */\n  mstore\n    /* \"#utility.yul\":2221:2394   */\n  pop\n  jump\t// out\n    /* \"#utility.yul\":2400:2766   */\ntag_36:\n    /* \"#utility.yul\":2542:2545   */\n  0x00\n    /* \"#utility.yul\":2563:2630   */\n  tag_61\n    /* \"#utility.yul\":2627:2629   */\n  0x17\n    /* \"#utility.yul\":2622:2625   */\n  dup4\n    /* \"#utility.yul\":2563:2630   */\n  tag_29\n  jump\t// in\ntag_61:\n    /* \"#utility.yul\":2556:2630   */\n  swap2\n  pop\n    /* \"#utility.yul\":2639:2732   */\n  tag_62\n    /* \"#utility.yul\":2728:2731   */\n  dup3\n    /* \"#utility.yul\":2639:2732   */\n  tag_35\n  jump\t// in\ntag_62:\n    /* \"#utility.yul\":2757:2759   */\n  0x20\n    /* \"#utility.yul\":2752:2755   */\n  dup3\n    /* \"#utility.yul\":2748:2760   */\n  add\n    /* \"#utility.yul\":2741:2760   */\n  swap1\n  pop\n    /* \"#utility.yul\":2400:2766   */\n  swap2\n  swap1\n  pop\n  jump\t// out\n    /* \"#utility.yul\":2772:3191   */\ntag_26:\n    /* \"#utility.yul\":2938:2942   */\n  0x00\n    /* \"#utility.yul\":2976:2978   */\n  0x20\n    /* \"#utility.yul\":2965:2974   */\n  dup3\n    /* \"#utility.yul\":2961:2979   */\n  add\n    /* \"#utility.yul\":2953:2979   */\n  swap1\n  pop\n    /* \"#utility.yul\":3025:3034   */\n  dup2\n    /* \"#utility.yul\":3019:3023   */\n  dup2\n    /* \"#utility.yul\":3015:3035   */\n  sub\n    /* \"#utility.yul\":3011:3012   */\n  0x00\n    /* \"#utility.yul\":3000:3009   */\n  dup4\n    /* \"#utility.yul\":2996:3013   */\n  add\n    /* \"#utility.yul\":2989:3036   */\n  mstore\n    /* \"#utility.yul\":3053:3184   */\n  tag_64\n    /* \"#utility.yul\":3179:3183   */\n  dup2\n    /* \"#utility.yul\":3053:3184   */\n  tag_36\n  jump\t// in\ntag_64:\n    /* \"#utility.yul\":3045:3184   */\n  swap1\n  pop\n    /* \"#utility.yul\":2772:3191   */\n  swap2\n  swap1\n  pop\n  jump\t// out\n    /* \"docs.chain.link/samples/APIRequests/GenericBigWord.sol\":569:2940  contract GenericLargeResponse is ChainlinkClient, ConfirmedOwner {... */\ntag_22:\n  dataSize(sub_0)\n  dup1\n  dataOffset(sub_0)\n  0x00\n  codecopy\n  0x00\n  return\nstop\n\nsub_0: assembly {\n        /* \"docs.chain.link/samples/APIRequests/GenericBigWord.sol\":569:2940  contract GenericLargeResponse is ChainlinkClient, ConfirmedOwner {... */\n      mstore(0x40, 0x80)\n      callvalue\n      dup1\n      iszero\n      tag_1\n      jumpi\n      0x00\n      dup1\n      revert\n    tag_1:\n      pop\n      jumpi(tag_2, lt(calldatasize, 0x04))\n      shr(0xe0, calldataload(0x00))\n      dup1\n      0x8da5cb5b\n      gt\n      tag_11\n      jumpi\n      dup1\n      0x8da5cb5b\n      eq\n      tag_7\n      jumpi\n      dup1\n      0x8dc654a2\n      eq\n      tag_8\n      jumpi\n      dup1\n      0xc2fb8523\n      eq\n      tag_9\n      jumpi\n      dup1\n      0xf2fde38b\n      eq\n      tag_10\n      jumpi\n      jump(tag_2)\n    tag_11:\n      dup1\n      0x11411e8a\n      eq\n      tag_3\n      jumpi\n      dup1\n      0x73d4a13a\n      eq\n      tag_4\n      jumpi\n      dup1\n      0x79ba5097\n      eq\n      tag_5\n      jumpi\n      dup1\n      0x824f4baf\n      eq\n      tag_6\n      jumpi\n    tag_2:\n      0x00\n      dup1\n      revert\n        /* \"docs.chain.link/samples/APIRequests/GenericBigWord.sol\":1685:2115  function requestBytes() public {... */\n    tag_3:\n      tag_12\n      tag_13\n      jump\t// in\n    tag_12:\n      stop\n        /* \"docs.chain.link/samples/APIRequests/GenericBigWord.sol\":775:792  bytes public data */\n    tag_4:\n      tag_14\n      tag_15\n      jump\t// in\n    tag_14:\n      mload(0x40)\n      tag_16\n      swap2\n      swap1\n      tag_17\n      jump\t// in\n    tag_16:\n      mload(0x40)\n      dup1\n      swap2\n      sub\n      swap1\n      return\n        /* \"@chainlink/contracts/src/v0.8/ConfirmedOwnerWithProposal.sol\":1016:1281  function acceptOwnership() external override {... */\n    tag_5:\n      tag_18\n      tag_19\n      jump\t// in\n    tag_18:\n      stop\n        /* \"docs.chain.link/samples/APIRequests/GenericBigWord.sol\":798:821  string public image_url */\n    tag_6:\n      tag_20\n      tag_21\n      jump\t// in\n    tag_20:\n      mload(0x40)\n      tag_22\n      swap2\n      swap1\n      tag_23\n      jump\t// in\n    tag_22:\n      mload(0x40)\n      dup1\n      swap2\n      sub\n      swap1\n      return\n        /* \"@chainlink/contracts/src/v0.8/ConfirmedOwnerWithProposal.sol\":1332:1413  function owner() public view override returns (address) {... */\n    tag_7:\n      tag_24\n      tag_25\n      jump\t// in\n    tag_24:\n      mload(0x40)\n      tag_26\n      swap2\n      swap1\n      tag_27\n      jump\t// in\n    tag_26:\n      mload(0x40)\n      dup1\n      swap2\n      sub\n      swap1\n      return\n        /* \"docs.chain.link/samples/APIRequests/GenericBigWord.sol\":2680:2938  function withdrawLink() public onlyOwner {... */\n    tag_8:\n      tag_28\n      tag_29\n      jump\t// in\n    tag_28:\n      stop\n        /* \"docs.chain.link/samples/APIRequests/GenericBigWord.sol\":2351:2603  function fulfillBytes(... */\n    tag_9:\n      tag_30\n      0x04\n      dup1\n      calldatasize\n      sub\n      dup2\n      add\n      swap1\n      tag_31\n      swap2\n      swap1\n      tag_32\n      jump\t// in\n    tag_31:\n      tag_33\n      jump\t// in\n    tag_30:\n      stop\n        /* \"@chainlink/contracts/src/v0.8/ConfirmedOwnerWithProposal.sol\":826:924  function transferOwnership(address to) public override onlyOwner {... */\n    tag_10:\n      tag_34\n      0x04\n      dup1\n      calldatasize\n      sub\n      dup2\n      add\n      swap1\n      tag_35\n      swap2\n      swap1\n      tag_36\n      jump\t// in\n    tag_35:\n      tag_37\n      jump\t// in\n    tag_34:\n      stop\n        /* \"docs.chain.link/samples/APIRequests/GenericBigWord.sol\":1685:2115  function requestBytes() public {... */\n    tag_13:\n        /* \"docs.chain.link/samples/APIRequests/GenericBigWord.sol\":1726:1754  Chainlink.Request memory req */\n      0x00\n        /* \"docs.chain.link/samples/APIRequests/GenericBigWord.sol\":1757:1874  buildChainlinkRequest(... */\n      tag_39\n        /* \"docs.chain.link/samples/APIRequests/GenericBigWord.sol\":1792:1797  jobId */\n      sload(0x0a)\n        /* \"docs.chain.link/samples/APIRequests/GenericBigWord.sol\":1819:1823  this */\n      address\n        /* \"docs.chain.link/samples/APIRequests/GenericBigWord.sol\":1838:1864  this.fulfillBytes.selector */\n      shl(0xe0, 0xc2fb8523)\n        /* \"docs.chain.link/samples/APIRequests/GenericBigWord.sol\":1757:1778  buildChainlinkRequest */\n      tag_40\n        /* \"docs.chain.link/samples/APIRequests/GenericBigWord.sol\":1757:1874  buildChainlinkRequest(... */\n      jump\t// in\n    tag_39:\n        /* \"docs.chain.link/samples/APIRequests/GenericBigWord.sol\":1726:1874  Chainlink.Request memory req = buildChainlinkRequest(... */\n      swap1\n      pop\n        /* \"docs.chain.link/samples/APIRequests/GenericBigWord.sol\":1884:2034  req.add(... */\n      tag_41\n      mload(0x40)\n      dup1\n      0x40\n      add\n      0x40\n      mstore\n      dup1\n      0x03\n      dup2\n      mstore\n      0x20\n      add\n      0x6765740000000000000000000000000000000000000000000000000000000000\n      dup2\n      mstore\n      pop\n      mload(0x40)\n      dup1\n      0xa0\n      add\n      0x40\n      mstore\n      dup1\n      0x62\n      dup2\n      mstore\n      0x20\n      add\n      data_3ea5517f6e7e0f27d1728f72bf27ec3971d9bbeee35bd2f536fe363c6b23f087\n      0x62\n      swap2\n      codecopy\n        /* \"docs.chain.link/samples/APIRequests/GenericBigWord.sol\":1884:1887  req */\n      dup4\n        /* \"docs.chain.link/samples/APIRequests/GenericBigWord.sol\":1884:1891  req.add */\n      tag_42\n      swap1\n        /* \"docs.chain.link/samples/APIRequests/GenericBigWord.sol\":1884:2034  req.add(... */\n      swap3\n      swap2\n      swap1\n      0xffffffff\n      and\n      jump\t// in\n    tag_41:\n        /* \"docs.chain.link/samples/APIRequests/GenericBigWord.sol\":2044:2068  req.add(\"path\", \"image\") */\n      tag_43\n      mload(0x40)\n      dup1\n      0x40\n      add\n      0x40\n      mstore\n      dup1\n      0x04\n      dup2\n      mstore\n      0x20\n      add\n      0x7061746800000000000000000000000000000000000000000000000000000000\n      dup2\n      mstore\n      pop\n      mload(0x40)\n      dup1\n      0x40\n      add\n      0x40\n      mstore\n      dup1\n      0x05\n      dup2\n      mstore\n      0x20\n      add\n      0x696d616765000000000000000000000000000000000000000000000000000000\n      dup2\n      mstore\n      pop\n        /* \"docs.chain.link/samples/APIRequests/GenericBigWord.sol\":2044:2047  req */\n      dup4\n        /* \"docs.chain.link/samples/APIRequests/GenericBigWord.sol\":2044:2051  req.add */\n      tag_42\n      swap1\n        /* \"docs.chain.link/samples/APIRequests/GenericBigWord.sol\":2044:2068  req.add(\"path\", \"image\") */\n      swap3\n      swap2\n      swap1\n      0xffffffff\n      and\n      jump\t// in\n    tag_43:\n        /* \"docs.chain.link/samples/APIRequests/GenericBigWord.sol\":2078:2108  sendChainlinkRequest(req, fee) */\n      tag_44\n        /* \"docs.chain.link/samples/APIRequests/GenericBigWord.sol\":2099:2102  req */\n      dup2\n        /* \"docs.chain.link/samples/APIRequests/GenericBigWord.sol\":2104:2107  fee */\n      sload(0x0b)\n        /* \"docs.chain.link/samples/APIRequests/GenericBigWord.sol\":2078:2098  sendChainlinkRequest */\n      tag_45\n        /* \"docs.chain.link/samples/APIRequests/GenericBigWord.sol\":2078:2108  sendChainlinkRequest(req, fee) */\n      jump\t// in\n    tag_44:\n      pop\n        /* \"docs.chain.link/samples/APIRequests/GenericBigWord.sol\":1716:2115  {... */\n      pop\n        /* \"docs.chain.link/samples/APIRequests/GenericBigWord.sol\":1685:2115  function requestBytes() public {... */\n      jump\t// out\n        /* \"docs.chain.link/samples/APIRequests/GenericBigWord.sol\":775:792  bytes public data */\n    tag_15:\n      0x08\n      dup1\n      sload\n      tag_46\n      swap1\n      tag_47\n      jump\t// in\n    tag_46:\n      dup1\n      0x1f\n      add\n      0x20\n      dup1\n      swap2\n      div\n      mul\n      0x20\n      add\n      mload(0x40)\n      swap1\n      dup2\n      add\n      0x40\n      mstore\n      dup1\n      swap3\n      swap2\n      swap1\n      dup2\n      dup2\n      mstore\n      0x20\n      add\n      dup3\n      dup1\n      sload\n      tag_48\n      swap1\n      tag_47\n      jump\t// in\n    tag_48:\n      dup1\n      iszero\n      tag_49\n      jumpi\n      dup1\n      0x1f\n      lt\n      tag_50\n      jumpi\n      0x0100\n      dup1\n      dup4\n      sload\n      div\n      mul\n      dup4\n      mstore\n      swap2\n      0x20\n      add\n      swap2\n      jump(tag_49)\n    tag_50:\n      dup3\n      add\n      swap2\n      swap1\n      0x00\n      mstore\n      keccak256(0x00, 0x20)\n      swap1\n    tag_51:\n      dup2\n      sload\n      dup2\n      mstore\n      swap1\n      0x01\n      add\n      swap1\n      0x20\n      add\n      dup1\n      dup4\n      gt\n      tag_51\n      jumpi\n      dup3\n      swap1\n      sub\n      0x1f\n      and\n      dup3\n      add\n      swap2\n    tag_49:\n      pop\n      pop\n      pop\n      pop\n      pop\n      dup2\n      jump\t// out\n        /* \"@chainlink/contracts/src/v0.8/ConfirmedOwnerWithProposal.sol\":1016:1281  function acceptOwnership() external override {... */\n    tag_19:\n        /* \"@chainlink/contracts/src/v0.8/ConfirmedOwnerWithProposal.sol\":1089:1103  s_pendingOwner */\n      0x07\n      0x00\n      swap1\n      sload\n      swap1\n      0x0100\n      exp\n      swap1\n      div\n      0xffffffffffffffffffffffffffffffffffffffff\n      and\n        /* \"@chainlink/contracts/src/v0.8/ConfirmedOwnerWithProposal.sol\":1075:1103  msg.sender == s_pendingOwner */\n      0xffffffffffffffffffffffffffffffffffffffff\n      and\n        /* \"@chainlink/contracts/src/v0.8/ConfirmedOwnerWithProposal.sol\":1075:1085  msg.sender */\n      caller\n        /* \"@chainlink/contracts/src/v0.8/ConfirmedOwnerWithProposal.sol\":1075:1103  msg.sender == s_pendingOwner */\n      0xffffffffffffffffffffffffffffffffffffffff\n      and\n      eq\n        /* \"@chainlink/contracts/src/v0.8/ConfirmedOwnerWithProposal.sol\":1067:1130  require(msg.sender == s_pendingOwner, \"Must be proposed owner\") */\n      tag_53\n      jumpi\n      mload(0x40)\n      0x08c379a000000000000000000000000000000000000000000000000000000000\n      dup2\n      mstore\n      0x04\n      add\n      tag_54\n      swap1\n      tag_55\n      jump\t// in\n    tag_54:\n      mload(0x40)\n      dup1\n      swap2\n      sub\n      swap1\n      revert\n    tag_53:\n        /* \"@chainlink/contracts/src/v0.8/ConfirmedOwnerWithProposal.sol\":1137:1153  address oldOwner */\n      0x00\n        /* \"@chainlink/contracts/src/v0.8/ConfirmedOwnerWithProposal.sol\":1156:1163  s_owner */\n      0x06\n      0x00\n      swap1\n      sload\n      swap1\n      0x0100\n      exp\n      swap1\n      div\n      0xffffffffffffffffffffffffffffffffffffffff\n      and\n        /* \"@chainlink/contracts/src/v0.8/ConfirmedOwnerWithProposal.sol\":1137:1163  address oldOwner = s_owner */\n      swap1\n      pop\n        /* \"@chainlink/contracts/src/v0.8/ConfirmedOwnerWithProposal.sol\":1179:1189  msg.sender */\n      caller\n        /* \"@chainlink/contracts/src/v0.8/ConfirmedOwnerWithProposal.sol\":1169:1176  s_owner */\n      0x06\n      0x00\n        /* \"@chainlink/contracts/src/v0.8/ConfirmedOwnerWithProposal.sol\":1169:1189  s_owner = msg.sender */\n      0x0100\n      exp\n      dup2\n      sload\n      dup2\n      0xffffffffffffffffffffffffffffffffffffffff\n      mul\n      not\n      and\n      swap1\n      dup4\n      0xffffffffffffffffffffffffffffffffffffffff\n      and\n      mul\n      or\n      swap1\n      sstore\n      pop\n        /* \"@chainlink/contracts/src/v0.8/ConfirmedOwnerWithProposal.sol\":1220:1221  0 */\n      0x00\n        /* \"@chainlink/contracts/src/v0.8/ConfirmedOwnerWithProposal.sol\":1195:1209  s_pendingOwner */\n      0x07\n      0x00\n        /* \"@chainlink/contracts/src/v0.8/ConfirmedOwnerWithProposal.sol\":1195:1222  s_pendingOwner = address(0) */\n      0x0100\n      exp\n      dup2\n      sload\n      dup2\n      0xffffffffffffffffffffffffffffffffffffffff\n      mul\n      not\n      and\n      swap1\n      dup4\n      0xffffffffffffffffffffffffffffffffffffffff\n      and\n      mul\n      or\n      swap1\n      sstore\n      pop\n        /* \"@chainlink/contracts/src/v0.8/ConfirmedOwnerWithProposal.sol\":1265:1275  msg.sender */\n      caller\n        /* \"@chainlink/contracts/src/v0.8/ConfirmedOwnerWithProposal.sol\":1234:1276  OwnershipTransferred(oldOwner, msg.sender) */\n      0xffffffffffffffffffffffffffffffffffffffff\n      and\n        /* \"@chainlink/contracts/src/v0.8/ConfirmedOwnerWithProposal.sol\":1255:1263  oldOwner */\n      dup2\n        /* \"@chainlink/contracts/src/v0.8/ConfirmedOwnerWithProposal.sol\":1234:1276  OwnershipTransferred(oldOwner, msg.sender) */\n      0xffffffffffffffffffffffffffffffffffffffff\n      and\n      0x8be0079c531659141344cd1fd0a4f28419497f9722a3daafe3b4186f6b6457e0\n      mload(0x40)\n      mload(0x40)\n      dup1\n      swap2\n      sub\n      swap1\n      log3\n        /* \"@chainlink/contracts/src/v0.8/ConfirmedOwnerWithProposal.sol\":1061:1281  {... */\n      pop\n        /* \"@chainlink/contracts/src/v0.8/ConfirmedOwnerWithProposal.sol\":1016:1281  function acceptOwnership() external override {... */\n      jump\t// out\n        /* \"docs.chain.link/samples/APIRequests/GenericBigWord.sol\":798:821  string public image_url */\n    tag_21:\n      0x09\n      dup1\n      sload\n      tag_56\n      swap1\n      tag_47\n      jump\t// in\n    tag_56:\n      dup1\n      0x1f\n      add\n      0x20\n      dup1\n      swap2\n      div\n      mul\n      0x20\n      add\n      mload(0x40)\n      swap1\n      dup2\n      add\n      0x40\n      mstore\n      dup1\n      swap3\n      swap2\n      swap1\n      dup2\n      dup2\n      mstore\n      0x20\n      add\n      dup3\n      dup1\n      sload\n      tag_57\n      swap1\n      tag_47\n      jump\t// in\n    tag_57:\n      dup1\n      iszero\n      tag_58\n      jumpi\n      dup1\n      0x1f\n      lt\n      tag_59\n      jumpi\n      0x0100\n      dup1\n      dup4\n      sload\n      div\n      mul\n      dup4\n      mstore\n      swap2\n      0x20\n      add\n      swap2\n      jump(tag_58)\n    tag_59:\n      dup3\n      add\n      swap2\n      swap1\n      0x00\n      mstore\n      keccak256(0x00, 0x20)\n      swap1\n    tag_60:\n      dup2\n      sload\n      dup2\n      mstore\n      swap1\n      0x01\n      add\n      swap1\n      0x20\n      add\n      dup1\n      dup4\n      gt\n      tag_60\n      jumpi\n      dup3\n      swap1\n      sub\n      0x1f\n      and\n      dup3\n      add\n      swap2\n    tag_58:\n      pop\n      pop\n      pop\n      pop\n      pop\n      dup2\n      jump\t// out\n        /* \"@chainlink/contracts/src/v0.8/ConfirmedOwnerWithProposal.sol\":1332:1413  function owner() public view override returns (address) {... */\n    tag_25:\n        /* \"@chainlink/contracts/src/v0.8/ConfirmedOwnerWithProposal.sol\":1379:1386  address */\n      0x00\n        /* \"@chainlink/contracts/src/v0.8/ConfirmedOwnerWithProposal.sol\":1401:1408  s_owner */\n      0x06\n      0x00\n      swap1\n      sload\n      swap1\n      0x0100\n      exp\n      swap1\n      div\n      0xffffffffffffffffffffffffffffffffffffffff\n      and\n        /* \"@chainlink/contracts/src/v0.8/ConfirmedOwnerWithProposal.sol\":1394:1408  return s_owner */\n      swap1\n      pop\n        /* \"@chainlink/contracts/src/v0.8/ConfirmedOwnerWithProposal.sol\":1332:1413  function owner() public view override returns (address) {... */\n      swap1\n      jump\t// out\n        /* \"docs.chain.link/samples/APIRequests/GenericBigWord.sol\":2680:2938  function withdrawLink() public onlyOwner {... */\n    tag_29:\n        /* \"@chainlink/contracts/src/v0.8/ConfirmedOwnerWithProposal.sol\":1956:1976  _validateOwnership() */\n      tag_63\n        /* \"@chainlink/contracts/src/v0.8/ConfirmedOwnerWithProposal.sol\":1956:1974  _validateOwnership */\n      tag_64\n        /* \"@chainlink/contracts/src/v0.8/ConfirmedOwnerWithProposal.sol\":1956:1976  _validateOwnership() */\n      jump\t// in\n    tag_63:\n        /* \"docs.chain.link/samples/APIRequests/GenericBigWord.sol\":2731:2754  LinkTokenInterface link */\n      0x00\n        /* \"docs.chain.link/samples/APIRequests/GenericBigWord.sol\":2776:2799  chainlinkTokenAddress() */\n      tag_66\n        /* \"docs.chain.link/samples/APIRequests/GenericBigWord.sol\":2776:2797  chainlinkTokenAddress */\n      tag_67\n        /* \"docs.chain.link/samples/APIRequests/GenericBigWord.sol\":2776:2799  chainlinkTokenAddress() */\n      jump\t// in\n    tag_66:\n        /* \"docs.chain.link/samples/APIRequests/GenericBigWord.sol\":2731:2800  LinkTokenInterface link = LinkTokenInterface(chainlinkTokenAddress()) */\n      swap1\n      pop\n        /* \"docs.chain.link/samples/APIRequests/GenericBigWord.sol\":2831:2835  link */\n      dup1\n        /* \"docs.chain.link/samples/APIRequests/GenericBigWord.sol\":2831:2844  link.transfer */\n      0xffffffffffffffffffffffffffffffffffffffff\n      and\n      0xa9059cbb\n        /* \"docs.chain.link/samples/APIRequests/GenericBigWord.sol\":2845:2855  msg.sender */\n      caller\n        /* \"docs.chain.link/samples/APIRequests/GenericBigWord.sol\":2857:2861  link */\n      dup4\n        /* \"docs.chain.link/samples/APIRequests/GenericBigWord.sol\":2857:2871  link.balanceOf */\n      0xffffffffffffffffffffffffffffffffffffffff\n      and\n      0x70a08231\n        /* \"docs.chain.link/samples/APIRequests/GenericBigWord.sol\":2880:2884  this */\n      address\n        /* \"docs.chain.link/samples/APIRequests/GenericBigWord.sol\":2857:2886  link.balanceOf(address(this)) */\n      mload(0x40)\n      dup3\n      0xffffffff\n      and\n      0xe0\n      shl\n      dup2\n      mstore\n      0x04\n      add\n      tag_68\n      swap2\n      swap1\n      tag_27\n      jump\t// in\n    tag_68:\n      0x20\n      mload(0x40)\n      dup1\n      dup4\n      sub\n      dup2\n      dup7\n      gas\n      staticcall\n      iszero\n      dup1\n      iszero\n      tag_70\n      jumpi\n      returndatasize\n      0x00\n      dup1\n      returndatacopy\n      revert(0x00, returndatasize)\n    tag_70:\n      pop\n      pop\n      pop\n      pop\n      mload(0x40)\n      returndatasize\n      not(0x1f)\n      0x1f\n      dup3\n      add\n      and\n      dup3\n      add\n      dup1\n      0x40\n      mstore\n      pop\n      dup2\n      add\n      swap1\n      tag_71\n      swap2\n      swap1\n      tag_72\n      jump\t// in\n    tag_71:\n        /* \"docs.chain.link/samples/APIRequests/GenericBigWord.sol\":2831:2887  link.transfer(msg.sender, link.balanceOf(address(this))) */\n      mload(0x40)\n      dup4\n      0xffffffff\n      and\n      0xe0\n      shl\n      dup2\n      mstore\n      0x04\n      add\n      tag_73\n      swap3\n      swap2\n      swap1\n      tag_74\n      jump\t// in\n    tag_73:\n      0x20\n      mload(0x40)\n      dup1\n      dup4\n      sub\n      dup2\n      0x00\n      dup8\n      gas\n      call\n      iszero\n      dup1\n      iszero\n      tag_76\n      jumpi\n      returndatasize\n      0x00\n      dup1\n      returndatacopy\n      revert(0x00, returndatasize)\n    tag_76:\n      pop\n      pop\n      pop\n      pop\n      mload(0x40)\n      returndatasize\n      not(0x1f)\n      0x1f\n      dup3\n      add\n      and\n      dup3\n      add\n      dup1\n      0x40\n      mstore\n      pop\n      dup2\n      add\n      swap1\n      tag_77\n      swap2\n      swap1\n      tag_78\n      jump\t// in\n    tag_77:\n        /* \"docs.chain.link/samples/APIRequests/GenericBigWord.sol\":2810:2931  require(... */\n      tag_79\n      jumpi\n      mload(0x40)\n      0x08c379a000000000000000000000000000000000000000000000000000000000\n      dup2\n      mstore\n      0x04\n      add\n      tag_80\n      swap1\n      tag_81\n      jump\t// in\n    tag_80:\n      mload(0x40)\n      dup1\n      swap2\n      sub\n      swap1\n      revert\n    tag_79:\n        /* \"docs.chain.link/samples/APIRequests/GenericBigWord.sol\":2721:2938  {... */\n      pop\n        /* \"docs.chain.link/samples/APIRequests/GenericBigWord.sol\":2680:2938  function withdrawLink() public onlyOwner {... */\n      jump\t// out\n        /* \"docs.chain.link/samples/APIRequests/GenericBigWord.sol\":2351:2603  function fulfillBytes(... */\n    tag_33:\n        /* \"docs.chain.link/samples/APIRequests/GenericBigWord.sol\":2472:2481  requestId */\n      dup2\n        /* \"@chainlink/contracts/src/v0.8/ChainlinkClient.sol\":11663:11680  s_pendingRequests */\n      0x05\n        /* \"@chainlink/contracts/src/v0.8/ChainlinkClient.sol\":11663:11691  s_pendingRequests[requestId] */\n      0x00\n        /* \"@chainlink/contracts/src/v0.8/ChainlinkClient.sol\":11681:11690  requestId */\n      dup3\n        /* \"@chainlink/contracts/src/v0.8/ChainlinkClient.sol\":11663:11691  s_pendingRequests[requestId] */\n      dup2\n      mstore\n      0x20\n      add\n      swap1\n      dup2\n      mstore\n      0x20\n      add\n      0x00\n      keccak256\n      0x00\n      swap1\n      sload\n      swap1\n      0x0100\n      exp\n      swap1\n      div\n      0xffffffffffffffffffffffffffffffffffffffff\n      and\n        /* \"@chainlink/contracts/src/v0.8/ChainlinkClient.sol\":11649:11691  msg.sender == s_pendingRequests[requestId] */\n      0xffffffffffffffffffffffffffffffffffffffff\n      and\n        /* \"@chainlink/contracts/src/v0.8/ChainlinkClient.sol\":11649:11659  msg.sender */\n      caller\n        /* \"@chainlink/contracts/src/v0.8/ChainlinkClient.sol\":11649:11691  msg.sender == s_pendingRequests[requestId] */\n      0xffffffffffffffffffffffffffffffffffffffff\n      and\n      eq\n        /* \"@chainlink/contracts/src/v0.8/ChainlinkClient.sol\":11641:11736  require(msg.sender == s_pendingRequests[requestId], \"Source must be the oracle of the request\") */\n      tag_83\n      jumpi\n      mload(0x40)\n      0x08c379a000000000000000000000000000000000000000000000000000000000\n      dup2\n      mstore\n      0x04\n      add\n      tag_84\n      swap1\n      tag_85\n      jump\t// in\n    tag_84:\n      mload(0x40)\n      dup1\n      swap2\n      sub\n      swap1\n      revert\n    tag_83:\n        /* \"@chainlink/contracts/src/v0.8/ChainlinkClient.sol\":11749:11766  s_pendingRequests */\n      0x05\n        /* \"@chainlink/contracts/src/v0.8/ChainlinkClient.sol\":11749:11777  s_pendingRequests[requestId] */\n      0x00\n        /* \"@chainlink/contracts/src/v0.8/ChainlinkClient.sol\":11767:11776  requestId */\n      dup3\n        /* \"@chainlink/contracts/src/v0.8/ChainlinkClient.sol\":11749:11777  s_pendingRequests[requestId] */\n      dup2\n      mstore\n      0x20\n      add\n      swap1\n      dup2\n      mstore\n      0x20\n      add\n      0x00\n      keccak256\n      0x00\n        /* \"@chainlink/contracts/src/v0.8/ChainlinkClient.sol\":11742:11777  delete s_pendingRequests[requestId] */\n      0x0100\n      exp\n      dup2\n      sload\n      swap1\n      0xffffffffffffffffffffffffffffffffffffffff\n      mul\n      not\n      and\n      swap1\n      sstore\n        /* \"@chainlink/contracts/src/v0.8/ChainlinkClient.sol\":11807:11816  requestId */\n      dup1\n        /* \"@chainlink/contracts/src/v0.8/ChainlinkClient.sol\":11788:11817  ChainlinkFulfilled(requestId) */\n      0x7cc135e0cebb02c3480ae5d74d377283180a2601f8f644edf7987b009316c63a\n      mload(0x40)\n      mload(0x40)\n      dup1\n      swap2\n      sub\n      swap1\n      log2\n        /* \"docs.chain.link/samples/APIRequests/GenericBigWord.sol\":2526:2535  bytesData */\n      dup2\n        /* \"docs.chain.link/samples/APIRequests/GenericBigWord.sol\":2498:2536  RequestFulfilled(requestId, bytesData) */\n      mload(0x40)\n      tag_87\n      swap2\n      swap1\n      tag_88\n      jump\t// in\n    tag_87:\n      mload(0x40)\n      dup1\n      swap2\n      sub\n      swap1\n      keccak256\n        /* \"docs.chain.link/samples/APIRequests/GenericBigWord.sol\":2515:2524  requestId */\n      dup4\n        /* \"docs.chain.link/samples/APIRequests/GenericBigWord.sol\":2498:2536  RequestFulfilled(requestId, bytesData) */\n      0x1a111c5dcf9a71088bd5e1797fdfaf399fec2afbb24aca247e4e3e9f4b61df91\n      mload(0x40)\n      mload(0x40)\n      dup1\n      swap2\n      sub\n      swap1\n      log3\n        /* \"docs.chain.link/samples/APIRequests/GenericBigWord.sol\":2553:2562  bytesData */\n      dup2\n        /* \"docs.chain.link/samples/APIRequests/GenericBigWord.sol\":2546:2550  data */\n      0x08\n        /* \"docs.chain.link/samples/APIRequests/GenericBigWord.sol\":2546:2562  data = bytesData */\n      swap1\n      dup2\n      tag_89\n      swap2\n      swap1\n      tag_90\n      jump\t// in\n    tag_89:\n      pop\n        /* \"docs.chain.link/samples/APIRequests/GenericBigWord.sol\":2591:2595  data */\n      0x08\n        /* \"docs.chain.link/samples/APIRequests/GenericBigWord.sol\":2572:2581  image_url */\n      0x09\n        /* \"docs.chain.link/samples/APIRequests/GenericBigWord.sol\":2572:2596  image_url = string(data) */\n      swap1\n      dup2\n      tag_91\n      swap2\n      swap1\n      tag_92\n      jump\t// in\n    tag_91:\n      pop\n        /* \"docs.chain.link/samples/APIRequests/GenericBigWord.sol\":2351:2603  function fulfillBytes(... */\n      pop\n      pop\n      pop\n      jump\t// out\n        /* \"@chainlink/contracts/src/v0.8/ConfirmedOwnerWithProposal.sol\":826:924  function transferOwnership(address to) public override onlyOwner {... */\n    tag_37:\n        /* \"@chainlink/contracts/src/v0.8/ConfirmedOwnerWithProposal.sol\":1956:1976  _validateOwnership() */\n      tag_94\n        /* \"@chainlink/contracts/src/v0.8/ConfirmedOwnerWithProposal.sol\":1956:1974  _validateOwnership */\n      tag_64\n        /* \"@chainlink/contracts/src/v0.8/ConfirmedOwnerWithProposal.sol\":1956:1976  _validateOwnership() */\n      jump\t// in\n    tag_94:\n        /* \"@chainlink/contracts/src/v0.8/ConfirmedOwnerWithProposal.sol\":897:919  _transferOwnership(to) */\n      tag_96\n        /* \"@chainlink/contracts/src/v0.8/ConfirmedOwnerWithProposal.sol\":916:918  to */\n      dup2\n        /* \"@chainlink/contracts/src/v0.8/ConfirmedOwnerWithProposal.sol\":897:915  _transferOwnership */\n      tag_97\n        /* \"@chainlink/contracts/src/v0.8/ConfirmedOwnerWithProposal.sol\":897:919  _transferOwnership(to) */\n      jump\t// in\n    tag_96:\n        /* \"@chainlink/contracts/src/v0.8/ConfirmedOwnerWithProposal.sol\":826:924  function transferOwnership(address to) public override onlyOwner {... */\n      pop\n      jump\t// out\n        /* \"@chainlink/contracts/src/v0.8/ChainlinkClient.sol\":1850:2133  function buildChainlinkRequest(... */\n    tag_40:\n        /* \"@chainlink/contracts/src/v0.8/ChainlinkClient.sol\":1992:2016  Chainlink.Request memory */\n      tag_98\n      tag_99\n      jump\t// in\n    tag_98:\n        /* \"@chainlink/contracts/src/v0.8/ChainlinkClient.sol\":2024:2052  Chainlink.Request memory req */\n      tag_101\n      tag_99\n      jump\t// in\n    tag_101:\n        /* \"@chainlink/contracts/src/v0.8/ChainlinkClient.sol\":2065:2128  req.initialize(specId, callbackAddr, callbackFunctionSignature) */\n      tag_102\n        /* \"@chainlink/contracts/src/v0.8/ChainlinkClient.sol\":2080:2086  specId */\n      dup6\n        /* \"@chainlink/contracts/src/v0.8/ChainlinkClient.sol\":2088:2100  callbackAddr */\n      dup6\n        /* \"@chainlink/contracts/src/v0.8/ChainlinkClient.sol\":2102:2127  callbackFunctionSignature */\n      dup6\n        /* \"@chainlink/contracts/src/v0.8/ChainlinkClient.sol\":2065:2068  req */\n      dup5\n        /* \"@chainlink/contracts/src/v0.8/ChainlinkClient.sol\":2065:2079  req.initialize */\n      tag_103\n      swap1\n        /* \"@chainlink/contracts/src/v0.8/ChainlinkClient.sol\":2065:2128  req.initialize(specId, callbackAddr, callbackFunctionSignature) */\n      swap4\n      swap3\n      swap2\n      swap1\n      0xffffffff\n      and\n      jump\t// in\n    tag_102:\n        /* \"@chainlink/contracts/src/v0.8/ChainlinkClient.sol\":2058:2128  return req.initialize(specId, callbackAddr, callbackFunctionSignature) */\n      swap2\n      pop\n      pop\n        /* \"@chainlink/contracts/src/v0.8/ChainlinkClient.sol\":1850:2133  function buildChainlinkRequest(... */\n      swap4\n      swap3\n      pop\n      pop\n      pop\n      jump\t// out\n        /* \"@chainlink/contracts/src/v0.8/Chainlink.sol\":1951:2126  function add(... */\n    tag_42:\n        /* \"@chainlink/contracts/src/v0.8/Chainlink.sol\":2061:2087  self.buf.encodeString(key) */\n      tag_105\n        /* \"@chainlink/contracts/src/v0.8/Chainlink.sol\":2083:2086  key */\n      dup3\n        /* \"@chainlink/contracts/src/v0.8/Chainlink.sol\":2061:2065  self */\n      dup5\n        /* \"@chainlink/contracts/src/v0.8/Chainlink.sol\":2061:2069  self.buf */\n      0x80\n      add\n      mload\n        /* \"@chainlink/contracts/src/v0.8/Chainlink.sol\":2061:2082  self.buf.encodeString */\n      tag_106\n      swap1\n        /* \"@chainlink/contracts/src/v0.8/Chainlink.sol\":2061:2087  self.buf.encodeString(key) */\n      swap2\n      swap1\n      0xffffffff\n      and\n      jump\t// in\n    tag_105:\n        /* \"@chainlink/contracts/src/v0.8/Chainlink.sol\":2093:2121  self.buf.encodeString(value) */\n      tag_107\n        /* \"@chainlink/contracts/src/v0.8/Chainlink.sol\":2115:2120  value */\n      dup2\n        /* \"@chainlink/contracts/src/v0.8/Chainlink.sol\":2093:2097  self */\n      dup5\n        /* \"@chainlink/contracts/src/v0.8/Chainlink.sol\":2093:2101  self.buf */\n      0x80\n      add\n      mload\n        /* \"@chainlink/contracts/src/v0.8/Chainlink.sol\":2093:2114  self.buf.encodeString */\n      tag_106\n      swap1\n        /* \"@chainlink/contracts/src/v0.8/Chainlink.sol\":2093:2121  self.buf.encodeString(value) */\n      swap2\n      swap1\n      0xffffffff\n      and\n      jump\t// in\n    tag_107:\n        /* \"@chainlink/contracts/src/v0.8/Chainlink.sol\":1951:2126  function add(... */\n      pop\n      pop\n      pop\n      jump\t// out\n        /* \"@chainlink/contracts/src/v0.8/ChainlinkClient.sol\":2992:3169  function sendChainlinkRequest(Chainlink.Request memory req, uint256 payment) internal returns (bytes32) {... */\n    tag_45:\n        /* \"@chainlink/contracts/src/v0.8/ChainlinkClient.sol\":3087:3094  bytes32 */\n      0x00\n        /* \"@chainlink/contracts/src/v0.8/ChainlinkClient.sol\":3109:3164  sendChainlinkRequestTo(address(s_oracle), req, payment) */\n      tag_109\n        /* \"@chainlink/contracts/src/v0.8/ChainlinkClient.sol\":3140:3148  s_oracle */\n      0x03\n      0x00\n      swap1\n      sload\n      swap1\n      0x0100\n      exp\n      swap1\n      div\n      0xffffffffffffffffffffffffffffffffffffffff\n      and\n        /* \"@chainlink/contracts/src/v0.8/ChainlinkClient.sol\":3151:3154  req */\n      dup5\n        /* \"@chainlink/contracts/src/v0.8/ChainlinkClient.sol\":3156:3163  payment */\n      dup5\n        /* \"@chainlink/contracts/src/v0.8/ChainlinkClient.sol\":3109:3131  sendChainlinkRequestTo */\n      tag_110\n        /* \"@chainlink/contracts/src/v0.8/ChainlinkClient.sol\":3109:3164  sendChainlinkRequestTo(address(s_oracle), req, payment) */\n      jump\t// in\n    tag_109:\n        /* \"@chainlink/contracts/src/v0.8/ChainlinkClient.sol\":3102:3164  return sendChainlinkRequestTo(address(s_oracle), req, payment) */\n      swap1\n      pop\n        /* \"@chainlink/contracts/src/v0.8/ChainlinkClient.sol\":2992:3169  function sendChainlinkRequest(Chainlink.Request memory req, uint256 payment) internal returns (bytes32) {... */\n      swap3\n      swap2\n      pop\n      pop\n      jump\t// out\n        /* \"@chainlink/contracts/src/v0.8/ConfirmedOwnerWithProposal.sol\":1730:1841  function _validateOwnership() internal view {... */\n    tag_64:\n        /* \"@chainlink/contracts/src/v0.8/ConfirmedOwnerWithProposal.sol\":1802:1809  s_owner */\n      0x06\n      0x00\n      swap1\n      sload\n      swap1\n      0x0100\n      exp\n      swap1\n      div\n      0xffffffffffffffffffffffffffffffffffffffff\n      and\n        /* \"@chainlink/contracts/src/v0.8/ConfirmedOwnerWithProposal.sol\":1788:1809  msg.sender == s_owner */\n      0xffffffffffffffffffffffffffffffffffffffff\n      and\n        /* \"@chainlink/contracts/src/v0.8/ConfirmedOwnerWithProposal.sol\":1788:1798  msg.sender */\n      caller\n        /* \"@chainlink/contracts/src/v0.8/ConfirmedOwnerWithProposal.sol\":1788:1809  msg.sender == s_owner */\n      0xffffffffffffffffffffffffffffffffffffffff\n      and\n      eq\n        /* \"@chainlink/contracts/src/v0.8/ConfirmedOwnerWithProposal.sol\":1780:1836  require(msg.sender == s_owner, \"Only callable by owner\") */\n      tag_112\n      jumpi\n      mload(0x40)\n      0x08c379a000000000000000000000000000000000000000000000000000000000\n      dup2\n      mstore\n      0x04\n      add\n      tag_113\n      swap1\n      tag_114\n      jump\t// in\n    tag_113:\n      mload(0x40)\n      dup1\n      swap2\n      sub\n      swap1\n      revert\n    tag_112:\n        /* \"@chainlink/contracts/src/v0.8/ConfirmedOwnerWithProposal.sol\":1730:1841  function _validateOwnership() internal view {... */\n      jump\t// out\n        /* \"@chainlink/contracts/src/v0.8/ChainlinkClient.sol\":9098:9196  function chainlinkTokenAddress() internal view returns (address) {... */\n    tag_67:\n        /* \"@chainlink/contracts/src/v0.8/ChainlinkClient.sol\":9154:9161  address */\n      0x00\n        /* \"@chainlink/contracts/src/v0.8/ChainlinkClient.sol\":9184:9190  s_link */\n      0x02\n      0x00\n      swap1\n      sload\n      swap1\n      0x0100\n      exp\n      swap1\n      div\n      0xffffffffffffffffffffffffffffffffffffffff\n      and\n        /* \"@chainlink/contracts/src/v0.8/ChainlinkClient.sol\":9169:9191  return address(s_link) */\n      swap1\n      pop\n        /* \"@chainlink/contracts/src/v0.8/ChainlinkClient.sol\":9098:9196  function chainlinkTokenAddress() internal view returns (address) {... */\n      swap1\n      jump\t// out\n        /* \"@chainlink/contracts/src/v0.8/ConfirmedOwnerWithProposal.sol\":1497:1685  function _transferOwnership(address to) private {... */\n    tag_97:\n        /* \"@chainlink/contracts/src/v0.8/ConfirmedOwnerWithProposal.sol\":1565:1575  msg.sender */\n      caller\n        /* \"@chainlink/contracts/src/v0.8/ConfirmedOwnerWithProposal.sol\":1559:1575  to != msg.sender */\n      0xffffffffffffffffffffffffffffffffffffffff\n      and\n        /* \"@chainlink/contracts/src/v0.8/ConfirmedOwnerWithProposal.sol\":1559:1561  to */\n      dup2\n        /* \"@chainlink/contracts/src/v0.8/ConfirmedOwnerWithProposal.sol\":1559:1575  to != msg.sender */\n      0xffffffffffffffffffffffffffffffffffffffff\n      and\n      sub\n        /* \"@chainlink/contracts/src/v0.8/ConfirmedOwnerWithProposal.sol\":1551:1603  require(to != msg.sender, \"Cannot transfer to self\") */\n      tag_117\n      jumpi\n      mload(0x40)\n      0x08c379a000000000000000000000000000000000000000000000000000000000\n      dup2\n      mstore\n      0x04\n      add\n      tag_118\n      swap1\n      tag_119\n      jump\t// in\n    tag_118:\n      mload(0x40)\n      dup1\n      swap2\n      sub\n      swap1\n      revert\n    tag_117:\n        /* \"@chainlink/contracts/src/v0.8/ConfirmedOwnerWithProposal.sol\":1627:1629  to */\n      dup1\n        /* \"@chainlink/contracts/src/v0.8/ConfirmedOwnerWithProposal.sol\":1610:1624  s_pendingOwner */\n      0x07\n      0x00\n        /* \"@chainlink/contracts/src/v0.8/ConfirmedOwnerWithProposal.sol\":1610:1629  s_pendingOwner = to */\n      0x0100\n      exp\n      dup2\n      sload\n      dup2\n      0xffffffffffffffffffffffffffffffffffffffff\n      mul\n      not\n      and\n      swap1\n      dup4\n      0xffffffffffffffffffffffffffffffffffffffff\n      and\n      mul\n      or\n      swap1\n      sstore\n      pop\n        /* \"@chainlink/contracts/src/v0.8/ConfirmedOwnerWithProposal.sol\":1677:1679  to */\n      dup1\n        /* \"@chainlink/contracts/src/v0.8/ConfirmedOwnerWithProposal.sol\":1641:1680  OwnershipTransferRequested(s_owner, to) */\n      0xffffffffffffffffffffffffffffffffffffffff\n      and\n        /* \"@chainlink/contracts/src/v0.8/ConfirmedOwnerWithProposal.sol\":1668:1675  s_owner */\n      0x06\n      0x00\n      swap1\n      sload\n      swap1\n      0x0100\n      exp\n      swap1\n      div\n      0xffffffffffffffffffffffffffffffffffffffff\n      and\n        /* \"@chainlink/contracts/src/v0.8/ConfirmedOwnerWithProposal.sol\":1641:1680  OwnershipTransferRequested(s_owner, to) */\n      0xffffffffffffffffffffffffffffffffffffffff\n      and\n      0xed8889f560326eb138920d842192f0eb3dd22b4f139c87a2c57538e05bae1278\n      mload(0x40)\n      mload(0x40)\n      dup1\n      swap2\n      sub\n      swap1\n      log3\n        /* \"@chainlink/contracts/src/v0.8/ConfirmedOwnerWithProposal.sol\":1497:1685  function _transferOwnership(address to) private {... */\n      pop\n      jump\t// out\n        /* \"@chainlink/contracts/src/v0.8/Chainlink.sol\":987:1338  function initialize(... */\n    tag_103:\n        /* \"@chainlink/contracts/src/v0.8/Chainlink.sol\":1129:1153  Chainlink.Request memory */\n      tag_120\n      tag_99\n      jump\t// in\n    tag_120:\n        /* \"@chainlink/contracts/src/v0.8/Chainlink.sol\":1161:1210  BufferChainlink.init(self.buf, defaultBufferSize) */\n      tag_122\n        /* \"@chainlink/contracts/src/v0.8/Chainlink.sol\":1182:1186  self */\n      dup6\n        /* \"@chainlink/contracts/src/v0.8/Chainlink.sol\":1182:1190  self.buf */\n      0x80\n      add\n      mload\n        /* \"@chainlink/contracts/src/v0.8/Chainlink.sol\":361:364  256 */\n      0x0100\n        /* \"@chainlink/contracts/src/v0.8/Chainlink.sol\":1161:1181  BufferChainlink.init */\n      tag_123\n        /* \"@chainlink/contracts/src/v0.8/Chainlink.sol\":1161:1210  BufferChainlink.init(self.buf, defaultBufferSize) */\n      jump\t// in\n    tag_122:\n      pop\n        /* \"@chainlink/contracts/src/v0.8/Chainlink.sol\":1226:1231  jobId */\n      dup4\n        /* \"@chainlink/contracts/src/v0.8/Chainlink.sol\":1216:1220  self */\n      dup6\n        /* \"@chainlink/contracts/src/v0.8/Chainlink.sol\":1216:1223  self.id */\n      0x00\n      add\n        /* \"@chainlink/contracts/src/v0.8/Chainlink.sol\":1216:1231  self.id = jobId */\n      dup2\n      dup2\n      mstore\n      pop\n      pop\n        /* \"@chainlink/contracts/src/v0.8/Chainlink.sol\":1260:1272  callbackAddr */\n      dup3\n        /* \"@chainlink/contracts/src/v0.8/Chainlink.sol\":1237:1241  self */\n      dup6\n        /* \"@chainlink/contracts/src/v0.8/Chainlink.sol\":1237:1257  self.callbackAddress */\n      0x20\n      add\n        /* \"@chainlink/contracts/src/v0.8/Chainlink.sol\":1237:1272  self.callbackAddress = callbackAddr */\n      swap1\n      0xffffffffffffffffffffffffffffffffffffffff\n      and\n      swap1\n      dup2\n      0xffffffffffffffffffffffffffffffffffffffff\n      and\n      dup2\n      mstore\n      pop\n      pop\n        /* \"@chainlink/contracts/src/v0.8/Chainlink.sol\":1304:1316  callbackFunc */\n      dup2\n        /* \"@chainlink/contracts/src/v0.8/Chainlink.sol\":1278:1282  self */\n      dup6\n        /* \"@chainlink/contracts/src/v0.8/Chainlink.sol\":1278:1301  self.callbackFunctionId */\n      0x40\n      add\n        /* \"@chainlink/contracts/src/v0.8/Chainlink.sol\":1278:1316  self.callbackFunctionId = callbackFunc */\n      swap1\n      not(0xffffffffffffffffffffffffffffffffffffffffffffffffffffffff)\n      and\n      swap1\n      dup2\n      not(0xffffffffffffffffffffffffffffffffffffffffffffffffffffffff)\n      and\n      dup2\n      mstore\n      pop\n      pop\n        /* \"@chainlink/contracts/src/v0.8/Chainlink.sol\":1329:1333  self */\n      dup5\n        /* \"@chainlink/contracts/src/v0.8/Chainlink.sol\":1322:1333  return self */\n      swap1\n      pop\n        /* \"@chainlink/contracts/src/v0.8/Chainlink.sol\":987:1338  function initialize(... */\n      swap5\n      swap4\n      pop\n      pop\n      pop\n      pop\n      jump\t// out\n        /* \"@chainlink/contracts/src/v0.8/vendor/CBORChainlink.sol\":2777:2981  function encodeString(BufferChainlink.buffer memory buf, string memory value) internal pure {... */\n    tag_106:\n        /* \"@chainlink/contracts/src/v0.8/vendor/CBORChainlink.sol\":2875:2946  encodeFixedNumeric(buf, MAJOR_TYPE_STRING, uint64(bytes(value).length)) */\n      tag_125\n        /* \"@chainlink/contracts/src/v0.8/vendor/CBORChainlink.sol\":2894:2897  buf */\n      dup3\n        /* \"@chainlink/contracts/src/v0.8/vendor/CBORChainlink.sol\":383:384  3 */\n      0x03\n        /* \"@chainlink/contracts/src/v0.8/vendor/CBORChainlink.sol\":2931:2936  value */\n      dup4\n        /* \"@chainlink/contracts/src/v0.8/vendor/CBORChainlink.sol\":2925:2944  bytes(value).length */\n      mload\n        /* \"@chainlink/contracts/src/v0.8/vendor/CBORChainlink.sol\":2875:2893  encodeFixedNumeric */\n      tag_126\n        /* \"@chainlink/contracts/src/v0.8/vendor/CBORChainlink.sol\":2875:2946  encodeFixedNumeric(buf, MAJOR_TYPE_STRING, uint64(bytes(value).length)) */\n      jump\t// in\n    tag_125:\n        /* \"@chainlink/contracts/src/v0.8/vendor/CBORChainlink.sol\":2952:2976  buf.append(bytes(value)) */\n      tag_127\n        /* \"@chainlink/contracts/src/v0.8/vendor/CBORChainlink.sol\":2969:2974  value */\n      dup2\n        /* \"@chainlink/contracts/src/v0.8/vendor/CBORChainlink.sol\":2952:2955  buf */\n      dup4\n        /* \"@chainlink/contracts/src/v0.8/vendor/CBORChainlink.sol\":2952:2962  buf.append */\n      tag_128\n      swap1\n        /* \"@chainlink/contracts/src/v0.8/vendor/CBORChainlink.sol\":2952:2976  buf.append(bytes(value)) */\n      swap2\n      swap1\n      0xffffffff\n      and\n      jump\t// in\n    tag_127:\n      pop\n        /* \"@chainlink/contracts/src/v0.8/vendor/CBORChainlink.sol\":2777:2981  function encodeString(BufferChainlink.buffer memory buf, string memory value) internal pure {... */\n      pop\n      pop\n      jump\t// out\n        /* \"@chainlink/contracts/src/v0.8/ChainlinkClient.sol\":3687:4443  function sendChainlinkRequestTo(... */\n    tag_110:\n        /* \"@chainlink/contracts/src/v0.8/ChainlinkClient.sol\":3823:3840  bytes32 requestId */\n      0x00\n        /* \"@chainlink/contracts/src/v0.8/ChainlinkClient.sol\":3848:3861  uint256 nonce */\n      dup1\n        /* \"@chainlink/contracts/src/v0.8/ChainlinkClient.sol\":3864:3878  s_requestCount */\n      sload(0x04)\n        /* \"@chainlink/contracts/src/v0.8/ChainlinkClient.sol\":3848:3878  uint256 nonce = s_requestCount */\n      swap1\n      pop\n        /* \"@chainlink/contracts/src/v0.8/ChainlinkClient.sol\":3909:3910  1 */\n      0x01\n        /* \"@chainlink/contracts/src/v0.8/ChainlinkClient.sol\":3901:3906  nonce */\n      dup2\n        /* \"@chainlink/contracts/src/v0.8/ChainlinkClient.sol\":3901:3910  nonce + 1 */\n      tag_130\n      swap2\n      swap1\n      tag_131\n      jump\t// in\n    tag_130:\n        /* \"@chainlink/contracts/src/v0.8/ChainlinkClient.sol\":3884:3898  s_requestCount */\n      0x04\n        /* \"@chainlink/contracts/src/v0.8/ChainlinkClient.sol\":3884:3910  s_requestCount = nonce + 1 */\n      dup2\n      swap1\n      sstore\n      pop\n        /* \"@chainlink/contracts/src/v0.8/ChainlinkClient.sol\":3916:3943  bytes memory encodedRequest */\n      0x00\n        /* \"@chainlink/contracts/src/v0.8/ChainlinkClient.sol\":3976:4024  ChainlinkRequestInterface.oracleRequest.selector */\n      shl(0xe0, 0x40429946)\n        /* \"@chainlink/contracts/src/v0.8/ChainlinkClient.sol\":784:785  0 */\n      0x00\n        /* \"@chainlink/contracts/src/v0.8/ChainlinkClient.sol\":728:729  0 */\n      dup1\n        /* \"@chainlink/contracts/src/v0.8/ChainlinkClient.sol\":4245:4248  req */\n      dup8\n        /* \"@chainlink/contracts/src/v0.8/ChainlinkClient.sol\":4245:4251  req.id */\n      0x00\n      add\n      mload\n        /* \"@chainlink/contracts/src/v0.8/ChainlinkClient.sol\":4267:4271  this */\n      address\n        /* \"@chainlink/contracts/src/v0.8/ChainlinkClient.sol\":4280:4283  req */\n      dup10\n        /* \"@chainlink/contracts/src/v0.8/ChainlinkClient.sol\":4280:4302  req.callbackFunctionId */\n      0x40\n      add\n      mload\n        /* \"@chainlink/contracts/src/v0.8/ChainlinkClient.sol\":4310:4315  nonce */\n      dup8\n        /* \"@chainlink/contracts/src/v0.8/ChainlinkClient.sol\":837:838  1 */\n      0x01\n        /* \"@chainlink/contracts/src/v0.8/ChainlinkClient.sol\":4350:4353  req */\n      dup13\n        /* \"@chainlink/contracts/src/v0.8/ChainlinkClient.sol\":4350:4357  req.buf */\n      0x80\n      add\n      mload\n        /* \"@chainlink/contracts/src/v0.8/ChainlinkClient.sol\":4350:4361  req.buf.buf */\n      0x00\n      add\n      mload\n        /* \"@chainlink/contracts/src/v0.8/ChainlinkClient.sol\":3946:4367  abi.encodeWithSelector(... */\n      add(0x24, mload(0x40))\n      tag_132\n      swap9\n      swap8\n      swap7\n      swap6\n      swap5\n      swap4\n      swap3\n      swap2\n      swap1\n      tag_133\n      jump\t// in\n    tag_132:\n      mload(0x40)\n      0x20\n      dup2\n      dup4\n      sub\n      sub\n      dup2\n      mstore\n      swap1\n      0x40\n      mstore\n      swap1\n      not(0xffffffffffffffffffffffffffffffffffffffffffffffffffffffff)\n      and\n      0x20\n      dup3\n      add\n      dup1\n      mload\n      0xffffffffffffffffffffffffffffffffffffffffffffffffffffffff\n      dup4\n      dup2\n      dup4\n      and\n      or\n      dup4\n      mstore\n      pop\n      pop\n      pop\n      pop\n        /* \"@chainlink/contracts/src/v0.8/ChainlinkClient.sol\":3916:4367  bytes memory encodedRequest = abi.encodeWithSelector(... */\n      swap1\n      pop\n        /* \"@chainlink/contracts/src/v0.8/ChainlinkClient.sol\":4380:4438  _rawRequest(oracleAddress, nonce, payment, encodedRequest) */\n      tag_134\n        /* \"@chainlink/contracts/src/v0.8/ChainlinkClient.sol\":4392:4405  oracleAddress */\n      dup7\n        /* \"@chainlink/contracts/src/v0.8/ChainlinkClient.sol\":4407:4412  nonce */\n      dup4\n        /* \"@chainlink/contracts/src/v0.8/ChainlinkClient.sol\":4414:4421  payment */\n      dup7\n        /* \"@chainlink/contracts/src/v0.8/ChainlinkClient.sol\":4423:4437  encodedRequest */\n      dup5\n        /* \"@chainlink/contracts/src/v0.8/ChainlinkClient.sol\":4380:4391  _rawRequest */\n      tag_135\n        /* \"@chainlink/contracts/src/v0.8/ChainlinkClient.sol\":4380:4438  _rawRequest(oracleAddress, nonce, payment, encodedRequest) */\n      jump\t// in\n    tag_134:\n        /* \"@chainlink/contracts/src/v0.8/ChainlinkClient.sol\":4373:4438  return _rawRequest(oracleAddress, nonce, payment, encodedRequest) */\n      swap3\n      pop\n      pop\n      pop\n        /* \"@chainlink/contracts/src/v0.8/ChainlinkClient.sol\":3687:4443  function sendChainlinkRequestTo(... */\n      swap4\n      swap3\n      pop\n      pop\n      pop\n      jump\t// out\n        /* \"@chainlink/contracts/src/v0.8/vendor/BufferChainlink.sol\":1001:1400  function init(buffer memory buf, uint256 capacity) internal pure returns (buffer memory) {... */\n    tag_123:\n        /* \"@chainlink/contracts/src/v0.8/vendor/BufferChainlink.sol\":1075:1088  buffer memory */\n      tag_136\n      tag_137\n      jump\t// in\n    tag_136:\n        /* \"@chainlink/contracts/src/v0.8/vendor/BufferChainlink.sol\":1117:1118  0 */\n      0x00\n        /* \"@chainlink/contracts/src/v0.8/vendor/BufferChainlink.sol\":1111:1113  32 */\n      0x20\n        /* \"@chainlink/contracts/src/v0.8/vendor/BufferChainlink.sol\":1100:1108  capacity */\n      dup4\n        /* \"@chainlink/contracts/src/v0.8/vendor/BufferChainlink.sol\":1100:1113  capacity % 32 */\n      tag_139\n      swap2\n      swap1\n      tag_140\n      jump\t// in\n    tag_139:\n        /* \"@chainlink/contracts/src/v0.8/vendor/BufferChainlink.sol\":1100:1118  capacity % 32 != 0 */\n      eq\n        /* \"@chainlink/contracts/src/v0.8/vendor/BufferChainlink.sol\":1096:1167  if (capacity % 32 != 0) {... */\n      tag_141\n      jumpi\n        /* \"@chainlink/contracts/src/v0.8/vendor/BufferChainlink.sol\":1157:1159  32 */\n      0x20\n        /* \"@chainlink/contracts/src/v0.8/vendor/BufferChainlink.sol\":1146:1154  capacity */\n      dup3\n        /* \"@chainlink/contracts/src/v0.8/vendor/BufferChainlink.sol\":1146:1159  capacity % 32 */\n      tag_142\n      swap2\n      swap1\n      tag_140\n      jump\t// in\n    tag_142:\n        /* \"@chainlink/contracts/src/v0.8/vendor/BufferChainlink.sol\":1140:1142  32 */\n      0x20\n        /* \"@chainlink/contracts/src/v0.8/vendor/BufferChainlink.sol\":1140:1160  32 - (capacity % 32) */\n      tag_143\n      swap2\n      swap1\n      tag_144\n      jump\t// in\n    tag_143:\n        /* \"@chainlink/contracts/src/v0.8/vendor/BufferChainlink.sol\":1128:1160  capacity += 32 - (capacity % 32) */\n      dup3\n      tag_145\n      swap2\n      swap1\n      tag_131\n      jump\t// in\n    tag_145:\n      swap2\n      pop\n        /* \"@chainlink/contracts/src/v0.8/vendor/BufferChainlink.sol\":1096:1167  if (capacity % 32 != 0) {... */\n    tag_141:\n        /* \"@chainlink/contracts/src/v0.8/vendor/BufferChainlink.sol\":1229:1237  capacity */\n      dup2\n        /* \"@chainlink/contracts/src/v0.8/vendor/BufferChainlink.sol\":1214:1217  buf */\n      dup4\n        /* \"@chainlink/contracts/src/v0.8/vendor/BufferChainlink.sol\":1214:1226  buf.capacity */\n      0x20\n      add\n        /* \"@chainlink/contracts/src/v0.8/vendor/BufferChainlink.sol\":1214:1237  buf.capacity = capacity */\n      dup2\n      dup2\n      mstore\n      pop\n      pop\n        /* \"@chainlink/contracts/src/v0.8/vendor/BufferChainlink.sol\":1277:1281  0x40 */\n      0x40\n        /* \"@chainlink/contracts/src/v0.8/vendor/BufferChainlink.sol\":1271:1282  mload(0x40) */\n      mload\n        /* \"@chainlink/contracts/src/v0.8/vendor/BufferChainlink.sol\":1301:1304  ptr */\n      dup1\n        /* \"@chainlink/contracts/src/v0.8/vendor/BufferChainlink.sol\":1296:1299  buf */\n      dup5\n        /* \"@chainlink/contracts/src/v0.8/vendor/BufferChainlink.sol\":1289:1305  mstore(buf, ptr) */\n      mstore\n        /* \"@chainlink/contracts/src/v0.8/vendor/BufferChainlink.sol\":1324:1325  0 */\n      0x00\n        /* \"@chainlink/contracts/src/v0.8/vendor/BufferChainlink.sol\":1319:1322  ptr */\n      dup2\n        /* \"@chainlink/contracts/src/v0.8/vendor/BufferChainlink.sol\":1312:1326  mstore(ptr, 0) */\n      mstore\n        /* \"@chainlink/contracts/src/v0.8/vendor/BufferChainlink.sol\":1363:1371  capacity */\n      dup3\n        /* \"@chainlink/contracts/src/v0.8/vendor/BufferChainlink.sol\":1358:1361  ptr */\n      dup2\n        /* \"@chainlink/contracts/src/v0.8/vendor/BufferChainlink.sol\":1354:1372  add(ptr, capacity) */\n      add\n        /* \"@chainlink/contracts/src/v0.8/vendor/BufferChainlink.sol\":1350:1352  32 */\n      0x20\n        /* \"@chainlink/contracts/src/v0.8/vendor/BufferChainlink.sol\":1346:1373  add(32, add(ptr, capacity)) */\n      add\n        /* \"@chainlink/contracts/src/v0.8/vendor/BufferChainlink.sol\":1340:1344  0x40 */\n      0x40\n        /* \"@chainlink/contracts/src/v0.8/vendor/BufferChainlink.sol\":1333:1374  mstore(0x40, add(32, add(ptr, capacity))) */\n      mstore\n        /* \"@chainlink/contracts/src/v0.8/vendor/BufferChainlink.sol\":1252:1380  {... */\n      pop\n        /* \"@chainlink/contracts/src/v0.8/vendor/BufferChainlink.sol\":1392:1395  buf */\n      dup3\n        /* \"@chainlink/contracts/src/v0.8/vendor/BufferChainlink.sol\":1385:1395  return buf */\n      swap1\n      pop\n        /* \"@chainlink/contracts/src/v0.8/vendor/BufferChainlink.sol\":1001:1400  function init(buffer memory buf, uint256 capacity) internal pure returns (buffer memory) {... */\n      swap3\n      swap2\n      pop\n      pop\n      jump\t// out\n        /* \"@chainlink/contracts/src/v0.8/vendor/CBORChainlink.sol\":682:1307  function encodeFixedNumeric(BufferChainlink.buffer memory buf, uint8 major, uint64 value) private pure {... */\n    tag_126:\n        /* \"@chainlink/contracts/src/v0.8/vendor/CBORChainlink.sol\":803:805  23 */\n      0x17\n        /* \"@chainlink/contracts/src/v0.8/vendor/CBORChainlink.sol\":794:799  value */\n      dup2\n        /* \"@chainlink/contracts/src/v0.8/vendor/CBORChainlink.sol\":794:805  value <= 23 */\n      0xffffffffffffffff\n      and\n      gt\n        /* \"@chainlink/contracts/src/v0.8/vendor/CBORChainlink.sol\":791:1303  if(value <= 23) {... */\n      tag_147\n      jumpi\n        /* \"@chainlink/contracts/src/v0.8/vendor/CBORChainlink.sol\":815:859  buf.appendUint8(uint8((major << 5) | value)) */\n      tag_148\n        /* \"@chainlink/contracts/src/v0.8/vendor/CBORChainlink.sol\":852:857  value */\n      dup2\n        /* \"@chainlink/contracts/src/v0.8/vendor/CBORChainlink.sol\":847:848  5 */\n      0x05\n        /* \"@chainlink/contracts/src/v0.8/vendor/CBORChainlink.sol\":838:843  major */\n      dup5\n        /* \"@chainlink/contracts/src/v0.8/vendor/CBORChainlink.sol\":838:848  major << 5 */\n      0xff\n      and\n      swap1\n      shl\n        /* \"@chainlink/contracts/src/v0.8/vendor/CBORChainlink.sol\":837:857  (major << 5) | value */\n      0xff\n      and\n      or\n        /* \"@chainlink/contracts/src/v0.8/vendor/CBORChainlink.sol\":815:818  buf */\n      dup5\n        /* \"@chainlink/contracts/src/v0.8/vendor/CBORChainlink.sol\":815:830  buf.appendUint8 */\n      tag_149\n      swap1\n        /* \"@chainlink/contracts/src/v0.8/vendor/CBORChainlink.sol\":815:859  buf.appendUint8(uint8((major << 5) | value)) */\n      swap2\n      swap1\n      0xffffffff\n      and\n      jump\t// in\n    tag_148:\n      pop\n        /* \"@chainlink/contracts/src/v0.8/vendor/CBORChainlink.sol\":791:1303  if(value <= 23) {... */\n      jump(tag_150)\n    tag_147:\n        /* \"@chainlink/contracts/src/v0.8/vendor/CBORChainlink.sol\":885:889  0xFF */\n      0xff\n        /* \"@chainlink/contracts/src/v0.8/vendor/CBORChainlink.sol\":876:881  value */\n      dup2\n        /* \"@chainlink/contracts/src/v0.8/vendor/CBORChainlink.sol\":876:889  value <= 0xFF */\n      0xffffffffffffffff\n      and\n      gt\n        /* \"@chainlink/contracts/src/v0.8/vendor/CBORChainlink.sol\":872:1303  if (value <= 0xFF) {... */\n      tag_151\n      jumpi\n        /* \"@chainlink/contracts/src/v0.8/vendor/CBORChainlink.sol\":899:940  buf.appendUint8(uint8((major << 5) | 24)) */\n      tag_152\n        /* \"@chainlink/contracts/src/v0.8/vendor/CBORChainlink.sol\":936:938  24 */\n      0x18\n        /* \"@chainlink/contracts/src/v0.8/vendor/CBORChainlink.sol\":931:932  5 */\n      0x05\n        /* \"@chainlink/contracts/src/v0.8/vendor/CBORChainlink.sol\":922:927  major */\n      dup5\n        /* \"@chainlink/contracts/src/v0.8/vendor/CBORChainlink.sol\":922:932  major << 5 */\n      0xff\n      and\n      swap1\n      shl\n        /* \"@chainlink/contracts/src/v0.8/vendor/CBORChainlink.sol\":921:938  (major << 5) | 24 */\n      or\n        /* \"@chainlink/contracts/src/v0.8/vendor/CBORChainlink.sol\":899:902  buf */\n      dup5\n        /* \"@chainlink/contracts/src/v0.8/vendor/CBORChainlink.sol\":899:914  buf.appendUint8 */\n      tag_149\n      swap1\n        /* \"@chainlink/contracts/src/v0.8/vendor/CBORChainlink.sol\":899:940  buf.appendUint8(uint8((major << 5) | 24)) */\n      swap2\n      swap1\n      0xffffffff\n      and\n      jump\t// in\n    tag_152:\n      pop\n        /* \"@chainlink/contracts/src/v0.8/vendor/CBORChainlink.sol\":948:971  buf.appendInt(value, 1) */\n      tag_153\n        /* \"@chainlink/contracts/src/v0.8/vendor/CBORChainlink.sol\":962:967  value */\n      dup2\n        /* \"@chainlink/contracts/src/v0.8/vendor/CBORChainlink.sol\":948:971  buf.appendInt(value, 1) */\n      0xffffffffffffffff\n      and\n        /* \"@chainlink/contracts/src/v0.8/vendor/CBORChainlink.sol\":969:970  1 */\n      0x01\n        /* \"@chainlink/contracts/src/v0.8/vendor/CBORChainlink.sol\":948:951  buf */\n      dup6\n        /* \"@chainlink/contracts/src/v0.8/vendor/CBORChainlink.sol\":948:961  buf.appendInt */\n      tag_154\n      swap1\n        /* \"@chainlink/contracts/src/v0.8/vendor/CBORChainlink.sol\":948:971  buf.appendInt(value, 1) */\n      swap3\n      swap2\n      swap1\n      0xffffffff\n      and\n      jump\t// in\n    tag_153:\n      pop\n        /* \"@chainlink/contracts/src/v0.8/vendor/CBORChainlink.sol\":872:1303  if (value <= 0xFF) {... */\n      jump(tag_155)\n    tag_151:\n        /* \"@chainlink/contracts/src/v0.8/vendor/CBORChainlink.sol\":997:1003  0xFFFF */\n      0xffff\n        /* \"@chainlink/contracts/src/v0.8/vendor/CBORChainlink.sol\":988:993  value */\n      dup2\n        /* \"@chainlink/contracts/src/v0.8/vendor/CBORChainlink.sol\":988:1003  value <= 0xFFFF */\n      0xffffffffffffffff\n      and\n      gt\n        /* \"@chainlink/contracts/src/v0.8/vendor/CBORChainlink.sol\":984:1303  if (value <= 0xFFFF) {... */\n      tag_156\n      jumpi\n        /* \"@chainlink/contracts/src/v0.8/vendor/CBORChainlink.sol\":1013:1054  buf.appendUint8(uint8((major << 5) | 25)) */\n      tag_157\n        /* \"@chainlink/contracts/src/v0.8/vendor/CBORChainlink.sol\":1050:1052  25 */\n      0x19\n        /* \"@chainlink/contracts/src/v0.8/vendor/CBORChainlink.sol\":1045:1046  5 */\n      0x05\n        /* \"@chainlink/contracts/src/v0.8/vendor/CBORChainlink.sol\":1036:1041  major */\n      dup5\n        /* \"@chainlink/contracts/src/v0.8/vendor/CBORChainlink.sol\":1036:1046  major << 5 */\n      0xff\n      and\n      swap1\n      shl\n        /* \"@chainlink/contracts/src/v0.8/vendor/CBORChainlink.sol\":1035:1052  (major << 5) | 25 */\n      or\n        /* \"@chainlink/contracts/src/v0.8/vendor/CBORChainlink.sol\":1013:1016  buf */\n      dup5\n        /* \"@chainlink/contracts/src/v0.8/vendor/CBORChainlink.sol\":1013:1028  buf.appendUint8 */\n      tag_149\n      swap1\n        /* \"@chainlink/contracts/src/v0.8/vendor/CBORChainlink.sol\":1013:1054  buf.appendUint8(uint8((major << 5) | 25)) */\n      swap2\n      swap1\n      0xffffffff\n      and\n      jump\t// in\n    tag_157:\n      pop\n        /* \"@chainlink/contracts/src/v0.8/vendor/CBORChainlink.sol\":1062:1085  buf.appendInt(value, 2) */\n      tag_158\n        /* \"@chainlink/contracts/src/v0.8/vendor/CBORChainlink.sol\":1076:1081  value */\n      dup2\n        /* \"@chainlink/contracts/src/v0.8/vendor/CBORChainlink.sol\":1062:1085  buf.appendInt(value, 2) */\n      0xffffffffffffffff\n      and\n        /* \"@chainlink/contracts/src/v0.8/vendor/CBORChainlink.sol\":1083:1084  2 */\n      0x02\n        /* \"@chainlink/contracts/src/v0.8/vendor/CBORChainlink.sol\":1062:1065  buf */\n      dup6\n        /* \"@chainlink/contracts/src/v0.8/vendor/CBORChainlink.sol\":1062:1075  buf.appendInt */\n      tag_154\n      swap1\n        /* \"@chainlink/contracts/src/v0.8/vendor/CBORChainlink.sol\":1062:1085  buf.appendInt(value, 2) */\n      swap3\n      swap2\n      swap1\n      0xffffffff\n      and\n      jump\t// in\n    tag_158:\n      pop\n        /* \"@chainlink/contracts/src/v0.8/vendor/CBORChainlink.sol\":984:1303  if (value <= 0xFFFF) {... */\n      jump(tag_159)\n    tag_156:\n        /* \"@chainlink/contracts/src/v0.8/vendor/CBORChainlink.sol\":1111:1121  0xFFFFFFFF */\n      0xffffffff\n        /* \"@chainlink/contracts/src/v0.8/vendor/CBORChainlink.sol\":1102:1107  value */\n      dup2\n        /* \"@chainlink/contracts/src/v0.8/vendor/CBORChainlink.sol\":1102:1121  value <= 0xFFFFFFFF */\n      0xffffffffffffffff\n      and\n      gt\n        /* \"@chainlink/contracts/src/v0.8/vendor/CBORChainlink.sol\":1098:1303  if (value <= 0xFFFFFFFF) {... */\n      tag_160\n      jumpi\n        /* \"@chainlink/contracts/src/v0.8/vendor/CBORChainlink.sol\":1131:1172  buf.appendUint8(uint8((major << 5) | 26)) */\n      tag_161\n        /* \"@chainlink/contracts/src/v0.8/vendor/CBORChainlink.sol\":1168:1170  26 */\n      0x1a\n        /* \"@chainlink/contracts/src/v0.8/vendor/CBORChainlink.sol\":1163:1164  5 */\n      0x05\n        /* \"@chainlink/contracts/src/v0.8/vendor/CBORChainlink.sol\":1154:1159  major */\n      dup5\n        /* \"@chainlink/contracts/src/v0.8/vendor/CBORChainlink.sol\":1154:1164  major << 5 */\n      0xff\n      and\n      swap1\n      shl\n        /* \"@chainlink/contracts/src/v0.8/vendor/CBORChainlink.sol\":1153:1170  (major << 5) | 26 */\n      or\n        /* \"@chainlink/contracts/src/v0.8/vendor/CBORChainlink.sol\":1131:1134  buf */\n      dup5\n        /* \"@chainlink/contracts/src/v0.8/vendor/CBORChainlink.sol\":1131:1146  buf.appendUint8 */\n      tag_149\n      swap1\n        /* \"@chainlink/contracts/src/v0.8/vendor/CBORChainlink.sol\":1131:1172  buf.appendUint8(uint8((major << 5) | 26)) */\n      swap2\n      swap1\n      0xffffffff\n      and\n      jump\t// in\n    tag_161:\n      pop\n        /* \"@chainlink/contracts/src/v0.8/vendor/CBORChainlink.sol\":1180:1203  buf.appendInt(value, 4) */\n      tag_162\n        /* \"@chainlink/contracts/src/v0.8/vendor/CBORChainlink.sol\":1194:1199  value */\n      dup2\n        /* \"@chainlink/contracts/src/v0.8/vendor/CBORChainlink.sol\":1180:1203  buf.appendInt(value, 4) */\n      0xffffffffffffffff\n      and\n        /* \"@chainlink/contracts/src/v0.8/vendor/CBORChainlink.sol\":1201:1202  4 */\n      0x04\n        /* \"@chainlink/contracts/src/v0.8/vendor/CBORChainlink.sol\":1180:1183  buf */\n      dup6\n        /* \"@chainlink/contracts/src/v0.8/vendor/CBORChainlink.sol\":1180:1193  buf.appendInt */\n      tag_154\n      swap1\n        /* \"@chainlink/contracts/src/v0.8/vendor/CBORChainlink.sol\":1180:1203  buf.appendInt(value, 4) */\n      swap3\n      swap2\n      swap1\n      0xffffffff\n      and\n      jump\t// in\n    tag_162:\n      pop\n        /* \"@chainlink/contracts/src/v0.8/vendor/CBORChainlink.sol\":1098:1303  if (value <= 0xFFFFFFFF) {... */\n      jump(tag_163)\n    tag_160:\n        /* \"@chainlink/contracts/src/v0.8/vendor/CBORChainlink.sol\":1224:1265  buf.appendUint8(uint8((major << 5) | 27)) */\n      tag_164\n        /* \"@chainlink/contracts/src/v0.8/vendor/CBORChainlink.sol\":1261:1263  27 */\n      0x1b\n        /* \"@chainlink/contracts/src/v0.8/vendor/CBORChainlink.sol\":1256:1257  5 */\n      0x05\n        /* \"@chainlink/contracts/src/v0.8/vendor/CBORChainlink.sol\":1247:1252  major */\n      dup5\n        /* \"@chainlink/contracts/src/v0.8/vendor/CBORChainlink.sol\":1247:1257  major << 5 */\n      0xff\n      and\n      swap1\n      shl\n        /* \"@chainlink/contracts/src/v0.8/vendor/CBORChainlink.sol\":1246:1263  (major << 5) | 27 */\n      or\n        /* \"@chainlink/contracts/src/v0.8/vendor/CBORChainlink.sol\":1224:1227  buf */\n      dup5\n        /* \"@chainlink/contracts/src/v0.8/vendor/CBORChainlink.sol\":1224:1239  buf.appendUint8 */\n      tag_149\n      swap1\n        /* \"@chainlink/contracts/src/v0.8/vendor/CBORChainlink.sol\":1224:1265  buf.appendUint8(uint8((major << 5) | 27)) */\n      swap2\n      swap1\n      0xffffffff\n      and\n      jump\t// in\n    tag_164:\n      pop\n        /* \"@chainlink/contracts/src/v0.8/vendor/CBORChainlink.sol\":1273:1296  buf.appendInt(value, 8) */\n      tag_165\n        /* \"@chainlink/contracts/src/v0.8/vendor/CBORChainlink.sol\":1287:1292  value */\n      dup2\n        /* \"@chainlink/contracts/src/v0.8/vendor/CBORChainlink.sol\":1273:1296  buf.appendInt(value, 8) */\n      0xffffffffffffffff\n      and\n        /* \"@chainlink/contracts/src/v0.8/vendor/CBORChainlink.sol\":1294:1295  8 */\n      0x08\n        /* \"@chainlink/contracts/src/v0.8/vendor/CBORChainlink.sol\":1273:1276  buf */\n      dup6\n        /* \"@chainlink/contracts/src/v0.8/vendor/CBORChainlink.sol\":1273:1286  buf.appendInt */\n      tag_154\n      swap1\n        /* \"@chainlink/contracts/src/v0.8/vendor/CBORChainlink.sol\":1273:1296  buf.appendInt(value, 8) */\n      swap3\n      swap2\n      swap1\n      0xffffffff\n      and\n      jump\t// in\n    tag_165:\n      pop\n        /* \"@chainlink/contracts/src/v0.8/vendor/CBORChainlink.sol\":1098:1303  if (value <= 0xFFFFFFFF) {... */\n    tag_163:\n        /* \"@chainlink/contracts/src/v0.8/vendor/CBORChainlink.sol\":984:1303  if (value <= 0xFFFF) {... */\n    tag_159:\n        /* \"@chainlink/contracts/src/v0.8/vendor/CBORChainlink.sol\":872:1303  if (value <= 0xFF) {... */\n    tag_155:\n        /* \"@chainlink/contracts/src/v0.8/vendor/CBORChainlink.sol\":791:1303  if(value <= 23) {... */\n    tag_150:\n        /* \"@chainlink/contracts/src/v0.8/vendor/CBORChainlink.sol\":682:1307  function encodeFixedNumeric(BufferChainlink.buffer memory buf, uint8 major, uint64 value) private pure {... */\n      pop\n      pop\n      pop\n      jump\t// out\n        /* \"@chainlink/contracts/src/v0.8/vendor/BufferChainlink.sol\":4692:4847  function append(buffer memory buf, bytes memory data) internal pure returns (buffer memory) {... */\n    tag_128:\n        /* \"@chainlink/contracts/src/v0.8/vendor/BufferChainlink.sol\":4769:4782  buffer memory */\n      tag_166\n      tag_137\n      jump\t// in\n    tag_166:\n        /* \"@chainlink/contracts/src/v0.8/vendor/BufferChainlink.sol\":4797:4842  write(buf, buf.buf.length, data, data.length) */\n      tag_168\n        /* \"@chainlink/contracts/src/v0.8/vendor/BufferChainlink.sol\":4803:4806  buf */\n      dup4\n        /* \"@chainlink/contracts/src/v0.8/vendor/BufferChainlink.sol\":4808:4811  buf */\n      dup5\n        /* \"@chainlink/contracts/src/v0.8/vendor/BufferChainlink.sol\":4808:4815  buf.buf */\n      0x00\n      add\n      mload\n        /* \"@chainlink/contracts/src/v0.8/vendor/BufferChainlink.sol\":4808:4822  buf.buf.length */\n      mload\n        /* \"@chainlink/contracts/src/v0.8/vendor/BufferChainlink.sol\":4824:4828  data */\n      dup5\n        /* \"@chainlink/contracts/src/v0.8/vendor/BufferChainlink.sol\":4830:4834  data */\n      dup6\n        /* \"@chainlink/contracts/src/v0.8/vendor/BufferChainlink.sol\":4830:4841  data.length */\n      mload\n        /* \"@chainlink/contracts/src/v0.8/vendor/BufferChainlink.sol\":4797:4802  write */\n      tag_169\n        /* \"@chainlink/contracts/src/v0.8/vendor/BufferChainlink.sol\":4797:4842  write(buf, buf.buf.length, data, data.length) */\n      jump\t// in\n    tag_168:\n        /* \"@chainlink/contracts/src/v0.8/vendor/BufferChainlink.sol\":4790:4842  return write(buf, buf.buf.length, data, data.length) */\n      swap1\n      pop\n        /* \"@chainlink/contracts/src/v0.8/vendor/BufferChainlink.sol\":4692:4847  function append(buffer memory buf, bytes memory data) internal pure returns (buffer memory) {... */\n      swap3\n      swap2\n      pop\n      pop\n      jump\t// out\n        /* \"@chainlink/contracts/src/v0.8/ChainlinkClient.sol\":6629:7059  function _rawRequest(... */\n    tag_135:\n        /* \"@chainlink/contracts/src/v0.8/ChainlinkClient.sol\":6771:6788  bytes32 requestId */\n      0x00\n        /* \"@chainlink/contracts/src/v0.8/ChainlinkClient.sol\":6835:6839  this */\n      address\n        /* \"@chainlink/contracts/src/v0.8/ChainlinkClient.sol\":6841:6846  nonce */\n      dup5\n        /* \"@chainlink/contracts/src/v0.8/ChainlinkClient.sol\":6818:6847  abi.encodePacked(this, nonce) */\n      add(0x20, mload(0x40))\n      tag_171\n      swap3\n      swap2\n      swap1\n      tag_172\n      jump\t// in\n    tag_171:\n      mload(0x40)\n      0x20\n      dup2\n      dup4\n      sub\n      sub\n      dup2\n      mstore\n      swap1\n      0x40\n      mstore\n        /* \"@chainlink/contracts/src/v0.8/ChainlinkClient.sol\":6808:6848  keccak256(abi.encodePacked(this, nonce)) */\n      dup1\n      mload\n      swap1\n      0x20\n      add\n      keccak256\n        /* \"@chainlink/contracts/src/v0.8/ChainlinkClient.sol\":6796:6848  requestId = keccak256(abi.encodePacked(this, nonce)) */\n      swap1\n      pop\n        /* \"@chainlink/contracts/src/v0.8/ChainlinkClient.sol\":6885:6898  oracleAddress */\n      dup5\n        /* \"@chainlink/contracts/src/v0.8/ChainlinkClient.sol\":6854:6871  s_pendingRequests */\n      0x05\n        /* \"@chainlink/contracts/src/v0.8/ChainlinkClient.sol\":6854:6882  s_pendingRequests[requestId] */\n      0x00\n        /* \"@chainlink/contracts/src/v0.8/ChainlinkClient.sol\":6872:6881  requestId */\n      dup4\n        /* \"@chainlink/contracts/src/v0.8/ChainlinkClient.sol\":6854:6882  s_pendingRequests[requestId] */\n      dup2\n      mstore\n      0x20\n      add\n      swap1\n      dup2\n      mstore\n      0x20\n      add\n      0x00\n      keccak256\n      0x00\n        /* \"@chainlink/contracts/src/v0.8/ChainlinkClient.sol\":6854:6898  s_pendingRequests[requestId] = oracleAddress */\n      0x0100\n      exp\n      dup2\n      sload\n      dup2\n      0xffffffffffffffffffffffffffffffffffffffff\n      mul\n      not\n      and\n      swap1\n      dup4\n      0xffffffffffffffffffffffffffffffffffffffff\n      and\n      mul\n      or\n      swap1\n      sstore\n      pop\n        /* \"@chainlink/contracts/src/v0.8/ChainlinkClient.sol\":6928:6937  requestId */\n      dup1\n        /* \"@chainlink/contracts/src/v0.8/ChainlinkClient.sol\":6909:6938  ChainlinkRequested(requestId) */\n      0xb5e6e01e79f91267dc17b4e6314d5d4d03593d2ceee0fbb452b750bd70ea5af9\n      mload(0x40)\n      mload(0x40)\n      dup1\n      swap2\n      sub\n      swap1\n      log2\n        /* \"@chainlink/contracts/src/v0.8/ChainlinkClient.sol\":6952:6958  s_link */\n      0x02\n      0x00\n      swap1\n      sload\n      swap1\n      0x0100\n      exp\n      swap1\n      div\n      0xffffffffffffffffffffffffffffffffffffffff\n      and\n        /* \"@chainlink/contracts/src/v0.8/ChainlinkClient.sol\":6952:6974  s_link.transferAndCall */\n      0xffffffffffffffffffffffffffffffffffffffff\n      and\n      0x4000aea0\n        /* \"@chainlink/contracts/src/v0.8/ChainlinkClient.sol\":6975:6988  oracleAddress */\n      dup7\n        /* \"@chainlink/contracts/src/v0.8/ChainlinkClient.sol\":6990:6997  payment */\n      dup6\n        /* \"@chainlink/contracts/src/v0.8/ChainlinkClient.sol\":6999:7013  encodedRequest */\n      dup6\n        /* \"@chainlink/contracts/src/v0.8/ChainlinkClient.sol\":6952:7014  s_link.transferAndCall(oracleAddress, payment, encodedRequest) */\n      mload(0x40)\n      dup5\n      0xffffffff\n      and\n      0xe0\n      shl\n      dup2\n      mstore\n      0x04\n      add\n      tag_173\n      swap4\n      swap3\n      swap2\n      swap1\n      tag_174\n      jump\t// in\n    tag_173:\n      0x20\n      mload(0x40)\n      dup1\n      dup4\n      sub\n      dup2\n      0x00\n      dup8\n      gas\n      call\n      iszero\n      dup1\n      iszero\n      tag_176\n      jumpi\n      returndatasize\n      0x00\n      dup1\n      returndatacopy\n      revert(0x00, returndatasize)\n    tag_176:\n      pop\n      pop\n      pop\n      pop\n      mload(0x40)\n      returndatasize\n      not(0x1f)\n      0x1f\n      dup3\n      add\n      and\n      dup3\n      add\n      dup1\n      0x40\n      mstore\n      pop\n      dup2\n      add\n      swap1\n      tag_177\n      swap2\n      swap1\n      tag_78\n      jump\t// in\n    tag_177:\n        /* \"@chainlink/contracts/src/v0.8/ChainlinkClient.sol\":6944:7054  require(s_link.transferAndCall(oracleAddress, payment, encodedRequest), \"unable to transferAndCall to oracle\") */\n      tag_178\n      jumpi\n      mload(0x40)\n      0x08c379a000000000000000000000000000000000000000000000000000000000\n      dup2\n      mstore\n      0x04\n      add\n      tag_179\n      swap1\n      tag_180\n      jump\t// in\n    tag_179:\n      mload(0x40)\n      dup1\n      swap2\n      sub\n      swap1\n      revert\n    tag_178:\n        /* \"@chainlink/contracts/src/v0.8/ChainlinkClient.sol\":6629:7059  function _rawRequest(... */\n      swap5\n      swap4\n      pop\n      pop\n      pop\n      pop\n      jump\t// out\n        /* \"@chainlink/contracts/src/v0.8/vendor/BufferChainlink.sol\":6040:6185  function appendUint8(buffer memory buf, uint8 data) internal pure returns (buffer memory) {... */\n    tag_149:\n        /* \"@chainlink/contracts/src/v0.8/vendor/BufferChainlink.sol\":6115:6128  buffer memory */\n      tag_181\n      tag_137\n      jump\t// in\n    tag_181:\n        /* \"@chainlink/contracts/src/v0.8/vendor/BufferChainlink.sol\":6143:6180  writeUint8(buf, buf.buf.length, data) */\n      tag_183\n        /* \"@chainlink/contracts/src/v0.8/vendor/BufferChainlink.sol\":6154:6157  buf */\n      dup4\n        /* \"@chainlink/contracts/src/v0.8/vendor/BufferChainlink.sol\":6159:6162  buf */\n      dup5\n        /* \"@chainlink/contracts/src/v0.8/vendor/BufferChainlink.sol\":6159:6166  buf.buf */\n      0x00\n      add\n      mload\n        /* \"@chainlink/contracts/src/v0.8/vendor/BufferChainlink.sol\":6159:6173  buf.buf.length */\n      mload\n        /* \"@chainlink/contracts/src/v0.8/vendor/BufferChainlink.sol\":6175:6179  data */\n      dup5\n        /* \"@chainlink/contracts/src/v0.8/vendor/BufferChainlink.sol\":6143:6153  writeUint8 */\n      tag_184\n        /* \"@chainlink/contracts/src/v0.8/vendor/BufferChainlink.sol\":6143:6180  writeUint8(buf, buf.buf.length, data) */\n      jump\t// in\n    tag_183:\n        /* \"@chainlink/contracts/src/v0.8/vendor/BufferChainlink.sol\":6136:6180  return writeUint8(buf, buf.buf.length, data) */\n      swap1\n      pop\n        /* \"@chainlink/contracts/src/v0.8/vendor/BufferChainlink.sol\":6040:6185  function appendUint8(buffer memory buf, uint8 data) internal pure returns (buffer memory) {... */\n      swap3\n      swap2\n      pop\n      pop\n      jump\t// out\n        /* \"@chainlink/contracts/src/v0.8/vendor/BufferChainlink.sol\":9894:10071  function appendInt(... */\n    tag_154:\n        /* \"@chainlink/contracts/src/v0.8/vendor/BufferChainlink.sol\":9998:10011  buffer memory */\n      tag_185\n      tag_137\n      jump\t// in\n    tag_185:\n        /* \"@chainlink/contracts/src/v0.8/vendor/BufferChainlink.sol\":10026:10066  writeInt(buf, buf.buf.length, data, len) */\n      tag_187\n        /* \"@chainlink/contracts/src/v0.8/vendor/BufferChainlink.sol\":10035:10038  buf */\n      dup5\n        /* \"@chainlink/contracts/src/v0.8/vendor/BufferChainlink.sol\":10040:10043  buf */\n      dup6\n        /* \"@chainlink/contracts/src/v0.8/vendor/BufferChainlink.sol\":10040:10047  buf.buf */\n      0x00\n      add\n      mload\n        /* \"@chainlink/contracts/src/v0.8/vendor/BufferChainlink.sol\":10040:10054  buf.buf.length */\n      mload\n        /* \"@chainlink/contracts/src/v0.8/vendor/BufferChainlink.sol\":10056:10060  data */\n      dup6\n        /* \"@chainlink/contracts/src/v0.8/vendor/BufferChainlink.sol\":10062:10065  len */\n      dup6\n        /* \"@chainlink/contracts/src/v0.8/vendor/BufferChainlink.sol\":10026:10034  writeInt */\n      tag_188\n        /* \"@chainlink/contracts/src/v0.8/vendor/BufferChainlink.sol\":10026:10066  writeInt(buf, buf.buf.length, data, len) */\n      jump\t// in\n    tag_187:\n        /* \"@chainlink/contracts/src/v0.8/vendor/BufferChainlink.sol\":10019:10066  return writeInt(buf, buf.buf.length, data, len) */\n      swap1\n      pop\n        /* \"@chainlink/contracts/src/v0.8/vendor/BufferChainlink.sol\":9894:10071  function appendInt(... */\n      swap4\n      swap3\n      pop\n      pop\n      pop\n      jump\t// out\n        /* \"@chainlink/contracts/src/v0.8/vendor/BufferChainlink.sol\":2745:3955  function write(... */\n    tag_169:\n        /* \"@chainlink/contracts/src/v0.8/vendor/BufferChainlink.sol\":2867:2880  buffer memory */\n      tag_189\n      tag_137\n      jump\t// in\n    tag_189:\n        /* \"@chainlink/contracts/src/v0.8/vendor/BufferChainlink.sol\":2903:2907  data */\n      dup3\n        /* \"@chainlink/contracts/src/v0.8/vendor/BufferChainlink.sol\":2903:2914  data.length */\n      mload\n        /* \"@chainlink/contracts/src/v0.8/vendor/BufferChainlink.sol\":2896:2899  len */\n      dup3\n        /* \"@chainlink/contracts/src/v0.8/vendor/BufferChainlink.sol\":2896:2914  len <= data.length */\n      gt\n      iszero\n        /* \"@chainlink/contracts/src/v0.8/vendor/BufferChainlink.sol\":2888:2915  require(len <= data.length) */\n      tag_191\n      jumpi\n      0x00\n      dup1\n      revert\n    tag_191:\n        /* \"@chainlink/contracts/src/v0.8/vendor/BufferChainlink.sol\":2938:2941  buf */\n      dup5\n        /* \"@chainlink/contracts/src/v0.8/vendor/BufferChainlink.sol\":2938:2950  buf.capacity */\n      0x20\n      add\n      mload\n        /* \"@chainlink/contracts/src/v0.8/vendor/BufferChainlink.sol\":2932:2935  len */\n      dup3\n        /* \"@chainlink/contracts/src/v0.8/vendor/BufferChainlink.sol\":2926:2929  off */\n      dup6\n        /* \"@chainlink/contracts/src/v0.8/vendor/BufferChainlink.sol\":2926:2935  off + len */\n      tag_192\n      swap2\n      swap1\n      tag_131\n      jump\t// in\n    tag_192:\n        /* \"@chainlink/contracts/src/v0.8/vendor/BufferChainlink.sol\":2926:2950  off + len > buf.capacity */\n      gt\n        /* \"@chainlink/contracts/src/v0.8/vendor/BufferChainlink.sol\":2922:3012  if (off + len > buf.capacity) {... */\n      iszero\n      tag_193\n      jumpi\n        /* \"@chainlink/contracts/src/v0.8/vendor/BufferChainlink.sol\":2960:3005  resize(buf, max(buf.capacity, len + off) * 2) */\n      tag_194\n        /* \"@chainlink/contracts/src/v0.8/vendor/BufferChainlink.sol\":2967:2970  buf */\n      dup6\n        /* \"@chainlink/contracts/src/v0.8/vendor/BufferChainlink.sol\":3003:3004  2 */\n      0x02\n        /* \"@chainlink/contracts/src/v0.8/vendor/BufferChainlink.sol\":2972:3000  max(buf.capacity, len + off) */\n      tag_195\n        /* \"@chainlink/contracts/src/v0.8/vendor/BufferChainlink.sol\":2976:2979  buf */\n      dup9\n        /* \"@chainlink/contracts/src/v0.8/vendor/BufferChainlink.sol\":2976:2988  buf.capacity */\n      0x20\n      add\n      mload\n        /* \"@chainlink/contracts/src/v0.8/vendor/BufferChainlink.sol\":2996:2999  off */\n      dup9\n        /* \"@chainlink/contracts/src/v0.8/vendor/BufferChainlink.sol\":2990:2993  len */\n      dup8\n        /* \"@chainlink/contracts/src/v0.8/vendor/BufferChainlink.sol\":2990:2999  len + off */\n      tag_196\n      swap2\n      swap1\n      tag_131\n      jump\t// in\n    tag_196:\n        /* \"@chainlink/contracts/src/v0.8/vendor/BufferChainlink.sol\":2972:2975  max */\n      tag_197\n        /* \"@chainlink/contracts/src/v0.8/vendor/BufferChainlink.sol\":2972:3000  max(buf.capacity, len + off) */\n      jump\t// in\n    tag_195:\n        /* \"@chainlink/contracts/src/v0.8/vendor/BufferChainlink.sol\":2972:3004  max(buf.capacity, len + off) * 2 */\n      tag_198\n      swap2\n      swap1\n      tag_199\n      jump\t// in\n    tag_198:\n        /* \"@chainlink/contracts/src/v0.8/vendor/BufferChainlink.sol\":2960:2966  resize */\n      tag_200\n        /* \"@chainlink/contracts/src/v0.8/vendor/BufferChainlink.sol\":2960:3005  resize(buf, max(buf.capacity, len + off) * 2) */\n      jump\t// in\n    tag_194:\n        /* \"@chainlink/contracts/src/v0.8/vendor/BufferChainlink.sol\":2922:3012  if (off + len > buf.capacity) {... */\n    tag_193:\n        /* \"@chainlink/contracts/src/v0.8/vendor/BufferChainlink.sol\":3018:3030  uint256 dest */\n      0x00\n        /* \"@chainlink/contracts/src/v0.8/vendor/BufferChainlink.sol\":3036:3047  uint256 src */\n      dup1\n        /* \"@chainlink/contracts/src/v0.8/vendor/BufferChainlink.sol\":3133:3136  buf */\n      dup7\n        /* \"@chainlink/contracts/src/v0.8/vendor/BufferChainlink.sol\":3127:3137  mload(buf) */\n      mload\n        /* \"@chainlink/contracts/src/v0.8/vendor/BufferChainlink.sol\":3204:3210  bufptr */\n      dup1\n        /* \"@chainlink/contracts/src/v0.8/vendor/BufferChainlink.sol\":3198:3211  mload(bufptr) */\n      mload\n        /* \"@chainlink/contracts/src/v0.8/vendor/BufferChainlink.sol\":3320:3323  off */\n      dup8\n        /* \"@chainlink/contracts/src/v0.8/vendor/BufferChainlink.sol\":3315:3317  32 */\n      0x20\n        /* \"@chainlink/contracts/src/v0.8/vendor/BufferChainlink.sol\":3307:3313  bufptr */\n      dup4\n        /* \"@chainlink/contracts/src/v0.8/vendor/BufferChainlink.sol\":3303:3318  add(bufptr, 32) */\n      add\n        /* \"@chainlink/contracts/src/v0.8/vendor/BufferChainlink.sol\":3299:3324  add(add(bufptr, 32), off) */\n      add\n        /* \"@chainlink/contracts/src/v0.8/vendor/BufferChainlink.sol\":3291:3324  dest := add(add(bufptr, 32), off) */\n      swap4\n      pop\n        /* \"@chainlink/contracts/src/v0.8/vendor/BufferChainlink.sol\":3404:3410  buflen */\n      dup1\n        /* \"@chainlink/contracts/src/v0.8/vendor/BufferChainlink.sol\":3398:3401  off */\n      dup9\n        /* \"@chainlink/contracts/src/v0.8/vendor/BufferChainlink.sol\":3393:3396  len */\n      dup8\n        /* \"@chainlink/contracts/src/v0.8/vendor/BufferChainlink.sol\":3389:3402  add(len, off) */\n      add\n        /* \"@chainlink/contracts/src/v0.8/vendor/BufferChainlink.sol\":3386:3411  gt(add(len, off), buflen) */\n      gt\n        /* \"@chainlink/contracts/src/v0.8/vendor/BufferChainlink.sol\":3383:3459  if gt(add(len, off), buflen) {... */\n      iszero\n      tag_201\n      jumpi\n        /* \"@chainlink/contracts/src/v0.8/vendor/BufferChainlink.sol\":3446:3449  off */\n      dup8\n        /* \"@chainlink/contracts/src/v0.8/vendor/BufferChainlink.sol\":3441:3444  len */\n      dup7\n        /* \"@chainlink/contracts/src/v0.8/vendor/BufferChainlink.sol\":3437:3450  add(len, off) */\n      add\n        /* \"@chainlink/contracts/src/v0.8/vendor/BufferChainlink.sol\":3429:3435  bufptr */\n      dup3\n        /* \"@chainlink/contracts/src/v0.8/vendor/BufferChainlink.sol\":3422:3451  mstore(bufptr, add(len, off)) */\n      mstore\n        /* \"@chainlink/contracts/src/v0.8/vendor/BufferChainlink.sol\":3383:3459  if gt(add(len, off), buflen) {... */\n    tag_201:\n        /* \"@chainlink/contracts/src/v0.8/vendor/BufferChainlink.sol\":3483:3485  32 */\n      0x20\n        /* \"@chainlink/contracts/src/v0.8/vendor/BufferChainlink.sol\":3477:3481  data */\n      dup8\n        /* \"@chainlink/contracts/src/v0.8/vendor/BufferChainlink.sol\":3473:3486  add(data, 32) */\n      add\n        /* \"@chainlink/contracts/src/v0.8/vendor/BufferChainlink.sol\":3466:3486  src := add(data, 32) */\n      swap3\n      pop\n        /* \"@chainlink/contracts/src/v0.8/vendor/BufferChainlink.sol\":3062:3492  {... */\n      pop\n      pop\n        /* \"@chainlink/contracts/src/v0.8/vendor/BufferChainlink.sol\":3544:3673  for (; len >= 32; len -= 32) {... */\n    tag_202:\n        /* \"@chainlink/contracts/src/v0.8/vendor/BufferChainlink.sol\":3558:3560  32 */\n      0x20\n        /* \"@chainlink/contracts/src/v0.8/vendor/BufferChainlink.sol\":3551:3554  len */\n      dup5\n        /* \"@chainlink/contracts/src/v0.8/vendor/BufferChainlink.sol\":3551:3560  len >= 32 */\n      lt\n        /* \"@chainlink/contracts/src/v0.8/vendor/BufferChainlink.sol\":3544:3673  for (; len >= 32; len -= 32) {... */\n      tag_203\n      jumpi\n        /* \"@chainlink/contracts/src/v0.8/vendor/BufferChainlink.sol\":3619:3622  src */\n      dup1\n        /* \"@chainlink/contracts/src/v0.8/vendor/BufferChainlink.sol\":3613:3623  mload(src) */\n      mload\n        /* \"@chainlink/contracts/src/v0.8/vendor/BufferChainlink.sol\":3607:3611  dest */\n      dup3\n        /* \"@chainlink/contracts/src/v0.8/vendor/BufferChainlink.sol\":3600:3624  mstore(dest, mload(src)) */\n      mstore\n        /* \"@chainlink/contracts/src/v0.8/vendor/BufferChainlink.sol\":3647:3649  32 */\n      0x20\n        /* \"@chainlink/contracts/src/v0.8/vendor/BufferChainlink.sol\":3639:3649  dest += 32 */\n      dup3\n      tag_205\n      swap2\n      swap1\n      tag_131\n      jump\t// in\n    tag_205:\n      swap2\n      pop\n        /* \"@chainlink/contracts/src/v0.8/vendor/BufferChainlink.sol\":3664:3666  32 */\n      0x20\n        /* \"@chainlink/contracts/src/v0.8/vendor/BufferChainlink.sol\":3657:3666  src += 32 */\n      dup2\n      tag_206\n      swap2\n      swap1\n      tag_131\n      jump\t// in\n    tag_206:\n      swap1\n      pop\n        /* \"@chainlink/contracts/src/v0.8/vendor/BufferChainlink.sol\":3569:3571  32 */\n      0x20\n        /* \"@chainlink/contracts/src/v0.8/vendor/BufferChainlink.sol\":3562:3571  len -= 32 */\n      dup5\n      tag_207\n      swap2\n      swap1\n      tag_144\n      jump\t// in\n    tag_207:\n      swap4\n      pop\n        /* \"@chainlink/contracts/src/v0.8/vendor/BufferChainlink.sol\":3544:3673  for (; len >= 32; len -= 32) {... */\n      jump(tag_202)\n    tag_203:\n        /* \"@chainlink/contracts/src/v0.8/vendor/BufferChainlink.sol\":3725:3737  uint256 mask */\n      0x00\n        /* \"@chainlink/contracts/src/v0.8/vendor/BufferChainlink.sol\":3760:3761  1 */\n      0x01\n        /* \"@chainlink/contracts/src/v0.8/vendor/BufferChainlink.sol\":3752:3755  len */\n      dup6\n        /* \"@chainlink/contracts/src/v0.8/vendor/BufferChainlink.sol\":3747:3749  32 */\n      0x20\n        /* \"@chainlink/contracts/src/v0.8/vendor/BufferChainlink.sol\":3747:3755  32 - len */\n      sub\n        /* \"@chainlink/contracts/src/v0.8/vendor/BufferChainlink.sol\":3741:3744  256 */\n      0x0100\n        /* \"@chainlink/contracts/src/v0.8/vendor/BufferChainlink.sol\":3741:3756  256**(32 - len) */\n      exp\n        /* \"@chainlink/contracts/src/v0.8/vendor/BufferChainlink.sol\":3740:3761  (256**(32 - len)) - 1 */\n      sub\n        /* \"@chainlink/contracts/src/v0.8/vendor/BufferChainlink.sol\":3725:3761  uint256 mask = (256**(32 - len)) - 1 */\n      swap1\n      pop\n        /* \"@chainlink/contracts/src/v0.8/vendor/BufferChainlink.sol\":3823:3827  mask */\n      dup1\n        /* \"@chainlink/contracts/src/v0.8/vendor/BufferChainlink.sol\":3819:3828  not(mask) */\n      not\n        /* \"@chainlink/contracts/src/v0.8/vendor/BufferChainlink.sol\":3813:3816  src */\n      dup3\n        /* \"@chainlink/contracts/src/v0.8/vendor/BufferChainlink.sol\":3807:3817  mload(src) */\n      mload\n        /* \"@chainlink/contracts/src/v0.8/vendor/BufferChainlink.sol\":3803:3829  and(mload(src), not(mask)) */\n      and\n        /* \"@chainlink/contracts/src/v0.8/vendor/BufferChainlink.sol\":3871:3875  mask */\n      dup2\n        /* \"@chainlink/contracts/src/v0.8/vendor/BufferChainlink.sol\":3864:3868  dest */\n      dup5\n        /* \"@chainlink/contracts/src/v0.8/vendor/BufferChainlink.sol\":3858:3869  mload(dest) */\n      mload\n        /* \"@chainlink/contracts/src/v0.8/vendor/BufferChainlink.sol\":3854:3876  and(mload(dest), mask) */\n      and\n        /* \"@chainlink/contracts/src/v0.8/vendor/BufferChainlink.sol\":3911:3918  srcpart */\n      dup2\n        /* \"@chainlink/contracts/src/v0.8/vendor/BufferChainlink.sol\":3901:3909  destpart */\n      dup2\n        /* \"@chainlink/contracts/src/v0.8/vendor/BufferChainlink.sol\":3898:3919  or(destpart, srcpart) */\n      or\n        /* \"@chainlink/contracts/src/v0.8/vendor/BufferChainlink.sol\":3892:3896  dest */\n      dup6\n        /* \"@chainlink/contracts/src/v0.8/vendor/BufferChainlink.sol\":3885:3920  mstore(dest, or(destpart, srcpart)) */\n      mstore\n        /* \"@chainlink/contracts/src/v0.8/vendor/BufferChainlink.sol\":3778:3928  {... */\n      pop\n      pop\n      pop\n        /* \"@chainlink/contracts/src/v0.8/vendor/BufferChainlink.sol\":3947:3950  buf */\n      dup7\n        /* \"@chainlink/contracts/src/v0.8/vendor/BufferChainlink.sol\":3940:3950  return buf */\n      swap3\n      pop\n      pop\n      pop\n        /* \"@chainlink/contracts/src/v0.8/vendor/BufferChainlink.sol\":2745:3955  function write(... */\n      swap5\n      swap4\n      pop\n      pop\n      pop\n      pop\n      jump\t// out\n        /* \"@chainlink/contracts/src/v0.8/vendor/BufferChainlink.sol\":5148:5787  function writeUint8(... */\n    tag_184:\n        /* \"@chainlink/contracts/src/v0.8/vendor/BufferChainlink.sol\":5251:5264  buffer memory */\n      tag_208\n      tag_137\n      jump\t// in\n    tag_208:\n        /* \"@chainlink/contracts/src/v0.8/vendor/BufferChainlink.sol\":5283:5286  buf */\n      dup4\n        /* \"@chainlink/contracts/src/v0.8/vendor/BufferChainlink.sol\":5283:5295  buf.capacity */\n      0x20\n      add\n      mload\n        /* \"@chainlink/contracts/src/v0.8/vendor/BufferChainlink.sol\":5276:5279  off */\n      dup4\n        /* \"@chainlink/contracts/src/v0.8/vendor/BufferChainlink.sol\":5276:5295  off >= buf.capacity */\n      lt\n        /* \"@chainlink/contracts/src/v0.8/vendor/BufferChainlink.sol\":5272:5341  if (off >= buf.capacity) {... */\n      tag_210\n      jumpi\n        /* \"@chainlink/contracts/src/v0.8/vendor/BufferChainlink.sol\":5305:5334  resize(buf, buf.capacity * 2) */\n      tag_211\n        /* \"@chainlink/contracts/src/v0.8/vendor/BufferChainlink.sol\":5312:5315  buf */\n      dup5\n        /* \"@chainlink/contracts/src/v0.8/vendor/BufferChainlink.sol\":5332:5333  2 */\n      0x02\n        /* \"@chainlink/contracts/src/v0.8/vendor/BufferChainlink.sol\":5317:5320  buf */\n      dup7\n        /* \"@chainlink/contracts/src/v0.8/vendor/BufferChainlink.sol\":5317:5329  buf.capacity */\n      0x20\n      add\n      mload\n        /* \"@chainlink/contracts/src/v0.8/vendor/BufferChainlink.sol\":5317:5333  buf.capacity * 2 */\n      tag_212\n      swap2\n      swap1\n      tag_199\n      jump\t// in\n    tag_212:\n        /* \"@chainlink/contracts/src/v0.8/vendor/BufferChainlink.sol\":5305:5311  resize */\n      tag_200\n        /* \"@chainlink/contracts/src/v0.8/vendor/BufferChainlink.sol\":5305:5334  resize(buf, buf.capacity * 2) */\n      jump\t// in\n    tag_211:\n        /* \"@chainlink/contracts/src/v0.8/vendor/BufferChainlink.sol\":5272:5341  if (off >= buf.capacity) {... */\n    tag_210:\n        /* \"@chainlink/contracts/src/v0.8/vendor/BufferChainlink.sol\":5427:5430  buf */\n      dup4\n        /* \"@chainlink/contracts/src/v0.8/vendor/BufferChainlink.sol\":5421:5431  mload(buf) */\n      mload\n        /* \"@chainlink/contracts/src/v0.8/vendor/BufferChainlink.sol\":5498:5504  bufptr */\n      dup1\n        /* \"@chainlink/contracts/src/v0.8/vendor/BufferChainlink.sol\":5492:5505  mload(bufptr) */\n      mload\n        /* \"@chainlink/contracts/src/v0.8/vendor/BufferChainlink.sol\":5610:5612  32 */\n      0x20\n        /* \"@chainlink/contracts/src/v0.8/vendor/BufferChainlink.sol\":5604:5607  off */\n      dup6\n        /* \"@chainlink/contracts/src/v0.8/vendor/BufferChainlink.sol\":5596:5602  bufptr */\n      dup4\n        /* \"@chainlink/contracts/src/v0.8/vendor/BufferChainlink.sol\":5592:5608  add(bufptr, off) */\n      add\n        /* \"@chainlink/contracts/src/v0.8/vendor/BufferChainlink.sol\":5588:5613  add(add(bufptr, off), 32) */\n      add\n        /* \"@chainlink/contracts/src/v0.8/vendor/BufferChainlink.sol\":5634:5638  data */\n      dup5\n        /* \"@chainlink/contracts/src/v0.8/vendor/BufferChainlink.sol\":5628:5632  dest */\n      dup2\n        /* \"@chainlink/contracts/src/v0.8/vendor/BufferChainlink.sol\":5620:5639  mstore8(dest, data) */\n      mstore8\n        /* \"@chainlink/contracts/src/v0.8/vendor/BufferChainlink.sol\":5705:5711  buflen */\n      dup2\n        /* \"@chainlink/contracts/src/v0.8/vendor/BufferChainlink.sol\":5700:5703  off */\n      dup7\n        /* \"@chainlink/contracts/src/v0.8/vendor/BufferChainlink.sol\":5697:5712  eq(off, buflen) */\n      sub\n        /* \"@chainlink/contracts/src/v0.8/vendor/BufferChainlink.sol\":5694:5761  if eq(off, buflen) {... */\n      tag_213\n      jumpi\n        /* \"@chainlink/contracts/src/v0.8/vendor/BufferChainlink.sol\":5750:5751  1 */\n      0x01\n        /* \"@chainlink/contracts/src/v0.8/vendor/BufferChainlink.sol\":5742:5748  buflen */\n      dup3\n        /* \"@chainlink/contracts/src/v0.8/vendor/BufferChainlink.sol\":5738:5752  add(buflen, 1) */\n      add\n        /* \"@chainlink/contracts/src/v0.8/vendor/BufferChainlink.sol\":5730:5736  bufptr */\n      dup4\n        /* \"@chainlink/contracts/src/v0.8/vendor/BufferChainlink.sol\":5723:5753  mstore(bufptr, add(buflen, 1)) */\n      mstore\n        /* \"@chainlink/contracts/src/v0.8/vendor/BufferChainlink.sol\":5694:5761  if eq(off, buflen) {... */\n    tag_213:\n        /* \"@chainlink/contracts/src/v0.8/vendor/BufferChainlink.sol\":5356:5767  {... */\n      pop\n      pop\n      pop\n        /* \"@chainlink/contracts/src/v0.8/vendor/BufferChainlink.sol\":5779:5782  buf */\n      dup4\n        /* \"@chainlink/contracts/src/v0.8/vendor/BufferChainlink.sol\":5772:5782  return buf */\n      swap1\n      pop\n        /* \"@chainlink/contracts/src/v0.8/vendor/BufferChainlink.sol\":5148:5787  function writeUint8(... */\n      swap4\n      swap3\n      pop\n      pop\n      pop\n      jump\t// out\n        /* \"@chainlink/contracts/src/v0.8/vendor/BufferChainlink.sol\":8974:9649  function writeInt(... */\n    tag_188:\n        /* \"@chainlink/contracts/src/v0.8/vendor/BufferChainlink.sol\":9093:9106  buffer memory */\n      tag_214\n      tag_137\n      jump\t// in\n    tag_214:\n        /* \"@chainlink/contracts/src/v0.8/vendor/BufferChainlink.sol\":9130:9133  buf */\n      dup5\n        /* \"@chainlink/contracts/src/v0.8/vendor/BufferChainlink.sol\":9130:9142  buf.capacity */\n      0x20\n      add\n      mload\n        /* \"@chainlink/contracts/src/v0.8/vendor/BufferChainlink.sol\":9124:9127  off */\n      dup5\n        /* \"@chainlink/contracts/src/v0.8/vendor/BufferChainlink.sol\":9118:9121  len */\n      dup4\n        /* \"@chainlink/contracts/src/v0.8/vendor/BufferChainlink.sol\":9118:9127  len + off */\n      tag_216\n      swap2\n      swap1\n      tag_131\n      jump\t// in\n    tag_216:\n        /* \"@chainlink/contracts/src/v0.8/vendor/BufferChainlink.sol\":9118:9142  len + off > buf.capacity */\n      gt\n        /* \"@chainlink/contracts/src/v0.8/vendor/BufferChainlink.sol\":9114:9187  if (len + off > buf.capacity) {... */\n      iszero\n      tag_217\n      jumpi\n        /* \"@chainlink/contracts/src/v0.8/vendor/BufferChainlink.sol\":9152:9180  resize(buf, (len + off) * 2) */\n      tag_218\n        /* \"@chainlink/contracts/src/v0.8/vendor/BufferChainlink.sol\":9159:9162  buf */\n      dup6\n        /* \"@chainlink/contracts/src/v0.8/vendor/BufferChainlink.sol\":9178:9179  2 */\n      0x02\n        /* \"@chainlink/contracts/src/v0.8/vendor/BufferChainlink.sol\":9171:9174  off */\n      dup7\n        /* \"@chainlink/contracts/src/v0.8/vendor/BufferChainlink.sol\":9165:9168  len */\n      dup6\n        /* \"@chainlink/contracts/src/v0.8/vendor/BufferChainlink.sol\":9165:9174  len + off */\n      tag_219\n      swap2\n      swap1\n      tag_131\n      jump\t// in\n    tag_219:\n        /* \"@chainlink/contracts/src/v0.8/vendor/BufferChainlink.sol\":9164:9179  (len + off) * 2 */\n      tag_220\n      swap2\n      swap1\n      tag_199\n      jump\t// in\n    tag_220:\n        /* \"@chainlink/contracts/src/v0.8/vendor/BufferChainlink.sol\":9152:9158  resize */\n      tag_200\n        /* \"@chainlink/contracts/src/v0.8/vendor/BufferChainlink.sol\":9152:9180  resize(buf, (len + off) * 2) */\n      jump\t// in\n    tag_218:\n        /* \"@chainlink/contracts/src/v0.8/vendor/BufferChainlink.sol\":9114:9187  if (len + off > buf.capacity) {... */\n    tag_217:\n        /* \"@chainlink/contracts/src/v0.8/vendor/BufferChainlink.sol\":9193:9205  uint256 mask */\n      0x00\n        /* \"@chainlink/contracts/src/v0.8/vendor/BufferChainlink.sol\":9221:9222  1 */\n      0x01\n        /* \"@chainlink/contracts/src/v0.8/vendor/BufferChainlink.sol\":9214:9217  len */\n      dup4\n        /* \"@chainlink/contracts/src/v0.8/vendor/BufferChainlink.sol\":9209:9212  256 */\n      0x0100\n        /* \"@chainlink/contracts/src/v0.8/vendor/BufferChainlink.sol\":9209:9217  256**len */\n      tag_221\n      swap2\n      swap1\n      tag_222\n      jump\t// in\n    tag_221:\n        /* \"@chainlink/contracts/src/v0.8/vendor/BufferChainlink.sol\":9208:9222  (256**len) - 1 */\n      tag_223\n      swap2\n      swap1\n      tag_144\n      jump\t// in\n    tag_223:\n        /* \"@chainlink/contracts/src/v0.8/vendor/BufferChainlink.sol\":9193:9222  uint256 mask = (256**len) - 1 */\n      swap1\n      pop\n        /* \"@chainlink/contracts/src/v0.8/vendor/BufferChainlink.sol\":9308:9311  buf */\n      dup6\n        /* \"@chainlink/contracts/src/v0.8/vendor/BufferChainlink.sol\":9302:9312  mload(buf) */\n      mload\n        /* \"@chainlink/contracts/src/v0.8/vendor/BufferChainlink.sol\":9423:9426  len */\n      dup4\n        /* \"@chainlink/contracts/src/v0.8/vendor/BufferChainlink.sol\":9417:9420  off */\n      dup7\n        /* \"@chainlink/contracts/src/v0.8/vendor/BufferChainlink.sol\":9409:9415  bufptr */\n      dup3\n        /* \"@chainlink/contracts/src/v0.8/vendor/BufferChainlink.sol\":9405:9421  add(bufptr, off) */\n      add\n        /* \"@chainlink/contracts/src/v0.8/vendor/BufferChainlink.sol\":9401:9427  add(add(bufptr, off), len) */\n      add\n        /* \"@chainlink/contracts/src/v0.8/vendor/BufferChainlink.sol\":9479:9483  data */\n      dup6\n        /* \"@chainlink/contracts/src/v0.8/vendor/BufferChainlink.sol\":9471:9475  mask */\n      dup4\n        /* \"@chainlink/contracts/src/v0.8/vendor/BufferChainlink.sol\":9467:9476  not(mask) */\n      not\n        /* \"@chainlink/contracts/src/v0.8/vendor/BufferChainlink.sol\":9460:9464  dest */\n      dup3\n        /* \"@chainlink/contracts/src/v0.8/vendor/BufferChainlink.sol\":9454:9465  mload(dest) */\n      mload\n        /* \"@chainlink/contracts/src/v0.8/vendor/BufferChainlink.sol\":9450:9477  and(mload(dest), not(mask)) */\n      and\n        /* \"@chainlink/contracts/src/v0.8/vendor/BufferChainlink.sol\":9447:9484  or(and(mload(dest), not(mask)), data) */\n      or\n        /* \"@chainlink/contracts/src/v0.8/vendor/BufferChainlink.sol\":9441:9445  dest */\n      dup2\n        /* \"@chainlink/contracts/src/v0.8/vendor/BufferChainlink.sol\":9434:9485  mstore(dest, or(and(mload(dest), not(mask)), data)) */\n      mstore\n        /* \"@chainlink/contracts/src/v0.8/vendor/BufferChainlink.sol\":9567:9573  bufptr */\n      dup2\n        /* \"@chainlink/contracts/src/v0.8/vendor/BufferChainlink.sol\":9561:9574  mload(bufptr) */\n      mload\n        /* \"@chainlink/contracts/src/v0.8/vendor/BufferChainlink.sol\":9555:9558  len */\n      dup6\n        /* \"@chainlink/contracts/src/v0.8/vendor/BufferChainlink.sol\":9550:9553  off */\n      dup9\n        /* \"@chainlink/contracts/src/v0.8/vendor/BufferChainlink.sol\":9546:9559  add(off, len) */\n      add\n        /* \"@chainlink/contracts/src/v0.8/vendor/BufferChainlink.sol\":9543:9575  gt(add(off, len), mload(bufptr)) */\n      gt\n        /* \"@chainlink/contracts/src/v0.8/vendor/BufferChainlink.sol\":9540:9623  if gt(add(off, len), mload(bufptr)) {... */\n      iszero\n      tag_224\n      jumpi\n        /* \"@chainlink/contracts/src/v0.8/vendor/BufferChainlink.sol\":9610:9613  len */\n      dup5\n        /* \"@chainlink/contracts/src/v0.8/vendor/BufferChainlink.sol\":9605:9608  off */\n      dup8\n        /* \"@chainlink/contracts/src/v0.8/vendor/BufferChainlink.sol\":9601:9614  add(off, len) */\n      add\n        /* \"@chainlink/contracts/src/v0.8/vendor/BufferChainlink.sol\":9593:9599  bufptr */\n      dup3\n        /* \"@chainlink/contracts/src/v0.8/vendor/BufferChainlink.sol\":9586:9615  mstore(bufptr, add(off, len)) */\n      mstore\n        /* \"@chainlink/contracts/src/v0.8/vendor/BufferChainlink.sol\":9540:9623  if gt(add(off, len), mload(bufptr)) {... */\n    tag_224:\n        /* \"@chainlink/contracts/src/v0.8/vendor/BufferChainlink.sol\":9237:9629  {... */\n      pop\n      pop\n        /* \"@chainlink/contracts/src/v0.8/vendor/BufferChainlink.sol\":9641:9644  buf */\n      dup6\n        /* \"@chainlink/contracts/src/v0.8/vendor/BufferChainlink.sol\":9634:9644  return buf */\n      swap2\n      pop\n      pop\n        /* \"@chainlink/contracts/src/v0.8/vendor/BufferChainlink.sol\":8974:9649  function writeInt(... */\n      swap5\n      swap4\n      pop\n      pop\n      pop\n      pop\n      jump\t// out\n        /* \"@chainlink/contracts/src/v0.8/vendor/BufferChainlink.sol\":1961:2085  function max(uint256 a, uint256 b) private pure returns (uint256) {... */\n    tag_197:\n        /* \"@chainlink/contracts/src/v0.8/vendor/BufferChainlink.sol\":2018:2025  uint256 */\n      0x00\n        /* \"@chainlink/contracts/src/v0.8/vendor/BufferChainlink.sol\":2041:2042  b */\n      dup2\n        /* \"@chainlink/contracts/src/v0.8/vendor/BufferChainlink.sol\":2037:2038  a */\n      dup4\n        /* \"@chainlink/contracts/src/v0.8/vendor/BufferChainlink.sol\":2037:2042  a > b */\n      gt\n        /* \"@chainlink/contracts/src/v0.8/vendor/BufferChainlink.sol\":2033:2067  if (a > b) {... */\n      iszero\n      tag_226\n      jumpi\n        /* \"@chainlink/contracts/src/v0.8/vendor/BufferChainlink.sol\":2059:2060  a */\n      dup3\n        /* \"@chainlink/contracts/src/v0.8/vendor/BufferChainlink.sol\":2052:2060  return a */\n      swap1\n      pop\n      jump(tag_225)\n        /* \"@chainlink/contracts/src/v0.8/vendor/BufferChainlink.sol\":2033:2067  if (a > b) {... */\n    tag_226:\n        /* \"@chainlink/contracts/src/v0.8/vendor/BufferChainlink.sol\":2079:2080  b */\n      dup2\n        /* \"@chainlink/contracts/src/v0.8/vendor/BufferChainlink.sol\":2072:2080  return b */\n      swap1\n      pop\n        /* \"@chainlink/contracts/src/v0.8/vendor/BufferChainlink.sol\":1961:2085  function max(uint256 a, uint256 b) private pure returns (uint256) {... */\n    tag_225:\n      swap3\n      swap2\n      pop\n      pop\n      jump\t// out\n        /* \"@chainlink/contracts/src/v0.8/vendor/BufferChainlink.sol\":1801:1957  function resize(buffer memory buf, uint256 capacity) private pure {... */\n    tag_200:\n        /* \"@chainlink/contracts/src/v0.8/vendor/BufferChainlink.sol\":1873:1892  bytes memory oldbuf */\n      0x00\n        /* \"@chainlink/contracts/src/v0.8/vendor/BufferChainlink.sol\":1895:1898  buf */\n      dup3\n        /* \"@chainlink/contracts/src/v0.8/vendor/BufferChainlink.sol\":1895:1902  buf.buf */\n      0x00\n      add\n      mload\n        /* \"@chainlink/contracts/src/v0.8/vendor/BufferChainlink.sol\":1873:1902  bytes memory oldbuf = buf.buf */\n      swap1\n      pop\n        /* \"@chainlink/contracts/src/v0.8/vendor/BufferChainlink.sol\":1908:1927  init(buf, capacity) */\n      tag_228\n        /* \"@chainlink/contracts/src/v0.8/vendor/BufferChainlink.sol\":1913:1916  buf */\n      dup4\n        /* \"@chainlink/contracts/src/v0.8/vendor/BufferChainlink.sol\":1918:1926  capacity */\n      dup4\n        /* \"@chainlink/contracts/src/v0.8/vendor/BufferChainlink.sol\":1908:1912  init */\n      tag_123\n        /* \"@chainlink/contracts/src/v0.8/vendor/BufferChainlink.sol\":1908:1927  init(buf, capacity) */\n      jump\t// in\n    tag_228:\n      pop\n        /* \"@chainlink/contracts/src/v0.8/vendor/BufferChainlink.sol\":1933:1952  append(buf, oldbuf) */\n      tag_229\n        /* \"@chainlink/contracts/src/v0.8/vendor/BufferChainlink.sol\":1940:1943  buf */\n      dup4\n        /* \"@chainlink/contracts/src/v0.8/vendor/BufferChainlink.sol\":1945:1951  oldbuf */\n      dup3\n        /* \"@chainlink/contracts/src/v0.8/vendor/BufferChainlink.sol\":1933:1939  append */\n      tag_128\n        /* \"@chainlink/contracts/src/v0.8/vendor/BufferChainlink.sol\":1933:1952  append(buf, oldbuf) */\n      jump\t// in\n    tag_229:\n      pop\n        /* \"@chainlink/contracts/src/v0.8/vendor/BufferChainlink.sol\":1867:1957  {... */\n      pop\n        /* \"@chainlink/contracts/src/v0.8/vendor/BufferChainlink.sol\":1801:1957  function resize(buffer memory buf, uint256 capacity) private pure {... */\n      pop\n      pop\n      jump\t// out\n    tag_99:\n      mload(0x40)\n      dup1\n      0xa0\n      add\n      0x40\n      mstore\n      dup1\n      0x00\n      dup1\n      not\n      and\n      dup2\n      mstore\n      0x20\n      add\n      and(0xffffffffffffffffffffffffffffffffffffffff, 0x00)\n      dup2\n      mstore\n      0x20\n      add\n      and(not(0xffffffffffffffffffffffffffffffffffffffffffffffffffffffff), 0x00)\n      dup2\n      mstore\n      0x20\n      add\n      0x00\n      dup2\n      mstore\n      0x20\n      add\n      tag_230\n      tag_137\n      jump\t// in\n    tag_230:\n      dup2\n      mstore\n      pop\n      swap1\n      jump\t// out\n    tag_137:\n      mload(0x40)\n      dup1\n      0x40\n      add\n      0x40\n      mstore\n      dup1\n      0x60\n      dup2\n      mstore\n      0x20\n      add\n      0x00\n      dup2\n      mstore\n      pop\n      swap1\n      jump\t// out\n        /* \"#utility.yul\":7:105   */\n    tag_231:\n        /* \"#utility.yul\":58:64   */\n      0x00\n        /* \"#utility.yul\":92:97   */\n      dup2\n        /* \"#utility.yul\":86:98   */\n      mload\n        /* \"#utility.yul\":76:98   */\n      swap1\n      pop\n        /* \"#utility.yul\":7:105   */\n      swap2\n      swap1\n      pop\n      jump\t// out\n        /* \"#utility.yul\":111:279   */\n    tag_232:\n        /* \"#utility.yul\":194:205   */\n      0x00\n        /* \"#utility.yul\":228:234   */\n      dup3\n        /* \"#utility.yul\":223:226   */\n      dup3\n        /* \"#utility.yul\":216:235   */\n      mstore\n        /* \"#utility.yul\":268:272   */\n      0x20\n        /* \"#utility.yul\":263:266   */\n      dup3\n        /* \"#utility.yul\":259:273   */\n      add\n        /* \"#utility.yul\":244:273   */\n      swap1\n      pop\n        /* \"#utility.yul\":111:279   */\n      swap3\n      swap2\n      pop\n      pop\n      jump\t// out\n        /* \"#utility.yul\":285:531   */\n    tag_233:\n        /* \"#utility.yul\":366:367   */\n      0x00\n        /* \"#utility.yul\":376:489   */\n    tag_321:\n        /* \"#utility.yul\":390:396   */\n      dup4\n        /* \"#utility.yul\":387:388   */\n      dup2\n        /* \"#utility.yul\":384:397   */\n      lt\n        /* \"#utility.yul\":376:489   */\n      iszero\n      tag_323\n      jumpi\n        /* \"#utility.yul\":475:476   */\n      dup1\n        /* \"#utility.yul\":470:473   */\n      dup3\n        /* \"#utility.yul\":466:477   */\n      add\n        /* \"#utility.yul\":460:478   */\n      mload\n        /* \"#utility.yul\":456:457   */\n      dup2\n        /* \"#utility.yul\":451:454   */\n      dup5\n        /* \"#utility.yul\":447:458   */\n      add\n        /* \"#utility.yul\":440:479   */\n      mstore\n        /* \"#utility.yul\":412:414   */\n      0x20\n        /* \"#utility.yul\":409:410   */\n      dup2\n        /* \"#utility.yul\":405:415   */\n      add\n        /* \"#utility.yul\":400:415   */\n      swap1\n      pop\n        /* \"#utility.yul\":376:489   */\n      jump(tag_321)\n    tag_323:\n        /* \"#utility.yul\":523:524   */\n      0x00\n        /* \"#utility.yul\":514:520   */\n      dup5\n        /* \"#utility.yul\":509:512   */\n      dup5\n        /* \"#utility.yul\":505:521   */\n      add\n        /* \"#utility.yul\":498:525   */\n      mstore\n        /* \"#utility.yul\":347:531   */\n      pop\n        /* \"#utility.yul\":285:531   */\n      pop\n      pop\n      pop\n      jump\t// out\n        /* \"#utility.yul\":537:639   */\n    tag_234:\n        /* \"#utility.yul\":578:584   */\n      0x00\n        /* \"#utility.yul\":629:631   */\n      0x1f\n        /* \"#utility.yul\":625:632   */\n      not\n        /* \"#utility.yul\":620:622   */\n      0x1f\n        /* \"#utility.yul\":613:618   */\n      dup4\n        /* \"#utility.yul\":609:623   */\n      add\n        /* \"#utility.yul\":605:633   */\n      and\n        /* \"#utility.yul\":595:633   */\n      swap1\n      pop\n        /* \"#utility.yul\":537:639   */\n      swap2\n      swap1\n      pop\n      jump\t// out\n        /* \"#utility.yul\":645:1018   */\n    tag_235:\n        /* \"#utility.yul\":731:734   */\n      0x00\n        /* \"#utility.yul\":759:797   */\n      tag_326\n        /* \"#utility.yul\":791:796   */\n      dup3\n        /* \"#utility.yul\":759:797   */\n      tag_231\n      jump\t// in\n    tag_326:\n        /* \"#utility.yul\":813:883   */\n      tag_327\n        /* \"#utility.yul\":876:882   */\n      dup2\n        /* \"#utility.yul\":871:874   */\n      dup6\n        /* \"#utility.yul\":813:883   */\n      tag_232\n      jump\t// in\n    tag_327:\n        /* \"#utility.yul\":806:883   */\n      swap4\n      pop\n        /* \"#utility.yul\":892:957   */\n      tag_328\n        /* \"#utility.yul\":950:956   */\n      dup2\n        /* \"#utility.yul\":945:948   */\n      dup6\n        /* \"#utility.yul\":938:942   */\n      0x20\n        /* \"#utility.yul\":931:936   */\n      dup7\n        /* \"#utility.yul\":927:943   */\n      add\n        /* \"#utility.yul\":892:957   */\n      tag_233\n      jump\t// in\n    tag_328:\n        /* \"#utility.yul\":982:1011   */\n      tag_329\n        /* \"#utility.yul\":1004:1010   */\n      dup2\n        /* \"#utility.yul\":982:1011   */\n      tag_234\n      jump\t// in\n    tag_329:\n        /* \"#utility.yul\":977:980   */\n      dup5\n        /* \"#utility.yul\":973:1012   */\n      add\n        /* \"#utility.yul\":966:1012   */\n      swap2\n      pop\n        /* \"#utility.yul\":735:1018   */\n      pop\n        /* \"#utility.yul\":645:1018   */\n      swap3\n      swap2\n      pop\n      pop\n      jump\t// out\n        /* \"#utility.yul\":1024:1333   */\n    tag_17:\n        /* \"#utility.yul\":1135:1139   */\n      0x00\n        /* \"#utility.yul\":1173:1175   */\n      0x20\n        /* \"#utility.yul\":1162:1171   */\n      dup3\n        /* \"#utility.yul\":1158:1176   */\n      add\n        /* \"#utility.yul\":1150:1176   */\n      swap1\n      pop\n        /* \"#utility.yul\":1222:1231   */\n      dup2\n        /* \"#utility.yul\":1216:1220   */\n      dup2\n        /* \"#utility.yul\":1212:1232   */\n      sub\n        /* \"#utility.yul\":1208:1209   */\n      0x00\n        /* \"#utility.yul\":1197:1206   */\n      dup4\n        /* \"#utility.yul\":1193:1210   */\n      add\n        /* \"#utility.yul\":1186:1233   */\n      mstore\n        /* \"#utility.yul\":1250:1326   */\n      tag_331\n        /* \"#utility.yul\":1321:1325   */\n      dup2\n        /* \"#utility.yul\":1312:1318   */\n      dup5\n        /* \"#utility.yul\":1250:1326   */\n      tag_235\n      jump\t// in\n    tag_331:\n        /* \"#utility.yul\":1242:1326   */\n      swap1\n      pop\n        /* \"#utility.yul\":1024:1333   */\n      swap3\n      swap2\n      pop\n      pop\n      jump\t// out\n        /* \"#utility.yul\":1339:1438   */\n    tag_236:\n        /* \"#utility.yul\":1391:1397   */\n      0x00\n        /* \"#utility.yul\":1425:1430   */\n      dup2\n        /* \"#utility.yul\":1419:1431   */\n      mload\n        /* \"#utility.yul\":1409:1431   */\n      swap1\n      pop\n        /* \"#utility.yul\":1339:1438   */\n      swap2\n      swap1\n      pop\n      jump\t// out\n        /* \"#utility.yul\":1444:1613   */\n    tag_237:\n        /* \"#utility.yul\":1528:1539   */\n      0x00\n        /* \"#utility.yul\":1562:1568   */\n      dup3\n        /* \"#utility.yul\":1557:1560   */\n      dup3\n        /* \"#utility.yul\":1550:1569   */\n      mstore\n        /* \"#utility.yul\":1602:1606   */\n      0x20\n        /* \"#utility.yul\":1597:1600   */\n      dup3\n        /* \"#utility.yul\":1593:1607   */\n      add\n        /* \"#utility.yul\":1578:1607   */\n      swap1\n      pop\n        /* \"#utility.yul\":1444:1613   */\n      swap3\n      swap2\n      pop\n      pop\n      jump\t// out\n        /* \"#utility.yul\":1619:1996   */\n    tag_238:\n        /* \"#utility.yul\":1707:1710   */\n      0x00\n        /* \"#utility.yul\":1735:1774   */\n      tag_335\n        /* \"#utility.yul\":1768:1773   */\n      dup3\n        /* \"#utility.yul\":1735:1774   */\n      tag_236\n      jump\t// in\n    tag_335:\n        /* \"#utility.yul\":1790:1861   */\n      tag_336\n        /* \"#utility.yul\":1854:1860   */\n      dup2\n        /* \"#utility.yul\":1849:1852   */\n      dup6\n        /* \"#utility.yul\":1790:1861   */\n      tag_237\n      jump\t// in\n    tag_336:\n        /* \"#utility.yul\":1783:1861   */\n      swap4\n      pop\n        /* \"#utility.yul\":1870:1935   */\n      tag_337\n        /* \"#utility.yul\":1928:1934   */\n      dup2\n        /* \"#utility.yul\":1923:1926   */\n      dup6\n        /* \"#utility.yul\":1916:1920   */\n      0x20\n        /* \"#utility.yul\":1909:1914   */\n      dup7\n        /* \"#utility.yul\":1905:1921   */\n      add\n        /* \"#utility.yul\":1870:1935   */\n      tag_233\n      jump\t// in\n    tag_337:\n        /* \"#utility.yul\":1960:1989   */\n      tag_338\n        /* \"#utility.yul\":1982:1988   */\n      dup2\n        /* \"#utility.yul\":1960:1989   */\n      tag_234\n      jump\t// in\n    tag_338:\n        /* \"#utility.yul\":1955:1958   */\n      dup5\n        /* \"#utility.yul\":1951:1990   */\n      add\n        /* \"#utility.yul\":1944:1990   */\n      swap2\n      pop\n        /* \"#utility.yul\":1711:1996   */\n      pop\n        /* \"#utility.yul\":1619:1996   */\n      swap3\n      swap2\n      pop\n      pop\n      jump\t// out\n        /* \"#utility.yul\":2002:2315   */\n    tag_23:\n        /* \"#utility.yul\":2115:2119   */\n      0x00\n        /* \"#utility.yul\":2153:2155   */\n      0x20\n        /* \"#utility.yul\":2142:2151   */\n      dup3\n        /* \"#utility.yul\":2138:2156   */\n      add\n        /* \"#utility.yul\":2130:2156   */\n      swap1\n      pop\n        /* \"#utility.yul\":2202:2211   */\n      dup2\n        /* \"#utility.yul\":2196:2200   */\n      dup2\n        /* \"#utility.yul\":2192:2212   */\n      sub\n        /* \"#utility.yul\":2188:2189   */\n      0x00\n        /* \"#utility.yul\":2177:2186   */\n      dup4\n        /* \"#utility.yul\":2173:2190   */\n      add\n        /* \"#utility.yul\":2166:2213   */\n      mstore\n        /* \"#utility.yul\":2230:2308   */\n      tag_340\n        /* \"#utility.yul\":2303:2307   */\n      dup2\n        /* \"#utility.yul\":2294:2300   */\n      dup5\n        /* \"#utility.yul\":2230:2308   */\n      tag_238\n      jump\t// in\n    tag_340:\n        /* \"#utility.yul\":2222:2308   */\n      swap1\n      pop\n        /* \"#utility.yul\":2002:2315   */\n      swap3\n      swap2\n      pop\n      pop\n      jump\t// out\n        /* \"#utility.yul\":2321:2447   */\n    tag_239:\n        /* \"#utility.yul\":2358:2365   */\n      0x00\n        /* \"#utility.yul\":2398:2440   */\n      0xffffffffffffffffffffffffffffffffffffffff\n        /* \"#utility.yul\":2391:2396   */\n      dup3\n        /* \"#utility.yul\":2387:2441   */\n      and\n        /* \"#utility.yul\":2376:2441   */\n      swap1\n      pop\n        /* \"#utility.yul\":2321:2447   */\n      swap2\n      swap1\n      pop\n      jump\t// out\n        /* \"#utility.yul\":2453:2549   */\n    tag_240:\n        /* \"#utility.yul\":2490:2497   */\n      0x00\n        /* \"#utility.yul\":2519:2543   */\n      tag_343\n        /* \"#utility.yul\":2537:2542   */\n      dup3\n        /* \"#utility.yul\":2519:2543   */\n      tag_239\n      jump\t// in\n    tag_343:\n        /* \"#utility.yul\":2508:2543   */\n      swap1\n      pop\n        /* \"#utility.yul\":2453:2549   */\n      swap2\n      swap1\n      pop\n      jump\t// out\n        /* \"#utility.yul\":2555:2673   */\n    tag_241:\n        /* \"#utility.yul\":2642:2666   */\n      tag_345\n        /* \"#utility.yul\":2660:2665   */\n      dup2\n        /* \"#utility.yul\":2642:2666   */\n      tag_240\n      jump\t// in\n    tag_345:\n        /* \"#utility.yul\":2637:2640   */\n      dup3\n        /* \"#utility.yul\":2630:2667   */\n      mstore\n        /* \"#utility.yul\":2555:2673   */\n      pop\n      pop\n      jump\t// out\n        /* \"#utility.yul\":2679:2901   */\n    tag_27:\n        /* \"#utility.yul\":2772:2776   */\n      0x00\n        /* \"#utility.yul\":2810:2812   */\n      0x20\n        /* \"#utility.yul\":2799:2808   */\n      dup3\n        /* \"#utility.yul\":2795:2813   */\n      add\n        /* \"#utility.yul\":2787:2813   */\n      swap1\n      pop\n        /* \"#utility.yul\":2823:2894   */\n      tag_347\n        /* \"#utility.yul\":2891:2892   */\n      0x00\n        /* \"#utility.yul\":2880:2889   */\n      dup4\n        /* \"#utility.yul\":2876:2893   */\n      add\n        /* \"#utility.yul\":2867:2873   */\n      dup5\n        /* \"#utility.yul\":2823:2894   */\n      tag_241\n      jump\t// in\n    tag_347:\n        /* \"#utility.yul\":2679:2901   */\n      swap3\n      swap2\n      pop\n      pop\n      jump\t// out\n        /* \"#utility.yul\":2907:2982   */\n    tag_242:\n        /* \"#utility.yul\":2940:2946   */\n      0x00\n        /* \"#utility.yul\":2973:2975   */\n      0x40\n        /* \"#utility.yul\":2967:2976   */\n      mload\n        /* \"#utility.yul\":2957:2976   */\n      swap1\n      pop\n        /* \"#utility.yul\":2907:2982   */\n      swap1\n      jump\t// out\n        /* \"#utility.yul\":2988:3105   */\n    tag_243:\n        /* \"#utility.yul\":3097:3098   */\n      0x00\n        /* \"#utility.yul\":3094:3095   */\n      dup1\n        /* \"#utility.yul\":3087:3099   */\n      revert\n        /* \"#utility.yul\":3111:3228   */\n    tag_244:\n        /* \"#utility.yul\":3220:3221   */\n      0x00\n        /* \"#utility.yul\":3217:3218   */\n      dup1\n        /* \"#utility.yul\":3210:3222   */\n      revert\n        /* \"#utility.yul\":3234:3311   */\n    tag_245:\n        /* \"#utility.yul\":3271:3278   */\n      0x00\n        /* \"#utility.yul\":3300:3305   */\n      dup2\n        /* \"#utility.yul\":3289:3305   */\n      swap1\n      pop\n        /* \"#utility.yul\":3234:3311   */\n      swap2\n      swap1\n      pop\n      jump\t// out\n        /* \"#utility.yul\":3317:3439   */\n    tag_246:\n        /* \"#utility.yul\":3390:3414   */\n      tag_353\n        /* \"#utility.yul\":3408:3413   */\n      dup2\n        /* \"#utility.yul\":3390:3414   */\n      tag_245\n      jump\t// in\n    tag_353:\n        /* \"#utility.yul\":3383:3388   */\n      dup2\n        /* \"#utility.yul\":3380:3415   */\n      eq\n        /* \"#utility.yul\":3370:3433   */\n      tag_354\n      jumpi\n        /* \"#utility.yul\":3429:3430   */\n      0x00\n        /* \"#utility.yul\":3426:3427   */\n      dup1\n        /* \"#utility.yul\":3419:3431   */\n      revert\n        /* \"#utility.yul\":3370:3433   */\n    tag_354:\n        /* \"#utility.yul\":3317:3439   */\n      pop\n      jump\t// out\n        /* \"#utility.yul\":3445:3584   */\n    tag_247:\n        /* \"#utility.yul\":3491:3496   */\n      0x00\n        /* \"#utility.yul\":3529:3535   */\n      dup2\n        /* \"#utility.yul\":3516:3536   */\n      calldataload\n        /* \"#utility.yul\":3507:3536   */\n      swap1\n      pop\n        /* \"#utility.yul\":3545:3578   */\n      tag_356\n        /* \"#utility.yul\":3572:3577   */\n      dup2\n        /* \"#utility.yul\":3545:3578   */\n      tag_246\n      jump\t// in\n    tag_356:\n        /* \"#utility.yul\":3445:3584   */\n      swap3\n      swap2\n      pop\n      pop\n      jump\t// out\n        /* \"#utility.yul\":3590:3707   */\n    tag_248:\n        /* \"#utility.yul\":3699:3700   */\n      0x00\n        /* \"#utility.yul\":3696:3697   */\n      dup1\n        /* \"#utility.yul\":3689:3701   */\n      revert\n        /* \"#utility.yul\":3713:3830   */\n    tag_249:\n        /* \"#utility.yul\":3822:3823   */\n      0x00\n        /* \"#utility.yul\":3819:3820   */\n      dup1\n        /* \"#utility.yul\":3812:3824   */\n      revert\n        /* \"#utility.yul\":3836:4016   */\n    tag_250:\n        /* \"#utility.yul\":3884:3961   */\n      0x4e487b7100000000000000000000000000000000000000000000000000000000\n        /* \"#utility.yul\":3881:3882   */\n      0x00\n        /* \"#utility.yul\":3874:3962   */\n      mstore\n        /* \"#utility.yul\":3981:3985   */\n      0x41\n        /* \"#utility.yul\":3978:3979   */\n      0x04\n        /* \"#utility.yul\":3971:3986   */\n      mstore\n        /* \"#utility.yul\":4005:4009   */\n      0x24\n        /* \"#utility.yul\":4002:4003   */\n      0x00\n        /* \"#utility.yul\":3995:4010   */\n      revert\n        /* \"#utility.yul\":4022:4303   */\n    tag_251:\n        /* \"#utility.yul\":4105:4132   */\n      tag_361\n        /* \"#utility.yul\":4127:4131   */\n      dup3\n        /* \"#utility.yul\":4105:4132   */\n      tag_234\n      jump\t// in\n    tag_361:\n        /* \"#utility.yul\":4097:4103   */\n      dup2\n        /* \"#utility.yul\":4093:4133   */\n      add\n        /* \"#utility.yul\":4235:4241   */\n      dup2\n        /* \"#utility.yul\":4223:4233   */\n      dup2\n        /* \"#utility.yul\":4220:4242   */\n      lt\n        /* \"#utility.yul\":4199:4217   */\n      0xffffffffffffffff\n        /* \"#utility.yul\":4187:4197   */\n      dup3\n        /* \"#utility.yul\":4184:4218   */\n      gt\n        /* \"#utility.yul\":4181:4243   */\n      or\n        /* \"#utility.yul\":4178:4266   */\n      iszero\n      tag_362\n      jumpi\n        /* \"#utility.yul\":4246:4264   */\n      tag_363\n      tag_250\n      jump\t// in\n    tag_363:\n        /* \"#utility.yul\":4178:4266   */\n    tag_362:\n        /* \"#utility.yul\":4286:4296   */\n      dup1\n        /* \"#utility.yul\":4282:4284   */\n      0x40\n        /* \"#utility.yul\":4275:4297   */\n      mstore\n        /* \"#utility.yul\":4065:4303   */\n      pop\n        /* \"#utility.yul\":4022:4303   */\n      pop\n      pop\n      jump\t// out\n        /* \"#utility.yul\":4309:4438   */\n    tag_252:\n        /* \"#utility.yul\":4343:4349   */\n      0x00\n        /* \"#utility.yul\":4370:4390   */\n      tag_365\n      tag_242\n      jump\t// in\n    tag_365:\n        /* \"#utility.yul\":4360:4390   */\n      swap1\n      pop\n        /* \"#utility.yul\":4399:4432   */\n      tag_366\n        /* \"#utility.yul\":4427:4431   */\n      dup3\n        /* \"#utility.yul\":4419:4425   */\n      dup3\n        /* \"#utility.yul\":4399:4432   */\n      tag_251\n      jump\t// in\n    tag_366:\n        /* \"#utility.yul\":4309:4438   */\n      swap2\n      swap1\n      pop\n      jump\t// out\n        /* \"#utility.yul\":4444:4751   */\n    tag_253:\n        /* \"#utility.yul\":4505:4509   */\n      0x00\n        /* \"#utility.yul\":4595:4613   */\n      0xffffffffffffffff\n        /* \"#utility.yul\":4587:4593   */\n      dup3\n        /* \"#utility.yul\":4584:4614   */\n      gt\n        /* \"#utility.yul\":4581:4637   */\n      iszero\n      tag_368\n      jumpi\n        /* \"#utility.yul\":4617:4635   */\n      tag_369\n      tag_250\n      jump\t// in\n    tag_369:\n        /* \"#utility.yul\":4581:4637   */\n    tag_368:\n        /* \"#utility.yul\":4655:4684   */\n      tag_370\n        /* \"#utility.yul\":4677:4683   */\n      dup3\n        /* \"#utility.yul\":4655:4684   */\n      tag_234\n      jump\t// in\n    tag_370:\n        /* \"#utility.yul\":4647:4684   */\n      swap1\n      pop\n        /* \"#utility.yul\":4739:4743   */\n      0x20\n        /* \"#utility.yul\":4733:4737   */\n      dup2\n        /* \"#utility.yul\":4729:4744   */\n      add\n        /* \"#utility.yul\":4721:4744   */\n      swap1\n      pop\n        /* \"#utility.yul\":4444:4751   */\n      swap2\n      swap1\n      pop\n      jump\t// out\n        /* \"#utility.yul\":4757:4903   */\n    tag_254:\n        /* \"#utility.yul\":4854:4860   */\n      dup3\n        /* \"#utility.yul\":4849:4852   */\n      dup2\n        /* \"#utility.yul\":4844:4847   */\n      dup4\n        /* \"#utility.yul\":4831:4861   */\n      calldatacopy\n        /* \"#utility.yul\":4895:4896   */\n      0x00\n        /* \"#utility.yul\":4886:4892   */\n      dup4\n        /* \"#utility.yul\":4881:4884   */\n      dup4\n        /* \"#utility.yul\":4877:4893   */\n      add\n        /* \"#utility.yul\":4870:4897   */\n      mstore\n        /* \"#utility.yul\":4757:4903   */\n      pop\n      pop\n      pop\n      jump\t// out\n        /* \"#utility.yul\":4909:5332   */\n    tag_255:\n        /* \"#utility.yul\":4986:4991   */\n      0x00\n        /* \"#utility.yul\":5011:5076   */\n      tag_373\n        /* \"#utility.yul\":5027:5075   */\n      tag_374\n        /* \"#utility.yul\":5068:5074   */\n      dup5\n        /* \"#utility.yul\":5027:5075   */\n      tag_253\n      jump\t// in\n    tag_374:\n        /* \"#utility.yul\":5011:5076   */\n      tag_252\n      jump\t// in\n    tag_373:\n        /* \"#utility.yul\":5002:5076   */\n      swap1\n      pop\n        /* \"#utility.yul\":5099:5105   */\n      dup3\n        /* \"#utility.yul\":5092:5097   */\n      dup2\n        /* \"#utility.yul\":5085:5106   */\n      mstore\n        /* \"#utility.yul\":5137:5141   */\n      0x20\n        /* \"#utility.yul\":5130:5135   */\n      dup2\n        /* \"#utility.yul\":5126:5142   */\n      add\n        /* \"#utility.yul\":5175:5178   */\n      dup5\n        /* \"#utility.yul\":5166:5172   */\n      dup5\n        /* \"#utility.yul\":5161:5164   */\n      dup5\n        /* \"#utility.yul\":5157:5173   */\n      add\n        /* \"#utility.yul\":5154:5179   */\n      gt\n        /* \"#utility.yul\":5151:5263   */\n      iszero\n      tag_375\n      jumpi\n        /* \"#utility.yul\":5182:5261   */\n      tag_376\n      tag_249\n      jump\t// in\n    tag_376:\n        /* \"#utility.yul\":5151:5263   */\n    tag_375:\n        /* \"#utility.yul\":5272:5326   */\n      tag_377\n        /* \"#utility.yul\":5319:5325   */\n      dup5\n        /* \"#utility.yul\":5314:5317   */\n      dup3\n        /* \"#utility.yul\":5309:5312   */\n      dup6\n        /* \"#utility.yul\":5272:5326   */\n      tag_254\n      jump\t// in\n    tag_377:\n        /* \"#utility.yul\":4992:5332   */\n      pop\n        /* \"#utility.yul\":4909:5332   */\n      swap4\n      swap3\n      pop\n      pop\n      pop\n      jump\t// out\n        /* \"#utility.yul\":5351:5689   */\n    tag_256:\n        /* \"#utility.yul\":5406:5411   */\n      0x00\n        /* \"#utility.yul\":5455:5458   */\n      dup3\n        /* \"#utility.yul\":5448:5452   */\n      0x1f\n        /* \"#utility.yul\":5440:5446   */\n      dup4\n        /* \"#utility.yul\":5436:5453   */\n      add\n        /* \"#utility.yul\":5432:5459   */\n      slt\n        /* \"#utility.yul\":5422:5544   */\n      tag_379\n      jumpi\n        /* \"#utility.yul\":5463:5542   */\n      tag_380\n      tag_248\n      jump\t// in\n    tag_380:\n        /* \"#utility.yul\":5422:5544   */\n    tag_379:\n        /* \"#utility.yul\":5580:5586   */\n      dup2\n        /* \"#utility.yul\":5567:5587   */\n      calldataload\n        /* \"#utility.yul\":5605:5683   */\n      tag_381\n        /* \"#utility.yul\":5679:5682   */\n      dup5\n        /* \"#utility.yul\":5671:5677   */\n      dup3\n        /* \"#utility.yul\":5664:5668   */\n      0x20\n        /* \"#utility.yul\":5656:5662   */\n      dup7\n        /* \"#utility.yul\":5652:5669   */\n      add\n        /* \"#utility.yul\":5605:5683   */\n      tag_255\n      jump\t// in\n    tag_381:\n        /* \"#utility.yul\":5596:5683   */\n      swap2\n      pop\n        /* \"#utility.yul\":5412:5689   */\n      pop\n        /* \"#utility.yul\":5351:5689   */\n      swap3\n      swap2\n      pop\n      pop\n      jump\t// out\n        /* \"#utility.yul\":5695:6347   */\n    tag_32:\n        /* \"#utility.yul\":5772:5778   */\n      0x00\n        /* \"#utility.yul\":5780:5786   */\n      dup1\n        /* \"#utility.yul\":5829:5831   */\n      0x40\n        /* \"#utility.yul\":5817:5826   */\n      dup4\n        /* \"#utility.yul\":5808:5815   */\n      dup6\n        /* \"#utility.yul\":5804:5827   */\n      sub\n        /* \"#utility.yul\":5800:5832   */\n      slt\n        /* \"#utility.yul\":5797:5916   */\n      iszero\n      tag_383\n      jumpi\n        /* \"#utility.yul\":5835:5914   */\n      tag_384\n      tag_243\n      jump\t// in\n    tag_384:\n        /* \"#utility.yul\":5797:5916   */\n    tag_383:\n        /* \"#utility.yul\":5955:5956   */\n      0x00\n        /* \"#utility.yul\":5980:6033   */\n      tag_385\n        /* \"#utility.yul\":6025:6032   */\n      dup6\n        /* \"#utility.yul\":6016:6022   */\n      dup3\n        /* \"#utility.yul\":6005:6014   */\n      dup7\n        /* \"#utility.yul\":6001:6023   */\n      add\n        /* \"#utility.yul\":5980:6033   */\n      tag_247\n      jump\t// in\n    tag_385:\n        /* \"#utility.yul\":5970:6033   */\n      swap3\n      pop\n        /* \"#utility.yul\":5926:6043   */\n      pop\n        /* \"#utility.yul\":6110:6112   */\n      0x20\n        /* \"#utility.yul\":6099:6108   */\n      dup4\n        /* \"#utility.yul\":6095:6113   */\n      add\n        /* \"#utility.yul\":6082:6114   */\n      calldataload\n        /* \"#utility.yul\":6141:6159   */\n      0xffffffffffffffff\n        /* \"#utility.yul\":6133:6139   */\n      dup2\n        /* \"#utility.yul\":6130:6160   */\n      gt\n        /* \"#utility.yul\":6127:6244   */\n      iszero\n      tag_386\n      jumpi\n        /* \"#utility.yul\":6163:6242   */\n      tag_387\n      tag_244\n      jump\t// in\n    tag_387:\n        /* \"#utility.yul\":6127:6244   */\n    tag_386:\n        /* \"#utility.yul\":6268:6330   */\n      tag_388\n        /* \"#utility.yul\":6322:6329   */\n      dup6\n        /* \"#utility.yul\":6313:6319   */\n      dup3\n        /* \"#utility.yul\":6302:6311   */\n      dup7\n        /* \"#utility.yul\":6298:6320   */\n      add\n        /* \"#utility.yul\":6268:6330   */\n      tag_256\n      jump\t// in\n    tag_388:\n        /* \"#utility.yul\":6258:6330   */\n      swap2\n      pop\n        /* \"#utility.yul\":6053:6340   */\n      pop\n        /* \"#utility.yul\":5695:6347   */\n      swap3\n      pop\n      swap3\n      swap1\n      pop\n      jump\t// out\n        /* \"#utility.yul\":6353:6475   */\n    tag_257:\n        /* \"#utility.yul\":6426:6450   */\n      tag_390\n        /* \"#utility.yul\":6444:6449   */\n      dup2\n        /* \"#utility.yul\":6426:6450   */\n      tag_240\n      jump\t// in\n    tag_390:\n        /* \"#utility.yul\":6419:6424   */\n      dup2\n        /* \"#utility.yul\":6416:6451   */\n      eq\n        /* \"#utility.yul\":6406:6469   */\n      tag_391\n      jumpi\n        /* \"#utility.yul\":6465:6466   */\n      0x00\n        /* \"#utility.yul\":6462:6463   */\n      dup1\n        /* \"#utility.yul\":6455:6467   */\n      revert\n        /* \"#utility.yul\":6406:6469   */\n    tag_391:\n        /* \"#utility.yul\":6353:6475   */\n      pop\n      jump\t// out\n        /* \"#utility.yul\":6481:6620   */\n    tag_258:\n        /* \"#utility.yul\":6527:6532   */\n      0x00\n        /* \"#utility.yul\":6565:6571   */\n      dup2\n        /* \"#utility.yul\":6552:6572   */\n      calldataload\n        /* \"#utility.yul\":6543:6572   */\n      swap1\n      pop\n        /* \"#utility.yul\":6581:6614   */\n      tag_393\n        /* \"#utility.yul\":6608:6613   */\n      dup2\n        /* \"#utility.yul\":6581:6614   */\n      tag_257\n      jump\t// in\n    tag_393:\n        /* \"#utility.yul\":6481:6620   */\n      swap3\n      swap2\n      pop\n      pop\n      jump\t// out\n        /* \"#utility.yul\":6626:6955   */\n    tag_36:\n        /* \"#utility.yul\":6685:6691   */\n      0x00\n        /* \"#utility.yul\":6734:6736   */\n      0x20\n        /* \"#utility.yul\":6722:6731   */\n      dup3\n        /* \"#utility.yul\":6713:6720   */\n      dup5\n        /* \"#utility.yul\":6709:6732   */\n      sub\n        /* \"#utility.yul\":6705:6737   */\n      slt\n        /* \"#utility.yul\":6702:6821   */\n      iszero\n      tag_395\n      jumpi\n        /* \"#utility.yul\":6740:6819   */\n      tag_396\n      tag_243\n      jump\t// in\n    tag_396:\n        /* \"#utility.yul\":6702:6821   */\n    tag_395:\n        /* \"#utility.yul\":6860:6861   */\n      0x00\n        /* \"#utility.yul\":6885:6938   */\n      tag_397\n        /* \"#utility.yul\":6930:6937   */\n      dup5\n        /* \"#utility.yul\":6921:6927   */\n      dup3\n        /* \"#utility.yul\":6910:6919   */\n      dup6\n        /* \"#utility.yul\":6906:6928   */\n      add\n        /* \"#utility.yul\":6885:6938   */\n      tag_258\n      jump\t// in\n    tag_397:\n        /* \"#utility.yul\":6875:6938   */\n      swap2\n      pop\n        /* \"#utility.yul\":6831:6948   */\n      pop\n        /* \"#utility.yul\":6626:6955   */\n      swap3\n      swap2\n      pop\n      pop\n      jump\t// out\n        /* \"#utility.yul\":6961:7141   */\n    tag_259:\n        /* \"#utility.yul\":7009:7086   */\n      0x4e487b7100000000000000000000000000000000000000000000000000000000\n        /* \"#utility.yul\":7006:7007   */\n      0x00\n        /* \"#utility.yul\":6999:7087   */\n      mstore\n        /* \"#utility.yul\":7106:7110   */\n      0x22\n        /* \"#utility.yul\":7103:7104   */\n      0x04\n        /* \"#utility.yul\":7096:7111   */\n      mstore\n        /* \"#utility.yul\":7130:7134   */\n      0x24\n        /* \"#utility.yul\":7127:7128   */\n      0x00\n        /* \"#utility.yul\":7120:7135   */\n      revert\n        /* \"#utility.yul\":7147:7467   */\n    tag_47:\n        /* \"#utility.yul\":7191:7197   */\n      0x00\n        /* \"#utility.yul\":7228:7229   */\n      0x02\n        /* \"#utility.yul\":7222:7226   */\n      dup3\n        /* \"#utility.yul\":7218:7230   */\n      div\n        /* \"#utility.yul\":7208:7230   */\n      swap1\n      pop\n        /* \"#utility.yul\":7275:7276   */\n      0x01\n        /* \"#utility.yul\":7269:7273   */\n      dup3\n        /* \"#utility.yul\":7265:7277   */\n      and\n        /* \"#utility.yul\":7296:7314   */\n      dup1\n        /* \"#utility.yul\":7286:7367   */\n      tag_400\n      jumpi\n        /* \"#utility.yul\":7352:7356   */\n      0x7f\n        /* \"#utility.yul\":7344:7350   */\n      dup3\n        /* \"#utility.yul\":7340:7357   */\n      and\n        /* \"#utility.yul\":7330:7357   */\n      swap2\n      pop\n        /* \"#utility.yul\":7286:7367   */\n    tag_400:\n        /* \"#utility.yul\":7414:7416   */\n      0x20\n        /* \"#utility.yul\":7406:7412   */\n      dup3\n        /* \"#utility.yul\":7403:7417   */\n      lt\n        /* \"#utility.yul\":7383:7401   */\n      dup2\n        /* \"#utility.yul\":7380:7418   */\n      sub\n        /* \"#utility.yul\":7377:7461   */\n      tag_401\n      jumpi\n        /* \"#utility.yul\":7433:7451   */\n      tag_402\n      tag_259\n      jump\t// in\n    tag_402:\n        /* \"#utility.yul\":7377:7461   */\n    tag_401:\n        /* \"#utility.yul\":7198:7467   */\n      pop\n        /* \"#utility.yul\":7147:7467   */\n      swap2\n      swap1\n      pop\n      jump\t// out\n        /* \"#utility.yul\":7473:7645   */\n    tag_260:\n        /* \"#utility.yul\":7613:7637   */\n      0x4d7573742062652070726f706f736564206f776e657200000000000000000000\n        /* \"#utility.yul\":7609:7610   */\n      0x00\n        /* \"#utility.yul\":7601:7607   */\n      dup3\n        /* \"#utility.yul\":7597:7611   */\n      add\n        /* \"#utility.yul\":7590:7638   */\n      mstore\n        /* \"#utility.yul\":7473:7645   */\n      pop\n      jump\t// out\n        /* \"#utility.yul\":7651:8017   */\n    tag_261:\n        /* \"#utility.yul\":7793:7796   */\n      0x00\n        /* \"#utility.yul\":7814:7881   */\n      tag_405\n        /* \"#utility.yul\":7878:7880   */\n      0x16\n        /* \"#utility.yul\":7873:7876   */\n      dup4\n        /* \"#utility.yul\":7814:7881   */\n      tag_237\n      jump\t// in\n    tag_405:\n        /* \"#utility.yul\":7807:7881   */\n      swap2\n      pop\n        /* \"#utility.yul\":7890:7983   */\n      tag_406\n        /* \"#utility.yul\":7979:7982   */\n      dup3\n        /* \"#utility.yul\":7890:7983   */\n      tag_260\n      jump\t// in\n    tag_406:\n        /* \"#utility.yul\":8008:8010   */\n      0x20\n        /* \"#utility.yul\":8003:8006   */\n      dup3\n        /* \"#utility.yul\":7999:8011   */\n      add\n        /* \"#utility.yul\":7992:8011   */\n      swap1\n      pop\n        /* \"#utility.yul\":7651:8017   */\n      swap2\n      swap1\n      pop\n      jump\t// out\n        /* \"#utility.yul\":8023:8442   */\n    tag_55:\n        /* \"#utility.yul\":8189:8193   */\n      0x00\n        /* \"#utility.yul\":8227:8229   */\n      0x20\n        /* \"#utility.yul\":8216:8225   */\n      dup3\n        /* \"#utility.yul\":8212:8230   */\n      add\n        /* \"#utility.yul\":8204:8230   */\n      swap1\n      pop\n        /* \"#utility.yul\":8276:8285   */\n      dup2\n        /* \"#utility.yul\":8270:8274   */\n      dup2\n        /* \"#utility.yul\":8266:8286   */\n      sub\n        /* \"#utility.yul\":8262:8263   */\n      0x00\n        /* \"#utility.yul\":8251:8260   */\n      dup4\n        /* \"#utility.yul\":8247:8264   */\n      add\n        /* \"#utility.yul\":8240:8287   */\n      mstore\n        /* \"#utility.yul\":8304:8435   */\n      tag_408\n        /* \"#utility.yul\":8430:8434   */\n      dup2\n        /* \"#utility.yul\":8304:8435   */\n      tag_261\n      jump\t// in\n    tag_408:\n        /* \"#utility.yul\":8296:8435   */\n      swap1\n      pop\n        /* \"#utility.yul\":8023:8442   */\n      swap2\n      swap1\n      pop\n      jump\t// out\n        /* \"#utility.yul\":8448:8525   */\n    tag_262:\n        /* \"#utility.yul\":8485:8492   */\n      0x00\n        /* \"#utility.yul\":8514:8519   */\n      dup2\n        /* \"#utility.yul\":8503:8519   */\n      swap1\n      pop\n        /* \"#utility.yul\":8448:8525   */\n      swap2\n      swap1\n      pop\n      jump\t// out\n        /* \"#utility.yul\":8531:8653   */\n    tag_263:\n        /* \"#utility.yul\":8604:8628   */\n      tag_411\n        /* \"#utility.yul\":8622:8627   */\n      dup2\n        /* \"#utility.yul\":8604:8628   */\n      tag_262\n      jump\t// in\n    tag_411:\n        /* \"#utility.yul\":8597:8602   */\n      dup2\n        /* \"#utility.yul\":8594:8629   */\n      eq\n        /* \"#utility.yul\":8584:8647   */\n      tag_412\n      jumpi\n        /* \"#utility.yul\":8643:8644   */\n      0x00\n        /* \"#utility.yul\":8640:8641   */\n      dup1\n        /* \"#utility.yul\":8633:8645   */\n      revert\n        /* \"#utility.yul\":8584:8647   */\n    tag_412:\n        /* \"#utility.yul\":8531:8653   */\n      pop\n      jump\t// out\n        /* \"#utility.yul\":8659:8802   */\n    tag_264:\n        /* \"#utility.yul\":8716:8721   */\n      0x00\n        /* \"#utility.yul\":8747:8753   */\n      dup2\n        /* \"#utility.yul\":8741:8754   */\n      mload\n        /* \"#utility.yul\":8732:8754   */\n      swap1\n      pop\n        /* \"#utility.yul\":8763:8796   */\n      tag_414\n        /* \"#utility.yul\":8790:8795   */\n      dup2\n        /* \"#utility.yul\":8763:8796   */\n      tag_263\n      jump\t// in\n    tag_414:\n        /* \"#utility.yul\":8659:8802   */\n      swap3\n      swap2\n      pop\n      pop\n      jump\t// out\n        /* \"#utility.yul\":8808:9159   */\n    tag_72:\n        /* \"#utility.yul\":8878:8884   */\n      0x00\n        /* \"#utility.yul\":8927:8929   */\n      0x20\n        /* \"#utility.yul\":8915:8924   */\n      dup3\n        /* \"#utility.yul\":8906:8913   */\n      dup5\n        /* \"#utility.yul\":8902:8925   */\n      sub\n        /* \"#utility.yul\":8898:8930   */\n      slt\n        /* \"#utility.yul\":8895:9014   */\n      iszero\n      tag_416\n      jumpi\n        /* \"#utility.yul\":8933:9012   */\n      tag_417\n      tag_243\n      jump\t// in\n    tag_417:\n        /* \"#utility.yul\":8895:9014   */\n    tag_416:\n        /* \"#utility.yul\":9053:9054   */\n      0x00\n        /* \"#utility.yul\":9078:9142   */\n      tag_418\n        /* \"#utility.yul\":9134:9141   */\n      dup5\n        /* \"#utility.yul\":9125:9131   */\n      dup3\n        /* \"#utility.yul\":9114:9123   */\n      dup6\n        /* \"#utility.yul\":9110:9132   */\n      add\n        /* \"#utility.yul\":9078:9142   */\n      tag_264\n      jump\t// in\n    tag_418:\n        /* \"#utility.yul\":9068:9142   */\n      swap2\n      pop\n        /* \"#utility.yul\":9024:9152   */\n      pop\n        /* \"#utility.yul\":8808:9159   */\n      swap3\n      swap2\n      pop\n      pop\n      jump\t// out\n        /* \"#utility.yul\":9165:9283   */\n    tag_265:\n        /* \"#utility.yul\":9252:9276   */\n      tag_420\n        /* \"#utility.yul\":9270:9275   */\n      dup2\n        /* \"#utility.yul\":9252:9276   */\n      tag_262\n      jump\t// in\n    tag_420:\n        /* \"#utility.yul\":9247:9250   */\n      dup3\n        /* \"#utility.yul\":9240:9277   */\n      mstore\n        /* \"#utility.yul\":9165:9283   */\n      pop\n      pop\n      jump\t// out\n        /* \"#utility.yul\":9289:9621   */\n    tag_74:\n        /* \"#utility.yul\":9410:9414   */\n      0x00\n        /* \"#utility.yul\":9448:9450   */\n      0x40\n        /* \"#utility.yul\":9437:9446   */\n      dup3\n        /* \"#utility.yul\":9433:9451   */\n      add\n        /* \"#utility.yul\":9425:9451   */\n      swap1\n      pop\n        /* \"#utility.yul\":9461:9532   */\n      tag_422\n        /* \"#utility.yul\":9529:9530   */\n      0x00\n        /* \"#utility.yul\":9518:9527   */\n      dup4\n        /* \"#utility.yul\":9514:9531   */\n      add\n        /* \"#utility.yul\":9505:9511   */\n      dup6\n        /* \"#utility.yul\":9461:9532   */\n      tag_241\n      jump\t// in\n    tag_422:\n        /* \"#utility.yul\":9542:9614   */\n      tag_423\n        /* \"#utility.yul\":9610:9612   */\n      0x20\n        /* \"#utility.yul\":9599:9608   */\n      dup4\n        /* \"#utility.yul\":9595:9613   */\n      add\n        /* \"#utility.yul\":9586:9592   */\n      dup5\n        /* \"#utility.yul\":9542:9614   */\n      tag_265\n      jump\t// in\n    tag_423:\n        /* \"#utility.yul\":9289:9621   */\n      swap4\n      swap3\n      pop\n      pop\n      pop\n      jump\t// out\n        /* \"#utility.yul\":9627:9717   */\n    tag_266:\n        /* \"#utility.yul\":9661:9668   */\n      0x00\n        /* \"#utility.yul\":9704:9709   */\n      dup2\n        /* \"#utility.yul\":9697:9710   */\n      iszero\n        /* \"#utility.yul\":9690:9711   */\n      iszero\n        /* \"#utility.yul\":9679:9711   */\n      swap1\n      pop\n        /* \"#utility.yul\":9627:9717   */\n      swap2\n      swap1\n      pop\n      jump\t// out\n        /* \"#utility.yul\":9723:9839   */\n    tag_267:\n        /* \"#utility.yul\":9793:9814   */\n      tag_426\n        /* \"#utility.yul\":9808:9813   */\n      dup2\n        /* \"#utility.yul\":9793:9814   */\n      tag_266\n      jump\t// in\n    tag_426:\n        /* \"#utility.yul\":9786:9791   */\n      dup2\n        /* \"#utility.yul\":9783:9815   */\n      eq\n        /* \"#utility.yul\":9773:9833   */\n      tag_427\n      jumpi\n        /* \"#utility.yul\":9829:9830   */\n      0x00\n        /* \"#utility.yul\":9826:9827   */\n      dup1\n        /* \"#utility.yul\":9819:9831   */\n      revert\n        /* \"#utility.yul\":9773:9833   */\n    tag_427:\n        /* \"#utility.yul\":9723:9839   */\n      pop\n      jump\t// out\n        /* \"#utility.yul\":9845:9982   */\n    tag_268:\n        /* \"#utility.yul\":9899:9904   */\n      0x00\n        /* \"#utility.yul\":9930:9936   */\n      dup2\n        /* \"#utility.yul\":9924:9937   */\n      mload\n        /* \"#utility.yul\":9915:9937   */\n      swap1\n      pop\n        /* \"#utility.yul\":9946:9976   */\n      tag_429\n        /* \"#utility.yul\":9970:9975   */\n      dup2\n        /* \"#utility.yul\":9946:9976   */\n      tag_267\n      jump\t// in\n    tag_429:\n        /* \"#utility.yul\":9845:9982   */\n      swap3\n      swap2\n      pop\n      pop\n      jump\t// out\n        /* \"#utility.yul\":9988:10333   */\n    tag_78:\n        /* \"#utility.yul\":10055:10061   */\n      0x00\n        /* \"#utility.yul\":10104:10106   */\n      0x20\n        /* \"#utility.yul\":10092:10101   */\n      dup3\n        /* \"#utility.yul\":10083:10090   */\n      dup5\n        /* \"#utility.yul\":10079:10102   */\n      sub\n        /* \"#utility.yul\":10075:10107   */\n      slt\n        /* \"#utility.yul\":10072:10191   */\n      iszero\n      tag_431\n      jumpi\n        /* \"#utility.yul\":10110:10189   */\n      tag_432\n      tag_243\n      jump\t// in\n    tag_432:\n        /* \"#utility.yul\":10072:10191   */\n    tag_431:\n        /* \"#utility.yul\":10230:10231   */\n      0x00\n        /* \"#utility.yul\":10255:10316   */\n      tag_433\n        /* \"#utility.yul\":10308:10315   */\n      dup5\n        /* \"#utility.yul\":10299:10305   */\n      dup3\n        /* \"#utility.yul\":10288:10297   */\n      dup6\n        /* \"#utility.yul\":10284:10306   */\n      add\n        /* \"#utility.yul\":10255:10316   */\n      tag_268\n      jump\t// in\n    tag_433:\n        /* \"#utility.yul\":10245:10316   */\n      swap2\n      pop\n        /* \"#utility.yul\":10201:10326   */\n      pop\n        /* \"#utility.yul\":9988:10333   */\n      swap3\n      swap2\n      pop\n      pop\n      jump\t// out\n        /* \"#utility.yul\":10339:10507   */\n    tag_269:\n        /* \"#utility.yul\":10479:10499   */\n      0x556e61626c6520746f207472616e736665720000000000000000000000000000\n        /* \"#utility.yul\":10475:10476   */\n      0x00\n        /* \"#utility.yul\":10467:10473   */\n      dup3\n        /* \"#utility.yul\":10463:10477   */\n      add\n        /* \"#utility.yul\":10456:10500   */\n      mstore\n        /* \"#utility.yul\":10339:10507   */\n      pop\n      jump\t// out\n        /* \"#utility.yul\":10513:10879   */\n    tag_270:\n        /* \"#utility.yul\":10655:10658   */\n      0x00\n        /* \"#utility.yul\":10676:10743   */\n      tag_436\n        /* \"#utility.yul\":10740:10742   */\n      0x12\n        /* \"#utility.yul\":10735:10738   */\n      dup4\n        /* \"#utility.yul\":10676:10743   */\n      tag_237\n      jump\t// in\n    tag_436:\n        /* \"#utility.yul\":10669:10743   */\n      swap2\n      pop\n        /* \"#utility.yul\":10752:10845   */\n      tag_437\n        /* \"#utility.yul\":10841:10844   */\n      dup3\n        /* \"#utility.yul\":10752:10845   */\n      tag_269\n      jump\t// in\n    tag_437:\n        /* \"#utility.yul\":10870:10872   */\n      0x20\n        /* \"#utility.yul\":10865:10868   */\n      dup3\n        /* \"#utility.yul\":10861:10873   */\n      add\n        /* \"#utility.yul\":10854:10873   */\n      swap1\n      pop\n        /* \"#utility.yul\":10513:10879   */\n      swap2\n      swap1\n      pop\n      jump\t// out\n        /* \"#utility.yul\":10885:11304   */\n    tag_81:\n        /* \"#utility.yul\":11051:11055   */\n      0x00\n        /* \"#utility.yul\":11089:11091   */\n      0x20\n        /* \"#utility.yul\":11078:11087   */\n      dup3\n        /* \"#utility.yul\":11074:11092   */\n      add\n        /* \"#utility.yul\":11066:11092   */\n      swap1\n      pop\n        /* \"#utility.yul\":11138:11147   */\n      dup2\n        /* \"#utility.yul\":11132:11136   */\n      dup2\n        /* \"#utility.yul\":11128:11148   */\n      sub\n        /* \"#utility.yul\":11124:11125   */\n      0x00\n        /* \"#utility.yul\":11113:11122   */\n      dup4\n        /* \"#utility.yul\":11109:11126   */\n      add\n        /* \"#utility.yul\":11102:11149   */\n      mstore\n        /* \"#utility.yul\":11166:11297   */\n      tag_439\n        /* \"#utility.yul\":11292:11296   */\n      dup2\n        /* \"#utility.yul\":11166:11297   */\n      tag_270\n      jump\t// in\n    tag_439:\n        /* \"#utility.yul\":11158:11297   */\n      swap1\n      pop\n        /* \"#utility.yul\":10885:11304   */\n      swap2\n      swap1\n      pop\n      jump\t// out\n        /* \"#utility.yul\":11310:11537   */\n    tag_271:\n        /* \"#utility.yul\":11450:11484   */\n      0x536f75726365206d75737420626520746865206f7261636c65206f6620746865\n        /* \"#utility.yul\":11446:11447   */\n      0x00\n        /* \"#utility.yul\":11438:11444   */\n      dup3\n        /* \"#utility.yul\":11434:11448   */\n      add\n        /* \"#utility.yul\":11427:11485   */\n      mstore\n        /* \"#utility.yul\":11519:11529   */\n      0x2072657175657374000000000000000000000000000000000000000000000000\n        /* \"#utility.yul\":11514:11516   */\n      0x20\n        /* \"#utility.yul\":11506:11512   */\n      dup3\n        /* \"#utility.yul\":11502:11517   */\n      add\n        /* \"#utility.yul\":11495:11530   */\n      mstore\n        /* \"#utility.yul\":11310:11537   */\n      pop\n      jump\t// out\n        /* \"#utility.yul\":11543:11909   */\n    tag_272:\n        /* \"#utility.yul\":11685:11688   */\n      0x00\n        /* \"#utility.yul\":11706:11773   */\n      tag_442\n        /* \"#utility.yul\":11770:11772   */\n      0x28\n        /* \"#utility.yul\":11765:11768   */\n      dup4\n        /* \"#utility.yul\":11706:11773   */\n      tag_237\n      jump\t// in\n    tag_442:\n        /* \"#utility.yul\":11699:11773   */\n      swap2\n      pop\n        /* \"#utility.yul\":11782:11875   */\n      tag_443\n        /* \"#utility.yul\":11871:11874   */\n      dup3\n        /* \"#utility.yul\":11782:11875   */\n      tag_271\n      jump\t// in\n    tag_443:\n        /* \"#utility.yul\":11900:11902   */\n      0x40\n        /* \"#utility.yul\":11895:11898   */\n      dup3\n        /* \"#utility.yul\":11891:11903   */\n      add\n        /* \"#utility.yul\":11884:11903   */\n      swap1\n      pop\n        /* \"#utility.yul\":11543:11909   */\n      swap2\n      swap1\n      pop\n      jump\t// out\n        /* \"#utility.yul\":11915:12334   */\n    tag_85:\n        /* \"#utility.yul\":12081:12085   */\n      0x00\n        /* \"#utility.yul\":12119:12121   */\n      0x20\n        /* \"#utility.yul\":12108:12117   */\n      dup3\n        /* \"#utility.yul\":12104:12122   */\n      add\n        /* \"#utility.yul\":12096:12122   */\n      swap1\n      pop\n        /* \"#utility.yul\":12168:12177   */\n      dup2\n        /* \"#utility.yul\":12162:12166   */\n      dup2\n        /* \"#utility.yul\":12158:12178   */\n      sub\n        /* \"#utility.yul\":12154:12155   */\n      0x00\n        /* \"#utility.yul\":12143:12152   */\n      dup4\n        /* \"#utility.yul\":12139:12156   */\n      add\n        /* \"#utility.yul\":12132:12179   */\n      mstore\n        /* \"#utility.yul\":12196:12327   */\n      tag_445\n        /* \"#utility.yul\":12322:12326   */\n      dup2\n        /* \"#utility.yul\":12196:12327   */\n      tag_272\n      jump\t// in\n    tag_445:\n        /* \"#utility.yul\":12188:12327   */\n      swap1\n      pop\n        /* \"#utility.yul\":11915:12334   */\n      swap2\n      swap1\n      pop\n      jump\t// out\n        /* \"#utility.yul\":12340:12487   */\n    tag_273:\n        /* \"#utility.yul\":12441:12452   */\n      0x00\n        /* \"#utility.yul\":12478:12481   */\n      dup2\n        /* \"#utility.yul\":12463:12481   */\n      swap1\n      pop\n        /* \"#utility.yul\":12340:12487   */\n      swap3\n      swap2\n      pop\n      pop\n      jump\t// out\n        /* \"#utility.yul\":12493:12879   */\n    tag_274:\n        /* \"#utility.yul\":12597:12600   */\n      0x00\n        /* \"#utility.yul\":12625:12663   */\n      tag_448\n        /* \"#utility.yul\":12657:12662   */\n      dup3\n        /* \"#utility.yul\":12625:12663   */\n      tag_231\n      jump\t// in\n    tag_448:\n        /* \"#utility.yul\":12679:12767   */\n      tag_449\n        /* \"#utility.yul\":12760:12766   */\n      dup2\n        /* \"#utility.yul\":12755:12758   */\n      dup6\n        /* \"#utility.yul\":12679:12767   */\n      tag_273\n      jump\t// in\n    tag_449:\n        /* \"#utility.yul\":12672:12767   */\n      swap4\n      pop\n        /* \"#utility.yul\":12776:12841   */\n      tag_450\n        /* \"#utility.yul\":12834:12840   */\n      dup2\n        /* \"#utility.yul\":12829:12832   */\n      dup6\n        /* \"#utility.yul\":12822:12826   */\n      0x20\n        /* \"#utility.yul\":12815:12820   */\n      dup7\n        /* \"#utility.yul\":12811:12827   */\n      add\n        /* \"#utility.yul\":12776:12841   */\n      tag_233\n      jump\t// in\n    tag_450:\n        /* \"#utility.yul\":12866:12872   */\n      dup1\n        /* \"#utility.yul\":12861:12864   */\n      dup5\n        /* \"#utility.yul\":12857:12873   */\n      add\n        /* \"#utility.yul\":12850:12873   */\n      swap2\n      pop\n        /* \"#utility.yul\":12601:12879   */\n      pop\n        /* \"#utility.yul\":12493:12879   */\n      swap3\n      swap2\n      pop\n      pop\n      jump\t// out\n        /* \"#utility.yul\":12885:13156   */\n    tag_88:\n        /* \"#utility.yul\":13015:13018   */\n      0x00\n        /* \"#utility.yul\":13037:13130   */\n      tag_452\n        /* \"#utility.yul\":13126:13129   */\n      dup3\n        /* \"#utility.yul\":13117:13123   */\n      dup5\n        /* \"#utility.yul\":13037:13130   */\n      tag_274\n      jump\t// in\n    tag_452:\n        /* \"#utility.yul\":13030:13130   */\n      swap2\n      pop\n        /* \"#utility.yul\":13147:13150   */\n      dup2\n        /* \"#utility.yul\":13140:13150   */\n      swap1\n      pop\n        /* \"#utility.yul\":12885:13156   */\n      swap3\n      swap2\n      pop\n      pop\n      jump\t// out\n        /* \"#utility.yul\":13162:13302   */\n    tag_275:\n        /* \"#utility.yul\":13210:13214   */\n      0x00\n        /* \"#utility.yul\":13233:13236   */\n      dup2\n        /* \"#utility.yul\":13225:13236   */\n      swap1\n      pop\n        /* \"#utility.yul\":13256:13259   */\n      dup2\n        /* \"#utility.yul\":13253:13254   */\n      0x00\n        /* \"#utility.yul\":13246:13260   */\n      mstore\n        /* \"#utility.yul\":13290:13294   */\n      0x20\n        /* \"#utility.yul\":13287:13288   */\n      0x00\n        /* \"#utility.yul\":13277:13295   */\n      keccak256\n        /* \"#utility.yul\":13269:13295   */\n      swap1\n      pop\n        /* \"#utility.yul\":13162:13302   */\n      swap2\n      swap1\n      pop\n      jump\t// out\n        /* \"#utility.yul\":13308:13401   */\n    tag_276:\n        /* \"#utility.yul\":13345:13351   */\n      0x00\n        /* \"#utility.yul\":13392:13394   */\n      0x20\n        /* \"#utility.yul\":13387:13389   */\n      0x1f\n        /* \"#utility.yul\":13380:13385   */\n      dup4\n        /* \"#utility.yul\":13376:13390   */\n      add\n        /* \"#utility.yul\":13372:13395   */\n      div\n        /* \"#utility.yul\":13362:13395   */\n      swap1\n      pop\n        /* \"#utility.yul\":13308:13401   */\n      swap2\n      swap1\n      pop\n      jump\t// out\n        /* \"#utility.yul\":13407:13514   */\n    tag_277:\n        /* \"#utility.yul\":13451:13459   */\n      0x00\n        /* \"#utility.yul\":13501:13506   */\n      dup3\n        /* \"#utility.yul\":13495:13499   */\n      dup3\n        /* \"#utility.yul\":13491:13507   */\n      shl\n        /* \"#utility.yul\":13470:13507   */\n      swap1\n      pop\n        /* \"#utility.yul\":13407:13514   */\n      swap3\n      swap2\n      pop\n      pop\n      jump\t// out\n        /* \"#utility.yul\":13520:13913   */\n    tag_278:\n        /* \"#utility.yul\":13589:13595   */\n      0x00\n        /* \"#utility.yul\":13639:13640   */\n      0x08\n        /* \"#utility.yul\":13627:13637   */\n      dup4\n        /* \"#utility.yul\":13623:13641   */\n      mul\n        /* \"#utility.yul\":13662:13759   */\n      tag_457\n        /* \"#utility.yul\":13692:13758   */\n      0xffffffffffffffffffffffffffffffffffffffffffffffffffffffffffffffff\n        /* \"#utility.yul\":13681:13690   */\n      dup3\n        /* \"#utility.yul\":13662:13759   */\n      tag_277\n      jump\t// in\n    tag_457:\n        /* \"#utility.yul\":13780:13819   */\n      tag_458\n        /* \"#utility.yul\":13810:13818   */\n      dup7\n        /* \"#utility.yul\":13799:13808   */\n      dup4\n        /* \"#utility.yul\":13780:13819   */\n      tag_277\n      jump\t// in\n    tag_458:\n        /* \"#utility.yul\":13768:13819   */\n      swap6\n      pop\n        /* \"#utility.yul\":13852:13856   */\n      dup1\n        /* \"#utility.yul\":13848:13857   */\n      not\n        /* \"#utility.yul\":13841:13846   */\n      dup5\n        /* \"#utility.yul\":13837:13858   */\n      and\n        /* \"#utility.yul\":13828:13858   */\n      swap4\n      pop\n        /* \"#utility.yul\":13901:13905   */\n      dup1\n        /* \"#utility.yul\":13891:13899   */\n      dup7\n        /* \"#utility.yul\":13887:13906   */\n      and\n        /* \"#utility.yul\":13880:13885   */\n      dup5\n        /* \"#utility.yul\":13877:13907   */\n      or\n        /* \"#utility.yul\":13867:13907   */\n      swap3\n      pop\n        /* \"#utility.yul\":13596:13913   */\n      pop\n      pop\n        /* \"#utility.yul\":13520:13913   */\n      swap4\n      swap3\n      pop\n      pop\n      pop\n      jump\t// out\n        /* \"#utility.yul\":13919:13979   */\n    tag_279:\n        /* \"#utility.yul\":13947:13950   */\n      0x00\n        /* \"#utility.yul\":13968:13973   */\n      dup2\n        /* \"#utility.yul\":13961:13973   */\n      swap1\n      pop\n        /* \"#utility.yul\":13919:13979   */\n      swap2\n      swap1\n      pop\n      jump\t// out\n        /* \"#utility.yul\":13985:14127   */\n    tag_280:\n        /* \"#utility.yul\":14035:14044   */\n      0x00\n        /* \"#utility.yul\":14068:14121   */\n      tag_461\n        /* \"#utility.yul\":14086:14120   */\n      tag_462\n        /* \"#utility.yul\":14095:14119   */\n      tag_463\n        /* \"#utility.yul\":14113:14118   */\n      dup5\n        /* \"#utility.yul\":14095:14119   */\n      tag_262\n      jump\t// in\n    tag_463:\n        /* \"#utility.yul\":14086:14120   */\n      tag_279\n      jump\t// in\n    tag_462:\n        /* \"#utility.yul\":14068:14121   */\n      tag_262\n      jump\t// in\n    tag_461:\n        /* \"#utility.yul\":14055:14121   */\n      swap1\n      pop\n        /* \"#utility.yul\":13985:14127   */\n      swap2\n      swap1\n      pop\n      jump\t// out\n        /* \"#utility.yul\":14133:14208   */\n    tag_281:\n        /* \"#utility.yul\":14176:14179   */\n      0x00\n        /* \"#utility.yul\":14197:14202   */\n      dup2\n        /* \"#utility.yul\":14190:14202   */\n      swap1\n      pop\n        /* \"#utility.yul\":14133:14208   */\n      swap2\n      swap1\n      pop\n      jump\t// out\n        /* \"#utility.yul\":14214:14483   */\n    tag_282:\n        /* \"#utility.yul\":14324:14363   */\n      tag_466\n        /* \"#utility.yul\":14355:14362   */\n      dup4\n        /* \"#utility.yul\":14324:14363   */\n      tag_280\n      jump\t// in\n    tag_466:\n        /* \"#utility.yul\":14385:14476   */\n      tag_467\n        /* \"#utility.yul\":14434:14475   */\n      tag_468\n        /* \"#utility.yul\":14458:14474   */\n      dup3\n        /* \"#utility.yul\":14434:14475   */\n      tag_281\n      jump\t// in\n    tag_468:\n        /* \"#utility.yul\":14426:14432   */\n      dup5\n        /* \"#utility.yul\":14419:14423   */\n      dup5\n        /* \"#utility.yul\":14413:14424   */\n      sload\n        /* \"#utility.yul\":14385:14476   */\n      tag_278\n      jump\t// in\n    tag_467:\n        /* \"#utility.yul\":14379:14383   */\n      dup3\n        /* \"#utility.yul\":14372:14477   */\n      sstore\n        /* \"#utility.yul\":14290:14483   */\n      pop\n        /* \"#utility.yul\":14214:14483   */\n      pop\n      pop\n      pop\n      jump\t// out\n        /* \"#utility.yul\":14489:14562   */\n    tag_283:\n        /* \"#utility.yul\":14534:14537   */\n      0x00\n        /* \"#utility.yul\":14489:14562   */\n      swap1\n      jump\t// out\n        /* \"#utility.yul\":14568:14757   */\n    tag_284:\n        /* \"#utility.yul\":14645:14677   */\n      tag_471\n      tag_283\n      jump\t// in\n    tag_471:\n        /* \"#utility.yul\":14686:14751   */\n      tag_472\n        /* \"#utility.yul\":14744:14750   */\n      dup2\n        /* \"#utility.yul\":14736:14742   */\n      dup5\n        /* \"#utility.yul\":14730:14734   */\n      dup5\n        /* \"#utility.yul\":14686:14751   */\n      tag_282\n      jump\t// in\n    tag_472:\n        /* \"#utility.yul\":14621:14757   */\n      pop\n        /* \"#utility.yul\":14568:14757   */\n      pop\n      pop\n      jump\t// out\n        /* \"#utility.yul\":14763:14949   */\n    tag_285:\n        /* \"#utility.yul\":14823:14943   */\n    tag_474:\n        /* \"#utility.yul\":14840:14843   */\n      dup2\n        /* \"#utility.yul\":14833:14838   */\n      dup2\n        /* \"#utility.yul\":14830:14844   */\n      lt\n        /* \"#utility.yul\":14823:14943   */\n      iszero\n      tag_476\n      jumpi\n        /* \"#utility.yul\":14894:14933   */\n      tag_477\n        /* \"#utility.yul\":14931:14932   */\n      0x00\n        /* \"#utility.yul\":14924:14929   */\n      dup3\n        /* \"#utility.yul\":14894:14933   */\n      tag_284\n      jump\t// in\n    tag_477:\n        /* \"#utility.yul\":14867:14868   */\n      0x01\n        /* \"#utility.yul\":14860:14865   */\n      dup2\n        /* \"#utility.yul\":14856:14869   */\n      add\n        /* \"#utility.yul\":14847:14869   */\n      swap1\n      pop\n        /* \"#utility.yul\":14823:14943   */\n      jump(tag_474)\n    tag_476:\n        /* \"#utility.yul\":14763:14949   */\n      pop\n      pop\n      jump\t// out\n        /* \"#utility.yul\":14955:15496   */\n    tag_286:\n        /* \"#utility.yul\":15055:15057   */\n      0x1f\n        /* \"#utility.yul\":15050:15053   */\n      dup3\n        /* \"#utility.yul\":15047:15058   */\n      gt\n        /* \"#utility.yul\":15044:15489   */\n      iszero\n      tag_479\n      jumpi\n        /* \"#utility.yul\":15089:15126   */\n      tag_480\n        /* \"#utility.yul\":15120:15125   */\n      dup2\n        /* \"#utility.yul\":15089:15126   */\n      tag_275\n      jump\t// in\n    tag_480:\n        /* \"#utility.yul\":15172:15201   */\n      tag_481\n        /* \"#utility.yul\":15190:15200   */\n      dup5\n        /* \"#utility.yul\":15172:15201   */\n      tag_276\n      jump\t// in\n    tag_481:\n        /* \"#utility.yul\":15162:15170   */\n      dup2\n        /* \"#utility.yul\":15158:15202   */\n      add\n        /* \"#utility.yul\":15355:15357   */\n      0x20\n        /* \"#utility.yul\":15343:15353   */\n      dup6\n        /* \"#utility.yul\":15340:15358   */\n      lt\n        /* \"#utility.yul\":15337:15386   */\n      iszero\n      tag_482\n      jumpi\n        /* \"#utility.yul\":15376:15384   */\n      dup2\n        /* \"#utility.yul\":15361:15384   */\n      swap1\n      pop\n        /* \"#utility.yul\":15337:15386   */\n    tag_482:\n        /* \"#utility.yul\":15399:15479   */\n      tag_483\n        /* \"#utility.yul\":15455:15477   */\n      tag_484\n        /* \"#utility.yul\":15473:15476   */\n      dup6\n        /* \"#utility.yul\":15455:15477   */\n      tag_276\n      jump\t// in\n    tag_484:\n        /* \"#utility.yul\":15445:15453   */\n      dup4\n        /* \"#utility.yul\":15441:15478   */\n      add\n        /* \"#utility.yul\":15428:15439   */\n      dup3\n        /* \"#utility.yul\":15399:15479   */\n      tag_285\n      jump\t// in\n    tag_483:\n        /* \"#utility.yul\":15059:15489   */\n      pop\n      pop\n        /* \"#utility.yul\":15044:15489   */\n    tag_479:\n        /* \"#utility.yul\":14955:15496   */\n      pop\n      pop\n      pop\n      jump\t// out\n        /* \"#utility.yul\":15502:15619   */\n    tag_287:\n        /* \"#utility.yul\":15556:15564   */\n      0x00\n        /* \"#utility.yul\":15606:15611   */\n      dup3\n        /* \"#utility.yul\":15600:15604   */\n      dup3\n        /* \"#utility.yul\":15596:15612   */\n      shr\n        /* \"#utility.yul\":15575:15612   */\n      swap1\n      pop\n        /* \"#utility.yul\":15502:15619   */\n      swap3\n      swap2\n      pop\n      pop\n      jump\t// out\n        /* \"#utility.yul\":15625:15794   */\n    tag_288:\n        /* \"#utility.yul\":15669:15675   */\n      0x00\n        /* \"#utility.yul\":15702:15753   */\n      tag_487\n        /* \"#utility.yul\":15750:15751   */\n      0x00\n        /* \"#utility.yul\":15746:15752   */\n      not\n        /* \"#utility.yul\":15738:15743   */\n      dup5\n        /* \"#utility.yul\":15735:15736   */\n      0x08\n        /* \"#utility.yul\":15731:15744   */\n      mul\n        /* \"#utility.yul\":15702:15753   */\n      tag_287\n      jump\t// in\n    tag_487:\n        /* \"#utility.yul\":15698:15754   */\n      not\n        /* \"#utility.yul\":15783:15787   */\n      dup1\n        /* \"#utility.yul\":15777:15781   */\n      dup4\n        /* \"#utility.yul\":15773:15788   */\n      and\n        /* \"#utility.yul\":15763:15788   */\n      swap2\n      pop\n        /* \"#utility.yul\":15676:15794   */\n      pop\n        /* \"#utility.yul\":15625:15794   */\n      swap3\n      swap2\n      pop\n      pop\n      jump\t// out\n        /* \"#utility.yul\":15799:16094   */\n    tag_289:\n        /* \"#utility.yul\":15875:15879   */\n      0x00\n        /* \"#utility.yul\":16021:16050   */\n      tag_489\n        /* \"#utility.yul\":16046:16049   */\n      dup4\n        /* \"#utility.yul\":16040:16044   */\n      dup4\n        /* \"#utility.yul\":16021:16050   */\n      tag_288\n      jump\t// in\n    tag_489:\n        /* \"#utility.yul\":16013:16050   */\n      swap2\n      pop\n        /* \"#utility.yul\":16083:16086   */\n      dup3\n        /* \"#utility.yul\":16080:16081   */\n      0x02\n        /* \"#utility.yul\":16076:16087   */\n      mul\n        /* \"#utility.yul\":16070:16074   */\n      dup3\n        /* \"#utility.yul\":16067:16088   */\n      or\n        /* \"#utility.yul\":16059:16088   */\n      swap1\n      pop\n        /* \"#utility.yul\":15799:16094   */\n      swap3\n      swap2\n      pop\n      pop\n      jump\t// out\n        /* \"#utility.yul\":16099:17489   */\n    tag_90:\n        /* \"#utility.yul\":16214:16250   */\n      tag_491\n        /* \"#utility.yul\":16246:16249   */\n      dup3\n        /* \"#utility.yul\":16214:16250   */\n      tag_231\n      jump\t// in\n    tag_491:\n        /* \"#utility.yul\":16315:16333   */\n      0xffffffffffffffff\n        /* \"#utility.yul\":16307:16313   */\n      dup2\n        /* \"#utility.yul\":16304:16334   */\n      gt\n        /* \"#utility.yul\":16301:16357   */\n      iszero\n      tag_492\n      jumpi\n        /* \"#utility.yul\":16337:16355   */\n      tag_493\n      tag_250\n      jump\t// in\n    tag_493:\n        /* \"#utility.yul\":16301:16357   */\n    tag_492:\n        /* \"#utility.yul\":16381:16419   */\n      tag_494\n        /* \"#utility.yul\":16413:16417   */\n      dup3\n        /* \"#utility.yul\":16407:16418   */\n      sload\n        /* \"#utility.yul\":16381:16419   */\n      tag_47\n      jump\t// in\n    tag_494:\n        /* \"#utility.yul\":16466:16532   */\n      tag_495\n        /* \"#utility.yul\":16525:16531   */\n      dup3\n        /* \"#utility.yul\":16517:16523   */\n      dup3\n        /* \"#utility.yul\":16511:16515   */\n      dup6\n        /* \"#utility.yul\":16466:16532   */\n      tag_286\n      jump\t// in\n    tag_495:\n        /* \"#utility.yul\":16559:16560   */\n      0x00\n        /* \"#utility.yul\":16583:16587   */\n      0x20\n        /* \"#utility.yul\":16570:16587   */\n      swap1\n      pop\n        /* \"#utility.yul\":16615:16617   */\n      0x1f\n        /* \"#utility.yul\":16607:16613   */\n      dup4\n        /* \"#utility.yul\":16604:16618   */\n      gt\n        /* \"#utility.yul\":16632:16633   */\n      0x01\n        /* \"#utility.yul\":16627:17244   */\n      dup2\n      eq\n      tag_497\n      jumpi\n        /* \"#utility.yul\":17288:17289   */\n      0x00\n        /* \"#utility.yul\":17305:17311   */\n      dup5\n        /* \"#utility.yul\":17302:17379   */\n      iszero\n      tag_498\n      jumpi\n        /* \"#utility.yul\":17354:17363   */\n      dup3\n        /* \"#utility.yul\":17349:17352   */\n      dup8\n        /* \"#utility.yul\":17345:17364   */\n      add\n        /* \"#utility.yul\":17339:17365   */\n      mload\n        /* \"#utility.yul\":17330:17365   */\n      swap1\n      pop\n        /* \"#utility.yul\":17302:17379   */\n    tag_498:\n        /* \"#utility.yul\":17405:17472   */\n      tag_499\n        /* \"#utility.yul\":17465:17471   */\n      dup6\n        /* \"#utility.yul\":17458:17463   */\n      dup3\n        /* \"#utility.yul\":17405:17472   */\n      tag_289\n      jump\t// in\n    tag_499:\n        /* \"#utility.yul\":17399:17403   */\n      dup7\n        /* \"#utility.yul\":17392:17473   */\n      sstore\n        /* \"#utility.yul\":17261:17483   */\n      pop\n        /* \"#utility.yul\":16597:17483   */\n      jump(tag_496)\n        /* \"#utility.yul\":16627:17244   */\n    tag_497:\n        /* \"#utility.yul\":16679:16683   */\n      0x1f\n        /* \"#utility.yul\":16675:16684   */\n      not\n        /* \"#utility.yul\":16667:16673   */\n      dup5\n        /* \"#utility.yul\":16663:16685   */\n      and\n        /* \"#utility.yul\":16713:16749   */\n      tag_500\n        /* \"#utility.yul\":16744:16748   */\n      dup7\n        /* \"#utility.yul\":16713:16749   */\n      tag_275\n      jump\t// in\n    tag_500:\n        /* \"#utility.yul\":16771:16772   */\n      0x00\n        /* \"#utility.yul\":16785:16993   */\n    tag_501:\n        /* \"#utility.yul\":16799:16806   */\n      dup3\n        /* \"#utility.yul\":16796:16797   */\n      dup2\n        /* \"#utility.yul\":16793:16807   */\n      lt\n        /* \"#utility.yul\":16785:16993   */\n      iszero\n      tag_503\n      jumpi\n        /* \"#utility.yul\":16878:16887   */\n      dup5\n        /* \"#utility.yul\":16873:16876   */\n      dup10\n        /* \"#utility.yul\":16869:16888   */\n      add\n        /* \"#utility.yul\":16863:16889   */\n      mload\n        /* \"#utility.yul\":16855:16861   */\n      dup3\n        /* \"#utility.yul\":16848:16890   */\n      sstore\n        /* \"#utility.yul\":16929:16930   */\n      0x01\n        /* \"#utility.yul\":16921:16927   */\n      dup3\n        /* \"#utility.yul\":16917:16931   */\n      add\n        /* \"#utility.yul\":16907:16931   */\n      swap2\n      pop\n        /* \"#utility.yul\":16976:16978   */\n      0x20\n        /* \"#utility.yul\":16965:16974   */\n      dup6\n        /* \"#utility.yul\":16961:16979   */\n      add\n        /* \"#utility.yul\":16948:16979   */\n      swap5\n      pop\n        /* \"#utility.yul\":16822:16826   */\n      0x20\n        /* \"#utility.yul\":16819:16820   */\n      dup2\n        /* \"#utility.yul\":16815:16827   */\n      add\n        /* \"#utility.yul\":16810:16827   */\n      swap1\n      pop\n        /* \"#utility.yul\":16785:16993   */\n      jump(tag_501)\n    tag_503:\n        /* \"#utility.yul\":17021:17027   */\n      dup7\n        /* \"#utility.yul\":17012:17019   */\n      dup4\n        /* \"#utility.yul\":17009:17028   */\n      lt\n        /* \"#utility.yul\":17006:17185   */\n      iszero\n      tag_504\n      jumpi\n        /* \"#utility.yul\":17079:17088   */\n      dup5\n        /* \"#utility.yul\":17074:17077   */\n      dup10\n        /* \"#utility.yul\":17070:17089   */\n      add\n        /* \"#utility.yul\":17064:17090   */\n      mload\n        /* \"#utility.yul\":17122:17170   */\n      tag_505\n        /* \"#utility.yul\":17164:17168   */\n      0x1f\n        /* \"#utility.yul\":17156:17162   */\n      dup10\n        /* \"#utility.yul\":17152:17169   */\n      and\n        /* \"#utility.yul\":17141:17150   */\n      dup3\n        /* \"#utility.yul\":17122:17170   */\n      tag_288\n      jump\t// in\n    tag_505:\n        /* \"#utility.yul\":17114:17120   */\n      dup4\n        /* \"#utility.yul\":17107:17171   */\n      sstore\n        /* \"#utility.yul\":17029:17185   */\n      pop\n        /* \"#utility.yul\":17006:17185   */\n    tag_504:\n        /* \"#utility.yul\":17231:17232   */\n      0x01\n        /* \"#utility.yul\":17227:17228   */\n      0x02\n        /* \"#utility.yul\":17219:17225   */\n      dup9\n        /* \"#utility.yul\":17215:17229   */\n      mul\n        /* \"#utility.yul\":17211:17233   */\n      add\n        /* \"#utility.yul\":17205:17209   */\n      dup9\n        /* \"#utility.yul\":17198:17234   */\n      sstore\n        /* \"#utility.yul\":16634:17244   */\n      pop\n      pop\n      pop\n        /* \"#utility.yul\":16597:17483   */\n    tag_496:\n      pop\n        /* \"#utility.yul\":16189:17489   */\n      pop\n      pop\n      pop\n        /* \"#utility.yul\":16099:17489   */\n      pop\n      pop\n      jump\t// out\n        /* \"#utility.yul\":17495:17648   */\n    tag_290:\n        /* \"#utility.yul\":17548:17554   */\n      0x00\n        /* \"#utility.yul\":17582:17587   */\n      dup2\n        /* \"#utility.yul\":17576:17588   */\n      sload\n        /* \"#utility.yul\":17566:17588   */\n      swap1\n      pop\n        /* \"#utility.yul\":17608:17641   */\n      tag_507\n        /* \"#utility.yul\":17634:17640   */\n      dup2\n        /* \"#utility.yul\":17608:17641   */\n      tag_47\n      jump\t// in\n    tag_507:\n        /* \"#utility.yul\":17598:17641   */\n      swap1\n      pop\n        /* \"#utility.yul\":17495:17648   */\n      swap2\n      swap1\n      pop\n      jump\t// out\n        /* \"#utility.yul\":17654:17795   */\n    tag_291:\n        /* \"#utility.yul\":17703:17707   */\n      0x00\n        /* \"#utility.yul\":17726:17729   */\n      dup2\n        /* \"#utility.yul\":17718:17729   */\n      swap1\n      pop\n        /* \"#utility.yul\":17749:17752   */\n      dup2\n        /* \"#utility.yul\":17746:17747   */\n      0x00\n        /* \"#utility.yul\":17739:17753   */\n      mstore\n        /* \"#utility.yul\":17783:17787   */\n      0x20\n        /* \"#utility.yul\":17780:17781   */\n      0x00\n        /* \"#utility.yul\":17770:17788   */\n      keccak256\n        /* \"#utility.yul\":17762:17788   */\n      swap1\n      pop\n        /* \"#utility.yul\":17654:17795   */\n      swap2\n      swap1\n      pop\n      jump\t// out\n        /* \"#utility.yul\":17801:17946   */\n    tag_292:\n        /* \"#utility.yul\":17854:17858   */\n      0x00\n        /* \"#utility.yul\":17877:17880   */\n      dup2\n        /* \"#utility.yul\":17869:17880   */\n      swap1\n      pop\n        /* \"#utility.yul\":17900:17903   */\n      dup2\n        /* \"#utility.yul\":17897:17898   */\n      0x00\n        /* \"#utility.yul\":17890:17904   */\n      mstore\n        /* \"#utility.yul\":17934:17938   */\n      0x20\n        /* \"#utility.yul\":17931:17932   */\n      0x00\n        /* \"#utility.yul\":17921:17939   */\n      keccak256\n        /* \"#utility.yul\":17913:17939   */\n      swap1\n      pop\n        /* \"#utility.yul\":17801:17946   */\n      swap2\n      swap1\n      pop\n      jump\t// out\n        /* \"#utility.yul\":17952:18495   */\n    tag_293:\n        /* \"#utility.yul\":18053:18055   */\n      0x1f\n        /* \"#utility.yul\":18048:18051   */\n      dup3\n        /* \"#utility.yul\":18045:18056   */\n      gt\n        /* \"#utility.yul\":18042:18488   */\n      iszero\n      tag_511\n      jumpi\n        /* \"#utility.yul\":18087:18125   */\n      tag_512\n        /* \"#utility.yul\":18119:18124   */\n      dup2\n        /* \"#utility.yul\":18087:18125   */\n      tag_291\n      jump\t// in\n    tag_512:\n        /* \"#utility.yul\":18171:18200   */\n      tag_513\n        /* \"#utility.yul\":18189:18199   */\n      dup5\n        /* \"#utility.yul\":18171:18200   */\n      tag_276\n      jump\t// in\n    tag_513:\n        /* \"#utility.yul\":18161:18169   */\n      dup2\n        /* \"#utility.yul\":18157:18201   */\n      add\n        /* \"#utility.yul\":18354:18356   */\n      0x20\n        /* \"#utility.yul\":18342:18352   */\n      dup6\n        /* \"#utility.yul\":18339:18357   */\n      lt\n        /* \"#utility.yul\":18336:18385   */\n      iszero\n      tag_514\n      jumpi\n        /* \"#utility.yul\":18375:18383   */\n      dup2\n        /* \"#utility.yul\":18360:18383   */\n      swap1\n      pop\n        /* \"#utility.yul\":18336:18385   */\n    tag_514:\n        /* \"#utility.yul\":18398:18478   */\n      tag_515\n        /* \"#utility.yul\":18454:18476   */\n      tag_516\n        /* \"#utility.yul\":18472:18475   */\n      dup6\n        /* \"#utility.yul\":18454:18476   */\n      tag_276\n      jump\t// in\n    tag_516:\n        /* \"#utility.yul\":18444:18452   */\n      dup4\n        /* \"#utility.yul\":18440:18477   */\n      add\n        /* \"#utility.yul\":18427:18438   */\n      dup3\n        /* \"#utility.yul\":18398:18478   */\n      tag_285\n      jump\t// in\n    tag_515:\n        /* \"#utility.yul\":18057:18488   */\n      pop\n      pop\n        /* \"#utility.yul\":18042:18488   */\n    tag_511:\n        /* \"#utility.yul\":17952:18495   */\n      pop\n      pop\n      pop\n      jump\t// out\n        /* \"#utility.yul\":18501:19964   */\n    tag_92:\n        /* \"#utility.yul\":18616:18619   */\n      dup2\n        /* \"#utility.yul\":18610:18614   */\n      dup2\n        /* \"#utility.yul\":18607:18620   */\n      sub\n        /* \"#utility.yul\":18604:18630   */\n      tag_518\n      jumpi\n        /* \"#utility.yul\":18623:18628   */\n      pop\n      pop\n      jump(tag_517)\n        /* \"#utility.yul\":18604:18630   */\n    tag_518:\n        /* \"#utility.yul\":18654:18692   */\n      tag_519\n        /* \"#utility.yul\":18688:18691   */\n      dup3\n        /* \"#utility.yul\":18654:18692   */\n      tag_290\n      jump\t// in\n    tag_519:\n        /* \"#utility.yul\":18757:18775   */\n      0xffffffffffffffff\n        /* \"#utility.yul\":18749:18755   */\n      dup2\n        /* \"#utility.yul\":18746:18776   */\n      gt\n        /* \"#utility.yul\":18743:18799   */\n      iszero\n      tag_520\n      jumpi\n        /* \"#utility.yul\":18779:18797   */\n      tag_521\n      tag_250\n      jump\t// in\n    tag_521:\n        /* \"#utility.yul\":18743:18799   */\n    tag_520:\n        /* \"#utility.yul\":18823:18861   */\n      tag_522\n        /* \"#utility.yul\":18855:18859   */\n      dup3\n        /* \"#utility.yul\":18849:18860   */\n      sload\n        /* \"#utility.yul\":18823:18861   */\n      tag_47\n      jump\t// in\n    tag_522:\n        /* \"#utility.yul\":18908:18975   */\n      tag_523\n        /* \"#utility.yul\":18968:18974   */\n      dup3\n        /* \"#utility.yul\":18960:18966   */\n      dup3\n        /* \"#utility.yul\":18954:18958   */\n      dup6\n        /* \"#utility.yul\":18908:18975   */\n      tag_293\n      jump\t// in\n    tag_523:\n        /* \"#utility.yul\":19002:19003   */\n      0x00\n        /* \"#utility.yul\":19031:19033   */\n      0x1f\n        /* \"#utility.yul\":19023:19029   */\n      dup4\n        /* \"#utility.yul\":19020:19034   */\n      gt\n        /* \"#utility.yul\":19048:19049   */\n      0x01\n        /* \"#utility.yul\":19043:19719   */\n      dup2\n      eq\n      tag_525\n      jumpi\n        /* \"#utility.yul\":19763:19764   */\n      0x00\n        /* \"#utility.yul\":19780:19786   */\n      dup5\n        /* \"#utility.yul\":19777:19854   */\n      iszero\n      tag_526\n      jumpi\n        /* \"#utility.yul\":19829:19838   */\n      dup3\n        /* \"#utility.yul\":19824:19827   */\n      dup8\n        /* \"#utility.yul\":19820:19839   */\n      add\n        /* \"#utility.yul\":19814:19840   */\n      sload\n        /* \"#utility.yul\":19805:19840   */\n      swap1\n      pop\n        /* \"#utility.yul\":19777:19854   */\n    tag_526:\n        /* \"#utility.yul\":19880:19947   */\n      tag_527\n        /* \"#utility.yul\":19940:19946   */\n      dup6\n        /* \"#utility.yul\":19933:19938   */\n      dup3\n        /* \"#utility.yul\":19880:19947   */\n      tag_289\n      jump\t// in\n    tag_527:\n        /* \"#utility.yul\":19874:19878   */\n      dup7\n        /* \"#utility.yul\":19867:19948   */\n      sstore\n        /* \"#utility.yul\":19736:19958   */\n      pop\n        /* \"#utility.yul\":19013:19958   */\n      jump(tag_524)\n        /* \"#utility.yul\":19043:19719   */\n    tag_525:\n        /* \"#utility.yul\":19095:19099   */\n      0x1f\n        /* \"#utility.yul\":19091:19100   */\n      not\n        /* \"#utility.yul\":19083:19089   */\n      dup5\n        /* \"#utility.yul\":19079:19101   */\n      and\n        /* \"#utility.yul\":19121:19161   */\n      tag_528\n        /* \"#utility.yul\":19157:19160   */\n      dup8\n        /* \"#utility.yul\":19121:19161   */\n      tag_292\n      jump\t// in\n    tag_528:\n        /* \"#utility.yul\":19114:19161   */\n      swap7\n      pop\n        /* \"#utility.yul\":19188:19225   */\n      tag_529\n        /* \"#utility.yul\":19220:19224   */\n      dup7\n        /* \"#utility.yul\":19188:19225   */\n      tag_291\n      jump\t// in\n    tag_529:\n        /* \"#utility.yul\":19247:19248   */\n      0x00\n        /* \"#utility.yul\":19261:19468   */\n    tag_530:\n        /* \"#utility.yul\":19275:19282   */\n      dup3\n        /* \"#utility.yul\":19272:19273   */\n      dup2\n        /* \"#utility.yul\":19269:19283   */\n      lt\n        /* \"#utility.yul\":19261:19468   */\n      iszero\n      tag_532\n      jumpi\n        /* \"#utility.yul\":19354:19363   */\n      dup5\n        /* \"#utility.yul\":19349:19352   */\n      dup10\n        /* \"#utility.yul\":19345:19364   */\n      add\n        /* \"#utility.yul\":19339:19365   */\n      sload\n        /* \"#utility.yul\":19331:19337   */\n      dup3\n        /* \"#utility.yul\":19324:19366   */\n      sstore\n        /* \"#utility.yul\":19405:19406   */\n      0x01\n        /* \"#utility.yul\":19397:19403   */\n      dup3\n        /* \"#utility.yul\":19393:19407   */\n      add\n        /* \"#utility.yul\":19383:19407   */\n      swap2\n      pop\n        /* \"#utility.yul\":19452:19453   */\n      0x01\n        /* \"#utility.yul\":19441:19450   */\n      dup6\n        /* \"#utility.yul\":19437:19454   */\n      add\n        /* \"#utility.yul\":19424:19454   */\n      swap5\n      pop\n        /* \"#utility.yul\":19298:19302   */\n      0x20\n        /* \"#utility.yul\":19295:19296   */\n      dup2\n        /* \"#utility.yul\":19291:19303   */\n      add\n        /* \"#utility.yul\":19286:19303   */\n      swap1\n      pop\n        /* \"#utility.yul\":19261:19468   */\n      jump(tag_530)\n    tag_532:\n        /* \"#utility.yul\":19496:19502   */\n      dup7\n        /* \"#utility.yul\":19487:19494   */\n      dup4\n        /* \"#utility.yul\":19484:19503   */\n      lt\n        /* \"#utility.yul\":19481:19660   */\n      iszero\n      tag_533\n      jumpi\n        /* \"#utility.yul\":19554:19563   */\n      dup5\n        /* \"#utility.yul\":19549:19552   */\n      dup10\n        /* \"#utility.yul\":19545:19564   */\n      add\n        /* \"#utility.yul\":19539:19565   */\n      sload\n        /* \"#utility.yul\":19597:19645   */\n      tag_534\n        /* \"#utility.yul\":19639:19643   */\n      0x1f\n        /* \"#utility.yul\":19631:19637   */\n      dup10\n        /* \"#utility.yul\":19627:19644   */\n      and\n        /* \"#utility.yul\":19616:19625   */\n      dup3\n        /* \"#utility.yul\":19597:19645   */\n      tag_288\n      jump\t// in\n    tag_534:\n        /* \"#utility.yul\":19589:19595   */\n      dup4\n        /* \"#utility.yul\":19582:19646   */\n      sstore\n        /* \"#utility.yul\":19504:19660   */\n      pop\n        /* \"#utility.yul\":19481:19660   */\n    tag_533:\n        /* \"#utility.yul\":19706:19707   */\n      0x01\n        /* \"#utility.yul\":19702:19703   */\n      0x02\n        /* \"#utility.yul\":19694:19700   */\n      dup9\n        /* \"#utility.yul\":19690:19704   */\n      mul\n        /* \"#utility.yul\":19686:19708   */\n      add\n        /* \"#utility.yul\":19680:19684   */\n      dup9\n        /* \"#utility.yul\":19673:19709   */\n      sstore\n        /* \"#utility.yul\":19050:19719   */\n      pop\n      pop\n      pop\n        /* \"#utility.yul\":19013:19958   */\n    tag_524:\n      pop\n        /* \"#utility.yul\":18594:19964   */\n      pop\n      pop\n      pop\n        /* \"#utility.yul\":18501:19964   */\n      pop\n      pop\n    tag_517:\n      jump\t// out\n        /* \"#utility.yul\":19970:20142   */\n    tag_294:\n        /* \"#utility.yul\":20110:20134   */\n      0x4f6e6c792063616c6c61626c65206279206f776e657200000000000000000000\n        /* \"#utility.yul\":20106:20107   */\n      0x00\n        /* \"#utility.yul\":20098:20104   */\n      dup3\n        /* \"#utility.yul\":20094:20108   */\n      add\n        /* \"#utility.yul\":20087:20135   */\n      mstore\n        /* \"#utility.yul\":19970:20142   */\n      pop\n      jump\t// out\n        /* \"#utility.yul\":20148:20514   */\n    tag_295:\n        /* \"#utility.yul\":20290:20293   */\n      0x00\n        /* \"#utility.yul\":20311:20378   */\n      tag_537\n        /* \"#utility.yul\":20375:20377   */\n      0x16\n        /* \"#utility.yul\":20370:20373   */\n      dup4\n        /* \"#utility.yul\":20311:20378   */\n      tag_237\n      jump\t// in\n    tag_537:\n        /* \"#utility.yul\":20304:20378   */\n      swap2\n      pop\n        /* \"#utility.yul\":20387:20480   */\n      tag_538\n        /* \"#utility.yul\":20476:20479   */\n      dup3\n        /* \"#utility.yul\":20387:20480   */\n      tag_294\n      jump\t// in\n    tag_538:\n        /* \"#utility.yul\":20505:20507   */\n      0x20\n        /* \"#utility.yul\":20500:20503   */\n      dup3\n        /* \"#utility.yul\":20496:20508   */\n      add\n        /* \"#utility.yul\":20489:20508   */\n      swap1\n      pop\n        /* \"#utility.yul\":20148:20514   */\n      swap2\n      swap1\n      pop\n      jump\t// out\n        /* \"#utility.yul\":20520:20939   */\n    tag_114:\n        /* \"#utility.yul\":20686:20690   */\n      0x00\n        /* \"#utility.yul\":20724:20726   */\n      0x20\n        /* \"#utility.yul\":20713:20722   */\n      dup3\n        /* \"#utility.yul\":20709:20727   */\n      add\n        /* \"#utility.yul\":20701:20727   */\n      swap1\n      pop\n        /* \"#utility.yul\":20773:20782   */\n      dup2\n        /* \"#utility.yul\":20767:20771   */\n      dup2\n        /* \"#utility.yul\":20763:20783   */\n      sub\n        /* \"#utility.yul\":20759:20760   */\n      0x00\n        /* \"#utility.yul\":20748:20757   */\n      dup4\n        /* \"#utility.yul\":20744:20761   */\n      add\n        /* \"#utility.yul\":20737:20784   */\n      mstore\n        /* \"#utility.yul\":20801:20932   */\n      tag_540\n        /* \"#utility.yul\":20927:20931   */\n      dup2\n        /* \"#utility.yul\":20801:20932   */\n      tag_295\n      jump\t// in\n    tag_540:\n        /* \"#utility.yul\":20793:20932   */\n      swap1\n      pop\n        /* \"#utility.yul\":20520:20939   */\n      swap2\n      swap1\n      pop\n      jump\t// out\n        /* \"#utility.yul\":20945:21118   */\n    tag_296:\n        /* \"#utility.yul\":21085:21110   */\n      0x43616e6e6f74207472616e7366657220746f2073656c66000000000000000000\n        /* \"#utility.yul\":21081:21082   */\n      0x00\n        /* \"#utility.yul\":21073:21079   */\n      dup3\n        /* \"#utility.yul\":21069:21083   */\n      add\n        /* \"#utility.yul\":21062:21111   */\n      mstore\n        /* \"#utility.yul\":20945:21118   */\n      pop\n      jump\t// out\n        /* \"#utility.yul\":21124:21490   */\n    tag_297:\n        /* \"#utility.yul\":21266:21269   */\n      0x00\n        /* \"#utility.yul\":21287:21354   */\n      tag_543\n        /* \"#utility.yul\":21351:21353   */\n      0x17\n        /* \"#utility.yul\":21346:21349   */\n      dup4\n        /* \"#utility.yul\":21287:21354   */\n      tag_237\n      jump\t// in\n    tag_543:\n        /* \"#utility.yul\":21280:21354   */\n      swap2\n      pop\n        /* \"#utility.yul\":21363:21456   */\n      tag_544\n        /* \"#utility.yul\":21452:21455   */\n      dup3\n        /* \"#utility.yul\":21363:21456   */\n      tag_296\n      jump\t// in\n    tag_544:\n        /* \"#utility.yul\":21481:21483   */\n      0x20\n        /* \"#utility.yul\":21476:21479   */\n      dup3\n        /* \"#utility.yul\":21472:21484   */\n      add\n        /* \"#utility.yul\":21465:21484   */\n      swap1\n      pop\n        /* \"#utility.yul\":21124:21490   */\n      swap2\n      swap1\n      pop\n      jump\t// out\n        /* \"#utility.yul\":21496:21915   */\n    tag_119:\n        /* \"#utility.yul\":21662:21666   */\n      0x00\n        /* \"#utility.yul\":21700:21702   */\n      0x20\n        /* \"#utility.yul\":21689:21698   */\n      dup3\n        /* \"#utility.yul\":21685:21703   */\n      add\n        /* \"#utility.yul\":21677:21703   */\n      swap1\n      pop\n        /* \"#utility.yul\":21749:21758   */\n      dup2\n        /* \"#utility.yul\":21743:21747   */\n      dup2\n        /* \"#utility.yul\":21739:21759   */\n      sub\n        /* \"#utility.yul\":21735:21736   */\n      0x00\n        /* \"#utility.yul\":21724:21733   */\n      dup4\n        /* \"#utility.yul\":21720:21737   */\n      add\n        /* \"#utility.yul\":21713:21760   */\n      mstore\n        /* \"#utility.yul\":21777:21908   */\n      tag_546\n        /* \"#utility.yul\":21903:21907   */\n      dup2\n        /* \"#utility.yul\":21777:21908   */\n      tag_297\n      jump\t// in\n    tag_546:\n        /* \"#utility.yul\":21769:21908   */\n      swap1\n      pop\n        /* \"#utility.yul\":21496:21915   */\n      swap2\n      swap1\n      pop\n      jump\t// out\n        /* \"#utility.yul\":21921:22101   */\n    tag_298:\n        /* \"#utility.yul\":21969:22046   */\n      0x4e487b7100000000000000000000000000000000000000000000000000000000\n        /* \"#utility.yul\":21966:21967   */\n      0x00\n        /* \"#utility.yul\":21959:22047   */\n      mstore\n        /* \"#utility.yul\":22066:22070   */\n      0x11\n        /* \"#utility.yul\":22063:22064   */\n      0x04\n        /* \"#utility.yul\":22056:22071   */\n      mstore\n        /* \"#utility.yul\":22090:22094   */\n      0x24\n        /* \"#utility.yul\":22087:22088   */\n      0x00\n        /* \"#utility.yul\":22080:22095   */\n      revert\n        /* \"#utility.yul\":22107:22298   */\n    tag_131:\n        /* \"#utility.yul\":22147:22150   */\n      0x00\n        /* \"#utility.yul\":22166:22186   */\n      tag_549\n        /* \"#utility.yul\":22184:22185   */\n      dup3\n        /* \"#utility.yul\":22166:22186   */\n      tag_262\n      jump\t// in\n    tag_549:\n        /* \"#utility.yul\":22161:22186   */\n      swap2\n      pop\n        /* \"#utility.yul\":22200:22220   */\n      tag_550\n        /* \"#utility.yul\":22218:22219   */\n      dup4\n        /* \"#utility.yul\":22200:22220   */\n      tag_262\n      jump\t// in\n    tag_550:\n        /* \"#utility.yul\":22195:22220   */\n      swap3\n      pop\n        /* \"#utility.yul\":22243:22244   */\n      dup3\n        /* \"#utility.yul\":22240:22241   */\n      dup3\n        /* \"#utility.yul\":22236:22245   */\n      add\n        /* \"#utility.yul\":22229:22245   */\n      swap1\n      pop\n        /* \"#utility.yul\":22264:22267   */\n      dup1\n        /* \"#utility.yul\":22261:22262   */\n      dup3\n        /* \"#utility.yul\":22258:22268   */\n      gt\n        /* \"#utility.yul\":22255:22291   */\n      iszero\n      tag_551\n      jumpi\n        /* \"#utility.yul\":22271:22289   */\n      tag_552\n      tag_298\n      jump\t// in\n    tag_552:\n        /* \"#utility.yul\":22255:22291   */\n    tag_551:\n        /* \"#utility.yul\":22107:22298   */\n      swap3\n      swap2\n      pop\n      pop\n      jump\t// out\n        /* \"#utility.yul\":22304:22422   */\n    tag_299:\n        /* \"#utility.yul\":22391:22415   */\n      tag_554\n        /* \"#utility.yul\":22409:22414   */\n      dup2\n        /* \"#utility.yul\":22391:22415   */\n      tag_245\n      jump\t// in\n    tag_554:\n        /* \"#utility.yul\":22386:22389   */\n      dup3\n        /* \"#utility.yul\":22379:22416   */\n      mstore\n        /* \"#utility.yul\":22304:22422   */\n      pop\n      pop\n      jump\t// out\n        /* \"#utility.yul\":22428:22577   */\n    tag_300:\n        /* \"#utility.yul\":22464:22471   */\n      0x00\n        /* \"#utility.yul\":22504:22570   */\n      0xffffffff00000000000000000000000000000000000000000000000000000000\n        /* \"#utility.yul\":22497:22502   */\n      dup3\n        /* \"#utility.yul\":22493:22571   */\n      and\n        /* \"#utility.yul\":22482:22571   */\n      swap1\n      pop\n        /* \"#utility.yul\":22428:22577   */\n      swap2\n      swap1\n      pop\n      jump\t// out\n        /* \"#utility.yul\":22583:22698   */\n    tag_301:\n        /* \"#utility.yul\":22668:22691   */\n      tag_557\n        /* \"#utility.yul\":22685:22690   */\n      dup2\n        /* \"#utility.yul\":22668:22691   */\n      tag_300\n      jump\t// in\n    tag_557:\n        /* \"#utility.yul\":22663:22666   */\n      dup3\n        /* \"#utility.yul\":22656:22692   */\n      mstore\n        /* \"#utility.yul\":22583:22698   */\n      pop\n      pop\n      jump\t// out\n        /* \"#utility.yul\":22704:23784   */\n    tag_133:\n        /* \"#utility.yul\":23009:23013   */\n      0x00\n        /* \"#utility.yul\":23047:23050   */\n      0x0100\n        /* \"#utility.yul\":23036:23045   */\n      dup3\n        /* \"#utility.yul\":23032:23051   */\n      add\n        /* \"#utility.yul\":23024:23051   */\n      swap1\n      pop\n        /* \"#utility.yul\":23061:23132   */\n      tag_559\n        /* \"#utility.yul\":23129:23130   */\n      0x00\n        /* \"#utility.yul\":23118:23127   */\n      dup4\n        /* \"#utility.yul\":23114:23131   */\n      add\n        /* \"#utility.yul\":23105:23111   */\n      dup12\n        /* \"#utility.yul\":23061:23132   */\n      tag_241\n      jump\t// in\n    tag_559:\n        /* \"#utility.yul\":23142:23214   */\n      tag_560\n        /* \"#utility.yul\":23210:23212   */\n      0x20\n        /* \"#utility.yul\":23199:23208   */\n      dup4\n        /* \"#utility.yul\":23195:23213   */\n      add\n        /* \"#utility.yul\":23186:23192   */\n      dup11\n        /* \"#utility.yul\":23142:23214   */\n      tag_265\n      jump\t// in\n    tag_560:\n        /* \"#utility.yul\":23224:23296   */\n      tag_561\n        /* \"#utility.yul\":23292:23294   */\n      0x40\n        /* \"#utility.yul\":23281:23290   */\n      dup4\n        /* \"#utility.yul\":23277:23295   */\n      add\n        /* \"#utility.yul\":23268:23274   */\n      dup10\n        /* \"#utility.yul\":23224:23296   */\n      tag_299\n      jump\t// in\n    tag_561:\n        /* \"#utility.yul\":23306:23378   */\n      tag_562\n        /* \"#utility.yul\":23374:23376   */\n      0x60\n        /* \"#utility.yul\":23363:23372   */\n      dup4\n        /* \"#utility.yul\":23359:23377   */\n      add\n        /* \"#utility.yul\":23350:23356   */\n      dup9\n        /* \"#utility.yul\":23306:23378   */\n      tag_241\n      jump\t// in\n    tag_562:\n        /* \"#utility.yul\":23388:23459   */\n      tag_563\n        /* \"#utility.yul\":23454:23457   */\n      0x80\n        /* \"#utility.yul\":23443:23452   */\n      dup4\n        /* \"#utility.yul\":23439:23458   */\n      add\n        /* \"#utility.yul\":23430:23436   */\n      dup8\n        /* \"#utility.yul\":23388:23459   */\n      tag_301\n      jump\t// in\n    tag_563:\n        /* \"#utility.yul\":23469:23542   */\n      tag_564\n        /* \"#utility.yul\":23537:23540   */\n      0xa0\n        /* \"#utility.yul\":23526:23535   */\n      dup4\n        /* \"#utility.yul\":23522:23541   */\n      add\n        /* \"#utility.yul\":23513:23519   */\n      dup7\n        /* \"#utility.yul\":23469:23542   */\n      tag_265\n      jump\t// in\n    tag_564:\n        /* \"#utility.yul\":23552:23625   */\n      tag_565\n        /* \"#utility.yul\":23620:23623   */\n      0xc0\n        /* \"#utility.yul\":23609:23618   */\n      dup4\n        /* \"#utility.yul\":23605:23624   */\n      add\n        /* \"#utility.yul\":23596:23602   */\n      dup6\n        /* \"#utility.yul\":23552:23625   */\n      tag_265\n      jump\t// in\n    tag_565:\n        /* \"#utility.yul\":23673:23682   */\n      dup2\n        /* \"#utility.yul\":23667:23671   */\n      dup2\n        /* \"#utility.yul\":23663:23683   */\n      sub\n        /* \"#utility.yul\":23657:23660   */\n      0xe0\n        /* \"#utility.yul\":23646:23655   */\n      dup4\n        /* \"#utility.yul\":23642:23661   */\n      add\n        /* \"#utility.yul\":23635:23684   */\n      mstore\n        /* \"#utility.yul\":23701:23777   */\n      tag_566\n        /* \"#utility.yul\":23772:23776   */\n      dup2\n        /* \"#utility.yul\":23763:23769   */\n      dup5\n        /* \"#utility.yul\":23701:23777   */\n      tag_235\n      jump\t// in\n    tag_566:\n        /* \"#utility.yul\":23693:23777   */\n      swap1\n      pop\n        /* \"#utility.yul\":22704:23784   */\n      swap10\n      swap9\n      pop\n      pop\n      pop\n      pop\n      pop\n      pop\n      pop\n      pop\n      pop\n      jump\t// out\n        /* \"#utility.yul\":23790:23970   */\n    tag_302:\n        /* \"#utility.yul\":23838:23915   */\n      0x4e487b7100000000000000000000000000000000000000000000000000000000\n        /* \"#utility.yul\":23835:23836   */\n      0x00\n        /* \"#utility.yul\":23828:23916   */\n      mstore\n        /* \"#utility.yul\":23935:23939   */\n      0x12\n        /* \"#utility.yul\":23932:23933   */\n      0x04\n        /* \"#utility.yul\":23925:23940   */\n      mstore\n        /* \"#utility.yul\":23959:23963   */\n      0x24\n        /* \"#utility.yul\":23956:23957   */\n      0x00\n        /* \"#utility.yul\":23949:23964   */\n      revert\n        /* \"#utility.yul\":23976:24152   */\n    tag_140:\n        /* \"#utility.yul\":24008:24009   */\n      0x00\n        /* \"#utility.yul\":24025:24045   */\n      tag_569\n        /* \"#utility.yul\":24043:24044   */\n      dup3\n        /* \"#utility.yul\":24025:24045   */\n      tag_262\n      jump\t// in\n    tag_569:\n        /* \"#utility.yul\":24020:24045   */\n      swap2\n      pop\n        /* \"#utility.yul\":24059:24079   */\n      tag_570\n        /* \"#utility.yul\":24077:24078   */\n      dup4\n        /* \"#utility.yul\":24059:24079   */\n      tag_262\n      jump\t// in\n    tag_570:\n        /* \"#utility.yul\":24054:24079   */\n      swap3\n      pop\n        /* \"#utility.yul\":24098:24099   */\n      dup3\n        /* \"#utility.yul\":24088:24123   */\n      tag_571\n      jumpi\n        /* \"#utility.yul\":24103:24121   */\n      tag_572\n      tag_302\n      jump\t// in\n    tag_572:\n        /* \"#utility.yul\":24088:24123   */\n    tag_571:\n        /* \"#utility.yul\":24144:24145   */\n      dup3\n        /* \"#utility.yul\":24141:24142   */\n      dup3\n        /* \"#utility.yul\":24137:24146   */\n      mod\n        /* \"#utility.yul\":24132:24146   */\n      swap1\n      pop\n        /* \"#utility.yul\":23976:24152   */\n      swap3\n      swap2\n      pop\n      pop\n      jump\t// out\n        /* \"#utility.yul\":24158:24352   */\n    tag_144:\n        /* \"#utility.yul\":24198:24202   */\n      0x00\n        /* \"#utility.yul\":24218:24238   */\n      tag_574\n        /* \"#utility.yul\":24236:24237   */\n      dup3\n        /* \"#utility.yul\":24218:24238   */\n      tag_262\n      jump\t// in\n    tag_574:\n        /* \"#utility.yul\":24213:24238   */\n      swap2\n      pop\n        /* \"#utility.yul\":24252:24272   */\n      tag_575\n        /* \"#utility.yul\":24270:24271   */\n      dup4\n        /* \"#utility.yul\":24252:24272   */\n      tag_262\n      jump\t// in\n    tag_575:\n        /* \"#utility.yul\":24247:24272   */\n      swap3\n      pop\n        /* \"#utility.yul\":24296:24297   */\n      dup3\n        /* \"#utility.yul\":24293:24294   */\n      dup3\n        /* \"#utility.yul\":24289:24298   */\n      sub\n        /* \"#utility.yul\":24281:24298   */\n      swap1\n      pop\n        /* \"#utility.yul\":24320:24321   */\n      dup2\n        /* \"#utility.yul\":24314:24318   */\n      dup2\n        /* \"#utility.yul\":24311:24322   */\n      gt\n        /* \"#utility.yul\":24308:24345   */\n      iszero\n      tag_576\n      jumpi\n        /* \"#utility.yul\":24325:24343   */\n      tag_577\n      tag_298\n      jump\t// in\n    tag_577:\n        /* \"#utility.yul\":24308:24345   */\n    tag_576:\n        /* \"#utility.yul\":24158:24352   */\n      swap3\n      swap2\n      pop\n      pop\n      jump\t// out\n        /* \"#utility.yul\":24358:24500   */\n    tag_303:\n        /* \"#utility.yul\":24408:24417   */\n      0x00\n        /* \"#utility.yul\":24441:24494   */\n      tag_579\n        /* \"#utility.yul\":24459:24493   */\n      tag_580\n        /* \"#utility.yul\":24468:24492   */\n      tag_581\n        /* \"#utility.yul\":24486:24491   */\n      dup5\n        /* \"#utility.yul\":24468:24492   */\n      tag_239\n      jump\t// in\n    tag_581:\n        /* \"#utility.yul\":24459:24493   */\n      tag_279\n      jump\t// in\n    tag_580:\n        /* \"#utility.yul\":24441:24494   */\n      tag_239\n      jump\t// in\n    tag_579:\n        /* \"#utility.yul\":24428:24494   */\n      swap1\n      pop\n        /* \"#utility.yul\":24358:24500   */\n      swap2\n      swap1\n      pop\n      jump\t// out\n        /* \"#utility.yul\":24506:24632   */\n    tag_304:\n        /* \"#utility.yul\":24556:24565   */\n      0x00\n        /* \"#utility.yul\":24589:24626   */\n      tag_583\n        /* \"#utility.yul\":24620:24625   */\n      dup3\n        /* \"#utility.yul\":24589:24626   */\n      tag_303\n      jump\t// in\n    tag_583:\n        /* \"#utility.yul\":24576:24626   */\n      swap1\n      pop\n        /* \"#utility.yul\":24506:24632   */\n      swap2\n      swap1\n      pop\n      jump\t// out\n        /* \"#utility.yul\":24638:24787   */\n    tag_305:\n        /* \"#utility.yul\":24711:24720   */\n      0x00\n        /* \"#utility.yul\":24744:24781   */\n      tag_585\n        /* \"#utility.yul\":24775:24780   */\n      dup3\n        /* \"#utility.yul\":24744:24781   */\n      tag_304\n      jump\t// in\n    tag_585:\n        /* \"#utility.yul\":24731:24781   */\n      swap1\n      pop\n        /* \"#utility.yul\":24638:24787   */\n      swap2\n      swap1\n      pop\n      jump\t// out\n        /* \"#utility.yul\":24793:24887   */\n    tag_306:\n        /* \"#utility.yul\":24826:24834   */\n      0x00\n        /* \"#utility.yul\":24874:24879   */\n      dup2\n        /* \"#utility.yul\":24870:24872   */\n      0x60\n        /* \"#utility.yul\":24866:24880   */\n      shl\n        /* \"#utility.yul\":24845:24880   */\n      swap1\n      pop\n        /* \"#utility.yul\":24793:24887   */\n      swap2\n      swap1\n      pop\n      jump\t// out\n        /* \"#utility.yul\":24893:24987   */\n    tag_307:\n        /* \"#utility.yul\":24932:24939   */\n      0x00\n        /* \"#utility.yul\":24961:24981   */\n      tag_588\n        /* \"#utility.yul\":24975:24980   */\n      dup3\n        /* \"#utility.yul\":24961:24981   */\n      tag_306\n      jump\t// in\n    tag_588:\n        /* \"#utility.yul\":24950:24981   */\n      swap1\n      pop\n        /* \"#utility.yul\":24893:24987   */\n      swap2\n      swap1\n      pop\n      jump\t// out\n        /* \"#utility.yul\":24993:25093   */\n    tag_308:\n        /* \"#utility.yul\":25032:25039   */\n      0x00\n        /* \"#utility.yul\":25061:25087   */\n      tag_590\n        /* \"#utility.yul\":25081:25086   */\n      dup3\n        /* \"#utility.yul\":25061:25087   */\n      tag_307\n      jump\t// in\n    tag_590:\n        /* \"#utility.yul\":25050:25087   */\n      swap1\n      pop\n        /* \"#utility.yul\":24993:25093   */\n      swap2\n      swap1\n      pop\n      jump\t// out\n        /* \"#utility.yul\":25099:25315   */\n    tag_309:\n        /* \"#utility.yul\":25227:25308   */\n      tag_592\n        /* \"#utility.yul\":25247:25307   */\n      tag_593\n        /* \"#utility.yul\":25301:25306   */\n      dup3\n        /* \"#utility.yul\":25247:25307   */\n      tag_305\n      jump\t// in\n    tag_593:\n        /* \"#utility.yul\":25227:25308   */\n      tag_308\n      jump\t// in\n    tag_592:\n        /* \"#utility.yul\":25222:25225   */\n      dup3\n        /* \"#utility.yul\":25215:25309   */\n      mstore\n        /* \"#utility.yul\":25099:25315   */\n      pop\n      pop\n      jump\t// out\n        /* \"#utility.yul\":25321:25400   */\n    tag_310:\n        /* \"#utility.yul\":25360:25367   */\n      0x00\n        /* \"#utility.yul\":25389:25394   */\n      dup2\n        /* \"#utility.yul\":25378:25394   */\n      swap1\n      pop\n        /* \"#utility.yul\":25321:25400   */\n      swap2\n      swap1\n      pop\n      jump\t// out\n        /* \"#utility.yul\":25406:25563   */\n    tag_311:\n        /* \"#utility.yul\":25511:25556   */\n      tag_596\n        /* \"#utility.yul\":25531:25555   */\n      tag_597\n        /* \"#utility.yul\":25549:25554   */\n      dup3\n        /* \"#utility.yul\":25531:25555   */\n      tag_262\n      jump\t// in\n    tag_597:\n        /* \"#utility.yul\":25511:25556   */\n      tag_310\n      jump\t// in\n    tag_596:\n        /* \"#utility.yul\":25506:25509   */\n      dup3\n        /* \"#utility.yul\":25499:25557   */\n      mstore\n        /* \"#utility.yul\":25406:25563   */\n      pop\n      pop\n      jump\t// out\n        /* \"#utility.yul\":25569:26012   */\n    tag_172:\n        /* \"#utility.yul\":25732:25735   */\n      0x00\n        /* \"#utility.yul\":25747:25845   */\n      tag_599\n        /* \"#utility.yul\":25841:25844   */\n      dup3\n        /* \"#utility.yul\":25832:25838   */\n      dup6\n        /* \"#utility.yul\":25747:25845   */\n      tag_309\n      jump\t// in\n    tag_599:\n        /* \"#utility.yul\":25870:25872   */\n      0x14\n        /* \"#utility.yul\":25865:25868   */\n      dup3\n        /* \"#utility.yul\":25861:25873   */\n      add\n        /* \"#utility.yul\":25854:25873   */\n      swap2\n      pop\n        /* \"#utility.yul\":25883:25958   */\n      tag_600\n        /* \"#utility.yul\":25954:25957   */\n      dup3\n        /* \"#utility.yul\":25945:25951   */\n      dup5\n        /* \"#utility.yul\":25883:25958   */\n      tag_311\n      jump\t// in\n    tag_600:\n        /* \"#utility.yul\":25983:25985   */\n      0x20\n        /* \"#utility.yul\":25978:25981   */\n      dup3\n        /* \"#utility.yul\":25974:25986   */\n      add\n        /* \"#utility.yul\":25967:25986   */\n      swap2\n      pop\n        /* \"#utility.yul\":26003:26006   */\n      dup2\n        /* \"#utility.yul\":25996:26006   */\n      swap1\n      pop\n        /* \"#utility.yul\":25569:26012   */\n      swap4\n      swap3\n      pop\n      pop\n      pop\n      jump\t// out\n        /* \"#utility.yul\":26018:26547   */\n    tag_174:\n        /* \"#utility.yul\":26185:26189   */\n      0x00\n        /* \"#utility.yul\":26223:26225   */\n      0x60\n        /* \"#utility.yul\":26212:26221   */\n      dup3\n        /* \"#utility.yul\":26208:26226   */\n      add\n        /* \"#utility.yul\":26200:26226   */\n      swap1\n      pop\n        /* \"#utility.yul\":26236:26307   */\n      tag_602\n        /* \"#utility.yul\":26304:26305   */\n      0x00\n        /* \"#utility.yul\":26293:26302   */\n      dup4\n        /* \"#utility.yul\":26289:26306   */\n      add\n        /* \"#utility.yul\":26280:26286   */\n      dup7\n        /* \"#utility.yul\":26236:26307   */\n      tag_241\n      jump\t// in\n    tag_602:\n        /* \"#utility.yul\":26317:26389   */\n      tag_603\n        /* \"#utility.yul\":26385:26387   */\n      0x20\n        /* \"#utility.yul\":26374:26383   */\n      dup4\n        /* \"#utility.yul\":26370:26388   */\n      add\n        /* \"#utility.yul\":26361:26367   */\n      dup6\n        /* \"#utility.yul\":26317:26389   */\n      tag_265\n      jump\t// in\n    tag_603:\n        /* \"#utility.yul\":26436:26445   */\n      dup2\n        /* \"#utility.yul\":26430:26434   */\n      dup2\n        /* \"#utility.yul\":26426:26446   */\n      sub\n        /* \"#utility.yul\":26421:26423   */\n      0x40\n        /* \"#utility.yul\":26410:26419   */\n      dup4\n        /* \"#utility.yul\":26406:26424   */\n      add\n        /* \"#utility.yul\":26399:26447   */\n      mstore\n        /* \"#utility.yul\":26464:26540   */\n      tag_604\n        /* \"#utility.yul\":26535:26539   */\n      dup2\n        /* \"#utility.yul\":26526:26532   */\n      dup5\n        /* \"#utility.yul\":26464:26540   */\n      tag_235\n      jump\t// in\n    tag_604:\n        /* \"#utility.yul\":26456:26540   */\n      swap1\n      pop\n        /* \"#utility.yul\":26018:26547   */\n      swap5\n      swap4\n      pop\n      pop\n      pop\n      pop\n      jump\t// out\n        /* \"#utility.yul\":26553:26775   */\n    tag_312:\n        /* \"#utility.yul\":26693:26727   */\n      0x756e61626c6520746f207472616e73666572416e6443616c6c20746f206f7261\n        /* \"#utility.yul\":26689:26690   */\n      0x00\n        /* \"#utility.yul\":26681:26687   */\n      dup3\n        /* \"#utility.yul\":26677:26691   */\n      add\n        /* \"#utility.yul\":26670:26728   */\n      mstore\n        /* \"#utility.yul\":26762:26767   */\n      0x636c650000000000000000000000000000000000000000000000000000000000\n        /* \"#utility.yul\":26757:26759   */\n      0x20\n        /* \"#utility.yul\":26749:26755   */\n      dup3\n        /* \"#utility.yul\":26745:26760   */\n      add\n        /* \"#utility.yul\":26738:26768   */\n      mstore\n        /* \"#utility.yul\":26553:26775   */\n      pop\n      jump\t// out\n        /* \"#utility.yul\":26781:27147   */\n    tag_313:\n        /* \"#utility.yul\":26923:26926   */\n      0x00\n        /* \"#utility.yul\":26944:27011   */\n      tag_607\n        /* \"#utility.yul\":27008:27010   */\n      0x23\n        /* \"#utility.yul\":27003:27006   */\n      dup4\n        /* \"#utility.yul\":26944:27011   */\n      tag_237\n      jump\t// in\n    tag_607:\n        /* \"#utility.yul\":26937:27011   */\n      swap2\n      pop\n        /* \"#utility.yul\":27020:27113   */\n      tag_608\n        /* \"#utility.yul\":27109:27112   */\n      dup3\n        /* \"#utility.yul\":27020:27113   */\n      tag_312\n      jump\t// in\n    tag_608:\n        /* \"#utility.yul\":27138:27140   */\n      0x40\n        /* \"#utility.yul\":27133:27136   */\n      dup3\n        /* \"#utility.yul\":27129:27141   */\n      add\n        /* \"#utility.yul\":27122:27141   */\n      swap1\n      pop\n        /* \"#utility.yul\":26781:27147   */\n      swap2\n      swap1\n      pop\n      jump\t// out\n        /* \"#utility.yul\":27153:27572   */\n    tag_180:\n        /* \"#utility.yul\":27319:27323   */\n      0x00\n        /* \"#utility.yul\":27357:27359   */\n      0x20\n        /* \"#utility.yul\":27346:27355   */\n      dup3\n        /* \"#utility.yul\":27342:27360   */\n      add\n        /* \"#utility.yul\":27334:27360   */\n      swap1\n      pop\n        /* \"#utility.yul\":27406:27415   */\n      dup2\n        /* \"#utility.yul\":27400:27404   */\n      dup2\n        /* \"#utility.yul\":27396:27416   */\n      sub\n        /* \"#utility.yul\":27392:27393   */\n      0x00\n        /* \"#utility.yul\":27381:27390   */\n      dup4\n        /* \"#utility.yul\":27377:27394   */\n      add\n        /* \"#utility.yul\":27370:27417   */\n      mstore\n        /* \"#utility.yul\":27434:27565   */\n      tag_610\n        /* \"#utility.yul\":27560:27564   */\n      dup2\n        /* \"#utility.yul\":27434:27565   */\n      tag_313\n      jump\t// in\n    tag_610:\n        /* \"#utility.yul\":27426:27565   */\n      swap1\n      pop\n        /* \"#utility.yul\":27153:27572   */\n      swap2\n      swap1\n      pop\n      jump\t// out\n        /* \"#utility.yul\":27578:27988   */\n    tag_199:\n        /* \"#utility.yul\":27618:27625   */\n      0x00\n        /* \"#utility.yul\":27641:27661   */\n      tag_612\n        /* \"#utility.yul\":27659:27660   */\n      dup3\n        /* \"#utility.yul\":27641:27661   */\n      tag_262\n      jump\t// in\n    tag_612:\n        /* \"#utility.yul\":27636:27661   */\n      swap2\n      pop\n        /* \"#utility.yul\":27675:27695   */\n      tag_613\n        /* \"#utility.yul\":27693:27694   */\n      dup4\n        /* \"#utility.yul\":27675:27695   */\n      tag_262\n      jump\t// in\n    tag_613:\n        /* \"#utility.yul\":27670:27695   */\n      swap3\n      pop\n        /* \"#utility.yul\":27730:27731   */\n      dup3\n        /* \"#utility.yul\":27727:27728   */\n      dup3\n        /* \"#utility.yul\":27723:27732   */\n      mul\n        /* \"#utility.yul\":27752:27782   */\n      tag_614\n        /* \"#utility.yul\":27770:27781   */\n      dup2\n        /* \"#utility.yul\":27752:27782   */\n      tag_262\n      jump\t// in\n    tag_614:\n        /* \"#utility.yul\":27741:27782   */\n      swap2\n      pop\n        /* \"#utility.yul\":27931:27932   */\n      dup3\n        /* \"#utility.yul\":27922:27929   */\n      dup3\n        /* \"#utility.yul\":27918:27933   */\n      div\n        /* \"#utility.yul\":27915:27916   */\n      dup5\n        /* \"#utility.yul\":27912:27934   */\n      eq\n        /* \"#utility.yul\":27892:27893   */\n      dup4\n        /* \"#utility.yul\":27885:27894   */\n      iszero\n        /* \"#utility.yul\":27865:27948   */\n      or\n        /* \"#utility.yul\":27842:27981   */\n      tag_615\n      jumpi\n        /* \"#utility.yul\":27961:27979   */\n      tag_616\n      tag_298\n      jump\t// in\n    tag_616:\n        /* \"#utility.yul\":27842:27981   */\n    tag_615:\n        /* \"#utility.yul\":27626:27988   */\n      pop\n        /* \"#utility.yul\":27578:27988   */\n      swap3\n      swap2\n      pop\n      pop\n      jump\t// out\n        /* \"#utility.yul\":27994:28096   */\n    tag_314:\n        /* \"#utility.yul\":28036:28044   */\n      0x00\n        /* \"#utility.yul\":28083:28088   */\n      dup2\n        /* \"#utility.yul\":28080:28081   */\n      0x01\n        /* \"#utility.yul\":28076:28089   */\n      shr\n        /* \"#utility.yul\":28055:28089   */\n      swap1\n      pop\n        /* \"#utility.yul\":27994:28096   */\n      swap2\n      swap1\n      pop\n      jump\t// out\n        /* \"#utility.yul\":28102:28950   */\n    tag_315:\n        /* \"#utility.yul\":28163:28168   */\n      0x00\n        /* \"#utility.yul\":28170:28174   */\n      dup1\n        /* \"#utility.yul\":28194:28200   */\n      dup3\n        /* \"#utility.yul\":28185:28200   */\n      swap2\n      pop\n        /* \"#utility.yul\":28218:28223   */\n      dup4\n        /* \"#utility.yul\":28209:28223   */\n      swap1\n      pop\n        /* \"#utility.yul\":28232:28944   */\n    tag_619:\n        /* \"#utility.yul\":28253:28254   */\n      0x01\n        /* \"#utility.yul\":28243:28251   */\n      dup6\n        /* \"#utility.yul\":28240:28255   */\n      gt\n        /* \"#utility.yul\":28232:28944   */\n      iszero\n      tag_621\n      jumpi\n        /* \"#utility.yul\":28348:28352   */\n      dup1\n        /* \"#utility.yul\":28343:28346   */\n      dup7\n        /* \"#utility.yul\":28339:28353   */\n      div\n        /* \"#utility.yul\":28333:28337   */\n      dup2\n        /* \"#utility.yul\":28330:28354   */\n      gt\n        /* \"#utility.yul\":28327:28377   */\n      iszero\n      tag_622\n      jumpi\n        /* \"#utility.yul\":28357:28375   */\n      tag_623\n      tag_298\n      jump\t// in\n    tag_623:\n        /* \"#utility.yul\":28327:28377   */\n    tag_622:\n        /* \"#utility.yul\":28407:28408   */\n      0x01\n        /* \"#utility.yul\":28397:28405   */\n      dup6\n        /* \"#utility.yul\":28393:28409   */\n      and\n        /* \"#utility.yul\":28390:28841   */\n      iszero\n      tag_624\n      jumpi\n        /* \"#utility.yul\":28822:28826   */\n      dup1\n        /* \"#utility.yul\":28815:28820   */\n      dup3\n        /* \"#utility.yul\":28811:28827   */\n      mul\n        /* \"#utility.yul\":28802:28827   */\n      swap2\n      pop\n        /* \"#utility.yul\":28390:28841   */\n    tag_624:\n        /* \"#utility.yul\":28872:28876   */\n      dup1\n        /* \"#utility.yul\":28866:28870   */\n      dup2\n        /* \"#utility.yul\":28862:28877   */\n      mul\n        /* \"#utility.yul\":28854:28877   */\n      swap1\n      pop\n        /* \"#utility.yul\":28902:28934   */\n      tag_625\n        /* \"#utility.yul\":28925:28933   */\n      dup6\n        /* \"#utility.yul\":28902:28934   */\n      tag_314\n      jump\t// in\n    tag_625:\n        /* \"#utility.yul\":28890:28934   */\n      swap5\n      pop\n        /* \"#utility.yul\":28232:28944   */\n      jump(tag_619)\n    tag_621:\n        /* \"#utility.yul\":28102:28950   */\n      swap5\n      pop\n      swap5\n      swap3\n      pop\n      pop\n      pop\n      jump\t// out\n        /* \"#utility.yul\":28956:30029   */\n    tag_316:\n        /* \"#utility.yul\":29010:29015   */\n      0x00\n        /* \"#utility.yul\":29201:29209   */\n      dup3\n        /* \"#utility.yul\":29191:29231   */\n      tag_627\n      jumpi\n        /* \"#utility.yul\":29222:29223   */\n      0x01\n        /* \"#utility.yul\":29213:29223   */\n      swap1\n      pop\n        /* \"#utility.yul\":29224:29229   */\n      jump(tag_626)\n        /* \"#utility.yul\":29191:29231   */\n    tag_627:\n        /* \"#utility.yul\":29250:29254   */\n      dup2\n        /* \"#utility.yul\":29240:29276   */\n      tag_628\n      jumpi\n        /* \"#utility.yul\":29267:29268   */\n      0x00\n        /* \"#utility.yul\":29258:29268   */\n      swap1\n      pop\n        /* \"#utility.yul\":29269:29274   */\n      jump(tag_626)\n        /* \"#utility.yul\":29240:29276   */\n    tag_628:\n        /* \"#utility.yul\":29336:29340   */\n      dup2\n        /* \"#utility.yul\":29384:29385   */\n      0x01\n        /* \"#utility.yul\":29379:29406   */\n      dup2\n      eq\n      tag_630\n      jumpi\n        /* \"#utility.yul\":29420:29421   */\n      0x02\n        /* \"#utility.yul\":29415:29606   */\n      dup2\n      eq\n      tag_631\n      jumpi\n        /* \"#utility.yul\":29329:29606   */\n      jump(tag_629)\n        /* \"#utility.yul\":29379:29406   */\n    tag_630:\n        /* \"#utility.yul\":29397:29398   */\n      0x01\n        /* \"#utility.yul\":29388:29398   */\n      swap2\n      pop\n        /* \"#utility.yul\":29399:29404   */\n      pop\n      jump(tag_626)\n        /* \"#utility.yul\":29415:29606   */\n    tag_631:\n        /* \"#utility.yul\":29460:29463   */\n      0xff\n        /* \"#utility.yul\":29450:29458   */\n      dup5\n        /* \"#utility.yul\":29447:29464   */\n      gt\n        /* \"#utility.yul\":29444:29487   */\n      iszero\n      tag_632\n      jumpi\n        /* \"#utility.yul\":29467:29485   */\n      tag_633\n      tag_298\n      jump\t// in\n    tag_633:\n        /* \"#utility.yul\":29444:29487   */\n    tag_632:\n        /* \"#utility.yul\":29516:29524   */\n      dup4\n        /* \"#utility.yul\":29513:29514   */\n      0x02\n        /* \"#utility.yul\":29509:29525   */\n      exp\n        /* \"#utility.yul\":29500:29525   */\n      swap2\n      pop\n        /* \"#utility.yul\":29551:29554   */\n      dup5\n        /* \"#utility.yul\":29544:29549   */\n      dup3\n        /* \"#utility.yul\":29541:29555   */\n      gt\n        /* \"#utility.yul\":29538:29578   */\n      iszero\n      tag_634\n      jumpi\n        /* \"#utility.yul\":29558:29576   */\n      tag_635\n      tag_298\n      jump\t// in\n    tag_635:\n        /* \"#utility.yul\":29538:29578   */\n    tag_634:\n        /* \"#utility.yul\":29591:29596   */\n      pop\n      jump(tag_626)\n        /* \"#utility.yul\":29329:29606   */\n    tag_629:\n      pop\n        /* \"#utility.yul\":29715:29717   */\n      0x20\n        /* \"#utility.yul\":29705:29713   */\n      dup4\n        /* \"#utility.yul\":29702:29718   */\n      lt\n        /* \"#utility.yul\":29696:29699   */\n      0x0133\n        /* \"#utility.yul\":29690:29694   */\n      dup4\n        /* \"#utility.yul\":29687:29700   */\n      lt\n        /* \"#utility.yul\":29683:29719   */\n      and\n        /* \"#utility.yul\":29665:29667   */\n      0x4e\n        /* \"#utility.yul\":29655:29663   */\n      dup5\n        /* \"#utility.yul\":29652:29668   */\n      lt\n        /* \"#utility.yul\":29647:29649   */\n      0x0b\n        /* \"#utility.yul\":29641:29645   */\n      dup5\n        /* \"#utility.yul\":29638:29650   */\n      lt\n        /* \"#utility.yul\":29634:29669   */\n      and\n        /* \"#utility.yul\":29618:29729   */\n      or\n        /* \"#utility.yul\":29615:29861   */\n      iszero\n      tag_636\n      jumpi\n        /* \"#utility.yul\":29771:29779   */\n      dup3\n        /* \"#utility.yul\":29765:29769   */\n      dup3\n        /* \"#utility.yul\":29761:29780   */\n      exp\n        /* \"#utility.yul\":29752:29780   */\n      swap1\n      pop\n        /* \"#utility.yul\":29806:29809   */\n      dup4\n        /* \"#utility.yul\":29799:29804   */\n      dup2\n        /* \"#utility.yul\":29796:29810   */\n      gt\n        /* \"#utility.yul\":29793:29833   */\n      iszero\n      tag_637\n      jumpi\n        /* \"#utility.yul\":29813:29831   */\n      tag_638\n      tag_298\n      jump\t// in\n    tag_638:\n        /* \"#utility.yul\":29793:29833   */\n    tag_637:\n        /* \"#utility.yul\":29846:29851   */\n      jump(tag_626)\n        /* \"#utility.yul\":29615:29861   */\n    tag_636:\n        /* \"#utility.yul\":29886:29928   */\n      tag_639\n        /* \"#utility.yul\":29924:29927   */\n      dup5\n        /* \"#utility.yul\":29914:29922   */\n      dup5\n        /* \"#utility.yul\":29908:29912   */\n      dup5\n        /* \"#utility.yul\":29905:29906   */\n      0x01\n        /* \"#utility.yul\":29886:29928   */\n      tag_315\n      jump\t// in\n    tag_639:\n        /* \"#utility.yul\":29871:29928   */\n      swap3\n      pop\n      swap1\n      pop\n        /* \"#utility.yul\":29960:29964   */\n      dup2\n        /* \"#utility.yul\":29955:29958   */\n      dup5\n        /* \"#utility.yul\":29951:29965   */\n      div\n        /* \"#utility.yul\":29944:29949   */\n      dup2\n        /* \"#utility.yul\":29941:29966   */\n      gt\n        /* \"#utility.yul\":29938:29989   */\n      iszero\n      tag_640\n      jumpi\n        /* \"#utility.yul\":29969:29987   */\n      tag_641\n      tag_298\n      jump\t// in\n    tag_641:\n        /* \"#utility.yul\":29938:29989   */\n    tag_640:\n        /* \"#utility.yul\":30018:30022   */\n      dup2\n        /* \"#utility.yul\":30011:30016   */\n      dup2\n        /* \"#utility.yul\":30007:30023   */\n      mul\n        /* \"#utility.yul\":29998:30023   */\n      swap1\n      pop\n        /* \"#utility.yul\":28956:30029   */\n    tag_626:\n      swap4\n      swap3\n      pop\n      pop\n      pop\n      jump\t// out\n        /* \"#utility.yul\":30035:30320   */\n    tag_222:\n        /* \"#utility.yul\":30095:30100   */\n      0x00\n        /* \"#utility.yul\":30119:30142   */\n      tag_643\n        /* \"#utility.yul\":30137:30141   */\n      dup3\n        /* \"#utility.yul\":30119:30142   */\n      tag_262\n      jump\t// in\n    tag_643:\n        /* \"#utility.yul\":30111:30142   */\n      swap2\n      pop\n        /* \"#utility.yul\":30163:30190   */\n      tag_644\n        /* \"#utility.yul\":30181:30189   */\n      dup4\n        /* \"#utility.yul\":30163:30190   */\n      tag_262\n      jump\t// in\n    tag_644:\n        /* \"#utility.yul\":30151:30190   */\n      swap3\n      pop\n        /* \"#utility.yul\":30209:30313   */\n      tag_645\n        /* \"#utility.yul\":30246:30312   */\n      0xffffffffffffffffffffffffffffffffffffffffffffffffffffffffffffffff\n        /* \"#utility.yul\":30236:30244   */\n      dup5\n        /* \"#utility.yul\":30230:30234   */\n      dup5\n        /* \"#utility.yul\":30209:30313   */\n      tag_316\n      jump\t// in\n    tag_645:\n        /* \"#utility.yul\":30200:30313   */\n      swap1\n      pop\n        /* \"#utility.yul\":30035:30320   */\n      swap3\n      swap2\n      pop\n      pop\n      jump\t// out\n    stop\n    data_3ea5517f6e7e0f27d1728f72bf27ec3971d9bbeee35bd2f536fe363c6b23f087 68747470733a2f2f697066732e696f2f697066732f516d5a6773767241316f3143384247437278366d4854715231556931587162437274624d5672524c4874755056443f66696c656e616d653d6269672d6170692d726573706f6e73652e6a736f6e\n\n    auxdata: 0xa264697066735822122025a754acfd13778502ced0e7224b0e055f4416a4cdfb45bfde6deb5ba4e4cdb864736f6c63430008110033\n}\n",
				"bytecode": {
					"linkReferences": {},
					"object": "608060405260016004553480156200001657600080fd5b50338060008073ffffffffffffffffffffffffffffffffffffffff168273ffffffffffffffffffffffffffffffffffffffff16036200008c576040517f08c379a00000000000000000000000000000000000000000000000000000000081526004016200008390620003d3565b60405180910390fd5b81600660006101000a81548173ffffffffffffffffffffffffffffffffffffffff021916908373ffffffffffffffffffffffffffffffffffffffff160217905550600073ffffffffffffffffffffffffffffffffffffffff168173ffffffffffffffffffffffffffffffffffffffff161462000114576200011381620001b960201b60201c565b5b5050506200013c73326c977e6efc84e512bb9c30f76e30c160ed06fb620002ea60201b60201c565b6200016173673ed0f9d64698ffe3a42058615c30036c3e6d076200032e60201b60201c565b7f3764633262653731326331363436383439313164393833616639383930393131600a81905550600a670de0b6b3a76400006001620001a191906200042e565b620001ad9190620004a8565b600b8190555062000552565b3373ffffffffffffffffffffffffffffffffffffffff168173ffffffffffffffffffffffffffffffffffffffff16036200022a576040517f08c379a0000000000000000000000000000000000000000000000000000000008152600401620002219062000530565b60405180910390fd5b80600760006101000a81548173ffffffffffffffffffffffffffffffffffffffff021916908373ffffffffffffffffffffffffffffffffffffffff1602179055508073ffffffffffffffffffffffffffffffffffffffff16600660009054906101000a900473ffffffffffffffffffffffffffffffffffffffff1673ffffffffffffffffffffffffffffffffffffffff167fed8889f560326eb138920d842192f0eb3dd22b4f139c87a2c57538e05bae127860405160405180910390a350565b80600260006101000a81548173ffffffffffffffffffffffffffffffffffffffff021916908373ffffffffffffffffffffffffffffffffffffffff16021790555050565b80600360006101000a81548173ffffffffffffffffffffffffffffffffffffffff021916908373ffffffffffffffffffffffffffffffffffffffff16021790555050565b600082825260208201905092915050565b7f43616e6e6f7420736574206f776e657220746f207a65726f0000000000000000600082015250565b6000620003bb60188362000372565b9150620003c88262000383565b602082019050919050565b60006020820190508181036000830152620003ee81620003ac565b9050919050565b6000819050919050565b7f4e487b7100000000000000000000000000000000000000000000000000000000600052601160045260246000fd5b60006200043b82620003f5565b91506200044883620003f5565b92508282026200045881620003f5565b91508282048414831517620004725762000471620003ff565b5b5092915050565b7f4e487b7100000000000000000000000000000000000000000000000000000000600052601260045260246000fd5b6000620004b582620003f5565b9150620004c283620003f5565b925082620004d557620004d462000479565b5b828204905092915050565b7f43616e6e6f74207472616e7366657220746f2073656c66000000000000000000600082015250565b60006200051860178362000372565b91506200052582620004e0565b602082019050919050565b600060208201905081810360008301526200054b8162000509565b9050919050565b6123fd80620005626000396000f3fe608060405234801561001057600080fd5b50600436106100885760003560e01c80638da5cb5b1161005b5780638da5cb5b146100dd5780638dc654a2146100fb578063c2fb852314610105578063f2fde38b1461012157610088565b806311411e8a1461008d57806373d4a13a1461009757806379ba5097146100b5578063824f4baf146100bf575b600080fd5b61009561013d565b005b61009f610246565b6040516100ac919061132a565b60405180910390f35b6100bd6102d4565b005b6100c761046b565b6040516100d491906113a1565b60405180910390f35b6100e56104f9565b6040516100f29190611404565b60405180910390f35b610103610523565b005b61011f600480360381019061011a919061159e565b610670565b005b61013b60048036038101906101369190611626565b6107de565b005b6000610153600a543063c2fb852360e01b6107f2565b90506101b76040518060400160405280600381526020017f67657400000000000000000000000000000000000000000000000000000000008152506040518060a001604052806062815260200161236660629139836108239092919063ffffffff16565b6102366040518060400160405280600481526020017f70617468000000000000000000000000000000000000000000000000000000008152506040518060400160405280600581526020017f696d616765000000000000000000000000000000000000000000000000000000815250836108239092919063ffffffff16565b61024281600b54610856565b5050565b6008805461025390611682565b80601f016020809104026020016040519081016040528092919081815260200182805461027f90611682565b80156102cc5780601f106102a1576101008083540402835291602001916102cc565b820191906000526020600020905b8154815290600101906020018083116102af57829003601f168201915b505050505081565b600760009054906101000a900473ffffffffffffffffffffffffffffffffffffffff1673ffffffffffffffffffffffffffffffffffffffff163373ffffffffffffffffffffffffffffffffffffffff1614610364576040517f08c379a000000000000000000000000000000000000000000000000000000000815260040161035b906116ff565b60405180910390fd5b6000600660009054906101000a900473ffffffffffffffffffffffffffffffffffffffff16905033600660006101000a81548173ffffffffffffffffffffffffffffffffffffffff021916908373ffffffffffffffffffffffffffffffffffffffff1602179055506000600760006101000a81548173ffffffffffffffffffffffffffffffffffffffff021916908373ffffffffffffffffffffffffffffffffffffffff1602179055503373ffffffffffffffffffffffffffffffffffffffff168173ffffffffffffffffffffffffffffffffffffffff167f8be0079c531659141344cd1fd0a4f28419497f9722a3daafe3b4186f6b6457e060405160405180910390a350565b6009805461047890611682565b80601f01602080910402602001604051908101604052809291908181526020018280546104a490611682565b80156104f15780601f106104c6576101008083540402835291602001916104f1565b820191906000526020600020905b8154815290600101906020018083116104d457829003601f168201915b505050505081565b6000600660009054906101000a900473ffffffffffffffffffffffffffffffffffffffff16905090565b61052b61088d565b600061053561091f565b90508073ffffffffffffffffffffffffffffffffffffffff1663a9059cbb338373ffffffffffffffffffffffffffffffffffffffff166370a08231306040518263ffffffff1660e01b815260040161058d9190611404565b602060405180830381865afa1580156105aa573d6000803e3d6000fd5b505050506040513d601f19601f820116820180604052508101906105ce9190611755565b6040518363ffffffff1660e01b81526004016105eb929190611791565b6020604051808303816000875af115801561060a573d6000803e3d6000fd5b505050506040513d601f19601f8201168201806040525081019061062e91906117f2565b61066d576040517f08c379a00000000000000000000000000000000000000000000000000000000081526004016106649061186b565b60405180910390fd5b50565b816005600082815260200190815260200160002060009054906101000a900473ffffffffffffffffffffffffffffffffffffffff1673ffffffffffffffffffffffffffffffffffffffff163373ffffffffffffffffffffffffffffffffffffffff1614610712576040517f08c379a0000000000000000000000000000000000000000000000000000000008152600401610709906118fd565b60405180910390fd5b6005600082815260200190815260200160002060006101000a81549073ffffffffffffffffffffffffffffffffffffffff0219169055807f7cc135e0cebb02c3480ae5d74d377283180a2601f8f644edf7987b009316c63a60405160405180910390a2816040516107839190611959565b6040518091039020837f1a111c5dcf9a71088bd5e1797fdfaf399fec2afbb24aca247e4e3e9f4b61df9160405160405180910390a381600890816107c79190611b1c565b506008600990816107d89190611c74565b50505050565b6107e661088d565b6107ef81610949565b50565b6107fa611213565b610802611213565b61081985858584610a77909392919063ffffffff16565b9150509392505050565b61083a828460800151610b2790919063ffffffff16565b610851818460800151610b2790919063ffffffff16565b505050565b6000610885600360009054906101000a900473ffffffffffffffffffffffffffffffffffffffff168484610b4c565b905092915050565b600660009054906101000a900473ffffffffffffffffffffffffffffffffffffffff1673ffffffffffffffffffffffffffffffffffffffff163373ffffffffffffffffffffffffffffffffffffffff161461091d576040517f08c379a000000000000000000000000000000000000000000000000000000000815260040161091490611da8565b60405180910390fd5b565b6000600260009054906101000a900473ffffffffffffffffffffffffffffffffffffffff16905090565b3373ffffffffffffffffffffffffffffffffffffffff168173ffffffffffffffffffffffffffffffffffffffff16036109b7576040517f08c379a00000000000000000000000000000000000000000000000000000000081526004016109ae90611e14565b60405180910390fd5b80600760006101000a81548173ffffffffffffffffffffffffffffffffffffffff021916908373ffffffffffffffffffffffffffffffffffffffff1602179055508073ffffffffffffffffffffffffffffffffffffffff16600660009054906101000a900473ffffffffffffffffffffffffffffffffffffffff1673ffffffffffffffffffffffffffffffffffffffff167fed8889f560326eb138920d842192f0eb3dd22b4f139c87a2c57538e05bae127860405160405180910390a350565b610a7f611213565b610a8f8560800151610100610c18565b508385600001818152505082856020019073ffffffffffffffffffffffffffffffffffffffff16908173ffffffffffffffffffffffffffffffffffffffff16815250508185604001907bffffffffffffffffffffffffffffffffffffffffffffffffffffffff191690817bffffffffffffffffffffffffffffffffffffffffffffffffffffffff191681525050849050949350505050565b610b348260038351610c82565b610b478183610e0790919063ffffffff16565b505050565b6000806004549050600181610b619190611e63565b6004819055506000634042994660e01b60008087600001513089604001518760018c6080015160000151604051602401610ba2989796959493929190611ee1565b604051602081830303815290604052907bffffffffffffffffffffffffffffffffffffffffffffffffffffffff19166020820180517bffffffffffffffffffffffffffffffffffffffffffffffffffffffff83818316178352505050509050610c0d86838684610e29565b925050509392505050565b610c20611280565b6000602083610c2f9190611f95565b14610c5b57602082610c419190611f95565b6020610c4d9190611fc6565b82610c589190611e63565b91505b81836020018181525050604051808452600081528281016020016040525082905092915050565b60178167ffffffffffffffff1611610cb957610cb38160058460ff16901b60ff161784610fbe90919063ffffffff16565b50610e02565b60ff8167ffffffffffffffff1611610d0f57610ce8601860058460ff16901b1784610fbe90919063ffffffff16565b50610d098167ffffffffffffffff16600185610fde9092919063ffffffff16565b50610e01565b61ffff8167ffffffffffffffff1611610d6657610d3f601960058460ff16901b1784610fbe90919063ffffffff16565b50610d608167ffffffffffffffff16600285610fde9092919063ffffffff16565b50610e00565b63ffffffff8167ffffffffffffffff1611610dbf57610d98601a60058460ff16901b1784610fbe90919063ffffffff16565b50610db98167ffffffffffffffff16600485610fde9092919063ffffffff16565b50610dff565b610ddc601b60058460ff16901b1784610fbe90919063ffffffff16565b50610dfd8167ffffffffffffffff16600885610fde9092919063ffffffff16565b505b5b5b5b505050565b610e0f611280565b610e2183846000015151848551611000565b905092915050565b60003084604051602001610e3e9291906120a9565b604051602081830303815290604052805190602001209050846005600083815260200190815260200160002060006101000a81548173ffffffffffffffffffffffffffffffffffffffff021916908373ffffffffffffffffffffffffffffffffffffffff160217905550807fb5e6e01e79f91267dc17b4e6314d5d4d03593d2ceee0fbb452b750bd70ea5af960405160405180910390a2600260009054906101000a900473ffffffffffffffffffffffffffffffffffffffff1673ffffffffffffffffffffffffffffffffffffffff16634000aea08685856040518463ffffffff1660e01b8152600401610f34939291906120d5565b6020604051808303816000875af1158015610f53573d6000803e3d6000fd5b505050506040513d601f19601f82011682018060405250810190610f7791906117f2565b610fb6576040517f08c379a0000000000000000000000000000000000000000000000000000000008152600401610fad90612185565b60405180910390fd5b949350505050565b610fc6611280565b610fd683846000015151846110ef565b905092915050565b610fe6611280565b610ff7848560000151518585611145565b90509392505050565b611008611280565b825182111561101657600080fd5b846020015182856110279190611e63565b111561105c5761105b85600261104c886020015188876110479190611e63565b6111d3565b61105691906121a5565b6111ef565b5b60008086518051876020830101935080888701111561107b5787860182525b60208701925050505b602084106110c2578051825260208261109d9190611e63565b91506020816110ac9190611e63565b90506020846110bb9190611fc6565b9350611084565b60006001856020036101000a03905080198251168184511681811785525050508692505050949350505050565b6110f7611280565b8360200151831061111d5761111c846002866020015161111791906121a5565b6111ef565b5b83518051602085830101848153818603611138576001820183525b5050508390509392505050565b61114d611280565b8460200151848361115e9190611e63565b11156111865761118585600286856111769190611e63565b61118091906121a5565b6111ef565b5b6000600183610100611198919061231a565b6111a29190611fc6565b905085518386820101858319825116178152815185880111156111c55784870182525b505085915050949350505050565b6000818311156111e5578290506111e9565b8190505b92915050565b6000826000015190506112028383610c18565b5061120d8382610e07565b50505050565b6040518060a0016040528060008019168152602001600073ffffffffffffffffffffffffffffffffffffffff16815260200160007bffffffffffffffffffffffffffffffffffffffffffffffffffffffff191681526020016000815260200161127a611280565b81525090565b604051806040016040528060608152602001600081525090565b600081519050919050565b600082825260208201905092915050565b60005b838110156112d45780820151818401526020810190506112b9565b60008484015250505050565b6000601f19601f8301169050919050565b60006112fc8261129a565b61130681856112a5565b93506113168185602086016112b6565b61131f816112e0565b840191505092915050565b6000602082019050818103600083015261134481846112f1565b905092915050565b600081519050919050565b600082825260208201905092915050565b60006113738261134c565b61137d8185611357565b935061138d8185602086016112b6565b611396816112e0565b840191505092915050565b600060208201905081810360008301526113bb8184611368565b905092915050565b600073ffffffffffffffffffffffffffffffffffffffff82169050919050565b60006113ee826113c3565b9050919050565b6113fe816113e3565b82525050565b600060208201905061141960008301846113f5565b92915050565b6000604051905090565b600080fd5b600080fd5b6000819050919050565b61144681611433565b811461145157600080fd5b50565b6000813590506114638161143d565b92915050565b600080fd5b600080fd5b7f4e487b7100000000000000000000000000000000000000000000000000000000600052604160045260246000fd5b6114ab826112e0565b810181811067ffffffffffffffff821117156114ca576114c9611473565b5b80604052505050565b60006114dd61141f565b90506114e982826114a2565b919050565b600067ffffffffffffffff82111561150957611508611473565b5b611512826112e0565b9050602081019050919050565b82818337600083830152505050565b600061154161153c846114ee565b6114d3565b90508281526020810184848401111561155d5761155c61146e565b5b61156884828561151f565b509392505050565b600082601f83011261158557611584611469565b5b813561159584826020860161152e565b91505092915050565b600080604083850312156115b5576115b4611429565b5b60006115c385828601611454565b925050602083013567ffffffffffffffff8111156115e4576115e361142e565b5b6115f085828601611570565b9150509250929050565b611603816113e3565b811461160e57600080fd5b50565b600081359050611620816115fa565b92915050565b60006020828403121561163c5761163b611429565b5b600061164a84828501611611565b91505092915050565b7f4e487b7100000000000000000000000000000000000000000000000000000000600052602260045260246000fd5b6000600282049050600182168061169a57607f821691505b6020821081036116ad576116ac611653565b5b50919050565b7f4d7573742062652070726f706f736564206f776e657200000000000000000000600082015250565b60006116e9601683611357565b91506116f4826116b3565b602082019050919050565b60006020820190508181036000830152611718816116dc565b9050919050565b6000819050919050565b6117328161171f565b811461173d57600080fd5b50565b60008151905061174f81611729565b92915050565b60006020828403121561176b5761176a611429565b5b600061177984828501611740565b91505092915050565b61178b8161171f565b82525050565b60006040820190506117a660008301856113f5565b6117b36020830184611782565b9392505050565b60008115159050919050565b6117cf816117ba565b81146117da57600080fd5b50565b6000815190506117ec816117c6565b92915050565b60006020828403121561180857611807611429565b5b6000611816848285016117dd565b91505092915050565b7f556e61626c6520746f207472616e736665720000000000000000000000000000600082015250565b6000611855601283611357565b91506118608261181f565b602082019050919050565b6000602082019050818103600083015261188481611848565b9050919050565b7f536f75726365206d75737420626520746865206f7261636c65206f662074686560008201527f2072657175657374000000000000000000000000000000000000000000000000602082015250565b60006118e7602883611357565b91506118f28261188b565b604082019050919050565b60006020820190508181036000830152611916816118da565b9050919050565b600081905092915050565b60006119338261129a565b61193d818561191d565b935061194d8185602086016112b6565b80840191505092915050565b60006119658284611928565b915081905092915050565b60008190508160005260206000209050919050565b60006020601f8301049050919050565b600082821b905092915050565b6000600883026119d27fffffffffffffffffffffffffffffffffffffffffffffffffffffffffffffffff82611995565b6119dc8683611995565b95508019841693508086168417925050509392505050565b6000819050919050565b6000611a19611a14611a0f8461171f565b6119f4565b61171f565b9050919050565b6000819050919050565b611a33836119fe565b611a47611a3f82611a20565b8484546119a2565b825550505050565b600090565b611a5c611a4f565b611a67818484611a2a565b505050565b5b81811015611a8b57611a80600082611a54565b600181019050611a6d565b5050565b601f821115611ad057611aa181611970565b611aaa84611985565b81016020851015611ab9578190505b611acd611ac585611985565b830182611a6c565b50505b505050565b600082821c905092915050565b6000611af360001984600802611ad5565b1980831691505092915050565b6000611b0c8383611ae2565b9150826002028217905092915050565b611b258261129a565b67ffffffffffffffff811115611b3e57611b3d611473565b5b611b488254611682565b611b53828285611a8f565b600060209050601f831160018114611b865760008415611b74578287015190505b611b7e8582611b00565b865550611be6565b601f198416611b9486611970565b60005b82811015611bbc57848901518255600182019150602085019450602081019050611b97565b86831015611bd95784890151611bd5601f891682611ae2565b8355505b6001600288020188555050505b505050505050565b600081549050611bfd81611682565b9050919050565b60008190508160005260206000209050919050565b60008190508160005260206000209050919050565b601f821115611c6f57611c4081611c04565b611c4984611985565b81016020851015611c58578190505b611c6c611c6485611985565b830182611a6c565b50505b505050565b818103611c82575050611d5a565b611c8b82611bee565b67ffffffffffffffff811115611ca457611ca3611473565b5b611cae8254611682565b611cb9828285611c2e565b6000601f831160018114611ce85760008415611cd6578287015490505b611ce08582611b00565b865550611d53565b601f198416611cf687611c19565b9650611d0186611c04565b60005b82811015611d2957848901548255600182019150600185019450602081019050611d04565b86831015611d465784890154611d42601f891682611ae2565b8355505b6001600288020188555050505b5050505050505b565b7f4f6e6c792063616c6c61626c65206279206f776e657200000000000000000000600082015250565b6000611d92601683611357565b9150611d9d82611d5c565b602082019050919050565b60006020820190508181036000830152611dc181611d85565b9050919050565b7f43616e6e6f74207472616e7366657220746f2073656c66000000000000000000600082015250565b6000611dfe601783611357565b9150611e0982611dc8565b602082019050919050565b60006020820190508181036000830152611e2d81611df1565b9050919050565b7f4e487b7100000000000000000000000000000000000000000000000000000000600052601160045260246000fd5b6000611e6e8261171f565b9150611e798361171f565b9250828201905080821115611e9157611e90611e34565b5b92915050565b611ea081611433565b82525050565b60007fffffffff0000000000000000000000000000000000000000000000000000000082169050919050565b611edb81611ea6565b82525050565b600061010082019050611ef7600083018b6113f5565b611f04602083018a611782565b611f116040830189611e97565b611f1e60608301886113f5565b611f2b6080830187611ed2565b611f3860a0830186611782565b611f4560c0830185611782565b81810360e0830152611f5781846112f1565b90509998505050505050505050565b7f4e487b7100000000000000000000000000000000000000000000000000000000600052601260045260246000fd5b6000611fa08261171f565b9150611fab8361171f565b925082611fbb57611fba611f66565b5b828206905092915050565b6000611fd18261171f565b9150611fdc8361171f565b9250828203905081811115611ff457611ff3611e34565b5b92915050565b600061201561201061200b846113c3565b6119f4565b6113c3565b9050919050565b600061202782611ffa565b9050919050565b60006120398261201c565b9050919050565b60008160601b9050919050565b600061205882612040565b9050919050565b600061206a8261204d565b9050919050565b61208261207d8261202e565b61205f565b82525050565b6000819050919050565b6120a361209e8261171f565b612088565b82525050565b60006120b58285612071565b6014820191506120c58284612092565b6020820191508190509392505050565b60006060820190506120ea60008301866113f5565b6120f76020830185611782565b818103604083015261210981846112f1565b9050949350505050565b7f756e61626c6520746f207472616e73666572416e6443616c6c20746f206f726160008201527f636c650000000000000000000000000000000000000000000000000000000000602082015250565b600061216f602383611357565b915061217a82612113565b604082019050919050565b6000602082019050818103600083015261219e81612162565b9050919050565b60006121b08261171f565b91506121bb8361171f565b92508282026121c98161171f565b915082820484148315176121e0576121df611e34565b5b5092915050565b60008160011c9050919050565b6000808291508390505b600185111561223e5780860481111561221a57612219611e34565b5b60018516156122295780820291505b8081029050612237856121e7565b94506121fe565b94509492505050565b6000826122575760019050612313565b816122655760009050612313565b816001811461227b5760028114612285576122b4565b6001915050612313565b60ff84111561229757612296611e34565b5b8360020a9150848211156122ae576122ad611e34565b5b50612313565b5060208310610133831016604e8410600b84101617156122e95782820a9050838111156122e4576122e3611e34565b5b612313565b6122f684848460016121f4565b9250905081840481111561230d5761230c611e34565b5b81810290505b9392505050565b60006123258261171f565b91506123308361171f565b925061235d7fffffffffffffffffffffffffffffffffffffffffffffffffffffffffffffffff8484612247565b90509291505056fe68747470733a2f2f697066732e696f2f697066732f516d5a6773767241316f3143384247437278366d4854715231556931587162437274624d5672524c4874755056443f66696c656e616d653d6269672d6170692d726573706f6e73652e6a736f6ea264697066735822122025a754acfd13778502ced0e7224b0e055f4416a4cdfb45bfde6deb5ba4e4cdb864736f6c63430008110033",
					"opcodes": "PUSH1 0x80 PUSH1 0x40 MSTORE PUSH1 0x1 PUSH1 0x4 SSTORE CALLVALUE DUP1 ISZERO PUSH3 0x16 JUMPI PUSH1 0x0 DUP1 REVERT JUMPDEST POP CALLER DUP1 PUSH1 0x0 DUP1 PUSH20 0xFFFFFFFFFFFFFFFFFFFFFFFFFFFFFFFFFFFFFFFF AND DUP3 PUSH20 0xFFFFFFFFFFFFFFFFFFFFFFFFFFFFFFFFFFFFFFFF AND SUB PUSH3 0x8C JUMPI PUSH1 0x40 MLOAD PUSH32 0x8C379A000000000000000000000000000000000000000000000000000000000 DUP2 MSTORE PUSH1 0x4 ADD PUSH3 0x83 SWAP1 PUSH3 0x3D3 JUMP JUMPDEST PUSH1 0x40 MLOAD DUP1 SWAP2 SUB SWAP1 REVERT JUMPDEST DUP2 PUSH1 0x6 PUSH1 0x0 PUSH2 0x100 EXP DUP2 SLOAD DUP2 PUSH20 0xFFFFFFFFFFFFFFFFFFFFFFFFFFFFFFFFFFFFFFFF MUL NOT AND SWAP1 DUP4 PUSH20 0xFFFFFFFFFFFFFFFFFFFFFFFFFFFFFFFFFFFFFFFF AND MUL OR SWAP1 SSTORE POP PUSH1 0x0 PUSH20 0xFFFFFFFFFFFFFFFFFFFFFFFFFFFFFFFFFFFFFFFF AND DUP2 PUSH20 0xFFFFFFFFFFFFFFFFFFFFFFFFFFFFFFFFFFFFFFFF AND EQ PUSH3 0x114 JUMPI PUSH3 0x113 DUP2 PUSH3 0x1B9 PUSH1 0x20 SHL PUSH1 0x20 SHR JUMP JUMPDEST JUMPDEST POP POP POP PUSH3 0x13C PUSH20 0x326C977E6EFC84E512BB9C30F76E30C160ED06FB PUSH3 0x2EA PUSH1 0x20 SHL PUSH1 0x20 SHR JUMP JUMPDEST PUSH3 0x161 PUSH20 0x673ED0F9D64698FFE3A42058615C30036C3E6D07 PUSH3 0x32E PUSH1 0x20 SHL PUSH1 0x20 SHR JUMP JUMPDEST PUSH32 0x3764633262653731326331363436383439313164393833616639383930393131 PUSH1 0xA DUP2 SWAP1 SSTORE POP PUSH1 0xA PUSH8 0xDE0B6B3A7640000 PUSH1 0x1 PUSH3 0x1A1 SWAP2 SWAP1 PUSH3 0x42E JUMP JUMPDEST PUSH3 0x1AD SWAP2 SWAP1 PUSH3 0x4A8 JUMP JUMPDEST PUSH1 0xB DUP2 SWAP1 SSTORE POP PUSH3 0x552 JUMP JUMPDEST CALLER PUSH20 0xFFFFFFFFFFFFFFFFFFFFFFFFFFFFFFFFFFFFFFFF AND DUP2 PUSH20 0xFFFFFFFFFFFFFFFFFFFFFFFFFFFFFFFFFFFFFFFF AND SUB PUSH3 0x22A JUMPI PUSH1 0x40 MLOAD PUSH32 0x8C379A000000000000000000000000000000000000000000000000000000000 DUP2 MSTORE PUSH1 0x4 ADD PUSH3 0x221 SWAP1 PUSH3 0x530 JUMP JUMPDEST PUSH1 0x40 MLOAD DUP1 SWAP2 SUB SWAP1 REVERT JUMPDEST DUP1 PUSH1 0x7 PUSH1 0x0 PUSH2 0x100 EXP DUP2 SLOAD DUP2 PUSH20 0xFFFFFFFFFFFFFFFFFFFFFFFFFFFFFFFFFFFFFFFF MUL NOT AND SWAP1 DUP4 PUSH20 0xFFFFFFFFFFFFFFFFFFFFFFFFFFFFFFFFFFFFFFFF AND MUL OR SWAP1 SSTORE POP DUP1 PUSH20 0xFFFFFFFFFFFFFFFFFFFFFFFFFFFFFFFFFFFFFFFF AND PUSH1 0x6 PUSH1 0x0 SWAP1 SLOAD SWAP1 PUSH2 0x100 EXP SWAP1 DIV PUSH20 0xFFFFFFFFFFFFFFFFFFFFFFFFFFFFFFFFFFFFFFFF AND PUSH20 0xFFFFFFFFFFFFFFFFFFFFFFFFFFFFFFFFFFFFFFFF AND PUSH32 0xED8889F560326EB138920D842192F0EB3DD22B4F139C87A2C57538E05BAE1278 PUSH1 0x40 MLOAD PUSH1 0x40 MLOAD DUP1 SWAP2 SUB SWAP1 LOG3 POP JUMP JUMPDEST DUP1 PUSH1 0x2 PUSH1 0x0 PUSH2 0x100 EXP DUP2 SLOAD DUP2 PUSH20 0xFFFFFFFFFFFFFFFFFFFFFFFFFFFFFFFFFFFFFFFF MUL NOT AND SWAP1 DUP4 PUSH20 0xFFFFFFFFFFFFFFFFFFFFFFFFFFFFFFFFFFFFFFFF AND MUL OR SWAP1 SSTORE POP POP JUMP JUMPDEST DUP1 PUSH1 0x3 PUSH1 0x0 PUSH2 0x100 EXP DUP2 SLOAD DUP2 PUSH20 0xFFFFFFFFFFFFFFFFFFFFFFFFFFFFFFFFFFFFFFFF MUL NOT AND SWAP1 DUP4 PUSH20 0xFFFFFFFFFFFFFFFFFFFFFFFFFFFFFFFFFFFFFFFF AND MUL OR SWAP1 SSTORE POP POP JUMP JUMPDEST PUSH1 0x0 DUP3 DUP3 MSTORE PUSH1 0x20 DUP3 ADD SWAP1 POP SWAP3 SWAP2 POP POP JUMP JUMPDEST PUSH32 0x43616E6E6F7420736574206F776E657220746F207A65726F0000000000000000 PUSH1 0x0 DUP3 ADD MSTORE POP JUMP JUMPDEST PUSH1 0x0 PUSH3 0x3BB PUSH1 0x18 DUP4 PUSH3 0x372 JUMP JUMPDEST SWAP2 POP PUSH3 0x3C8 DUP3 PUSH3 0x383 JUMP JUMPDEST PUSH1 0x20 DUP3 ADD SWAP1 POP SWAP2 SWAP1 POP JUMP JUMPDEST PUSH1 0x0 PUSH1 0x20 DUP3 ADD SWAP1 POP DUP2 DUP2 SUB PUSH1 0x0 DUP4 ADD MSTORE PUSH3 0x3EE DUP2 PUSH3 0x3AC JUMP JUMPDEST SWAP1 POP SWAP2 SWAP1 POP JUMP JUMPDEST PUSH1 0x0 DUP2 SWAP1 POP SWAP2 SWAP1 POP JUMP JUMPDEST PUSH32 0x4E487B7100000000000000000000000000000000000000000000000000000000 PUSH1 0x0 MSTORE PUSH1 0x11 PUSH1 0x4 MSTORE PUSH1 0x24 PUSH1 0x0 REVERT JUMPDEST PUSH1 0x0 PUSH3 0x43B DUP3 PUSH3 0x3F5 JUMP JUMPDEST SWAP2 POP PUSH3 0x448 DUP4 PUSH3 0x3F5 JUMP JUMPDEST SWAP3 POP DUP3 DUP3 MUL PUSH3 0x458 DUP2 PUSH3 0x3F5 JUMP JUMPDEST SWAP2 POP DUP3 DUP3 DIV DUP5 EQ DUP4 ISZERO OR PUSH3 0x472 JUMPI PUSH3 0x471 PUSH3 0x3FF JUMP JUMPDEST JUMPDEST POP SWAP3 SWAP2 POP POP JUMP JUMPDEST PUSH32 0x4E487B7100000000000000000000000000000000000000000000000000000000 PUSH1 0x0 MSTORE PUSH1 0x12 PUSH1 0x4 MSTORE PUSH1 0x24 PUSH1 0x0 REVERT JUMPDEST PUSH1 0x0 PUSH3 0x4B5 DUP3 PUSH3 0x3F5 JUMP JUMPDEST SWAP2 POP PUSH3 0x4C2 DUP4 PUSH3 0x3F5 JUMP JUMPDEST SWAP3 POP DUP3 PUSH3 0x4D5 JUMPI PUSH3 0x4D4 PUSH3 0x479 JUMP JUMPDEST JUMPDEST DUP3 DUP3 DIV SWAP1 POP SWAP3 SWAP2 POP POP JUMP JUMPDEST PUSH32 0x43616E6E6F74207472616E7366657220746F2073656C66000000000000000000 PUSH1 0x0 DUP3 ADD MSTORE POP JUMP JUMPDEST PUSH1 0x0 PUSH3 0x518 PUSH1 0x17 DUP4 PUSH3 0x372 JUMP JUMPDEST SWAP2 POP PUSH3 0x525 DUP3 PUSH3 0x4E0 JUMP JUMPDEST PUSH1 0x20 DUP3 ADD SWAP1 POP SWAP2 SWAP1 POP JUMP JUMPDEST PUSH1 0x0 PUSH1 0x20 DUP3 ADD SWAP1 POP DUP2 DUP2 SUB PUSH1 0x0 DUP4 ADD MSTORE PUSH3 0x54B DUP2 PUSH3 0x509 JUMP JUMPDEST SWAP1 POP SWAP2 SWAP1 POP JUMP JUMPDEST PUSH2 0x23FD DUP1 PUSH3 0x562 PUSH1 0x0 CODECOPY PUSH1 0x0 RETURN INVALID PUSH1 0x80 PUSH1 0x40 MSTORE CALLVALUE DUP1 ISZERO PUSH2 0x10 JUMPI PUSH1 0x0 DUP1 REVERT JUMPDEST POP PUSH1 0x4 CALLDATASIZE LT PUSH2 0x88 JUMPI PUSH1 0x0 CALLDATALOAD PUSH1 0xE0 SHR DUP1 PUSH4 0x8DA5CB5B GT PUSH2 0x5B JUMPI DUP1 PUSH4 0x8DA5CB5B EQ PUSH2 0xDD JUMPI DUP1 PUSH4 0x8DC654A2 EQ PUSH2 0xFB JUMPI DUP1 PUSH4 0xC2FB8523 EQ PUSH2 0x105 JUMPI DUP1 PUSH4 0xF2FDE38B EQ PUSH2 0x121 JUMPI PUSH2 0x88 JUMP JUMPDEST DUP1 PUSH4 0x11411E8A EQ PUSH2 0x8D JUMPI DUP1 PUSH4 0x73D4A13A EQ PUSH2 0x97 JUMPI DUP1 PUSH4 0x79BA5097 EQ PUSH2 0xB5 JUMPI DUP1 PUSH4 0x824F4BAF EQ PUSH2 0xBF JUMPI JUMPDEST PUSH1 0x0 DUP1 REVERT JUMPDEST PUSH2 0x95 PUSH2 0x13D JUMP JUMPDEST STOP JUMPDEST PUSH2 0x9F PUSH2 0x246 JUMP JUMPDEST PUSH1 0x40 MLOAD PUSH2 0xAC SWAP2 SWAP1 PUSH2 0x132A JUMP JUMPDEST PUSH1 0x40 MLOAD DUP1 SWAP2 SUB SWAP1 RETURN JUMPDEST PUSH2 0xBD PUSH2 0x2D4 JUMP JUMPDEST STOP JUMPDEST PUSH2 0xC7 PUSH2 0x46B JUMP JUMPDEST PUSH1 0x40 MLOAD PUSH2 0xD4 SWAP2 SWAP1 PUSH2 0x13A1 JUMP JUMPDEST PUSH1 0x40 MLOAD DUP1 SWAP2 SUB SWAP1 RETURN JUMPDEST PUSH2 0xE5 PUSH2 0x4F9 JUMP JUMPDEST PUSH1 0x40 MLOAD PUSH2 0xF2 SWAP2 SWAP1 PUSH2 0x1404 JUMP JUMPDEST PUSH1 0x40 MLOAD DUP1 SWAP2 SUB SWAP1 RETURN JUMPDEST PUSH2 0x103 PUSH2 0x523 JUMP JUMPDEST STOP JUMPDEST PUSH2 0x11F PUSH1 0x4 DUP1 CALLDATASIZE SUB DUP2 ADD SWAP1 PUSH2 0x11A SWAP2 SWAP1 PUSH2 0x159E JUMP JUMPDEST PUSH2 0x670 JUMP JUMPDEST STOP JUMPDEST PUSH2 0x13B PUSH1 0x4 DUP1 CALLDATASIZE SUB DUP2 ADD SWAP1 PUSH2 0x136 SWAP2 SWAP1 PUSH2 0x1626 JUMP JUMPDEST PUSH2 0x7DE JUMP JUMPDEST STOP JUMPDEST PUSH1 0x0 PUSH2 0x153 PUSH1 0xA SLOAD ADDRESS PUSH4 0xC2FB8523 PUSH1 0xE0 SHL PUSH2 0x7F2 JUMP JUMPDEST SWAP1 POP PUSH2 0x1B7 PUSH1 0x40 MLOAD DUP1 PUSH1 0x40 ADD PUSH1 0x40 MSTORE DUP1 PUSH1 0x3 DUP2 MSTORE PUSH1 0x20 ADD PUSH32 0x6765740000000000000000000000000000000000000000000000000000000000 DUP2 MSTORE POP PUSH1 0x40 MLOAD DUP1 PUSH1 0xA0 ADD PUSH1 0x40 MSTORE DUP1 PUSH1 0x62 DUP2 MSTORE PUSH1 0x20 ADD PUSH2 0x2366 PUSH1 0x62 SWAP2 CODECOPY DUP4 PUSH2 0x823 SWAP1 SWAP3 SWAP2 SWAP1 PUSH4 0xFFFFFFFF AND JUMP JUMPDEST PUSH2 0x236 PUSH1 0x40 MLOAD DUP1 PUSH1 0x40 ADD PUSH1 0x40 MSTORE DUP1 PUSH1 0x4 DUP2 MSTORE PUSH1 0x20 ADD PUSH32 0x7061746800000000000000000000000000000000000000000000000000000000 DUP2 MSTORE POP PUSH1 0x40 MLOAD DUP1 PUSH1 0x40 ADD PUSH1 0x40 MSTORE DUP1 PUSH1 0x5 DUP2 MSTORE PUSH1 0x20 ADD PUSH32 0x696D616765000000000000000000000000000000000000000000000000000000 DUP2 MSTORE POP DUP4 PUSH2 0x823 SWAP1 SWAP3 SWAP2 SWAP1 PUSH4 0xFFFFFFFF AND JUMP JUMPDEST PUSH2 0x242 DUP2 PUSH1 0xB SLOAD PUSH2 0x856 JUMP JUMPDEST POP POP JUMP JUMPDEST PUSH1 0x8 DUP1 SLOAD PUSH2 0x253 SWAP1 PUSH2 0x1682 JUMP JUMPDEST DUP1 PUSH1 0x1F ADD PUSH1 0x20 DUP1 SWAP2 DIV MUL PUSH1 0x20 ADD PUSH1 0x40 MLOAD SWAP1 DUP2 ADD PUSH1 0x40 MSTORE DUP1 SWAP3 SWAP2 SWAP1 DUP2 DUP2 MSTORE PUSH1 0x20 ADD DUP3 DUP1 SLOAD PUSH2 0x27F SWAP1 PUSH2 0x1682 JUMP JUMPDEST DUP1 ISZERO PUSH2 0x2CC JUMPI DUP1 PUSH1 0x1F LT PUSH2 0x2A1 JUMPI PUSH2 0x100 DUP1 DUP4 SLOAD DIV MUL DUP4 MSTORE SWAP2 PUSH1 0x20 ADD SWAP2 PUSH2 0x2CC JUMP JUMPDEST DUP3 ADD SWAP2 SWAP1 PUSH1 0x0 MSTORE PUSH1 0x20 PUSH1 0x0 KECCAK256 SWAP1 JUMPDEST DUP2 SLOAD DUP2 MSTORE SWAP1 PUSH1 0x1 ADD SWAP1 PUSH1 0x20 ADD DUP1 DUP4 GT PUSH2 0x2AF JUMPI DUP3 SWAP1 SUB PUSH1 0x1F AND DUP3 ADD SWAP2 JUMPDEST POP POP POP POP POP DUP2 JUMP JUMPDEST PUSH1 0x7 PUSH1 0x0 SWAP1 SLOAD SWAP1 PUSH2 0x100 EXP SWAP1 DIV PUSH20 0xFFFFFFFFFFFFFFFFFFFFFFFFFFFFFFFFFFFFFFFF AND PUSH20 0xFFFFFFFFFFFFFFFFFFFFFFFFFFFFFFFFFFFFFFFF AND CALLER PUSH20 0xFFFFFFFFFFFFFFFFFFFFFFFFFFFFFFFFFFFFFFFF AND EQ PUSH2 0x364 JUMPI PUSH1 0x40 MLOAD PUSH32 0x8C379A000000000000000000000000000000000000000000000000000000000 DUP2 MSTORE PUSH1 0x4 ADD PUSH2 0x35B SWAP1 PUSH2 0x16FF JUMP JUMPDEST PUSH1 0x40 MLOAD DUP1 SWAP2 SUB SWAP1 REVERT JUMPDEST PUSH1 0x0 PUSH1 0x6 PUSH1 0x0 SWAP1 SLOAD SWAP1 PUSH2 0x100 EXP SWAP1 DIV PUSH20 0xFFFFFFFFFFFFFFFFFFFFFFFFFFFFFFFFFFFFFFFF AND SWAP1 POP CALLER PUSH1 0x6 PUSH1 0x0 PUSH2 0x100 EXP DUP2 SLOAD DUP2 PUSH20 0xFFFFFFFFFFFFFFFFFFFFFFFFFFFFFFFFFFFFFFFF MUL NOT AND SWAP1 DUP4 PUSH20 0xFFFFFFFFFFFFFFFFFFFFFFFFFFFFFFFFFFFFFFFF AND MUL OR SWAP1 SSTORE POP PUSH1 0x0 PUSH1 0x7 PUSH1 0x0 PUSH2 0x100 EXP DUP2 SLOAD DUP2 PUSH20 0xFFFFFFFFFFFFFFFFFFFFFFFFFFFFFFFFFFFFFFFF MUL NOT AND SWAP1 DUP4 PUSH20 0xFFFFFFFFFFFFFFFFFFFFFFFFFFFFFFFFFFFFFFFF AND MUL OR SWAP1 SSTORE POP CALLER PUSH20 0xFFFFFFFFFFFFFFFFFFFFFFFFFFFFFFFFFFFFFFFF AND DUP2 PUSH20 0xFFFFFFFFFFFFFFFFFFFFFFFFFFFFFFFFFFFFFFFF AND PUSH32 0x8BE0079C531659141344CD1FD0A4F28419497F9722A3DAAFE3B4186F6B6457E0 PUSH1 0x40 MLOAD PUSH1 0x40 MLOAD DUP1 SWAP2 SUB SWAP1 LOG3 POP JUMP JUMPDEST PUSH1 0x9 DUP1 SLOAD PUSH2 0x478 SWAP1 PUSH2 0x1682 JUMP JUMPDEST DUP1 PUSH1 0x1F ADD PUSH1 0x20 DUP1 SWAP2 DIV MUL PUSH1 0x20 ADD PUSH1 0x40 MLOAD SWAP1 DUP2 ADD PUSH1 0x40 MSTORE DUP1 SWAP3 SWAP2 SWAP1 DUP2 DUP2 MSTORE PUSH1 0x20 ADD DUP3 DUP1 SLOAD PUSH2 0x4A4 SWAP1 PUSH2 0x1682 JUMP JUMPDEST DUP1 ISZERO PUSH2 0x4F1 JUMPI DUP1 PUSH1 0x1F LT PUSH2 0x4C6 JUMPI PUSH2 0x100 DUP1 DUP4 SLOAD DIV MUL DUP4 MSTORE SWAP2 PUSH1 0x20 ADD SWAP2 PUSH2 0x4F1 JUMP JUMPDEST DUP3 ADD SWAP2 SWAP1 PUSH1 0x0 MSTORE PUSH1 0x20 PUSH1 0x0 KECCAK256 SWAP1 JUMPDEST DUP2 SLOAD DUP2 MSTORE SWAP1 PUSH1 0x1 ADD SWAP1 PUSH1 0x20 ADD DUP1 DUP4 GT PUSH2 0x4D4 JUMPI DUP3 SWAP1 SUB PUSH1 0x1F AND DUP3 ADD SWAP2 JUMPDEST POP POP POP POP POP DUP2 JUMP JUMPDEST PUSH1 0x0 PUSH1 0x6 PUSH1 0x0 SWAP1 SLOAD SWAP1 PUSH2 0x100 EXP SWAP1 DIV PUSH20 0xFFFFFFFFFFFFFFFFFFFFFFFFFFFFFFFFFFFFFFFF AND SWAP1 POP SWAP1 JUMP JUMPDEST PUSH2 0x52B PUSH2 0x88D JUMP JUMPDEST PUSH1 0x0 PUSH2 0x535 PUSH2 0x91F JUMP JUMPDEST SWAP1 POP DUP1 PUSH20 0xFFFFFFFFFFFFFFFFFFFFFFFFFFFFFFFFFFFFFFFF AND PUSH4 0xA9059CBB CALLER DUP4 PUSH20 0xFFFFFFFFFFFFFFFFFFFFFFFFFFFFFFFFFFFFFFFF AND PUSH4 0x70A08231 ADDRESS PUSH1 0x40 MLOAD DUP3 PUSH4 0xFFFFFFFF AND PUSH1 0xE0 SHL DUP2 MSTORE PUSH1 0x4 ADD PUSH2 0x58D SWAP2 SWAP1 PUSH2 0x1404 JUMP JUMPDEST PUSH1 0x20 PUSH1 0x40 MLOAD DUP1 DUP4 SUB DUP2 DUP7 GAS STATICCALL ISZERO DUP1 ISZERO PUSH2 0x5AA JUMPI RETURNDATASIZE PUSH1 0x0 DUP1 RETURNDATACOPY RETURNDATASIZE PUSH1 0x0 REVERT JUMPDEST POP POP POP POP PUSH1 0x40 MLOAD RETURNDATASIZE PUSH1 0x1F NOT PUSH1 0x1F DUP3 ADD AND DUP3 ADD DUP1 PUSH1 0x40 MSTORE POP DUP2 ADD SWAP1 PUSH2 0x5CE SWAP2 SWAP1 PUSH2 0x1755 JUMP JUMPDEST PUSH1 0x40 MLOAD DUP4 PUSH4 0xFFFFFFFF AND PUSH1 0xE0 SHL DUP2 MSTORE PUSH1 0x4 ADD PUSH2 0x5EB SWAP3 SWAP2 SWAP1 PUSH2 0x1791 JUMP JUMPDEST PUSH1 0x20 PUSH1 0x40 MLOAD DUP1 DUP4 SUB DUP2 PUSH1 0x0 DUP8 GAS CALL ISZERO DUP1 ISZERO PUSH2 0x60A JUMPI RETURNDATASIZE PUSH1 0x0 DUP1 RETURNDATACOPY RETURNDATASIZE PUSH1 0x0 REVERT JUMPDEST POP POP POP POP PUSH1 0x40 MLOAD RETURNDATASIZE PUSH1 0x1F NOT PUSH1 0x1F DUP3 ADD AND DUP3 ADD DUP1 PUSH1 0x40 MSTORE POP DUP2 ADD SWAP1 PUSH2 0x62E SWAP2 SWAP1 PUSH2 0x17F2 JUMP JUMPDEST PUSH2 0x66D JUMPI PUSH1 0x40 MLOAD PUSH32 0x8C379A000000000000000000000000000000000000000000000000000000000 DUP2 MSTORE PUSH1 0x4 ADD PUSH2 0x664 SWAP1 PUSH2 0x186B JUMP JUMPDEST PUSH1 0x40 MLOAD DUP1 SWAP2 SUB SWAP1 REVERT JUMPDEST POP JUMP JUMPDEST DUP2 PUSH1 0x5 PUSH1 0x0 DUP3 DUP2 MSTORE PUSH1 0x20 ADD SWAP1 DUP2 MSTORE PUSH1 0x20 ADD PUSH1 0x0 KECCAK256 PUSH1 0x0 SWAP1 SLOAD SWAP1 PUSH2 0x100 EXP SWAP1 DIV PUSH20 0xFFFFFFFFFFFFFFFFFFFFFFFFFFFFFFFFFFFFFFFF AND PUSH20 0xFFFFFFFFFFFFFFFFFFFFFFFFFFFFFFFFFFFFFFFF AND CALLER PUSH20 0xFFFFFFFFFFFFFFFFFFFFFFFFFFFFFFFFFFFFFFFF AND EQ PUSH2 0x712 JUMPI PUSH1 0x40 MLOAD PUSH32 0x8C379A000000000000000000000000000000000000000000000000000000000 DUP2 MSTORE PUSH1 0x4 ADD PUSH2 0x709 SWAP1 PUSH2 0x18FD JUMP JUMPDEST PUSH1 0x40 MLOAD DUP1 SWAP2 SUB SWAP1 REVERT JUMPDEST PUSH1 0x5 PUSH1 0x0 DUP3 DUP2 MSTORE PUSH1 0x20 ADD SWAP1 DUP2 MSTORE PUSH1 0x20 ADD PUSH1 0x0 KECCAK256 PUSH1 0x0 PUSH2 0x100 EXP DUP2 SLOAD SWAP1 PUSH20 0xFFFFFFFFFFFFFFFFFFFFFFFFFFFFFFFFFFFFFFFF MUL NOT AND SWAP1 SSTORE DUP1 PUSH32 0x7CC135E0CEBB02C3480AE5D74D377283180A2601F8F644EDF7987B009316C63A PUSH1 0x40 MLOAD PUSH1 0x40 MLOAD DUP1 SWAP2 SUB SWAP1 LOG2 DUP2 PUSH1 0x40 MLOAD PUSH2 0x783 SWAP2 SWAP1 PUSH2 0x1959 JUMP JUMPDEST PUSH1 0x40 MLOAD DUP1 SWAP2 SUB SWAP1 KECCAK256 DUP4 PUSH32 0x1A111C5DCF9A71088BD5E1797FDFAF399FEC2AFBB24ACA247E4E3E9F4B61DF91 PUSH1 0x40 MLOAD PUSH1 0x40 MLOAD DUP1 SWAP2 SUB SWAP1 LOG3 DUP2 PUSH1 0x8 SWAP1 DUP2 PUSH2 0x7C7 SWAP2 SWAP1 PUSH2 0x1B1C JUMP JUMPDEST POP PUSH1 0x8 PUSH1 0x9 SWAP1 DUP2 PUSH2 0x7D8 SWAP2 SWAP1 PUSH2 0x1C74 JUMP JUMPDEST POP POP POP POP JUMP JUMPDEST PUSH2 0x7E6 PUSH2 0x88D JUMP JUMPDEST PUSH2 0x7EF DUP2 PUSH2 0x949 JUMP JUMPDEST POP JUMP JUMPDEST PUSH2 0x7FA PUSH2 0x1213 JUMP JUMPDEST PUSH2 0x802 PUSH2 0x1213 JUMP JUMPDEST PUSH2 0x819 DUP6 DUP6 DUP6 DUP5 PUSH2 0xA77 SWAP1 SWAP4 SWAP3 SWAP2 SWAP1 PUSH4 0xFFFFFFFF AND JUMP JUMPDEST SWAP2 POP POP SWAP4 SWAP3 POP POP POP JUMP JUMPDEST PUSH2 0x83A DUP3 DUP5 PUSH1 0x80 ADD MLOAD PUSH2 0xB27 SWAP1 SWAP2 SWAP1 PUSH4 0xFFFFFFFF AND JUMP JUMPDEST PUSH2 0x851 DUP2 DUP5 PUSH1 0x80 ADD MLOAD PUSH2 0xB27 SWAP1 SWAP2 SWAP1 PUSH4 0xFFFFFFFF AND JUMP JUMPDEST POP POP POP JUMP JUMPDEST PUSH1 0x0 PUSH2 0x885 PUSH1 0x3 PUSH1 0x0 SWAP1 SLOAD SWAP1 PUSH2 0x100 EXP SWAP1 DIV PUSH20 0xFFFFFFFFFFFFFFFFFFFFFFFFFFFFFFFFFFFFFFFF AND DUP5 DUP5 PUSH2 0xB4C JUMP JUMPDEST SWAP1 POP SWAP3 SWAP2 POP POP JUMP JUMPDEST PUSH1 0x6 PUSH1 0x0 SWAP1 SLOAD SWAP1 PUSH2 0x100 EXP SWAP1 DIV PUSH20 0xFFFFFFFFFFFFFFFFFFFFFFFFFFFFFFFFFFFFFFFF AND PUSH20 0xFFFFFFFFFFFFFFFFFFFFFFFFFFFFFFFFFFFFFFFF AND CALLER PUSH20 0xFFFFFFFFFFFFFFFFFFFFFFFFFFFFFFFFFFFFFFFF AND EQ PUSH2 0x91D JUMPI PUSH1 0x40 MLOAD PUSH32 0x8C379A000000000000000000000000000000000000000000000000000000000 DUP2 MSTORE PUSH1 0x4 ADD PUSH2 0x914 SWAP1 PUSH2 0x1DA8 JUMP JUMPDEST PUSH1 0x40 MLOAD DUP1 SWAP2 SUB SWAP1 REVERT JUMPDEST JUMP JUMPDEST PUSH1 0x0 PUSH1 0x2 PUSH1 0x0 SWAP1 SLOAD SWAP1 PUSH2 0x100 EXP SWAP1 DIV PUSH20 0xFFFFFFFFFFFFFFFFFFFFFFFFFFFFFFFFFFFFFFFF AND SWAP1 POP SWAP1 JUMP JUMPDEST CALLER PUSH20 0xFFFFFFFFFFFFFFFFFFFFFFFFFFFFFFFFFFFFFFFF AND DUP2 PUSH20 0xFFFFFFFFFFFFFFFFFFFFFFFFFFFFFFFFFFFFFFFF AND SUB PUSH2 0x9B7 JUMPI PUSH1 0x40 MLOAD PUSH32 0x8C379A000000000000000000000000000000000000000000000000000000000 DUP2 MSTORE PUSH1 0x4 ADD PUSH2 0x9AE SWAP1 PUSH2 0x1E14 JUMP JUMPDEST PUSH1 0x40 MLOAD DUP1 SWAP2 SUB SWAP1 REVERT JUMPDEST DUP1 PUSH1 0x7 PUSH1 0x0 PUSH2 0x100 EXP DUP2 SLOAD DUP2 PUSH20 0xFFFFFFFFFFFFFFFFFFFFFFFFFFFFFFFFFFFFFFFF MUL NOT AND SWAP1 DUP4 PUSH20 0xFFFFFFFFFFFFFFFFFFFFFFFFFFFFFFFFFFFFFFFF AND MUL OR SWAP1 SSTORE POP DUP1 PUSH20 0xFFFFFFFFFFFFFFFFFFFFFFFFFFFFFFFFFFFFFFFF AND PUSH1 0x6 PUSH1 0x0 SWAP1 SLOAD SWAP1 PUSH2 0x100 EXP SWAP1 DIV PUSH20 0xFFFFFFFFFFFFFFFFFFFFFFFFFFFFFFFFFFFFFFFF AND PUSH20 0xFFFFFFFFFFFFFFFFFFFFFFFFFFFFFFFFFFFFFFFF AND PUSH32 0xED8889F560326EB138920D842192F0EB3DD22B4F139C87A2C57538E05BAE1278 PUSH1 0x40 MLOAD PUSH1 0x40 MLOAD DUP1 SWAP2 SUB SWAP1 LOG3 POP JUMP JUMPDEST PUSH2 0xA7F PUSH2 0x1213 JUMP JUMPDEST PUSH2 0xA8F DUP6 PUSH1 0x80 ADD MLOAD PUSH2 0x100 PUSH2 0xC18 JUMP JUMPDEST POP DUP4 DUP6 PUSH1 0x0 ADD DUP2 DUP2 MSTORE POP POP DUP3 DUP6 PUSH1 0x20 ADD SWAP1 PUSH20 0xFFFFFFFFFFFFFFFFFFFFFFFFFFFFFFFFFFFFFFFF AND SWAP1 DUP2 PUSH20 0xFFFFFFFFFFFFFFFFFFFFFFFFFFFFFFFFFFFFFFFF AND DUP2 MSTORE POP POP DUP2 DUP6 PUSH1 0x40 ADD SWAP1 PUSH28 0xFFFFFFFFFFFFFFFFFFFFFFFFFFFFFFFFFFFFFFFFFFFFFFFFFFFFFFFF NOT AND SWAP1 DUP2 PUSH28 0xFFFFFFFFFFFFFFFFFFFFFFFFFFFFFFFFFFFFFFFFFFFFFFFFFFFFFFFF NOT AND DUP2 MSTORE POP POP DUP5 SWAP1 POP SWAP5 SWAP4 POP POP POP POP JUMP JUMPDEST PUSH2 0xB34 DUP3 PUSH1 0x3 DUP4 MLOAD PUSH2 0xC82 JUMP JUMPDEST PUSH2 0xB47 DUP2 DUP4 PUSH2 0xE07 SWAP1 SWAP2 SWAP1 PUSH4 0xFFFFFFFF AND JUMP JUMPDEST POP POP POP JUMP JUMPDEST PUSH1 0x0 DUP1 PUSH1 0x4 SLOAD SWAP1 POP PUSH1 0x1 DUP2 PUSH2 0xB61 SWAP2 SWAP1 PUSH2 0x1E63 JUMP JUMPDEST PUSH1 0x4 DUP2 SWAP1 SSTORE POP PUSH1 0x0 PUSH4 0x40429946 PUSH1 0xE0 SHL PUSH1 0x0 DUP1 DUP8 PUSH1 0x0 ADD MLOAD ADDRESS DUP10 PUSH1 0x40 ADD MLOAD DUP8 PUSH1 0x1 DUP13 PUSH1 0x80 ADD MLOAD PUSH1 0x0 ADD MLOAD PUSH1 0x40 MLOAD PUSH1 0x24 ADD PUSH2 0xBA2 SWAP9 SWAP8 SWAP7 SWAP6 SWAP5 SWAP4 SWAP3 SWAP2 SWAP1 PUSH2 0x1EE1 JUMP JUMPDEST PUSH1 0x40 MLOAD PUSH1 0x20 DUP2 DUP4 SUB SUB DUP2 MSTORE SWAP1 PUSH1 0x40 MSTORE SWAP1 PUSH28 0xFFFFFFFFFFFFFFFFFFFFFFFFFFFFFFFFFFFFFFFFFFFFFFFFFFFFFFFF NOT AND PUSH1 0x20 DUP3 ADD DUP1 MLOAD PUSH28 0xFFFFFFFFFFFFFFFFFFFFFFFFFFFFFFFFFFFFFFFFFFFFFFFFFFFFFFFF DUP4 DUP2 DUP4 AND OR DUP4 MSTORE POP POP POP POP SWAP1 POP PUSH2 0xC0D DUP7 DUP4 DUP7 DUP5 PUSH2 0xE29 JUMP JUMPDEST SWAP3 POP POP POP SWAP4 SWAP3 POP POP POP JUMP JUMPDEST PUSH2 0xC20 PUSH2 0x1280 JUMP JUMPDEST PUSH1 0x0 PUSH1 0x20 DUP4 PUSH2 0xC2F SWAP2 SWAP1 PUSH2 0x1F95 JUMP JUMPDEST EQ PUSH2 0xC5B JUMPI PUSH1 0x20 DUP3 PUSH2 0xC41 SWAP2 SWAP1 PUSH2 0x1F95 JUMP JUMPDEST PUSH1 0x20 PUSH2 0xC4D SWAP2 SWAP1 PUSH2 0x1FC6 JUMP JUMPDEST DUP3 PUSH2 0xC58 SWAP2 SWAP1 PUSH2 0x1E63 JUMP JUMPDEST SWAP2 POP JUMPDEST DUP2 DUP4 PUSH1 0x20 ADD DUP2 DUP2 MSTORE POP POP PUSH1 0x40 MLOAD DUP1 DUP5 MSTORE PUSH1 0x0 DUP2 MSTORE DUP3 DUP2 ADD PUSH1 0x20 ADD PUSH1 0x40 MSTORE POP DUP3 SWAP1 POP SWAP3 SWAP2 POP POP JUMP JUMPDEST PUSH1 0x17 DUP2 PUSH8 0xFFFFFFFFFFFFFFFF AND GT PUSH2 0xCB9 JUMPI PUSH2 0xCB3 DUP2 PUSH1 0x5 DUP5 PUSH1 0xFF AND SWAP1 SHL PUSH1 0xFF AND OR DUP5 PUSH2 0xFBE SWAP1 SWAP2 SWAP1 PUSH4 0xFFFFFFFF AND JUMP JUMPDEST POP PUSH2 0xE02 JUMP JUMPDEST PUSH1 0xFF DUP2 PUSH8 0xFFFFFFFFFFFFFFFF AND GT PUSH2 0xD0F JUMPI PUSH2 0xCE8 PUSH1 0x18 PUSH1 0x5 DUP5 PUSH1 0xFF AND SWAP1 SHL OR DUP5 PUSH2 0xFBE SWAP1 SWAP2 SWAP1 PUSH4 0xFFFFFFFF AND JUMP JUMPDEST POP PUSH2 0xD09 DUP2 PUSH8 0xFFFFFFFFFFFFFFFF AND PUSH1 0x1 DUP6 PUSH2 0xFDE SWAP1 SWAP3 SWAP2 SWAP1 PUSH4 0xFFFFFFFF AND JUMP JUMPDEST POP PUSH2 0xE01 JUMP JUMPDEST PUSH2 0xFFFF DUP2 PUSH8 0xFFFFFFFFFFFFFFFF AND GT PUSH2 0xD66 JUMPI PUSH2 0xD3F PUSH1 0x19 PUSH1 0x5 DUP5 PUSH1 0xFF AND SWAP1 SHL OR DUP5 PUSH2 0xFBE SWAP1 SWAP2 SWAP1 PUSH4 0xFFFFFFFF AND JUMP JUMPDEST POP PUSH2 0xD60 DUP2 PUSH8 0xFFFFFFFFFFFFFFFF AND PUSH1 0x2 DUP6 PUSH2 0xFDE SWAP1 SWAP3 SWAP2 SWAP1 PUSH4 0xFFFFFFFF AND JUMP JUMPDEST POP PUSH2 0xE00 JUMP JUMPDEST PUSH4 0xFFFFFFFF DUP2 PUSH8 0xFFFFFFFFFFFFFFFF AND GT PUSH2 0xDBF JUMPI PUSH2 0xD98 PUSH1 0x1A PUSH1 0x5 DUP5 PUSH1 0xFF AND SWAP1 SHL OR DUP5 PUSH2 0xFBE SWAP1 SWAP2 SWAP1 PUSH4 0xFFFFFFFF AND JUMP JUMPDEST POP PUSH2 0xDB9 DUP2 PUSH8 0xFFFFFFFFFFFFFFFF AND PUSH1 0x4 DUP6 PUSH2 0xFDE SWAP1 SWAP3 SWAP2 SWAP1 PUSH4 0xFFFFFFFF AND JUMP JUMPDEST POP PUSH2 0xDFF JUMP JUMPDEST PUSH2 0xDDC PUSH1 0x1B PUSH1 0x5 DUP5 PUSH1 0xFF AND SWAP1 SHL OR DUP5 PUSH2 0xFBE SWAP1 SWAP2 SWAP1 PUSH4 0xFFFFFFFF AND JUMP JUMPDEST POP PUSH2 0xDFD DUP2 PUSH8 0xFFFFFFFFFFFFFFFF AND PUSH1 0x8 DUP6 PUSH2 0xFDE SWAP1 SWAP3 SWAP2 SWAP1 PUSH4 0xFFFFFFFF AND JUMP JUMPDEST POP JUMPDEST JUMPDEST JUMPDEST JUMPDEST POP POP POP JUMP JUMPDEST PUSH2 0xE0F PUSH2 0x1280 JUMP JUMPDEST PUSH2 0xE21 DUP4 DUP5 PUSH1 0x0 ADD MLOAD MLOAD DUP5 DUP6 MLOAD PUSH2 0x1000 JUMP JUMPDEST SWAP1 POP SWAP3 SWAP2 POP POP JUMP JUMPDEST PUSH1 0x0 ADDRESS DUP5 PUSH1 0x40 MLOAD PUSH1 0x20 ADD PUSH2 0xE3E SWAP3 SWAP2 SWAP1 PUSH2 0x20A9 JUMP JUMPDEST PUSH1 0x40 MLOAD PUSH1 0x20 DUP2 DUP4 SUB SUB DUP2 MSTORE SWAP1 PUSH1 0x40 MSTORE DUP1 MLOAD SWAP1 PUSH1 0x20 ADD KECCAK256 SWAP1 POP DUP5 PUSH1 0x5 PUSH1 0x0 DUP4 DUP2 MSTORE PUSH1 0x20 ADD SWAP1 DUP2 MSTORE PUSH1 0x20 ADD PUSH1 0x0 KECCAK256 PUSH1 0x0 PUSH2 0x100 EXP DUP2 SLOAD DUP2 PUSH20 0xFFFFFFFFFFFFFFFFFFFFFFFFFFFFFFFFFFFFFFFF MUL NOT AND SWAP1 DUP4 PUSH20 0xFFFFFFFFFFFFFFFFFFFFFFFFFFFFFFFFFFFFFFFF AND MUL OR SWAP1 SSTORE POP DUP1 PUSH32 0xB5E6E01E79F91267DC17B4E6314D5D4D03593D2CEEE0FBB452B750BD70EA5AF9 PUSH1 0x40 MLOAD PUSH1 0x40 MLOAD DUP1 SWAP2 SUB SWAP1 LOG2 PUSH1 0x2 PUSH1 0x0 SWAP1 SLOAD SWAP1 PUSH2 0x100 EXP SWAP1 DIV PUSH20 0xFFFFFFFFFFFFFFFFFFFFFFFFFFFFFFFFFFFFFFFF AND PUSH20 0xFFFFFFFFFFFFFFFFFFFFFFFFFFFFFFFFFFFFFFFF AND PUSH4 0x4000AEA0 DUP7 DUP6 DUP6 PUSH1 0x40 MLOAD DUP5 PUSH4 0xFFFFFFFF AND PUSH1 0xE0 SHL DUP2 MSTORE PUSH1 0x4 ADD PUSH2 0xF34 SWAP4 SWAP3 SWAP2 SWAP1 PUSH2 0x20D5 JUMP JUMPDEST PUSH1 0x20 PUSH1 0x40 MLOAD DUP1 DUP4 SUB DUP2 PUSH1 0x0 DUP8 GAS CALL ISZERO DUP1 ISZERO PUSH2 0xF53 JUMPI RETURNDATASIZE PUSH1 0x0 DUP1 RETURNDATACOPY RETURNDATASIZE PUSH1 0x0 REVERT JUMPDEST POP POP POP POP PUSH1 0x40 MLOAD RETURNDATASIZE PUSH1 0x1F NOT PUSH1 0x1F DUP3 ADD AND DUP3 ADD DUP1 PUSH1 0x40 MSTORE POP DUP2 ADD SWAP1 PUSH2 0xF77 SWAP2 SWAP1 PUSH2 0x17F2 JUMP JUMPDEST PUSH2 0xFB6 JUMPI PUSH1 0x40 MLOAD PUSH32 0x8C379A000000000000000000000000000000000000000000000000000000000 DUP2 MSTORE PUSH1 0x4 ADD PUSH2 0xFAD SWAP1 PUSH2 0x2185 JUMP JUMPDEST PUSH1 0x40 MLOAD DUP1 SWAP2 SUB SWAP1 REVERT JUMPDEST SWAP5 SWAP4 POP POP POP POP JUMP JUMPDEST PUSH2 0xFC6 PUSH2 0x1280 JUMP JUMPDEST PUSH2 0xFD6 DUP4 DUP5 PUSH1 0x0 ADD MLOAD MLOAD DUP5 PUSH2 0x10EF JUMP JUMPDEST SWAP1 POP SWAP3 SWAP2 POP POP JUMP JUMPDEST PUSH2 0xFE6 PUSH2 0x1280 JUMP JUMPDEST PUSH2 0xFF7 DUP5 DUP6 PUSH1 0x0 ADD MLOAD MLOAD DUP6 DUP6 PUSH2 0x1145 JUMP JUMPDEST SWAP1 POP SWAP4 SWAP3 POP POP POP JUMP JUMPDEST PUSH2 0x1008 PUSH2 0x1280 JUMP JUMPDEST DUP3 MLOAD DUP3 GT ISZERO PUSH2 0x1016 JUMPI PUSH1 0x0 DUP1 REVERT JUMPDEST DUP5 PUSH1 0x20 ADD MLOAD DUP3 DUP6 PUSH2 0x1027 SWAP2 SWAP1 PUSH2 0x1E63 JUMP JUMPDEST GT ISZERO PUSH2 0x105C JUMPI PUSH2 0x105B DUP6 PUSH1 0x2 PUSH2 0x104C DUP9 PUSH1 0x20 ADD MLOAD DUP9 DUP8 PUSH2 0x1047 SWAP2 SWAP1 PUSH2 0x1E63 JUMP JUMPDEST PUSH2 0x11D3 JUMP JUMPDEST PUSH2 0x1056 SWAP2 SWAP1 PUSH2 0x21A5 JUMP JUMPDEST PUSH2 0x11EF JUMP JUMPDEST JUMPDEST PUSH1 0x0 DUP1 DUP7 MLOAD DUP1 MLOAD DUP8 PUSH1 0x20 DUP4 ADD ADD SWAP4 POP DUP1 DUP9 DUP8 ADD GT ISZERO PUSH2 0x107B JUMPI DUP8 DUP7 ADD DUP3 MSTORE JUMPDEST PUSH1 0x20 DUP8 ADD SWAP3 POP POP POP JUMPDEST PUSH1 0x20 DUP5 LT PUSH2 0x10C2 JUMPI DUP1 MLOAD DUP3 MSTORE PUSH1 0x20 DUP3 PUSH2 0x109D SWAP2 SWAP1 PUSH2 0x1E63 JUMP JUMPDEST SWAP2 POP PUSH1 0x20 DUP2 PUSH2 0x10AC SWAP2 SWAP1 PUSH2 0x1E63 JUMP JUMPDEST SWAP1 POP PUSH1 0x20 DUP5 PUSH2 0x10BB SWAP2 SWAP1 PUSH2 0x1FC6 JUMP JUMPDEST SWAP4 POP PUSH2 0x1084 JUMP JUMPDEST PUSH1 0x0 PUSH1 0x1 DUP6 PUSH1 0x20 SUB PUSH2 0x100 EXP SUB SWAP1 POP DUP1 NOT DUP3 MLOAD AND DUP2 DUP5 MLOAD AND DUP2 DUP2 OR DUP6 MSTORE POP POP POP DUP7 SWAP3 POP POP POP SWAP5 SWAP4 POP POP POP POP JUMP JUMPDEST PUSH2 0x10F7 PUSH2 0x1280 JUMP JUMPDEST DUP4 PUSH1 0x20 ADD MLOAD DUP4 LT PUSH2 0x111D JUMPI PUSH2 0x111C DUP5 PUSH1 0x2 DUP7 PUSH1 0x20 ADD MLOAD PUSH2 0x1117 SWAP2 SWAP1 PUSH2 0x21A5 JUMP JUMPDEST PUSH2 0x11EF JUMP JUMPDEST JUMPDEST DUP4 MLOAD DUP1 MLOAD PUSH1 0x20 DUP6 DUP4 ADD ADD DUP5 DUP2 MSTORE8 DUP2 DUP7 SUB PUSH2 0x1138 JUMPI PUSH1 0x1 DUP3 ADD DUP4 MSTORE JUMPDEST POP POP POP DUP4 SWAP1 POP SWAP4 SWAP3 POP POP POP JUMP JUMPDEST PUSH2 0x114D PUSH2 0x1280 JUMP JUMPDEST DUP5 PUSH1 0x20 ADD MLOAD DUP5 DUP4 PUSH2 0x115E SWAP2 SWAP1 PUSH2 0x1E63 JUMP JUMPDEST GT ISZERO PUSH2 0x1186 JUMPI PUSH2 0x1185 DUP6 PUSH1 0x2 DUP7 DUP6 PUSH2 0x1176 SWAP2 SWAP1 PUSH2 0x1E63 JUMP JUMPDEST PUSH2 0x1180 SWAP2 SWAP1 PUSH2 0x21A5 JUMP JUMPDEST PUSH2 0x11EF JUMP JUMPDEST JUMPDEST PUSH1 0x0 PUSH1 0x1 DUP4 PUSH2 0x100 PUSH2 0x1198 SWAP2 SWAP1 PUSH2 0x231A JUMP JUMPDEST PUSH2 0x11A2 SWAP2 SWAP1 PUSH2 0x1FC6 JUMP JUMPDEST SWAP1 POP DUP6 MLOAD DUP4 DUP7 DUP3 ADD ADD DUP6 DUP4 NOT DUP3 MLOAD AND OR DUP2 MSTORE DUP2 MLOAD DUP6 DUP9 ADD GT ISZERO PUSH2 0x11C5 JUMPI DUP5 DUP8 ADD DUP3 MSTORE JUMPDEST POP POP DUP6 SWAP2 POP POP SWAP5 SWAP4 POP POP POP POP JUMP JUMPDEST PUSH1 0x0 DUP2 DUP4 GT ISZERO PUSH2 0x11E5 JUMPI DUP3 SWAP1 POP PUSH2 0x11E9 JUMP JUMPDEST DUP2 SWAP1 POP JUMPDEST SWAP3 SWAP2 POP POP JUMP JUMPDEST PUSH1 0x0 DUP3 PUSH1 0x0 ADD MLOAD SWAP1 POP PUSH2 0x1202 DUP4 DUP4 PUSH2 0xC18 JUMP JUMPDEST POP PUSH2 0x120D DUP4 DUP3 PUSH2 0xE07 JUMP JUMPDEST POP POP POP POP JUMP JUMPDEST PUSH1 0x40 MLOAD DUP1 PUSH1 0xA0 ADD PUSH1 0x40 MSTORE DUP1 PUSH1 0x0 DUP1 NOT AND DUP2 MSTORE PUSH1 0x20 ADD PUSH1 0x0 PUSH20 0xFFFFFFFFFFFFFFFFFFFFFFFFFFFFFFFFFFFFFFFF AND DUP2 MSTORE PUSH1 0x20 ADD PUSH1 0x0 PUSH28 0xFFFFFFFFFFFFFFFFFFFFFFFFFFFFFFFFFFFFFFFFFFFFFFFFFFFFFFFF NOT AND DUP2 MSTORE PUSH1 0x20 ADD PUSH1 0x0 DUP2 MSTORE PUSH1 0x20 ADD PUSH2 0x127A PUSH2 0x1280 JUMP JUMPDEST DUP2 MSTORE POP SWAP1 JUMP JUMPDEST PUSH1 0x40 MLOAD DUP1 PUSH1 0x40 ADD PUSH1 0x40 MSTORE DUP1 PUSH1 0x60 DUP2 MSTORE PUSH1 0x20 ADD PUSH1 0x0 DUP2 MSTORE POP SWAP1 JUMP JUMPDEST PUSH1 0x0 DUP2 MLOAD SWAP1 POP SWAP2 SWAP1 POP JUMP JUMPDEST PUSH1 0x0 DUP3 DUP3 MSTORE PUSH1 0x20 DUP3 ADD SWAP1 POP SWAP3 SWAP2 POP POP JUMP JUMPDEST PUSH1 0x0 JUMPDEST DUP4 DUP2 LT ISZERO PUSH2 0x12D4 JUMPI DUP1 DUP3 ADD MLOAD DUP2 DUP5 ADD MSTORE PUSH1 0x20 DUP2 ADD SWAP1 POP PUSH2 0x12B9 JUMP JUMPDEST PUSH1 0x0 DUP5 DUP5 ADD MSTORE POP POP POP POP JUMP JUMPDEST PUSH1 0x0 PUSH1 0x1F NOT PUSH1 0x1F DUP4 ADD AND SWAP1 POP SWAP2 SWAP1 POP JUMP JUMPDEST PUSH1 0x0 PUSH2 0x12FC DUP3 PUSH2 0x129A JUMP JUMPDEST PUSH2 0x1306 DUP2 DUP6 PUSH2 0x12A5 JUMP JUMPDEST SWAP4 POP PUSH2 0x1316 DUP2 DUP6 PUSH1 0x20 DUP7 ADD PUSH2 0x12B6 JUMP JUMPDEST PUSH2 0x131F DUP2 PUSH2 0x12E0 JUMP JUMPDEST DUP5 ADD SWAP2 POP POP SWAP3 SWAP2 POP POP JUMP JUMPDEST PUSH1 0x0 PUSH1 0x20 DUP3 ADD SWAP1 POP DUP2 DUP2 SUB PUSH1 0x0 DUP4 ADD MSTORE PUSH2 0x1344 DUP2 DUP5 PUSH2 0x12F1 JUMP JUMPDEST SWAP1 POP SWAP3 SWAP2 POP POP JUMP JUMPDEST PUSH1 0x0 DUP2 MLOAD SWAP1 POP SWAP2 SWAP1 POP JUMP JUMPDEST PUSH1 0x0 DUP3 DUP3 MSTORE PUSH1 0x20 DUP3 ADD SWAP1 POP SWAP3 SWAP2 POP POP JUMP JUMPDEST PUSH1 0x0 PUSH2 0x1373 DUP3 PUSH2 0x134C JUMP JUMPDEST PUSH2 0x137D DUP2 DUP6 PUSH2 0x1357 JUMP JUMPDEST SWAP4 POP PUSH2 0x138D DUP2 DUP6 PUSH1 0x20 DUP7 ADD PUSH2 0x12B6 JUMP JUMPDEST PUSH2 0x1396 DUP2 PUSH2 0x12E0 JUMP JUMPDEST DUP5 ADD SWAP2 POP POP SWAP3 SWAP2 POP POP JUMP JUMPDEST PUSH1 0x0 PUSH1 0x20 DUP3 ADD SWAP1 POP DUP2 DUP2 SUB PUSH1 0x0 DUP4 ADD MSTORE PUSH2 0x13BB DUP2 DUP5 PUSH2 0x1368 JUMP JUMPDEST SWAP1 POP SWAP3 SWAP2 POP POP JUMP JUMPDEST PUSH1 0x0 PUSH20 0xFFFFFFFFFFFFFFFFFFFFFFFFFFFFFFFFFFFFFFFF DUP3 AND SWAP1 POP SWAP2 SWAP1 POP JUMP JUMPDEST PUSH1 0x0 PUSH2 0x13EE DUP3 PUSH2 0x13C3 JUMP JUMPDEST SWAP1 POP SWAP2 SWAP1 POP JUMP JUMPDEST PUSH2 0x13FE DUP2 PUSH2 0x13E3 JUMP JUMPDEST DUP3 MSTORE POP POP JUMP JUMPDEST PUSH1 0x0 PUSH1 0x20 DUP3 ADD SWAP1 POP PUSH2 0x1419 PUSH1 0x0 DUP4 ADD DUP5 PUSH2 0x13F5 JUMP JUMPDEST SWAP3 SWAP2 POP POP JUMP JUMPDEST PUSH1 0x0 PUSH1 0x40 MLOAD SWAP1 POP SWAP1 JUMP JUMPDEST PUSH1 0x0 DUP1 REVERT JUMPDEST PUSH1 0x0 DUP1 REVERT JUMPDEST PUSH1 0x0 DUP2 SWAP1 POP SWAP2 SWAP1 POP JUMP JUMPDEST PUSH2 0x1446 DUP2 PUSH2 0x1433 JUMP JUMPDEST DUP2 EQ PUSH2 0x1451 JUMPI PUSH1 0x0 DUP1 REVERT JUMPDEST POP JUMP JUMPDEST PUSH1 0x0 DUP2 CALLDATALOAD SWAP1 POP PUSH2 0x1463 DUP2 PUSH2 0x143D JUMP JUMPDEST SWAP3 SWAP2 POP POP JUMP JUMPDEST PUSH1 0x0 DUP1 REVERT JUMPDEST PUSH1 0x0 DUP1 REVERT JUMPDEST PUSH32 0x4E487B7100000000000000000000000000000000000000000000000000000000 PUSH1 0x0 MSTORE PUSH1 0x41 PUSH1 0x4 MSTORE PUSH1 0x24 PUSH1 0x0 REVERT JUMPDEST PUSH2 0x14AB DUP3 PUSH2 0x12E0 JUMP JUMPDEST DUP2 ADD DUP2 DUP2 LT PUSH8 0xFFFFFFFFFFFFFFFF DUP3 GT OR ISZERO PUSH2 0x14CA JUMPI PUSH2 0x14C9 PUSH2 0x1473 JUMP JUMPDEST JUMPDEST DUP1 PUSH1 0x40 MSTORE POP POP POP JUMP JUMPDEST PUSH1 0x0 PUSH2 0x14DD PUSH2 0x141F JUMP JUMPDEST SWAP1 POP PUSH2 0x14E9 DUP3 DUP3 PUSH2 0x14A2 JUMP JUMPDEST SWAP2 SWAP1 POP JUMP JUMPDEST PUSH1 0x0 PUSH8 0xFFFFFFFFFFFFFFFF DUP3 GT ISZERO PUSH2 0x1509 JUMPI PUSH2 0x1508 PUSH2 0x1473 JUMP JUMPDEST JUMPDEST PUSH2 0x1512 DUP3 PUSH2 0x12E0 JUMP JUMPDEST SWAP1 POP PUSH1 0x20 DUP2 ADD SWAP1 POP SWAP2 SWAP1 POP JUMP JUMPDEST DUP3 DUP2 DUP4 CALLDATACOPY PUSH1 0x0 DUP4 DUP4 ADD MSTORE POP POP POP JUMP JUMPDEST PUSH1 0x0 PUSH2 0x1541 PUSH2 0x153C DUP5 PUSH2 0x14EE JUMP JUMPDEST PUSH2 0x14D3 JUMP JUMPDEST SWAP1 POP DUP3 DUP2 MSTORE PUSH1 0x20 DUP2 ADD DUP5 DUP5 DUP5 ADD GT ISZERO PUSH2 0x155D JUMPI PUSH2 0x155C PUSH2 0x146E JUMP JUMPDEST JUMPDEST PUSH2 0x1568 DUP5 DUP3 DUP6 PUSH2 0x151F JUMP JUMPDEST POP SWAP4 SWAP3 POP POP POP JUMP JUMPDEST PUSH1 0x0 DUP3 PUSH1 0x1F DUP4 ADD SLT PUSH2 0x1585 JUMPI PUSH2 0x1584 PUSH2 0x1469 JUMP JUMPDEST JUMPDEST DUP2 CALLDATALOAD PUSH2 0x1595 DUP5 DUP3 PUSH1 0x20 DUP7 ADD PUSH2 0x152E JUMP JUMPDEST SWAP2 POP POP SWAP3 SWAP2 POP POP JUMP JUMPDEST PUSH1 0x0 DUP1 PUSH1 0x40 DUP4 DUP6 SUB SLT ISZERO PUSH2 0x15B5 JUMPI PUSH2 0x15B4 PUSH2 0x1429 JUMP JUMPDEST JUMPDEST PUSH1 0x0 PUSH2 0x15C3 DUP6 DUP3 DUP7 ADD PUSH2 0x1454 JUMP JUMPDEST SWAP3 POP POP PUSH1 0x20 DUP4 ADD CALLDATALOAD PUSH8 0xFFFFFFFFFFFFFFFF DUP2 GT ISZERO PUSH2 0x15E4 JUMPI PUSH2 0x15E3 PUSH2 0x142E JUMP JUMPDEST JUMPDEST PUSH2 0x15F0 DUP6 DUP3 DUP7 ADD PUSH2 0x1570 JUMP JUMPDEST SWAP2 POP POP SWAP3 POP SWAP3 SWAP1 POP JUMP JUMPDEST PUSH2 0x1603 DUP2 PUSH2 0x13E3 JUMP JUMPDEST DUP2 EQ PUSH2 0x160E JUMPI PUSH1 0x0 DUP1 REVERT JUMPDEST POP JUMP JUMPDEST PUSH1 0x0 DUP2 CALLDATALOAD SWAP1 POP PUSH2 0x1620 DUP2 PUSH2 0x15FA JUMP JUMPDEST SWAP3 SWAP2 POP POP JUMP JUMPDEST PUSH1 0x0 PUSH1 0x20 DUP3 DUP5 SUB SLT ISZERO PUSH2 0x163C JUMPI PUSH2 0x163B PUSH2 0x1429 JUMP JUMPDEST JUMPDEST PUSH1 0x0 PUSH2 0x164A DUP5 DUP3 DUP6 ADD PUSH2 0x1611 JUMP JUMPDEST SWAP2 POP POP SWAP3 SWAP2 POP POP JUMP JUMPDEST PUSH32 0x4E487B7100000000000000000000000000000000000000000000000000000000 PUSH1 0x0 MSTORE PUSH1 0x22 PUSH1 0x4 MSTORE PUSH1 0x24 PUSH1 0x0 REVERT JUMPDEST PUSH1 0x0 PUSH1 0x2 DUP3 DIV SWAP1 POP PUSH1 0x1 DUP3 AND DUP1 PUSH2 0x169A JUMPI PUSH1 0x7F DUP3 AND SWAP2 POP JUMPDEST PUSH1 0x20 DUP3 LT DUP2 SUB PUSH2 0x16AD JUMPI PUSH2 0x16AC PUSH2 0x1653 JUMP JUMPDEST JUMPDEST POP SWAP2 SWAP1 POP JUMP JUMPDEST PUSH32 0x4D7573742062652070726F706F736564206F776E657200000000000000000000 PUSH1 0x0 DUP3 ADD MSTORE POP JUMP JUMPDEST PUSH1 0x0 PUSH2 0x16E9 PUSH1 0x16 DUP4 PUSH2 0x1357 JUMP JUMPDEST SWAP2 POP PUSH2 0x16F4 DUP3 PUSH2 0x16B3 JUMP JUMPDEST PUSH1 0x20 DUP3 ADD SWAP1 POP SWAP2 SWAP1 POP JUMP JUMPDEST PUSH1 0x0 PUSH1 0x20 DUP3 ADD SWAP1 POP DUP2 DUP2 SUB PUSH1 0x0 DUP4 ADD MSTORE PUSH2 0x1718 DUP2 PUSH2 0x16DC JUMP JUMPDEST SWAP1 POP SWAP2 SWAP1 POP JUMP JUMPDEST PUSH1 0x0 DUP2 SWAP1 POP SWAP2 SWAP1 POP JUMP JUMPDEST PUSH2 0x1732 DUP2 PUSH2 0x171F JUMP JUMPDEST DUP2 EQ PUSH2 0x173D JUMPI PUSH1 0x0 DUP1 REVERT JUMPDEST POP JUMP JUMPDEST PUSH1 0x0 DUP2 MLOAD SWAP1 POP PUSH2 0x174F DUP2 PUSH2 0x1729 JUMP JUMPDEST SWAP3 SWAP2 POP POP JUMP JUMPDEST PUSH1 0x0 PUSH1 0x20 DUP3 DUP5 SUB SLT ISZERO PUSH2 0x176B JUMPI PUSH2 0x176A PUSH2 0x1429 JUMP JUMPDEST JUMPDEST PUSH1 0x0 PUSH2 0x1779 DUP5 DUP3 DUP6 ADD PUSH2 0x1740 JUMP JUMPDEST SWAP2 POP POP SWAP3 SWAP2 POP POP JUMP JUMPDEST PUSH2 0x178B DUP2 PUSH2 0x171F JUMP JUMPDEST DUP3 MSTORE POP POP JUMP JUMPDEST PUSH1 0x0 PUSH1 0x40 DUP3 ADD SWAP1 POP PUSH2 0x17A6 PUSH1 0x0 DUP4 ADD DUP6 PUSH2 0x13F5 JUMP JUMPDEST PUSH2 0x17B3 PUSH1 0x20 DUP4 ADD DUP5 PUSH2 0x1782 JUMP JUMPDEST SWAP4 SWAP3 POP POP POP JUMP JUMPDEST PUSH1 0x0 DUP2 ISZERO ISZERO SWAP1 POP SWAP2 SWAP1 POP JUMP JUMPDEST PUSH2 0x17CF DUP2 PUSH2 0x17BA JUMP JUMPDEST DUP2 EQ PUSH2 0x17DA JUMPI PUSH1 0x0 DUP1 REVERT JUMPDEST POP JUMP JUMPDEST PUSH1 0x0 DUP2 MLOAD SWAP1 POP PUSH2 0x17EC DUP2 PUSH2 0x17C6 JUMP JUMPDEST SWAP3 SWAP2 POP POP JUMP JUMPDEST PUSH1 0x0 PUSH1 0x20 DUP3 DUP5 SUB SLT ISZERO PUSH2 0x1808 JUMPI PUSH2 0x1807 PUSH2 0x1429 JUMP JUMPDEST JUMPDEST PUSH1 0x0 PUSH2 0x1816 DUP5 DUP3 DUP6 ADD PUSH2 0x17DD JUMP JUMPDEST SWAP2 POP POP SWAP3 SWAP2 POP POP JUMP JUMPDEST PUSH32 0x556E61626C6520746F207472616E736665720000000000000000000000000000 PUSH1 0x0 DUP3 ADD MSTORE POP JUMP JUMPDEST PUSH1 0x0 PUSH2 0x1855 PUSH1 0x12 DUP4 PUSH2 0x1357 JUMP JUMPDEST SWAP2 POP PUSH2 0x1860 DUP3 PUSH2 0x181F JUMP JUMPDEST PUSH1 0x20 DUP3 ADD SWAP1 POP SWAP2 SWAP1 POP JUMP JUMPDEST PUSH1 0x0 PUSH1 0x20 DUP3 ADD SWAP1 POP DUP2 DUP2 SUB PUSH1 0x0 DUP4 ADD MSTORE PUSH2 0x1884 DUP2 PUSH2 0x1848 JUMP JUMPDEST SWAP1 POP SWAP2 SWAP1 POP JUMP JUMPDEST PUSH32 0x536F75726365206D75737420626520746865206F7261636C65206F6620746865 PUSH1 0x0 DUP3 ADD MSTORE PUSH32 0x2072657175657374000000000000000000000000000000000000000000000000 PUSH1 0x20 DUP3 ADD MSTORE POP JUMP JUMPDEST PUSH1 0x0 PUSH2 0x18E7 PUSH1 0x28 DUP4 PUSH2 0x1357 JUMP JUMPDEST SWAP2 POP PUSH2 0x18F2 DUP3 PUSH2 0x188B JUMP JUMPDEST PUSH1 0x40 DUP3 ADD SWAP1 POP SWAP2 SWAP1 POP JUMP JUMPDEST PUSH1 0x0 PUSH1 0x20 DUP3 ADD SWAP1 POP DUP2 DUP2 SUB PUSH1 0x0 DUP4 ADD MSTORE PUSH2 0x1916 DUP2 PUSH2 0x18DA JUMP JUMPDEST SWAP1 POP SWAP2 SWAP1 POP JUMP JUMPDEST PUSH1 0x0 DUP2 SWAP1 POP SWAP3 SWAP2 POP POP JUMP JUMPDEST PUSH1 0x0 PUSH2 0x1933 DUP3 PUSH2 0x129A JUMP JUMPDEST PUSH2 0x193D DUP2 DUP6 PUSH2 0x191D JUMP JUMPDEST SWAP4 POP PUSH2 0x194D DUP2 DUP6 PUSH1 0x20 DUP7 ADD PUSH2 0x12B6 JUMP JUMPDEST DUP1 DUP5 ADD SWAP2 POP POP SWAP3 SWAP2 POP POP JUMP JUMPDEST PUSH1 0x0 PUSH2 0x1965 DUP3 DUP5 PUSH2 0x1928 JUMP JUMPDEST SWAP2 POP DUP2 SWAP1 POP SWAP3 SWAP2 POP POP JUMP JUMPDEST PUSH1 0x0 DUP2 SWAP1 POP DUP2 PUSH1 0x0 MSTORE PUSH1 0x20 PUSH1 0x0 KECCAK256 SWAP1 POP SWAP2 SWAP1 POP JUMP JUMPDEST PUSH1 0x0 PUSH1 0x20 PUSH1 0x1F DUP4 ADD DIV SWAP1 POP SWAP2 SWAP1 POP JUMP JUMPDEST PUSH1 0x0 DUP3 DUP3 SHL SWAP1 POP SWAP3 SWAP2 POP POP JUMP JUMPDEST PUSH1 0x0 PUSH1 0x8 DUP4 MUL PUSH2 0x19D2 PUSH32 0xFFFFFFFFFFFFFFFFFFFFFFFFFFFFFFFFFFFFFFFFFFFFFFFFFFFFFFFFFFFFFFFF DUP3 PUSH2 0x1995 JUMP JUMPDEST PUSH2 0x19DC DUP7 DUP4 PUSH2 0x1995 JUMP JUMPDEST SWAP6 POP DUP1 NOT DUP5 AND SWAP4 POP DUP1 DUP7 AND DUP5 OR SWAP3 POP POP POP SWAP4 SWAP3 POP POP POP JUMP JUMPDEST PUSH1 0x0 DUP2 SWAP1 POP SWAP2 SWAP1 POP JUMP JUMPDEST PUSH1 0x0 PUSH2 0x1A19 PUSH2 0x1A14 PUSH2 0x1A0F DUP5 PUSH2 0x171F JUMP JUMPDEST PUSH2 0x19F4 JUMP JUMPDEST PUSH2 0x171F JUMP JUMPDEST SWAP1 POP SWAP2 SWAP1 POP JUMP JUMPDEST PUSH1 0x0 DUP2 SWAP1 POP SWAP2 SWAP1 POP JUMP JUMPDEST PUSH2 0x1A33 DUP4 PUSH2 0x19FE JUMP JUMPDEST PUSH2 0x1A47 PUSH2 0x1A3F DUP3 PUSH2 0x1A20 JUMP JUMPDEST DUP5 DUP5 SLOAD PUSH2 0x19A2 JUMP JUMPDEST DUP3 SSTORE POP POP POP POP JUMP JUMPDEST PUSH1 0x0 SWAP1 JUMP JUMPDEST PUSH2 0x1A5C PUSH2 0x1A4F JUMP JUMPDEST PUSH2 0x1A67 DUP2 DUP5 DUP5 PUSH2 0x1A2A JUMP JUMPDEST POP POP POP JUMP JUMPDEST JUMPDEST DUP2 DUP2 LT ISZERO PUSH2 0x1A8B JUMPI PUSH2 0x1A80 PUSH1 0x0 DUP3 PUSH2 0x1A54 JUMP JUMPDEST PUSH1 0x1 DUP2 ADD SWAP1 POP PUSH2 0x1A6D JUMP JUMPDEST POP POP JUMP JUMPDEST PUSH1 0x1F DUP3 GT ISZERO PUSH2 0x1AD0 JUMPI PUSH2 0x1AA1 DUP2 PUSH2 0x1970 JUMP JUMPDEST PUSH2 0x1AAA DUP5 PUSH2 0x1985 JUMP JUMPDEST DUP2 ADD PUSH1 0x20 DUP6 LT ISZERO PUSH2 0x1AB9 JUMPI DUP2 SWAP1 POP JUMPDEST PUSH2 0x1ACD PUSH2 0x1AC5 DUP6 PUSH2 0x1985 JUMP JUMPDEST DUP4 ADD DUP3 PUSH2 0x1A6C JUMP JUMPDEST POP POP JUMPDEST POP POP POP JUMP JUMPDEST PUSH1 0x0 DUP3 DUP3 SHR SWAP1 POP SWAP3 SWAP2 POP POP JUMP JUMPDEST PUSH1 0x0 PUSH2 0x1AF3 PUSH1 0x0 NOT DUP5 PUSH1 0x8 MUL PUSH2 0x1AD5 JUMP JUMPDEST NOT DUP1 DUP4 AND SWAP2 POP POP SWAP3 SWAP2 POP POP JUMP JUMPDEST PUSH1 0x0 PUSH2 0x1B0C DUP4 DUP4 PUSH2 0x1AE2 JUMP JUMPDEST SWAP2 POP DUP3 PUSH1 0x2 MUL DUP3 OR SWAP1 POP SWAP3 SWAP2 POP POP JUMP JUMPDEST PUSH2 0x1B25 DUP3 PUSH2 0x129A JUMP JUMPDEST PUSH8 0xFFFFFFFFFFFFFFFF DUP2 GT ISZERO PUSH2 0x1B3E JUMPI PUSH2 0x1B3D PUSH2 0x1473 JUMP JUMPDEST JUMPDEST PUSH2 0x1B48 DUP3 SLOAD PUSH2 0x1682 JUMP JUMPDEST PUSH2 0x1B53 DUP3 DUP3 DUP6 PUSH2 0x1A8F JUMP JUMPDEST PUSH1 0x0 PUSH1 0x20 SWAP1 POP PUSH1 0x1F DUP4 GT PUSH1 0x1 DUP2 EQ PUSH2 0x1B86 JUMPI PUSH1 0x0 DUP5 ISZERO PUSH2 0x1B74 JUMPI DUP3 DUP8 ADD MLOAD SWAP1 POP JUMPDEST PUSH2 0x1B7E DUP6 DUP3 PUSH2 0x1B00 JUMP JUMPDEST DUP7 SSTORE POP PUSH2 0x1BE6 JUMP JUMPDEST PUSH1 0x1F NOT DUP5 AND PUSH2 0x1B94 DUP7 PUSH2 0x1970 JUMP JUMPDEST PUSH1 0x0 JUMPDEST DUP3 DUP2 LT ISZERO PUSH2 0x1BBC JUMPI DUP5 DUP10 ADD MLOAD DUP3 SSTORE PUSH1 0x1 DUP3 ADD SWAP2 POP PUSH1 0x20 DUP6 ADD SWAP5 POP PUSH1 0x20 DUP2 ADD SWAP1 POP PUSH2 0x1B97 JUMP JUMPDEST DUP7 DUP4 LT ISZERO PUSH2 0x1BD9 JUMPI DUP5 DUP10 ADD MLOAD PUSH2 0x1BD5 PUSH1 0x1F DUP10 AND DUP3 PUSH2 0x1AE2 JUMP JUMPDEST DUP4 SSTORE POP JUMPDEST PUSH1 0x1 PUSH1 0x2 DUP9 MUL ADD DUP9 SSTORE POP POP POP JUMPDEST POP POP POP POP POP POP JUMP JUMPDEST PUSH1 0x0 DUP2 SLOAD SWAP1 POP PUSH2 0x1BFD DUP2 PUSH2 0x1682 JUMP JUMPDEST SWAP1 POP SWAP2 SWAP1 POP JUMP JUMPDEST PUSH1 0x0 DUP2 SWAP1 POP DUP2 PUSH1 0x0 MSTORE PUSH1 0x20 PUSH1 0x0 KECCAK256 SWAP1 POP SWAP2 SWAP1 POP JUMP JUMPDEST PUSH1 0x0 DUP2 SWAP1 POP DUP2 PUSH1 0x0 MSTORE PUSH1 0x20 PUSH1 0x0 KECCAK256 SWAP1 POP SWAP2 SWAP1 POP JUMP JUMPDEST PUSH1 0x1F DUP3 GT ISZERO PUSH2 0x1C6F JUMPI PUSH2 0x1C40 DUP2 PUSH2 0x1C04 JUMP JUMPDEST PUSH2 0x1C49 DUP5 PUSH2 0x1985 JUMP JUMPDEST DUP2 ADD PUSH1 0x20 DUP6 LT ISZERO PUSH2 0x1C58 JUMPI DUP2 SWAP1 POP JUMPDEST PUSH2 0x1C6C PUSH2 0x1C64 DUP6 PUSH2 0x1985 JUMP JUMPDEST DUP4 ADD DUP3 PUSH2 0x1A6C JUMP JUMPDEST POP POP JUMPDEST POP POP POP JUMP JUMPDEST DUP2 DUP2 SUB PUSH2 0x1C82 JUMPI POP POP PUSH2 0x1D5A JUMP JUMPDEST PUSH2 0x1C8B DUP3 PUSH2 0x1BEE JUMP JUMPDEST PUSH8 0xFFFFFFFFFFFFFFFF DUP2 GT ISZERO PUSH2 0x1CA4 JUMPI PUSH2 0x1CA3 PUSH2 0x1473 JUMP JUMPDEST JUMPDEST PUSH2 0x1CAE DUP3 SLOAD PUSH2 0x1682 JUMP JUMPDEST PUSH2 0x1CB9 DUP3 DUP3 DUP6 PUSH2 0x1C2E JUMP JUMPDEST PUSH1 0x0 PUSH1 0x1F DUP4 GT PUSH1 0x1 DUP2 EQ PUSH2 0x1CE8 JUMPI PUSH1 0x0 DUP5 ISZERO PUSH2 0x1CD6 JUMPI DUP3 DUP8 ADD SLOAD SWAP1 POP JUMPDEST PUSH2 0x1CE0 DUP6 DUP3 PUSH2 0x1B00 JUMP JUMPDEST DUP7 SSTORE POP PUSH2 0x1D53 JUMP JUMPDEST PUSH1 0x1F NOT DUP5 AND PUSH2 0x1CF6 DUP8 PUSH2 0x1C19 JUMP JUMPDEST SWAP7 POP PUSH2 0x1D01 DUP7 PUSH2 0x1C04 JUMP JUMPDEST PUSH1 0x0 JUMPDEST DUP3 DUP2 LT ISZERO PUSH2 0x1D29 JUMPI DUP5 DUP10 ADD SLOAD DUP3 SSTORE PUSH1 0x1 DUP3 ADD SWAP2 POP PUSH1 0x1 DUP6 ADD SWAP5 POP PUSH1 0x20 DUP2 ADD SWAP1 POP PUSH2 0x1D04 JUMP JUMPDEST DUP7 DUP4 LT ISZERO PUSH2 0x1D46 JUMPI DUP5 DUP10 ADD SLOAD PUSH2 0x1D42 PUSH1 0x1F DUP10 AND DUP3 PUSH2 0x1AE2 JUMP JUMPDEST DUP4 SSTORE POP JUMPDEST PUSH1 0x1 PUSH1 0x2 DUP9 MUL ADD DUP9 SSTORE POP POP POP JUMPDEST POP POP POP POP POP POP JUMPDEST JUMP JUMPDEST PUSH32 0x4F6E6C792063616C6C61626C65206279206F776E657200000000000000000000 PUSH1 0x0 DUP3 ADD MSTORE POP JUMP JUMPDEST PUSH1 0x0 PUSH2 0x1D92 PUSH1 0x16 DUP4 PUSH2 0x1357 JUMP JUMPDEST SWAP2 POP PUSH2 0x1D9D DUP3 PUSH2 0x1D5C JUMP JUMPDEST PUSH1 0x20 DUP3 ADD SWAP1 POP SWAP2 SWAP1 POP JUMP JUMPDEST PUSH1 0x0 PUSH1 0x20 DUP3 ADD SWAP1 POP DUP2 DUP2 SUB PUSH1 0x0 DUP4 ADD MSTORE PUSH2 0x1DC1 DUP2 PUSH2 0x1D85 JUMP JUMPDEST SWAP1 POP SWAP2 SWAP1 POP JUMP JUMPDEST PUSH32 0x43616E6E6F74207472616E7366657220746F2073656C66000000000000000000 PUSH1 0x0 DUP3 ADD MSTORE POP JUMP JUMPDEST PUSH1 0x0 PUSH2 0x1DFE PUSH1 0x17 DUP4 PUSH2 0x1357 JUMP JUMPDEST SWAP2 POP PUSH2 0x1E09 DUP3 PUSH2 0x1DC8 JUMP JUMPDEST PUSH1 0x20 DUP3 ADD SWAP1 POP SWAP2 SWAP1 POP JUMP JUMPDEST PUSH1 0x0 PUSH1 0x20 DUP3 ADD SWAP1 POP DUP2 DUP2 SUB PUSH1 0x0 DUP4 ADD MSTORE PUSH2 0x1E2D DUP2 PUSH2 0x1DF1 JUMP JUMPDEST SWAP1 POP SWAP2 SWAP1 POP JUMP JUMPDEST PUSH32 0x4E487B7100000000000000000000000000000000000000000000000000000000 PUSH1 0x0 MSTORE PUSH1 0x11 PUSH1 0x4 MSTORE PUSH1 0x24 PUSH1 0x0 REVERT JUMPDEST PUSH1 0x0 PUSH2 0x1E6E DUP3 PUSH2 0x171F JUMP JUMPDEST SWAP2 POP PUSH2 0x1E79 DUP4 PUSH2 0x171F JUMP JUMPDEST SWAP3 POP DUP3 DUP3 ADD SWAP1 POP DUP1 DUP3 GT ISZERO PUSH2 0x1E91 JUMPI PUSH2 0x1E90 PUSH2 0x1E34 JUMP JUMPDEST JUMPDEST SWAP3 SWAP2 POP POP JUMP JUMPDEST PUSH2 0x1EA0 DUP2 PUSH2 0x1433 JUMP JUMPDEST DUP3 MSTORE POP POP JUMP JUMPDEST PUSH1 0x0 PUSH32 0xFFFFFFFF00000000000000000000000000000000000000000000000000000000 DUP3 AND SWAP1 POP SWAP2 SWAP1 POP JUMP JUMPDEST PUSH2 0x1EDB DUP2 PUSH2 0x1EA6 JUMP JUMPDEST DUP3 MSTORE POP POP JUMP JUMPDEST PUSH1 0x0 PUSH2 0x100 DUP3 ADD SWAP1 POP PUSH2 0x1EF7 PUSH1 0x0 DUP4 ADD DUP12 PUSH2 0x13F5 JUMP JUMPDEST PUSH2 0x1F04 PUSH1 0x20 DUP4 ADD DUP11 PUSH2 0x1782 JUMP JUMPDEST PUSH2 0x1F11 PUSH1 0x40 DUP4 ADD DUP10 PUSH2 0x1E97 JUMP JUMPDEST PUSH2 0x1F1E PUSH1 0x60 DUP4 ADD DUP9 PUSH2 0x13F5 JUMP JUMPDEST PUSH2 0x1F2B PUSH1 0x80 DUP4 ADD DUP8 PUSH2 0x1ED2 JUMP JUMPDEST PUSH2 0x1F38 PUSH1 0xA0 DUP4 ADD DUP7 PUSH2 0x1782 JUMP JUMPDEST PUSH2 0x1F45 PUSH1 0xC0 DUP4 ADD DUP6 PUSH2 0x1782 JUMP JUMPDEST DUP2 DUP2 SUB PUSH1 0xE0 DUP4 ADD MSTORE PUSH2 0x1F57 DUP2 DUP5 PUSH2 0x12F1 JUMP JUMPDEST SWAP1 POP SWAP10 SWAP9 POP POP POP POP POP POP POP POP POP JUMP JUMPDEST PUSH32 0x4E487B7100000000000000000000000000000000000000000000000000000000 PUSH1 0x0 MSTORE PUSH1 0x12 PUSH1 0x4 MSTORE PUSH1 0x24 PUSH1 0x0 REVERT JUMPDEST PUSH1 0x0 PUSH2 0x1FA0 DUP3 PUSH2 0x171F JUMP JUMPDEST SWAP2 POP PUSH2 0x1FAB DUP4 PUSH2 0x171F JUMP JUMPDEST SWAP3 POP DUP3 PUSH2 0x1FBB JUMPI PUSH2 0x1FBA PUSH2 0x1F66 JUMP JUMPDEST JUMPDEST DUP3 DUP3 MOD SWAP1 POP SWAP3 SWAP2 POP POP JUMP JUMPDEST PUSH1 0x0 PUSH2 0x1FD1 DUP3 PUSH2 0x171F JUMP JUMPDEST SWAP2 POP PUSH2 0x1FDC DUP4 PUSH2 0x171F JUMP JUMPDEST SWAP3 POP DUP3 DUP3 SUB SWAP1 POP DUP2 DUP2 GT ISZERO PUSH2 0x1FF4 JUMPI PUSH2 0x1FF3 PUSH2 0x1E34 JUMP JUMPDEST JUMPDEST SWAP3 SWAP2 POP POP JUMP JUMPDEST PUSH1 0x0 PUSH2 0x2015 PUSH2 0x2010 PUSH2 0x200B DUP5 PUSH2 0x13C3 JUMP JUMPDEST PUSH2 0x19F4 JUMP JUMPDEST PUSH2 0x13C3 JUMP JUMPDEST SWAP1 POP SWAP2 SWAP1 POP JUMP JUMPDEST PUSH1 0x0 PUSH2 0x2027 DUP3 PUSH2 0x1FFA JUMP JUMPDEST SWAP1 POP SWAP2 SWAP1 POP JUMP JUMPDEST PUSH1 0x0 PUSH2 0x2039 DUP3 PUSH2 0x201C JUMP JUMPDEST SWAP1 POP SWAP2 SWAP1 POP JUMP JUMPDEST PUSH1 0x0 DUP2 PUSH1 0x60 SHL SWAP1 POP SWAP2 SWAP1 POP JUMP JUMPDEST PUSH1 0x0 PUSH2 0x2058 DUP3 PUSH2 0x2040 JUMP JUMPDEST SWAP1 POP SWAP2 SWAP1 POP JUMP JUMPDEST PUSH1 0x0 PUSH2 0x206A DUP3 PUSH2 0x204D JUMP JUMPDEST SWAP1 POP SWAP2 SWAP1 POP JUMP JUMPDEST PUSH2 0x2082 PUSH2 0x207D DUP3 PUSH2 0x202E JUMP JUMPDEST PUSH2 0x205F JUMP JUMPDEST DUP3 MSTORE POP POP JUMP JUMPDEST PUSH1 0x0 DUP2 SWAP1 POP SWAP2 SWAP1 POP JUMP JUMPDEST PUSH2 0x20A3 PUSH2 0x209E DUP3 PUSH2 0x171F JUMP JUMPDEST PUSH2 0x2088 JUMP JUMPDEST DUP3 MSTORE POP POP JUMP JUMPDEST PUSH1 0x0 PUSH2 0x20B5 DUP3 DUP6 PUSH2 0x2071 JUMP JUMPDEST PUSH1 0x14 DUP3 ADD SWAP2 POP PUSH2 0x20C5 DUP3 DUP5 PUSH2 0x2092 JUMP JUMPDEST PUSH1 0x20 DUP3 ADD SWAP2 POP DUP2 SWAP1 POP SWAP4 SWAP3 POP POP POP JUMP JUMPDEST PUSH1 0x0 PUSH1 0x60 DUP3 ADD SWAP1 POP PUSH2 0x20EA PUSH1 0x0 DUP4 ADD DUP7 PUSH2 0x13F5 JUMP JUMPDEST PUSH2 0x20F7 PUSH1 0x20 DUP4 ADD DUP6 PUSH2 0x1782 JUMP JUMPDEST DUP2 DUP2 SUB PUSH1 0x40 DUP4 ADD MSTORE PUSH2 0x2109 DUP2 DUP5 PUSH2 0x12F1 JUMP JUMPDEST SWAP1 POP SWAP5 SWAP4 POP POP POP POP JUMP JUMPDEST PUSH32 0x756E61626C6520746F207472616E73666572416E6443616C6C20746F206F7261 PUSH1 0x0 DUP3 ADD MSTORE PUSH32 0x636C650000000000000000000000000000000000000000000000000000000000 PUSH1 0x20 DUP3 ADD MSTORE POP JUMP JUMPDEST PUSH1 0x0 PUSH2 0x216F PUSH1 0x23 DUP4 PUSH2 0x1357 JUMP JUMPDEST SWAP2 POP PUSH2 0x217A DUP3 PUSH2 0x2113 JUMP JUMPDEST PUSH1 0x40 DUP3 ADD SWAP1 POP SWAP2 SWAP1 POP JUMP JUMPDEST PUSH1 0x0 PUSH1 0x20 DUP3 ADD SWAP1 POP DUP2 DUP2 SUB PUSH1 0x0 DUP4 ADD MSTORE PUSH2 0x219E DUP2 PUSH2 0x2162 JUMP JUMPDEST SWAP1 POP SWAP2 SWAP1 POP JUMP JUMPDEST PUSH1 0x0 PUSH2 0x21B0 DUP3 PUSH2 0x171F JUMP JUMPDEST SWAP2 POP PUSH2 0x21BB DUP4 PUSH2 0x171F JUMP JUMPDEST SWAP3 POP DUP3 DUP3 MUL PUSH2 0x21C9 DUP2 PUSH2 0x171F JUMP JUMPDEST SWAP2 POP DUP3 DUP3 DIV DUP5 EQ DUP4 ISZERO OR PUSH2 0x21E0 JUMPI PUSH2 0x21DF PUSH2 0x1E34 JUMP JUMPDEST JUMPDEST POP SWAP3 SWAP2 POP POP JUMP JUMPDEST PUSH1 0x0 DUP2 PUSH1 0x1 SHR SWAP1 POP SWAP2 SWAP1 POP JUMP JUMPDEST PUSH1 0x0 DUP1 DUP3 SWAP2 POP DUP4 SWAP1 POP JUMPDEST PUSH1 0x1 DUP6 GT ISZERO PUSH2 0x223E JUMPI DUP1 DUP7 DIV DUP2 GT ISZERO PUSH2 0x221A JUMPI PUSH2 0x2219 PUSH2 0x1E34 JUMP JUMPDEST JUMPDEST PUSH1 0x1 DUP6 AND ISZERO PUSH2 0x2229 JUMPI DUP1 DUP3 MUL SWAP2 POP JUMPDEST DUP1 DUP2 MUL SWAP1 POP PUSH2 0x2237 DUP6 PUSH2 0x21E7 JUMP JUMPDEST SWAP5 POP PUSH2 0x21FE JUMP JUMPDEST SWAP5 POP SWAP5 SWAP3 POP POP POP JUMP JUMPDEST PUSH1 0x0 DUP3 PUSH2 0x2257 JUMPI PUSH1 0x1 SWAP1 POP PUSH2 0x2313 JUMP JUMPDEST DUP2 PUSH2 0x2265 JUMPI PUSH1 0x0 SWAP1 POP PUSH2 0x2313 JUMP JUMPDEST DUP2 PUSH1 0x1 DUP2 EQ PUSH2 0x227B JUMPI PUSH1 0x2 DUP2 EQ PUSH2 0x2285 JUMPI PUSH2 0x22B4 JUMP JUMPDEST PUSH1 0x1 SWAP2 POP POP PUSH2 0x2313 JUMP JUMPDEST PUSH1 0xFF DUP5 GT ISZERO PUSH2 0x2297 JUMPI PUSH2 0x2296 PUSH2 0x1E34 JUMP JUMPDEST JUMPDEST DUP4 PUSH1 0x2 EXP SWAP2 POP DUP5 DUP3 GT ISZERO PUSH2 0x22AE JUMPI PUSH2 0x22AD PUSH2 0x1E34 JUMP JUMPDEST JUMPDEST POP PUSH2 0x2313 JUMP JUMPDEST POP PUSH1 0x20 DUP4 LT PUSH2 0x133 DUP4 LT AND PUSH1 0x4E DUP5 LT PUSH1 0xB DUP5 LT AND OR ISZERO PUSH2 0x22E9 JUMPI DUP3 DUP3 EXP SWAP1 POP DUP4 DUP2 GT ISZERO PUSH2 0x22E4 JUMPI PUSH2 0x22E3 PUSH2 0x1E34 JUMP JUMPDEST JUMPDEST PUSH2 0x2313 JUMP JUMPDEST PUSH2 0x22F6 DUP5 DUP5 DUP5 PUSH1 0x1 PUSH2 0x21F4 JUMP JUMPDEST SWAP3 POP SWAP1 POP DUP2 DUP5 DIV DUP2 GT ISZERO PUSH2 0x230D JUMPI PUSH2 0x230C PUSH2 0x1E34 JUMP JUMPDEST JUMPDEST DUP2 DUP2 MUL SWAP1 POP JUMPDEST SWAP4 SWAP3 POP POP POP JUMP JUMPDEST PUSH1 0x0 PUSH2 0x2325 DUP3 PUSH2 0x171F JUMP JUMPDEST SWAP2 POP PUSH2 0x2330 DUP4 PUSH2 0x171F JUMP JUMPDEST SWAP3 POP PUSH2 0x235D PUSH32 0xFFFFFFFFFFFFFFFFFFFFFFFFFFFFFFFFFFFFFFFFFFFFFFFFFFFFFFFFFFFFFFFF DUP5 DUP5 PUSH2 0x2247 JUMP JUMPDEST SWAP1 POP SWAP3 SWAP2 POP POP JUMP INVALID PUSH9 0x747470733A2F2F6970 PUSH7 0x732E696F2F6970 PUSH7 0x732F516D5A6773 PUSH23 0x7241316F3143384247437278366D485471523155693158 PUSH18 0x62437274624D5672524C4874755056443F66 PUSH10 0x6C656E616D653D626967 0x2D PUSH2 0x7069 0x2D PUSH19 0x6573706F6E73652E6A736F6EA2646970667358 0x22 SLT KECCAK256 0x25 0xA7 SLOAD 0xAC REVERT SGT PUSH24 0x8502CED0E7224B0E055F4416A4CDFB45BFDE6DEB5BA4E4CD 0xB8 PUSH5 0x736F6C6343 STOP ADDMOD GT STOP CALLER "
				},
				"gasEstimates": {
					"creation": {
						"codeDepositCost": "1842600",
						"executionCost": "infinite",
						"totalCost": "infinite"
					},
					"external": {
						"acceptOwnership()": "54585",
						"data()": "infinite",
						"fulfillBytes(bytes32,bytes)": "infinite",
						"image_url()": "infinite",
						"owner()": "2522",
						"requestBytes()": "infinite",
						"transferOwnership(address)": "30726",
						"withdrawLink()": "infinite"
					}
				},
				"methodIdentifiers": {
					"acceptOwnership()": "79ba5097",
					"data()": "73d4a13a",
					"fulfillBytes(bytes32,bytes)": "c2fb8523",
					"image_url()": "824f4baf",
					"owner()": "8da5cb5b",
					"requestBytes()": "11411e8a",
					"transferOwnership(address)": "f2fde38b",
					"withdrawLink()": "8dc654a2"
				}
			},
			"storageLayout": {
				"storage": [
					{
						"astId": 319,
						"contract": "docs.chain.link/samples/APIRequests/GenericBigWord.sol:GenericLargeResponse",
						"label": "s_ens",
						"offset": 0,
						"slot": "0",
						"type": "t_contract(ENSInterface)1156"
					},
					{
						"astId": 321,
						"contract": "docs.chain.link/samples/APIRequests/GenericBigWord.sol:GenericLargeResponse",
						"label": "s_ensNode",
						"offset": 0,
						"slot": "1",
						"type": "t_bytes32"
					},
					{
						"astId": 324,
						"contract": "docs.chain.link/samples/APIRequests/GenericBigWord.sol:GenericLargeResponse",
						"label": "s_link",
						"offset": 0,
						"slot": "2",
						"type": "t_contract(LinkTokenInterface)1251"
					},
					{
						"astId": 327,
						"contract": "docs.chain.link/samples/APIRequests/GenericBigWord.sol:GenericLargeResponse",
						"label": "s_oracle",
						"offset": 0,
						"slot": "3",
						"type": "t_contract(OperatorInterface)1331"
					},
					{
						"astId": 330,
						"contract": "docs.chain.link/samples/APIRequests/GenericBigWord.sol:GenericLargeResponse",
						"label": "s_requestCount",
						"offset": 0,
						"slot": "4",
						"type": "t_uint256"
					},
					{
						"astId": 334,
						"contract": "docs.chain.link/samples/APIRequests/GenericBigWord.sol:GenericLargeResponse",
						"label": "s_pendingRequests",
						"offset": 0,
						"slot": "5",
						"type": "t_mapping(t_bytes32,t_address)"
					},
					{
						"astId": 889,
						"contract": "docs.chain.link/samples/APIRequests/GenericBigWord.sol:GenericLargeResponse",
						"label": "s_owner",
						"offset": 0,
						"slot": "6",
						"type": "t_address"
					},
					{
						"astId": 891,
						"contract": "docs.chain.link/samples/APIRequests/GenericBigWord.sol:GenericLargeResponse",
						"label": "s_pendingOwner",
						"offset": 0,
						"slot": "7",
						"type": "t_address"
					},
					{
						"astId": 2388,
						"contract": "docs.chain.link/samples/APIRequests/GenericBigWord.sol:GenericLargeResponse",
						"label": "data",
						"offset": 0,
						"slot": "8",
						"type": "t_bytes_storage"
					},
					{
						"astId": 2390,
						"contract": "docs.chain.link/samples/APIRequests/GenericBigWord.sol:GenericLargeResponse",
						"label": "image_url",
						"offset": 0,
						"slot": "9",
						"type": "t_string_storage"
					},
					{
						"astId": 2392,
						"contract": "docs.chain.link/samples/APIRequests/GenericBigWord.sol:GenericLargeResponse",
						"label": "jobId",
						"offset": 0,
						"slot": "10",
						"type": "t_bytes32"
					},
					{
						"astId": 2394,
						"contract": "docs.chain.link/samples/APIRequests/GenericBigWord.sol:GenericLargeResponse",
						"label": "fee",
						"offset": 0,
						"slot": "11",
						"type": "t_uint256"
					}
				],
				"types": {
					"t_address": {
						"encoding": "inplace",
						"label": "address",
						"numberOfBytes": "20"
					},
					"t_bytes32": {
						"encoding": "inplace",
						"label": "bytes32",
						"numberOfBytes": "32"
					},
					"t_bytes_storage": {
						"encoding": "bytes",
						"label": "bytes",
						"numberOfBytes": "32"
					},
					"t_contract(ENSInterface)1156": {
						"encoding": "inplace",
						"label": "contract ENSInterface",
						"numberOfBytes": "20"
					},
					"t_contract(LinkTokenInterface)1251": {
						"encoding": "inplace",
						"label": "contract LinkTokenInterface",
						"numberOfBytes": "20"
					},
					"t_contract(OperatorInterface)1331": {
						"encoding": "inplace",
						"label": "contract OperatorInterface",
						"numberOfBytes": "20"
					},
					"t_mapping(t_bytes32,t_address)": {
						"encoding": "mapping",
						"key": "t_bytes32",
						"label": "mapping(bytes32 => address)",
						"numberOfBytes": "32",
						"value": "t_address"
					},
					"t_string_storage": {
						"encoding": "bytes",
						"label": "string",
						"numberOfBytes": "32"
					},
					"t_uint256": {
						"encoding": "inplace",
						"label": "uint256",
						"numberOfBytes": "32"
					}
				}
			},
			"userdoc": {
				"kind": "user",
				"methods": {
					"acceptOwnership()": {
						"notice": "Allows an ownership transfer to be completed by the recipient."
					},
					"constructor": {
						"notice": "Initialize the link token and target oracle"
					},
					"fulfillBytes(bytes32,bytes)": {
						"notice": "Fulfillment function for variable bytes"
					},
					"owner()": {
						"notice": "Get the current owner"
					},
					"requestBytes()": {
						"notice": "Request variable bytes from the oracle"
					},
					"transferOwnership(address)": {
						"notice": "Allows an owner to begin transferring ownership to a new address, pending."
					},
					"withdrawLink()": {
						"notice": "Allow withdraw of Link tokens from the contract"
					}
				},
				"notice": "THIS IS AN EXAMPLE CONTRACT THAT USES HARDCODED VALUES FOR CLARITY. THIS IS AN EXAMPLE CONTRACT THAT USES UN-AUDITED CODE. DO NOT USE THIS CODE IN PRODUCTION.",
				"version": 1
			}
		}
	}
}