{
	"docs.chain.link/samples/APIRequests/ATestnetConsumer.sol": {
		"ATestnetConsumer": {
			"abi": [
				{
					"inputs": [],
					"stateMutability": "nonpayable",
					"type": "constructor"
				},
				{
					"anonymous": false,
					"inputs": [
						{
							"indexed": true,
							"internalType": "bytes32",
							"name": "id",
							"type": "bytes32"
						}
					],
					"name": "ChainlinkCancelled",
					"type": "event"
				},
				{
					"anonymous": false,
					"inputs": [
						{
							"indexed": true,
							"internalType": "bytes32",
							"name": "id",
							"type": "bytes32"
						}
					],
					"name": "ChainlinkFulfilled",
					"type": "event"
				},
				{
					"anonymous": false,
					"inputs": [
						{
							"indexed": true,
							"internalType": "bytes32",
							"name": "id",
							"type": "bytes32"
						}
					],
					"name": "ChainlinkRequested",
					"type": "event"
				},
				{
					"anonymous": false,
					"inputs": [
						{
							"indexed": true,
							"internalType": "address",
							"name": "from",
							"type": "address"
						},
						{
							"indexed": true,
							"internalType": "address",
							"name": "to",
							"type": "address"
						}
					],
					"name": "OwnershipTransferRequested",
					"type": "event"
				},
				{
					"anonymous": false,
					"inputs": [
						{
							"indexed": true,
							"internalType": "address",
							"name": "from",
							"type": "address"
						},
						{
							"indexed": true,
							"internalType": "address",
							"name": "to",
							"type": "address"
						}
					],
					"name": "OwnershipTransferred",
					"type": "event"
				},
				{
					"anonymous": false,
					"inputs": [
						{
							"indexed": true,
							"internalType": "bytes32",
							"name": "requestId",
							"type": "bytes32"
						},
						{
							"indexed": true,
							"internalType": "uint256",
							"name": "price",
							"type": "uint256"
						}
					],
					"name": "RequestEthereumPriceFulfilled",
					"type": "event"
				},
				{
					"inputs": [],
					"name": "acceptOwnership",
					"outputs": [],
					"stateMutability": "nonpayable",
					"type": "function"
				},
				{
					"inputs": [
						{
							"internalType": "bytes32",
							"name": "_requestId",
							"type": "bytes32"
						},
						{
							"internalType": "uint256",
							"name": "_payment",
							"type": "uint256"
						},
						{
							"internalType": "bytes4",
							"name": "_callbackFunctionId",
							"type": "bytes4"
						},
						{
							"internalType": "uint256",
							"name": "_expiration",
							"type": "uint256"
						}
					],
					"name": "cancelRequest",
					"outputs": [],
					"stateMutability": "nonpayable",
					"type": "function"
				},
				{
					"inputs": [],
					"name": "currentPrice",
					"outputs": [
						{
							"internalType": "uint256",
							"name": "",
							"type": "uint256"
						}
					],
					"stateMutability": "view",
					"type": "function"
				},
				{
					"inputs": [
						{
							"internalType": "bytes32",
							"name": "_requestId",
							"type": "bytes32"
						},
						{
							"internalType": "uint256",
							"name": "_price",
							"type": "uint256"
						}
					],
					"name": "fulfillEthereumPrice",
					"outputs": [],
					"stateMutability": "nonpayable",
					"type": "function"
				},
				{
					"inputs": [],
					"name": "getChainlinkToken",
					"outputs": [
						{
							"internalType": "address",
							"name": "",
							"type": "address"
						}
					],
					"stateMutability": "view",
					"type": "function"
				},
				{
					"inputs": [],
					"name": "owner",
					"outputs": [
						{
							"internalType": "address",
							"name": "",
							"type": "address"
						}
					],
					"stateMutability": "view",
					"type": "function"
				},
				{
					"inputs": [],
					"name": "requestEthereumPrice",
					"outputs": [],
					"stateMutability": "nonpayable",
					"type": "function"
				},
				{
					"inputs": [
						{
							"internalType": "address",
							"name": "to",
							"type": "address"
						}
					],
					"name": "transferOwnership",
					"outputs": [],
					"stateMutability": "nonpayable",
					"type": "function"
				},
				{
					"inputs": [],
					"name": "withdrawLink",
					"outputs": [],
					"stateMutability": "nonpayable",
					"type": "function"
				}
			],
			"devdoc": {
				"kind": "dev",
				"methods": {},
				"version": 1
			},
			"evm": {
				"assembly": "    /* \"docs.chain.link/samples/APIRequests/ATestnetConsumer.sol\":283:2702  contract ATestnetConsumer is ChainlinkClient, ConfirmedOwner {... */\n  mstore(0x40, 0x80)\n    /* \"@chainlink/contracts/src/v0.8/ChainlinkClient.sol\":1291:1292  1 */\n  0x01\n    /* \"@chainlink/contracts/src/v0.8/ChainlinkClient.sol\":1258:1292  uint256 private s_requestCount = 1 */\n  0x04\n  sstore\n    /* \"docs.chain.link/samples/APIRequests/ATestnetConsumer.sol\":661:904  constructor() ConfirmedOwner(msg.sender) {... */\n  callvalue\n  dup1\n  iszero\n  tag_1\n  jumpi\n  0x00\n  dup1\n  revert\ntag_1:\n  pop\n    /* \"docs.chain.link/samples/APIRequests/ATestnetConsumer.sol\":690:700  msg.sender */\n  caller\n    /* \"@chainlink/contracts/src/v0.8/ConfirmedOwner.sol\":327:335  newOwner */\n  dup1\n    /* \"@chainlink/contracts/src/v0.8/ConfirmedOwner.sol\":345:346  0 */\n  0x00\n    /* \"@chainlink/contracts/src/v0.8/ConfirmedOwnerWithProposal.sol\":572:573  0 */\n  dup1\n    /* \"@chainlink/contracts/src/v0.8/ConfirmedOwnerWithProposal.sol\":552:574  newOwner != address(0) */\n  0xffffffffffffffffffffffffffffffffffffffff\n  and\n    /* \"@chainlink/contracts/src/v0.8/ConfirmedOwnerWithProposal.sol\":552:560  newOwner */\n  dup3\n    /* \"@chainlink/contracts/src/v0.8/ConfirmedOwnerWithProposal.sol\":552:574  newOwner != address(0) */\n  0xffffffffffffffffffffffffffffffffffffffff\n  and\n  sub\n    /* \"@chainlink/contracts/src/v0.8/ConfirmedOwnerWithProposal.sol\":544:603  require(newOwner != address(0), \"Cannot set owner to zero\") */\n  tag_6\n  jumpi\n  mload(0x40)\n  0x08c379a000000000000000000000000000000000000000000000000000000000\n  dup2\n  mstore\n  0x04\n  add\n  tag_7\n  swap1\n  tag_8\n  jump\t// in\ntag_7:\n  mload(0x40)\n  dup1\n  swap2\n  sub\n  swap1\n  revert\ntag_6:\n    /* \"@chainlink/contracts/src/v0.8/ConfirmedOwnerWithProposal.sol\":620:628  newOwner */\n  dup2\n    /* \"@chainlink/contracts/src/v0.8/ConfirmedOwnerWithProposal.sol\":610:617  s_owner */\n  0x06\n  0x00\n    /* \"@chainlink/contracts/src/v0.8/ConfirmedOwnerWithProposal.sol\":610:628  s_owner = newOwner */\n  0x0100\n  exp\n  dup2\n  sload\n  dup2\n  0xffffffffffffffffffffffffffffffffffffffff\n  mul\n  not\n  and\n  swap1\n  dup4\n  0xffffffffffffffffffffffffffffffffffffffff\n  and\n  mul\n  or\n  swap1\n  sstore\n  pop\n    /* \"@chainlink/contracts/src/v0.8/ConfirmedOwnerWithProposal.sol\":662:663  0 */\n  0x00\n    /* \"@chainlink/contracts/src/v0.8/ConfirmedOwnerWithProposal.sol\":638:664  pendingOwner != address(0) */\n  0xffffffffffffffffffffffffffffffffffffffff\n  and\n    /* \"@chainlink/contracts/src/v0.8/ConfirmedOwnerWithProposal.sol\":638:650  pendingOwner */\n  dup2\n    /* \"@chainlink/contracts/src/v0.8/ConfirmedOwnerWithProposal.sol\":638:664  pendingOwner != address(0) */\n  0xffffffffffffffffffffffffffffffffffffffff\n  and\n  eq\n    /* \"@chainlink/contracts/src/v0.8/ConfirmedOwnerWithProposal.sol\":634:713  if (pendingOwner != address(0)) {... */\n  tag_9\n  jumpi\n    /* \"@chainlink/contracts/src/v0.8/ConfirmedOwnerWithProposal.sol\":674:706  _transferOwnership(pendingOwner) */\n  tag_10\n    /* \"@chainlink/contracts/src/v0.8/ConfirmedOwnerWithProposal.sol\":693:705  pendingOwner */\n  dup2\n    /* \"@chainlink/contracts/src/v0.8/ConfirmedOwnerWithProposal.sol\":674:692  _transferOwnership */\n  shl(0x20, tag_11)\n    /* \"@chainlink/contracts/src/v0.8/ConfirmedOwnerWithProposal.sol\":674:706  _transferOwnership(pendingOwner) */\n  0x20\n  shr\n  jump\t// in\ntag_10:\n    /* \"@chainlink/contracts/src/v0.8/ConfirmedOwnerWithProposal.sol\":634:713  if (pendingOwner != address(0)) {... */\ntag_9:\n    /* \"@chainlink/contracts/src/v0.8/ConfirmedOwnerWithProposal.sol\":486:717  constructor(address newOwner, address pendingOwner) {... */\n  pop\n  pop\n    /* \"@chainlink/contracts/src/v0.8/ConfirmedOwner.sol\":270:351  constructor(address newOwner) ConfirmedOwnerWithProposal(newOwner, address(0)) {} */\n  pop\n    /* \"docs.chain.link/samples/APIRequests/ATestnetConsumer.sol\":712:773  setChainlinkToken(0x326C977E6efc84E512bB9C30f76E30c160eD06FB) */\n  tag_14\n    /* \"docs.chain.link/samples/APIRequests/ATestnetConsumer.sol\":730:772  0x326C977E6efc84E512bB9C30f76E30c160eD06FB */\n  0x326c977e6efc84e512bb9c30f76e30c160ed06fb\n    /* \"docs.chain.link/samples/APIRequests/ATestnetConsumer.sol\":712:729  setChainlinkToken */\n  shl(0x20, tag_15)\n    /* \"docs.chain.link/samples/APIRequests/ATestnetConsumer.sol\":712:773  setChainlinkToken(0x326C977E6efc84E512bB9C30f76E30c160eD06FB) */\n  0x20\n  shr\n  jump\t// in\ntag_14:\n    /* \"docs.chain.link/samples/APIRequests/ATestnetConsumer.sol\":783:845  setChainlinkOracle(0x6090149792dAAeE9D1D568c9f9a6F6B46AA29eFD) */\n  tag_16\n    /* \"docs.chain.link/samples/APIRequests/ATestnetConsumer.sol\":802:844  0x6090149792dAAeE9D1D568c9f9a6F6B46AA29eFD */\n  0x6090149792daaee9d1d568c9f9a6f6b46aa29efd\n    /* \"docs.chain.link/samples/APIRequests/ATestnetConsumer.sol\":783:801  setChainlinkOracle */\n  shl(0x20, tag_17)\n    /* \"docs.chain.link/samples/APIRequests/ATestnetConsumer.sol\":783:845  setChainlinkOracle(0x6090149792dAAeE9D1D568c9f9a6F6B46AA29eFD) */\n  0x20\n  shr\n  jump\t// in\ntag_16:\n    /* \"docs.chain.link/samples/APIRequests/ATestnetConsumer.sol\":855:897  jobId = \"7da2702f37fd48e5b1b9a5715e3509b6\" */\n  0x3764613237303266333766643438653562316239613537313565333530396236\n    /* \"docs.chain.link/samples/APIRequests/ATestnetConsumer.sol\":855:860  jobId */\n  0x09\n    /* \"docs.chain.link/samples/APIRequests/ATestnetConsumer.sol\":855:897  jobId = \"7da2702f37fd48e5b1b9a5715e3509b6\" */\n  dup2\n  swap1\n  sstore\n  pop\n    /* \"docs.chain.link/samples/APIRequests/ATestnetConsumer.sol\":283:2702  contract ATestnetConsumer is ChainlinkClient, ConfirmedOwner {... */\n  jump(tag_18)\n    /* \"@chainlink/contracts/src/v0.8/ConfirmedOwnerWithProposal.sol\":1497:1685  function _transferOwnership(address to) private {... */\ntag_11:\n    /* \"@chainlink/contracts/src/v0.8/ConfirmedOwnerWithProposal.sol\":1565:1575  msg.sender */\n  caller\n    /* \"@chainlink/contracts/src/v0.8/ConfirmedOwnerWithProposal.sol\":1559:1575  to != msg.sender */\n  0xffffffffffffffffffffffffffffffffffffffff\n  and\n    /* \"@chainlink/contracts/src/v0.8/ConfirmedOwnerWithProposal.sol\":1559:1561  to */\n  dup2\n    /* \"@chainlink/contracts/src/v0.8/ConfirmedOwnerWithProposal.sol\":1559:1575  to != msg.sender */\n  0xffffffffffffffffffffffffffffffffffffffff\n  and\n  sub\n    /* \"@chainlink/contracts/src/v0.8/ConfirmedOwnerWithProposal.sol\":1551:1603  require(to != msg.sender, \"Cannot transfer to self\") */\n  tag_20\n  jumpi\n  mload(0x40)\n  0x08c379a000000000000000000000000000000000000000000000000000000000\n  dup2\n  mstore\n  0x04\n  add\n  tag_21\n  swap1\n  tag_22\n  jump\t// in\ntag_21:\n  mload(0x40)\n  dup1\n  swap2\n  sub\n  swap1\n  revert\ntag_20:\n    /* \"@chainlink/contracts/src/v0.8/ConfirmedOwnerWithProposal.sol\":1627:1629  to */\n  dup1\n    /* \"@chainlink/contracts/src/v0.8/ConfirmedOwnerWithProposal.sol\":1610:1624  s_pendingOwner */\n  0x07\n  0x00\n    /* \"@chainlink/contracts/src/v0.8/ConfirmedOwnerWithProposal.sol\":1610:1629  s_pendingOwner = to */\n  0x0100\n  exp\n  dup2\n  sload\n  dup2\n  0xffffffffffffffffffffffffffffffffffffffff\n  mul\n  not\n  and\n  swap1\n  dup4\n  0xffffffffffffffffffffffffffffffffffffffff\n  and\n  mul\n  or\n  swap1\n  sstore\n  pop\n    /* \"@chainlink/contracts/src/v0.8/ConfirmedOwnerWithProposal.sol\":1677:1679  to */\n  dup1\n    /* \"@chainlink/contracts/src/v0.8/ConfirmedOwnerWithProposal.sol\":1641:1680  OwnershipTransferRequested(s_owner, to) */\n  0xffffffffffffffffffffffffffffffffffffffff\n  and\n    /* \"@chainlink/contracts/src/v0.8/ConfirmedOwnerWithProposal.sol\":1668:1675  s_owner */\n  0x06\n  0x00\n  swap1\n  sload\n  swap1\n  0x0100\n  exp\n  swap1\n  div\n  0xffffffffffffffffffffffffffffffffffffffff\n  and\n    /* \"@chainlink/contracts/src/v0.8/ConfirmedOwnerWithProposal.sol\":1641:1680  OwnershipTransferRequested(s_owner, to) */\n  0xffffffffffffffffffffffffffffffffffffffff\n  and\n  0xed8889f560326eb138920d842192f0eb3dd22b4f139c87a2c57538e05bae1278\n  mload(0x40)\n  mload(0x40)\n  dup1\n  swap2\n  sub\n  swap1\n  log3\n    /* \"@chainlink/contracts/src/v0.8/ConfirmedOwnerWithProposal.sol\":1497:1685  function _transferOwnership(address to) private {... */\n  pop\n  jump\t// out\n    /* \"@chainlink/contracts/src/v0.8/ChainlinkClient.sol\":8625:8733  function setChainlinkToken(address linkAddress) internal {... */\ntag_15:\n    /* \"@chainlink/contracts/src/v0.8/ChainlinkClient.sol\":8716:8727  linkAddress */\n  dup1\n    /* \"@chainlink/contracts/src/v0.8/ChainlinkClient.sol\":8688:8694  s_link */\n  0x02\n  0x00\n    /* \"@chainlink/contracts/src/v0.8/ChainlinkClient.sol\":8688:8728  s_link = LinkTokenInterface(linkAddress) */\n  0x0100\n  exp\n  dup2\n  sload\n  dup2\n  0xffffffffffffffffffffffffffffffffffffffff\n  mul\n  not\n  and\n  swap1\n  dup4\n  0xffffffffffffffffffffffffffffffffffffffff\n  and\n  mul\n  or\n  swap1\n  sstore\n  pop\n    /* \"@chainlink/contracts/src/v0.8/ChainlinkClient.sol\":8625:8733  function setChainlinkToken(address linkAddress) internal {... */\n  pop\n  jump\t// out\n    /* \"@chainlink/contracts/src/v0.8/ChainlinkClient.sol\":8391:8505  function setChainlinkOracle(address oracleAddress) internal {... */\ntag_17:\n    /* \"@chainlink/contracts/src/v0.8/ChainlinkClient.sol\":8486:8499  oracleAddress */\n  dup1\n    /* \"@chainlink/contracts/src/v0.8/ChainlinkClient.sol\":8457:8465  s_oracle */\n  0x03\n  0x00\n    /* \"@chainlink/contracts/src/v0.8/ChainlinkClient.sol\":8457:8500  s_oracle = OperatorInterface(oracleAddress) */\n  0x0100\n  exp\n  dup2\n  sload\n  dup2\n  0xffffffffffffffffffffffffffffffffffffffff\n  mul\n  not\n  and\n  swap1\n  dup4\n  0xffffffffffffffffffffffffffffffffffffffff\n  and\n  mul\n  or\n  swap1\n  sstore\n  pop\n    /* \"@chainlink/contracts/src/v0.8/ChainlinkClient.sol\":8391:8505  function setChainlinkOracle(address oracleAddress) internal {... */\n  pop\n  jump\t// out\n    /* \"#utility.yul\":7:176   */\ntag_25:\n    /* \"#utility.yul\":91:102   */\n  0x00\n    /* \"#utility.yul\":125:131   */\n  dup3\n    /* \"#utility.yul\":120:123   */\n  dup3\n    /* \"#utility.yul\":113:132   */\n  mstore\n    /* \"#utility.yul\":165:169   */\n  0x20\n    /* \"#utility.yul\":160:163   */\n  dup3\n    /* \"#utility.yul\":156:170   */\n  add\n    /* \"#utility.yul\":141:170   */\n  swap1\n  pop\n    /* \"#utility.yul\":7:176   */\n  swap3\n  swap2\n  pop\n  pop\n  jump\t// out\n    /* \"#utility.yul\":182:356   */\ntag_26:\n    /* \"#utility.yul\":322:348   */\n  0x43616e6e6f7420736574206f776e657220746f207a65726f0000000000000000\n    /* \"#utility.yul\":318:319   */\n  0x00\n    /* \"#utility.yul\":310:316   */\n  dup3\n    /* \"#utility.yul\":306:320   */\n  add\n    /* \"#utility.yul\":299:349   */\n  mstore\n    /* \"#utility.yul\":182:356   */\n  pop\n  jump\t// out\n    /* \"#utility.yul\":362:728   */\ntag_27:\n    /* \"#utility.yul\":504:507   */\n  0x00\n    /* \"#utility.yul\":525:592   */\n  tag_34\n    /* \"#utility.yul\":589:591   */\n  0x18\n    /* \"#utility.yul\":584:587   */\n  dup4\n    /* \"#utility.yul\":525:592   */\n  tag_25\n  jump\t// in\ntag_34:\n    /* \"#utility.yul\":518:592   */\n  swap2\n  pop\n    /* \"#utility.yul\":601:694   */\n  tag_35\n    /* \"#utility.yul\":690:693   */\n  dup3\n    /* \"#utility.yul\":601:694   */\n  tag_26\n  jump\t// in\ntag_35:\n    /* \"#utility.yul\":719:721   */\n  0x20\n    /* \"#utility.yul\":714:717   */\n  dup3\n    /* \"#utility.yul\":710:722   */\n  add\n    /* \"#utility.yul\":703:722   */\n  swap1\n  pop\n    /* \"#utility.yul\":362:728   */\n  swap2\n  swap1\n  pop\n  jump\t// out\n    /* \"#utility.yul\":734:1153   */\ntag_8:\n    /* \"#utility.yul\":900:904   */\n  0x00\n    /* \"#utility.yul\":938:940   */\n  0x20\n    /* \"#utility.yul\":927:936   */\n  dup3\n    /* \"#utility.yul\":923:941   */\n  add\n    /* \"#utility.yul\":915:941   */\n  swap1\n  pop\n    /* \"#utility.yul\":987:996   */\n  dup2\n    /* \"#utility.yul\":981:985   */\n  dup2\n    /* \"#utility.yul\":977:997   */\n  sub\n    /* \"#utility.yul\":973:974   */\n  0x00\n    /* \"#utility.yul\":962:971   */\n  dup4\n    /* \"#utility.yul\":958:975   */\n  add\n    /* \"#utility.yul\":951:998   */\n  mstore\n    /* \"#utility.yul\":1015:1146   */\n  tag_37\n    /* \"#utility.yul\":1141:1145   */\n  dup2\n    /* \"#utility.yul\":1015:1146   */\n  tag_27\n  jump\t// in\ntag_37:\n    /* \"#utility.yul\":1007:1146   */\n  swap1\n  pop\n    /* \"#utility.yul\":734:1153   */\n  swap2\n  swap1\n  pop\n  jump\t// out\n    /* \"#utility.yul\":1159:1332   */\ntag_28:\n    /* \"#utility.yul\":1299:1324   */\n  0x43616e6e6f74207472616e7366657220746f2073656c66000000000000000000\n    /* \"#utility.yul\":1295:1296   */\n  0x00\n    /* \"#utility.yul\":1287:1293   */\n  dup3\n    /* \"#utility.yul\":1283:1297   */\n  add\n    /* \"#utility.yul\":1276:1325   */\n  mstore\n    /* \"#utility.yul\":1159:1332   */\n  pop\n  jump\t// out\n    /* \"#utility.yul\":1338:1704   */\ntag_29:\n    /* \"#utility.yul\":1480:1483   */\n  0x00\n    /* \"#utility.yul\":1501:1568   */\n  tag_40\n    /* \"#utility.yul\":1565:1567   */\n  0x17\n    /* \"#utility.yul\":1560:1563   */\n  dup4\n    /* \"#utility.yul\":1501:1568   */\n  tag_25\n  jump\t// in\ntag_40:\n    /* \"#utility.yul\":1494:1568   */\n  swap2\n  pop\n    /* \"#utility.yul\":1577:1670   */\n  tag_41\n    /* \"#utility.yul\":1666:1669   */\n  dup3\n    /* \"#utility.yul\":1577:1670   */\n  tag_28\n  jump\t// in\ntag_41:\n    /* \"#utility.yul\":1695:1697   */\n  0x20\n    /* \"#utility.yul\":1690:1693   */\n  dup3\n    /* \"#utility.yul\":1686:1698   */\n  add\n    /* \"#utility.yul\":1679:1698   */\n  swap1\n  pop\n    /* \"#utility.yul\":1338:1704   */\n  swap2\n  swap1\n  pop\n  jump\t// out\n    /* \"#utility.yul\":1710:2129   */\ntag_22:\n    /* \"#utility.yul\":1876:1880   */\n  0x00\n    /* \"#utility.yul\":1914:1916   */\n  0x20\n    /* \"#utility.yul\":1903:1912   */\n  dup3\n    /* \"#utility.yul\":1899:1917   */\n  add\n    /* \"#utility.yul\":1891:1917   */\n  swap1\n  pop\n    /* \"#utility.yul\":1963:1972   */\n  dup2\n    /* \"#utility.yul\":1957:1961   */\n  dup2\n    /* \"#utility.yul\":1953:1973   */\n  sub\n    /* \"#utility.yul\":1949:1950   */\n  0x00\n    /* \"#utility.yul\":1938:1947   */\n  dup4\n    /* \"#utility.yul\":1934:1951   */\n  add\n    /* \"#utility.yul\":1927:1974   */\n  mstore\n    /* \"#utility.yul\":1991:2122   */\n  tag_43\n    /* \"#utility.yul\":2117:2121   */\n  dup2\n    /* \"#utility.yul\":1991:2122   */\n  tag_29\n  jump\t// in\ntag_43:\n    /* \"#utility.yul\":1983:2122   */\n  swap1\n  pop\n    /* \"#utility.yul\":1710:2129   */\n  swap2\n  swap1\n  pop\n  jump\t// out\n    /* \"docs.chain.link/samples/APIRequests/ATestnetConsumer.sol\":283:2702  contract ATestnetConsumer is ChainlinkClient, ConfirmedOwner {... */\ntag_18:\n  dataSize(sub_0)\n  dup1\n  dataOffset(sub_0)\n  0x00\n  codecopy\n  0x00\n  return\nstop\n\nsub_0: assembly {\n        /* \"docs.chain.link/samples/APIRequests/ATestnetConsumer.sol\":283:2702  contract ATestnetConsumer is ChainlinkClient, ConfirmedOwner {... */\n      mstore(0x40, 0x80)\n      callvalue\n      dup1\n      iszero\n      tag_1\n      jumpi\n      0x00\n      dup1\n      revert\n    tag_1:\n      pop\n      jumpi(tag_2, lt(calldatasize, 0x04))\n      shr(0xe0, calldataload(0x00))\n      dup1\n      0x92cdaaf3\n      gt\n      tag_12\n      jumpi\n      dup1\n      0x92cdaaf3\n      eq\n      tag_7\n      jumpi\n      dup1\n      0x9d1b464a\n      eq\n      tag_8\n      jumpi\n      dup1\n      0xd7f29c63\n      eq\n      tag_9\n      jumpi\n      dup1\n      0xec65d0f8\n      eq\n      tag_10\n      jumpi\n      dup1\n      0xf2fde38b\n      eq\n      tag_11\n      jumpi\n      jump(tag_2)\n    tag_12:\n      dup1\n      0x165d35e1\n      eq\n      tag_3\n      jumpi\n      dup1\n      0x79ba5097\n      eq\n      tag_4\n      jumpi\n      dup1\n      0x8da5cb5b\n      eq\n      tag_5\n      jumpi\n      dup1\n      0x8dc654a2\n      eq\n      tag_6\n      jumpi\n    tag_2:\n      0x00\n      dup1\n      revert\n        /* \"docs.chain.link/samples/APIRequests/ATestnetConsumer.sol\":1625:1731  function getChainlinkToken() public view returns (address) {... */\n    tag_3:\n      tag_13\n      tag_14\n      jump\t// in\n    tag_13:\n      mload(0x40)\n      tag_15\n      swap2\n      swap1\n      tag_16\n      jump\t// in\n    tag_15:\n      mload(0x40)\n      dup1\n      swap2\n      sub\n      swap1\n      return\n        /* \"@chainlink/contracts/src/v0.8/ConfirmedOwnerWithProposal.sol\":1016:1281  function acceptOwnership() external override {... */\n    tag_4:\n      tag_17\n      tag_18\n      jump\t// in\n    tag_17:\n      stop\n        /* \"@chainlink/contracts/src/v0.8/ConfirmedOwnerWithProposal.sol\":1332:1413  function owner() public view override returns (address) {... */\n    tag_5:\n      tag_19\n      tag_20\n      jump\t// in\n    tag_19:\n      mload(0x40)\n      tag_21\n      swap2\n      swap1\n      tag_16\n      jump\t// in\n    tag_21:\n      mload(0x40)\n      dup1\n      swap2\n      sub\n      swap1\n      return\n        /* \"docs.chain.link/samples/APIRequests/ATestnetConsumer.sol\":1737:1995  function withdrawLink() public onlyOwner {... */\n    tag_6:\n      tag_22\n      tag_23\n      jump\t// in\n    tag_22:\n      stop\n        /* \"docs.chain.link/samples/APIRequests/ATestnetConsumer.sol\":1380:1618  function fulfillEthereumPrice(... */\n    tag_7:\n      tag_24\n      0x04\n      dup1\n      calldatasize\n      sub\n      dup2\n      add\n      swap1\n      tag_25\n      swap2\n      swap1\n      tag_26\n      jump\t// in\n    tag_25:\n      tag_27\n      jump\t// in\n    tag_24:\n      stop\n        /* \"docs.chain.link/samples/APIRequests/ATestnetConsumer.sol\":486:513  uint256 public currentPrice */\n    tag_8:\n      tag_28\n      tag_29\n      jump\t// in\n    tag_28:\n      mload(0x40)\n      tag_30\n      swap2\n      swap1\n      tag_31\n      jump\t// in\n    tag_30:\n      mload(0x40)\n      dup1\n      swap2\n      sub\n      swap1\n      return\n        /* \"docs.chain.link/samples/APIRequests/ATestnetConsumer.sol\":910:1374  function requestEthereumPrice() public onlyOwner {... */\n    tag_9:\n      tag_32\n      tag_33\n      jump\t// in\n    tag_32:\n      stop\n        /* \"docs.chain.link/samples/APIRequests/ATestnetConsumer.sol\":2001:2319  function cancelRequest(... */\n    tag_10:\n      tag_34\n      0x04\n      dup1\n      calldatasize\n      sub\n      dup2\n      add\n      swap1\n      tag_35\n      swap2\n      swap1\n      tag_36\n      jump\t// in\n    tag_35:\n      tag_37\n      jump\t// in\n    tag_34:\n      stop\n        /* \"@chainlink/contracts/src/v0.8/ConfirmedOwnerWithProposal.sol\":826:924  function transferOwnership(address to) public override onlyOwner {... */\n    tag_11:\n      tag_38\n      0x04\n      dup1\n      calldatasize\n      sub\n      dup2\n      add\n      swap1\n      tag_39\n      swap2\n      swap1\n      tag_40\n      jump\t// in\n    tag_39:\n      tag_41\n      jump\t// in\n    tag_38:\n      stop\n        /* \"docs.chain.link/samples/APIRequests/ATestnetConsumer.sol\":1625:1731  function getChainlinkToken() public view returns (address) {... */\n    tag_14:\n        /* \"docs.chain.link/samples/APIRequests/ATestnetConsumer.sol\":1675:1682  address */\n      0x00\n        /* \"docs.chain.link/samples/APIRequests/ATestnetConsumer.sol\":1701:1724  chainlinkTokenAddress() */\n      tag_43\n        /* \"docs.chain.link/samples/APIRequests/ATestnetConsumer.sol\":1701:1722  chainlinkTokenAddress */\n      tag_44\n        /* \"docs.chain.link/samples/APIRequests/ATestnetConsumer.sol\":1701:1724  chainlinkTokenAddress() */\n      jump\t// in\n    tag_43:\n        /* \"docs.chain.link/samples/APIRequests/ATestnetConsumer.sol\":1694:1724  return chainlinkTokenAddress() */\n      swap1\n      pop\n        /* \"docs.chain.link/samples/APIRequests/ATestnetConsumer.sol\":1625:1731  function getChainlinkToken() public view returns (address) {... */\n      swap1\n      jump\t// out\n        /* \"@chainlink/contracts/src/v0.8/ConfirmedOwnerWithProposal.sol\":1016:1281  function acceptOwnership() external override {... */\n    tag_18:\n        /* \"@chainlink/contracts/src/v0.8/ConfirmedOwnerWithProposal.sol\":1089:1103  s_pendingOwner */\n      0x07\n      0x00\n      swap1\n      sload\n      swap1\n      0x0100\n      exp\n      swap1\n      div\n      0xffffffffffffffffffffffffffffffffffffffff\n      and\n        /* \"@chainlink/contracts/src/v0.8/ConfirmedOwnerWithProposal.sol\":1075:1103  msg.sender == s_pendingOwner */\n      0xffffffffffffffffffffffffffffffffffffffff\n      and\n        /* \"@chainlink/contracts/src/v0.8/ConfirmedOwnerWithProposal.sol\":1075:1085  msg.sender */\n      caller\n        /* \"@chainlink/contracts/src/v0.8/ConfirmedOwnerWithProposal.sol\":1075:1103  msg.sender == s_pendingOwner */\n      0xffffffffffffffffffffffffffffffffffffffff\n      and\n      eq\n        /* \"@chainlink/contracts/src/v0.8/ConfirmedOwnerWithProposal.sol\":1067:1130  require(msg.sender == s_pendingOwner, \"Must be proposed owner\") */\n      tag_46\n      jumpi\n      mload(0x40)\n      0x08c379a000000000000000000000000000000000000000000000000000000000\n      dup2\n      mstore\n      0x04\n      add\n      tag_47\n      swap1\n      tag_48\n      jump\t// in\n    tag_47:\n      mload(0x40)\n      dup1\n      swap2\n      sub\n      swap1\n      revert\n    tag_46:\n        /* \"@chainlink/contracts/src/v0.8/ConfirmedOwnerWithProposal.sol\":1137:1153  address oldOwner */\n      0x00\n        /* \"@chainlink/contracts/src/v0.8/ConfirmedOwnerWithProposal.sol\":1156:1163  s_owner */\n      0x06\n      0x00\n      swap1\n      sload\n      swap1\n      0x0100\n      exp\n      swap1\n      div\n      0xffffffffffffffffffffffffffffffffffffffff\n      and\n        /* \"@chainlink/contracts/src/v0.8/ConfirmedOwnerWithProposal.sol\":1137:1163  address oldOwner = s_owner */\n      swap1\n      pop\n        /* \"@chainlink/contracts/src/v0.8/ConfirmedOwnerWithProposal.sol\":1179:1189  msg.sender */\n      caller\n        /* \"@chainlink/contracts/src/v0.8/ConfirmedOwnerWithProposal.sol\":1169:1176  s_owner */\n      0x06\n      0x00\n        /* \"@chainlink/contracts/src/v0.8/ConfirmedOwnerWithProposal.sol\":1169:1189  s_owner = msg.sender */\n      0x0100\n      exp\n      dup2\n      sload\n      dup2\n      0xffffffffffffffffffffffffffffffffffffffff\n      mul\n      not\n      and\n      swap1\n      dup4\n      0xffffffffffffffffffffffffffffffffffffffff\n      and\n      mul\n      or\n      swap1\n      sstore\n      pop\n        /* \"@chainlink/contracts/src/v0.8/ConfirmedOwnerWithProposal.sol\":1220:1221  0 */\n      0x00\n        /* \"@chainlink/contracts/src/v0.8/ConfirmedOwnerWithProposal.sol\":1195:1209  s_pendingOwner */\n      0x07\n      0x00\n        /* \"@chainlink/contracts/src/v0.8/ConfirmedOwnerWithProposal.sol\":1195:1222  s_pendingOwner = address(0) */\n      0x0100\n      exp\n      dup2\n      sload\n      dup2\n      0xffffffffffffffffffffffffffffffffffffffff\n      mul\n      not\n      and\n      swap1\n      dup4\n      0xffffffffffffffffffffffffffffffffffffffff\n      and\n      mul\n      or\n      swap1\n      sstore\n      pop\n        /* \"@chainlink/contracts/src/v0.8/ConfirmedOwnerWithProposal.sol\":1265:1275  msg.sender */\n      caller\n        /* \"@chainlink/contracts/src/v0.8/ConfirmedOwnerWithProposal.sol\":1234:1276  OwnershipTransferred(oldOwner, msg.sender) */\n      0xffffffffffffffffffffffffffffffffffffffff\n      and\n        /* \"@chainlink/contracts/src/v0.8/ConfirmedOwnerWithProposal.sol\":1255:1263  oldOwner */\n      dup2\n        /* \"@chainlink/contracts/src/v0.8/ConfirmedOwnerWithProposal.sol\":1234:1276  OwnershipTransferred(oldOwner, msg.sender) */\n      0xffffffffffffffffffffffffffffffffffffffff\n      and\n      0x8be0079c531659141344cd1fd0a4f28419497f9722a3daafe3b4186f6b6457e0\n      mload(0x40)\n      mload(0x40)\n      dup1\n      swap2\n      sub\n      swap1\n      log3\n        /* \"@chainlink/contracts/src/v0.8/ConfirmedOwnerWithProposal.sol\":1061:1281  {... */\n      pop\n        /* \"@chainlink/contracts/src/v0.8/ConfirmedOwnerWithProposal.sol\":1016:1281  function acceptOwnership() external override {... */\n      jump\t// out\n        /* \"@chainlink/contracts/src/v0.8/ConfirmedOwnerWithProposal.sol\":1332:1413  function owner() public view override returns (address) {... */\n    tag_20:\n        /* \"@chainlink/contracts/src/v0.8/ConfirmedOwnerWithProposal.sol\":1379:1386  address */\n      0x00\n        /* \"@chainlink/contracts/src/v0.8/ConfirmedOwnerWithProposal.sol\":1401:1408  s_owner */\n      0x06\n      0x00\n      swap1\n      sload\n      swap1\n      0x0100\n      exp\n      swap1\n      div\n      0xffffffffffffffffffffffffffffffffffffffff\n      and\n        /* \"@chainlink/contracts/src/v0.8/ConfirmedOwnerWithProposal.sol\":1394:1408  return s_owner */\n      swap1\n      pop\n        /* \"@chainlink/contracts/src/v0.8/ConfirmedOwnerWithProposal.sol\":1332:1413  function owner() public view override returns (address) {... */\n      swap1\n      jump\t// out\n        /* \"docs.chain.link/samples/APIRequests/ATestnetConsumer.sol\":1737:1995  function withdrawLink() public onlyOwner {... */\n    tag_23:\n        /* \"@chainlink/contracts/src/v0.8/ConfirmedOwnerWithProposal.sol\":1956:1976  _validateOwnership() */\n      tag_51\n        /* \"@chainlink/contracts/src/v0.8/ConfirmedOwnerWithProposal.sol\":1956:1974  _validateOwnership */\n      tag_52\n        /* \"@chainlink/contracts/src/v0.8/ConfirmedOwnerWithProposal.sol\":1956:1976  _validateOwnership() */\n      jump\t// in\n    tag_51:\n        /* \"docs.chain.link/samples/APIRequests/ATestnetConsumer.sol\":1788:1811  LinkTokenInterface link */\n      0x00\n        /* \"docs.chain.link/samples/APIRequests/ATestnetConsumer.sol\":1833:1856  chainlinkTokenAddress() */\n      tag_54\n        /* \"docs.chain.link/samples/APIRequests/ATestnetConsumer.sol\":1833:1854  chainlinkTokenAddress */\n      tag_44\n        /* \"docs.chain.link/samples/APIRequests/ATestnetConsumer.sol\":1833:1856  chainlinkTokenAddress() */\n      jump\t// in\n    tag_54:\n        /* \"docs.chain.link/samples/APIRequests/ATestnetConsumer.sol\":1788:1857  LinkTokenInterface link = LinkTokenInterface(chainlinkTokenAddress()) */\n      swap1\n      pop\n        /* \"docs.chain.link/samples/APIRequests/ATestnetConsumer.sol\":1888:1892  link */\n      dup1\n        /* \"docs.chain.link/samples/APIRequests/ATestnetConsumer.sol\":1888:1901  link.transfer */\n      0xffffffffffffffffffffffffffffffffffffffff\n      and\n      0xa9059cbb\n        /* \"docs.chain.link/samples/APIRequests/ATestnetConsumer.sol\":1902:1912  msg.sender */\n      caller\n        /* \"docs.chain.link/samples/APIRequests/ATestnetConsumer.sol\":1914:1918  link */\n      dup4\n        /* \"docs.chain.link/samples/APIRequests/ATestnetConsumer.sol\":1914:1928  link.balanceOf */\n      0xffffffffffffffffffffffffffffffffffffffff\n      and\n      0x70a08231\n        /* \"docs.chain.link/samples/APIRequests/ATestnetConsumer.sol\":1937:1941  this */\n      address\n        /* \"docs.chain.link/samples/APIRequests/ATestnetConsumer.sol\":1914:1943  link.balanceOf(address(this)) */\n      mload(0x40)\n      dup3\n      0xffffffff\n      and\n      0xe0\n      shl\n      dup2\n      mstore\n      0x04\n      add\n      tag_55\n      swap2\n      swap1\n      tag_16\n      jump\t// in\n    tag_55:\n      0x20\n      mload(0x40)\n      dup1\n      dup4\n      sub\n      dup2\n      dup7\n      gas\n      staticcall\n      iszero\n      dup1\n      iszero\n      tag_57\n      jumpi\n      returndatasize\n      0x00\n      dup1\n      returndatacopy\n      revert(0x00, returndatasize)\n    tag_57:\n      pop\n      pop\n      pop\n      pop\n      mload(0x40)\n      returndatasize\n      not(0x1f)\n      0x1f\n      dup3\n      add\n      and\n      dup3\n      add\n      dup1\n      0x40\n      mstore\n      pop\n      dup2\n      add\n      swap1\n      tag_58\n      swap2\n      swap1\n      tag_59\n      jump\t// in\n    tag_58:\n        /* \"docs.chain.link/samples/APIRequests/ATestnetConsumer.sol\":1888:1944  link.transfer(msg.sender, link.balanceOf(address(this))) */\n      mload(0x40)\n      dup4\n      0xffffffff\n      and\n      0xe0\n      shl\n      dup2\n      mstore\n      0x04\n      add\n      tag_60\n      swap3\n      swap2\n      swap1\n      tag_61\n      jump\t// in\n    tag_60:\n      0x20\n      mload(0x40)\n      dup1\n      dup4\n      sub\n      dup2\n      0x00\n      dup8\n      gas\n      call\n      iszero\n      dup1\n      iszero\n      tag_63\n      jumpi\n      returndatasize\n      0x00\n      dup1\n      returndatacopy\n      revert(0x00, returndatasize)\n    tag_63:\n      pop\n      pop\n      pop\n      pop\n      mload(0x40)\n      returndatasize\n      not(0x1f)\n      0x1f\n      dup3\n      add\n      and\n      dup3\n      add\n      dup1\n      0x40\n      mstore\n      pop\n      dup2\n      add\n      swap1\n      tag_64\n      swap2\n      swap1\n      tag_65\n      jump\t// in\n    tag_64:\n        /* \"docs.chain.link/samples/APIRequests/ATestnetConsumer.sol\":1867:1988  require(... */\n      tag_66\n      jumpi\n      mload(0x40)\n      0x08c379a000000000000000000000000000000000000000000000000000000000\n      dup2\n      mstore\n      0x04\n      add\n      tag_67\n      swap1\n      tag_68\n      jump\t// in\n    tag_67:\n      mload(0x40)\n      dup1\n      swap2\n      sub\n      swap1\n      revert\n    tag_66:\n        /* \"docs.chain.link/samples/APIRequests/ATestnetConsumer.sol\":1778:1995  {... */\n      pop\n        /* \"docs.chain.link/samples/APIRequests/ATestnetConsumer.sol\":1737:1995  function withdrawLink() public onlyOwner {... */\n      jump\t// out\n        /* \"docs.chain.link/samples/APIRequests/ATestnetConsumer.sol\":1380:1618  function fulfillEthereumPrice(... */\n    tag_27:\n        /* \"docs.chain.link/samples/APIRequests/ATestnetConsumer.sol\":1502:1512  _requestId */\n      dup2\n        /* \"@chainlink/contracts/src/v0.8/ChainlinkClient.sol\":11663:11680  s_pendingRequests */\n      0x05\n        /* \"@chainlink/contracts/src/v0.8/ChainlinkClient.sol\":11663:11691  s_pendingRequests[requestId] */\n      0x00\n        /* \"@chainlink/contracts/src/v0.8/ChainlinkClient.sol\":11681:11690  requestId */\n      dup3\n        /* \"@chainlink/contracts/src/v0.8/ChainlinkClient.sol\":11663:11691  s_pendingRequests[requestId] */\n      dup2\n      mstore\n      0x20\n      add\n      swap1\n      dup2\n      mstore\n      0x20\n      add\n      0x00\n      keccak256\n      0x00\n      swap1\n      sload\n      swap1\n      0x0100\n      exp\n      swap1\n      div\n      0xffffffffffffffffffffffffffffffffffffffff\n      and\n        /* \"@chainlink/contracts/src/v0.8/ChainlinkClient.sol\":11649:11691  msg.sender == s_pendingRequests[requestId] */\n      0xffffffffffffffffffffffffffffffffffffffff\n      and\n        /* \"@chainlink/contracts/src/v0.8/ChainlinkClient.sol\":11649:11659  msg.sender */\n      caller\n        /* \"@chainlink/contracts/src/v0.8/ChainlinkClient.sol\":11649:11691  msg.sender == s_pendingRequests[requestId] */\n      0xffffffffffffffffffffffffffffffffffffffff\n      and\n      eq\n        /* \"@chainlink/contracts/src/v0.8/ChainlinkClient.sol\":11641:11736  require(msg.sender == s_pendingRequests[requestId], \"Source must be the oracle of the request\") */\n      tag_70\n      jumpi\n      mload(0x40)\n      0x08c379a000000000000000000000000000000000000000000000000000000000\n      dup2\n      mstore\n      0x04\n      add\n      tag_71\n      swap1\n      tag_72\n      jump\t// in\n    tag_71:\n      mload(0x40)\n      dup1\n      swap2\n      sub\n      swap1\n      revert\n    tag_70:\n        /* \"@chainlink/contracts/src/v0.8/ChainlinkClient.sol\":11749:11766  s_pendingRequests */\n      0x05\n        /* \"@chainlink/contracts/src/v0.8/ChainlinkClient.sol\":11749:11777  s_pendingRequests[requestId] */\n      0x00\n        /* \"@chainlink/contracts/src/v0.8/ChainlinkClient.sol\":11767:11776  requestId */\n      dup3\n        /* \"@chainlink/contracts/src/v0.8/ChainlinkClient.sol\":11749:11777  s_pendingRequests[requestId] */\n      dup2\n      mstore\n      0x20\n      add\n      swap1\n      dup2\n      mstore\n      0x20\n      add\n      0x00\n      keccak256\n      0x00\n        /* \"@chainlink/contracts/src/v0.8/ChainlinkClient.sol\":11742:11777  delete s_pendingRequests[requestId] */\n      0x0100\n      exp\n      dup2\n      sload\n      swap1\n      0xffffffffffffffffffffffffffffffffffffffff\n      mul\n      not\n      and\n      swap1\n      sstore\n        /* \"@chainlink/contracts/src/v0.8/ChainlinkClient.sol\":11807:11816  requestId */\n      dup1\n        /* \"@chainlink/contracts/src/v0.8/ChainlinkClient.sol\":11788:11817  ChainlinkFulfilled(requestId) */\n      0x7cc135e0cebb02c3480ae5d74d377283180a2601f8f644edf7987b009316c63a\n      mload(0x40)\n      mload(0x40)\n      dup1\n      swap2\n      sub\n      swap1\n      log2\n        /* \"docs.chain.link/samples/APIRequests/ATestnetConsumer.sol\":1605:1611  _price */\n      dup2\n        /* \"docs.chain.link/samples/APIRequests/ATestnetConsumer.sol\":1590:1602  currentPrice */\n      0x08\n        /* \"docs.chain.link/samples/APIRequests/ATestnetConsumer.sol\":1590:1611  currentPrice = _price */\n      dup2\n      swap1\n      sstore\n      pop\n        /* \"docs.chain.link/samples/APIRequests/ATestnetConsumer.sol\":1380:1618  function fulfillEthereumPrice(... */\n      pop\n      pop\n      pop\n      jump\t// out\n        /* \"docs.chain.link/samples/APIRequests/ATestnetConsumer.sol\":486:513  uint256 public currentPrice */\n    tag_29:\n      sload(0x08)\n      dup2\n      jump\t// out\n        /* \"docs.chain.link/samples/APIRequests/ATestnetConsumer.sol\":910:1374  function requestEthereumPrice() public onlyOwner {... */\n    tag_33:\n        /* \"@chainlink/contracts/src/v0.8/ConfirmedOwnerWithProposal.sol\":1956:1976  _validateOwnership() */\n      tag_75\n        /* \"@chainlink/contracts/src/v0.8/ConfirmedOwnerWithProposal.sol\":1956:1974  _validateOwnership */\n      tag_52\n        /* \"@chainlink/contracts/src/v0.8/ConfirmedOwnerWithProposal.sol\":1956:1976  _validateOwnership() */\n      jump\t// in\n    tag_75:\n        /* \"docs.chain.link/samples/APIRequests/ATestnetConsumer.sol\":969:997  Chainlink.Request memory req */\n      0x00\n        /* \"docs.chain.link/samples/APIRequests/ATestnetConsumer.sol\":1000:1125  buildChainlinkRequest(... */\n      tag_77\n        /* \"docs.chain.link/samples/APIRequests/ATestnetConsumer.sol\":1035:1040  jobId */\n      sload(0x09)\n        /* \"docs.chain.link/samples/APIRequests/ATestnetConsumer.sol\":1062:1066  this */\n      address\n        /* \"docs.chain.link/samples/APIRequests/ATestnetConsumer.sol\":1081:1115  this.fulfillEthereumPrice.selector */\n      shl(0xe0, 0x92cdaaf3)\n        /* \"docs.chain.link/samples/APIRequests/ATestnetConsumer.sol\":1000:1021  buildChainlinkRequest */\n      tag_78\n        /* \"docs.chain.link/samples/APIRequests/ATestnetConsumer.sol\":1000:1125  buildChainlinkRequest(... */\n      jump\t// in\n    tag_77:\n        /* \"docs.chain.link/samples/APIRequests/ATestnetConsumer.sol\":969:1125  Chainlink.Request memory req = buildChainlinkRequest(... */\n      swap1\n      pop\n        /* \"docs.chain.link/samples/APIRequests/ATestnetConsumer.sol\":1135:1250  req.add(... */\n      tag_79\n      mload(0x40)\n      dup1\n      0x40\n      add\n      0x40\n      mstore\n      dup1\n      0x03\n      dup2\n      mstore\n      0x20\n      add\n      0x6765740000000000000000000000000000000000000000000000000000000000\n      dup2\n      mstore\n      pop\n      mload(0x40)\n      dup1\n      0x60\n      add\n      0x40\n      mstore\n      dup1\n      0x3f\n      dup2\n      mstore\n      0x20\n      add\n      data_444739292f65e0d84586af555ca805e0303948242aa5bbf9a7032603676a8ec3\n      0x3f\n      swap2\n      codecopy\n        /* \"docs.chain.link/samples/APIRequests/ATestnetConsumer.sol\":1135:1138  req */\n      dup4\n        /* \"docs.chain.link/samples/APIRequests/ATestnetConsumer.sol\":1135:1142  req.add */\n      tag_80\n      swap1\n        /* \"docs.chain.link/samples/APIRequests/ATestnetConsumer.sol\":1135:1250  req.add(... */\n      swap3\n      swap2\n      swap1\n      0xffffffff\n      and\n      jump\t// in\n    tag_79:\n        /* \"docs.chain.link/samples/APIRequests/ATestnetConsumer.sol\":1260:1282  req.add(\"path\", \"USD\") */\n      tag_81\n      mload(0x40)\n      dup1\n      0x40\n      add\n      0x40\n      mstore\n      dup1\n      0x04\n      dup2\n      mstore\n      0x20\n      add\n      0x7061746800000000000000000000000000000000000000000000000000000000\n      dup2\n      mstore\n      pop\n      mload(0x40)\n      dup1\n      0x40\n      add\n      0x40\n      mstore\n      dup1\n      0x03\n      dup2\n      mstore\n      0x20\n      add\n      0x5553440000000000000000000000000000000000000000000000000000000000\n      dup2\n      mstore\n      pop\n        /* \"docs.chain.link/samples/APIRequests/ATestnetConsumer.sol\":1260:1263  req */\n      dup4\n        /* \"docs.chain.link/samples/APIRequests/ATestnetConsumer.sol\":1260:1267  req.add */\n      tag_80\n      swap1\n        /* \"docs.chain.link/samples/APIRequests/ATestnetConsumer.sol\":1260:1282  req.add(\"path\", \"USD\") */\n      swap3\n      swap2\n      swap1\n      0xffffffff\n      and\n      jump\t// in\n    tag_81:\n        /* \"docs.chain.link/samples/APIRequests/ATestnetConsumer.sol\":1292:1316  req.addInt(\"times\", 100) */\n      tag_82\n      mload(0x40)\n      dup1\n      0x40\n      add\n      0x40\n      mstore\n      dup1\n      0x05\n      dup2\n      mstore\n      0x20\n      add\n      0x74696d6573000000000000000000000000000000000000000000000000000000\n      dup2\n      mstore\n      pop\n        /* \"docs.chain.link/samples/APIRequests/ATestnetConsumer.sol\":1312:1315  100 */\n      0x64\n        /* \"docs.chain.link/samples/APIRequests/ATestnetConsumer.sol\":1292:1295  req */\n      dup4\n        /* \"docs.chain.link/samples/APIRequests/ATestnetConsumer.sol\":1292:1302  req.addInt */\n      tag_83\n      swap1\n        /* \"docs.chain.link/samples/APIRequests/ATestnetConsumer.sol\":1292:1316  req.addInt(\"times\", 100) */\n      swap3\n      swap2\n      swap1\n      0xffffffff\n      and\n      jump\t// in\n    tag_82:\n        /* \"docs.chain.link/samples/APIRequests/ATestnetConsumer.sol\":1326:1367  sendChainlinkRequest(req, ORACLE_PAYMENT) */\n      tag_84\n        /* \"docs.chain.link/samples/APIRequests/ATestnetConsumer.sol\":1347:1350  req */\n      dup2\n        /* \"docs.chain.link/samples/APIRequests/ATestnetConsumer.sol\":462:464  10 */\n      0x0a\n        /* \"@chainlink/contracts/src/v0.8/ChainlinkClient.sol\":675:681  10**18 */\n      0x0de0b6b3a7640000\n        /* \"docs.chain.link/samples/APIRequests/ATestnetConsumer.sol\":437:438  1 */\n      0x01\n        /* \"docs.chain.link/samples/APIRequests/ATestnetConsumer.sol\":437:458  1 * LINK_DIVISIBILITY */\n      tag_85\n      swap2\n      swap1\n      tag_86\n      jump\t// in\n    tag_85:\n        /* \"docs.chain.link/samples/APIRequests/ATestnetConsumer.sol\":436:464  (1 * LINK_DIVISIBILITY) / 10 */\n      tag_87\n      swap2\n      swap1\n      tag_88\n      jump\t// in\n    tag_87:\n        /* \"docs.chain.link/samples/APIRequests/ATestnetConsumer.sol\":1326:1346  sendChainlinkRequest */\n      tag_89\n        /* \"docs.chain.link/samples/APIRequests/ATestnetConsumer.sol\":1326:1367  sendChainlinkRequest(req, ORACLE_PAYMENT) */\n      jump\t// in\n    tag_84:\n      pop\n        /* \"docs.chain.link/samples/APIRequests/ATestnetConsumer.sol\":959:1374  {... */\n      pop\n        /* \"docs.chain.link/samples/APIRequests/ATestnetConsumer.sol\":910:1374  function requestEthereumPrice() public onlyOwner {... */\n      jump\t// out\n        /* \"docs.chain.link/samples/APIRequests/ATestnetConsumer.sol\":2001:2319  function cancelRequest(... */\n    tag_37:\n        /* \"@chainlink/contracts/src/v0.8/ConfirmedOwnerWithProposal.sol\":1956:1976  _validateOwnership() */\n      tag_91\n        /* \"@chainlink/contracts/src/v0.8/ConfirmedOwnerWithProposal.sol\":1956:1974  _validateOwnership */\n      tag_52\n        /* \"@chainlink/contracts/src/v0.8/ConfirmedOwnerWithProposal.sol\":1956:1976  _validateOwnership() */\n      jump\t// in\n    tag_91:\n        /* \"docs.chain.link/samples/APIRequests/ATestnetConsumer.sol\":2176:2312  cancelChainlinkRequest(... */\n      tag_93\n        /* \"docs.chain.link/samples/APIRequests/ATestnetConsumer.sol\":2212:2222  _requestId */\n      dup5\n        /* \"docs.chain.link/samples/APIRequests/ATestnetConsumer.sol\":2236:2244  _payment */\n      dup5\n        /* \"docs.chain.link/samples/APIRequests/ATestnetConsumer.sol\":2258:2277  _callbackFunctionId */\n      dup5\n        /* \"docs.chain.link/samples/APIRequests/ATestnetConsumer.sol\":2291:2302  _expiration */\n      dup5\n        /* \"docs.chain.link/samples/APIRequests/ATestnetConsumer.sol\":2176:2198  cancelChainlinkRequest */\n      tag_94\n        /* \"docs.chain.link/samples/APIRequests/ATestnetConsumer.sol\":2176:2312  cancelChainlinkRequest(... */\n      jump\t// in\n    tag_93:\n        /* \"docs.chain.link/samples/APIRequests/ATestnetConsumer.sol\":2001:2319  function cancelRequest(... */\n      pop\n      pop\n      pop\n      pop\n      jump\t// out\n        /* \"@chainlink/contracts/src/v0.8/ConfirmedOwnerWithProposal.sol\":826:924  function transferOwnership(address to) public override onlyOwner {... */\n    tag_41:\n        /* \"@chainlink/contracts/src/v0.8/ConfirmedOwnerWithProposal.sol\":1956:1976  _validateOwnership() */\n      tag_96\n        /* \"@chainlink/contracts/src/v0.8/ConfirmedOwnerWithProposal.sol\":1956:1974  _validateOwnership */\n      tag_52\n        /* \"@chainlink/contracts/src/v0.8/ConfirmedOwnerWithProposal.sol\":1956:1976  _validateOwnership() */\n      jump\t// in\n    tag_96:\n        /* \"@chainlink/contracts/src/v0.8/ConfirmedOwnerWithProposal.sol\":897:919  _transferOwnership(to) */\n      tag_98\n        /* \"@chainlink/contracts/src/v0.8/ConfirmedOwnerWithProposal.sol\":916:918  to */\n      dup2\n        /* \"@chainlink/contracts/src/v0.8/ConfirmedOwnerWithProposal.sol\":897:915  _transferOwnership */\n      tag_99\n        /* \"@chainlink/contracts/src/v0.8/ConfirmedOwnerWithProposal.sol\":897:919  _transferOwnership(to) */\n      jump\t// in\n    tag_98:\n        /* \"@chainlink/contracts/src/v0.8/ConfirmedOwnerWithProposal.sol\":826:924  function transferOwnership(address to) public override onlyOwner {... */\n      pop\n      jump\t// out\n        /* \"@chainlink/contracts/src/v0.8/ChainlinkClient.sol\":9098:9196  function chainlinkTokenAddress() internal view returns (address) {... */\n    tag_44:\n        /* \"@chainlink/contracts/src/v0.8/ChainlinkClient.sol\":9154:9161  address */\n      0x00\n        /* \"@chainlink/contracts/src/v0.8/ChainlinkClient.sol\":9184:9190  s_link */\n      0x02\n      0x00\n      swap1\n      sload\n      swap1\n      0x0100\n      exp\n      swap1\n      div\n      0xffffffffffffffffffffffffffffffffffffffff\n      and\n        /* \"@chainlink/contracts/src/v0.8/ChainlinkClient.sol\":9169:9191  return address(s_link) */\n      swap1\n      pop\n        /* \"@chainlink/contracts/src/v0.8/ChainlinkClient.sol\":9098:9196  function chainlinkTokenAddress() internal view returns (address) {... */\n      swap1\n      jump\t// out\n        /* \"@chainlink/contracts/src/v0.8/ConfirmedOwnerWithProposal.sol\":1730:1841  function _validateOwnership() internal view {... */\n    tag_52:\n        /* \"@chainlink/contracts/src/v0.8/ConfirmedOwnerWithProposal.sol\":1802:1809  s_owner */\n      0x06\n      0x00\n      swap1\n      sload\n      swap1\n      0x0100\n      exp\n      swap1\n      div\n      0xffffffffffffffffffffffffffffffffffffffff\n      and\n        /* \"@chainlink/contracts/src/v0.8/ConfirmedOwnerWithProposal.sol\":1788:1809  msg.sender == s_owner */\n      0xffffffffffffffffffffffffffffffffffffffff\n      and\n        /* \"@chainlink/contracts/src/v0.8/ConfirmedOwnerWithProposal.sol\":1788:1798  msg.sender */\n      caller\n        /* \"@chainlink/contracts/src/v0.8/ConfirmedOwnerWithProposal.sol\":1788:1809  msg.sender == s_owner */\n      0xffffffffffffffffffffffffffffffffffffffff\n      and\n      eq\n        /* \"@chainlink/contracts/src/v0.8/ConfirmedOwnerWithProposal.sol\":1780:1836  require(msg.sender == s_owner, \"Only callable by owner\") */\n      tag_102\n      jumpi\n      mload(0x40)\n      0x08c379a000000000000000000000000000000000000000000000000000000000\n      dup2\n      mstore\n      0x04\n      add\n      tag_103\n      swap1\n      tag_104\n      jump\t// in\n    tag_103:\n      mload(0x40)\n      dup1\n      swap2\n      sub\n      swap1\n      revert\n    tag_102:\n        /* \"@chainlink/contracts/src/v0.8/ConfirmedOwnerWithProposal.sol\":1730:1841  function _validateOwnership() internal view {... */\n      jump\t// out\n        /* \"@chainlink/contracts/src/v0.8/ChainlinkClient.sol\":1850:2133  function buildChainlinkRequest(... */\n    tag_78:\n        /* \"@chainlink/contracts/src/v0.8/ChainlinkClient.sol\":1992:2016  Chainlink.Request memory */\n      tag_105\n      tag_106\n      jump\t// in\n    tag_105:\n        /* \"@chainlink/contracts/src/v0.8/ChainlinkClient.sol\":2024:2052  Chainlink.Request memory req */\n      tag_108\n      tag_106\n      jump\t// in\n    tag_108:\n        /* \"@chainlink/contracts/src/v0.8/ChainlinkClient.sol\":2065:2128  req.initialize(specId, callbackAddr, callbackFunctionSignature) */\n      tag_109\n        /* \"@chainlink/contracts/src/v0.8/ChainlinkClient.sol\":2080:2086  specId */\n      dup6\n        /* \"@chainlink/contracts/src/v0.8/ChainlinkClient.sol\":2088:2100  callbackAddr */\n      dup6\n        /* \"@chainlink/contracts/src/v0.8/ChainlinkClient.sol\":2102:2127  callbackFunctionSignature */\n      dup6\n        /* \"@chainlink/contracts/src/v0.8/ChainlinkClient.sol\":2065:2068  req */\n      dup5\n        /* \"@chainlink/contracts/src/v0.8/ChainlinkClient.sol\":2065:2079  req.initialize */\n      tag_110\n      swap1\n        /* \"@chainlink/contracts/src/v0.8/ChainlinkClient.sol\":2065:2128  req.initialize(specId, callbackAddr, callbackFunctionSignature) */\n      swap4\n      swap3\n      swap2\n      swap1\n      0xffffffff\n      and\n      jump\t// in\n    tag_109:\n        /* \"@chainlink/contracts/src/v0.8/ChainlinkClient.sol\":2058:2128  return req.initialize(specId, callbackAddr, callbackFunctionSignature) */\n      swap2\n      pop\n      pop\n        /* \"@chainlink/contracts/src/v0.8/ChainlinkClient.sol\":1850:2133  function buildChainlinkRequest(... */\n      swap4\n      swap3\n      pop\n      pop\n      pop\n      jump\t// out\n        /* \"@chainlink/contracts/src/v0.8/Chainlink.sol\":1951:2126  function add(... */\n    tag_80:\n        /* \"@chainlink/contracts/src/v0.8/Chainlink.sol\":2061:2087  self.buf.encodeString(key) */\n      tag_112\n        /* \"@chainlink/contracts/src/v0.8/Chainlink.sol\":2083:2086  key */\n      dup3\n        /* \"@chainlink/contracts/src/v0.8/Chainlink.sol\":2061:2065  self */\n      dup5\n        /* \"@chainlink/contracts/src/v0.8/Chainlink.sol\":2061:2069  self.buf */\n      0x80\n      add\n      mload\n        /* \"@chainlink/contracts/src/v0.8/Chainlink.sol\":2061:2082  self.buf.encodeString */\n      tag_113\n      swap1\n        /* \"@chainlink/contracts/src/v0.8/Chainlink.sol\":2061:2087  self.buf.encodeString(key) */\n      swap2\n      swap1\n      0xffffffff\n      and\n      jump\t// in\n    tag_112:\n        /* \"@chainlink/contracts/src/v0.8/Chainlink.sol\":2093:2121  self.buf.encodeString(value) */\n      tag_114\n        /* \"@chainlink/contracts/src/v0.8/Chainlink.sol\":2115:2120  value */\n      dup2\n        /* \"@chainlink/contracts/src/v0.8/Chainlink.sol\":2093:2097  self */\n      dup5\n        /* \"@chainlink/contracts/src/v0.8/Chainlink.sol\":2093:2101  self.buf */\n      0x80\n      add\n      mload\n        /* \"@chainlink/contracts/src/v0.8/Chainlink.sol\":2093:2114  self.buf.encodeString */\n      tag_113\n      swap1\n        /* \"@chainlink/contracts/src/v0.8/Chainlink.sol\":2093:2121  self.buf.encodeString(value) */\n      swap2\n      swap1\n      0xffffffff\n      and\n      jump\t// in\n    tag_114:\n        /* \"@chainlink/contracts/src/v0.8/Chainlink.sol\":1951:2126  function add(... */\n      pop\n      pop\n      pop\n      jump\t// out\n        /* \"@chainlink/contracts/src/v0.8/Chainlink.sol\":2712:2880  function addInt(... */\n    tag_83:\n        /* \"@chainlink/contracts/src/v0.8/Chainlink.sol\":2818:2844  self.buf.encodeString(key) */\n      tag_116\n        /* \"@chainlink/contracts/src/v0.8/Chainlink.sol\":2840:2843  key */\n      dup3\n        /* \"@chainlink/contracts/src/v0.8/Chainlink.sol\":2818:2822  self */\n      dup5\n        /* \"@chainlink/contracts/src/v0.8/Chainlink.sol\":2818:2826  self.buf */\n      0x80\n      add\n      mload\n        /* \"@chainlink/contracts/src/v0.8/Chainlink.sol\":2818:2839  self.buf.encodeString */\n      tag_113\n      swap1\n        /* \"@chainlink/contracts/src/v0.8/Chainlink.sol\":2818:2844  self.buf.encodeString(key) */\n      swap2\n      swap1\n      0xffffffff\n      and\n      jump\t// in\n    tag_116:\n        /* \"@chainlink/contracts/src/v0.8/Chainlink.sol\":2850:2875  self.buf.encodeInt(value) */\n      tag_117\n        /* \"@chainlink/contracts/src/v0.8/Chainlink.sol\":2869:2874  value */\n      dup2\n        /* \"@chainlink/contracts/src/v0.8/Chainlink.sol\":2850:2854  self */\n      dup5\n        /* \"@chainlink/contracts/src/v0.8/Chainlink.sol\":2850:2858  self.buf */\n      0x80\n      add\n      mload\n        /* \"@chainlink/contracts/src/v0.8/Chainlink.sol\":2850:2868  self.buf.encodeInt */\n      tag_118\n      swap1\n        /* \"@chainlink/contracts/src/v0.8/Chainlink.sol\":2850:2875  self.buf.encodeInt(value) */\n      swap2\n      swap1\n      0xffffffff\n      and\n      jump\t// in\n    tag_117:\n        /* \"@chainlink/contracts/src/v0.8/Chainlink.sol\":2712:2880  function addInt(... */\n      pop\n      pop\n      pop\n      jump\t// out\n        /* \"@chainlink/contracts/src/v0.8/ChainlinkClient.sol\":2992:3169  function sendChainlinkRequest(Chainlink.Request memory req, uint256 payment) internal returns (bytes32) {... */\n    tag_89:\n        /* \"@chainlink/contracts/src/v0.8/ChainlinkClient.sol\":3087:3094  bytes32 */\n      0x00\n        /* \"@chainlink/contracts/src/v0.8/ChainlinkClient.sol\":3109:3164  sendChainlinkRequestTo(address(s_oracle), req, payment) */\n      tag_120\n        /* \"@chainlink/contracts/src/v0.8/ChainlinkClient.sol\":3140:3148  s_oracle */\n      0x03\n      0x00\n      swap1\n      sload\n      swap1\n      0x0100\n      exp\n      swap1\n      div\n      0xffffffffffffffffffffffffffffffffffffffff\n      and\n        /* \"@chainlink/contracts/src/v0.8/ChainlinkClient.sol\":3151:3154  req */\n      dup5\n        /* \"@chainlink/contracts/src/v0.8/ChainlinkClient.sol\":3156:3163  payment */\n      dup5\n        /* \"@chainlink/contracts/src/v0.8/ChainlinkClient.sol\":3109:3131  sendChainlinkRequestTo */\n      tag_121\n        /* \"@chainlink/contracts/src/v0.8/ChainlinkClient.sol\":3109:3164  sendChainlinkRequestTo(address(s_oracle), req, payment) */\n      jump\t// in\n    tag_120:\n        /* \"@chainlink/contracts/src/v0.8/ChainlinkClient.sol\":3102:3164  return sendChainlinkRequestTo(address(s_oracle), req, payment) */\n      swap1\n      pop\n        /* \"@chainlink/contracts/src/v0.8/ChainlinkClient.sol\":2992:3169  function sendChainlinkRequest(Chainlink.Request memory req, uint256 payment) internal returns (bytes32) {... */\n      swap3\n      swap2\n      pop\n      pop\n      jump\t// out\n        /* \"@chainlink/contracts/src/v0.8/ChainlinkClient.sol\":7575:7963  function cancelChainlinkRequest(... */\n    tag_94:\n        /* \"@chainlink/contracts/src/v0.8/ChainlinkClient.sol\":7719:7746  OperatorInterface requested */\n      0x00\n        /* \"@chainlink/contracts/src/v0.8/ChainlinkClient.sol\":7767:7784  s_pendingRequests */\n      0x05\n        /* \"@chainlink/contracts/src/v0.8/ChainlinkClient.sol\":7767:7795  s_pendingRequests[requestId] */\n      0x00\n        /* \"@chainlink/contracts/src/v0.8/ChainlinkClient.sol\":7785:7794  requestId */\n      dup7\n        /* \"@chainlink/contracts/src/v0.8/ChainlinkClient.sol\":7767:7795  s_pendingRequests[requestId] */\n      dup2\n      mstore\n      0x20\n      add\n      swap1\n      dup2\n      mstore\n      0x20\n      add\n      0x00\n      keccak256\n      0x00\n      swap1\n      sload\n      swap1\n      0x0100\n      exp\n      swap1\n      div\n      0xffffffffffffffffffffffffffffffffffffffff\n      and\n        /* \"@chainlink/contracts/src/v0.8/ChainlinkClient.sol\":7719:7796  OperatorInterface requested = OperatorInterface(s_pendingRequests[requestId]) */\n      swap1\n      pop\n        /* \"@chainlink/contracts/src/v0.8/ChainlinkClient.sol\":7809:7826  s_pendingRequests */\n      0x05\n        /* \"@chainlink/contracts/src/v0.8/ChainlinkClient.sol\":7809:7837  s_pendingRequests[requestId] */\n      0x00\n        /* \"@chainlink/contracts/src/v0.8/ChainlinkClient.sol\":7827:7836  requestId */\n      dup7\n        /* \"@chainlink/contracts/src/v0.8/ChainlinkClient.sol\":7809:7837  s_pendingRequests[requestId] */\n      dup2\n      mstore\n      0x20\n      add\n      swap1\n      dup2\n      mstore\n      0x20\n      add\n      0x00\n      keccak256\n      0x00\n        /* \"@chainlink/contracts/src/v0.8/ChainlinkClient.sol\":7802:7837  delete s_pendingRequests[requestId] */\n      0x0100\n      exp\n      dup2\n      sload\n      swap1\n      0xffffffffffffffffffffffffffffffffffffffff\n      mul\n      not\n      and\n      swap1\n      sstore\n        /* \"@chainlink/contracts/src/v0.8/ChainlinkClient.sol\":7867:7876  requestId */\n      dup5\n        /* \"@chainlink/contracts/src/v0.8/ChainlinkClient.sol\":7848:7877  ChainlinkCancelled(requestId) */\n      0xe1fe3afa0f7f761ff0a8b89086790efd5140d2907ebd5b7ff6bfcb5e075fd4c5\n      mload(0x40)\n      mload(0x40)\n      dup1\n      swap2\n      sub\n      swap1\n      log2\n        /* \"@chainlink/contracts/src/v0.8/ChainlinkClient.sol\":7883:7892  requested */\n      dup1\n        /* \"@chainlink/contracts/src/v0.8/ChainlinkClient.sol\":7883:7912  requested.cancelOracleRequest */\n      0xffffffffffffffffffffffffffffffffffffffff\n      and\n      0x6ee4d553\n        /* \"@chainlink/contracts/src/v0.8/ChainlinkClient.sol\":7913:7922  requestId */\n      dup7\n        /* \"@chainlink/contracts/src/v0.8/ChainlinkClient.sol\":7924:7931  payment */\n      dup7\n        /* \"@chainlink/contracts/src/v0.8/ChainlinkClient.sol\":7933:7945  callbackFunc */\n      dup7\n        /* \"@chainlink/contracts/src/v0.8/ChainlinkClient.sol\":7947:7957  expiration */\n      dup7\n        /* \"@chainlink/contracts/src/v0.8/ChainlinkClient.sol\":7883:7958  requested.cancelOracleRequest(requestId, payment, callbackFunc, expiration) */\n      mload(0x40)\n      dup6\n      0xffffffff\n      and\n      0xe0\n      shl\n      dup2\n      mstore\n      0x04\n      add\n      tag_123\n      swap5\n      swap4\n      swap3\n      swap2\n      swap1\n      tag_124\n      jump\t// in\n    tag_123:\n      0x00\n      mload(0x40)\n      dup1\n      dup4\n      sub\n      dup2\n      0x00\n      dup8\n      dup1\n      extcodesize\n      iszero\n      dup1\n      iszero\n      tag_125\n      jumpi\n      0x00\n      dup1\n      revert\n    tag_125:\n      pop\n      gas\n      call\n      iszero\n      dup1\n      iszero\n      tag_127\n      jumpi\n      returndatasize\n      0x00\n      dup1\n      returndatacopy\n      revert(0x00, returndatasize)\n    tag_127:\n      pop\n      pop\n      pop\n      pop\n        /* \"@chainlink/contracts/src/v0.8/ChainlinkClient.sol\":7713:7963  {... */\n      pop\n        /* \"@chainlink/contracts/src/v0.8/ChainlinkClient.sol\":7575:7963  function cancelChainlinkRequest(... */\n      pop\n      pop\n      pop\n      pop\n      jump\t// out\n        /* \"@chainlink/contracts/src/v0.8/ConfirmedOwnerWithProposal.sol\":1497:1685  function _transferOwnership(address to) private {... */\n    tag_99:\n        /* \"@chainlink/contracts/src/v0.8/ConfirmedOwnerWithProposal.sol\":1565:1575  msg.sender */\n      caller\n        /* \"@chainlink/contracts/src/v0.8/ConfirmedOwnerWithProposal.sol\":1559:1575  to != msg.sender */\n      0xffffffffffffffffffffffffffffffffffffffff\n      and\n        /* \"@chainlink/contracts/src/v0.8/ConfirmedOwnerWithProposal.sol\":1559:1561  to */\n      dup2\n        /* \"@chainlink/contracts/src/v0.8/ConfirmedOwnerWithProposal.sol\":1559:1575  to != msg.sender */\n      0xffffffffffffffffffffffffffffffffffffffff\n      and\n      sub\n        /* \"@chainlink/contracts/src/v0.8/ConfirmedOwnerWithProposal.sol\":1551:1603  require(to != msg.sender, \"Cannot transfer to self\") */\n      tag_129\n      jumpi\n      mload(0x40)\n      0x08c379a000000000000000000000000000000000000000000000000000000000\n      dup2\n      mstore\n      0x04\n      add\n      tag_130\n      swap1\n      tag_131\n      jump\t// in\n    tag_130:\n      mload(0x40)\n      dup1\n      swap2\n      sub\n      swap1\n      revert\n    tag_129:\n        /* \"@chainlink/contracts/src/v0.8/ConfirmedOwnerWithProposal.sol\":1627:1629  to */\n      dup1\n        /* \"@chainlink/contracts/src/v0.8/ConfirmedOwnerWithProposal.sol\":1610:1624  s_pendingOwner */\n      0x07\n      0x00\n        /* \"@chainlink/contracts/src/v0.8/ConfirmedOwnerWithProposal.sol\":1610:1629  s_pendingOwner = to */\n      0x0100\n      exp\n      dup2\n      sload\n      dup2\n      0xffffffffffffffffffffffffffffffffffffffff\n      mul\n      not\n      and\n      swap1\n      dup4\n      0xffffffffffffffffffffffffffffffffffffffff\n      and\n      mul\n      or\n      swap1\n      sstore\n      pop\n        /* \"@chainlink/contracts/src/v0.8/ConfirmedOwnerWithProposal.sol\":1677:1679  to */\n      dup1\n        /* \"@chainlink/contracts/src/v0.8/ConfirmedOwnerWithProposal.sol\":1641:1680  OwnershipTransferRequested(s_owner, to) */\n      0xffffffffffffffffffffffffffffffffffffffff\n      and\n        /* \"@chainlink/contracts/src/v0.8/ConfirmedOwnerWithProposal.sol\":1668:1675  s_owner */\n      0x06\n      0x00\n      swap1\n      sload\n      swap1\n      0x0100\n      exp\n      swap1\n      div\n      0xffffffffffffffffffffffffffffffffffffffff\n      and\n        /* \"@chainlink/contracts/src/v0.8/ConfirmedOwnerWithProposal.sol\":1641:1680  OwnershipTransferRequested(s_owner, to) */\n      0xffffffffffffffffffffffffffffffffffffffff\n      and\n      0xed8889f560326eb138920d842192f0eb3dd22b4f139c87a2c57538e05bae1278\n      mload(0x40)\n      mload(0x40)\n      dup1\n      swap2\n      sub\n      swap1\n      log3\n        /* \"@chainlink/contracts/src/v0.8/ConfirmedOwnerWithProposal.sol\":1497:1685  function _transferOwnership(address to) private {... */\n      pop\n      jump\t// out\n        /* \"@chainlink/contracts/src/v0.8/Chainlink.sol\":987:1338  function initialize(... */\n    tag_110:\n        /* \"@chainlink/contracts/src/v0.8/Chainlink.sol\":1129:1153  Chainlink.Request memory */\n      tag_132\n      tag_106\n      jump\t// in\n    tag_132:\n        /* \"@chainlink/contracts/src/v0.8/Chainlink.sol\":1161:1210  BufferChainlink.init(self.buf, defaultBufferSize) */\n      tag_134\n        /* \"@chainlink/contracts/src/v0.8/Chainlink.sol\":1182:1186  self */\n      dup6\n        /* \"@chainlink/contracts/src/v0.8/Chainlink.sol\":1182:1190  self.buf */\n      0x80\n      add\n      mload\n        /* \"@chainlink/contracts/src/v0.8/Chainlink.sol\":361:364  256 */\n      0x0100\n        /* \"@chainlink/contracts/src/v0.8/Chainlink.sol\":1161:1181  BufferChainlink.init */\n      tag_135\n        /* \"@chainlink/contracts/src/v0.8/Chainlink.sol\":1161:1210  BufferChainlink.init(self.buf, defaultBufferSize) */\n      jump\t// in\n    tag_134:\n      pop\n        /* \"@chainlink/contracts/src/v0.8/Chainlink.sol\":1226:1231  jobId */\n      dup4\n        /* \"@chainlink/contracts/src/v0.8/Chainlink.sol\":1216:1220  self */\n      dup6\n        /* \"@chainlink/contracts/src/v0.8/Chainlink.sol\":1216:1223  self.id */\n      0x00\n      add\n        /* \"@chainlink/contracts/src/v0.8/Chainlink.sol\":1216:1231  self.id = jobId */\n      dup2\n      dup2\n      mstore\n      pop\n      pop\n        /* \"@chainlink/contracts/src/v0.8/Chainlink.sol\":1260:1272  callbackAddr */\n      dup3\n        /* \"@chainlink/contracts/src/v0.8/Chainlink.sol\":1237:1241  self */\n      dup6\n        /* \"@chainlink/contracts/src/v0.8/Chainlink.sol\":1237:1257  self.callbackAddress */\n      0x20\n      add\n        /* \"@chainlink/contracts/src/v0.8/Chainlink.sol\":1237:1272  self.callbackAddress = callbackAddr */\n      swap1\n      0xffffffffffffffffffffffffffffffffffffffff\n      and\n      swap1\n      dup2\n      0xffffffffffffffffffffffffffffffffffffffff\n      and\n      dup2\n      mstore\n      pop\n      pop\n        /* \"@chainlink/contracts/src/v0.8/Chainlink.sol\":1304:1316  callbackFunc */\n      dup2\n        /* \"@chainlink/contracts/src/v0.8/Chainlink.sol\":1278:1282  self */\n      dup6\n        /* \"@chainlink/contracts/src/v0.8/Chainlink.sol\":1278:1301  self.callbackFunctionId */\n      0x40\n      add\n        /* \"@chainlink/contracts/src/v0.8/Chainlink.sol\":1278:1316  self.callbackFunctionId = callbackFunc */\n      swap1\n      not(0xffffffffffffffffffffffffffffffffffffffffffffffffffffffff)\n      and\n      swap1\n      dup2\n      not(0xffffffffffffffffffffffffffffffffffffffffffffffffffffffff)\n      and\n      dup2\n      mstore\n      pop\n      pop\n        /* \"@chainlink/contracts/src/v0.8/Chainlink.sol\":1329:1333  self */\n      dup5\n        /* \"@chainlink/contracts/src/v0.8/Chainlink.sol\":1322:1333  return self */\n      swap1\n      pop\n        /* \"@chainlink/contracts/src/v0.8/Chainlink.sol\":987:1338  function initialize(... */\n      swap5\n      swap4\n      pop\n      pop\n      pop\n      pop\n      jump\t// out\n        /* \"@chainlink/contracts/src/v0.8/vendor/CBORChainlink.sol\":2777:2981  function encodeString(BufferChainlink.buffer memory buf, string memory value) internal pure {... */\n    tag_113:\n        /* \"@chainlink/contracts/src/v0.8/vendor/CBORChainlink.sol\":2875:2946  encodeFixedNumeric(buf, MAJOR_TYPE_STRING, uint64(bytes(value).length)) */\n      tag_137\n        /* \"@chainlink/contracts/src/v0.8/vendor/CBORChainlink.sol\":2894:2897  buf */\n      dup3\n        /* \"@chainlink/contracts/src/v0.8/vendor/CBORChainlink.sol\":383:384  3 */\n      0x03\n        /* \"@chainlink/contracts/src/v0.8/vendor/CBORChainlink.sol\":2931:2936  value */\n      dup4\n        /* \"@chainlink/contracts/src/v0.8/vendor/CBORChainlink.sol\":2925:2944  bytes(value).length */\n      mload\n        /* \"@chainlink/contracts/src/v0.8/vendor/CBORChainlink.sol\":2875:2893  encodeFixedNumeric */\n      tag_138\n        /* \"@chainlink/contracts/src/v0.8/vendor/CBORChainlink.sol\":2875:2946  encodeFixedNumeric(buf, MAJOR_TYPE_STRING, uint64(bytes(value).length)) */\n      jump\t// in\n    tag_137:\n        /* \"@chainlink/contracts/src/v0.8/vendor/CBORChainlink.sol\":2952:2976  buf.append(bytes(value)) */\n      tag_139\n        /* \"@chainlink/contracts/src/v0.8/vendor/CBORChainlink.sol\":2969:2974  value */\n      dup2\n        /* \"@chainlink/contracts/src/v0.8/vendor/CBORChainlink.sol\":2952:2955  buf */\n      dup4\n        /* \"@chainlink/contracts/src/v0.8/vendor/CBORChainlink.sol\":2952:2962  buf.append */\n      tag_140\n      swap1\n        /* \"@chainlink/contracts/src/v0.8/vendor/CBORChainlink.sol\":2952:2976  buf.append(bytes(value)) */\n      swap2\n      swap1\n      0xffffffff\n      and\n      jump\t// in\n    tag_139:\n      pop\n        /* \"@chainlink/contracts/src/v0.8/vendor/CBORChainlink.sol\":2777:2981  function encodeString(BufferChainlink.buffer memory buf, string memory value) internal pure {... */\n      pop\n      pop\n      jump\t// out\n        /* \"@chainlink/contracts/src/v0.8/vendor/CBORChainlink.sol\":1704:2150  function encodeInt(BufferChainlink.buffer memory buf, int value) internal pure {... */\n    tag_118:\n        /* \"@chainlink/contracts/src/v0.8/vendor/CBORChainlink.sol\":1800:1820  -0x10000000000000000 */\n      0xffffffffffffffffffffffffffffffffffffffffffffffff0000000000000000\n        /* \"@chainlink/contracts/src/v0.8/vendor/CBORChainlink.sol\":1792:1797  value */\n      dup2\n        /* \"@chainlink/contracts/src/v0.8/vendor/CBORChainlink.sol\":1792:1820  value < -0x10000000000000000 */\n      slt\n        /* \"@chainlink/contracts/src/v0.8/vendor/CBORChainlink.sol\":1789:2146  if(value < -0x10000000000000000) {... */\n      iszero\n      tag_142\n      jumpi\n        /* \"@chainlink/contracts/src/v0.8/vendor/CBORChainlink.sol\":1830:1860  encodeSignedBigNum(buf, value) */\n      tag_143\n        /* \"@chainlink/contracts/src/v0.8/vendor/CBORChainlink.sol\":1849:1852  buf */\n      dup3\n        /* \"@chainlink/contracts/src/v0.8/vendor/CBORChainlink.sol\":1854:1859  value */\n      dup3\n        /* \"@chainlink/contracts/src/v0.8/vendor/CBORChainlink.sol\":1830:1848  encodeSignedBigNum */\n      tag_144\n        /* \"@chainlink/contracts/src/v0.8/vendor/CBORChainlink.sol\":1830:1860  encodeSignedBigNum(buf, value) */\n      jump\t// in\n    tag_143:\n        /* \"@chainlink/contracts/src/v0.8/vendor/CBORChainlink.sol\":1789:2146  if(value < -0x10000000000000000) {... */\n      jump(tag_145)\n    tag_142:\n        /* \"@chainlink/contracts/src/v0.8/vendor/CBORChainlink.sol\":1884:1902  0xFFFFFFFFFFFFFFFF */\n      0xffffffffffffffff\n        /* \"@chainlink/contracts/src/v0.8/vendor/CBORChainlink.sol\":1876:1881  value */\n      dup2\n        /* \"@chainlink/contracts/src/v0.8/vendor/CBORChainlink.sol\":1876:1902  value > 0xFFFFFFFFFFFFFFFF */\n      sgt\n        /* \"@chainlink/contracts/src/v0.8/vendor/CBORChainlink.sol\":1873:2146  if(value > 0xFFFFFFFFFFFFFFFF) {... */\n      iszero\n      tag_146\n      jumpi\n        /* \"@chainlink/contracts/src/v0.8/vendor/CBORChainlink.sol\":1912:1942  encodeBigNum(buf, uint(value)) */\n      tag_147\n        /* \"@chainlink/contracts/src/v0.8/vendor/CBORChainlink.sol\":1925:1928  buf */\n      dup3\n        /* \"@chainlink/contracts/src/v0.8/vendor/CBORChainlink.sol\":1935:1940  value */\n      dup3\n        /* \"@chainlink/contracts/src/v0.8/vendor/CBORChainlink.sol\":1912:1924  encodeBigNum */\n      tag_148\n        /* \"@chainlink/contracts/src/v0.8/vendor/CBORChainlink.sol\":1912:1942  encodeBigNum(buf, uint(value)) */\n      jump\t// in\n    tag_147:\n        /* \"@chainlink/contracts/src/v0.8/vendor/CBORChainlink.sol\":1873:2146  if(value > 0xFFFFFFFFFFFFFFFF) {... */\n      jump(tag_149)\n    tag_146:\n        /* \"@chainlink/contracts/src/v0.8/vendor/CBORChainlink.sol\":1967:1968  0 */\n      0x00\n        /* \"@chainlink/contracts/src/v0.8/vendor/CBORChainlink.sol\":1958:1963  value */\n      dup2\n        /* \"@chainlink/contracts/src/v0.8/vendor/CBORChainlink.sol\":1958:1968  value >= 0 */\n      slt\n        /* \"@chainlink/contracts/src/v0.8/vendor/CBORChainlink.sol\":1955:2146  if(value >= 0) {... */\n      tag_150\n      jumpi\n        /* \"@chainlink/contracts/src/v0.8/vendor/CBORChainlink.sol\":1978:2041  encodeFixedNumeric(buf, MAJOR_TYPE_INT, uint64(uint256(value))) */\n      tag_151\n        /* \"@chainlink/contracts/src/v0.8/vendor/CBORChainlink.sol\":1997:2000  buf */\n      dup3\n        /* \"@chainlink/contracts/src/v0.8/vendor/CBORChainlink.sol\":234:235  0 */\n      0x00\n        /* \"@chainlink/contracts/src/v0.8/vendor/CBORChainlink.sol\":2033:2038  value */\n      dup4\n        /* \"@chainlink/contracts/src/v0.8/vendor/CBORChainlink.sol\":1978:1996  encodeFixedNumeric */\n      tag_138\n        /* \"@chainlink/contracts/src/v0.8/vendor/CBORChainlink.sol\":1978:2041  encodeFixedNumeric(buf, MAJOR_TYPE_INT, uint64(uint256(value))) */\n      jump\t// in\n    tag_151:\n        /* \"@chainlink/contracts/src/v0.8/vendor/CBORChainlink.sol\":1955:2146  if(value >= 0) {... */\n      jump(tag_152)\n    tag_150:\n        /* \"@chainlink/contracts/src/v0.8/vendor/CBORChainlink.sol\":2062:2139  encodeFixedNumeric(buf, MAJOR_TYPE_NEGATIVE_INT, uint64(uint256(-1 - value))) */\n      tag_153\n        /* \"@chainlink/contracts/src/v0.8/vendor/CBORChainlink.sol\":2081:2084  buf */\n      dup3\n        /* \"@chainlink/contracts/src/v0.8/vendor/CBORChainlink.sol\":288:289  1 */\n      0x01\n        /* \"@chainlink/contracts/src/v0.8/vendor/CBORChainlink.sol\":2131:2136  value */\n      dup4\n        /* \"@chainlink/contracts/src/v0.8/vendor/CBORChainlink.sol\":2126:2128  -1 */\n      0xffffffffffffffffffffffffffffffffffffffffffffffffffffffffffffffff\n        /* \"@chainlink/contracts/src/v0.8/vendor/CBORChainlink.sol\":2126:2136  -1 - value */\n      tag_154\n      swap2\n      swap1\n      tag_155\n      jump\t// in\n    tag_154:\n        /* \"@chainlink/contracts/src/v0.8/vendor/CBORChainlink.sol\":2062:2080  encodeFixedNumeric */\n      tag_138\n        /* \"@chainlink/contracts/src/v0.8/vendor/CBORChainlink.sol\":2062:2139  encodeFixedNumeric(buf, MAJOR_TYPE_NEGATIVE_INT, uint64(uint256(-1 - value))) */\n      jump\t// in\n    tag_153:\n        /* \"@chainlink/contracts/src/v0.8/vendor/CBORChainlink.sol\":1955:2146  if(value >= 0) {... */\n    tag_152:\n        /* \"@chainlink/contracts/src/v0.8/vendor/CBORChainlink.sol\":1873:2146  if(value > 0xFFFFFFFFFFFFFFFF) {... */\n    tag_149:\n        /* \"@chainlink/contracts/src/v0.8/vendor/CBORChainlink.sol\":1789:2146  if(value < -0x10000000000000000) {... */\n    tag_145:\n        /* \"@chainlink/contracts/src/v0.8/vendor/CBORChainlink.sol\":1704:2150  function encodeInt(BufferChainlink.buffer memory buf, int value) internal pure {... */\n      pop\n      pop\n      jump\t// out\n        /* \"@chainlink/contracts/src/v0.8/ChainlinkClient.sol\":3687:4443  function sendChainlinkRequestTo(... */\n    tag_121:\n        /* \"@chainlink/contracts/src/v0.8/ChainlinkClient.sol\":3823:3840  bytes32 requestId */\n      0x00\n        /* \"@chainlink/contracts/src/v0.8/ChainlinkClient.sol\":3848:3861  uint256 nonce */\n      dup1\n        /* \"@chainlink/contracts/src/v0.8/ChainlinkClient.sol\":3864:3878  s_requestCount */\n      sload(0x04)\n        /* \"@chainlink/contracts/src/v0.8/ChainlinkClient.sol\":3848:3878  uint256 nonce = s_requestCount */\n      swap1\n      pop\n        /* \"@chainlink/contracts/src/v0.8/ChainlinkClient.sol\":3909:3910  1 */\n      0x01\n        /* \"@chainlink/contracts/src/v0.8/ChainlinkClient.sol\":3901:3906  nonce */\n      dup2\n        /* \"@chainlink/contracts/src/v0.8/ChainlinkClient.sol\":3901:3910  nonce + 1 */\n      tag_157\n      swap2\n      swap1\n      tag_158\n      jump\t// in\n    tag_157:\n        /* \"@chainlink/contracts/src/v0.8/ChainlinkClient.sol\":3884:3898  s_requestCount */\n      0x04\n        /* \"@chainlink/contracts/src/v0.8/ChainlinkClient.sol\":3884:3910  s_requestCount = nonce + 1 */\n      dup2\n      swap1\n      sstore\n      pop\n        /* \"@chainlink/contracts/src/v0.8/ChainlinkClient.sol\":3916:3943  bytes memory encodedRequest */\n      0x00\n        /* \"@chainlink/contracts/src/v0.8/ChainlinkClient.sol\":3976:4024  ChainlinkRequestInterface.oracleRequest.selector */\n      shl(0xe0, 0x40429946)\n        /* \"@chainlink/contracts/src/v0.8/ChainlinkClient.sol\":784:785  0 */\n      0x00\n        /* \"@chainlink/contracts/src/v0.8/ChainlinkClient.sol\":728:729  0 */\n      dup1\n        /* \"@chainlink/contracts/src/v0.8/ChainlinkClient.sol\":4245:4248  req */\n      dup8\n        /* \"@chainlink/contracts/src/v0.8/ChainlinkClient.sol\":4245:4251  req.id */\n      0x00\n      add\n      mload\n        /* \"@chainlink/contracts/src/v0.8/ChainlinkClient.sol\":4267:4271  this */\n      address\n        /* \"@chainlink/contracts/src/v0.8/ChainlinkClient.sol\":4280:4283  req */\n      dup10\n        /* \"@chainlink/contracts/src/v0.8/ChainlinkClient.sol\":4280:4302  req.callbackFunctionId */\n      0x40\n      add\n      mload\n        /* \"@chainlink/contracts/src/v0.8/ChainlinkClient.sol\":4310:4315  nonce */\n      dup8\n        /* \"@chainlink/contracts/src/v0.8/ChainlinkClient.sol\":837:838  1 */\n      0x01\n        /* \"@chainlink/contracts/src/v0.8/ChainlinkClient.sol\":4350:4353  req */\n      dup13\n        /* \"@chainlink/contracts/src/v0.8/ChainlinkClient.sol\":4350:4357  req.buf */\n      0x80\n      add\n      mload\n        /* \"@chainlink/contracts/src/v0.8/ChainlinkClient.sol\":4350:4361  req.buf.buf */\n      0x00\n      add\n      mload\n        /* \"@chainlink/contracts/src/v0.8/ChainlinkClient.sol\":3946:4367  abi.encodeWithSelector(... */\n      add(0x24, mload(0x40))\n      tag_159\n      swap9\n      swap8\n      swap7\n      swap6\n      swap5\n      swap4\n      swap3\n      swap2\n      swap1\n      tag_160\n      jump\t// in\n    tag_159:\n      mload(0x40)\n      0x20\n      dup2\n      dup4\n      sub\n      sub\n      dup2\n      mstore\n      swap1\n      0x40\n      mstore\n      swap1\n      not(0xffffffffffffffffffffffffffffffffffffffffffffffffffffffff)\n      and\n      0x20\n      dup3\n      add\n      dup1\n      mload\n      0xffffffffffffffffffffffffffffffffffffffffffffffffffffffff\n      dup4\n      dup2\n      dup4\n      and\n      or\n      dup4\n      mstore\n      pop\n      pop\n      pop\n      pop\n        /* \"@chainlink/contracts/src/v0.8/ChainlinkClient.sol\":3916:4367  bytes memory encodedRequest = abi.encodeWithSelector(... */\n      swap1\n      pop\n        /* \"@chainlink/contracts/src/v0.8/ChainlinkClient.sol\":4380:4438  _rawRequest(oracleAddress, nonce, payment, encodedRequest) */\n      tag_161\n        /* \"@chainlink/contracts/src/v0.8/ChainlinkClient.sol\":4392:4405  oracleAddress */\n      dup7\n        /* \"@chainlink/contracts/src/v0.8/ChainlinkClient.sol\":4407:4412  nonce */\n      dup4\n        /* \"@chainlink/contracts/src/v0.8/ChainlinkClient.sol\":4414:4421  payment */\n      dup7\n        /* \"@chainlink/contracts/src/v0.8/ChainlinkClient.sol\":4423:4437  encodedRequest */\n      dup5\n        /* \"@chainlink/contracts/src/v0.8/ChainlinkClient.sol\":4380:4391  _rawRequest */\n      tag_162\n        /* \"@chainlink/contracts/src/v0.8/ChainlinkClient.sol\":4380:4438  _rawRequest(oracleAddress, nonce, payment, encodedRequest) */\n      jump\t// in\n    tag_161:\n        /* \"@chainlink/contracts/src/v0.8/ChainlinkClient.sol\":4373:4438  return _rawRequest(oracleAddress, nonce, payment, encodedRequest) */\n      swap3\n      pop\n      pop\n      pop\n        /* \"@chainlink/contracts/src/v0.8/ChainlinkClient.sol\":3687:4443  function sendChainlinkRequestTo(... */\n      swap4\n      swap3\n      pop\n      pop\n      pop\n      jump\t// out\n        /* \"@chainlink/contracts/src/v0.8/vendor/BufferChainlink.sol\":1001:1400  function init(buffer memory buf, uint256 capacity) internal pure returns (buffer memory) {... */\n    tag_135:\n        /* \"@chainlink/contracts/src/v0.8/vendor/BufferChainlink.sol\":1075:1088  buffer memory */\n      tag_163\n      tag_164\n      jump\t// in\n    tag_163:\n        /* \"@chainlink/contracts/src/v0.8/vendor/BufferChainlink.sol\":1117:1118  0 */\n      0x00\n        /* \"@chainlink/contracts/src/v0.8/vendor/BufferChainlink.sol\":1111:1113  32 */\n      0x20\n        /* \"@chainlink/contracts/src/v0.8/vendor/BufferChainlink.sol\":1100:1108  capacity */\n      dup4\n        /* \"@chainlink/contracts/src/v0.8/vendor/BufferChainlink.sol\":1100:1113  capacity % 32 */\n      tag_166\n      swap2\n      swap1\n      tag_167\n      jump\t// in\n    tag_166:\n        /* \"@chainlink/contracts/src/v0.8/vendor/BufferChainlink.sol\":1100:1118  capacity % 32 != 0 */\n      eq\n        /* \"@chainlink/contracts/src/v0.8/vendor/BufferChainlink.sol\":1096:1167  if (capacity % 32 != 0) {... */\n      tag_168\n      jumpi\n        /* \"@chainlink/contracts/src/v0.8/vendor/BufferChainlink.sol\":1157:1159  32 */\n      0x20\n        /* \"@chainlink/contracts/src/v0.8/vendor/BufferChainlink.sol\":1146:1154  capacity */\n      dup3\n        /* \"@chainlink/contracts/src/v0.8/vendor/BufferChainlink.sol\":1146:1159  capacity % 32 */\n      tag_169\n      swap2\n      swap1\n      tag_167\n      jump\t// in\n    tag_169:\n        /* \"@chainlink/contracts/src/v0.8/vendor/BufferChainlink.sol\":1140:1142  32 */\n      0x20\n        /* \"@chainlink/contracts/src/v0.8/vendor/BufferChainlink.sol\":1140:1160  32 - (capacity % 32) */\n      tag_170\n      swap2\n      swap1\n      tag_171\n      jump\t// in\n    tag_170:\n        /* \"@chainlink/contracts/src/v0.8/vendor/BufferChainlink.sol\":1128:1160  capacity += 32 - (capacity % 32) */\n      dup3\n      tag_172\n      swap2\n      swap1\n      tag_158\n      jump\t// in\n    tag_172:\n      swap2\n      pop\n        /* \"@chainlink/contracts/src/v0.8/vendor/BufferChainlink.sol\":1096:1167  if (capacity % 32 != 0) {... */\n    tag_168:\n        /* \"@chainlink/contracts/src/v0.8/vendor/BufferChainlink.sol\":1229:1237  capacity */\n      dup2\n        /* \"@chainlink/contracts/src/v0.8/vendor/BufferChainlink.sol\":1214:1217  buf */\n      dup4\n        /* \"@chainlink/contracts/src/v0.8/vendor/BufferChainlink.sol\":1214:1226  buf.capacity */\n      0x20\n      add\n        /* \"@chainlink/contracts/src/v0.8/vendor/BufferChainlink.sol\":1214:1237  buf.capacity = capacity */\n      dup2\n      dup2\n      mstore\n      pop\n      pop\n        /* \"@chainlink/contracts/src/v0.8/vendor/BufferChainlink.sol\":1277:1281  0x40 */\n      0x40\n        /* \"@chainlink/contracts/src/v0.8/vendor/BufferChainlink.sol\":1271:1282  mload(0x40) */\n      mload\n        /* \"@chainlink/contracts/src/v0.8/vendor/BufferChainlink.sol\":1301:1304  ptr */\n      dup1\n        /* \"@chainlink/contracts/src/v0.8/vendor/BufferChainlink.sol\":1296:1299  buf */\n      dup5\n        /* \"@chainlink/contracts/src/v0.8/vendor/BufferChainlink.sol\":1289:1305  mstore(buf, ptr) */\n      mstore\n        /* \"@chainlink/contracts/src/v0.8/vendor/BufferChainlink.sol\":1324:1325  0 */\n      0x00\n        /* \"@chainlink/contracts/src/v0.8/vendor/BufferChainlink.sol\":1319:1322  ptr */\n      dup2\n        /* \"@chainlink/contracts/src/v0.8/vendor/BufferChainlink.sol\":1312:1326  mstore(ptr, 0) */\n      mstore\n        /* \"@chainlink/contracts/src/v0.8/vendor/BufferChainlink.sol\":1363:1371  capacity */\n      dup3\n        /* \"@chainlink/contracts/src/v0.8/vendor/BufferChainlink.sol\":1358:1361  ptr */\n      dup2\n        /* \"@chainlink/contracts/src/v0.8/vendor/BufferChainlink.sol\":1354:1372  add(ptr, capacity) */\n      add\n        /* \"@chainlink/contracts/src/v0.8/vendor/BufferChainlink.sol\":1350:1352  32 */\n      0x20\n        /* \"@chainlink/contracts/src/v0.8/vendor/BufferChainlink.sol\":1346:1373  add(32, add(ptr, capacity)) */\n      add\n        /* \"@chainlink/contracts/src/v0.8/vendor/BufferChainlink.sol\":1340:1344  0x40 */\n      0x40\n        /* \"@chainlink/contracts/src/v0.8/vendor/BufferChainlink.sol\":1333:1374  mstore(0x40, add(32, add(ptr, capacity))) */\n      mstore\n        /* \"@chainlink/contracts/src/v0.8/vendor/BufferChainlink.sol\":1252:1380  {... */\n      pop\n        /* \"@chainlink/contracts/src/v0.8/vendor/BufferChainlink.sol\":1392:1395  buf */\n      dup3\n        /* \"@chainlink/contracts/src/v0.8/vendor/BufferChainlink.sol\":1385:1395  return buf */\n      swap1\n      pop\n        /* \"@chainlink/contracts/src/v0.8/vendor/BufferChainlink.sol\":1001:1400  function init(buffer memory buf, uint256 capacity) internal pure returns (buffer memory) {... */\n      swap3\n      swap2\n      pop\n      pop\n      jump\t// out\n        /* \"@chainlink/contracts/src/v0.8/vendor/CBORChainlink.sol\":682:1307  function encodeFixedNumeric(BufferChainlink.buffer memory buf, uint8 major, uint64 value) private pure {... */\n    tag_138:\n        /* \"@chainlink/contracts/src/v0.8/vendor/CBORChainlink.sol\":803:805  23 */\n      0x17\n        /* \"@chainlink/contracts/src/v0.8/vendor/CBORChainlink.sol\":794:799  value */\n      dup2\n        /* \"@chainlink/contracts/src/v0.8/vendor/CBORChainlink.sol\":794:805  value <= 23 */\n      0xffffffffffffffff\n      and\n      gt\n        /* \"@chainlink/contracts/src/v0.8/vendor/CBORChainlink.sol\":791:1303  if(value <= 23) {... */\n      tag_174\n      jumpi\n        /* \"@chainlink/contracts/src/v0.8/vendor/CBORChainlink.sol\":815:859  buf.appendUint8(uint8((major << 5) | value)) */\n      tag_175\n        /* \"@chainlink/contracts/src/v0.8/vendor/CBORChainlink.sol\":852:857  value */\n      dup2\n        /* \"@chainlink/contracts/src/v0.8/vendor/CBORChainlink.sol\":847:848  5 */\n      0x05\n        /* \"@chainlink/contracts/src/v0.8/vendor/CBORChainlink.sol\":838:843  major */\n      dup5\n        /* \"@chainlink/contracts/src/v0.8/vendor/CBORChainlink.sol\":838:848  major << 5 */\n      0xff\n      and\n      swap1\n      shl\n        /* \"@chainlink/contracts/src/v0.8/vendor/CBORChainlink.sol\":837:857  (major << 5) | value */\n      0xff\n      and\n      or\n        /* \"@chainlink/contracts/src/v0.8/vendor/CBORChainlink.sol\":815:818  buf */\n      dup5\n        /* \"@chainlink/contracts/src/v0.8/vendor/CBORChainlink.sol\":815:830  buf.appendUint8 */\n      tag_176\n      swap1\n        /* \"@chainlink/contracts/src/v0.8/vendor/CBORChainlink.sol\":815:859  buf.appendUint8(uint8((major << 5) | value)) */\n      swap2\n      swap1\n      0xffffffff\n      and\n      jump\t// in\n    tag_175:\n      pop\n        /* \"@chainlink/contracts/src/v0.8/vendor/CBORChainlink.sol\":791:1303  if(value <= 23) {... */\n      jump(tag_177)\n    tag_174:\n        /* \"@chainlink/contracts/src/v0.8/vendor/CBORChainlink.sol\":885:889  0xFF */\n      0xff\n        /* \"@chainlink/contracts/src/v0.8/vendor/CBORChainlink.sol\":876:881  value */\n      dup2\n        /* \"@chainlink/contracts/src/v0.8/vendor/CBORChainlink.sol\":876:889  value <= 0xFF */\n      0xffffffffffffffff\n      and\n      gt\n        /* \"@chainlink/contracts/src/v0.8/vendor/CBORChainlink.sol\":872:1303  if (value <= 0xFF) {... */\n      tag_178\n      jumpi\n        /* \"@chainlink/contracts/src/v0.8/vendor/CBORChainlink.sol\":899:940  buf.appendUint8(uint8((major << 5) | 24)) */\n      tag_179\n        /* \"@chainlink/contracts/src/v0.8/vendor/CBORChainlink.sol\":936:938  24 */\n      0x18\n        /* \"@chainlink/contracts/src/v0.8/vendor/CBORChainlink.sol\":931:932  5 */\n      0x05\n        /* \"@chainlink/contracts/src/v0.8/vendor/CBORChainlink.sol\":922:927  major */\n      dup5\n        /* \"@chainlink/contracts/src/v0.8/vendor/CBORChainlink.sol\":922:932  major << 5 */\n      0xff\n      and\n      swap1\n      shl\n        /* \"@chainlink/contracts/src/v0.8/vendor/CBORChainlink.sol\":921:938  (major << 5) | 24 */\n      or\n        /* \"@chainlink/contracts/src/v0.8/vendor/CBORChainlink.sol\":899:902  buf */\n      dup5\n        /* \"@chainlink/contracts/src/v0.8/vendor/CBORChainlink.sol\":899:914  buf.appendUint8 */\n      tag_176\n      swap1\n        /* \"@chainlink/contracts/src/v0.8/vendor/CBORChainlink.sol\":899:940  buf.appendUint8(uint8((major << 5) | 24)) */\n      swap2\n      swap1\n      0xffffffff\n      and\n      jump\t// in\n    tag_179:\n      pop\n        /* \"@chainlink/contracts/src/v0.8/vendor/CBORChainlink.sol\":948:971  buf.appendInt(value, 1) */\n      tag_180\n        /* \"@chainlink/contracts/src/v0.8/vendor/CBORChainlink.sol\":962:967  value */\n      dup2\n        /* \"@chainlink/contracts/src/v0.8/vendor/CBORChainlink.sol\":948:971  buf.appendInt(value, 1) */\n      0xffffffffffffffff\n      and\n        /* \"@chainlink/contracts/src/v0.8/vendor/CBORChainlink.sol\":969:970  1 */\n      0x01\n        /* \"@chainlink/contracts/src/v0.8/vendor/CBORChainlink.sol\":948:951  buf */\n      dup6\n        /* \"@chainlink/contracts/src/v0.8/vendor/CBORChainlink.sol\":948:961  buf.appendInt */\n      tag_181\n      swap1\n        /* \"@chainlink/contracts/src/v0.8/vendor/CBORChainlink.sol\":948:971  buf.appendInt(value, 1) */\n      swap3\n      swap2\n      swap1\n      0xffffffff\n      and\n      jump\t// in\n    tag_180:\n      pop\n        /* \"@chainlink/contracts/src/v0.8/vendor/CBORChainlink.sol\":872:1303  if (value <= 0xFF) {... */\n      jump(tag_182)\n    tag_178:\n        /* \"@chainlink/contracts/src/v0.8/vendor/CBORChainlink.sol\":997:1003  0xFFFF */\n      0xffff\n        /* \"@chainlink/contracts/src/v0.8/vendor/CBORChainlink.sol\":988:993  value */\n      dup2\n        /* \"@chainlink/contracts/src/v0.8/vendor/CBORChainlink.sol\":988:1003  value <= 0xFFFF */\n      0xffffffffffffffff\n      and\n      gt\n        /* \"@chainlink/contracts/src/v0.8/vendor/CBORChainlink.sol\":984:1303  if (value <= 0xFFFF) {... */\n      tag_183\n      jumpi\n        /* \"@chainlink/contracts/src/v0.8/vendor/CBORChainlink.sol\":1013:1054  buf.appendUint8(uint8((major << 5) | 25)) */\n      tag_184\n        /* \"@chainlink/contracts/src/v0.8/vendor/CBORChainlink.sol\":1050:1052  25 */\n      0x19\n        /* \"@chainlink/contracts/src/v0.8/vendor/CBORChainlink.sol\":1045:1046  5 */\n      0x05\n        /* \"@chainlink/contracts/src/v0.8/vendor/CBORChainlink.sol\":1036:1041  major */\n      dup5\n        /* \"@chainlink/contracts/src/v0.8/vendor/CBORChainlink.sol\":1036:1046  major << 5 */\n      0xff\n      and\n      swap1\n      shl\n        /* \"@chainlink/contracts/src/v0.8/vendor/CBORChainlink.sol\":1035:1052  (major << 5) | 25 */\n      or\n        /* \"@chainlink/contracts/src/v0.8/vendor/CBORChainlink.sol\":1013:1016  buf */\n      dup5\n        /* \"@chainlink/contracts/src/v0.8/vendor/CBORChainlink.sol\":1013:1028  buf.appendUint8 */\n      tag_176\n      swap1\n        /* \"@chainlink/contracts/src/v0.8/vendor/CBORChainlink.sol\":1013:1054  buf.appendUint8(uint8((major << 5) | 25)) */\n      swap2\n      swap1\n      0xffffffff\n      and\n      jump\t// in\n    tag_184:\n      pop\n        /* \"@chainlink/contracts/src/v0.8/vendor/CBORChainlink.sol\":1062:1085  buf.appendInt(value, 2) */\n      tag_185\n        /* \"@chainlink/contracts/src/v0.8/vendor/CBORChainlink.sol\":1076:1081  value */\n      dup2\n        /* \"@chainlink/contracts/src/v0.8/vendor/CBORChainlink.sol\":1062:1085  buf.appendInt(value, 2) */\n      0xffffffffffffffff\n      and\n        /* \"@chainlink/contracts/src/v0.8/vendor/CBORChainlink.sol\":1083:1084  2 */\n      0x02\n        /* \"@chainlink/contracts/src/v0.8/vendor/CBORChainlink.sol\":1062:1065  buf */\n      dup6\n        /* \"@chainlink/contracts/src/v0.8/vendor/CBORChainlink.sol\":1062:1075  buf.appendInt */\n      tag_181\n      swap1\n        /* \"@chainlink/contracts/src/v0.8/vendor/CBORChainlink.sol\":1062:1085  buf.appendInt(value, 2) */\n      swap3\n      swap2\n      swap1\n      0xffffffff\n      and\n      jump\t// in\n    tag_185:\n      pop\n        /* \"@chainlink/contracts/src/v0.8/vendor/CBORChainlink.sol\":984:1303  if (value <= 0xFFFF) {... */\n      jump(tag_186)\n    tag_183:\n        /* \"@chainlink/contracts/src/v0.8/vendor/CBORChainlink.sol\":1111:1121  0xFFFFFFFF */\n      0xffffffff\n        /* \"@chainlink/contracts/src/v0.8/vendor/CBORChainlink.sol\":1102:1107  value */\n      dup2\n        /* \"@chainlink/contracts/src/v0.8/vendor/CBORChainlink.sol\":1102:1121  value <= 0xFFFFFFFF */\n      0xffffffffffffffff\n      and\n      gt\n        /* \"@chainlink/contracts/src/v0.8/vendor/CBORChainlink.sol\":1098:1303  if (value <= 0xFFFFFFFF) {... */\n      tag_187\n      jumpi\n        /* \"@chainlink/contracts/src/v0.8/vendor/CBORChainlink.sol\":1131:1172  buf.appendUint8(uint8((major << 5) | 26)) */\n      tag_188\n        /* \"@chainlink/contracts/src/v0.8/vendor/CBORChainlink.sol\":1168:1170  26 */\n      0x1a\n        /* \"@chainlink/contracts/src/v0.8/vendor/CBORChainlink.sol\":1163:1164  5 */\n      0x05\n        /* \"@chainlink/contracts/src/v0.8/vendor/CBORChainlink.sol\":1154:1159  major */\n      dup5\n        /* \"@chainlink/contracts/src/v0.8/vendor/CBORChainlink.sol\":1154:1164  major << 5 */\n      0xff\n      and\n      swap1\n      shl\n        /* \"@chainlink/contracts/src/v0.8/vendor/CBORChainlink.sol\":1153:1170  (major << 5) | 26 */\n      or\n        /* \"@chainlink/contracts/src/v0.8/vendor/CBORChainlink.sol\":1131:1134  buf */\n      dup5\n        /* \"@chainlink/contracts/src/v0.8/vendor/CBORChainlink.sol\":1131:1146  buf.appendUint8 */\n      tag_176\n      swap1\n        /* \"@chainlink/contracts/src/v0.8/vendor/CBORChainlink.sol\":1131:1172  buf.appendUint8(uint8((major << 5) | 26)) */\n      swap2\n      swap1\n      0xffffffff\n      and\n      jump\t// in\n    tag_188:\n      pop\n        /* \"@chainlink/contracts/src/v0.8/vendor/CBORChainlink.sol\":1180:1203  buf.appendInt(value, 4) */\n      tag_189\n        /* \"@chainlink/contracts/src/v0.8/vendor/CBORChainlink.sol\":1194:1199  value */\n      dup2\n        /* \"@chainlink/contracts/src/v0.8/vendor/CBORChainlink.sol\":1180:1203  buf.appendInt(value, 4) */\n      0xffffffffffffffff\n      and\n        /* \"@chainlink/contracts/src/v0.8/vendor/CBORChainlink.sol\":1201:1202  4 */\n      0x04\n        /* \"@chainlink/contracts/src/v0.8/vendor/CBORChainlink.sol\":1180:1183  buf */\n      dup6\n        /* \"@chainlink/contracts/src/v0.8/vendor/CBORChainlink.sol\":1180:1193  buf.appendInt */\n      tag_181\n      swap1\n        /* \"@chainlink/contracts/src/v0.8/vendor/CBORChainlink.sol\":1180:1203  buf.appendInt(value, 4) */\n      swap3\n      swap2\n      swap1\n      0xffffffff\n      and\n      jump\t// in\n    tag_189:\n      pop\n        /* \"@chainlink/contracts/src/v0.8/vendor/CBORChainlink.sol\":1098:1303  if (value <= 0xFFFFFFFF) {... */\n      jump(tag_190)\n    tag_187:\n        /* \"@chainlink/contracts/src/v0.8/vendor/CBORChainlink.sol\":1224:1265  buf.appendUint8(uint8((major << 5) | 27)) */\n      tag_191\n        /* \"@chainlink/contracts/src/v0.8/vendor/CBORChainlink.sol\":1261:1263  27 */\n      0x1b\n        /* \"@chainlink/contracts/src/v0.8/vendor/CBORChainlink.sol\":1256:1257  5 */\n      0x05\n        /* \"@chainlink/contracts/src/v0.8/vendor/CBORChainlink.sol\":1247:1252  major */\n      dup5\n        /* \"@chainlink/contracts/src/v0.8/vendor/CBORChainlink.sol\":1247:1257  major << 5 */\n      0xff\n      and\n      swap1\n      shl\n        /* \"@chainlink/contracts/src/v0.8/vendor/CBORChainlink.sol\":1246:1263  (major << 5) | 27 */\n      or\n        /* \"@chainlink/contracts/src/v0.8/vendor/CBORChainlink.sol\":1224:1227  buf */\n      dup5\n        /* \"@chainlink/contracts/src/v0.8/vendor/CBORChainlink.sol\":1224:1239  buf.appendUint8 */\n      tag_176\n      swap1\n        /* \"@chainlink/contracts/src/v0.8/vendor/CBORChainlink.sol\":1224:1265  buf.appendUint8(uint8((major << 5) | 27)) */\n      swap2\n      swap1\n      0xffffffff\n      and\n      jump\t// in\n    tag_191:\n      pop\n        /* \"@chainlink/contracts/src/v0.8/vendor/CBORChainlink.sol\":1273:1296  buf.appendInt(value, 8) */\n      tag_192\n        /* \"@chainlink/contracts/src/v0.8/vendor/CBORChainlink.sol\":1287:1292  value */\n      dup2\n        /* \"@chainlink/contracts/src/v0.8/vendor/CBORChainlink.sol\":1273:1296  buf.appendInt(value, 8) */\n      0xffffffffffffffff\n      and\n        /* \"@chainlink/contracts/src/v0.8/vendor/CBORChainlink.sol\":1294:1295  8 */\n      0x08\n        /* \"@chainlink/contracts/src/v0.8/vendor/CBORChainlink.sol\":1273:1276  buf */\n      dup6\n        /* \"@chainlink/contracts/src/v0.8/vendor/CBORChainlink.sol\":1273:1286  buf.appendInt */\n      tag_181\n      swap1\n        /* \"@chainlink/contracts/src/v0.8/vendor/CBORChainlink.sol\":1273:1296  buf.appendInt(value, 8) */\n      swap3\n      swap2\n      swap1\n      0xffffffff\n      and\n      jump\t// in\n    tag_192:\n      pop\n        /* \"@chainlink/contracts/src/v0.8/vendor/CBORChainlink.sol\":1098:1303  if (value <= 0xFFFFFFFF) {... */\n    tag_190:\n        /* \"@chainlink/contracts/src/v0.8/vendor/CBORChainlink.sol\":984:1303  if (value <= 0xFFFF) {... */\n    tag_186:\n        /* \"@chainlink/contracts/src/v0.8/vendor/CBORChainlink.sol\":872:1303  if (value <= 0xFF) {... */\n    tag_182:\n        /* \"@chainlink/contracts/src/v0.8/vendor/CBORChainlink.sol\":791:1303  if(value <= 23) {... */\n    tag_177:\n        /* \"@chainlink/contracts/src/v0.8/vendor/CBORChainlink.sol\":682:1307  function encodeFixedNumeric(BufferChainlink.buffer memory buf, uint8 major, uint64 value) private pure {... */\n      pop\n      pop\n      pop\n      jump\t// out\n        /* \"@chainlink/contracts/src/v0.8/vendor/BufferChainlink.sol\":4692:4847  function append(buffer memory buf, bytes memory data) internal pure returns (buffer memory) {... */\n    tag_140:\n        /* \"@chainlink/contracts/src/v0.8/vendor/BufferChainlink.sol\":4769:4782  buffer memory */\n      tag_193\n      tag_164\n      jump\t// in\n    tag_193:\n        /* \"@chainlink/contracts/src/v0.8/vendor/BufferChainlink.sol\":4797:4842  write(buf, buf.buf.length, data, data.length) */\n      tag_195\n        /* \"@chainlink/contracts/src/v0.8/vendor/BufferChainlink.sol\":4803:4806  buf */\n      dup4\n        /* \"@chainlink/contracts/src/v0.8/vendor/BufferChainlink.sol\":4808:4811  buf */\n      dup5\n        /* \"@chainlink/contracts/src/v0.8/vendor/BufferChainlink.sol\":4808:4815  buf.buf */\n      0x00\n      add\n      mload\n        /* \"@chainlink/contracts/src/v0.8/vendor/BufferChainlink.sol\":4808:4822  buf.buf.length */\n      mload\n        /* \"@chainlink/contracts/src/v0.8/vendor/BufferChainlink.sol\":4824:4828  data */\n      dup5\n        /* \"@chainlink/contracts/src/v0.8/vendor/BufferChainlink.sol\":4830:4834  data */\n      dup6\n        /* \"@chainlink/contracts/src/v0.8/vendor/BufferChainlink.sol\":4830:4841  data.length */\n      mload\n        /* \"@chainlink/contracts/src/v0.8/vendor/BufferChainlink.sol\":4797:4802  write */\n      tag_196\n        /* \"@chainlink/contracts/src/v0.8/vendor/BufferChainlink.sol\":4797:4842  write(buf, buf.buf.length, data, data.length) */\n      jump\t// in\n    tag_195:\n        /* \"@chainlink/contracts/src/v0.8/vendor/BufferChainlink.sol\":4790:4842  return write(buf, buf.buf.length, data, data.length) */\n      swap1\n      pop\n        /* \"@chainlink/contracts/src/v0.8/vendor/BufferChainlink.sol\":4692:4847  function append(buffer memory buf, bytes memory data) internal pure returns (buffer memory) {... */\n      swap3\n      swap2\n      pop\n      pop\n      jump\t// out\n        /* \"@chainlink/contracts/src/v0.8/vendor/CBORChainlink.sol\":2547:2773  function encodeSignedBigNum(BufferChainlink.buffer memory buf, int input) internal pure {... */\n    tag_144:\n        /* \"@chainlink/contracts/src/v0.8/vendor/CBORChainlink.sol\":2641:2713  buf.appendUint8(uint8((MAJOR_TYPE_TAG << 5) | TAG_TYPE_NEGATIVE_BIGNUM)) */\n      tag_198\n        /* \"@chainlink/contracts/src/v0.8/vendor/CBORChainlink.sol\":676:677  3 */\n      0x03\n        /* \"@chainlink/contracts/src/v0.8/vendor/CBORChainlink.sol\":2682:2683  5 */\n      0x05\n        /* \"@chainlink/contracts/src/v0.8/vendor/CBORChainlink.sol\":520:521  6 */\n      0x06\n        /* \"@chainlink/contracts/src/v0.8/vendor/CBORChainlink.sol\":2664:2683  MAJOR_TYPE_TAG << 5 */\n      0xff\n      and\n      swap1\n      shl\n        /* \"@chainlink/contracts/src/v0.8/vendor/CBORChainlink.sol\":2663:2711  (MAJOR_TYPE_TAG << 5) | TAG_TYPE_NEGATIVE_BIGNUM */\n      or\n        /* \"@chainlink/contracts/src/v0.8/vendor/CBORChainlink.sol\":2641:2644  buf */\n      dup4\n        /* \"@chainlink/contracts/src/v0.8/vendor/CBORChainlink.sol\":2641:2656  buf.appendUint8 */\n      tag_176\n      swap1\n        /* \"@chainlink/contracts/src/v0.8/vendor/CBORChainlink.sol\":2641:2713  buf.appendUint8(uint8((MAJOR_TYPE_TAG << 5) | TAG_TYPE_NEGATIVE_BIGNUM)) */\n      swap2\n      swap1\n      0xffffffff\n      and\n      jump\t// in\n    tag_198:\n      pop\n        /* \"@chainlink/contracts/src/v0.8/vendor/CBORChainlink.sol\":2719:2768  encodeBytes(buf, abi.encode(uint256(-1 - input))) */\n      tag_199\n        /* \"@chainlink/contracts/src/v0.8/vendor/CBORChainlink.sol\":2731:2734  buf */\n      dup3\n        /* \"@chainlink/contracts/src/v0.8/vendor/CBORChainlink.sol\":2760:2765  input */\n      dup3\n        /* \"@chainlink/contracts/src/v0.8/vendor/CBORChainlink.sol\":2755:2757  -1 */\n      0xffffffffffffffffffffffffffffffffffffffffffffffffffffffffffffffff\n        /* \"@chainlink/contracts/src/v0.8/vendor/CBORChainlink.sol\":2755:2765  -1 - input */\n      tag_200\n      swap2\n      swap1\n      tag_155\n      jump\t// in\n    tag_200:\n        /* \"@chainlink/contracts/src/v0.8/vendor/CBORChainlink.sol\":2736:2767  abi.encode(uint256(-1 - input)) */\n      add(0x20, mload(0x40))\n      tag_201\n      swap2\n      swap1\n      tag_31\n      jump\t// in\n    tag_201:\n      mload(0x40)\n      0x20\n      dup2\n      dup4\n      sub\n      sub\n      dup2\n      mstore\n      swap1\n      0x40\n      mstore\n        /* \"@chainlink/contracts/src/v0.8/vendor/CBORChainlink.sol\":2719:2730  encodeBytes */\n      tag_202\n        /* \"@chainlink/contracts/src/v0.8/vendor/CBORChainlink.sol\":2719:2768  encodeBytes(buf, abi.encode(uint256(-1 - input))) */\n      jump\t// in\n    tag_199:\n        /* \"@chainlink/contracts/src/v0.8/vendor/CBORChainlink.sol\":2547:2773  function encodeSignedBigNum(BufferChainlink.buffer memory buf, int input) internal pure {... */\n      pop\n      pop\n      jump\t// out\n        /* \"@chainlink/contracts/src/v0.8/vendor/CBORChainlink.sol\":2345:2543  function encodeBigNum(BufferChainlink.buffer memory buf, uint value) internal pure {... */\n    tag_148:\n        /* \"@chainlink/contracts/src/v0.8/vendor/CBORChainlink.sol\":2434:2497  buf.appendUint8(uint8((MAJOR_TYPE_TAG << 5) | TAG_TYPE_BIGNUM)) */\n      tag_204\n        /* \"@chainlink/contracts/src/v0.8/vendor/CBORChainlink.sol\":621:622  2 */\n      0x02\n        /* \"@chainlink/contracts/src/v0.8/vendor/CBORChainlink.sol\":2475:2476  5 */\n      0x05\n        /* \"@chainlink/contracts/src/v0.8/vendor/CBORChainlink.sol\":520:521  6 */\n      0x06\n        /* \"@chainlink/contracts/src/v0.8/vendor/CBORChainlink.sol\":2457:2476  MAJOR_TYPE_TAG << 5 */\n      0xff\n      and\n      swap1\n      shl\n        /* \"@chainlink/contracts/src/v0.8/vendor/CBORChainlink.sol\":2456:2495  (MAJOR_TYPE_TAG << 5) | TAG_TYPE_BIGNUM */\n      or\n        /* \"@chainlink/contracts/src/v0.8/vendor/CBORChainlink.sol\":2434:2437  buf */\n      dup4\n        /* \"@chainlink/contracts/src/v0.8/vendor/CBORChainlink.sol\":2434:2449  buf.appendUint8 */\n      tag_176\n      swap1\n        /* \"@chainlink/contracts/src/v0.8/vendor/CBORChainlink.sol\":2434:2497  buf.appendUint8(uint8((MAJOR_TYPE_TAG << 5) | TAG_TYPE_BIGNUM)) */\n      swap2\n      swap1\n      0xffffffff\n      and\n      jump\t// in\n    tag_204:\n      pop\n        /* \"@chainlink/contracts/src/v0.8/vendor/CBORChainlink.sol\":2503:2538  encodeBytes(buf, abi.encode(value)) */\n      tag_205\n        /* \"@chainlink/contracts/src/v0.8/vendor/CBORChainlink.sol\":2515:2518  buf */\n      dup3\n        /* \"@chainlink/contracts/src/v0.8/vendor/CBORChainlink.sol\":2531:2536  value */\n      dup3\n        /* \"@chainlink/contracts/src/v0.8/vendor/CBORChainlink.sol\":2520:2537  abi.encode(value) */\n      add(0x20, mload(0x40))\n      tag_206\n      swap2\n      swap1\n      tag_31\n      jump\t// in\n    tag_206:\n      mload(0x40)\n      0x20\n      dup2\n      dup4\n      sub\n      sub\n      dup2\n      mstore\n      swap1\n      0x40\n      mstore\n        /* \"@chainlink/contracts/src/v0.8/vendor/CBORChainlink.sol\":2503:2514  encodeBytes */\n      tag_202\n        /* \"@chainlink/contracts/src/v0.8/vendor/CBORChainlink.sol\":2503:2538  encodeBytes(buf, abi.encode(value)) */\n      jump\t// in\n    tag_205:\n        /* \"@chainlink/contracts/src/v0.8/vendor/CBORChainlink.sol\":2345:2543  function encodeBigNum(BufferChainlink.buffer memory buf, uint value) internal pure {... */\n      pop\n      pop\n      jump\t// out\n        /* \"@chainlink/contracts/src/v0.8/ChainlinkClient.sol\":6629:7059  function _rawRequest(... */\n    tag_162:\n        /* \"@chainlink/contracts/src/v0.8/ChainlinkClient.sol\":6771:6788  bytes32 requestId */\n      0x00\n        /* \"@chainlink/contracts/src/v0.8/ChainlinkClient.sol\":6835:6839  this */\n      address\n        /* \"@chainlink/contracts/src/v0.8/ChainlinkClient.sol\":6841:6846  nonce */\n      dup5\n        /* \"@chainlink/contracts/src/v0.8/ChainlinkClient.sol\":6818:6847  abi.encodePacked(this, nonce) */\n      add(0x20, mload(0x40))\n      tag_208\n      swap3\n      swap2\n      swap1\n      tag_209\n      jump\t// in\n    tag_208:\n      mload(0x40)\n      0x20\n      dup2\n      dup4\n      sub\n      sub\n      dup2\n      mstore\n      swap1\n      0x40\n      mstore\n        /* \"@chainlink/contracts/src/v0.8/ChainlinkClient.sol\":6808:6848  keccak256(abi.encodePacked(this, nonce)) */\n      dup1\n      mload\n      swap1\n      0x20\n      add\n      keccak256\n        /* \"@chainlink/contracts/src/v0.8/ChainlinkClient.sol\":6796:6848  requestId = keccak256(abi.encodePacked(this, nonce)) */\n      swap1\n      pop\n        /* \"@chainlink/contracts/src/v0.8/ChainlinkClient.sol\":6885:6898  oracleAddress */\n      dup5\n        /* \"@chainlink/contracts/src/v0.8/ChainlinkClient.sol\":6854:6871  s_pendingRequests */\n      0x05\n        /* \"@chainlink/contracts/src/v0.8/ChainlinkClient.sol\":6854:6882  s_pendingRequests[requestId] */\n      0x00\n        /* \"@chainlink/contracts/src/v0.8/ChainlinkClient.sol\":6872:6881  requestId */\n      dup4\n        /* \"@chainlink/contracts/src/v0.8/ChainlinkClient.sol\":6854:6882  s_pendingRequests[requestId] */\n      dup2\n      mstore\n      0x20\n      add\n      swap1\n      dup2\n      mstore\n      0x20\n      add\n      0x00\n      keccak256\n      0x00\n        /* \"@chainlink/contracts/src/v0.8/ChainlinkClient.sol\":6854:6898  s_pendingRequests[requestId] = oracleAddress */\n      0x0100\n      exp\n      dup2\n      sload\n      dup2\n      0xffffffffffffffffffffffffffffffffffffffff\n      mul\n      not\n      and\n      swap1\n      dup4\n      0xffffffffffffffffffffffffffffffffffffffff\n      and\n      mul\n      or\n      swap1\n      sstore\n      pop\n        /* \"@chainlink/contracts/src/v0.8/ChainlinkClient.sol\":6928:6937  requestId */\n      dup1\n        /* \"@chainlink/contracts/src/v0.8/ChainlinkClient.sol\":6909:6938  ChainlinkRequested(requestId) */\n      0xb5e6e01e79f91267dc17b4e6314d5d4d03593d2ceee0fbb452b750bd70ea5af9\n      mload(0x40)\n      mload(0x40)\n      dup1\n      swap2\n      sub\n      swap1\n      log2\n        /* \"@chainlink/contracts/src/v0.8/ChainlinkClient.sol\":6952:6958  s_link */\n      0x02\n      0x00\n      swap1\n      sload\n      swap1\n      0x0100\n      exp\n      swap1\n      div\n      0xffffffffffffffffffffffffffffffffffffffff\n      and\n        /* \"@chainlink/contracts/src/v0.8/ChainlinkClient.sol\":6952:6974  s_link.transferAndCall */\n      0xffffffffffffffffffffffffffffffffffffffff\n      and\n      0x4000aea0\n        /* \"@chainlink/contracts/src/v0.8/ChainlinkClient.sol\":6975:6988  oracleAddress */\n      dup7\n        /* \"@chainlink/contracts/src/v0.8/ChainlinkClient.sol\":6990:6997  payment */\n      dup6\n        /* \"@chainlink/contracts/src/v0.8/ChainlinkClient.sol\":6999:7013  encodedRequest */\n      dup6\n        /* \"@chainlink/contracts/src/v0.8/ChainlinkClient.sol\":6952:7014  s_link.transferAndCall(oracleAddress, payment, encodedRequest) */\n      mload(0x40)\n      dup5\n      0xffffffff\n      and\n      0xe0\n      shl\n      dup2\n      mstore\n      0x04\n      add\n      tag_210\n      swap4\n      swap3\n      swap2\n      swap1\n      tag_211\n      jump\t// in\n    tag_210:\n      0x20\n      mload(0x40)\n      dup1\n      dup4\n      sub\n      dup2\n      0x00\n      dup8\n      gas\n      call\n      iszero\n      dup1\n      iszero\n      tag_213\n      jumpi\n      returndatasize\n      0x00\n      dup1\n      returndatacopy\n      revert(0x00, returndatasize)\n    tag_213:\n      pop\n      pop\n      pop\n      pop\n      mload(0x40)\n      returndatasize\n      not(0x1f)\n      0x1f\n      dup3\n      add\n      and\n      dup3\n      add\n      dup1\n      0x40\n      mstore\n      pop\n      dup2\n      add\n      swap1\n      tag_214\n      swap2\n      swap1\n      tag_65\n      jump\t// in\n    tag_214:\n        /* \"@chainlink/contracts/src/v0.8/ChainlinkClient.sol\":6944:7054  require(s_link.transferAndCall(oracleAddress, payment, encodedRequest), \"unable to transferAndCall to oracle\") */\n      tag_215\n      jumpi\n      mload(0x40)\n      0x08c379a000000000000000000000000000000000000000000000000000000000\n      dup2\n      mstore\n      0x04\n      add\n      tag_216\n      swap1\n      tag_217\n      jump\t// in\n    tag_216:\n      mload(0x40)\n      dup1\n      swap2\n      sub\n      swap1\n      revert\n    tag_215:\n        /* \"@chainlink/contracts/src/v0.8/ChainlinkClient.sol\":6629:7059  function _rawRequest(... */\n      swap5\n      swap4\n      pop\n      pop\n      pop\n      pop\n      jump\t// out\n        /* \"@chainlink/contracts/src/v0.8/vendor/BufferChainlink.sol\":6040:6185  function appendUint8(buffer memory buf, uint8 data) internal pure returns (buffer memory) {... */\n    tag_176:\n        /* \"@chainlink/contracts/src/v0.8/vendor/BufferChainlink.sol\":6115:6128  buffer memory */\n      tag_218\n      tag_164\n      jump\t// in\n    tag_218:\n        /* \"@chainlink/contracts/src/v0.8/vendor/BufferChainlink.sol\":6143:6180  writeUint8(buf, buf.buf.length, data) */\n      tag_220\n        /* \"@chainlink/contracts/src/v0.8/vendor/BufferChainlink.sol\":6154:6157  buf */\n      dup4\n        /* \"@chainlink/contracts/src/v0.8/vendor/BufferChainlink.sol\":6159:6162  buf */\n      dup5\n        /* \"@chainlink/contracts/src/v0.8/vendor/BufferChainlink.sol\":6159:6166  buf.buf */\n      0x00\n      add\n      mload\n        /* \"@chainlink/contracts/src/v0.8/vendor/BufferChainlink.sol\":6159:6173  buf.buf.length */\n      mload\n        /* \"@chainlink/contracts/src/v0.8/vendor/BufferChainlink.sol\":6175:6179  data */\n      dup5\n        /* \"@chainlink/contracts/src/v0.8/vendor/BufferChainlink.sol\":6143:6153  writeUint8 */\n      tag_221\n        /* \"@chainlink/contracts/src/v0.8/vendor/BufferChainlink.sol\":6143:6180  writeUint8(buf, buf.buf.length, data) */\n      jump\t// in\n    tag_220:\n        /* \"@chainlink/contracts/src/v0.8/vendor/BufferChainlink.sol\":6136:6180  return writeUint8(buf, buf.buf.length, data) */\n      swap1\n      pop\n        /* \"@chainlink/contracts/src/v0.8/vendor/BufferChainlink.sol\":6040:6185  function appendUint8(buffer memory buf, uint8 data) internal pure returns (buffer memory) {... */\n      swap3\n      swap2\n      pop\n      pop\n      jump\t// out\n        /* \"@chainlink/contracts/src/v0.8/vendor/BufferChainlink.sol\":9894:10071  function appendInt(... */\n    tag_181:\n        /* \"@chainlink/contracts/src/v0.8/vendor/BufferChainlink.sol\":9998:10011  buffer memory */\n      tag_222\n      tag_164\n      jump\t// in\n    tag_222:\n        /* \"@chainlink/contracts/src/v0.8/vendor/BufferChainlink.sol\":10026:10066  writeInt(buf, buf.buf.length, data, len) */\n      tag_224\n        /* \"@chainlink/contracts/src/v0.8/vendor/BufferChainlink.sol\":10035:10038  buf */\n      dup5\n        /* \"@chainlink/contracts/src/v0.8/vendor/BufferChainlink.sol\":10040:10043  buf */\n      dup6\n        /* \"@chainlink/contracts/src/v0.8/vendor/BufferChainlink.sol\":10040:10047  buf.buf */\n      0x00\n      add\n      mload\n        /* \"@chainlink/contracts/src/v0.8/vendor/BufferChainlink.sol\":10040:10054  buf.buf.length */\n      mload\n        /* \"@chainlink/contracts/src/v0.8/vendor/BufferChainlink.sol\":10056:10060  data */\n      dup6\n        /* \"@chainlink/contracts/src/v0.8/vendor/BufferChainlink.sol\":10062:10065  len */\n      dup6\n        /* \"@chainlink/contracts/src/v0.8/vendor/BufferChainlink.sol\":10026:10034  writeInt */\n      tag_225\n        /* \"@chainlink/contracts/src/v0.8/vendor/BufferChainlink.sol\":10026:10066  writeInt(buf, buf.buf.length, data, len) */\n      jump\t// in\n    tag_224:\n        /* \"@chainlink/contracts/src/v0.8/vendor/BufferChainlink.sol\":10019:10066  return writeInt(buf, buf.buf.length, data, len) */\n      swap1\n      pop\n        /* \"@chainlink/contracts/src/v0.8/vendor/BufferChainlink.sol\":9894:10071  function appendInt(... */\n      swap4\n      swap3\n      pop\n      pop\n      pop\n      jump\t// out\n        /* \"@chainlink/contracts/src/v0.8/vendor/BufferChainlink.sol\":2745:3955  function write(... */\n    tag_196:\n        /* \"@chainlink/contracts/src/v0.8/vendor/BufferChainlink.sol\":2867:2880  buffer memory */\n      tag_226\n      tag_164\n      jump\t// in\n    tag_226:\n        /* \"@chainlink/contracts/src/v0.8/vendor/BufferChainlink.sol\":2903:2907  data */\n      dup3\n        /* \"@chainlink/contracts/src/v0.8/vendor/BufferChainlink.sol\":2903:2914  data.length */\n      mload\n        /* \"@chainlink/contracts/src/v0.8/vendor/BufferChainlink.sol\":2896:2899  len */\n      dup3\n        /* \"@chainlink/contracts/src/v0.8/vendor/BufferChainlink.sol\":2896:2914  len <= data.length */\n      gt\n      iszero\n        /* \"@chainlink/contracts/src/v0.8/vendor/BufferChainlink.sol\":2888:2915  require(len <= data.length) */\n      tag_228\n      jumpi\n      0x00\n      dup1\n      revert\n    tag_228:\n        /* \"@chainlink/contracts/src/v0.8/vendor/BufferChainlink.sol\":2938:2941  buf */\n      dup5\n        /* \"@chainlink/contracts/src/v0.8/vendor/BufferChainlink.sol\":2938:2950  buf.capacity */\n      0x20\n      add\n      mload\n        /* \"@chainlink/contracts/src/v0.8/vendor/BufferChainlink.sol\":2932:2935  len */\n      dup3\n        /* \"@chainlink/contracts/src/v0.8/vendor/BufferChainlink.sol\":2926:2929  off */\n      dup6\n        /* \"@chainlink/contracts/src/v0.8/vendor/BufferChainlink.sol\":2926:2935  off + len */\n      tag_229\n      swap2\n      swap1\n      tag_158\n      jump\t// in\n    tag_229:\n        /* \"@chainlink/contracts/src/v0.8/vendor/BufferChainlink.sol\":2926:2950  off + len > buf.capacity */\n      gt\n        /* \"@chainlink/contracts/src/v0.8/vendor/BufferChainlink.sol\":2922:3012  if (off + len > buf.capacity) {... */\n      iszero\n      tag_230\n      jumpi\n        /* \"@chainlink/contracts/src/v0.8/vendor/BufferChainlink.sol\":2960:3005  resize(buf, max(buf.capacity, len + off) * 2) */\n      tag_231\n        /* \"@chainlink/contracts/src/v0.8/vendor/BufferChainlink.sol\":2967:2970  buf */\n      dup6\n        /* \"@chainlink/contracts/src/v0.8/vendor/BufferChainlink.sol\":3003:3004  2 */\n      0x02\n        /* \"@chainlink/contracts/src/v0.8/vendor/BufferChainlink.sol\":2972:3000  max(buf.capacity, len + off) */\n      tag_232\n        /* \"@chainlink/contracts/src/v0.8/vendor/BufferChainlink.sol\":2976:2979  buf */\n      dup9\n        /* \"@chainlink/contracts/src/v0.8/vendor/BufferChainlink.sol\":2976:2988  buf.capacity */\n      0x20\n      add\n      mload\n        /* \"@chainlink/contracts/src/v0.8/vendor/BufferChainlink.sol\":2996:2999  off */\n      dup9\n        /* \"@chainlink/contracts/src/v0.8/vendor/BufferChainlink.sol\":2990:2993  len */\n      dup8\n        /* \"@chainlink/contracts/src/v0.8/vendor/BufferChainlink.sol\":2990:2999  len + off */\n      tag_233\n      swap2\n      swap1\n      tag_158\n      jump\t// in\n    tag_233:\n        /* \"@chainlink/contracts/src/v0.8/vendor/BufferChainlink.sol\":2972:2975  max */\n      tag_234\n        /* \"@chainlink/contracts/src/v0.8/vendor/BufferChainlink.sol\":2972:3000  max(buf.capacity, len + off) */\n      jump\t// in\n    tag_232:\n        /* \"@chainlink/contracts/src/v0.8/vendor/BufferChainlink.sol\":2972:3004  max(buf.capacity, len + off) * 2 */\n      tag_235\n      swap2\n      swap1\n      tag_86\n      jump\t// in\n    tag_235:\n        /* \"@chainlink/contracts/src/v0.8/vendor/BufferChainlink.sol\":2960:2966  resize */\n      tag_236\n        /* \"@chainlink/contracts/src/v0.8/vendor/BufferChainlink.sol\":2960:3005  resize(buf, max(buf.capacity, len + off) * 2) */\n      jump\t// in\n    tag_231:\n        /* \"@chainlink/contracts/src/v0.8/vendor/BufferChainlink.sol\":2922:3012  if (off + len > buf.capacity) {... */\n    tag_230:\n        /* \"@chainlink/contracts/src/v0.8/vendor/BufferChainlink.sol\":3018:3030  uint256 dest */\n      0x00\n        /* \"@chainlink/contracts/src/v0.8/vendor/BufferChainlink.sol\":3036:3047  uint256 src */\n      dup1\n        /* \"@chainlink/contracts/src/v0.8/vendor/BufferChainlink.sol\":3133:3136  buf */\n      dup7\n        /* \"@chainlink/contracts/src/v0.8/vendor/BufferChainlink.sol\":3127:3137  mload(buf) */\n      mload\n        /* \"@chainlink/contracts/src/v0.8/vendor/BufferChainlink.sol\":3204:3210  bufptr */\n      dup1\n        /* \"@chainlink/contracts/src/v0.8/vendor/BufferChainlink.sol\":3198:3211  mload(bufptr) */\n      mload\n        /* \"@chainlink/contracts/src/v0.8/vendor/BufferChainlink.sol\":3320:3323  off */\n      dup8\n        /* \"@chainlink/contracts/src/v0.8/vendor/BufferChainlink.sol\":3315:3317  32 */\n      0x20\n        /* \"@chainlink/contracts/src/v0.8/vendor/BufferChainlink.sol\":3307:3313  bufptr */\n      dup4\n        /* \"@chainlink/contracts/src/v0.8/vendor/BufferChainlink.sol\":3303:3318  add(bufptr, 32) */\n      add\n        /* \"@chainlink/contracts/src/v0.8/vendor/BufferChainlink.sol\":3299:3324  add(add(bufptr, 32), off) */\n      add\n        /* \"@chainlink/contracts/src/v0.8/vendor/BufferChainlink.sol\":3291:3324  dest := add(add(bufptr, 32), off) */\n      swap4\n      pop\n        /* \"@chainlink/contracts/src/v0.8/vendor/BufferChainlink.sol\":3404:3410  buflen */\n      dup1\n        /* \"@chainlink/contracts/src/v0.8/vendor/BufferChainlink.sol\":3398:3401  off */\n      dup9\n        /* \"@chainlink/contracts/src/v0.8/vendor/BufferChainlink.sol\":3393:3396  len */\n      dup8\n        /* \"@chainlink/contracts/src/v0.8/vendor/BufferChainlink.sol\":3389:3402  add(len, off) */\n      add\n        /* \"@chainlink/contracts/src/v0.8/vendor/BufferChainlink.sol\":3386:3411  gt(add(len, off), buflen) */\n      gt\n        /* \"@chainlink/contracts/src/v0.8/vendor/BufferChainlink.sol\":3383:3459  if gt(add(len, off), buflen) {... */\n      iszero\n      tag_237\n      jumpi\n        /* \"@chainlink/contracts/src/v0.8/vendor/BufferChainlink.sol\":3446:3449  off */\n      dup8\n        /* \"@chainlink/contracts/src/v0.8/vendor/BufferChainlink.sol\":3441:3444  len */\n      dup7\n        /* \"@chainlink/contracts/src/v0.8/vendor/BufferChainlink.sol\":3437:3450  add(len, off) */\n      add\n        /* \"@chainlink/contracts/src/v0.8/vendor/BufferChainlink.sol\":3429:3435  bufptr */\n      dup3\n        /* \"@chainlink/contracts/src/v0.8/vendor/BufferChainlink.sol\":3422:3451  mstore(bufptr, add(len, off)) */\n      mstore\n        /* \"@chainlink/contracts/src/v0.8/vendor/BufferChainlink.sol\":3383:3459  if gt(add(len, off), buflen) {... */\n    tag_237:\n        /* \"@chainlink/contracts/src/v0.8/vendor/BufferChainlink.sol\":3483:3485  32 */\n      0x20\n        /* \"@chainlink/contracts/src/v0.8/vendor/BufferChainlink.sol\":3477:3481  data */\n      dup8\n        /* \"@chainlink/contracts/src/v0.8/vendor/BufferChainlink.sol\":3473:3486  add(data, 32) */\n      add\n        /* \"@chainlink/contracts/src/v0.8/vendor/BufferChainlink.sol\":3466:3486  src := add(data, 32) */\n      swap3\n      pop\n        /* \"@chainlink/contracts/src/v0.8/vendor/BufferChainlink.sol\":3062:3492  {... */\n      pop\n      pop\n        /* \"@chainlink/contracts/src/v0.8/vendor/BufferChainlink.sol\":3544:3673  for (; len >= 32; len -= 32) {... */\n    tag_238:\n        /* \"@chainlink/contracts/src/v0.8/vendor/BufferChainlink.sol\":3558:3560  32 */\n      0x20\n        /* \"@chainlink/contracts/src/v0.8/vendor/BufferChainlink.sol\":3551:3554  len */\n      dup5\n        /* \"@chainlink/contracts/src/v0.8/vendor/BufferChainlink.sol\":3551:3560  len >= 32 */\n      lt\n        /* \"@chainlink/contracts/src/v0.8/vendor/BufferChainlink.sol\":3544:3673  for (; len >= 32; len -= 32) {... */\n      tag_239\n      jumpi\n        /* \"@chainlink/contracts/src/v0.8/vendor/BufferChainlink.sol\":3619:3622  src */\n      dup1\n        /* \"@chainlink/contracts/src/v0.8/vendor/BufferChainlink.sol\":3613:3623  mload(src) */\n      mload\n        /* \"@chainlink/contracts/src/v0.8/vendor/BufferChainlink.sol\":3607:3611  dest */\n      dup3\n        /* \"@chainlink/contracts/src/v0.8/vendor/BufferChainlink.sol\":3600:3624  mstore(dest, mload(src)) */\n      mstore\n        /* \"@chainlink/contracts/src/v0.8/vendor/BufferChainlink.sol\":3647:3649  32 */\n      0x20\n        /* \"@chainlink/contracts/src/v0.8/vendor/BufferChainlink.sol\":3639:3649  dest += 32 */\n      dup3\n      tag_241\n      swap2\n      swap1\n      tag_158\n      jump\t// in\n    tag_241:\n      swap2\n      pop\n        /* \"@chainlink/contracts/src/v0.8/vendor/BufferChainlink.sol\":3664:3666  32 */\n      0x20\n        /* \"@chainlink/contracts/src/v0.8/vendor/BufferChainlink.sol\":3657:3666  src += 32 */\n      dup2\n      tag_242\n      swap2\n      swap1\n      tag_158\n      jump\t// in\n    tag_242:\n      swap1\n      pop\n        /* \"@chainlink/contracts/src/v0.8/vendor/BufferChainlink.sol\":3569:3571  32 */\n      0x20\n        /* \"@chainlink/contracts/src/v0.8/vendor/BufferChainlink.sol\":3562:3571  len -= 32 */\n      dup5\n      tag_243\n      swap2\n      swap1\n      tag_171\n      jump\t// in\n    tag_243:\n      swap4\n      pop\n        /* \"@chainlink/contracts/src/v0.8/vendor/BufferChainlink.sol\":3544:3673  for (; len >= 32; len -= 32) {... */\n      jump(tag_238)\n    tag_239:\n        /* \"@chainlink/contracts/src/v0.8/vendor/BufferChainlink.sol\":3725:3737  uint256 mask */\n      0x00\n        /* \"@chainlink/contracts/src/v0.8/vendor/BufferChainlink.sol\":3760:3761  1 */\n      0x01\n        /* \"@chainlink/contracts/src/v0.8/vendor/BufferChainlink.sol\":3752:3755  len */\n      dup6\n        /* \"@chainlink/contracts/src/v0.8/vendor/BufferChainlink.sol\":3747:3749  32 */\n      0x20\n        /* \"@chainlink/contracts/src/v0.8/vendor/BufferChainlink.sol\":3747:3755  32 - len */\n      sub\n        /* \"@chainlink/contracts/src/v0.8/vendor/BufferChainlink.sol\":3741:3744  256 */\n      0x0100\n        /* \"@chainlink/contracts/src/v0.8/vendor/BufferChainlink.sol\":3741:3756  256**(32 - len) */\n      exp\n        /* \"@chainlink/contracts/src/v0.8/vendor/BufferChainlink.sol\":3740:3761  (256**(32 - len)) - 1 */\n      sub\n        /* \"@chainlink/contracts/src/v0.8/vendor/BufferChainlink.sol\":3725:3761  uint256 mask = (256**(32 - len)) - 1 */\n      swap1\n      pop\n        /* \"@chainlink/contracts/src/v0.8/vendor/BufferChainlink.sol\":3823:3827  mask */\n      dup1\n        /* \"@chainlink/contracts/src/v0.8/vendor/BufferChainlink.sol\":3819:3828  not(mask) */\n      not\n        /* \"@chainlink/contracts/src/v0.8/vendor/BufferChainlink.sol\":3813:3816  src */\n      dup3\n        /* \"@chainlink/contracts/src/v0.8/vendor/BufferChainlink.sol\":3807:3817  mload(src) */\n      mload\n        /* \"@chainlink/contracts/src/v0.8/vendor/BufferChainlink.sol\":3803:3829  and(mload(src), not(mask)) */\n      and\n        /* \"@chainlink/contracts/src/v0.8/vendor/BufferChainlink.sol\":3871:3875  mask */\n      dup2\n        /* \"@chainlink/contracts/src/v0.8/vendor/BufferChainlink.sol\":3864:3868  dest */\n      dup5\n        /* \"@chainlink/contracts/src/v0.8/vendor/BufferChainlink.sol\":3858:3869  mload(dest) */\n      mload\n        /* \"@chainlink/contracts/src/v0.8/vendor/BufferChainlink.sol\":3854:3876  and(mload(dest), mask) */\n      and\n        /* \"@chainlink/contracts/src/v0.8/vendor/BufferChainlink.sol\":3911:3918  srcpart */\n      dup2\n        /* \"@chainlink/contracts/src/v0.8/vendor/BufferChainlink.sol\":3901:3909  destpart */\n      dup2\n        /* \"@chainlink/contracts/src/v0.8/vendor/BufferChainlink.sol\":3898:3919  or(destpart, srcpart) */\n      or\n        /* \"@chainlink/contracts/src/v0.8/vendor/BufferChainlink.sol\":3892:3896  dest */\n      dup6\n        /* \"@chainlink/contracts/src/v0.8/vendor/BufferChainlink.sol\":3885:3920  mstore(dest, or(destpart, srcpart)) */\n      mstore\n        /* \"@chainlink/contracts/src/v0.8/vendor/BufferChainlink.sol\":3778:3928  {... */\n      pop\n      pop\n      pop\n        /* \"@chainlink/contracts/src/v0.8/vendor/BufferChainlink.sol\":3947:3950  buf */\n      dup7\n        /* \"@chainlink/contracts/src/v0.8/vendor/BufferChainlink.sol\":3940:3950  return buf */\n      swap3\n      pop\n      pop\n      pop\n        /* \"@chainlink/contracts/src/v0.8/vendor/BufferChainlink.sol\":2745:3955  function write(... */\n      swap5\n      swap4\n      pop\n      pop\n      pop\n      pop\n      jump\t// out\n        /* \"@chainlink/contracts/src/v0.8/vendor/CBORChainlink.sol\":2154:2341  function encodeBytes(BufferChainlink.buffer memory buf, bytes memory value) internal pure {... */\n    tag_202:\n        /* \"@chainlink/contracts/src/v0.8/vendor/CBORChainlink.sol\":2250:2313  encodeFixedNumeric(buf, MAJOR_TYPE_BYTES, uint64(value.length)) */\n      tag_245\n        /* \"@chainlink/contracts/src/v0.8/vendor/CBORChainlink.sol\":2269:2272  buf */\n      dup3\n        /* \"@chainlink/contracts/src/v0.8/vendor/CBORChainlink.sol\":335:336  2 */\n      0x02\n        /* \"@chainlink/contracts/src/v0.8/vendor/CBORChainlink.sol\":2299:2304  value */\n      dup4\n        /* \"@chainlink/contracts/src/v0.8/vendor/CBORChainlink.sol\":2299:2311  value.length */\n      mload\n        /* \"@chainlink/contracts/src/v0.8/vendor/CBORChainlink.sol\":2250:2268  encodeFixedNumeric */\n      tag_138\n        /* \"@chainlink/contracts/src/v0.8/vendor/CBORChainlink.sol\":2250:2313  encodeFixedNumeric(buf, MAJOR_TYPE_BYTES, uint64(value.length)) */\n      jump\t// in\n    tag_245:\n        /* \"@chainlink/contracts/src/v0.8/vendor/CBORChainlink.sol\":2319:2336  buf.append(value) */\n      tag_246\n        /* \"@chainlink/contracts/src/v0.8/vendor/CBORChainlink.sol\":2330:2335  value */\n      dup2\n        /* \"@chainlink/contracts/src/v0.8/vendor/CBORChainlink.sol\":2319:2322  buf */\n      dup4\n        /* \"@chainlink/contracts/src/v0.8/vendor/CBORChainlink.sol\":2319:2329  buf.append */\n      tag_140\n      swap1\n        /* \"@chainlink/contracts/src/v0.8/vendor/CBORChainlink.sol\":2319:2336  buf.append(value) */\n      swap2\n      swap1\n      0xffffffff\n      and\n      jump\t// in\n    tag_246:\n      pop\n        /* \"@chainlink/contracts/src/v0.8/vendor/CBORChainlink.sol\":2154:2341  function encodeBytes(BufferChainlink.buffer memory buf, bytes memory value) internal pure {... */\n      pop\n      pop\n      jump\t// out\n        /* \"@chainlink/contracts/src/v0.8/vendor/BufferChainlink.sol\":5148:5787  function writeUint8(... */\n    tag_221:\n        /* \"@chainlink/contracts/src/v0.8/vendor/BufferChainlink.sol\":5251:5264  buffer memory */\n      tag_247\n      tag_164\n      jump\t// in\n    tag_247:\n        /* \"@chainlink/contracts/src/v0.8/vendor/BufferChainlink.sol\":5283:5286  buf */\n      dup4\n        /* \"@chainlink/contracts/src/v0.8/vendor/BufferChainlink.sol\":5283:5295  buf.capacity */\n      0x20\n      add\n      mload\n        /* \"@chainlink/contracts/src/v0.8/vendor/BufferChainlink.sol\":5276:5279  off */\n      dup4\n        /* \"@chainlink/contracts/src/v0.8/vendor/BufferChainlink.sol\":5276:5295  off >= buf.capacity */\n      lt\n        /* \"@chainlink/contracts/src/v0.8/vendor/BufferChainlink.sol\":5272:5341  if (off >= buf.capacity) {... */\n      tag_249\n      jumpi\n        /* \"@chainlink/contracts/src/v0.8/vendor/BufferChainlink.sol\":5305:5334  resize(buf, buf.capacity * 2) */\n      tag_250\n        /* \"@chainlink/contracts/src/v0.8/vendor/BufferChainlink.sol\":5312:5315  buf */\n      dup5\n        /* \"@chainlink/contracts/src/v0.8/vendor/BufferChainlink.sol\":5332:5333  2 */\n      0x02\n        /* \"@chainlink/contracts/src/v0.8/vendor/BufferChainlink.sol\":5317:5320  buf */\n      dup7\n        /* \"@chainlink/contracts/src/v0.8/vendor/BufferChainlink.sol\":5317:5329  buf.capacity */\n      0x20\n      add\n      mload\n        /* \"@chainlink/contracts/src/v0.8/vendor/BufferChainlink.sol\":5317:5333  buf.capacity * 2 */\n      tag_251\n      swap2\n      swap1\n      tag_86\n      jump\t// in\n    tag_251:\n        /* \"@chainlink/contracts/src/v0.8/vendor/BufferChainlink.sol\":5305:5311  resize */\n      tag_236\n        /* \"@chainlink/contracts/src/v0.8/vendor/BufferChainlink.sol\":5305:5334  resize(buf, buf.capacity * 2) */\n      jump\t// in\n    tag_250:\n        /* \"@chainlink/contracts/src/v0.8/vendor/BufferChainlink.sol\":5272:5341  if (off >= buf.capacity) {... */\n    tag_249:\n        /* \"@chainlink/contracts/src/v0.8/vendor/BufferChainlink.sol\":5427:5430  buf */\n      dup4\n        /* \"@chainlink/contracts/src/v0.8/vendor/BufferChainlink.sol\":5421:5431  mload(buf) */\n      mload\n        /* \"@chainlink/contracts/src/v0.8/vendor/BufferChainlink.sol\":5498:5504  bufptr */\n      dup1\n        /* \"@chainlink/contracts/src/v0.8/vendor/BufferChainlink.sol\":5492:5505  mload(bufptr) */\n      mload\n        /* \"@chainlink/contracts/src/v0.8/vendor/BufferChainlink.sol\":5610:5612  32 */\n      0x20\n        /* \"@chainlink/contracts/src/v0.8/vendor/BufferChainlink.sol\":5604:5607  off */\n      dup6\n        /* \"@chainlink/contracts/src/v0.8/vendor/BufferChainlink.sol\":5596:5602  bufptr */\n      dup4\n        /* \"@chainlink/contracts/src/v0.8/vendor/BufferChainlink.sol\":5592:5608  add(bufptr, off) */\n      add\n        /* \"@chainlink/contracts/src/v0.8/vendor/BufferChainlink.sol\":5588:5613  add(add(bufptr, off), 32) */\n      add\n        /* \"@chainlink/contracts/src/v0.8/vendor/BufferChainlink.sol\":5634:5638  data */\n      dup5\n        /* \"@chainlink/contracts/src/v0.8/vendor/BufferChainlink.sol\":5628:5632  dest */\n      dup2\n        /* \"@chainlink/contracts/src/v0.8/vendor/BufferChainlink.sol\":5620:5639  mstore8(dest, data) */\n      mstore8\n        /* \"@chainlink/contracts/src/v0.8/vendor/BufferChainlink.sol\":5705:5711  buflen */\n      dup2\n        /* \"@chainlink/contracts/src/v0.8/vendor/BufferChainlink.sol\":5700:5703  off */\n      dup7\n        /* \"@chainlink/contracts/src/v0.8/vendor/BufferChainlink.sol\":5697:5712  eq(off, buflen) */\n      sub\n        /* \"@chainlink/contracts/src/v0.8/vendor/BufferChainlink.sol\":5694:5761  if eq(off, buflen) {... */\n      tag_252\n      jumpi\n        /* \"@chainlink/contracts/src/v0.8/vendor/BufferChainlink.sol\":5750:5751  1 */\n      0x01\n        /* \"@chainlink/contracts/src/v0.8/vendor/BufferChainlink.sol\":5742:5748  buflen */\n      dup3\n        /* \"@chainlink/contracts/src/v0.8/vendor/BufferChainlink.sol\":5738:5752  add(buflen, 1) */\n      add\n        /* \"@chainlink/contracts/src/v0.8/vendor/BufferChainlink.sol\":5730:5736  bufptr */\n      dup4\n        /* \"@chainlink/contracts/src/v0.8/vendor/BufferChainlink.sol\":5723:5753  mstore(bufptr, add(buflen, 1)) */\n      mstore\n        /* \"@chainlink/contracts/src/v0.8/vendor/BufferChainlink.sol\":5694:5761  if eq(off, buflen) {... */\n    tag_252:\n        /* \"@chainlink/contracts/src/v0.8/vendor/BufferChainlink.sol\":5356:5767  {... */\n      pop\n      pop\n      pop\n        /* \"@chainlink/contracts/src/v0.8/vendor/BufferChainlink.sol\":5779:5782  buf */\n      dup4\n        /* \"@chainlink/contracts/src/v0.8/vendor/BufferChainlink.sol\":5772:5782  return buf */\n      swap1\n      pop\n        /* \"@chainlink/contracts/src/v0.8/vendor/BufferChainlink.sol\":5148:5787  function writeUint8(... */\n      swap4\n      swap3\n      pop\n      pop\n      pop\n      jump\t// out\n        /* \"@chainlink/contracts/src/v0.8/vendor/BufferChainlink.sol\":8974:9649  function writeInt(... */\n    tag_225:\n        /* \"@chainlink/contracts/src/v0.8/vendor/BufferChainlink.sol\":9093:9106  buffer memory */\n      tag_253\n      tag_164\n      jump\t// in\n    tag_253:\n        /* \"@chainlink/contracts/src/v0.8/vendor/BufferChainlink.sol\":9130:9133  buf */\n      dup5\n        /* \"@chainlink/contracts/src/v0.8/vendor/BufferChainlink.sol\":9130:9142  buf.capacity */\n      0x20\n      add\n      mload\n        /* \"@chainlink/contracts/src/v0.8/vendor/BufferChainlink.sol\":9124:9127  off */\n      dup5\n        /* \"@chainlink/contracts/src/v0.8/vendor/BufferChainlink.sol\":9118:9121  len */\n      dup4\n        /* \"@chainlink/contracts/src/v0.8/vendor/BufferChainlink.sol\":9118:9127  len + off */\n      tag_255\n      swap2\n      swap1\n      tag_158\n      jump\t// in\n    tag_255:\n        /* \"@chainlink/contracts/src/v0.8/vendor/BufferChainlink.sol\":9118:9142  len + off > buf.capacity */\n      gt\n        /* \"@chainlink/contracts/src/v0.8/vendor/BufferChainlink.sol\":9114:9187  if (len + off > buf.capacity) {... */\n      iszero\n      tag_256\n      jumpi\n        /* \"@chainlink/contracts/src/v0.8/vendor/BufferChainlink.sol\":9152:9180  resize(buf, (len + off) * 2) */\n      tag_257\n        /* \"@chainlink/contracts/src/v0.8/vendor/BufferChainlink.sol\":9159:9162  buf */\n      dup6\n        /* \"@chainlink/contracts/src/v0.8/vendor/BufferChainlink.sol\":9178:9179  2 */\n      0x02\n        /* \"@chainlink/contracts/src/v0.8/vendor/BufferChainlink.sol\":9171:9174  off */\n      dup7\n        /* \"@chainlink/contracts/src/v0.8/vendor/BufferChainlink.sol\":9165:9168  len */\n      dup6\n        /* \"@chainlink/contracts/src/v0.8/vendor/BufferChainlink.sol\":9165:9174  len + off */\n      tag_258\n      swap2\n      swap1\n      tag_158\n      jump\t// in\n    tag_258:\n        /* \"@chainlink/contracts/src/v0.8/vendor/BufferChainlink.sol\":9164:9179  (len + off) * 2 */\n      tag_259\n      swap2\n      swap1\n      tag_86\n      jump\t// in\n    tag_259:\n        /* \"@chainlink/contracts/src/v0.8/vendor/BufferChainlink.sol\":9152:9158  resize */\n      tag_236\n        /* \"@chainlink/contracts/src/v0.8/vendor/BufferChainlink.sol\":9152:9180  resize(buf, (len + off) * 2) */\n      jump\t// in\n    tag_257:\n        /* \"@chainlink/contracts/src/v0.8/vendor/BufferChainlink.sol\":9114:9187  if (len + off > buf.capacity) {... */\n    tag_256:\n        /* \"@chainlink/contracts/src/v0.8/vendor/BufferChainlink.sol\":9193:9205  uint256 mask */\n      0x00\n        /* \"@chainlink/contracts/src/v0.8/vendor/BufferChainlink.sol\":9221:9222  1 */\n      0x01\n        /* \"@chainlink/contracts/src/v0.8/vendor/BufferChainlink.sol\":9214:9217  len */\n      dup4\n        /* \"@chainlink/contracts/src/v0.8/vendor/BufferChainlink.sol\":9209:9212  256 */\n      0x0100\n        /* \"@chainlink/contracts/src/v0.8/vendor/BufferChainlink.sol\":9209:9217  256**len */\n      tag_260\n      swap2\n      swap1\n      tag_261\n      jump\t// in\n    tag_260:\n        /* \"@chainlink/contracts/src/v0.8/vendor/BufferChainlink.sol\":9208:9222  (256**len) - 1 */\n      tag_262\n      swap2\n      swap1\n      tag_171\n      jump\t// in\n    tag_262:\n        /* \"@chainlink/contracts/src/v0.8/vendor/BufferChainlink.sol\":9193:9222  uint256 mask = (256**len) - 1 */\n      swap1\n      pop\n        /* \"@chainlink/contracts/src/v0.8/vendor/BufferChainlink.sol\":9308:9311  buf */\n      dup6\n        /* \"@chainlink/contracts/src/v0.8/vendor/BufferChainlink.sol\":9302:9312  mload(buf) */\n      mload\n        /* \"@chainlink/contracts/src/v0.8/vendor/BufferChainlink.sol\":9423:9426  len */\n      dup4\n        /* \"@chainlink/contracts/src/v0.8/vendor/BufferChainlink.sol\":9417:9420  off */\n      dup7\n        /* \"@chainlink/contracts/src/v0.8/vendor/BufferChainlink.sol\":9409:9415  bufptr */\n      dup3\n        /* \"@chainlink/contracts/src/v0.8/vendor/BufferChainlink.sol\":9405:9421  add(bufptr, off) */\n      add\n        /* \"@chainlink/contracts/src/v0.8/vendor/BufferChainlink.sol\":9401:9427  add(add(bufptr, off), len) */\n      add\n        /* \"@chainlink/contracts/src/v0.8/vendor/BufferChainlink.sol\":9479:9483  data */\n      dup6\n        /* \"@chainlink/contracts/src/v0.8/vendor/BufferChainlink.sol\":9471:9475  mask */\n      dup4\n        /* \"@chainlink/contracts/src/v0.8/vendor/BufferChainlink.sol\":9467:9476  not(mask) */\n      not\n        /* \"@chainlink/contracts/src/v0.8/vendor/BufferChainlink.sol\":9460:9464  dest */\n      dup3\n        /* \"@chainlink/contracts/src/v0.8/vendor/BufferChainlink.sol\":9454:9465  mload(dest) */\n      mload\n        /* \"@chainlink/contracts/src/v0.8/vendor/BufferChainlink.sol\":9450:9477  and(mload(dest), not(mask)) */\n      and\n        /* \"@chainlink/contracts/src/v0.8/vendor/BufferChainlink.sol\":9447:9484  or(and(mload(dest), not(mask)), data) */\n      or\n        /* \"@chainlink/contracts/src/v0.8/vendor/BufferChainlink.sol\":9441:9445  dest */\n      dup2\n        /* \"@chainlink/contracts/src/v0.8/vendor/BufferChainlink.sol\":9434:9485  mstore(dest, or(and(mload(dest), not(mask)), data)) */\n      mstore\n        /* \"@chainlink/contracts/src/v0.8/vendor/BufferChainlink.sol\":9567:9573  bufptr */\n      dup2\n        /* \"@chainlink/contracts/src/v0.8/vendor/BufferChainlink.sol\":9561:9574  mload(bufptr) */\n      mload\n        /* \"@chainlink/contracts/src/v0.8/vendor/BufferChainlink.sol\":9555:9558  len */\n      dup6\n        /* \"@chainlink/contracts/src/v0.8/vendor/BufferChainlink.sol\":9550:9553  off */\n      dup9\n        /* \"@chainlink/contracts/src/v0.8/vendor/BufferChainlink.sol\":9546:9559  add(off, len) */\n      add\n        /* \"@chainlink/contracts/src/v0.8/vendor/BufferChainlink.sol\":9543:9575  gt(add(off, len), mload(bufptr)) */\n      gt\n        /* \"@chainlink/contracts/src/v0.8/vendor/BufferChainlink.sol\":9540:9623  if gt(add(off, len), mload(bufptr)) {... */\n      iszero\n      tag_263\n      jumpi\n        /* \"@chainlink/contracts/src/v0.8/vendor/BufferChainlink.sol\":9610:9613  len */\n      dup5\n        /* \"@chainlink/contracts/src/v0.8/vendor/BufferChainlink.sol\":9605:9608  off */\n      dup8\n        /* \"@chainlink/contracts/src/v0.8/vendor/BufferChainlink.sol\":9601:9614  add(off, len) */\n      add\n        /* \"@chainlink/contracts/src/v0.8/vendor/BufferChainlink.sol\":9593:9599  bufptr */\n      dup3\n        /* \"@chainlink/contracts/src/v0.8/vendor/BufferChainlink.sol\":9586:9615  mstore(bufptr, add(off, len)) */\n      mstore\n        /* \"@chainlink/contracts/src/v0.8/vendor/BufferChainlink.sol\":9540:9623  if gt(add(off, len), mload(bufptr)) {... */\n    tag_263:\n        /* \"@chainlink/contracts/src/v0.8/vendor/BufferChainlink.sol\":9237:9629  {... */\n      pop\n      pop\n        /* \"@chainlink/contracts/src/v0.8/vendor/BufferChainlink.sol\":9641:9644  buf */\n      dup6\n        /* \"@chainlink/contracts/src/v0.8/vendor/BufferChainlink.sol\":9634:9644  return buf */\n      swap2\n      pop\n      pop\n        /* \"@chainlink/contracts/src/v0.8/vendor/BufferChainlink.sol\":8974:9649  function writeInt(... */\n      swap5\n      swap4\n      pop\n      pop\n      pop\n      pop\n      jump\t// out\n        /* \"@chainlink/contracts/src/v0.8/vendor/BufferChainlink.sol\":1961:2085  function max(uint256 a, uint256 b) private pure returns (uint256) {... */\n    tag_234:\n        /* \"@chainlink/contracts/src/v0.8/vendor/BufferChainlink.sol\":2018:2025  uint256 */\n      0x00\n        /* \"@chainlink/contracts/src/v0.8/vendor/BufferChainlink.sol\":2041:2042  b */\n      dup2\n        /* \"@chainlink/contracts/src/v0.8/vendor/BufferChainlink.sol\":2037:2038  a */\n      dup4\n        /* \"@chainlink/contracts/src/v0.8/vendor/BufferChainlink.sol\":2037:2042  a > b */\n      gt\n        /* \"@chainlink/contracts/src/v0.8/vendor/BufferChainlink.sol\":2033:2067  if (a > b) {... */\n      iszero\n      tag_265\n      jumpi\n        /* \"@chainlink/contracts/src/v0.8/vendor/BufferChainlink.sol\":2059:2060  a */\n      dup3\n        /* \"@chainlink/contracts/src/v0.8/vendor/BufferChainlink.sol\":2052:2060  return a */\n      swap1\n      pop\n      jump(tag_264)\n        /* \"@chainlink/contracts/src/v0.8/vendor/BufferChainlink.sol\":2033:2067  if (a > b) {... */\n    tag_265:\n        /* \"@chainlink/contracts/src/v0.8/vendor/BufferChainlink.sol\":2079:2080  b */\n      dup2\n        /* \"@chainlink/contracts/src/v0.8/vendor/BufferChainlink.sol\":2072:2080  return b */\n      swap1\n      pop\n        /* \"@chainlink/contracts/src/v0.8/vendor/BufferChainlink.sol\":1961:2085  function max(uint256 a, uint256 b) private pure returns (uint256) {... */\n    tag_264:\n      swap3\n      swap2\n      pop\n      pop\n      jump\t// out\n        /* \"@chainlink/contracts/src/v0.8/vendor/BufferChainlink.sol\":1801:1957  function resize(buffer memory buf, uint256 capacity) private pure {... */\n    tag_236:\n        /* \"@chainlink/contracts/src/v0.8/vendor/BufferChainlink.sol\":1873:1892  bytes memory oldbuf */\n      0x00\n        /* \"@chainlink/contracts/src/v0.8/vendor/BufferChainlink.sol\":1895:1898  buf */\n      dup3\n        /* \"@chainlink/contracts/src/v0.8/vendor/BufferChainlink.sol\":1895:1902  buf.buf */\n      0x00\n      add\n      mload\n        /* \"@chainlink/contracts/src/v0.8/vendor/BufferChainlink.sol\":1873:1902  bytes memory oldbuf = buf.buf */\n      swap1\n      pop\n        /* \"@chainlink/contracts/src/v0.8/vendor/BufferChainlink.sol\":1908:1927  init(buf, capacity) */\n      tag_267\n        /* \"@chainlink/contracts/src/v0.8/vendor/BufferChainlink.sol\":1913:1916  buf */\n      dup4\n        /* \"@chainlink/contracts/src/v0.8/vendor/BufferChainlink.sol\":1918:1926  capacity */\n      dup4\n        /* \"@chainlink/contracts/src/v0.8/vendor/BufferChainlink.sol\":1908:1912  init */\n      tag_135\n        /* \"@chainlink/contracts/src/v0.8/vendor/BufferChainlink.sol\":1908:1927  init(buf, capacity) */\n      jump\t// in\n    tag_267:\n      pop\n        /* \"@chainlink/contracts/src/v0.8/vendor/BufferChainlink.sol\":1933:1952  append(buf, oldbuf) */\n      tag_268\n        /* \"@chainlink/contracts/src/v0.8/vendor/BufferChainlink.sol\":1940:1943  buf */\n      dup4\n        /* \"@chainlink/contracts/src/v0.8/vendor/BufferChainlink.sol\":1945:1951  oldbuf */\n      dup3\n        /* \"@chainlink/contracts/src/v0.8/vendor/BufferChainlink.sol\":1933:1939  append */\n      tag_140\n        /* \"@chainlink/contracts/src/v0.8/vendor/BufferChainlink.sol\":1933:1952  append(buf, oldbuf) */\n      jump\t// in\n    tag_268:\n      pop\n        /* \"@chainlink/contracts/src/v0.8/vendor/BufferChainlink.sol\":1867:1957  {... */\n      pop\n        /* \"@chainlink/contracts/src/v0.8/vendor/BufferChainlink.sol\":1801:1957  function resize(buffer memory buf, uint256 capacity) private pure {... */\n      pop\n      pop\n      jump\t// out\n    tag_106:\n      mload(0x40)\n      dup1\n      0xa0\n      add\n      0x40\n      mstore\n      dup1\n      0x00\n      dup1\n      not\n      and\n      dup2\n      mstore\n      0x20\n      add\n      and(0xffffffffffffffffffffffffffffffffffffffff, 0x00)\n      dup2\n      mstore\n      0x20\n      add\n      and(not(0xffffffffffffffffffffffffffffffffffffffffffffffffffffffff), 0x00)\n      dup2\n      mstore\n      0x20\n      add\n      0x00\n      dup2\n      mstore\n      0x20\n      add\n      tag_269\n      tag_164\n      jump\t// in\n    tag_269:\n      dup2\n      mstore\n      pop\n      swap1\n      jump\t// out\n    tag_164:\n      mload(0x40)\n      dup1\n      0x40\n      add\n      0x40\n      mstore\n      dup1\n      0x60\n      dup2\n      mstore\n      0x20\n      add\n      0x00\n      dup2\n      mstore\n      pop\n      swap1\n      jump\t// out\n        /* \"#utility.yul\":7:133   */\n    tag_270:\n        /* \"#utility.yul\":44:51   */\n      0x00\n        /* \"#utility.yul\":84:126   */\n      0xffffffffffffffffffffffffffffffffffffffff\n        /* \"#utility.yul\":77:82   */\n      dup3\n        /* \"#utility.yul\":73:127   */\n      and\n        /* \"#utility.yul\":62:127   */\n      swap1\n      pop\n        /* \"#utility.yul\":7:133   */\n      swap2\n      swap1\n      pop\n      jump\t// out\n        /* \"#utility.yul\":139:235   */\n    tag_271:\n        /* \"#utility.yul\":176:183   */\n      0x00\n        /* \"#utility.yul\":205:229   */\n      tag_331\n        /* \"#utility.yul\":223:228   */\n      dup3\n        /* \"#utility.yul\":205:229   */\n      tag_270\n      jump\t// in\n    tag_331:\n        /* \"#utility.yul\":194:229   */\n      swap1\n      pop\n        /* \"#utility.yul\":139:235   */\n      swap2\n      swap1\n      pop\n      jump\t// out\n        /* \"#utility.yul\":241:359   */\n    tag_272:\n        /* \"#utility.yul\":328:352   */\n      tag_333\n        /* \"#utility.yul\":346:351   */\n      dup2\n        /* \"#utility.yul\":328:352   */\n      tag_271\n      jump\t// in\n    tag_333:\n        /* \"#utility.yul\":323:326   */\n      dup3\n        /* \"#utility.yul\":316:353   */\n      mstore\n        /* \"#utility.yul\":241:359   */\n      pop\n      pop\n      jump\t// out\n        /* \"#utility.yul\":365:587   */\n    tag_16:\n        /* \"#utility.yul\":458:462   */\n      0x00\n        /* \"#utility.yul\":496:498   */\n      0x20\n        /* \"#utility.yul\":485:494   */\n      dup3\n        /* \"#utility.yul\":481:499   */\n      add\n        /* \"#utility.yul\":473:499   */\n      swap1\n      pop\n        /* \"#utility.yul\":509:580   */\n      tag_335\n        /* \"#utility.yul\":577:578   */\n      0x00\n        /* \"#utility.yul\":566:575   */\n      dup4\n        /* \"#utility.yul\":562:579   */\n      add\n        /* \"#utility.yul\":553:559   */\n      dup5\n        /* \"#utility.yul\":509:580   */\n      tag_272\n      jump\t// in\n    tag_335:\n        /* \"#utility.yul\":365:587   */\n      swap3\n      swap2\n      pop\n      pop\n      jump\t// out\n        /* \"#utility.yul\":674:791   */\n    tag_274:\n        /* \"#utility.yul\":783:784   */\n      0x00\n        /* \"#utility.yul\":780:781   */\n      dup1\n        /* \"#utility.yul\":773:785   */\n      revert\n        /* \"#utility.yul\":920:997   */\n    tag_276:\n        /* \"#utility.yul\":957:964   */\n      0x00\n        /* \"#utility.yul\":986:991   */\n      dup2\n        /* \"#utility.yul\":975:991   */\n      swap1\n      pop\n        /* \"#utility.yul\":920:997   */\n      swap2\n      swap1\n      pop\n      jump\t// out\n        /* \"#utility.yul\":1003:1125   */\n    tag_277:\n        /* \"#utility.yul\":1076:1100   */\n      tag_341\n        /* \"#utility.yul\":1094:1099   */\n      dup2\n        /* \"#utility.yul\":1076:1100   */\n      tag_276\n      jump\t// in\n    tag_341:\n        /* \"#utility.yul\":1069:1074   */\n      dup2\n        /* \"#utility.yul\":1066:1101   */\n      eq\n        /* \"#utility.yul\":1056:1119   */\n      tag_342\n      jumpi\n        /* \"#utility.yul\":1115:1116   */\n      0x00\n        /* \"#utility.yul\":1112:1113   */\n      dup1\n        /* \"#utility.yul\":1105:1117   */\n      revert\n        /* \"#utility.yul\":1056:1119   */\n    tag_342:\n        /* \"#utility.yul\":1003:1125   */\n      pop\n      jump\t// out\n        /* \"#utility.yul\":1131:1270   */\n    tag_278:\n        /* \"#utility.yul\":1177:1182   */\n      0x00\n        /* \"#utility.yul\":1215:1221   */\n      dup2\n        /* \"#utility.yul\":1202:1222   */\n      calldataload\n        /* \"#utility.yul\":1193:1222   */\n      swap1\n      pop\n        /* \"#utility.yul\":1231:1264   */\n      tag_344\n        /* \"#utility.yul\":1258:1263   */\n      dup2\n        /* \"#utility.yul\":1231:1264   */\n      tag_277\n      jump\t// in\n    tag_344:\n        /* \"#utility.yul\":1131:1270   */\n      swap3\n      swap2\n      pop\n      pop\n      jump\t// out\n        /* \"#utility.yul\":1276:1353   */\n    tag_279:\n        /* \"#utility.yul\":1313:1320   */\n      0x00\n        /* \"#utility.yul\":1342:1347   */\n      dup2\n        /* \"#utility.yul\":1331:1347   */\n      swap1\n      pop\n        /* \"#utility.yul\":1276:1353   */\n      swap2\n      swap1\n      pop\n      jump\t// out\n        /* \"#utility.yul\":1359:1481   */\n    tag_280:\n        /* \"#utility.yul\":1432:1456   */\n      tag_347\n        /* \"#utility.yul\":1450:1455   */\n      dup2\n        /* \"#utility.yul\":1432:1456   */\n      tag_279\n      jump\t// in\n    tag_347:\n        /* \"#utility.yul\":1425:1430   */\n      dup2\n        /* \"#utility.yul\":1422:1457   */\n      eq\n        /* \"#utility.yul\":1412:1475   */\n      tag_348\n      jumpi\n        /* \"#utility.yul\":1471:1472   */\n      0x00\n        /* \"#utility.yul\":1468:1469   */\n      dup1\n        /* \"#utility.yul\":1461:1473   */\n      revert\n        /* \"#utility.yul\":1412:1475   */\n    tag_348:\n        /* \"#utility.yul\":1359:1481   */\n      pop\n      jump\t// out\n        /* \"#utility.yul\":1487:1626   */\n    tag_281:\n        /* \"#utility.yul\":1533:1538   */\n      0x00\n        /* \"#utility.yul\":1571:1577   */\n      dup2\n        /* \"#utility.yul\":1558:1578   */\n      calldataload\n        /* \"#utility.yul\":1549:1578   */\n      swap1\n      pop\n        /* \"#utility.yul\":1587:1620   */\n      tag_350\n        /* \"#utility.yul\":1614:1619   */\n      dup2\n        /* \"#utility.yul\":1587:1620   */\n      tag_280\n      jump\t// in\n    tag_350:\n        /* \"#utility.yul\":1487:1626   */\n      swap3\n      swap2\n      pop\n      pop\n      jump\t// out\n        /* \"#utility.yul\":1632:2106   */\n    tag_26:\n        /* \"#utility.yul\":1700:1706   */\n      0x00\n        /* \"#utility.yul\":1708:1714   */\n      dup1\n        /* \"#utility.yul\":1757:1759   */\n      0x40\n        /* \"#utility.yul\":1745:1754   */\n      dup4\n        /* \"#utility.yul\":1736:1743   */\n      dup6\n        /* \"#utility.yul\":1732:1755   */\n      sub\n        /* \"#utility.yul\":1728:1760   */\n      slt\n        /* \"#utility.yul\":1725:1844   */\n      iszero\n      tag_352\n      jumpi\n        /* \"#utility.yul\":1763:1842   */\n      tag_353\n      tag_274\n      jump\t// in\n    tag_353:\n        /* \"#utility.yul\":1725:1844   */\n    tag_352:\n        /* \"#utility.yul\":1883:1884   */\n      0x00\n        /* \"#utility.yul\":1908:1961   */\n      tag_354\n        /* \"#utility.yul\":1953:1960   */\n      dup6\n        /* \"#utility.yul\":1944:1950   */\n      dup3\n        /* \"#utility.yul\":1933:1942   */\n      dup7\n        /* \"#utility.yul\":1929:1951   */\n      add\n        /* \"#utility.yul\":1908:1961   */\n      tag_278\n      jump\t// in\n    tag_354:\n        /* \"#utility.yul\":1898:1961   */\n      swap3\n      pop\n        /* \"#utility.yul\":1854:1971   */\n      pop\n        /* \"#utility.yul\":2010:2012   */\n      0x20\n        /* \"#utility.yul\":2036:2089   */\n      tag_355\n        /* \"#utility.yul\":2081:2088   */\n      dup6\n        /* \"#utility.yul\":2072:2078   */\n      dup3\n        /* \"#utility.yul\":2061:2070   */\n      dup7\n        /* \"#utility.yul\":2057:2079   */\n      add\n        /* \"#utility.yul\":2036:2089   */\n      tag_281\n      jump\t// in\n    tag_355:\n        /* \"#utility.yul\":2026:2089   */\n      swap2\n      pop\n        /* \"#utility.yul\":1981:2099   */\n      pop\n        /* \"#utility.yul\":1632:2106   */\n      swap3\n      pop\n      swap3\n      swap1\n      pop\n      jump\t// out\n        /* \"#utility.yul\":2112:2230   */\n    tag_282:\n        /* \"#utility.yul\":2199:2223   */\n      tag_357\n        /* \"#utility.yul\":2217:2222   */\n      dup2\n        /* \"#utility.yul\":2199:2223   */\n      tag_279\n      jump\t// in\n    tag_357:\n        /* \"#utility.yul\":2194:2197   */\n      dup3\n        /* \"#utility.yul\":2187:2224   */\n      mstore\n        /* \"#utility.yul\":2112:2230   */\n      pop\n      pop\n      jump\t// out\n        /* \"#utility.yul\":2236:2458   */\n    tag_31:\n        /* \"#utility.yul\":2329:2333   */\n      0x00\n        /* \"#utility.yul\":2367:2369   */\n      0x20\n        /* \"#utility.yul\":2356:2365   */\n      dup3\n        /* \"#utility.yul\":2352:2370   */\n      add\n        /* \"#utility.yul\":2344:2370   */\n      swap1\n      pop\n        /* \"#utility.yul\":2380:2451   */\n      tag_359\n        /* \"#utility.yul\":2448:2449   */\n      0x00\n        /* \"#utility.yul\":2437:2446   */\n      dup4\n        /* \"#utility.yul\":2433:2450   */\n      add\n        /* \"#utility.yul\":2424:2430   */\n      dup5\n        /* \"#utility.yul\":2380:2451   */\n      tag_282\n      jump\t// in\n    tag_359:\n        /* \"#utility.yul\":2236:2458   */\n      swap3\n      swap2\n      pop\n      pop\n      jump\t// out\n        /* \"#utility.yul\":2464:2613   */\n    tag_283:\n        /* \"#utility.yul\":2500:2507   */\n      0x00\n        /* \"#utility.yul\":2540:2606   */\n      0xffffffff00000000000000000000000000000000000000000000000000000000\n        /* \"#utility.yul\":2533:2538   */\n      dup3\n        /* \"#utility.yul\":2529:2607   */\n      and\n        /* \"#utility.yul\":2518:2607   */\n      swap1\n      pop\n        /* \"#utility.yul\":2464:2613   */\n      swap2\n      swap1\n      pop\n      jump\t// out\n        /* \"#utility.yul\":2619:2739   */\n    tag_284:\n        /* \"#utility.yul\":2691:2714   */\n      tag_362\n        /* \"#utility.yul\":2708:2713   */\n      dup2\n        /* \"#utility.yul\":2691:2714   */\n      tag_283\n      jump\t// in\n    tag_362:\n        /* \"#utility.yul\":2684:2689   */\n      dup2\n        /* \"#utility.yul\":2681:2715   */\n      eq\n        /* \"#utility.yul\":2671:2733   */\n      tag_363\n      jumpi\n        /* \"#utility.yul\":2729:2730   */\n      0x00\n        /* \"#utility.yul\":2726:2727   */\n      dup1\n        /* \"#utility.yul\":2719:2731   */\n      revert\n        /* \"#utility.yul\":2671:2733   */\n    tag_363:\n        /* \"#utility.yul\":2619:2739   */\n      pop\n      jump\t// out\n        /* \"#utility.yul\":2745:2882   */\n    tag_285:\n        /* \"#utility.yul\":2790:2795   */\n      0x00\n        /* \"#utility.yul\":2828:2834   */\n      dup2\n        /* \"#utility.yul\":2815:2835   */\n      calldataload\n        /* \"#utility.yul\":2806:2835   */\n      swap1\n      pop\n        /* \"#utility.yul\":2844:2876   */\n      tag_365\n        /* \"#utility.yul\":2870:2875   */\n      dup2\n        /* \"#utility.yul\":2844:2876   */\n      tag_284\n      jump\t// in\n    tag_365:\n        /* \"#utility.yul\":2745:2882   */\n      swap3\n      swap2\n      pop\n      pop\n      jump\t// out\n        /* \"#utility.yul\":2888:3651   */\n    tag_36:\n        /* \"#utility.yul\":2973:2979   */\n      0x00\n        /* \"#utility.yul\":2981:2987   */\n      dup1\n        /* \"#utility.yul\":2989:2995   */\n      0x00\n        /* \"#utility.yul\":2997:3003   */\n      dup1\n        /* \"#utility.yul\":3046:3049   */\n      0x80\n        /* \"#utility.yul\":3034:3043   */\n      dup6\n        /* \"#utility.yul\":3025:3032   */\n      dup8\n        /* \"#utility.yul\":3021:3044   */\n      sub\n        /* \"#utility.yul\":3017:3050   */\n      slt\n        /* \"#utility.yul\":3014:3134   */\n      iszero\n      tag_367\n      jumpi\n        /* \"#utility.yul\":3053:3132   */\n      tag_368\n      tag_274\n      jump\t// in\n    tag_368:\n        /* \"#utility.yul\":3014:3134   */\n    tag_367:\n        /* \"#utility.yul\":3173:3174   */\n      0x00\n        /* \"#utility.yul\":3198:3251   */\n      tag_369\n        /* \"#utility.yul\":3243:3250   */\n      dup8\n        /* \"#utility.yul\":3234:3240   */\n      dup3\n        /* \"#utility.yul\":3223:3232   */\n      dup9\n        /* \"#utility.yul\":3219:3241   */\n      add\n        /* \"#utility.yul\":3198:3251   */\n      tag_278\n      jump\t// in\n    tag_369:\n        /* \"#utility.yul\":3188:3251   */\n      swap5\n      pop\n        /* \"#utility.yul\":3144:3261   */\n      pop\n        /* \"#utility.yul\":3300:3302   */\n      0x20\n        /* \"#utility.yul\":3326:3379   */\n      tag_370\n        /* \"#utility.yul\":3371:3378   */\n      dup8\n        /* \"#utility.yul\":3362:3368   */\n      dup3\n        /* \"#utility.yul\":3351:3360   */\n      dup9\n        /* \"#utility.yul\":3347:3369   */\n      add\n        /* \"#utility.yul\":3326:3379   */\n      tag_281\n      jump\t// in\n    tag_370:\n        /* \"#utility.yul\":3316:3379   */\n      swap4\n      pop\n        /* \"#utility.yul\":3271:3389   */\n      pop\n        /* \"#utility.yul\":3428:3430   */\n      0x40\n        /* \"#utility.yul\":3454:3506   */\n      tag_371\n        /* \"#utility.yul\":3498:3505   */\n      dup8\n        /* \"#utility.yul\":3489:3495   */\n      dup3\n        /* \"#utility.yul\":3478:3487   */\n      dup9\n        /* \"#utility.yul\":3474:3496   */\n      add\n        /* \"#utility.yul\":3454:3506   */\n      tag_285\n      jump\t// in\n    tag_371:\n        /* \"#utility.yul\":3444:3506   */\n      swap3\n      pop\n        /* \"#utility.yul\":3399:3516   */\n      pop\n        /* \"#utility.yul\":3555:3557   */\n      0x60\n        /* \"#utility.yul\":3581:3634   */\n      tag_372\n        /* \"#utility.yul\":3626:3633   */\n      dup8\n        /* \"#utility.yul\":3617:3623   */\n      dup3\n        /* \"#utility.yul\":3606:3615   */\n      dup9\n        /* \"#utility.yul\":3602:3624   */\n      add\n        /* \"#utility.yul\":3581:3634   */\n      tag_281\n      jump\t// in\n    tag_372:\n        /* \"#utility.yul\":3571:3634   */\n      swap2\n      pop\n        /* \"#utility.yul\":3526:3644   */\n      pop\n        /* \"#utility.yul\":2888:3651   */\n      swap3\n      swap6\n      swap2\n      swap5\n      pop\n      swap3\n      pop\n      jump\t// out\n        /* \"#utility.yul\":3657:3779   */\n    tag_286:\n        /* \"#utility.yul\":3730:3754   */\n      tag_374\n        /* \"#utility.yul\":3748:3753   */\n      dup2\n        /* \"#utility.yul\":3730:3754   */\n      tag_271\n      jump\t// in\n    tag_374:\n        /* \"#utility.yul\":3723:3728   */\n      dup2\n        /* \"#utility.yul\":3720:3755   */\n      eq\n        /* \"#utility.yul\":3710:3773   */\n      tag_375\n      jumpi\n        /* \"#utility.yul\":3769:3770   */\n      0x00\n        /* \"#utility.yul\":3766:3767   */\n      dup1\n        /* \"#utility.yul\":3759:3771   */\n      revert\n        /* \"#utility.yul\":3710:3773   */\n    tag_375:\n        /* \"#utility.yul\":3657:3779   */\n      pop\n      jump\t// out\n        /* \"#utility.yul\":3785:3924   */\n    tag_287:\n        /* \"#utility.yul\":3831:3836   */\n      0x00\n        /* \"#utility.yul\":3869:3875   */\n      dup2\n        /* \"#utility.yul\":3856:3876   */\n      calldataload\n        /* \"#utility.yul\":3847:3876   */\n      swap1\n      pop\n        /* \"#utility.yul\":3885:3918   */\n      tag_377\n        /* \"#utility.yul\":3912:3917   */\n      dup2\n        /* \"#utility.yul\":3885:3918   */\n      tag_286\n      jump\t// in\n    tag_377:\n        /* \"#utility.yul\":3785:3924   */\n      swap3\n      swap2\n      pop\n      pop\n      jump\t// out\n        /* \"#utility.yul\":3930:4259   */\n    tag_40:\n        /* \"#utility.yul\":3989:3995   */\n      0x00\n        /* \"#utility.yul\":4038:4040   */\n      0x20\n        /* \"#utility.yul\":4026:4035   */\n      dup3\n        /* \"#utility.yul\":4017:4024   */\n      dup5\n        /* \"#utility.yul\":4013:4036   */\n      sub\n        /* \"#utility.yul\":4009:4041   */\n      slt\n        /* \"#utility.yul\":4006:4125   */\n      iszero\n      tag_379\n      jumpi\n        /* \"#utility.yul\":4044:4123   */\n      tag_380\n      tag_274\n      jump\t// in\n    tag_380:\n        /* \"#utility.yul\":4006:4125   */\n    tag_379:\n        /* \"#utility.yul\":4164:4165   */\n      0x00\n        /* \"#utility.yul\":4189:4242   */\n      tag_381\n        /* \"#utility.yul\":4234:4241   */\n      dup5\n        /* \"#utility.yul\":4225:4231   */\n      dup3\n        /* \"#utility.yul\":4214:4223   */\n      dup6\n        /* \"#utility.yul\":4210:4232   */\n      add\n        /* \"#utility.yul\":4189:4242   */\n      tag_287\n      jump\t// in\n    tag_381:\n        /* \"#utility.yul\":4179:4242   */\n      swap2\n      pop\n        /* \"#utility.yul\":4135:4252   */\n      pop\n        /* \"#utility.yul\":3930:4259   */\n      swap3\n      swap2\n      pop\n      pop\n      jump\t// out\n        /* \"#utility.yul\":4265:4434   */\n    tag_288:\n        /* \"#utility.yul\":4349:4360   */\n      0x00\n        /* \"#utility.yul\":4383:4389   */\n      dup3\n        /* \"#utility.yul\":4378:4381   */\n      dup3\n        /* \"#utility.yul\":4371:4390   */\n      mstore\n        /* \"#utility.yul\":4423:4427   */\n      0x20\n        /* \"#utility.yul\":4418:4421   */\n      dup3\n        /* \"#utility.yul\":4414:4428   */\n      add\n        /* \"#utility.yul\":4399:4428   */\n      swap1\n      pop\n        /* \"#utility.yul\":4265:4434   */\n      swap3\n      swap2\n      pop\n      pop\n      jump\t// out\n        /* \"#utility.yul\":4440:4612   */\n    tag_289:\n        /* \"#utility.yul\":4580:4604   */\n      0x4d7573742062652070726f706f736564206f776e657200000000000000000000\n        /* \"#utility.yul\":4576:4577   */\n      0x00\n        /* \"#utility.yul\":4568:4574   */\n      dup3\n        /* \"#utility.yul\":4564:4578   */\n      add\n        /* \"#utility.yul\":4557:4605   */\n      mstore\n        /* \"#utility.yul\":4440:4612   */\n      pop\n      jump\t// out\n        /* \"#utility.yul\":4618:4984   */\n    tag_290:\n        /* \"#utility.yul\":4760:4763   */\n      0x00\n        /* \"#utility.yul\":4781:4848   */\n      tag_385\n        /* \"#utility.yul\":4845:4847   */\n      0x16\n        /* \"#utility.yul\":4840:4843   */\n      dup4\n        /* \"#utility.yul\":4781:4848   */\n      tag_288\n      jump\t// in\n    tag_385:\n        /* \"#utility.yul\":4774:4848   */\n      swap2\n      pop\n        /* \"#utility.yul\":4857:4950   */\n      tag_386\n        /* \"#utility.yul\":4946:4949   */\n      dup3\n        /* \"#utility.yul\":4857:4950   */\n      tag_289\n      jump\t// in\n    tag_386:\n        /* \"#utility.yul\":4975:4977   */\n      0x20\n        /* \"#utility.yul\":4970:4973   */\n      dup3\n        /* \"#utility.yul\":4966:4978   */\n      add\n        /* \"#utility.yul\":4959:4978   */\n      swap1\n      pop\n        /* \"#utility.yul\":4618:4984   */\n      swap2\n      swap1\n      pop\n      jump\t// out\n        /* \"#utility.yul\":4990:5409   */\n    tag_48:\n        /* \"#utility.yul\":5156:5160   */\n      0x00\n        /* \"#utility.yul\":5194:5196   */\n      0x20\n        /* \"#utility.yul\":5183:5192   */\n      dup3\n        /* \"#utility.yul\":5179:5197   */\n      add\n        /* \"#utility.yul\":5171:5197   */\n      swap1\n      pop\n        /* \"#utility.yul\":5243:5252   */\n      dup2\n        /* \"#utility.yul\":5237:5241   */\n      dup2\n        /* \"#utility.yul\":5233:5253   */\n      sub\n        /* \"#utility.yul\":5229:5230   */\n      0x00\n        /* \"#utility.yul\":5218:5227   */\n      dup4\n        /* \"#utility.yul\":5214:5231   */\n      add\n        /* \"#utility.yul\":5207:5254   */\n      mstore\n        /* \"#utility.yul\":5271:5402   */\n      tag_388\n        /* \"#utility.yul\":5397:5401   */\n      dup2\n        /* \"#utility.yul\":5271:5402   */\n      tag_290\n      jump\t// in\n    tag_388:\n        /* \"#utility.yul\":5263:5402   */\n      swap1\n      pop\n        /* \"#utility.yul\":4990:5409   */\n      swap2\n      swap1\n      pop\n      jump\t// out\n        /* \"#utility.yul\":5415:5558   */\n    tag_291:\n        /* \"#utility.yul\":5472:5477   */\n      0x00\n        /* \"#utility.yul\":5503:5509   */\n      dup2\n        /* \"#utility.yul\":5497:5510   */\n      mload\n        /* \"#utility.yul\":5488:5510   */\n      swap1\n      pop\n        /* \"#utility.yul\":5519:5552   */\n      tag_390\n        /* \"#utility.yul\":5546:5551   */\n      dup2\n        /* \"#utility.yul\":5519:5552   */\n      tag_280\n      jump\t// in\n    tag_390:\n        /* \"#utility.yul\":5415:5558   */\n      swap3\n      swap2\n      pop\n      pop\n      jump\t// out\n        /* \"#utility.yul\":5564:5915   */\n    tag_59:\n        /* \"#utility.yul\":5634:5640   */\n      0x00\n        /* \"#utility.yul\":5683:5685   */\n      0x20\n        /* \"#utility.yul\":5671:5680   */\n      dup3\n        /* \"#utility.yul\":5662:5669   */\n      dup5\n        /* \"#utility.yul\":5658:5681   */\n      sub\n        /* \"#utility.yul\":5654:5686   */\n      slt\n        /* \"#utility.yul\":5651:5770   */\n      iszero\n      tag_392\n      jumpi\n        /* \"#utility.yul\":5689:5768   */\n      tag_393\n      tag_274\n      jump\t// in\n    tag_393:\n        /* \"#utility.yul\":5651:5770   */\n    tag_392:\n        /* \"#utility.yul\":5809:5810   */\n      0x00\n        /* \"#utility.yul\":5834:5898   */\n      tag_394\n        /* \"#utility.yul\":5890:5897   */\n      dup5\n        /* \"#utility.yul\":5881:5887   */\n      dup3\n        /* \"#utility.yul\":5870:5879   */\n      dup6\n        /* \"#utility.yul\":5866:5888   */\n      add\n        /* \"#utility.yul\":5834:5898   */\n      tag_291\n      jump\t// in\n    tag_394:\n        /* \"#utility.yul\":5824:5898   */\n      swap2\n      pop\n        /* \"#utility.yul\":5780:5908   */\n      pop\n        /* \"#utility.yul\":5564:5915   */\n      swap3\n      swap2\n      pop\n      pop\n      jump\t// out\n        /* \"#utility.yul\":5921:6253   */\n    tag_61:\n        /* \"#utility.yul\":6042:6046   */\n      0x00\n        /* \"#utility.yul\":6080:6082   */\n      0x40\n        /* \"#utility.yul\":6069:6078   */\n      dup3\n        /* \"#utility.yul\":6065:6083   */\n      add\n        /* \"#utility.yul\":6057:6083   */\n      swap1\n      pop\n        /* \"#utility.yul\":6093:6164   */\n      tag_396\n        /* \"#utility.yul\":6161:6162   */\n      0x00\n        /* \"#utility.yul\":6150:6159   */\n      dup4\n        /* \"#utility.yul\":6146:6163   */\n      add\n        /* \"#utility.yul\":6137:6143   */\n      dup6\n        /* \"#utility.yul\":6093:6164   */\n      tag_272\n      jump\t// in\n    tag_396:\n        /* \"#utility.yul\":6174:6246   */\n      tag_397\n        /* \"#utility.yul\":6242:6244   */\n      0x20\n        /* \"#utility.yul\":6231:6240   */\n      dup4\n        /* \"#utility.yul\":6227:6245   */\n      add\n        /* \"#utility.yul\":6218:6224   */\n      dup5\n        /* \"#utility.yul\":6174:6246   */\n      tag_282\n      jump\t// in\n    tag_397:\n        /* \"#utility.yul\":5921:6253   */\n      swap4\n      swap3\n      pop\n      pop\n      pop\n      jump\t// out\n        /* \"#utility.yul\":6259:6349   */\n    tag_292:\n        /* \"#utility.yul\":6293:6300   */\n      0x00\n        /* \"#utility.yul\":6336:6341   */\n      dup2\n        /* \"#utility.yul\":6329:6342   */\n      iszero\n        /* \"#utility.yul\":6322:6343   */\n      iszero\n        /* \"#utility.yul\":6311:6343   */\n      swap1\n      pop\n        /* \"#utility.yul\":6259:6349   */\n      swap2\n      swap1\n      pop\n      jump\t// out\n        /* \"#utility.yul\":6355:6471   */\n    tag_293:\n        /* \"#utility.yul\":6425:6446   */\n      tag_400\n        /* \"#utility.yul\":6440:6445   */\n      dup2\n        /* \"#utility.yul\":6425:6446   */\n      tag_292\n      jump\t// in\n    tag_400:\n        /* \"#utility.yul\":6418:6423   */\n      dup2\n        /* \"#utility.yul\":6415:6447   */\n      eq\n        /* \"#utility.yul\":6405:6465   */\n      tag_401\n      jumpi\n        /* \"#utility.yul\":6461:6462   */\n      0x00\n        /* \"#utility.yul\":6458:6459   */\n      dup1\n        /* \"#utility.yul\":6451:6463   */\n      revert\n        /* \"#utility.yul\":6405:6465   */\n    tag_401:\n        /* \"#utility.yul\":6355:6471   */\n      pop\n      jump\t// out\n        /* \"#utility.yul\":6477:6614   */\n    tag_294:\n        /* \"#utility.yul\":6531:6536   */\n      0x00\n        /* \"#utility.yul\":6562:6568   */\n      dup2\n        /* \"#utility.yul\":6556:6569   */\n      mload\n        /* \"#utility.yul\":6547:6569   */\n      swap1\n      pop\n        /* \"#utility.yul\":6578:6608   */\n      tag_403\n        /* \"#utility.yul\":6602:6607   */\n      dup2\n        /* \"#utility.yul\":6578:6608   */\n      tag_293\n      jump\t// in\n    tag_403:\n        /* \"#utility.yul\":6477:6614   */\n      swap3\n      swap2\n      pop\n      pop\n      jump\t// out\n        /* \"#utility.yul\":6620:6965   */\n    tag_65:\n        /* \"#utility.yul\":6687:6693   */\n      0x00\n        /* \"#utility.yul\":6736:6738   */\n      0x20\n        /* \"#utility.yul\":6724:6733   */\n      dup3\n        /* \"#utility.yul\":6715:6722   */\n      dup5\n        /* \"#utility.yul\":6711:6734   */\n      sub\n        /* \"#utility.yul\":6707:6739   */\n      slt\n        /* \"#utility.yul\":6704:6823   */\n      iszero\n      tag_405\n      jumpi\n        /* \"#utility.yul\":6742:6821   */\n      tag_406\n      tag_274\n      jump\t// in\n    tag_406:\n        /* \"#utility.yul\":6704:6823   */\n    tag_405:\n        /* \"#utility.yul\":6862:6863   */\n      0x00\n        /* \"#utility.yul\":6887:6948   */\n      tag_407\n        /* \"#utility.yul\":6940:6947   */\n      dup5\n        /* \"#utility.yul\":6931:6937   */\n      dup3\n        /* \"#utility.yul\":6920:6929   */\n      dup6\n        /* \"#utility.yul\":6916:6938   */\n      add\n        /* \"#utility.yul\":6887:6948   */\n      tag_294\n      jump\t// in\n    tag_407:\n        /* \"#utility.yul\":6877:6948   */\n      swap2\n      pop\n        /* \"#utility.yul\":6833:6958   */\n      pop\n        /* \"#utility.yul\":6620:6965   */\n      swap3\n      swap2\n      pop\n      pop\n      jump\t// out\n        /* \"#utility.yul\":6971:7139   */\n    tag_295:\n        /* \"#utility.yul\":7111:7131   */\n      0x556e61626c6520746f207472616e736665720000000000000000000000000000\n        /* \"#utility.yul\":7107:7108   */\n      0x00\n        /* \"#utility.yul\":7099:7105   */\n      dup3\n        /* \"#utility.yul\":7095:7109   */\n      add\n        /* \"#utility.yul\":7088:7132   */\n      mstore\n        /* \"#utility.yul\":6971:7139   */\n      pop\n      jump\t// out\n        /* \"#utility.yul\":7145:7511   */\n    tag_296:\n        /* \"#utility.yul\":7287:7290   */\n      0x00\n        /* \"#utility.yul\":7308:7375   */\n      tag_410\n        /* \"#utility.yul\":7372:7374   */\n      0x12\n        /* \"#utility.yul\":7367:7370   */\n      dup4\n        /* \"#utility.yul\":7308:7375   */\n      tag_288\n      jump\t// in\n    tag_410:\n        /* \"#utility.yul\":7301:7375   */\n      swap2\n      pop\n        /* \"#utility.yul\":7384:7477   */\n      tag_411\n        /* \"#utility.yul\":7473:7476   */\n      dup3\n        /* \"#utility.yul\":7384:7477   */\n      tag_295\n      jump\t// in\n    tag_411:\n        /* \"#utility.yul\":7502:7504   */\n      0x20\n        /* \"#utility.yul\":7497:7500   */\n      dup3\n        /* \"#utility.yul\":7493:7505   */\n      add\n        /* \"#utility.yul\":7486:7505   */\n      swap1\n      pop\n        /* \"#utility.yul\":7145:7511   */\n      swap2\n      swap1\n      pop\n      jump\t// out\n        /* \"#utility.yul\":7517:7936   */\n    tag_68:\n        /* \"#utility.yul\":7683:7687   */\n      0x00\n        /* \"#utility.yul\":7721:7723   */\n      0x20\n        /* \"#utility.yul\":7710:7719   */\n      dup3\n        /* \"#utility.yul\":7706:7724   */\n      add\n        /* \"#utility.yul\":7698:7724   */\n      swap1\n      pop\n        /* \"#utility.yul\":7770:7779   */\n      dup2\n        /* \"#utility.yul\":7764:7768   */\n      dup2\n        /* \"#utility.yul\":7760:7780   */\n      sub\n        /* \"#utility.yul\":7756:7757   */\n      0x00\n        /* \"#utility.yul\":7745:7754   */\n      dup4\n        /* \"#utility.yul\":7741:7758   */\n      add\n        /* \"#utility.yul\":7734:7781   */\n      mstore\n        /* \"#utility.yul\":7798:7929   */\n      tag_413\n        /* \"#utility.yul\":7924:7928   */\n      dup2\n        /* \"#utility.yul\":7798:7929   */\n      tag_296\n      jump\t// in\n    tag_413:\n        /* \"#utility.yul\":7790:7929   */\n      swap1\n      pop\n        /* \"#utility.yul\":7517:7936   */\n      swap2\n      swap1\n      pop\n      jump\t// out\n        /* \"#utility.yul\":7942:8169   */\n    tag_297:\n        /* \"#utility.yul\":8082:8116   */\n      0x536f75726365206d75737420626520746865206f7261636c65206f6620746865\n        /* \"#utility.yul\":8078:8079   */\n      0x00\n        /* \"#utility.yul\":8070:8076   */\n      dup3\n        /* \"#utility.yul\":8066:8080   */\n      add\n        /* \"#utility.yul\":8059:8117   */\n      mstore\n        /* \"#utility.yul\":8151:8161   */\n      0x2072657175657374000000000000000000000000000000000000000000000000\n        /* \"#utility.yul\":8146:8148   */\n      0x20\n        /* \"#utility.yul\":8138:8144   */\n      dup3\n        /* \"#utility.yul\":8134:8149   */\n      add\n        /* \"#utility.yul\":8127:8162   */\n      mstore\n        /* \"#utility.yul\":7942:8169   */\n      pop\n      jump\t// out\n        /* \"#utility.yul\":8175:8541   */\n    tag_298:\n        /* \"#utility.yul\":8317:8320   */\n      0x00\n        /* \"#utility.yul\":8338:8405   */\n      tag_416\n        /* \"#utility.yul\":8402:8404   */\n      0x28\n        /* \"#utility.yul\":8397:8400   */\n      dup4\n        /* \"#utility.yul\":8338:8405   */\n      tag_288\n      jump\t// in\n    tag_416:\n        /* \"#utility.yul\":8331:8405   */\n      swap2\n      pop\n        /* \"#utility.yul\":8414:8507   */\n      tag_417\n        /* \"#utility.yul\":8503:8506   */\n      dup3\n        /* \"#utility.yul\":8414:8507   */\n      tag_297\n      jump\t// in\n    tag_417:\n        /* \"#utility.yul\":8532:8534   */\n      0x40\n        /* \"#utility.yul\":8527:8530   */\n      dup3\n        /* \"#utility.yul\":8523:8535   */\n      add\n        /* \"#utility.yul\":8516:8535   */\n      swap1\n      pop\n        /* \"#utility.yul\":8175:8541   */\n      swap2\n      swap1\n      pop\n      jump\t// out\n        /* \"#utility.yul\":8547:8966   */\n    tag_72:\n        /* \"#utility.yul\":8713:8717   */\n      0x00\n        /* \"#utility.yul\":8751:8753   */\n      0x20\n        /* \"#utility.yul\":8740:8749   */\n      dup3\n        /* \"#utility.yul\":8736:8754   */\n      add\n        /* \"#utility.yul\":8728:8754   */\n      swap1\n      pop\n        /* \"#utility.yul\":8800:8809   */\n      dup2\n        /* \"#utility.yul\":8794:8798   */\n      dup2\n        /* \"#utility.yul\":8790:8810   */\n      sub\n        /* \"#utility.yul\":8786:8787   */\n      0x00\n        /* \"#utility.yul\":8775:8784   */\n      dup4\n        /* \"#utility.yul\":8771:8788   */\n      add\n        /* \"#utility.yul\":8764:8811   */\n      mstore\n        /* \"#utility.yul\":8828:8959   */\n      tag_419\n        /* \"#utility.yul\":8954:8958   */\n      dup2\n        /* \"#utility.yul\":8828:8959   */\n      tag_298\n      jump\t// in\n    tag_419:\n        /* \"#utility.yul\":8820:8959   */\n      swap1\n      pop\n        /* \"#utility.yul\":8547:8966   */\n      swap2\n      swap1\n      pop\n      jump\t// out\n        /* \"#utility.yul\":8972:9152   */\n    tag_299:\n        /* \"#utility.yul\":9020:9097   */\n      0x4e487b7100000000000000000000000000000000000000000000000000000000\n        /* \"#utility.yul\":9017:9018   */\n      0x00\n        /* \"#utility.yul\":9010:9098   */\n      mstore\n        /* \"#utility.yul\":9117:9121   */\n      0x11\n        /* \"#utility.yul\":9114:9115   */\n      0x04\n        /* \"#utility.yul\":9107:9122   */\n      mstore\n        /* \"#utility.yul\":9141:9145   */\n      0x24\n        /* \"#utility.yul\":9138:9139   */\n      0x00\n        /* \"#utility.yul\":9131:9146   */\n      revert\n        /* \"#utility.yul\":9158:9568   */\n    tag_86:\n        /* \"#utility.yul\":9198:9205   */\n      0x00\n        /* \"#utility.yul\":9221:9241   */\n      tag_422\n        /* \"#utility.yul\":9239:9240   */\n      dup3\n        /* \"#utility.yul\":9221:9241   */\n      tag_279\n      jump\t// in\n    tag_422:\n        /* \"#utility.yul\":9216:9241   */\n      swap2\n      pop\n        /* \"#utility.yul\":9255:9275   */\n      tag_423\n        /* \"#utility.yul\":9273:9274   */\n      dup4\n        /* \"#utility.yul\":9255:9275   */\n      tag_279\n      jump\t// in\n    tag_423:\n        /* \"#utility.yul\":9250:9275   */\n      swap3\n      pop\n        /* \"#utility.yul\":9310:9311   */\n      dup3\n        /* \"#utility.yul\":9307:9308   */\n      dup3\n        /* \"#utility.yul\":9303:9312   */\n      mul\n        /* \"#utility.yul\":9332:9362   */\n      tag_424\n        /* \"#utility.yul\":9350:9361   */\n      dup2\n        /* \"#utility.yul\":9332:9362   */\n      tag_279\n      jump\t// in\n    tag_424:\n        /* \"#utility.yul\":9321:9362   */\n      swap2\n      pop\n        /* \"#utility.yul\":9511:9512   */\n      dup3\n        /* \"#utility.yul\":9502:9509   */\n      dup3\n        /* \"#utility.yul\":9498:9513   */\n      div\n        /* \"#utility.yul\":9495:9496   */\n      dup5\n        /* \"#utility.yul\":9492:9514   */\n      eq\n        /* \"#utility.yul\":9472:9473   */\n      dup4\n        /* \"#utility.yul\":9465:9474   */\n      iszero\n        /* \"#utility.yul\":9445:9528   */\n      or\n        /* \"#utility.yul\":9422:9561   */\n      tag_425\n      jumpi\n        /* \"#utility.yul\":9541:9559   */\n      tag_426\n      tag_299\n      jump\t// in\n    tag_426:\n        /* \"#utility.yul\":9422:9561   */\n    tag_425:\n        /* \"#utility.yul\":9206:9568   */\n      pop\n        /* \"#utility.yul\":9158:9568   */\n      swap3\n      swap2\n      pop\n      pop\n      jump\t// out\n        /* \"#utility.yul\":9574:9754   */\n    tag_300:\n        /* \"#utility.yul\":9622:9699   */\n      0x4e487b7100000000000000000000000000000000000000000000000000000000\n        /* \"#utility.yul\":9619:9620   */\n      0x00\n        /* \"#utility.yul\":9612:9700   */\n      mstore\n        /* \"#utility.yul\":9719:9723   */\n      0x12\n        /* \"#utility.yul\":9716:9717   */\n      0x04\n        /* \"#utility.yul\":9709:9724   */\n      mstore\n        /* \"#utility.yul\":9743:9747   */\n      0x24\n        /* \"#utility.yul\":9740:9741   */\n      0x00\n        /* \"#utility.yul\":9733:9748   */\n      revert\n        /* \"#utility.yul\":9760:9945   */\n    tag_88:\n        /* \"#utility.yul\":9800:9801   */\n      0x00\n        /* \"#utility.yul\":9817:9837   */\n      tag_429\n        /* \"#utility.yul\":9835:9836   */\n      dup3\n        /* \"#utility.yul\":9817:9837   */\n      tag_279\n      jump\t// in\n    tag_429:\n        /* \"#utility.yul\":9812:9837   */\n      swap2\n      pop\n        /* \"#utility.yul\":9851:9871   */\n      tag_430\n        /* \"#utility.yul\":9869:9870   */\n      dup4\n        /* \"#utility.yul\":9851:9871   */\n      tag_279\n      jump\t// in\n    tag_430:\n        /* \"#utility.yul\":9846:9871   */\n      swap3\n      pop\n        /* \"#utility.yul\":9890:9891   */\n      dup3\n        /* \"#utility.yul\":9880:9915   */\n      tag_431\n      jumpi\n        /* \"#utility.yul\":9895:9913   */\n      tag_432\n      tag_300\n      jump\t// in\n    tag_432:\n        /* \"#utility.yul\":9880:9915   */\n    tag_431:\n        /* \"#utility.yul\":9937:9938   */\n      dup3\n        /* \"#utility.yul\":9934:9935   */\n      dup3\n        /* \"#utility.yul\":9930:9939   */\n      div\n        /* \"#utility.yul\":9925:9939   */\n      swap1\n      pop\n        /* \"#utility.yul\":9760:9945   */\n      swap3\n      swap2\n      pop\n      pop\n      jump\t// out\n        /* \"#utility.yul\":9951:10123   */\n    tag_301:\n        /* \"#utility.yul\":10091:10115   */\n      0x4f6e6c792063616c6c61626c65206279206f776e657200000000000000000000\n        /* \"#utility.yul\":10087:10088   */\n      0x00\n        /* \"#utility.yul\":10079:10085   */\n      dup3\n        /* \"#utility.yul\":10075:10089   */\n      add\n        /* \"#utility.yul\":10068:10116   */\n      mstore\n        /* \"#utility.yul\":9951:10123   */\n      pop\n      jump\t// out\n        /* \"#utility.yul\":10129:10495   */\n    tag_302:\n        /* \"#utility.yul\":10271:10274   */\n      0x00\n        /* \"#utility.yul\":10292:10359   */\n      tag_435\n        /* \"#utility.yul\":10356:10358   */\n      0x16\n        /* \"#utility.yul\":10351:10354   */\n      dup4\n        /* \"#utility.yul\":10292:10359   */\n      tag_288\n      jump\t// in\n    tag_435:\n        /* \"#utility.yul\":10285:10359   */\n      swap2\n      pop\n        /* \"#utility.yul\":10368:10461   */\n      tag_436\n        /* \"#utility.yul\":10457:10460   */\n      dup3\n        /* \"#utility.yul\":10368:10461   */\n      tag_301\n      jump\t// in\n    tag_436:\n        /* \"#utility.yul\":10486:10488   */\n      0x20\n        /* \"#utility.yul\":10481:10484   */\n      dup3\n        /* \"#utility.yul\":10477:10489   */\n      add\n        /* \"#utility.yul\":10470:10489   */\n      swap1\n      pop\n        /* \"#utility.yul\":10129:10495   */\n      swap2\n      swap1\n      pop\n      jump\t// out\n        /* \"#utility.yul\":10501:10920   */\n    tag_104:\n        /* \"#utility.yul\":10667:10671   */\n      0x00\n        /* \"#utility.yul\":10705:10707   */\n      0x20\n        /* \"#utility.yul\":10694:10703   */\n      dup3\n        /* \"#utility.yul\":10690:10708   */\n      add\n        /* \"#utility.yul\":10682:10708   */\n      swap1\n      pop\n        /* \"#utility.yul\":10754:10763   */\n      dup2\n        /* \"#utility.yul\":10748:10752   */\n      dup2\n        /* \"#utility.yul\":10744:10764   */\n      sub\n        /* \"#utility.yul\":10740:10741   */\n      0x00\n        /* \"#utility.yul\":10729:10738   */\n      dup4\n        /* \"#utility.yul\":10725:10742   */\n      add\n        /* \"#utility.yul\":10718:10765   */\n      mstore\n        /* \"#utility.yul\":10782:10913   */\n      tag_438\n        /* \"#utility.yul\":10908:10912   */\n      dup2\n        /* \"#utility.yul\":10782:10913   */\n      tag_302\n      jump\t// in\n    tag_438:\n        /* \"#utility.yul\":10774:10913   */\n      swap1\n      pop\n        /* \"#utility.yul\":10501:10920   */\n      swap2\n      swap1\n      pop\n      jump\t// out\n        /* \"#utility.yul\":10926:11044   */\n    tag_303:\n        /* \"#utility.yul\":11013:11037   */\n      tag_440\n        /* \"#utility.yul\":11031:11036   */\n      dup2\n        /* \"#utility.yul\":11013:11037   */\n      tag_276\n      jump\t// in\n    tag_440:\n        /* \"#utility.yul\":11008:11011   */\n      dup3\n        /* \"#utility.yul\":11001:11038   */\n      mstore\n        /* \"#utility.yul\":10926:11044   */\n      pop\n      pop\n      jump\t// out\n        /* \"#utility.yul\":11050:11165   */\n    tag_304:\n        /* \"#utility.yul\":11135:11158   */\n      tag_442\n        /* \"#utility.yul\":11152:11157   */\n      dup2\n        /* \"#utility.yul\":11135:11158   */\n      tag_283\n      jump\t// in\n    tag_442:\n        /* \"#utility.yul\":11130:11133   */\n      dup3\n        /* \"#utility.yul\":11123:11159   */\n      mstore\n        /* \"#utility.yul\":11050:11165   */\n      pop\n      pop\n      jump\t// out\n        /* \"#utility.yul\":11171:11720   */\n    tag_124:\n        /* \"#utility.yul\":11346:11350   */\n      0x00\n        /* \"#utility.yul\":11384:11387   */\n      0x80\n        /* \"#utility.yul\":11373:11382   */\n      dup3\n        /* \"#utility.yul\":11369:11388   */\n      add\n        /* \"#utility.yul\":11361:11388   */\n      swap1\n      pop\n        /* \"#utility.yul\":11398:11469   */\n      tag_444\n        /* \"#utility.yul\":11466:11467   */\n      0x00\n        /* \"#utility.yul\":11455:11464   */\n      dup4\n        /* \"#utility.yul\":11451:11468   */\n      add\n        /* \"#utility.yul\":11442:11448   */\n      dup8\n        /* \"#utility.yul\":11398:11469   */\n      tag_303\n      jump\t// in\n    tag_444:\n        /* \"#utility.yul\":11479:11551   */\n      tag_445\n        /* \"#utility.yul\":11547:11549   */\n      0x20\n        /* \"#utility.yul\":11536:11545   */\n      dup4\n        /* \"#utility.yul\":11532:11550   */\n      add\n        /* \"#utility.yul\":11523:11529   */\n      dup7\n        /* \"#utility.yul\":11479:11551   */\n      tag_282\n      jump\t// in\n    tag_445:\n        /* \"#utility.yul\":11561:11631   */\n      tag_446\n        /* \"#utility.yul\":11627:11629   */\n      0x40\n        /* \"#utility.yul\":11616:11625   */\n      dup4\n        /* \"#utility.yul\":11612:11630   */\n      add\n        /* \"#utility.yul\":11603:11609   */\n      dup6\n        /* \"#utility.yul\":11561:11631   */\n      tag_304\n      jump\t// in\n    tag_446:\n        /* \"#utility.yul\":11641:11713   */\n      tag_447\n        /* \"#utility.yul\":11709:11711   */\n      0x60\n        /* \"#utility.yul\":11698:11707   */\n      dup4\n        /* \"#utility.yul\":11694:11712   */\n      add\n        /* \"#utility.yul\":11685:11691   */\n      dup5\n        /* \"#utility.yul\":11641:11713   */\n      tag_282\n      jump\t// in\n    tag_447:\n        /* \"#utility.yul\":11171:11720   */\n      swap6\n      swap5\n      pop\n      pop\n      pop\n      pop\n      pop\n      jump\t// out\n        /* \"#utility.yul\":11726:11899   */\n    tag_305:\n        /* \"#utility.yul\":11866:11891   */\n      0x43616e6e6f74207472616e7366657220746f2073656c66000000000000000000\n        /* \"#utility.yul\":11862:11863   */\n      0x00\n        /* \"#utility.yul\":11854:11860   */\n      dup3\n        /* \"#utility.yul\":11850:11864   */\n      add\n        /* \"#utility.yul\":11843:11892   */\n      mstore\n        /* \"#utility.yul\":11726:11899   */\n      pop\n      jump\t// out\n        /* \"#utility.yul\":11905:12271   */\n    tag_306:\n        /* \"#utility.yul\":12047:12050   */\n      0x00\n        /* \"#utility.yul\":12068:12135   */\n      tag_450\n        /* \"#utility.yul\":12132:12134   */\n      0x17\n        /* \"#utility.yul\":12127:12130   */\n      dup4\n        /* \"#utility.yul\":12068:12135   */\n      tag_288\n      jump\t// in\n    tag_450:\n        /* \"#utility.yul\":12061:12135   */\n      swap2\n      pop\n        /* \"#utility.yul\":12144:12237   */\n      tag_451\n        /* \"#utility.yul\":12233:12236   */\n      dup3\n        /* \"#utility.yul\":12144:12237   */\n      tag_305\n      jump\t// in\n    tag_451:\n        /* \"#utility.yul\":12262:12264   */\n      0x20\n        /* \"#utility.yul\":12257:12260   */\n      dup3\n        /* \"#utility.yul\":12253:12265   */\n      add\n        /* \"#utility.yul\":12246:12265   */\n      swap1\n      pop\n        /* \"#utility.yul\":11905:12271   */\n      swap2\n      swap1\n      pop\n      jump\t// out\n        /* \"#utility.yul\":12277:12696   */\n    tag_131:\n        /* \"#utility.yul\":12443:12447   */\n      0x00\n        /* \"#utility.yul\":12481:12483   */\n      0x20\n        /* \"#utility.yul\":12470:12479   */\n      dup3\n        /* \"#utility.yul\":12466:12484   */\n      add\n        /* \"#utility.yul\":12458:12484   */\n      swap1\n      pop\n        /* \"#utility.yul\":12530:12539   */\n      dup2\n        /* \"#utility.yul\":12524:12528   */\n      dup2\n        /* \"#utility.yul\":12520:12540   */\n      sub\n        /* \"#utility.yul\":12516:12517   */\n      0x00\n        /* \"#utility.yul\":12505:12514   */\n      dup4\n        /* \"#utility.yul\":12501:12518   */\n      add\n        /* \"#utility.yul\":12494:12541   */\n      mstore\n        /* \"#utility.yul\":12558:12689   */\n      tag_453\n        /* \"#utility.yul\":12684:12688   */\n      dup2\n        /* \"#utility.yul\":12558:12689   */\n      tag_306\n      jump\t// in\n    tag_453:\n        /* \"#utility.yul\":12550:12689   */\n      swap1\n      pop\n        /* \"#utility.yul\":12277:12696   */\n      swap2\n      swap1\n      pop\n      jump\t// out\n        /* \"#utility.yul\":12702:12778   */\n    tag_307:\n        /* \"#utility.yul\":12738:12745   */\n      0x00\n        /* \"#utility.yul\":12767:12772   */\n      dup2\n        /* \"#utility.yul\":12756:12772   */\n      swap1\n      pop\n        /* \"#utility.yul\":12702:12778   */\n      swap2\n      swap1\n      pop\n      jump\t// out\n        /* \"#utility.yul\":12784:13156   */\n    tag_155:\n        /* \"#utility.yul\":12823:12827   */\n      0x00\n        /* \"#utility.yul\":12843:12862   */\n      tag_456\n        /* \"#utility.yul\":12860:12861   */\n      dup3\n        /* \"#utility.yul\":12843:12862   */\n      tag_307\n      jump\t// in\n    tag_456:\n        /* \"#utility.yul\":12838:12862   */\n      swap2\n      pop\n        /* \"#utility.yul\":12876:12895   */\n      tag_457\n        /* \"#utility.yul\":12893:12894   */\n      dup4\n        /* \"#utility.yul\":12876:12895   */\n      tag_307\n      jump\t// in\n    tag_457:\n        /* \"#utility.yul\":12871:12895   */\n      swap3\n      pop\n        /* \"#utility.yul\":12919:12920   */\n      dup3\n        /* \"#utility.yul\":12916:12917   */\n      dup3\n        /* \"#utility.yul\":12912:12921   */\n      sub\n        /* \"#utility.yul\":12904:12921   */\n      swap1\n      pop\n        /* \"#utility.yul\":13113:13114   */\n      dup2\n        /* \"#utility.yul\":13107:13111   */\n      dup2\n        /* \"#utility.yul\":13103:13115   */\n      slt\n        /* \"#utility.yul\":13099:13100   */\n      0x00\n        /* \"#utility.yul\":13096:13097   */\n      dup5\n        /* \"#utility.yul\":13092:13101   */\n      slt\n        /* \"#utility.yul\":13088:13116   */\n      and\n        /* \"#utility.yul\":13071:13072   */\n      dup3\n        /* \"#utility.yul\":13065:13069   */\n      dup3\n        /* \"#utility.yul\":13061:13073   */\n      sgt\n        /* \"#utility.yul\":13056:13057   */\n      0x00\n        /* \"#utility.yul\":13053:13054   */\n      dup6\n        /* \"#utility.yul\":13049:13058   */\n      slt\n        /* \"#utility.yul\":13042:13059   */\n      iszero\n        /* \"#utility.yul\":13038:13074   */\n      and\n        /* \"#utility.yul\":13022:13126   */\n      or\n        /* \"#utility.yul\":13019:13149   */\n      iszero\n      tag_458\n      jumpi\n        /* \"#utility.yul\":13129:13147   */\n      tag_459\n      tag_299\n      jump\t// in\n    tag_459:\n        /* \"#utility.yul\":13019:13149   */\n    tag_458:\n        /* \"#utility.yul\":12784:13156   */\n      swap3\n      swap2\n      pop\n      pop\n      jump\t// out\n        /* \"#utility.yul\":13162:13353   */\n    tag_158:\n        /* \"#utility.yul\":13202:13205   */\n      0x00\n        /* \"#utility.yul\":13221:13241   */\n      tag_461\n        /* \"#utility.yul\":13239:13240   */\n      dup3\n        /* \"#utility.yul\":13221:13241   */\n      tag_279\n      jump\t// in\n    tag_461:\n        /* \"#utility.yul\":13216:13241   */\n      swap2\n      pop\n        /* \"#utility.yul\":13255:13275   */\n      tag_462\n        /* \"#utility.yul\":13273:13274   */\n      dup4\n        /* \"#utility.yul\":13255:13275   */\n      tag_279\n      jump\t// in\n    tag_462:\n        /* \"#utility.yul\":13250:13275   */\n      swap3\n      pop\n        /* \"#utility.yul\":13298:13299   */\n      dup3\n        /* \"#utility.yul\":13295:13296   */\n      dup3\n        /* \"#utility.yul\":13291:13300   */\n      add\n        /* \"#utility.yul\":13284:13300   */\n      swap1\n      pop\n        /* \"#utility.yul\":13319:13322   */\n      dup1\n        /* \"#utility.yul\":13316:13317   */\n      dup3\n        /* \"#utility.yul\":13313:13323   */\n      gt\n        /* \"#utility.yul\":13310:13346   */\n      iszero\n      tag_463\n      jumpi\n        /* \"#utility.yul\":13326:13344   */\n      tag_464\n      tag_299\n      jump\t// in\n    tag_464:\n        /* \"#utility.yul\":13310:13346   */\n    tag_463:\n        /* \"#utility.yul\":13162:13353   */\n      swap3\n      swap2\n      pop\n      pop\n      jump\t// out\n        /* \"#utility.yul\":13359:13457   */\n    tag_308:\n        /* \"#utility.yul\":13410:13416   */\n      0x00\n        /* \"#utility.yul\":13444:13449   */\n      dup2\n        /* \"#utility.yul\":13438:13450   */\n      mload\n        /* \"#utility.yul\":13428:13450   */\n      swap1\n      pop\n        /* \"#utility.yul\":13359:13457   */\n      swap2\n      swap1\n      pop\n      jump\t// out\n        /* \"#utility.yul\":13463:13631   */\n    tag_309:\n        /* \"#utility.yul\":13546:13557   */\n      0x00\n        /* \"#utility.yul\":13580:13586   */\n      dup3\n        /* \"#utility.yul\":13575:13578   */\n      dup3\n        /* \"#utility.yul\":13568:13587   */\n      mstore\n        /* \"#utility.yul\":13620:13624   */\n      0x20\n        /* \"#utility.yul\":13615:13618   */\n      dup3\n        /* \"#utility.yul\":13611:13625   */\n      add\n        /* \"#utility.yul\":13596:13625   */\n      swap1\n      pop\n        /* \"#utility.yul\":13463:13631   */\n      swap3\n      swap2\n      pop\n      pop\n      jump\t// out\n        /* \"#utility.yul\":13637:13883   */\n    tag_310:\n        /* \"#utility.yul\":13718:13719   */\n      0x00\n        /* \"#utility.yul\":13728:13841   */\n    tag_468:\n        /* \"#utility.yul\":13742:13748   */\n      dup4\n        /* \"#utility.yul\":13739:13740   */\n      dup2\n        /* \"#utility.yul\":13736:13749   */\n      lt\n        /* \"#utility.yul\":13728:13841   */\n      iszero\n      tag_470\n      jumpi\n        /* \"#utility.yul\":13827:13828   */\n      dup1\n        /* \"#utility.yul\":13822:13825   */\n      dup3\n        /* \"#utility.yul\":13818:13829   */\n      add\n        /* \"#utility.yul\":13812:13830   */\n      mload\n        /* \"#utility.yul\":13808:13809   */\n      dup2\n        /* \"#utility.yul\":13803:13806   */\n      dup5\n        /* \"#utility.yul\":13799:13810   */\n      add\n        /* \"#utility.yul\":13792:13831   */\n      mstore\n        /* \"#utility.yul\":13764:13766   */\n      0x20\n        /* \"#utility.yul\":13761:13762   */\n      dup2\n        /* \"#utility.yul\":13757:13767   */\n      add\n        /* \"#utility.yul\":13752:13767   */\n      swap1\n      pop\n        /* \"#utility.yul\":13728:13841   */\n      jump(tag_468)\n    tag_470:\n        /* \"#utility.yul\":13875:13876   */\n      0x00\n        /* \"#utility.yul\":13866:13872   */\n      dup5\n        /* \"#utility.yul\":13861:13864   */\n      dup5\n        /* \"#utility.yul\":13857:13873   */\n      add\n        /* \"#utility.yul\":13850:13877   */\n      mstore\n        /* \"#utility.yul\":13699:13883   */\n      pop\n        /* \"#utility.yul\":13637:13883   */\n      pop\n      pop\n      pop\n      jump\t// out\n        /* \"#utility.yul\":13889:13991   */\n    tag_311:\n        /* \"#utility.yul\":13930:13936   */\n      0x00\n        /* \"#utility.yul\":13981:13983   */\n      0x1f\n        /* \"#utility.yul\":13977:13984   */\n      not\n        /* \"#utility.yul\":13972:13974   */\n      0x1f\n        /* \"#utility.yul\":13965:13970   */\n      dup4\n        /* \"#utility.yul\":13961:13975   */\n      add\n        /* \"#utility.yul\":13957:13985   */\n      and\n        /* \"#utility.yul\":13947:13985   */\n      swap1\n      pop\n        /* \"#utility.yul\":13889:13991   */\n      swap2\n      swap1\n      pop\n      jump\t// out\n        /* \"#utility.yul\":13997:14370   */\n    tag_312:\n        /* \"#utility.yul\":14083:14086   */\n      0x00\n        /* \"#utility.yul\":14111:14149   */\n      tag_473\n        /* \"#utility.yul\":14143:14148   */\n      dup3\n        /* \"#utility.yul\":14111:14149   */\n      tag_308\n      jump\t// in\n    tag_473:\n        /* \"#utility.yul\":14165:14235   */\n      tag_474\n        /* \"#utility.yul\":14228:14234   */\n      dup2\n        /* \"#utility.yul\":14223:14226   */\n      dup6\n        /* \"#utility.yul\":14165:14235   */\n      tag_309\n      jump\t// in\n    tag_474:\n        /* \"#utility.yul\":14158:14235   */\n      swap4\n      pop\n        /* \"#utility.yul\":14244:14309   */\n      tag_475\n        /* \"#utility.yul\":14302:14308   */\n      dup2\n        /* \"#utility.yul\":14297:14300   */\n      dup6\n        /* \"#utility.yul\":14290:14294   */\n      0x20\n        /* \"#utility.yul\":14283:14288   */\n      dup7\n        /* \"#utility.yul\":14279:14295   */\n      add\n        /* \"#utility.yul\":14244:14309   */\n      tag_310\n      jump\t// in\n    tag_475:\n        /* \"#utility.yul\":14334:14363   */\n      tag_476\n        /* \"#utility.yul\":14356:14362   */\n      dup2\n        /* \"#utility.yul\":14334:14363   */\n      tag_311\n      jump\t// in\n    tag_476:\n        /* \"#utility.yul\":14329:14332   */\n      dup5\n        /* \"#utility.yul\":14325:14364   */\n      add\n        /* \"#utility.yul\":14318:14364   */\n      swap2\n      pop\n        /* \"#utility.yul\":14087:14370   */\n      pop\n        /* \"#utility.yul\":13997:14370   */\n      swap3\n      swap2\n      pop\n      pop\n      jump\t// out\n        /* \"#utility.yul\":14376:15456   */\n    tag_160:\n        /* \"#utility.yul\":14681:14685   */\n      0x00\n        /* \"#utility.yul\":14719:14722   */\n      0x0100\n        /* \"#utility.yul\":14708:14717   */\n      dup3\n        /* \"#utility.yul\":14704:14723   */\n      add\n        /* \"#utility.yul\":14696:14723   */\n      swap1\n      pop\n        /* \"#utility.yul\":14733:14804   */\n      tag_478\n        /* \"#utility.yul\":14801:14802   */\n      0x00\n        /* \"#utility.yul\":14790:14799   */\n      dup4\n        /* \"#utility.yul\":14786:14803   */\n      add\n        /* \"#utility.yul\":14777:14783   */\n      dup12\n        /* \"#utility.yul\":14733:14804   */\n      tag_272\n      jump\t// in\n    tag_478:\n        /* \"#utility.yul\":14814:14886   */\n      tag_479\n        /* \"#utility.yul\":14882:14884   */\n      0x20\n        /* \"#utility.yul\":14871:14880   */\n      dup4\n        /* \"#utility.yul\":14867:14885   */\n      add\n        /* \"#utility.yul\":14858:14864   */\n      dup11\n        /* \"#utility.yul\":14814:14886   */\n      tag_282\n      jump\t// in\n    tag_479:\n        /* \"#utility.yul\":14896:14968   */\n      tag_480\n        /* \"#utility.yul\":14964:14966   */\n      0x40\n        /* \"#utility.yul\":14953:14962   */\n      dup4\n        /* \"#utility.yul\":14949:14967   */\n      add\n        /* \"#utility.yul\":14940:14946   */\n      dup10\n        /* \"#utility.yul\":14896:14968   */\n      tag_303\n      jump\t// in\n    tag_480:\n        /* \"#utility.yul\":14978:15050   */\n      tag_481\n        /* \"#utility.yul\":15046:15048   */\n      0x60\n        /* \"#utility.yul\":15035:15044   */\n      dup4\n        /* \"#utility.yul\":15031:15049   */\n      add\n        /* \"#utility.yul\":15022:15028   */\n      dup9\n        /* \"#utility.yul\":14978:15050   */\n      tag_272\n      jump\t// in\n    tag_481:\n        /* \"#utility.yul\":15060:15131   */\n      tag_482\n        /* \"#utility.yul\":15126:15129   */\n      0x80\n        /* \"#utility.yul\":15115:15124   */\n      dup4\n        /* \"#utility.yul\":15111:15130   */\n      add\n        /* \"#utility.yul\":15102:15108   */\n      dup8\n        /* \"#utility.yul\":15060:15131   */\n      tag_304\n      jump\t// in\n    tag_482:\n        /* \"#utility.yul\":15141:15214   */\n      tag_483\n        /* \"#utility.yul\":15209:15212   */\n      0xa0\n        /* \"#utility.yul\":15198:15207   */\n      dup4\n        /* \"#utility.yul\":15194:15213   */\n      add\n        /* \"#utility.yul\":15185:15191   */\n      dup7\n        /* \"#utility.yul\":15141:15214   */\n      tag_282\n      jump\t// in\n    tag_483:\n        /* \"#utility.yul\":15224:15297   */\n      tag_484\n        /* \"#utility.yul\":15292:15295   */\n      0xc0\n        /* \"#utility.yul\":15281:15290   */\n      dup4\n        /* \"#utility.yul\":15277:15296   */\n      add\n        /* \"#utility.yul\":15268:15274   */\n      dup6\n        /* \"#utility.yul\":15224:15297   */\n      tag_282\n      jump\t// in\n    tag_484:\n        /* \"#utility.yul\":15345:15354   */\n      dup2\n        /* \"#utility.yul\":15339:15343   */\n      dup2\n        /* \"#utility.yul\":15335:15355   */\n      sub\n        /* \"#utility.yul\":15329:15332   */\n      0xe0\n        /* \"#utility.yul\":15318:15327   */\n      dup4\n        /* \"#utility.yul\":15314:15333   */\n      add\n        /* \"#utility.yul\":15307:15356   */\n      mstore\n        /* \"#utility.yul\":15373:15449   */\n      tag_485\n        /* \"#utility.yul\":15444:15448   */\n      dup2\n        /* \"#utility.yul\":15435:15441   */\n      dup5\n        /* \"#utility.yul\":15373:15449   */\n      tag_312\n      jump\t// in\n    tag_485:\n        /* \"#utility.yul\":15365:15449   */\n      swap1\n      pop\n        /* \"#utility.yul\":14376:15456   */\n      swap10\n      swap9\n      pop\n      pop\n      pop\n      pop\n      pop\n      pop\n      pop\n      pop\n      pop\n      jump\t// out\n        /* \"#utility.yul\":15462:15638   */\n    tag_167:\n        /* \"#utility.yul\":15494:15495   */\n      0x00\n        /* \"#utility.yul\":15511:15531   */\n      tag_487\n        /* \"#utility.yul\":15529:15530   */\n      dup3\n        /* \"#utility.yul\":15511:15531   */\n      tag_279\n      jump\t// in\n    tag_487:\n        /* \"#utility.yul\":15506:15531   */\n      swap2\n      pop\n        /* \"#utility.yul\":15545:15565   */\n      tag_488\n        /* \"#utility.yul\":15563:15564   */\n      dup4\n        /* \"#utility.yul\":15545:15565   */\n      tag_279\n      jump\t// in\n    tag_488:\n        /* \"#utility.yul\":15540:15565   */\n      swap3\n      pop\n        /* \"#utility.yul\":15584:15585   */\n      dup3\n        /* \"#utility.yul\":15574:15609   */\n      tag_489\n      jumpi\n        /* \"#utility.yul\":15589:15607   */\n      tag_490\n      tag_300\n      jump\t// in\n    tag_490:\n        /* \"#utility.yul\":15574:15609   */\n    tag_489:\n        /* \"#utility.yul\":15630:15631   */\n      dup3\n        /* \"#utility.yul\":15627:15628   */\n      dup3\n        /* \"#utility.yul\":15623:15632   */\n      mod\n        /* \"#utility.yul\":15618:15632   */\n      swap1\n      pop\n        /* \"#utility.yul\":15462:15638   */\n      swap3\n      swap2\n      pop\n      pop\n      jump\t// out\n        /* \"#utility.yul\":15644:15838   */\n    tag_171:\n        /* \"#utility.yul\":15684:15688   */\n      0x00\n        /* \"#utility.yul\":15704:15724   */\n      tag_492\n        /* \"#utility.yul\":15722:15723   */\n      dup3\n        /* \"#utility.yul\":15704:15724   */\n      tag_279\n      jump\t// in\n    tag_492:\n        /* \"#utility.yul\":15699:15724   */\n      swap2\n      pop\n        /* \"#utility.yul\":15738:15758   */\n      tag_493\n        /* \"#utility.yul\":15756:15757   */\n      dup4\n        /* \"#utility.yul\":15738:15758   */\n      tag_279\n      jump\t// in\n    tag_493:\n        /* \"#utility.yul\":15733:15758   */\n      swap3\n      pop\n        /* \"#utility.yul\":15782:15783   */\n      dup3\n        /* \"#utility.yul\":15779:15780   */\n      dup3\n        /* \"#utility.yul\":15775:15784   */\n      sub\n        /* \"#utility.yul\":15767:15784   */\n      swap1\n      pop\n        /* \"#utility.yul\":15806:15807   */\n      dup2\n        /* \"#utility.yul\":15800:15804   */\n      dup2\n        /* \"#utility.yul\":15797:15808   */\n      gt\n        /* \"#utility.yul\":15794:15831   */\n      iszero\n      tag_494\n      jumpi\n        /* \"#utility.yul\":15811:15829   */\n      tag_495\n      tag_299\n      jump\t// in\n    tag_495:\n        /* \"#utility.yul\":15794:15831   */\n    tag_494:\n        /* \"#utility.yul\":15644:15838   */\n      swap3\n      swap2\n      pop\n      pop\n      jump\t// out\n        /* \"#utility.yul\":15844:15904   */\n    tag_313:\n        /* \"#utility.yul\":15872:15875   */\n      0x00\n        /* \"#utility.yul\":15893:15898   */\n      dup2\n        /* \"#utility.yul\":15886:15898   */\n      swap1\n      pop\n        /* \"#utility.yul\":15844:15904   */\n      swap2\n      swap1\n      pop\n      jump\t// out\n        /* \"#utility.yul\":15910:16052   */\n    tag_314:\n        /* \"#utility.yul\":15960:15969   */\n      0x00\n        /* \"#utility.yul\":15993:16046   */\n      tag_498\n        /* \"#utility.yul\":16011:16045   */\n      tag_499\n        /* \"#utility.yul\":16020:16044   */\n      tag_500\n        /* \"#utility.yul\":16038:16043   */\n      dup5\n        /* \"#utility.yul\":16020:16044   */\n      tag_270\n      jump\t// in\n    tag_500:\n        /* \"#utility.yul\":16011:16045   */\n      tag_313\n      jump\t// in\n    tag_499:\n        /* \"#utility.yul\":15993:16046   */\n      tag_270\n      jump\t// in\n    tag_498:\n        /* \"#utility.yul\":15980:16046   */\n      swap1\n      pop\n        /* \"#utility.yul\":15910:16052   */\n      swap2\n      swap1\n      pop\n      jump\t// out\n        /* \"#utility.yul\":16058:16184   */\n    tag_315:\n        /* \"#utility.yul\":16108:16117   */\n      0x00\n        /* \"#utility.yul\":16141:16178   */\n      tag_502\n        /* \"#utility.yul\":16172:16177   */\n      dup3\n        /* \"#utility.yul\":16141:16178   */\n      tag_314\n      jump\t// in\n    tag_502:\n        /* \"#utility.yul\":16128:16178   */\n      swap1\n      pop\n        /* \"#utility.yul\":16058:16184   */\n      swap2\n      swap1\n      pop\n      jump\t// out\n        /* \"#utility.yul\":16190:16339   */\n    tag_316:\n        /* \"#utility.yul\":16263:16272   */\n      0x00\n        /* \"#utility.yul\":16296:16333   */\n      tag_504\n        /* \"#utility.yul\":16327:16332   */\n      dup3\n        /* \"#utility.yul\":16296:16333   */\n      tag_315\n      jump\t// in\n    tag_504:\n        /* \"#utility.yul\":16283:16333   */\n      swap1\n      pop\n        /* \"#utility.yul\":16190:16339   */\n      swap2\n      swap1\n      pop\n      jump\t// out\n        /* \"#utility.yul\":16345:16439   */\n    tag_317:\n        /* \"#utility.yul\":16378:16386   */\n      0x00\n        /* \"#utility.yul\":16426:16431   */\n      dup2\n        /* \"#utility.yul\":16422:16424   */\n      0x60\n        /* \"#utility.yul\":16418:16432   */\n      shl\n        /* \"#utility.yul\":16397:16432   */\n      swap1\n      pop\n        /* \"#utility.yul\":16345:16439   */\n      swap2\n      swap1\n      pop\n      jump\t// out\n        /* \"#utility.yul\":16445:16539   */\n    tag_318:\n        /* \"#utility.yul\":16484:16491   */\n      0x00\n        /* \"#utility.yul\":16513:16533   */\n      tag_507\n        /* \"#utility.yul\":16527:16532   */\n      dup3\n        /* \"#utility.yul\":16513:16533   */\n      tag_317\n      jump\t// in\n    tag_507:\n        /* \"#utility.yul\":16502:16533   */\n      swap1\n      pop\n        /* \"#utility.yul\":16445:16539   */\n      swap2\n      swap1\n      pop\n      jump\t// out\n        /* \"#utility.yul\":16545:16645   */\n    tag_319:\n        /* \"#utility.yul\":16584:16591   */\n      0x00\n        /* \"#utility.yul\":16613:16639   */\n      tag_509\n        /* \"#utility.yul\":16633:16638   */\n      dup3\n        /* \"#utility.yul\":16613:16639   */\n      tag_318\n      jump\t// in\n    tag_509:\n        /* \"#utility.yul\":16602:16639   */\n      swap1\n      pop\n        /* \"#utility.yul\":16545:16645   */\n      swap2\n      swap1\n      pop\n      jump\t// out\n        /* \"#utility.yul\":16651:16867   */\n    tag_320:\n        /* \"#utility.yul\":16779:16860   */\n      tag_511\n        /* \"#utility.yul\":16799:16859   */\n      tag_512\n        /* \"#utility.yul\":16853:16858   */\n      dup3\n        /* \"#utility.yul\":16799:16859   */\n      tag_316\n      jump\t// in\n    tag_512:\n        /* \"#utility.yul\":16779:16860   */\n      tag_319\n      jump\t// in\n    tag_511:\n        /* \"#utility.yul\":16774:16777   */\n      dup3\n        /* \"#utility.yul\":16767:16861   */\n      mstore\n        /* \"#utility.yul\":16651:16867   */\n      pop\n      pop\n      jump\t// out\n        /* \"#utility.yul\":16873:16952   */\n    tag_321:\n        /* \"#utility.yul\":16912:16919   */\n      0x00\n        /* \"#utility.yul\":16941:16946   */\n      dup2\n        /* \"#utility.yul\":16930:16946   */\n      swap1\n      pop\n        /* \"#utility.yul\":16873:16952   */\n      swap2\n      swap1\n      pop\n      jump\t// out\n        /* \"#utility.yul\":16958:17115   */\n    tag_322:\n        /* \"#utility.yul\":17063:17108   */\n      tag_515\n        /* \"#utility.yul\":17083:17107   */\n      tag_516\n        /* \"#utility.yul\":17101:17106   */\n      dup3\n        /* \"#utility.yul\":17083:17107   */\n      tag_279\n      jump\t// in\n    tag_516:\n        /* \"#utility.yul\":17063:17108   */\n      tag_321\n      jump\t// in\n    tag_515:\n        /* \"#utility.yul\":17058:17061   */\n      dup3\n        /* \"#utility.yul\":17051:17109   */\n      mstore\n        /* \"#utility.yul\":16958:17115   */\n      pop\n      pop\n      jump\t// out\n        /* \"#utility.yul\":17121:17564   */\n    tag_209:\n        /* \"#utility.yul\":17284:17287   */\n      0x00\n        /* \"#utility.yul\":17299:17397   */\n      tag_518\n        /* \"#utility.yul\":17393:17396   */\n      dup3\n        /* \"#utility.yul\":17384:17390   */\n      dup6\n        /* \"#utility.yul\":17299:17397   */\n      tag_320\n      jump\t// in\n    tag_518:\n        /* \"#utility.yul\":17422:17424   */\n      0x14\n        /* \"#utility.yul\":17417:17420   */\n      dup3\n        /* \"#utility.yul\":17413:17425   */\n      add\n        /* \"#utility.yul\":17406:17425   */\n      swap2\n      pop\n        /* \"#utility.yul\":17435:17510   */\n      tag_519\n        /* \"#utility.yul\":17506:17509   */\n      dup3\n        /* \"#utility.yul\":17497:17503   */\n      dup5\n        /* \"#utility.yul\":17435:17510   */\n      tag_322\n      jump\t// in\n    tag_519:\n        /* \"#utility.yul\":17535:17537   */\n      0x20\n        /* \"#utility.yul\":17530:17533   */\n      dup3\n        /* \"#utility.yul\":17526:17538   */\n      add\n        /* \"#utility.yul\":17519:17538   */\n      swap2\n      pop\n        /* \"#utility.yul\":17555:17558   */\n      dup2\n        /* \"#utility.yul\":17548:17558   */\n      swap1\n      pop\n        /* \"#utility.yul\":17121:17564   */\n      swap4\n      swap3\n      pop\n      pop\n      pop\n      jump\t// out\n        /* \"#utility.yul\":17570:18099   */\n    tag_211:\n        /* \"#utility.yul\":17737:17741   */\n      0x00\n        /* \"#utility.yul\":17775:17777   */\n      0x60\n        /* \"#utility.yul\":17764:17773   */\n      dup3\n        /* \"#utility.yul\":17760:17778   */\n      add\n        /* \"#utility.yul\":17752:17778   */\n      swap1\n      pop\n        /* \"#utility.yul\":17788:17859   */\n      tag_521\n        /* \"#utility.yul\":17856:17857   */\n      0x00\n        /* \"#utility.yul\":17845:17854   */\n      dup4\n        /* \"#utility.yul\":17841:17858   */\n      add\n        /* \"#utility.yul\":17832:17838   */\n      dup7\n        /* \"#utility.yul\":17788:17859   */\n      tag_272\n      jump\t// in\n    tag_521:\n        /* \"#utility.yul\":17869:17941   */\n      tag_522\n        /* \"#utility.yul\":17937:17939   */\n      0x20\n        /* \"#utility.yul\":17926:17935   */\n      dup4\n        /* \"#utility.yul\":17922:17940   */\n      add\n        /* \"#utility.yul\":17913:17919   */\n      dup6\n        /* \"#utility.yul\":17869:17941   */\n      tag_282\n      jump\t// in\n    tag_522:\n        /* \"#utility.yul\":17988:17997   */\n      dup2\n        /* \"#utility.yul\":17982:17986   */\n      dup2\n        /* \"#utility.yul\":17978:17998   */\n      sub\n        /* \"#utility.yul\":17973:17975   */\n      0x40\n        /* \"#utility.yul\":17962:17971   */\n      dup4\n        /* \"#utility.yul\":17958:17976   */\n      add\n        /* \"#utility.yul\":17951:17999   */\n      mstore\n        /* \"#utility.yul\":18016:18092   */\n      tag_523\n        /* \"#utility.yul\":18087:18091   */\n      dup2\n        /* \"#utility.yul\":18078:18084   */\n      dup5\n        /* \"#utility.yul\":18016:18092   */\n      tag_312\n      jump\t// in\n    tag_523:\n        /* \"#utility.yul\":18008:18092   */\n      swap1\n      pop\n        /* \"#utility.yul\":17570:18099   */\n      swap5\n      swap4\n      pop\n      pop\n      pop\n      pop\n      jump\t// out\n        /* \"#utility.yul\":18105:18327   */\n    tag_323:\n        /* \"#utility.yul\":18245:18279   */\n      0x756e61626c6520746f207472616e73666572416e6443616c6c20746f206f7261\n        /* \"#utility.yul\":18241:18242   */\n      0x00\n        /* \"#utility.yul\":18233:18239   */\n      dup3\n        /* \"#utility.yul\":18229:18243   */\n      add\n        /* \"#utility.yul\":18222:18280   */\n      mstore\n        /* \"#utility.yul\":18314:18319   */\n      0x636c650000000000000000000000000000000000000000000000000000000000\n        /* \"#utility.yul\":18309:18311   */\n      0x20\n        /* \"#utility.yul\":18301:18307   */\n      dup3\n        /* \"#utility.yul\":18297:18312   */\n      add\n        /* \"#utility.yul\":18290:18320   */\n      mstore\n        /* \"#utility.yul\":18105:18327   */\n      pop\n      jump\t// out\n        /* \"#utility.yul\":18333:18699   */\n    tag_324:\n        /* \"#utility.yul\":18475:18478   */\n      0x00\n        /* \"#utility.yul\":18496:18563   */\n      tag_526\n        /* \"#utility.yul\":18560:18562   */\n      0x23\n        /* \"#utility.yul\":18555:18558   */\n      dup4\n        /* \"#utility.yul\":18496:18563   */\n      tag_288\n      jump\t// in\n    tag_526:\n        /* \"#utility.yul\":18489:18563   */\n      swap2\n      pop\n        /* \"#utility.yul\":18572:18665   */\n      tag_527\n        /* \"#utility.yul\":18661:18664   */\n      dup3\n        /* \"#utility.yul\":18572:18665   */\n      tag_323\n      jump\t// in\n    tag_527:\n        /* \"#utility.yul\":18690:18692   */\n      0x40\n        /* \"#utility.yul\":18685:18688   */\n      dup3\n        /* \"#utility.yul\":18681:18693   */\n      add\n        /* \"#utility.yul\":18674:18693   */\n      swap1\n      pop\n        /* \"#utility.yul\":18333:18699   */\n      swap2\n      swap1\n      pop\n      jump\t// out\n        /* \"#utility.yul\":18705:19124   */\n    tag_217:\n        /* \"#utility.yul\":18871:18875   */\n      0x00\n        /* \"#utility.yul\":18909:18911   */\n      0x20\n        /* \"#utility.yul\":18898:18907   */\n      dup3\n        /* \"#utility.yul\":18894:18912   */\n      add\n        /* \"#utility.yul\":18886:18912   */\n      swap1\n      pop\n        /* \"#utility.yul\":18958:18967   */\n      dup2\n        /* \"#utility.yul\":18952:18956   */\n      dup2\n        /* \"#utility.yul\":18948:18968   */\n      sub\n        /* \"#utility.yul\":18944:18945   */\n      0x00\n        /* \"#utility.yul\":18933:18942   */\n      dup4\n        /* \"#utility.yul\":18929:18946   */\n      add\n        /* \"#utility.yul\":18922:18969   */\n      mstore\n        /* \"#utility.yul\":18986:19117   */\n      tag_529\n        /* \"#utility.yul\":19112:19116   */\n      dup2\n        /* \"#utility.yul\":18986:19117   */\n      tag_324\n      jump\t// in\n    tag_529:\n        /* \"#utility.yul\":18978:19117   */\n      swap1\n      pop\n        /* \"#utility.yul\":18705:19124   */\n      swap2\n      swap1\n      pop\n      jump\t// out\n        /* \"#utility.yul\":19130:19232   */\n    tag_325:\n        /* \"#utility.yul\":19172:19180   */\n      0x00\n        /* \"#utility.yul\":19219:19224   */\n      dup2\n        /* \"#utility.yul\":19216:19217   */\n      0x01\n        /* \"#utility.yul\":19212:19225   */\n      shr\n        /* \"#utility.yul\":19191:19225   */\n      swap1\n      pop\n        /* \"#utility.yul\":19130:19232   */\n      swap2\n      swap1\n      pop\n      jump\t// out\n        /* \"#utility.yul\":19238:20086   */\n    tag_326:\n        /* \"#utility.yul\":19299:19304   */\n      0x00\n        /* \"#utility.yul\":19306:19310   */\n      dup1\n        /* \"#utility.yul\":19330:19336   */\n      dup3\n        /* \"#utility.yul\":19321:19336   */\n      swap2\n      pop\n        /* \"#utility.yul\":19354:19359   */\n      dup4\n        /* \"#utility.yul\":19345:19359   */\n      swap1\n      pop\n        /* \"#utility.yul\":19368:20080   */\n    tag_532:\n        /* \"#utility.yul\":19389:19390   */\n      0x01\n        /* \"#utility.yul\":19379:19387   */\n      dup6\n        /* \"#utility.yul\":19376:19391   */\n      gt\n        /* \"#utility.yul\":19368:20080   */\n      iszero\n      tag_534\n      jumpi\n        /* \"#utility.yul\":19484:19488   */\n      dup1\n        /* \"#utility.yul\":19479:19482   */\n      dup7\n        /* \"#utility.yul\":19475:19489   */\n      div\n        /* \"#utility.yul\":19469:19473   */\n      dup2\n        /* \"#utility.yul\":19466:19490   */\n      gt\n        /* \"#utility.yul\":19463:19513   */\n      iszero\n      tag_535\n      jumpi\n        /* \"#utility.yul\":19493:19511   */\n      tag_536\n      tag_299\n      jump\t// in\n    tag_536:\n        /* \"#utility.yul\":19463:19513   */\n    tag_535:\n        /* \"#utility.yul\":19543:19544   */\n      0x01\n        /* \"#utility.yul\":19533:19541   */\n      dup6\n        /* \"#utility.yul\":19529:19545   */\n      and\n        /* \"#utility.yul\":19526:19977   */\n      iszero\n      tag_537\n      jumpi\n        /* \"#utility.yul\":19958:19962   */\n      dup1\n        /* \"#utility.yul\":19951:19956   */\n      dup3\n        /* \"#utility.yul\":19947:19963   */\n      mul\n        /* \"#utility.yul\":19938:19963   */\n      swap2\n      pop\n        /* \"#utility.yul\":19526:19977   */\n    tag_537:\n        /* \"#utility.yul\":20008:20012   */\n      dup1\n        /* \"#utility.yul\":20002:20006   */\n      dup2\n        /* \"#utility.yul\":19998:20013   */\n      mul\n        /* \"#utility.yul\":19990:20013   */\n      swap1\n      pop\n        /* \"#utility.yul\":20038:20070   */\n      tag_538\n        /* \"#utility.yul\":20061:20069   */\n      dup6\n        /* \"#utility.yul\":20038:20070   */\n      tag_325\n      jump\t// in\n    tag_538:\n        /* \"#utility.yul\":20026:20070   */\n      swap5\n      pop\n        /* \"#utility.yul\":19368:20080   */\n      jump(tag_532)\n    tag_534:\n        /* \"#utility.yul\":19238:20086   */\n      swap5\n      pop\n      swap5\n      swap3\n      pop\n      pop\n      pop\n      jump\t// out\n        /* \"#utility.yul\":20092:21165   */\n    tag_327:\n        /* \"#utility.yul\":20146:20151   */\n      0x00\n        /* \"#utility.yul\":20337:20345   */\n      dup3\n        /* \"#utility.yul\":20327:20367   */\n      tag_540\n      jumpi\n        /* \"#utility.yul\":20358:20359   */\n      0x01\n        /* \"#utility.yul\":20349:20359   */\n      swap1\n      pop\n        /* \"#utility.yul\":20360:20365   */\n      jump(tag_539)\n        /* \"#utility.yul\":20327:20367   */\n    tag_540:\n        /* \"#utility.yul\":20386:20390   */\n      dup2\n        /* \"#utility.yul\":20376:20412   */\n      tag_541\n      jumpi\n        /* \"#utility.yul\":20403:20404   */\n      0x00\n        /* \"#utility.yul\":20394:20404   */\n      swap1\n      pop\n        /* \"#utility.yul\":20405:20410   */\n      jump(tag_539)\n        /* \"#utility.yul\":20376:20412   */\n    tag_541:\n        /* \"#utility.yul\":20472:20476   */\n      dup2\n        /* \"#utility.yul\":20520:20521   */\n      0x01\n        /* \"#utility.yul\":20515:20542   */\n      dup2\n      eq\n      tag_543\n      jumpi\n        /* \"#utility.yul\":20556:20557   */\n      0x02\n        /* \"#utility.yul\":20551:20742   */\n      dup2\n      eq\n      tag_544\n      jumpi\n        /* \"#utility.yul\":20465:20742   */\n      jump(tag_542)\n        /* \"#utility.yul\":20515:20542   */\n    tag_543:\n        /* \"#utility.yul\":20533:20534   */\n      0x01\n        /* \"#utility.yul\":20524:20534   */\n      swap2\n      pop\n        /* \"#utility.yul\":20535:20540   */\n      pop\n      jump(tag_539)\n        /* \"#utility.yul\":20551:20742   */\n    tag_544:\n        /* \"#utility.yul\":20596:20599   */\n      0xff\n        /* \"#utility.yul\":20586:20594   */\n      dup5\n        /* \"#utility.yul\":20583:20600   */\n      gt\n        /* \"#utility.yul\":20580:20623   */\n      iszero\n      tag_545\n      jumpi\n        /* \"#utility.yul\":20603:20621   */\n      tag_546\n      tag_299\n      jump\t// in\n    tag_546:\n        /* \"#utility.yul\":20580:20623   */\n    tag_545:\n        /* \"#utility.yul\":20652:20660   */\n      dup4\n        /* \"#utility.yul\":20649:20650   */\n      0x02\n        /* \"#utility.yul\":20645:20661   */\n      exp\n        /* \"#utility.yul\":20636:20661   */\n      swap2\n      pop\n        /* \"#utility.yul\":20687:20690   */\n      dup5\n        /* \"#utility.yul\":20680:20685   */\n      dup3\n        /* \"#utility.yul\":20677:20691   */\n      gt\n        /* \"#utility.yul\":20674:20714   */\n      iszero\n      tag_547\n      jumpi\n        /* \"#utility.yul\":20694:20712   */\n      tag_548\n      tag_299\n      jump\t// in\n    tag_548:\n        /* \"#utility.yul\":20674:20714   */\n    tag_547:\n        /* \"#utility.yul\":20727:20732   */\n      pop\n      jump(tag_539)\n        /* \"#utility.yul\":20465:20742   */\n    tag_542:\n      pop\n        /* \"#utility.yul\":20851:20853   */\n      0x20\n        /* \"#utility.yul\":20841:20849   */\n      dup4\n        /* \"#utility.yul\":20838:20854   */\n      lt\n        /* \"#utility.yul\":20832:20835   */\n      0x0133\n        /* \"#utility.yul\":20826:20830   */\n      dup4\n        /* \"#utility.yul\":20823:20836   */\n      lt\n        /* \"#utility.yul\":20819:20855   */\n      and\n        /* \"#utility.yul\":20801:20803   */\n      0x4e\n        /* \"#utility.yul\":20791:20799   */\n      dup5\n        /* \"#utility.yul\":20788:20804   */\n      lt\n        /* \"#utility.yul\":20783:20785   */\n      0x0b\n        /* \"#utility.yul\":20777:20781   */\n      dup5\n        /* \"#utility.yul\":20774:20786   */\n      lt\n        /* \"#utility.yul\":20770:20805   */\n      and\n        /* \"#utility.yul\":20754:20865   */\n      or\n        /* \"#utility.yul\":20751:20997   */\n      iszero\n      tag_549\n      jumpi\n        /* \"#utility.yul\":20907:20915   */\n      dup3\n        /* \"#utility.yul\":20901:20905   */\n      dup3\n        /* \"#utility.yul\":20897:20916   */\n      exp\n        /* \"#utility.yul\":20888:20916   */\n      swap1\n      pop\n        /* \"#utility.yul\":20942:20945   */\n      dup4\n        /* \"#utility.yul\":20935:20940   */\n      dup2\n        /* \"#utility.yul\":20932:20946   */\n      gt\n        /* \"#utility.yul\":20929:20969   */\n      iszero\n      tag_550\n      jumpi\n        /* \"#utility.yul\":20949:20967   */\n      tag_551\n      tag_299\n      jump\t// in\n    tag_551:\n        /* \"#utility.yul\":20929:20969   */\n    tag_550:\n        /* \"#utility.yul\":20982:20987   */\n      jump(tag_539)\n        /* \"#utility.yul\":20751:20997   */\n    tag_549:\n        /* \"#utility.yul\":21022:21064   */\n      tag_552\n        /* \"#utility.yul\":21060:21063   */\n      dup5\n        /* \"#utility.yul\":21050:21058   */\n      dup5\n        /* \"#utility.yul\":21044:21048   */\n      dup5\n        /* \"#utility.yul\":21041:21042   */\n      0x01\n        /* \"#utility.yul\":21022:21064   */\n      tag_326\n      jump\t// in\n    tag_552:\n        /* \"#utility.yul\":21007:21064   */\n      swap3\n      pop\n      swap1\n      pop\n        /* \"#utility.yul\":21096:21100   */\n      dup2\n        /* \"#utility.yul\":21091:21094   */\n      dup5\n        /* \"#utility.yul\":21087:21101   */\n      div\n        /* \"#utility.yul\":21080:21085   */\n      dup2\n        /* \"#utility.yul\":21077:21102   */\n      gt\n        /* \"#utility.yul\":21074:21125   */\n      iszero\n      tag_553\n      jumpi\n        /* \"#utility.yul\":21105:21123   */\n      tag_554\n      tag_299\n      jump\t// in\n    tag_554:\n        /* \"#utility.yul\":21074:21125   */\n    tag_553:\n        /* \"#utility.yul\":21154:21158   */\n      dup2\n        /* \"#utility.yul\":21147:21152   */\n      dup2\n        /* \"#utility.yul\":21143:21159   */\n      mul\n        /* \"#utility.yul\":21134:21159   */\n      swap1\n      pop\n        /* \"#utility.yul\":20092:21165   */\n    tag_539:\n      swap4\n      swap3\n      pop\n      pop\n      pop\n      jump\t// out\n        /* \"#utility.yul\":21171:21456   */\n    tag_261:\n        /* \"#utility.yul\":21231:21236   */\n      0x00\n        /* \"#utility.yul\":21255:21278   */\n      tag_556\n        /* \"#utility.yul\":21273:21277   */\n      dup3\n        /* \"#utility.yul\":21255:21278   */\n      tag_279\n      jump\t// in\n    tag_556:\n        /* \"#utility.yul\":21247:21278   */\n      swap2\n      pop\n        /* \"#utility.yul\":21299:21326   */\n      tag_557\n        /* \"#utility.yul\":21317:21325   */\n      dup4\n        /* \"#utility.yul\":21299:21326   */\n      tag_279\n      jump\t// in\n    tag_557:\n        /* \"#utility.yul\":21287:21326   */\n      swap3\n      pop\n        /* \"#utility.yul\":21345:21449   */\n      tag_558\n        /* \"#utility.yul\":21382:21448   */\n      0xffffffffffffffffffffffffffffffffffffffffffffffffffffffffffffffff\n        /* \"#utility.yul\":21372:21380   */\n      dup5\n        /* \"#utility.yul\":21366:21370   */\n      dup5\n        /* \"#utility.yul\":21345:21449   */\n      tag_327\n      jump\t// in\n    tag_558:\n        /* \"#utility.yul\":21336:21449   */\n      swap1\n      pop\n        /* \"#utility.yul\":21171:21456   */\n      swap3\n      swap2\n      pop\n      pop\n      jump\t// out\n    stop\n    data_444739292f65e0d84586af555ca805e0303948242aa5bbf9a7032603676a8ec3 68747470733a2f2f6d696e2d6170692e63727970746f636f6d706172652e636f6d2f646174612f70726963653f6673796d3d455448267473796d733d555344\n\n    auxdata: 0xa2646970667358221220e0fe4cec1e62c65bc5f155e8c78365d2c941ea2bceeae96814610a9f2e1837a064736f6c63430008120033\n}\n",
				"bytecode": {
					"linkReferences": {},
					"object": "608060405260016004553480156200001657600080fd5b50338060008073ffffffffffffffffffffffffffffffffffffffff168273ffffffffffffffffffffffffffffffffffffffff16036200008c576040517f08c379a00000000000000000000000000000000000000000000000000000000081526004016200008390620003a8565b60405180910390fd5b81600660006101000a81548173ffffffffffffffffffffffffffffffffffffffff021916908373ffffffffffffffffffffffffffffffffffffffff160217905550600073ffffffffffffffffffffffffffffffffffffffff168173ffffffffffffffffffffffffffffffffffffffff1614620001145762000113816200018e60201b60201c565b5b5050506200013c73326c977e6efc84e512bb9c30f76e30c160ed06fb620002bf60201b60201c565b62000161736090149792daaee9d1d568c9f9a6f6b46aa29efd6200030360201b60201c565b7f37646132373032663337666434386535623162396135373135653335303962366009819055506200043c565b3373ffffffffffffffffffffffffffffffffffffffff168173ffffffffffffffffffffffffffffffffffffffff1603620001ff576040517f08c379a0000000000000000000000000000000000000000000000000000000008152600401620001f6906200041a565b60405180910390fd5b80600760006101000a81548173ffffffffffffffffffffffffffffffffffffffff021916908373ffffffffffffffffffffffffffffffffffffffff1602179055508073ffffffffffffffffffffffffffffffffffffffff16600660009054906101000a900473ffffffffffffffffffffffffffffffffffffffff1673ffffffffffffffffffffffffffffffffffffffff167fed8889f560326eb138920d842192f0eb3dd22b4f139c87a2c57538e05bae127860405160405180910390a350565b80600260006101000a81548173ffffffffffffffffffffffffffffffffffffffff021916908373ffffffffffffffffffffffffffffffffffffffff16021790555050565b80600360006101000a81548173ffffffffffffffffffffffffffffffffffffffff021916908373ffffffffffffffffffffffffffffffffffffffff16021790555050565b600082825260208201905092915050565b7f43616e6e6f7420736574206f776e657220746f207a65726f0000000000000000600082015250565b60006200039060188362000347565b91506200039d8262000358565b602082019050919050565b60006020820190508181036000830152620003c38162000381565b9050919050565b7f43616e6e6f74207472616e7366657220746f2073656c66000000000000000000600082015250565b60006200040260178362000347565b91506200040f82620003ca565b602082019050919050565b600060208201905081810360008301526200043581620003f3565b9050919050565b61210c806200044c6000396000f3fe608060405234801561001057600080fd5b50600436106100935760003560e01c806392cdaaf31161006657806392cdaaf3146100e85780639d1b464a14610104578063d7f29c6314610122578063ec65d0f81461012c578063f2fde38b1461014857610093565b8063165d35e11461009857806379ba5097146100b65780638da5cb5b146100c05780638dc654a2146100de575b600080fd5b6100a0610164565b6040516100ad9190611504565b60405180910390f35b6100be610173565b005b6100c861030a565b6040516100d59190611504565b60405180910390f35b6100e6610334565b005b61010260048036038101906100fd9190611590565b610481565b005b61010c610592565b60405161011991906115df565b60405180910390f35b61012a610598565b005b61014660048036038101906101419190611652565b610712565b005b610162600480360381019061015d91906116e5565b61072c565b005b600061016e610740565b905090565b600760009054906101000a900473ffffffffffffffffffffffffffffffffffffffff1673ffffffffffffffffffffffffffffffffffffffff163373ffffffffffffffffffffffffffffffffffffffff1614610203576040517f08c379a00000000000000000000000000000000000000000000000000000000081526004016101fa9061176f565b60405180910390fd5b6000600660009054906101000a900473ffffffffffffffffffffffffffffffffffffffff16905033600660006101000a81548173ffffffffffffffffffffffffffffffffffffffff021916908373ffffffffffffffffffffffffffffffffffffffff1602179055506000600760006101000a81548173ffffffffffffffffffffffffffffffffffffffff021916908373ffffffffffffffffffffffffffffffffffffffff1602179055503373ffffffffffffffffffffffffffffffffffffffff168173ffffffffffffffffffffffffffffffffffffffff167f8be0079c531659141344cd1fd0a4f28419497f9722a3daafe3b4186f6b6457e060405160405180910390a350565b6000600660009054906101000a900473ffffffffffffffffffffffffffffffffffffffff16905090565b61033c61076a565b6000610346610740565b90508073ffffffffffffffffffffffffffffffffffffffff1663a9059cbb338373ffffffffffffffffffffffffffffffffffffffff166370a08231306040518263ffffffff1660e01b815260040161039e9190611504565b602060405180830381865afa1580156103bb573d6000803e3d6000fd5b505050506040513d601f19601f820116820180604052508101906103df91906117a4565b6040518363ffffffff1660e01b81526004016103fc9291906117d1565b6020604051808303816000875af115801561041b573d6000803e3d6000fd5b505050506040513d601f19601f8201168201806040525081019061043f9190611832565b61047e576040517f08c379a0000000000000000000000000000000000000000000000000000000008152600401610475906118ab565b60405180910390fd5b50565b816005600082815260200190815260200160002060009054906101000a900473ffffffffffffffffffffffffffffffffffffffff1673ffffffffffffffffffffffffffffffffffffffff163373ffffffffffffffffffffffffffffffffffffffff1614610523576040517f08c379a000000000000000000000000000000000000000000000000000000000815260040161051a9061193d565b60405180910390fd5b6005600082815260200190815260200160002060006101000a81549073ffffffffffffffffffffffffffffffffffffffff0219169055807f7cc135e0cebb02c3480ae5d74d377283180a2601f8f644edf7987b009316c63a60405160405180910390a281600881905550505050565b60085481565b6105a061076a565b60006105b6600954306392cdaaf360e01b6107fc565b905061061a6040518060400160405280600381526020017f67657400000000000000000000000000000000000000000000000000000000008152506040518060600160405280603f8152602001612098603f91398361082d9092919063ffffffff16565b6106996040518060400160405280600481526020017f70617468000000000000000000000000000000000000000000000000000000008152506040518060400160405280600381526020017f55534400000000000000000000000000000000000000000000000000000000008152508361082d9092919063ffffffff16565b6106e46040518060400160405280600581526020017f74696d65730000000000000000000000000000000000000000000000000000008152506064836108609092919063ffffffff16565b61070e81600a670de0b6b3a764000060016106ff919061198c565b61070991906119fd565b610893565b5050565b61071a61076a565b610726848484846108ca565b50505050565b61073461076a565b61073d816109dd565b50565b6000600260009054906101000a900473ffffffffffffffffffffffffffffffffffffffff16905090565b600660009054906101000a900473ffffffffffffffffffffffffffffffffffffffff1673ffffffffffffffffffffffffffffffffffffffff163373ffffffffffffffffffffffffffffffffffffffff16146107fa576040517f08c379a00000000000000000000000000000000000000000000000000000000081526004016107f190611a7a565b60405180910390fd5b565b61080461143c565b61080c61143c565b61082385858584610b0b909392919063ffffffff16565b9150509392505050565b610844828460800151610bbb90919063ffffffff16565b61085b818460800151610bbb90919063ffffffff16565b505050565b610877828460800151610bbb90919063ffffffff16565b61088e818460800151610be090919063ffffffff16565b505050565b60006108c2600360009054906101000a900473ffffffffffffffffffffffffffffffffffffffff168484610c8d565b905092915050565b60006005600086815260200190815260200160002060009054906101000a900473ffffffffffffffffffffffffffffffffffffffff1690506005600086815260200190815260200160002060006101000a81549073ffffffffffffffffffffffffffffffffffffffff0219169055847fe1fe3afa0f7f761ff0a8b89086790efd5140d2907ebd5b7ff6bfcb5e075fd4c560405160405180910390a28073ffffffffffffffffffffffffffffffffffffffff16636ee4d553868686866040518563ffffffff1660e01b81526004016109a49493929190611ab8565b600060405180830381600087803b1580156109be57600080fd5b505af11580156109d2573d6000803e3d6000fd5b505050505050505050565b3373ffffffffffffffffffffffffffffffffffffffff168173ffffffffffffffffffffffffffffffffffffffff1603610a4b576040517f08c379a0000000000000000000000000000000000000000000000000000000008152600401610a4290611b49565b60405180910390fd5b80600760006101000a81548173ffffffffffffffffffffffffffffffffffffffff021916908373ffffffffffffffffffffffffffffffffffffffff1602179055508073ffffffffffffffffffffffffffffffffffffffff16600660009054906101000a900473ffffffffffffffffffffffffffffffffffffffff1673ffffffffffffffffffffffffffffffffffffffff167fed8889f560326eb138920d842192f0eb3dd22b4f139c87a2c57538e05bae127860405160405180910390a350565b610b1361143c565b610b238560800151610100610d59565b508385600001818152505082856020019073ffffffffffffffffffffffffffffffffffffffff16908173ffffffffffffffffffffffffffffffffffffffff16815250508185604001907bffffffffffffffffffffffffffffffffffffffffffffffffffffffff191690817bffffffffffffffffffffffffffffffffffffffffffffffffffffffff191681525050849050949350505050565b610bc88260038351610dc3565b610bdb8183610f4890919063ffffffff16565b505050565b7fffffffffffffffffffffffffffffffffffffffffffffffff0000000000000000811215610c1757610c128282610f6a565b610c89565b67ffffffffffffffff811315610c3657610c318282610fe1565b610c88565b60008112610c4f57610c4a82600083610dc3565b610c87565b610c86826001837fffffffffffffffffffffffffffffffffffffffffffffffffffffffffffffffff610c819190611b73565b610dc3565b5b5b5b5050565b6000806004549050600181610ca29190611bb6565b6004819055506000634042994660e01b60008087600001513089604001518760018c6080015160000151604051602401610ce3989796959493929190611c7a565b604051602081830303815290604052907bffffffffffffffffffffffffffffffffffffffffffffffffffffffff19166020820180517bffffffffffffffffffffffffffffffffffffffffffffffffffffffff83818316178352505050509050610d4e8683868461102d565b925050509392505050565b610d616114a9565b6000602083610d709190611cff565b14610d9c57602082610d829190611cff565b6020610d8e9190611d30565b82610d999190611bb6565b91505b81836020018181525050604051808452600081528281016020016040525082905092915050565b60178167ffffffffffffffff1611610dfa57610df48160058460ff16901b60ff1617846111c290919063ffffffff16565b50610f43565b60ff8167ffffffffffffffff1611610e5057610e29601860058460ff16901b17846111c290919063ffffffff16565b50610e4a8167ffffffffffffffff166001856111e29092919063ffffffff16565b50610f42565b61ffff8167ffffffffffffffff1611610ea757610e80601960058460ff16901b17846111c290919063ffffffff16565b50610ea18167ffffffffffffffff166002856111e29092919063ffffffff16565b50610f41565b63ffffffff8167ffffffffffffffff1611610f0057610ed9601a60058460ff16901b17846111c290919063ffffffff16565b50610efa8167ffffffffffffffff166004856111e29092919063ffffffff16565b50610f40565b610f1d601b60058460ff16901b17846111c290919063ffffffff16565b50610f3e8167ffffffffffffffff166008856111e29092919063ffffffff16565b505b5b5b5b505050565b610f506114a9565b610f6283846000015151848551611204565b905092915050565b610f8860036005600660ff16901b17836111c290919063ffffffff16565b50610fdd82827fffffffffffffffffffffffffffffffffffffffffffffffffffffffffffffffff610fb99190611b73565b604051602001610fc991906115df565b6040516020818303038152906040526112f3565b5050565b610fff60026005600660ff16901b17836111c290919063ffffffff16565b50611029828260405160200161101591906115df565b6040516020818303038152906040526112f3565b5050565b60003084604051602001611042929190611e1d565b604051602081830303815290604052805190602001209050846005600083815260200190815260200160002060006101000a81548173ffffffffffffffffffffffffffffffffffffffff021916908373ffffffffffffffffffffffffffffffffffffffff160217905550807fb5e6e01e79f91267dc17b4e6314d5d4d03593d2ceee0fbb452b750bd70ea5af960405160405180910390a2600260009054906101000a900473ffffffffffffffffffffffffffffffffffffffff1673ffffffffffffffffffffffffffffffffffffffff16634000aea08685856040518463ffffffff1660e01b815260040161113893929190611e49565b6020604051808303816000875af1158015611157573d6000803e3d6000fd5b505050506040513d601f19601f8201168201806040525081019061117b9190611832565b6111ba576040517f08c379a00000000000000000000000000000000000000000000000000000000081526004016111b190611ef9565b60405180910390fd5b949350505050565b6111ca6114a9565b6111da8384600001515184611318565b905092915050565b6111ea6114a9565b6111fb84856000015151858561136e565b90509392505050565b61120c6114a9565b825182111561121a57600080fd5b8460200151828561122b9190611bb6565b11156112605761125f8560026112508860200151888761124b9190611bb6565b6113fc565b61125a919061198c565b611418565b5b60008086518051876020830101935080888701111561127f5787860182525b60208701925050505b602084106112c657805182526020826112a19190611bb6565b91506020816112b09190611bb6565b90506020846112bf9190611d30565b9350611288565b60006001856020036101000a03905080198251168184511681811785525050508692505050949350505050565b6113008260028351610dc3565b6113138183610f4890919063ffffffff16565b505050565b6113206114a9565b83602001518310611346576113458460028660200151611340919061198c565b611418565b5b83518051602085830101848153818603611361576001820183525b5050508390509392505050565b6113766114a9565b846020015184836113879190611bb6565b11156113af576113ae856002868561139f9190611bb6565b6113a9919061198c565b611418565b5b60006001836101006113c1919061204c565b6113cb9190611d30565b905085518386820101858319825116178152815185880111156113ee5784870182525b505085915050949350505050565b60008183111561140e57829050611412565b8190505b92915050565b60008260000151905061142b8383610d59565b506114368382610f48565b50505050565b6040518060a0016040528060008019168152602001600073ffffffffffffffffffffffffffffffffffffffff16815260200160007bffffffffffffffffffffffffffffffffffffffffffffffffffffffff19168152602001600081526020016114a36114a9565b81525090565b604051806040016040528060608152602001600081525090565b600073ffffffffffffffffffffffffffffffffffffffff82169050919050565b60006114ee826114c3565b9050919050565b6114fe816114e3565b82525050565b600060208201905061151960008301846114f5565b92915050565b600080fd5b6000819050919050565b61153781611524565b811461154257600080fd5b50565b6000813590506115548161152e565b92915050565b6000819050919050565b61156d8161155a565b811461157857600080fd5b50565b60008135905061158a81611564565b92915050565b600080604083850312156115a7576115a661151f565b5b60006115b585828601611545565b92505060206115c68582860161157b565b9150509250929050565b6115d98161155a565b82525050565b60006020820190506115f460008301846115d0565b92915050565b60007fffffffff0000000000000000000000000000000000000000000000000000000082169050919050565b61162f816115fa565b811461163a57600080fd5b50565b60008135905061164c81611626565b92915050565b6000806000806080858703121561166c5761166b61151f565b5b600061167a87828801611545565b945050602061168b8782880161157b565b935050604061169c8782880161163d565b92505060606116ad8782880161157b565b91505092959194509250565b6116c2816114e3565b81146116cd57600080fd5b50565b6000813590506116df816116b9565b92915050565b6000602082840312156116fb576116fa61151f565b5b6000611709848285016116d0565b91505092915050565b600082825260208201905092915050565b7f4d7573742062652070726f706f736564206f776e657200000000000000000000600082015250565b6000611759601683611712565b915061176482611723565b602082019050919050565b600060208201905081810360008301526117888161174c565b9050919050565b60008151905061179e81611564565b92915050565b6000602082840312156117ba576117b961151f565b5b60006117c88482850161178f565b91505092915050565b60006040820190506117e660008301856114f5565b6117f360208301846115d0565b9392505050565b60008115159050919050565b61180f816117fa565b811461181a57600080fd5b50565b60008151905061182c81611806565b92915050565b6000602082840312156118485761184761151f565b5b60006118568482850161181d565b91505092915050565b7f556e61626c6520746f207472616e736665720000000000000000000000000000600082015250565b6000611895601283611712565b91506118a08261185f565b602082019050919050565b600060208201905081810360008301526118c481611888565b9050919050565b7f536f75726365206d75737420626520746865206f7261636c65206f662074686560008201527f2072657175657374000000000000000000000000000000000000000000000000602082015250565b6000611927602883611712565b9150611932826118cb565b604082019050919050565b600060208201905081810360008301526119568161191a565b9050919050565b7f4e487b7100000000000000000000000000000000000000000000000000000000600052601160045260246000fd5b60006119978261155a565b91506119a28361155a565b92508282026119b08161155a565b915082820484148315176119c7576119c661195d565b5b5092915050565b7f4e487b7100000000000000000000000000000000000000000000000000000000600052601260045260246000fd5b6000611a088261155a565b9150611a138361155a565b925082611a2357611a226119ce565b5b828204905092915050565b7f4f6e6c792063616c6c61626c65206279206f776e657200000000000000000000600082015250565b6000611a64601683611712565b9150611a6f82611a2e565b602082019050919050565b60006020820190508181036000830152611a9381611a57565b9050919050565b611aa381611524565b82525050565b611ab2816115fa565b82525050565b6000608082019050611acd6000830187611a9a565b611ada60208301866115d0565b611ae76040830185611aa9565b611af460608301846115d0565b95945050505050565b7f43616e6e6f74207472616e7366657220746f2073656c66000000000000000000600082015250565b6000611b33601783611712565b9150611b3e82611afd565b602082019050919050565b60006020820190508181036000830152611b6281611b26565b9050919050565b6000819050919050565b6000611b7e82611b69565b9150611b8983611b69565b9250828203905081811260008412168282136000851215161715611bb057611baf61195d565b5b92915050565b6000611bc18261155a565b9150611bcc8361155a565b9250828201905080821115611be457611be361195d565b5b92915050565b600081519050919050565b600082825260208201905092915050565b60005b83811015611c24578082015181840152602081019050611c09565b60008484015250505050565b6000601f19601f8301169050919050565b6000611c4c82611bea565b611c568185611bf5565b9350611c66818560208601611c06565b611c6f81611c30565b840191505092915050565b600061010082019050611c90600083018b6114f5565b611c9d602083018a6115d0565b611caa6040830189611a9a565b611cb760608301886114f5565b611cc46080830187611aa9565b611cd160a08301866115d0565b611cde60c08301856115d0565b81810360e0830152611cf08184611c41565b90509998505050505050505050565b6000611d0a8261155a565b9150611d158361155a565b925082611d2557611d246119ce565b5b828206905092915050565b6000611d3b8261155a565b9150611d468361155a565b9250828203905081811115611d5e57611d5d61195d565b5b92915050565b6000819050919050565b6000611d89611d84611d7f846114c3565b611d64565b6114c3565b9050919050565b6000611d9b82611d6e565b9050919050565b6000611dad82611d90565b9050919050565b60008160601b9050919050565b6000611dcc82611db4565b9050919050565b6000611dde82611dc1565b9050919050565b611df6611df182611da2565b611dd3565b82525050565b6000819050919050565b611e17611e128261155a565b611dfc565b82525050565b6000611e298285611de5565b601482019150611e398284611e06565b6020820191508190509392505050565b6000606082019050611e5e60008301866114f5565b611e6b60208301856115d0565b8181036040830152611e7d8184611c41565b9050949350505050565b7f756e61626c6520746f207472616e73666572416e6443616c6c20746f206f726160008201527f636c650000000000000000000000000000000000000000000000000000000000602082015250565b6000611ee3602383611712565b9150611eee82611e87565b604082019050919050565b60006020820190508181036000830152611f1281611ed6565b9050919050565b60008160011c9050919050565b6000808291508390505b6001851115611f7057808604811115611f4c57611f4b61195d565b5b6001851615611f5b5780820291505b8081029050611f6985611f19565b9450611f30565b94509492505050565b600082611f895760019050612045565b81611f975760009050612045565b8160018114611fad5760028114611fb757611fe6565b6001915050612045565b60ff841115611fc957611fc861195d565b5b8360020a915084821115611fe057611fdf61195d565b5b50612045565b5060208310610133831016604e8410600b841016171561201b5782820a9050838111156120165761201561195d565b5b612045565b6120288484846001611f26565b9250905081840481111561203f5761203e61195d565b5b81810290505b9392505050565b60006120578261155a565b91506120628361155a565b925061208f7fffffffffffffffffffffffffffffffffffffffffffffffffffffffffffffffff8484611f79565b90509291505056fe68747470733a2f2f6d696e2d6170692e63727970746f636f6d706172652e636f6d2f646174612f70726963653f6673796d3d455448267473796d733d555344a2646970667358221220e0fe4cec1e62c65bc5f155e8c78365d2c941ea2bceeae96814610a9f2e1837a064736f6c63430008120033",
					"opcodes": "PUSH1 0x80 PUSH1 0x40 MSTORE PUSH1 0x1 PUSH1 0x4 SSTORE CALLVALUE DUP1 ISZERO PUSH3 0x16 JUMPI PUSH1 0x0 DUP1 REVERT JUMPDEST POP CALLER DUP1 PUSH1 0x0 DUP1 PUSH20 0xFFFFFFFFFFFFFFFFFFFFFFFFFFFFFFFFFFFFFFFF AND DUP3 PUSH20 0xFFFFFFFFFFFFFFFFFFFFFFFFFFFFFFFFFFFFFFFF AND SUB PUSH3 0x8C JUMPI PUSH1 0x40 MLOAD PUSH32 0x8C379A000000000000000000000000000000000000000000000000000000000 DUP2 MSTORE PUSH1 0x4 ADD PUSH3 0x83 SWAP1 PUSH3 0x3A8 JUMP JUMPDEST PUSH1 0x40 MLOAD DUP1 SWAP2 SUB SWAP1 REVERT JUMPDEST DUP2 PUSH1 0x6 PUSH1 0x0 PUSH2 0x100 EXP DUP2 SLOAD DUP2 PUSH20 0xFFFFFFFFFFFFFFFFFFFFFFFFFFFFFFFFFFFFFFFF MUL NOT AND SWAP1 DUP4 PUSH20 0xFFFFFFFFFFFFFFFFFFFFFFFFFFFFFFFFFFFFFFFF AND MUL OR SWAP1 SSTORE POP PUSH1 0x0 PUSH20 0xFFFFFFFFFFFFFFFFFFFFFFFFFFFFFFFFFFFFFFFF AND DUP2 PUSH20 0xFFFFFFFFFFFFFFFFFFFFFFFFFFFFFFFFFFFFFFFF AND EQ PUSH3 0x114 JUMPI PUSH3 0x113 DUP2 PUSH3 0x18E PUSH1 0x20 SHL PUSH1 0x20 SHR JUMP JUMPDEST JUMPDEST POP POP POP PUSH3 0x13C PUSH20 0x326C977E6EFC84E512BB9C30F76E30C160ED06FB PUSH3 0x2BF PUSH1 0x20 SHL PUSH1 0x20 SHR JUMP JUMPDEST PUSH3 0x161 PUSH20 0x6090149792DAAEE9D1D568C9F9A6F6B46AA29EFD PUSH3 0x303 PUSH1 0x20 SHL PUSH1 0x20 SHR JUMP JUMPDEST PUSH32 0x3764613237303266333766643438653562316239613537313565333530396236 PUSH1 0x9 DUP2 SWAP1 SSTORE POP PUSH3 0x43C JUMP JUMPDEST CALLER PUSH20 0xFFFFFFFFFFFFFFFFFFFFFFFFFFFFFFFFFFFFFFFF AND DUP2 PUSH20 0xFFFFFFFFFFFFFFFFFFFFFFFFFFFFFFFFFFFFFFFF AND SUB PUSH3 0x1FF JUMPI PUSH1 0x40 MLOAD PUSH32 0x8C379A000000000000000000000000000000000000000000000000000000000 DUP2 MSTORE PUSH1 0x4 ADD PUSH3 0x1F6 SWAP1 PUSH3 0x41A JUMP JUMPDEST PUSH1 0x40 MLOAD DUP1 SWAP2 SUB SWAP1 REVERT JUMPDEST DUP1 PUSH1 0x7 PUSH1 0x0 PUSH2 0x100 EXP DUP2 SLOAD DUP2 PUSH20 0xFFFFFFFFFFFFFFFFFFFFFFFFFFFFFFFFFFFFFFFF MUL NOT AND SWAP1 DUP4 PUSH20 0xFFFFFFFFFFFFFFFFFFFFFFFFFFFFFFFFFFFFFFFF AND MUL OR SWAP1 SSTORE POP DUP1 PUSH20 0xFFFFFFFFFFFFFFFFFFFFFFFFFFFFFFFFFFFFFFFF AND PUSH1 0x6 PUSH1 0x0 SWAP1 SLOAD SWAP1 PUSH2 0x100 EXP SWAP1 DIV PUSH20 0xFFFFFFFFFFFFFFFFFFFFFFFFFFFFFFFFFFFFFFFF AND PUSH20 0xFFFFFFFFFFFFFFFFFFFFFFFFFFFFFFFFFFFFFFFF AND PUSH32 0xED8889F560326EB138920D842192F0EB3DD22B4F139C87A2C57538E05BAE1278 PUSH1 0x40 MLOAD PUSH1 0x40 MLOAD DUP1 SWAP2 SUB SWAP1 LOG3 POP JUMP JUMPDEST DUP1 PUSH1 0x2 PUSH1 0x0 PUSH2 0x100 EXP DUP2 SLOAD DUP2 PUSH20 0xFFFFFFFFFFFFFFFFFFFFFFFFFFFFFFFFFFFFFFFF MUL NOT AND SWAP1 DUP4 PUSH20 0xFFFFFFFFFFFFFFFFFFFFFFFFFFFFFFFFFFFFFFFF AND MUL OR SWAP1 SSTORE POP POP JUMP JUMPDEST DUP1 PUSH1 0x3 PUSH1 0x0 PUSH2 0x100 EXP DUP2 SLOAD DUP2 PUSH20 0xFFFFFFFFFFFFFFFFFFFFFFFFFFFFFFFFFFFFFFFF MUL NOT AND SWAP1 DUP4 PUSH20 0xFFFFFFFFFFFFFFFFFFFFFFFFFFFFFFFFFFFFFFFF AND MUL OR SWAP1 SSTORE POP POP JUMP JUMPDEST PUSH1 0x0 DUP3 DUP3 MSTORE PUSH1 0x20 DUP3 ADD SWAP1 POP SWAP3 SWAP2 POP POP JUMP JUMPDEST PUSH32 0x43616E6E6F7420736574206F776E657220746F207A65726F0000000000000000 PUSH1 0x0 DUP3 ADD MSTORE POP JUMP JUMPDEST PUSH1 0x0 PUSH3 0x390 PUSH1 0x18 DUP4 PUSH3 0x347 JUMP JUMPDEST SWAP2 POP PUSH3 0x39D DUP3 PUSH3 0x358 JUMP JUMPDEST PUSH1 0x20 DUP3 ADD SWAP1 POP SWAP2 SWAP1 POP JUMP JUMPDEST PUSH1 0x0 PUSH1 0x20 DUP3 ADD SWAP1 POP DUP2 DUP2 SUB PUSH1 0x0 DUP4 ADD MSTORE PUSH3 0x3C3 DUP2 PUSH3 0x381 JUMP JUMPDEST SWAP1 POP SWAP2 SWAP1 POP JUMP JUMPDEST PUSH32 0x43616E6E6F74207472616E7366657220746F2073656C66000000000000000000 PUSH1 0x0 DUP3 ADD MSTORE POP JUMP JUMPDEST PUSH1 0x0 PUSH3 0x402 PUSH1 0x17 DUP4 PUSH3 0x347 JUMP JUMPDEST SWAP2 POP PUSH3 0x40F DUP3 PUSH3 0x3CA JUMP JUMPDEST PUSH1 0x20 DUP3 ADD SWAP1 POP SWAP2 SWAP1 POP JUMP JUMPDEST PUSH1 0x0 PUSH1 0x20 DUP3 ADD SWAP1 POP DUP2 DUP2 SUB PUSH1 0x0 DUP4 ADD MSTORE PUSH3 0x435 DUP2 PUSH3 0x3F3 JUMP JUMPDEST SWAP1 POP SWAP2 SWAP1 POP JUMP JUMPDEST PUSH2 0x210C DUP1 PUSH3 0x44C PUSH1 0x0 CODECOPY PUSH1 0x0 RETURN INVALID PUSH1 0x80 PUSH1 0x40 MSTORE CALLVALUE DUP1 ISZERO PUSH2 0x10 JUMPI PUSH1 0x0 DUP1 REVERT JUMPDEST POP PUSH1 0x4 CALLDATASIZE LT PUSH2 0x93 JUMPI PUSH1 0x0 CALLDATALOAD PUSH1 0xE0 SHR DUP1 PUSH4 0x92CDAAF3 GT PUSH2 0x66 JUMPI DUP1 PUSH4 0x92CDAAF3 EQ PUSH2 0xE8 JUMPI DUP1 PUSH4 0x9D1B464A EQ PUSH2 0x104 JUMPI DUP1 PUSH4 0xD7F29C63 EQ PUSH2 0x122 JUMPI DUP1 PUSH4 0xEC65D0F8 EQ PUSH2 0x12C JUMPI DUP1 PUSH4 0xF2FDE38B EQ PUSH2 0x148 JUMPI PUSH2 0x93 JUMP JUMPDEST DUP1 PUSH4 0x165D35E1 EQ PUSH2 0x98 JUMPI DUP1 PUSH4 0x79BA5097 EQ PUSH2 0xB6 JUMPI DUP1 PUSH4 0x8DA5CB5B EQ PUSH2 0xC0 JUMPI DUP1 PUSH4 0x8DC654A2 EQ PUSH2 0xDE JUMPI JUMPDEST PUSH1 0x0 DUP1 REVERT JUMPDEST PUSH2 0xA0 PUSH2 0x164 JUMP JUMPDEST PUSH1 0x40 MLOAD PUSH2 0xAD SWAP2 SWAP1 PUSH2 0x1504 JUMP JUMPDEST PUSH1 0x40 MLOAD DUP1 SWAP2 SUB SWAP1 RETURN JUMPDEST PUSH2 0xBE PUSH2 0x173 JUMP JUMPDEST STOP JUMPDEST PUSH2 0xC8 PUSH2 0x30A JUMP JUMPDEST PUSH1 0x40 MLOAD PUSH2 0xD5 SWAP2 SWAP1 PUSH2 0x1504 JUMP JUMPDEST PUSH1 0x40 MLOAD DUP1 SWAP2 SUB SWAP1 RETURN JUMPDEST PUSH2 0xE6 PUSH2 0x334 JUMP JUMPDEST STOP JUMPDEST PUSH2 0x102 PUSH1 0x4 DUP1 CALLDATASIZE SUB DUP2 ADD SWAP1 PUSH2 0xFD SWAP2 SWAP1 PUSH2 0x1590 JUMP JUMPDEST PUSH2 0x481 JUMP JUMPDEST STOP JUMPDEST PUSH2 0x10C PUSH2 0x592 JUMP JUMPDEST PUSH1 0x40 MLOAD PUSH2 0x119 SWAP2 SWAP1 PUSH2 0x15DF JUMP JUMPDEST PUSH1 0x40 MLOAD DUP1 SWAP2 SUB SWAP1 RETURN JUMPDEST PUSH2 0x12A PUSH2 0x598 JUMP JUMPDEST STOP JUMPDEST PUSH2 0x146 PUSH1 0x4 DUP1 CALLDATASIZE SUB DUP2 ADD SWAP1 PUSH2 0x141 SWAP2 SWAP1 PUSH2 0x1652 JUMP JUMPDEST PUSH2 0x712 JUMP JUMPDEST STOP JUMPDEST PUSH2 0x162 PUSH1 0x4 DUP1 CALLDATASIZE SUB DUP2 ADD SWAP1 PUSH2 0x15D SWAP2 SWAP1 PUSH2 0x16E5 JUMP JUMPDEST PUSH2 0x72C JUMP JUMPDEST STOP JUMPDEST PUSH1 0x0 PUSH2 0x16E PUSH2 0x740 JUMP JUMPDEST SWAP1 POP SWAP1 JUMP JUMPDEST PUSH1 0x7 PUSH1 0x0 SWAP1 SLOAD SWAP1 PUSH2 0x100 EXP SWAP1 DIV PUSH20 0xFFFFFFFFFFFFFFFFFFFFFFFFFFFFFFFFFFFFFFFF AND PUSH20 0xFFFFFFFFFFFFFFFFFFFFFFFFFFFFFFFFFFFFFFFF AND CALLER PUSH20 0xFFFFFFFFFFFFFFFFFFFFFFFFFFFFFFFFFFFFFFFF AND EQ PUSH2 0x203 JUMPI PUSH1 0x40 MLOAD PUSH32 0x8C379A000000000000000000000000000000000000000000000000000000000 DUP2 MSTORE PUSH1 0x4 ADD PUSH2 0x1FA SWAP1 PUSH2 0x176F JUMP JUMPDEST PUSH1 0x40 MLOAD DUP1 SWAP2 SUB SWAP1 REVERT JUMPDEST PUSH1 0x0 PUSH1 0x6 PUSH1 0x0 SWAP1 SLOAD SWAP1 PUSH2 0x100 EXP SWAP1 DIV PUSH20 0xFFFFFFFFFFFFFFFFFFFFFFFFFFFFFFFFFFFFFFFF AND SWAP1 POP CALLER PUSH1 0x6 PUSH1 0x0 PUSH2 0x100 EXP DUP2 SLOAD DUP2 PUSH20 0xFFFFFFFFFFFFFFFFFFFFFFFFFFFFFFFFFFFFFFFF MUL NOT AND SWAP1 DUP4 PUSH20 0xFFFFFFFFFFFFFFFFFFFFFFFFFFFFFFFFFFFFFFFF AND MUL OR SWAP1 SSTORE POP PUSH1 0x0 PUSH1 0x7 PUSH1 0x0 PUSH2 0x100 EXP DUP2 SLOAD DUP2 PUSH20 0xFFFFFFFFFFFFFFFFFFFFFFFFFFFFFFFFFFFFFFFF MUL NOT AND SWAP1 DUP4 PUSH20 0xFFFFFFFFFFFFFFFFFFFFFFFFFFFFFFFFFFFFFFFF AND MUL OR SWAP1 SSTORE POP CALLER PUSH20 0xFFFFFFFFFFFFFFFFFFFFFFFFFFFFFFFFFFFFFFFF AND DUP2 PUSH20 0xFFFFFFFFFFFFFFFFFFFFFFFFFFFFFFFFFFFFFFFF AND PUSH32 0x8BE0079C531659141344CD1FD0A4F28419497F9722A3DAAFE3B4186F6B6457E0 PUSH1 0x40 MLOAD PUSH1 0x40 MLOAD DUP1 SWAP2 SUB SWAP1 LOG3 POP JUMP JUMPDEST PUSH1 0x0 PUSH1 0x6 PUSH1 0x0 SWAP1 SLOAD SWAP1 PUSH2 0x100 EXP SWAP1 DIV PUSH20 0xFFFFFFFFFFFFFFFFFFFFFFFFFFFFFFFFFFFFFFFF AND SWAP1 POP SWAP1 JUMP JUMPDEST PUSH2 0x33C PUSH2 0x76A JUMP JUMPDEST PUSH1 0x0 PUSH2 0x346 PUSH2 0x740 JUMP JUMPDEST SWAP1 POP DUP1 PUSH20 0xFFFFFFFFFFFFFFFFFFFFFFFFFFFFFFFFFFFFFFFF AND PUSH4 0xA9059CBB CALLER DUP4 PUSH20 0xFFFFFFFFFFFFFFFFFFFFFFFFFFFFFFFFFFFFFFFF AND PUSH4 0x70A08231 ADDRESS PUSH1 0x40 MLOAD DUP3 PUSH4 0xFFFFFFFF AND PUSH1 0xE0 SHL DUP2 MSTORE PUSH1 0x4 ADD PUSH2 0x39E SWAP2 SWAP1 PUSH2 0x1504 JUMP JUMPDEST PUSH1 0x20 PUSH1 0x40 MLOAD DUP1 DUP4 SUB DUP2 DUP7 GAS STATICCALL ISZERO DUP1 ISZERO PUSH2 0x3BB JUMPI RETURNDATASIZE PUSH1 0x0 DUP1 RETURNDATACOPY RETURNDATASIZE PUSH1 0x0 REVERT JUMPDEST POP POP POP POP PUSH1 0x40 MLOAD RETURNDATASIZE PUSH1 0x1F NOT PUSH1 0x1F DUP3 ADD AND DUP3 ADD DUP1 PUSH1 0x40 MSTORE POP DUP2 ADD SWAP1 PUSH2 0x3DF SWAP2 SWAP1 PUSH2 0x17A4 JUMP JUMPDEST PUSH1 0x40 MLOAD DUP4 PUSH4 0xFFFFFFFF AND PUSH1 0xE0 SHL DUP2 MSTORE PUSH1 0x4 ADD PUSH2 0x3FC SWAP3 SWAP2 SWAP1 PUSH2 0x17D1 JUMP JUMPDEST PUSH1 0x20 PUSH1 0x40 MLOAD DUP1 DUP4 SUB DUP2 PUSH1 0x0 DUP8 GAS CALL ISZERO DUP1 ISZERO PUSH2 0x41B JUMPI RETURNDATASIZE PUSH1 0x0 DUP1 RETURNDATACOPY RETURNDATASIZE PUSH1 0x0 REVERT JUMPDEST POP POP POP POP PUSH1 0x40 MLOAD RETURNDATASIZE PUSH1 0x1F NOT PUSH1 0x1F DUP3 ADD AND DUP3 ADD DUP1 PUSH1 0x40 MSTORE POP DUP2 ADD SWAP1 PUSH2 0x43F SWAP2 SWAP1 PUSH2 0x1832 JUMP JUMPDEST PUSH2 0x47E JUMPI PUSH1 0x40 MLOAD PUSH32 0x8C379A000000000000000000000000000000000000000000000000000000000 DUP2 MSTORE PUSH1 0x4 ADD PUSH2 0x475 SWAP1 PUSH2 0x18AB JUMP JUMPDEST PUSH1 0x40 MLOAD DUP1 SWAP2 SUB SWAP1 REVERT JUMPDEST POP JUMP JUMPDEST DUP2 PUSH1 0x5 PUSH1 0x0 DUP3 DUP2 MSTORE PUSH1 0x20 ADD SWAP1 DUP2 MSTORE PUSH1 0x20 ADD PUSH1 0x0 KECCAK256 PUSH1 0x0 SWAP1 SLOAD SWAP1 PUSH2 0x100 EXP SWAP1 DIV PUSH20 0xFFFFFFFFFFFFFFFFFFFFFFFFFFFFFFFFFFFFFFFF AND PUSH20 0xFFFFFFFFFFFFFFFFFFFFFFFFFFFFFFFFFFFFFFFF AND CALLER PUSH20 0xFFFFFFFFFFFFFFFFFFFFFFFFFFFFFFFFFFFFFFFF AND EQ PUSH2 0x523 JUMPI PUSH1 0x40 MLOAD PUSH32 0x8C379A000000000000000000000000000000000000000000000000000000000 DUP2 MSTORE PUSH1 0x4 ADD PUSH2 0x51A SWAP1 PUSH2 0x193D JUMP JUMPDEST PUSH1 0x40 MLOAD DUP1 SWAP2 SUB SWAP1 REVERT JUMPDEST PUSH1 0x5 PUSH1 0x0 DUP3 DUP2 MSTORE PUSH1 0x20 ADD SWAP1 DUP2 MSTORE PUSH1 0x20 ADD PUSH1 0x0 KECCAK256 PUSH1 0x0 PUSH2 0x100 EXP DUP2 SLOAD SWAP1 PUSH20 0xFFFFFFFFFFFFFFFFFFFFFFFFFFFFFFFFFFFFFFFF MUL NOT AND SWAP1 SSTORE DUP1 PUSH32 0x7CC135E0CEBB02C3480AE5D74D377283180A2601F8F644EDF7987B009316C63A PUSH1 0x40 MLOAD PUSH1 0x40 MLOAD DUP1 SWAP2 SUB SWAP1 LOG2 DUP2 PUSH1 0x8 DUP2 SWAP1 SSTORE POP POP POP POP JUMP JUMPDEST PUSH1 0x8 SLOAD DUP2 JUMP JUMPDEST PUSH2 0x5A0 PUSH2 0x76A JUMP JUMPDEST PUSH1 0x0 PUSH2 0x5B6 PUSH1 0x9 SLOAD ADDRESS PUSH4 0x92CDAAF3 PUSH1 0xE0 SHL PUSH2 0x7FC JUMP JUMPDEST SWAP1 POP PUSH2 0x61A PUSH1 0x40 MLOAD DUP1 PUSH1 0x40 ADD PUSH1 0x40 MSTORE DUP1 PUSH1 0x3 DUP2 MSTORE PUSH1 0x20 ADD PUSH32 0x6765740000000000000000000000000000000000000000000000000000000000 DUP2 MSTORE POP PUSH1 0x40 MLOAD DUP1 PUSH1 0x60 ADD PUSH1 0x40 MSTORE DUP1 PUSH1 0x3F DUP2 MSTORE PUSH1 0x20 ADD PUSH2 0x2098 PUSH1 0x3F SWAP2 CODECOPY DUP4 PUSH2 0x82D SWAP1 SWAP3 SWAP2 SWAP1 PUSH4 0xFFFFFFFF AND JUMP JUMPDEST PUSH2 0x699 PUSH1 0x40 MLOAD DUP1 PUSH1 0x40 ADD PUSH1 0x40 MSTORE DUP1 PUSH1 0x4 DUP2 MSTORE PUSH1 0x20 ADD PUSH32 0x7061746800000000000000000000000000000000000000000000000000000000 DUP2 MSTORE POP PUSH1 0x40 MLOAD DUP1 PUSH1 0x40 ADD PUSH1 0x40 MSTORE DUP1 PUSH1 0x3 DUP2 MSTORE PUSH1 0x20 ADD PUSH32 0x5553440000000000000000000000000000000000000000000000000000000000 DUP2 MSTORE POP DUP4 PUSH2 0x82D SWAP1 SWAP3 SWAP2 SWAP1 PUSH4 0xFFFFFFFF AND JUMP JUMPDEST PUSH2 0x6E4 PUSH1 0x40 MLOAD DUP1 PUSH1 0x40 ADD PUSH1 0x40 MSTORE DUP1 PUSH1 0x5 DUP2 MSTORE PUSH1 0x20 ADD PUSH32 0x74696D6573000000000000000000000000000000000000000000000000000000 DUP2 MSTORE POP PUSH1 0x64 DUP4 PUSH2 0x860 SWAP1 SWAP3 SWAP2 SWAP1 PUSH4 0xFFFFFFFF AND JUMP JUMPDEST PUSH2 0x70E DUP2 PUSH1 0xA PUSH8 0xDE0B6B3A7640000 PUSH1 0x1 PUSH2 0x6FF SWAP2 SWAP1 PUSH2 0x198C JUMP JUMPDEST PUSH2 0x709 SWAP2 SWAP1 PUSH2 0x19FD JUMP JUMPDEST PUSH2 0x893 JUMP JUMPDEST POP POP JUMP JUMPDEST PUSH2 0x71A PUSH2 0x76A JUMP JUMPDEST PUSH2 0x726 DUP5 DUP5 DUP5 DUP5 PUSH2 0x8CA JUMP JUMPDEST POP POP POP POP JUMP JUMPDEST PUSH2 0x734 PUSH2 0x76A JUMP JUMPDEST PUSH2 0x73D DUP2 PUSH2 0x9DD JUMP JUMPDEST POP JUMP JUMPDEST PUSH1 0x0 PUSH1 0x2 PUSH1 0x0 SWAP1 SLOAD SWAP1 PUSH2 0x100 EXP SWAP1 DIV PUSH20 0xFFFFFFFFFFFFFFFFFFFFFFFFFFFFFFFFFFFFFFFF AND SWAP1 POP SWAP1 JUMP JUMPDEST PUSH1 0x6 PUSH1 0x0 SWAP1 SLOAD SWAP1 PUSH2 0x100 EXP SWAP1 DIV PUSH20 0xFFFFFFFFFFFFFFFFFFFFFFFFFFFFFFFFFFFFFFFF AND PUSH20 0xFFFFFFFFFFFFFFFFFFFFFFFFFFFFFFFFFFFFFFFF AND CALLER PUSH20 0xFFFFFFFFFFFFFFFFFFFFFFFFFFFFFFFFFFFFFFFF AND EQ PUSH2 0x7FA JUMPI PUSH1 0x40 MLOAD PUSH32 0x8C379A000000000000000000000000000000000000000000000000000000000 DUP2 MSTORE PUSH1 0x4 ADD PUSH2 0x7F1 SWAP1 PUSH2 0x1A7A JUMP JUMPDEST PUSH1 0x40 MLOAD DUP1 SWAP2 SUB SWAP1 REVERT JUMPDEST JUMP JUMPDEST PUSH2 0x804 PUSH2 0x143C JUMP JUMPDEST PUSH2 0x80C PUSH2 0x143C JUMP JUMPDEST PUSH2 0x823 DUP6 DUP6 DUP6 DUP5 PUSH2 0xB0B SWAP1 SWAP4 SWAP3 SWAP2 SWAP1 PUSH4 0xFFFFFFFF AND JUMP JUMPDEST SWAP2 POP POP SWAP4 SWAP3 POP POP POP JUMP JUMPDEST PUSH2 0x844 DUP3 DUP5 PUSH1 0x80 ADD MLOAD PUSH2 0xBBB SWAP1 SWAP2 SWAP1 PUSH4 0xFFFFFFFF AND JUMP JUMPDEST PUSH2 0x85B DUP2 DUP5 PUSH1 0x80 ADD MLOAD PUSH2 0xBBB SWAP1 SWAP2 SWAP1 PUSH4 0xFFFFFFFF AND JUMP JUMPDEST POP POP POP JUMP JUMPDEST PUSH2 0x877 DUP3 DUP5 PUSH1 0x80 ADD MLOAD PUSH2 0xBBB SWAP1 SWAP2 SWAP1 PUSH4 0xFFFFFFFF AND JUMP JUMPDEST PUSH2 0x88E DUP2 DUP5 PUSH1 0x80 ADD MLOAD PUSH2 0xBE0 SWAP1 SWAP2 SWAP1 PUSH4 0xFFFFFFFF AND JUMP JUMPDEST POP POP POP JUMP JUMPDEST PUSH1 0x0 PUSH2 0x8C2 PUSH1 0x3 PUSH1 0x0 SWAP1 SLOAD SWAP1 PUSH2 0x100 EXP SWAP1 DIV PUSH20 0xFFFFFFFFFFFFFFFFFFFFFFFFFFFFFFFFFFFFFFFF AND DUP5 DUP5 PUSH2 0xC8D JUMP JUMPDEST SWAP1 POP SWAP3 SWAP2 POP POP JUMP JUMPDEST PUSH1 0x0 PUSH1 0x5 PUSH1 0x0 DUP7 DUP2 MSTORE PUSH1 0x20 ADD SWAP1 DUP2 MSTORE PUSH1 0x20 ADD PUSH1 0x0 KECCAK256 PUSH1 0x0 SWAP1 SLOAD SWAP1 PUSH2 0x100 EXP SWAP1 DIV PUSH20 0xFFFFFFFFFFFFFFFFFFFFFFFFFFFFFFFFFFFFFFFF AND SWAP1 POP PUSH1 0x5 PUSH1 0x0 DUP7 DUP2 MSTORE PUSH1 0x20 ADD SWAP1 DUP2 MSTORE PUSH1 0x20 ADD PUSH1 0x0 KECCAK256 PUSH1 0x0 PUSH2 0x100 EXP DUP2 SLOAD SWAP1 PUSH20 0xFFFFFFFFFFFFFFFFFFFFFFFFFFFFFFFFFFFFFFFF MUL NOT AND SWAP1 SSTORE DUP5 PUSH32 0xE1FE3AFA0F7F761FF0A8B89086790EFD5140D2907EBD5B7FF6BFCB5E075FD4C5 PUSH1 0x40 MLOAD PUSH1 0x40 MLOAD DUP1 SWAP2 SUB SWAP1 LOG2 DUP1 PUSH20 0xFFFFFFFFFFFFFFFFFFFFFFFFFFFFFFFFFFFFFFFF AND PUSH4 0x6EE4D553 DUP7 DUP7 DUP7 DUP7 PUSH1 0x40 MLOAD DUP6 PUSH4 0xFFFFFFFF AND PUSH1 0xE0 SHL DUP2 MSTORE PUSH1 0x4 ADD PUSH2 0x9A4 SWAP5 SWAP4 SWAP3 SWAP2 SWAP1 PUSH2 0x1AB8 JUMP JUMPDEST PUSH1 0x0 PUSH1 0x40 MLOAD DUP1 DUP4 SUB DUP2 PUSH1 0x0 DUP8 DUP1 EXTCODESIZE ISZERO DUP1 ISZERO PUSH2 0x9BE JUMPI PUSH1 0x0 DUP1 REVERT JUMPDEST POP GAS CALL ISZERO DUP1 ISZERO PUSH2 0x9D2 JUMPI RETURNDATASIZE PUSH1 0x0 DUP1 RETURNDATACOPY RETURNDATASIZE PUSH1 0x0 REVERT JUMPDEST POP POP POP POP POP POP POP POP POP JUMP JUMPDEST CALLER PUSH20 0xFFFFFFFFFFFFFFFFFFFFFFFFFFFFFFFFFFFFFFFF AND DUP2 PUSH20 0xFFFFFFFFFFFFFFFFFFFFFFFFFFFFFFFFFFFFFFFF AND SUB PUSH2 0xA4B JUMPI PUSH1 0x40 MLOAD PUSH32 0x8C379A000000000000000000000000000000000000000000000000000000000 DUP2 MSTORE PUSH1 0x4 ADD PUSH2 0xA42 SWAP1 PUSH2 0x1B49 JUMP JUMPDEST PUSH1 0x40 MLOAD DUP1 SWAP2 SUB SWAP1 REVERT JUMPDEST DUP1 PUSH1 0x7 PUSH1 0x0 PUSH2 0x100 EXP DUP2 SLOAD DUP2 PUSH20 0xFFFFFFFFFFFFFFFFFFFFFFFFFFFFFFFFFFFFFFFF MUL NOT AND SWAP1 DUP4 PUSH20 0xFFFFFFFFFFFFFFFFFFFFFFFFFFFFFFFFFFFFFFFF AND MUL OR SWAP1 SSTORE POP DUP1 PUSH20 0xFFFFFFFFFFFFFFFFFFFFFFFFFFFFFFFFFFFFFFFF AND PUSH1 0x6 PUSH1 0x0 SWAP1 SLOAD SWAP1 PUSH2 0x100 EXP SWAP1 DIV PUSH20 0xFFFFFFFFFFFFFFFFFFFFFFFFFFFFFFFFFFFFFFFF AND PUSH20 0xFFFFFFFFFFFFFFFFFFFFFFFFFFFFFFFFFFFFFFFF AND PUSH32 0xED8889F560326EB138920D842192F0EB3DD22B4F139C87A2C57538E05BAE1278 PUSH1 0x40 MLOAD PUSH1 0x40 MLOAD DUP1 SWAP2 SUB SWAP1 LOG3 POP JUMP JUMPDEST PUSH2 0xB13 PUSH2 0x143C JUMP JUMPDEST PUSH2 0xB23 DUP6 PUSH1 0x80 ADD MLOAD PUSH2 0x100 PUSH2 0xD59 JUMP JUMPDEST POP DUP4 DUP6 PUSH1 0x0 ADD DUP2 DUP2 MSTORE POP POP DUP3 DUP6 PUSH1 0x20 ADD SWAP1 PUSH20 0xFFFFFFFFFFFFFFFFFFFFFFFFFFFFFFFFFFFFFFFF AND SWAP1 DUP2 PUSH20 0xFFFFFFFFFFFFFFFFFFFFFFFFFFFFFFFFFFFFFFFF AND DUP2 MSTORE POP POP DUP2 DUP6 PUSH1 0x40 ADD SWAP1 PUSH28 0xFFFFFFFFFFFFFFFFFFFFFFFFFFFFFFFFFFFFFFFFFFFFFFFFFFFFFFFF NOT AND SWAP1 DUP2 PUSH28 0xFFFFFFFFFFFFFFFFFFFFFFFFFFFFFFFFFFFFFFFFFFFFFFFFFFFFFFFF NOT AND DUP2 MSTORE POP POP DUP5 SWAP1 POP SWAP5 SWAP4 POP POP POP POP JUMP JUMPDEST PUSH2 0xBC8 DUP3 PUSH1 0x3 DUP4 MLOAD PUSH2 0xDC3 JUMP JUMPDEST PUSH2 0xBDB DUP2 DUP4 PUSH2 0xF48 SWAP1 SWAP2 SWAP1 PUSH4 0xFFFFFFFF AND JUMP JUMPDEST POP POP POP JUMP JUMPDEST PUSH32 0xFFFFFFFFFFFFFFFFFFFFFFFFFFFFFFFFFFFFFFFFFFFFFFFF0000000000000000 DUP2 SLT ISZERO PUSH2 0xC17 JUMPI PUSH2 0xC12 DUP3 DUP3 PUSH2 0xF6A JUMP JUMPDEST PUSH2 0xC89 JUMP JUMPDEST PUSH8 0xFFFFFFFFFFFFFFFF DUP2 SGT ISZERO PUSH2 0xC36 JUMPI PUSH2 0xC31 DUP3 DUP3 PUSH2 0xFE1 JUMP JUMPDEST PUSH2 0xC88 JUMP JUMPDEST PUSH1 0x0 DUP2 SLT PUSH2 0xC4F JUMPI PUSH2 0xC4A DUP3 PUSH1 0x0 DUP4 PUSH2 0xDC3 JUMP JUMPDEST PUSH2 0xC87 JUMP JUMPDEST PUSH2 0xC86 DUP3 PUSH1 0x1 DUP4 PUSH32 0xFFFFFFFFFFFFFFFFFFFFFFFFFFFFFFFFFFFFFFFFFFFFFFFFFFFFFFFFFFFFFFFF PUSH2 0xC81 SWAP2 SWAP1 PUSH2 0x1B73 JUMP JUMPDEST PUSH2 0xDC3 JUMP JUMPDEST JUMPDEST JUMPDEST JUMPDEST POP POP JUMP JUMPDEST PUSH1 0x0 DUP1 PUSH1 0x4 SLOAD SWAP1 POP PUSH1 0x1 DUP2 PUSH2 0xCA2 SWAP2 SWAP1 PUSH2 0x1BB6 JUMP JUMPDEST PUSH1 0x4 DUP2 SWAP1 SSTORE POP PUSH1 0x0 PUSH4 0x40429946 PUSH1 0xE0 SHL PUSH1 0x0 DUP1 DUP8 PUSH1 0x0 ADD MLOAD ADDRESS DUP10 PUSH1 0x40 ADD MLOAD DUP8 PUSH1 0x1 DUP13 PUSH1 0x80 ADD MLOAD PUSH1 0x0 ADD MLOAD PUSH1 0x40 MLOAD PUSH1 0x24 ADD PUSH2 0xCE3 SWAP9 SWAP8 SWAP7 SWAP6 SWAP5 SWAP4 SWAP3 SWAP2 SWAP1 PUSH2 0x1C7A JUMP JUMPDEST PUSH1 0x40 MLOAD PUSH1 0x20 DUP2 DUP4 SUB SUB DUP2 MSTORE SWAP1 PUSH1 0x40 MSTORE SWAP1 PUSH28 0xFFFFFFFFFFFFFFFFFFFFFFFFFFFFFFFFFFFFFFFFFFFFFFFFFFFFFFFF NOT AND PUSH1 0x20 DUP3 ADD DUP1 MLOAD PUSH28 0xFFFFFFFFFFFFFFFFFFFFFFFFFFFFFFFFFFFFFFFFFFFFFFFFFFFFFFFF DUP4 DUP2 DUP4 AND OR DUP4 MSTORE POP POP POP POP SWAP1 POP PUSH2 0xD4E DUP7 DUP4 DUP7 DUP5 PUSH2 0x102D JUMP JUMPDEST SWAP3 POP POP POP SWAP4 SWAP3 POP POP POP JUMP JUMPDEST PUSH2 0xD61 PUSH2 0x14A9 JUMP JUMPDEST PUSH1 0x0 PUSH1 0x20 DUP4 PUSH2 0xD70 SWAP2 SWAP1 PUSH2 0x1CFF JUMP JUMPDEST EQ PUSH2 0xD9C JUMPI PUSH1 0x20 DUP3 PUSH2 0xD82 SWAP2 SWAP1 PUSH2 0x1CFF JUMP JUMPDEST PUSH1 0x20 PUSH2 0xD8E SWAP2 SWAP1 PUSH2 0x1D30 JUMP JUMPDEST DUP3 PUSH2 0xD99 SWAP2 SWAP1 PUSH2 0x1BB6 JUMP JUMPDEST SWAP2 POP JUMPDEST DUP2 DUP4 PUSH1 0x20 ADD DUP2 DUP2 MSTORE POP POP PUSH1 0x40 MLOAD DUP1 DUP5 MSTORE PUSH1 0x0 DUP2 MSTORE DUP3 DUP2 ADD PUSH1 0x20 ADD PUSH1 0x40 MSTORE POP DUP3 SWAP1 POP SWAP3 SWAP2 POP POP JUMP JUMPDEST PUSH1 0x17 DUP2 PUSH8 0xFFFFFFFFFFFFFFFF AND GT PUSH2 0xDFA JUMPI PUSH2 0xDF4 DUP2 PUSH1 0x5 DUP5 PUSH1 0xFF AND SWAP1 SHL PUSH1 0xFF AND OR DUP5 PUSH2 0x11C2 SWAP1 SWAP2 SWAP1 PUSH4 0xFFFFFFFF AND JUMP JUMPDEST POP PUSH2 0xF43 JUMP JUMPDEST PUSH1 0xFF DUP2 PUSH8 0xFFFFFFFFFFFFFFFF AND GT PUSH2 0xE50 JUMPI PUSH2 0xE29 PUSH1 0x18 PUSH1 0x5 DUP5 PUSH1 0xFF AND SWAP1 SHL OR DUP5 PUSH2 0x11C2 SWAP1 SWAP2 SWAP1 PUSH4 0xFFFFFFFF AND JUMP JUMPDEST POP PUSH2 0xE4A DUP2 PUSH8 0xFFFFFFFFFFFFFFFF AND PUSH1 0x1 DUP6 PUSH2 0x11E2 SWAP1 SWAP3 SWAP2 SWAP1 PUSH4 0xFFFFFFFF AND JUMP JUMPDEST POP PUSH2 0xF42 JUMP JUMPDEST PUSH2 0xFFFF DUP2 PUSH8 0xFFFFFFFFFFFFFFFF AND GT PUSH2 0xEA7 JUMPI PUSH2 0xE80 PUSH1 0x19 PUSH1 0x5 DUP5 PUSH1 0xFF AND SWAP1 SHL OR DUP5 PUSH2 0x11C2 SWAP1 SWAP2 SWAP1 PUSH4 0xFFFFFFFF AND JUMP JUMPDEST POP PUSH2 0xEA1 DUP2 PUSH8 0xFFFFFFFFFFFFFFFF AND PUSH1 0x2 DUP6 PUSH2 0x11E2 SWAP1 SWAP3 SWAP2 SWAP1 PUSH4 0xFFFFFFFF AND JUMP JUMPDEST POP PUSH2 0xF41 JUMP JUMPDEST PUSH4 0xFFFFFFFF DUP2 PUSH8 0xFFFFFFFFFFFFFFFF AND GT PUSH2 0xF00 JUMPI PUSH2 0xED9 PUSH1 0x1A PUSH1 0x5 DUP5 PUSH1 0xFF AND SWAP1 SHL OR DUP5 PUSH2 0x11C2 SWAP1 SWAP2 SWAP1 PUSH4 0xFFFFFFFF AND JUMP JUMPDEST POP PUSH2 0xEFA DUP2 PUSH8 0xFFFFFFFFFFFFFFFF AND PUSH1 0x4 DUP6 PUSH2 0x11E2 SWAP1 SWAP3 SWAP2 SWAP1 PUSH4 0xFFFFFFFF AND JUMP JUMPDEST POP PUSH2 0xF40 JUMP JUMPDEST PUSH2 0xF1D PUSH1 0x1B PUSH1 0x5 DUP5 PUSH1 0xFF AND SWAP1 SHL OR DUP5 PUSH2 0x11C2 SWAP1 SWAP2 SWAP1 PUSH4 0xFFFFFFFF AND JUMP JUMPDEST POP PUSH2 0xF3E DUP2 PUSH8 0xFFFFFFFFFFFFFFFF AND PUSH1 0x8 DUP6 PUSH2 0x11E2 SWAP1 SWAP3 SWAP2 SWAP1 PUSH4 0xFFFFFFFF AND JUMP JUMPDEST POP JUMPDEST JUMPDEST JUMPDEST JUMPDEST POP POP POP JUMP JUMPDEST PUSH2 0xF50 PUSH2 0x14A9 JUMP JUMPDEST PUSH2 0xF62 DUP4 DUP5 PUSH1 0x0 ADD MLOAD MLOAD DUP5 DUP6 MLOAD PUSH2 0x1204 JUMP JUMPDEST SWAP1 POP SWAP3 SWAP2 POP POP JUMP JUMPDEST PUSH2 0xF88 PUSH1 0x3 PUSH1 0x5 PUSH1 0x6 PUSH1 0xFF AND SWAP1 SHL OR DUP4 PUSH2 0x11C2 SWAP1 SWAP2 SWAP1 PUSH4 0xFFFFFFFF AND JUMP JUMPDEST POP PUSH2 0xFDD DUP3 DUP3 PUSH32 0xFFFFFFFFFFFFFFFFFFFFFFFFFFFFFFFFFFFFFFFFFFFFFFFFFFFFFFFFFFFFFFFF PUSH2 0xFB9 SWAP2 SWAP1 PUSH2 0x1B73 JUMP JUMPDEST PUSH1 0x40 MLOAD PUSH1 0x20 ADD PUSH2 0xFC9 SWAP2 SWAP1 PUSH2 0x15DF JUMP JUMPDEST PUSH1 0x40 MLOAD PUSH1 0x20 DUP2 DUP4 SUB SUB DUP2 MSTORE SWAP1 PUSH1 0x40 MSTORE PUSH2 0x12F3 JUMP JUMPDEST POP POP JUMP JUMPDEST PUSH2 0xFFF PUSH1 0x2 PUSH1 0x5 PUSH1 0x6 PUSH1 0xFF AND SWAP1 SHL OR DUP4 PUSH2 0x11C2 SWAP1 SWAP2 SWAP1 PUSH4 0xFFFFFFFF AND JUMP JUMPDEST POP PUSH2 0x1029 DUP3 DUP3 PUSH1 0x40 MLOAD PUSH1 0x20 ADD PUSH2 0x1015 SWAP2 SWAP1 PUSH2 0x15DF JUMP JUMPDEST PUSH1 0x40 MLOAD PUSH1 0x20 DUP2 DUP4 SUB SUB DUP2 MSTORE SWAP1 PUSH1 0x40 MSTORE PUSH2 0x12F3 JUMP JUMPDEST POP POP JUMP JUMPDEST PUSH1 0x0 ADDRESS DUP5 PUSH1 0x40 MLOAD PUSH1 0x20 ADD PUSH2 0x1042 SWAP3 SWAP2 SWAP1 PUSH2 0x1E1D JUMP JUMPDEST PUSH1 0x40 MLOAD PUSH1 0x20 DUP2 DUP4 SUB SUB DUP2 MSTORE SWAP1 PUSH1 0x40 MSTORE DUP1 MLOAD SWAP1 PUSH1 0x20 ADD KECCAK256 SWAP1 POP DUP5 PUSH1 0x5 PUSH1 0x0 DUP4 DUP2 MSTORE PUSH1 0x20 ADD SWAP1 DUP2 MSTORE PUSH1 0x20 ADD PUSH1 0x0 KECCAK256 PUSH1 0x0 PUSH2 0x100 EXP DUP2 SLOAD DUP2 PUSH20 0xFFFFFFFFFFFFFFFFFFFFFFFFFFFFFFFFFFFFFFFF MUL NOT AND SWAP1 DUP4 PUSH20 0xFFFFFFFFFFFFFFFFFFFFFFFFFFFFFFFFFFFFFFFF AND MUL OR SWAP1 SSTORE POP DUP1 PUSH32 0xB5E6E01E79F91267DC17B4E6314D5D4D03593D2CEEE0FBB452B750BD70EA5AF9 PUSH1 0x40 MLOAD PUSH1 0x40 MLOAD DUP1 SWAP2 SUB SWAP1 LOG2 PUSH1 0x2 PUSH1 0x0 SWAP1 SLOAD SWAP1 PUSH2 0x100 EXP SWAP1 DIV PUSH20 0xFFFFFFFFFFFFFFFFFFFFFFFFFFFFFFFFFFFFFFFF AND PUSH20 0xFFFFFFFFFFFFFFFFFFFFFFFFFFFFFFFFFFFFFFFF AND PUSH4 0x4000AEA0 DUP7 DUP6 DUP6 PUSH1 0x40 MLOAD DUP5 PUSH4 0xFFFFFFFF AND PUSH1 0xE0 SHL DUP2 MSTORE PUSH1 0x4 ADD PUSH2 0x1138 SWAP4 SWAP3 SWAP2 SWAP1 PUSH2 0x1E49 JUMP JUMPDEST PUSH1 0x20 PUSH1 0x40 MLOAD DUP1 DUP4 SUB DUP2 PUSH1 0x0 DUP8 GAS CALL ISZERO DUP1 ISZERO PUSH2 0x1157 JUMPI RETURNDATASIZE PUSH1 0x0 DUP1 RETURNDATACOPY RETURNDATASIZE PUSH1 0x0 REVERT JUMPDEST POP POP POP POP PUSH1 0x40 MLOAD RETURNDATASIZE PUSH1 0x1F NOT PUSH1 0x1F DUP3 ADD AND DUP3 ADD DUP1 PUSH1 0x40 MSTORE POP DUP2 ADD SWAP1 PUSH2 0x117B SWAP2 SWAP1 PUSH2 0x1832 JUMP JUMPDEST PUSH2 0x11BA JUMPI PUSH1 0x40 MLOAD PUSH32 0x8C379A000000000000000000000000000000000000000000000000000000000 DUP2 MSTORE PUSH1 0x4 ADD PUSH2 0x11B1 SWAP1 PUSH2 0x1EF9 JUMP JUMPDEST PUSH1 0x40 MLOAD DUP1 SWAP2 SUB SWAP1 REVERT JUMPDEST SWAP5 SWAP4 POP POP POP POP JUMP JUMPDEST PUSH2 0x11CA PUSH2 0x14A9 JUMP JUMPDEST PUSH2 0x11DA DUP4 DUP5 PUSH1 0x0 ADD MLOAD MLOAD DUP5 PUSH2 0x1318 JUMP JUMPDEST SWAP1 POP SWAP3 SWAP2 POP POP JUMP JUMPDEST PUSH2 0x11EA PUSH2 0x14A9 JUMP JUMPDEST PUSH2 0x11FB DUP5 DUP6 PUSH1 0x0 ADD MLOAD MLOAD DUP6 DUP6 PUSH2 0x136E JUMP JUMPDEST SWAP1 POP SWAP4 SWAP3 POP POP POP JUMP JUMPDEST PUSH2 0x120C PUSH2 0x14A9 JUMP JUMPDEST DUP3 MLOAD DUP3 GT ISZERO PUSH2 0x121A JUMPI PUSH1 0x0 DUP1 REVERT JUMPDEST DUP5 PUSH1 0x20 ADD MLOAD DUP3 DUP6 PUSH2 0x122B SWAP2 SWAP1 PUSH2 0x1BB6 JUMP JUMPDEST GT ISZERO PUSH2 0x1260 JUMPI PUSH2 0x125F DUP6 PUSH1 0x2 PUSH2 0x1250 DUP9 PUSH1 0x20 ADD MLOAD DUP9 DUP8 PUSH2 0x124B SWAP2 SWAP1 PUSH2 0x1BB6 JUMP JUMPDEST PUSH2 0x13FC JUMP JUMPDEST PUSH2 0x125A SWAP2 SWAP1 PUSH2 0x198C JUMP JUMPDEST PUSH2 0x1418 JUMP JUMPDEST JUMPDEST PUSH1 0x0 DUP1 DUP7 MLOAD DUP1 MLOAD DUP8 PUSH1 0x20 DUP4 ADD ADD SWAP4 POP DUP1 DUP9 DUP8 ADD GT ISZERO PUSH2 0x127F JUMPI DUP8 DUP7 ADD DUP3 MSTORE JUMPDEST PUSH1 0x20 DUP8 ADD SWAP3 POP POP POP JUMPDEST PUSH1 0x20 DUP5 LT PUSH2 0x12C6 JUMPI DUP1 MLOAD DUP3 MSTORE PUSH1 0x20 DUP3 PUSH2 0x12A1 SWAP2 SWAP1 PUSH2 0x1BB6 JUMP JUMPDEST SWAP2 POP PUSH1 0x20 DUP2 PUSH2 0x12B0 SWAP2 SWAP1 PUSH2 0x1BB6 JUMP JUMPDEST SWAP1 POP PUSH1 0x20 DUP5 PUSH2 0x12BF SWAP2 SWAP1 PUSH2 0x1D30 JUMP JUMPDEST SWAP4 POP PUSH2 0x1288 JUMP JUMPDEST PUSH1 0x0 PUSH1 0x1 DUP6 PUSH1 0x20 SUB PUSH2 0x100 EXP SUB SWAP1 POP DUP1 NOT DUP3 MLOAD AND DUP2 DUP5 MLOAD AND DUP2 DUP2 OR DUP6 MSTORE POP POP POP DUP7 SWAP3 POP POP POP SWAP5 SWAP4 POP POP POP POP JUMP JUMPDEST PUSH2 0x1300 DUP3 PUSH1 0x2 DUP4 MLOAD PUSH2 0xDC3 JUMP JUMPDEST PUSH2 0x1313 DUP2 DUP4 PUSH2 0xF48 SWAP1 SWAP2 SWAP1 PUSH4 0xFFFFFFFF AND JUMP JUMPDEST POP POP POP JUMP JUMPDEST PUSH2 0x1320 PUSH2 0x14A9 JUMP JUMPDEST DUP4 PUSH1 0x20 ADD MLOAD DUP4 LT PUSH2 0x1346 JUMPI PUSH2 0x1345 DUP5 PUSH1 0x2 DUP7 PUSH1 0x20 ADD MLOAD PUSH2 0x1340 SWAP2 SWAP1 PUSH2 0x198C JUMP JUMPDEST PUSH2 0x1418 JUMP JUMPDEST JUMPDEST DUP4 MLOAD DUP1 MLOAD PUSH1 0x20 DUP6 DUP4 ADD ADD DUP5 DUP2 MSTORE8 DUP2 DUP7 SUB PUSH2 0x1361 JUMPI PUSH1 0x1 DUP3 ADD DUP4 MSTORE JUMPDEST POP POP POP DUP4 SWAP1 POP SWAP4 SWAP3 POP POP POP JUMP JUMPDEST PUSH2 0x1376 PUSH2 0x14A9 JUMP JUMPDEST DUP5 PUSH1 0x20 ADD MLOAD DUP5 DUP4 PUSH2 0x1387 SWAP2 SWAP1 PUSH2 0x1BB6 JUMP JUMPDEST GT ISZERO PUSH2 0x13AF JUMPI PUSH2 0x13AE DUP6 PUSH1 0x2 DUP7 DUP6 PUSH2 0x139F SWAP2 SWAP1 PUSH2 0x1BB6 JUMP JUMPDEST PUSH2 0x13A9 SWAP2 SWAP1 PUSH2 0x198C JUMP JUMPDEST PUSH2 0x1418 JUMP JUMPDEST JUMPDEST PUSH1 0x0 PUSH1 0x1 DUP4 PUSH2 0x100 PUSH2 0x13C1 SWAP2 SWAP1 PUSH2 0x204C JUMP JUMPDEST PUSH2 0x13CB SWAP2 SWAP1 PUSH2 0x1D30 JUMP JUMPDEST SWAP1 POP DUP6 MLOAD DUP4 DUP7 DUP3 ADD ADD DUP6 DUP4 NOT DUP3 MLOAD AND OR DUP2 MSTORE DUP2 MLOAD DUP6 DUP9 ADD GT ISZERO PUSH2 0x13EE JUMPI DUP5 DUP8 ADD DUP3 MSTORE JUMPDEST POP POP DUP6 SWAP2 POP POP SWAP5 SWAP4 POP POP POP POP JUMP JUMPDEST PUSH1 0x0 DUP2 DUP4 GT ISZERO PUSH2 0x140E JUMPI DUP3 SWAP1 POP PUSH2 0x1412 JUMP JUMPDEST DUP2 SWAP1 POP JUMPDEST SWAP3 SWAP2 POP POP JUMP JUMPDEST PUSH1 0x0 DUP3 PUSH1 0x0 ADD MLOAD SWAP1 POP PUSH2 0x142B DUP4 DUP4 PUSH2 0xD59 JUMP JUMPDEST POP PUSH2 0x1436 DUP4 DUP3 PUSH2 0xF48 JUMP JUMPDEST POP POP POP POP JUMP JUMPDEST PUSH1 0x40 MLOAD DUP1 PUSH1 0xA0 ADD PUSH1 0x40 MSTORE DUP1 PUSH1 0x0 DUP1 NOT AND DUP2 MSTORE PUSH1 0x20 ADD PUSH1 0x0 PUSH20 0xFFFFFFFFFFFFFFFFFFFFFFFFFFFFFFFFFFFFFFFF AND DUP2 MSTORE PUSH1 0x20 ADD PUSH1 0x0 PUSH28 0xFFFFFFFFFFFFFFFFFFFFFFFFFFFFFFFFFFFFFFFFFFFFFFFFFFFFFFFF NOT AND DUP2 MSTORE PUSH1 0x20 ADD PUSH1 0x0 DUP2 MSTORE PUSH1 0x20 ADD PUSH2 0x14A3 PUSH2 0x14A9 JUMP JUMPDEST DUP2 MSTORE POP SWAP1 JUMP JUMPDEST PUSH1 0x40 MLOAD DUP1 PUSH1 0x40 ADD PUSH1 0x40 MSTORE DUP1 PUSH1 0x60 DUP2 MSTORE PUSH1 0x20 ADD PUSH1 0x0 DUP2 MSTORE POP SWAP1 JUMP JUMPDEST PUSH1 0x0 PUSH20 0xFFFFFFFFFFFFFFFFFFFFFFFFFFFFFFFFFFFFFFFF DUP3 AND SWAP1 POP SWAP2 SWAP1 POP JUMP JUMPDEST PUSH1 0x0 PUSH2 0x14EE DUP3 PUSH2 0x14C3 JUMP JUMPDEST SWAP1 POP SWAP2 SWAP1 POP JUMP JUMPDEST PUSH2 0x14FE DUP2 PUSH2 0x14E3 JUMP JUMPDEST DUP3 MSTORE POP POP JUMP JUMPDEST PUSH1 0x0 PUSH1 0x20 DUP3 ADD SWAP1 POP PUSH2 0x1519 PUSH1 0x0 DUP4 ADD DUP5 PUSH2 0x14F5 JUMP JUMPDEST SWAP3 SWAP2 POP POP JUMP JUMPDEST PUSH1 0x0 DUP1 REVERT JUMPDEST PUSH1 0x0 DUP2 SWAP1 POP SWAP2 SWAP1 POP JUMP JUMPDEST PUSH2 0x1537 DUP2 PUSH2 0x1524 JUMP JUMPDEST DUP2 EQ PUSH2 0x1542 JUMPI PUSH1 0x0 DUP1 REVERT JUMPDEST POP JUMP JUMPDEST PUSH1 0x0 DUP2 CALLDATALOAD SWAP1 POP PUSH2 0x1554 DUP2 PUSH2 0x152E JUMP JUMPDEST SWAP3 SWAP2 POP POP JUMP JUMPDEST PUSH1 0x0 DUP2 SWAP1 POP SWAP2 SWAP1 POP JUMP JUMPDEST PUSH2 0x156D DUP2 PUSH2 0x155A JUMP JUMPDEST DUP2 EQ PUSH2 0x1578 JUMPI PUSH1 0x0 DUP1 REVERT JUMPDEST POP JUMP JUMPDEST PUSH1 0x0 DUP2 CALLDATALOAD SWAP1 POP PUSH2 0x158A DUP2 PUSH2 0x1564 JUMP JUMPDEST SWAP3 SWAP2 POP POP JUMP JUMPDEST PUSH1 0x0 DUP1 PUSH1 0x40 DUP4 DUP6 SUB SLT ISZERO PUSH2 0x15A7 JUMPI PUSH2 0x15A6 PUSH2 0x151F JUMP JUMPDEST JUMPDEST PUSH1 0x0 PUSH2 0x15B5 DUP6 DUP3 DUP7 ADD PUSH2 0x1545 JUMP JUMPDEST SWAP3 POP POP PUSH1 0x20 PUSH2 0x15C6 DUP6 DUP3 DUP7 ADD PUSH2 0x157B JUMP JUMPDEST SWAP2 POP POP SWAP3 POP SWAP3 SWAP1 POP JUMP JUMPDEST PUSH2 0x15D9 DUP2 PUSH2 0x155A JUMP JUMPDEST DUP3 MSTORE POP POP JUMP JUMPDEST PUSH1 0x0 PUSH1 0x20 DUP3 ADD SWAP1 POP PUSH2 0x15F4 PUSH1 0x0 DUP4 ADD DUP5 PUSH2 0x15D0 JUMP JUMPDEST SWAP3 SWAP2 POP POP JUMP JUMPDEST PUSH1 0x0 PUSH32 0xFFFFFFFF00000000000000000000000000000000000000000000000000000000 DUP3 AND SWAP1 POP SWAP2 SWAP1 POP JUMP JUMPDEST PUSH2 0x162F DUP2 PUSH2 0x15FA JUMP JUMPDEST DUP2 EQ PUSH2 0x163A JUMPI PUSH1 0x0 DUP1 REVERT JUMPDEST POP JUMP JUMPDEST PUSH1 0x0 DUP2 CALLDATALOAD SWAP1 POP PUSH2 0x164C DUP2 PUSH2 0x1626 JUMP JUMPDEST SWAP3 SWAP2 POP POP JUMP JUMPDEST PUSH1 0x0 DUP1 PUSH1 0x0 DUP1 PUSH1 0x80 DUP6 DUP8 SUB SLT ISZERO PUSH2 0x166C JUMPI PUSH2 0x166B PUSH2 0x151F JUMP JUMPDEST JUMPDEST PUSH1 0x0 PUSH2 0x167A DUP8 DUP3 DUP9 ADD PUSH2 0x1545 JUMP JUMPDEST SWAP5 POP POP PUSH1 0x20 PUSH2 0x168B DUP8 DUP3 DUP9 ADD PUSH2 0x157B JUMP JUMPDEST SWAP4 POP POP PUSH1 0x40 PUSH2 0x169C DUP8 DUP3 DUP9 ADD PUSH2 0x163D JUMP JUMPDEST SWAP3 POP POP PUSH1 0x60 PUSH2 0x16AD DUP8 DUP3 DUP9 ADD PUSH2 0x157B JUMP JUMPDEST SWAP2 POP POP SWAP3 SWAP6 SWAP2 SWAP5 POP SWAP3 POP JUMP JUMPDEST PUSH2 0x16C2 DUP2 PUSH2 0x14E3 JUMP JUMPDEST DUP2 EQ PUSH2 0x16CD JUMPI PUSH1 0x0 DUP1 REVERT JUMPDEST POP JUMP JUMPDEST PUSH1 0x0 DUP2 CALLDATALOAD SWAP1 POP PUSH2 0x16DF DUP2 PUSH2 0x16B9 JUMP JUMPDEST SWAP3 SWAP2 POP POP JUMP JUMPDEST PUSH1 0x0 PUSH1 0x20 DUP3 DUP5 SUB SLT ISZERO PUSH2 0x16FB JUMPI PUSH2 0x16FA PUSH2 0x151F JUMP JUMPDEST JUMPDEST PUSH1 0x0 PUSH2 0x1709 DUP5 DUP3 DUP6 ADD PUSH2 0x16D0 JUMP JUMPDEST SWAP2 POP POP SWAP3 SWAP2 POP POP JUMP JUMPDEST PUSH1 0x0 DUP3 DUP3 MSTORE PUSH1 0x20 DUP3 ADD SWAP1 POP SWAP3 SWAP2 POP POP JUMP JUMPDEST PUSH32 0x4D7573742062652070726F706F736564206F776E657200000000000000000000 PUSH1 0x0 DUP3 ADD MSTORE POP JUMP JUMPDEST PUSH1 0x0 PUSH2 0x1759 PUSH1 0x16 DUP4 PUSH2 0x1712 JUMP JUMPDEST SWAP2 POP PUSH2 0x1764 DUP3 PUSH2 0x1723 JUMP JUMPDEST PUSH1 0x20 DUP3 ADD SWAP1 POP SWAP2 SWAP1 POP JUMP JUMPDEST PUSH1 0x0 PUSH1 0x20 DUP3 ADD SWAP1 POP DUP2 DUP2 SUB PUSH1 0x0 DUP4 ADD MSTORE PUSH2 0x1788 DUP2 PUSH2 0x174C JUMP JUMPDEST SWAP1 POP SWAP2 SWAP1 POP JUMP JUMPDEST PUSH1 0x0 DUP2 MLOAD SWAP1 POP PUSH2 0x179E DUP2 PUSH2 0x1564 JUMP JUMPDEST SWAP3 SWAP2 POP POP JUMP JUMPDEST PUSH1 0x0 PUSH1 0x20 DUP3 DUP5 SUB SLT ISZERO PUSH2 0x17BA JUMPI PUSH2 0x17B9 PUSH2 0x151F JUMP JUMPDEST JUMPDEST PUSH1 0x0 PUSH2 0x17C8 DUP5 DUP3 DUP6 ADD PUSH2 0x178F JUMP JUMPDEST SWAP2 POP POP SWAP3 SWAP2 POP POP JUMP JUMPDEST PUSH1 0x0 PUSH1 0x40 DUP3 ADD SWAP1 POP PUSH2 0x17E6 PUSH1 0x0 DUP4 ADD DUP6 PUSH2 0x14F5 JUMP JUMPDEST PUSH2 0x17F3 PUSH1 0x20 DUP4 ADD DUP5 PUSH2 0x15D0 JUMP JUMPDEST SWAP4 SWAP3 POP POP POP JUMP JUMPDEST PUSH1 0x0 DUP2 ISZERO ISZERO SWAP1 POP SWAP2 SWAP1 POP JUMP JUMPDEST PUSH2 0x180F DUP2 PUSH2 0x17FA JUMP JUMPDEST DUP2 EQ PUSH2 0x181A JUMPI PUSH1 0x0 DUP1 REVERT JUMPDEST POP JUMP JUMPDEST PUSH1 0x0 DUP2 MLOAD SWAP1 POP PUSH2 0x182C DUP2 PUSH2 0x1806 JUMP JUMPDEST SWAP3 SWAP2 POP POP JUMP JUMPDEST PUSH1 0x0 PUSH1 0x20 DUP3 DUP5 SUB SLT ISZERO PUSH2 0x1848 JUMPI PUSH2 0x1847 PUSH2 0x151F JUMP JUMPDEST JUMPDEST PUSH1 0x0 PUSH2 0x1856 DUP5 DUP3 DUP6 ADD PUSH2 0x181D JUMP JUMPDEST SWAP2 POP POP SWAP3 SWAP2 POP POP JUMP JUMPDEST PUSH32 0x556E61626C6520746F207472616E736665720000000000000000000000000000 PUSH1 0x0 DUP3 ADD MSTORE POP JUMP JUMPDEST PUSH1 0x0 PUSH2 0x1895 PUSH1 0x12 DUP4 PUSH2 0x1712 JUMP JUMPDEST SWAP2 POP PUSH2 0x18A0 DUP3 PUSH2 0x185F JUMP JUMPDEST PUSH1 0x20 DUP3 ADD SWAP1 POP SWAP2 SWAP1 POP JUMP JUMPDEST PUSH1 0x0 PUSH1 0x20 DUP3 ADD SWAP1 POP DUP2 DUP2 SUB PUSH1 0x0 DUP4 ADD MSTORE PUSH2 0x18C4 DUP2 PUSH2 0x1888 JUMP JUMPDEST SWAP1 POP SWAP2 SWAP1 POP JUMP JUMPDEST PUSH32 0x536F75726365206D75737420626520746865206F7261636C65206F6620746865 PUSH1 0x0 DUP3 ADD MSTORE PUSH32 0x2072657175657374000000000000000000000000000000000000000000000000 PUSH1 0x20 DUP3 ADD MSTORE POP JUMP JUMPDEST PUSH1 0x0 PUSH2 0x1927 PUSH1 0x28 DUP4 PUSH2 0x1712 JUMP JUMPDEST SWAP2 POP PUSH2 0x1932 DUP3 PUSH2 0x18CB JUMP JUMPDEST PUSH1 0x40 DUP3 ADD SWAP1 POP SWAP2 SWAP1 POP JUMP JUMPDEST PUSH1 0x0 PUSH1 0x20 DUP3 ADD SWAP1 POP DUP2 DUP2 SUB PUSH1 0x0 DUP4 ADD MSTORE PUSH2 0x1956 DUP2 PUSH2 0x191A JUMP JUMPDEST SWAP1 POP SWAP2 SWAP1 POP JUMP JUMPDEST PUSH32 0x4E487B7100000000000000000000000000000000000000000000000000000000 PUSH1 0x0 MSTORE PUSH1 0x11 PUSH1 0x4 MSTORE PUSH1 0x24 PUSH1 0x0 REVERT JUMPDEST PUSH1 0x0 PUSH2 0x1997 DUP3 PUSH2 0x155A JUMP JUMPDEST SWAP2 POP PUSH2 0x19A2 DUP4 PUSH2 0x155A JUMP JUMPDEST SWAP3 POP DUP3 DUP3 MUL PUSH2 0x19B0 DUP2 PUSH2 0x155A JUMP JUMPDEST SWAP2 POP DUP3 DUP3 DIV DUP5 EQ DUP4 ISZERO OR PUSH2 0x19C7 JUMPI PUSH2 0x19C6 PUSH2 0x195D JUMP JUMPDEST JUMPDEST POP SWAP3 SWAP2 POP POP JUMP JUMPDEST PUSH32 0x4E487B7100000000000000000000000000000000000000000000000000000000 PUSH1 0x0 MSTORE PUSH1 0x12 PUSH1 0x4 MSTORE PUSH1 0x24 PUSH1 0x0 REVERT JUMPDEST PUSH1 0x0 PUSH2 0x1A08 DUP3 PUSH2 0x155A JUMP JUMPDEST SWAP2 POP PUSH2 0x1A13 DUP4 PUSH2 0x155A JUMP JUMPDEST SWAP3 POP DUP3 PUSH2 0x1A23 JUMPI PUSH2 0x1A22 PUSH2 0x19CE JUMP JUMPDEST JUMPDEST DUP3 DUP3 DIV SWAP1 POP SWAP3 SWAP2 POP POP JUMP JUMPDEST PUSH32 0x4F6E6C792063616C6C61626C65206279206F776E657200000000000000000000 PUSH1 0x0 DUP3 ADD MSTORE POP JUMP JUMPDEST PUSH1 0x0 PUSH2 0x1A64 PUSH1 0x16 DUP4 PUSH2 0x1712 JUMP JUMPDEST SWAP2 POP PUSH2 0x1A6F DUP3 PUSH2 0x1A2E JUMP JUMPDEST PUSH1 0x20 DUP3 ADD SWAP1 POP SWAP2 SWAP1 POP JUMP JUMPDEST PUSH1 0x0 PUSH1 0x20 DUP3 ADD SWAP1 POP DUP2 DUP2 SUB PUSH1 0x0 DUP4 ADD MSTORE PUSH2 0x1A93 DUP2 PUSH2 0x1A57 JUMP JUMPDEST SWAP1 POP SWAP2 SWAP1 POP JUMP JUMPDEST PUSH2 0x1AA3 DUP2 PUSH2 0x1524 JUMP JUMPDEST DUP3 MSTORE POP POP JUMP JUMPDEST PUSH2 0x1AB2 DUP2 PUSH2 0x15FA JUMP JUMPDEST DUP3 MSTORE POP POP JUMP JUMPDEST PUSH1 0x0 PUSH1 0x80 DUP3 ADD SWAP1 POP PUSH2 0x1ACD PUSH1 0x0 DUP4 ADD DUP8 PUSH2 0x1A9A JUMP JUMPDEST PUSH2 0x1ADA PUSH1 0x20 DUP4 ADD DUP7 PUSH2 0x15D0 JUMP JUMPDEST PUSH2 0x1AE7 PUSH1 0x40 DUP4 ADD DUP6 PUSH2 0x1AA9 JUMP JUMPDEST PUSH2 0x1AF4 PUSH1 0x60 DUP4 ADD DUP5 PUSH2 0x15D0 JUMP JUMPDEST SWAP6 SWAP5 POP POP POP POP POP JUMP JUMPDEST PUSH32 0x43616E6E6F74207472616E7366657220746F2073656C66000000000000000000 PUSH1 0x0 DUP3 ADD MSTORE POP JUMP JUMPDEST PUSH1 0x0 PUSH2 0x1B33 PUSH1 0x17 DUP4 PUSH2 0x1712 JUMP JUMPDEST SWAP2 POP PUSH2 0x1B3E DUP3 PUSH2 0x1AFD JUMP JUMPDEST PUSH1 0x20 DUP3 ADD SWAP1 POP SWAP2 SWAP1 POP JUMP JUMPDEST PUSH1 0x0 PUSH1 0x20 DUP3 ADD SWAP1 POP DUP2 DUP2 SUB PUSH1 0x0 DUP4 ADD MSTORE PUSH2 0x1B62 DUP2 PUSH2 0x1B26 JUMP JUMPDEST SWAP1 POP SWAP2 SWAP1 POP JUMP JUMPDEST PUSH1 0x0 DUP2 SWAP1 POP SWAP2 SWAP1 POP JUMP JUMPDEST PUSH1 0x0 PUSH2 0x1B7E DUP3 PUSH2 0x1B69 JUMP JUMPDEST SWAP2 POP PUSH2 0x1B89 DUP4 PUSH2 0x1B69 JUMP JUMPDEST SWAP3 POP DUP3 DUP3 SUB SWAP1 POP DUP2 DUP2 SLT PUSH1 0x0 DUP5 SLT AND DUP3 DUP3 SGT PUSH1 0x0 DUP6 SLT ISZERO AND OR ISZERO PUSH2 0x1BB0 JUMPI PUSH2 0x1BAF PUSH2 0x195D JUMP JUMPDEST JUMPDEST SWAP3 SWAP2 POP POP JUMP JUMPDEST PUSH1 0x0 PUSH2 0x1BC1 DUP3 PUSH2 0x155A JUMP JUMPDEST SWAP2 POP PUSH2 0x1BCC DUP4 PUSH2 0x155A JUMP JUMPDEST SWAP3 POP DUP3 DUP3 ADD SWAP1 POP DUP1 DUP3 GT ISZERO PUSH2 0x1BE4 JUMPI PUSH2 0x1BE3 PUSH2 0x195D JUMP JUMPDEST JUMPDEST SWAP3 SWAP2 POP POP JUMP JUMPDEST PUSH1 0x0 DUP2 MLOAD SWAP1 POP SWAP2 SWAP1 POP JUMP JUMPDEST PUSH1 0x0 DUP3 DUP3 MSTORE PUSH1 0x20 DUP3 ADD SWAP1 POP SWAP3 SWAP2 POP POP JUMP JUMPDEST PUSH1 0x0 JUMPDEST DUP4 DUP2 LT ISZERO PUSH2 0x1C24 JUMPI DUP1 DUP3 ADD MLOAD DUP2 DUP5 ADD MSTORE PUSH1 0x20 DUP2 ADD SWAP1 POP PUSH2 0x1C09 JUMP JUMPDEST PUSH1 0x0 DUP5 DUP5 ADD MSTORE POP POP POP POP JUMP JUMPDEST PUSH1 0x0 PUSH1 0x1F NOT PUSH1 0x1F DUP4 ADD AND SWAP1 POP SWAP2 SWAP1 POP JUMP JUMPDEST PUSH1 0x0 PUSH2 0x1C4C DUP3 PUSH2 0x1BEA JUMP JUMPDEST PUSH2 0x1C56 DUP2 DUP6 PUSH2 0x1BF5 JUMP JUMPDEST SWAP4 POP PUSH2 0x1C66 DUP2 DUP6 PUSH1 0x20 DUP7 ADD PUSH2 0x1C06 JUMP JUMPDEST PUSH2 0x1C6F DUP2 PUSH2 0x1C30 JUMP JUMPDEST DUP5 ADD SWAP2 POP POP SWAP3 SWAP2 POP POP JUMP JUMPDEST PUSH1 0x0 PUSH2 0x100 DUP3 ADD SWAP1 POP PUSH2 0x1C90 PUSH1 0x0 DUP4 ADD DUP12 PUSH2 0x14F5 JUMP JUMPDEST PUSH2 0x1C9D PUSH1 0x20 DUP4 ADD DUP11 PUSH2 0x15D0 JUMP JUMPDEST PUSH2 0x1CAA PUSH1 0x40 DUP4 ADD DUP10 PUSH2 0x1A9A JUMP JUMPDEST PUSH2 0x1CB7 PUSH1 0x60 DUP4 ADD DUP9 PUSH2 0x14F5 JUMP JUMPDEST PUSH2 0x1CC4 PUSH1 0x80 DUP4 ADD DUP8 PUSH2 0x1AA9 JUMP JUMPDEST PUSH2 0x1CD1 PUSH1 0xA0 DUP4 ADD DUP7 PUSH2 0x15D0 JUMP JUMPDEST PUSH2 0x1CDE PUSH1 0xC0 DUP4 ADD DUP6 PUSH2 0x15D0 JUMP JUMPDEST DUP2 DUP2 SUB PUSH1 0xE0 DUP4 ADD MSTORE PUSH2 0x1CF0 DUP2 DUP5 PUSH2 0x1C41 JUMP JUMPDEST SWAP1 POP SWAP10 SWAP9 POP POP POP POP POP POP POP POP POP JUMP JUMPDEST PUSH1 0x0 PUSH2 0x1D0A DUP3 PUSH2 0x155A JUMP JUMPDEST SWAP2 POP PUSH2 0x1D15 DUP4 PUSH2 0x155A JUMP JUMPDEST SWAP3 POP DUP3 PUSH2 0x1D25 JUMPI PUSH2 0x1D24 PUSH2 0x19CE JUMP JUMPDEST JUMPDEST DUP3 DUP3 MOD SWAP1 POP SWAP3 SWAP2 POP POP JUMP JUMPDEST PUSH1 0x0 PUSH2 0x1D3B DUP3 PUSH2 0x155A JUMP JUMPDEST SWAP2 POP PUSH2 0x1D46 DUP4 PUSH2 0x155A JUMP JUMPDEST SWAP3 POP DUP3 DUP3 SUB SWAP1 POP DUP2 DUP2 GT ISZERO PUSH2 0x1D5E JUMPI PUSH2 0x1D5D PUSH2 0x195D JUMP JUMPDEST JUMPDEST SWAP3 SWAP2 POP POP JUMP JUMPDEST PUSH1 0x0 DUP2 SWAP1 POP SWAP2 SWAP1 POP JUMP JUMPDEST PUSH1 0x0 PUSH2 0x1D89 PUSH2 0x1D84 PUSH2 0x1D7F DUP5 PUSH2 0x14C3 JUMP JUMPDEST PUSH2 0x1D64 JUMP JUMPDEST PUSH2 0x14C3 JUMP JUMPDEST SWAP1 POP SWAP2 SWAP1 POP JUMP JUMPDEST PUSH1 0x0 PUSH2 0x1D9B DUP3 PUSH2 0x1D6E JUMP JUMPDEST SWAP1 POP SWAP2 SWAP1 POP JUMP JUMPDEST PUSH1 0x0 PUSH2 0x1DAD DUP3 PUSH2 0x1D90 JUMP JUMPDEST SWAP1 POP SWAP2 SWAP1 POP JUMP JUMPDEST PUSH1 0x0 DUP2 PUSH1 0x60 SHL SWAP1 POP SWAP2 SWAP1 POP JUMP JUMPDEST PUSH1 0x0 PUSH2 0x1DCC DUP3 PUSH2 0x1DB4 JUMP JUMPDEST SWAP1 POP SWAP2 SWAP1 POP JUMP JUMPDEST PUSH1 0x0 PUSH2 0x1DDE DUP3 PUSH2 0x1DC1 JUMP JUMPDEST SWAP1 POP SWAP2 SWAP1 POP JUMP JUMPDEST PUSH2 0x1DF6 PUSH2 0x1DF1 DUP3 PUSH2 0x1DA2 JUMP JUMPDEST PUSH2 0x1DD3 JUMP JUMPDEST DUP3 MSTORE POP POP JUMP JUMPDEST PUSH1 0x0 DUP2 SWAP1 POP SWAP2 SWAP1 POP JUMP JUMPDEST PUSH2 0x1E17 PUSH2 0x1E12 DUP3 PUSH2 0x155A JUMP JUMPDEST PUSH2 0x1DFC JUMP JUMPDEST DUP3 MSTORE POP POP JUMP JUMPDEST PUSH1 0x0 PUSH2 0x1E29 DUP3 DUP6 PUSH2 0x1DE5 JUMP JUMPDEST PUSH1 0x14 DUP3 ADD SWAP2 POP PUSH2 0x1E39 DUP3 DUP5 PUSH2 0x1E06 JUMP JUMPDEST PUSH1 0x20 DUP3 ADD SWAP2 POP DUP2 SWAP1 POP SWAP4 SWAP3 POP POP POP JUMP JUMPDEST PUSH1 0x0 PUSH1 0x60 DUP3 ADD SWAP1 POP PUSH2 0x1E5E PUSH1 0x0 DUP4 ADD DUP7 PUSH2 0x14F5 JUMP JUMPDEST PUSH2 0x1E6B PUSH1 0x20 DUP4 ADD DUP6 PUSH2 0x15D0 JUMP JUMPDEST DUP2 DUP2 SUB PUSH1 0x40 DUP4 ADD MSTORE PUSH2 0x1E7D DUP2 DUP5 PUSH2 0x1C41 JUMP JUMPDEST SWAP1 POP SWAP5 SWAP4 POP POP POP POP JUMP JUMPDEST PUSH32 0x756E61626C6520746F207472616E73666572416E6443616C6C20746F206F7261 PUSH1 0x0 DUP3 ADD MSTORE PUSH32 0x636C650000000000000000000000000000000000000000000000000000000000 PUSH1 0x20 DUP3 ADD MSTORE POP JUMP JUMPDEST PUSH1 0x0 PUSH2 0x1EE3 PUSH1 0x23 DUP4 PUSH2 0x1712 JUMP JUMPDEST SWAP2 POP PUSH2 0x1EEE DUP3 PUSH2 0x1E87 JUMP JUMPDEST PUSH1 0x40 DUP3 ADD SWAP1 POP SWAP2 SWAP1 POP JUMP JUMPDEST PUSH1 0x0 PUSH1 0x20 DUP3 ADD SWAP1 POP DUP2 DUP2 SUB PUSH1 0x0 DUP4 ADD MSTORE PUSH2 0x1F12 DUP2 PUSH2 0x1ED6 JUMP JUMPDEST SWAP1 POP SWAP2 SWAP1 POP JUMP JUMPDEST PUSH1 0x0 DUP2 PUSH1 0x1 SHR SWAP1 POP SWAP2 SWAP1 POP JUMP JUMPDEST PUSH1 0x0 DUP1 DUP3 SWAP2 POP DUP4 SWAP1 POP JUMPDEST PUSH1 0x1 DUP6 GT ISZERO PUSH2 0x1F70 JUMPI DUP1 DUP7 DIV DUP2 GT ISZERO PUSH2 0x1F4C JUMPI PUSH2 0x1F4B PUSH2 0x195D JUMP JUMPDEST JUMPDEST PUSH1 0x1 DUP6 AND ISZERO PUSH2 0x1F5B JUMPI DUP1 DUP3 MUL SWAP2 POP JUMPDEST DUP1 DUP2 MUL SWAP1 POP PUSH2 0x1F69 DUP6 PUSH2 0x1F19 JUMP JUMPDEST SWAP5 POP PUSH2 0x1F30 JUMP JUMPDEST SWAP5 POP SWAP5 SWAP3 POP POP POP JUMP JUMPDEST PUSH1 0x0 DUP3 PUSH2 0x1F89 JUMPI PUSH1 0x1 SWAP1 POP PUSH2 0x2045 JUMP JUMPDEST DUP2 PUSH2 0x1F97 JUMPI PUSH1 0x0 SWAP1 POP PUSH2 0x2045 JUMP JUMPDEST DUP2 PUSH1 0x1 DUP2 EQ PUSH2 0x1FAD JUMPI PUSH1 0x2 DUP2 EQ PUSH2 0x1FB7 JUMPI PUSH2 0x1FE6 JUMP JUMPDEST PUSH1 0x1 SWAP2 POP POP PUSH2 0x2045 JUMP JUMPDEST PUSH1 0xFF DUP5 GT ISZERO PUSH2 0x1FC9 JUMPI PUSH2 0x1FC8 PUSH2 0x195D JUMP JUMPDEST JUMPDEST DUP4 PUSH1 0x2 EXP SWAP2 POP DUP5 DUP3 GT ISZERO PUSH2 0x1FE0 JUMPI PUSH2 0x1FDF PUSH2 0x195D JUMP JUMPDEST JUMPDEST POP PUSH2 0x2045 JUMP JUMPDEST POP PUSH1 0x20 DUP4 LT PUSH2 0x133 DUP4 LT AND PUSH1 0x4E DUP5 LT PUSH1 0xB DUP5 LT AND OR ISZERO PUSH2 0x201B JUMPI DUP3 DUP3 EXP SWAP1 POP DUP4 DUP2 GT ISZERO PUSH2 0x2016 JUMPI PUSH2 0x2015 PUSH2 0x195D JUMP JUMPDEST JUMPDEST PUSH2 0x2045 JUMP JUMPDEST PUSH2 0x2028 DUP5 DUP5 DUP5 PUSH1 0x1 PUSH2 0x1F26 JUMP JUMPDEST SWAP3 POP SWAP1 POP DUP2 DUP5 DIV DUP2 GT ISZERO PUSH2 0x203F JUMPI PUSH2 0x203E PUSH2 0x195D JUMP JUMPDEST JUMPDEST DUP2 DUP2 MUL SWAP1 POP JUMPDEST SWAP4 SWAP3 POP POP POP JUMP JUMPDEST PUSH1 0x0 PUSH2 0x2057 DUP3 PUSH2 0x155A JUMP JUMPDEST SWAP2 POP PUSH2 0x2062 DUP4 PUSH2 0x155A JUMP JUMPDEST SWAP3 POP PUSH2 0x208F PUSH32 0xFFFFFFFFFFFFFFFFFFFFFFFFFFFFFFFFFFFFFFFFFFFFFFFFFFFFFFFFFFFFFFFF DUP5 DUP5 PUSH2 0x1F79 JUMP JUMPDEST SWAP1 POP SWAP3 SWAP2 POP POP JUMP INVALID PUSH9 0x747470733A2F2F6D69 PUSH15 0x2D6170692E63727970746F636F6D70 PUSH2 0x7265 0x2E PUSH4 0x6F6D2F64 PUSH2 0x7461 0x2F PUSH17 0x726963653F6673796D3D45544826747379 PUSH14 0x733D555344A26469706673582212 KECCAK256 0xE0 INVALID 0x4C 0xEC 0x1E PUSH3 0xC65BC5 CALL SSTORE 0xE8 0xC7 DUP4 PUSH6 0xD2C941EA2BCE 0xEA 0xE9 PUSH9 0x14610A9F2E1837A064 PUSH20 0x6F6C634300081200330000000000000000000000 "
				},
				"gasEstimates": {
					"creation": {
						"codeDepositCost": "1692000",
						"executionCost": "infinite",
						"totalCost": "infinite"
					},
					"external": {
						"acceptOwnership()": "54563",
						"cancelRequest(bytes32,uint256,bytes4,uint256)": "infinite",
						"currentPrice()": "2451",
						"fulfillEthereumPrice(bytes32,uint256)": "50421",
						"getChainlinkToken()": "2558",
						"owner()": "2567",
						"requestEthereumPrice()": "infinite",
						"transferOwnership(address)": "30748",
						"withdrawLink()": "infinite"
					},
					"internal": {
						"stringToBytes32(string memory)": "infinite"
					}
				},
				"methodIdentifiers": {
					"acceptOwnership()": "79ba5097",
					"cancelRequest(bytes32,uint256,bytes4,uint256)": "ec65d0f8",
					"currentPrice()": "9d1b464a",
					"fulfillEthereumPrice(bytes32,uint256)": "92cdaaf3",
					"getChainlinkToken()": "165d35e1",
					"owner()": "8da5cb5b",
					"requestEthereumPrice()": "d7f29c63",
					"transferOwnership(address)": "f2fde38b",
					"withdrawLink()": "8dc654a2"
				}
			},
			"storageLayout": {
				"storage": [
					{
						"astId": 319,
						"contract": "docs.chain.link/samples/APIRequests/ATestnetConsumer.sol:ATestnetConsumer",
						"label": "s_ens",
						"offset": 0,
						"slot": "0",
						"type": "t_contract(ENSInterface)1156"
					},
					{
						"astId": 321,
						"contract": "docs.chain.link/samples/APIRequests/ATestnetConsumer.sol:ATestnetConsumer",
						"label": "s_ensNode",
						"offset": 0,
						"slot": "1",
						"type": "t_bytes32"
					},
					{
						"astId": 324,
						"contract": "docs.chain.link/samples/APIRequests/ATestnetConsumer.sol:ATestnetConsumer",
						"label": "s_link",
						"offset": 0,
						"slot": "2",
						"type": "t_contract(LinkTokenInterface)1251"
					},
					{
						"astId": 327,
						"contract": "docs.chain.link/samples/APIRequests/ATestnetConsumer.sol:ATestnetConsumer",
						"label": "s_oracle",
						"offset": 0,
						"slot": "3",
						"type": "t_contract(OperatorInterface)1331"
					},
					{
						"astId": 330,
						"contract": "docs.chain.link/samples/APIRequests/ATestnetConsumer.sol:ATestnetConsumer",
						"label": "s_requestCount",
						"offset": 0,
						"slot": "4",
						"type": "t_uint256"
					},
					{
						"astId": 334,
						"contract": "docs.chain.link/samples/APIRequests/ATestnetConsumer.sol:ATestnetConsumer",
						"label": "s_pendingRequests",
						"offset": 0,
						"slot": "5",
						"type": "t_mapping(t_bytes32,t_address)"
					},
					{
						"astId": 889,
						"contract": "docs.chain.link/samples/APIRequests/ATestnetConsumer.sol:ATestnetConsumer",
						"label": "s_owner",
						"offset": 0,
						"slot": "6",
						"type": "t_address"
					},
					{
						"astId": 891,
						"contract": "docs.chain.link/samples/APIRequests/ATestnetConsumer.sol:ATestnetConsumer",
						"label": "s_pendingOwner",
						"offset": 0,
						"slot": "7",
						"type": "t_address"
					},
					{
						"astId": 2396,
						"contract": "docs.chain.link/samples/APIRequests/ATestnetConsumer.sol:ATestnetConsumer",
						"label": "currentPrice",
						"offset": 0,
						"slot": "8",
						"type": "t_uint256"
					},
					{
						"astId": 2398,
						"contract": "docs.chain.link/samples/APIRequests/ATestnetConsumer.sol:ATestnetConsumer",
						"label": "jobId",
						"offset": 0,
						"slot": "9",
						"type": "t_bytes32"
					}
				],
				"types": {
					"t_address": {
						"encoding": "inplace",
						"label": "address",
						"numberOfBytes": "20"
					},
					"t_bytes32": {
						"encoding": "inplace",
						"label": "bytes32",
						"numberOfBytes": "32"
					},
					"t_contract(ENSInterface)1156": {
						"encoding": "inplace",
						"label": "contract ENSInterface",
						"numberOfBytes": "20"
					},
					"t_contract(LinkTokenInterface)1251": {
						"encoding": "inplace",
						"label": "contract LinkTokenInterface",
						"numberOfBytes": "20"
					},
					"t_contract(OperatorInterface)1331": {
						"encoding": "inplace",
						"label": "contract OperatorInterface",
						"numberOfBytes": "20"
					},
					"t_mapping(t_bytes32,t_address)": {
						"encoding": "mapping",
						"key": "t_bytes32",
						"label": "mapping(bytes32 => address)",
						"numberOfBytes": "32",
						"value": "t_address"
					},
					"t_uint256": {
						"encoding": "inplace",
						"label": "uint256",
						"numberOfBytes": "32"
					}
				}
			},
			"userdoc": {
				"kind": "user",
				"methods": {
					"acceptOwnership()": {
						"notice": "Allows an ownership transfer to be completed by the recipient."
					},
					"owner()": {
						"notice": "Get the current owner"
					},
					"transferOwnership(address)": {
						"notice": "Allows an owner to begin transferring ownership to a new address, pending."
					}
				},
				"notice": "THIS IS AN EXAMPLE CONTRACT THAT USES UN-AUDITED CODE. DO NOT USE THIS CODE IN PRODUCTION.",
				"version": 1
			}
		}
	}
}